:100000005446495300010000E07702009FE4585233
:100010001017013317060120443159301017020020
:100020001706012044313030101701281706011936
:100030004431594C030000000000000000000000A3
:100040005446435300200000184F020000000000F7
:100050000080011001210000252100004122000044
:10006000292100002B2100002D2100003D2100004E
:100070003D2100003D2100003D2100002F21000016
:10008000312100003D21000033210000D95B000038
:10009000BF5C0000372100003D2100001956001010
:1000A00037210000E33F0000E93F00003D21000050
:1000B0003D21000013580000714F0000EF3F000089
:1000C00099550000372100003D2100003D2100002E
:1000D0000000000000000000000000000000000020
:1000E0000000000000000000000000000000000010
:1000F0000000000000000000000000000000000000
:1001000000000000000000000000000000000000EF
:1001100000000000000000000000000000000000DF
:1001200000000000000000000000000000000000CF
:1001300000000000000000000000000000000000BF
:1001400000000000000000000000000000000000AF
:1001500000F003F800F020F8FEE70D480168890878
:100160008900002001C101C101C101C17047000027
:10017000B8620010FEE7FEE7FEE7FEE7FEE7FEE7F7
:10018000FEE7FEE7FEE703480047FEE7FEE7000064
:10019000202100003D21000000F002F800F068F886
:1001A0000AA090E8000C82448344AAF10107DA45D2
:1001B00001D100F05DF8AFF2090EBAE80F0013F0BC
:1001C000010F18BFFB1A43F00103184760E9010053
:1001D000A0E901000A444FF0000C10F8013B13F0B5
:1001E000070408BF10F8014B1D1108BF10F8015B90
:1001F000641E05D010F8016B641E01F8016BF9D183
:1002000013F0080F1EBF10F8014BAD1C0C1B09D1D9
:100210006D1E58BF01F801CBFAD505E014F8016B4B
:1002200001F8016B6D1EF9D59142D6D370470000DD
:10023000103A24BF78C878C1FAD8520724BF30C812
:1002400030C144BF04680C607047000000230024E4
:1002500000250026103A28BF78C1FBD8520728BFD6
:1002600030C148BF0B6070471FB51FBD10B510BD32
:10027000DFF80CD0FFF7F8FF05F056FA1CF06FFC22
:100280000080011003B4FFF7F1FF03BC1CF06EFC0B
:100290001EF0040F0CBFEFF30880EFF309800AF0A3
:1002A00063BD000008B5002103200B460A460091FB
:1002B0001AF0A4FB08BD38B5F74D00246C81AC8161
:1002C000EC811AF06CFBE861FF20E871F3482346EB
:1002D0002246046044600472012028726C612C7014
:1002E0000320214600941AF089FB012038BD38B55F
:1002F000E94D0228EC7922460DD0052810D0A24203
:1003000008BF38BD002003460246214600901AF07F
:1003100075FBEC7138BD022914BF01240224EEE7FD
:10032000022914BF64246524E9E738B513460A4658
:100330004FF0010C00240146604600941AF05EFB69
:1003400038BDD549012048707047D3484078704780
:10035000D1490020487070472DE9F041044601273B
:10036000002503F00700CC4E8846012804BF00207A
:10037000F08146D0022844D1F08904280BD200280D
:1003800018BFB06902D11AF05AFBB06110F8011B16
:100390002170B0612EE0062808D21AF052FBF189D4
:1003A000C1F10501C900C840207023E0082808D227
:1003B0001AF04BFBF189C1F10701C900C840207058
:1003C00018E00C2808D21AF0EAFAF189C1F10B0101
:1003D000C900C84020700DE00E2808D21AF0E1FADA
:1003E000F189C1F10D01C900C840207002E0FF2071
:1003F00020700027F089401C80B2F0810E2828BFB1
:10040000012588F800503846BDE8F08130B403F08B
:1004100007000024DFF880C201280BD06046BCF83A
:100420000E304089022B0CD2120242EA1020ACF8A6
:100430000A0010E0ACF80A40ACF80C40ACF80E40F2
:100440000CE01844851EB5F5806F04DADCF81C500A
:10045000284400F8022C581CACF80E000C7030BC7C
:1004600000207047F0B40746002003F007048A4DCF
:100470000646012C04BFEE812E6125D0DFF818C29C
:10048000022CBCF80CC003D013F0070F0DD01BE0FA
:10049000EA890CEB0203B3F5806F15D2E869C05C02
:1004A0003870501CE88101200EE0120242EA1C2242
:1004B000AA812B69012B05D1B2F5806F24BF40F2D0
:1004C000FF32AA815A1C2A610E70F0BC704738B501
:1004D00003F0070000240D4601280AD16E4821468A
:1004E0000B46C4814481848102200A4600941AF09C
:1004F00085FA2C70002038BD30B50C0068A183B09F
:1005000009684FF00002029108BF03250AD0217844
:1005100002AB5D5C002D18BF022D41D0012D7ED0B5
:10052000032D0DD10F210170032141704280828083
:10053000C280028142818281817B21F0010181732D
:10054000002D1EBF012D03B030BD05F0FBF80528BE
:100550001CBF03B030BD0AF09EFC042804BF03B0EA
:1005600030BD002D0CBFC020C1208DF80000607888
:100570008DF8010060880123000A8DF80200A07840
:100580008DF80300A0880622000A8DF80400207967
:100590008DF80500694607200EF0F6F903B030BD6E
:1005A000617800EB011202F8101C617800EB011178
:1005B00001F80F5C6278618800EB021222F80E1CD1
:1005C0006278A18800EB021222F80C1C6278A179F3
:1005D00000EB021222F80A1C6278217A00EB021268
:1005E00022F8081C6278617A00EB021222F8061CDD
:1005F0006278217B00EB021222F8041CE1790529C4
:10060000617800EB011010F8021C0EBF41F00101EF
:1006100021F0010100F8021C92D132E0FFE761787D
:1006200000EB011303F8101C6378012100EB0313A6
:1006300003F80F1C6378618800EB031323F80E1C8A
:100640006378A18800EB031323F80C1C617800EB9E
:10065000011121F80A2C617800EB011121F8082C16
:10066000617800EB011121F8062C617800EB011193
:1006700021F8042C617800EB011010F8021C21F025
:10068000010100F8021C5BE70349002088707047F5
:10069000014880787047000000840010D488001062
:1006A000030002017149012088707047704A11549B
:1006B00070476E4800B5C06983B04FF000014078C4
:1006C00010F0020F0AD000918DF8041001230522CA
:1006D000694600200EF08FF903B000BD10F0040F42
:1006E00012D001208DF800008DF801108DF8021055
:1006F0008DF803108DF8041003460522694600208A
:100700000EF079F903B000BD03B00123002263218C
:1007100007205DF804EB0EF007B910B5044615F09C
:10072000A9FB002818BF10BD226812F0C00F12D01C
:100730004E4812F0400F04BF0021017004D0012187
:1007400001704169491C416101230021BDE810404D
:1007500006200EF0E9B8012300226321BDE8104015
:1007600007200EF0E1B870474049002818BF01206B
:10077000087270473D48007A70473C48C07870471F
:10078000002818BF01203949C87070473748C07821
:10079000704736490871704734480079002818BFFF
:1007A0000120704701460020072904BF31487047E7
:1007B000082908BF3048704710B44FF0000C0728D4
:1007C00008BFDFF8B0C003D0082808BFDFF8A8C012
:1007D0004FF00000ABB1002A9CBF10BC70473CF941
:1007E0001030141A01EB440434F9024C234403EB97
:1007F000D3735B102CF81030401C8242EFD810BC31
:100800007047002A9CBF10BC7047131A01EB4303CA
:1008100033F8023C2CF81030401C8242F5D810BC52
:10082000704712480078002818BF012070470F4811
:10083000406970470D4948617047002818BF012082
:100840000A494871704709484079002818BF0120BB
:100850007047002818BF0120044988717047034879
:100860008079002818BF0120704700000084001024
:10087000D4880010E6880010DE8800107047FE481B
:10088000D0F8500300F00100704770B5FA4D040035
:100890000AD001F03AFB38B9D5F8500310F0010F37
:1008A0001CBF0020A86005D10120A860002C08BF53
:1008B000002000D00120286270BDEF48006A0028A7
:1008C00018BF01207047C00000F1804000F5A04033
:1008D00041637047C00000F1804000F5A040006B0C
:1008E00000F4807070471021C00000F1804000F5D6
:1008F000A04041637047E049D1F8402160F30D22E8
:10090000C1F840217047DC48D0F84001C0F3052011
:10091000704700F00F0202EB42029201C0F3031095
:1009200002EB801000F1804000F5A0400029D0F8D3
:10093000401114BF41F0010121F00101C0F8401144
:10094000704700F00F0101EB41018901C0F3031072
:1009500001EB801000F1804000F5A040D0F840018C
:1009600000F001007047C44900230B6202680A606E
:1009700042684A6082688A60C268CA60426A0A64E1
:10098000826A4A6402698A614269CA61826B0A6644
:10099000826C0A67C26C4A67026D8A67426DCA67D9
:1009A000826DC1F88020C26DC1F88420026EC1F84A
:1009B0008820426EC1F88C20426FC1F8B020C26F0F
:1009C000C1F8B820C26EC1F8A820D0F89422C1F8AE
:1009D0005023D0F89822C1F85423D0F89C22C1F8B3
:1009E0005823D0F8A022C1F85C23D0F88420C1F8A5
:1009F000F020D0F88820C1F8F420D0F88C20C1F87D
:100A0000F820D0F89020C1F8FC2021224A63CA6364
:100A1000C2694A62C26A8A64026BCA64026FC1F820
:100A2000AC20026ACA62426B0A65C26B4A66026CFB
:100A30008A66426CCA66826FC1F8B420D0F8802002
:100A4000C1F8BC20D0F8A422C1F86023D0F8A822B5
:100A5000C1F86423D0F8AC22C1F86823D0F8B022E2
:100A6000C1F86C23D0F8B422C1F87023D0F8B822B2
:100A7000C1F87423D0F8BC22C1F87823D0F8C02282
:100A8000C1F87C23D0F88C2222F48032C1F84023B4
:100A9000D0F89022C1F84C23D0F89420C1F800215E
:100AA000D0F89820C1F80421D0F89C20C1F8082182
:100AB000D0F8A020C1F80C21D0F8A420C1F8102152
:100AC000D0F8A820C1F81421D0F8C820C1F83421EA
:100AD000D0F8AC20C1F81821D0F8B020C1F81C2102
:100AE000D0F8B420C1F82021D0F8B820C1F82421D2
:100AF000D0F8BC20C1F82821D0F8C020C1F82C21A2
:100B0000D0F8C420C1F83021D0F8CC20C1F8402161
:100B1000D0F8D020C1F84421D0F8D820C1F84C2119
:100B2000D0F8E420C1F86021D0F8E820C1F86421B1
:100B3000D0F8EC20C1F86821D0F8F020C1F86C2181
:100B4000D0F8D420C1F84821D0F8DC20C1F85021D9
:100B5000D0F8E020C1F85421D0F8F420C1F8702179
:100B6000D0F8F820C1F87421D0F8FC20C1F8782121
:100B7000D0F80021C1F87C21D0F83C21C1F8C02177
:100B8000D0F84021C1F8C421D0F84421C1F8C821CF
:100B9000D0F84821C1F8CC21D0F84C21C1F8D0219F
:100BA000D0F85021C1F8D421D0F87021C1F8F42137
:100BB000D0F85421C1F8D821D0F85821C1F8DC214F
:100BC000D0F85C21C1F8E021D0F86021C1F8E4211F
:100BD000D0F86421C1F8E821D0F86821C1F8EC21EF
:100BE000D0F86C21C1F8F021D0F87421C1F80022AE
:100BF000D0F87821C1F80422D0F88021C1F80C2265
:100C0000D0F88C21C1F82022D0F89021C1F82422FC
:100C1000D0F89421C1F82822D0F89821C1F82C22CC
:100C2000D0F8AC21C1F84022D0F8B021C1F844225C
:100C3000D0F8B821C1F84C22D0F8C421C1F8602204
:100C4000D0F8C821C1F86422D0F8CC21C1F86822BC
:100C5000D0F8D021C1F86C22D0F87C21C1F808224C
:100C6000D0F88421C1F81022D0F88821C1F81422CC
:100C7000D0F89C2102E0000000500040C1F8302272
:100C8000D0F8A021C1F83422D0F8A421C1F838222C
:100C9000D0F8A821C1F83C22D0F8B421C1F84822EC
:100CA000D0F8BC21C1F85022D0F8C021C1F854229C
:100CB000D0F8D421C1F87022D0F8D821C1F874221C
:100CC000D0F8DC21C1F87822D0F8E021C1F87C22EC
:100CD000D0F8E421C1F88022D0F8E821C1F88422BC
:100CE000D0F8EC21C1F88822D0F8F021C1F88C228C
:100CF000D0F8F421C1F89022D0F8F821C1F894225C
:100D0000D0F81822C1F8B422D0F8FC21C1F89822FA
:100D1000D0F80022C1F89C22D0F80422C1F8A02209
:100D2000D0F80822C1F8A422D0F80C22C1F8A822D9
:100D3000D0F81022C1F8AC22D0F81422C1F8B022A9
:100D4000D0F81C22C1F8C022D0F82022C1F8C42259
:100D5000D0F82822C1F8CC22D0F83422C1F8E02201
:100D6000D0F83822C1F8E422D0F83C22C1F8E822B9
:100D7000D0F84022C1F8EC22D0F85422C1F8002368
:100D8000D0F85822C1F80423D0F86022C1F80C230F
:100D9000D0F86C22C1F82023D0F87022C1F82423A7
:100DA000D0F87422C1F82823D0F87822C1F82C2377
:100DB000D0F82422C1F8C822D0F82C22C1F8D022C1
:100DC000D0F83022C1F8D422D0F84422C1F8F02261
:100DD000D0F84822C1F8F422D0F84C22C1F8F82209
:100DE000D0F85022C1F8FC22D0F85C22C1F80823C8
:100DF000D0F86422C1F81023D0F86822C1F8142377
:100E0000D0F87C22C1F83023D0F88022C1F83423F6
:100E1000D0F88422C1F83823D0F88822C1F83C23C6
:100E2000FD4A126832F0FF0C05D1D1F890C062F390
:100E3000030CC1F890C0F94A5370D0F8943213F003
:100E4000010F1CBF01235370D1F8503323F001036D
:100E5000C1F85033D0F8A43213F0010F03D0537807
:100E600043F002035370D1F8603323F00103C1F85B
:100E70006033D0F8B43213F0010F03D0537843F04D
:100E800004035370D1F8703323F00103C1F87033B9
:100E9000D0F8AC0210F0010F03D0507840F00800F9
:100EA0005070D1F8680320F00100C1F86803704762
:100EB000DA4800787047D94880787047D749C870B9
:100EC0007047D648C0787047D549D1F8542360F3AD
:100ED0000902C1F854237047D148D0F85403C0F335
:100EE00009007047CD4948607047CD48C0687047D9
:100EF0002DE9F047DFF82493054615F4003F99F8F3
:100F0000010099F8031000EA010418BF24F001045D
:100F100015F4802F18BF24F0020415F4002F18BF19
:100F200024F0040415F4801F18BF24F00804DFF82F
:100F3000F082D8F8400320F48030C8F8400314F061
:100F40000F0F65D0D9F80460D8F84803002740F0A7
:100F50000100C8F84803D8F8480320F00100C8F899
:100F60004803D8F8400340F48030C8F840034FF0FD
:100F7000630A0DE002F0C1FE5046D8F8481311F0A4
:100F8000010F01D0012703E0011EA0F10100F4DCF4
:100F9000301EA6F1010601DD002FEBD0BFB3D8F85B
:100FA000500314F0010F0CBF20F0010040F00100CD
:100FB000C8F85003D8F8600314F0020F14BF40F0D3
:100FC000010020F00100C8F86003D8F8700314F0A5
:100FD000040F14BF40F0010020F00100C8F87003B6
:100FE000D8F8680314F0080F14BF40F0010020F097
:100FF0000100C8F8680389F80240012089F8000060
:10100000D8F8400340F48030C8F840033AE0FFE7E6
:10101000D8F8500320F00100C8F85003D8F8600356
:1010200020F00100C8F86003D8F8700320F0010038
:10103000C8F87003D8F8680320F00100C8F8680306
:10104000002089F80200ACB1022089F80000D8F82D
:10105000400340F48030C8F84003D8F8480340F01B
:101060000100C8F84803D8F8480320F00100C8F888
:10107000480307E0D8F8401321F48031C8F8401342
:1010800089F80000D8F8400115F0020F20F00D009B
:1010900018BF40F0010015F0080F18BF40F0040021
:1010A00015F0040F18BF40F00800C8F8400115F013
:1010B000010F21D001F05DF9044601F05DF9014610
:1010C000D8F80C0000280EBF20460846214600280C
:1010D000D8F8000214BF40F0010020F00100C8F869
:1010E0000002D8F84002002914BF40F0010020F0AF
:1010F0000100C8F840020BE0D8F8000220F001001F
:10110000C8F80002D8F8400220F00100C8F84002F8
:1011100015F0200F18BF002417D0204601F033F936
:1011200000284FEA841000F1804000F5A040D0F87C
:10113000C01214BF41F0010121F00101C0F8C0123A
:10114000641C022CE9D3BDE8F087D8F8C00220F077
:101150000100C8F8C002D8F8000320F00100C8F868
:101160000003BDE8F0872DE9F003024602F00F010D
:10117000002001EB41018C01C2F3031104EB81114A
:1011800001F1804101F5A041D1F8401111F0010FAA
:1011900011D142F01001C1F3031104EB811101F1EF
:1011A000804101F5A041D1F8401111F0010F04BFB9
:1011B000BDE8F003704702EB42018E0106F1804169
:1011C00001F5A041D1F82431C3F30809144BDB69C0
:1011D000D1F8001103F008071FFA81F8002142EA54
:1011E0000113C3F3031304EB831303F1804303F5EB
:1011F000A043D3F8403113F0010F20D006EB811348
:1012000003F1804303F5A043D3F844C1CCF30805B0
:1012100017F1000C06E00000E0FE0300208400103F
:10122000005000401CBFD3F844C1CCF3023CD3F8BB
:10123000403105FA0CFCC3F3054360441844491CD3
:101240000229CCD309EBC90100FB08F001EB09111D
:10125000BDE8F00300EB4100704710B50120FFF737
:1012600082FF04460220FFF77EFF044400F03DFCAD
:1012700020444FF47A7148434CF25031B0FBF1F006
:1012800010BD2DE9F041FB4E0546306810F01F04FB
:1012900008BF01240120FFF766FF07460220FFF781
:1012A00062FF074400F021FC3918F34F002D18BFEE
:1012B00000294ED0D6F85003002210F0010F36D08E
:1012C0007820B0EB151F08D9D6F85C0320F00F008A
:1012D00040F00100C6F85C032EE0D6F85403E74B5B
:1012E000C0F3090060436FF0180C00FB0CF003EB37
:1012F0004003E348A0FB05C04FEA502CB3FBF1F0DC
:10130000102828BF0F20844598BF6046002808BFDA
:10131000012005D0012884BF00FB1132B2FBF0F29E
:10132000D6F85C3360F30303C6F85C3304E0B7FB24
:10133000F5F0884288BF421A32206043B2FBF0F0D9
:10134000B0F5005F28BF41F6FF70726860F30C02D1
:1013500072607068C0F30C00604300EBC00202EBE7
:10136000001001EB4000B7FBF0F0BDE8F081C14890
:10137000D0F8501311F0010F07D0D0F85C0300F043
:101380000F00C0EB00108001704770B50168406825
:1013900001F01F05C0F30C060120FFF7E4FE044630
:1013A0000220FFF7E0FE044400F09FFB06FB05F17E
:1013B000322201FB02410844AF49B1FBF0F070BD9D
:1013C000AC48D0F85C0300F00F007047A9494A68A8
:1013D0004B68C2F30C0260F30C034B60104670477D
:1013E000A4484068C0F30C00704700EB4000800147
:1013F00000F1804000F5A040D0F80001A14980B282
:10140000B1FBF0F0401C4008704730B49D4B31B147
:10141000B3FBF1F1491C4A08B2F5804F01D343F602
:10142000FF72B3FBF2F1491C4D0800EB400189014A
:10143000530801F1804101F5A041002807BF981F22
:10144000A3F10C0CD1F8040180B218BFA2F1060C74
:101450002CF0010CD1F8004162F30F04C1F80041F7
:10146000D1F8002163F31F42C1F80021D1F8042113
:1014700060F30F02C1F80421D1F818016CF30F00DA
:10148000C1F81801284630BC704700EB40008001CD
:1014900000F1804000F5A040D0F80001000C70473A
:1014A00000EB4002920102F1804202F5A042D2F824
:1014B000003161F31F43C2F80031002818BF7047A4
:1014C0008A1F901F20F001016A48D0F8043162F3AE
:1014D0000F03C0F80431D0F8182161F30F02C0F8EF
:1014E0001821704700F00F0101EB41018901C0F3A1
:1014F000031001EB801000F1804000F5A040D0F80F
:101500004401C0F30800704700F00F0202EB4202F2
:101510009201C0F303105C4B02EB801000F180409D
:1015200000F5A0409B58D0F84421CB1A61F3080283
:10153000C0F84421D0F844119B1E63F31841C0F851
:10154000441170474B49C969504A11F0100F00F01F
:101550000F0101EB41014FEA8111C0F3031001EBD0
:10156000801000F1804000F5A0405258D0F84401AE
:10157000D2B2C0F3080008BF0022801A0004000C99
:1015800008BF0120704703091B0203EB810101F131
:10159000405101F540410007C00E0B6802FA00F00F
:1015A0001843086070470209120202EB810101F141
:1015B000405101F5404100070968C00E21FA00F0D2
:1015C00000F00300704700F00F0303EB43039B019F
:1015D000C0F3031003EB801000EB810000F18040AA
:1015E00000F5A040C0F85021704700F00F0202EB58
:1015F00042029201C0F3031002EB801000EB810065
:1016000000F1804000F5A040D0F850017047194A21
:101610000021D26912F0080F10D000F00F0101EB89
:1016200041018901C0F3031001EB801000F18040FB
:1016300000F5A040D0F84401C0F3023108467047DD
:101640000C4AD36943F00803D36100F00F0202EBA8
:1016500042029201C0F3031002EB801000F18040BF
:1016600000F5A040D0F8442161F30E32C0F84421C7
:1016700070470000005000400008AF2FD8810C00D8
:1016800089888888A08601001C51004028510040AC
:10169000F84A0021D26912F0080F10D000F00F01B3
:1016A00001EB41018901C0F3031001EB801000F14F
:1016B000804000F5A040D0F84801C0F30241084640
:1016C000704700F00F0202EB42029201C0F30310D8
:1016D00002EB801000F1804000F5A040D0F84821D6
:1016E00061F31242C0F848217047042988BF70474F
:1016F00010B40023DF4CE26912F0080F00F00F0273
:1017000002EB42024FEA8212C0F3031002EB801098
:1017100000EB04021CBFD2F84401C0F302330020E6
:10172000D4F81CC01CF0080F1CBFD2F84801C0F34D
:101730000240C91A0844042803DD081A011D0420C8
:1017400003E00028BCBF014400201944E36943F0D2
:101750000803E361D2F8443161F30E33C2F8443137
:10176000D2F8481160F31241C2F8481110BC70471A
:10177000C0490028886914BF40F0080020F0080024
:1017800088617047BB488069C0F3C000704700F0B3
:101790000F0202EB42029201C0F3031002EB801031
:1017A00000F1804000F5A040C0F84C11704700F0F7
:1017B0000F0101EB41018901C0F3031001EB80101F
:1017C00000F1804000F5A040D0F84C017047A94AD4
:1017D000D2F85C13022903D110F0010F18BF704733
:1017E000D2F8400110F0010F0BD0D2F84C01D2F822
:1017F00044110028C1F302311EBF0029C043C2F8C2
:101800004C01012101EB410100204FEA811C0CEB4E
:10181000801101F1804101F5A041D1F8402112F081
:10182000010F0BD0D1F84C21D1F84431002AC3F379
:1018300002331EBF002BD243C1F84C21401C0228AA
:10184000E5D370478B4A0021D26912F0080F10D0FF
:1018500000F00F0101EB41018901C0F3031001EB1E
:10186000801000F1804000F5A040D0F84801C0F39E
:101870000051084670470120704710B4022ADDF875
:1018800004C026BF921E52080022022B26BF9B1EB8
:101890005B080023784CA4FB0C4C4FEA1C1400F0AE
:1018A0000F0C0CEB4C0C4FEA8C1CC0F303100CEB30
:1018B000801000F1804000F5A040D0F864C161F3D1
:1018C0001B6C62F3144C63F30C2C64F3070CC0F82C
:1018D00064C110BC704770B400F00F0404EB440402
:1018E000A401C0F3031004EB801000F1804000F568
:1018F000A040DDF80CC0D0F864010029C0F30366F5
:10190000C0F30444C0F30425C0B218BF0E6012B186
:101910006100891C116013B16900891C1960BCF158
:10192000000F04BF70BC704700EB80008000CCF853
:10193000000070BC704770B491B000224FF4804535
:101940006C10EC4601E0082A05D2531C03EB83031C
:10195000B5FBF3F304E0D31F03EB8303B4FBF3F312
:101960005B1A48BF5B424CF82230521C102AEAD363
:101970000026009B01215CF821209A42BCBF13463F
:101980000E46491C1029F6D300F00F0101EB41016E
:101990008901C0F3031001EB801000F1804101F5D3
:1019A000A041D1F86801D1F8682100F00F0066F37A
:1019B0000302C1F86821082807D2401C00EB800010
:1019C000B5FBF0F011B070BC7047C01F00EB800099
:1019D000B4FBF0F011B070BC704700F00F0101EBE8
:1019E00041018901C0F3031001EB801000F1804038
:1019F00000F5A040D0F8680100F00F00082834BFBF
:101A0000401CC01F00EB800034BF4FF480414FF4F6
:101A10000051B1FBF0F0704710F00F0F08BF704796
:101A200000F00F0000EB4000800100F1804000F565
:101A3000A0400029D0F82C110CBF21F4803141F4D2
:101A40008031C0F82C117047002110F00F0F0ED01C
:101A500000F00F0000EB4000800100F1804000F535
:101A6000A040D0F82C0110F4803F18BF0121084697
:101A70007047000000500040CDCCCCCC00F00F00EF
:101A800000EB4000800100F1804202F5A042D2F854
:101A90003401C2F8341170472F4B58679967DA67E1
:101AA00070472D490028D1F8AC0014BF40F0020067
:101AB00020F00200C1F8AC00704727490028D1F897
:101AC000AC0014BF40F0010020F00100C1F8AC00F0
:101AD00070472148D0F8E00070471F49C1F8E40082
:101AE00070471D48D0F89800704770B41A4E002017
:101AF000D6F8401111F0010F04BF70BC704711F00F
:101B0000040FD6F8242101F00805D6F800C1C2F36D
:101B100008021FFA8CF4D6F844C1CCF3080C18BFA5
:101B2000C1F30740F369C1F3052113F008031CBF9B
:101B3000D6F84431C3F30233002D18BF491C0CFA08
:101B400003F301FB0300604302EBC20170BC01EB35
:101B5000021100EB4100704700500040FEF7ADBE9F
:101B600010B5FEF7AAFE012818BF10BD0020FEF731
:101B70008CFE21210020FEF7A6FE2121BDE81040A9
:101B80000120FEF7A0BE10B5FEF778FEFEF795FE29
:101B900001280AD10020FEF778FE21210020FEF75F
:101BA00092FE21210120FEF78EFE0121052001F089
:101BB000EEFB0121052001F0EAFBFF49002008713E
:101BC00010BD10B54FF4066001F037FCBDE81040C1
:101BD0004FF4066001F022BCF74A0146107B002852
:101BE00018BF0120002918BF012111737047F24A64
:101BF000516A506208467047EF490020C8728870E9
:101C000048707047EC490020C8728870487070476F
:101C100070B50007C00E0D46801E00EB400101EBC1
:101C20000014E6484FF4987200EBC40029461AF0FD
:101C3000A3FFE34805F5987100EBC400BDE87040D0
:101C40004FF498721AF098BF2DE9F0410546FEF75F
:101C50005AFEDC4FDFF870830446EDB14C2004FBE4
:101C600000F21646294638461AF086FF324605F538
:101C7000006140461AF080FF04EB440000EB0414BE
:101C800007EB84004C211AF07CFF08EB8400BDE8D0
:101C9000F0414C211AF075BF4C21401C41430C46C9
:101CA00038461AF06EFF21464046BDE8F0411AF072
:101CB00068BF10B5C04CE061FFF71AF9FFF7F8F8FC
:101CC000A1696FF30F01A161A269C1B242EA0121CA
:101CD000A161022818BF10BDA06940F00100A061F9
:101CE00010BDBA488168BA4A114381600168521C2C
:101CF0001143016000F061BE2DE9F041B34A0C468A
:101D000005469368B248184390601068B14908438B
:101D1000106000F052FE0026002C76D00020FEF766
:101D2000B4FD206820B1FEF71EFE0020FEF7ADFDD9
:101D30002846FFF7BEFF0020FEF703FE70B3606881
:101D4000FFF782FFA448E16819B102151AF014FFE9
:101D50001DE0A24D4FF440711AF013FF0020012343
:101D60002956002910DB0A09120202EB800202F157
:101D7000405202F540420907C90ED2F800C003FAEA
:101D800001F14CEA01011160401C2628E8D3944877
:101D9000616959B14FF400721AF0EEFE0120FEF7AE
:101DA000D0FDDFF81882864F48B904E04FF4007187
:101DB0001AF0E7FEF2E71120FEF7C3FD70B1A56847
:101DC00065B140464FF4987229461AF0D5FE384660
:101DD0004FF4987205F598711AF0CEFE0220FEF7C6
:101DE000B0FD18B91220FEF7ACFD70B1246964B1E2
:101DF0007C484FF4987221461AF0BEFE7A484FF4A0
:101E0000987204F598711AF0B7FE6B48C672867026
:101E100046704662017B002101734FF4066001F0B9
:101E20000CFBBDE8F0414FF4066001F0F7BA10B5C5
:101E30000020FEF72AFD00F0ADFD5F48C0780028C5
:101E400008BF10BD6148016821F0030141F00D7128
:101E500041F080510160816821F0020141F00D7173
:101E600041F08051816010BD4FF4066001F0DBBA93
:101E700010B54FF4066001F0D6FAFEF71EFD0128FA
:101E80000AD10020FEF701FD21210020FEF71BFDF5
:101E900021210120FEF717FD5448D0F8401321F40A
:101EA0008031C0F840130020FEF7EFFC00F072FD17
:101EB0004148C078002808BF10BD4448016821F09F
:101EC000030141F00D7141F080510160816821F002
:101ED000020141F00D7141F08051816010BD10B5DB
:101EE00001F0A6FA10F0600018BF012010BD3248C2
:101EF000C069704730488069704772B62E498A6958
:101F000022EA0000886162B670472B4800780028FA
:101F100018BF0120704770B5FEF7CFFC002818BF2E
:101F200070BD0024244DEC72AC706C7021212046F1
:101F3000FEF7C9FC21210120FEF7C5FC2C70BDE88D
:101F400070400120FEF7A1BC70B50446FEF7B5FC59
:101F5000002818BF70BD0021174DE972A970697083
:101F600021210020FEF7AFFC21210120FEF7ABFC70
:101F7000022C3CBF0120FEF7B6FC012028702C6229
:101F8000BDE87040FEF781BC10B5FEF796FC002856
:101F900018BF10BD0020084CE072A07060702121B5
:101FA000FEF791FC21210120FEF78DFC0120FEF7B8
:101FB0009AFC012020701BE028840010189D00303E
:101FC00018BD00300080003000A0003000800040CC
:101FD000020034120300341200C00030F0880010F8
:101FE00000D00030489E003048BE00300050004015
:101FF0002062BDE81040FEF748BC0020FEF745BC5B
:10200000FE490020887048700120FEF73EBCFB4965
:1020100088627047F948806A7047002818BF01201D
:10202000F649C8627047F548C06A002818BF012009
:102030007047002000F0CEBB012000F0CBBB10B5F4
:10204000FFF747FD0446FFF748FDED48044208BF8F
:1020500010BDEA48816941F0040181610E2101EA65
:10206000D43104F001020A43816962F31F418161A6
:10207000E448016841F02001016010BD002818BF4C
:102080000120DE49C8707047DF487047DF4870475D
:10209000DA48006B7047D948406B7047D748806B6F
:1020A00070472DE9F04FD84F4FF0000C8DB007F17D
:1020B0004C04E6464FF0FF3807F80C8004F80CE0BB
:1020C0000CF1010CBCF1260FF6DB4FF0000C0028E0
:1020D00007DD12F80C5007F80C500CF1010C6045AC
:1020E000F7DC00220126CDF804E06D46CDF800E0D3
:1020F000002816DD17F902C0BCF1000F0EDBBCF1A1
:10210000260F0BD24FEA5C190CF01F0C55F829A0D2
:1021100006FA0CFC4AEA0C0C45F829C0521C824213
:10212000E8DB002294460DF108094FEA521A02F04A
:102130001F0B55F82AA006FA0BFB1AEA0B0F1ABF61
:1021400009F802C00CF1010C09F80280521C262A81
:10215000EBDB0022002810DD17F902C0BCF1000FF4
:1021600008DBBCF1260F3ABF19F80CC004F802C016
:1021700004F80280521C8242EEDBDFF880A20022CB
:102180000028CAF830E009DD14F902C0944502D0F5
:10219000CAF8304002E0521C8242F5DBDFF870B230
:1021A0000020ABF1720404F14C0704F8008007F83A
:1021B00000E00BF800E0401C2628F6DB0020002998
:1021C00004DD1A5C2254401C8142FADC0020CDF868
:1021D00004E0CDF800E0002912DD2256002A0CDBD5
:1021E000262A0AD2530902F01F0255F823C006FA24
:1021F00002F24CEA020245F82320401C8842ECDB44
:1022000000200246430900F01F0C55F8233006FA5F
:102210000CFC13EA0C0F1ABF09F80020521C09F835
:102220000080401C2628EDDB002000290BDD225613
:10223000002A05DB262A3CBF19F802200BF80020F3
:10224000401C8842F3DB0020CAF838E0002909DD91
:102250001BF90020824202D0CAF838B002E0401CCC
:102260008842F5DB11F0010F18BF252015D0420977
:1022700000F01F0355F8222006FA03F31A420AD190
:10228000420900F01F0055F8223006FA00F018430A
:1022900045F8220001E0401EE9D50020024643092E
:1022A00000F01F0C55F8233006FA0CFC13EA0C0F53
:1022B0001ABF09F80020521C09F80080401C26288B
:1022C000EDDB002000290ADD2256002A04DB262A45
:1022D0003CBF19F802203A54401C8842F4DB00202D
:1022E000CAF834E00029DCBF0DB0BDE8F08F3A56E3
:1022F000824204D0CAF834700DB0BDE8F08F401CA3
:102300008842F4DB0DB0BDE8F08F40F2DB114843AA
:10231000404901EB800070473F49C0EB001001EBE2
:10232000C0007047DFF8D4C0012B8CF805008CF892
:10233000061003D9401C20F0010011468CF807005C
:102340008CF8081000FB01F24FF6FF7101EA42021F
:10235000ACF8122001EA4000ACF81400704727489E
:10236000007A70472548C0797047244A50729172AC
:1023700070472248807A70472048407A7047274A41
:102380001070517070472549085C70472DE9F0477F
:10239000DFF86890044699F80C00002804BF99F80B
:1023A00001001AF0F3FB99F80B00002808BFBDE804
:1023B000F0874FF00008D9F81C00474646464546CE
:1023C00010F0020F1CBFDFF84C8010F0040F05D096
:1023D000B9F812100F4A21F001018F1810F0010F07
:1023E00018BF0D4E10F0200F18BF0D4DD9F8280062
:1023F0002060FEF760FD10F0010F13E0288400104C
:102400000100070068840010F08800101689001091
:1024100088890010B08900101C91001035840010CC
:102420000C92001006D0FEF7CBFF022828BF99F8C7
:10243000020000D20020E760C4E90108C4E9046595
:102440000120BDE8F087FF490020C872704770B5D1
:102450000546FEF758FA4C2100FB01F21446FA49F2
:1024600028461AF089FB224605F50060BDE8704059
:10247000F6491AF081BBF0B583B0FEF744FA044682
:1024800000210846FFF7B1F8009001210020FFF776
:10249000ACF800220190002C2AD96E464FF0010CB6
:1024A0004FF6F07502EB4200002100EB02104B09E1
:1024B00001F01F0756F823300CFA07F73B4211D002
:1024C000CB079B0C03EB80034F0803EB870303F15F
:1024D000405303F500431B889BB2AB4202D903B0C3
:1024E0000020F0BD491C2629E1D3521CA242D9D3B9
:1024F00003B00120F0BD70B50D460107C80E811E66
:1025000001EB410000EB0114D1484FF4987200EB4D
:10251000C40128461AF030FBCE484FF4987200EB05
:10252000C40105F59870BDE870401AF025BB2DE98F
:10253000F04F00F00F07780083B0A0F1020B0025E8
:10254000E9464FF001084FF6F07647EA051A504683
:10255000FEF7F7F9002843D05046FFF758F808FA7D
:1025600000F4022C88BF022400215046FFF73DF8FA
:10257000009001215046FFF738F800210190002C0F
:102580002ED90BEB0500982200FB02FA01EB410269
:10259000002002EB011C420900F01F0359F8222021
:1025A00008FA03F31A4215D000F001020AEB423296
:1025B00002EB8C02430802EB830202F1405202F567
:1025C0001042B2F8182D92B2B24203D903B00020E3
:1025D000BDE8F08F401C2628DDD3491CA142D5D38D
:1025E0006D1C022DB1D303B00120BDE8F08F2DE9A1
:1025F000F0410026934D00280C4640D000F00F011A
:10260000C0F3031001290EBF00210229BDE8F081AB
:10261000022828BFBDE8F0810F18FEF74EF95FEAE7
:1026200000081CBF0020FEF730F90023982007FBAC
:1026300000FC03EB4300002200EB031702F0010053
:102640000CEB4030510800EB870000EB810000F1FB
:10265000405000F51040521CC0F8184D262AEDD30A
:102660005B1C022BE5D3B8F1000F08BFBDE8F08179
:10267000AE706E70BDE8F0410120FEF706B9FEF7BE
:102680001CF95FEA00081CBF0020FEF7FEF80023DB
:1026900003EB4300002200EB031CD007800C510821
:1026A00000EB8C0000EB810707F1405707F500476E
:1026B000521C3C60262AF0D35B1C312BE8D3B8F1C6
:1026C000000FD5D1BDE8F08110B5FEF73BFF5D49A5
:1026D000088210BD5B4AC1B200F47F43128A914266
:1026E00088BF11464FF0640C01FB0CF1B1FBF2F115
:1026F0001A0A02FB0C1110F4803F12BF08B24842C4
:1027000000B2704710B54FF44071534C53481AF063
:1027100038FA002001232156002910DB0A09120291
:1027200002EB800202F1405202F540420907C90E55
:10273000D2F800C003FA01F14CEA01011160401C1B
:102740002628E8D310BD10B5434C4FF440714348E0
:102750001AF017FA002001232156002910DB0A097C
:10276000120202EB800202F1405202F540420907D8
:10277000C90ED2F800C003FA01F14CEA0101116060
:10278000401C2628E8D341F678712F481AF0F9F951
:10279000BDE8104041F678712C481AF0F2B929488A
:1027A00010B5808B00F48170FFF783FA4FF440710D
:1027B0002A481AF0E6F941F6185123481AF0E1F9CF
:1027C00041F6185121481AF0DCF9BDE8104000200C
:1027D000FEF7FCBD70B51B4C0546A06A401CA0620C
:1027E000E16A002918BFFEF7F2FF207850B1206A95
:1027F00010B1206A401E2062206A002804BF002019
:10280000FEF743F820212846FEF75DF8616A0029AB
:102810001CBF28468847FEF74BFB022826D11048EC
:10282000D0F8481311F0010F20D0D0F8481341F030
:102830000101C0F84813D0F8481321F00101C0F895
:1028400048130FE0288400100080003000A0003002
:10285000189D003018BD0030F088001000C0003016
:1028600000500040A06940F00200A06102480168E9
:1028700041F02001016070BD68840010F0B40024B4
:10288000634E012382B0002808BF33701CD001289A
:10289000347018BF747017D05E4D28685E490843C5
:1028A000286031785D4A002914BF49F608305C4839
:1028B000D06014BF5B484FF0BB7090605A4800680E
:1028C00030F0FF0C08D101E07370E5E7D2F80CC0DE
:1028D00060F3030CC2F80CC040F2E24CA9B190685E
:1028E00040F0180090600120009004E00198471E1D
:1028F0000197FBD20098471E009728BFCDF804C06F
:10290000F4D2906840F4805090600120009004E080
:102910000198471E0197FBD20098471E009728BFD9
:10292000CDF804C0F4D2707818B1D06840F030000F
:10293000D060D2F8B00040F00100C2F8B000012031
:10294000009004E00198461E0196FBD20098461EB6
:10295000009628BFCDF804C0F4D2D3674FF4E060EE
:102960001061C2F88840002918BFC2F89430D068BE
:1029700020F03000D060906820F48050906028688B
:1029800020F0040040F00D7040F08050286002B04C
:10299000F0BC70472148C16821F03001C1608168F6
:1029A00021F4805181601B48016821F0040141F04D
:1029B0000D7141F080510160704716480268164958
:1029C00011430160124915480A783AB1826842F011
:1029D00018028260826842F480528260497819B19C
:1029E000C16841F03001C160D0F8B01041F0010180
:1029F000C0F8B01070470D49C0B241EA0020074945
:102A00000864704705494FF0204008647047000093
:102A10006484001000800040040034120060004014
:102A200005F4010020009B00D0FE0300130000A06D
:102A3000424841498161891CC1614A1E4263036861
:102A400023F0030343F00D7343F0805303604369A5
:102A500023F0010343F00D7343F080534361036996
:102A60001A430261364A8260364AC260C268114324
:102A7000C160354900200860704710B501F035F994
:102A800031480468002C08BF30BFFAD00021016033
:102A900001F02FF9204610BD10B501F026F92648A7
:102AA000294B2649421C1C682CB10020186001F0FB
:102AB00020F9204610BD72B648638A6120BF886144
:102AC0004A6362B6BFF36F8FBFF34F8FEBE71B48CC
:102AD000016821F0030141F00D7141F08051016066
:102AE0001A49816001691A4A1143016130BF704778
:102AF00072B6114911484163C91CC161891E8161C7
:102B000062B670470D480168124A11430160704770
:102B10000A48016821F0030141F00D7141F0805134
:102B20000160704772B6044904488161891CC16123
:102B3000491E416362B670470000341200800040B5
:102B40003C0034122800341268840010080034124B
:102B50000100341203003412704770470022B2EBB8
:102B6000D10F26D20368B3F1FF3F04BF4368B3F12E
:102B7000FF3F17D18368B3F1FF3F04BFC368B3F1D0
:102B8000FF3F0FD10369B3F1FF3F04BF4369B3F1C6
:102B9000FF3F07D18369B3F1FF3F04BFC369B3F1BE
:102BA000FF3F01D0002070472030521CB2EBD10F04
:102BB000D8D30120704710B40023B3EBD20F30D22A
:102BC000D0F800C00C68A44522D1D0F804C04C68ED
:102BD000A4451DD1D0F808C08C68A44518D1D0F800
:102BE0000CC0CC68A44513D1D0F810C00C69A44522
:102BF0000ED1D0F814C04C69A44509D1D0F818C042
:102C00008C69A44504D1D0F81CC0CC69A44502D07D
:102C100010BC00207047203020315B1CB3EBD20F7A
:102C2000CED310BC012070472DE9F041054601F0DC
:102C300064F8002021264FF4825784464FF4E022A6
:102C40001660C5F800C0116841F0040111601168F8
:102C500011F0040FFBD1176080232C460021D4F81B
:102C60000080B8F1FF3F04BFD4F80480B8F1FF3F03
:102C70001DD1D4F80880B8F1FF3F04BFD4F80C8010
:102C8000B8F1FF3F13D1D4F81080B8F1FF3F04BF73
:102C9000D4F81480B8F1FF3F09D1D4F81880B8F106
:102CA000FF3F04BFD4F81C80B8F1FF3F08D0C2F842
:102CB00000C0401CC0B20828C2D30220BDE8F08189
:102CC000491C2034B1EBD30FC9D3C2F800C0012096
:102CD000BDE8F0812DE9F041054601F00EF8002035
:102CE000092684464FF4E0231E60C5F800C0196829
:102CF00041F004011960196811F0040FFBD12C4652
:102D00004FF4806200212768B7F1FF3F04BF676876
:102D1000B7F1FF3F17D1A768B7F1FF3F04BFE768DE
:102D2000B7F1FF3F0FD12769B7F1FF3F04BF6769D4
:102D3000B7F1FF3F07D1A769B7F1FF3F04BFE769CC
:102D4000B7F1FF3F08D0C3F800C0401CC0B2032851
:102D5000CAD30220BDE8F081491C2034B1EBD20F68
:102D6000D1D3C3F800C00120BDE8F0812DE9F05FA8
:102D70008846814604274FF07F0A4FF0020B4FF43C
:102D8000E02600F0BAFF4946424653464FF0060C93
:102D9000C6F800B052F8040B41F8040BC6F800C0A6
:102DA000306810F0040FFBD15B1EF1D200203060C0
:102DB0004C4645461F20D4E900C3D4E90221D5F88A
:102DC00000E0E64504BFD5F804C09C4505D1AB68DA
:102DD000934204BFEA688A4208D07F1E03D3484664
:102DE000FFF722FFCDE70220BDE8F09F1034103539
:102DF000401EE0D20120BDE8F09F70B50D460446AC
:102E000000F07BFF4FF400722146284619F0B4FE13
:102E1000012070BD2DE9F0410546C005ADF5007DEE
:102E200014460E46C00D25D0A8466FF308086F461D
:102E300000F063FF4FF400724146384619F09CFEE3
:102E4000C5F30800C0F50077A74288BF274668444D
:102E50003A46314619F09FFE4046FFF7E5FE02284C
:102E600044D069464046FFF781FF022843D03D44E5
:102E70003E44E41BB4F5007F19D34FF40072314691
:102E8000684619F088FE2846FFF7CEFE02282DD0AE
:102E900069462846FFF76AFF02282CD0A4F5007483
:102EA00005F5007506F50076B4F5007FE5D2C4B1EE
:102EB0006F4600F022FF4FF400722946384619F0A1
:102EC0005BFE22463146684619F065FE2846FFF74C
:102ED000ABFE02280AD069462846FFF747FF0228C2
:102EE00009D00DF5007D0120BDE8F0810DF5007DD4
:102EF0000A20BDE8F0810DF5007D0B20BDE8F081D2
:102F00002E490860086100F010B82C49086048613B
:102F100000F00BB82949486770472849886770470F
:102F2000264801210166016570474FF04022116B70
:102F300010F0010F18BF21F4404110F0020F1CBF28
:102F400021F4405141F4805110F0040F18BF21F4D6
:102F5000406110F0080F18BF41F4407110F0100FDD
:102F600018BF41F0C00110F0200F18BF41F0300130
:102F700010F0400F18BF41F00C0110F0800F18BF87
:102F800041F0030141F4BE0141F020411163D2F848
:102F9000901010F4807F1CBF21F0030141F002016A
:102FA00010F4007F1CBF21F00C0040F0080141F438
:102FB000BE0040F02040C2F8900070470010004072
:102FC0007047D0488268D0490A438260C268114382
:102FD000C1604169CD4A114341617047C9484169A7
:102FE00021F0010141F00D7141F080514161C16852
:102FF00021F0400141F00D7141F08051C1608168C4
:1030000021F0400141F00D7141F080518160704725
:1030100010B5BC4CA168BC480143A160E1680843FD
:10302000E0606069B94908436061B94843F63F719F
:10303000C160002181638164C0F8B01003210A20BF
:1030400000F0A5F90A2000F0C5F9606920F0010040
:1030500040F00D7040F080506061E06820F040006A
:1030600040F00D7040F08050E060A06820F040001B
:1030700040F00D7040F08050A06010BDA44A106078
:103080005160484390607047A14A106051604843C6
:1030900010F0010F18BF401C906070479C49C1F8A8
:1030A000B00070479A49002818BF01208864704713
:1030B00097498863C86840F00200C8607047DFF82D
:1030C00050C2CCF82000CCF82410CCF82820CCF842
:1030D0002C300120CCF83000DCF8340010F0010F67
:1030E00005D020BFDCF8340010F0010FF9D110F04A
:1030F000020018BF4FF0FF3070478548C16821F0CB
:103100000201C16070478248C16841F00101C1609D
:1031100070477F4B186259629A6201201864586C9C
:1031200010F0010F04D020BF586C10F0010FFAD13D
:1031300010F0060018BF4FF0FF3070477448C168A8
:1031400021F00101C16070477148C16841F004017C
:10315000C1607047027C017B02F03F0241EA0241FC
:103160006B4A916501685162416891628168D162E0
:1031700001211165516D11F0010F04D020BF516D77
:1031800011F0010FFAD1D36D8382D36D1B0CC38272
:10319000136E0383136E1B0C4383536E8383526E33
:1031A000C2F30E42C28311F0020018BF4FF0FF308D
:1031B00070475748C16821F00401C1607047544806
:1031C000C16841F00801C1607047DFF844C1CCF824
:1031D0007820CCF82000CCF82430CCF8281001203E
:1031E000CCF87000DCF8740010F0010F05D020BF9F
:1031F000DCF8740010F0010FF9D110F0060018BFD0
:103200004FF0FF3070474248C16821F00801C160AB
:10321000704701684FEA31423D49C1F89C2040683F
:10322000C1F8A000C86840F02000C860704701687D
:103230004FEA31423649C1F89C208088C1F8A0008D
:10324000C86840F02000C8607047314B18625A626D
:1032500099620120C3F89400D3F8980010F0010F90
:1032600005D020BFD3F8980010F0010FF9D110F06D
:10327000060018BF4FF0FF307047254A10625162B8
:103280000120C2F89000D2F8980010F0010F05D08C
:1032900020BFD2F8980010F0010FF9D110F006000D
:1032A00018BF4FF0FF3070471948C16821F0200166
:1032B000C16070471648C16841F01001C160704795
:1032C000A3F1050C124BC3F888C018625A629962C8
:1032D0000120C3F88000D3F8840010F0010F05D05E
:1032E00020BFD3F8840010F0010FF9D110F00600D0
:1032F00018BF4FF0FF3070470548C16821F010013A
:10330000C160704700800040400034120100341258
:10331000009000401B4810B5022140F8501F0121C9
:1033200001611021416241F2060141610021816188
:103330000421816390214163416B41F001014163AC
:103340004FF4817101610161032000F043F8002115
:10335000032000F01CF8002010BD10B5032000F081
:1033600045F808484FF4807101660021016610217C
:10337000816702214165002010BD034900200870CB
:1033800070470000003000406C840010704700F06F
:103390000303DA004FF0FF0C0CFA02F24FF0050CB9
:1033A0000CEBC30301FA03F300F00C0101F1E0217F
:1033B000002807DAD1F8140D90431A401043C1F8E1
:1033C000140D7047D1F8000490431A401043C1F81F
:1033D0000004704700F01F01012202FA01F14009C8
:1033E000800000F1E020C0F80011704700F01F01DC
:1033F000012202FA01F14009800000F1E020C0F84A
:103400008011704700F01F01012202FA01F140090A
:10341000800000F1E020C0F8801270474FF0E021FA
:10342000C1F8000170474FF0E021C1F880017047FA
:103430004FF0E020D0F8000170474FF0E021C1F8D4
:1034400080027047084800687047074A116810609A
:1034500008467047044A126800F1100352F823002E
:1034600042F823107047000008ED00E002210C2014
:10347000FFF78DBFB8488268B8490A438260C268C6
:103480001143C1607047B448816821F4805141F014
:103490000D7141F080518160C16821F4805141F08B
:1034A0000D7141F08051C1607047AD4881B0016F2E
:1034B00011F4007FFBD1816E11F0010F1CBFD0F819
:1034C0008410009104D0D0F88410009A9142FAD070
:1034D000016F11F4007F04BF4CF27101016642F2EA
:1034E0004131816601B070479D4981B04FF40D5262
:1034F0008A660A6FCA66012898BF012005D9401E56
:10350000B0F5803F28BF4FF6FF7082B24FF05C509D
:1035100040EA022048664FF01140C1F88000086F71
:1035200010F4007FFBD1886E10F0010F1CBFD1F8A2
:103530008400009004D0D1F88400009A9042FAD020
:10354000086F10F4007F04BF4CF27100086642F26D
:103550004130886601B07047814881B0016F11F435
:10356000007FFBD1816E11F0010F1CBFD0F88410D9
:10357000009104D0D0F88410009A9142FAD04FF410
:103580000D51816601B070477348806810F4805017
:1035900008BF70477248806E00F0010070477048A5
:1035A000406EC0F30F2070476D48D0F8840070471C
:1035B00010B50C20FFF726FF0C20FFF70BFF684922
:1035C0000220486710BD664910B5032088670C20AB
:1035D000FFF70CFFBDE810400C20FFF713BF614A56
:1035E00011681060084670475D4810B5016FC166EC
:1035F0005C480068002818BF80475B48016841F4B8
:103600008051016010BD574840687047524810B55E
:10361000826852490A438260C2681143C1605049BE
:10362000032088670C20FFF7E1FE0C20FFF7EAFE7D
:1036300000F05CF94D4B0420C3F888004FF6FF7092
:10364000C3F88C0072B66033FFF74EFF4FF4007082
:10365000186062B610BDF8B572B64148016F11F43A
:10366000007FFBD1816E11F0010F1CBFD0F88410D8
:10367000009104D0D0F88410009A9142FAD04FF40F
:103680000D51816639494FF400320A6662B6D1F8AD
:103690000412314D002946D0324C4FF6FF73591AAF
:1036A000A160AA69D5F81CC002F00F020CF00F0C43
:1036B0006244121D01FA02F2A2F54341DFF8B0C0E4
:1036C000513961452FD2D0F88400191AE160B1F563
:1036D000803F28D2274B4FF0000CA1FB03070CFBC7
:1036E000037301FB0C31634619F05AFA401C400881
:1036F0002061B0F57A7F38BF4FF47A701E4B99681D
:10370000002908BF98605A681A609968C3E90110D7
:103710008A421BD9824205D9814201D9616002E007
:10372000606000E0626000F0EDF8A86820F480506E
:1037300040F00D7040F08050A860E86820F48050A0
:1037400040F00D7040F08050E860F8BD8242E9D84A
:103750008142E5D8E2E7000000800040001034120A
:1037600000C00040708400106884001000A0004079
:103770004F62250000E1F505849200100F48816832
:103780000F4A114381600F48016841F404710160E0
:10379000001F016841F004010160016841F010015F
:1037A00001607047084908607047BFF34F8F0849B0
:1037B00006480860BFF34F8FFEE70000008000401E
:1037C0000400341214ED00E008ED00E00400FA05F6
:1037D0000CED00E015488168154A11438160100323
:1037E000416941F001014161016A21F00F02114973
:1037F0000A430262104B8A1EC3F8C4200165704759
:103800004FF04020006900F0700070474FF04020FA
:103810000A4940F8301F0A4941600A4901660A49CD
:10382000416670474FF0402040687047008000407C
:103830000400341203005FA000600040C0845FA059
:1038400055995FA00A005FA000005FA0022824BF76
:1038500000207047DE4B53F8202043F8201010461C
:10386000704770B5DB4C206FD94D10F0010F05D0BB
:103870000120E0662868002818BF8047206F10F0FC
:10388000020F08BF70BD0220E0666868002808BF0C
:1038900070BDBDE870400047CF4810B58268CF4981
:1038A0000A438260C2681143C160CA4902220A65A4
:1038B00001230B660323CB664A65816821F08001F2
:1038C00041F00D7141F080518160C16821F08001AB
:1038D00041F00D7141F08051C1600920FFF77AFD80
:1038E0000221BDE810400920FFF751BDBA488268A7
:1038F000BA490A438260C2681143C160B5490220D7
:1039000008657047B34902204865B348816821F0D3
:10391000800141F00D7141F080518160C16821F05A
:10392000800141F00D7141F08051C1607047AA489B
:103930008068C0F3C0107047A648016F11F4007F83
:1039400014BF4FF440714FF480710166704710B599
:10395000A04CE06F10F0020F4FF0010018BF0320E1
:10396000606700F066F99C498A69C96902F00F0234
:10397000D04001F00F01C8400521B0FBF1F04FF439
:1039800005710009C4F880109549A1FB0010400999
:10399000C4F88400206F10F4007F14BF4FF440700F
:1039A0004FF48070206610BD8A48016F11F4807F4B
:1039B00014BF4FF440714FF4007101667047854B9E
:1039C00030B4DA6F12F0010F14BF032202225A67DB
:1039D00000EB4005C5EBC010C1EBC0004FF4FA741A
:1039E0004C43C0EB001000EB40007E4904EBC000EC
:1039F000A1FB0010784900224FF0020C8C69C0082E
:103A0000C96904F00F0401F00F012144C8400521E9
:103A1000B0FBF1F0B0F5803F05D3511C4008CAB2AD
:103A2000B0F5803FF9D242EA0C2141F01001C3F811
:103A30008810C3F88C00186F10F4807F14BF4FF407
:103A400040704FF40070186630BC70476148016FD9
:103A500011F4003F14BF4FF440314FF48031016640
:103A600070475C48016F11F4803F14BF4FF4403140
:103A70004FF40031016670475648006FC0F30020D4
:103A800070475448006FC0F340207047524989681E
:103A9000C1F3C011002904BF002070474D49002820
:103AA0000CBFD1F80002D1F8040270474A4B9A6863
:103AB000C2F3C012002A04BF00207047454A002804
:103AC0000CBFD2F88000D2F88800C0F30A200CBFE7
:103AD000D2F88020D2F8882002F00F02D3F818C064
:103AE000DB690CF00F0C03F00F0363441A449140A0
:103AF000012202EB400048433949A1FB00100009B4
:103B00007047394901200870704770B4324B322237
:103B100051439A69D3F81CC002F00F020CF00F0C4D
:103B20006244121DD14008BF012104D0B1F5803F8D
:103B300028BF4FF6FF719A68C2F3C012002A1CBF5B
:103B400070BC7047D3F808C0244A4CEA020CC3F892
:103B500008C0D3F80CC04CEA0202DA601D4A4FF0EC
:103B6000020CC2F850C04FF4003414660425C2F8A9
:103B70008850C2F88C101D4DD566C2F874C01C491F
:103B800002283CBF124E46F8201000211648017052
:103B90004FF400711166017819B920BF017800292E
:103BA000FBD014669567D566C2F854C0986820F0BB
:103BB000800040F00D7040F080509860D86820F090
:103BC000800040F00D7040F08050D86070BC7047AD
:103BD0008884001000A00040008000408000341263
:103BE0001F85EB51CDCCCCCC8484001002000202A6
:103BF000B35A00004FF0E0210020886108611F499E
:103C00004860704710B54FF0E02460610020A0616B
:103C10000221401EFFF7BBFB0720206110BD4FF0C3
:103C2000E02100200861704714480188491C018088
:103C300070471248806870472DE9F0410F4C00270B
:103C400005462780A0684FF47A71B0FBF1F04FF081
:103C5000E026401E7061B7610221C81EFFF797FB86
:103C6000072030612188A942FCD33761BDE8F0818B
:103C70000349484301498860704700009084001060
:103C800040420F00704770B505464FF40D500406D2
:103C9000A0660320E066264860664CF2710020664C
:103CA0002448C4F8800042F24630A0660221002079
:103CB000FFF76DFB0020FFF78DFB002D08BF70BDE7
:103CC000A06E42F241310843A06670BD012110B5DB
:103CD000880781674FF40D5181660020FFF786FB4E
:103CE000BDE810400020FFF78DBB01208107486729
:103CF000704701208107886770474CF27100810787
:103D0000086670470C4A11681060084670470A48F8
:103D100008B5006818B18047002818BF08BD4CF2EC
:103D2000710188070166016FC166006F009008BDD0
:103D3000075E5F3700AF2F919C84001070B5F84D7F
:103D400000244FF4E4612C706C70EC70F54818F0AE
:103D500018FF4FF4E461F44818F013FFAC602C71C5
:103D60004C21F24818F00DFF4C21F14818F009FFE2
:103D70006C717421EF4818F004FF7421EE4818F0BC
:103D800000FFEC60AC71EC612C626C62AC62EC62C6
:103D90002C632C6170BDE249002048707047E048F8
:103DA00040787047DE480079002818BF012070472E
:103DB000DB488079002818BF01207047D848407937
:103DC000002818BF01207047D548C078002818BFC8
:103DD000012070470021D248C16201637047D74873
:103DE000704770B5D64A054610785178421852008F
:103DF00014462946D14818F0CEFE22462946D1481D
:103E000018F0C9FEC6490120887170BDC448006918
:103E10007047C348407800EB4001C1EB4010C549F2
:103E200001EB800070472DE9F041BD4D0446C149CA
:103E30006A78C54F02EB4200C0EB4210C34E01EB63
:103E400080033A783078214610444200184618F032
:103E5000A2FE6A78B84902EB4200C0EB421001EBC7
:103E600080033A783078214610444200184618F012
:103E700092FE01206871BDE8F081A948C0687047D2
:103E8000A7484078C0EBC001C1EB8010A54901EB09
:103E9000401070472DE9F041A14E074630780028C8
:103EA00014BFAB48AB48047814BFAB48AB480578A7
:103EB00004FB05F8FFF785F829462046FFF7DEF8F2
:103EC0007078994CC0EBC001C1EB801004EB40123C
:103ED000A4F5E46101EB40103B460146FFF7EFF823
:103EE000FFF77CF870784FEA4802C0EBC001C1EBE5
:103EF000801004EB4010394618F04DFE0120F070A0
:103F0000BDE8F0812DE9F047854D044685496A7882
:103F1000DFF83C82C2EBC200C0EB821001EB401321
:103F20002878DFF830928C4E8C4F002815BF98F817
:103F3000000099F8000032783A7800FB02F04FEA6E
:103F400040022146184618F026FE6A787649C2EBF0
:103F5000C200C0EB821001EB401C287821460028EB
:103F600015BF98F8002099F8002033783B7802FBC1
:103F700003F04FEA4002604618F00DFE0120E870A1
:103F8000BDE8F08766488068704770B5744C054698
:103F9000014622786548520018F0FDFD2278294636
:103FA0005200634818F0F7FD5D490120087170BDAB
:103FB0002DE9F04FADF26C7DDFF864910120CDF872
:103FC0004C0799F80300CDF8480799F80400CDF89C
:103FD000440799F80500CDF8400799F80600CDF898
:103FE0003C0701F0AFFB8046FDF7B8FDCDF8640754
:103FF000FDF78BFFCDF86007FDF7F2F9CDF85C0710
:10400000FCF759FF0446FCF753FF0646FDF7A8FDF1
:1040100099F802000025002804BF0420C9F8180000
:1040200008D0B8F1020F1CBF0A20C9F818000CD044
:1040300089F80250FDF79BF9083000094FF0010B99
:10404000CDF85007022E0AD01DE011F013FF10F436
:10405000817F14BF0F201E20C9F81800E8E7B8F1CF
:10406000020F05D0B8F1050F08BF122007D00AE0F3
:104070004FF47A7141434FF47A7091FBF0F0C9F834
:10408000180089F802B0D9F818000428BCBF042031
:10409000C9F8180099F80200B9F81810000240EAAF
:1040A000014040F001020023912107200AF03CFC6E
:1040B00014F0010F2ED1B8F1020F2BD00020FDF724
:1040C00085F9FDF761FF18F070FD00252F46CDF84A
:1040D000385705F0D3FD012846D00DF5E460FEF712
:1040E00055F9002800F0DD820DF5E46006F0C1FC12
:1040F000002089F80100D9F81800C01E8542CABF07
:10410000874201240024DDF82C0758B3DDF844076A
:1041100048B359E0FDF7FFFE0020CDF84C07D2E789
:10412000A084001090920010B099001010AF001001
:104130005CAF0010A8AF00101CB00010BC840010D1
:1041400006850010C484001003850010048500104B
:1041500001850010FE84001002850010FF8400100D
:104160000585001030E004E00120CDF8380700F0AC
:1041700082BADDF82CA77CB1FA4E51463078420065
:10418000F94818F008FD307851464200F74818F019
:1041900002FD89F804B017E0FEF713FFF14E01218C
:1041A0003078FEF76BFFF14A5346A2F14C01084606
:1041B000FEF785FFFEF712FF307851464200EB48CC
:1041C00018F0E9FC89F804B0DDF82807002800F0B1
:1041D000D780DDF84807002840F0D28099F8000029
:1041E000DDF82867F0BBD9F808A0BAF1000F24D099
:1041F000DF480078CDF85807DE480078CDF854073E
:10420000FEF7DFFEDDF85417DDF85807FEF73CFF38
:10421000314652460846FEF77CFFFEF7DFFED648E1
:104220000078022804BF504606F0F3F8D248007820
:10423000092804BF304606F0ECF8D0480078012881
:1042400016D9DFF834A39AF80000042804BF3046DA
:1042500006F0DFF83146684618F0ACFC06469AF8DE
:10426000000000E004E0052804BF304606F0D1F865
:10427000CCB399F8010099F80020C0EBC001C1EB64
:104280008011BF48002A00EB411031460CBFBD4AE7
:10429000B74A137814BFB74ABB4A127803FB02F23D
:1042A0004FEA420218F077FC99F80100C0EBC00118
:1042B000C1EB8011B54800EB411399F8000031467D
:1042C000002814BFAA48AF48007814BFA94AAE4AD4
:1042D000127800FB02F04FEA4002184618F05BFC2F
:1042E00089F803B03DE0FFE7CDF8546799F8000086
:1042F000002814BF9E48A34890F800A014BF9D4812
:10430000A14806780AFB06F0CDF85807FEF759FEDB
:1043100031465046FEF7B2FE99F801009B4EC0EBC5
:10432000C001C1EB801006EB4012A6F5E46101EB81
:1043300040100146DDF85437FEF7C1FEFEF74EFE91
:10434000DDF85807420099F80100C0EBC001C1EB4D
:10435000801006EB4010DDF8541718F01CFC89F8AB
:1043600003B08548007803280AD199F80100C0EB12
:10437000C001C1EB8011824800EB411006F049F802
:10438000DDF8300700287DD0DDF84007002879D11E
:1043900099F80000DDF8306748BBD9F80CA0BAF1F5
:1043A000000F24D07A4801787A4800780844401CED
:1043B0004008019002200090FEF703FEDDE90010A6
:1043C000FEF762FE314652460846FEF7A2FEFEF7B1
:1043D00005FE71480078022804BF504606F027F910
:1043E0006D480078092804BF304606F020F94CB328
:1043F00099F80100DFF898A100EB4001C1EB4011F2
:1044000066489AF8002000EB810362483146007844
:1044100010444200184618F0BEFB99F801005D4AAE
:1044200000EB4001C1EB40115D489AF80030127872
:1044300000EB81001A443146520018F0ACFB89F8B9
:1044400005B030E052485349009600780978461884
:10445000FEF7B7FD701C40080221FEF70FFE99F829
:104460000100DFF83CA100EB4001C1EB4010AAF1D4
:1044700074010AEB800201EB80010846009BFEF705
:104480001EFE00E01EE0FEF7A9FD99F80100720093
:1044900000EB4001C1EB40100AEB8000009918F0DE
:1044A0007AFB89F805B03C48007803280AD199F8CE
:1044B000010000EB4001C1EB4011384800EB8100E6
:1044C00006F0B5F8DDF83407002873D0DDF83C07B6
:1044D00030B1B8F1020F18BFB8F1050F6BD0BDE0D5
:1044E00099F80000DDF8346740BBD9F810A0BAF1A4
:1044F000000F23D02B48017840780844401C400826
:10450000019002200090FEF75CFDDDE90010FEF74F
:10451000BBFD314652460846FEF7FBFDFEF75EFD49
:1045200021480078022804BF504606F09FF91E4833
:104530000078092804BF304606F098F91948017838
:10454000407874B10844440022463146174818F0B8
:1045500022FB22463146164818F01DFB89F806B0AA
:1045600042E029E00585001010AF00105CAF00109C
:1045700001850010028500107D8500100085001067
:1045800090920010FE840010FF840010B09900107B
:10459000038500100485001082850010A8AF00106C
:1045A0001CB000100685001087850010BC84001028
:1045B000C484001052E028E00C18FEF702FD601CD5
:1045C00040080221FEF75AFDFB4A3346A2F10801DA
:1045D0000846FEF774FDFEF701FD62003146F6481D
:1045E00018F0D9FA89F806B0F4480078032804BF17
:1045F000F34806F03BF918F0E2FA0020C9F82C0065
:10460000C9F8300000F087FE28E00021DDF834070B
:1046100018F0DAFADDF85007782828BF15F0010FF6
:104620001CD0E84C207A58B10820FCF7BBF8E64AC9
:104630001378527899184A0001460820FBF775FE56
:10464000E07958B10720FCF7ADF8DF4A01460720B2
:10465000137852781A445200FBF767FEFDF7F3FE19
:10466000D9F818006D1C7F1C8542A8BF874211DB5A
:10467000D9F8140070B1FDF773FADDF85C07FCF7A8
:10468000A5FEDDF8640788B1DDF8600760B1FDF7CD
:104690007BFC0BE0DDF84C07002818BFFDF774FC2D
:1046A00017E501F09CF814E5FDF735FCDDF8380757
:1046B000002804BF0420C9F818000FD0DDF848070F
:1046C00089F80300DDF8440789F80400DDF84007A5
:1046D00089F80500DDF83C0789F80600DDF83807A1
:1046E000B9F81810000240EA014200239121072086
:1046F0000AF01AF9DDF838070DF26C7DBDE8F08F8D
:1047000010B50024FDF7F3FBB04910F0020F0AD0FA
:10471000CA78002A08BF012410F0040F03D00A79D8
:10472000002A08BF012410F0010F03D04A79002AA3
:1047300008BF012410F0200F03D08879002808BF9B
:1047400001240020002C08BF10BD00200870BDE827
:1047500010402DE438B505460F2411F08BFB40B115
:1047600000F0F0FF022803D000F0ECFF052800D194
:104770000E242146284601F040F9012804D1FFF714
:10478000BFFF009001F0B2FA9048C17800291CBF29
:104790004179002906D0817900291FBF00790028BE
:1047A000012038BD002038BDD4E7704770B5874C74
:1047B00000250646E57025716571FCF744F8002870
:1047C00018BFA571002E1CBF0120A070BDE870406D
:1047D0000AF07BBD002818BF01207C49C8717047D2
:1047E0007A48C079704710B54FF4E461784818F002
:1047F000C8F9BDE810404FF4E461764818F0C1B93B
:104800002DE9F041714D069A2978002914BF7249AB
:1048100072490978D21A4A4303FB01F469785200BD
:10482000C1EBC103C3EB8111694B164603EB411188
:1048300001EB440300EB44010F46184618F0ABF9B6
:1048400068783246C0EBC001C1EB8010614901EBD2
:10485000401000EB4400394618F09DF90120E87043
:10486000BDE8F0812DE9F047584F80460898397827
:10487000002914BF584959490D78A0EB030905FBDD
:1048800009F603FB05F4FEF79CFB49462846FEF7B4
:10489000F5FB78784F4DC0EBC001C1EB801005EB04
:1048A000401101EB4402A5F5E46101EB401000EB7F
:1048B000440008EB440843460146FEF700FCFEF7BF
:1048C0008DFB78787200C0EBC001C1EB801005EB66
:1048D000401000EB4400414618F05DF90120F870EB
:1048E000BDE8F0873E4870473C4801783D48007875
:1048F000484341003A4818F044B970B50646374875
:10490000047838480578FEF75CFB29462046FEF718
:10491000BBFB2E484078C0EBC001C1EB80102C4996
:1049200001EB401231462E48FEF7F3FBFEF756FB33
:104930002D480078152818BF70BD2948BDE8704083
:1049400005F067BD002818BF01202049C8707047D6
:1049500010B51E4C002804BFA06010BDDFF88CC04D
:104960001D490B7822490A7801465A435200604695
:1049700018F011F91D48A06010BD10B54C211D485C
:1049800018F0FFF8BDE810404C211B4818F0F9B8AA
:1049900018487047002818BF01200C49087170475B
:1049A00010B57421154818F0ECF8BDE810407421DA
:1049B000134818F0E6B80000C48400108785001082
:1049C000BC840010D488001006850010A08400105C
:1049D00090920010B099001001850010FE84001024
:1049E000D0A00010FF8400107D850010F0A70010FB
:1049F0000285001010AF00105CAF0010A8AF0010CF
:104A00001CB00010002818BF0120FB4948717047F6
:104A100010B5F94C002804BFE06010BD74220146B7
:104A2000F64818F0B8F8F548E06010BDF2480021EB
:104A3000C161016241628162C16201637047002805
:104A400018BF0120EC498871704710B5EA4C002866
:104A500004BF206110BDEA490A78497811444A0030
:104A60000146E84818F097F8E648206110BDE6488E
:104A70007047E34A0146E448137852781A445200DA
:104A800018F089B830B44FF0000C029C634304BFA7
:104A900030BC704732F91C4051F82C502C4440F87F
:104AA0002C400CF1010C6345F4D830BC7047002B4E
:104AB00008BF704710B4DDF804C0BCF1000F4FF020
:104AC000000C11D0002A9CBF10BC704751F82C403C
:104AD00004EB5304B4FBF3F420F81C400CF1010C7C
:104AE0006245F3D810BC7047002A9CBF10BC7047C9
:104AF00051F82C4094FBF3F420F81C400CF1010C0D
:104B00006245F5D810BC704770B5BB4D0026044611
:104B1000EE702E716E71FBF796FE002818BFAE7115
:104B20000AF0D3FB002C14BF012000202870BDE840
:104B30007040FFF73DBA2DE9F04F8FB04FF4E461BC
:104B4000B24818F01EF87421AC4818F01AF8AA4EB2
:104B500000207063B0630090019002900390FDF715
:104B6000C6F90446FCF7FAFF0C90FDF7CEF90B905E
:104B7000FCF736FC0A90FCF7F3FF0020FCF726FC5C
:104B8000FDF702FA00273D4605F078F8012878D0B5
:104B900004A8FDF7FBFB002872D004A805F069FF0C
:104BA00014F0020F1DD099480D9083469848DDF807
:104BB00018A090F80080974890F80090FEF701FA4E
:104BC0000120FEF76FFA49464046FEF75DFA5A4665
:104BD00051460D98FEF79DFA0020FEF763FAFEF7A6
:104BE000FDF914F0010F21D084480D9083468A48C6
:104BF0004FF00209DDF820A00178884800780844C9
:104C0000401C4FEA5008FEF7DCF90120FEF74AFA93
:104C100049464046FEF738FA5A4651460D98FEF787
:104C200078FA0020FEF73EFAFEF7D8F914F0200FCC
:104C30001DD073496B46099891F800C049781A460F
:104C40006144491C4FEA510C00214FF002085FEA11
:104C50004C0918BF0CFB08FC09D030F9118052F840
:104C60002190C84443F82180491C8C45F5D8FDF7B4
:104C7000EAFB7F1C102F05D2FDF786F984E700E0E0
:104C80000CE00125FCF76CFF0A98FCF79FFB0C98E1
:104C900048B10B9828B1FDF777F904E000F09FFDCB
:104CA00072E7FDF738F9002D52D114F0020F18D039
:104CB0005748564B017857489C46007801FB00F254
:104CC00010200021002A0AD93CF9118008EB500875
:104CD000B8FBF0F723F81170491C8A42F4D84B480E
:104CE000B06014F0010F18D04B48444B01784B488A
:104CF0001F4600780A184FF010004FF000010AD04C
:104D000037F9118008EB5008B8FBF0FC23F811C00C
:104D1000491C8A42F4D83948F06014F0200F17D0AB
:104D20003748384C6B46017840780A184FF010012C
:104D30004FF000000AD053F820C00CEB510CBCFB24
:104D4000F1FC24F810C0401C8242F4D82D48306198
:104D50000FB02846BDE8F08F012070474FF43F3078
:104D600070474FF43F30006870474FF43F310A6896
:104D7000B2F1FF3F15D0052804BFC87A704728DC80
:104D8000012804BF08797047022804BF087A7047D9
:104D9000032804BF487A7047042804BF887A704704
:104DA00027E0052813D007DC012822D002281CBFE9
:104DB000032804280BD01CE0142812BF15282D202E
:104DC0007047162804BF28207047172811D10020EB
:104DD0007047142804BF087B7047152804BF487B20
:104DE0007047162804BF887B7047172804BFC87B0C
:104DF0007047FF2070470000A084001090B00010A2
:104E000006850010D4840010CC840010F0A7001098
:104E10000185001002850010038500100485001034
:104E200070B5ADF5007D00244FF40071684617F0B1
:104E3000A8FE4FF43F36FF224FF40071684617F08A
:104E4000C8FEFF21254661F307052D22214662F3A6
:104E5000070162F30F2128224BF6BB3062F31741A2
:104E600064F31F61CDE90005CDE9024104943046A9
:104E7000FDF7DAFE69463046FDF778FF0DF5007D57
:104E800070BD2DE9F04F4FF43F34ADF5017D834601
:104E900020688A9F984691468A46B0F1FF3F08BF36
:104EA000FFF7BEFFD4E901106AF3070069F30F2092
:104EB000256868F31740D4E903646BF3070167F3CF
:104EC0001F608B460746FF224FF40071684617F0BB
:104ED00080FE0297CDE90364CDE9005B4FF43F34D7
:104EE0002046FDF7A1FE69462046FDF73FFF012859
:104EF00018BF00200DF5017DBDE8F08F2DE9F04FC2
:104F00004FF43F3389461D680021ADF5017D904681
:104F10008246B5F1FF3F02BF08460DF5017DBDE8B1
:104F2000F08FFF22D3E902744FF400716846D3F882
:104F300010B05E6817F04DFE6AF3070469F30F24A2
:104F400068F31744012060F31F64CDE90274CDE9D2
:104F500000564FF43F34CDF810B02046FDF764FE04
:104F600069462046FDF702FF0DF5017DBDE8F08F93
:104F70002DE9F04F4FF43F30894E00250368ADF521
:104F8000017D74422F461720FFF7EFFE8446142060
:104F9000FFF7EBFE40B2B3F1FF3F04D0BCF1000FCE
:104FA00003D12D2801D0FFF73BFF1420FFF7DDFED2
:104FB00040B202901520FFF7D8FE4FFA80F9162074
:104FC000FFF7D3FE40B201901620FFF7CEFE40421D
:104FD00040B20090FCF78BFFDFF8C8A183460020A9
:104FE0008AF803008AF804008AF80500FBF72BFC16
:104FF00000281CBF00208AF806000AF066F900208D
:105000008AF80000FEF7D4FF1BF0010F04D017F060
:10501000E5FD012808BF01251BF0020F7ED0624884
:105020009AF801104FF0000890F800C05F48C1EBFB
:10503000C102C2EB811100785D4A002802EB4112E7
:10504000C8BFACF1010A1EDD0021BAF1000F16DD68
:1050500001F1010B01FB00830BFB008B32F81330D5
:1050600032F81BB0A3EB0B031BB2002BB8BF5B42A3
:105070001BB2BB42C8BF1F46491C5145E8DB08F1C3
:1050800001088045E0DBB945B8BF45F002054FF0A7
:105090000008C146BCF1000FC8BFA0F1010A1BDD2A
:1050A0000021BAF1000F13DD09FB001332F813B031
:1050B00002EB43035B88ABEB03031BB2002BB8BFCF
:1050C0005B421BB24345C8BF9846491C5145EBDBC8
:1050D00009F10109E145E3DB02994145B8BF45F01B
:1050E00004054FF00009BCF1000F13DD0023002878
:1050F0000CDD09FB003132F91110B142C8BF0E4678
:10510000A142B8BF0C465B1C8342F2DB09F10109E6
:10511000E145EBDB0198B04204DB00E004E00098DD
:10512000A04201DD45F00805604208F0FF0B4FF496
:105130003F3400F0FF08206807F0FF0A06F0FF097F
:10514000B0F1FF3F08BFFFF76BFED4E901106BF32E
:1051500007006AF30F20266869F31740D4E9037447
:1051600065F3070168F31F600D468046FF224FF488
:105170000071684617F02DFDCDF80880CDE9037465
:10518000CDE900654FF43F342046FDF74DFD6946FB
:105190002046FDF7EBFD0DF5017DBDE8F08F000029
:1051A000F1D8FFFFA0840010FF840010FE840010DF
:1051B00090920010FE4800897047FD484089704772
:1051C00070B515460E4604460AF007F9002C18BFC4
:1051D00070BD042806D0F748006890F82400A84263
:1051E00088BF70BD3046BDE8704017F0FCBC2DE9AB
:1051F000FF5F8346F0480027DDF838A00578039864
:10520000109EB9463C4650452CD006FB050E0F9823
:105210003BF91EC006FB05093BF91900BCEB000376
:1052200048BFA0EB0C0306FB05A83BF91840B4EB04
:10523000000C48BFA0EB040C03EB0C0004B231F9E6
:105240001EC031F91900BCEB000348BFA0EB0C03F2
:1052500031F918C0BCEB000148BFA0EB0C01581895
:105260000FFA80F9012A2DD04FF0010817F0C0FC89
:10527000D249002C0A782EDD0F9906FB05113BF967
:1052800011101431282926D9039902EB0A0C114474
:105290008C4520D9119B129D13442A448B421CBF7C
:1052A0008D1A15F1020F30F9115000EB4106B6F9D5
:1052B0000260A5EB060508D01E353C2D08D94FF03D
:1052C000000808E0A1450CDD0AE00A35142DF6D8E7
:1052D000491C8C45E2D8A14503DDB8F1000F00D090
:1052E000012704B03846BDE8F09FB1480021817124
:1052F00081817047B24A0280428000218280C18051
:105300000181534243818181C18101824182C182F5
:10531000018382827047A6490020C88108617047D6
:10532000A3480021416181617047A6487047A64AA1
:105330000146A448137852781A44520017F02BBC47
:105340002DE9F04383B00C460546FFF790FB02467B
:105350009C480021031F002C88BF4FF0010C0AD984
:105360005E5C2EB935F911603C2EA8BF03F801C070
:10537000491CA142F4D38E4EB6F80E80B8F1000F4E
:1053800009D10021002C06D935F811C020F811C030
:10539000491C8C42F8D80021EC46002C0AD935F87B
:1053A000117030F81190A7EB09072CF81170491C07
:1053B0008C42F4D8B8F11E0F24BF0021002C11D963
:1053C000585C00281CBF3CF9110010F1140F06DDD9
:1053D000142804DC32F81170384422F81100491CFA
:1053E000A142EDD31046FFF744FBF08942F2107161
:1053F00088423ABF401CF081F18173482946027807
:105400004078104442006F4817F0C5FB03B0BDE878
:10541000F083009800140028CCBF012000207047C2
:105420002DE9F047814617F0E8FB05466248142451
:10543000012706784FF0060A4FF0090800F082F9BC
:10544000052808BF32240AFB067035F91010A14266
:10545000D8BFBDE8F08705EB4000B0F902008442F8
:10546000D8BFBDE8F08708FB067035F91010A142DF
:10547000D8BFBDE8F08705EB4000B0F902008442D8
:10548000D8BFBDE8F0874FF0FF30C9F800004848AA
:10549000C770BDE8F0872DE9FF4F85B01F46DDE9F5
:1054A000129A90460446DDF854B009F096FF09F0D0
:1054B0001DFF00253E4E00285CD010F080FD002826
:1054C00034D017F09AFB82463B4806214FF014096E
:1054D00090F800B001200490029009200091039000
:1054E00000F030F9052808BF4FF032090499009800
:1054F00000FB0B103AF91010494517DD0AEB40008C
:10550000B0F90200814511DDDDE9021000FB0B104E
:105510003AF91010494509DD0AEB4000B0F90200E4
:10552000814503DD01204FF0FF34F070B4F1FF3FFF
:1055300073D0002C07BF7078012809B0BDE8F08F48
:10554000757009F04AFF042868D005F0A4FC04280F
:1055500064D0B8F1000F1CBF4046FEF7D3FC002F0B
:1055600004BF09B0BDE8F08F384609B0BDE8F04F80
:10557000FEF759BC0AF058F8009009F0A3FE002885
:1055800004BFB571B58130D0B6F90C008345C8BFF2
:10559000A6F80CB0B6F90C000C4900EB801081FBAA
:1055A00000104111A1EBE070584538DD00980FE084
:1055B000DC84001060860010FE840010048500105A
:1055C000F1D8FFFFF0840010068500101F85EB5115
:1055D000012824D0B079401CC0B2B071032804D98E
:1055E000B5710120B581F070841E069803900A20E1
:1055F00002904B48DDF850B0BAF1010F00780090EE
:1056000048480078019008BFBBF1000F09D03089ED
:1056100018B309F0A5FE50B11FE059E06EE0B57176
:10562000E3E77079052824BF0520707134E0B9F1F3
:10563000010F02D17089C8280FD809F043FE012854
:1056400018BF1E210BD0DDE900230020D31817D08E
:10565000039A32F910208A420EDD75711CE0BBF10D
:10566000010F08BF4121EED005203C210290B9F185
:10567000000FC8BF3221E6E7401C80B28342E7D862
:105680007079401CC0B270710299814204D201202D
:10569000F0704FF0FF34757109F014FE01287FF4AB
:1056A00045AFB9F1000FC8BF35713FF73FAFBAF151
:1056B000010F3FF43BAF3079401CC0B230710A2873
:1056C0007FF634AF0120F0704FF0FF3435712DE7D5
:1056D000F07801281CBF09B0BDE8F08F4046FFF705
:1056E0000CF9F570B8F1000F1CBF4046FEF70AFC3C
:1056F000002F7FF439AF09B0BDE8F08FB8F1000F8B
:105700001CBF4046FEF7C6FB002F04BF09B0BDE832
:10571000F08F384609B0BDE8F04F17F073BA0000BB
:10572000038500100485001010B506F0CFFD06F0CB
:1057300078FE002010BD0000FE4988707047FD48CB
:1057400080787047FB4800787047FA484078704787
:10575000F8480078022805D005281CBF00207047B3
:1057600005F099BB09F039BEF2490870704770B571
:10577000F04E04460D463078A04212D002281AD0CE
:10578000052814BF002005F086FB44EA0521327885
:10579000002341EA024141EA00626121072009F049
:1057A000C3F87570072C28BF70BDDFE804F016073A
:1057B0000B13160F160009F010FEE6E7284600F05E
:1057C000A3FA0AE0284609F003FE06E0284605F0A1
:1057D00057FB02E0284609F05FF9347070BDD649E6
:1057E00000200968B1F8641011F4807F08BF704789
:1057F000FDF743B9D04900200968B1F8641011F4ED
:10580000807F08BF7047FDF747B9CB490020096882
:10581000B1F8641011F4007F08BF704717F0F7B9B2
:10582000C54900200968B1F8641011F4806F08BF01
:10583000704717F0F1B9BF49C87800281CBF401E57
:10584000C870704770B5BD49D1F8CC00B94C10F0A4
:10585000030F0AD040F4BE0040F02040C1F8C80059
:10586000E078002804BF0120E070B5488068B24DA0
:1058700010F0020F296807D14FF04020406910F066
:10588000010F01D0E07840B1B1F86410002011F4AC
:10589000807F18BFFDF700F907E0B1F86410002021
:1058A00011F4806F18BF17F0B7F9A649084208BF76
:1058B00070BD2968496E090CE17070BD10B572B6F3
:1058C000FEF704FABDE81040FDF76FBF10B50128E0
:1058D00002D0022805D008E04FF44330FDF7A4F9C8
:1058E00003E04FF040219848086772B6FEF7EEF9E2
:1058F000BDE81040FDF759BF8E4900280A7918BF4E
:1059000001200871C0B2824208BF704700220028FF
:1059100018BF012200230121022009F005B88548A3
:105920000079002818BF01207047824840797047ED
:105930002DE9F0417F4E00281CBF0020707104D17A
:105940007079002818BFBDE8F0814FF040273D6B0B
:105950000120FDF7DAFA0420FDF7D7FA7B4C052089
:10596000E066FEF7CAF940F2CF70216F11F0010F27
:1059700004D0707940F00E00707103E0011EA0F1B8
:105980000100F2DC707978B1FEF7B7F97048216F49
:1059900011F0040F04D0707940F00100707103E041
:1059A000011EA0F10100F2DC45F4BE0040F02040F1
:1059B0003863BDE8F0815F48406970475D48006921
:1059C00070475C480069002818BFC07A7047594981
:1059D000886170475748806970475649C861704769
:1059E0005448C06970475448026802F5C073118A70
:1059F000508A02F5A072FCF754BB2DE9F04FDFF896
:105A0000349197B08A46C9F8140006F081FBC9F8B2
:105A10001000002800F0B78090F800C089F806C098
:105A2000417889F80710837804460CF1010089F861
:105A3000083000F0FE0089F80900E27889F80A20B1
:105A4000207989F80B00607989F80C0009F10E05BE
:105A5000A0792870E0796870207889F80D00604698
:105A6000FCF760FC99F80C1099F80B00FCF77DFC32
:105A700069782878FCF783FC6946204606F071FBBC
:105A8000608AD9F8185000281CBF6843050BB4F889
:105A90001A80D9F81C60B8F1000F08BF4FF4805885
:105AA000678C002F08BF4FF4805700201AF0040FB6
:105AB00018BF4FF485701AF0080F18BF40F00400AB
:105AC0001AF0020F1CBF40F2012108431AF0010F27
:105AD00018BF40F48460616A6FF30F0A08406FF3E7
:105AE0000F0108434AEA000A0098109004981190A8
:105AF000089812900C98149001981390079815909C
:105B000010A95046FCF7F8F81AF0020F77D005F00C
:105B1000EAFB5FEA000B43D005F0FCFB6843050B92
:105B200059460020FBF771FC218A002918BF00208C
:105B300010E00000F8840010608600100060004053
:105B40000080004008000300AD2007B000100040B6
:105B50003F0D030018BFFBF7D7FC05F0FBFB7043BC
:105B6000000B8030020A0820012101FA00F31342E1
:105B700001D1401EF9D5061FA07B002818BFA0F157
:105B8000010B17D112E05E480068B0F8640010F411
:105B9000807F18BFFCF780FF002017B0BDE8F08FB2
:105BA000B4F80CB0BBF1000FBAD1BDE70020FBF791
:105BB0002EFD8346E07B002814BF401EFBF768FDE6
:105BC0000BEB0601042903DD711A0E1D042103E00D
:105BD0000029BCBF761A00210644042E03DD301FC5
:105BE000C540042604E0002E02DA704285400026FB
:105BF0000020FBF725FD31460020FBF762FD1AF07F
:105C0000010F23D0A18A00291CBF0120FBF7FDFB57
:105C1000268B3EB131460120FBF776FC3146112040
:105C2000FBF772FCA67D3EB1711E0120FBF708FD5B
:105C3000711E1120FBF704FDE67D3EB1711E0120AF
:105C4000FBF73FFD711E1120FBF73BFD1AF0200F03
:105C500023D0A18B00291CBF0220FBF7D6FB268C8A
:105C60003EB131460220FBF74FFC31461220FBF7D4
:105C70004BFCA67F3EB1711E0220FBF7E1FC711EBA
:105C80001220FBF7DDFCE67F3EB1711E0220FBF720
:105C900018FD711E1220FBF714FDE07A00281CBFCE
:105CA0000001FBF7EEFA029805F0F9FA039830B11B
:105CB0002B4699F8072099F8061016F0B2FF3A46DD
:105CC0004146284616F0B2FF0598FEF741FE0998B6
:105CD000FEF79EFE06F042FA10F4005F1CBF0D981E
:105CE000FEF7B3FE012017B0BDE8F08F10B5FCF74A
:105CF000BFF805F0DCFA034900200861012010BD5F
:105D000060860010F8840010FE4908707047FD4856
:105D100000787047FC4810B4FC4A0168914218D1E1
:105D20004168B1F5907F14D80022D0F808C003462E
:105D30001146B2EB9C0F24BF10BC704753F82140B2
:105D4000491C2244B1EB9C0FF8D3002A04BF10BCBD
:105D50007047002010BC7047EB48FCF765BF2DE989
:105D6000F041ADF5007D044606F0B2F940B181691D
:105D70002162C16961624169A162C068E06205E0B7
:105D80004FF0FF30E062A0626062206238250020A0
:105D9000C4E90250DD4F4FF49076C4E90076224604
:105DA00001462B4652F820C0401C6144B0EB930FD3
:105DB000F8D3C1F10008FF224FF400716846C4F81F
:105DC0000C8016F006FFCDF80C800097CDE9016538
:105DD00010340DF110080FCC88E80F000FCC0DF136
:105DE000200888E80F00D4E90001C74CCDE90C0178
:105DF0002046FCF719FF69462046FCF7B7FF01284B
:105E000018BF00200DF5007DBDE8F081BD490120DF
:105E10000870704770B50E4605461024FFF7CEFD9A
:105E200015F0020F18BF052408D115F0010F18BF97
:105E3000092403D115F0200F18BF0D243246102C71
:105E400028BF70BD002A08BF70BD204490F92810FB
:105E50002046BDE8704006F0B7B9F0B581B0ADF5A9
:105E6000805D0446FFF7AAFD054614F0020F0AD034
:105E7000684604270646FCF7EAFA95F92C103246E4
:105E8000384606F0A1F914F0010F0BD06946082737
:105E90000E460120FCF72FFB95F9301032463846AC
:105EA00006F092F914F0200F02BF01B00DF5805DED
:105EB000F0BD0C2669460C460220FCF71CFB95F948
:105EC00034102246304606F07FF901B00DF5805DB2
:105ED000F0BD2DE9F34FE9B000208A465690559069
:105EE00072B6FCF704F80546FDF721FD48B1FDF751
:105EF000C3FD5690FDF7AAFDFDF7C3FD5590FDF7D4
:105F0000B0FDFBF7EEFEFBF729FE5D90FBF7FDFF12
:105F10005C90FBF725FEFCF786F864900020FCF708
:105F20007CF80120FBF743FC62901120FBF73FFC5B
:105F300063900220FBF73BFC60901220FBF737FCDC
:105F40006190FDF721FB5B90FDF706FB4FF493504A
:105F5000FDF773FA62B6FBF715FC5A900120FBF7C8
:105F600007FC0120FBF787FC65900020FBF73FFE54
:105F70005F900020FBF730FE5E900020FBF726FAD2
:105F800066900020074636AE46F82070401C062872
:105F9000FAD3DFF87C8115F0020F4FF001040AD02C
:105FA00041F618514046369416F0EBFD41F6185173
:105FB000584816F0E6FDDFF8609115F0010F15D096
:105FC0004FF41871554816F0DCFD4FF4187148462F
:105FD00016F0D7FD0120FAF7B4FC002818BF38945A
:105FE0001120FAF7AEFC002818BF399415F0200FE5
:105FF00015D04FF41871494816F0C3FD4FF41871CD
:10600000484616F0BEFD0220FAF79BFC002818BF98
:106010003A941220FAF795FC002818BF3B94DFF859
:106020000091384D36984FF0405B68B30021084628
:10603000FBF7DBFA009001210020FBF7D6FA019074
:1060400099F800008DF8080036480078012894BFC0
:106050003548364800788DF809000020FBF7F2FB40
:10606000002818BF4FF0FF3004908DF80AA0688810
:10607000ADF80C000020FBF765FAADF80E002C48D7
:10608000CDF81880CDE907B037984FF0FF0A68B314
:1060900000210846FBF7A9FA099001210020FBF72F
:1060A000A4FA0A9099F800008DF82C008DF82D4084
:1060B0000D978DF82EA06888ADF830000020FBF712
:1060C00041FAADF832009DF8090000EB400101EB08
:1060D000001108EB81010F919DF8081048430BEB6C
:1060E00040011091124901EB40001190114FDFF86F
:1060F00048803898F0B300210120FBF776FA01219F
:1061000012901BE01885001000FE02005443524616
:106110000080003000A0003018BD0030189D003015
:106120000185001000850010FF840010028500101A
:106130000040003003850010048500100846FBF77E
:1061400054FA1390FAF7D1FE00280CBF98F800001B
:1061500038788DF850000120FBF759FA04FA00F066
:106160008DF851000120FBF722FBC04316908DF8FB
:1061700052A000E00DE0A888ADF854000120FBF724
:10618000E1F9ADF85600FE481890FE481990FE4817
:106190001A90399870B300211120FBF726FA1B9052
:1061A00001211120FBF721FA1C90FAF79EFE00282E
:1061B0000CBF387898F800008DF874001120FBF7B8
:1061C00026FA04FA00F08DF875001120FBF7EFFABB
:1061D000C0431F908DF876A0A888ADF878001120F4
:1061E000FBF7B0F9ADF87A00E8482190E848229032
:1061F000E8482390E84F3A9840B300210220FBF78B
:10620000F4F9249001210220FBF7EFF9259038786A
:106210008DF898000220FBF7FAF904FA00F08DF8E7
:1062200099000220FBF7C3FAC04328908DF89AA08A
:10623000E888ADF89C000220FBF784F9ADF89E00D9
:10624000D6482A90D6482B90D6482C903B9840B3FD
:1062500000211220FBF7C9F92D9001211220FBF734
:10626000C4F92E9078788DF8BC001220FBF7CFF996
:1062700004FA00F08DF8BD001220FBF798FAC04335
:1062800031908DF8BEA0E888ADF8C0001220FBF771
:1062900059F9ADF8C200C4483390C4483490C4489A
:1062A00035909DF851000227022809D9042805D904
:1062B0009DF85010199800EB810019908DF85170DD
:1062C0009DF87500022809D9042805D99DF8741095
:1062D000229800EB810022908DF875700120FBF769
:1062E00066FA4FF0553830B14FF0AA310120FBF774
:1062F0004EFACDF858801120FBF759FA30B14FF023
:10630000AA311120FBF743FACDF87C809DF8990063
:10631000022809D9042805D99DF898102B9800EB7C
:1063200081002B908DF899709DF8BD00022809D945
:10633000042805D99DF8BC10349800EB81003490F6
:106340008DF8BD700220FBF732FA30B14FF0AA3160
:106350000220FBF71CFACDF8A0801220FBF727FAE9
:1063600030B14FF0AA311220FBF711FACDF8C480FA
:10637000BDF8540000F58060ADF85400BDF8780019
:1063800000F58060ADF87800BDF89C0000F58060F5
:10639000ADF89C00BDF8C00000F58060ADF8C0000D
:1063A000FBF7F2FD00204E9054904F903D904490AA
:1063B00003F064FC012800F0B6835498802800F2B2
:1063C000B28346A8FBF7E2FF002800F0A68346A8A8
:1063D00004F04FFB4F98401C4F9000F09583002035
:1063E0004F905498401C549000203EAA012142F83E
:1063F0002010401C0628F8D33D98002808BF3C9088
:1064000013D0012804BF00203C9000F00481022832
:1064100004BF00203C9000F02882032804BF012024
:106420004E9000F04F8300F07EBB3C9936A850F8A8
:10643000210000287ED001EBC101684600EB8100FD
:1064400000214C9101685291449A41685391077A16
:10645000417A4591D0E90681B0F90C6000694D9010
:1064600054484069131AC3F10805904248D848D1EE
:1064700045984FF00004002888BF4FF0010E3FD927
:106480004D980EFA04F2024214BF4FF0010B4FF088
:10649000000B002004EB440202EB041284465092ED
:1064A00028E0430952AA52F8232000F01F030EFAF5
:1064B00003F31A421BD000F0010208EB4233509A5A
:1064C0004FEA500903EB820A31F9023B5AF82920BE
:1064D0009B1B0CF1010CBBF1000F18BF5B42002BA2
:1064E000C8BF42F4803242F400424AF82920401CDE
:1064F000262801D2BC45D4D34598641C8442BFD31E
:1065000078E0002D7ADB45984FF0000A002871D919
:1065100005F10800012202FA00FBE81D02FA00F072
:10652000519001234D9803FA0AF2104018BF012040
:10653000002200E067E057900AEB4A0000EB0A10E7
:10654000944650904FE0530952A802F01F0450F8AF
:1065500023300120A040034242D002F0010008EBAA
:10656000403350984FEA520903EB800431F9023B63
:1065700054F829009B1B0CF1010CDDF85CE11BE0D9
:10658000189D0030CC090030CC490030B09D00305F
:10659000CC0E0030CC4E003006850010489E0030F6
:1065A0004C1800304C580030E09E00304C1D00303C
:1065B0004C5D003018850010BEF1000F18BF5B4223
:1065C00010F4803F02D0002B04DA01E0002B01DD43
:1065D00020EA0B00002DC4BF519B184344F829004A
:1065E000521C262A01D2BC45ADD345980AF1010AB6
:1065F000824596D3002D04BF01204C903EA93C9AC1
:106600004C9841F822003C98401C3C900628FFF42E
:106610000CAF00F057BA3C9936A850F8210000287A
:1066200000F01B813C98449900EBC002684600EBE7
:1066300082000022519202684C9242684D92037A85
:10664000457A847A5094D0E906C2B0F90C80046986
:106650005294C089509CC1F1080600EA0407E9B1D0
:10666000002E75DB4FF0000A002D70D9012000FAD2
:1066700006FB701E012101FA00F059900124529886
:1066800004FA0AF1084018BF0120002145900AEBE6
:106690004A0000EB0A108946589093E04FF0000A38
:1066A000002D54D90124529804FA0AF1084018BF69
:1066B0000120002145900AEB4A0000EB0A108946B0
:1066C00057903EE04C094CA801F01F0B50F82440B5
:1066D000012000FA0BF0044230D001F001000CEB75
:1066E000403457984FEA510B04EB8000539032F935
:1066F000024BDDF814E150F82B00A4EB080409F17B
:106700000109BEF1000F18BF644210F4803F09D0A8
:10671000002C0EDA10F47F4018BFA0F5807040F412
:10672000803006E0002C04DD10F47F4018BFA0F597
:10673000807040F08000539C44F82B00491C2629AF
:1067400001D29945BED30AF1010AAA45AAD340E075
:1067500043E04C094CA801F01F0E50F824400120E2
:1067600000FA0EF004422AD001F001000CEB403494
:106770005898DDF814E104EB80004C0853945790CE
:1067800050F8240032F9024B09F10109A4EB080486
:10679000BEF1000F18BF644210F4803F02D0002CFD
:1067A00004DA01E0002C01DD20EA0B00002EC4BF5A
:1067B000599C2043DDF84CE1579C44F82E00491CBD
:1067C000262901D29945C4D30AF1010AAA45FFF44A
:1067D00055AF002EC8BF51983BDC0026002D36D99E
:1067E0005098C0F5807A40F4807E002006EB460188
:1067F000024601EB061B25E044094CA900F01F08E6
:1068000051F82440012101FA08F10C4217D000F0A0
:1068100001010CEB413101EB8B094FEA5008521C8E
:1068200059F82840E1B201EB5A0101EA0E01B942E0
:1068300088BF394624F0FF04214349F82810401C42
:10684000262801D29A42D7D3761CAE42CDD301205E
:1068500051903C9A3EA941F822003C98401C3C9043
:106860000628FFF4D8AE00F02DB93C9936A850F8B0
:10687000210000287ED04498529001EBC101684667
:1068800000EB810000214D910168509141685191C8
:1068900090F808A0417A4591817AB0F90C9082690C
:1068A0005792D0E90784C289006953905298C1F584
:1068B000807602EA010710F0010F14D045984FF0DE
:1068C000000B002872D90122539802FA0BF10840FC
:1068D00018BF012000214C900BEB4B0000EB0B107C
:1068E0008C466790D6E00020FAF7C5FF054645982C
:1068F00000FB0AF1032000EB410020F003024146B7
:10690000204616F048F92846FAF7B5FF45984FF0AB
:10691000000B00284AD90122539802FA0BF10840D3
:1069200018BF012000214C900BEB4B0000EB0B102B
:106930000D4659904DE04A0950A801F01F0350F848
:10694000222001209840024240D038F9020B6D1CF1
:10695000A0EB09034C98002818BF5B4201F001022C
:1069600057984FEA510E00EB4232599802EB8000E3
:10697000589000E0A0E050F82E20C2F3072002F06B
:10698000FF0C12F4803F02D0002B02DB04E0002B4E
:1069900002DDACEB060401E00CEB0604BC4206DDB4
:1069A000FF283ABF0024401C3C4607E07AE0002C58
:1069B00004DA0028C6BF3C46401E002402F48032A0
:1069C00042EA0020589A204342F82E00491C26290A
:1069D00001D25545AFD345980BF1010B83459AD3AE
:1069E00060E04A0950A801F01F0350F8222001205E
:1069F000984002424BD034F9020B4C9AA0EB0900AC
:106A00000CF1010C002A18BF404238F9022BA2EB0E
:106A1000090218BF52420028B4BF43420346002A6D
:106A2000B8BF52429A4232D9579A01F0010302EBA1
:106A30004333679A03EB82024B08CDE9583252F890
:106A40002330C3F30722DDB213F4803F02D00028C5
:106A500002DB03E0002801DD354400E0AD1BBD4250
:106A600005DDFF2A3ABF0025521C3D4606E0002DF9
:106A700004DA002AC6BF3D46521E002503F48030CA
:106A800040EA0220DDE95823284343F82200491C4C
:106A9000262901D2D445A4D345980BF1010B834597
:106AA000FFF411AF5298032826BF01204D904D9856
:106AB0003EA93C9A41F822003C98401C3C90062894
:106AC000FFF4D3AE012300203EA951F82020F2B1FB
:106AD000401C0628F9D3D3B13D981F2812D2401C80
:106AE00001463D90012000FA01F269990A4209D15C
:106AF0003D99491C3D91032904D800FA01F2699996
:106B00000A42F5D0002044904E9818B10BE044980A
:106B1000401CF8E7FBF738FA4AE4FEF76BFE4E98A4
:106B200000283FF445ACFBF71BF801206299FAF707
:106B30002EFE11206399FAF72AFE02206099FAF7D7
:106B400026FE12206199FAF722FE6498FBF765FA97
:106B50005A98FAF70DFE6598FAF78DFE5F98FBF7E5
:106B600046F85E98FBF738F86698FAF72FFC5D98C0
:106B700030B15C9810B1FBF707FA01E0FBF7CBF9F5
:106B8000FCF7D5FE48B15698002818BFFCF7D4FE94
:106B90005598002818BFFCF707FF5B98002818BF1E
:106BA000FCF783FC4E9800280CBF012000206BB03E
:106BB000BDE8F08F2DE9F843074600200E46054654
:106BC00000907DE0284605F0A3FA002877D00089E0
:106BD00000EA070424F0CC0030F47C406FD00F2191
:106BE0002846FEF70AFF002869D0FBF780F90099D4
:106BF000002962D1FBF75DF8FF210F20FFF769F94B
:106C00000090FAF7ADFF0098002856D19EB114F01D
:106C1000010F1CBF0220FFF720F914F0100F1CBF5A
:106C20000120FFF71AF914F4807F1CBF2020FFF722
:106C300014F90098E8BB24F0990030F4794006D0AC
:106C4000FDF779FF0090FAF78BFF009888BB86B3B9
:106C500014F0020F0DD0FDF795F98046FEF7AEFE59
:106C600005235FEA080204D090F92D10184605F0BC
:106C7000ABFA14F0200F0DD0FDF7FFF88046FEF7B9
:106C80009DFE09235FEA080204D090F931101846EE
:106C900005F09AFA14F4007F0FD0FDF7B7F8044618
:106CA000FEF78CFE0D23220007D090F93510184610
:106CB00001E002E003E005F087FAFFF717F86D1C2A
:106CC00005F022FAA842009803D900283FF47AAFD1
:106CD00004E0002804BF0120BDE8F8830020BDE8DF
:106CE000F883F0B5D64E91B001243578FEF72AFD31
:106CF000012865D1D3480068B0F93610B0F93400E6
:106D000015F099FF15F0020F4FF000072ED002A8E2
:106D100000F060F907982146401C079040F2777018
:106D2000FFF748FF012803D1FEF716F8012813D01A
:106D300009980023401C0990502006901A462121F2
:106D4000072007F0F1FD00231A461946FE200097A0
:106D5000FEF797F802A828E015F0080F14BFA2204C
:106D6000A12006900898401C0890F3E715F0100F3A
:106D70001DD0B068032824BF0024B76005D2684640
:106D800000F028F90C98401C0C9021464FF4E0606C
:106D9000FFF710FF08B1C4B106E000230122212152
:106DA000072007F0C1FD14B16846FEF7D8FF0020A8
:106DB000FDF7FCFC00232A464021072007F0B4FD24
:106DC00011B0BDE8F04002F0F3BE05F0C7F920F4C1
:106DD000E04005F0C0F9EAE7994A002804BF518075
:106DE0007047012804BF91807047022808BFD180F6
:106DF000704701004FF00000914A04BFB2F9020051
:106E00007047012904BFB2F904007047022908BF86
:106E1000B2F90600704770B50126FEF77BFF20B17E
:106E20000069A12818BFA22801D0002070BD00244D
:106E300005F06AF9002842D9204605F069F90028D2
:106E40001EBF058925F0CC0030F47C4032D00F21E4
:106E50002046FEF7D2FD68B315F0010F0AD0FBF70C
:106E60000AFB38B944F4807200232021072007F080
:106E70005BFD002615F0100F0BD00120FBF757FB30
:106E800038B944F4805200232021072007F04CFD3C
:106E9000002615F4807F0BD00220FBF748FB38B9A1
:106EA00044F4803200232021072007F03DFD002616
:106EB000FEF71CFF641C05F027F9A042BCD8304641
:106EC00070BD0020704700207047002818BF0120C7
:106ED0005B49487070475A484078002818BF012025
:106EE000704770B50D460446FEF729FC00286FD1A7
:106EF000534E306900286BD0707880B300207070DA
:106F0000B5F9020047F2305101444DF6A9629142B1
:106F100026D3B5F9001042F21072411A8B185100B5
:106F20008B421DD9B5F90430C31A1A448A4217D9C5
:106F30000321C0F3072241EA024141EA0062002333
:106F40006821072007F0F0FC10210120FEF70FFC5C
:106F50000320B060F068401CF060012070BDFFE7C6
:106F6000B4F9020046F67811884223DDB4F9002016
:106F700045F6C0518A42DCBFB4F904208A4223DDC1
:106F8000B2680021521CB260032A21D3C0F3072249
:106F900041EA024141EA006200236821072007F02C
:106FA000C3FC10210120FEF7E2FBF068401CF060FA
:106FB000012070BD24498842BFBFB4F900208A4235
:106FC000B4F904208A42DBDB0020B06070BDFFE72B
:106FD000002070BD10B50446FEF79CFE80B1B0E8FD
:106FE0000E10A4E80E10B0E80E10A4E80E10B0E8E1
:106FF0000E10A4E80E10D0E90010C4E9001019E04A
:10700000FF223821204615F0E4FD104820604FF49F
:107010009070606038200021C4E902015020C4E96A
:107020000401481EE062A062A1616062C4E9071029
:10703000216361630648FBF7F7FD012010BD0000E6
:107040001885001060860010D08AFFFF5443524616
:1070500000FE020070470020704710B503F00700E3
:10706000042808BFFEF72AFC002010BD70B503F00D
:1070700007020025F84CF94B012A02D0022A14D04D
:1070800011E0052018709D60FCF7CCFB22685321AD
:1070900011702268452151702268010A917021689F
:1070A000C87020680571002070BD1A78052A13D1B8
:1070B0009A68052A28BF104607D2D4F800C01CF8E9
:1070C00002C080F800C0501C9860052804D101203F
:1070D0009D60087003201870012070BD2DE9F041FB
:1070E00003F0070201260025DB4CDC4B012A02D00D
:1070F000022A3BD037E0052018709D60FCF792FB18
:107100002168AC270F702268010A517021688870CD
:1071100004F094FFDFF8488380B1D8F8000005F050
:1071200097F858B1D8F8000090F8200010F0020F3E
:1071300004D0206847702168432088702068C6709A
:107140002068057104F07AFF50B1D8F8000005F00E
:107150007FF828B1D8F800002168007E487102E06D
:107160002168FF2048710020BDE8F0811A78052AC7
:1071700012D19A68062A28BF104607D2D4F800C058
:107180001CF802C080F800C0501C9860062803D18B
:107190009D600E70032018700120BDE8F08103F09F
:1071A0000702022A1CBF0020704720220270012023
:1071B000087070472DE9F041A84F0D46064613F0C0
:1071C000070F04D003F00700022808D004E012F0F3
:1071D000040F1CBF0020B8700020BDE8F08102F051
:1071E000E1FC002814BF0124002402F0DEFC00288A
:1071F00014BF0222002242EA0403B878002814BF18
:107200000422002242EA0300307001202870BDE809
:10721000F08170B503F0070C0026904C8E4DBCF148
:10722000010F0AD0204613F0070F00780DD0BCF1F3
:10723000040F08BF062818D029E0A6602868067049
:10724000286846700520207021E005281FD1A0681D
:10725000022803D22B681A54401CA060022816D1C1
:107260000120A6600870062010E0286800785528E4
:107270000BD128684078AC2818BFBC2805D12868F5
:107280000122411C062002F073FC03202070002024
:1072900070BD70B503F0070200256F4C6F4B012ADB
:1072A00002D0022A24D021E0052018709D6002F04F
:1072B0002BFC41F6E8710144B0F53C3F10D8CA7888
:1072C000086862F31F60674A904208BF002007D138
:1072D0000A18236812791A54401C1428F8D305E0C0
:1072E000002021680D54401C1428FAD3002070BDE2
:1072F0001A78052A13D19A68142A28BF104607D293
:10730000D4F800C01CF802C080F800C0501C98607F
:10731000142804D101209D600870032018700120FA
:1073200070BD70B503F0070200254B4C4B4B012A92
:1073300002D0022A3FD03CE0052018709D6002F088
:10734000E3FB41F6E8710144B0F53C3F2BD8CA7825
:10735000086862F31F60434A904224D12268087C87
:1073600010702268487C50702268887C9070206879
:10737000CA7CC27020680A7A02712268487A507109
:107380002268887A90712268C87AD0712268087D54
:1073900010722268487D50722268887D9072C87D84
:1073A0002168C87205E0002021680D54401C0C289B
:1073B000FAD3002070BD1A78052A13D19A680C2AD6
:1073C00028BF104607D2D4F800C01CF802C080F8CD
:1073D00000C0501C98600C2804D101209D600870EA
:1073E00003201870012070BD70B503F0070200255E
:1073F000194C1A4E012A02D0022A3FD03CE004F078
:1074000067FE40B3D0E906212368C0681A70D4F83B
:1074100000C0130A8CF80130D4F800C0130C120E0F
:107420008CF802302368DA702268117123680A0A26
:107430005A7123680A0C090E9A712268D171216869
:1074400008722268010A51722268010C9172010EC1
:107450002068C1720DE007E01405020038850010B5
:107460006086001034CD12AB21680D54401C0C28EE
:10747000FAD305203070B560002070BD3278052A3F
:1074800010D1B2680C2A28BF104604D223689B5C36
:107490000370501CB0600C2804D10120B560087046
:1074A00003203070012070BD70B503F00702002486
:1074B000F84DF94B012A02D0022A3ED03BE00520CC
:1074C000187000269C6002F01FFB00F50051B0F51B
:1074D0003C3F98BF11F0030F27D1F04A0868904253
:1074E00004BF0022104620D151F82030401C1A441D
:1074F0000728F9D302B1C6B128680A7C02702A684D
:10750000487C50702A68887C90702A68C87CD0704B
:107510002A68087D10712A68487D50712A68887D24
:107520009071C87D2968C87105E0002029680C5455
:10753000401C0828FAD3002070BD1A78052A13D100
:107540009A68082A28BF104607D2D5F800C01CF850
:1075500002C080F800C0501C9860082804D10120A7
:107560009C60087003201870012070BD2DE9F04167
:1075700003F0070C0027C84E4FF00508BCF1010FBF
:107580000DD013F0070F0FD03246BCF1020F127866
:1075900010D0BCF1040F08BF062A26D058E086F8A8
:1075A00000807770B76053E07270BD48B06206200B
:1075B00030704DE0052A15D1B268042A28BF104664
:1075C00009D2C2F10303D6F828C0DB002CFA03F37A
:1075D0000370501CB060042804D10120B76008700B
:1075E000032030700120BDE8F0817078012500246F
:1075F00010F0010F11D002F087FAB0F53C3F23D80C
:107600006A030021B1EB900F07D252F8043B491CEA
:107610001C44B1EB900FF8D3B5B1707810F0020FA5
:107620000ED004F055FD78B182680021B1EB920FC5
:1076300006D250F8043B491C1C44B1EB920FF8D31E
:10764000002D18BFB46200D1B762777086F8008051
:107650000020BDE8F081F0B503F0070C00268D4D49
:107660008D4C83B0BCF1010F0ED013F0070F1DD06D
:10767000224603271278BCF1020F26D0BCF1040F7A
:1076800008BF062A36D03CE002AA01A9684602F0EB
:10769000EBFD052020702968019808702968009882
:1076A0004870296802988870A6602AE0A0680328BC
:1076B00003D229680A54401CA060022821D3062165
:1076C0002170032808BFA6601BE0052A0FD1A2681D
:1076D000032A28BF104604D22B689B5C0370501C01
:1076E000A060032803D10120A6600870277003B0B2
:1076F0000120F0BD286882780178407802F0A7FD6B
:10770000277003B00020F0BD08B503F00700012882
:107710000AD104F093FC38B101208DF80000024634
:1077200069460D2002F024FA002008BD08B503F0D8
:10773000070001280AD104F081FC38B100208DF83F
:107740000000012269460D2002F012FA002008BD57
:1077500008B503F00700012809D104F06FFC30B12F
:1077600003208DF800000122694602F001FA002092
:1077700008BD0020704708B503F0070001280AD1B2
:1077800004F05CFC38B10B208DF800000122694642
:10779000032002F0EDF9002008BD1FB513F0070F1C
:1077A0000ED104F04BFC58B19DF80800F0280AD027
:1077B00004F044FC20B1012202A9092002F0D8F90A
:1077C00004B0002010BDFEF7C7FAF9E708B503F0D2
:1077D000070001280AD104F031FC38B110208DF8DF
:1077E000000001226946032002F0C2F9002008BD12
:1077F00070B503F00700274C274D012808D013F07F
:10780000070F12D0042804BF2878062816D01FE0DE
:107810000020A8602168087021684870216888707D
:107820002168C8700520287012E0A86804280FD2CB
:1078300021680A54401CA860062008E004F0FEFB02
:1078400030B104221046216802F092F9032028701A
:10785000002070BD10B503F00700012804D103F02B
:10786000DBF90D4900200871002010BD10B503F0B0
:10787000070C094CBCF1010F06D013F0070F11D013
:10788000BCF1020F20D01DE00020A06007F043F8FB
:10789000A06117E0140502003885001054464953D2
:1078A000EFBEADDEA068002804BF1002A06106D0C4
:1078B000012804D1A0691043A06107F02BF8A0684B
:1078C000401CA060002010BDA26812B1012A04D0A3
:1078D00007E0218B090A017003E0237E0370012079
:1078E0000870501CA060012010BD10B503F0070CFB
:1078F000F74CBCF1010F06D013F0070F09D0BCF113
:10790000020F18D015E00020A06007F007F8A06172
:107910000FE0A068002804BF1002A06106D0012873
:1079200004D1A0691043A06106F0FBFFA068401CD1
:10793000A060002010BDA26812B1012A04D007E0A7
:10794000218B090A017003E0237E03700120087077
:10795000501CA060012010BD70B503F0070CDC4D79
:107960000E460446BCF1010F06D013F0070F07D0F6
:10797000BCF1020F18D015E00020A860E86011E00B
:10798000A868002804BF1002A86108D0012806D109
:10799000A869104381B2A861E8880EF080FAA8684F
:1079A000401CA860002070BDE86802280ED2E8885C
:1079B0000EF079FAEB6882B2002B04BF100A207037
:1079C00004D0012B02D1227001203070E868401CE5
:1079D000E860012070BD10B403F0070CBC4CBCF192
:1079E000010F08BF00200BD013F0070F03D0BCF12C
:1079F000020F09D005E0A068002808BFE280401C03
:107A0000A06010BC00207047A2681AB9A379037067
:107A100001200870501CA06010BC012070472DE9A7
:107A2000F047064603F00700A94F8946012808BF22
:107A3000002039D0DFF89C82A74D13F0070F02D049
:107A4000022835D031E0B868002808BF7A7029D004
:107A5000012804BF1002B86124D0022822D1B869DD
:107A60001043B8617E7884B204F0E8FAD0B1062EF3
:107A700018D2DFE806F00306090C1014A8F80E402F
:107A800010E0A8F80C400DE0286884860AE0286819
:107A9000A0F80C4106E02868A0F8504002E02868F1
:107AA000A0F85240B868401CB8600020BDE8F087DC
:107AB000F86802282CD297F801A0002404F0BEFA3E
:107AC000D8B1BAF1060F18D2DFE80AF00306090CA4
:107AD0001014B8F80E4010E0B8F80C400DE028681B
:107AE000848E0AE02868B0F80C4106E02868B0F8F7
:107AF000504002E02868B0F85240F868002804BFFF
:107B0000200A307004D0012802D1347089F80000B6
:107B1000F868401CF8600120BDE8F0872DE9F041CD
:107B20001C4615460E46074604F088FA80B169489F
:107B300014F0070F04D004F0070102290BD007E06E
:107B4000002D1ABF90F86C00C00800200AF092FDCA
:107B50000020BDE8F08190F86C00C008387001206A
:107B60003070BDE8F0812DE9F0411C4615460F4606
:107B7000064613F0070F08D104F060FA28B1022D71
:107B80003CBF284608F001FB03E004F00700022890
:107B900002D00020BDE8F08108F0F0FA307001203A
:107BA0003870BDE8F08170B503F0070200264B4C39
:107BB000474D012A02D0022A15D012E007F02BFC13
:107BC00021680870FDF7BEFD2168487003F088FB4E
:107BD00021688870FDF7BCFD2168C87005202870F9
:107BE000AE60002070BD2A78052A10D1AA68042A48
:107BF00028BF104604D223689B5C0370501CA86009
:107C0000042804D10120AE600870032028700120F0
:107C100070BD70B503F00702304C00252C4E012AD0
:107C200002D0022A5CD051E0FEF774F8002836D06A
:107C30004169FF292CBFFF21C9B2226811708169F7
:107C4000FF2934BFC9B2FF2122685170C169FF29E1
:107C500034BFC9B2FF21226891702268017CD170C3
:107C6000226890F820101171018C2268090A517164
:107C7000016A2268090C9171016A2268090ED171AA
:107C8000016BFF2934BFC9B2FF2122681172406B1A
:107C9000FF2834BFC0B2FF202168487215E0206879
:107CA0000570206845702068857021685020C87074
:107CB0002168FF2008712168487121688871216856
:107CC000C8712068057220684572B560002070BDDB
:107CD00038850010D41901106086001014050200C8
:107CE000B2680A2A28BF104604D223689B5C03703E
:107CF000501CB0600A2802D10120B5600870012034
:107D0000E5E703F00702FC4B4FF0000C012A08BF27
:107D1000C3F808C001D0022A01D0002070479A6839
:107D2000022A3DBF80F800C0501C9860104602280F
:107D300003D10120C3F808C00870012070472DE965
:107D4000F047064603F00700EB4F89464FF0000866
:107D5000012808BFC7F8088001D0022802D00020FF
:107D6000BDE8F087B86880BB0024254601F0CCFE52
:107D700000F50051A1F1180340214FF40052B0F575
:107D80003C3F1ED893F803A0D3F800C06AF31F6CE1
:107D9000DFF868A3D44514D1001FB4EB900F07D2CD
:107DA00052F804CB641C8CEA0505B4EB900FF7D3B2
:107DB000DA7D586962F31F60A84204BF80203070EA
:107DC00000D03170B868401CB860012803D1C7F8F2
:107DD000088089F800000120BDE8F0872DE9F04116
:107DE00003F007020026C64CC34D012A02D0022A26
:107DF00056D052E0FBF716FD0520287004F01EF95E
:107E0000002849D0BF4F386804F022FA002843D038
:107E10000EF028F880460EF029F839680A7E12F034
:107E2000040F11D0C98A2268090A117039682268C2
:107E3000897D517039682268898A090A9170396888
:107E40002268097DD17010E0898A2268090A1170C0
:107E500039682268097D517039682268C98A090A1F
:107E6000917039682268897DD17022684FEA1821A3
:107E70001171216881F805802268010A91712168D9
:107E8000C87138682268817C11722268017C517245
:107E9000008B2168000A8872AE600020BDE8F08186
:107EA0002A78052A10D1AA680B2A28BF104604D2C6
:107EB00023689B5C0370501CA8600B2804D1012030
:107EC000AE600870032028700120BDE8F0812DE924
:107ED000F04703F007020026894D874B012A02D0A4
:107EE000022A5DD059E00520187000249E6001F040
:107EF0000BFE00F50053B0F53C3F98BF13F0030FA5
:107F000045D1814A1968914204BF0022114608D127
:107F100053F821C0491C62440729F9D3002A08BF3D
:107F200001249F7C93F8138084B341F6E8710144E7
:107F3000B0F53C3F07D8CA78086862F31F606F4A03
:107F4000904208BF012491F8129091F813A0002CE0
:107F500008BF002014D004F0BBF82968806981F8BC
:107F60000090296881F801A02A68010C000E917028
:107F70002968C87028680771286880F805800CE0B7
:107F800029680E54401C0628FAD306E0FFE70020BB
:107F900029680E54401C0628FAD30020BDE8F0875B
:107FA0001A78052A13D19A68072A28BF104607D2E3
:107FB000D5F800C01CF802C080F800C0501C9860C2
:107FC000072804D101209E6008700320187001204A
:107FD000BDE8F08710B503F0070C474CBCF1010F6A
:107FE00006D013F0070F0AD0BCF1020F1AD017E029
:107FF0000020A060E0600DF0B3FFA06110E0A06879
:10800000002804BF1002A06107D0012805D1A06993
:108010001043A06180B20DF0A0FFA068401CA060DA
:10802000002010BDE268022A0BD212B1012A04D04E
:1080300007E0218B090A017003E0237E0370012011
:108040000870501CE060012010BD70B503F00701FE
:108050000026294D0446012908BFEE6201D00229FD
:1080600001D0002070BDE86A002804BF274814F042
:10807000E7FDE96A082928BF267002D22348405C40
:108080002070481CE862012070BD2DE9F04103F02A
:1080900007010026184D0746012908BFEE6201D0EE
:1080A000022902D00020BDE8F08195F82C0000F0F4
:1080B00007042879204304D1144814F0C1FD01209D
:1080C0002871052C28BF2E711048005D3870E86AB1
:1080D000401CE8620120BDE8F08170B5044603F061
:1080E00007000D4602281CBF002070BD14F0ADFD36
:1080F00020700120287070BD3885001034CD12AB7F
:10810000140502006086001054464953688500102B
:1081100070B503F007020025F74C012A02D0022AAD
:1081200012D00FE005202070002211461046A560F5
:1081300002F09AF84FF6FF7101EA4000206102F068
:10814000A6F86062002070BD2278052A17D1D4F805
:1081500010C0A268624528BF104607D212F0010F76
:108160001CBF637803700CD0501CA060604506D122
:108170000120A56008700320207002F095F801200E
:1081800070BD666A22F00103F35A1E0A067063701E
:10819000EAE770B503F007020025D74C012A02D0A8
:1081A000022A11D00EE0D54805220068B0F912105D
:1081B000B0F91000227008444000A560206102F070
:1081C000E6F96062002070BD2278052A17D1D4F844
:1081D00010C0A268624528BF104607D212F0010FF6
:1081E0001CBF637803700CD0501CA060604506D1A2
:1081F0000120A56008700320207002F0F1F9012031
:1082000070BD666A22F00103F35A1E0A067063709D
:10821000EAE7F8B503F007020025B74C012A02D0BF
:10822000022A13D010E000216A46084602F01CF82A
:1082300005202070A56000984FF6FF7101EA40000C
:10824000206102F0E6FA60620020F8BD2278052A7B
:1082500017D1D4F810C0A268624528BF104607D2D3
:1082600012F0010F1CBF637803700CD0501CA0608B
:10827000604506D10120A56008700320207002F03F
:10828000D2FA0120F8BD666A22F00103F35A1E0AF1
:1082900006706370EAE77FB51C460E46054613F08C
:1082A000070F08D103F0CAFE28B1012202A921203C
:1082B00001F05EFC03E004F00700022802D004B0E5
:1082C000002070BD07F0A7F928700120307004B0BD
:1082D00070BD7FB51C460E46054613F0070F08D14A
:1082E00003F0ACFE28B1012202A9222001F040FCDB
:1082F00003E004F00700022802D004B0002070BDA3
:1083000007F08FF928700120307004B070BD7FB580
:108310001C460E46054613F0070F08D103F08EFEEB
:1083200028B1012202A90C2001F022FC03E004F094
:108330000700022802D004B0002070BD07F06BF8DF
:1083400028700120307004B070BD7FB51C460E4609
:10835000054613F0070F08D103F070FE28B1012283
:1083600002A90F2001F004FC03E004F0070002283A
:1083700002D004B0002070BD11F0CEF900F00F0063
:1083800040F0100028700120307004B070BD10B5AE
:1083900003F00702584C012A02D0022A0DD00AE04D
:1083A00004F0F6F80021E06100281ABF4FF40560E0
:1083B00020622162A160002010BD236AA2689A4257
:1083C00028BF104607D2D4F81CC01CF802C080F8A1
:1083D00000C0501CA060984204BF0120087001201A
:1083E00010BD10B413F0070F4FF0402C04D003F071
:1083F0000702022A13D00FE0012A04BFDCF81400A0
:1084000040F0010006D0002A04BFDCF8140020F080
:10841000010001D1CCF8140010BC00207047DCF83A
:108420001430002213F0010F18BF0122344BD3F88F
:108430003CC0324B1B68B3F8A430C3F303340123B0
:1084400003FA04F41CEA040F18BF42F0020202709F
:108450000B7010BC0120704770B514460E460546DF
:1084600013F0070F04D003F00700022813D010E028
:10847000002C14BF0120002002F0C0FB4CB14FF0D3
:108480004020016B21F4405141F4BE0141F02041F4
:108490000163002070BD02F0B8FB002814BF012268
:1084A00000222A700120307070BD2DE9F04103F0E8
:1084B000070C114C0F468046BCF1010F12D0104E34
:1084C00013F0070F4FF0030510D02046BCF1020F48
:1084D000027829D0BCF1040F02BFA0680128062A47
:1084E00036D039E00520207000201BE0A06848B19C
:1084F00001280BD014E000003885001060860010C1
:108500000010004062700620207009E0607800EAE8
:108510000201316320EA02017163FAF7F1FC257070
:10852000A068401CA06017E0A068012808BF062AC8
:1085300003D16078FAF7E9FC2570F06B88F8000049
:1085400001203870A068401CA0600120BDE8F081C7
:108550006078FAF7DAFC25700020BDE8F08170B58C
:10856000044603F007000D4602281CBF002070BD22
:10857000FDF7D5F9002814BF012200222270012046
:10858000287070BD70B50D46044613F0070F04D077
:1085900003F00700022805D002E0104606F08CFE2A
:1085A000002070BD06F08BFE20700120287070BD89
:1085B00070B50D46044613F0070F04D003F0070012
:1085C000022805D002E01046F8F778FC002070BDC4
:1085D000F8F777FC20700120287070BD70B503F0AB
:1085E0000702DFF87CC40C460546012A08BF0520B7
:1085F0000DD013F0070F08BF062008D0022A09D0BB
:10860000042A04BF9CF80000062809D00EE08CF86C
:1086100000000BE0FDF789F928700120207070BD83
:1086200003208CF800000120FDF782F9002070BDC6
:1086300070B5044603F007000D46022807D013F07A
:10864000070F04BF1046FDF777F8002070BDFDF757
:1086500076F820700120287070BD70B5044603F0D4
:108660000700FF4D0E46012804BF0020A86014D06B
:1086700013F0070F02D0022811D00EE0A868F949C4
:1086800004283CBF0B681A54401CA860042804D17D
:1086900004220968122001F06BFA002070BD0BF073
:1086A00093FAAA68002A04BF000E20700FD0012A96
:1086B00008BF000C06D0022A08BF000A02D0032A15
:1086C00002D004E0207002E0207001203070501CC5
:1086D000A860012070BD70B503F0070CE04D0E4698
:1086E0000446BCF1010F04BF0020A86015D013F0B0
:1086F000070F03D0BCF1020F11D00EE0A868D949D2
:1087000002283CBF0B681A54401CA860022804D100
:1087100002220968132001F02BFA002070BD0BF033
:108720002BFAAA68002A04BF000A207004D0012A8C
:1087300002D1207001203070501CA860012070BD53
:1087400070B5044603F00700C54D0E46012804BF6E
:108750000020A86014D013F0070F02D0022811D017
:108760000EE0A868BF4904283CBF0B681A54401C9F
:10877000A860042804D104220968142001F0F8F943
:10878000002070BD0BF053FAAA68002A04BF000E47
:1087900020700FD0012A08BF000C06D0022A08BFA3
:1087A000000A02D0032A02D004E0207002E0207008
:1087B00001203070501CA860012070BD70B50446C7
:1087C00003F00700A64D0E46012804BF0020A86054
:1087D00037D013F0070F02D0022834D031E0A86858
:1087E000A04C002804BF21680A702168097801297B
:1087F00001D039B11BE0002818BF04283CBF216814
:108800000A5414E00BF031FA2168000948700BF0AB
:108810001DFAC0F303260BF028FA216846EA00107F
:1088200088700BF013FA2168C8700320A860A8684C
:10883000401CA860042804D104221520216801F0FE
:1088400097F9002070BD0BF01CFAAA68002A04BF3B
:10885000000E20700FD0012A08BF000C06D0022A9B
:1088600008BF000A02D0032A02D004E0207002E010
:10887000207001203070501CA860012070BD10B520
:1088800003F00702764C012A02D0022A27D024E006
:1088900003F07EFE0023002804BFE36123621BD0A7
:1088A00000F15001E1614168B1F5887F90F8201036
:1088B0000CD390F8212001EB020C01FB02C190F8CF
:1088C000222090F823001044084404E090F822008D
:1088D0000A1801FB00202062A360002010BD236A5B
:1088E000A2689A4228BF104607D2D4F81CC01CF8D0
:1088F00002C080F800C0501CA060984204BF012054
:108900000870012010BD03F00702012A02D0022ADC
:1089100005D002E052490020886000207047012203
:1089200002700A701046704710B513F0070F04D09C
:1089300003F00702022A05D002E0104601F0C1FC54
:10894000002010BD484A127802700120087010BD46
:1089500010B513F0070F04D003F00702022A05D068
:1089600002E0104601F049FE002010BD3F4A127897
:1089700002700120087010BD10B513F0070F04D06D
:1089800003F00702022A05D002E0104601F058FF6A
:10899000002010BD364A127802700120087010BD08
:1089A0001FB513F0070F07D103F048FB20B10122D8
:1089B00002A90B2001F0DCF804B0002010BD70B556
:1089C00003F00700264C1546012804BF0020A060D4
:1089D00024D013F0070F21D103F030FBF0B1A068D1
:1089E000204E03283CBF31680D54401CA060032872
:1089F00014D1F9F776F93068B0F8010045BAF9F703
:108A0000ADF8040018BFF9F7F8FA30682946007885
:108A1000F8F7FBFC002C18BFF9F7F2FA002070BD44
:108A200070B503F007000E4C1646012804BF002065
:108A3000A06034D013F0070F31D103F0FFFA70B308
:108A4000A068084D02283CBF29680E54401CA06055
:108A5000022824D1F9F745F9F9F780F8040009E074
:108A600038850010140502007D85001082850010F5
:108A70008785001018BFF9F7C0FA2868007880B120
:108A800029684978F8F740FD28684178007840F077
:108A90001000F8F739FD002C18BFF9F7B1FA0020E3
:108AA00070BD286841780020F3E77FB51C460E466C
:108AB000054613F0070F08D103F0C0FA28B10122D0
:108AC00002A9192001F054F803E004F0070002287D
:108AD00002D004B0002070BD06F074FC002814BF62
:108AE000012200222A700120307004B070BD7FB5D1
:108AF0001C460E46054613F0070F08D103F09EFAF8
:108B000028B1012202A91A2001F032F803E004F092
:108B10000700022802D004B0002070BD06F03EFC21
:108B200028700120307004B070BD2DE9F04103F0D1
:108B3000070CFB4C0E460746BCF1010F07D0F94D60
:108B400013F0070F07D0BCF1020F19D015E0002079
:108B5000A060E06011E0A06803283CBF29680A54C7
:108B6000401CA060032808D12868B0F8010040BA72
:108B700001B228680078FEF72FF90020BDE8F081E7
:108B8000E268022A12D242B928680078FEF731F969
:108B90002A68010A5170296888702868E2681044C0
:108BA000012A4078387004BF01203070E068401C12
:108BB000E0600120BDE8F08170B503F00700D84CFB
:108BC0001546012804BF0020A06017D013F0070F3E
:108BD00014D103F033FA88B1A068D24B03283CBF0C
:108BE00019680D54401CA060032807D11868B0F81C
:108BF000010041BA18680078F9F7F9FC002070BD4F
:108C000010B503F00702C64C012A02D0022A07D091
:108C100004E00020A060FAF7F6FCA061002010BD7F
:108C2000A268042A07D2C2F10303D4F818C0DB00FB
:108C30002CFA03F30370501CA060042804BF012029
:108C40000870012010BD10B503F00700012807D1FE
:108C500003F0F4F920B1002211461E2000F088FF35
:108C6000002010BD2DE9F04103F00705AC4E17467A
:108C700088460446012D04BF0020B0601BD013F0CD
:108C8000070F16D103F0DAF998B1B068A54B0328A5
:108C90003CBF19680F54401CB06003280BD1186802
:108CA00090F9022090F9011090F90000FCF726F9E4
:108CB00001E0022D02D00020BDE8F081B06830B1A3
:108CC000012809D002280CD003280FD015E0142069
:108CD000FCF74BF8207010E01520FCF746F82070E8
:108CE0000BE01620FCF741F8207006E01720FCF797
:108CF0003CF82070012088F80000B068401CB0608B
:108D00000120BDE8F08170B50D46044613F0070F51
:108D100004D003F00700022805D002E080490020BB
:108D20008860002070BD0120FCF71FF82070012032
:108D3000287070BD70B503F0070C0026794C784D93
:108D4000BCF1010F06D013F0070F0CD0BCF1020FDD
:108D50001FD01CE006F034FCAE602168087021686A
:108D6000000A487013E0A868022803D221680A5458
:108D7000401CA86002280AD1AE602068007810F07C
:108D8000010F04D002221B20216800F0F1FE002018
:108D900070BDAA68022A28BF104604D223689B5CD3
:108DA0000370501CA860022804D10120AE60087036
:108DB00003202870012070BD7FB51C460E46054675
:108DC00013F0070F08D103F039F928B1012202A9E5
:108DD000252000F0CDFE03E004F00700022802D0B9
:108DE00004B0002070BD0DF0AAF82870012030708A
:108DF00004B070BD7FB51C460E46054613F0070F44
:108E000008D103F01BF928B1012202A9202000F0AB
:108E1000AFFE03E004F00700022802D004B00020F7
:108E200070BD0DF097F828700120307004B070BD4F
:108E30007FB51C460E46054613F0070F08D103F018
:108E4000FDF828B1012202A9242000F091FE03E0E0
:108E500004F00700022802D004B0002070BD10F01A
:108E600087FE28700120307004B070BD7FB51C46AD
:108E70000E46054613F0070F0ED103F0DFF858B188
:108E80009DF80800002818BF0DF06DF8012202A916
:108E90001F2000F06DFE03E004F00700022802D05E
:108EA00004B0002070BD0DF061F828700120307012
:108EB00004B070BD2DE9FF41194E1C460F46054612
:108EC00013F0070F1CD103F0B9F8C8B19DF80800E2
:108ED000002818BF012802D0022807D014E0F07043
:108EE000012202A9082000F043FE0DE0F0700420EA
:108EF0008DF80800012202A9082000F039FE03E0E5
:108F000004F00700022803D004B00020BDE8F0817F
:108F1000F07828700120387004B0BDE8F0810000BE
:108F200038850010140502007FB51C460D46064624
:108F300013F0070F08D103F081F828B1012202A92C
:108F4000082000F015FE03E004F00700022802D01C
:108F500004B0002070BDFCF7F5FB801E05280ED282
:108F6000DFE800F0030709050B00002008E00120FE
:108F700006E0022004E0032002E0042000E0FF20DD
:108F800030700120287004B070BD2DE9F0411C46FE
:108F900017460E46054613F0070F0BD103F04EF8A7
:108FA00040B1384606F082F900221146012000F057
:108FB000DFFD03E004F00700022802D00020BDE836
:108FC000F08106F076F9287001203070BDE8F0815C
:108FD00010B5104613F0070F08BF06F00AFA00207C
:108FE00010BD10B5104613F0070F08BF06F008FAC1
:108FF000002010BD70B5044603F007000D4602289E
:109000001CBF002070BD06F003FA207001202870FC
:1090100070BD03F0070230B4F74B4FF0000C012A8B
:1090200005D0022A04BF1A78022A0BD01EE00220C3
:109030001870F248C3F808C06FF07F410068081A42
:10904000986113E09A68042A28BF104606D29D69E9
:10905000D40025FA04F40470501C9860042805D14B
:109060000120C3F808C008700320187030BC01202C
:10907000704713F0070F04BFE148027000207047EB
:1090800010B503F00700DC49012804BF0020886008
:1090900013D013F0070F10D18868DA4B04283CBFB7
:1090A000D3F800C00CF80020401C8860042804D1CC
:1090B00004221120196800F05BFD002010BD2DE98D
:1090C000F047164603F007020024CB4F012A04BFE5
:1090D000BC60FC6064D0DFF8308313F0070F07D06A
:1090E000022A33D0042A04BF387806284FD058E02B
:1090F000BD68002D08BFFE6125D0012D06D0D7F830
:109100001090AC1E4C4516D284B908E0701C386132
:10911000F9690844B0F5007F88BF3C6113E04FF463
:1091200000724FF43E31B94813F026FDB549F86995
:10913000096820440E54601C484504D1B348C0F867
:10914000FC8106203870681CB8602AE0FF2202709B
:109150003B69CBB1D7F81CC0FA689444BCF5007FDA
:1091600010D2AB4D2D68454518BF047005D10CF5E4
:109170003C3C9CF800C880F800C0501C984204BFDA
:1091800001200870501CF8600120BDE8F0874FF402
:109190003E30F9F749FD9D494FF43E30F9F7E6FDC1
:1091A0003C700020BDE8F0872DE9F0478C4603F0C5
:1091B00007010024904F1646012904BFBC60FC60E3
:1091C00062D013F0070F934BDFF84C8207D00229CF
:1091D00032D0042904BF387806284DD055E0BD6848
:1091E000002D08BFFE6124D0012D06D0D7F81090C5
:1091F000AC1E4C4515D27CB908E0701C3861F96989
:109200000844B0F5007F88BF3C6112E04FF4007263
:1092100019467E4813F0B0FC7A49F8690968204481
:109220000E54601C484504D17848C0F8FC810620E3
:109230003870681CB86028E0FF2101703B69C3B139
:10924000FA69F9680A44B2F5007F10D2734D2D68AF
:10925000454518BF047004D102F53C3292F800264F
:109260000270481C984204BF01208CF80000481C82
:10927000F8600120BDE8F0871D461846F9F7D4FCD8
:1092800062492846F9F772FD3C700020BDE8F0877E
:1092900070B503F00700584C1546012804BF0020A4
:1092A000A06014D013F0070F11D102F0C7FE70B107
:1092B000A068544902283CBF0A681554401CA060AD
:1092C000022804D102220968052000F051FC002088
:1092D00070BD2DE9F041054603F00700494C464EAC
:1092E0000F4601280AD013F0070F14D002281BD014
:1092F000042804BF3078062834D03FE00020B06056
:109300002168087021684870216888702168C870D9
:109310000520307032E0B06804282FD221680A544A
:10932000401CB060062028E0B06860B905F0B2FFCC
:10933000216808702268010A51702268010C000E31
:1093400091702168C870B06804283ABF2168095C30
:10935000FF21297024BF01213970401CB060012019
:10936000BDE8F08102F06AFE40B12068C178006873
:1093700061F31F6005F089FF032030700020BDE815
:10938000F08170B503F007011B4C064601290BD094
:109390001C4D13F0070F0CD0022914D0042904BF70
:1093A000207806281DD025E00020A0600520207030
:1093B00020E0A068B0F5007F1CD229680A54401C48
:1093C000A060062015E0A06818B90021286813F0F5
:1093D00041FC2868A168405C3070481CA0600120F6
:1093E00070BD02F02BFE28B1A168286813F037FC8D
:1093F00003202070002070BD388500109484001078
:109400002C84001014050200554E564DF4B6001081
:10941000FCF9020000F60200324E564DFCF7020045
:109420007FB51C460E46054613F0070F08D102F023
:1094300005FE28B1012202A9102000F099FB03E0EB
:1094400004F00700022802D004B0002070BD10F024
:1094500060F928700120307004B070BD2DE9F04132
:10946000054603F00700F84CF84E0F4601280AD0D5
:1094700013F0070F14D002281BD0042804BF307843
:10948000062834D03FE00020B060216808702168D1
:109490004870216888702168C8700520307032E0FB
:1094A000B06804282FD221680A54401CB0600620FE
:1094B00028E0B06860B913F0D7FB21680870226813
:1094C000010A51702268010C000E91702168C87069
:1094D000B06804283ABF2168095CFF21297024BFC5
:1094E00001213970401CB0600120BDE8F08102F01C
:1094F000A5FD40B12068C178006861F31F6013F0DA
:10950000B8FB032030700020BDE8F0817FB50D4628
:10951000044613F0070F04D003F00700022808D018
:1095200004E0012202A9262000F022FB04B0002062
:1095300070BD13F0A3FB20700120287004B070BD33
:109540001FB513F0070F04D1012202A91C2000F05F
:109550000FFB04B0002010BD03F00700BB49012839
:1095600006D013F0070F04BF0878012806D014E0D6
:10957000012008700020886048610DE08868042898
:1095800005D24B69401C42EA03224A6188600428E4
:1095900003D1032008704869C8610020704703F0B8
:1095A0000700DFF8A8C2012807D013F0070F04BF97
:1095B0009CF80000022809D01EE002208CF8000070
:1095C0000020CCF80800CCF8180015E0DCF8080002
:1095D000022808D2DCF81810401C42EA0121CCF81D
:1095E0001810CCF80800022806D1DCF81800CCF8D6
:1095F000200003208CF800000020704770B403F0B6
:1096000007020025914C012A02D0022A06D002E06E
:1096100002202070A56070BC002070472278022ACA
:109620001CD1D4F820C0A268624528BF10460ED2D3
:1096300012F0030F04D1E36953F8046BC4E9066325
:10964000237E0370A069000AA061501CA0606045E1
:1096500004D10120A56008700320207070BC012097
:10966000704770B503F007000025784C0E460128BE
:1096700006D013F0070F04BF2078022805D02BE096
:1096800002202070A560A56126E0216AA0688842BA
:1096900019D2A169090A41EA0262401CA26110F0D4
:1096A000030FA0600FD1E069B0F5443F28BF02600E
:1096B00006D2B0F5005F03D304226549F9F7AAFB8F
:1096C000E069001DE061216AA068884204D10120A0
:1096D000A560307003202070002070BD30B403F00E
:1096E00007040025DFF864C1012C08BFCCF808503E
:1096F00035D013F0070F02D0022C33D02FE0042A0C
:1097000008BF4FF4403028D013DC002A08BF4FF4C4
:10971000005022D0012A08BF4FF443301DD0022A46
:1097200008BF4FF41C3018D0032A08BF494814D092
:1097300010E0052A08BF4FF43E300ED04648102AEC
:1097400000680AD0112A08BF444806D0202A08BF62
:10975000B43002D0CCF8145001E0CCF8140030BC86
:1097600000207047DCF80820042A07D2C2F1030366
:10977000DCF81440DB0024FA03F30370501CCCF82F
:109780000800042824BF01200870012030BC704765
:1097900070B403F0070C2D4DBCF1010F07D02A4C1B
:1097A00013F0070F07D0BCF1020F21D01DE00020FD
:1097B000A860E86019E0A86805283CBF21680A5441
:1097C000042810D123682268D4F800C0D3F80130EF
:1097D000696912781BBA9CF804C023F0FF0343EABE
:1097E0000C0341F82230401CA86070BC0020704778
:1097F000EB6873B1042B07D22268032B1A4452780A
:10980000027004BF01200870581CE86070BC012081
:1098100070472268D5F814C012785CF822202668B8
:109820004FEA126C86F801C026684FEA124C86F89F
:1098300002C026684FEA122C86F803C0D4F800C094
:109840008CF80420D8E700001405020038850010C9
:109850005085001000FE020060860010D41901102F
:1098600010B503F00700012804D1002211460E2094
:1098700000F07EF9002010BD2DE9F04103F007044F
:10988000A94E174688460546012C04BF0020B0604B
:1098900017D013F0070F12D102F0D0FB78B1B068E7
:1098A000A24902283CBF0A681754401CB060022835
:1098B00007D102220968072000F05AF901E0022CC2
:1098C00002D00020BDE8F081B26812B1012A04D0B4
:1098D00009E0FBF737FF287005E0FBF739FF287038
:1098E000012088F80000B068401CB0600120BDE88D
:1098F000F08170B503F0070000258B4C012808D0DB
:1099000013F0070F0BD0042804BF2078062825D0B9
:109910002DE06561A5616570A560257027E0A068F0
:10992000022807D2616942EA01216161617811442C
:10993000617010E0042807D2A16942EA0121A16107
:1099400061781144617006E0052804D261788A428A
:1099500004BF06212170401CA06008E0D4E9050185
:1099600001F03CFA002804BF0120A07025700020FF
:1099700070BD10B56C4C13F0070F07D003F0070053
:10998000042804BF2078062822D02BE0A0680228F3
:1099900007D2616942EA0121616161781144617015
:1099A00013E06349091808D260490968014401F8C5
:1099B000022C61781144617007E05E49091804D2F5
:1099C00061788A4204BF06212170401CA06009E032
:1099D0005949606901F024FA002804BF0120A070F1
:1099E00000202070002010BD03F0070CBCF1010F17
:1099F00000D0BEE74C49002048614870886008707C
:109A0000704730B403F007050024DFF81CC1012DB6
:109A100007D013F0070F0DD0022D3CD0042D54D0E9
:109A20006FE0CCF81440CCF81840CCF808408CF823
:109A3000004066E0DCF8080002280BD2DCF81410C5
:109A400042EA0121CCF814109CF8011011448CF862
:109A5000011019E0042817D2DCF81810032842EA94
:109A60000121CCF818109CF801301A448CF8012020
:109A70000AD106228CF80020DCF81420114304BF20
:109A80004FF4C471CCF818102C49401CCCF82810A5
:109A9000CCF8080035E0DCF80820042A28BF10467E
:109AA0000AD2C2F10303DCF82850DB0025FA03F3E5
:109AB0000370501CCCF80800042803D10120CCF816
:109AC0000840087030BC012070479CF80000062850
:109AD00015D1DCF8140000224102DCF81800430222
:109AE0001046B2EB930F06D251F8045B401C2A4497
:109AF000B0EB930FF8D3CCF828208CF80040CCF8CA
:109B0000084030BC002070474FF443300168880A99
:109B1000424211EB822218BF401C404201EB800000
:109B2000C01C20F0030070473885001014050200A7
:109B3000FEFDFFFFFDFDFFFFF4B60010EFBEADDE42
:109B4000F948002202704270827002714271C27044
:109B5000DFF8D8C3114601EB410300200CEB4303AF
:109B60001A54401C0628FBD3491C2029F3D3704704
:109B700013F089B82DE9F04115460E460746F9F76E
:109B800057FC00F008040820F9F74DFC2A4631463E
:109B9000384613F078F805462046F9F73FFC28468A
:109BA000BDE8F081E04880787047DF484078704732
:109BB000DD49002048707047DB49082088717047F4
:109BC0002DE9F0410026F8F795F9044610F00F054D
:109BD0004ED02846F8F791F9012D18D0FBF7B8FDC3
:109BE00044EA0064002322460321072004F09CFE7F
:109BF00014F0060F3CD00126FBF7A4FD054605F046
:109C0000ECFB0746022D28D0052D09D030E0FBF7EC
:109C100099FDC5498A79904218BF8871DED1E7E77E
:109C200014F0020F10D0F6F7FCFD00281CBF002036
:109C3000F6F703FE0120FAF7B9FD0120F6F709FE59
:109C40000020FAF7C7FD0BE010F0A9FE007810F035
:109C5000040F08BF012003D1F3E70120FAF7A6FDA6
:109C6000022F05D0022D4FF0020004D001F008F9B8
:109C70003046BDE8F08105F0ABFBF9E72DE9F84F80
:109C80000026FAF73AF8FBF75DFD022804D101F04F
:109C90007BFD002818BF0126FBF754FD052814D1D1
:109CA000FAF79EFD88B101F0FFF85A280DD3F6F7B8
:109CB000B8FD00281CBF0020F6F7BFFD0120FAF711
:109CC00075FD0020FAF786FD0126FFF779FF0028D1
:109CD00018BF0126DFF8509299F80200002800F022
:109CE0006482D9F808006D464FF0FF34002740B178
:109CF000D9F8082000230121084604F015FEC9F810
:109D00000870F9F795FB00F0080A0820F9F78BFBBB
:109D100099F80300DFF814B200B399F8050000EBDE
:109D20004001401CC0B20BEB410189F8050020281E
:109D300028BF89F8057099F80300401E89F80300D0
:109D40004C7891F800800020002C05DD0A189278EC
:109D50002A54401C8442F9DC0F704F705046F9F7CA
:109D60005DFB002CC0F2118208F0FF0000242728C0
:109D700080F0C881DFE800F0A825EE1D28371444E4
:109D8000ED4BA8888EB5EC93A3EBEAE9E8E7A8A829
:109D9000A8C9EFF4F9A8E3E2E1E0DFA8DEDDDC002A
:109DA0009DF80000AC280CBF01200220FBF78EFDBF
:109DB00007E09DF800100120FBF7D9FC012089F88D
:109DC0000100012400F09EB99DF80310009861F392
:109DD0001F6002F0D7FB01210320FBF7C8FC012024
:109DE00089F80100EDE7BDF8000040BA05F055FA2A
:109DF00002210320FBF7BBFC012089F80100E0E70A
:109E00009DF801109DF80000FBF7B1FCD9E74FF079
:109E1000010A89F801A099F8000088BBF8F75FF8FB
:109E200070B39DF8005089F800A0FBF78BFC012867
:109E300008BF002515F0040F18BFFDF742F815F014
:109E4000020F07D0FF210F20FCF743F8FAF773FE4B
:109E500045F0010515F0010F10D0FBF773FC022847
:109E600002D105F0BAFA48B1FBF76CFC052802D123
:109E700001F011F810B10020FAF746FE89F80070E1
:109E800089F8017000F03EB99DF80000401E01F015
:109E9000B1FA96E79DF8000005F0C0FA91E79DF849
:109EA000000000F00F000FF03BFC9DF8000010F0E8
:109EB0000F0018BF01200FF054FC00F023B99DF8EB
:109EC000000010B1012805D01CE100200FF01EFC9D
:109ED000002003E001200FF019FC01200FF0DEF854
:109EE00010E19DF8000058B1FBF72CFC022818BFC8
:109EF000012405F078FA01460220FBF738FC01E165
:109F000000210620FBF733FC5BE79DF800000028EA
:109F100018BF012005F04CFA9DF80000002818BF7A
:109F2000012000F0A3FFEDE070850010F4B80010F0
:109F3000E4E0DCE0D6E0B7E0B1E0BAE0A2E05AE06D
:109F400013E00DE007E085E076E06FE056E047E0E3
:109F50001DE02EE09FE09DF8000005F014FAD1E02E
:109F6000BDF8000005F0B7FA2BE79DF8000020B11E
:109F700001283FD0022805D0C4E04FF44330F8F761
:109F800053FEBFE002F09DF800210420BAE7F9F784
:109F90004FFA00F008040820F9F745FA99F8030091
:109FA000002808BF89F802702046F9F737FA012126
:109FB000A7E79DF80000012804BF02210520A1D0D9
:109FC000022804BF002103209CD0032804BF0021E5
:109FD000042097D004281CBF0221084690D091E7A6
:109FE0009DF80300009A002360F31F62622107209E
:109FF00004F09AFC86E0FAF7BBFFE2E69DF8000069
:10A000009DF80110000140EA111009F0C4FD9DF80F
:10A0100001109DF8020001F00F0140EA012009F053
:10A02000C0FD9DF8030009F0C8FD6BE0BDF800001D
:10A0300040BA09F0A4FD65E09DF8000009F0D0FDEC
:10A040009DF8010009F0DBFDBDF8020040BA09F0FF
:10A05000E5FD57E09DF8000009F0F5FD9DF80100D1
:10A060009DF80210000140EA111009F001FE9DF870
:10A0700002109DF8030001F00F0140EA012009F0F1
:10A08000E8FD3FE09DF800000BF06DFF9DF800003B
:10A0900000287FF496AE0020FAF788FB91E69DF841
:10A0A000000005F0B3FA8CE69DF8000005F0B6FA62
:10A0B00087E60BF04FFF9DF8004005F081FA012C78
:10A0C0000AD0022C08BF40F0805005D0042C14BFE9
:10A0D000082C40F0005001D105F0DCF920460BF0CF
:10A0E00034FF6EE69DF800000FF045FD0AE09DF894
:10A0F00000000BF021FF05F0FEF803E09DF80000E2
:10A1000012F0C6FD0CB101263FE0D9F808006D46FB
:10A110004FF0FF3440B1D9F8082000230121084650
:10A1200004F002FCC9F80870F9F782F900F0080A97
:10A130000820F9F778F999F8030000B399F80500B9
:10A1400000EB4001401CC0B20BEB410189F8050057
:10A15000202828BF89F8057099F80300401E89F867
:10A1600003004C7891F800800020002C05DD0A18CF
:10A1700092782A54401C8442F9DC0F704F7050468C
:10A18000F9F74CF9002CBFF6EFADF9F751F900F0F3
:10A1900008040820F9F747F999F80310002908BFC7
:10A1A00089F802702046F9F739F9002E14BF012012
:10A1B0000020BDE8F88F000002460020022928BFD9
:10A1C00070473AB1012A0AD0022A04BFF74800EBCF
:10A1D000C100704740F2DB104843F54904E001EB51
:10A1E0004100C0EB4110F34901EB8000704770B5AE
:10A1F000F9F71EF900F008060820F9F714F9EE4DFA
:10A2000000246878FF2806D240F6D861E84812F0AA
:10A21000B8FCAC70EC70A879FF2805D2E821E548BD
:10A2200012F0AFFCEC712C72E87AFF280AD2E349F5
:10A23000C1F8C043C1F8C443C1F8C843C1F8CC4316
:10A240002C736C733046BDE87040F9F7E7B8DFF85F
:10A2500070C300FB01F31CEB030C88BF7047D64BA7
:10A260009A61C3E904017047DFF84CC30028DCF8A9
:10A27000103018BF0360D0480029406918BF08603B
:10A28000002A1CBFDCF81810116058437047CA48F8
:10A2900001210171007840F2DB1180F00100484398
:10A2A000C34901EB80007047C3488278002132B176
:10A2B000C27822B9027882F00102027081700171C5
:10A2C0007047BD491E284A78487008BF002003D057
:10A2D0001F2808BF012000D1087010467047B648FB
:10A2E000007840F2DB1180F001004843B04901EBF7
:10A2F00080007047F0B4B04E96F800C040F2DB1416
:10A300000CFB04FCAA4C356904EB8C0C03FB05F434
:10A310000CEB440C8D4234BF2C460C467669F31A84
:10A32000934238BF1A460026002A9CBFF0BC7047F3
:10A330000023002C06D930F813702CF813705B1C26
:10A340009C42F8D8761C0CEB450C00EB4100964281
:10A35000EED3F0BC70472DE9F041974F14468C4680
:10A3600001467A7806981D468A4218BFBDE8F081FA
:10A370000121F970012802D0022824D029E0387880
:10A3800040F2DB1148438A493E6901EB8001A64255
:10A3900034BF324622467869A84238BF05460023BA
:10A3A000002D16D90020002A06D91CF8007021F8CB
:10A3B0001070401C8242F8D85B1C01EB4601A4449B
:10A3C000AB42EFD305E000232A4621466046FFF763
:10A3D00091FFBDE8F04100F0A4BB002808BF704722
:10A3E0007549784B4A7878491B78002A097818BF54
:10A3F000022A05D0042A18BF092A01D0012279E7D0
:10A40000724A1278012A84BF714A1378012200F03F
:10A41000A2BB2DE9F04FDFF8A0A183B001218AF89B
:10A4200003106C49694C6A4D0F7866490E789AF8AA
:10A430000110112930D00EDC002918BF02291DD0CF
:10A44000042918BF092919D098B10023324639468A
:10A45000FFF750FF0DE0122918BF13291CD0212946
:10A4600018BF2229F0D120B10023B21C3946FFF7D2
:10A4700041FF03B0BDE8F04F00F053BB2178012944
:10A4800002D955492E780F780028F2D000233246A1
:10A49000394600F060FBECE7F7F723FCF7F75EFBCB
:10A4A0000090002818BFF7F7A8FD2078012888BF82
:10A4B0002E78F7F71CFD10F0040F18BF761CDFF89C
:10A4C0001C919AF80100A0F111089AF8000040F2DE
:10A4D000DB114843364901EB8004DAF81000B8423A
:10A4E00038BF0746DAF81400B04238BF0646F7F71F
:10A4F000CDFD01900020F8F7E7F80025002E39DDAA
:10A500004FF0000A002FC4BF05EB450000EB051B10
:10A5100029DD019810F90A00262824BF002024F81C
:10A520001A001CD200F0010109EB413100EBD070A0
:10A5300001EB8B014010B8F1000F51F820104FF0E3
:10A54000FF301DD0B8F1010F08BFC8B205D0B8F177
:10A55000020F04BF0846F8F7BDF824F81A000AF104
:10A56000010ABA45D5DB14486D1CB542006904EBFD
:10A570004004C5DB0098002818BFF7F741FD78E7D5
:10A5800011F4803FC1F3072018BF4042E5E70A48B5
:10A5900001214172407980F0010000EB4001C1EBE4
:10A5A0004010044901EB80007047000074C900109E
:10A5B000B4B900108CC800107C850010B4C5001020
:10A5C0004AFCFFFFFF840010058500100085001085
:10A5D00002850010FE84001001850010008000300C
:10A5E000FC48C279002132B1027A22B9427982F064
:10A5F00001024271C17141727047F6491E288A7981
:10A60000887108BF002003D01F2808BF012000D197
:10A61000487110467047EF48407980F0010000EB28
:10A620004001C1EB4010EC4901EB800070472DE97F
:10A63000F04FEA4985B0012291F80080E84991F88D
:10A640000090E4490A728979E34C11291CBF122950
:10A65000132936D0F8B1DF49497901EB4102C2EB49
:10A66000411104EB8102002119EB080C18BFDD4CED
:10A6700011D02368B9F1000F5B8A03BF30F8115085
:10A680000B4422F8135030F8113018BF22F8113063
:10A69000491C8C45EDD8F8F7CBFE00F008050820E2
:10A6A000F8F7C1FECB4C607A002818BF01217CD09E
:10A6B000E1712846F8F7B2FE0020207205B0BDE82F
:10A6C000F08FF7F70EFBF7F749FA0190002818BF53
:10A6D000F7F793FCBF488179A1F11105C169009199
:10A6E000407900EB4001C1EB401004EB8006F6F727
:10A6F000FCFBBD4FBD494FF0110A002804BF8B463B
:10A70000012004D0BB4650460F464FF0010AF7F730
:10A71000DBFFF7F7B9FC00240390B9F1000F28D94B
:10A7200000984C214843029003980057262824BFE4
:10A73000002026F8140019D200F001010BEB413281
:10A7400000EBD0700299401001EB8000002D1158F1
:10A750004FF0FF3049D0012D08BFC8B204D0022D00
:10A7600004BF0846F7F7B6FF26F81400641C4C45F2
:10A77000DAD306EB49065046F7F7A6FFF7F786FC53
:10A7800000248246B8F1000F29D900984C2100FB23
:10A7900001F94FF0000B1AF90400262828BF26F80B
:10A7A00014B019D200F0010100E02CE000EBD070F1
:10A7B000401007EB413109EB800009584FF0FF30A2
:10A7C000D5B1012D08BFC8B204D0022D04BF084680
:10A7D000F7F780FF26F81400641C4445DBD301988A
:10A7E000002818BFF7F70CFC55E711F4803FC1F3C0
:10A7F000072018BF4042B7E711F4803FC1F307209C
:10A8000018BF4042E6E7607980F0010060710021E6
:10A810004EE7704801218173807A754980F001000C
:10A8200001EBC00070476B48027B002132B1427BD4
:10A8300022B9827A82F001028272017381737047B9
:10A8400064491E28CA7AC87208BF002003D01F2896
:10A8500008BF012000D18872104670475D48807A99
:10A86000634980F0010001EBC00070472DE9F04F13
:10A87000584987B001224A73C97A5D4D5D4C112950
:10A880001CBF122913292CD0A8B15249897A2378E8
:10A8900005EBC10294F801C0002113EB0C0F0AD0A4
:10A8A00030F8113022F81130237894F801C0491C97
:10A8B00063448B42F4D8F8F7BBFD00F0080608208B
:10A8C000F8F7B1FD434CA07B002500281CBF0121F7
:10A8D00021737DD03046F8F7A1FD657307B0BDE860
:10A8E000F08FF7F7FEF9F7F739F90490002818BF51
:10A8F000F7F783FB404805902078617800EB01086A
:10A900003449C87A8A7AA0F11109C869896905EBC6
:10A91000C20B414538BF88460221029112210391A2
:10A92000002500EB40012E4601EB001A02AC54F862
:10A930002600F7F7C9FE54F826000021F6F755FE69
:10A94000009054F826000121F6F74FFE019006EB27
:10A950004600059900EB0610002401EBC0072EE02D
:10A96000E01704EBD060421120F01F005DF82210C8
:10A97000221A01209040014220D004F0010007EB90
:10A98000403004EBD47100EB8A00491000EB8101E8
:10A9900041F64860B9F1000F09584FF0FF3032D04E
:10A9A000B9F1010F08BFC8B205D0B9F1020F04BF59
:10A9B0000846F7F78FFE2BF815006D1C641C454503
:10A9C000B8BF262CCCDB761C022EAFDB049815E03A
:10A9D00020E000007C8500108CC80010038500106A
:10A9E0000485001060860010B09D0030189D003076
:10A9F00074C900100685001000800030002818BFC0
:10AA0000F7F7FEFA57E711F4803FC1F3072018BFAC
:10AA10004042D0E7A07A80F00100A072257359E788
:10AA200070B50D466E490122CA706E4A4978167893
:10AA30006D4A212914781EBF2229232970BD0028C0
:10AA400018BF002D11D0002322463146FFF752FCDB
:10AA5000631C012221462846FFF74CFC05EB44000D
:10AA6000A31C01223146FFF745FCBDE8704000F011
:10AA700058B870B55A4D0446687868B9E06858B15E
:10AA80005A490978012994BF574959490B785949BE
:10AA90000122097800F05FF8E87A112804BF00204D
:10AAA000FFF7E4FEE87A122804BF0020FFF7DEFE7D
:10AAB000E87A132804BF0020FFF7D8FE6878002842
:10AAC00004BFA068FFF7A5FC6878112804BF002028
:10AAD000FFF79FFC6878122804BF0020FFF799FC5D
:10AAE0006878132804BF0020FFF793FC206920B189
:10AAF000A979002908BFFFF79AFDA879112804BF9A
:10AB00000020FFF794FDA879122804BF0020FFF76A
:10AB10008EFDA879132818BF70BD0020BDE87040D5
:10AB200085E570B5F8F784FC00F008060820F8F712
:10AB30007AFC2B4C20790025002801BF207880F07A
:10AB400001002070A5701CBF0120A0703046F8F7EE
:10AB500065FCE57070BD2DE9F047994616460D4637
:10AB60000446F7F798FA5FEA000C1CD01C490878F5
:10AB700040F2DB125043204AD1F8108002EB8000F3
:10AB800009FB08F200EB4200454594BF2F464746BB
:10AB90004969A1EB0901B14238BF0E460021002EE0
:10ABA00009D8BDE8F0874B46324629462046BDE825
:10ABB000F047FFF79FBB0023002F08D91CF90320A3
:10ABC00034F8122020F813205B1C9F42F6D8491C51
:10ABD00000EB480004EB4504B142ECD3BDE8F0873C
:10ABE0007C850010FE840010FF840010008500109A
:10ABF0000285001005850010B4B9001058490028DE
:10AC000014BF0020012008707047554800780028C4
:10AC10000CBF0120002070475148017829B14FF046
:10AC200040214A6942F001024A610021416081608D
:10AC3000C160016170474A48017829B14FF0402155
:10AC40004A6942F001024A61002141608160C160AD
:10AC50000161704770B50446F8F7EAFB00F008059B
:10AC60000820F8F7E0FB3E4A3E490023D06801EB9C
:10AC7000C001401CD060B0F5807F28BFD360207831
:10AC8000087060784870A0788870E078C870207983
:10AC9000087160794871A0798871E079C87110698C
:10ACA000B0F5807F3CBF401C106116D31D2008709A
:10ACB00001204870207888706078C870A07808718A
:10ACC000E0784871207988716079C8719068401C7B
:10ACD0009060B0F5807F28BF9360506840F001001D
:10ACE0005060107828B14FF04020416921F00101F7
:10ACF00041612846F8F792FB012070BD00B501784C
:10AD0000427883B0890141EA82018DF800104188C0
:10AD100009098DF80110818809098DF802108178E0
:10AD200001F00F02017962F31F118DF80310017A0F
:10AD30008DF80410417A8DF805108179C27901F0FF
:10AD40003F0102F00C0241EA02118DF80610C079B1
:10AD500080018DF807006846FFF77CFF03B000BD57
:10AD60009C85001084C90010194A002112684FF018
:10AD7000402312F0804F26D0164AD2F800C05FEA76
:10AD80001C4C04D011686FF30F0141F00101D2F89F
:10AD900000C01CF47F4F0CD011684FF0020C01F47E
:10ADA0007F414CEA0121DFF830C0DCF800C0C3F875
:10ADB00074C0D2F800C01CF0FF0F04D01168032249
:10ADC000C9B242EA014199678069D867FEE700008D
:10ADD0002CED00E028ED00E038ED00E070B50E4607
:10ADE0000446FAF7AFFC042811D1A4F59C70502852
:10ADF0000DD2A019A0F23910502808D26502002403
:10AE0000002E04D92846F7F70FFF012801D00020B3
:10AE100070BD641C05F50075B442F3D3012070BD0C
:10AE200070B50D460446FAF78DFC04280AD1A4F546
:10AE30009C70502806D260022946F7F797FF012838
:10AE400008BF70BD002070BD10B5074CFEF716FF9F
:10AE5000012808BF10BD206801F0FAF9002818BFCA
:10AE6000FAF7C8FCF2E7000060860010FE4A0028EE
:10AE7000516814BF41F0010021F00100506070479B
:10AE8000F94B59680A0E120721F07F4142EA00602F
:10AE9000084358607047F4484068C0F30360704747
:10AEA000F1484068000F7047EF4880687047EE48EF
:10AEB00080697047EC49012088617047EA490020A9
:10AEC00088617047E84840697047E7490120486158
:10AED0007047E5490020486170472DE9F041AEB068
:10AEE00000270EF058FE0646A02102A811F049FEE8
:10AEF000002425464FF00308305D10F0800F18D075
:10AF0000601C8DF8A9008DF8AF508DF8A880ADF8C1
:10AF1000AC508DF8B050ADF8AA508DF8AE508DF809
:10AF2000B1508DF8B450355501272AA902A8F5F77C
:10AF3000E3FA601CC4B20A2CDED3012F06D1102321
:10AF400002AA0621012000950FF058FD0EF031FCF9
:10AF50002EB0BDE8F0812DE9F04FDFF8109387B0F7
:10AF6000D9F80000B0F90E11B0F90C0111F063FE30
:10AF7000F5F78AFB0120F9F719FC0020F7F74DF8E7
:10AF80000EF0E8FD042000F04DF9F9F70DFC0BF090
:10AF900016F8002818BF0AF0D2FBFAF7D3FB0528F1
:10AFA0005ED1DFF8C4824FF0000A4FF0402BD8F892
:10AFB0000400C8F808A0C8F80CA0C0F30365C8F8DE
:10AFC00010A0D9F80000A900D0F8F80020FA01F18B
:10AFD00001F00F04C0F30327C0F30336BC420FD1C6
:10AFE0000F2E0DD004F047FA20B10AF0B3FF082865
:10AFF00018BF3446D8F81C00A04218BFC8F81C403F
:10B000004FF48056BC4205D104F028FA002808BF4E
:10B010004FF400663046FAF7E0FC2946052003F0BD
:10B0200011FD002D7ED0022D30D0042D7BD0D8F81C
:10B0300004000A2D4FEA106120F07F404FEA0171B1
:10B0400018BF41F000710843C8F80400FEF716FE6F
:10B05000012805D00EF0ADFBFAF774FB0528A6D049
:10B06000F9F7A3FB0EF07BFD4FF48050FAF7B5FC27
:10B07000FAF768FB022818BF00207CD0F5F780FBA8
:10B0800007B00020BDE8F04FF5F7E3BB25460D24DF
:10B090000AF0F0FE002818BF0C2421462846FAF7D3
:10B0A000ACFC0028D2D011F0F8FD11F0FBFDF9F74F
:10B0B00027FB040070D1F6F789F96D48F6F797FD84
:10B0C0000120F6F789FDF8F7D5F96A48F8F787FA0D
:10B0D000F8F76EFAF8F797FA4100D9F80000B0F8DF
:10B0E0000621B1FBF2F1491CC1F34F01A8F802108F
:10B0F00090F8080188F8000058B1F8F784FAD9F8F8
:10B1000000104000B1F80411B0FBF1F0401CC0F396
:10B110004F010846F8F7E8F95748CBF81800F6F75A
:10B12000E0FD01E05EE061E0F6F72EFF98F8000038
:10B1300048B1401E10F0FF0088F8000004BFB8F8C6
:10B140000200F8F7D1F9D8F80400C0F303652946E6
:10B150000520F5F7CCF8FEF791FD012807D0D8F8C7
:10B160000400C0F30360A84208BF002C1BD0434872
:10B17000CBF8180000E03DE0F8F7EEF9F8F723FA15
:10B180000020F8F72CFAF8F77EF9F6F7AAFDF6F7A3
:10B19000E7FC0020F6F72BFD11F084FD11F087FD90
:10B1A000FAF7A4FD52E76846F7F7F0F870B1684681
:10B1B000FFF75FFC0198F8F7EEFD684611F07CFDA3
:10B1C0000446F7F740F9FAF736FBC4E7D9F8000070
:10B1D000406E10F0704F02D0FAF70CFBBBE7FAF7A5
:10B1E00031FBB8E7204611F06CFD2FE7204604F054
:10B1F00072FB2BE70120FBF768FEF5F718FB10B98F
:10B20000F5F70FFB38B10020F5F717FB0020F5F735
:10B2100011FB012032E70120F5F70FFB0020F5F7C5
:10B22000AFFA2DE770B5114980000968D1F8F81020
:10B2300021FA00F000F00F04C1F30326C1F3033537
:10B24000B4420ED10F2D0CD004F015F920B10AF044
:10B2500081FE082818BF2C460348C169A14218BFC7
:10B26000C4614FF480550BE0B0850010608600107B
:10B2700067430010913C001007005FA000005FA032
:10B28000B44205D104F0EAF8002808BF4FF4006585
:10B290002846FAF7A2FB204670BD00007047002840
:10B2A00008BF704780220146014811F065BC704715
:10B2B00084D10010704708283CBFFE4908707047D1
:10B2C0000020FC4988604860FB48006890F88100D5
:10B2D000082838BF087070470020F649486070475A
:10B2E000F4480078704770B5F34D0024286890F852
:10B2F0006C0010F0020F0BD0FAF724FA022807D1E5
:10B30000EC482968007801EB8000B0F8840084B232
:10B31000204670BD70B5E84D4FF48054286890F811
:10B320006C0010F0020F0DD0FAF70CFA022809D1C8
:10B33000E0482968007801EB8000D0F88400000C18
:10B34000C0F31304204670BDDA488078002818BF87
:10B35000012070472DE9F041FAF7F4F9022803D1F2
:10B3600004F03BF8022803D04FF48050BDE8F08190
:10B370004FF480552E4604F04EF8DFF83C83044627
:10B38000CC4FD8F8000090F86C1011F0010F0CD0E1
:10B39000B0F87600B9684042814206DC2CB100204A
:10B3A000641EB860204604F039F8D8F8001091F80F
:10B3B0006C0010F0040F18BF002C0AD0B1F87C000C
:10B3C000621E9040B1F87E20824238BF1046C0F322
:10B3D0001306D1F8A40010F0020F1CBFB9780029A1
:10B3E00002D0000CC0F31305B54298BF354628467D
:10B3F000BDE8F0812DE9F04FDFF8BCA287B0DAF8A4
:10B40000001091F86C2012F0020F0DD0A94A91F8AB
:10B410008090DFF8A8B21778002809DB484503D2EE
:10B42000B84218BF064643D107B00020BDE8F08FF0
:10B430003E464FF0FF38F6F793FBF7F7B0F90025DB
:10B44000B9F1000F34D9DAF80000002400EB8500D0
:10B45000B0F8840081B22046F5F7D7FFF6F794FDE7
:10B460006846F6F793FF002866D0029878B1014647
:10B4700093489BF8002000785043421E07D331F9CF
:10B48000020B0028B8BF40420444521EF7D2F6F720
:10B49000DAFFF6F765FB002322469221072003F02E
:10B4A00043FAA04584BF2E46A0466D1C4D45CAD325
:10B4B000B74244D0082E3CBF7E490E70DAF8000037
:10B4C000B0F8821039B300EB870200EB8600B2F8C7
:10B4D0008420B0F8840092B280B2801A484340F3CE
:10B4E0000F34F8F7CDFC774B9BF80020002193F840
:10B4F00000C002FB0CF2002A0DD930F811202244C2
:10B5000020F811209BF8002093F800C0491C02FB92
:10B510000CF28A42F1D84FF4800004F088F8DAF88F
:10B520000000002300EB86008021B0F8840082B286
:10B53000072003F0F9F909E0FAF75CF990E703F066
:10B540006AFF03283CBF401C03F068FF012007B0DE
:10B55000BDE8F08F584857490068B0F8760042427D
:10B5600088688242BCBF401E886070472DE9F04F5A
:10B5700093B093460E4604464FF0000A03F04BFF8B
:10B58000DFF834814B4F0500D14610D111F09EFBFE
:10B59000D8F80010B1F87810884208D30120C7F815
:10B5A000089003F03BFF13B00120BDE8F08F002EA0
:10B5B0001FDDB8680028B8BFC7F8089007DBD8F8C7
:10B5C0000010B1F874108842BCBF401CB860D8F8B5
:10B5D0000000B968B0F87400884215DC032D13D25E
:10B5E000681CC7F8089003F019FF13B00120BDE8EC
:10B5F000F08F09D1D8F80000B0F876004142B86861
:10B600008842C4BF401EB860B87850B1D8F8000076
:10B6100090F8A40010F0040F1EBF002013B0BDE886
:10B62000F08FD8F80000B0F972108C420EDD796806
:10B6300021447960B0F86E00884210DC4FF0FF3092
:10B64000C7F80490FFF7D6FE824608E07868002825
:10B6500005DD002CD4BF01212146401A7860DFF8B7
:10B66000689099F8000007283BD11848594600789F
:10B670004200684611F08FFAADF80040ADF8026064
:10B68000ADF804503889ADF80600B888ADF8080068
:10B69000D8F80000B0F87210ADF80A10B0F87410C5
:10B6A000ADF80C10B0F86E10ADF80E10B0F87600D2
:10B6B0000EE000004486001060860010FE8400103A
:10B6C00002850010FF8400107D85001005850010A4
:10B6D000ADF8100099F80000072804BF6846FEF78F
:10B6E0007CFE504613B0BDE8F08F3E4810B50068B0
:10B6F000D0F8A40010F4807F06D0C0F303300121FD
:10B7000001FA00F0F7F701FC374900204870887013
:10B7100010BD70B5344D0024A878002814BF012650
:10B720000026687828B903F085FE002808BF0021AC
:10B7300000D001218E4225D00A1C18BF0122AA7018
:10B7400028480068D0F8A43013F0040F0ED021B1BF
:10B75000C3F30310082808D206E00021A96069603D
:10B7600090F88100082800D22870012413F0020FFD
:10B7700018BF0124002A18BF0122002382210720BC
:10B7800003F0D2F8204670BD164900200968D1F8B0
:10B79000A41011F4807F08BF7047DFF84CC09CF8FC
:10B7A0000120131C18BF012330B4104CC1F3033225
:10B7B000E46B012505FA02F2224011F4007F01D06A
:10B7C0000AB102E00AB1002100E001218B4204BF6E
:10B7D00030BC7047081C18BF01208CF8010030BC39
:10B7E00097E70000608600104486001000100040BB
:10B7F000FE480078704710F5967FA8BF704701207B
:10B80000FA4908707047F94900200870704770477E
:10B8100070474FF43E71F64811F05DBA10B4002342
:10B82000044640F6FF70138000299CBF10BC70478F
:10B8300034F913C08445BCBF604613805B1CDBB287
:10B840008B42F5D310BC70472DE9F007E94A00237D
:10B850001268B2F91290B2F91080B9F1000FCEBFA0
:10B860004FF0000ABDE8F007704703FB08F201EB58
:10B87000830500EB420718F0FF0640F6FF7C25F831
:10B8800002AF4FF0000209D037F912406445BCBF47
:10B89000A4462A80521CD2B2B242F5D321F823C06A
:10B8A0005A1C13B24B45E0DBBDE8F007704700239C
:10B8B0001A46002906DD30F912C0521C12B2634448
:10B8C0009142F8DC93FBF1F000B270472DE9F043B0
:10B8D0008046C848ADF2F45D00270068867C047C91
:10B8E000700000FB04F94946684611F04AF900204F
:10B8F000002E84BF0022694616D90023002C0FD9E0
:10B9000004FB003C38F81C50ED1B2DB221F81C50F4
:10B910001E2DD8BF21F81C205B1CDBB2A342EFD345
:10B92000401CC0B2B042E8D34A466946404611F0D6
:10B9300032F90DF2F45DBDE8F0832DE9F007AD4B6F
:10B9400000276FF031091B68BC46B3F91280B3F9C8
:10B950001060B8F1000F28DD0023002E18DD0CFB6D
:10B96000063430F9145005F10A0ABAF1140F0BD954
:10B9700031F81CA0554421F81C5032F8135030F80F
:10B9800014402C4422F813405B1C1BB2B342E6DB8C
:10B9900031F91C30994502DD002F08BF01270CF159
:10B9A00001030FFA83FCC445D6DB3846BDE8F00737
:10B9B00070472DE9FF4F9BB0002117910E4614915F
:10B9C0006FF0310119918B49CDF860D00A270968D1
:10B9D0004FF0000942F21078B1F910C0CDF854C010
:10B9E000B1F91210CC461691002925DD15990CFBF2
:10B9F00001F411F0FF0B189900EB440E01EB8C0AD7
:10BA00004FF0000140F6FF742AF8021F0AD03EF9F9
:10BA10001150A542BCBF2C46AAF80010491CC9B25F
:10BA20005945F4D3189921F82C400CF101010FFA73
:10BA300081FC16998C45D9DB4FF0000C002AC4BF5D
:10BA400007FB03F1159175DD1C9931F91C5019990B
:10BA5000A94228DB3DF92C10EA4600295EDA0124D0
:10BA600017940024002AC4BF0AEB8C0ABAF902E03A
:10BA700010DD04FB03EA002930F91AB0B4BFC1F1AC
:10BA8000000A8A46D345C4BF41458846641C24B297
:10BA90009442EEDB002DB8BF6D422E441499491C30
:10BAA000C9B214913AE015998D4237DD0121169102
:10BAB0000CFB03F1002400EB410A2146002B06DDBC
:10BAC0003AF911B0491C09B25C448B42F8DC94FB92
:10BAD000F3F14FF0000A0FFA81FE5446002B14DDFB
:10BAE0000CFB034130F911108F4217DA0029ACBF6B
:10BAF0008B46C1F1000BABEB0E0BBBEB470FC8BF86
:10BB00008A44611C0CB29C42EADB169931B1A5EB68
:10BB10000A0189441499491CC9B214911799012941
:10BB200004BF4E444FF000090CF101010FFA81FCF3
:10BB3000944589DB2898066014981FB0BDE8F08F03
:10BB40002DE9F00100250A242B46002AC4BF6642D5
:10BB50008F1E2BDD4FF0000C6146002F22DD01FB14
:10BB6000023830F91880A04513DD01F1010808FB07
:10BB7000023830F9188046450BDD01F1020808FB58
:10BB8000023830F91880A045C4BF0CF1010C0FFA3F
:10BB90008CFC491C09B2B942E1DBBCF1020FA4BF25
:10BBA000691CCDB2591C0BB29A42D3DC2846BDE8C1
:10BBB000F00170472DE9F04F95B04FF0000C63464F
:10BBC000CDF82CC0002A40F32B814C1E0A948C1E09
:10BBD00000260A9D3146002DC4BF4FF00009EA46F9
:10BBE00040F3148101F1010806E0000050860010C6
:10BBF000DC1601106086001008FB023530F9157064
:10BC0000002FB8BF7F4201FB023530F91550002DDF
:10BC1000B4BFC5F1000BAB46A7EB0B073FB22AF848
:10BC200011700937122F98BF2AF81190002DB8BF54
:10BC30006D42A5F115011D293CBF711C0EB20FFA12
:10BC400088F10A9DA942CDDB022EC4BF0021002C41
:10BC500073DDBDF900501395BDF902501295BDF981
:10BC600004501195BDF906501095002505FB0235CD
:10BC70000F95012505FB02350E95022505FB0235C2
:10BC80000D95032505FB02350C950C2505FB0236A9
:10BC90000D254FF00E0BBDF91890BDF91A80BDF9B6
:10BCA000167005FB02350BFB023BDDF84CA0BAF128
:10BCB000000F01BFDDF848A0BAF1000FDDF844A085
:10BCC000BAF1000F7DD10AE00029EED00C2935D061
:10BCD0003DF811E0EA46BEF1000F72D14FE0DDF809
:10BCE00040A0BAF1000F6CD0DDF83CA030F91AA0EA
:10BCF0000AF1140ABAF1280F63D9DDF838A030F937
:10BD00001AA00AF1140ABAF1280F7AD9DDF834A082
:10BD100030F91AA00AF1140ABAF1280F71D9DDF826
:10BD200030A030F91AA00AF1140ABAF1280F68D924
:10BD30000CF1010C0CF0FF0C63E067E0B9F1000FAF
:10BD400008BFB8F1000F5CD1DFB330F916A00AF1DB
:10BD5000140ABAF1280F54D930F915A00AF1140ABF
:10BD6000BAF1280F4DD930F91BA00AF1140ABAF123
:10BD7000280F46D90CF1010101F0FF0C46E00AEB57
:10BD8000410ABAF802E0BEF1000F04BFBAF804E0BD
:10BD9000BEF1000F35D13AF802ECBEF1000F1CBF26
:10BDA000BAF806A0BAF1000F2BD001FB023A30F925
:10BDB0001AA00AF1140ABAF1280F22D901F1010AD6
:10BDC00000E01EE00AFB023A30F91AA00AF1140A58
:10BDD000BAF1280F15D901F1020A0AFB023A30F92B
:10BDE0001AA00AF1140ABAF1280F0AD901F1030ABC
:10BDF0000AFB023A30F91AA00AF1140ABAF1280F24
:10BE000096D8091D09B2A142FFF65EAF591C0BB2CC
:10BE10009342FFF6DDAEBCF1000F1CBF01200B907A
:10BE20000B9815B0BDE8F08F2DE9F04F054681481D
:10BE300083B00068B0F91040B0F912800020019082
:10BE400001A80090234642462846FFF7B2FD00268F
:10BE50000A210746B446002CC4BFC1F10009A8F16D
:10BE6000020329DD00200246002B1FDD02FB04CA6D
:10BE700035F91AA08A4511DD02F1010A0AFB04CA4C
:10BE800035F91AA0D14509DD02F1020A0AFB04CAFC
:10BE900035F91AA08A45C4BF401C00B2521C12B228
:10BEA0009A42E3DB0228A4BF701CC6B20CF1010069
:10BEB0000FFA80FC6445D5DC224641462846FFF750
:10BEC00079FE01460198B0F57A7F0ADD012F04D88A
:10BED00004EBD472B6EB620F03DD03B00320BDE8C0
:10BEE000F08F012905D1042F9EBF052003B0BDE8C6
:10BEF000F08F002818BF022003B0BDE8F08F2DE9B5
:10BF0000F0034C494FF01E0C09684A8A098A02FB6B
:10BF100001F400221146002C2AD9474E0127CCF10A
:10BF200000054FF0FF38914630F911309C4508DA92
:10BF30007356002BA8BF5B1C0ADA521CD2B277548E
:10BF40000CE09D42735617DD002BD8BF5B1E01DC51
:10BF5000735403E0521CD2B206F80180491C89B226
:10BF6000A142E1D3002A1EBF0220BDE8F0037047C2
:10BF70000020BDE8F0037047012B12BFB3F1FF3F73
:10BF8000521CD2B206F80190E8E730B59FB0002409
:10BF900005461494159416941794189419941A94A9
:10BFA0001B941C944C2168461D9410F0EAFD6A46CF
:10BFB00014A92846FFF7C1FC012805D16A4614A937
:10BFC0002846FFF731FF04462846FFF798FF002C6C
:10BFD00008BF044620461FB030BD30B59FB00024D6
:10BFE00005461494159416941794189419941A9459
:10BFF0001B941C944C2168461D9410F0C2FD6A46A7
:10C0000014A92846FFF799FC012805D16A4614A90E
:10C010002846FFF709FF04462846FFF770FF002C6B
:10C0200008BF0446032C04BF2846FFF74FFC2046F8
:10C030001FB030BD60860010DC160110704800781B
:10C0400070476F48406800F5407070476C48406822
:10C0500000F58070704770B5694C4FF41C32694927
:10C0600062601068884204BF5068B0F5087F26D12E
:10C07000D2F808C0BCF5064F21D86349D068884281
:10C080000DD0002311461846B3EB9C0F07D251F890
:10C09000045B401C6B40B0EB9C0FF8D37BB90125CF
:10C0A00002F5807000F0D4F848B1606800F5407087
:10C0B00000F0DDF800281EBF2570012070BD0020B3
:10C0C00070BD4F49002008704FF41C30F6F7ACBD2E
:10C0D0004B48017841B140684A4A0168914202BF29
:10C0E0004168B1F5087F704700207047444B5B689A
:10C0F00003F580731844F6F78DBE414B5B6803F57A
:10C1000040731844F6F786BE3D48406800697047A2
:10C110003B4949680A6982429CBF00207047C0EBD6
:10C12000C00001EBC00000F580607047344A5268DF
:10C1300002EB80035B6A1A44344B53F820C040334F
:10C1400033F810000CEB0003401E5B1E23EA0000D6
:10C1500000FB012070472A498860704728488068A2
:10C1600070472DE9F00F264B0022DFF8A080D3E9BD
:10C170000145012708F140069146831893F928C02C
:10C18000BCF1000F18DB07FA02F32B4214D0D3B234
:10C1900004EB830A58F823B036F81330DAF824A0F9
:10C1A0009B445B1EABF1010BA2442BEA030303FB90
:10C1B0000CA341F8223001E041F82290521C102AD1
:10C1C000DBD3BDE8F00F70470029B8BF704730B42B
:10C1D00094460B4A0E4C526802EB80035B6A134490
:10C1E0000A4A52F8202034F810001418401E641E29
:10C1F00024EA000001FB003030BC6146F6F70ABEBD
:10C200005486001054465053EFBEADDE18050200B0
:10C210005805020010B5FFF71EFFA8B1FFF711FF88
:10C220000146D022174810F0A7FCFFF70FFF164C6D
:10C2300001464FF4E272206810F09EFC2068406DC9
:10C24000BDE8104003F06DB80220F9F73FFBE2E7CC
:10C2500058B10E4A0168914207D1406820F00F00A2
:10C26000B0F5107F04BF012070470020704730B147
:10C27000006820F00F00602804BF012070470020F4
:10C2800070470000D41901106086001041505352CD
:10C29000B44810B5806810F0020F15D0F5F75EFCB9
:10C2A00090B1F5F71EFC0402F9F74CFA44EA004499
:10C2B000F9F74EFA44EA00604EF2AF0108434FF03E
:10C2C0004021C867012010BD002010BD10B572B616
:10C2D0000120F6F7ADFBF7F751FAF7F77BFA4FF0CD
:10C2E000FF30F7F7A0F8A04880234FF40052002158
:10C2F00052F821C040F821C0491CB1EB930FF7D38D
:10C30000F7F7A3F8F7F7BEFCF7F7E0FC9748F7F765
:10C31000F9FC0120F7F7B7FCF6F71EFC1E20F7F733
:10C32000A7FCF7F773FAF6F7FBFDF7F763FCF7F7EF
:10C33000B3FAF7F79BF8F6F76BFEF5F724FCFFF777
:10C3400069FFF7F71AF8F6F7E5FFFDF7F9FBFAF7DB
:10C3500081FEFEF770FC62B6F9F745FB844C20685D
:10C3600090F8640000F00F00F6F788FA2068018B5F
:10C37000C1F30722418A008AFDF769FF2068806EB9
:10C38000000C02F0CEFA7B480DF0F1F92068B0F90C
:10C390000C010DF0DDFBF3F78EFFFEF78BFFF7F7D7
:10C3A000CDFCF9F733FDFEF779FF10F099FC20681A
:10C3B00090F8200010F0010F04BF0021032003D0EB
:10C3C00003F011F801460220F9F7D1F94FF04024AB
:10C3D0002069002300F070021946022002F0A4FA3E
:10C3E000206910F0200F17D0226F002305210720AD
:10C3F00002F09AFA626F00230521072002F094FAF6
:10C40000A26F00230521072002F08EFAE26F0023BD
:10C410000521072002F088FAFFF767F9002020675E
:10C4200010BD0225544CFDF729FC012806D0F9F770
:10C4300089F9032802D102F032FB48B3002C05DC55
:10C4400002F0D1FF01460220F9F791F9DFF83091AF
:10C450004FF00108494F4FF04026A9F1030AF9F7C0
:10C4600071F90446F9F774F90146204602F0EAFA38
:10C47000F9F76EF901462046F3F739FFFDF79CFB0B
:10C48000072C6BD2DFE804F06A1D08272A192D005B
:10C49000641E002CC7DCD3E7387850B9FAF7BBFC30
:10C4A00038B900231A462021072002F03DFA87F808
:10C4B000008003F0C4FC0225D1E7FEF74CFD052502
:10C4C000CDE7FAF70EFCF9F73DF9012804BF28463D
:10C4D000F9F74AF9C3E702F087FEC0E7FEF7B4FCBC
:10C4E000BDE70024C6F81890FDF7C8FB012806D167
:10C4F000F9F728F9062802D0C6F818A0AFE7F9F72F
:10C5000024F940B3002C04DCF9F78AF943F22054F3
:10C51000EAE7641E00BF00BF00BF00BF00BF00BF4E
:10C5200000BF00BF00BF00BF00BF00BF00BF00BF13
:10C5300000BF00BF00BF00BF00BF00BF00BF00BF03
:10C5400000BF00BF00BF00BF00BF00BF00BF00BFF3
:10C5500000BF00BFC8E7F9F74DF9C5E70220F9F7BA
:10C56000B5F97CE700800040001D011041E20000A9
:10C5700060860010D4190110FF700200648600105C
:10C5800003005FA0FE4908607047FD49486070479E
:10C59000FB4810B44068002808BF4FF44030F94A07
:10C5A000016891421CD14168B1F5007F18D38368BE
:10C5B00000228446B3F5056F88BF4FF40563002160
:10C5C000B1EB930F24BF10BC70475CF82140491CAD
:10C5D0002244B1EB930FF8D3002A04BF10BC70477C
:10C5E000002010BC704770B50022C260D0F808C0AF
:10C5F000012113460446BCF5056F88BF4FF4056C56
:10C600000022B2EB9C0F06D254F82250521C2B444D
:10C61000B2EB9C0FF8D35A42C260D94A127812F09A
:10C62000800F07D14FF440304FF405622146F6F7F2
:10C63000F1FB014601290CBF0120002070BDFF2243
:10C6400070B50025044605614FF40061503010F0CC
:10C65000C0FAA584E584E562A56265632563E563A8
:10C66000A56365642564E5640120A56470BD2DE9BA
:10C67000F0414FF440310446C24E0868B04218D130
:10C680004868B0F5007F14D38A6800230D46B2F5E0
:10C69000056F94BF94464FF4056C0020B0EB9C0FDF
:10C6A00026D255F82070401C3B44B0EB9C0FF8D3C9
:10C6B000F3B1FF224FF40561204610F08AFA4FF4DF
:10C6C0000870C4E900604FF40560A0600020E060DD
:10C6D00084F8200084F8210084F8220084F82300E4
:10C6E00020616061A061E0612046FFF7A8FF07E0DC
:10C6F000B2F5056F88BF4FF40562204610F03CFA92
:10C700000120BDE8F08170B402684FF408715160F7
:10C71000016801F1500291F821C091F820300CFB22
:10C7200003F102EB41010022BCF1000F08D900EB3C
:10C730004204521CB4F8EA4021F8024B9445F6D862
:10C740000022002B08D900EB4204521CB4F812411D
:10C7500021F8024B9342F6D80468002294F8224054
:10C76000002C0BD900EB4204521CB4F8BE4321F854
:10C77000024B046894F822409442F3D804680022E3
:10C7800094F82340002C0BD900EB4204521CB4F85F
:10C79000CE4321F8024B046894F823409442F3D826
:10C7A0000022BCF1000F08D900EB4204521CB4F87F
:10C7B000704021F8024B9445F6D80022002B08D98E
:10C7C00000EB4204521CB4F8984021F8024B93420B
:10C7D000F6D8B0F8E62021F8022BB0F8E82021F8CE
:10C7E000022BB0F8E42021F8022B00240022BCF137
:10C7F000000F0ED904EB440505EB041500EB85058D
:10C8000005EB4206521CB6F85E6121F8026B6245E8
:10C81000F6D30022002B0ED904EB440505EB0415DA
:10C8200000EB850505EB4206521CB6F88E6221F836
:10C83000026B9A42F6D3641C042CD7D30023D0F8A1
:10C8400000C000229CF822C0BCF1000F88BF00EBA2
:10C85000031C0BD90CEB4204521CB4F8DE4321F844
:10C86000024B046894F822409442F3D8D0F800C0F8
:10C8700000229CF823C0BCF1000F88BF00EB031C12
:10C880000BD90CEB4204521CB4F8FE4321F8024BC6
:10C89000046894F823409442F3D85B1C022BCED357
:10C8A00070BC70472DE9F74F88B000250A992C46D7
:10C8B0002E460968049101F150030999002984BFAB
:10C8C0003149D1F800801CD90022002888BFB8F96E
:10C8D000CE700DD933F9021B0029B4BFC1F1000C91
:10C8E0008C46BC45BCBF0D44641C521C8242F1D333
:10C8F0000999761C8E42E7D3002CC8BF95FBF4FA49
:10C9000008DC4908414301EB5002049901EB420164
:10C91000B1F950A000210291019104995031009188
:10C92000002103910999002975D91749009E06969F
:10C9300009684FF0000B4FF00109B1F9C0E0D1F8E0
:10C94000B4105F46C1F30741D846CDF814B0079143
:10C95000002830D9B6F900204FF0000C0699934416
:10C960006346002814D9B1F90040A51A48BF151B29
:10C970007545B8BF0CF1010C01EB49015B1C05E0EA
:10C980006886001053454C46608600108342EAD307
:10C9900007998C4503D305997F1C1144059108F133
:10C9A000010806EB49068045D4D3002FC4BF059982
:10C9B00091FBF7F101DC9BFBF0F1039B0A9A09B2B2
:10C9C00002EB4302A2F87010FE4A1268B2F9BA30C4
:10C9D000AAEB030399420ADDB2F9B82052448A4215
:10C9E00005DD019A114401910299491C02910099B7
:10C9F000099A01EB400100910399491C039191426E
:10CA000093D30299002906DDDDE9011291FBF2F1D1
:10CA1000019103E0FFE75146CDF804A00A9AA2F87D
:10CA2000E6100021029103910499503100910021F8
:10CA30000491002868D9E349009F069709684FF0E0
:10CA4000000B099EB1F9BCE0D1F8B410D846090E2C
:10CA5000D946CDF814B00791002E2BD9B7F9002094
:10CA60004FF0000C069993446346002E0DD9B1F99E
:10CA70000040A51A48BF151B7545B8BF0CF1010C45
:10CA800001EB40015B1CB342F1D307998C4504D301
:10CA9000059908F101081144059109F1010907EB15
:10CAA0004007B145DAD3B8F1000FC4BF059991FB37
:10CAB000F8F101DC9BFBF6F1049B0A9A09B202EB48
:10CAC0004302A2F89810BF4A1268B2F9BA30AAEB32
:10CAD000030399420ADDB2F9B82052448A4205DDC7
:10CAE000039A114403910299491C02910099891CEF
:10CAF00000910499491C049181429CD3029800281A
:10CB0000C4BF039991FBF0FA0A98A0F8E8A0019835
:10CB10000A99504400B200EBD0704010A1F8E40034
:10CB20000BB0BDE8F08F2DE9F04F146889B01546C1
:10CB30000E460746A1F12008202928BF4FF0FF3AF2
:10CB400005D24FF0010000FA06F0A0F1010A38BF4B
:10CB50004FF0000B05D34FF0010000FA08F0A0F1F0
:10CB6000010B202F3DBF0120B840401E4FF0FF3089
:10CB700038BF002207D3A7F120024FF0010101FACC
:10CB800002F1A1F10102C6F12009202E34BF20FAE2
:10CB900009F100FA08F1B2401143B040CDE90001BB
:10CBA000206920F4FE6020618748007810F0010FB2
:10CBB0007ED02A463146384601F077FC0020A86135
:10CBC0006861002F84BFDFF8FCE101221BD905EB6F
:10CBD0004001B1F998100029B8BF494209B2DEF806
:10CBE0000030B3F9CC308B420ADD410905EB8101FD
:10CBF00000F01F0C4B6902FA0CFC43EA0C034B617A
:10CC0000401CB842E3D30020012F18BFA7F1010E4A
:10CC10003BD005EB4001B1F99A30B1F99820991A4F
:10CC200048BFD11A09B2DFF89CC1DCF800C0BCF9DA
:10CC3000C4C08C4526DAB5F9E810B2EB010C48BF48
:10CC4000A1EB020C0FFA8CFC5A1A48BFCA1A11B297
:10CC50008C450BDB420905EB820100F01F0C012221
:10CC60004B6902FA0CF21A434A610BE0411C4B0972
:10CC700005EB830201F01F0C0121536901FA0CF14D
:10CC800019435161401C7045C3D36969E869B140DB
:10CC900008432063A969286AB14001436163686958
:10CCA000202E34BF20FA09F000FA08F0084300E013
:10CCB00000E0606344480068079010F0040F00F043
:10CCC000BC8100202863E862002E88BFDFF8F4E012
:10CCD0001BD9DEF8002005EB4001B1F95E11B2F975
:10CCE000D8308B4203DCB2F9DA208A420ADA4209F0
:10CCF00005EB820100F01F0C0122CB6A02FA0CF254
:10CD00001A43CA62401CB042E3D30020A8626862A2
:10CD1000002F88BFDFF8ACE01BD9DEF8002005EB60
:10CD20004001B1F98E12B2F9D8308B4203DCB2F96E
:10CD3000DA208A420ADA420905EB820100F01F0C70
:10CD400001224B6A02FA0CF21A434A62401CB842B2
:10CD5000E3D300202864E863002E88BFDFF864E096
:10CD60001BD9DEF8002005EB4001B1F9AA11B2F998
:10CD7000DC308B4203DCB2F9DE208A420ADA420957
:10CD800005EB820100F01F0C0122CB6B02FA0CF2C2
:10CD90001A43CA63401CB042E3D30020A86368630F
:10CDA000002F88BFDFF81CE020D9DEF8002005EB5B
:10CDB0004001B1F9DA12B2F9DC308B4208DCB2F989
:10CDC000DE2003E060860010688600108A420ADADE
:10CDD000420905EB820100F01F0C01224B6B02FAA5
:10CDE0000CF21A434A63401CB842DED30020286587
:10CDF000E864A8646864002E88BFDFF844E71CD9A3
:10CE0000DEF8003005EB4001B1F9F611B3F9E0208E
:10CE10008A4203DCB3F9E2208A420BDA410905EBCE
:10CE2000810C00F01F030121DCF84C2099401143D4
:10CE3000CCF84C10401CB042E2D30020002F88BF39
:10CE4000DFF8FCE61BD9DEF8002005EB4001B1F964
:10CE50002613B2F9E0308B4203DCB2F9E2208A42B9
:10CE60000ADA420905EB820100F01F0C01224B6C2B
:10CE700002FA0CF21A434A64401CB842E3D3696ACE
:10CE8000E86AB14040EA010EC4F838E0A96A286BAC
:10CE9000B1400843E063696A202E34BF21FA09F1EA
:10CEA00001FA08F141EA0000E0630590696BE86B64
:10CEB00001FA06F140EA01022264A96B286C01FA2A
:10CEC00006F140EA01006064696B34BF21FA09F1A0
:10CED00001FA08F141EA000161646B6CE86C03FA45
:10CEE00006F340EA0300A0640490AB6C286D03FADB
:10CEF00006F340EA0300E0646B6C34BF23FA09F3E5
:10CF000003FA08F343EA0000E0640290059832EA6D
:10CF10000E0521EA000C4EEA05022564069240EA5D
:10CF20000C00C4F844C006EB0701039008BFBCF135
:10CF3000000F42D000231A461846002988BF012757
:10CF40003BD94FEA501804EB880800F01F09D8F8C5
:10CF5000408007FA09F918EA090F03D0864294BF06
:10CF6000521C5B1C401C8142EBD8012B0FD105EAFF
:10CF70000A0040EA0E00A06305980CEA0B03184370
:10CF8000E06325EA0A0020642CEA0B006064012AB1
:10CF900013D1226C0098A36B10401843A063606CFF
:10CFA000019BD4F83CC0034043EA0C03E363009BBD
:10CFB0009A432264019A90436064069A049830EA86
:10CFC0000202A264069840EA020CDDE9020320EAAC
:10CFD0000300E064039B43EA000508BF002821D05A
:10CFE00000231A461846002988BF012717D94FEA9F
:10CFF000501804EB880800F01F09D8F8488007FA99
:10D0000009F918EA090F03D0864294BF521C5B1C31
:10D01000401C8142EBD8002B18BF002A02D100200F
:10D02000A064E064079810F0010F06D0206B20EA9E
:10D030000C002063606BA8436063206B009908427A
:10D0400003D1626B01990A4203D0216941F01001BA
:10D05000216110EA0A0F04BF606B10EA0B0F03D0C6
:10D06000206940F020002061A06B0099084203D1A4
:10D07000E26B01990A4203D0216941F0400121612C
:10D0800010EA0A0F04BFE06B10EA0B0F03D020690F
:10D0900040F080002061206C0099084203D1626C4E
:10D0A00001990A4203D0216941F48071216110EA9B
:10D0B0000A0F04BF606C10EA0B0F03D0206940F424
:10D0C00000702061A06C002804BFE06C002803D031
:10D0D000206940F48060206109B00120BDE8F08F34
:10D0E0002DE9F04FBDB016460D460446F4F738FD65
:10D0F000F3F7FBFE01004FF011001DBF029001206D
:10D100000390012108BFCDE90210CDE93854F4F7AE
:10D11000BBFF0022002D88BF04A904D9835C8B5477
:10D12000521C9542FAD8F4F7B1FF0021002C88BFB9
:10D1300004AA07D9435C02EB010C491C8CF820308F
:10D140008C42F7D8F4F7D3FE3190FE48007810F007
:10D15000200F5DD0F3F7C9FEFB49FC4A00280CBF45
:10D16000CDE90021CDE9001206F1EA003A9028301D
:10D170000025EA460DF1E8090DF1E00B3B9002A80D
:10D180005BF8257050F82500F5F79EFA0024002F73
:10D1900084BF04A800EB451818D918F90400262804
:10D1A00028BF00200BD2C10700EBD070890C4010C3
:10D1B00001EB80005AF825104058F5F78BFA59F822
:10D1C000251021F81400641CBC42E6D36D1C022D0E
:10D1D000D5D3DF4804781D2C1AD100210A4614AD9E
:10D1E0005BF822300020002B88BF59F822C007D9F5
:10D1F0003CF8107025F81170401C491C8342F7D888
:10D20000521C022AECD31D2C04BF2846FDF70FFA4E
:10D21000CC4D287810F00C0F00F0D982F3F765FEA2
:10D22000CC49CD4A00280CBFCDE91421CDE9141218
:10D23000CA48F4F73EFD0120F4F7D7F82F900120FB
:10D24000F4F723F92D900120F4F7FEFB1D90022046
:10D25000F4F7FAFB1B900298F4F744F9289003982E
:10D26000F4F740F917900120F4F7D1F92E9011202E
:10D27000F4F7CDF929900120F4F70AFA2C90112047
:10D28000F4F706FA279024A8009022AB20AA1EA942
:10D290000298F4F720FB25A8009023AB21AA1FA930
:10D2A0000398F4F718FB0298F4F797FB269002987E
:10D2B000F4F793FBA24C01902068B0F8E410012031
:10D2C000F4F7A3F800210120F4F7A6FB00210220C7
:10D2D000F4F7A2FB206890F8E6100298F4F714F92E
:10D2E000206890F8E6100398F4F70EF90021012069
:10D2F000F4F7A6F900211120F4F7A2F9002101208A
:10D30000F4F7DFF900211120F4F7DBF92068B0F819
:10D31000E8100298F4F70FFB2068B0F8E8100398C3
:10D32000F4F709FB00210120F4F7A8FB2B908548B6
:10D33000007810F0040F00F049812068B0F8EC107C
:10D34000009190F8EB3090F8EA200B210298F4F766
:10D3500094FA2068B0F8EC10009190F8EB3090F857
:10D36000EA200B210398F4F788FA00210120F4F752
:10D3700085FB32A801F084F83699002238AD0020F0
:10D3800055F822C0BCF1000F0ED902EB420303EBAB
:10D39000021306EB031331F8027B03EB4008401C39
:10D3A000A8F85E718445F6D8521C022AE7D3029889
:10D3B000F3F7C7FA1C900398F3F7C3FA1A90002109
:10D3C0000298F4F712F9189001210298F4F70DF978
:10D3D000169000210398F4F708F92A900121039888
:10D3E000F4F703F9564C19902068B0F8EE1000914C
:10D3F00090F8EB3090F8EA200B210298F4F73DFA10
:10D400002068B0F8EE10009190F8EB3090F8EA2028
:10D410000B210398F4F731FA00240DF1080B0021D9
:10D420000120F4F72BFB00210298F3F772FA002198
:10D430000398F3F76EFA5BF824000121F3F769FA19
:10D4400038A8002550F8249014A8B9F1000F50F81E
:10D450002400309049D904A800EB4410009004EB5C
:10D46000440000EB041006EB001A0098002211465D
:10D4700010F905801046F4F70FFBB8F1200F06DB1A
:10D480000027A8F12001012000FA01F804E00120A2
:10D4900000FA08F74FF000085BF824003A46002134
:10D4A000F4F791F85BF8240042460121F4F78BF879
:10D4B0006FEA0802F9430920F4F7EEFA32AFF4F705
:10D4C00063FDFCF7DBFB012804D03846F4F75EFF70
:10D4D00000287DD0F4F744FB309800880AEB450122
:10D4E0006D1CA1F8AA014D45BFD30022114610467C
:10D4F000F4F7D2FA641C022C91D31C990298F3F72A
:10D5000008FA1A990398F3F704FA0021189A029876
:10D51000F4F759F80121169A0298F4F754F800210B
:10D520002A9A0398F4F74FF80121199A0398F4F70F
:10D530004AF8034C2068B0F8F010009110E00000A9
:10D540006086001068860010B09D0030189D003085
:10D5500082850010CC0E0030CC09003001000E0096
:10D5600090F8EB3090F8EA200B210298F4F785F957
:10D570002068B0F8F010009190F8EB3090F8EA20B5
:10D580000B210398F4F779F901210846F4F776FAAC
:10D5900032A800F075FF3699002238AC002054F80C
:10D5A00022C0BCF1000F0ED902EB420303EB0213C1
:10D5B00006EB031331F8025B03EB4007401CA7F8AE
:10D5C000F6518445F6D8521C022AE7D3FE4800E003
:10D5D0004AE0007810F0080F7DD0FC4D2868B0F8C4
:10D5E000F210009190F8EB3090F8EA200B210298AD
:10D5F000F4F743F92868B0F8F210009190F8EB3096
:10D6000090F8EA200B210398F4F737F900210C4633
:10D610000DF1E00C00205CF82120002A0CD901EB70
:10D62000410303EB011306EB031303EB4007401C1C
:10D63000A7F842428242F8D8491C0229EAD3286856
:10D64000002490F82401B4EB400F7CDA286890F8AD
:10D650002401A042D4BF012100210120F4F70EFAD9
:10D6600032AFF4F791FC02E0F8F7C4F829E7FCF7D1
:10D6700005FB012803D03846F4F788FE60B3F4F7C1
:10D680006FFA36994FF000090DF1E00E00225EF8B6
:10D6900029701046002F05D931F91030401C1A446A
:10D6A0008742F9D8B2FBF7F2781E3ED009EB490366
:10D6B00003EB091306EB031A31F9103001EB400CB0
:10D6C0003CF9028CB3EB080348BF5B4231F9108090
:10D6D000B8EB020801E036E01CE031F910804CBFE5
:10D6E000A2EB0808A8EB02083CF902BC3CF902CC0A
:10D6F000BBEB020B4CBFA2EB0C0CACEB020CE045FD
:10D700000AEB400C09DDBCF942824345C8BFACF8C6
:10D71000423208E0F8F76EF8A9E7BCF94082984574
:10D72000B8BFACF84032401EC6D109F1010901EB87
:10D730004701B9F1020FA9D32868641C90F82401AD
:10D74000B4EB400F82DB01202F99F3F75EFE01203E
:10D750002D99F3F7A5FE01201D99F4F75DF902203C
:10D760001B99F4F759F928990298F3F7CDFE179908
:10D770000398F3F7C9FE01202E99F3F761FF1120FA
:10D780002999F3F75DFF01202C99F3F79AFF1120F7
:10D790002799F3F796FF24980090229B209A1E99D0
:10D7A0000298F4F76AF825980090239B219A1F9914
:10D7B0000398F4F762F826990298F4F7BCF80199F7
:10D7C0000398F4F7B8F801202B99F4F757F931983A
:10D7D000F4F76FFA3DB0BDE8F08F2DE9F04FABB034
:10D7E00091460D460446F4F7BBF90222209212221C
:10D7F0002192CDE90C45F4F77AFB199072484FF06D
:10D800000107007810F0210F6BD071480E9071481D
:10D810000F9000212098F3F7E8FE0890012120984E
:10D82000F3F7E3FE099000212198F3F7DEFE0A905A
:10D8300001212198F3F7D9FE00250B900CA850F890
:10D8400025B020A850F82500F4F73EFF002408A8D2
:10D85000264609EB051A00EBC50819E0600904F03B
:10D860001F0158F8200007FA01F108420FD0E00725
:10D87000800C610800EB81010EA850F8250040588B
:10D88000F4F728FF0AEB4601761CA1F8BE03641CDE
:10D890005E4538BF262CE1D36D1C022DCED34E48F9
:10D8A00005781D2D1DD100210A466C460CAE0020C6
:10D8B00056F82230002B88BF09EB021C09D90CEB6B
:10D8C0004008401CB8F8BE8324F81180491C8342EC
:10D8D000F5D8521C022AEAD31D2D04BF2046FCF7BE
:10D8E000C5FF3948007810F0040F00F0D1813B48A3
:10D8F00016903B4817900220F3F777FD27900220FF
:10D90000F3F7C3FD25900120F4F79EF82490022040
:10D91000F4F79AF81B902098F3F7E4FD1A902198F9
:10D92000F3F7E0FD18900220F3F771FE2890122023
:10D93000F3F76DFE1F900220F3F7AAFE2690122047
:10D94000F3F7A6FE1D900EA8009006AB04AA02A94C
:10D950002098F3F7C0FF0FA8009007AB05AA03A912
:10D960002198F3F7B8FF2098F4F737F82290219820
:10D97000F4F733F8154D01902868B0F8E410022050
:10D98000F3F743FD00210120F4F746F800210220BF
:10D99000F4F742F8286890F8E6102098F3F7B4FD01
:10D9A000286890F8E6102198F3F7AEFD00210220D8
:10D9B000F3F746FE00211220F3F742FE0021022079
:10D9C000F3F77FFE00210DE06886001060860010EE
:10D9D000489E0030E09E0030878500104C180030D3
:10D9E0004C1D00301220F3F76CFE2868B0F8E810E8
:10D9F0002098F3F7A0FF2868B0F8E8102198F3F713
:10DA00009AFF00210220F4F739F823902868B0F833
:10DA1000EC10009190F8EB3090F8EA200B21209860
:10DA2000F3F72BFF2868B0F8EC10009190F8EB307A
:10DA300090F8EA200B212198F3F71FFF0021022024
:10DA4000F4F71CF810A800F01BFD159900220CAC8F
:10DA5000002054F822C0BCF1000F88BF09EB42132C
:10DA600008D931F8026B03EB4008401CA8F8DE63CC
:10DA70008445F6D8521C022AEAD32098F2F761FFB7
:10DA80001E902198F2F75DFF1C9000212098F3F77B
:10DA9000ACFD089001212098F3F7A7FD0990002123
:10DAA0002198F3F7A2FD0A9001212198F3F79DFD3B
:10DAB0000B902868B0F8EE10009190F8EB3090F8D9
:10DAC000EA200B212098F3F7D8FE2868B0F8EE1072
:10DAD000009190F8EB3090F8EA200B212198F3F7B1
:10DAE000CCFE00250DF1800B00210220F3F7C6FFCC
:10DAF00000212098F2F70DFF00212198F2F709FF8D
:10DB00005BF825000121F2F704FF0CA8002450F86F
:10DB100025002A9016A8264650F82500299008A826
:10DB200000EBC50009EB451A009044E0009861093C
:10DB30004FF0010850F8210004F01F0108FA01F12C
:10DB4000084237D0002211461046F3F7A5FF202CDB
:10DB500023BF0027A4F1200008FA00F808FA04F710
:10DB600038BF4FF000085BF825003A460021F3F774
:10DB70002AFD5BF8250042460121F3F724FD6FEAF8
:10DB80000802F9430920F3F787FF10AFF4F7FCF917
:10DB9000FCF774F8012804D03846F4F7F7FB0028A6
:10DBA0007DD0F3F7DDFF299800880AEB4601761C4B
:10DBB000A1F8EE03641C2A98864238BF262CB5D300
:10DBC000002211461046F3F767FF6D1C022D8BD320
:10DBD0001E992098F2F79DFE1C992198F2F799FE64
:10DBE0000021089A2098F3F7EEFC0121099A209869
:10DBF000F3F7E9FC00210A9A2198F3F7E4FC0121EC
:10DC00000B9A2198F3F7DFFC02202799F3F7FDFB2D
:10DC100002202599F3F744FC01202499F3F7FCFE38
:10DC200002201B99F3F7F8FE1A992098F3F76CFC81
:10DC300018992198F3F768FC02202899F3F700FD62
:10DC400012201F99F3F7FCFC02202699F3F739FD07
:10DC500012201D99F3F735FD0E980090069B049A4B
:10DC600002992098F3F709FE0F980090079B059AF8
:10DC700003992198F3F701FE22992098F3F75BFEB0
:10DC800001992198F3F757FE02202399F3F7F6FE46
:10DC90001998F4F70EF82BB0BDE8F08FFFE7F7F70F
:10DCA000A9FD75E72DE9F04FFF4DADF2344DFF2290
:10DCB0004FF4846168466C680EF08BFF00942888EE
:10DCC00010F4804F1CBF2046FEF7B9FC6A4600984E
:10DCD00090F8203090F821C050300CFB03F100EB9D
:10DCE00041000021BCF1000F08D902EB410730F8D8
:10DCF000026B491CA7F8EA608C45F6D80021002B7E
:10DD000008D902EB410730F8026B491CA7F81261F1
:10DD10008B42F6D81668002196F82260002E0BD9A7
:10DD200002EB410730F8026BA7F8BE631668491C86
:10DD300096F822608E42F3D81668002196F8236088
:10DD4000002E0BD902EB410730F8026BA7F8CE6327
:10DD50001668491C96F823608E42F3D80021BCF166
:10DD6000000F08D902EB410730F8026B491CA7F8F5
:10DD700070608C45F6D80021002B08D902EB4107D2
:10DD800030F8026B491CA7F898608B42F6D830F83F
:10DD9000021BA2F8E61030F8021BA2F8E81030F8D7
:10DDA000021BA2F8E41000260021BCF1000F0ED9DE
:10DDB00006EB460707EB061702EB870707EB41095F
:10DDC00030F8028B491CA9F85E816145F6D3002129
:10DDD000002B0ED906EB460707EB061702EB870769
:10DDE00007EB410930F8028B491CA9F88E82994251
:10DDF000F6D3761C042ED7D300261768002197F897
:10DE00002270002F88BF02EB06170CD907EB4109DF
:10DE100030F8028BA9F8DE83D2F80080491C98F80C
:10DE200022808845F2D81768002197F82370002FC8
:10DE300088BF02EB06170CD907EB410930F8028BBB
:10DE4000A9F8FE83D2F80080491C98F82380884501
:10DE5000F2D8761C022ED0D361461846FEF722FD7A
:10DE600091480126056815F4004F7CD180468F4803
:10DE70006F460026006890F8B40000F00F0900F02B
:10DE800014FE012809D00F214846F7F7B6FD0128F6
:10DE900012D0002000F006FEB4E000210846F3F79F
:10DEA0002BFFF3F708F850B18148D0F8401341F444
:10DEB0008031C0F8401302E0012000F0F3FD7D48FE
:10DEC00090F800907C4890F800A0BAF1000F18BFBD
:10DED000B9F1000F7DD0009E002086F8209086F8D2
:10DEE00021A086F8220086F82300F4F72CFCF3F733
:10DEF000FEFF8346002015F0030F18BF4FF481701A
:10DF000015F0200F1CBF40F20121084315F0100F3F
:10DF10001EBF98F8001011F0210F40F4846060B12A
:10DF20000BEA0000F3F7C5FEFF210F20F7F7D1FF42
:10DF3000F3F716FE5846F3F7BCFE15F0100F09D0A4
:10DF40005E493A46087886F82200497886F8231018
:10DF5000FFF743FC15F02C0F04D03A4651464846D3
:10DF6000FFF7BEF800E04DE015F0030F47D0CDF805
:10DF700024740098CDF8200400F15006F4F786F8D8
:10DF80008346F3F7EDFD0020F4F79EFB0027BAF17E
:10DF9000000F25D907EB4700002500EB071816E016
:10DFA0001BF90500262811D2C107890C00EBD0709F
:10DFB00001EB8801401001EB800000F1405000F5BA
:10DFC00000400068F4F786FB26F8020B6D1C4D45F7
:10DFD00000E015E038BF262DE2D37F1C5745D9D38A
:10DFE000374800781D2804D1DDF820045030FCF7B4
:10DFF00010FA51464846DDF82424FEF753FC01266A
:10E00000F3F736FF94F82000CDF8280494F82100A7
:10E01000CDF82C04002E1FBFDDF828040028DDF801
:10E020002C04002804BF0DF2344DBDE8F08F1E48CB
:10E030000068CDF8300410F0020F00F02081009D40
:10E04000DDF82C74DDF8282428696E4620F00F00D6
:10E05000286147F6FF706FEA0009CDF82004002020
:10E0600005F1500804900390029082460190002F21
:10E0700061D90AFB02F04FF0010C38F910100020B2
:10E080008B465B46CDF82404012A2BD90AFB02C03B
:10E0900038F910009842C8BF03468842B8BF01460D
:10E0A000B0EB0B0E0EE000006886001060860010DA
:10E0B00000500040FE840010FF8400100685001010
:10E0C0007D85001048BFABEB000E0FFA8EFBDDF82C
:10E0D00024E4F345C8BFCDF824B483460CF1010C09
:10E0E0009445D3D34B45C8BF9946DDF820048142FF
:10E0F000B8BFCDF82014581A48BFC81A01B2FE485C
:10E100000068B0F9C0308B4205DBB0F9C210DDF811
:10E11000240488420BDD4FEA5A1006EB80000AF017
:10E120001F0C0121C36801FA0CF11943C1600AF107
:10E13000010ABA459DD34FF0000A002A4FD938F999
:10E140001A00002183465B464FF0010CCDF82414E1
:10E15000012F1BD90CFB02A138F911109942C8BF3D
:10E160000B468142B8BF0846B1EB0B0E48BFABEB84
:10E17000010E0FFA8EFBDDF824E4F345C8BFCDF89D
:10E1800024B48B460CF1010CBC45E3D34B45C8BF0E
:10E190009946DDF820148842B8BFCDF82004191A3A
:10E1A00048BFC11A09B2D4480068B0F9BC308B42EC
:10E1B00005DBB0F9BE10DDF8240488420BDD4FEA20
:10E1C0005A1006EB80000AF01F0C0121436801FA87
:10E1D0000CF1194341600AF1010A9245AFD3F0688E
:10E1E000002804BF3069002803D0286940F00800E7
:10E1F00028617068002804BFB068002803D028692F
:10E2000040F0040028617168F068B9400843A862D2
:10E21000B1683069B9400143E9627068202F39BFA5
:10E22000C7F12002D040A7F1200290400843E862E5
:10E23000DDF82004A884A5F82690B6F9E410B9EB1F
:10E24000010048BFA1EB0900AB490968B1F9B8204A
:10E25000904203DD286940F002002861B6F9E4200D
:10E26000DDF82004101A44BFDDF82004801AB1F94B
:10E27000BA10884203DD286940F001002861DDF80A
:10E2800030049E4D10F0050F06D06A46DDF82C14C0
:10E29000DDF82804FEF747FCD5F8009019F0080FC8
:10E2A0007ED0009ADDF82C34DDF828A411694FF0F7
:10E2B000000B21F4C05111616846CDF860B0594699
:10E2C000CDF85CB0002B84BFDFF82CE201261AD910
:10E2D000DEF8007000EB410CBCF942C2B7F92671C0
:10E2E00067450DDA4FEA511C00EB8C0C01F01F085A
:10E2F000DCF85C7006FA08F847EA0807CCF85C70AE
:10E30000491C9942E4D3C0F858B00021C0F854B079
:10E31000BAF1000F84BF784E01271AD9D6F80080D1
:10E3200000EB410CBCF972C3B8F92681E0450DDA67
:10E330004FEA511800EB880C01F01F0BDCF85480F9
:10E3400007FA0BFB48EA0B08CCF85480491C5145EE
:10E35000E4D3916BD0F85CC041EA0C01D0F854C012
:10E360000CFA03FC41EA0C019163D16BD0F860C058
:10E3700041EA0C01D0F858C00CFA03FC41EA0C0C3D
:10E38000C2F83CC0416D202B39BFC3F12003D940F6
:10E39000203B994041EA0C01D163416D002900E026
:10E3A00011E004BF816D002903D0116941F40061BF
:10E3B0001161C16D002904BF006E002803D01069EF
:10E3C00040F48050106119F0100F18BF19F0050FBC
:10E3D00006D094F8231094F822006A4600F07EF9E3
:10E3E000287810F0400F0FD16069401C60612069EF
:10E3F000002814BFE069A06900F1010014BFE061CA
:10E40000A0616846FEF77FF90020E060A36821461E
:10E410000246A446B3F5056F88BF4FF4056300209C
:10E42000B0EB930F06D25CF82070401C3A44B0EB7E
:10E43000930FF8D35042C860287810F0800F05D1B0
:10E440004FF440304FF40562F4F7E4FC41208DF8BE
:10E450002004207C8DF82104607C8DF82204A07CAF
:10E460008DF82304E07C8DF82404002305220DF5AB
:10E470008461072000F088FA0DF2344DBDE8F08F7A
:10E4800070B505460024F3F77FFDFBF7F7FB012885
:10E4900004D02846F3F77AFF20B10124F3F760FB9C
:10E4A000204670BDF7F7A6F9EFE72DE9F74F84B0E6
:10E4B0004FF00008C2F82080C2F81C80059B0E4E69
:10E4C00001274146002B23D902EB4103B3F97030F9
:10E4D000002BB8BF5B421BB2D6F800C0BCF9CCC061
:10E4E0009C4511DD4B0902EB830301F01F0407FA81
:10E4F00004F4D3F81CC003E06086001068860010A6
:10E500004CEA040CC3F81CC0059B491C9942DBD3A0
:10E510000021012B1CBF059BA3F1010940D002EB98
:10E520004103B3F97240B3F970C0B4EB0C0348BFB8
:10E53000ACEB04031BB23568B5F9C6509D422CDA2A
:10E54000B2F9E630BCEB030548BFA3EB0C052DB2D6
:10E55000B4EB030C48BFA3EB040C0FFA8CF39D4201
:10E560000DDB4B0902EB830301F01F04D3F81CC041
:10E5700007FA04F44CEA040CC3F81CC00DE04B1C71
:10E580004FEA531C02EB8C0C03F01F03DCF81C4019
:10E5900007FA03F32343CCF81C30491C4945BED38A
:10E5A000316891F8CA30002B7DD091F8CB101468F7
:10E5B0008B4288BF19460023DDF814C0BCF1000F60
:10E5C00084BF491C00916ED94FF0010EDDF800C0E8
:10E5D0004FF000090121CA46BCF1010F52D9DFF802
:10E5E0002CC303FB0005DCF800C0CDF80CC0BCF95F
:10E5F000CEC002950EFB0005019503FB001504EB50
:10E600004505B5F95080B8F1000FB4BFC8F1000559
:10E610004546AC4536DB0EFB001504EB4505B5F968
:10E620005070002FB4BF7D423D46AC452ADB029DB1
:10E630006D1A04EB4505B5F94E60002EB4BF754266
:10E640003546AC451EDB019D6D1A04EB4505B5F959
:10E650004E50002DB4BFC5F1000BAB46E34511DCB5
:10E66000A7EB0808039FB7F9C8704745B8BF09F181
:10E670000109AD1BBD42C8BF0AF1010A491C009D3A
:10E68000A942BAD3BAEB090148BFA9EB0A01DFF8E6
:10E690007CC2DCF800C09CF8CAC061450FDB590998
:10E6A00002EB810100E015E003F01F064FF0010CC2
:10E6B000CD690CFA06FC45EA0C0CC1F81CC00599A2
:10E6C0005B1C8B4206D2002B18BFA3F1010E7FF416
:10E6D0007DAF79E707B00120BDE8F08F2DE9F04F5D
:10E6E00083B04FF0000C1368C2F864C0C2F868C071
:10E6F000C2F86CC0DFF818C24FF0010BDCF800E084
:10E70000DFF808C21EF0010FDCF800C029D01C6938
:10E71000002524F480341C612F46CDE900015DF80A
:10E7200027A00024BAF1000F88BF02EB071915D902
:10E7300009EB4406BCF9D480B6F9BE63B04503DCEE
:10E74000BCF9D680B04505DA566E0BFA05F846EAF4
:10E7500008065666641C6D1CA245E9D87F1C022F72
:10E76000DDD31EF0040F71D01C69002524F4C024F1
:10E770001C612F46EE46CDE900015EF827A000247B
:10E78000BAF1000F88BF02EB471915D909EB44060F
:10E79000BCF9D880B6F9DE63B04503DCBCF9DA8099
:10E7A000B04505DA966E0BFA05F846EA0806966655
:10E7B000641C6D1CA245E9D87F1C022FDDD3002507
:10E7C0002F46CDE900015EF827A00024BAF1000F22
:10E7D00088BF02EB471915D909EB4406BCF9DC8068
:10E7E000B6F9EE63B04503DCBCF9DE80B04505DA6E
:10E7F000D66E0BFA05F846EA0806D666641C6D1C50
:10E80000A245E9D87F1C022FDDD34418D2E91A5063
:10E8100030EA050C4CEA0506C2F86CC013D00021A2
:10E820000846002C0FD90BFA00F71CEA070F18BF97
:10E83000491C401CA042F6D3012904D145EA0C0032
:10E8400090660020D066506EB043506693F820006A
:10E8500093F821100844516ED9B1196941F48031FF
:10E860001961D2F864C0196B0CFA00FC41EA0C0182
:10E870001963516E202827BFA0F1200C01FA0CF17A
:10E88000C0F1200C21FA0CF1D3F834C041EA0C019C
:10E890005963916ED9B1196941F400311961D2F807
:10E8A00068C0996B0CFA00FC41EA0C019963916E07
:10E8B000202827BFA0F1200C01FA0CF1C0F1200C98
:10E8C00021FA0CF1D3F83CC041EA0C01D963D16EB6
:10E8D000C1B1196941F480211961D2F86CC0196C79
:10E8E0000CFA00FC41EA0C011964D16E202827BF04
:10E8F000203801FA00F0C0F1200021FA00F0596C34
:10E900000843586403B00120BDE8F08F6086001012
:10E910006886001070474FF0FF3070475D484068D0
:10E9200070475C494860704710B582B007280BD12A
:10E930004FEA111C012404FA0CFC564C64681CEAD2
:10E94000040F04BF02B010BD9B0100F00F0043EAAA
:10E95000800040F001008DF800008DF801108DF866
:10E960000220100A8DF80300100C8DF80400100E20
:10E970008DF8050000208DF806008DF80700684628
:10E980000EF0B3F902B010BD10B582B007280DD15A
:10E9900091F800C001244FEA1C1C04FA0CFC3D4C09
:10E9A00064681CEA040F04BF02B010BD9B0100F0B4
:10E9B0000F0043EA800040F001008DF80000072AB4
:10E9C00088BF072200206B46002A09D911F800C031
:10E9D0001C18401C84F801C09042F7D3072805D2C8
:10E9E00000211A18401C51700728FAD318460EF05F
:10E9F0007CF902B010BD10B59B0100F00F0082B091
:10EA000043EA800040F002008DF80000072A88BF2A
:10EA1000072200206B46002A09D911F800C01C18F3
:10EA2000401C84F801C09042F7D3072805D200218A
:10EA30001A18401C51700728FAD318460EF055F9E1
:10EA400002B010BD70B5134E40EA0125022834888B
:10EA5000224618BF052803D1002918BF022900D17A
:10EA60002C46A24209D051B17088002344EA0042EA
:10EA700090210720FFF758FF3480758070BDF4F7B0
:10EA8000C2FD44EA0042002390210720FFF74CFF1B
:10EA9000F2E7000070860010FD4908707047FC48DE
:10EAA00000787047FA4948707047F94840787047D5
:10EAB0002DE9F04FF748F64DADF6641D0068697812
:10EAC000836D0229C3F303201AD06A6812F4007F11
:10EAD0001EBFC3F303310F29084612F0800F1EBF7B
:10EAE000C3F303110F29084602F00701F6F785FF6B
:10EAF000012814BF00200220687040F06F830DE0F1
:10EB000000210846F3F7F8F8F2F7D5F930B1E248FA
:10EB1000D0F8401341F48031C0F84013F3F7E7F91F
:10EB2000CDF81C09287910F0100F18BFF3F7EAFD93
:10EB3000287910F0080F03D1FF210F20F7F7C9F94A
:10EB4000D6480078CDF83C09D5480078CDF8400982
:10EB5000D4480478D4480078CDF83809D34890F8E0
:10EB6000009090F80180DDF8400900281CBFDDF816
:10EB70003C09002816D00EF090F80EF093F8002013
:10EB8000F5F7E6FE0020F5F743FF0020F5F75DFFFF
:10EB9000BF48007910F0100F0CD00120F5F7B4FF3A
:10EBA00001200BE0DDF83809002818BF002CE2D165
:10EBB00000F014BB0020F5F7A7FF0020F5F7A4FF35
:10EBC000F2F779F910F0010F04BF0120F2F7FEFB14
:10EBD000F3F7A1F91E20FBF774FB00210846FBF7B1
:10EBE000EBFACDF84C0901210020FBF7E5FADDF83E
:10EBF0004029DDF83C198346002001FB02FABAF1F6
:10EC0000000F84BF47F6FF73DA4308D9DDF84C19CB
:10EC100021F810202BF81030401C8245F6D81E2019
:10EC2000FBF7EBFC00210120FBF7C6FA06460121A9
:10EC30000846FBF7C1FA0546DDF8381900206718C9
:10EC40001CBF47F6FF72D14306D026F8101025F8F6
:10EC50001020401C8742F8D81E20FBF7F1FD002150
:10EC60000220FBF7A9FACDF8480901210220FBF7A1
:10EC7000A3FACDF84409002019EB08091CBF47F698
:10EC8000FF73D9430AD0DDF8482922F81010DDF8C7
:10EC9000442922F81030401C8145F4D87C484FF0BC
:10ECA00000084088002840F2A181DDF83819781C5E
:10ECB000491ECDF85C19DDF8381940082144491E79
:10ECC000CDF8501909F101014908CDF85819CDF8CE
:10ECD0005409FAF7D3FF012800F088810DF512607E
:10ECE000F3F754FB002800F07A81DDF82409F5F7EA
:10ECF00052F8DDF82809002853D00DF07EFF0446B5
:10ED00006348007910F0100F0AD02046DDF828196A
:10ED10000DF0F0FF0190A04208BFDDF8284910E097
:10ED2000002000230090019002901A461946DDF859
:10ED300028090DF0E4FF01905548007910F0200FEC
:10ED40000BD1F5F79DF8DDF84029009201462046E9
:10ED5000DDF83C39019A0DF0D7FF4D48808810F45A
:10ED6000804F1EBF01980028F5F7CCF8002C1CBF7F
:10ED70000020BAF1000F14D9DDF84C2934F9101035
:10ED800032F910208A42BCBFDDF84C2922F810105D
:10ED90003BF910208A42C8BF2BF81010401C824556
:10EDA000EAD8DDF81C0910F0010F1CBFDDF83009AE
:10EDB00000286CD00DF01CFF04463548007910F097
:10EDC000400F07D000231A461946DDF830090DF030
:10EDD000A0FF0DE0F5F71DF8022200920146204643
:10EDE000DDF85439DDF830290DF08EFFDDF83009FB
:10EDF0002749898811F4005F1CBF0028F5F713F834
:10EE0000002C44D02248426812F4806F33D0DDF8E1
:10EE100038190020012911D004EB400134F910C049
:10EE2000B1F90230B3EB0C0148BFACEB030124F89D
:10EE30001010DDF85C19401C8842EDD34FF0000E35
:10EE400024F810E0DDF85019401C884211D204EB80
:10EE5000400134F910C0B1F90230B3EB0C0148BFE6
:10EE6000ACEB030124F81010DDF85019401C81426E
:10EE7000EDD824F810E00020002F22D934F910102A
:10EE800036F910308B42B8BF26F8101010E04EE073
:10EE9000788600106086001000500040FE8400104C
:10EEA000FF84001003850010048500100685001003
:10EEB00035F910308B42C8BF25F81010401C87422E
:10EEC000DCD812F4806F32D0F54A08F10100A2FBC1
:10EED00000318908494201EB8101C14227D1A2FBDF
:10EEE00008108008A2FB00210909494201EB8101B9
:10EEF00000EB810000EB4001C1EB401103A800EBE7
:10EF000081010020002F84BF47F6FF7C6FEA0C02CE
:10EF10000DD936F8103035F810401B1B21F8103091
:10EF200026F8102025F810C0401C8742F1D8DDF8E3
:10EF30001C0910F0200F1CBFDDF83409002849D04F
:10EF40000DF0ECFE0446D748808810F4807F13D083
:10EF5000F4F745FF0146022000902046DDF85839BD
:10EF6000DDF834290DF0D0FEDDF83409CD4989886B
:10EF700011F4805F0FD109E00021DDF834090DF0B4
:10EF800023FEB8F1040F38BF0024EFE718B1F4F7FF
:10EF900028FFF4F71FFF002C1CBF0020B9F1000F61
:10EFA00018D9DDF8482934F9101032F910208A42B6
:10EFB000BCBFDDF8482922F81010DDF8442932F9E9
:10EFC00010208A42C4BFDDF8442922F81010401CEA
:10EFD0008145E6D8F3F737FA08F1010801E0F6F7C2
:10EFE00009FCB04840888045FFF473AEF2F7B8FDE5
:10EFF0000DF058FE0DF05BFEAA4C6088804578D37A
:10F00000DDF81C0910F0020F2AD000224FF6FF7322
:10F010001046BAF1000F10D9DDF84C193BF910C0B9
:10F0200031F91010A1EB0C019142C8BF0A46994278
:10F03000B8BF0B46401C8245EED842208DF8000038
:10F04000100A8DF801008DF80220180A8DF80300CF
:10F050008DF804300023052269460720FFF794FC51
:10F06000DDF81C0910F0010F7DD0A08810F4806F2E
:10F0700051D08B48A0FB08108308142B88BF1423A1
:10F080004FF0000844464146002F84BF981E009070
:10F0900055D94FF0000CDFF810A247F6FF7B62460F
:10F0A000002B12D902EB4200C0EB421E03A800EB7A
:10F0B0008E0030F9110084445045C8BF824658453F
:10F0C000B8BF8346521C9A42ECD3002B04BF0020E9
:10F0D00026F811000ED09CFBF3F026F81100022B4D
:10F0E00008D9ACEB0A00A0EB0B02009892FBF0F001
:10F0F00001E06AE0002025F8110036F91100A04275
:10F10000C8BF044635F911004045C8BF8046491CB8
:10F110008F42BED813E000244FF6FF782046002F20
:10F120000DD936F9101035F91020891AA142C8BF3F
:10F130000C464145B8BF8846401C8742F1D8432061
:10F140008DF80000200A8DF801008DF802404FEA8A
:10F1500018208DF803008DF80480002305226946ED
:10F160000720FFF711FCDDF81C0910F0200F2CD050
:10F1700000224FF6FF731046B9F1000F12D9DDF8E7
:10F18000481931F910C0DDF8441931F91010ACEB11
:10F1900001019142C8BF0A469942B8BF0B46401CC4
:10F1A0008145ECD844208DF80000100A8DF801004C
:10F1B0008DF80220180A8DF803008DF80430002322
:10F1C000052269460720FFF7DFFBFF20FBF779F8F0
:10F1D000FF20FBF712FAFF20FBF732FBF2F748FEA5
:10F1E0000DF6641DBDE8F08F30B5ADF6540D4FF04F
:10F1F000FF30FCF7B0FF2B4C00206070F2F73EFFB1
:10F20000F2F711FF05460020F2F707FFFF224FF447
:10F21000056168460DF0DDFC6846FDF728FA684692
:10F22000FDF7B3F9FAF72AFD012803D1F6F78AFAB8
:10F2300003281BD1207810F0010F07D0FEF732FD14
:10F24000207820F001002070FAF7B2FC207810F04E
:10F25000020F07D0FFF72CFC207820F0020020706E
:10F26000FAF7A6FCF6F76EFA03280BD00020FDF79C
:10F270008CF92846F2F7D1FE0120F2F7FFFE0DF6D9
:10F28000540D30BDF6F7B6FACCE7064948600020C9
:10F29000487070470348406870470249488070478B
:10F2A000CDCCCCCC788600100080FFFFFE490870E2
:10F2B0007047FD4800787047FB49C8717047FA48AD
:10F2C000C0797047F848407A7047F748C17911F023
:10F2D000010F18BF704710B5002141720846F6F7BC
:10F2E0000BFBBDE810400020F5F78CBBEE48008C0E
:10F2F000C0F300207047EC4910B5098C0020C1F321
:10F30000002151B106F01BFE64280FBF4FF0C04032
:10F31000012101FA00F040F08040BDE8104006F005
:10F3200011BEE14A10B5C0F3074381B29361116287
:10F33000C0F30360507090700020C1F30021D061D1
:10F3400051B106F0FCFD64280FBF4FF0C040012111
:10F3500001FA00F040F08040BDE8104006F0F2BD38
:10F36000D14840797047D04A0028116A14BF41F053
:10F37000020021F0020010627047CB4890F8200094
:10F38000C0F340007047C84A10F0010F106A14BF64
:10F3900040F0020020F0020010627047C2490020D5
:10F3A00091F82010C1F34001002918BF01207047D7
:10F3B0000028BD4A116A14BF41F0010021F001008C
:10F3C00010627047B84890F8200000F001007047C4
:10F3D000B5494A788A7048707047B348407870479A
:10F3E000B14880787047B1480068406DC0F3036051
:10F3F000704701218140AC488269114081617047AA
:10F4000001218140A848826922EA01018161704797
:10F41000A54880697047A448C0697047A24910B5E3
:10F42000CC69C8610246002381210720FFF77CFADE
:10F43000204610BD9C48008CC0F3802070479A483D
:10F4400080797047984890F82000C0F3800070479A
:10F45000954890F82000C0F3C00070479248008C97
:10F46000C0F340207047904890F82000C0F3C010CF
:10F470007047FBF769BF8C48008CC0F34030704781
:10F480008948008CC0F3C02070478748008CC0F3C7
:10F4900000307047844A10F0805F116A14BF41F455
:10F4A000806121F4806110F0005F14BF41F40050CE
:10F4B00021F400501062FCF72CB97B48016A00204F
:10F4C00011F4806F18BF4FF0805011F4005F18BF27
:10F4D00040F00050704770B57349044610F0040FB7
:10F4E0000E6A304614BF40F4807020F4807014F02F
:10F4F000080F14BF40F4007020F4007014F0100FD7
:10F5000014BF40F4006020F4006014F0400F14BFFA
:10F5100040F4805020F4805014F0200F14BF40F0CD
:10F52000800020F0800008620021C0F3002050B16C
:10F5300006F005FD64280FBF4FF0C041012101FA1C
:10F5400000F040F08041084606F0FCFCC4F3800067
:10F55000C6F30021884227D006F08CFC0546012026
:10F56000F5F724F915F4817F0CBF01200020F2F794
:10F5700054FD15F0020F04D0022009F087FD002091
:10F5800009E015F4807018BF012009F07FFD48489C
:10F5900090F86C00C00803F06DF815F4C06F03D04C
:10F5A00006F0CDF806F0BBF8C4F3C000C6F3402166
:10F5B000884208BF70BD0120BDE87040F5F7F6B87D
:10F5C0003948016A002011F0040F18BF012011F022
:10F5D000080F18BF40F0020011F4807F18BF40F000
:10F5E000040011F4007F18BF40F0080011F4006F10
:10F5F00018BF40F0100011F4805F18BF40F04000C9
:10F6000011F0800F18BF40F02000704703283CBF66
:10F610002549486170472448007D70472249C873D6
:10F6200070472148C07B70471F48C06A70471E4919
:10F630004A6A10434862704770B51B4E706A40F0CA
:10F64000007400207062356A15F0040F18BF44F092
:10F65000010415F0080F18BF44F0020415F4807F70
:10F6600018BF44F0040415F4007F18BF44F00804E8
:10F67000FBF76AFE002818BF44F0805415F4006FB1
:10F6800018BF44F0100415F0800F18BF44F0200498
:10F6900015F4805F18BF44F0400415F4005F18BFF4
:10F6A00044F00054F16905E0808600106086001087
:10F6B000D419011044EA0140002918BF40F08060CD
:10F6C00070BDFE4988627047FC4890F8280000F041
:10F6D00001007047F94890F82800C0F340007047D7
:10F6E000F64890F82800C0F380007047002818BF43
:10F6F0000120F249087370472DE9F05FF04980005E
:10F7000000260968896D21FA00F000F00F04C1F3AA
:10F710000325C1F3031AC1F30339C1F30358C1F33D
:10F72000036BAC421CBF2046BDE8F09FE348B8F134
:10F730000F0FC76C16D006F09DFB10F4817F0ED022
:10F74000BBF10F0F0AD0DD48008CC0F3403028B168
:10F7500006F000FC082818BF5C4600D14446A742CA
:10F7600018BF0126AC420FD1B9F10F0F0CD0D3480E
:10F77000008CC0F3403020B106F0ECFB082818BF25
:10F780004C46A74218BF0126AC4207D1BAF10F0F71
:10F7900004D0F6F7C4F8002818BF5446A7421EBF8D
:10F7A000002E0020F5F702F8C448C4642046BDE8E6
:10F7B000F09F2DE9F047002586B02E46F5F7C2FFF1
:10F7C000BF49052808680CBF90F8F80090F8580069
:10F7D00000F00F094846FCF79BFCB84F4FF0000AB9
:10F7E0004FF00108002808BF54460FD0446A06F0C5
:10F7F00041FB10F4C06F08BF87F80BA006D014F0CF
:10F80000020F18BF24F0010487F80B8014F0010FD9
:10F8100014BF0224042444F400314846F6F7EDF8FE
:10F82000002804BF06B0BDE8F08714F0040FA54C13
:10F8300007D0F1F768F801462078814288BFF1F7D8
:10F840005AF80120F1F7C2FDF2F79EFBFAF716FA1B
:10F85000012832D06846F2F799FD50B36846FBF7AD
:10F8600008F90198F4F797FA029880B19648217840
:10F870000078400000FB01F2944802990DF08BF9EA
:10F8800093480078492804BF9048FAF7C2FD0498CD
:10F8900048B19048904900780978084442008F4860
:10F8A00004990DF078F987F80C80F2F7CCFD012669
:10F8B00003E0F5F79FFF002DC8D0F2F751F9F6F7F6
:10F8C00015FA06B03046BDE8F0877C48007B00287A
:10F8D00018BF012070472DE9F04F4FF0000A87B0A4
:10F8E00005460F24D146F5F72DFF0746F5F730FF03
:10F8F000DFF8C8B10690052F07D1FBF7E3FA00281F
:10F9000004BF00208BF80C0002D09BF80C0058B903
:10F91000F6F766F806464FF48050F6F75EF8FFF704
:10F9200048FF3046F6F759F8052F0CBFDFF8B081D5
:10F93000DFF8B08106F09EFA002818BF0E24214699
:10F940002846F6F75AF8002804BF07B0BDE8F08F44
:10F950000DF0A3F90DF0A6F9F4F7D2FE04007DD165
:10F960000125F1F7A8FA06460020F1F72FFD2846F9
:10F97000F2F7EAFA5148C563F3F748FEA5F1010B27
:10F98000FAF77CF901280AD0F5F7DCFEB84206D177
:10F99000F5F7DEFE0699884208BF002C09D0F2F781
:10F9A000DFF8464F16F0010F7D7834D0012C27D0B8
:10F9B00031E06846F2F7EAFCF8B116F0010F03D027
:10F9C0000120F4F763F882466846FBF752F8019885
:10F9D000F4F7E1F96846C0470446F2F734FD002C1D
:10F9E000CED115B901985845CAD1F2F7B7F8002819
:10F9F00004BF2846F2F7A8FAC2E7F5F7F0FEBFE722
:10FA00000120F4F743F8504505D2AAEB000101208C
:10FA1000F4F74CF88146F3F71EFE16F0010F29D0DB
:10FA2000012C27D1B9F1000F24D0F1F716FC0446C0
:10FA3000F1F752FA00EB800004EB4000484400214B
:10FA400044F20902904284BFA0F580400938002D9D
:10FA500008BF43F6390105D0022D00E00AE008BFD7
:10FA600041F6F901884205D2091A0120F4F74DF850
:10FA70000120B8720DF01BF9F6F738F907B0BDE8B0
:10FA8000F08F2DE9F14F88B0002702970597069770
:10FA90000397F5F757FE04900B48B946CDF804904C
:10FAA00004780848C84623460578089804FB05FAF8
:10FAB000009500EB4A060246044915E080860010D6
:10FAC00060860010FF840010FE840010801D01106D
:10FAD0007D8500100485001003850010702301103F
:10FAE000CB390010EF3E001030460DF00DF9DFF875
:10FAF000ECB39BF80000492804BFF948FAF789FCE9
:10FB0000F64800784C2804BF3046FAF782FCF548E6
:10FB1000C07A28B30498052822D106EB440136F8B0
:10FB200014004988401A3188401A7188084400B28C
:10FB300001903228C4BF012703970021002D0FD95F
:10FB400001FB04F2002006EB420301FB040B5A8A7E
:10FB5000401C26F81B200928F7D3491CA942EFD3E3
:10FB600006EB4A0293464FF0000C002D25D90020E9
:10FB7000611E13D006EB410E36F811303EF802EC50
:10FB8000A3EB0E031BB2002BB8BF5B421BB222F8E3
:10FB900011308342C8BF1846491EEBD1049902298F
:10FBA0007ED0108006EB440602EB44024845C8BFF5
:10FBB00081460CF1010CAC45D9D3CA48B0F910000C
:10FBC00000908145A4BF012702970BEB4A034FF039
:10FBD000000C002D25D90021601E022812D90BEB44
:10FBE00040023BF8106032F802EC32F8042C764404
:10FBF000324412B223F810208A42C8BF1146401E78
:10FC00000228ECD800201980588098800BEB440B18
:10FC100003EB44034145C8BF88460CF1010CAC45D9
:10FC2000D9D3B04BB3F912209045A4BF0127059753
:10FC3000002F14BF586C986C00F1010014BF586479
:10FC40009864A6480078FF2842D0089820F83A70B7
:10FC50000898029900EBCA004180059981800399B8
:10FC6000C18006990181596C4FEAE17C01EB1C5C73
:10FC70006FF30B0CA1EB0C014181996CCB1701EBDD
:10FC800013536FF30B03C91A8181A0F80E90A0F8EB
:10FC900010800199418200998182C282012600E090
:10FCA0001AE04FF002080899002F06EB8503224660
:10FCB000CDF800800CBF4E204D20FAF74CFB06EB30
:10FCC00085032246CDF8008047200899FAF743FBC8
:10FCD00009B03846BDE8F08F02EB440131F9023C2F
:10FCE000142BB9BF31F9041C14290127029758E7D6
:10FCF0007D4870472DE9F84F83467A487D490025B5
:10FD0000B0F910807A480978784C00782E46AA46D7
:10FD10004718F2F7ECF800907748A4F174090078DE
:10FD2000492804BF4846FAF782FC0020002F09D971
:10FD30003BF8101039F81020891A24F81010401CD4
:10FD40008742F5D8DFF8B09199F800004C2804BF3D
:10FD50002046FAF76CFC009810F4007FA7F1010030
:10FD600012D000281CBF5F49B1F9123026D034F9F7
:10FD700010100029B4BF4A420A469A42BCBF0D4443
:10FD8000761C401EF3D119E000281CBF5549B1F97B
:10FD9000123013D004EB400234F8101032F8022C69
:10FDA000891A09B224F810100029B4BF4A420A4641
:10FDB0009A42BCBF0D44761C401EEBD1002EC8BF3A
:10FDC00095FBF6F52EB2268099F800004F2804BF67
:10FDD0002046FAF72CFC0025781E0ED034F81010BF
:10FDE000891B09B224F810100029B8BF494209B292
:10FDF0008D42B8BF0D46401EF0D1258006F03AF87E
:10FE000010F4817F18BF4FF00508454506DD99F8CD
:10FE100000004FF0010A4D2807D103E099F80000D7
:10FE20004E2802D12046FAF702FC99F80000472834
:10FE300004BF2046FAF7FBFB5046BDE8F88F2DE9DA
:10FE4000F04F87B0FBF73CFA2C480068B0F9361049
:10FE5000B0F934000CF0EFFE0120F4F7A7FC06F037
:10FE600009F810F4817F14BF00200120F2F7D5F8C3
:10FE70001C4F387E10F0100F06D00420FFF73CFC1A
:10FE80000F2818BFF4F790FCFF2038724FF0FF30B6
:10FE900009F046FC07F090FF06F091F8002818BF23
:10FEA00005F04DFCF5F74EFC02287CD1DFF850A0A0
:10FEB000DFF850B04FF000084FF0E0297C78C7F829
:10FEC00034802046C7F83880FFF716FC05462146E7
:10FED0000220FEF7B7FD052C66D215E07D850010E7
:10FEE000801D01108086001070230110E423011092
:10FEF00004850010038500108285001060860010C4
:10FF00002C84001094840010DFE804F078030303CD
:10FF10007C000F247E7805F0ADFF002818BF0E246A
:10FF200021462846F5F769FD00286ED00CF0B5FE95
:10FF30000CF0B8FEF4F7E4FB050031D13878002866
:10FF40001CBF0001F1F79DF90024F1F7D0FF0690E6
:10FF5000F0F7B1FF10F0010F0ED0F1F731FA0228DF
:10FF60000AD3B87A40B1069840F40030F1F7A1FE08
:10FF70000124F2F709F801E0F1F7CDFF87F80A80D4
:10FF800087F80380F4F7B0FCF9F778FE012807D072
:10FF9000F5F7D8FB022802BF7878B042002D09D0CF
:10FFA0000CF080FE01E03DE02FE00CF080FEF5F764
:10FFB0009DFE2AE06846F2F7E9F9E0B12CB1641E33
:10FFC0000698F1F776FEF1F7A6FF6846FAF751FDBD
:10FFD0000198F3F7E0FE68460CF0A5FE05469AF896
:10FFE000000028B1D9F81800CBF80000C9F810803B
:10FFF000F2F729FAC8E7F5F7FDFBC5E728460CF04C
:020000021000EC
:1000000060FE02E02846FFF766FCF9F737FE01289C
:1000100003D1F5F797FB022804D1F5F793FB0228EB
:100020003FF44CAF09F0C5FBF4F7BFFBFBF748F911
:10003000F5F788FB05281CBF07B0BDE8F08F01204D
:10004000F6F743FFF0F7A8FB58B10020F0F7F5FBF7
:100050000120F0F795FB07B00020BDE8F04FF0F766
:10006000E9BB0120F0F7E9FB07B00020BDE8F04F45
:10007000F0F786BB4A00014601480CF08CBD000039
:1000800070230110394A30B4146894F86CC01CF025
:10009000040F1ABF012222EA0C050CF00105B0F989
:1000A0000030B1F900201DB1E58AAA1A521E12B221
:1000B0001CF0020F03D0A48AE31A5B1E1BB21CF0D3
:1000C000040F19BF02800B8003800A8030BC704788
:1000D0004FF6FF71A0F85010A0F85210A0F854107D
:1000E000A0F8561070472DE9F05F16468A46834601
:1000F00005F084FE074605F079FE002500F1CB09E6
:10010000002E8CBF4FF6FF78BDE8F09F05EB450051
:1001100000EB051007EBC00494F8880001280DD10E
:10012000A4F85080A4F85280A4F85480A4F8568013
:1001300023464A465146584602F05CFE94F8950024
:10014000022818BF03280DD0B4F85000A4F85400BA
:10015000B4F85200A4F85600681CC5B2B542D5D315
:10016000BDE8F09F204601F069FCF5E7908700109C
:10017000FE484078002818BF01207047FC480068FE
:1001800090F8700000F001007047F94909680A6FA3
:1001900060F300020A6770472DE9F05F16460D46CE
:1001A000044605F023FE8646F248202243198027A4
:1001B0000A3800EB050CEE4D4FF010084FF04009E7
:1001C0004FF4807AA0F1380184B3012C7BD0022C4B
:1001D0007AD0032C18BFBDE8F09F2B68588AC0EB7B
:1001E000001C4FEA4C04B3F81AC0B4FBFCF464439F
:1001F0000C6200EB4004C4EB4014C000B4FBFCF400
:10020000B0FBFCF064434043C1E90940B3F874001B
:10021000C0F303231B02CB85C0F303300B860628F3
:1002200057D2DFE800F0565256595D602868458A7B
:1002300005EBC50404EB051B448BBBFBF4FB0BFB7C
:100240000BFBC1F820B005EB850B4FEA8B0BBBFB1A
:10025000F4FB05EB4505B5FBF4F40BFB0BFB64432A
:10026000C1E909B49EF81440012C12D090F87440F2
:1002700025072D0DC4F30314CD8524020C861CF82C
:1002800001CCBCF1000F04BF13F8013C002B12D0CD
:1002900006E0B0F87430C3F303231B02CB850B8652
:1002A000B0F87400C0F30330062812D2DFE800F083
:1002B000110D1114181B96F89530032B08BF04F587
:1002C0008073EDD1EBE712E03BE0A1F82C80BDE8B4
:1002D000F09F8A85BDE8F09FA1F82C90BDE8F09FC3
:1002E0008F85BDE8F09FA1F82CA0BDE8F09F2A689B
:1002F000508AC0EB00134FEA430C538BBCFBF3FC5A
:100300000CFB0CFCC1F820C000EB400CCCEB401CFB
:1003100000EB4000BCFBF3FCB0FBF3F00CFB0CFC6F
:100320004043C1E909C0B2F874000207120DC0F3DE
:1003300003200002CA8500F5807008868F85BDE81D
:10034000F09F1CF801CCBCF1010F04BF13F8010CA5
:1003500001282B68588A32D0C0EBC0045B8B04EBB9
:10036000840400EB0010B4FBF3F44000B0FBF3F0A6
:1003700064434043C1E908402868438A448BDB005A
:10038000B3FBF4F35B438B62406FC0F303431B0288
:10039000CB85BCF1020F0EBF4FF44073C0F3035383
:1003A0001B020B86000F062893D2DFE800F0070639
:1003B0000705040397E793E78EE786E789E700EBF5
:1003C000C00404EB00145B8B00EB4000B4FBF3F4BF
:1003D000C000B0FBF3F064434043C1E90840CBE701
:1003E00010B46348614C0368598A588B8A00B2FB89
:1003F000F0F25243226101EBC10202EB0112B2FBA7
:10040000F0F202FB02FC5C4AC2F820C001EB810C56
:100410004FEA8C0CBCFBF0FC01EB4101B1FBF0F0AE
:100420000CFB0CFC4043C2E909C0B3F8740001079F
:10043000090DD185C0F30311090211864FF4A051B3
:10044000518649109186C0F303312020062907D236
:10045000DFE801F0060306051517102000E0402034
:10046000464990854FF6FF7008804880091F4FF07D
:10047000FF30088048800020207010BC704780202A
:10048000EEE74FF48070EBE72DE9F04F83B09B4629
:100490000D46044605F0AAFC019005F0C3FC024697
:1004A000334894F845A0DFF8C4E00068324B418A35
:1004B000408B01EB8101C900B1FBF0F000FB00F1C2
:1004C00094F8950002281CBF94F85F00012817D00B
:1004D0002B4800EBCA0050E90267B5F80080B5F878
:1004E000029094F8700030B394F8460000EB400C92
:1004F0000CEB001002EBC00090F8700098B128E0FF
:10050000002003EB0A0C2E886F880CF8010C03EB1B
:100510004A08B3F834C0A8F808C0BAF1010F08BF00
:100520008EF80100D9E703EB4A001A8EB0F808C034
:1005300094450ED90CE08B450BD394F89500022816
:1005400007D003EB4A001A8EB0F808C0944500D9D2
:10055000028194F83A00012806D094F8700018B986
:100560008B4538BF988E00D3588E0BE0D086001094
:1005700090870010EA240110A8240110F0860010D2
:1005800058240110588694F870C0BCF1000F05D1B2
:1005900094F895008B4512D3022810D060469A6AD1
:1005A0005A4588BF022000909EF8011001220029C0
:1005B00004BFBAF1010FBCF1030F0BD101E002201F
:1005C000EDE7FF488EF801204189188E814284BFF3
:1005D000FB494881FA4B0C990098D3F820C0DC45C0
:1005E00003D8022801D0012908D0F54B4FF0020EA4
:1005F0005A6A5A4508D9022816D105E0F04901EB9C
:100600000A0000F8012C1BE071B15A4598BFE34580
:100610000FD202280FD003EB0A0010F8011C0329A7
:1006200008BF00F801EC0BE003EB0A0000F801EC56
:1006300006E0022804D103EB0A00032100F8011CA4
:1006400005F0D4FBDE4B864603EB0A02988D12F8C8
:10065000012C198EB3F82EB0B3F832C0022A04D0A0
:10066000012A1CD0032A7DD032E003EB4A0201EBC1
:10067000410CB2F808B0E34506D99EF80CB0BBF1C6
:10068000000F08BFA2F808C0B2F808C08C4588BFA8
:10069000ACEB000038BF60441AD0108118E003EBC7
:1006A0004A0CBCF8082091420AD2501AA2EB600012
:1006B000000A4FF6FF7101EA0020ACF8080007E0DD
:1006C0005A4588BF101A38BF104401D0ACF8080052
:1006D00003EB4A000289002A04BF0020014640D0F3
:1006E0001046B2F5807F36BF4FF4807101464FF45B
:1006F0008072B448009B022B52D094F845C000236E
:100700000CF80030B0480068B0F814C00CFB08F3D7
:10071000B0F810800CFB06F6B3FBF8FAC38AB6FB00
:10072000F8F603FB09FBB0F812905F43BBFBF9F04E
:10073000A1F5807B0BFB06F606EB0A26B6FBF1F172
:10074000B7FBF9F7A2F580767E4306EB0020B0FBFD
:10075000F2F208FB01F009FB02F1B0FBFCF0B1FB87
:10076000F3F100E011E094F84530984A02EBC3033E
:1007700043F8080C94F8453002EBC30242F8041C1D
:10078000A880E98003B0BDE8F08F03EB4A0211892D
:10079000614588BF081A38BF08447FF47EAF97E7E9
:1007A00094F8453013F800C0BCF1FA0F3CBF0CF1CF
:1007B000010C03F800C094F84530185C3C28A1D324
:1007C0000198090A120A90F8420002287E4800683F
:1007D00018D3B0F818A0B0F81AC00AFB08F3B0F8A4
:1007E00010800CFB09F9408AB3FBF8F30AFB06FA08
:1007F0000CFB07FCB9FBF0F9BAFBF8F8BCFBF0FC0A
:10080000B34617E0B0F814A0B0F816C00AFB08F31E
:10081000B0F810800CFB09F9408AB3FBF8F30AFB2F
:1008200006FA0CFB07FCB9FBF0F9BAFBF8F8BCFBC5
:10083000F0FCB346A1F1010000FB0830B0FBF1F37E
:10084000A2F1010000FB0C90B0FBF2F25E480168DF
:10085000B1F8109009FB03F009D3B1F81890B1F882
:1008600012A0B0FBF9F00AFB02F9498B08E0B1F8DD
:100870001490B1F812A0B0FBF9F0C98A0AFB02F992
:10088000B9FBF1F1434518BF62457FF46AAF4345B8
:1008900008BF5846624508BF394662E72DE9F04F68
:1008A00090F845C08FB04FF4806300290CBF484CCE
:1008B000484C04EB4C14484D029205EB4C1705F5DF
:1008C000A5756544203C15F8015C07EB051606EBA1
:1008D000C10858F8206C921B039290F89520022AC8
:1008E0001CBF90F85F00012869D058F81C8C04EBFD
:1008F000051206EB0809CDF83890D2F80490D668B6
:100900009568106809EB0602DFF8D090284410447F
:10091000D9F800A035445044D9F804A0DFF8C0B09D
:100920005244D9F808A0D9F80C9055444E44DDF84B
:1009300008A0DDF83890AAEB0909CDF82090DDF881
:100940000C90A9EB0809CDF82C90DBF800908144BD
:10095000CDF82890DBF8049009EB020ADBF8089048
:10096000DBF80CB0A9440BEB060EDDF828B00BFB4E
:100970000EFB0AFB19BB9BFBF3FBBBF1000F08BF8F
:100980004FF0010B4FEA8E2E4FEA8A2A9AFBFBFAB0
:100990004FEA892999FBFBF99EFBFBFECAF1000A8D
:1009A000CDF834A0DDF828A0C9F100094FEA8A2A61
:1009B0009AFBFBFB00FB0EFA02FB09AA12E081E0A6
:1009C000A8240110DD2B011090870010582401107D
:1009D000E82B0110282D0110682E01101C87001033
:1009E0002C8700109AFBF3FACDF828A0DDF834A08C
:1009F00000FB0AFA02FB0BAA9AFBF3FACDF824A03B
:100A000005FB0EFA06FB09A999FBF3F9DDF834A002
:100A1000CDF8309005FB0AF906FB0B9999FBF3FB27
:100A2000DDF828A0DDF820900AFB09FEDDF824A0FF
:100A3000DDF82C900AFB09EEDDF820A0DDF83090FF
:100A40009EFBF3FE09FB0AFADDF82C900BFB09A9CB
:100A500099FBF3F9DDF838A0C844F244CDE900A8C9
:100A6000DDF828A0CBF5806ECAF5806808FB00FB96
:100A7000DDF824A0DDF83090CAF1000AC9F10009C0
:100A80000AFB05BB08FB02F809FB00F00AFB06881D
:100A90000EFB05009BFBF3FB98FBF3F890FBF3F0D8
:100AA000CDF810B0CDE9058009FB02F00EFB060081
:100AB00090FBF3F00790F9480022E84604AE00EB03
:100AC0000C0315E0F54A00206244039012F8012C53
:100AD00002AB07EB021202EBC10253F8204002EB1B
:100AE0008005401C00B245F8204C0228F5DB20E0D0
:100AF00013F8015C58F8220007EB051505EBC1055A
:100B000005EB820545F8200C002006EBC20513F822
:100B100001AC55F8209004EB0A1A0AEBC20A4AF815
:100B20002090401C00B20228F1DB501C02B2022AC5
:100B3000DEDBDA48604410F8010C07EB001000EB34
:100B4000C10050F8200C0FB0BDE8F08F2DE9F04F38
:100B5000ADF2BC5D0FFA81F90124DDF8E4C5DDF8E2
:100B6000E085CA46694600284BD032F81A00CDF815
:100B7000AC05BCF1010012D441F8204001EB800625
:100B800032F81A50C6F8D052AAF101050FFA85FAC8
:100B9000BAF1000FB8BFA8F1010A401EECD500243D
:100BA00025464846BCF101020FD433F8107051F8C5
:100BB0002260401E7E43341900B245EBE6750028E2
:100BC000B8BFA8F10100521EEFD500263746BCF190
:100BD000010061D401EB800233F819A0D2F8D022D1
:100BE000A9F1010902FB0AF296190FFA89F947EBFC
:100BF000E277B9F1000FB8BFA8F10109401EE9D5AD
:100C00004AE033F81A00CDF8AC05BCF1010012D46B
:100C100041F8204001EB800633F81A50C6F8D05254
:100C2000AAF101050FFA85FABAF1000FB8BFA8F1D1
:100C3000010A401EECD5002425464846BCF10103BC
:100C40000FD432F8107051F82360401E7E433419DF
:100C500000B245EBE6750028B8BFA8F101005B1EA5
:100C6000EFD500263746BCF1010015D401EB800317
:100C700032F819A0D3F8D032A9F1010903FB0AF325
:100C80009E190FFA89F947EBE377B9F1000FB8BF66
:100C9000A8F10109401EE9D54FF000084046CDF803
:100CA000A085BCF1000F0EDD51F82020DDF8A03545
:100CB000524312EB080843EBE27200F10100CDF859
:100CC000A0258445F0DC002296461046CDF8A425E8
:100CD000BCF1000F13DD01EB800351F82020D3F8A5
:100CE000D032DDF8A4955A434FEAE27A12EB0E0EA9
:100CF0004AEB0903401CCDF8A4358445EBDC4FF0EA
:100D00000009CA464846BCF1000F0EDD01EB800227
:100D100051F82030D2F8D02200F101005A4312EBF2
:100D200009094AEBE27A8445F0DC002003460246DA
:100D3000BCF1000F0DDD694601EB8001D1F8D01246
:100D400049434FEAE17B8A184BEB0303401C84457F
:100D5000F1DC1046CDF8B025A8FB002CDDF8A0157D
:100D6000CDF8B43501FB00C0AEFB09CBDDF8A4150E
:100D7000CDF8B81508FB030301FB09B10EFB0A10FF
:100D8000B2EB0C0163EB0000CDF8A405CDF8A8157B
:100D900008433DD0DDF8B005DDF8B425A0FB041311
:100DA000AEFB06CB02FB0432DDF8B83500FB0522B2
:100DB00003FB06B30EFB0733B1EB0C0062EB030140
:100DC000DDF8A435DDF8A8250BF0EAFEDDF8E8151E
:100DD0000860A8FB0602DDF8A01501FB0621A9FBAF
:100DE00004230AFB043308FB071109FB0533801AAF
:100DF00061EB0301090441EA10410004DDF8A43568
:100E0000DDF8A8250BF0CCFEDDF8E815486006E01B
:100E1000DDF8E81500200860DDF8E8154860DDF829
:100E2000E805D0E90012DDF8AC05504311EB204095
:100E300048BF00200DF2BC5DBDE8F08F2DE9F04FFA
:100E400089B01F4690460E46044604F0CFFF089036
:100E5000007B00281CBF1422022115D094F83A30E0
:100E600094F845C0012B1FD0002804BF0C48056929
:100E700024D00C480068438A408BC3EB0313B3FBB8
:100E8000F0F000FB00F519E008993C2291F84210BF
:100E900002292CBF03210F21E0E70000A82F011039
:100EA000D086001090870010FE4864250068438AB1
:100EB000408B6B43B3FBF0F000FB00F5FA4B94F86A
:100EC00095A00020A3F1320BA3F11409BAF1020F8F
:100ED00018BFBAF1010F32D10BEB0C0A0AF8010C62
:100EE00009EB0C0A0AF8010C8AF80900DFF8BCA328
:100EF000E2440AF8010C8AF8090003EB4C0A2AF8CC
:100F0000020CAAF81200DFF8A8A386F87000E244E9
:100F100084F870000AF8010CDFF898A3E2440AF89C
:100F2000010CDFF894A3E2440AF8010CDFF88CA36B
:100F3000E2440AF8010CA4F85880A4F85A70E3447B
:100F4000DFF87CA3CDF804B01BF801BC0AEB0C1E43
:100F50000EEB4B0ACDF800B02AF8108CAAF890706E
:100F600094F895A0BAF1020F00F004814FF0000A46
:100F7000CDF810A0CDF808A0DDF800A00AF1070A0E
:100F80000AF0070A0EEB4A0A3AF810BCBAF890A029
:100F9000A8EB0B08A7EB0A0AC24F3F68B7F818B0D6
:100FA0000BFB08F8B7F810B098FBFBFBB7F81A80FA
:100FB0007F8A08FB0AF898FBF7F70397BBF1000F4D
:100FC00006DD03EB4C074FF0020827F8020C18E08F
:100FD00006DA03EB4C074FF0010827F8020C10E08B
:100FE000B24F674417F8018C03EB4C0737F802AC9B
:100FF000BAF1640F05D20AF1010A27F802AC012701
:101000000497039F002F06DD03EB4C0A4FF0040703
:10101000AAF8120019E006DA03EB4C0A4FF00307B6
:10102000AAF8120011E0A14F03EB4C0E6744BEF882
:1010300012A07F7ABAF1640F07D20AF1010AAEF862
:1010400012A04FF0010ACDF808A0DFF860A2E24438
:101050001AF801ECBEF1000F4CD0C64524D103EBC9
:101060004C0B3BF802BC934509EB0C0B40D8CDF878
:1010700014B01BF801BCBBF1640F3BD2DDF810E0EB
:10108000BEF1000F36D10BF1010BDDF814E00BF0CF
:10109000FF0BBBF10A0F0EF801BC2BD3DFF810B227
:1010A000E3440BF8010C25E009EB0C0ECDF814E03D
:1010B0001EF801ECBEF1050F13D2DFF8F4E1E644AF
:1010C000CDF810E01EF801ECBEF1640F0ED2BBF1BA
:1010D0000A0F0BDB0EF1010BDDF810E00EF801BC7E
:1010E00004E0DFF8CCB1E3440BF8010CDDF814B0F8
:1010F0000BF8010C9AF809B0BBF1000F36D0BB45D4
:101100001CD103EB4C035B8A934284BF09EB0C02B6
:1011100050722BD809EB0C035A7A642A26D2DDF8D8
:1011200008B0BBF1000F21D1521CD2B25A720A2A68
:101130001CD3604A624402F8010C17E009EB0C0270
:10114000537A052B5B4B634436BF13F801BC03F89D
:10115000010CBBF1640F08D2DDF80CE0BEF10A0F00
:10116000A4BF0BF1010B03F801BC50720AF8018C0B
:101170008AF80970009A019B521CD2B203F8012C24
:101180004FF0010B082A09D3019A02F8010C96F8D6
:101190007020002A08BF86F870B006E096F870202C
:1011A000002A08BF84F870007AD0454E00231A4602
:1011B00006EB0C1707EB4206521C36F8106C92B285
:1011C0003344082AF6D34FEAD30800231A46EA46E6
:1011D00007EB420636F8106CA6EB080676434AF891
:1011E0002260521C92B23344082AF1D34FEAD30E44
:1011F000344E00231A4606EB0C1707EB4206521C2E
:1012000036F8106C92B23344082AF6D34FEAD30A68
:1012100000231A46E84607EB420636F8106CA6EBA8
:101220000A06764348F82260521C92B23344082AD8
:10123000F1D3DA080326754528BF954208D309EB98
:101240000C0212F8013C082B9CBF527A082A0ED9D6
:10125000194984F87060614401F8010C1749614430
:1012600001F801BC94F8701003293CD018E0124A30
:10127000624412F8013CC82B3CBF5B1C02F8013CE5
:101280000E4B634413F8013C012B06D112F8012CDC
:101290008A4298BF84F8706025D9022184F87010C2
:1012A000034911E090870010A63101107E31011032
:1012B000CE310110D8310110E2310110D42B0110D0
:1012C00034300110D4300110614401F8010CFE49A2
:1012D000614401F8010C94F8700003281EBF042833
:1012E00009B0BDE8F08F089880F89AB509B0BDE85C
:1012F000F08F2DE9F007F54CDDE9077C24680E88B6
:10130000658A648BC5EB0515AD00B5FBF4F81D8847
:101310003B8890F895701488032F45D190F845705C
:10132000DFF8AC9309EB470737F802ACBAF1050FC9
:101330003AD2BAF1000F1AD0A1F800C0E11A138016
:101340000029B8BF494241459CBFBDE8F00770473E
:1013500065451CBFBDE8F0077047052190F84500C2
:1013600009EB400020F8021CBDE8F00770474FF081
:10137000010A27F802ACAE4208BF002705D0E71AE1
:101380003F04A6EB050A97FBFAF77E43A1F800C0DD
:10139000A4EB2646002FA4EB03011CBF0CFB07F3B4
:1013A00006EB23431380CBE7A1F800C0BDE8F007AC
:1013B00070472DE9F74F98B019980088ADF83C00B8
:1013C00019984088ADF8340004F010FD009018988A
:1013D00090F8454090F89500022804BF204600F0A0
:1013E000CEFFBC48BF4A2044139010F8015CBA48B5
:1013F000BD4B204400F8015CB84800EB4408001DD8
:1014000038F8021C00EB4400169020F8021CC8B209
:10141000B34901EB040B1BF8011CF9B1691CC9B2FB
:10142000282927D304EB840103EB011101EB450CC0
:1014300031F8507C3CF8506CBE1B02EB840747F837
:10144000046CBCF850C0B1F85010A1EB0C0C02F1C8
:10145000080101EB840141F804CC26E002EB840C86
:1014600000214CF8041CDFF884C20CEB840C4CF80F
:10147000041C1AE004EB840C03EB0C1C0CEB410184
:1014800031F850CC31F8526CACEB060C02EB840610
:1014900046F804CCB1F850C0B1F84E10ACEB010CDA
:1014A000924901EB840141F804CC04EB840103EB85
:1014B000011606EB4501BDF83CC021F850CCBDF843
:1014C0003430A1F85030C4EB041101EB41078849D6
:1014D000272D01EBC70707EB4001A1F5805EAEF8B1
:1014E00098CEA1F8683104BF01210BF8011CB32884
:1014F00004D180490120214401F8010C189890F88A
:101500009500022853D0002D1CBF681EC0B25FD0CA
:1015100006EB4000B0F8501030F8509CA3EB0101EE
:101520001BF8013CACEB09000193002B57D0724B28
:10153000002803EB840C5CF8049CACBF03464342D8
:1015400009EB030A6D4B4CF804AC03EB8403002950
:1015500053F804ECB4BFC1F100098946F14402EB31
:10156000840243F8049C52F8042C002AB8BF52426B
:10157000AAEB02024CF8042C5C4A02EB840252F8FB
:10158000042C002AB8BF5242A9EB020243F8042CF3
:101590004E4A1268138B5843138A90FBF3F9508B11
:1015A0004843518A90FBF1FA0198002830D0544802
:1015B00002212044129000F8011C5248204403905C
:1015C00000F8011C189890F87000032849D145E0F4
:1015D0001BF8010C01280CBF2720284698E7464A33
:1015E000002802EB840252F804CCB4BF4342034605
:1015F000634442F8043C414A002902EB840252F859
:1016000004CCB4BF4B420B46634442F8043CBFE7F2
:101610003D48B9F1000F00EB440030F8022CB4BF94
:10162000C9F1000149468A4207DAB9F1000FACBF9F
:101630004946C9F1000120F8021C4288BAF1000FA6
:10164000B4BFCAF1000151468A42B0DABAF1000FC4
:10165000ACBF5146CAF100014180A8E704F0A0FCEC
:1016600068B1204600F08BFE1998BDF83C108180CF
:101670001998BDF83410C1801BB0BDE8F08F1BF87D
:1016800001BCBBF1010F05D0BBF1000F40D1681CBC
:1016900007283DD3B9F1280FD8BFBAF1280F09DCCC
:1016A000194800EB440030F8021C28299CBF4088F0
:1016B00028282ED90098007B002829D012990320D1
:1016C00001F8010C039921E0D83101109087001036
:1016D000EC310110D2860010D4860010E486001090
:1016E000D6860010F4860010F4240110FC86001049
:1016F00034260110D88600100C87001014870010C3
:10170000E0240110EA2401100487001001F8010C04
:10171000A4E0BDF83C00ADF83800BDF83400ADF8E9
:101720003000FF484FF0000900EB840050F8041C23
:10173000FC4800EB840050F8040C8142C8BF4FF015
:101740000109A6F15002002004900590069006F1D0
:10175000500329464FF0280E0790089009900A90F0
:101760000B90BBF1000F14BF4FF01E0A01F1010AEC
:10177000BAF1050F69D94FFA81FC0CF1010080B272
:10178000282828BF0020BBF1000F44D032F810B049
:10179000CDF810B033F810000590BCF1140048BF2C
:1017A000283032F810C0CDF818C033F81000079078
:1017B0000DF1400B0AF0FF00CDF800E0CDE9010B80
:1017C0004846FFF7C3F90890BDF83C001490BDF8F7
:1017D00034001590D4480068418A428BC1EB011156
:1017E000B1FBF2F10991418A428BC1EB0111B1FBCE
:1017F000F2F10A91418A408B01EB81014900B1FB72
:10180000F0F00B90B9F1000F04AA14D015A910A89C
:1018100000F0F8FD13E0B2F800C0CDF810C0B3F846
:1018200000C020F00100CDF814C032F800C0CDF89F
:1018300018C0185ABBE714A910A800F03FFE14996D
:10184000ADF83C101599ADF83410012820D012994C
:10185000002001F8010C039901F8010C1398139969
:1018600010F8010C401CC0B201F8010C282803D369
:101870001399002001F8010C38F8020C401C80B2CA
:1018800028F8020CB42824BF002028F8020CEBE64C
:10189000A648C1681A9881427DD91698CB46A7F50B
:1018A000B47210F8021CA24807F5B47320441690D5
:1018B00010F801CC0020B424049005900690079005
:1018C000089009900A900B90BCF1000F14BF4FF0E4
:1018D000AA0901F10109B9F1050F67D94FFA81FA97
:1018E0000AF1010080B2B42828BF0020BCF1000F2B
:1018F000944640D03CF810C0CDF810C033F810002A
:101900000590BAF15A0048BFB43032F810C0CDF893
:1019100018C033F81000079009F0FF00CDE900402F
:101920000DF1400CCDF808C05846FFF70FF90890AC
:10193000BDF838001490BDF8300015907A48006862
:10194000418A428BC900B1FBF2F10991418A428B75
:10195000C900B1FBF2F10A91418A408BC900B1FB89
:10196000F0F00B90BBF1000F04AA15D015A910A838
:1019700000F048FD14E0BCF800C0CDF810C0B3F88A
:1019800000C020F00100CDF814C032F800C0CDF83E
:1019900018C0185ABFE738E014A910A800F08EFD4F
:1019A0001499ADF838101599ADF83010012834D0DD
:1019B000681CC4B2C4F1280906EB440A4FEA490284
:1019C000AAF150019346A7F5B4700BF0E4F80AF1C0
:1019D00050015A4607F5B4700BF0DDF807EB4907E4
:1019E0006400A7F5B470A6F1500122460BF0D3F8BD
:1019F00007F5B47006F1500122460BF0CCF81699A9
:101A0000002001F8010C28F8025C1299012001F86D
:101A1000010C039901F8010C20E7BDF83800BDF86E
:101A20003C1008444008ADF83C00BDF83000BDF85B
:101A3000341008444008ADF83400E6E72DE9F04FD3
:101A40008DB0044600F076FD049000F076FD0A901B
:101A500001200B9004F0E6F9074604F0C7F909905D
:101A600094F8455004F0C2F994F8459000210126FD
:101A70008DF819108DF818608DF81760017BDFF86C
:101A8000A88000291CBF017D012913D0D8F80010BF
:101A9000086FC0F3C0428DF81420C0F340408DF8A9
:101AA0001500086F2246C0F380408DF816004946A5
:101AB00002201CE0D8F8002092F87010C1F3C00397
:101AC0008DF81430C1F340018DF8151092F87010A4
:101AD000C1F380018DF81610007D01287ED004F03E
:101AE000C9F910F4817F7AD0224649460120FEF7D9
:101AF00053FB0D48D0F8008098F8700010F0010FEB
:101B000000F02C8394F84600B4F850A0ADF808A07B
:101B1000B4F852C0ADF80AC000EB40010AE0000082
:101B20000C8700101487001090870010D0860010DA
:101B3000D886001001EB001007EBC000089094F865
:101B4000952094F84500FE49022A1CBF94F85F20B6
:101B5000012A00EB400073D001EB800232F80A3C0E
:101B600022F8083C32F80C1C22F80A1C22F80CACB3
:101B700032F8049C22F8029C32F8067C22F8047C9D
:101B800022F806CC1FFA8AF262F30F0061F31F40BD
:101B90008A4284BF61F30F0062F31F40010C994237
:101BA00088BF63F31F4081B2020C914284BF62F38D
:101BB0000F0061F31F404FEA104A6CF30F0067F308
:101BC0001F40BC4584BF67F30F006CF31F40010C3E
:101BD000494588BF69F31F4081B201E021E024E05C
:101BE000020C914284BF62F30F0061F31F404FEA81
:101BF000104C9DF81400ADF80CA0ADF80EC00128F3
:101C000001BF94F893000028ADF808A0ADF80AC011
