:100000005446495300010000B87E020075DA37CB30
:1000100010410122180314125339505910410202A1
:1000200018031412533950591041011118031412B6
:100030005339505903000000000000000000000088
:100040005446435300200000E85502000000000021
:10005000008001100121000025210000F5DF0100D2
:10006000292100002B2100002D2100003D2100004E
:100070003D2100003D2100003D2100002F21000016
:10008000312100003D21000033210000155D0000FA
:10009000FB5D0000372100003D210000114D0010E4
:1000A00037210000054100000B4100003D21000008
:1000B0003D2100004F590000AD50000011410000EB
:1000C000D5560000372100003D2100003D210000F1
:1000D0000000000000000000000000000000000020
:1000E0000000000000000000000000000000000010
:1000F0000000000000000000000000000000000000
:1001000000000000000000000000000000000000EF
:1001100000000000000000000000000000000000DF
:1001200000000000000000000000000000000000CF
:1001300000000000000000000000000000000000BF
:1001400000000000000000000000000000000000AF
:1001500000F003F800F020F8FEE70D480168890878
:100160008900002001C101C101C101C17047000027
:10017000B4560010FEE7FEE7FEE7FEE7FEE7FEE707
:10018000FEE7FEE7FEE703480047FEE7FEE7000064
:10019000202100003D21000000F002F800F068F886
:1001A0000AA090E8000C82448344AAF10107DA45D2
:1001B00001D100F05DF8AFF2090EBAE80F0013F0BC
:1001C000010F18BFFB1A43F001031847F0FB0100B1
:1001D00060FC01000A444FF0000C10F8013B13F0E2
:1001E000070408BF10F8014B1D1108BF10F8015B90
:1001F000641E05D010F8016B641E01F8016BF9D183
:1002000013F0080F1EBF10F8014BAD1C0C1B09D1D9
:100210006D1E58BF01F801CBFAD505E014F8016B4B
:1002200001F8016B6D1EF9D59142D6D370470000DD
:10023000103A24BF78C878C1FAD8520724BF30C812
:1002400030C144BF04680C607047000000230024E4
:1002500000250026103A28BF78C1FBD8520728BFD6
:1002600030C148BF0B6070471FB51FBD10B510BD32
:10027000DFF80CD0FFF7F8FF05F01EFC1BF0D4FEF2
:100280000080011003B4FFF7F1FF03BC1BF0D4FEA4
:1002900008B5002103200B460A4600911AF08CF99C
:1002A00008BD38B5FE4D0024AC81EC812C821AF0DB
:1002B00056F92862FF206872FA48234622460460F5
:1002C000446004720120A872AC612C706C70032031
:1002D000214600941AF070F9012038BD38B5F04D70
:1002E00002286C7A22460DD0052810D0A24208BF01
:1002F00038BD002003460246214600901AF05CF902
:100300006C7238BD022914BF01240224EEE70229D1
:1003100014BF64246524E9E738B513460A464FF054
:10032000010C00240146604600941AF045F938BDDE
:1003300038B500240BF04AFF002818BF012410F044
:1003400048FD002818BF0224D5484178A14208BFC3
:1003500038BD4470032000230146224600931AF062
:100360002BF938BDCE498A78824208BF704708B55C
:1003700002008A704FF003004FF0020118BF012203
:10038000002300931AF018F908BDC5490120C87070
:100390007047C348C0787047C1490020C870704793
:1003A0002DE9F04104460127002503F00700BC4E6B
:1003B0008846012804BF0020308246D0022844D15C
:1003C000308A04280BD2002818BFF06902D11AF035
:1003D00056FAF06110F8011B2170F0612EE006283A
:1003E00008D21AF04EFA318AC1F10501C900C8409D
:1003F000207023E0082808D21AF047FA318AC1F1A8
:100400000701C900C840207018E00C2808D21AF073
:10041000A6F8318AC1F10B01C900C84020700DE077
:100420000E2808D21AF09DF8318AC1F10D01C900D9
:10043000C840207002E0FF2020700027308A401C56
:1004400080B230820E2828BF012588F80050384637
:10045000BDE8F08130B403F007000024DFF840C2AB
:1004600001280BD06046BCF810308089022B0CD2DA
:10047000120242EA1020ACF80C0010E0ACF80C407C
:10048000ACF80E40ACF810400CE01844851EB5F5F1
:10049000806F04DADCF82050284400F8022C581C45
:1004A000ACF810000C7030BC00207047F0B4074668
:1004B000002003F007047A4D0646012C04BF2E826B
:1004C0006E6125D0DFF8D8C1022CBCF80EC003D075
:1004D00013F0070F0DD01BE02A8A0CEB0203B3F5D3
:1004E000806F15D2286AC05C3870501C28820120A9
:1004F0000EE0120242EA1C22EA816B69012B05D14F
:10050000B2F5806F24BF40F2FF32EA815A1C6A6163
:100510000E70F0BC704738B503F0070000240D469C
:1005200001280AD15E4821460B4604828481C48199
:1005300002200A4600941AF03FF82C70002038BDC3
:1005400030B50C0058A183B009684FF00002029149
:1005500008BF03250AD0217802AB5D5C002D18BFCF
:10056000022D41D0012D7ED0032D0DD10F21017020
:100570000321417042808280C28002814281828157
:10058000817B21F001018173002D1EBF012D03B07D
:1005900030BD05F0A5FA05281CBF03B030BD0BF037
:1005A000BAFB042804BF03B030BD002D0CBFC0202F
:1005B000C1208DF8000060788DF80100608801236B
:1005C000000A8DF80200A0788DF80300A0880622AA
:1005D000000A8DF8040020798DF80500694607208F
:1005E0000FF0DCFD03B030BD617800EB011202F8C2
:1005F000101C617800EB011101F80F5C62786188D2
:1006000000EB021222F80E1C6278A18800EB0212A5
:1006100022F80C1C6278A17900EB021222F80A1C65
:100620006278217A00EB021222F8081C6278617A63
:1006300000EB021222F8061C6278217B00EB02120A
:1006400022F8041CE1790529617800EB011010F80B
:10065000021C0EBF41F0010121F0010100F8021C53
:1006600092D139E0FFE7617800EB011303F8101C29
:100670006378012100EB031303F80F1C6378618892
:1006800000EB031323F80E1C6378A18800EB03131F
:1006900023F80C1C617800EB011121F80A2C05E00D
:1006A00000840010F487001003000201617800EB61
:1006B000011121F8082C617800EB011121F8062CBA
:1006C000617800EB011121F8042C617800EB011036
:1006D00010F8021C21F0010100F8021C54E76449E3
:1006E0000020087170476248007970476049012016
:1006F000087170475F4A1154704710B582B0017895
:100700008DF8001041788DF8011081788DF8021075
:10071000C1788DF8031001798DF8041041798DF8B6
:10072000051080798DF8060000248DF8074016F03A
:100730002BFC002804BF9DF800004A2806D19DF834
:1007400001104B48002918BF047004D068461BF004
:1007500089FC02B010BD012101708169491C8161D1
:10076000F4E770474249002818BF0120887270479B
:100770003F48807A70473E484079704708B5002866
:1007800014BF012200223A48012142710320002AAD
:1007900018BF01220023009319F00EFF08BD344852
:1007A0004079704732498871704731488079002814
:1007B00018BF0120704701460020072904BF2E48BA
:1007C0007047082908BF2D48704710B44FF0000C3F
:1007D000072808BFDFF8A0C003D0082808BFDFF84B
:1007E0009CC04FF0000093B1002A9CBF10BC704722
:1007F0003CF9103031F91040234403EBD3735B1004
:100800002CF81030401C8242F2D810BC7047002AED
:100810009CBF10BC704731F810302CF81030401CD1
:100820008242F8D810BC704711480078002818BFE1
:10083000012070470E48806970470D4988617047F4
:10084000002818BF01200A49C87170470848C079BC
:10085000002818BF01207047002818BF0120044954
:10086000087270470248007A002818BF01207047BC
:1008700000840010F487001006880010FE87001026
:100880007047FE48D0F8500300F00100704770B583
:10089000FA4D04000AD001F0CBFB38B9D5F850036B
:1008A00010F0010F1CBF0020A86005D10120A86036
:1008B000002C08BF002000D00120286270BDEF4846
:1008C000006A002818BF01207047C00000F1804076
:1008D00000F5A04041637047C00000F1804000F582
:1008E000A040006B00F4807070471021C00000F140
:1008F000804000F5A04041637047E049D1F84021B5
:1009000060F30D22C1F840217047DC48D0F8400167
:10091000C0F30520704700F00F0202EB4202920183
:10092000C0F3031002EB801000F1804000F5A040FE
:100930000029D0F8401114BF41F0010121F001015C
:10094000C0F84011704700F00F0101EB410189012F
:10095000C0F3031001EB801000F1804000F5A040CF
:10096000D0F8400100F00100704700F00F0202EBE8
:1009700042029201C0F3031002EB801000F18040AC
:1009800000F5A0400029D0F8401114BF41F0020149
:1009900021F00201C0F84011704700F00F0101EB97
:1009A00041018901C0F3031001EB801000F1804088
:1009B00000F5A040D0F84001C0F340007047AF49B7
:1009C00000230B6202680A6042684A6082688A609B
:1009D000C268CA60426A0A64826A4A6402698A61B9
:1009E0004269CA61826B0A66826C0A67C26C4A6796
:1009F000026D8A67426DCA67826DC1F88020C26D40
:100A0000C1F88420026EC1F88820426EC1F88C20A3
:100A1000426FC1F8B020C26FC1F8B820C26EC1F8F1
:100A2000A820D0F89422C1F85023D0F89822C1F819
:100A30005423D0F89C22C1F85823D0F8A022C1F842
:100A40005C23D0F88420C1F8F020D0F88820C1F8C9
:100A5000F420D0F88C20C1F8F820D0F89020C1F80C
:100A6000FC2021224A63CA63C2694A62C26A8A645C
:100A7000026BCA64026FC1F8AC20026ACA62426BA0
:100A80000A65C26B4A66026C8A66426CCA66826FED
:100A9000C1F8B420D0F88020C1F8BC20D0F8A4223E
:100AA000C1F86023D0F8A822C1F86423D0F8AC22A2
:100AB000C1F86823D0F8B022C1F86C23D0F8B42272
:100AC000C1F87023D0F8B822C1F87423D0F8BC2242
:100AD000C1F87823D0F8C022C1F87C23D0F88C224A
:100AE00022F48032C1F84023D0F89022C1F84C2380
:100AF000D0F89420C1F80021D0F89820C1F8042142
:100B0000D0F89C20C1F80821D0F8A020C1F80C2111
:100B1000D0F8A420C1F81021D0F8A820C1F81421E1
:100B2000D0F8C820C1F83421D0F8AC20C1F8182181
:100B3000D0F8B020C1F81C21D0F8B420C1F8202191
:100B4000D0F8B820C1F82421D0F8BC20C1F8282161
:100B5000D0F8C020C1F82C21D0F8C420C1F8302131
:100B6000D0F8CC20C1F84021D0F8D020C1F84421E1
:100B7000D0F8D820C1F84C21D0F8E420C1F8602189
:100B8000D0F8E820C1F86421D0F8EC20C1F8682141
:100B9000D0F8F020C1F86C21D0F8D420C1F8482159
:100BA000D0F8DC20C1F85021D0F8E020C1F8542161
:100BB000D0F8F420C1F87021D0F8F820C1F87421E1
:100BC000D0F8FC20C1F87821D0F80021C1F87C21B0
:100BD000D0F83C21C1F8C021D0F84021C1F8C4218F
:100BE000D0F84421C1F8C821D0F84821C1F8CC215F
:100BF000D0F84C21C1F8D021D0F85021C1F8D4212F
:100C0000D0F87021C1F8F421D0F85421C1F8D821CE
:100C1000D0F85821C1F8DC21D0F85C21C1F8E021DE
:100C2000D0F86021C1F8E421D0F86421C1F8E821AE
:100C3000D0F86821C1F8EC21D0F86C21C1F8F0217E
:100C4000D0F87421C1F80022D0F87821C1F804222C
:100C5000D0F88021C1F80C22D0F88C21C1F82022D4
:100C6000D0F89021C1F82422D0F89421C1F828228C
:100C7000D0F89821C1F82C2202E00000005000407A
:100C8000D0F8AC21C1F84022D0F8B021C1F84422FC
:100C9000D0F8B821C1F84C22D0F8C421C1F86022A4
:100CA000D0F8C821C1F86422D0F8CC21C1F868225C
:100CB000D0F8D021C1F86C22D0F87C21C1F80822EC
:100CC000D0F88421C1F81022D0F88821C1F814226C
:100CD000D0F89C21C1F83022D0F8A021C1F83422EC
:100CE000D0F8A421C1F83822D0F8A821C1F83C22BC
:100CF000D0F8B421C1F84822D0F8BC21C1F8502264
:100D0000D0F8C021C1F85422D0F8D421C1F8702203
:100D1000D0F8D821C1F87422D0F8DC21C1F87822AB
:100D2000D0F8E021C1F87C22D0F8E421C1F880227B
:100D3000D0F8E821C1F88422D0F8EC21C1F888224B
:100D4000D0F8F021C1F88C22D0F8F421C1F890221B
:100D5000D0F8F821C1F89422D0F81822C1F8B422B2
:100D6000D0F8FC21C1F89822D0F80022C1F89C22CA
:100D7000D0F80422C1F8A022D0F80822C1F8A42299
:100D8000D0F80C22C1F8A822D0F81022C1F8AC2269
:100D9000D0F81422C1F8B022D0F81C22C1F8C02229
:100DA000D0F82022C1F8C422D0F82822C1F8CC22E1
:100DB000D0F83422C1F8E022D0F83822C1F8E42279
:100DC000D0F83C22C1F8E822D0F84022C1F8EC2249
:100DD000D0F85422C1F80023D0F85822C1F80423D7
:100DE000D0F86022C1F80C23D0F86C22C1F820237F
:100DF000D0F87022C1F82423D0F87422C1F8282337
:100E0000D0F87822C1F82C23D0F82422C1F8C822C7
:100E1000D0F82C22C1F8D022D0F83022C1F8D42248
:100E2000D0F84422C1F8F022D0F84822C1F8F422C8
:100E3000D0F84C22C1F8F822D0F85022C1F8FC2298
:100E4000D0F85C22C1F80823D0F86422C1F810233E
:100E5000D0F86822C1F81423D0F87C22C1F83023DE
:100E6000D0F88022C1F83423D0F88422C1F8382386
:100E7000D0F88822C1F83C23FD4A126832F0FF0CFA
:100E800005D1D1F890C062F3030CC1F890C0F94AC3
:100E90005370D0F8943213F0010F1CBF012353702C
:100EA000D1F8503323F00103C1F85033D0F8A43205
:100EB00013F0010F03D0537843F002035370D1F8BD
:100EC000603323F00103C1F86033D0F8B43213F07B
:100ED000010F03D0537843F004035370D1F87033FB
:100EE00023F00103C1F87033D0F8AC0210F0010F09
:100EF00003D0507840F008005070D1F8680320F01B
:100F00000100C1F868037047DA4800787047D94893
:100F100080787047D749C8707047D648C078704706
:100F2000D549D1F8542360F30902C1F8542370471E
:100F3000D148D0F85403C0F309007047CD49486048
:100F40007047CD48C06870472DE9F047DFF824931B
:100F5000054615F4003F99F8010099F8031000EADE
:100F6000010418BF24F0010415F4802F18BF24F0E9
:100F7000020415F4002F18BF24F0040415F4801F98
:100F800018BF24F00804DFF8F082D8F8400320F4FA
:100F90008030C8F8400314F00F0F65D0D9F8046012
:100FA000D8F84803002740F00100C8F84803D8F8F3
:100FB000480320F00100C8F84803D8F8400340F483
:100FC0008030C8F840034FF0630A0DE002F033FFB1
:100FD0005046D8F8481311F0010F01D0012703E063
:100FE000011EA0F10100F4DC301EA6F1010601DDB6
:100FF000002FEBD0BFB3D8F8500314F0010F0CBF93
:1010000020F0010040F00100C8F85003D8F8600358
:1010100014F0020F14BF40F0010020F00100C8F8E6
:101020006003D8F8700314F0040F14BF40F00100FF
:1010300020F00100C8F87003D8F8680314F0080F16
:1010400014BF40F0010020F00100C8F8680389F8DF
:101050000240012089F80000D8F8400340F48030B5
:10106000C8F840033AE0FFE7D8F8500320F0010049
:10107000C8F85003D8F8600320F00100C8F86003F6
:10108000D8F8700320F00100C8F87003D8F868039E
:1010900020F00100C8F86803002089F80200ACB114
:1010A000022089F80000D8F8400340F48030C8F8E6
:1010B0004003D8F8480340F00100C8F84803D8F8C6
:1010C000480320F00100C8F8480307E0D8F84013AF
:1010D00021F48031C8F8401389F80000D8F84001A5
:1010E00015F0020F20F00D0018BF40F0010015F0C0
:1010F000080F18BF40F0040015F0040F18BF40F0AF
:101100000800C8F8400115F0010F21D001F0C7F91F
:10111000044601F0C7F90146D8F80C0000280EBFBC
:101120002046084621460028D8F8000214BF40F0A7
:10113000010020F00100C8F80002D8F840020029A0
:1011400014BF40F0010020F00100C8F840020BE09D
:10115000D8F8000220F00100C8F80002D8F84002D8
:1011600020F00100C8F8400215F0200F18BF00243D
:1011700017D0204601F09DF900284FEA841000F1B5
:10118000804000F5A040D0F8C01214BF41F001012A
:1011900021F00101C0F8C012641C022CE9D3BDE8A3
:1011A000F087D8F8C00220F00100C8F8C002D8F8D3
:1011B000000320F00100C8F80003BDE8F0872DE926
:1011C000F003024602F00F01002001EB41018C0107
:1011D000C2F3031104EB811101F1804101F5A0413B
:1011E000D1F8401111F0010F11D142F01001C1F3FB
:1011F000031104EB811101F1804101F5A041D1F807
:10120000401111F0010F04BFBDE8F003704702EB7D
:1012100042018E0106F1804101F5A041D1F824314F
:10122000C3F30809144BDB69D1F8001103F0080778
:101230001FFA81F8002142EA0113C3F3031304EB00
:10124000831303F1804303F5A043D3F8403113F037
:10125000010F20D006EB811303F1804303F5A04377
:10126000D3F844C1CCF3080517F1000C06E00000E8
:10127000E0FE030024840010005000401CBFD3F89F
:1012800044C1CCF3023CD3F8403105FA0CFCC3F363
:10129000054360441844491C0229CCD309EBC90119
:1012A00000FB08F001EB0911BDE8F00300EB410081
:1012B000704710B50120FFF782FF04460220FFF7B8
:1012C0007EFF044400F097FC20444FF47A714843B9
:1012D0004CF25031B0FBF1F010BD2DE9F041FE4E63
:1012E0000546306810F01F0408BF01240120FFF7F5
:1012F00066FF07460220FFF762FF074400F07BFC11
:101300003918F64F002D18BF002959D0D6F85003D0
:10131000002210F0010FF248A0FB05C04FEA501068
:1013200033D07823B3EB151F08D9D6F85C0320F02F
:101330000F0040F00100C6F85C0334E0D6F85433E7
:10134000DFF8A0C3C3F3090363436FF018056B43D1
:101350000CEB43034FEA101CB3FBF1F0102828BF3D
:101360000F20844598BF6046002808BF012005D0A3
:10137000012884BF00FB1132B2FBF0F2D6F85C33D7
:1013800060F30303C6F85C330DE0D6F85C33C0F3BA
:10139000031023F00F031843C6F85C03B7FBF5F006
:1013A000884288BF421A32206043B2FBF0F0B0F5A9
:1013B000005F28BF41F6FF70726860F30C02726034
:1013C0007068C0F30C00604300EBC00202EB001039
:1013D00001EB4000B7FBF0F0BDE8F081BE48D0F86B
:1013E000501311F0010F07D0D0F85C0300F00F008C
:1013F000C0EB00108001704770B50168406801F0D3
:101400001F05C0F30C060120FFF7D9FE0446022099
:10141000FFF7D5FE044400F0EEFB06FB05F1322297
:1014200001FB02410844AD49B1FBF0F070BDAA4890
:10143000D0F85C0300F00F007047A7494A684B687A
:10144000C2F30C0260F30C034B6010467047A248D5
:101450004068C0F30C00704700EB4000800100F1D1
:10146000804000F5A040D0F800019F4980B2B1FB58
:10147000F0F0401C4008704730B49B4B31B1B3FBD7
:10148000F1F1491C4A08B2F5804F01D343F6FF72CF
:10149000B3FBF2F1491C4D088F494FEA520C51F849
:1014A000803F096803F00704C1F3031300EB400118
:1014B000890101F1804101F5A04118B3D1F804017F
:1014C000DB1C634380B2A2EB4303D1F8004123F05D
:1014D000010362F30F04C1F80041D1F800216CF35D
:1014E0001F42C1F80021D1F8042160F30F02C1F8B6
:1014F0000421D1F8180163F30F00C1F81801284640
:1015000030BC7047DB1CACF106006343A0EB430327
:10151000DBE700EB4000800100F1804000F5A040D7
:10152000D0F80001000C704700EB4002920102F17C
:10153000804202F5A042D2F8003161F31F43C2F8A5
:101540000031002818BF7047634A52F8800F00F03E
:10155000070C52F81C0BC0F30313881FD91C01FBA6
:101560000CF1A0EB4101936E21F0010160F30F0338
:101570009366D06F61F30F00D067704700F00F01E2
:1015800001EB41018901C0F3031001EB801000F170
:10159000804000F5A040D0F84401C0F30800704737
:1015A00000F00F0202EB42029201C0F303104F4B16
:1015B00002EB801000F1804000F5A0409B58D0F86D
:1015C0004421CB1A61F30802C0F84421D0F8441139
:1015D0009B1E63F31841C0F8441170473E49C96926
:1015E000434A11F0100F00F00F0101EB41014FEAE7
:1015F0008111C0F3031001EB801000F1804000F571
:10160000A0405258D0F84401D2B2C0F3080008BF3D
:101610000022801A0004000C08BF01207047030953
:101620001B0203EB810101F1405101F5404100072C
:10163000C00E0B6802FA00F01843086070470209F8
:10164000120202EB810101F1405101F54041000716
:101650000968C00E21FA00F000F00300704700F0A6
:101660000F0303EB43039B01C0F3031003EB801054
:1016700000EB810000F1804000F5A040C0F850214F
:10168000704700F00F0202EB42029201C0F3031018
:1016900002EB801000EB810000F1804000F5A040DB
:1016A000D0F8500170470C4A0021D26912F0080F9F
:1016B00010D000F00F0101EB41018901C0F30310CC
:1016C00001EB801000F1804000F5A040D0F844010B
:1016D000C0F3023108467047005000400008AF2FA9
:1016E00089888888D8810C00A08601001C510040A0
:1016F00028510040F94AD36943F00803D36100F050
:101700000F0202EB42029201C0F3031002EB8010C1
:1017100000F1804000F5A040D0F8442161F30E3282
:10172000C0F844217047ED4A0021D26912F0080F39
:1017300010D000F00F0101EB41018901C0F303104B
:1017400001EB801000F1804000F5A040D0F8480186
:10175000C0F302410846704700F00F0202EB42025C
:101760009201C0F3031002EB801000F1804000F5FD
:10177000A040D0F8482161F31242C0F848217047D8
:10178000042988BF704710B40023D44CE26912F0DA
:10179000080F00F00F0202EB42024FEA8212C0F380
:1017A000031002EB801000EB04021CBFD2F84401CE
:1017B000C0F302330020D4F81CC01CF0080F1CBF7B
:1017C000D2F84801C0F30240C91A0844042803DDD6
:1017D000081A011D042003E00028BCBF01440020BA
:1017E0001944E36943F00803E361D2F8443161F33B
:1017F0000E33C2F84431D2F8481160F31241C2F8F6
:10180000481110BC7047B5490028886914BF40F0E2
:10181000080020F0080088617047B0488069C0F374
:10182000C0007047AD490028886914BF40F002002D
:1018300020F0020088617047A8488069C0F340002A
:10184000704700F00F0202EB42029201C0F3031056
:1018500002EB801000F1804000F5A040C0F84C1170
:10186000704700F00F0101EB41018901C0F3031043
:1018700001EB801000F1804000F5A040D0F84C0151
:101880007047964AD2F85C13022903D110F0010F79
:1018900018BF7047D2F8400110F0010F0BD0D2F8FA
:1018A0004C01D2F844110028C1F302311EBF0029B7
:1018B000C043C2F84C01012101EB410100204FEA75
:1018C000811C0CEB801101F1804101F5A041D1F8A0
:1018D000402112F0010F0BD0D1F84C21D1F8443146
:1018E000002AC3F302331EBF002BD243C1F84C21A0
:1018F000401C0228E5D37047784A0021D26912F0D3
:10190000080F10D000F00F0101EB41018901C0F375
:10191000031001EB801000F1804000F5A040D0F8EA
:101920004801C0F300510846704701207047F0B4E9
:10193000022ADDE9044C069E26BF921E52080022B0
:10194000022B26BF9B1E5B080023654DA5FB04549C
:101950002709BCF1020F0CBF0124002400F00F0581
:1019600005EB4505AD01C0F3031005EB801000F158
:10197000804505F5A045D5F86401002E61F31B6094
:1019800062F3144063F30C2067F307006CF38F30AD
:1019900014BF40F4005020F40050002C14BF40F459
:1019A000001020F40010C5F86401F0BC70472DE968
:1019B000F00700F00F0606EB4606B601C0F3031071
:1019C00006EB801000F1804000F5A040DDE90754EF
:1019D000DDF824C0D0F864010029C0F3036AC0F325
:1019E0000449C0F38137C0F34036C0F30428C0B2C5
:1019F00018BFC1F800A01AB14FEA4901891C116053
:101A00001BB14FEA4801891C19601DB100EB800031
:101A100080002860002C18BF2760BCF1000F18BFA1
:101A2000CCF80060BDE8F00770472C490028C86971
:101A300014BF40F0200020F02000C8617047274804
:101A4000C069C0F34010704770B491B000224FF4E9
:101A500080456C10EC4601E0082A05D2531C03EBCC
:101A60008303B5FBF3F304E0D31F03EB8303B4FB61
:101A7000F3F35B1A48BF5B424CF82230521C102A29
:101A8000EAD30026009B01215CF821209A42BCBFCA
:101A900013460E46491C1029F6D300F00F0101EB46
:101AA00041018901C0F3031001EB801000F1804176
:101AB00001F5A041D1F86801D1F8682100F00F00CC
:101AC00066F30302C1F8682108280BD2401C00EB22
:101AD0008000B5FBF0F011B070BC704700500040C2
:101AE000CDCCCCCCC01F00EB8000B4FBF0F0F2E713
:101AF00000F00F0101EB41018901C0F3031001EB7C
:101B0000801000F1804000F5A040D0F8680100F09E
:101B10000F00082834BF401CC01F00EB800034BFFA
:101B20004FF480414FF40051B1FBF0F0704710F0DA
:101B30000F0F08BF704700F00F0000EB400080015E
:101B400000F1804000F5A0400029D0F82C110CBF16
:101B500021F4803141F48031C0F82C11704700210C
:101B600010F00F0F0ED000F00F0000EB40008001CE
:101B700000F1804000F5A040D0F82C0110F4803F27
:101B800018BF01210846704700F00F0000EB40002D
:101B9000800100F1804202F5A042D2F83401C2F87F
:101BA000341170472F4B58679967DA6770472D4992
:101BB0000028D1F8AC0014BF40F0020020F0020071
:101BC000C1F8AC00704727490028D1F8AC0014BF19
:101BD00040F0010020F00100C1F8AC00704721483E
:101BE000D0F8E00070471F49C1F8E40070471D4875
:101BF000D0F89800704770B41A4E0020D6F8401103
:101C000011F0010F04BF70BC704711F0040FD6F83B
:101C1000242101F00805D6F800C1C2F308021FFA1A
:101C20008CF4D6F844C1CCF3080C18BFC1F30740BC
:101C3000F369C1F3052113F008031CBFD6F8443142
:101C4000C3F30233002D18BF491C0CFA03F301FB48
:101C50000300604302EBC20170BC01EB021100EB18
:101C60004100704700500040FEF729BE10B5FEF756
:101C700026FE012818BF10BD0020FEF708FE212116
:101C80000020FEF722FE2121BDE810400120FEF7D2
:101C90001CBE10B5FEF7F4FDFEF711FE01280AD1B7
:101CA0000020FEF7F4FD21210020FEF70EFE212189
:101CB0000120FEF70AFE0121052001F006FC0121AA
:101CC000052001F002FCFA490020C87110BD10B5D2
:101CD0004FF4066001F04FFCBDE810404FF4066081
:101CE00001F03ABCF24A01465079002818BF0120A1
:101CF000002918BF01215171002191717047EC4AF0
:101D0000516A506208467047E9490020087188709E
:101D100048707047E6490020087188704870704725
:101D200070B50007C00E0D46801E00EB400101EBB0
:101D30000014E0484FF4987200EBC40029461AF0F2
:101D400096F9DD4805F5987100EBC400BDE87040D8
:101D50004FF498721AF08BB92DE9F0410546FEF761
:101D6000D4FDD64FDFF858830446EDB14C2004FB78
:101D700000F21646294638461AF079F9324605F53A
:101D8000006140461AF073F904EB440000EB0414C0
:101D900007EB84004C211AF06FF908EB8400BDE8D2
:101DA000F0414C211AF068B94C21401C41430C46CB
:101DB00038461AF061F921464046BDE8F0411AF074
:101DC0005BB910B5BA4CE061FFF7BEF8FFF79CF8BD
:101DD000A1696FF30F01A161A269C1B242EA0121B9
:101DE000A161022818BF10BDA06940F00100A061E8
:101DF00010BDB4488168B44A114381600168521C27
:101E00001143016000F055BE2DE9F041AD4A054691
:101E10000C469068AC4B184390601068591C0843FE
:101E2000106000F046FE0026002C7DD00020FEF75A
:101E30002EFD206820B1FEF7C2FD0020FEF727FD31
:101E40002846FFF7BEFF0020FEF77DFD002835D0B5
:101E50006068FFF781FF9D48E36853B1A1694FF4C3
:101E6000407C4A420CEB820203EB81011AF0FFF83E
:101E70001DE0974D4FF440711AF0FEF80020012349
:101E80002956002910DB0A09120202EB800202F136
:101E9000405202F540420907C90ED2F800C003FAC9
:101EA00001F14CEA01011160401C2628E8D3894861
:101EB000616959B14FF400721AF0D9F80120FEF7A8
:101EC00042FDDFF8F0817C4F48B904E04FF4007127
:101ED0001AF0D2F8F2E71120FEF735FD70B1A568CF
:101EE00065B140464FF4987229461AF0C0F838465A
:101EF0004FF4987205F598711AF0B9F80220FEF7C0
:101F000022FD18B91220FEF71EFD68B124695CB1EC
:101F100071484FF4987221461AF0A9F86F484FF4AF
:101F2000987204F5987100E001E01AF0A0F860489A
:101F30000671867046704662417900214171867152
:101F40004FF4066001F017FBBDE8F0414FF4066066
:101F500001F002BB10B50020FEF799FC00F096FDE1
:101F60005348C078002808BF10BD5648016821F0CA
:101F7000030141F00D7141F080510160816821F051
:101F8000020141F00D7141F08051816010BD4FF4AC
:101F9000066001F0E6BA10B54FF4066001F0E1FA10
:101FA000FEF78DFC01280AD10020FEF770FC2121EC
:101FB0000020FEF78AFC21210120FEF786FC48481C
:101FC000D0F8401321F48031C0F840130020FEF710
:101FD0005EFC00F05BFD3648C078002808BF10BDED
:101FE0003848016821F0030141F00D7141F0805142
:101FF0000160816821F0020141F00D7141F08051D2
:10200000816010BD10B501F0B1FA10F0600018BF8A
:10201000012010BD2648C069704725488069704777
:1020200072B623498A6922EA0000886162B6704765
:102030001F480078002818BF0120704770B5FEF7D0
:102040003EFC002818BF70BD0024194D2C71AC70E7
:102050006C7021212046FEF738FC21210120FEF77B
:1020600034FC2C70BDE870400120FEF710BC70B548
:102070000446FEF724FC002818BF70BD00210C4D5B
:102080002971A970697021210020FEF71EFC212111
:102090000120FEF71AFC022C3CBF0120FEF725FCB4
:1020A000012028702C62BDE87040FEF7F0BB0000F4
:1020B0002C840010189D003018BD003000800030C6
:1020C00000A00030008000400200341200C0003048
:1020D0000E88001000D00030489E003048BE00300E
:1020E0000050004010B5FEF7EAFB002818BF10BDF5
:1020F0000020FE4C2071A07060702121FEF7E5FBEE
:1021000021210120FEF7E1FB0120FEF7EEFB01207B
:1021100020702062BDE81040FEF7B9BB0020FEF73A
:10212000B6BBF2490020887048700120FEF7AFBBB3
:10213000EE4988627047ED48806A7047002818BFF2
:102140000120EA49C8627047E848C06A002818BF01
:1021500001207047002000F0D3BB012000F0D0BB6D
:1021600010B5FFF73CFD0446FFF73DFDE048044293
:1021700008BF10BDDD48816941F0040181610E2175
:1021800001EAD43104F001020A43816962F31F417C
:102190008161D848016841F02001016010BD00282C
:1021A00018BF0120D149C8707047D3487047D34841
:1021B0007047CE48006B7047CC48017A827A9142D2
:1021C00014BF406B806B7047C848806B70472DE927
:1021D000F04FC94F4FF0000C8DB007F14C04E646AC
:1021E0004FF0FF3807F80C8004F80CE00CF1010CFC
:1021F000BCF1260FF6DB4FF0000C002807DD12F8CB
:102200000C5007F80C500CF1010C6045F7DC002273
:102210000126CDF804E06D46CDF800E0002816DD7B
:1022200017F902C0BCF1000F0EDBBCF1260F0BD278
:102230004FEA5C190CF01F0C55F829A006FA0CFCAB
:102240004AEA0C0C45F829C0521C8242E8DB002205
:1022500094460DF108094FEA521A02F01F0B55F887
:102260002AA006FA0BFB1AEA0B0F1ABF09F802C0E4
:102270000CF1010C09F80280521C262AEBDB00222B
:10228000002810DD17F902C0BCF1000F08DBBCF11B
:10229000260F3ABF19F80CC004F802C004F80280F7
:1022A000521C8242EEDBDFF844A200220028CAF86A
:1022B00030E009DD14F902C0944502D0CAF830407C
:1022C00002E0521C8242F5DBDFF834B20020ABF1B1
:1022D000720404F14C0704F8008007F800E00BF8E2
:1022E00000E0401C2628F6DB0020002904DD1A5CF3
:1022F0002254401C8142FADC0020CDF804E0CDF8E5
:1023000000E0002912DD2256002A0CDB262A0AD220
:10231000530902F01F0255F823C006FA02F24CEAF4
:10232000020245F82320401C8842ECDB00200246D4
:10233000430900F01F0C55F8233006FA0CFC13EA91
:102340000C0F1ABF09F80020521C09F80080401C2D
:102350002628EDDB002000290BDD2256002A05DBB4
:10236000262A3CBF19F802200BF80020401C8842A6
:10237000F3DB0020CAF838E0002909DD1BF9002052
:10238000824202D0CAF838B002E0401C8842F5DB35
:1023900011F0010F18BF252015D0420900F01F03CE
:1023A00055F8222006FA03F31A420AD1420900F036
:1023B0001F0055F8223006FA00F0184345F82200B5
:1023C00001E0401EE9D500200246430900F01F0C41
:1023D00055F8233006FA0CFC13EA0C0F1ABF09F863
:1023E0000020521C09F80080401C2628EDDB00204C
:1023F00000290ADD2256002A04DB262A3CBF19F8F0
:1024000002203A54401C8842F4DB0020CAF834E031
:102410000029DCBF0DB0BDE8F08F3A56824204D0EF
:10242000CAF834700DB0BDE8F08F401C8842F4DB70
:102430000DB0BDE8F08F40F2DB114843314901EBAC
:10244000800070473049C0EB001001EBC0007047BE
:10245000DFF898C0012B8CF808008CF8091003D91C
:10246000401C20F0010011468CF80A008CF80B107B
:1024700000FB01F24FF6FF7101EA4202ACF81220B4
:1024800001EA4000ACF8140070471848C07A704761
:102490001648807A7047154A107351737047134875
:1024A000407B70471148007B7047184A107051708C
:1024B00070471649085C70472DE9F047DFF82C900B
:1024C000044699F80500002804BF99F8010019F0A6
:1024D000D8FD99F80400002808BFBDE8F0874FF048
:1024E000000847464646454612E000002C8400108E
:1024F000010007006C8400100E8800103488001062
:10250000A68800102C1E0110982501103A84001096
:10251000D9F81C0010F0020F1CBFDFF80C8410F07B
:10252000040F05D0B9F81210FF4A21F001018F18ED
:1025300010F0010F18BFFD4E10F0200F18BFFC4D1A
:10254000D9F828002060FEF7E2FC10F0010F06D059
:10255000FEF76DFF022828BF99F8020000D2002084
:10256000E760C4E90108C4E904650120BDE8F0871B
:10257000F048002101718171704770B50546FEF782
:10258000C4F94C2100FB01F21446EB49284619F02E
:102590006EFD224605F50060BDE87040E74919F080
:1025A00066BDF0B583B0FEF7B0F9044600210846D9
:1025B000FFF767F8009001210020FFF762F8002282
:1025C0000190002C2AD96E464FF0010C4FF6F075A1
:1025D00002EB4200002100EB02104B0901F01F0743
:1025E00056F823300CFA07F73B4211D0CB079B0C6F
:1025F00003EB80034F0803EB870303F1405303F51C
:1026000000431B889BB2AB4202D903B00020F0BD4F
:10261000491C2629E1D3521CA242D9D303B0012080
:10262000F0BD70B50D460107C80E811E01EB4100DB
:1026300000EB0114C2484FF4987200EBC401284625
:1026400019F015FDBF484FF4987200EBC40105F571
:102650009870BDE8704019F00ABD2DE9F04F00F008
:102660000F07780083B0A0F1020B0025E9464FF078
:1026700001084FF6F07647EA051A5046FEF763F96F
:10268000002843D05046FFF70EF808FA00F4022C59
:1026900088BF022400215046FEF7F3FF009001217D
:1026A0005046FEF7EEFF00210190002C2ED90BEBD7
:1026B0000500982200FB02FA01EB4102002002EB28
:1026C000011C420900F01F0359F8222008FA03F305
:1026D0001A4215D000F001020AEB423202EB8C02E2
:1026E000430802EB830202F1405202F51042B2F8B5
:1026F000182D92B2B24203D903B00020BDE8F08F8A
:10270000401C2628DDD3491CA142D5D36D1C022DC7
:10271000B1D303B00120BDE8F08F2DE9F0410026D0
:10272000844D00280C4640D000F00F01C0F3031088
:1027300001290EBF00210229BDE8F081022828BF2F
:10274000BDE8F0810F18FEF7BAF85FEA00081CBF79
:102750000020FEF79CF80023982007FB00FC03EB09
:102760004300002200EB031702F001000CEB4030A5
:10277000510800EB870000EB810000F1405000F5AC
:102780001040521CC0F8184D262AEDD35B1C022BBA
:10279000E5D3B8F1000F08BFBDE8F081AE706E70F0
:1027A000BDE8F0410120FEF772B8FEF788F85FEA55
:1027B00000081CBF0020FEF76AF8002303EB43006B
:1027C000002200EB031CD007800C510800EB8C00AA
:1027D00000EB810707F1405707F50047521C3C60AA
:1027E000262AF0D35B1C312BE8D3B8F1000FD5D1EA
:1027F000BDE8F08110B5FEF7F1FE4E49088210BD2C
:102800004C4AC1B200F47F43128A914288BF1146FC
:102810004FF0640C01FB0CF1B1FBF2F11A0A02FB60
:102820000C1110F4803F12BF08B2484200B270474A
:1028300010B54FF44071444C444819F01DFC002081
:1028400001232156002910DB0A09120202EB800243
:1028500002F1405202F540420907C90ED2F800C009
:1028600003FA01F14CEA01011160401C2628E8D36B
:1028700010BD10B5344C4FF44071344819F0FCFBD6
:10288000002001232156002910DB0A09120202EB65
:10289000800202F1405202F540420907C90ED2F807
:1028A00000C003FA01F14CEA01011160401C262826
:1028B000E8D341F67871204819F0DEFBBDE81040FE
:1028C00041F678711D4819F0D7BB1A4810B5808BB6
:1028D00000F48170FFF775FA4FF440711B4819F04E
:1028E000CBFB41F61851144819F0C6FB41F61851BC
:1028F000124819F0C1FBBDE810400020FEF79DBD55
:1029000070B50C4C0546A06A401CA062E16A002923
:1029100018BFFEF7B6FF2078F8B1206A10B1206A20
:10292000401E2062206A13E02C1E01109825011021
:10293000882601102C8400100080003000A0003098
:10294000189D003018BD00300E88001000C0003007
:10295000002804BF0020FDF79AFF20212846FDF73C
:10296000B4FF616A00291CBF28468847FEF7CCFAED
:10297000022815D10D48D0F8481311F0010F0FD0DF
:10298000D0F8481341F00101C0F84813D0F84813BB
:1029900021F00101C0F84813A06940F00200A061D5
:1029A0000348016841F02001016070BD0050004003
:1029B0006C8400102DE9F0410027644D01260028A9
:1029C00008BF2E701FD001282F7018BF6F701AD04B
:1029D000DFF87C81D8F800005E490843C8F80000A1
:1029E00029785D4C002914BF49F608305B48E06047
:1029F00014BF5B484FF0BB70A0605A48006830F0CD
:102A0000FF0206D101E06E70E2E7E26860F30302C4
:102A1000E26051B1A06840F01800A060012000F011
:102A200073F8A06840F48050A060012000F06CF8BA
:102A3000687818B1E06840F03000E060D4F8B00089
:102A400040F00100C4F8B000012000F05DF8E66736
:102A50004FF4E0602061C4F888702878002818BF1F
:102A6000C4F89460E06820F03000E060A06820F4D2
:102A70008050A060D8F8000020F0040040F00D70F5
:102A800040F08050C8F80000BDE8F0813248C168CD
:102A900021F03001C160816821F4805181602C48AF
:102AA000016821F0040141F00D7141F08051016095
:102AB0007047274802682749114301602349264887
:102AC0000A783AB1826842F018028260826842F461
:102AD00080528260497819B1C16841F03001C1600B
:102AE000D0F8B01041F00101C0F8B01070471E4995
:102AF000C0F3080041EA00201749086470471649EE
:102B00004FF020400864704782B040F24C42009081
:102B100013E000BF00BF00BF00BF00BF00BF00BF89
:102B200000BF00BF00BF00BF00BF00BF00BF00BFAD
:102B300000BF0198411E0191EBD20098411E009107
:102B400028BF0192F5D202B07047000068840010DF
:102B500000800040040034120060004005F40100D1
:102B600020009B00D0FE0300130000A04248414912
:102B70008161891CC1614A1E4263036823F003031B
:102B800043F00D7343F080530360436923F0010366
:102B900043F00D7343F08053436103691A430261AC
:102BA000364A8260364AC260C2681143C160354904
:102BB00000200860704710B501F035F9314804680D
:102BC000002C08BF30BFFAD00021016001F02FF9BE
:102BD000204610BD10B501F026F92648294B26499C
:102BE000421C1C682CB10020186001F020F920461E
:102BF00010BD72B648638A6120BF88614A6362B6BD
:102C0000BFF36F8FBFF34F8FEBE71B48016821F0D5
:102C1000030141F00D7141F0805101601A4981605A
:102C200001691A4A1143016130BF704772B61149F8
:102C300011484163C91CC161891E816162B6704738
:102C40000D480168124A1143016070470A48016843
:102C500021F0030141F00D7141F080510160704796
:102C600072B6044904488161891CC161491E4163EF
:102C700062B6704700003412008000403C003412FD
:102C8000280034126C840010080034120100341241
:102C900003003412704770470022B2EBD10F26D2E6
:102CA0000368B3F1FF3F04BF4368B3F1FF3F17D19F
:102CB0008368B3F1FF3F04BFC368B3F1FF3F0FD197
:102CC0000369B3F1FF3F04BF4369B3F1FF3F07D18D
:102CD0008369B3F1FF3F04BFC369B3F1FF3F01D084
:102CE000002070472030521CB2EBD10FD8D3012006
:102CF000704710B40023B3EBD20F30D2D0F800C02D
:102D00000C68A44522D1D0F804C04C68A4451DD15C
:102D1000D0F808C08C68A44518D1D0F80CC0CC6895
:102D2000A44513D1D0F810C00C69A4450ED1D0F839
:102D300014C04C69A44509D1D0F818C08C69A445C9
:102D400004D1D0F81CC0CC69A44502D010BC00202E
:102D50007047203020315B1CB3EBD20FCED310BCB8
:102D6000012070472DE9F041054601F064F800208C
:102D700021264FF4825784464FF4E0221660C5F8AE
:102D800000C0116841F004011160116811F0040FD6
:102D9000FBD1176080232C460021D4F80080B8F1C5
:102DA000FF3F04BFD4F80480B8F1FF3F1DD1D4F831
:102DB0000880B8F1FF3F04BFD4F80C80B8F1FF3FA2
:102DC00013D1D4F81080B8F1FF3F04BFD4F81480B9
:102DD000B8F1FF3F09D1D4F81880B8F1FF3F04BF24
:102DE000D4F81C80B8F1FF3F08D0C2F800C0401CE6
:102DF000C0B20828C2D30220BDE8F081491C2034AB
:102E0000B1EBD30FC9D3C2F800C00120BDE8F081F7
:102E10002DE9F041054601F00EF800200926844610
:102E20004FF4E0231E60C5F800C0196841F00401AA
:102E30001960196811F0040FFBD12C464FF4806221
:102E400000212768B7F1FF3F04BF6768B7F1FF3F74
:102E500017D1A768B7F1FF3F04BFE768B7F1FF3F9D
:102E60000FD12769B7F1FF3F04BF6769B7F1FF3F93
:102E700007D1A769B7F1FF3F04BFE769B7F1FF3F8B
:102E800008D0C3F800C0401CC0B20328CAD3022037
:102E9000BDE8F081491C2034B1EBD20FD1D3C3F887
:102EA00000C00120BDE8F0812DE9F05F8846814631
:102EB00004274FF07F0A4FF0020B4FF4E02600F09A
:102EC000BAFF4946424653464FF0060CC6F800B0DA
:102ED00052F8040B41F8040BC6F800C0306810F03B
:102EE000040FFBD15B1EF1D2002030604C464546FA
:102EF0001F20D4E900C3D4E90221D5F800E0E6455B
:102F000004BFD5F804C09C4505D1AB68934204BF0B
:102F1000EA688A4208D07F1E03D34846FFF722FFA3
:102F2000CDE70220BDE8F09F10341035401EE0D2FE
:102F30000120BDE8F09F70B50D46044600F07BFF10
:102F40004FF400722146284619F091F8012070BD17
:102F50002DE9F0410546C005ADF5007D14460E464D
:102F6000C00D25D0A8466FF308086F4600F063FF38
:102F70004FF400724146384619F079F8C5F308005D
:102F8000C0F50077A74288BF274668443A463146D5
:102F900019F07CF84046FFF7E5FE022844D0694668
:102FA0004046FFF781FF022843D03D443E44E41BE6
:102FB000B4F5007F19D34FF400723146684619F01A
:102FC00065F82846FFF7CEFE02282DD06946284630
:102FD000FFF76AFF02282CD0A4F5007405F50075F0
:102FE00006F50076B4F5007FE5D2C4B16F4600F077
:102FF00022FF4FF400722946384619F038F822466D
:103000003146684619F042F82846FFF7ABFE022821
:103010000AD069462846FFF747FF022809D00DF578
:10302000007D0120BDE8F0810DF5007D0A20BDE89E
:10303000F0810DF5007D0B20BDE8F0812E49086080
:10304000086100F010B82C490860486100F00BB826
:1030500029494867704728498867704726480121F1
:103060000166016570474FF04022116B10F0010FAF
:1030700018BF21F4404110F0020F1CBF21F4405151
:1030800041F4805110F0040F18BF21F4406110F09A
:10309000080F18BF41F4407110F0100F18BF41F035
:1030A000C00110F0200F18BF41F0300110F0400FA8
:1030B00018BF41F00C0110F0800F18BF41F0030160
:1030C00041F4BE0141F020411163D2F8901010F498
:1030D000807F1CBF21F0030141F0020110F4007F4A
:1030E0001CBF21F00C0040F0080141F4BE0040F08C
:1030F0002040C2F890007047001000407047D04850
:103100008268D0490A438260C2681143C160416944
:10311000CD4A114341617047C948416921F001011D
:1031200041F00D7141F080514161C16821F04001D1
:1031300041F00D7141F08051C160816821F0400182
:1031400041F00D7141F080518160704710B5BC4C69
:10315000A168BC480143A160E1680843E060606980
:10316000B94908436061B94843F63F71C160002125
:1031700081638164C0F8B01003210A2000F0A5F932
:103180000A2000F0C5F9606920F0010040F00D70E0
:1031900040F080506061E06820F0400040F00D7029
:1031A00040F08050E060A06820F0400040F00D70DA
:1031B00040F08050A06010BDA44A106051604843A8
:1031C00090607047A14A10605160484310F0010FB1
:1031D00018BF401C906070479C49C1F8B000704710
:1031E0009A49002818BF012088647047974988636E
:1031F000C86840F00200C8607047DFF850C2CCF8E1
:103200002000CCF82410CCF82820CCF82C30012059
:10321000CCF83000DCF8340010F0010F05D020BFEE
:10322000DCF8340010F0010FF9D110F0020018BFE3
:103230004FF0FF3070478548C16821F00201C1603E
:1032400070478248C16841F00101C16070477F4BFF
:10325000186259629A6201201864586C10F0010FCC
:1032600004D020BF586C10F0010FFAD110F0060006
:1032700018BF4FF0FF3070477448C16821F001015A
:10328000C16070477148C16841F00401C160704776
:10329000027C017B02F03F0241EA02416B4A9165E8
:1032A00001685162416891628168D16201211165B2
:1032B000516D11F0010F04D020BF516D11F0010FBD
:1032C000FAD1D36D8382D36D1B0CC382136E03833B
:1032D000136E1B0C4383536E8383526EC2F30E42F4
:1032E000C28311F0020018BF4FF0FF3070475748FB
:1032F000C16821F00401C16070475448C16841F0C1
:103300000801C1607047DFF844C1CCF87820CCF8E0
:103310002000CCF82430CCF828100120CCF8700024
:10332000DCF8740010F0010F05D020BFDCF8740049
:1033300010F0010FF9D110F0060018BF4FF0FF3068
:1033400070474248C16821F00801C16070470168B8
:103350004FEA31423D49C1F89C204068C1F8A000C5
:10336000C86840F02000C860704701684FEA3142E9
:103370003649C1F89C208088C1F8A000C86840F098
:103380002000C8607047314B18625A629962012070
:10339000C3F89400D3F8980010F0010F05D020BFB7
:1033A000D3F8980010F0010FF9D110F0060018BF03
:1033B0004FF0FF307047254A106251620120C2F879
:1033C0009000D2F8980010F0010F05D020BFD2F87D
:1033D000980010F0010FF9D110F0060018BF4FF05F
:1033E000FF3070471948C16821F02001C160704763
:1033F0001648C16841F01001C1607047A3F1050C87
:10340000124BC3F888C018625A6299620120C3F84F
:103410008000D3F8840010F0010F05D020BFD3F84E
:10342000840010F0010FF9D110F0060018BF4FF022
:10343000FF3070470548C16821F01001C160704736
:10344000008000404000341201003412009000401F
:103450001B4810B5022140F8501F012101611021C5
:10346000416241F2060141610021816104218163D1
:1034700090214163416B41F0010141634FF481713F
:1034800001610161032000F043F80021032000F0F6
:103490001CF8002010BD10B5032000F045F80848C6
:1034A0004FF48071016600210166102181670221BD
:1034B0004165002010BD03490020087070470000DE
:1034C0000030004070840010704700F00303DA0001
:1034D0004FF0FF0C0CFA02F24FF0050C0CEBC3039B
:1034E00001FA03F300F00C0101F1E021002807DAF2
:1034F000D1F8140D90431A401043C1F8140D7047D1
:10350000D1F8000490431A401043C1F800047047FA
:1035100000F01F01012202FA01F14009800000F1D0
:10352000E020C0F80011704700F01F01012202FAEC
:1035300001F14009800000F1E020C0F880117047DF
:1035400000F01F01012202FA01F14009800000F1A0
:10355000E020C0F8801270474FF0E021C1F8000170
:1035600070474FF0E021C1F8800170474FF0E02034
:10357000D0F8000170474FF0E021C1F88002704799
:10358000084800687047074A11681060084670478D
:10359000044A126800F1100352F8230042F8231085
:1035A0007047000008ED00E002210C20FFF78DBFFE
:1035B000B8488268B8490A438260C2681143C16052
:1035C0007047B448816821F4805141F00D7141F099
:1035D00080518160C16821F4805141F00D7141F04A
:1035E0008051C1607047AD4881B0016F11F4007F18
:1035F000FBD1816E11F0010F1CBFD0F88410009137
:1036000004D0D0F88410009A9142FAD0016F11F4DE
:10361000007F04BF4CF27101016642F241318166C4
:1036200001B070479D4981B04FF40D528A660A6F10
:10363000CA66012898BF012005D9401EB0F5803F19
:1036400028BF4FF6FF7082B24FF05C5040EA022074
:1036500048664FF01140C1F88000086F10F4007FF9
:10366000FBD1886E10F0010F1CBFD1F884000090D0
:1036700004D0D1F88400009A9042FAD0086F10F478
:10368000007F04BF4CF27100086642F24130886648
:1036900001B07047814881B0016F11F4007FFBD108
:1036A000816E11F0010F1CBFD0F88410009104D07E
:1036B000D0F88410009A9142FAD04FF40D518166EF
:1036C00001B070477348806810F4805008BF70479D
:1036D0007248806E00F0010070477048406EC0F381
:1036E0000F2070476D48D0F88400704710B50C204B
:1036F000FFF726FF0C20FFF70BFF68490220486701
:1037000010BD664910B5032088670C20FFF70CFF39
:10371000BDE810400C20FFF713BF614A116810602C
:10372000084670475D4810B5016FC1665C48006887
:10373000002818BF80475B48016841F48051016050
:1037400010BD574840687047524810B582685249CA
:103750000A438260C2681143C160504903208867F0
:103760000C20FFF7E1FE0C20FFF7EAFE00F05CF909
:103770004D4B0420C3F888004FF6FF70C3F88C004F
:1037800072B66033FFF74EFF4FF40070186062B6F8
:1037900010BDF8B572B64148016F11F4007FFBD13E
:1037A000816E11F0010F1CBFD0F88410009104D07D
:1037B000D0F88410009A9142FAD04FF40D518166EE
:1037C00039494FF400320A6662B6D1F80412314D1D
:1037D000002946D0324C4FF6FF73591AA160AA69EE
:1037E000D5F81CC002F00F020CF00F0C6244121D41
:1037F00001FA02F2A2F54341DFF8B0C05139614548
:103800002FD2D0F88400191AE160B1F5803F28D298
:10381000274B4FF0000CA1FB03070CFB037301FBCC
:103820000C31634618F037FC401C40082061B0F5AD
:103830007A7F38BF4FF47A701E4B9968002908BF11
:1038400098605A681A609968C3E901108A421BD9C6
:10385000824205D9814201D9616002E0606000E0E6
:10386000626000F0EDF8A86820F4805040F00D7020
:1038700040F08050A860E86820F4805040F00D705F
:1038800040F08050E860F8BD8242E9D88142E5D836
:10389000E2E70000008000400010341200C0004049
:1038A000748400106C84001000A000404F6225005A
:1038B00000E1F505CC8800100F4881680F4A1143DC
:1038C00081600F48016841F404710160001F0168C4
:1038D00041F004010160016841F01001016070478E
:1038E000084908607047BFF34F8F084906480860D1
:1038F000BFF34F8FFEE70000008000400400341249
:1039000014ED00E008ED00E00400FA050CED00E025
:1039100015488168154A114381601003416941F0DF
:1039200001014161016A21F00F0211490A4302625B
:10393000104B8A1EC3F8C420016570474FF0402029
:10394000006900F0700070474FF040200A4940F8CD
:10395000301F0A4941600A4901660A4941667047B9
:103960004FF040204068704700800040040034124F
:1039700003005FA000600040C0845FA050995FA07A
:103980000A005FA000005FA0022824BF002070474B
:10399000DE4B53F8202043F820101046704770B5D6
:1039A000DB4C206FD94D10F0010F05D00120E066EF
:1039B0002868002818BF8047206F10F0020F08BF4A
:1039C00070BD0220E0666868002808BF70BDBDE8D1
:1039D00070400047CF4810B58268CF490A438260E3
:1039E000C2681143C160CA4902220A6501230B66FD
:1039F0000323CB664A65816821F0800141F00D7197
:103A000041F080518160C16821F0800141F00D7169
:103A100041F08051C1600920FFF77AFD0221BDE825
:103A200010400920FFF751BDBA488268BA490A43DD
:103A30008260C2681143C160B549022008657047C1
:103A4000B34902204865B348816821F0800141F004
:103A50000D7141F080518160C16821F0800141F019
:103A60000D7141F08051C1607047AA488068C0F371
:103A7000C0107047A648016F11F4007F14BF4FF4C7
:103A800040714FF480710166704710B5A04CE06F33
:103A900010F0020F4FF0010018BF0320606700F024
:103AA00066F99C498A69C96902F00F02D04001F0A9
:103AB0000F01C8400521B0FBF1F04FF4057100097A
:103AC000C4F880109549A1FB00104009C4F8840097
:103AD000206F10F4007F14BF4FF440704FF48070DB
:103AE000206610BD8A48016F11F4807F14BF4FF427
:103AF00040714FF4007101667047854B30B4DA6F46
:103B000012F0010F14BF032202225A6700EB400596
:103B1000C5EBC010C1EBC0004FF4FA744C43C0EBCE
:103B2000001000EB40007E4904EBC000A1FB001038
:103B3000784900224FF0020C8C69C008C96904F072
:103B40000F0401F00F012144C8400521B0FBF1F042
:103B5000B0F5803F05D3511C4008CAB2B0F5803F94
:103B6000F9D242EA0C2141F01001C3F88810C3F8E1
:103B70008C00186F10F4807F14BF4FF440704FF426
:103B80000070186630BC70476148016F11F4003F47
:103B900014BF4FF440314FF48031016670475C48E8
:103BA000016F11F4803F14BF4FF440314FF40031E6
:103BB000016670475648006FC0F3002070475448B4
:103BC000006FC0F34020704752498968C1F3C011AB
:103BD000002904BF002070474D4900280CBFD1F8D0
:103BE0000002D1F8040270474A4B9A68C2F3C0122F
:103BF000002A04BF00207047454A00280CBFD2F8B5
:103C00008000D2F88800C0F30A200CBFD2F88020D0
:103C1000D2F8882002F00F02D3F818C0DB690CF04C
:103C20000F0C03F00F0363441A449140012202EB8E
:103C3000400048433949A1FB001000097047394949
:103C400001200870704770B4324B322251439A6998
:103C5000D3F81CC002F00F020CF00F0C6244121DCE
:103C6000D14008BF012104D0B1F5803F28BF4FF6F5
:103C7000FF719A68C2F3C012002A1CBF70BC704763
:103C8000D3F808C0244A4CEA020CC3F808C0D3F8A1
:103C90000CC04CEA0202DA601D4A4FF0020CC2F876
:103CA00050C04FF4003414660425C2F88850C2F89E
:103CB0008C101D4DD566C2F874C01C4902283CBF4B
:103CC000124E46F820100021164801704FF4007182
:103CD0001166017819B920BF01780029FBD014665C
:103CE0009567D566C2F854C0986820F0800040F00F
:103CF0000D7040F080509860D86820F0800040F04F
:103D00000D7040F08050D86070BC70478C840010FB
:103D100000A0004000800040800034121F85EB515D
:103D2000CDCCCCCC8884001002000202EF5B0000F6
:103D30004FF0E0210020886108611F49486070470A
:103D400010B54FF0E02460610020A0610221401E08
:103D5000FFF7BBFB0720206110BD4FF0E0210020E2
:103D60000861704714480188491C01807047124857
:103D7000806870472DE9F0410F4C002705462780E9
:103D8000A0684FF47A71B0FBF1F04FF0E026401ECE
:103D90007061B7610221C81EFFF797FB07203061F1
:103DA0002188A942FCD33761BDE8F081034948432B
:103DB00001498860704700009484001040420F0061
:103DC000704770B505464FF40D500406A0660320F9
:103DD000E066264860664CF2710020662448C4F80C
:103DE000800042F24630A06602210020FFF76DFB02
:103DF0000020FFF78DFB002D08BF70BDA06E42F2C2
:103E000041310843A06670BD012110B58807816764
:103E10004FF40D5181660020FFF786FBBDE810408E
:103E20000020FFF78DBB0120810748677047012004
:103E30008107886770474CF27100810708667047F8
:103E40000C4A11681060084670470A4808B50068B7
:103E500018B18047002818BF08BD4CF271018807CF
:103E60000166016FC166006F009008BD075E5F3795
:103E700000AF2F91A084001070B5FA4D00244FF4CC
:103E8000E4612C706C70EC70F74818F0F5F84FF4A2
:103E9000E461F64818F0F0F8AC602C714C21F4485D
:103EA00018F0EAF84C21F34818F0E6F86C71742128
:103EB000F14818F0E1F87421F04818F0DDF8EC60F2
:103EC000AC71EC612C626C62AC62EC622C632C61B4
:103ED00070BDE449002048707047E2484078704760
:103EE000E0480079002818BF01207047DD4880793C
:103EF000002818BF01207047DA484079002818BF11
:103F000001207047D748C078002818BF01207047AB
:103F10000021D448C16201637047D948704770B529
:103F2000D84A05461078517842185200144629465E
:103F3000D34818F0ABF822462946D34818F0A6F823
:103F4000C8490120887170BDC64800697047C548DE
:103F5000407800EB4001C1EB4010C74901EB800005
:103F600070472DE9F041BF4D0446C3496A78C74FF9
:103F700002EB4200C0EB4210C54E01EB80033A78E1
:103F80003078214610444200184618F07FF86A78CD
:103F9000BA4902EB4200C0EB421001EB80033A78D1
:103FA0003078214610444200184618F06FF801207E
:103FB0006871BDE8F081AB48C0687047A948407897
:103FC000C0EBC001C1EB8010A74901EB4010704766
:103FD0002DE9F041A34E07463078002814BFAD48C4
:103FE000AD48047814BFAD48AD48057804FB05F82A
:103FF000FFF785F829462046FFF7DEF870789B4CDE
:10400000C0EBC001C1EB8010974904EB401201EBFB
:1040100040103B460146FFF7F0F8FFF77DF8707857
:104020004FEA4802C0EBC001C1EB801004EB401026
:10403000394618F02BF80120F070BDE8F0812DE929
:10404000F047884D044688496A78DFF84882C2EB19
:10405000C200C0EB821001EB40132878DFF83892E1
:104060008E4E8F4F002815BF98F8000099F8000079
:1040700032783A7800FB02F04FEA400221461846B7
:1040800018F004F86A787949C2EBC200C0EB8210DC
:1040900001EB401C28782146002815BF98F8002025
:1040A00099F8002033783B7802FB03F04FEA400296
:1040B000604617F0EBFF0120E870BDE8F087694823
:1040C0008068704770B5774C05460146227868488D
:1040D000520017F0DBFF227829465200654817F09E
:1040E000D5FF60490120087170BD2DE9F04FADF298
:1040F0006C7DDFF870910120CDF84C0799F8030032
:10410000CDF8480799F80400CDF8440799F8050060
:10411000CDF8400799F80600CDF83C0701F0E0FC27
:104120008046FDF7A1FDCDF86407FDF781FFCDF8CE
:104130006007FDF78CF9CDF85C07FCF7E8FE044654
:10414000FCF7E2FE0646FDF791FD99F80200002516
:10415000002804BF0420C9F8180008D0B8F1020FE5
:104160001CBF0A20C9F818000CD089F80250FDF7CE
:1041700035F9083000094FF0010BCDF85007022E39
:104180000AD022E012F000FF10F4817F14BF3C201F
:104190001E20C9F81800E8E7B8F1020F03D0B8F103
:1041A000050F08D011E04FF47A71484390FBF1F00D
:1041B000C9F8180007E007F0D4FD002814BF052057
:1041C0001220C9F8180089F802B0D9F8180004289C
:1041D000BCBF0420C9F8180099F80200B9F81810FB
:1041E000000240EA014040F0010200239121072033
:1041F0000BF0A4FF14F0010F2ED1B8F1020F2BD059
:104200000020FDF71AF9FDF76DFF17F049FF0025B3
:104210002F46CDF8385706F0E2FA012846D00DF5C2
:10422000E460FEF749F9002800F0DF820DF5E46054
:1042300007F0BCFA002089F80100D9F81800C01E68
:104240008542CABF874201240024DDF82C0758B3F9
:10425000DDF8440748B35DE0FDF7F0FE0020CDF83F
:104260004C07D2E7A484001000270110D888001062
:10427000389E0010849E0010202E0110D09E001049
:10428000C08400100F850010C88400100C85001039
:104290000D8500100A850010078500100B850010A1
:1042A000088500100E85001034E004E00120CDF8F0
:1042B000380700F084BA6846DDF82C1717F0F5FED1
:1042C00082467CB1F94E514630784200F84817F0EA
:1042D000DDFE307851464200F64817F0D7FE89F8E7
:1042E00004B017E0FEF70BFFF04E01213078FEF727
:1042F00063FFF04A5346A2F14C010846FEF77DFFEA
:10430000FEF70AFF307851464200EA4817F0BEFE39
:1043100089F804B0DDF82807002800F0D680DDF821
:104320004807002840F0D18099F80000DDF82867A0
:10433000F0BBD9F808A0BAF1000F24D0DE4800780D
:10434000CDF85807DD480078CDF85407FEF7D7FEC2
:10435000DDF85417DDF85807FEF734FF31465246B2
:104360000846FEF774FFFEF7D7FED548007802280E
:1043700004BF504606F05CFED1480078092804BF0F
:10438000304606F055FECF480078012816D9DFF8F0
:1043900030A39AF80000042804BF304606F048FE17
:1043A0003146684617F086FE06469AF8000000E09F
:1043B00004E0052804BF304606F03AFECCB399F875
:1043C000010099F80020C0EBC001C1EB8011BE488C
:1043D000002A00EB411031460CBFBC4AB64A1378A4
:1043E00014BFB64ABA4A127803FB02F24FEA4202FD
:1043F00017F04CFE99F80100C0EBC001C1EB801131
:10440000B44800EB411399F800003146002814BF6E
:10441000A948AE48007814BFA84AAD4A127800FBFC
:1044200002F04FEA4002184617F030FE89F803B058
:104430003CE0FFE7CDF8546799F80000002814BF6E
:104440009D48A24890F800A014BF9C48A048067858
:104450000AFB06F0CDF85807FEF751FE31465046EC
:10446000FEF7AAFE99F801009A4EC0EBC001C1EB1D
:104470008010954906EB401201EB40100146DDF833
:104480005437FEF7BAFEFEF747FEDDF85807420044
:1044900099F80100C0EBC001C1EB801006EB4010A1
:1044A000DDF8541717F0F2FD89F803B0844800785E
:1044B00003280AD199F80100C0EBC001C1EB8011BB
:1044C000814800EB411006F0B3FDDDF8300700280D
:1044D0007ED0DDF8400700287AD199F80000DDF899
:1044E000306748BBD9F80CA0BAF1000F24D07A4845
:1044F00001787A4800780844401C40080190022066
:104500000090FEF7FCFDDDE90010FEF75BFE314692
:1045100052460846FEF79BFEFEF7FEFD7048007807
:10452000022804BF504606F01EFF6D480078092897
:1045300004BF304606F017FF4CB399F80100DFF8CE
:1045400098A100EB4001C1EB401166489AF80020A9
:1045500000EB810361483146007810444200184660
:1045600017F094FD99F801005C4A00EB4001C1EBA3
:1045700040115D489AF80030127800EB81001A442F
:104580003146520017F082FD89F805B02FE05248FD
:1045900000960178514800780E18FEF7B0FD701CA7
:1045A00040080221FEF708FE99F80100DFF838A163
:1045B00000EB4001C1EB40104A490AEB800201EBDD
:1045C00080010846009BFEF718FEFEF7A5FD00E0FF
:1045D0001CE099F80100720000EB4001C1EB4010B3
:1045E0000AEB8000009917F051FD89F805B03C48AE
:1045F000007803280AD199F8010000EB4001C1EBD3
:104600004011384800EB810006F0ADFEDDF83407BC
:10461000002873D0DDF83C0730B1B8F1020F18BFA5
:10462000B8F1050F6BD0BDE099F80000DDF83467F4
:1046300040BBD9F810A0BAF1000F23D02B48017865
:1046400040780844401C4008019002200090FEF78A
:1046500056FDDDE90010FEF7B5FD3146524608462D
:10466000FEF7F5FDFEF758FD21480078022804BF4B
:10467000504606F0A7FF1E480078092804BF3046C0
:1046800006F0A0FF19480178407874B1084444004E
:1046900022463146174817F0F9FC224631461648A3
:1046A00017F0F4FC89F806B042E029E00E8500100E
:1046B000389E0010849E00100A8500100B850010A3
:1046C0008D85001009850010002701100785001056
:1046D00008850010D88800100C8500100D8500108A
:1046E00092850010202E0110D09E00100F85001022
:1046F00097850010C0840010C884001052E028E0A4
:104700000C18FEF7FCFC601C40080221FEF754FD6B
:10471000FB4A3346A2F108010846FEF76EFDFEF79C
:10472000FBFC62003146F64817F0B0FC89F806B091
:10473000F4480078032804BFF34806F043FF17F05D
:10474000BEFC0020C9F82C00C9F8300000F01FFEA4
:1047500028E00021DDF8340717F0B6FCDDF850073B
:10476000782828BF15F0010F1CD0E84C207A58B1EA
:104770000820FCF720F8E64A1378527899184A0086
:1047800001460820FBF7C8FDE07958B10720FCF787
:1047900012F8DF4A01460720137852781A44520073
:1047A000FBF7BAFDFDF7E4FED9F818006D1C7F1C7D
:1047B0008542A8BF874211DBD9F8140070B1FDF71C
:1047C00055FADDF85C07FCF738FEDDF8640788B1C0
:1047D000DDF8600760B1FDF785FC0BE0DDF84C0704
:1047E000002818BFFDF77EFC15E501F0C6F912E5BB
:1047F000FDF724FCDDF83807002804BF0420C9F8C1
:1048000018000FD0DDF8480789F80300DDF84407E9
:1048100089F80400DDF8400789F80500DDF83C0759
:1048200089F80600DDF83807B9F81810000240EAE8
:1048300001420023912107200BF080FCDDF83807AE
:104840000DF26C7DBDE8F08F10B50024FDF7E2FBA2
:10485000B04910F0020F0AD0CA78002A08BF01241C
:1048600010F0040F03D00A79002A08BF012410F0C9
:10487000010F03D04A79002A08BF012410F0200F4D
:1048800003D08879002808BF01240020002C08BF2D
:1048900010BD00200870BDE8104026E438B505467C
:1048A0000F2412F071FB40B101F01AF9022803D075
:1048B00001F016F9052800D10E242146284601F002
:1048C0006AFA012804D1FFF7BFFF009001F0DCFB7A
:1048D0009048C17800291CBF4179002906D0817910
:1048E00000291FBF00790028012038BD002038BDF5
:1048F000D4E7704770B5874C00250646E5702571F2
:104900006571FBF7A3FF002818BFA571002E1CBF1F
:104910000120A070BDE870400CF074B9002818BFE9
:1049200001207C49C87170477A48C079704710B53A
:104930004FF4E461784817F09FFBBDE810404FF456
:10494000E461764817F098BB754870477548017860
:104950007548007848434100714817F08DBB70B529
:1049600006467048047870480578FEF7C8FB29466B
:104970002046FEF727FC67484078C0EBC001C1EB3A
:104980008010654901EB401231466548FEF75FFC37
:10499000FEF7C2FB65480078152818BF70BD604857
:1049A000BDE8704006F044BB002818BF01205949FB
:1049B000C870704710B5574C002804BFA06010BDE8
:1049C000DFF86CC15B490B785B490A7801465A43B2
:1049D0005200604617F05AFB5548A06010BD10B554
:1049E0004C21564817F048FBBDE810404C21544874
:1049F00017F042BB51487047002818BF01204549B5
:104A00000871704710B574214E4817F035FBBDE8AA
:104A1000104074214C4817F02FBB002818BF01200C
:104A20003C494871704710B53A4C002804BFE0601B
:104A300010BD74220146454817F028FB4348E0604A
:104A400010BD34480021C161016241628162C162CE
:104A500001637047002818BF01202E4988717047F4
:104A600010B52C4C002804BF206110BD28490A78DD
:104A7000497811444A000146354817F007FB34488D
:104A8000206110BD33487047214A014631481378F0
:104A900052781A44520017F0F9BA30B44FF0000CB3
:104AA000029C634304BF30BC704732F91C4051F88C
:104AB0002C502C4440F82C400CF1010C6345F4D8E8
:104AC00030BC7047002B08BF704710B4DDF804C03D
:104AD000BCF1000F4FF0000C3ED0002A9CBF10BC70
:104AE000704751F82C4004EB5304B4FBF3F420F866
:104AF0001C400CF1010C6245F3D810BC704700005B
:104B0000C884001097850010C0840010F48700103E
:104B10000F850010A484001000270110D888001011
:104B2000F88F001007850010088500108D85001093
:104B3000189700100A8500100B850010389E001091
:104B4000849E0010202E0110D09E0010449F001063
:104B5000D8840010D0840010002A9CBF10BC70477D
:104B600051F82C4094FBF3F420F81C400CF1010C9C
:104B70006245F5D810BC704770B5FF4D002604465D
:104B8000EE702E716E71FBF761FE002818BFAE71DA
:104B90000CF038F8002C14BF012000202870BDE86C
:104BA0007040FFF7A2BA2DE9F04F8FB04FF4E461E7
:104BB000F24817F061FA7421F14817F05DFAEE4EF1
:104BC00000207063B0630090019002900390FDF7A5
:104BD00021FA0446FDF748F80C90FDF729FA0B90EE
:104BE000FCF735FC0A90FDF741F80020FCF725FCA6
:104BF000FDF778FA00273D4605F0F1FD012878D051
:104C000004A8FDF759FC002872D004A806F0CEFDD8
:104C100014F0020F1DD0D9480D908346D948DDF815
:104C200018A090F80080D84890F80090FEF767FA36
:104C30000120FEF7D5FA49464046FEF7C3FA5A4628
:104C400051460D98FEF703FB0020FEF7C9FAFEF768
:104C500063FA14F0010F21D0C9480D908346CB4868
:104C60004FF00209DDF820A00178C9480078084417
:104C7000401C4FEA5008FEF742FA0120FEF7B0FA56
:104C800049464046FEF79EFA5A4651460D98FEF7B1
:104C9000DEFA0020FEF7A4FAFEF73EFA14F0200F29
:104CA0001DD0BC496B46099891F800C049781A4656
:104CB0006144491C4FEA510C00214FF002085FEAA1
:104CC0004C0918BF0CFB08FC09D030F9118052F8D0
:104CD0002190C84443F82180491C8C45F5D8FDF744
:104CE00047FC7F1C102F05D2FDF7FCF984E700E09C
:104CF0000CE00125FCF7BAFF0A98FCF79EFB0C9824
:104D000048B10B9828B1FDF7EDF904E000F035FF4C
:104D100072E7FDF793F9002D52D114F0020F18D06D
:104D20009848964B017898489C46007801FB00F221
:104D300010200021002A0AD93CF9118008EB500804
:104D4000B8FBF0F723F81170491C8A42F4D88B485D
:104D5000B06014F0010F18D08C48894B01788C4852
:104D60001F4600780A184FF010004FF000010AD0DB
:104D700037F9118008EB5008B8FBF0FC23F811C09C
:104D8000491C8A42F4D87E48F06014F0200F17D0F6
:104D90008048814C6B46017840780A184FF010012A
:104DA0004FF000000AD053F820C00CEB510CBCFBB4
:104DB000F1FC24F810C0401C8242F4D876483061DF
:104DC0000FB02846BDE8F08F012070474FF43F3008
:104DD00070474FF43F30006870474FF43F310A6826
:104DE000B2F1FF3F15D0052804BFC87A704728DC10
:104DF000012804BF08797047022804BF087A704769
:104E0000032804BF487A7047042804BF887A704793
:104E100027E0052813D007DC012822D002281CBF78
:104E2000032804280BD01CE0142812BF15282D20BD
:104E30007047162804BF28207047172811D100207A
:104E40007047142804BF087B7047152804BF487BAF
:104E50007047162804BF887B7047172804BFC87B9B
:104E60007047FF20704770B5ADF5007D00244FF40A
:104E70000071684617F000F94FF43F36FF224FF4F7
:104E80000071684617F025F9FF21254661F30705F3
:104E90002D22214662F3070162F30F2128224BF6EF
:104EA000BB3062F3174164F31F61CDE90005CDE922
:104EB000024104943046FDF755FF69463046FDF740
:104EC000F3FF0DF5007D70BD2DE9F04F4FF43F3439
:104ED000ADF5017D834620688A9F984691468A46B3
:104EE000B0F1FF3F08BFFFF7BEFFD4E901106AF33E
:104EF000070069F30F20256868F31740D4E90364BD
:104F00006BF3070167F31F608B460746FF224FF4E0
:104F10000071684617F0DDF80297CDE90364CDE92A
:104F2000005B4FF43F342046FDF71CFF69462046E6
:104F3000FDF7BAFF012818BF00200DF5017DBDE87F
:104F4000F08F2DE9F04F4FF43F3389461D68002163
:104F5000ADF5017D90468246B5F1FF3F02BF0846A0
:104F60000DF5017DBDE8F08FFF22D3E902744FF407
:104F70000071684612E00000A48400101897001029
:104F8000449F00100A8500100B8500100C8500104E
:104F90000D8500100F850010D8840010D3F810B0D4
:104FA0005E6817F096F86AF3070469F30F2468F354
:104FB0001744012060F31F64CDE90274CDE9005667
:104FC0004FF43F34CDF810B02046FDF7CBFE6946D4
:104FD0002046FDF769FF0DF5017DBDE8F08F2DE955
:104FE000F04F4FF43F30894E00250368ADF5017D49
:104FF00074422F461720FFF7F0FE84461420FFF777
:10500000ECFE40B2B3F1FF3F04D0BCF1000F03D17E
:105010002D2801D0FFF727FF1420FFF7DEFE40B256
:1050200002901520FFF7D9FE4FFA80F91620FFF7FE
:10503000D4FE40B201901620FFF7CFFE404240B2AE
:105040000090FCF7E7FFDFF8C8A1834600208AF84C
:1050500003008AF804008AF80500FBF7F7FB002834
:105060001CBF00208AF806000BF0CCFD00208AF857
:105070000000FFF73AF81BF0010F04D017F02EF8EC
:10508000012808BF01251BF0020F7DD061489AF866
:1050900001104FF0000890F800C05F48C1EBC1025A
:1050A000C2EB811100785D4A002802EB4112C8BFB3
:1050B000ACF1010A1EDD0021BAF1000F16DD01F18D
:1050C000010B01FB00830BFB008B32F8133032F82D
:1050D0001BB0A3EB0B031BB2002BB8BF5B421BB290
:1050E000BB42C8BF1F46491C5145E8DB08F1010817
:1050F0008045E0DBB945B8BF45F002054FF0000838
:10510000C146BCF1000FC8BFA0F1010A1BDD0021A0
:10511000BAF1000F13DD09FB001332F813B002EBF4
:1051200043035B88ABEB03031BB2002BB8BF5B42AE
:105130001BB24345C8BF9846491C5145EBDB09F1FA
:105140000109E145E3DB02994145B8BF45F004059B
:105150004FF00009BCF1000F13DD002300280CDD27
:1051600009FB003132F91110B142C8BF0E46A1420D
:10517000B8BF0C465B1C8342F2DB09F10109E14533
:10518000EBDB0198B04200E005E002DB0098A042B2
:1051900001DD45F00805604208F0FF0B4FF43F3495
:1051A00000F0FF08206807F0FF0A06F0FF09B0F1E1
:1051B000FF3F08BFFFF757FED4E901106BF307006C
:1051C0006AF30F20266869F31740D4E9037465F386
:1051D000070168F31F600D468046FF224FF40071FF
:1051E000684616F076FFCDF80880CDE90374CDE966
:1051F00000654FF43F342046FDF7B4FD6946204674
:10520000FDF752FE0DF5017DBDE8F08FF1D8FFFFEF
:10521000A4840010088500100785001000270110E5
:10522000FF4920F07E4008617047FD4800697047E3
:10523000FB4800897047FA4840897047F848B0F940
:105240000C007047084318BF7047F548006910F01C
:10525000807F1CBF0020107070472DE9FF5FF14870
:105260000027DDF83CA005780E98119E8B46B946C4
:105270003C4650452CD006FB050E10983BF91EC04D
:1052800006FB05093BF91900BCEB000148BFA0EB88
:105290000C0106FB05A83BF91840B4EB000C48BF15
:1052A000A0EB040C01EB0C0004B232F91EC032F981
:1052B0001900BCEB000148BFA0EB0C0132F918C08B
:1052C000BCEB000248BFA0EB0C0288180FFA80F973
:1052D000012B37D04FF0010816F005FFD249002C02
:1052E0000A7807DD109906FB05113BF911101431FE
:1052F000282909D80099B1F914103C2904DC009937
:10530000B1F916103C2926DD0E9902EB0A0C114466
:105310008C4520D9129B139D13442A448B421CBFF9
:105320008D1A15F1020F30F9115000EB4106B6F954
:105330000260A5EB060508D01E353C2D08D94FF0BC
:10534000000808E0A1450CDD0AE00A35142DF6D866
:10535000491C8C45E2D8A14503DDB8F1000F00D00F
:10536000012704B03846BDE8F09F7047AF4A02807D
:10537000428000218280C18001815342438181812A
:10538000C181018241828182C18202837047A44926
:105390000020C88148617047A14800218161C16136
:1053A0007047A3487047A34A0146A1481378527832
:1053B0001A44520016F06ABE2DE9F04383B00C4641
:1053C0000546FFF75FFB024699480021031F002CAA
:1053D00088BF4FF0010C0AD95E5C2EB935F9116017
:1053E0003C2EA8BF03F801C0491CA142F4D38C4E47
:1053F000B6F80E80B8F1000F09D10021002C06D9B3
:1054000035F811C020F811C0491C8C42F8D8002191
:10541000EC46002C0AD935F8117030F81190A7EB42
:1054200009072CF81170491C8C42F4D8B8F11E0FF2
:1054300024BF0021002C11D9585C00281CBF3CF966
:10544000110010F1140F06DD142804DC32F811707D
:10545000384422F81100491CA142EDD31046FFF751
:1054600013FBF08942F2107188423ABF401CF08170
:10547000F1817048294602784078104442006C4817
:1054800016F004FE03B0BDE8F083654800780028FC
:1054900018BF0120704710B54FF4E461664816F05C
:1054A000EBFD5F490020087010BD2DE9FF4F85B06E
:1054B0009A46DDE9137593460446DDF848800BF003
:1054C000B2FB574E4FF0000900287CD100F008FBDA
:1054D000052878D00698CDE902050A20049057489F
:1054E0001E2500780090504800780190308910B94E
:1054F000707801280ED10BF0D1FB58B9012F09D0DB
:10550000B8F1010F02D17089C82803D80BF03EFC16
:10551000012809D107F0C4F828B311F0E5FD10B354
:1055200011F0A4FD08281ED00BF069FB012809D05A
:1055300007F0B6F868B111F0D7FD50B111F096FD43
:10554000082806D005200490039801280CBF4125A7
:105550003C250020DDE900128A180BD0029931F9B0
:105560001010A94202DD86F8079014E0401C80B2BA
:105570008242F3D8306910F4803F0CD0F079401C9F
:10558000C0B2F0710499884205D9012070714FF0C2
:10559000FF3486F8079011F0A7FDF0B111F066FD19
:1055A00008281AD00A25B8F1000F53DC012F51D07A
:1055B000306910F4003F32D0B079401CB07111F066
:1055C00093FD30B100E02AE011F050FD082818BF2B
:1055D0000525B079A84222D91BE00BF010FB012869
:1055E0001DD10A25B8F1000F34DC012F32D030690B
:1055F00010F4003F13D0B079401CB07111F074FD6D
:1056000020B111F033FD082818BF0525B079A84254
:1056100005D9012070714FF0FF3486F806900FE035
:10562000E0840010078500100D850010F1D8FFFF01
:10563000F88400100F850010A8A500100C8500103C
:1056400011F0A2FC10F4807F2CD000F049FA02285F
:1056500003D027E086F80690E1E74FF0010816F046
:1056600047FD074611F078FC054611F071FC024633
:1056700000210020002D08D900FB021337F9133058
:105680000F2B0FDB401CA842F6D3B8F1000F09D056
:10569000491C0129EDD9B8F1000F03D001204FF0CA
:1056A000FF347071B4F1FF3F25D0002C07BFF078B4
:1056B000012809B0BDE8F08F86F803904FF4E4614B
:1056C000F84816F0D9FC86F8009000F00FFA04288C
:1056D0002FD0BBF1000F1CBF5846FEF7B0FCBAF14B
:1056E000000F04BF09B0BDE8F08F504609B0BDE817
:1056F000F04FFEF736BC707901281CBF09B0BDE839
:10570000F08F5846FFF72BF986F805904FF4E461C7
:10571000E44816F0B1FC86F80090BBF1000F1CBF06
:105720005846FEF78CFCBAF1000FDED109B0BDE897
:10573000F08FBBF1000F1CBF5846FEF749FCBAF1D1
:10574000000F04BF09B0BDE8F08F504609B0BDE8B6
:10575000F04F16F0D2BC2DE9FF4FADF6646D9B46BD
:105760004FF01E0ADDF8AC8E06F09AFF012808BF44
:105770004FF03C0ABBF914100123DDF8982EDDF838
:10578000640E16F0BFFCDFF820930020054689F870
:105790000100FEF713FCC54F06463C7800F0A0F967
:1057A00005289BF80C0017D0BBF80E30C1B28B4215
:1057B00024BFBBF80820BBF80AC034D3D0B284455C
:1057C0002CD301FB040B36F91BB00BF1140BBBF10E
:1057D000280F1FD9012526E0BBF80E30C0B2834246
:1057E00024BFBBF80820BBF80AC01CD3D1B28C453B
:1057F0000AD300FB041B36F91BB01BF1140FE9DBC5
:10580000491CC9B28C45F4D26DB9401CC0B2834268
:10581000ECD208E0401CC0B28445D2D21DB9481C6D
:10582000C1B28B42CAD2A04845700078A04D80B367
:105830000BF0E5F901282CD006F032FF012828D121
:10584000DFF8609297F800B0DDF8646E2C785B4664
:105850004A46314601A8009416F059FC5B46324690
:1058600049460DF22470009416F051FC0DF6486183
:1058700001A816F051FC04460DF648610DF22470A3
:1058800016F04AFC142CD6BF14280120002088F8FA
:10589000000011F079FB10F4817F0DD1DDF8980E36
:1058A000B0F91200002807DC0BF0A9F9012803D099
:1058B0007D48407801287CD147F6FF70DDF86C6E9A
:1058C0000390287801904FF00009DDF89C4E3F7856
:1058D0004D4611F059FB10F4817F14BF4FF00F08B3
:1058E000D04611F051FB10F4817F14BF6FF00E0011
:1058F000CAF10000029011F047FB10F4807F1CBF3A
:105900004FF0010B4FF0200C0ED111F03DFB10F0C9
:10591000020F4FF0000B08BFBC4605D06548006879
:1059200090F83D0100F1010C0020009003988045A3
:105930006ADADDE9002000287ED9ACF1010005908B
:105940000198401E0490ACF1020003905846E345D4
:1059500038BF13B253D202FB070A1FFA8AF136F995
:1059600011100029B4BFC1F1000E8E46C6451ADDE4
:1059700041450BDDB4F904E0714502DDA180E08012
:10598000238109F101010FFA81F90CE0DDF808E04B
:105990008E4508DDB4F90AE08E4502DD6181A08103
:1059A000E381691C0DB20599884225D236F91AE0C7
:1059B00000E048E006EB4A01B1F902A0BEEB0A01A3
:1059C00048BFAAEB0E0109B2DDF800A052451CBF8A
:1059D000DDF810A0524505D058451CBFDDF80CA0DD
:1059E000504504D1B4F902A08A45B8BF6180B4F92A
:1059F00000A08A45B8BF2180401C6045ABD3019808
:105A0000521C8242A2D317E0DDE90001002913D91C
:105A10005B46E3450CD200FB073189B236F9112011
:105A200002998A42BCBF691C0DB25B1C6345F2D36C
:105A30000199401C8842EBD3A4F810906582DDF8F0
:105A4000A41E01200870DDF89C0EB0F9100000289B
:105A500009DCDDF89C0EB0F91200002803DC1248C6
:105A6000407801280CD1052347F6FF71DDF8A02E00
:105A7000DDF8680E16F046FBDDF8A81E0120087060
:105A8000DDF8980E418A08480181DDF8981E098AE0
:105A90004181DDF8981E498981810DF6746DBDE85C
:105AA000F08F0000A8A50010E0840010078500100A
:105AB000088500106C86001010B507F043F907F058
:105AC000ECF9002010BD0000FE4988707047FD48C9
:105AD00080787047FB49C8707047FA48C0787047B3
:105AE000F84800787047F74840787047F5480078E4
:105AF000022805D005281CBF0020704706F00BB90E
:105B00000BF060B8EF490870704770B5ED4E044671
:105B10000D463078A04212D002281AD0052814BFB2
:105B2000002006F0F8F844EA05213278002341EA23
:105B3000024141EA0062612107200AF0FFFA757014
:105B4000072C28BF70BDDFE804F016070B13160FF3
:105B500016000BF037F8E6E7284600F0A3FA0AE053
:105B600028460BF0D0F806E0284606F0C9F802E017
:105B700028460AF09BFB347070BDD34900200968A9
:105B8000B1F8641011F4807F08BF7047FDF713B8B7
:105B9000CD4900200968B1F8641011F4807F08BF76
:105BA0007047FDF717B8C84900200968B1F86410BC
:105BB00011F4007F08BF704716F0B3BAC249002045
:105BC0000968B1F8641011F4806F08BF704716F0CF
:105BD000ADBABC49087900281CBF401E0871704747
:105BE00070B5BA49D1F8CC00B64C10F0030F0AD00A
:105BF00040F4BE0040F02040C1F8C80020790028E1
:105C000004BF01202071B2488068AF4D10F0020F30
:105C1000296807D14FF04020406910F0010F01D0F2
:105C2000207940B1B1F86410002011F4807F18BFD2
:105C3000FCF7D0FF07E0B1F86410002011F4806F8A
:105C400018BF16F073FAA349084208BF70BD29684F
:105C5000496E090C217170BD10B572B6FEF7D4F80B
:105C6000BDE81040FDF73FBE10B5012802D0022864
:105C700005D008E04FF44330FDF774F803E04FF02F
:105C800040219548086772B6FEF7BEF8BDE810409F
:105C9000FDF729BE8B4900284A7918BF01204871B9
:105CA000C0B2824208BF70470022002818BF0122FC
:105CB0000023012102200AF041BA824840790028DD
:105CC00018BF012070477F48807970472DE9F04167
:105CD0007C4E00281CBF0020B07104D1B079002890
:105CE00018BFBDE8F0814FF040273D6B0120FDF764
:105CF000AAF90420FDF7A7F9784C0520E066FEF725
:105D00009AF840F2CF70216F11F0010F04D0B079F2
:105D100040F00E00B07103E0011EA0F10100F2DCC2
:105D2000B07978B1FEF787F86D48216F11F0040F54
:105D300004D0B07940F00100B07103E0011EA0F181
:105D40000100F2DC45F4BE0040F020403863BDE8BD
:105D5000F0815C48806970475A48406970475948EB
:105D60004069002818BFC07A70475649C86170471B
:105D70005448C06970475349086270475148006AE7
:105D800070475148026802F5C073118A508A02F5C3
:105D9000A072FCF71CBA2DE9F04FDFF8289197B0FC
:105DA0008A46C9F8180006F0EEFEC9F8140000286B
:105DB00000F0B78090F800C089F807C0417889F8F2
:105DC0000810837804460CF1010089F8093000F0CE
:105DD000FE0089F80A00E27889F80B20207989F81A
:105DE0000C00607989F80D0009F10F05A079287081
:105DF000E0796870207889F80E006046FCF728FB8F
:105E000099F80D1099F80C00FCF745FB6978287893
:105E1000FCF74BFB6946204606F0DEFE608AD9F8A7
:105E20001C5000281CBF6843050BB4F81A80D9F831
:105E30002060B8F1000F08BF4FF48058678C002F26
:105E400008BF4FF4805700201AF0040F18BF4FF41A
:105E500085701AF0080F18BF40F004001AF0020F06
:105E60001CBF40F2012108431AF0010F18BF40F493
:105E70008460616A6FF30F0A08406FF30F010843F3
:105E80004AEA000A0098109004981190089812901D
:105E90000C98149001981390A07A1690079815907A
:105EA00010A95046FBF7B0FF1AF0020F75D006F0AC
:105EB0005CF95FEA000B41D006F06EF96843050B10
:105EC00059460FE0008500106C860010006000400D
:105ED0000080004008000300AD2007B00010004023
:105EE0003F0D03000020FBF7C7FA218A00291CBFE1
:105EF0000020FBF755FB06F06FF97043000B4030B4
:105F0000C1090A20012202FA00F30B4201D1401E0E
:105F1000F9D5461FA07B002818BFA0F1010B17D1AF
:105F200012E05E480068B0F8640010F4807F18BF8B
:105F3000FCF750FE002017B0BDE8F08FB4F80CB0AD
:105F4000BBF1000FBCD1D0E70020FBF7ACFB8346D0
:105F5000E07B002814BF401EFBF7E5FB0BEB0601BE
:105F6000052903DD711A4E1D052103E00029BCBF80
:105F7000761A00210644052E03DD701FC540052654
:105F800004E0002E02DA7042854000260020FBF774
:105F9000B1FB31460020FBF7DFFB1AF0010F23D0E5
:105FA000A18A00291CBF0120FBF766FA268B3EB1AF
:105FB00031460120FBF7F4FA31461120FBF7F0FAE5
:105FC000A67D3EB1711E0120FBF794FB711E1120CE
:105FD000FBF790FBE67D3EB1711E0120FBF7BCFB99
:105FE000711E1120FBF7B8FB1AF0200F23D0A18BF4
:105FF00000291CBF0220FBF73FFA268C3EB1314638
:106000000220FBF7CDFA31461220FBF7C9FAA67F32
:106010003EB1711E0220FBF76DFB711E1220FBF7D3
:1060200069FBE67F3EB1711E0220FBF795FB711EF6
:106030001220FBF791FBE07A00281CBF0001FBF760
:106040004CF9029806F06DF8039830B12B4699F898
:10605000082099F8071016F06EF83A46414628468F
:1060600016F06EF80598FEF7A5FC0998FEF7DBFC24
:1060700006F0AFFD10F4005F1CBF0D98FEF7F0FCBA
:10608000012017B0BDE8F08F10B5FBF784FF06F0D4
:1060900050F8034900204861012010BD6C860010B3
:1060A00000850010FE4908707047FD480078704771
:1060B000FC4810B4FC4A0168914218D14168B1F51E
:1060C000987F14D80022D0F808C003461146B2EBDE
:1060D0009C0F24BF10BC704753F82140491C224438
:1060E000B1EB9C0FF8D3002A04BF10BC704700200E
:1060F00010BC7047EB48FCF735BE2DE9F041ADF51B
:10610000007D044606F01FFD40B181692162C1692E
:1061100061624169A162C068E06205E04FF0FF3052
:10612000E062A062606220623C250020C4E9025067
:10613000DD4F4FF49876C4E90076224601462B469F
:1061400052F820C0401C6144B0EB930FF8D3C1F16A
:106150000008FF224FF400716846C4F80C8015F067
:10616000B8FFCDF80C800097CDE9016510340DF132
:1061700010080FCC88E80F000FCC0DF1200888E83C
:106180000F00D4E90001A268C64CCDE90C010E92C3
:106190002046FCF7E7FD69462046FCF785FE01280E
:1061A00018BF00200DF5007DBDE8F081BC4901203D
:1061B0000870704770B50E4605461024FFF7CCFDF9
:1061C00015F0020F18BF052408D115F0010F18BFF4
:1061D000092403D115F0200F18BF0D243246102CCE
:1061E00028BF70BD002A08BF70BD204490F9281058
:1061F0002046BDE8704006F022BDF0B581B0ADF597
:10620000805D0446FFF7A8FD054614F0020F0AD092
:10621000684604270646FCF7B0F995F92C1032467B
:10622000384606F00CFD14F0010F0BD06946082724
:106230000E460120FCF7F5F995F930103246384644
:1062400006F0FDFC14F0200F02BF01B00DF5805DDB
:10625000F0BD0C2669460C460220FCF7E2F995F9E0
:1062600034102246304606F0EAFC01B00DF5805DA0
:10627000F0BD2DE9F34F8BB0002005900868029027
:1062800048680390087A0190487A0090887AB1F9BA
:106290000C90B1F90EA0CA690792D1E908840A8A64
:1062A0004969C0F5807602EA000706910B9810F064
:1062B000010F16D000984FF0000E002840F2FD802C
:1062C0000121069801FA0EF2104018BF0120049037
:1062D0000EEB4E01002001EB0E1183460A9100F0F7
:1062E000DCB80020FBF721FB0546DDE9000148434F
:1062F000032101EB400020F003024146204615F047
:10630000C5FE2846FBF711FB00980025002840F247
:10631000D4800122069802FA05F1084018BF012036
:106320000021049005EB450000EB05108C46099018
:106330004BE04A0902A801F01F0350F82220012077
:10634000984002423ED038F9020B049AA0EB0A00B2
:106350000CF1010C002A0CBFA9EB000409EB0004AE
:1063600001F0010207984FEA510B00EB4232099805
:1063700002EB8000089050F82B20C2F30720D3B224
:1063800012F4803F02D0002C02DB03E0002C01DD80
:106390009C1B00E09C19BC4205DDFF283ABF00248D
:1063A000401C3C4606E0002C04DA0028C6BF3C46F0
:1063B000401E002402F4803242EA0020089A204362
:1063C00042F82B00491C262902D201988445B0D3FB
:1063D00000986D1C85429CD36FE0420902A900F031
:1063E0001F0351F82220012199400A4252D034F96A
:1063F000021B049AA1EB0A010BF1010B002A0CBF4E
:10640000A9EB0101494438F9022BA2EB0A0214BF9F
:106410004A44A9EB02020029B4BF4B420B46002AB2
:10642000B8BF52429A4235D9079A00F0010302EBF5
:1064300043330A9A03EB82024308CDE9083252F84B
:106440002330C3F3072203F0FF0C13F4803F02D084
:10645000002902DB04E0002902DD0CEB060501E067
:10646000ACEB0605BD4205DDFF2A3ABF0025521CF4
:106470003D4606E0002D04DA002AC6BF3D46521E06
:10648000002503F4803141EA0221DDE90823294394
:1064900043F82210401C262809D201998B4505E0BB
:1064A0002485001000FE02005443524695D3009804
:1064B0000EF1010E8645FFF403AF0B98032826BFAB
:1064C0000120059005980DB0BDE8F08F2DE9F04F43
:1064D0008BB0002204920A6800924A6801920B7AFB
:1064E0004D7A8E7A0396B1F90C40B1F90E200592DF
:1064F000D1E907C24E690696098A039EC0F10808D1
:1065000001EA060700B3B8F1000F7DDB4FF0000A87
:10651000002D7AD9012000FA08FBA8F10100012121
:1065200001FA00F00A904FF00109069809FA0AF101
:10653000084018BF0120002102900AEB4A0000EB3E
:106540000A100E460990A6E04FF0000A002D5CD913
:106550004FF00109069809FA0AF1084018BF012016
:10656000002102900AEB4A0000EB0A100E46089048
:1065700045E04FEA511901F01F0B5DF82990012009
:1065800000FA0BF019EA000F36D032F9029B059899
:10659000761CA9EB0000DDF80890B9F1000F0CBFE4
:1065A000A4EB000904EB000901F001000CEB403BF7
:1065B00008980BEB80004FEA510B079050F82B0026
:1065C00010F4803F0AD0B9F1000F0FDA10F47F40C9
:1065D00018BFA0F5807040F4803007E0B9F1000FDB
:1065E00004DD10F47F4018BFA0F5807040F08000FB
:1065F000DDF81C9049F82B00491C262901D29E4247
:10660000B7D30AF1010A01E053E04BE0AA459FD35A
:1066100048E04FEA511901F01F0E5DF82990012062
:1066200000FA0EF019EA000F32D032F9029B0598F9
:10663000761CA9EB0000DDF80890B9F1000F0CBF43
:10664000A4EB000904EB000901F001000CEB403E53
:1066500009980EEB80004FEA510ECDE907E050F8A3
:106660002E0010F4803F03D0B9F1000F05DA02E0EC
:10667000B9F1000F01DD20EA0B00B8F1000FC4BF33
:10668000DDF8289049EA0000DDE9079E4EF8290070
:10669000491C262901D29E42BBD30AF1010AAA4510
:1066A000FFF441AFB8F1000FC2BF04980BB0BDE8D2
:1066B000F08F0026002D35D90398C0F5807A40F47C
:1066C000807E002006EB4601024601EB061B24E01B
:1066D000440900F01F085DF82440012101FA08F187
:1066E0000C4217D000F001010CEB413101EB8B099A
:1066F0004FEA5008521C59F82840E1B201EB5A0108
:1067000001EA0E01B94288BF394624F0FF04214353
:1067100049F82810401C262801D29A42D8D3761C6A
:10672000AE42CED3012004900BB0BDE8F08F2DE92E
:10673000F04F89B0002204920A6800924A680192E0
:106740000E7A4A7A0292D1E90772B1F90C30B1F9A6
:106750000E5049690591FE498969A0EB010CCCF105
:106760000808814245D845D102984FF00009002819
:106770003FD90121059801FA09FC1CEA000018BF65
:1067800001200390002009EB4901844601EB091B1D
:1067900028E0440900F01F0A5DF82440012101FAB5
:1067A0000AF10C421BD032F9021B039C491B0CF16D
:1067B000010C002C0CBF5C1A5C1800F0010107EB07
:1067C000413101EB8B0E4FEA500A002C5EF82A1083
:1067D000C8BF41F4803141F400414EF82A10401CFA
:1067E000262801D2B445D4D3029809F10109814584
:1067F000BFD35CE0B8F1000F5EDB02984FF00009F8
:10680000002854D908F10800012101FA00FA401EBD
:1068100001FA00F008900124059804FA09F10840F3
:1068200018BF01200021039009EB490000EB09107B
:106830008C46079034E04C0901F01F0B5DF82440B2
:10684000012000FA0BF0044227D032F9020B039C1E
:10685000401B0CF1010C002C0CBF1C1A1C1801F081
:10686000010007EB403B07980BEB80004FEA510B10
:10687000069050F82B0010F4803F02D0002C04DA70
:1068800001E0002C01DD20EA0A00B8F1000FC4BFCE
:10689000089C2043069C44F82B00491C262901D261
:1068A000B445C8D3029809F101098145B3D3B8F1C1
:1068B000000F04BF01200490049809B0BDE8F08FD8
:1068C00070B5A44D1646D5F844231205120D1DD0FF
:1068D00000281CBFC1F30800FCF709F9D5F84803EC
:1068E00040F00100C5F84803D5F8480320F0010046
:1068F000C5F848030022341E23DDD5F8481340F2C2
:10690000A91011F0010F08D1401E01D2002070BD66
:10691000D5F8481311F0010FF6D0D5F84403C0F3B1
:106920000B000244D5F8480340F00100C5F84803C5
:10693000D5F8480320F00100C5F84803641E002C78
:10694000DBDC1001B0FBF6F080B270BD2DE9F34F37
:10695000ADF5777D0020E790E69072B6FBF75AFB25
:106960000646FDF782F848B1FDF724F9E790FDF7F8
:106970000BF9FDF724F9E690FDF711F9FBF739FA69
:10698000FBF772F9ED904FF48B5000F098FE704DCC
:106990006861FBF74DFBEC90FBF768F9FBF7D4FB64
:1069A000E8900020FBF7CAFB0120FAF75AFFF290AB
:1069B0001120FAF756FFF3900220FAF752FFF090F9
:1069C0001220FAF74EFFF190FCF77CFEEB90FCF7FB
:1069D00061FE4FF49350FCF7CEFD62B6FAF71DFF4F
:1069E000EA900120FAF70FFFFAF726FFE99000205E
:1069F000FAF718FF0120FAF798FFF4900020FBF750
:106A00007EF9EF900020FBF76DF9EE900020FAF789
:106A100014FDF590002082460DF5547B4BF820A024
:106A2000401C0628FAD34C4F16F0020F4FF0010419
:106A30000AD041F618513846D49415F01DFB41F6A2
:106A40001851464815F018FB16F0010F15D04FF4F9
:106A50009871434815F010FB4FF49871414815F0B8
:106A60000BFB0120F9F76FFF002818BFD694112007
:106A7000F9F769FF002818BFD79416F0200F15D03A
:106A80004FF49871384815F0F7FA4FF49871374879
:106A900015F0F2FA0220F9F756FF002818BFD89433
:106AA0001220F9F750FF002818BFD994DFF8C080F2
:106AB000D4984FF04059002830D000210846FAF70A
:106AC000E0FD989001210020FAF7DBFD999098F8FD
:106AD00000008DF8680227480078012894BF2648F6
:106AE000264800788DF869020020FAF705FF002893
:106AF00014BF00204FF0FF309D90F8988DF86A0287
:106B00006888ADF86C02ADF86EA20020FAF766FD59
:106B1000ADF870021A489F97CDE9A090D598FF264E
:106B2000A8B100210846FAF7ACFDA290012100208F
:106B3000FAF7A7FDA39098F800008DF890028DF861
:106B40009142CDF89CA28DF8926269881AE035E0F6
:106B500024850010005000400080003000A000306C
:106B6000189D003018BD0030489E003048BE0030EF
:106B70000A85001009850010088500100B8500109B
:106B800000400030ADF89412ADF896A20020FAF75C
:106B900025FDADF898029DF8690200EB400101EB7C
:106BA000001107EB8101A9919DF86812484309EB98
:106BB0004001AA91FE4901EB4000AB90FD4FDFF888
:106BC000F883D69878B300210120FAF75AFD012105
:106BD000AC900846FAF755FDAD90FAF7B2F90028E7
:106BE0000CBF98F8000038788DF8B8020120FAF749
:106BF0005AFD04FA00F08DF8B9020120FAF731FECF
:106C0000B1908DF8BA62A888ADF8BC02ADF8BEA20A
:106C10000120FAF7E3FCADF8C002E848B390E84879
:106C2000B490E848B590D79878B300211120FAF7CE
:106C300028FDB69001211120FAF723FDB790FAF74D
:106C400080F900280CBF387898F800008DF8E00231
:106C50001120FAF728FD04FA00F08DF8E102112066
:106C6000FAF7FFFDBB908DF8E262A888ADF8E40268
:106C7000ADF8E6A21120FAF7B1FCADF8E802D2486F
:106C8000BD90D248BE90D248BF90D24FD89848B35A
:106C900000210220FAF7F5FCC09001210220FAF74A
:106CA000F0FCC19038788DF808030220FAF7FBFC5D
:106CB00004FA00F08DF809030220FAF7D2FDC5901E
:106CC0008DF80A63E888ADF80C03ADF80EA3022036
:106CD000FAF784FCADF81003BF48C790BF48C890CE
:106CE000BF48C990D99848B300211220FAF7C9FCCF
:106CF000CA9001211220FAF7C4FCCB9078788DF865
:106D000030031220FAF7CFFC04FA00F08DF83103BB
:106D10001220FAF7A6FDCF908DF83263E888ADF81F
:106D20003403ADF836A31220FAF758FCADF8380357
:106D3000AC48D190AC48D290AC48D39026A8B5903E
:106D4000CDF8D0D24CA8BE9072A8BF909DF8B902E1
:106D50000225022888BF8DF8B9529DF8E102022869
:106D600088BF8DF8E1520120FAF77BFD4FF0AA367B
:106D700020B131460120FAF764FDB1961120FAF7EF
:106D800070FD28B14FF0AA311120FAF75AFDBB96D9
:106D90009DF80903022809D9042805D99DF808138C
:106DA000C89800EB8100C8908DF809539DF8310315
:106DB000022809D9042805D99DF83013D29800EB90
:106DC0008100D2908DF831530220FAF74AFD28B1A4
:106DD0004FF0AA310220FAF734FDC5961220FAF7D7
:106DE00040FD28B14FF0AA311220FAF72AFDCF96C4
:106DF000BDF8BE0200F58060ADF8BE02BDF8E60247
:106E000000F58060ADF8E602BDF80E0300F5806085
:106E1000ADF80E03BDF8360300F58060ADF836031B
:106E2000FBF760F90026B146B0463546374603F019
:106E3000D6FC012800F07381B9F1800F00F26F8158
:106E4000DAA8FBF739FB002800F06481DAA804F027
:106E5000ADFCD69800285CD09DF8B8A20120FAF7C6
:106E600022FC012101FA00F3DFF854C10020B49C98
:106E7000B0EB4A0F38BF002105D224F81010401C97
:106E8000B0EB4A0FF9D30020B0EB530F17D200211B
:106E9000B1EB4A0F38BF00FB0AF20CD201EB420EF5
:106EA00034F811B03CF81EE0F34424F811B0491C4A
:106EB000B1EB4A0FF2D3401CB0EB530FE7D3022BD8
:106EC0000FD90020B0EB4A0F38BF5A0809D234F965
:106ED0001010B1FBF2F124F81010401CB0EB4A0F77
:106EE000F5D30120FAF7BDFC00F00300012810D112
:106EF0000020BAF1000F0CD900EB0A0134F8102081
:106F000034F8113024F81030401C24F81120824548
:106F1000F2D8D798E8B39DF8E0A21120FAF7C3FBA6
:106F2000012101FA00F3DFF8A4C00020BE9CB0EB01
:106F30004A0F38BF002105D224F81010401CB0EBD6
:106F40004A0FF9D30020B0EB530F17D20021B1EB59
:106F50004A0F38BF00FB0AF20CD201EB420E34F8A4
:106F600011B03CF81EE0F34424F811B0491CB1EB19
:106F70004A0FF2D3401CB0EB530FE7D3022B11D9C9
:106F80000020B0EB4A0F38BF5A080BD234F910106A
:106F900000E040E0B1FBF2F124F81010401CB0EB2F
:106FA0004A0FF3D31120FAF75CFC00F003001FE056
:106FB000004000300C8500100D850010189D003039
:106FC000CC090030CC490030B09D0030CC0E0030F0
:106FD000CC4E00300F850010489E00304C18003019
:106FE0004C580030E09E00304C1D00304C5D0030AD
:106FF000012810D10020BAF1000F0CD900EB0A01D2
:1070000034F8102034F8113024F81030401C24F8E3
:1070100011208245F2D818F101086FD04FF0000816
:1070200040460DF5607A4FF0010B09F101094AF86D
:1070300020B0401C0628FAD3002D08BF00240CD035
:10704000012D08BF00241AD0022D08BF002428D02B
:10705000032D08BF012635D061E0D4A850F82400E4
:1070600048B104EB840198A800EBC1013846FFF752
:107070005EFB4AF82400641C062CEED322E0D4A860
:1070800050F8240048B104EB840198A800EBC1013A
:107090003846FFF71BFA4AF82400641C062CEED38E
:1070A00010E0D4A850F8240048B104EB840198A85B
:1070B00000EBC1013846FFF7DCF84AF82400641CF5
:1070C000062CEED3012100205AF82020AAB1401C42
:1070D0000628F9D389B11F2D0DD26D1CF7980BFA34
:1070E00005F1014207D16D1C032D04D8F7980BFA66
:1070F00005F10142F7D0002700E07F1CFBF738FACA
:107100006EB9E89818B1FBF716F8FAF7BAFBFAF778
:10711000E9FF8CE6FEF73CFD002E3FF488AEFBF75E
:1071200027FAFAF7A3FD0120F299FAF78AFB11205A
:10713000F399FAF786FB0220F099FAF782FB122006
:10714000F199FAF77EFBE898FAF7F8FFE998FAF771
:1071500069FBEA98FAF757FBF498FAF7E6FBEF9821
:10716000FAF7CDFDEE98FAF7BDFDF598FAF765F957
:10717000ED9830B1EC9810B1FAF7B4FF01E0FAF7EE
:107180005DFFFCF772FC48B1E798002818BFFCF7D8
:1071900071FCE698002818BFFCF7A4FCEB980028C7
:1071A00018BFFCF720FA002E0CBF012000200DF5BF
:1071B000797DBDE8F08F2DE9F843074600200E46A3
:1071C000054600907DE0284605F0DDFC002877D0DC
:1071D000008900EA070424F0CC0030F47C406FD032
:1071E0000F212846FEF7D7FD002869D0FAF712FFD5
:1071F0000099002962D1FAF7E4FDFF210F20FFF783
:10720000A5FB0090FAF732FD0098002856D19EB1F8
:1072100014F0010F1CBF0220FEF7EFFF14F0100F57
:107220001CBF0120FEF7E9FF14F4807F1CBF202063
:10723000FEF7E3FF0098E8BB24F0990030F47940B2
:1072400006D0FDF7B0FC0090FAF710FD009888BB5F
:1072500086B314F0020F0DD0FCF731FF8046FEF725
:107260007BFD05235FEA080204D090F92D10184633
:1072700005F0E5FC14F0200F0DD0FCF79CFE8046D5
:10728000FEF76AFD09235FEA080204D090F9311085
:10729000184605F0D4FC14F4007F0FD0FCF754FE20
:1072A0000446FEF759FD0D23220007D090F9351052
:1072B000184601E002E003E005F0C1FCFEF7E4FE41
:1072C0006D1C05F05CFCA842009803D900283FF42F
:1072D0007AAF04E0002804BF0120BDE8F883002055
:1072E000BDE8F883F0B5FF4F91B001243D78FEF77B
:1072F000F7FB01287BD1FC480068B0F93610B0F9E3
:10730000340014F022FF15F0020F4FF0000644D0B5
:1073100001A800F097F906982146401C069040F21B
:107320007770FFF748FF012803D1FDF74DFD0128D5
:1073300013D008980023401C0890502005901A464E
:107340002121072008F0FAFE00231A461946FE20E4
:107350000096FDF7B9FD01A83EE015F0080F14BF37
:10736000A220A1200590786958B1E048006CC0F3D4
:107370000820ADF83C009DF83E00401C8DF83E0012
:1073800006E0ADF83C609DF83F00401C8DF83F00E2
:107390007E610798401C0790DDE715F0100F1DD0A7
:1073A000B868032824BF0024BE6005D2684600F0F8
:1073B00049F90C98401C0C9021464FF4E060FFF70F
:1073C000FAFE08B1C4B106E0002301222121072002
:1073D00008F0B4FE14B16846FEF78FFE0020FDF7FA
:1073E00089FA00232A464021072008F0A7FE11B0A1
:1073F000BDE8F04003F082B905F0EBFB20F4E0407B
:1074000005F0E4FBEAE7B74A002804BF5180704763
:10741000012804BF91807047022808BFD1807047BF
:1074200001004FF00000AF4A04BFB2F902007047FC
:10743000012904BFB2F904007047022908BFB2F95C
:107440000600704770B50126FEF732FE20B10069D4
:10745000A12818BFA22801D0002070BD002405F08B
:107460008EFB002842D9204605F08DFB00281EBF68
:10747000058925F0CC0030F47C4032D00F21204625
:10748000FEF789FC68B315F0010F0AD0FBF789F805
:1074900038B944F4807200232021072008F04EFE02
:1074A000002615F0100F0BD00120FBF7D6F838B9E5
:1074B00044F4805200232021072008F03FFE0026DC
:1074C00015F4807F0BD00220FBF7C7F838B944F4DD
:1074D000803200232021072008F030FE0026FEF72E
:1074E000D3FD641C05F04BFBA042BCD8304670BDF8
:1074F00000207047002070477A48C068704770B518
:1075000006460024FEF7E3FA40BB764D286928B30F
:10751000B6F9020046F678118142A4BF47F2305115
:10752000C84202DB0020A86070BDA968491CA960A0
:10753000032913D3C0F3072144EA014141EA006261
:1075400000236821072008F0F9FD10210120FEF733
:10755000DCFAE868401CE860012070BD002070BDC6
:107560006048407870475F4900204870704710B508
:10757000002105220846FFF7A3F95A490022A0B1CD
:10758000A0F5885059380E280FD94878401CC0B251
:1075900048700A280AD94A704FF48B5000F08FF8CF
:1075A00000281CBF012010BD00E04A70002010BD63
:1075B00010B5FEF77DFD18B34D4A016891421FD109
:1075C0004168B1F5987F1BD80022D0F808C0034667
:1075D0001146B2EB9C0F07D253F82140491C2244BC
:1075E000B1EB9C0FF8D35AB9188F00281CBFA0F537
:1075F0007F41B1F1FF0103D0FBF779FA012010BD03
:10760000002010BD10B5FEF753FDB8B1384A01682F
:10761000914213D14168B1F5987F0FD80022D0F87C
:1076200008C003461146B2EB9C0F09D253F8214023
:10763000491C2244B1EB9C0FF8D30AB1002010BDC5
:10764000188F10BD10B50446FEF732FD98B1B0E8B2
:107650000E10A4E80E10B0E80E10A4E80E10B0E86A
:107660000E10A4E80E1070E80C12806B44F830196C
:10767000C4E90D201EE0FF223C21204614F029FD24
:107680001B4820604FF4987060603C200021C4E9E2
:1076900002015020C4E90401481EE062A062A16119
:1076A0006062C4E9071021636163218784F83A109E
:1076B00084F83B100F48FBF755FB012010BD2DE966
:1076C000F04704003DD00948006C4FF00008C0F3BB
:1076D000082A40F2FF17C146464608EB070000EBB8
:1076E000D07009E0248500106C8600100060004016
:1076F0005443524600FE02004510A9B26422012004
:10770000FFF7DEF8B0B1A04288BF6F1E38BF05F1A9
:1077100001081BD1A9461FFA89F14FF064024FF00E
:107720000100FFF7CDF8A0F58850B0289CBF0120DC
:10773000BDE8F087BAF1000F15D05046FBF7D7F936
:1077400013E0FBF7DCF90120BDE8F087011B48BF1F
:10775000211A321B48BFA21B9142BCBFA946064654
:10776000B845BADDD7E7FBF7CAF90020BDE8F087D6
:1077700070470020704710B503F00700042808BFC9
:10778000FEF76AFA002010BD70B503F0070200256D
:10779000F84CF94B012A02D0022A14D011E005203E
:1077A00018709D60FCF7DCF8226853211170226884
:1077B000452151702268010A91702168C8702068C3
:1077C0000571002070BD1A78052A13D19A68052A20
:1077D00028BF104607D2D4F800C01CF802C080F8B9
:1077E00000C0501C9860052804D101209D600870DD
:1077F00003201870012070BD2DE9F04103F007024D
:1078000001260025DB4CDC4B012A02D0022A3BD0AA
:1078100037E0052018709D60FCF7A2F82168AC27BE
:107820000F702268010A51702168887005F02CF9E8
:10783000DFF8488380B1D8F8000005F045FA58B168
:10784000D8F8000090F8200010F0020F04D0206853
:1078500047702168432088702068C67020680571D1
:1078600005F012F950B1D8F8000005F02DFA28B152
:10787000D8F800002168007E487102E02168FF20EE
:1078800048710020BDE8F0811A78052A12D19A6863
:10789000062A28BF104607D2D4F800C01CF802C040
:1078A00080F800C0501C9860062803D19D600E70BF
:1078B000032018700120BDE8F08103F00702022ABE
:1078C0001CBF002070472022027001200870704702
:1078D0002DE9F041A84F0D46064613F0070F04D0DE
:1078E00003F00700022808D004E012F0040F1CBFC8
:1078F0000020B8700020BDE8F08102F0F9FE0028F9
:1079000014BF0124002402F0F6FE002814BF022256
:10791000002242EA0403B878002814BF042200229F
:1079200042EA0300307001202870BDE8F08170B594
:1079300003F0070C0026904C8E4DBCF1010F0AD0CD
:10794000204613F0070F00780DD0BCF1040F08BFDC
:10795000062818D029E0A6602868067028684670B6
:107960000520207021E005281FD1A068022803D23D
:107970002B681A54401CA060022816D10120A66072
:107980000870062010E02868007855280BD1286878
:107990004078AC2818BFBC2805D128680122411CBA
:1079A000062002F08BFE03202070002070BD70B511
:1079B00003F0070200256F4C6F4B012A02D0022A08
:1079C00024D021E0052018709D6002F042FE41F6AF
:1079D000E8710144B0F53C3F10D8CA78086862F3FA
:1079E0001F60674A904208BF002007D10A18236829
:1079F00012791A54401C1428F8D305E0002021689D
:107A00000D54401C1428FAD3002070BD1A78052AA2
:107A100013D19A68142A28BF104607D2D4F800C0A0
:107A20001CF802C080F800C0501C9860142804D1D3
:107A300001209D60087003201870012070BD70B592
:107A400003F0070200254B4C4B4B012A02D0022ABF
:107A50003FD03CE0052018709D6002F0FAFD41F631
:107A6000E8710144B0F53C3F2BD8CA78086862F34E
:107A70001F60434A904224D12268087C107022681B
:107A8000487C50702268887C90702068CA7CC270E4
:107A900020680A7A02712268487A50712268887ACE
:107AA00090712268C87AD0712268087D10722268AD
:107AB000487D50722268887D9072C87D2168C872A6
:107AC00005E0002021680D54401C0C28FAD300204A
:107AD00070BD1A78052A13D19A680C2A28BF10465F
:107AE00007D2D4F800C01CF802C080F800C0501CB7
:107AF00098600C2804D101209D6008700320187044
:107B0000012070BD70B503F007020025194C1A4E14
:107B1000012A02D0022A3FD03CE005F014F840B31D
:107B2000D0E906212368C0681A70D4F800C0130A8F
:107B30008CF80130D4F800C0130C120E8CF802300F
:107B40002368DA702268117123680A0A5A7123685F
:107B50000A0C090E9A712268D17121680872226894
:107B6000010A51722268010C9172010E2068C172E3
:107B70000DE007E098180200488500106C860010A0
:107B800034CD12AB21680D54401C0C28FAD30520CB
:107B90003070B560002070BD3278052A10D1B2680F
:107BA0000C2A28BF104604D223689B5C0370501C2B
:107BB000B0600C2804D10120B5600870032030703B
:107BC000012070BD70B503F007020024F84DF94B99
:107BD000012A02D0022A3ED03BE005201870002680
:107BE0009C6002F036FD00F50051B0F53C3F98BFB7
:107BF00011F0030F27D1F04A0868904204BF002219
:107C0000104620D151F82030401C1A440728F9D3DF
:107C100002B1C6B128680A7C02702A68487C50709C
:107C20002A68887C90702A68C87CD0702A68087D91
:107C300010712A68487D50712A68887D9071C87DCE
:107C40002968C87105E0002029680C54401C0828E8
:107C5000FAD3002070BD1A78052A13D19A68082A31
:107C600028BF104607D2D5F800C01CF802C080F823
:107C700000C0501C9860082804D101209C60087046
:107C800003201870012070BD2DE9F04103F0070CAE
:107C90000027C84E4FF00508BCF1010F0DD013F0BE
:107CA000070F0FD03246BCF1020F127810D0BCF192
:107CB000040F08BF062A26D058E086F800807770A7
:107CC000B76053E07270BD48B062062030704DE07E
:107CD000052A15D1B268042A28BF104609D2C2F17C
:107CE0000303D6F828C0DB002CFA03F30370501C02
:107CF000B060042804D10120B76008700320307000
:107D00000120BDE8F08170780125002410F0010FFA
:107D100011D002F09EFCB0F53C3F23D86A0300214D
:107D2000B1EB900F07D252F8043B491C1C44B1EB55
:107D3000900FF8D3B5B1707810F0020F0ED004F0A8
:107D400002FF78B182680021B1EB920F06D250F8A1
:107D5000043B491C1C44B1EB920FF8D3002D18BF13
:107D6000B46200D1B762777086F800800020BDE869
:107D7000F081F0B503F0070C00268D4D8D4C83B0DB
:107D8000BCF1010F0ED013F0070F1DD022460327C0
:107D90001278BCF1020F26D0BCF1040F08BF062AEE
:107DA00036D03CE002AA01A9684603F037F8052066
:107DB000207029680198087029680098487029681F
:107DC00002988870A6602AE0A068032803D2296878
:107DD0000A54401CA060022821D3062121700328E8
:107DE00008BFA6601BE0052A0FD1A268032A28BF9E
:107DF000104604D22B689B5C0370501CA0600328C3
:107E000003D10120A6600870277003B00120F0BDE7
:107E1000286882780178407802F0F3FF277003B079
:107E20000020F0BD08B503F0070001280AD104F0D6
:107E30002BFE38B101208DF80000024669460D2066
:107E400002F03CFC002008BD08B503F00700012843
:107E50000AD104F019FE38B100208DF8000001228B
:107E600069460D2002F02AFC002008BD08B503F089
:107E70000700012809D104F007FE30B103208DF876
:107E800000000122694602F019FC002008BD002014
:107E9000704708B503F0070001280AD104F0F4FD8B
:107EA00038B10B208DF8000001226946032002F052
:107EB00005FC002008BD1FB513F0070F0ED104F01C
:107EC000E3FD58B19DF80800F0280AD004F0DCFD6D
:107ED00020B1012202A9092002F0F0FB04B0002029
:107EE00010BDFEF707F9F9E708B503F00700012810
:107EF0000AD104F0C9FD38B110208DF8000001222C
:107F00006946032002F0DAFB002008BD70B503F0DB
:107F10000700274C274D012808D013F0070F12D077
:107F2000042804BF2878062816D01FE00020A86087
:107F30002168087021684870216888702168C870BD
:107F40000520287012E0A86804280FD221680A547E
:107F5000401CA860062008E004F096FD30B1042221
:107F60001046216802F0AAFB03202870002070BD93
:107F700010B503F00700012804D103F05BFD0D49A3
:107F800000200871002010BD10B503F0070C094C4B
:107F9000BCF1010F06D013F0070F11D0BCF1020F96
:107FA00020D01DE00020A06008F0BFF8A06117E01D
:107FB000981802004885001054464953EFBEADDEC4
:107FC000A068002804BF1002A06106D0012804D1D7
:107FD000A0691043A06108F0A7F8A068401CA06049
:107FE000002010BDA26812B1012A04D007E0218B45
:107FF000090A017003E0237E037001200870501C01
:10800000A060012010BD10B503F0070CFE4CBCF1C0
:10801000010F06D013F0070F09D0BCF1020F18D0E2
:1080200015E00020A06008F083F8A0610FE0A068D0
:10803000002804BF1002A06106D0012804D1A06965
:108040001043A06108F077F8A068401CA0600020F1
:1080500010BDA26812B1012A04D007E0218B090AE1
:10806000017003E0237E037001200870501CA060A3
:10807000012010BD70B503F0070CE34D0E46044619
:10808000BCF1010F06D013F0070F07D0BCF1020FAF
:1080900018D015E00020A860E86011E0A86800286A
:1080A00004BF1002A86108D0012806D1A8691043B6
:1080B00081B2A861E8880EF07CFFA868401CA86027
:1080C000002070BDE86802280ED2E8880EF075FF27
:1080D000EB6882B2002B04BF100A207004D0012B81
:1080E00002D1227001203070E868401CE860012055
:1080F00070BD10B403F0070CC34CBCF1010F08BFF6
:1081000000200BD013F0070F03D0BCF1020F09D0F1
:1081100005E0A068002808BFE280401CA06010BCF9
:1081200000207047A2681AB9A37903700120087073
:10813000501CA06010BC012070472DE9F047064696
:1081400003F00700B04F8946012808BF002039D04E
:10815000DFF8B882AE4D13F0070F02D0022835D0F9
:1081600031E0B868002808BF7A7029D0012804BF20
:108170001002B86124D0022822D1B8691043B86136
:108180007E7884B204F080FCD0B1062E18D2DFE8ED
:1081900006F00306090C1014A8F80E4010E0A8F829
:1081A0000C400DE0286884860AE02868A0F80C419D
:1081B00006E02868A0F8504002E02868A0F8524085
:1081C000B868401CB8600020BDE8F087F868022855
:1081D0002CD297F801A0002404F056FCD8B1BAF1D3
:1081E000060F18D2DFE80AF00306090C1014B8F8DD
:1081F0000E4010E0B8F80C400DE02868848E0AE0CC
:108200002868B0F80C4106E02868B0F8504002E059
:108210002868B0F85240F868002804BF200A30707F
:1082200004D0012802D1347089F80000F868401C9D
:10823000F8600120BDE8F0872DE9F0411C461746A3
:108240000E46054604F020FC68B114F0070F04D078
:1082500004F00700022809D005E0002F14BF012018
:1082600000200BF03BFC0020BDE8F081674890F84F
:108270006C00C008287001203070BDE8F0812DE945
:10828000F0411C4615460F46064613F0070F08D16D
:1082900004F0FAFB28B1022D3CBF284609F099FCF6
:1082A00003E004F00700022802D00020BDE8F081BE
:1082B00009F088FC307001203870BDE8F08170B59D
:1082C00003F007020026534C4F4D012A02D0022A28
:1082D00015D012E008F037FD21680870FDF700FCAA
:1082E0002168487003F03EFF21688870FDF7FEFBAF
:1082F0002168C87005202870AE60002070BD2A7803
:10830000052A10D1AA68042A28BF104604D223687F
:108310009B5C0370501CA860042804D10120AE604F
:10832000087003202870012070BD70B503F00702AB
:10833000384C0025344E012A02D0022A54D051E094
:10834000FDF7B6FE002836D04169FF292CBFFF217A
:10835000C9B2226811708169FF2934BFC9B2FF21F7
:1083600022685170C169FF2934BFC9B2FF21226858
:1083700091702268017CD170226890F820101171F0
:10838000018C2268090A5171016A2268090C9171F5
:10839000016A2268090ED171016BFF2934BFC9B28D
:1083A000FF2122681172406BFF2834BFC0B2FF204A
:1083B0002168487215E020680570206845702068C3
:1083C000857021685020C8702168FF2008712168DD
:1083D0004871216888712168C87120680572206819
:1083E0004572B560002070BDB2680A2A28BF1046E9
:1083F00004D223689B5C0370501CB0600A2802D131
:108400000120B560087007E048850010743601103F
:108410006C86001098180200012070BD03F007025E
:10842000FE4B4FF0000C012A08BFC3F808C001D072
:10843000022A01D0002070479A68022A3DBF80F8C6
:1084400000C0501C98601046022803D10120C3F8D8
:1084500008C00870012070472DE9F047064603F078
:108460000700EE4F8A464FF00008012808BFC7F802
:10847000088001D0022802D00020BDE8F087B8684B
:10848000A0BB0024254602F0E4F8014600F50050A8
:1084900018384FF400524FF04009B1F53C3F20D856
:1084A00090F803C003686CF31F63DFF874C363457F
:1084B00017D1091FB4EB910F06D252F8043B641C8C
:1084C0005D40B4EB910FF8D3C17D406961F31F604B
:1084D000A84206D104F0D8FA012804BF80203070E9
:1084E00001D086F80090B868401CB860012803D11C
:1084F000C7F808808AF800000120BDE8F0872DE960
:10850000F04103F007020026C64CC44D012A02D0F8
:10851000022A56D052E0FBF723FA0520287004F017
:10852000B3FA002849D0C04F386804F0CDFB0028CA
:1085300043D00EF021FD80460EF022FD39680A7E00
:1085400012F0040F11D0C98A2268090A1170396823
:108550002268897D517039682268898A090A917078
:1085600039682268097DD17010E0898A2268090A79
:10857000117039682268097D517039682268C98A8A
:10858000090A917039682268897DD17022684FEAA2
:1085900018211171216881F805802268010A917102
:1085A0002168C87138682268817C11722268017C58
:1085B0005172008B2168000A8872AE600020BDE80D
:1085C000F0812A78052A10D1AA680B2A28BF104604
:1085D00004D223689B5C0370501CA8600B2804D154
:1085E0000120AE600870032028700120BDE8F081F2
:1085F0002DE9F04703F0070200268A4D874B012A38
:1086000002D0022A5DD059E00520187000249E6037
:1086100002F01FF800F50053B0F53C3F98BF13F08F
:10862000030F45D1814A1968914204BF00221146C7
:1086300008D153F821C0491C62440729F9D3002A04
:1086400008BF01249F7C93F8138084B341F6E8713E
:108650000144B0F53C3F07D8CA78086862F31F6050
:108660006F4A904208BF012491F8129091F813A02C
:10867000002C08BF002014D004F065FA2968806936
:1086800081F80090296881F801A02A68010C000E89
:1086900091702968C87028680771286880F805807B
:1086A0000CE029680E54401C0628FAD306E0FFE7C8
:1086B000002029680E54401C0628FAD30020BDE88B
:1086C000F0871A78052A13D19A68072A28BF10461E
:1086D00007D2D5F800C01CF802C080F800C0501CBA
:1086E0009860072804D101209E600870032018704C
:1086F0000120BDE8F08710B503F0070C474CBCF132
:10870000010F06D013F0070F0AD0BCF1020F1AD0E8
:1087100017E00020A060E0600EF0AEFCA06110E069
:10872000A068002804BF1002A06107D0012805D16D
:10873000A0691043A06180B20EF09BFCA068401CB1
:10874000A060002010BDE268022A0BD212B1012AFB
:1087500004D007E0218B090A017003E0237E037037
:1087600001200870501CE060012010BD70B503F0BE
:1087700007010026294D0446012908BFEE6201D0F9
:10878000022901D0002070BDE86A002804BF2848F3
:1087900013F0E0FCE96A082928BF267002D22448B9
:1087A000405C2070481CE862012070BD2DE9F0415A
:1087B00003F007010026194D0746012908BFEE62A4
:1087C00001D0022902D00020BDE8F08195F82C00EC
:1087D00000F007042879204304D1154813F0BAFCAF
:1087E00001202871052C28BF2E711148005D3870BA
:1087F000E86A401CE8620120BDE8F08170B50446DB
:1088000003F007000D4602281CBF002070BD13F0C6
:10881000A6FC20700120287070BD00004885001063
:1088200034CD12AB981802006C86001054464953A0
:108830007885001070B503F007020025F94C012A75
:1088400002D0022A12D00FE005202070002211462B
:108850001046A56002F0E2FA4FF6FF7101EA40000F
:10886000206102F0EEFA6062002070BD2278052AD5
:1088700017D1D4F810C0A268624528BF104607D2AD
:1088800012F0010F1CBF637803700CD0501CA06065
:10889000604506D10120A56008700320207002F019
:1088A000DDFA012070BD666A22F00103F35A1E0A48
:1088B00006706370EAE770B503F007020025D94C33
:1088C000012A02D0022A11D00EE0D7480522006802
:1088D000B0F91210B0F91000227008444000A560F1
:1088E000206102F00BFD6062002070BD2278052A35
:1088F00017D1D4F810C0A268624528BF104607D22D
:1089000012F0010F1CBF637803700CD0501CA060E4
:10891000604506D10120A56008700320207002F098
:10892000FBFC012070BD666A22F00103F35A1E0AA7
:1089300006706370EAE7F8B503F007020025B94C4A
:10894000012A02D0022A14D011E000216A4608460A
:10895000009502F063FA05202070A56000984FF69C
:10896000FF7101EA4000206102F0EFFD606200202B
:10897000F8BD2278052A17D1D4F810C0A268624544
:1089800028BF104607D212F0010F1CBF6378037096
:108990000CD0501CA060604506D10120A560087075
:1089A0000320207002F0DBFD0120F8BD666A22F092
:1089B0000103F35A1E0A06706370EAE770B50D46AC
:1089C000044613F0070F04D003F00700022805D077
:1089D00002E01046FDF77EF8002070BDFDF77DF83F
:1089E00020700120287070BD70B503F007020325C8
:1089F0008C4C012A02D0022A11D00EE0FDF76DF84E
:108A000004F000FBE06100281ABF052020702570EB
:108A100004F0EBFA20620020A060002070BD2278F4
:108A2000052A0BD1E369A2689B5C0370501CA0600F
:108A3000226A904202D3012008702570012070BD87
:108A400070B503F00702794B0325764C012A02D05A
:108A5000022A0DD00AE0186804F0B2FB2062002858
:108A60001ABF0520207025700020A060002070BD76
:108A70002278052A0BD11B68A2689B5C0370501CEE
:108A8000A060226A904202D3012008702570012064
:108A900070BD70B503F00702644B0325614C012AD9
:108AA00002D0022A0DD00AE0186813F05DFB2062A4
:108AB00000281ABF0520207025700020A06000202B
:108AC00070BD2278052A0BD11B68A2689B5C0370DD
:108AD000501CA060226A904202D3012008702570C9
:108AE000012070BD7FB51C460E46054613F0070FEA
:108AF00008D103F0C9FF28B1012202A9252001F005
:108B0000DDFD03E004F00700022802D004B00020DD
:108B100070BD02F04BFA28700120307004B070BDB7
:108B20002DE9F04103F0070200273E4E8846054636
:108B3000012A02D0022A0BD007E0052030700A205B
:108B4000B760306102F07DF970620020BDE8F0810D
:108B50003078052819D1B2683069824228BF1046A2
:108B600008D212F0010F1CBF7078287010D0B068C6
:108B7000401CB0603169884207D10120B76088F895
:108B800000000320307002F069F90120BDE8F08197
:108B9000002402F00BFA012804D1B068716A20F0B9
:108BA00001000C5A200A28707470E0E77FB51C465B
:108BB0000E46054613F0070F08D103F065FF28B1F4
:108BC000012202A91F2001F079FD03E004F0070053
:108BD000022802D004B0002070BD08F0E2F928702D
:108BE0000120307004B070BD7FB51C460E460546AE
:108BF00013F0070F08D103F047FF28B1012202A9A3
:108C0000202001F05BFD03E004F00700022802D001
:108C100004B0002070BD08F0CAF92870012030703F
:108C200004B070BD488500106C86001098180200D2
:108C30007FB51C460E46054613F0070F08D103F01A
:108C400023FF28B1012202A90C2001F037FD03E027
:108C500004F00700022802D004B0002070BD08F024
:108C600072F828700120307004B070BD7FB51C46CA
:108C70000E46054613F0070F08D103F005FF28B193
:108C8000012202A90F2001F019FD03E004F0070002
:108C9000022802D004B0002070BD03F001FD00F0F6
:108CA0000F0040F0100028700120307004B070BD3B
:108CB0002DE9F04103F0070CFE4D0E460746BCF1CE
:108CC000010F07D0FC4C13F0070F07D0BCF1020FC7
:108CD0001BD017E00020A860E86013E0A868042813
:108CE0003CBF21680A54032809D120682168006824
:108CF000C97800BA20F0FF000843FCF791FAA86891
:108D0000401CA8600020BDE8F081E86870B9FCF75D
:108D10008CFA216820F07E42100E08702168100C39
:108D200048702168100A88702068C270EA68042AB6
:108D300006D22068032A805C387004BF012030709E
:108D4000501CE8600120BDE8F0817FB51C460D464F
:108D5000064613F0070F08D103F096FE28B1012252
:108D600002A9102001F0AAFC03E004F00700022889
:108D700002D004B0002070BD03F0D7FC00F00F0457
:108D800003F08EFC64F31F1030700120287004B0D3
:108D900070BD10B503F00702C64C012A02D0022AAA
:108DA0000DD00AE004F070FA0021E06100281ABF3B
:108DB0004FF4056020622162A160002010BD236A8B
:108DC000A2689A4228BF104607D2D4F81CC01CF8EB
:108DD00002C080F800C0501CA060984204BF01206F
:108DE0000870012010BD10B413F0070F4FF0402C95
:108DF00004D003F00702022A13D00FE0012A04BFB7
:108E0000DCF8140040F0010006D0002A04BFDCF8B2
:108E1000140020F0010001D1CCF8140010BC002097
:108E20007047DCF81430002213F0010F18BF012244
:108E3000A24BD3F83CC0A24B1B68B3F8A430C3F3D9
:108E40000334012303FA04F41CEA040F18BF42F0B0
:108E5000020202700B7010BC0120704770B51446FE
:108E60000E46054613F0070F04D003F00700022852
:108E700013D010E0002C14BF0120002002F0CCFD24
:108E80004CB14FF04020016B21F4405141F4BE0140
:108E900041F020410163002070BD02F0C4FD0028B4
:108EA00014BF012200222A700120307070BD2DE90C
:108EB000F04103F0070C7F4C0F468046BCF1010FD8
:108EC00012D07E4E13F0070F4FF0030510D020464E
:108ED000BCF1020F027822D0BCF1040F02BFA068DF
:108EE0000128062A2FD032E005202070002014E04F
:108EF000A06810B1012804D00DE062700620207037
:108F000009E0607800EA0201316320EA020171633E
:108F1000FAF794F82570A068401CA06017E0A068DC
:108F2000012808BF062A03D16078FAF78CF825706B
:108F3000F06B88F8000001203870A068401CA06029
:108F40000120BDE8F0816078FAF77DF825700020F7
:108F5000BDE8F08170B5044603F007000D46022815
:108F60001CBF002070BDFCF7A8FE002814BF012222
:108F7000002222700120287070BD70B50D46044695
:108F800013F0070F04D003F00700022805D002E019
:108F9000104607F009FE002070BD07F008FE2070A3
:108FA0000120287070BD70B50D46044613F0070F00
:108FB00004D003F00700022805D002E01046F7F7BE
:108FC000A9FF002070BDF7F7A8FF207001202870CE
:108FD00070BD70B503F00702DFF8D8C00C46054637
:108FE000012A08BF05200DD013F0070F08BF062087
:108FF00008D0022A09D0042A04BF9CF800000628E1
:1090000009D00EE08CF800000BE0FCF75CFE287045
:109010000120207070BD03208CF800000120FCF7B7
:1090200055FE002070BD70B503F00702214D0E46BD
:109030000446012A04BF0020A86001D0022A01D002
:10904000002070BD0EF0BDFEAA68002A04BF000A11
:10905000207004D0012A02D1207001203070501CF1
:10906000A860012070BD70B5044603F007000D46EE
:10907000022807D013F0070F04BF1046FCF724FDA9
:10908000002070BDFCF723FD20700120287070BD0A
:1090900070B5044603F00700064D0E46012804BFD4
:1090A0000020A8601DD013F0070F0BD002281AD0A3
:1090B00017E00000488500109818020000100040DA
:1090C0006C860010A868FE4904283CBF0B681A543F
:1090D000401CA860042804D104220968132001F070
:1090E000EDFA002070BD0CF0BDF9AA68002A04BF9B
:1090F000000E20700FD0012A08BF000C06D0022AF3
:1091000008BF000A02D0032A02D004E0207002E067
:10911000207001203070501CA860012070BD70B517
:1091200003F0070CE74D0E460446BCF1010F04BFE7
:109130000020A86015D013F0070F03D0BCF1020F78
:1091400011D00EE0A868DE4902283CBF0B681A5413
:10915000401CA860022804D102220968142001F0F2
:10916000ADFA002070BD0CF049F9AA68002A04BFCE
:10917000000A207004D0012A02D120700120307032
:10918000501CA860012070BD70B5044603F00700B4
:10919000CC4D0E46012804BF0020A86014D013F067
:1091A000070F02D0022811D00EE0A868C449042895
:1091B0003CBF0B681A54401CA860042804D1042248
:1091C0000968152001F07AFA002070BD0CF085F9CD
:1091D000AA68002A04BF000E20700FD0012A08BF21
:1091E000000C06D0022A08BF000A02D0032A02D0CF
:1091F00004E0207002E0207001203070501CA86054
:10920000012070BD70B5044603F00700AD4D0E4659
:10921000012804BF0020A86037D013F0070F02D048
:10922000022834D031E0A868A54C002804BF21688A
:109230000A7021680978012901D039B11BE00028A2
:1092400018BF04283CBF21680A5414E00CF060F9F0
:109250002168000948700CF04FF9C0F303260CF0A8
:1092600057F9216846EA001088700CF045F921682A
:10927000C8700320A860A868401CA860042804D116
:1092800004221620216801F019FA002070BD0CF0AC
:109290004BF9AA68002A04BF000E20700FD0012AE3
:1092A00008BF000C06D0022A08BF000A02D0032A19
:1092B00002D004E0207002E0207001203070501CC9
:1092C000A860012070BD10B503F007027D4C012A93
:1092D00002D0022A27D024E003F0D6FF0023002882
:1092E00004BFE36123621BD000F15001E1614168DA
:1092F000B1F5887F90F820100CD390F8212001EB75
:10930000020C01FB02C190F8222090F823001044C7
:10931000084404E090F822000A1801FB00202062B3
:10932000A360002010BD236AA2689A4228BF10469D
:1093300007D2D4F81CC01CF802C080F800C0501C32
:10934000A060984204BF01200870012010BD03F006
:109350000702012A02D0022A05D002E05949002062
:10936000886000207047012202700A701046704722
:1093700010B513F0070F04D003F00702022A05D03E
:1093800002E0104601F077FD002010BD4E4A127831
:1093900002700120087010BD10B513F0070F04D043
:1093A00003F00702022A05D002E0104601F0C1FFD7
:1093B000002010BD454A127802700120087010BDCF
:1093C00010B513F0070F04D003F00702022A05D0EE
:1093D00002E0104602F0D0F8002010BD3C4A12789E
:1093E00002700120087010BD1FB513F0070F07D1E0
:1093F00003F04AFB20B1012202A90B2001F05EF923
:1094000004B0002010BD70B503F007002D4C1546C8
:10941000012804BF0020A06024D013F0070F21D141
:1094200003F032FBF0B1A068254E03283CBF316841
:109430000D54401CA060032814D1F8F7DAFC306802
:10944000B0F8010045BAF8F70FFC040018BFF8F7B0
:1094500065FE306829460078F8F70EF8002C18BF32
:10946000F8F75FFE002070BD70B503F00700154CE3
:109470001646012804BF0020A06034D013F0070F67
:1094800031D103F001FB70B3A0680D4D02283CBF41
:1094900029680E54401CA060022824D1F8F7A9FCCA
:1094A000F8F7E2FB040018BFF8F738FE28680078E8
:1094B000D8B129684978F8F773F82868417809E045
:1094C00098180200488500108D85001092850010C4
:1094D00097850010007840F01000F8F761F8002C34
:1094E00018BFF8F71EFE002070BD286841780020E4
:1094F000F3E77FB51C460E46054613F0070F08D16B
:1095000003F0C2FA28B1012202A9172001F0D6F80F
:1095100003E004F00700022802D004B0002070BD70
:1095200007F0ECFB002814BF012200222A70012062
:10953000307004B070BD7FB51C460E46054613F072
:10954000070F08D103F0A0FA28B1012202A91820C0
:1095500001F0B4F803E004F00700022802D004B0E0
:10956000002070BD07F0B7FB28700120307004B0F8
:1095700070BD2DE9F04103F0070CFB4C0E46074689
:10958000BCF1010F07D0F94D13F0070F07D0BCF164
:10959000020F19D015E00020A060E06011E0A06883
:1095A00003283CBF29680A54401CA060032808D146
:1095B0002868B0F8010040BA01B228680078FDF7C9
:1095C00022FF0020BDE8F081E268022A12D242B9EF
:1095D00028680078FDF724FF2A68010A517029687D
:1095E00088702868E2681044012A4078387004BF07
:1095F00001203070E068401CE0600120BDE8F0818F
:1096000070B503F00700D84C1546012804BF0020B0
:10961000A06017D013F0070F14D103F035FA88B10A
:10962000A068D24B03283CBF19680D54401CA060B1
:10963000032807D11868B0F8010041BA186800780B
:10964000F9F76BF8002070BD10B503F00702C64CA7
:10965000012A02D0022A07D004E00020A060FAF715
:1096600070F8A061002010BDA268042A07D2C2F1E0
:109670000303D4F818C0DB002CFA03F30370501C6A
:10968000A060042804BF01200870012010BD10B59F
:1096900003F00700012807D103F0F6F920B10022FA
:1096A00011461C2001F00AF8002010BD2DE9F04100
:1096B00003F00705AC4E174688460446012D04BF4B
:1096C0000020B0601BD013F0070F16D103F0DCF9B7
:1096D00098B1B068A54B03283CBF19680F54401CD3
:1096E000B06003280BD1186890F9022090F901109E
:1096F00090F90000FBF725FC01E0022D02D00020CC
:10970000BDE8F081B06830B1012809D002280CD042
:1097100003280FD015E01420FBF75FFB207010E04A
:109720001520FBF75AFB20700BE01620FBF755FBCA
:10973000207006E01720FBF750FB2070012088F80E
:109740000000B068401CB0600120BDE8F08170B539
:109750000D46044613F0070F04D003F0070002285B
:1097600005D002E0804900208860002070BD012003
:10977000FBF733FB20700120287070BD70B503F03B
:10978000070C0026794C784DBCF1010F06D013F080
:10979000070F0CD0BCF1020F1FD01CE007F0CDFB6F
:1097A000AE60216808702168000A487013E0A8685C
:1097B000022803D221680A54401CA86002280AD15A
:1097C000AE602068007810F0010F04D0022219204A
:1097D000216800F073FF002070BDAA68022A28BF2C
:1097E000104604D223689B5C0370501CA8600228BA
:1097F00004D10120AE60087003202870012070BDE4
:109800007FB51C460E46054613F0070F08D103F03E
:109810003BF928B1012202A9232000F04FFF03E009
:1098200004F00700022802D004B0002070BD0DF043
:1098300012FC28700120307004B070BD7FB51C464A
:109840000E46054613F0070F08D103F01DF928B1A5
:10985000012202A91E2000F031FF03E004F00700FE
:10986000022802D004B0002070BD0DF0FFFB28706C
:109870000120307004B070BD7FB51C460E46054611
:1098800013F0070F08D103F0FFF828B1012202A955
:10989000222000F013FF03E004F00700022802D0AA
:1098A00004B0002070BD10F06AFA287001203070FA
:1098B00004B070BD7FB51C460E46054613F0070F79
:1098C0000ED103F0E1F858B19DF80800002818BF48
:1098D0000DF0D5FB012202A91D2000F0EFFE03E0F0
:1098E00004F00700022802D004B0002070BD0DF083
:1098F000C9FB28700120307004B070BD2DE9FF4114
:10990000194E1C460F46054613F0070F1CD103F0F5
:10991000BBF8C8B19DF80800002818BF012802D084
:10992000022807D014E0F070012202A9082000F0FC
:10993000C5FE0DE0F07004208DF80800012202A998
:10994000082000F0BBFE03E004F00700022803D06B
:1099500004B00020BDE8F081F07828700120387054
:1099600004B0BDE8F081000048850010981802009E
:109970007FB51C460D46064613F0070F08D103F0CD
:1099800083F828B1012202A9082000F097FE03E025
:1099900004F00700022802D004B0002070BDFCF7DC
:1099A0009FF8801E052813D2DFE800F003070E059C
:1099B000100000240DE001240BE0022406F079FCE5
:1099C000042808BF052404E0032402E0042400E086
:1099D000FF2434700120287004B070BD2DE9F041DF
:1099E0001C4617460E46054613F0070F0BD103F031
:1099F0004BF840B1384607F0D1F80022114601205B
:109A000000F05CFE03E004F00700022802D0002012
:109A1000BDE8F08107F0C5F8287001203070BDE87E
:109A2000F08110B5104613F0070F08BF07F079F961
:109A3000002010BD10B5104613F0070F08BF07F047
:109A400077F9002010BD70B5044603F007000D46FD
:109A500002281CBF002070BD07F072F920700120A1
:109A6000287070BD03F0070230B4FA4B4FF0000CC1
:109A7000012A05D0022A04BF1A78022A0BD01EE060
:109A800002201870F448C3F808C06FF07F410068E6
:109A9000081A986113E09A68042A28BF104606D273
:109AA0009D69D40025FA04F40470501C98600428C1
:109AB00005D10120C3F808C008700320187030BC1D
:109AC0000120704713F0070F04BFE4480270002024
:109AD000704710B503F00700DE49012804BF0020DD
:109AE000886013D013F0070F10D18868DC4B04286E
:109AF0003CBFD3F800C00CF80020401C886004284C
:109B000004D104221220196800F0D8FD002010BDF5
:109B10002DE9F047164603F007020024CD4F012A35
:109B200004BFBC60FC6064D0DFF8388313F0070F1B
:109B300007D0022A33D0042A04BF387806284FD031
:109B400058E0BD68002D08BFFE6125D0012D06D06C
:109B5000D7F81090AC1E4C4516D284B908E0701CA2
:109B60003861F9690844B0F5007F88BF3C6113E0B3
:109B70004FF400724FF43E31BB4812F078FAB84906
:109B8000F869096820440E54601C484504D1B64861
:109B9000C0F8FC8106203870681CB8602AE0FF22FB
:109BA00002703B69CBB1D7F81CC0FA689444BCF58D
:109BB000007F10D2AD4D2D68454518BF047005D10A
:109BC0000CF53C3C9CF800C880F800C0501C984242
:109BD00004BF01200870501CF8600120BDE8F08728
:109BE0004FF43E30F9F7BEF89F494FF43E30F9F795
:109BF0005BF93C700020BDE8F0872DE9F0478C460A
:109C000003F007010024934F1646012904BFBC60EE
:109C1000FC6062D013F0070F954BDFF8588207D035
:109C2000022932D0042904BF387806284DD055E0E7
:109C3000BD68002D08BFFE6124D0012D06D0D7F8E5
:109C40001090AC1E4C4515D27CB908E0701C3861F0
:109C5000F9690844B0F5007F88BF3C6112E04FF419
:109C600000721946804812F002FA7D49F8690968C5
:109C700020440E54601C484504D17B48C0F8FC8148
:109C800006203870681CB86028E0FF2101703B692D
:109C9000C3B1FA69F9680A44B2F5007F10D2764D73
:109CA0002D68454518BF047004D102F5383292F88A
:109CB000002E0270481C984204BF01208CF800005E
:109CC000481CF8600120BDE8F0871D461846F9F7EA
:109CD00049F865492846F9F7E7F83C700020BDE8E7
:109CE000F08770B503F007005A4C1546012804BFF1
:109CF0000020A06014D013F0070F11D102F0C4FEB1
:109D000070B1A068564902283CBF0A681554401C2F
:109D1000A060022804D102220968052000F0CEFCD0
:109D2000002070BD2DE9F041054603F007004C4CC2
:109D3000484E0F4601280AD013F0070F14D002280E
:109D40001BD0042804BF3078062834D03FE0002020
:109D5000B0602168087021684870216888702168A7
:109D6000C8700520307032E0B06804282FD2216816
:109D70000A54401CB060062028E0B06860B906F0C4
:109D800004FF216808702268010A51702268010CE2
:109D9000000E91702168C870B06804283ABF21682D
:109DA000095CFF21297024BF01213970401CB0607B
:109DB0000120BDE8F08102F067FE40B12068C17863
:109DC000006861F31F6006F0DBFE032030700020A6
:109DD000BDE8F08170B503F007011E4C064601296D
:109DE0000BD01F4D13F0070F11D0022919D00429F1
:109DF00004BF2078062822D02AE00020A060EA2AAA
:109E000014BF0620122060700520207020E0A0689A
:109E1000B0F5007F1CD229680A54401CA0600620BF
:109E200015E0A06818B96178286812F0A2F92868CE
:109E3000A168405C3070481CA060012070BD02F039
:109E400023FE28B1A168286812F098F90320207039
:109E5000002070BD488500109884001033840010E5
:109E600098180200554E564DC8AC0010FCF902007F
:109E700000EE0200324E564DFCEF02007FB51C464C
:109E80000E46054613F0070F08D102F0FDFD28B17C
:109E9000012202A9262000F011FC03E004F00700D3
:109EA000022802D004B0002070BD06F06FFF2870B9
:109EB0000120307004B070BD7FB51C460E460546CB
:109EC00013F0070F08D102F0DFFD28B1012202A92B
:109ED000112000F0F3FB03E004F00700022802D099
:109EE00004B0002070BD0FF0C2FD2870012030705A
:109EF00004B070BD2DE9F041054603F00700F74CB2
:109F0000F74E0F4601280AD013F0070F14D002288D
:109F10001BD0042804BF3078062834D03FE000204E
:109F2000B0602168087021684870216888702168D5
:109F3000C8700520307032E0B06804282FD2216844
:109F40000A54401CB060062028E0B06860B912F0E6
:109F50001AF9216808702268010A51702268010C00
:109F6000000E91702168C870B06804283ABF21685B
:109F7000095CFF21297024BF01213970401CB060A9
:109F80000120BDE8F08102F07FFD40B12068C1787A
:109F9000006861F31F6012F0FBF8032030700020AE
:109FA000BDE8F0817FB50D46044613F0070F04D0DD
:109FB00003F00700022808D004E0012202A92420AF
:109FC00000F07CFB04B0002070BD12F0E6F82070B9
:109FD0000120287004B070BD1FB513F0070F04D125
:109FE000012202A91A2000F069FB04B0002010BD74
:109FF0002DE9F041044603F00700B94E0F46012851
:10A0000004BF0020B06001D0022802D00020BDE8CB
:10A01000F081B24DB06860B9FDF76EFA2A68010EA2
:10A0200011702A68010C51702A68010A9170296820
:10A03000C870B06804283ABF2968095CFF21217004
:10A0400024BF01213970401CB0600120BDE8F081BF
:10A050002DE9F04103F00702A14D0E460446012A06
:10A0600004BF0020A86001D0022A02D00020BDE871
:10A07000F0819A4FA86830B912F094F83A68010A52
:10A08000117039684870AA68022A3ABF3868805C43
:10A09000FF20207024BF01203070501CA8600120D8
:10A0A000BDE8F08103F007008D49012806D013F0C8
:10A0B000070F04BF0878012806D014E001200870BB
:10A0C0000020886048610DE08868042805D24B694B
:10A0D000401C42EA03224A618860042803D103201D
:10A0E00008704869C8610020704703F00700DFF876
:10A0F000F0C1012807D013F0070F04BF9CF800003F
:10A10000022809D01EE002208CF800000020CCF8C4
:10A110000800CCF8180015E0DCF80800022808D286
:10A12000DCF81810401C42EA0121CCF81810CCF8D9
:10A130000800022806D1DCF81800CCF82000032023
:10A140008CF800000020704770B403F0070200256F
:10A15000634C012A02D0022A06D002E002202070BD
:10A16000A56070BC002070472278022A1CD1D4F868
:10A1700020C0A268624528BF10460ED212F0030F1D
:10A1800004D1E36953F8046BC4E90663237E0370CA
:10A19000A069000AA061501CA060604504D10120A4
:10A1A000A56008700320207070BC0120704770B556
:10A1B00003F0070000254A4C0E46012806D013F094
:10A1C000070F04BF2078022805D02BE00220207062
:10A1D000A560A56126E0216AA068884219D2A1691C
:10A1E000090A41EA0262401CA26110F0030FA0605C
:10A1F0000FD1E069B0F5443F28BF026006D2B0F548
:10A20000005F03D304223749F8F7A2FEE069001D7E
:10A21000E061216AA068884204D10120A560307005
:10A2200003202070002070BD70B503F0070C0025DE
:10A230002B4CBCF1010F08BFA5603AD013F0070FFB
:10A2400003D0BCF1020F36D033E0052A08BF4FF42B
:10A250003E302DD005DC16D2DFE802F0171A1D20A3
:10A2600022002148202A006808BFB43020D006DC34
:10A27000102A1DD0112A08BF1C4819D003E0302A2B
:10A2800011D0312A12D0656113E04FF400500FE075
:10A290004FF443300CE04FF4203009E0144807E05D
:10A2A0004FF4403004E001F07BFC01E00FF03EF899
:10A2B0006061002070BDA268042A07D2C2F10303C6
:10A2C000D4F814C0DB002CFA03F30370501CA06018
:10A2D000042824BF01200870012070BD98180200D6
:10A2E00048850010608500106C86001074360110DF
:10A2F00000FE020070B403F0070CDE4DBCF1010F4C
:10A3000007D0DD4C13F0070F07D0BCF1020F21D0AE
:10A310001DE00020A860E86019E0A86805283CBF9F
:10A3200021680A54042810D123682268D4F800C098
:10A33000D3F80130696912781BBA9CF804C023F085
:10A34000FF0343EA0C0341F82230401CA86070BCB4
:10A3500000207047EB6873B1042B07D22268032BEF
:10A360001A445278027004BF01200870581CE8603B
:10A3700070BC012070472268D5F814C012785CF8D0
:10A38000222026684FEA126C86F801C026684FEA40
:10A39000124C86F802C026684FEA122C86F803C0D9
:10A3A000D4F800C08CF80420D8E710B503F00700FB
:10A3B000012804D1002211460E2000F07FF9002070
:10A3C00010BD2DE9F04103F00704AA4E1746884658
:10A3D0000546012C04BF0020B06017D013F0070F12
:10A3E00012D102F051FB78B1B068A34902283CBFFA
:10A3F0000A681754401CB060022807D1022209687D
:10A40000072000F05BF901E0022C02D00020BDE83B
:10A41000F081B26812B1012A04D009E0FBF760FBB9
:10A42000287005E0FBF762FB2870012088F8000027
:10A43000B068401CB0600120BDE8F08170B503F049
:10A44000070000258B4C012808D013F0070F0BD014
:10A45000042804BF2078062825D02DE06561A56179
:10A460006570A560257027E0A068022807D26169A1
:10A4700042EA0121616161781144617010E00428B1
:10A4800007D2A16942EA0121A1616178114461709A
:10A4900006E0052804D261788A4204BF06212170B3
:10A4A000401CA06008E0D4E9050101F0D7FB0028BA
:10A4B00004BF0120A0702570002070BD10B56D4C48
:10A4C00013F0070F07D003F00700042804BF20781B
:10A4D000062822D02BE0A068022807D2616942EA50
:10A4E0000121616161781144617013E063490918C9
:10A4F00008D261490968014401F8022C61781144CD
:10A50000617007E05E49091804D261788A4204BF8D
:10A5100006212170401CA06009E05A49606901F0E1
:10A52000BFFB002804BF0120A07000202070002085
:10A5300010BD03F0070CBCF1010F00D0BEE74D4980
:10A5400000204861487088600870704730B403F09C
:10A5500007050024DFF81CC1012D07D013F0070FF9
:10A560000DD0022D3CD0042D54D06FE0CCF8144017
:10A57000CCF81840CCF808408CF8004066E0DCF8D5
:10A58000080002280BD2DCF8141042EA0121CCF8B2
:10A5900014109CF8011011448CF8011019E00428E3
:10A5A00017D2DCF81810032842EA0121CCF8181061
:10A5B0009CF801301A448CF801200AD106228CF84C
:10A5C0000020DCF81420114304BF4FF4C471CCF810
:10A5D00018102D49401CCCF82810CCF8080035E0A4
:10A5E000DCF80820042A28BF10460AD2C2F103036F
:10A5F000DCF82850DB0025FA03F30370501CCCF87C
:10A600000800042803D10120CCF80840087030BCB1
:10A61000012070479CF80000062815D1DCF81400D2
:10A6200000224102DCF8180043021046B2EB930FFF
:10A6300006D251F8045B401C2A44B0EB930FF8D3C8
:10A64000CCF828208CF80040CCF8084030BC002022
:10A6500070474FF443300168880A424211EB82226E
:10A6600018BF401C404201EB8000C01C20F00300DA
:10A67000704700004885001098180200FEFDFFFF9B
:10A68000FDFDFFFFC8AC0010EFBEADDEF8480022B4
:10A6900002704270827002714271C270DFF8D4C3DE
:10A6A000114601EB410300200CEB43031A54401CFC
:10A6B0000628FBD3491C2029F3D3704711F077BD3E
:10A6C0002DE9F04115460E460746F8F74FFF00F01A
:10A6D00008040820F8F745FF2A463146384611F0AD
:10A6E00066FD05462046F8F737FF2846BDE8F081AD
:10A6F000DF4880787047DE4840787047DC490020AA
:10A7000048707047DA490820887170472DE9F04198
:10A710000026F7F782FC044610F00F0559D02846B2
:10A72000F7F77EFC012D1FD0FBF7E0F944EA006447
:10A73000002322460321072005F000FD14F0050F39
:10A7400014BF00200120F5F70DFE14F0060F40D0D5
:10A750000126FBF7C5F9054606F034FA0746022D37
:10A7600026D0052D09D034E0FBF7BAF9C0498A7923
:10A77000904218BF8871D7D1E7E714F0020F13D0C9
:10A78000F6F752F800281CBF0020F6F759F8012010
:10A79000FAF7B0F80120F6F75FF80020FAF7BEF8F4
:10A7A000012001F0CFFA06E00120FAF7B7F802E045
:10A7B0000120FAF79FF801F0BAFA002818BF01F05B
:10A7C000BDFA022F05D0022D4FF0020004D001F097
:10A7D00097FA3046BDE8F08106F095FAF9E72DE9E1
:10A7E000F84F0026F9F727FBFBF77AF9022804D186
:10A7F00001F00EFF002818BF0126FBF771F90528AC
:10A800001BD1FAF791F8C0B101F08EFA5A2814D38F
:10A81000F6F70AF800281CBF0020F6F711F801F03F
:10A8200097FA002818BF012001F095FA0120FAF7E5
:10A8300061F80020FAF772F80126FFF767FF002899
:10A8400018BF0126DFF8289299F80200002800F0CE
:10A850008782D9F808006D464FF0FF34002740B1D9
:10A86000D9F8082000230121084605F067FCC9F843
:10A870000870F8F77BFE00F0080A0820F8F771FE70
:10A8800099F80300DFF8ECB100B399F8050000EB8C
:10A890004001401CC0B20BEB410189F805002028A3
:10A8A00028BF89F8057099F80300401E89F8030055
:10A8B0004C7891F800800020002C05DD0A18927871
:10A8C0002A54401C8442F9DC0F704F705046F8F750
:10A8D00043FE002CC0F2348208F0FF000024272839
:10A8E00080F0EB81DFE800F0AF25F51D2837144438
:10A8F000F449AF868CD2F391ABB5F2F1F0EFEEFBF9
:10A90000ECEBEAAFE9E8E7E6E5AFE4E3E2E1B0006B
:10A910009DF80000AC280CBF01200220FBF7A4F931
:10A9200007E09DF800100120FBF7EFF8012089F8FF
:10A930000100012400F0C1B99DF80310009861F3F3
:10A940001F6002F04FFB01210320FBF7DEF801201E
:10A9500089F80100EDE7BDF8000040BA06F018F9EB
:10A9600002210320FBF7D1F8012089F80100E0E77C
:10A970009DF801109DF80000AEE04FF0010A89F843
:10A9800001A099F8000088BBF7F73CFB70B39DF875
:10A99000005089F800A0FBF7A3F8012808BF0025A4
:10A9A00015F0040F18BFFCF7A3FD15F0020F07D038
:10A9B000FF210F20FBF7CAFFFAF7F5F845F0010574
:10A9C00015F0010F10D0FBF78BF8022802D106F02A
:10A9D000F9F848B1FBF784F8052802D101F09BF99A
:10A9E00010B10020FAF7C8F889F8007089F80170F2
:10A9F00000F063B99DF80000401E01F03DFC98E7AF
:10AA00009DF8000006F0A2F993E79DF8000010F011
:10AA10000F0F0BD0012001F073FE9DF800001021F4
:10AA200000F00F0001F040FE00F047B9002001F0F7
:10AA300067FE9DF80000002100F00F00F2E79DF88E
:10AA4000000001F063FE38E19DF8000006F092F985
:10AA500033E19DF8000010B101280DD02DE1002058
:10AA60000FF002F800200EF063FC00200BE0000065
:10AA700080850010C8AE001001200EF0F5FF032005
:10AA80000EF056FC01200EF076FC16E19DF8000059
:10AA900000B3FBF725F8022818BF012406F03BF9A4
:10AAA00001460220FBF731F807E1FDE001E1F4E0A7
:10AAB000EEE0CFE0C9E0D2E0BAE070E028E022E0CA
:10AAC0001CE00CE09AE08BE084E06BE05CE031E0BD
:10AAD00042E0B6E000210620FBF717F829E79DF8D1
:10AAE0000000002818BF012006F0FEF89DF80000C5
:10AAF000002818BF012001F0F9F8DEE09DF8000001
:10AB000006F0DEF8D9E0BDF8000006F0A4F910E781
:10AB10009DF8000020B1012840D0022805D0CCE0EB
:10AB20004FF44330F8F71EF9C7E002F005F80021B2
:10AB30000420D1E7F8F71AFD00F008040820F8F720
:10AB400010FD99F80300002808BF89F8027020461C
:10AB5000F8F702FD0121BEE79DF80000062805D2A6
:10AB6000DFE800F004070A0C030FB3E702210846F0
:10AB7000B2E702210520AFE7002103E00021042015
:10AB8000AAE704210320A7E79DF80300009A002309
:10AB900060F31F626221072005F0D0FA8DE0FAF71A
:10ABA0001EFAC6E69DF800009DF80110000140EA7B
:10ABB00011100AF039FC9DF801109DF8020001F017
:10ABC0000F0140EA01200AF035FC9DF803000AF06D
:10ABD0003DFC2AE0BDF8000040BA0AF012FC6CE02F
:10ABE0009DF800000AF04AFC9DF801000AF059FCAB
:10ABF000BDF8020040BA0AF067FC5EE09DF8000074
:10AC00000AF077FC9DF801009DF80210000140EA6F
:10AC100011100AF080FC9DF802109DF8030001F06D
:10AC20000F0140EA01200AF06AFC0AF086FC44E0C9
:10AC30009DF800000CF023FA9DF8000000287FF436
:10AC400078AE0020F9F756FE73E69DF8000006F096
:10AC5000A3F96EE69DF8000006F0A6F969E60CF08F
:10AC600005FA9DF8004006F068F9012C0AD0022C84
:10AC700008BF40F0805005D0042C14BF082C40F0D1
:10AC8000005001D106F0B4F820460CF0EAF950E685
:10AC90009DF800000FF076F80FE09DF800000CF032
:10ACA000D7F905F0C5FF08E09DF8000000F06FF946
:10ACB00003E09DF8000011F07FFA0CB101263FE09F
:10ACC000D9F808006D464FF0FF3440B1D9F808209C
:10ACD00000230121084605F031FAC9F80870F8F799
:10ACE00045FC00F0080A0820F8F73BFC99F803003F
:10ACF00000B399F8050000EB4001401CC0B20BEB1B
:10AD0000410189F80500202828BF89F8057099F8C5
:10AD10000300401E89F803004C7891F80080002061
:10AD2000002C05DD0A1892782A54401C8442F9DC74
:10AD30000F704F705046F8F70FFC002CBFF6CCADEB
:10AD4000F8F714FC00F008040820F8F70AFC99F85A
:10AD50000310002908BF89F802702046F8F7FCFBB1
:10AD6000002E14BF01200020BDE8F88F024600200D
:10AD7000022928BF70473AB1012A0AD0022A04BF2B
:10AD8000FE4800EBC100704740F2DB104843FC492D
:10AD900004E001EB4100C0EB4110FA4901EB8000F7
:10ADA000704770B5F8F7E2FB00F008060820F8F7E6
:10ADB000D8FBF54D00246878FF2806D240F6D8610C
:10ADC000EF4811F059F9AC70EC70A879FF2805D262
:10ADD000E821EC4811F050F9EC712C72E87AFF2868
:10ADE0000AD2EA49C1F8C043C1F8C443C1F8C84314
:10ADF000C1F8CC432C736C733046BDE87040F8F753
:10AE0000ABBBDFF88CC300FB01F31CEB030C88BF6A
:10AE10007047DD4BDA61C3E905017047DFF868C3AD
:10AE20000028DCF8143018BF0360D7480029806977
:10AE300018BF0860002A1CBFDCF81C1011605843C2
:10AE40007047D14801210171007840F2DB1180F098
:10AE500001004843CA4901EB80007047CA48827824
:10AE6000002132B1C27822B9027882F00102027068
:10AE7000817001717047C4491E284A78487008BF24
:10AE8000002003D01F2808BF012000D10870104601
:10AE90007047BD48007840F2DB1180F00100484364
:10AEA000B74901EB80007047F0B4B74E96F800C088
:10AEB00040F2DB140CFB04FCB14C756904EB8C0C08
:10AEC00003FB05F40CEB440C8D4234BF2C460C46BE
:10AED000B669F31A934238BF1A460026002A9CBF6F
:10AEE000F0BC70470023002C06D930F813702CF802
:10AEF00013705B1C9C42F8D8761C0CEB450C00EBE5
:10AF000041009642EED3F0BC70472DE9F0419E4FD0
:10AF100014468C4601467A7806981D468A4218BF28
:10AF2000BDE8F0810121F970012802D0022824D067
:10AF300029E0387840F2DB11484391497E6901EB02
:10AF40008001A64234BF32462246B869A84238BFC3
:10AF500005460023002D16D90020002A06D91CF82A
:10AF6000007021F81070401C8242F8D85B1C01EB85
:10AF70004601A444AB42EFD305E000232A46214614
:10AF80006046FFF791FFBDE8F04100F0D3BC7E4A78
:10AF900001281146D073497808BF242004D0002826
:10AFA00006BF2429FF207047507070477648C07B49
:10AFB000704770B4DFF8DCC1DCF800C0DCF818C002
:10AFC0001CF0040F1ABF012424EA0C060CF0010641
:10AFD00005680C68002E1CBF1B1B5C1E1CF0020FBA
:10AFE0001CBF521B551E1CF0040F19BF04600D60DE
:10AFF00005600C6070BC7047002808BF704762494C
:10B00000654B4A7865491B78002A097818BF022ADF
:10B0100005D0042A18BF092A01D0012244E7604A5A
:10B020001278012A84BF5F4A1378012200F09CBC89
:10B030002DE9F04FDFF850918BB0012189F8031012
:10B040005949574C574E0D785349DFF834B10F78B2
:10B0500099F8011012292FD00CDC04291CD004DC33
:10B06000002918BF02290DD116E0092914D0112991
:10B0700022D007E013291FD0212918BF22297BD015
:10B0800024297AD0002800F0348100233A4629464A
:10B09000FFF70AFF00F02DB92178012902D94349B1
:10B0A00037780D78002800F0248100233A4629469D
:10B0B00000F05AFC00F01DB9F6F79BFEF6F7D4FD40
:10B0C0000090002818BFF7F729F82078012888BFDA
:10B0D0003778F6F79FFF10F0040F18BF7F1CDFF8DA
:10B0E000D08099F80100A0F1110699F8000040F213
:10B0F000DB114143D9F814000BEB8104A84238BF9F
:10B100000546D9F81800B84238BF0746F7F74FF898
:10B1100001900020F7F76EFB4FF0000A002F56DD7C
:10B120004FF00009002DC4BF0AEB4A0000EB0A1BD8
:10B1300045DD019810F90900262824BF002024F8D5
:10B14000190018D200F0010108EB413100EBD0707A
:10B1500001EB8B01401051F820104FF0FF304EB33F
:10B16000012E08BFC8B204D0022E04BF0846F7F76C
:10B1700047FB24F819001EE036E03DE048BF001010
:10B1800088AF001060BE00108C85001088BB0010D6
:10B190004AFCFFFF6C860010088500100E85001029
:10B1A000098500100B850010078500100A85001026
:10B1B0000080003011E009F10109A945B9DBF94827
:10B1C0000AF1010ABA45406904EB4004A8DB009883
:10B1D000002818BFF6F7A5FF8BE011F4803FC1F3FC
:10B1E000072018BF4042C4E700287DD00023BA1CC6
:10B1F0002946FFF759FE7CE000287AD00646EA4847
:10B200000068007E10F0040F07BF2C46BA463C468B
:10B21000AA46A2084FEA9A000590A4EB9401069072
:10B2200000926008491ECDE901104FEA5A000790CC
:10B23000AAEB9A00401E08900990CDE903215346DD
:10B24000224605A96846FFF7B4FE5346224605AFDD
:10B2500006A9E84601A8FFF7ACFE5346224607F1CF
:10B26000080108F10800FFF7A4FE5346224607F143
:10B270000C0108F10C00FFF79CFE5346224607F133
:10B28000100108F11000FFF794FE99F8000040F259
:10B29000DB11414300220BEB8100914620F8129014
:10B2A00058F82210A1F1010C491C61451ED357F832
:10B2B00022104B1E491C99420FD303FB05C136F9DE
:10B2C000114030F912108C42C8BF20F8124057F8D4
:10B2D00022105B1C491C9942EFD258F822100CF145
:10B2E000010C491C614500E003E0E0D2521C052A34
:10B2F000D4D30BB0BDE8F04F00F01CBBA94801212E
:10B300004172407980F0010000EB4001C1EB401038
:10B31000A64901EB80007047A248C279002132B1F2
:10B32000027A22B9427982F001024271C1714172FE
:10B3300070479C491E288A79887108BF002003D075
:10B340001F2808BF012000D148711046704795485A
:10B35000407980F0010000EB4001C1EB40109349BF
:10B3600001EB800070472DE9F04F914985B0012233
:10B3700091F800808F4991F800908A490A72897982
:10B380008A4C11291CBF1229132936D0F8B18549DE
:10B39000497901EB4102C2EB411104EB810200212A
:10B3A00019EB080C18BF804C11D02368B9F1000FBD
:10B3B0005B8A03BF30F811500B4422F8135030F869
:10B3C000113018BF22F81130491C8C45EDD8F8F720
:10B3D000CDF800F008050820F8F7C3F8714C607A42
:10B3E000002818BF01217CD0E1712846F8F7B4F895
:10B3F0000020207205B0BDE8F08FF6F7FAFCF6F7F2
:10B4000033FC0190002818BFF6F788FE6548817963
:10B41000A1F11105016A0091407900EB4001C1EBF7
:10B42000401004EB8006F5F78CFD634F63494FF045
:10B43000110A002804BF8B46012004D0BB465046A9
:10B440000F464FF0010AF7F7D5F9F6F7AEFE0024E4
:10B450000390B9F1000F28D900984C21484302907D
:10B4600003980057262824BF002026F8140019D27C
:10B4700000F001010BEB413200EBD070029940105B
:10B4800001EB8000002D11584FF0FF3049D0012D05
:10B4900008BFC8B204D0022D04BF0846F7F7B0F9C0
:10B4A00026F81400641C4C45DAD306EB49065046D6
:10B4B000F7F7A0F9F6F77BFE00248246B8F1000FFB
:10B4C00029D900984C2100FB01F94FF0000B1AF923
:10B4D0000400262828BF26F814B019D200F0010174
:10B4E00000E02CE000EBD070401007EB413109EB9D
:10B4F000800009584FF0FF30D5B1012D08BFC8B208
:10B5000004D0022D04BF0846F7F77AF926F8140094
:10B51000641C4445DBD30198002818BFF6F701FEF0
:10B5200055E711F4803FC1F3072018BF4042B7E749
:10B5300011F4803FC1F3072018BF4042E6E760796D
:10B5400080F00100607100214EE7164801218173EF
:10B55000807A1B4980F0010001EBC0007047114860
:10B56000027B002132B1427B22B9827A82F0010251
:10B5700082720173817370470A491E28CA7AC872A1
:10B5800008BF002003D01F2808BF012000D1887207
:10B59000104670470348807A094980F0010001EBAA
:10B5A000C00070478C8500106C86001060BE0010D3
:10B5B0000C8500100D850010B09D0030189D0030E6
:10B5C00048BF00102DE9F04FFB4987B001224A73B4
:10B5D000C97AFA4DFA4C11291CBF122913292CD013
:10B5E000A8B1F549897A237805EBC10294F801C026
:10B5F000002113EB0C0F0AD030F8113022F8113073
:10B60000237894F801C0491C63448B42F4D8F7F7BF
:10B61000ADFF00F008060820F7F7A3FFE64CA07B7B
:10B62000002500281CBF012121737CD03046F7F78C
:10B6300093FF657307B0BDE8F08FF6F7DAFBF6F716
:10B6400013FB0490002818BFF6F768FDDD4805904D
:10B650002078617800EB0108D749C87A8A7AA0F18E
:10B660001109086AC96905EBC20B414538BF884614
:10B670000221029112210391002500EB40012E4688
:10B6800001EB001A02AC54F82500F5F75CF900282C
:10B690004DD054F82500F7F7ADF854F825000021F7
:10B6A000F5F7EFFF009054F825000121F5F7E9FFC9
:10B6B000019005EB4500059900EB0510002401EB16
:10B6C000C0072EE0E01704EBD060421120F01F000D
:10B6D0005DF82210221A01209040014220D004F08F
:10B6E000010007EB403004EBD47100EB8A004910F5
:10B6F00000EB810141F64860B9F1000F09584FF0A5
:10B70000FF301DD0B9F1010F08BFC8B205D0B9F1A3
:10B71000020F04BF0846F7F773F82BF81600761CE3
:10B72000641C464500E012E0B8BF262CCADB6D1C45
:10B73000022DA7DB0498002818BFF6F7F2FC66E795
:10B7400011F4803FC1F3072018BF4042E5E7A07A1B
:10B7500080F00100A072257368E770B50D46964928
:10B760000122CA70984A49781678984A2129147893
:10B770001EBF2229232970BD002818BF002D11D01B
:10B78000002322463146FFF78FFB631C012221462E
:10B790002846FFF789FB05EB4400A31C0122314634
:10B7A000FFF782FBBDE8704000F0C4B870B5824D71
:10B7B0000446687868B9E06858B185490978012974
:10B7C00094BF824983490B7883490122097800F0AC
:10B7D000CBF8E87A112804BF0020FFF7F3FEE87ADF
:10B7E000122804BF0020FFF7EDFEE87A132804BFFB
:10B7F0000020FFF7E7FE6878002804BFA068FFF785
:10B8000017FC6878112804BF0020FFF711FC687846
:10B81000122804BF0020FFF70BFC6878132804BF30
:10B820000020FFF705FC206920B1A979002908BF95
:10B83000FFF799FDA879112804BF0020FFF793FDB9
:10B84000A879122804BF0020FFF78DFDA8791328DE
:10B8500018BF70BD0020BDE8704084E52DE9F74FAA
:10B86000804659480D46002690F800A05748524996
:10B87000344690F80090BAFBF5F000FB09F7012080
:10B88000C870087C0978DFF854B188420ED04A4A63
:10B8900040F2DB1148430BEB8001107840F2DB12E1
:10B8A00050430BEB8000920010F0F0FB0298002850
:10B8B00088BFDFF804B12DD99BF811C00022BCFB72
:10B8C000F9F009FB10C101FB0AF100FB0510002D86
:10B8D00012D938F814309BF8001040F2DB1E01FB3F
:10B8E0000EFE3E49641C01EB8E0100EB020E521C61
:10B8F00021F81E309542ECD80CF10100C0B28BF853
:10B900001100B84224BF00208BF81100761C029869
:10B910008642D1D32849487C401EC0B24874874231
:10B920009CBF781E48740878087403B0BDE8F04FD7
:10B93000AFF3008070B5F7F719FE00F00806082095
:10B94000F7F70FFE1C4C20790025002801BF207856
:10B9500080F001002070A5701CBF0120A07030464F
:10B96000F7F7FAFDE57070BD2DE9F04799461646E8
:10B970000D460446F6F720FC5FEA000C30D00E4975
:10B98000087840F2DB125043144AD1F8148002EBDD
:10B99000800009FB08F200EB4200454594BF2F46AA
:10B9A00047468969A1EB0901B14238BF0E46002123
:10B9B000002E1DD8BDE8F0878C85001048BF001010
:10B9C0000F850010008000300785001008850010EA
:10B9D000098500100B8500100E85001088AF00103F
:10B9E0004B46324629462046BDE8F047FFF75CBA91
:10B9F0000023002F08D91CF9032034F8122020F866
:10BA000013205B1C9F42F6D8491C00EB480004EB56
:10BA10004504B142ECD3CDE75849002814BF0020BB
:10BA20000120087070475548007800280CBF01209D
:10BA3000002070475148017829B14FF040214A69F0
:10BA400042F001024A61002141608160C1600161F0
:10BA500070474A48017829B14FF040214A6942F0C5
:10BA600001024A61002141608160C160016170474B
:10BA700070B50446F7F77AFD00F008050820F7F7DF
:10BA800070FD3E4A3E490023D06801EBC001401CD6
:10BA9000D060B0F5807F28BFD360207808706078D0
:10BAA0004870A0788870E078C87020790871607953
:10BAB0004871A0798871E079C8711069B0F5807F0C
:10BAC0003CBF401C106116D31D2008700120487037
:10BAD000207888706078C870A0780871E078487124
:10BAE000207988716079C8719068401C9060B0F5C9
:10BAF000807F28BF9360506840F00100506010784C
:10BB000028B14FF04020416921F0010141612846F0
:10BB1000F7F722FD012070BD00B50178427883B0AF
:10BB2000890141EA82018DF80010418809098DF8E8
:10BB30000110818809098DF80210817801F00F0247
:10BB4000017962F31F118DF80310017A8DF804104A
:10BB5000417A8DF805108179C27901F03F0102F038
:10BB60000C0241EA02118DF80610C07980018DF8AF
:10BB700007006846FFF77CFF03B000BDB0850010EA
:10BB800058BF0010002818BF2D482E498863704701
:10BB90002C48806B2A4988420CBF01200020704746
:10BBA00028487047284B4FF0000C1D681B1F1C686D
:10BBB000244B19605A602549D963DD6215F0804F26
:10BBC00022D0210C5985210A83F8291083F82840B6
:10BBD000598D19B15A8D012141EA024C93F829106F
:10BBE00039B193F82910022242EA014C1849096838
:10BBF000196393F8281039B193F82810032242EA08
:10BC0000014C1449096859634FF04021C1F878C0CC
:10BC10008269CA67B0E834109A60DC601D61C3F8BD
:10BC200014C090E815109861DA611C62C3F824C052
:10BC3000986B034A904204BF07480867FEE700007C
:10BC4000504D5544005F01102CED00E0544C41462E
:10BC500038ED00E034ED00E0AD2007B070B50E46E1
:10BC60000446F9F73DFF042811D1A4F5A070482837
:10BC70000DD2A019A0F24110482808D26502002474
:10BC8000002E04D92846F7F76DF8012801D00020CE
:10BC900070BD641C05F50075B442F3D3012070BD7E
:10BCA00070B50D460446F9F71BFF04280AD1A4F528
:10BCB000A070482806D260022946F7F7F5F8012857
:10BCC00008BF70BD002070BD10B5074CFEF787FDA2
:10BCD000012808BF10BD206800F0F6FF002818BF3B
:10BCE000F9F756FFF2E700006C860010FE4A0028C4
:10BCF000916814BF41F0010021F00100906070478D
:10BD0000F94B99680A0E120721F07F4142EA006060
:10BD1000084398607047F4488068C0F30360704738
:10BD2000F1488068000F7047EF48C0687047EE48E0
:10BD300080697047EC49012088617047EA4900201A
:10BD400088617047002818BF0120E7494870704794
:10BD5000E54840787047002818BF0120E249887004
:10BD60007047E148807870472DE9F041AEB0002778
:10BD70000EF01FF80646A02102A810F07DF900245D
:10BD800025464FF00308305D10F0800F18D0601C7E
:10BD90008DF8A9008DF8AF508DF8A880ADF8AC50A3
:10BDA0008DF8B050ADF8AA508DF8AE508DF8B15066
:10BDB0008DF8B450355501272AA902A8F4F7C0FB25
:10BDC000601CC4B20A2CDED3012F06D1102302AAB4
:10BDD0000621012000950EF0EFFB0DF06EFE2EB057
:10BDE000BDE8F0812DE9F04FDFF8009387B0D9F876
:10BDF0000000B0F90E11B0F90C0110F0A6F9F4F73B
:10BE00006EFC0120F8F776FD0020F6F797F90DF0AB
:10BE1000AAFF042000F047F9F8F76AFD09F058FC82
:10BE2000F9F75EFE05285ED1DFF8BC824FF0000A0C
:10BE30004FF0402BD8F80800C8F80CA0C8F810A0A4
:10BE4000C0F30365C8F814A0D9F80000A900D0F821
:10BE5000F80020FA01F101F00F04C0F30327C0F34A
:10BE60000336BC420FD10F2E0DD004F0B2FF20B12B
:10BE70000BF0FCF8082818BF3446D8F81C00A04284
:10BE800018BFC8F81C404FF48056BC4205D104F0DE
:10BE900096FF002808BF4FF400663046F9F76BFFA5
:10BEA0002946052004F0D8F9002D7DD0022D30D090
:10BEB000042D7AD0D8F808000A2D4FEA106120F03E
:10BEC0007F404FEA017118BF41F000710843C8F884
:10BED0000800FEF784FC012805D00DF0EEFDF9F70F
:10BEE000FFFD0528A6D0F8F704FD0DF041FF4FF443
:10BEF0008050F9F740FFF9F7F3FD022818BF002042
:10BF00007DD0F4F73BFC07B00020BDE8F04FF4F71C
:10BF1000A3BC25460D240BF037F8002818BF0C24CD
:10BF200021462846F9F737FF0028D2D010F049F90A
:10BF300010F04CF9F8F788FC040071D1F5F77DFAA0
:10BF40006B48F5F7DCFE0120F5F7CCFEF7F730FB88
:10BF50006848F7F7E2FBF7F7C9FBF7F7F2FBD9F808
:10BF600000104000B1F80621B0FBF2F0401CC0F315
:10BF70004F00A8F8040091F8081188F8001059B192
:10BF8000F7F7DFFBD9F800104000B1F80411B0FB5F
:10BF9000F1F0401CC0F34F00F7F744FB5648CBF8D4
:10BFA0001800F5F726FF01E060E063E0F6F79AF885
:10BFB00098F8000048B1401E10F0FF0088F800001B
:10BFC00004BFB8F80400F7F72DFBD8F80800C0F359
:10BFD000036529460520F4F781F9FEF700FC0128E6
:10BFE00007D0D8F80800C0F30360A84208BF002CAF
:10BFF0001DD0F6F7BDFA4148CBF8180000E03DE04F
:10C00000F7F748FBF7F77DFB0020F7F786FBF7F71C
:10C01000D8FAF5F7EEFEF5F729FE0020F5F76FFEEA
:10C0200010F0D4F810F0D7F8FAF72EF851E7684678
:10C03000F6F742FA70B16846FFF7B8FB0198F7F7D8
:10C0400048FF684610F0CCF80446F6F791FAF9F785
:10C05000C0FDC2E7D9F80000406E10F0704F02D06A
:10C06000F9F796FDB9E7F9F7BBFDB6E7204610F002
:10C07000BCF82EE7204605F0CFF82AE7F4F7DAFB04
:10C0800010B9F4F7D1FB38B10020F4F7D9FB002048
:10C09000F4F7D3FB012034E70120F4F7D1FB0020B3
:10C0A000F4F76CFB2FE770B5104980000968D1F8F0
:10C0B000F81021FA00F000F00F04C1F30326C1F3D9
:10C0C0000335B4420ED10F2D0CD004F082FE20B106
:10C0D0000AF0CCFF082818BF2C460348C169A142CA
:10C0E00018BFC4610CE00000C48500106C8600100D
:10C0F0002D3E00102F37001007005FA000005FA04A
:10C100004FF48055B44205D104F059FE002808BF11
:10C110004FF400652846F9F72EFE204670BD00005A
:10C120007047002808BF70478022014601480FF081
:10C130009EBF704758C70010704708283CBFFE4993
:10C14000087070470020FC4988604860FB48006820
:10C1500090F88100082838BF087070470020F64921
:10C1600048607047F4480078704770B5F34D00247C
:10C17000286890F86C0010F0020F0BD0F9F7B0FCB3
:10C18000022807D1EC482968007801EB8000B0F85C
:10C19000840084B2204670BD70B5E84D4FF48054E1
:10C1A000286890F86C0010F0020F0DD0F9F798FC99
:10C1B000022809D1E0482968007801EB8000D0F816
:10C1C0008400000CC0F31304204670BDDA48807868
:10C1D000002818BF012070472DE9F041F9F780FCD5
:10C1E000022803D104F0EEFC022803D04FF4805063
:10C1F000BDE8F0814FF480552E4604F0A4FDDFF831
:10C200003C830446CC4FD8F8000090F86C1011F035
:10C21000010F0CD0B0F87600B9684042814206DCCC
:10C220002CB10020641EB860204604F08FFDD8F8C1
:10C23000001091F86C0010F0040F18BF002C0AD009
:10C24000B1F87C00621E9040B1F87E20824238BF77
:10C250001046C0F31306D1F8A40010F0020F1CBF63
:10C26000B978002902D0000CC0F31305B54298BF7D
:10C2700035462846BDE8F0812DE9F04FDFF8BCA235
:10C2800087B0DAF8001091F86C2012F0020F0DD090
:10C29000A94A91F88090DFF8A8B21778002809DB46
:10C2A000484503D2B84218BF064643D107B0002024
:10C2B000BDE8F08F3E464FF0FF38F5F7D7FCF6F7B4
:10C2C00004FB0025B9F1000F34D9DAF8000000248E
:10C2D00000EB8500B0F8840081B22046F5F7CCF879
:10C2E000F5F700FF6846F6F7E7F8002866D00298F1
:10C2F00078B1014693489BF8002000785043421ED5
:10C3000007D331F9020B0028B8BF40420444521E43
:10C31000F7D2F6F72DF9F5F7A9FC00232246922172
:10C32000072003F00BFFA04584BF2E46A0466D1CDE
:10C330004D45CAD3B74244D0082E3CBF7E490E704B
:10C34000DAF80000B0F8821039B300EB870200EB96
:10C350008600B2F88420B0F8840092B280B2801ACD
:10C36000484340F30F34F7F729FE774B9BF8002042
:10C37000002193F800C002FB0CF2002A0DD930F81E
:10C380001120224420F811209BF8002093F800C0CF
:10C39000491C02FB0CF28A42F1D84FF4800004F0F1
:10C3A0000CFEDAF80000002300EB86008021B0F8D4
:10C3B000840082B2072003F0C1FE09E0F9F7E8FB30
:10C3C00090E704F0C0FC03283CBF401C04F0BEFC16
:10C3D000012007B0BDE8F08F584857490068B0F811
:10C3E0007600424288688242BCBF401E8860704727
:10C3F0002DE9F04F93B093460E4604464FF0000AE5
:10C4000004F0A1FCDFF834814B4F0500D14610D178
:10C410000FF0F0FED8F80010B1F87810884208D379
:10C420000120C7F8089004F091FC13B00120BDE88A
:10C43000F08F002E1FDDB8680028B8BFC7F808903D
:10C4400007DBD8F80010B1F874108842BCBF401C5C
:10C45000B860D8F80000B968B0F87400884215DCFC
:10C46000032D13D2681CC7F8089004F06FFC13B0BA
:10C470000120BDE8F08F09D1D8F80000B0F87600AF
:10C480004142B8688842C4BF401EB860B87850B115
:10C49000D8F8000090F8A40010F0040F1EBF002090
:10C4A00013B0BDE8F08FD8F80000B0F972108C42DC
:10C4B0000EDD796821447960B0F86E00884210DCA6
:10C4C0004FF0FF30C7F80490FFF7D6FE824608E031
:10C4D0007868002805DD002CD4BF01212146401AD0
:10C4E0007860DFF8689099F8000007283BD1184879
:10C4F00059460078420068460FF0C8FDADF800408C
:10C50000ADF80260ADF804503889ADF80600B8887F
:10C51000ADF80800D8F80000B0F87210ADF80A10B5
:10C52000B0F87410ADF80C10B0F86E10ADF80E1035
:10C53000B0F876000EE000004C8600106C8600100B
:10C54000078500100B850010088500108D850010F0
:10C550000E850010ADF8100099F80000072804BF00
:10C560006846FEF749FD504613B0BDE8F08F3F48DE
:10C5700010B50068D0F8A40010F4807F06D0C0F396
:10C580000330012101FA00F0F6F75DFD3849002083
:10C590004870887010BD70B5354D0024A87800280B
:10C5A00014BF01260026687828B904F0DBFB0028B8
:10C5B00008BF002100D001218E4227D00A1C18BFDD
:10C5C0000122AA7029480068D0F8A43013F0040FA3
:10C5D0000ED021B1C3F30310082808D206E00021D1
:10C5E000A960696090F88100082800D228700124B1
:10C5F00013F0020F18BF0124002A18BF01220023E4
:10C600008221072003F09AFDF3F792FE204670BDC9
:10C61000164900200968D1F8A41011F4807F08BFE2
:10C620007047DFF84CC09CF80120131C18BF012391
:10C6300030B4104CC1F30332E46B012505FA02F269
:10C64000224011F4007F01D00AB102E00AB10021BA
:10C6500000E001218B4204BF30BC7047081C18BFAA
:10C6600001208CF8010030BC95E700006C860010BA
:10C670004C86001000100040FA48C079704770B531
:10C680000125F84C10F5167FB8BFE5710AF02CFDB6
:10C69000002818BFE57170BD0020F249C8717047CD
:10C6A000F04890F9010070472DE9F041ED4F044644
:10C6B0000E4697F90150A54219D07C70F9F710FA8F
:10C6C00002280FD1B4F1FF3F0CD03E70B5F1FF3F0F
:10C6D00001D1012C06D144EA06220023642107205F
:10C6E00003F02CFD7878002804BF0020F871F9F7DA
:10C6F000F7F905281CBFB4F1FF3FBC70BDE8F0811D
:10C70000D849C8707047D748C0787047024600F0D3
:10C710000F0011210228A8BF7047D24B1209002830
:10C7200018715A7108BF0021BEE7CE4840797047A2
:10C73000CC480079704710B50446F8F779FD0146FA
:10C74000C84A2046012982BF0021917110BD91790C
:10C75000142905D8491CC9B29171142938BF10BDDC
:10C76000002010BD10B404460020034602460029F4
:10C7700013D934F912C0BCF1140F13DC0CF1140CF2
:10C78000BCF1280F84BF5B1C9BB2521CD2B28A4200
:10C79000EFD300281CBF10BC7047B3EB510F9CBFF8
:10C7A00010BC7047012010BC70472DE9F0470F46C0
:10C7B00080460AF0CDFB04460AF0CEFB0646002573
:10C7C0000AF0A2FB81460020002E8CBFD8F808801A
:10C7D000BDE8F08700FB04F1002208EB4101002CCA
:10C7E00027D931F9123013F1320F1EDA4FF0000A57
:10C7F00053465246002C12D931F912C0BCF1140F25
:10C8000017DC0CF1140CBCF1280F84BF5B1C9BB22D
:10C81000521CD2B2A242EFD3BAF1000F09D1B3EB4E
:10C82000540F9CBF691CCDB203E0521CD2B2A2428D
:10C83000D7D3401CC0B2B042CCD3042D38BFBDE822
:10C84000F08702203870012089F8AD05BDE8F08737
:10C850002DE9F0410D4606460AF07AFB8046002796
:10C86000322404F09EFB022803D004F09AFB012836
:10C8700000D1142416B30022A8F1010000281DDD08
:10C8800036F91230002BB8BF5B429BB2A34211D9DC
:10C890000227B3EBC40F88BF032009D8B3EB840F82
:10C8A00088BF022004D8B3EB440F8CBF01200020C6
:10C8B000287003E0511CCAB28242E1DB3846BDE871
:10C8C000F0812DE9F04F83B09A46164683468DF8E5
:10C8D000001000250AF018FB02900AF025FBDFF893
:10C8E00084910446002799F901004FF00208B0F145
:10C8F000FF3F04BF99F80200012808D1F9F7F0F8CA
:10C90000052804D08DF80080012537606AE09DF885
:10C91000000050EA0A0047D1207B90B194F846000D
:10C9200000281CBF8DF80080022524D194F8B005A2
:10C93000012819BF94F8B20501288DF8008003255D
:10C9400019D08DF8047001A9DBF81000FFF780FF03
:10C950008DF8000028B19DF8041001F00F0141F09E
:10C96000A00540B930684049091804DA207B002846
:10C9700018BF8DF800809DF8000050EA0A0004BF3F
:10C9800094F84B0000280FD1F8F752FC8246F8F7D4
:10C9900055FCBAF1000F18BF10F1640F04DA6946B4
:10C9A0005846FFF702FF04259DF800A0BAF1000FDA
:10C9B00018D094F8B005012814D1F8F739FC0128F3
:10C9C00088BF89F806700BD899F80600142805D896
:10C9D000401CC0B289F80600142801D34FF0000AA9
:10C9E0008DF800A004F0D7F940B104F0D2F928B9CD
:10C9F0009DF80000002818BF8DF8007099F803001A
:10CA0000012802BF9DF8000000288DF800800298E0
:10CA1000007E012808BF8DF8007005F0CAF80128D3
:10CA20000AD18DF80080306841F28831884203D9FC
:10CA30000BF01DFE8DF8007004F0A8F9012808BF66
:10CA40008DF8007099F8050001280FD09DF80000BE
:10CA5000B0B129460120FFF727FE9DF8000003B082
:10CA6000BDE8F08F5886001048F4FFFF99F80400E5
:10CA700010F0FF0F14BF8DF800808DF80070E8D122
:10CA800000210846E7E700007B48007870477A48B5
:10CA9000406800F5407070477748406800F5807046
:10CAA000704770B5744C4FF42030744A6060016870
:10CAB000914204BF4168B1F5087F3BD18168B1F56F
:10CAC000E04F37D86E4AC568954223D04FF0000C2E
:10CAD00003466246BCEB910F0AD253F8046B521C1A
:10CAE00086EA0C0CB2EB910FF7D3BCF1000F21D109
:10CAF000026A7AB14FF0000C03466246BCEB910F1C
:10CB000006D253F8046B521CB444B2EB910FF8D325
:10CB100065450FD1012500F5807000F0D5F848B1CA
:10CB2000606800F5407000F0DEF800281EBF257038
:10CB3000012070BD002070BD4F49002008704FF4E7
:10CB40002030F6F70FB94C48017841B140684B4AA4
:10CB50000168914202BF4168B1F5087F704700202B
:10CB60007047454B5B6803F580731844F6F7F0B9DE
:10CB7000414B5B6803F540731844F6F7E9B93E484A
:10CB80004068006970473C4949680A6982429CBF15
:10CB900000207047C0EBC00001EBC00000F58060D2
:10CBA0007047354A526802EB80035B6A1A44354B82
:10CBB00053F820C0403333F810000CEB0003401E44
:10CBC0005B1E23EA000000FB012070472A498860B1
:10CBD00070472948806870472DE9F00F264B0022E6
:10CBE000DFF8A080D3E90145012708F1400691460E
:10CBF000831893F928C0BCF1000F18DB07FA02F381
:10CC00002B4214D0D3B204EB830A58F823B036F881
:10CC10001330DAF824A09B445B1EABF1010BA24455
:10CC20002BEA030303FB0CA341F8223001E041F897
:10CC30002290521C102ADBD3BDE8F00F7047002968
:10CC4000B8BF704730B494460B4A0F4C526802EBA1
:10CC500080035B6A13440B4A52F8202034F810001A
:10CC60001418401E641E24EA000001FB003030BC92
:10CC70006146F6F76DB900006086001054465053C7
:10CC8000EFBEADDE9C180200DC18020010B5FFF705
:10CC900008FFA8B1FFF7FBFE0146D02217480FF0AE
:10CCA000E6F9FFF7F9FE164C01464FF4E2722068F0
:10CCB0000FF0DDF92068406DBDE8104003F0CEBFF5
:10CCC0000220F8F7D1FFE2E758B10E4A016891421D
:10CCD00007D1406820F00F00B0F51C7F04BF012091
:10CCE00070470020704730B1006820F00F007028B6
:10CCF00004BF012070470020704700007436011007
:10CD00006C86001041505352AD4810B5806810F049
:10CD1000020F15D0F4F7A8FF90B1F4F768FF0402F2
:10CD2000F8F7DEFE44EA0044F8F7E0FE44EA00606B
:10CD30004EF2AF0108434FF04021C867012010BDFB
:10CD4000002010BD10B572B60120F5F70FFFF6F701
:10CD5000B3FDF6F7DDFD4FF0FF30F6F702FC994822
:10CD600080234FF40052002152F821C040F821C026
:10CD7000491CB1EB930FF7D3F6F705FCF7F720F852
:10CD8000F7F742F89048F7F75BF80120F7F719F842
:10CD9000F5F780FF1E20F7F709F8F6F7D5FDF6F74F
:10CDA0005DF9F6F7C5FFF6F715FEF6F7FDFBF6F7AA
:10CDB000CDF9F4F76EFFFFF769FFF6F77CFBF6F7A6
:10CDC00047FBFDF763FCFAF7D3FCFEF742FE62B6C1
:10CDD000F8F7D7FF7D4C206890F8640000F00F0052
:10CDE000F5F7E8FD2068018BC1F30722418A008A2C
:10CDF000FEF707F82068806E000C03F09CF9744879
:10CE00000CF038FE2068B0F90C010CF0AAFFF3F723
:10CE100048FAFFF791F9F7F72FF8F9F7C7F9FFF795
:10CE20007FF90FF0ECF9206890F8200010F0010F66
:10CE300004BF0021032003D003F06DFF0146022050
:10CE4000F8F763FE4FF040242069002300F07002E1
:10CE50001946022003F072F9206910F0200F17D054
:10CE6000226F00230521072003F068F9626F002379
:10CE70000521072003F062F9A26F00230521072096
:10CE800003F05CF9E26F00230521072003F056F957
:10CE9000FFF76DFB0020206710BD02244D4DFDF70C
:10CEA0009EFC012806D0F8F71BFE032802D103F0F0
:10CEB00000FA58B3002D05DC03F02DFF01460220D7
:10CEC000F8F723FEDFF814914FF00108424FDFF826
:10CED00010A14FF04026A9F1030BF8F701FE05461B
:10CEE000F8F704FE0146284603F0B6F9F8F7FEFD10
:10CEF00001462846F3F7F2F9FDF704FC072D5BD253
:10CF0000DFE805F05A1D08272A192D006D1E002D97
:10CF1000C5DCD1E7387850B9FAF794FA38B900236C
:10CF20001A462021072003F009F987F8008004F051
:10CF3000B4FC0224D1E7FEF755FF0524CDE7FAF74C
:10CF4000D1F9F8F7CDFD012804BF2046F8F7DAFD46
:10CF5000C3E703F0B3FDC0E7FEF7B6FEBDE7C6F8D2
:10CF60001890F6F725FBF6F7C1FBF6F7EAFB400051
:10CF7000AAFB00104009401C4008F6F753FBFDF7E0
:10CF80002EFC01280CD1F8F7ABFD062808D0F6F7E7
:10CF900081FBF6F7B6FBF6F714FBC6F818B09CE772
:10CFA000F8F7A1FD0546F8F714FE15B1F8F718FEDD
:10CFB000E5E7F8F7EDFDE2E70220F8F755FE8CE72C
:10CFC0000080004000F90010B9EC00006C860010F1
:10CFD00074360110FF7002007086001003005FA01D
:10CFE000CDCCCCCCFE4908607047FE4808210068D3
:10CFF000428A038A008B02FB0311C0F3072001EB76
:10D0000040007047411E022984BF0020704708225B
:10D01000F4480068438AB0F810C0008B03FB0C2270
:10D02000C0F3072002EB4000484300F53C30704756
:10D030002DE9F04FADF20C4D04460125F8F74DFDFA
:10D040008146401E02287DD894F8217094F8206013
:10D0500004F150084846FFF7D5FFE34A30B10168B4
:10D06000914204BF4068CDE9001002D00020CDE914
:10D070000020DB48D0F800E0DA481EF4807F00682A
:10D0800014BFB0F92E21B0F9CE20934614BFB0F9E9
:10D090002C01B0F9CC008246002307FB06FCBCF152
:10D0A000000F0ED938F913105945D8BF8A4505DC51
:10D0B0008142C8BF08469142B8BF0A465B1C9C45E6
:10D0C000F0D8104400EBD07042100021BCF1000FEA
:10D0D00088BF6B4614D938F91100801A7F28C8BF61
:10D0E0007F2005DC10F1800FB8BF6FF07F0000DA01
:10D0F000002503EB010A491C8AF808008C45EAD890
:10D1000094F8220094F82310431802A807FB0601A4
:10D11000B81907FB060004EB400000F1500C1EF0AC
:10D12000100F4FF0000011D0002B1DD91CF810403B
:10D1300001F810403CF8104001EB4006240A7470DE
:10D14000401C00E037E08342F0D80DE0002B88BFA0
:10D150004FF0FF0C08D901F810C001EB4004401C4F
:10D1600084F801C08342F6D88DF804509DF805007C
:10D17000FF283CBF401C8DF80500ADF806206C462A
:10D180004846FFF73FFF002804BF0DF20C4DBDE8F5
:10D19000F08F082393490A68518AB2F810C001FB46
:10D1A0000C33118BC1F3072103EB41022146F5F744
:10D1B000CFFE012800D000200DF20C4DBDE8F08F0D
:10D1C0002DE9F00FDFF81C820023DFF81CA2D8F84D
:10D1D000001001264FF0FF090A8BB1F812C0098A2E
:10D1E000C2F307220CFB01F7A6F1010CBCF1020F00
:10D1F00088BF4FF0000C10D8D8F8001008244D8AD2
:10D20000B1F810B0098B05FB0B44C1F3072104EB07
:10D21000410101FB0CF101F53C3CBCF1000F19D0C0
:10D22000DCF80010514515D19CF8051091B1002192
:10D23000002A1CD907EB4104644403EB410594F830
:10D2400009B000F805B00544247A491C6C708A4284
:10D25000F0D80CE00021002A09D903EB410C491C4D
:10D2600000F80C9084448A428CF80190F5D8711C27
:10D27000CEB203EB4203032EB6D9BDE8F00F184639
:10D280007047574948607047554810B440680028B7
:10D2900008BF4FF44030554A016891421CD14168A3
:10D2A000B1F5007F18D3836800228446B3F5056F7B
:10D2B00088BF4FF405630021B1EB930F24BF10BC6E
:10D2C00070475CF82140491C2244B1EB930FF8D31E
:10D2D000002A04BF10BC7047002010BC704770B516
:10D2E00005460020E860D5F808C001212C46034619
:10D2F000BCF5056F88BF4FF4056C0022B2EB9C0FA4
:10D3000006D254F82200521C0344B2EB9C0FF8D30F
:10D310005842E8603248007810F0800F0AD1204669
:10D32000FFF786FE4FF440304FF405622946F5F7CB
:10D330000FFE014601290CBF0120002070BDFF2215
:10D3400070B50025044605614FF4006150300EF0C1
:10D35000C0FEA584E584E562A56265632563E56397
:10D36000A56365642564E5640120A56470BD2DE9AD
:10D37000F0414FF4403104461C4E0868B04218D1C9
:10D380004868B0F5007F14D38A6800230D46B2F5D3
:10D39000056F94BF94464FF4056C0020B0EB9C0FD2
:10D3A00030D255F82070401C3B44B0EB9C0FF8D3B2
:10D3B00043B3FF224FF4056120460EF08AFE4FF47E
:10D3C0000870C4E900604FF40560A0600020E060D0
:10D3D00084F8200084F8210084F8220008E000008E
:10D3E000748600106C8600104654525953454C46C2
:10D3F00084F8230020616061A061E0612046FFF7AE
:10D400009EFF07E0B2F5056F88BF4FF40562204626
:10D410000EF02DFE0120BDE8F08170B402684FF4DB
:10D4200008715160016801F1500291F821C091F832
:10D4300020300CFB03F102EB41010022BCF1000F94
:10D4400008D900EB4204521CB4F8EA4021F8024B20
:10D450009445F6D80022002B08D900EB4204521C58
:10D46000B4F8124121F8024B9342F6D80468002226
:10D4700094F82240002C0BD900EB4204521CB4F863
:10D48000BE4321F8024B046894F822409442F3D83A
:10D490000468002294F82340002C0BD900EB4204CE
:10D4A000521CB4F8CE4321F8024B046894F8234090
:10D4B0009442F3D80022BCF1000F08D900EB4204DB
:10D4C000521CB4F8704021F8024B9445F6D8002263
:10D4D000002B08D900EB4204521CB4F8984021F804
:10D4E000024B9342F6D8B0F8E62021F8022BB0F8B0
:10D4F000E82021F8022BB0F8E42021F8022B0024C8
:10D500000022BCF1000F0ED904EB440505EB041515
:10D5100000EB850505EB4206521CB6F85E6121F86A
:10D52000026B6245F6D30022002B0ED904EB4405B2
:10D5300005EB041500EB850505EB4206521CB6F819
:10D540008E6221F8026B9A42F6D3641C042CD7D366
:10D550000023D0F800C000229CF822C0BCF1000FCC
:10D5600088BF00EB031C0BD90CEB4204521CB4F82F
:10D57000DE4321F8024B046894F822409442F3D829
:10D58000D0F800C000229CF823C0BCF1000F88BF77
:10D5900000EB031C0BD90CEB4204521CB4F8FE4305
:10D5A00021F8024B046894F823409442F3D85B1CA2
:10D5B000022BCED3B0F8DE2321F8022B0368002221
:10D5C00093F82230002B0FD9036893F822301344CC
:10D5D00000EB4303521CB3F8BE3321F8023B03684F
:10D5E00093F822309342EFD80368002293F8233057
:10D5F000002B9CBF70BC7047036893F82330134422
:10D6000000EB4303521CB3F8CE3321F8023B03680E
:10D6100093F823309342EFD870BC70472DE9F74F51
:10D6200088B000250A992C462E460968049101F11C
:10D6300050030999002984BFFE49D1F800801CD904
:10D640000022002888BFB8F9CE700DD933F9021B2B
:10D650000029B4BFC1F1000C8C46BC45BCBF0D44D1
:10D66000641C521C8242F1D30999761C8E42E7D386
:10D67000002CC8BF95FBF4FA08DC4908414301EBD4
:10D680005002049901EB4201B1F950A0002102912E
:10D6900001910499503100910021039109990029C9
:10D6A0006DD9E449009E069609684FF0000B4FF0D3
:10D6B0000109B1F9C0E0D1F8B4105F46C1F30741E8
:10D6C000D846CDF814B00791002829D9B6F9002022
:10D6D0004FF0000C06999344634600280DD9B1F928
:10D6E0000040A51A48BF151B7545B8BF0CF1010CC9
:10D6F00001EB49015B1C8342F1D307998C4503D3AD
:10D7000005997F1C1144059108F1010806EB4906B3
:10D710008045DBD3002FC4BF059991FBF7F101DCF5
:10D720009BFBF0F1039B0A9A09B202EB4302A2F8B9
:10D730007010C04A1268B2F9BA30AAEB03039942DA
:10D740000ADDB2F9B82052448A4205DD019A11443B
:10D7500001910299491C02910099099A01EB40013B
:10D7600000910399491C039191429AD3029900298F
:10D7700005DDDDE9011291FBF2F1019102E0514674
:10D78000CDF804A00A9AA2F8E610002102910391B4
:10D7900004995031009100210491002868D9A549CD
:10D7A000009F069709684FF0000B099EB1F9BCE095
:10D7B000D1F8B410D846090ED946CDF814B0079167
:10D7C000002E2BD9B7F900204FF0000C0699934496
:10D7D0006346002E0DD9B1F90040A51A48BF151BAC
:10D7E0007545B8BF0CF1010C01EB40015B1CB34265
:10D7F000F1D307998C4504D3059908F10108114428
:10D80000059109F1010907EB4007B145DAD3B8F1F9
:10D81000000FC4BF059991FBF8F101DC9BFBF6F109
:10D82000049B0A9A09B202EB4302A2F89810814ABB
:10D830001268B2F9BA30AAEB030399420ADDB2F9D1
:10D84000B82052448A4205DD039A1144039102999B
:10D85000491C02910099891C00910499491C04916A
:10D8600081429CD302980028C4BF039991FBF0FA2F
:10D870000A98A0F8E8A001980A99504400B200EB79
:10D88000D0704010A1F8E4000BB0BDE8F08F2DE996
:10D89000F04F89B00646A1F12000146815460F46E6
:10D8A000009020293DBF0120B840401E4FF0FF30BE
:10D8B000049038BF002006D300984FF0010101FA10
:10D8C00000F0A0F101000390202E3DBF0120B040E8
:10D8D000401E4FF0FF3038BF002107D3A6F12002D1
:10D8E0004FF0010101FA02F1A1F10101C7F120029B
:10D8F0000592202F32BF20FA02F2009A00FA02F2BB
:10D90000B9401143B840CDE90110206920F4FE6010
:10D9100020614948006810F0010F00F0AE8110F45A
:10D92000807F06D02A463946304601F0A5FF00F038
:10D930008FB910F4007F00F01F8100202B6828624F
:10D94000E861A86101466861002F4BD9701EA7F1FC
:10D95000010B06900020002E41D901F01F024FF06C
:10D96000010C0CFA02FE4FEA511C05EB8C0201FB84
:10D97000060C03EB4C0C0029BCF9508018BF59452C
:10D980000CD100281CBFDDF818C0604506D1DFF8B7
:10D99000A4C0DCF800C0BCF936C105E0DFF894C0D3
:10D9A000DCF800C0BCF934C1E04515DDD2F81C90AC
:10D9B0004FF0010C49EA0E08C2F81C804FEA5018DB
:10D9C00005EB880A00F01F09DAF814800CFA09FC4C
:10D9D00048EA0C0CCAF814C0401CB042C7D3491C1A
:10D9E000B942B7D3DFF84CE0DEF8000090F8380118
:10D9F000002800F02D810020002E84BFB91E069162
:10DA00005CD9311803EB4101069AB1F9508001212C
:10DA1000012A50D900F01F028C460CFA02F207923C
:10DA2000420905EB820C4A1C02FB060203EB420290
:10DA300004E000006C86001074860010B2F95020DB
:10DA4000002AC8BFB8F1000F30DDB2EB080948BFAB
:10DA5000A8EB02094245C8BF9046C2464FF4484869
:10DA600009FB08F999FBFAF8DEF8009008F2FF18B4
:10DA70004FEA582899F83891C14517DA4FEA5118FA
:10DA800005EB880B01F01F0A4FF00108DBF81C9032
:10DA900008FA0AF849EA0808CBF81C80DCF8149068
:10DAA000DDF81C8049EA0808CCF814809046069AF4
:10DAB000491C9142B7D3401CB042A2D30020002F92
:10DAC00084BFB11E069156D900FB06F103EB41015C
:10DAD000069AB1F952800121012A49D900F01F02AA
:10DAE0008C460CFA02FE4FEA501C05EB8C0C00FB36
:10DAF000061203EB4202B2F95220002AC8BFB8F165
:10DB0000000F30DDB2EB080948BFA8EB020942451F
:10DB1000C8BF9046C2464FF4484809FB08F999FB34
:10DB2000FAF8DFF8649408F2FF184FEA5828D9F899
:10DB3000009099F83891C14515DADCF81CA04FF037
:10DB400001084AEA0E09CCF81C904FEA511905EB7E
:10DB5000890B01F01F0ADBF8149008FA0AF849EA69
:10DB60000808CBF814809046069A491C9142BED30F
:10DB7000401CB842A8D36BE02A463946304601F033
:10DB800062FD0020A8616861002E84BFFE4A012367
:10DB90001ED905EB4001B1F998100029B8BF4942E0
:10DBA00009B2D2F800C0BCF9CCC08C450DDD4FEAFB
:10DBB000501C05EB8C0100F01F08D1F814C003FACB
:10DBC00008F84CEA080CC1F814C0401CB042E0D37D
:10DBD0000020012E3CD0DFF8B0A3A6F101084FF0E1
:10DBE000010905EB4001B1F99A30B1F99820991A71
:10DBF00048BFD11A09B2DAF800C0BCF9C4C08C45DC
:10DC000023DAB5F9E810B2EB010C48BFA1EB020C26
:10DC10000FFA8CFC5A1A48BFCA1A11B28C4509DB9C
:10DC2000420905EB820100F01F034A6909FA03F378
:10DC30001A4309E0421C530905EB830102F01F025D
:10DC40004B6909FA02F21A434A61401C4045C8D3A5
:10DC50006969E869B94008432063A969286AB9403D
:10DC6000084360636A69202F39BF059922FA01F1E0
:10DC7000009902FA01F108436063C4480068079004
:10DC800010F0040F00F0CB81002129630846E962FF
:10DC9000002F84BFDFF8F0C24FF001081BD9DCF879
:10DCA000003005EB4002B2F95E21B3F9D8909145FE
:10DCB00003DCB3F9DA3093420ADA430905EB830255
:10DCC00000F01F09D36A08FA09F943EA0903D3628D
:10DCD000401CB842E3D3A96200206962002E84BFD1
:10DCE000DFF8A4C24FF001081BD9DCF8003005EBC7
:10DCF0004002B2F98E22B3F9D890914503DCB3F912
:10DD0000DA3093420ADA430905EB830200F01F0977
:10DD1000536A08FA09F943EA09035362401CB04206
:10DD2000E3D329640020E963002F84BFDFF858C2E1
:10DD30004FF001081BD9DCF8003005EB4002B2F9C6
:10DD4000AA21B3F9DC90914503DCB3F9DE309342AC
:10DD50000ADA430905EB830200F01F09D36B08FAC6
:10DD600009F943EA0903D363401CB842E3D3A9632A
:10DD700000206963002E84BFDFF80CC24FF0010859
:10DD80001BD9DCF8003005EB4002B2F9DA22B3F916
:10DD9000DC90914503DCB3F9DE3093420ADA4309A3
:10DDA00005EB830200F01F09536B08FA09F943EAF7
:10DDB00009035363401CB042E3D300202865E864A4
:10DDC000A8646864002F84BF6F4B4FF0010C1AD910
:10DDD0001A6805EB4001B1F9F611B2F9E080884507
:10DDE00003DCB2F9E2208A420ADA420905EB820139
:10DDF00000F01F08CA6C0CFA08F842EA0802CA646C
:10DE0000401CB842E4D30020002E84BF5E4B4FF08C
:10DE1000010C1AD91A6805EB4001B1F92613B2F9C1
:10DE2000E080884503DCB2F9E2208A420ADA42093E
:10DE300005EB820100F01F084A6C0CFA08F842EA70
:10DE400008024A64401CB042E4D3696AE86AB940F7
:10DE500040EA0109C4F83890A96A286BB940084320
:10DE6000E0636A6A202F39BF059922FA01F100990F
:10DE700002FA01F141EA0008C4F83C80696BE86BE2
:10DE800001FA07F140EA01022264A96B286C01FA49
:10DE900007F140EA010060646B6B39BF059923FA12
:10DEA00001F1009903FA01F141EA000161646B6C30
:10DEB000E86C03FA07F340EA0300A0640690AB6C39
:10DEC000286D03FA07F340EA0300E064D5F844C084
:10DED00039BF059B2CFA03F3009B0CFA03F343EACA
:10DEE0000000E064059032EA090521EA080C49EADD
:10DEF00005002564009048EA0C0A07EB0601C4F807
:10DF000044C008BFBCF1000F4BD000231A4618468E
:10DF1000002988BF012644D94FEA501B04EB8B0B24
:10DF200000F01F0EDBF840B006FA0EFE1BEA0E0FE3
:10DF300003D0874294BF521C5B1C401C8142EBD82B
:10DF4000012B12D10498284040EA0900A0630398ED
:10DF50000CEA000040EA0800E063049825EA0000AB
:10DF6000206403982CEA00006064012A19D1226C15
:10DF70000298A36B10401843A063606C019BD4F817
:10DF80003CC0034004E000006C8600107486001062
:10DF900043EA0C03E363029B9A432264019A904391
:10DFA0006064009A069830EA0202A264009840EA8F
:10DFB000020C059820EA0A004AEA0005E06408BF5E
:10DFC000002821D000231A461846002988BF0126C0
:10DFD00017D94FEA501804EB880800F01F09D8F849
:10DFE000488006FA09F918EA090F03D0874294BF5E
:10DFF000521C5B1C401C8142EBD8002B18BF002A2E
:10E0000002D10020A064E064079810F0010F06D050
:10E01000206B20EA0C002063606BA8436063206BD8
:10E020000299084203D1626B01990A4203D0216927
:10E0300041F0100121610499084203D1616B0398FA
:10E04000014203D0206940F020002061A06B0299BA
:10E05000084203D1E26B01990A4203D0216941F0E1
:10E06000400121610499084203D1E16B0398014208
:10E0700003D0206940F080002061206C02990842A2
:10E0800003D1626C01990A4203D0216941F4807185
:10E0900021610499084203D1616C0398014203D0C5
:10E0A000206940F400702061A06C002804BFE06C7F
:10E0B000002803D0206940F48060206109B001206D
:10E0C000BDE8F08F2DE9F04FC5B015460E46044669
:10E0D000F3F7CCFDF2F735FF01004FF011001DBF43
:10E0E000049001200590012108BFCDE90410CDE97D
:10E0F0003A64F4F75AF80022002E88BF24A904D904
:10E10000835C8B54521C9642FAD8F4F750F80021E5
:10E11000002C88BF24AA07D9435C02EB010C491CE0
:10E120008CF820308C42F7D8F3F774FF2390FE4828
:10E13000007810F0200F63D0F2F703FFFB49FC4A90
:10E1400000280CBFCDE90021CDE9001205F1EA005D
:10E15000029028300026EA460DF108090DF1E80B7F
:10E16000039004A85BF8267050F82600F4F742FBF1
:10E170000024002F84BF24A800EB461818D918F9F2
:10E180000400262828BF00200BD2C10700EBD07066
:10E19000890C401001EB80005AF826104058F4F723
:10E1A0002FFB59F8261021F81400641CBC42E6D35A
:10E1B000761C022ED5D3DF4C26781D2E20D10021CF
:10E1C0000A4606AF5BF822300020002B88BF59F8C2
:10E1D00022C007D93CF8108027F81180401C491C48
:10E1E0008342F7D8521C022AECD31D2E08D13846A0
:10E1F000FDF7B9F820781D2804BF06A8FDF7B3F88D
:10E20000C94E307810F00C0F00F02083F2F799FE21
:10E21000C949CA4A00280CBFCDE90E21CDE90E122A
:10E22000C748F3F7CEFD0120F3F716F91D90012042
:10E23000F3F76FF91B900120F3F791FC1790022080
:10E24000F3F78DFC15900498F3F798F91E90059854
:10E25000F3F794F91C900498F3F725FA1A900598AF
:10E26000F3F721FA18900498F3F75DFA16900598E1
:10E27000F3F759FA14900498F2F78FFB129005986F
:10E28000F2F78BFB10903CA906A83EAACDE900014D
:10E2900002920AAB08AA0CA90498F3F788FB07AA14
:10E2A00000923FA93DA8CDE901010BAB09AA0DA938
:10E2B0000598F3F77CFB0498F3F71AFC4090049858
:10E2C000F3F716FC9F4C03902068B0F8E41001208F
:10E2D000F3F7D2F800210120F3F729FC00210220F6
:10E2E000F3F725FC206890F8E6100498F3F758F946
:10E2F000206890F8E6100598F3F752F90021049889
:10E30000F3F7F8F900210598F3F7F4F900210498E0
:10E31000F3F722FA00210598F3F71EFA0121049879
:10E32000F2F723FB01210598F2F71FFB2068B0F8F4
:10E33000E8100498F3F788FB2068B0F8E810059817
:10E34000F3F782FB00210120F3F71EFC19907648B9
:10E35000007810F0040F00F06481DFF8E8810224F7
:10E360000127D8F80000B0F8EC10CDE900140297AE
:10E3700090F8EB3090F8EA200B210498F3F7D7FAE5
:10E38000D8F80000B0F8EC10CDE90014029790F82E
:10E39000EB3090F8EA200B210598F3F7C8FA00213A
:10E3A0000120F3F7F1FB34A801F036F93899002287
:10E3B0003AAE002056F82230002B0ED902EB420C68
:10E3C0000CEB021C05EB0C1C31F8029B0CEB400A19
:10E3D000401CAAF85E918342F6D8521C022AE8D368
:10E3E0000498F2F7B0FA42900598F2F7ACFA11905F
:10E3F00000210498F3F745F9449001210498F3F7BC
:10E4000040F9139000210598F3F73BF92290012180
:10E410000598F3F736F9DFF82C8120900224D8F81C
:10E420000000B0F8EE10CDE90014029790F8EB3040
:10E4300090F8EA200B210498F3F779FAD8F8000055
:10E44000B0F8EE10CDE90014029790F8EB3090F898
:10E45000EA200B210598F3F76AFA00240DF1100B5E
:10E4600000210120F3F790FB00210498F2F753FA02
:10E4700000210598F2F74FFA5BF824000121F2F72A
:10E480004AFA3AA8002650F824900EA8B9F1000FD5
:10E4900050F8240001905CD924A800EB44100090AF
:10E4A00004EB440000EB041005EB001A0098002276
:10E4B000114610F906801046F3F774FBB8F1200FEF
:10E4C00006DB0027A8F12001012000FA01F804E092
:10E4D000012000FA08F74FF000085BF824003A46E4
:10E4E0000021F3F7BCF85BF8240042460121F3F762
:10E4F000B6F86FEA0802F9430920F3F753FB34AF8B
:10E50000F3F7F0FDFCF76BF9012806D03846F3F776
:10E51000D3FF00287ED0F4F72BF8F3F7A7FB019880
:10E5200000880AEB46010FE074860010B09D0030B1
:10E53000189D003092850010CC0E0030CC090030C0
:10E5400001000E006C860010761CA1F8AA014E4551
:10E55000ACD3002211461046F3F724FB641C022CB6
:10E56000FFF47EAF42990498F2F7D5F91199059816
:10E57000F2F7D1F90021449A0498F3F770F80121D9
:10E58000139A0498F3F76BF80021229A0598F3F791
:10E5900066F80121209A0598F3F761F8FF4F0226EB
:10E5A00001243868B0F8F010CDE90016029490F814
:10E5B000EB3090F8EA200B210498F3F7B8F93868AB
:10E5C000B0F8F010CDE90016029490F8EB3090F816
:10E5D000EA200B210598F3F7AAF901210846F3F781
:10E5E000D3FA34A801F018F8389900223AAC002088
:10E5F00054F822C0BCF1000F10D902EB420303EB28
:10E60000021305EB031331F8026B03EB4007A7F885
:10E61000F66100E056E0401C8445F4D8521C022A02
:10E62000E5D3DF48007810F0080F7CD0DB4F0226DE
:10E6300001243868B0F8F210CDE90016029490F881
:10E64000EB3090F8EA200B210498F3F770F9386862
:10E65000B0F8F210CDE90016029490F8EB3090F883
:10E66000EA200B210598F3F762F900210A463AAC3B
:10E67000002054F82130002B0CD901EB410C0CEB9D
:10E68000011C05EB0C1C0CEB4006401CA6F84222BA
:10E690008342F8D8491C0229EAD33868002690F84A
:10E6A0002401B6EB400F7DDA386890F82401B042BF
:10E6B000D4BF012100210120F3F766FA34ACF3F74F
:10E6C00011FD02E0F7F764FA1CE7FCF788F801286F
:10E6D00005D02046F3F7F0FE30B3F3F749FFF3F728
:10E6E000C5FA38994FF000090DF1E80E00235EF8E5
:10E6F00029201846002A05D931F910C0401C63446E
:10E700008242F9D8B3FBF2F3501E3DD009EB490C1D
:10E710000CEB091C05EB0C1A31F910C001EB40049D
:10E7200034F9028C01E03DE023E0BCEB080C48BF6B
:10E73000CCF1000C31F91080B8EB030831F91080EE
:10E740004CBFA3EB0808A8EB030834F902BC34F96A
:10E75000024CBBEB030B4CBF1C1BE41AA0450AEB9D
:10E76000400409DDB4F94282C445C8BFA4F842C2DE
:10E7700008E0F7F70DFAA8E7B4F94082E045B8BF22
:10E78000A4F840C2401EC7D109F1010901EB4201C2
:10E79000B9F1020FAAD33868761C90F82401B6EBC1
:10E7A000400F81DB01201D99F2F766FE01201B99C5
:10E7B000F2F7BAFE01201799F3F7B9F9022015997B
:10E7C000F3F7B5F91E990498F2F7EAFE1C9905983B
:10E7D000F2F7E6FE1A990498F2F78CFF189905985B
:10E7E000F2F788FF16990498F2F7B6FF1499059886
:10E7F000F2F7B2FF12990498F2F7B7F8109905985A
:10E80000F2F7B3F83C9906983E9ACDE900010292DE
:10E810000A9B089A0C990498F3F789F807983D9990
:10E820003F9ACDE9000102920B9B099A0D99059838
:10E83000F3F77DF840990498F3F706F903990598E2
:10E84000F3F702F901201999F3F79EF92398F3F7EA
:10E85000B8FA45B0BDE8F08F2DE9F04FBDB0914654
:10E860000D460446F3F702FA02223A9212223B9234
:10E87000CDE91045F3F7CEFB189049484FF001075A
:10E88000007810F0210F72D0464800904648019061
:10E8900000213A98F2F7F5FE049001213A98F2F738
:10E8A000F0FE059000213B98F2F7EBFE0690012167
:10E8B0003B98F2F7E6FE0025079010A850F825B027
:10E8C0003AA850F82500F3F795FF002404A826463F
:10E8D00009EB051A00EBC50818E0600904F01F01F8
:10E8E00058F8200007FA01F108420ED0E007800C2A
:10E8F000610800EB81015DF825004058F3F780FFC7
:10E900000AEB4601761CA1F8BE03641C5E4538BFC5
:10E91000262CE2D36D1C022DCFD3244C26781D2E3D
:10E9200025D100210A4608AD0DF14008002058F815
:10E9300022C0BCF1000F88BF09EB021309D903EB19
:10E94000400A401CBAF8BEA325F811A0491C844512
:10E95000F5D8521C022AE9D31D2E08D12846FCF70F
:10E9600031FE20781D2804BF08A8FCF72BFE0C48B8
:10E97000007810F0010F00F0D0803A98F2F70DF80F
:10E9800038903B98F2F709F814AA36900AA916A80D
:10E990000292CDE900010CAB0EAA09E06C860010D2
:10E9A00074860010489E0030E09E0030978500106D
:10E9B00012A93A98F2F7FBFF17AA009215A80BA923
:10E9C000CDE901100DAB0FAA13A93B98F2F7EFFFA9
:10E9D000FA48F3F7F6F900210220F3F7D5F803908F
:10E9E00001213A98F1F7C1FF01213B98F1F7BDFFF2
:10E9F00016980224CDE9000402970C9B0E9A1299F6
:10EA00003A98F2F794FF1798CDE9000402970D9B0E
:10EA10000F9A13993B98F2F78AFF0220F8F700FD4E
:10EA2000199000210220F8F7EEFCFF210F20F7F7E4
:10EA30008DFFF3F71BF9E2480890E24809900021A6
:10EA40003A98F2F71EFE049001213A98F2F719FE67
:10EA5000059000213B98F2F714FE069001213B98A7
:10EA6000F2F70FFE0025079010A850F825B03AA83D
:10EA700050F82500F3F7BEFE002404A8264609EB53
:10EA8000051A00EBC50819E0600904F01F0158F8E9
:10EA9000200007FA01F108420FD0E007800C61085E
:10EAA00000EB810108A850F825004058F3F7A8FEB4
:10EAB0000AEB4601761CA1F8C403641C5E4538BF0E
:10EAC000262CE1D36D1C022DCED338993A98F1F75C
:10EAD0004CFF36993B98F1F748FF149A16980A991B
:10EAE0000292CDE900010C9B0E9A12993A98F2F726
:10EAF0001EFF159A0B991798CDE9000102920D9B04
:10EB00000F9A13993B98F2F712FF02200399F3F73B
:10EB10003BF802201999F8F776FCAB48007810F022
:10EB2000040F00F02382AA48A84ECDE90860A94846
:10EB3000F3F747F90220F2F78FFC25900220F2F755
:10EB4000E8FC23900120F3F70AF836900220F3F74F
:10EB500006F819903A98F2F711FD30903B98F2F7C9
:10EB60000DFD2E903A98F2F79EFD2C903B98F2F70F
:10EB70009AFD2A903A98F2F7D6FD28903B98F2F742
:10EB8000D2FD26903A98F1F708FF24903B98F1F7D0
:10EB900004FF22900AA90EA80CAACDE90001029256
:10EBA00016AB14AA12A93A98F2F701FF0FAA009225
:10EBB0000DA90BA8CDE9010117AB15AA13A93B9824
:10EBC000F2F7F5FE3A98F2F793FF20903B98F2F7B0
:10EBD0008FFF814D03902868B0F8E4100220F2F70F
:10EBE0004BFC00210120F2F7A2FF00210220F2F7E6
:10EBF0009EFF286890F8E6103A98F2F7D1FC286852
:10EC000090F8E6103B98F2F7CBFC00213A98F2F727
:10EC100071FD00213B98F2F76DFD00213A98F2F763
:10EC20009BFD00213B98F2F797FD01213A98F1F7FF
:10EC30009CFE01213B98F1F798FE2868B0F8E81097
:10EC40003A98F2F701FF2868B0F8E8103B98F2F71D
:10EC5000FBFE00210220F2F797FF219028684FF079
:10EC60000208B0F8EC10CDE90018029790F8EB30EC
:10EC700090F8EA200B213A98F2F759FE2868B0F88C
:10EC8000EC10CDE90018029790F8EB3090F8EA20EC
:10EC90000B213B98F2F74BFE01210220F2F774FFA3
:10ECA000002211460220F2F7DAFC10220121022094
:10ECB000F2F7D5FC01210220F1F72DFE1AA800F091
:10ECC000ABFC1F99002210AC002054F822C0BCF10C
:10ECD000000F88BF09EB421308D931F802AB03EBF0
:10ECE000400B401CABF8DEA38445F6D8521C022A28
:10ECF000EAD33088A9F8DE0300210220F1F70BFEE9
:10ED00003A98F1F720FE34903B98F1F71CFE3290D0
:10ED100000213A98F2F7B5FC049001213A98F2F7F5
:10ED2000B0FC059000213B98F2F7ABFC0690012166
:10ED30003B98F2F7A6FC07902868B0F8EE10CDE9F2
:10ED40000018029790F8EB3090F8EA200B213A98DF
:10ED5000F2F7EDFD2868B0F8EE10CDE90018029743
:10ED600090F8EB3090F8EA200B213B98F2F7DFFDAA
:10ED700000250DF1E80B00210220F2F705FF00212C
:10ED80003A98F1F7C8FD00213B98F1F7C4FD5BF814
:10ED900025000121F1F7BFFD10A8002450F825003F
:10EDA000029008A8264650F825A004A800EBC5004C
:10EDB000019009EB4510009058E00000200002008F
:10EDC000489E0030E09E0030748600104C180030E1
:10EDD0004C1D0030200012006C8600100198610963
:10EDE0004FF0010850F8210004F01F0108FA01F16A
:10EDF00008423AD0002211461046F2F7D3FE202CEA
:10EE000023BF0027A4F1200008FA00F808FA04F74D
:10EE100038BF4FF000085BF825003A460021F2F7B2
:10EE20001EFC5BF8250042460121F2F718FC6FEA50
:10EE30000802F9430920F2F7B5FE1AAFF3F752F9C9
:10EE4000FBF7CDFC012806D03846F3F735FB002848
:10EE50007DD0F3F78DFBF2F709FFBAF800100098A8
:10EE600000EB4600761CA0F8EE13641C0298864264
:10EE700038BF262CB2D3002211461046F2F792FE7C
:10EE80006D1C022DFFF477AF34993A98F1F743FDEA
:10EE900032993B98F1F73FFD0021049A3A98F2F736
:10EEA000DEFB0121059A3A98F2F7D9FB0021069A78
:10EEB0003B98F2F7D4FB0121079A3B98F2F7CFFB7E
:10EEC00002202599F2F7D8FA02202399F2F72CFBB9
:10EED00001203699F2F72BFE02201999F2F727FE4E
:10EEE00030993A98F2F75CFB2E993B98F2F758FB71
:10EEF0002C993A98F2F7FEFB2A993B98F2F7FAFB25
:10EF000028993A98F2F728FC26993B98F2F724FCC6
:10EF100024993A98F1F729FD22993B98F1F725FDBC
:10EF20000A990E980C9ACDE900010292169B149A48
:10EF300012993A98F2F7FBFC0B990F98CDE9000172
:10EF40000D9A0292179B159A13993B9800E013E0D3
:10EF5000F2F7EDFC20993A98F2F776FD03993B9889
:10EF6000F2F772FD02202199F2F70EFE1898F2F7DF
:10EF700028FF3DB0BDE8F08FF6F70AFE60E72DE907
:10EF8000F04FADF2344D1D20FBF775FF06461D20F6
:10EF9000FCF7CFF9CDF820041D20FCF7EDFAFF4D6A
:10EFA00007464FF44070D5F8008030EA080004BFEF
:10EFB0000DF2344DBDE8F08F4FF4846168466C6803
:10EFC0000DF05AF818F4804F00941CBF2046FEF74D
:10EFD000B6F96A46009890F8203090F821C0503079
:10EFE0000CFB03F100EB41000021BCF1000F08D93C
:10EFF00002EB410930F8028B491CA9F8EA808C45E4
:10F00000F6D80021002B08D902EB410930F8028B19
:10F01000491CA9F812818B42F6D8D2F80080002151
:10F0200098F82280B8F1000F0CD902EB410930F8B2
:10F03000028BA9F8BE83D2F80080491C98F8228080
:10F040008845F2D8D2F80080002198F82380B8F1E2
:10F05000000F0CD902EB410930F8028BA9F8CE83DE
:10F06000D2F80080491C98F823808845F2D8002106
:10F07000BCF1000F08D902EB410930F8028B491CA2
:10F08000A9F870808C45F6D80021002B08D902EB36
:10F09000410930F8028B491CA9F898808B42F6D8B8
:10F0A00030F8021BA2F8E61030F8021BA2F8E810B4
:10F0B00030F8021BA2F8E4104FF000080021BCF168
:10F0C000000F0ED908EB480909EB081902EB890972
:10F0D00009EB410B30F802AB491CABF85EA161456E
:10F0E000F6D30021002B0ED908EB480909EB0819CB
:10F0F00002EB890909EB410B30F802AB491CABF874
:10F100008EA29942F6D308F10108B8F1040FD5D3C5
:10F110004FF00008D2F80090002199F82290B9F140
:10F12000000F88BF02EB08190CD909EB410B30F82E
:10F1300002ABABF8DEA3D2F800A0491C9AF822A0DB
:10F140008A45F2D8D2F80090002199F82390B9F1BD
:10F15000000F88BF02EB08190CD909EB410B30F8FE
:10F1600002ABABF8FEA3D2F800A0491C9AF823A08A
:10F170008A45F2D808F10108B8F1020FCAD36146F6
:10F180001846FEF74BFA28684FF0010810F4004FBC
:10F1900003D1694600F02BFE80463046FBF76BFE3C
:10F1A000DDF82004FCF7C5F83846FCF7E5F994F8DB
:10F1B0002000CDF8280494F82100CDF82C04B8F1F3
:10F1C000000F1FBFDDF828040028DDF82C040028FC
:10F1D0007DD072480068CDF8300410F0020F00F0C6
:10F1E0001781009DDDF82C74DDF8282428696E460F
:10F1F00020F00F00286147F6FF706FEA0009CDF894
:10F200002004002005F150080490039002908246EB
:10F210000190002F51D90AFB02F04FF0010C38F990
:10F22000101000208B465B46CDF82404012A1BD920
:10F230000AFB02C038F910009842C8BF0346884252
:10F24000B8BF0146B0EB0B0E48BFABEB000E0FFA98
:10F250008EFBDDF824E4F345C8BFCDF824B4834623
:10F260000CF1010C9445E3D34B45C8BF9946DDF83A
:10F2700020048142B8BFCDF82014581A48BFC81ADC
:10F2800001B247480068B0F9C0308B4205DBB0F9E5
:10F29000C210DDF8240488420BDD4FEA5A1006EB59
:10F2A00080000AF01F0C0121C36801FA0CF1194318
:10F2B000C1600AF1010ABA45ADD34FF0000A002A35
:10F2C00051D938F91A00002183465B4600E09FE1DE
:10F2D0004FF0010CCDF82414012F1BD90CFB02A117
:10F2E00038F911109942C8BF0B468142B8BF084691
:10F2F000B1EB0B0E48BFABEB010E0FFA8EFBDDF846
:10F3000024E4F345C8BFCDF824B48B460CF1010CBE
:10F31000BC45E3D34B45C8BF9946DDF8201488426D
:10F32000B8BFCDF82004191A48BFC11A09B21C4849
:10F330000068B0F9BC308B4205DBB0F9BE10DDF8D7
:10F34000240488420BDD4FEA5A1006EB80000AF0D5
:10F350001F0C0121436801FA0CF1194341600AF1C5
:10F36000010A9245ADD3F068002804BF3069002837
:10F3700003D0286940F0080028617068002804BFA5
:10F38000B068002803D0286940F004002861716843
:10F39000F068B9400843A862B16803E074860010C1
:10F3A0006C8600103069B9400843E8627168202F0C
:10F3B00039BFC7F12002D140A7F120029140084394
:10F3C000E862DDF82004A884A5F82690B6F9E410D8
:10F3D000B9EB010048BFA1EB0900FD490968B1F98B
:10F3E000B820904203DD286940F002002861B6F998
:10F3F000E420DDF82004101A44BFDDF82004801A50
:10F40000B1F9BA10884203DD286940F00100286193
:10F41000DDF83004EF4D10F0050F06D06A46DDF838
:10F420002C14DDF82804FEF732FAD5F8009019F014
:10F43000080F7DD0009ADDF82C34DDF828A411697E
:10F440004FF0000B21F4C05111616846CDF860B057
:10F450005946CDF85CB0002B84BFDFF874E3012679
:10F460001AD9DEF8007000EB410CBCF942C2B7F9C2
:10F47000267167450DDA4FEA511C00EB8C0C01F048
:10F480001F08DCF85C7006FA08F847EA0807CCF8B1
:10F490005C70491C9942E4D3C0F858B00021C0F810
:10F4A00054B0BAF1000F84BFC94E01271AD9D6F85B
:10F4B000008000EB410CBCF972C3B8F92681E0452D
:10F4C0000DDA4FEA511800EB880C01F01F0BDCF845
:10F4D000548007FA0BFB48EA0B08CCF85480491C0F
:10F4E0005145E4D3916BD0F85CC041EA0C01D0F8EF
:10F4F00054C00CFA03FC41EA0C019163D16BD0F8C3
:10F5000060C041EA0C01D0F858C00CFA03FC41EA93
:10F510000C0CC2F83CC0416D202B39BFC3F1200355
:10F52000D940203B994041EA0C01D163416D00E094
:10F5300012E0002904BF816D002903D0116941F454
:10F5400000611161C16D002904BF006E002803D065
:10F55000106940F48050106119F0100F18BF19F0B5
:10F56000050F06D094F8231094F822006A4600F0A4
:10F57000ECFA287810F0400F0FD16069401C6061F0
:10F580002069002814BFE069A06900F1010014BFE0
:10F59000E061A0616846FDF740FF00200346E0609F
:10F5A000A0682146B0F5056F88BF4FF405600022C2
:10F5B000B2EB900F06D251F82260521C3344B2EBEA
:10F5C000900FF8D35942E160287810F0800F09D1EC
:10F5D0002046FDF72DFD4FF440304FF405622146E3
:10F5E000F3F7B6FC41208DF82004207C8DF821042F
:10F5F000607C8DF82204A07C8DF82304E07C8DF8DB
:10F600002404002305220DF58461072000F0C6FDC7
:10F610000DF2344DBDE8F08F70B505460024F2F7C9
:10F6200061FDFBF7DCF8012806D02846F2F744FF1D
:10F6300030B1F2F79DFF0124F2F718FB204670BDB0
:10F64000F6F7A6FAEDE72DE9F74F84B04FF0000882
:10F65000C2F82080C2F81C80059B5D4E0127414600
:10F66000002B1ED902EB4103B3F97030002BB8BF59
:10F670005B421BB2D6F800C0BCF9CCC09C450CDD87
:10F680004B0902EB830301F01F04D3F81CC007FAF7
:10F6900004F44CEA040CC3F81CC0059B491C9942B5
:10F6A000E0D30021012B1CBF059BA3F1010940D031
:10F6B00002EB4103B3F97240B3F970C0B4EB0C0331
:10F6C00048BFACEB04031BB23568B5F9C6509D4288
:10F6D0002CDAB2F9E630BCEB030548BFA3EB0C050E
:10F6E0002DB2B4EB030C48BFA3EB040C0FFA8CF360
:10F6F0009D420DDB4B0902EB830301F01F04D3F89D
:10F700001CC007FA04F44CEA040CC3F81CC00DE05A
:10F710004B1C4FEA531C02EB8C0C03F01F03DCF86C
:10F720001C4007FA03F32343CCF81C30491C49451D
:10F73000BED3316891F8CA30002B7DD091F8CB1040
:10F7400014688B4288BF19460023DDF814C0BCF151
:10F75000000F84BF491C00916ED94FF0010EDDF8F7
:10F7600000C04FF000090121CA46BCF1010F57D972
:10F77000DFF85CC003FB0005DCF800C0CDF80CC06E
:10F78000BCF9CEC002950EFB0005019503FB0015E8
:10F7900004EB4505B5F95080B8F1000FB4BFC8F1CE
:10F7A00000054546AC453BDB0EFB001504EB45056B
:10F7B000B5F95070002FB4BF7D423D46AC452FDBFC
:10F7C000029D6D1A04EB4505B5F94E60002E03E06D
:10F7D0006C86001074860010B4BF75423546AC4587
:10F7E0001EDB019D6D1A04EB4505B5F94E50002D49
:10F7F000B4BFC5F1000BAB46E34511DCA7EB08082D
:10F80000039FB7F9C8704745B8BF09F10109AD1B9F
:10F81000BD42C8BF0AF1010A491C009DA942B5D3E7
:10F82000BAEB090148BFA9EB0A01DFF89CC4DCF878
:10F8300000C09CF8CAC000E01AE061450DDB590920
:10F8400002EB810103F01F064FF0010CCD690CFAA9
:10F8500006FC45EA0C0CC1F81CC005995B1C8B42E8
:10F8600006D2002B18BFA3F1010E7FF478AF74E726
:10F8700007B00120BDE8F08F2DE9F04F002387B0DD
:10F8800016681362D36193615361009301930293ED
:10F890009C4603934B1EDFF8349447F6FF77A0F1A4
:10F8A0000108049300294ED90023002847D90CF001
:10F8B0001F04012505FA04F406944FEA5C1402EBD8
:10F8C000840A0CFB003406EB4404B4F95040FE4DAE
:10F8D0002D68B5F92EB1A34503DBB5F92C51A5422E
:10F8E00016DDDAF81CB0069D03F01F0E4BEA050585
:10F8F000CAF81C505D0902EB85050595D5F814B0D2
:10F90000012505FA0EF54BEA050B059DC5F814B067
:10F91000BCF1000F1CBF049DAC4503D1002B18BFE8
:10F92000434509D04C45C4BFA146CDE9023CBC4289
:10F93000BCBF2746CDE9003C5B1C8342C1D30CF120
:10F94000010C8C45B0D3E04C2368B3F80A31002B8E
:10F950001CBFA9EB070C9C4534DD039BDDF80CC0F4
:10F960005B0902EB83030CF01F07DD694FF0010C0C
:10F970000CFA07F73D43DD61019B019D5B0902EB3A
:10F98000830305F01F05DF690CFA05F53D43DD61D2
:10F99000029B029D5B0902EB830305F01F055F6973
:10F9A0000CFA05F53D435D61009B009D5B0902EB90
:10F9B000830305F01F055F690CFA05FC47EA0C0C90
:10F9C000C3F814C0C04B1B6893F83931002B7DD0AD
:10F9D0000025002858D98B1E4FF0010B009306EB31
:10F9E0004503B3F95040002301294AD005F01F0C0C
:10F9F0000BFA0CFA4FEA551C02EB8C0703F1010CD1
:10FA00000CFB005C06EB4C0CBCF950C0BCF1000FC9
:10FA1000C8BF002C2FDDBCEB040948BFA4EB0C09C8
:10FA2000A445C8BF64464FF4484E09FB0EF999FB44
:10FA3000F4F404F2FF144FEA5429002B1CBF009C7D
:10FA4000A342A14C24680CBF94F8254194F8394195
:10FA5000A14510DD5C0902EB840403F01F0ED4F80D
:10FA60001C900BFA0EFE49EA0E09C4F81C907C6942
:10FA700044EA0A047C616446DDF810C05B1C6345FF
:10FA8000BCD36D1C8542AAD30025002959D9831EF9
:10FA90004FF0010B009305FB00F306EB4303B3F9B2
:10FAA00050400023B8F1000F48D905F01F0C0BFAA5
:10FAB0000CFA4FEA551C02EB8C0705FB003C06EBE9
:10FAC0004C0CBCF952C0BCF1000F00E039E0C8BFDB
:10FAD000002C2FDDBCEB040948BFA4EB0C09A445A6
:10FAE000C8BF64464FF4484E09FB0EF999FBF4F485
:10FAF00004F2FF144FEA5429002B1CBF009CA342C0
:10FB0000714C24680CBF94F8254194F83941A14503
:10FB100010DDFC6903F01F0E44EA0A04FC615C0975
:10FB200002EB84040BFA0EFED4F8149049EA0E0995
:10FB3000C4F814905B1C64464345BED36D1C8D42D3
:10FB4000A9D307B00120BDE8F08F2DE9F04F83B0B5
:10FB50000023D2F800C053669366D3665C4B4FF027
:10FB6000010B1B68029313F0010F574B1B684DD01C
:10FB7000DCF81040002524F48034CCF810402F46E7
:10FB8000EE46CDE900015EF827A00024BAF1000F8F
:10FB900088BF02EB071915D909EB4406B3F9D480E5
:10FBA000B6F9BE63B04503DCB3F9D680B04505DADB
:10FBB000566E0BFA05F846EA08065666641C6D1C7C
:10FBC000A245E9D87F1C022FDDD3DDE900452C4496
:10FBD00000250BFA04FA5EF825600024002E88BF89
:10FBE00002EB05190FD9371909EB4707B3F93A8129
:10FBF000B7F9BE73B84503DA576E47EA0A07576686
:10FC0000641CA642EFD86D1C022DE4D3029C14F0B4
:10FC1000040F58D0DCF81040002524F4C024CCF8A0
:10FC200010402F46EE46CDE900015EF827A00024E3
:10FC3000BAF1000F88BF02EB471915D909EB44064A
:10FC4000B3F9D880B6F9DE63B04503DCB3F9DA80E6
:10FC5000B04505DA966E0BFA05F846EA0806966690
:10FC6000641C6D1CA245E9D87F1C022FDDD3DDE9A1
:10FC700000452544B2F9DE43B3F9D860A64203DC5F
:10FC8000B3F9DA60A64204DA946E0BFA05F525435F
:10FC9000956600252F46CDE900015EF827A00024D7
:10FCA000BAF1000F88BF02EB47191DD909EB4406D2
:10FCB000B3F9DC80B6F9EE63B04503DCB3F9DE805E
:10FCC000B0450DDA06E031E06C8600100080FFFFE1
:10FCD00074860010D66E0BFA05F846EA0806D6665A
:10FCE000641C6D1CA245E1D87F1C022FD5D344189B
:10FCF000D2E91A5030EA050343EA0506D36612D06A
:10FD000000210846002C0ED90BFA00F73B4218BF21
:10FD1000491C401CA042F7D3012904D145EA030045
:10FD200090660020D066506EB04350669CF820006C
:10FD30009CF821100844516ED1B1DCF8101041F448
:10FD40008031CCF81010536EDCF83010834019432A
:10FD5000CCF83010516E202827BFA0F12003994025
:10FD6000C0F12003D940DCF834301943CCF834100A
:10FD7000916ED1B1DCF8101041F40031CCF81010C4
:10FD8000936EDCF8381083401943CCF83810916E2C
:10FD9000202827BFA0F120039940C0F12003D940BB
:10FDA000DCF83C301943CCF83C10D16ED9B1DCF80A
:10FDB000101041F48021CCF81010D36EDCF8401004
:10FDC00083401943CCF84010D16E202827BF20383B
:10FDD00001FA00F0C0F1200021FA00F0DCF8441034
:10FDE0000843CCF8440003B00120BDE8F08F2DE9B2
:10FDF000F04FDFF818B3044687B0DBF800008946FF
:10FE0000002590F8B40000F00F0600F058FA012821
:10FE10000AD00F213046F5F7BEFF012813D000208D
:10FE200000F04AFA00F06EB900210846F1F7ECFF45
:10FE3000F1F76DF850B1B648D0F8401341F4803175
:10FE4000C0F8401302E0012000F036FAB14807780C
:10FE5000B1480678002E18BF002F00F05181D9F864
:10FE60000050002085F8207085F8216085F8220078
:10FE700085F82300F2F7FDFCF2F7CCF800900020A3
:10FE800014F0030F18BF4FF4817014F0200F1CBF43
:10FE900040F20121084314F0100F06D09F49097861
:10FEA00011F0210F18BF40F4846000287ED0009923
:10FEB000084014F4407F18BF40F42020F1F781FF80
:10FEC0000020F7F7ADFA60F30F0800210846F7F7B6
:10FED0009AFA0120F7F7A4FA60F31F4800210120E5
:10FEE000F7F791FA0220F7F79BFA60F30F0A002167
:10FEF0000220F7F788FA0020F1F7AEFA069000200A
:10FF0000F1F707FB05900020F1F738FB0490002083
:10FF1000F1F7C9FB03900020F1F705FC0290F1F71F
:10FF20008EFD14F4807F019028D0DBF80000B0F83B
:10FF3000281100291CBF0020F1F79EFADBF8000011
:10FF400090F82A1100291CBF0020F1F729FBDBF8EB
:10FF5000000090F82B0110F00F0F05D000F00F00FB
:10FF6000411E0020F1F7C6FBDBF80000B0F82801C5
:10FF7000A0B3411E0020F1F7EFFB2FE014F4007F47
:10FF80002CD0DBF80000B0F8301100291CBF002095
:10FF9000F1F772FADBF8000090F8321100291CBF6B
:10FFA0000020F1F7FDFADBF8000000E045E090F8F2
:10FFB000330110F00F0F05D000F00F00411E00209C
:10FFC000F1F798FBDBF80000B0F8300118B1411EE2
:10FFD0000020F1F7C1FB0020F1F727FDFF210F20E2
:10FFE000F6F7B4FCF1F742FE00200699F1F744FA67
:10FFF00000200599F1F798FA00200499F1F7D0FA5A
:020000021000EC
:1000000000200399F1F776FB00200299F1F7A4FB99
:100010000198F1F70AFD0FFA88F10020F7F7F3F9DC
:100020004FEA28410120F7F7EEF90FFA8AF1022092
:10003000F7F7E9F90098F1F7C4FE14F0100F09D0B2
:1000400037494A46087885F82200497885F8231010
:10005000FEF702FC14F02C0F04D04A463146384615
:10006000FEF730F814F0030F49D0CDF80090D9F81E
:100070000090B84609F15005F2F799F88246F1F779
:10008000F5FD0020F2F7B6FB0027002E23D907EB81
:100090004700002400EB071B16E01AF9040026288D
:1000A00011D2C107890C00EBD07001EB8B0140101D
:1000B00001EB800000F1405000F500400068F2F7CD
:1000C0009FFB25F8020B641C444538BF262CE4D363
:1000D0007F1CB742DBD3134C20781D280AD109F1CD
:1000E0005000FAF7A5FF20781D2804BF09F1500041
:1000F000FAF79EFF31464046009AFDF78FFA012538
:10010000F1F749FF07B02846BDE8F08F6C86001074
:10011000005000400785001008850010748600100C
:100120000F8500108D85001070474FF0FF3070472D
:100130005D48406870475C494860704710B582B0C0
:1001400007280BD14FEA111C012404FA0CFC564C71
:1001500064681CEA040F04BF02B010BD9B0100F0EC
:100160000F0043EA800040F001008DF800008DF898
:1001700001108DF80220100A8DF80300100C8DF884
:100180000400100E8DF8050000208DF806008DF893
:10019000070068460BF066FF02B010BD10B582B0D4
:1001A00007280DD191F800C001244FEA1C1C04FA65
:1001B0000CFC3D4C64681CEA040F04BF02B010BD87
:1001C0009B0100F00F0043EA800040F001008DF831
:1001D0000000072A88BF072200206B46002A09D9A1
:1001E00011F800C01C18401C84F801C09042F7D3DD
:1001F000072805D200211A18401C51700728FAD38D
:1002000018460BF02FFF02B010BD10B59B0100F097
:100210000F0082B043EA800040F002008DF8000039
:10022000072A88BF072200206B46002A09D911F847
:1002300000C01C18401C84F801C09042F7D3072866
:1002400005D200211A18401C51700728FAD318460D
:100250000BF008FF02B010BD70B5134E40EA012547
:1002600002283488224618BF052803D1002918BF68
:10027000022900D12C46A24209D051B17088002336
:1002800044EA004290210720FFF758FF3480758030
:1002900070BDF3F756FA44EA00420023902107208C
:1002A000FFF74CFFF2E700007C860010FD49087064
:1002B0007047FC4800787047FA4948707047F94821
:1002C0004078704710B5F848F64C86B00068617801
:1002D000B0F858000429C0F3032008D0F349F5F71B
:1002E0005AFD01281CBF002060700FD044E000219F
:1002F0000846F1F789FDF0F70AFE88B1EC48D0F81E
:10030000401341F48031C0F8401309E004206070CC
:1003100005210020F1F7B0F800210846F1F791FA25
:10032000FF210F20F6F712FB0BF04BFF0BF04EFFF7
:100330000020F4F73FFBF0F7EAFD10F0010F04BFD7
:100340000120F1F77AF8F1F779FEFAF748FA012877
:100350000CD06846F2F7B0F828B16846FBF726FAE9
:10036000F2F706F9F1E7F5F713FCEEE7F1F77EFC9B
:100370000BF02CFF0BF02FFFF1F70DFE06B010BDB8
:100380002DE9F04FC848C74DADF6641D0068697887
:10039000836D0229C3F303201AD06A6812F4007F28
:1003A0001EBFC3F303310F29084612F0800F1EBF92
:1003B000C3F303110F29084602F00701F5F7EBFC20
:1003C000012814BF00200220687040F071830DE006
:1003D00000210846F1F718FDF0F799FD30B1B44857
:1003E000D0F8401341F48031C0F84013F1F712FE09
:1003F000CDF81C09287910F0100F18BFF2F718FA81
:10040000287910F0080F03D1FF210F20F6F79EFA8C
:10041000A8480078CDF83C09A7480078CDF84009F5
:10042000A6480478A6480078CDF83809A54890F881
:10043000009090F80180DDF8400900281CBFDDF82D
:100440003C09002816D00BF0BCFE0BF0BFFE0020CC
:10045000F4F7B0FA0020F4F7E6FA0020F4F700FB16
:100460009048007910F0100F0CD00120F4F784FBB5
:1004700001200BE0DDF83809002818BF002CE2D17C
:1004800000F016BB0020F4F777FB0020F4F774FBB4
:10049000F0F73DFD10F0010F04BF0120F0F7CDFF94
:1004A000F1F7CCFD1E20FAF7E6FC00210846FAF72A
:1004B0005DFCCDF84C0901210020FAF757FCDDF86E
:1004C0004029DDF83C198346002001FB02FABAF10D
:1004D000000F84BF47F6FF73DA4308D9DDF84C19E3
:1004E00021F810202BF81030401C8245F6D81E2031
:1004F000FAF71FFF00210120FAF738FC0646012118
:100500000846FAF733FC0546DDF83819002067186D
:100510001CBF47F6FF72D14306D026F8101025F80D
:100520001020401C8742F8D81E20FBF725F8002138
:100530000220FAF71BFCCDF8480901210220FAF746
:1005400015FCCDF84409002019EB08091CBF47F63B
:10055000FF73D9430AD0DDF8482922F81010DDF8DE
:10056000442922F81030401C8145F4D84D484FF002
:1005700000084088002840F2A381DDF83819781C73
:10058000491ECDF85C19DDF8381940082144491E90
:10059000CDF8501909F101014908CDF85819CDF8E5
:1005A0005409FAF71CF9012800F08A810DF5126050
:1005B000F1F782FF002800F07C81DDF82409F3F7D1
:1005C00088FCDDF82809002853D00BF01DFE0446F6
:1005D0003448007910F0100F0AD02046DDF82819B1
:1005E0000BF017FE0190A04208BFDDF8284910E08B
:1005F000002000230090019002901A461946DDF871
:1006000028090BF00BFE01902648007910F0200F0E
:100610000BD1F3F7D3FCDDF84029009201462046C8
:10062000DDF83C39019A0BF072FD1E48808810F409
:10063000804F1EBF01980028F3F701FD002C1CBF5E
:100640000020BAF1000F14D9DDF84C2934F910104C
:1006500032F910208A42BCBFDDF84C2922F8101074
:100660003BF910208A42C8BF2BF81010401C82456D
:10067000EAD8DDF81C0910F0010F1CBFDDF83009C5
:1006800000287BD00BF02FFD04460648007910F0BF
:10069000400F19D000221146DDF830090BF0C3FDE0
:1006A00020E00000848600106C86001004000A0020
:1006B0000050004007850010088500100C850010D0
:1006C0000D8500100F850010F3F741FC0222009207
:1006D00001462046DDF85439DDF830290BF017FDCE
:1006E000DDF83009FE49898811F4005F1CBF00283D
:1006F000F3F737FC002C41D0F948426812F4806FC0
:1007000033D0DDF838190020012911D004EB400165
:1007100034F910C0B1F90230B3EB0C0148BFACEBB7
:10072000030124F81010DDF85C19401C8842EDD359
:100730004FF0000E24F810E0DDF85019401C8842FC
:1007400011D204EB400134F910C0B1F90230B3EB1F
:100750000C0148BFACEB030124F81010DDF8501970
:10076000401C8142EDD824F810E00020002F12D95F
:1007700034F9101036F910308B4200E041E0B8BF78
:1007800026F8101035F910308B42C8BF25F810102C
:10079000401C8742ECD812F4806F32D0D14A08F165
:1007A0000100A2FB00318908494201EB8101C142ED
:1007B00027D1A2FB08108008A2FB002109094942A9
:1007C00001EB810100EB810000EB4001C1EB401126
:1007D00003A800EB81010020002F84BF47F6FF73C0
:1007E0006FEA030C0DD936F8102035F81040121BB3
:1007F00021F8102026F810C025F81030401C874240
:10080000F1D8DDF81C0910F0200F1CBFDDF8340909
:10081000002849D00BF00CFD0446B148808810F444
:10082000807F13D0F3F779FB014602200090204629
:10083000DDF85839DDF834290BF069FCDDF83409AE
:10084000A749898811F4805F0FD109E00021DDF804
:1008500034090BF039FCB8F1040F38BF0024EFE77E
:1008600018B1F3F75CFBF3F753FB002C1CBF00201F
:10087000B9F1000F18D9DDF8482934F9101032F910
:1008800010208A42BCBFDDF8482922F81010DDF89C
:10089000442932F910208A42C4BFDDF8442922F8E5
:1008A0001010401C8145E6D8F1F762FE08F10108FE
:1008B00001E0F5F76DF98A4840888045FFF471AE94
:1008C000F1F7D4F90BF082FC0BF085FC844C6088C6
:1008D000804578D3DDF81C0910F0020F2AD00022E1
:1008E0004FF6FF731046BAF1000F10D9DDF84C191E
:1008F0003BF910C031F91010A1EB0C019142C8BFB7
:100900000A469942B8BF0B46401C8245EED84220A9
:100910008DF80000100A8DF801008DF80220180AE9
:100920008DF803008DF80430002305226946072066
:10093000FFF734FCDDF81C0910F0010F7DD0A08812
:1009400010F4806F51D06748A0FB08108308142B67
:1009500088BF14234FF0000844464146002F84BF4F
:10096000981E009055D94FF0000CDFF87CA147F697
:10097000FF7B6246002B12D902EB4200C0EB421E05
:1009800003A800EB8E0030F9110084445045C8BF25
:1009900082465845B8BF8346521C9A42ECD3002B7E
:1009A00004BF002026F811000ED09CFBF3F026F8BF
:1009B0001100022B08D9ACEB0A00A0EB0B02009847
:1009C00092FBF0F001E06AE0002025F8110036F912
:1009D0001100A042C8BF044635F911004045C8BF08
:1009E0008046491C8F42BED813E000244FF6FF78A2
:1009F0002046002F0DD936F9101035F91020891A2C
:100A0000A142C8BF0C464145B8BF8846401C87423A
:100A1000F1D843208DF80000200A8DF801008DF8F0
:100A200002404FEA18208DF803008DF8048000235F
:100A3000052269460720FFF7B1FBDDF81C0910F01D
:100A4000200F2CD000224FF6FF731046B9F1000F93
:100A500012D9DDF8481931F910C0DDF8441931F91F
:100A60001010ACEB01019142C8BF0A469942B8BFD1
:100A70000B46401C8145ECD844208DF80000100A3C
:100A80008DF801008DF80220180A8DF803008DF80A
:100A900004300023052269460720FFF77FFBFF2073
:100AA000FAF7E9F9FF20FAF744FCFF20FAF764FDB2
:100AB000F1F771FA0DF6641DBDE8F08F30B5ADF6B3
:100AC000540D4FF0FF30FCF781F8054C00206070AA
:100AD000F1F765FBF1F738FB0546FF2206E0000061
:100AE00084860010CDCCCCCC0080FFFF4FF4056194
:100AF00068460BF0EEFA6846FCF739FC6846FCF7EE
:100B0000C0FBF9F76CFE012803D1F4F7E9FF0328D5
:100B100027D1207810F0010F07D0FEF730FA2078A7
:100B200020F001002070F9F7E9FD207810F0020FA5
:100B300007D0FFF725FC207820F002002070F9F79D
:100B4000DDFD207810F0040F07D0FFF7BBFB207805
:100B500020F004002070F9F7D1FDF4F7C1FF03285D
:100B60000BD00020FCF78DFB2846F1F7E7FA0120B7
:100B7000F1F715FB0DF6540D30BDF5F709F8C0E798
:100B80000549486000204870704703484068704736
:100B9000014948807047000084860010FA490870B7
:100BA0007047F94800787047F749C8717047F648B0
:100BB000C0797047F448C06AB0F5B47F2CBF0120FB
:100BC00000207047F04840787047EF49002280B11C
:100BD000012818BF7047487802280CD0042818BF95
:100BE000C86A06D0B0F5B47F84BF4FF4B470C86251
:100BF0007047CA627047C86A401CC862F2E7E3489F
:100C000000787047E048C07910F0010F18BF7047B6
:100C100010B50020DD490870F5F73CF8BDE810403C
:100C20000020F3F7FABED9488088C0F3002070474F
:100C3000D64910B589880020C1F3002151B106F0D2
:100C40000AFA64280FBF4FF0C040012101FA00F0FA
:100C500040F08040BDE8104006F000BACB4A10B525
:100C600081B25160C84AC0F30743C0F30360136206
:100C7000507090700020C1F30021506251B106F015
:100C8000EAF964280FBF4FF0C040012101FA00F0DB
:100C900040F08040BDE8104006F0E0B9BA48407925
:100CA0007047BA4A0028516814BF41F0020021F091
:100CB000020050607047B5480079C0F340007047AB
:100CC000B24A10F0010F506814BF40F0020020F04B
:100CD000020050607047AD4900200979C1F340011E
:100CE000002918BF012070470028A84A516814BF86
:100CF00041F0010021F0010050607047A3480079E5
:100D000000F001007047A0494A788A704870704727
:100D10009D48807870479E480068406DC0F303602E
:100D20007047012181409848026A11400162704772
:100D3000012181409448026A22EA01010162704760
:100D40009148006A70479048406A70478E4910B5D4
:100D50004C6A48620246002381210720FFF7EEF922
:100D6000204610BD89488088C0F38020704786489F
:100D70008079704702283CBF8349886220B10128EE
:100D800018BF704708F00ABB08F0AEBA7E48806A08
:100D90007047FBF71BBA10B5FBF718FA7A49096BD5
:100DA000884214BF0120002010BD78480079C0F3AC
:100DB0008000704775480079C0F3C00070477348E1
:100DC0008088C0F34020704770480079C0F3C0109D
:100DD00070476E488088C0F3403070476B48808809
:100DE000C0F3C020704769488088C0F30030704766
:100DF00070B5664E0446C0F340707568C5F3403167
:100E0000884205D014F0005F04BF0120F3F772FDA3
:100E100014F0805F14BF45F4806025F4806014F006
:100E2000005F14BF40F4005020F400507060FBF7E6
:100E3000B2FBBDE87040EFF77BBA54484168002030
:100E400011F4806F18BF4FF0805011F4005F18BF8D
:100E500040F00050704770B54C49044610F0040F44
:100E60004D68284614BF40F4807020F4807014F060
:100E7000080F14BF40F4007020F4007014F0100F3D
:100E800014BF40F4006020F4006014F0400F14BF61
:100E900040F4805020F4805014F0200F14BF40F034
:100EA000800020F0800048600021C0F3002050B195
:100EB00006F0D1F864280FBF4FF0C041012101FABC
:100EC00000F040F08041084606F0C8F8C4F3800006
:100ED000C5F30021884220D006F056F806460120CE
:100EE000F3F708FD16F4817F0CBF01200020F1F715
:100EF00025F916F0020F04D0022008F019FA00209C
:100F000009E016F4807018BF012008F011FA21489A
:100F100090F86C00C00802F0E1FDC4F3C000C5F316
:100F20004021884208BF70BD0120F3F7E3FC04F0C4
:100F30000800BDE8704008F0ABB9144841680020D3
:100F400011F0040F18BF012011F0080F18BF40F076
:100F5000020011F4807F18BF40F0040011F4007FFC
:100F600018BF40F0080011F4006F18BF40F01000E7
:100F700011F4805F18BF40F0400011F0800F18BFDF
:100F800040F02000704700008C86001008390110E6
:100F90006C8600107436011003283CBFFD49C861FF
:100FA0007047FC48007F7047FA4908737047F9485A
:100FB000007B7047F748C06B7047F6494A6B104397
:100FC0004863704770B5F34E706B40F000740020BA
:100FD0007063F148456815F0040F18BF44F0010430
:100FE00015F0080F18BF44F0020415F4807F18BFF5
:100FF00044F0040415F4007F18BF44F00804FBF724
:10100000E5F8002818BF44F0805415F4006F18BFAD
:1010100044F0100415F0800F18BF44F0200415F4BC
:10102000805F18BF44F0400415F4005F18BF44F01F
:101030000054716A44EA0140002918BF40F0806002
:1010400070BDD44988637047D24890F8380000F0EA
:1010500001007047CF4890F83800C0F34000704757
:10106000CC4890F83800C0F380007047002818BFC3
:101070000120C849887270472DE9F05FC749800098
:1010800000260968896D21FA00F000F00F04C1F311
:101090000325C1F3031AC1F30339C1F30358C1F3A4
:1010A000036BAC421CBF2046BDE8F09FB948B8F1C5
:1010B0000F0F876D16D005F067FF10F4817F0ED0FB
:1010C000BBF10F0F0AD0B4488088C0F3403028B17C
:1010D00005F0CCFF082818BF5C4600D14446A74263
:1010E00018BF0126AC420FD1B9F10F0F0CD0AA489E
:1010F0008088C0F3403020B105F0B8FF082818BF41
:101100004C46A74218BF0126AC4207D1BAF10F0FD7
:1011100004D0F4F7D2FD002818BF5446A7421EBFE2
:10112000002E0020F3F7E6FB9A4884652046BDE8D0
:10113000F09F70B5002486B02646F4F7D1FC97499D
:10114000052808680CBF90F8F80090F8580000F0E7
:101150000F052846FBF717FD002818BF406A10F05E
:10116000010F14BF0220042040F400312846F4F798
:1011700012FE002804BF06B070BD0120F0F75DF933
:10118000F0F7B0FFF9F72BFB012838D06846F1F7EC
:1011900093F900282FD00198F2F79BFE0298B8B17E
:1011A00001467F480BF049F87D4A904209D07D4ABC
:1011B0007D4B014612781B7852005A4378480AF05A
:1011C00065FF7A480078492804BF7548F9F730FF71
:1011D000049848B176487749007809780844420075
:1011E000754804990AF052FF6A4901208872F1F7A4
:1011F000BFF9012603E0F4F7CBFC002CC2D0F0F7D6
:1012000035FDF4F741FF06B0304670BD6148807A85
:10121000002818BF012070472DE9F04F4FF0000A59
:1012200087B006460F24D146F4F75AFC0546F4F77A
:101230005DFCDFF860B10690052D07D1FAF777FD68
:10124000002804BF00208BF80A0002D09BF80A0097
:1012500058B9F4F793FD07464FF48050F4F78BFD2F
:10126000FFF767FF3846F4F786FD052D0CBFDFF862
:101270004C81DFF84C8105F087FE002818BF0E2452
:1012800021463046F4F787FD002804BF07B0BDE8CB
:10129000F08F0AF096FF0AF099FFF3F7D5FA0400F1
:1012A00077D10126EFF733FE07460020F0F7C5F8A7
:1012B0003046F0F7DCFE3748022D866408BFF6F7AB
:1012C00056F9F2F741FAA6F1010BF9F788FA01286D
:1012D0000AD0F4F705FCA84206D1F4F707FC0699FA
:1012E000884208BF002C12D0F0F7C0FC2A48808842
:1012F000C0F3402000281CBF012007F0C9FF254E85
:1013000017F0010F757834D0012C27D031E06846F2
:10131000F1F7D2F8F8B117F0010F03D00120F2F77E
:1013200053FC82466846FAF741FA0198F2F7D1FD7C
:101330006846C0470446F1F71BF9002CC5D116B921
:1013400001985845C1D1F0F78FFC002804BF304602
:10135000F0F78DFEB9E7F4F710FCB6E70120F2F7DD
:1013600033FC504505D2AAEB00010120F2F73CFC0A
:101370008146F2F70EFA17F0010F41D0012C3FD150
:10138000B9F1000F3CD0EFF794FF0446EFF7D0FD22
:1013900018E035E08C860010083901106C860010CA
:1013A00080F9001007850010088500108D85001059
:1013B0000D8500100C85001070FF001079340010AE
:1013C000B939001000EB800004EB400048440021D4
:1013D00044F20902904284BFA0F580400938002DF4
:1013E00008BF43F6390103D0022D08BF41F6F901C9
:1013F000884205D2091A0120F2F725FC01207072FB
:101400000AF0E9FEF4F740FE07B0BDE8F08F2DE9E1
:10141000F14F88B000270197049707970697F4F7D4
:101420005FFBBA46D146CDF814A00290FE48DFF823
:1014300000B40478FD4806789BF8000004FB06F829
:10144000462804BF0898F9F7F3FD0898089900EBBF
:1014500048000AF0F2FE03909BF800004B2804BFFE
:101460000398F9F7E5FD0898234600EB88050096F8
:10147000F0492846039A0AF04AFE9BF800004928E2
:1014800004BFEC48F9F7D4FDE94800784C2804BFC4
:101490002846F9F7CDFD0298052830D128886988BB
:1014A00005EB4402084401B235F814005288DFF815
:1014B00088B3104400229BF80D3000B2012B13D1E9
:1014C000BBF816305B1A1BB2ABF818309E46BBF85F
:1014D0001230C31A0FFA83FCABF814C0BEF11E0F12
:1014E000C4BFBCF11E0F0122ABF81610ABF81200FE
:1014F00001208BF80D00002A18BFFAF71FFC05EB3E
:10150000480293464FF0000C002E26D90020611EA1
:1015100013D005EB410E35F811303EF802ECA3EB89
:101520000E031BB2002BB8BF5B421BB222F8113076
:101530008342C8BF1846491EEBD10299022900F028
:10154000DF80108005EB440502EB44025045C8BF24
:1015500082460CF1010CB445D8D3B748B0F90E005F
:1015600000908245A4BF012701970BEB48034FF081
:10157000000C002E25D90021601E022812D90BEB89
:1015800040023BF8105032F802EC32F8042C75445B
:101590002A4412B223F810208A42C8BF1146401EC6
:1015A0000228ECD800201980588098800BEB440B5F
:1015B00003EB44034945C8BF89460CF1010CB4450F
:1015C000D9D39D4AB2F910108945A4BF01270497C9
:1015D000002F14BF106D506D00F1010014BF106595
:1015E000506593480078FF287ED0089B08EB880060
:1015F00023F81070DDF820C0019B0CEB40056B80D8
:101600000498A8800698E88007982881106DC31771
:1016100000EB13536FF30B03C01A6881506DC317AF
:1016200000EB13536FF30B03C01AA881A5F80EA0AB
:10163000A5F81090059868820098A882E982108B1E
:101640002883908A6883FAF772FBA8834FF0020917
:1016500006EB86000899002F00F101032246CDF821
:1016600000900CBF4E204D20F9F74FFC06EB86068C
:10167000731C2246CDF8009047200899F9F745FCE5
:10168000089847F6FF7A20F838A0F5F7BBFF0899CD
:1016900001EBC80568806948006CC0F30820A88089
:1016A0006748D0F844030021C0F30B00E8800A2209
:1016B0000846F5F705F900B2288101116981C117C3
:1016C00000EB117121F00F01401A00EB8000400087
:1016D000C11700EB11700011A881F5F741FFE881F7
:1016E000A5F810A0731C00E006E02246CDF800909B
:1016F0004F200899F9F709FC09B03846BDE8F08F8A
:1017000002EB440131F9023C142BB9BF31F9041C3E
:1017100014290127019714E74A4870472DE9F84F2B
:10172000834645484A490025B0F90E804748097864
:10173000454C00782E46AA464718F0F76BFC0090FF
:101740004448A4F174090078492804BF4846F9F7D1
:101750000AFE0020002F09D93BF8101039F810209C
:10176000891A24F81010401C8742F5D8DFF8E4905D
:1017700099F800004C2804BF2046F9F7F4FD0098C2
:1017800010F4007FA7F1010012D000281CBF2A49E5
:10179000B1F9103026D034F910100029B4BF4A42F4
:1017A0000A469A42BCBF0D44761C401EF3D119E094
:1017B00000281CBF2049B1F9103013D004EB4002BF
:1017C00034F8101032F8022C891A09B224F81010DB
:1017D0000029B4BF4A420A469A42BCBF0D44761C57
:1017E000401EEBD1002EC8BF95FBF6F52EB2268029
:1017F00099F800004F2804BF2046F9F7B4FD0025F2
:10180000781E0ED034F81010891B09B224F810107D
:101810000029B8BF494209B28D42B8BF0D46401EEB
:10182000F0D1258018E00000078500100885001021
:101830008D85001080F900108C860010006000403B
:101840000050004070FF0010E4FF00100D850010F4
:101850000C8500109285001005F096FB10F4817F36
:1018600018BF4FF00508454506DD99F800004FF018
:10187000010A4D2807D103E099F800004E2802D153
:101880002046F9F770FD99F80000472804BF20466C
:10189000F9F769FD5046BDE8F88F2DE9F04F87B0A4
:1018A000FAF750FC80480068B0F93610B0F93400FF
:1018B0000AF04BFC0120F3F71DF805F065FB10F46E
:1018C000817F14BF00200120F0F738FC774F97F894
:1018D000200010F0100F06D00420FFF7CDFB0F28DA
:1018E00018BFF3F705F8FF2038720021481EFAF7F9
:1018F000DBFE06F069FAF5F75BFE03F0E9FEF4F7AC
:10190000EFF802287ED1DFF8A8A1DFF8A8B14FF0E8
:1019100000084FF0E0297C78C7F840802046C7F8DF
:101920004480FFF7A9FB054621460220FEF794FC00
:10193000052C53D2DFE804F0790303037D000F2464
:101940007E7805F021FB002818BF0E24214628468A
:10195000F4F721FA00286FD00AF033FC0AF036FCC5
:10196000F2F772FF050033D1387800281CBF000160
:10197000EFF7B3FC0024F0F74DFB0690EFF7C7FA42
:1019800010F0010F0ED0EFF752FD02280AD3787A3B
:1019900040B1069840F40030F0F713FA0124F0F754
:1019A000A1FB01E0F0F74AFB87F8098087F8038084
:1019B000F2F7CCFFF3F76FFDF8F711FF012807D01E
:1019C000F4F78EF8022802BF7878B042002D06D0D6
:1019D0000AF0FCFB0AF0FFFBF4F756FB2CE068462C
:1019E000F0F76AFDF0B12CB1641E0698F0F7E9F942
:1019F000F0F724FB6846F9F7D9FE0198F2F769FA87
:101A0000684600E025E00AF01DFC05469AF8000053
:101A100028B1D9F81800CBF80000C9F81080F0F709
:101A2000A7FDC9E7F4F7B4F8C6E728460AF0DDFBDE
:101A300002E02846FFF7F0FBF8F7D1FE012803D1BA
:101A4000F4F74EF8022804D1F4F74AF802283FF4DC
:101A500062AF08F032F8F2F74CFFFAF773FBF4F7D5
:101A60003FF805281CBF07B0BDE8F08FEEF79DFEDC
:101A700058B10020EEF7E4FE0120EEF77FFE07B03C
:101A80000020BDE8F04FEEF7D8BE0120EEF7D8FEFB
:101A900007B00020BDE8F04FEEF770BE4A000146E7
:101AA00005480AF0F3BA00006C8600108C8600101E
:101AB000338400109884001070FF00103A4A30B44C
:101AC000146894F86CC01CF0040F1ABF012222EABB
:101AD0000C050CF00105B0F90030B1F900201DB182
:101AE000E58AAA1A521E12B21CF0020F03D0A48A71
:101AF000E31A5B1E1BB21CF0040F19BF02800B809F
:101B000003800A8030BC70474FF6FF71A0F8681060
:101B1000A0F86A10A0F86C10A0F86E1070472DE9BC
:101B2000F05F16468A46834605F0F6F9074605F04B
:101B3000EBF9002500F1CF09002E8CBF4FF6FF789E
:101B4000BDE8F09F05EB051000EB451007EB8004A6
:101B500094F8B00010F0010F0DD0A4F86880A4F83C
:101B60006A80A4F86C80A4F86E8023464A465146E9
:101B7000584602F04DFDD4F8B800022818BF0328DB
:101B80000DD0B4F86800A4F86C00B4F86A00A4F8AA
:101B90006E00681CC5B2B542D4D3BDE8F09F2046A4
:101BA00000F0C9FEF5E70000AC870010FC49887022
:101BB0007047FB4880787047F9484078002818BF84
:101BC00001207047F748006890F8700000F00100AD
:101BD0007047F44909680A6F60F300020A677047AA
:101BE000F04B10B4D3F800C0BCF8123003FB00F483
:101BF000BCF81A005943B4FBF0FCB1FBF0F10CFB4C
:101C00000CF4DFF8A4C34943CCE9084103FB02F11B
