:100000005555AAAA241700000000000000000000B7
:100010005285030000000000000000003E79870ABE
:1000200000021000E1070000890200009F020000AA
:10003000B5020000CB020000E10200000000000059
:100040000000000000000000000000001D2E000065
:10005000212E000000000000F7020000232E000007
:10006000252E00003F2B0000D72E0000772B00002C
:100070003D2E00007D2E0000812E00008F2E0000FE
:10008000A12E0000A32E0000A52E0000C32E00000C
:10009000C52E0000D92E0000000000000000000066
:1000A000DB2E0000DD2E000000000000000000003C
:1000B00000000000DF2E0000E12E00008D2B00006C
:1000C000E32E0000F12E0000090300000B2F0000BA
:1000D0000D2F0000000000000000000000000000E4
:1000E0002417000000F002F800F05AF80AA090E887
:1000F000000C82448344AAF10107DA4501D100F0E3
:100100004FF8AFF2090EBAE80F0013F0010F18BF55
:10011000FB1A43F0010318470CB101002CB1010098
:100120000A444FF0000C10F8013B13F0070408BF1D
:1001300010F8014B1D1108BF10F8015B641E05D0BB
:1001400010F8016B641E01F8016BF9D113F0080F70
:100150001EBF10F8014BAD1C0C1B09D16D1E58BF02
:1001600001F801CBFAD505E014F8016B01F8016B39
:100170006D1EF9D59142D6D37047000000230024AC
:1001800000250026103A28BF78C1FBD8520728BFA7
:1001900030C148BF0B6070471FB51FBD10B510BD03
:1001A000DFF80CD0FFF7F8FF03F03EF81AF06CFD13
:1001B0000002100003B4FFF7F1FF03BC1AF06CFD5E
:1001C0000A484FF0FF0101704FF0000080F31188E2
:1001D0004FF0000080F3098805484FF002010170DC
:1001E00062B604484FF080510160704722ED00E094
:1001F0000002100004ED00E002484FF08051016061
:100200007047000004ED00E04FF0200080F31188FB
:10021000EFF3098098B112480068124909688842D2
:1002200017D0EFF309800E49096820E9F00F8860C4
:1002300000B50B48006800F0F2F85DF804EB0848E0
:1002400008490A68026000688168B1E8F00F81F32C
:1002500009884EF0040E4FF0000080F311887047BB
:100260000402100008021000EFF311804FF020018B
:1002700081F31188704700004FF0000080F311886F
:100280007047000062B6704772B6704740BA704758
:10029000C0BA7047401E0028FCDC704700BE7047A3
:1002A00040BA7047C0BA70471EF0040F0CBFEFF39E
:1002B0000880EFF309804FF0010102F0E0BC1EF06E
:1002C000040F0CBFEFF30880EFF309804FF0020139
:1002D00002F0D5BC1EF0040F0CBFEFF30880EFF363
:1002E00009804FF0030102F0CABC1EF0040F0CBFDE
:1002F000EFF30880EFF309804FF0040102F0BFBC78
:100300001EF0040F0CBFEFF30880EFF309804FF0ED
:10031000050102F0B4BC4FF0000000B504F0B9F8DC
:100320005DF804EBFFF770BF1EF0040F0CBFEFF396
:100330000880EFF309804FF0000102F0A0BC00003C
:10034000194910B5012008701849002008601849A3
:100350000860184908601849086000F0A7F900F023
:1003600039F900F063F8002010BD10B5114800F015
:1003700018F90F4908600D490968884207D00A48F2
:100380000078022803D1BDE81040FFF735BF10BD4B
:1003900010B5FFF7EAFF044902200870FFF710FFCD
:1003A0004FF0FF3010BD00000002100004021000EA
:1003B000080210000C0210001002100070B50D466B
:1003C0000446C1698068CC221AF061FBE169A0682B
:1003D000084440384FF08071C163216A8163002175
:1003E00041630163C1628162C0E908514FF00B3182
:1003F000C1614FF00A3181614FF0093141614FF025
:10040000083101614FF00731C1604FF00631816062
:100410004FF0053141604FF00431016070BD8269D9
:100420008168914201D802F0C2BF704710B54FF405
:10043000B47146481AF055FB002010BD70B5054652
:1004400000EBC501414800EB8104FFF70DFF0646B4
:10045000207828B13046FFF70FFF6FF0010070BD24
:100460000320207000206560206204F11C0000F071
:1004700071F83046FFF700FF002070BD2DE9F04114
:100480000F463249002500EBC00001EB80042E46E8
:10049000FFF7EAFE8046206A3843206204F11C0020
:1004A000074600F07EF80CE0216A026C114203D08E
:1004B00000F054F9012600E06D1C2946384600F092
:1004C00066F80028F0D1012E01D1FFF74EFF40461B
:1004D000FFF7D2FE0020BDE8F08170B50D461B4944
:1004E00000EBC00001EB8004FFF7BEFE216AA943C8
:1004F0002162FFF7C1FE002070BD2DE9F0410D46DD
:10050000124900EBC0001E46904601EB8004FFF745
:10051000ABFE07460E4800680564216A294203D1F4
:1005200004F11C0100F02CF93846FFF7A5FEFFF797
:100530009BFE216A29403160B8F1010F02D1216A86
:10054000A9432162FFF798FE0020C4E7A40610002B
:1005500004021000002101600846704730B50A68A7
:1005600012B10B46C46B09E000220860C0E9032108
:100570000BE000BF02F10C03D26812B1D56BA542AB
:10058000F8DC1A68C0E903211860002030BD00685B
:10059000002201E0C068521C8A4201D00028F9D133
:1005A00070470068704702690AB1116831B96FF08D
:1005B0000400704701F10C02C96839B18142F9D1D8
:1005C000C968116000210161084670476FF003009F
:1005D0007047000010B54FF4C87132481AF081FA24
:1005E000002010BD2DE9F041884605462D4900EB5D
:1005F0008500174601EBC004FFF736FE064620785B
:1006000030B13046FFF738FE6FF00100BDE8F081F1
:1006100002202070E7611422414604F10800656061
:100620001AF0F0F90020206204F12400FFF792FF95
:100630003046FFF721FE0020E8E770B5194900EBCE
:10064000800001EBC004FFF70FFE0546D4E9070167
:10065000814205DB144804F12401006800F090F8A1
:10066000206A401C20622846FFF706FE002070BD6D
:1006700070B50C4900EB800001EBC004FFF7F4FDFE
:100680000546206A08B1401E206204F12400FFF7ED
:1006900088FF10B1606A00F011F82846FFF7ECFD02
:1006A000002070BD0C0810000402100010B54FF4BB
:1006B0002A7140481AF015FA002010BD10B5044602
:1006C00090F8380002280BD02046FFF76CFF02207C
:1006D00084F8380038492046FFF740FFFFF745FE11
:1006E000002010BD2DE9F05F8B460646314900EB36
:1006F00006109046DDE90AA911F820201D461AB11E
:100700006FF00100BDE8F09F01EB8004FFF7ACFD46
:10071000074601202070C4E90165C4E90585C4E9E4
:1007200007A91422594604F124001AF06BF900209D
:1007300084F8370084F838006169E0602061C4E91A
:100740000F1020460C99FFF739FEA0602046FFF7F6
:10075000B5FF3846FFF790FD0020D3E710B50446FB
:1007600090F83800022809D02046FFF71CFF02202D
:1007700084F8380010492046FFF7F0FE002010BD35
:1007800070B5044690F838000D4602280BD120467B
:10079000FFF709FF032084F8380029462046FFF7B9
:1007A000DDFEFFF7E2FD002070BD044800684068F0
:1007B000704700009C0910000C0210000402100099
:1007C000F0B58446002004460C4F14E05CF8246029
:1007D0000323DD0046FA05F280EA026008250028BE
:1007E00002DA87EA400000E040006D1E002DF6DCD2
:1007F0005B1EEED5641C8C42E8DBF0BD1B00008064
:100800001248804712480047FEE7FEE7FEE7FEE792
:10081000FEE7FEE7FEE7FEE7FEE7FEE7FEE7FEE7B0
:10082000FEE7FEE7FEE7FEE7FEE7FEE7FEE7FEE7A0
:10083000FEE7FEE7FEE7FEE7FEE7FEE7FEE7FEE790
:10084000FEE7FEE7FEE7FEE7FEE70000890800009E
:10085000C50000001E4800684FF00051002891F8C4
:10086000210000F01C000DD0042805D0082805D078
:100870000C2805D096200CE011200AE0252008E085
:100880004B2006E0042809D0082809D00C2809D0FC
:100890007020401E01F82C0F087070470C20F8E7FC
:1008A0001B20F6E73720F4E770470A4993200870C9
:1008B000D0E708490B200870CCE70548006818B954
:1008C00004480078932801D0002070470120704729
:1008D000340400222100002010B5042000F052F959
:1008E000052000F04FF9062000F04CF9072000F039
:1008F00049F9082000F046F9182000F043F91920C2
:1009000000F040F91A2000F03DF9B04A00201060D4
:10091000AE4B40331860AD4918390860AB49083117
:100920000860AB49C871A94C143C2060A74C0C343A
:1009300020600872A54C103C2060A44C103420604C
:100940004872A24C0C3C2060A04C14342060887289
:100950009E4C083C20609D4C18342060C8729B4C13
:10096000283420608873241D2060C873241D2060F3
:10097000087401201060186008700621042000F03F
:1009800019F90621052000F015F90621084600F0A6
:1009900011F90621072000F00DF90621082000F0CA
:1009A00009F90621182000F005F90621192000F0A8
:1009B00001F904211A2000F0FDF8042000F0EEF8FF
:1009C000052000F0EBF8062000F0E8F8072000F022
:1009D000E5F8082000F0E2F8182000F0DFF8192010
:1009E00000F0DCF81A2000F0D9F8042000F0BEF87E
:1009F000052000F0BBF8062000F0B8F8072000F052
:100A0000B5F8082000F0B2F8182000F0AFF8BDE803
:100A100010401A2000F0AAB800EB80006B4940009B
:100A2000002218390A606A4A521F107001200860BB
:100A300070476649002018390860704700EB800055
:100A400062494000002210390A60614AD21E1070CB
:100A50000120086070475D49002010390860704728
:100A600000EB80005949400000220C390A60584AC6
:100A7000921E1070012008607047544900200C3904
:100A800008607047514A10B5283214680123D10616
:100A900064B10024146081F8350091F83F0000BF74
:100AA00091F83F408442FBD0136010BD81F83500BF
:100AB000FAE700EBC00101EB00106FF0030101EB5E
:100AC000800010B54349444C0978B0FBF1F0401E5A
:100AD00080B2FF280CD9010A2170494200EB0120A5
:100AE0006070FF20FFF7CEFF2078401E207010BD01
:100AF000002121706170BDE81040C0B2C2E73348E8
:100B000028300168002909D000210160C10691F850
:100B10003F0000BF91F83F208242FBD0704710B5E4
:100B20002D4C2178607851EA000207D051B1FF20A6
:100B3000FFF7A8FF2078401E207010BDBDE81040D0
:100B40000AF00CBFFFF79EFF0020607010BD10B5CB
:100B5000214C0023608830B11920FFF75DFF6088C9
:100B6000401E608000E00123184610BD00F01F0207
:100B70000121914040094FF0E02202EB8000C0F8D3
:100B80000011704700F01F020121914040094FF011
:100B9000E02202EB8000C0F88011704700F01F02D5
:100BA0000121914040094FF0E02202EB8000C0F8A3
:100BB000801270474907090E002803DA00F00F0081
:100BC000064A00E0064A8154704700001C050022D6
:100BD00033000020CD0210001402100014ED00E0DC
:100BE00000E400E0494801210160002101607047F4
:100BF00047480121016000210160704710B50020C5
:100C000000F06BF8FFF7F4FFFFF7ECFF414900201D
:100C100008604149A0200870002000F06AF8BDE893
:100C20001040002000F04DB83A4801211C38016006
:100C300000210160704710B5002000F04EF83349E4
:100C400001200860002000F054F8BDE810400020AA
:100C500000F037B82D4901201C39086070472F4833
:100C600000782E49491C0978401A00F03F0070476F
:100C70002B4902780A7042784A7082788A70C2786A
:100C8000CA7002790A7142794A7182798A71C0798F
:100C9000C871704723480068417882784FF000504F
:100CA000437A0374204B1B78437443891B0A837473
:100CB0004389C37401754275C1798175017AC17523
:100CC000704700F01F020121914040094FF0E022DF
:100CD00002EB8000C0F80011704700F01F020121F4
:100CE000914040094FF0E02202EB8000C0F88011F3
:100CF000704700F01F020121914040094FF0E022AF
:100D000002EB8000C0F88012704700005C84002273
:100D1000A00000227C04002200E400E02004002067
:100D2000000200203C021000C102100010B5092092
:100D300000F054F80A2000F051F8092000F05AF8A9
:100D40000A2000F057F80521092000F05FF805217E
:100D50000A2000F05BF833487F2141707C228270CA
:100D60000171002100F848192F490A684FF001016C
:100D700092F8C830DC070AD09C0708D590F84A40A2
:100D8000C3F3820301FA03F39C4380F84A4092F8CC
:100D90001131DC0721D0C3F34203012B03D0234BD5
:100DA0004FF480641C604830837802F2111214788A
:100DB000C4F3420401FA04F4A34383700379147862
:100DC000C4F3420401FA04F4234303710378127854
:100DD000C2F3420291400B43037010BD00F01F02AA
:100DE0000121914040094FF0E02202EB8000C0F861
:100DF0008011704700F01F020121914040094FF01F
:100E0000E02202EB8000C0F8801270474907090E0B
:100E1000002803DA00F00F00054A00E0054A81547B
:100E200070470000480000203C02100000E100E094
:100E300014ED00E000E400E0704710B504460246FF
:100E40002A21002000F06EF9221D2B21002000F045
:100E500069F904F108022C21002000F063F904F183
:100E60000C020F21032000F05DF92068000E03281A
:100E700025D304F114022D21002000F053F904F1D0
:100E800010022E21002000F04DF904F11C022F2148
:100E9000002000F047F904F118023021002000F092
:100EA00041F904F124023121002000F03BF904F162
:100EB00020023221BDE81040002000F033B910BDFF
:100EC00008B507216A46084600F02CF9009808BDCD
:100ED00010B5BE4C072060700020207044F2C000A6
:100EE000608000BF00BF00BF4CF2C000608000BF48
:100EF00000BF00BF4CF2E00060800920FFF7CAF994
:100F000044F2E000608000BF00BF00BF4FF48040AB
:100F1000608010BDF0B500252E464FF00054E0274C
:100F200017E000BF883401F03F01607021706780D6
:100F300000BF00BF00BFD4F808C043F825C06680DA
:100F4000883C00BF6D1C521E491C3F2901D9401C22
:100F5000C0B2002AE6DCF0BD2DE9F0479B4D00262B
:100F6000AD1C04462E80DFF868920121C9F880107C
:100F70004FF4C058A5F8008000BF00BF00BF00BFFD
:100F800000BF4FF480572F803520FFF783F92E8064
:100F9000FFF79EFF00F0DCF85C2000F0EAF8234643
:100FA000012208210020FFF7B5FF231D012209219E
:100FB0000020FFF7AFFF04F1080301220A210020FF
:100FC000FFF7A8FF04F10C0301220B210020FFF71B
:100FD000A1FF04F1100301220C210020FFF79AFF6A
:100FE00004F1140301220D210020FFF793FF00F00C
:100FF000AFF8FFF76DFF2F8000BF00BF00BF00BF3D
:1010000000BF00BF00BF00BF00BF00BFA5F8008049
:1010100000BF00BF00BF00BF00BF4FF4406028808A
:10102000C9F88060BDE8F087F0B54FF0000C059C72
:101030000CB14FF0800CC5B200264FF00057644C45
:1010400028E000BF87F889504FEAC05EBEF1000F6C
:1010500001F03F0E4EEA0C0E01DA4EF0400E87F81A
:1010600088E053F826E0C7F88CE04FF0010EC4F892
:10107000B0E04FF0000EC4F8B0E0491CC9B24029FE
:1010800002D36D1CEDB20021D4F8C0E0BEF1000F18
:10109000FAD1761C9642D5DBF0BD4FF0005282F8B3
:1010A0008900002309B1802002E0C00503D540205B
:1010B00082F8880001E082F8883045480121C0F8B4
:1010C000AC10C0F8AC3000BFD0F8C0100029FBD184
:1010D0007047F8B50C4605464FF4F47600213046CB
:1010E000FFF7DBFF0020014600902B4622463046EA
:1010F000FFF79AFFF8BDF8B50C4605464FF4F876B1
:1011000000213046FFF7C9FF00214FF4FC70FFF7C4
:10111000C4FF0020014600902B4622463046FFF7D0
:1011200083FFF8BD294B587041F0800003F888090F
:1011300027480021B4300160012140F8B41900BFF4
:10114000D0F8C0100029FBD1D3F890001060704790
:1011500010B51E4C4FF48040A41C20800420FFF7E3
:1011600099F80020208000BF00BF00BF00BF00BF73
:1011700010BD70B5154C2126A41C268000BF00BFF1
:1011800000BF00BF00BF40F02105258000BF00BFA9
:1011900000BF00BF00BF44F22101084320800420AB
:1011A000FFF778F8258000BF00BF00BF00BF00BF79
:1011B000268000BF00BF00BF00BF00BF002020800E
:1011C00000BF00BF00BF00BF00BF70BD880000208F
:1011D00000100022F8B5F84C002635466670E6602F
:1011E000266166610120A66100F0AAFF0C2000F0D4
:1011F000A7FF032000F0A4FF172000F0A1FF0120AB
:1012000000F0AAFF0C2000F0A7FF032000F0A4FFCD
:10121000172000F0A1FF00F0F6FF6A460221E74820
:1012200001F086FCE6499DF80000E64A08709DF84A
:1012300001101170442802D0542800D0042601F077
:10124000F5F901F0E9F90521012000F091FF0521F0
:101250000C2000F08DFF0621032000F089FF0621FD
:10126000172000F085FF012000F05EFF032000F052
:101270005BFF172000F058FFE570A5703046F8BD01
:1012800070B5CD4B1889C0F38001C0F34016C0F390
:1012900000247140C0F3C0226140C0F3803551404A
:1012A0006940400840EAC130188170BD38B50D462C
:1012B000009014460421684602F085F9C2498978F5
:1012C000C90602D5072D00D1401C0099616584F83C
:1012D000530038BD2DE9F04FBC4D0646BA4C286886
:1012E0008BB090F83304C00718D0608840F08000BD
:1012F0006080FFF7C5FF296800F00700084490F8F8
:10130000340484F84100FFF7BBFF2968C0F30210E2
:10131000084490F83404800084F840004FF0000B3B
:1013200084F84BB02868A44F062E90F845076075E6
:10133000387802D0062827D010E006280ED00120E9
:101340008DF80000684602F03CFB684601F03EF86C
:10135000684600F0F2FF684601F01AFB96484FF02D
:1013600002084FF0E90A06709948042EC0F30E07F0
:101370000DD0032E26D04FF00409022E46D0052EA4
:1013800060D0062E7ED0EEE08DF800B0DAE78E4A0F
:101390003146E06AFFF78AFF206BE065A4F84C70E5
:1013A000A07880060028286890F8580703DA20F013
:1013B000060040F0040084F8510084F8528084F85C
:1013C0004EA0D0E0804A3146E06AFFF76FFF206B05
:1013D000E0657D4804212C3002F0F5F87C4901EBF2
:1013E0008000C0F30E00A4F84C00A078800600280E
:1013F000286890F8580703DA20F0060040F004004F
:1014000084F8510084F85280ED2018E06E4A31468D
:10141000E06AFFF74BFF206BE065A4F84C70A07802
:1014200080060028286890F8580703DA20F00600A4
:1014300040F0040084F8510084F85290E52084F8CC
:101440004E0090E0A078800628D528682C3400F261
:10145000C9305D4A01782176C178A1764178A177BB
:1014600080782073E07F314640F00100E07720680B
:10147000FFF71CFF5748C0F30E002084286890F83F
:10148000580700E00BE020F0060040F0020084F86E
:10149000250084F8268084F822A02C3C63E04A4A88
:1014A0003146E06AFFF702FF206BE0654848F830FC
:1014B000C0F30E00A4F84C0062889006002828684B
:1014C00090F8510203DA20F0060040F0040084F89E
:1014D000510041480078012811D1296891F8500243
:1014E000C3070CD091F81011090608D53B490978BB
:1014F00029B9800703D5012184F8528002E0002138
:1015000084F852902868D20500F25220038824F80B
:10151000343F438863800379237143796371C388BF
:10152000E38003892381837AA372C37AE372037B06
:101530002374A0F25220A4F1340403D490F893272A
:1015400084F8462090F85F0284F84A0011B184F8CC
:101550004EA002E0E52084F84E0094F84B0040F0E5
:10156000040084F84B00286890F8FD16C907A1789C
:101570004FEA817134D0002934DB94F84B104907CD
:1015800035D490F8FC06C0070DD00021012003F0EF
:10159000F8F894F84F0020F00300801C84F84F0006
:1015A000A4F842B027E00121084603F0EAF894F8D5
:1015B0004F0040F003001CE018021000041000204F
:1015C000C0021000C1021000440C10003C021000C8
:1015D000009F0120F0A001205702100078021000A7
:1015E000002904DA90F8660720F0030001E090F883
:1015F000660784F84F00607D20F004006075FC48A9
:1016000086700BB0FB48BDE8F04F01F0EDB8FA482A
:10161000F74A0168927901F1D20030F81220F548BA
:10162000428311F8F93FC3754B7803768978817747
:10163000002101758175F14909785A2904D1EF49D2
:10164000491C09781144418370472DE9F047E94C62
:101650000546002084F84B00E74FE12084F84E0057
:101660003868DFF89C93E24E90F84517617590F862
:10167000FD165FEAC1782146B1F802C0CB7D0CF0BF
:10168000FF024CF0010104D05FEA8C7C01D4012DF3
:1016900008D0DFF87083082D0BD0092D3DD0072D21
:1016A00045D033E0337172710A22E2756180D54909
:1016B00012E0337172716180417D027D4B1C94F8A0
:1016C00060C003FB02F1BCF1010F03D902FB0CF275
:1016D00002FB03F108EB4101C1F30E01A4F84C1029
:1016E00090F8531799F8002001F0F00102F00F0272
:1016F0001143E17790F8550784F82100BD4A294647
:101700005FF00100FFF7D2FD2069E06560884107C6
:10171000617D2AD521F004012DE0FFF778FF3868BC
:10172000B279017D5143B84A02EB4101D4E7427DD1
:10173000338B017D521C5A43514308EB4101C1F3E5
:101740000E01A4F84C1090F8531799F8002001F0FE
:10175000F00102F00F021143E17790F8550784F889
:101760002100A44A2946E068CCE73A6892F8452768
:1017700002F0040211436175C10705D094F84E10C0
:1017800041F0020184F84E1039684FEA807091F8F8
:10179000FD26D20718D0002818DB072D04D00A2D0B
:1017A00002D0012D05D01AE014F84F0F20F00300ED
:1017B00008E00021012002F0E4FF14F84F0F20F0B0
:1017C0000300801C20700AE0002804DA91F8660704
:1017D00020F0030001E091F8660784F84F00B5702F
:1017E000BDE8F047834800F090BF072812D00A28D0
:1017F00010D001280ED008280CD009280AD00428BF
:1018000007D0032805D0052803D0022801D00628D8
:1018100001D15FE519E770472DE9F843744D814622
:10182000012901D10020E871EC79784E641C724FD7
:10183000DFF8C0810FE0386890F8FD06C00702D0DD
:1018400098F80200800756F82420694648469047D9
:10185000012805D0641C0B2CEDD90020BDE8F883CD
:10186000EC719DF80000F9E72DE9F041064600888B
:1018700000283BD0642231465E4802F0C3FAFEF7EE
:1018800094FF5B4C00255C4FC4E90650A571386895
:1018900090F8FD06C0070AD0B078800707D45549F4
:1018A000088810F0760F02D040F080000880A07801
:1018B00000281BD101214F48FFF7AEFF060015D0CD
:1018C000534901200870386890F8101149070FD566
:1018D00090F8430780070BD401F0F6F80220E0707F
:1018E00001F0F6F8192001F01AF9A670BDE8F081B0
:1018F00065703046BDE8F04177E700207047C26868
:10190000120006D00088C00503D508200870012009
:10191000704700207047C268120006D0008800059A
:1019200003D5092008700120704700207047C26865
:10193000120006D00078C00703D0072008700120ED
:10194000704700207047426A120006D000780007F6
:1019500003D50A2008700120704700207047C26834
:10196000120005D00078000602D5012008707047EB
:1019700000207047C26A120008D0026B32B10078B2
:10198000800603D5022008700120704700207047B0
:10199000C26A120006D00078C00603D50520087080
:1019A0000120704700207047C26A120006D00078FC
:1019B000800703D50420087001207047002070477D
:1019C000026B32B10078400703D503200870012074
:1019D000704700207047C26A12001BD0026BCAB168
:1019E0000088400516D506200870012070470000C9
:1019F00018021000440C10003C021000EEFF010021
:101A0000F6FF010000800120009E012084AC01004F
:101A1000CB0210000020E9E7002008700120E5E774
:101A20002DE9F0410421FC4801F0CDFD0446FA48BF
:101A30000421001D01F0C7FDF84F0546DFF8D883EB
:101A4000B878F74EA8F12C08042801D002280CD150
:101A500098F80200800602D5A200F14902E0620077
:101A600006EB4401EF4802F0CDF9B878032801D025
:101A7000022811D198F80200800603D5AA0006EBCF
:101A8000840104E005EB44006A0006EB4001BDE878
:101A9000F041E54802F0B6B928E710B588B001205A
:101AA0008DF80000E148DC4C0068A4F12C0490F8AB
:101AB000FD06C0070BD0A078800708D4D7488078EF
:101AC000012804D102208DF8000009F050FF00F039
:101AD0006DFBD7480190D248039000F5F870049050
:101AE000A1686846884708B010BDF0B5CF4B47F6EF
:101AF000FF7201291B6803D01B7DCE4C00211EE024
:101B0000CC4C5B7D3C3CF9E70D18EDB2CA4FEE18AA
:101B1000F6B237F815E007F1800C37F816703CF88C
:101B200015503CF81660AEEB0505BE1B35442DB2D2
:101B300024F81150954200DA2A46491CC9B299424C
:101B4000E2D3002007E000BF34F81010891A24F80F
:101B50001010401CC0B29842F6D3F0BD2DE9F84FEA
:101B6000B24D012000902868AD4C002690F8F81680
:101B7000C90730D0A8492C3991F8487007B9012716
:101B8000A549DFF898822C3991F8471091FBF7F1BD
:101B90000FFA81FA98F80210042902D0032903D021
:101BA0000BE0407D460023E0007D042146009A487A
:101BB00001F009FD9A4901EB800498F8020002281F
:101BC0000AD005280FD0042812D0032810D00228EC
:101BD0000ED005280CD03DE12868914C417D007D58
:101BE0000844460004E02868944C3A2690F8F9A688
:101BF000D8F80C2091465245EDDCB9F1000F05D123
:101C00008E484FF4F871783018F06BFFC64698F89C
:101C10000200DFF82482002108F18008A8F5AA6BF1
:101C20002BE000BF5BF8213034F911C00428634475
:101C30004BF8213001D003281ED1B9F1000F07D194
:101C40007D4B002223F8112047F6FF7228F811205F
:101C5000DFF8E4C134F911203CF911309A4200DC7C
:101C60001A462CF8112034F9112038F911309A4213
:101C700000DB1A4628F81120491CB142D2DB09F1D9
:101C80000101CEF80C1051457DDB0023DFF8B09147
:101C9000F046CEF80C30042806D003282ED00228B7
:101CA00056D0052870D0D5E001210020FFF71DFF98
:101CB00059482C3890F8490060B12868407D4100AF
:101CC0005E48783002F0FCFCC8F8100078215D48CE
:101CD00018F0E5FE00204B465946D8F810200AE0DF
:101CE00031F820507D43AD1A24F8105051F820509F
:101CF00043F82050401CB042F2DBABE00021084624
:101D0000FFF7F3FE44482C3890F8490060B128688A
:101D1000007D41004948783002F0D2FCC8F8140038
:101D20008021494818F0BBFE00204B465946D8F8A0
:101D300014200AE031F820507D43AD1A24F81050E9
:101D400051F8205043F82050401CB042F2DB81E0B3
:101D500031482C3890F84900E8B12868407D4100AE
:101D60003648783002F0ACFCC8F810002868017DD5
:101D7000427D49000BEBC20002F0A2FCC8F814003F
:101D80007821304801E061E034E018F088FE8021DD
:101D90002D4818F084FE002043464A4659460EE07E
:101DA00031F820C0B3F810800CFB07FCACEB080C3A
:101DB00024F810C051F820C042F820C0401CD5F8CB
:101DC00000C09CF815C0B0EB4C0FE9DB28685B69DC
:101DD000407D40000BE000BF31F820507D43ED1AFC
:101DE00024F8105051F8205042F82050401CB042C6
:101DF000F2DB2FE0104A00205946F03A09E000BF1C
:101E000031F8203024F8103051F8203042F82030DA
:101E1000401CB042F4DB1DE0700C100018021000F2
:101E2000009F01202CB00120A4B001203C02100032
:101E30000080012074A7012038A60120F0A0012015
:101E400058A3012024B101209CB10120FFF7CDFC53
:101E5000002000900098BDE8F88FCB4910B58A7833
:101E60000120092A10D18B795B1CDCB2C74B8C7125
:101E70001B6893F8D13003F00F035B1C9C4204D223
:101E80001046FFF7B2FC002010BD00228A7110BD81
:101E9000BD4910B58A780120072A0BD18B69BC4C4B
:101EA0005B1C8B6194F86040A34204DA1046FFF794
:101EB0009CFC002010BD00228A6110BD70B5B349A2
:101EC00009684B7D097D5B1C4B43B1490C460A7880
:101ED00094F86040D2071FD0012C1DD949884905CC
:101EE0001AD50020AB4A14E0012109E001FB0306EA
:101EF00032F8105032F81660491C354422F8105060
:101F00008C42F3DC32F9101091FBF4F122F810103E
:101F1000401C9842E8D370BD047670BDF0B587B020
:101F2000FFF77EFDFFF799FF00282AD0FFF7B0FFEB
:101F3000002826D0964DA878400603D4FFF70EFE61
:101F400000281ED0914E904C306890F8FD06C007D6
:101F50000BD0A878800708D4A078012805D1207973
:101F6000E8756079688009F002FDA078082801D141
:101F70006079688000218648FFF74EFC18B1FFF7B2
:101F800034FC07B0F0BD84480027A77007703068A4
:101F900090F8FD06C00706D0A878800703D400217A
:101FA000084602F0EEFB7D49A4200873306890F8E3
:101FB0001001400702D5E77000F074FD6078012839
:101FC00023D08DF8007001208DF818006846FFF7C7
:101FD00075FF2888724C400507D53068407D420067
:101FE00004EB4001204601F00DFF6A48019000F526
:101FF000F050029000F58070039000F5F870CDE984
:102000000404A96868468847BBE703208DF80000F0
:10201000D9E770B55D48604D4FF00004016891F854
:102020001001420758480AD591F84317890706D48A
:10203000C178012908D002290FD0032903D1C47027
:10204000FFF72BFD2C7070BD0221C17000F040FD28
:10205000BDE87040322000F062BD0321C17080787D
:10206000BDE87040FFF7C1BBF0B500224D1E12E085
:10207000531C1F460BE000BF30F8126030F81340CD
:10208000A64203D920F8136020F812405B1C9BB2D3
:102090008B42F1D3BAB2AA42EADBF0BD2DE9FF418F
:1020A00000252E462946012002F06BFB00246F46D6
:1020B00000F0A0FD27F81400641CA4B2082CF7D38C
:1020C00008216846FFF7D0FF5FF0020037F81010D4
:1020D00019B131446D1C8EB2ADB2401C80B20628DD
:1020E000F4D3B6FBF5F004B0D6E438B50C4605469B
:1020F00001226946104600F062FD9DF800000009CB
:1021000028709DF8000000F00300207038BD08B56D
:1021100001F0030141EA00118DF800100122694627
:10212000104600F085F908BD00F01F020121914022
:1021300040094FF0E02202EB8000C0F8001155E4A6
:1021400000F01F020121914040094FF0E02202EB14
:102150008000C0F8801149E400F01F020121914085
:1021600040094FF0E02202EB8000C0F880123DE40D
:102170004907090E002803DA00F00F00094A00E0C1
:10218000094A815432E40000180210003C02100099
:10219000440C100000800120CB0210000010002031
:1021A000F89F012014ED00E000E400E0FE4800226A
:1021B0000260FD481C380260FC4802610121016197
:1021C00082608160026001600260F949A0F574706C
:1021D0000B68002BFCD1F7490B7B43F020030B73FA
:1021E0000B7B23F040030B730B7B23F080030B73FB
:1021F0000B7B23F020030B73C0F8D823C0F8E02337
:10220000ED480270704730B5E8480024743004602F
:10221000E64880300460E548C4600121C160C460C4
:10222000046001600460E54D202028706870E14979
:10223000593D0873A4200873DD481830016800294F
:10224000FCD1FFF7B3FFDE48046085F8344030BDB1
:10225000F0B5DC4827250078442802D0542800D166
:10226000182500224FF4F831D14ED2485C2723E0E4
:102270000C46002303EB000E11F803C05B1C8EF824
:1022800060C00C2BF6DB3368002BFCD18276C7765E
:1022900004F10C0103EB000E11F803C05B1C8EF877
:1022A00060C00C2BF6DB31680029FCD1511C817613
:1022B000C77604F13001921CB2EB450FD8DBF0BDBC
:1022C0002DE9F0479246089E5B1EC6F108010022E8
:1022D000B84C01F0FF0C1546002189469A420BDAF2
:1022E00000EB0208875C98F8018027FA06F708FAE5
:1022F0000CF847EA080703E007D1875C27FA06F7DE
:1023000001EB040888F8607003E001EB040888F82A
:10231000609001F1010102F101020C29DEDBA44908
:102320000F68002FFCD10AEB0501A1765C21E17654
:102330006D1C022DD0DBBDE8F08778B50025A24EDC
:1023400000950446006A112332782946FFF7B8FF4A
:102350000095182372780021606AFFF7B1FF78BDFD
:1023600000B58BB000208DF80000684601F029FB15
:102370006846FFF7E2FF0BB000BD2DE9F0470024EF
:10238000DFF82C828B498246254626464FF05C09B1
:1023900000209C4206DA00EB010C1AF804708CF85D
:1023A000607002E0471887F86060641C401C0C28CD
:1023B000EFDB00BFD8F800000028FBD15019887669
:1023C00081F81B906D1C032DE2DBB4E730B57E4D28
:1023D000044640691623AA780021FFF7CEFFEA7869
:1023E000A069BDE8304020230021C6E700B58BB0CE
:1023F00000208DF80000684601F0E3FA6846FFF718
:10240000E5FFB8E7F0B500246A4D05E0165D6719F1
:10241000641C87F8606064B29C42F7DB644A14680D
:10242000002CFCD1A976184340F01000E876F0BDEE
:1024300070B500235F4C05E0CD5C1E195B1C86F86F
:1024400060505BB29342F7DB59490B68002BFCD11B
:10245000A07642F01000E07670BD30B55B4C0722EC
:102460000220216801F24271FFF7E2FF2168022297
:1024700001F24A710920FFF7DBFF2168062201F211
:102480004D710B20FFF7D4FF20685149514D90F852
:102490005307097800F0F00001F00F01084328709D
:1024A000012229461120FFF7C3FF2168032201F210
:1024B00057711620FFF7BCFF45480122401E0078E7
:1024C00000F00F01206890F85A0761F31F10287080
:1024D00029461920FFF7ACFF2168012201F25B7148
:1024E0001A20FFF7A5FF2168042201F25C711B206E
:1024F000FFF79EFF36480222C01C2946007828704C
:102500003348401C007868701F20FFF791FF216856
:10251000022201F5EC612120FFF78AFF2C480222FC
:10252000001D2946007828702948801C00786870B2
:102530002720FFF77DFF2168012201F263712A2025
:10254000FFF776FF2168072201F266713D20FFF751
:102550006FFF2068022290F86E17297090F86F07BD
:10256000687029464420FFF763FF2168022201F5C5
:10257000EE614620FFF75CFF2168082201F27271CC
:102580004820FFF755FF2168082201F27A71502098
:10259000FFF74EFF2168052201F284715820FFF7F2
:1025A00047FF226818E000001C0C0022D003002224
:1025B000040B0022001000201A0210005900002015
:1025C00040050022C0021000380210003C0210003A
:1025D000F6FF0100A80C1000FF4D92F88F0728703D
:1025E000012302F28A72FA210020FFF70BFF226812
:1025F000012302F28C720E21C020FFF703FF226834
:10260000012302F28D721421C020FFF7FBFE33205C
:1026100068740B20A87430BD10B5FFF71EFFFFF7DC
:10262000E5FEFFF79DFEBDE8104011E630B55C25E4
:1026300062225E236424E949442801D0542804D04E
:102640000D704A708B70CC7030BD30200870352012
:102650004870322088703720C87030BD38B50546C4
:10266000DF4C406D00906073010AA173010CE173AF
:10267000000E2074042269462B20FFF7D9FE0122A8
:1026800005F153012F20FFF7D3FE95F85300A074F6
:10269000E86D0090E074010A2175010C6175000E6F
:1026A000A075042269463520FFF7C2FE0098800F0E
:1026B00084F84000CB49012208703920FFF7B8FEAA
:1026C00038BD00EBC00101EB00106FF0030101EB1E
:1026D000800010B5C449C54A0978146890FBF1F030
:1026E000401EC1B20123580764B10024146080F871
:1026F000341090F83F1000BF90F83F408C42FBD060
:10270000136010BD80F83410FAE77CB50446002051
:102710008DF804002046FFF7A1FFAF48B4F84C1035
:10272000401C0180217D00F8011C94F84E1041737B
:10273000AB4EA07D86F83600AD4D286890F8420774
:102740008DF800006188890503D520F012008DF80E
:102750000000012269460220FFF76AFE042204F10C
:1027600015010520FFF764FE2968022201F24A7173
:102770000920FFF75DFE022204F11A010C20FFF789
:1027800057FE022204F11C010E20FFF751FE052224
:1027900004F11E011020FFF74BFE286890F8FC069C
:1027A000C0070AD0012201A94420FFF741FE0222FE
:1027B00004F142013F20FFF73BFE012204F14F01EB
:1027C0003D20FFF735FE012204F150014420FFF7C0
:1027D0002FFE884801680129FCD194F84E0030731F
:1027E0002320FFF76EFF7CBD7EB50446FFF736FF62
:1027F0007948B4F84C10401C018094F8451000F85A
:10280000011C94F84E104173794D286890F84207E6
:102810008DF800006188890503D520F012008DF83D
:102820000000012269460220FFF702FE012204F1A6
:1028300015010520FFF7FCFD94F84B00684EC0071A
:1028400008D0286800F2957190F8950786F8360050
:10285000012206E094F8460086F83600012204F1D1
:1028600046010620FFF7E4FD012204F144010720A0
:10287000FFF7DEFD012204F14A010820FFF7D8FD31
:10288000286890F8FD16C90734D061888A0731D4CA
:1028900094F84B2052072DD4B0F80027ADF804204F
:1028A000B0F86A07ADF80800090609D594F8411098
:1028B0000844ADF8080094F840001044ADF8040056
:1028C000022202A94120FFF7B3FD022201A909203B
:1028D000FFF7AEFD296891F8FC06C0071DD0012264
:1028E00001F26E714420FFF7A3FD022204F14201C0
:1028F0003F2010E090F8FC06C00707D000208DF8BC
:102900000400012201A94420FFF792FD2968022258
:1029100001F24A710920FFF78BFD012204F15101F8
:102920001720FFF785FD012204F152011820FFF75F
:102930007FFD022204F134011B20FFF779FD022202
:1029400004F136011D20FFF773FD012204F1380167
:102950002120FFF76DFD012204F139012220FFF74C
:1029600067FD012204F13F012A20FFF761FD0122EA
:1029700004F14F013D20FFF75BFD1E48016801296E
:10298000FCD194F84E0030732320FFF79AFE7EBDF1
:1029900030B50446C069134D0122007800F00F01E4
:1029A0001348006890F85A0761F31F1028702946F1
:1029B0001920FFF73DFDE0680222294600782870C3
:1029C0006068007868701F20FFF732FD206900788A
:1029D0002870A06800780FE0530000203802100033
:1029E00000100020A80C1000CD02100040050022AD
:1029F0003C021000000B002268702946BDE8304000
:102A00000222272014E58D498D4B0A6892F84D2744
:102A100002700A68B2F85027428009681B7801F2F8
:102A2000537103F00F030A7802F0F0021A430271A7
:102A3000B1F80B20C28002818A7B82720A7CC2724A
:102A400089780173704710B50446014601220B20B6
:102A5000FFF7EEFC0222A11C0E20FFF7E9FC012289
:102A6000211D1120FFF7E4FC0222A11D1D20FFF70C
:102A7000DFFC022204F108012520FFF7D9FC012226
:102A800004F10A012220FFF7D3FC012204F10B011B
:102A90002A20FFF7CDFC04F10C010122BDE8104013
:102AA0001320C5E4674908B5042008736348012270
:102AB0006946006890F8430720F008008DF8000090
:102AC0000320FFF7B5FC08BD5E492020087370475E
:102AD00018B55D4C01226946207840F0F0008DF871
:102AE00000001046FFF7A4FC5649C0200873207868
:102AF0008DF80000012269461046FFF799FC18BDC9
:102B000052480168002909D0002101604FF00051AE
:102B100091F83F0091F83F208242FBD070474B492B
:102B2000002240390A604A4A10700120086070474C
:102B300070B5484C2368002BFCD11D4603E0C61835
:102B40005B1C86F880508B42F9D32368002BFCD1A4
:102B500002E0C45CD4545B1C8B42FAD370BD10B548
:102B600001F0B2FCFFF7CCFF3B48007878B1394860
:102B7000183801680029FCD13248C078400602D5D7
:102B8000364901200870BDE81040FFF7C7B9344945
:102B90000020087010BD10B501F096FC2B490020F4
:102BA00040390860BDE81040FFF733BA10B501F0B6
:102BB0008BFCFFF7A5FFBDE81040FFF72ABA214BB9
:102BC00010B59876DA76234818380468002CFCD1C2
:102BD000012083F8E0001F480468002CFCD100208D
:102BE00005E0C41894F860400C54401C40B2904278
:102BF000F7DB10BD08B543F6FF70ADF80000022208
:102C000069463F20FFF714FC0220ADF800000122C6
:102C100069463D20FFF70CFC0A49E02008734FF499
:102C20001670FDF737FB022269468720FFF7C7FFC2
:102C3000FFF738FFBDF8000008BD00003C0210009F
:102C4000F6FF010000100020740210004005002271
:102C50002D0000201C0B00221A0210001902100087
:102C6000CB0210007048006890F8F007C00605D548
:102C7000ED214EF6ED52084608F0C2FFFEE705468C
:102C80000E46012008F07EFF694C6848C4E9000642
:102C90002868A0606868E060A8682061E8686061F2
:102CA0002869A0616869E061A8692062614EE869ED
:102CB000606230685F4FA062103F386807F1040817
:102CC000E062D8F8000008F104092063D9F8000098
:102CD00006F1040A6063DAF80000DFF858B1A06377
:102CE000ABF1340BDBF80000E063381F00682064B0
:102CF000FDF75BFD6064504800210068A0640F2070
:102D00002A6808F057FF01210F206A6808F052FF77
:102D100002210F20AA6808F04DFF03210F20EA6866
:102D200008F048FF0C210F202A6908F043FF0E210C
:102D30000F206A6908F03EFF0F210846AA6908F0D3
:102D400039FF20210F20EA6908F034FF3268212181
:102D50000F2008F02FFF3A6822210F2008F02AFFE9
:102D6000D8F8002023210F2008F024FFD9F80020F4
:102D700024210F2008F01EFFDAF8002025210F2063
:102D800008F018FFDBF8002026210F2008F012FFC2
:102D9000381F026827210F2008F00CFFFDF705FD02
:102DA000024630210F2008F005FFFFF75BFF0128E6
:102DB00007D002280FD0032805D0042805D004210D
:102DC0000AE0012108E0032106E00021032008F0C9
:102DD000D9FEFFF747FF0221032008F0D3BE10B54C
:102DE00004460146042008F0CDFE012C01D1FFF776
:102DF00039FF10BD0146082008F0C4BE0146062078
:102E000008F0C0BE10B504460146072008F0BAFE1F
:102E1000012C03D0022C01D0032C01D1FFF722FF9B
:102E200010BD0320EEE700003C021000AF0550FA91
:102E30005800012038ED00E07C02100001F044BB96
:102E4000704770473A4810B5016821F004010160ED
:102E500001F03AFBBDE8104016F032BB354810B522
:102E6000006890F81001C00617D533480078012893
:102E70000DD0032811D1FDF7DCFD15F02FFEFDF775
:102E800066FE002809D0BDE8104008F0DFBFFDF75E
:102E9000D0FDBDE8104015F021BE10BD01F014BBFF
:102EA00010B501F011FBBDE8104009F0EDB810B508
:102EB00001F00AFBBDE810404FF0005001F0F7BCF4
:102EC0007047704710B501F0FFFA1C4800780128E0
:102ED00003D0BDE8104008F05CBDBDE8104002F032
:102EE0001ABA704710B501F0EFFABDE810404FF084
:102EF000805001F0DCBC70477047704770477047E6
:102F0000704710B501F0E0FABDE81040FDF707BECC
:102F100010B501F0D9FA09480078012801D102F072
:102F2000D6F907490020086010BD704770470000BF
:102F300010ED00E03C021000EE021000CA0210008A
:102F40004805002210B55821C94817F0A8FDC84807
:102F5000C849C94A01808280C8494180C84BC380A2
:102F6000C84C0481C84C4481C84C8481C84CC4817D
:102F7000C84C0482C84C4482C84C8482C84CC48269
:102F8000C84C0483C84C4483C84C8483C84CC48355
:102F9000C84C0484C84C4484C84C8484C84CC48441
:102FA000C84C0485C38741878287C749A0F8401071
:102FB000C6490968B1F86220A0F84220B1F8C621DC
:102FC000A0F84420B1F8A120A0F84620B1F8F021E3
:102FD000A0F84820B1F85421A0F84A20B1F85221B5
:102FE000A0F84C200022A0F84E20B94A1288A0F880
:102FF00050204A7DA0F852200A7DA0F85420B54AFE
:10300000A0F8562091F84E27AF484280B1F85C17DF
:10301000C180018110BD10B5FDF752FF00EB1040DB
:1030200081B2AD4801220378AC48442B04D1382941
:1030300002D00021017010BD027010BDA8481322FB
:10304000A9490378A748552B02D0027019200CE03B
:103050009E4B1B6893F81131DB0702D0A04A521C2B
:10306000127802709E48801C0078087070472DE925
:10307000F047FF2228219D4817F009FD9B48FDF7E6
:10308000DCFEDFF868920E240126D9F8041007252B
:1030900045F2AA58414503D0D9F8081041453BD123
:1030A000D9F80000D9F80820070E424506D1032FB1
:1030B00001D1C0F30136C0F3032502E00120FFF780
:1030C0009DFED9F80410414504D199F8000000F0A4
:1030D0001F0402E00220FFF791FE032F22D1D9F84E
:1030E00014304146824A48468B4201D1036900E0D0
:1030F000804B1360C369804A8B4201D1836900E031
:103100007E4B1360436A7E4A434502D1D9F82000C2
:1031100000E07C48106005E00120FFF76FFE022010
:10312000FFF76CFE6948016891F8F007400702D587
:1031300091F8F20704E006F003002A0740EA126063
:1031400091F8DA26D20711D0B9F80C2093B2434592
:103150000CD0634A921F1278C52A07D120F0F002E2
:103160005F48401F0078000742EA106091F841175D
:1031700020F00C00C1F3C00240EAC200C1F380019C
:1031800040EA810160480170604880F860100121C8
:1031900081761121C1765E48017864F304010170E3
:1031A000BDE8F08770B5FDF780FBFDF727FD474DC3
:1031B00028680078A52802D00120FFF710FE4FF004
:1031C00008500124C0F898432868524A90F8271103
:1031D00001F00101116090F82701111DC0F34000BA
:1031E0000860FDF729FEFDF777FBFDF7F3FF0428E4
:1031F00001D1FFF7DCFDFDF74DFDFDF797FD4348DD
:10320000802180F86010042181761121C176FFF7BA
:103210002EFFFFF713FF3F486C380460FFF7FBFEFB
:103220003C480C38046070BD41F2247010B5C106F2
:103230004881FFF7B7FFFFF785FE37495F20086039
:1032400036490020086037483549016001F50860BB
:1032500035490860354800F08EFEFDF715F800F09E
:1032600067F8FDF70FF8FDF793F8012010BD000097
:103270000000012000800120E0D7012060D0012063
:10328000A8000120009F0120B02A0120EC2A012083
:10329000282D0120642D012098320120D4320120F4
:1032A00068130120A41301202C2B0120682B01207E
:1032B000A8340120E4340120C417012000180120A3
:1032C0004817012084170120502610003C021000EE
:1032D000E8021000B01A0120C0021000C202100063
:1032E000F2FF0100CE021000CD021000F8271000FE
:1032F000D802100040A5AE02DC0210000087930344
:10330000E002100000366E01740210000010002070
:103310002000002088040022242C0120BC02100080
:1033200038141000880210008C021000382510009C
:103330007FB5FDF705F81F4D002400BF05EB4410D5
:1033400000F11002017F4CCACDE90261CDE90023F2
:103350000FC8FDF7C7F910B10220FFF753FD641C39
:10336000082CEBDB144D002404EB440005EB80013A
:10337000091D55F8200006C9FDF734F910B10220E7
:10338000FFF740FD641C082CEEDB0B4D002460357C
:1033900005EBC400416855F83400FDF74FF810B153
:1033A0000220FFF72FFD641C072CF1DB7FBD406876
:1033B000FFF737BDB4AC0100B4AD0100F0B5002497
:1033C0005F1E26E02546661C08E000BF30F915C0E8
:1033D00030F916E0F44500DB3546761C9E42F5DBFD
:1033E00030F8146030F815C020F814C020F81560CB
:1033F00031F8146031F815C021F814C021F81560B7
:1034000032F8146032F815C022F814C022F81560A2
:10341000641CBC42D6DBF0BD01EB8010801001EBD8
:1034200041014900182291FBF2F300EB400000F546
:10343000F83002FB1311006820F07F40C84000F014
:103440003F0070472DE9F04F8CB0074600200790F1
:1034500008900590069002900390F8480125F64EDA
:10346000804628E002241EE0087D04FB005036F967
:103470001000B84216DD032302AA07A905A8FFF72A
:103480009DFFD8F80000BDF91410007D04FB00502A
:1034900036F91000814205DAADF81C50ADF8140081
:1034A000ADF80840641CD8F8001040464A7D521E12
:1034B000A242D9DC6D1C0168097D491EA942D1DCFC
:1034C00000240DF11C0BB246C146002502A83BF9B1
:1034D00014C030F91430D9F80000017D504603FBC8
:1034E00001C63AF91660BE4235DDD54E76571E4408
:1034F00006FB01C2731C03FB01C130F812203AF82D
:1035000011006146101A0FFA80F8701EFFF784FF51
:10351000049061463046FFF77FFF01460498401A49
:10352000002807D0D9F800000DDAB0F89C13414507
:1035300011DB0CE0D9F80000B0F99823424506DA17
:10354000B0F89C1301E0B0F99813414503DC00206A
:103550000CB0BDE8F08F6D1CEDB2022DB6D3641C2B
:10356000E4B2032CB1D30120F2E7F0B50546002008
:103570004FEA254C4FEA2146BCEB060400D56442D5
:103580009C421FDA4FEA2247BCEB070400D5644295
:103590009C4217DAF41B00D564429C4212DA2DB229
:1035A0000CB2291B00D5494299420BDA12B2A91A72
:1035B00000D54942994205DAA11A00D549429942FB
:1035C00000DA0120F0BD70B50346002002469D4C94
:1035D00009E09D5C521C05F00F0604EB1515A65D75
:1035E0002D78304428448A42F3DB70BD884200D3F2
:1035F00008467047884200D808467047884200D382
:103600000846904200D3104670472DE9F047D0F8A5
:1036100010C00568046A85FB0C12A1FB0412426904
:103620004368914683FB02628269E246A6FB026719
:103630007618D0E9021781FB07C8C069ACFB00C847
:103640001CEB060682FB0A2CA2FB011280FB09027E
:10365000A0FB0502401884FB0712A1FB0312081807
:10366000301A4FEAE071BDE8F087F0B50025059FFC
:1036700014E000240EE000BF05FB03F600EB860C0F
:1036800001EB86065CF824C09CFBF7FC46F824C0DE
:10369000641C64B29C42EFDB6D1C6DB29542E8DBAA
:1036A000F0BDF0B50025059F14E000240EE000BF3A
:1036B00005FB03F600EB860C01EB86065CF824C0E4
:1036C0000CFB07FC46F824C0641C64B29C42EFDB90
:1036D0006D1C6DB29542E8DBF0BDF0B50025059F8D
:1036E00017E0002411E000BF05FB07F600EB860C95
:1036F00001EB860E5CF824C05EF824E002EB86063F
:10370000F44446F824C0641C64B2BC42ECDB6D1C7B
:103710006DB29D42E5DBF0BDF0B50025059F17E0D9
:10372000002411E005FB07F600EB860C01EB860E8A
:103730005CF824C05EF824E002EB8606ACEB0E0CCD
:1037400046F824C0641C64B2BC42EBDB6D1C6DB255
:103750009D42E5DBF0BD2DE9F04F814609A88A4680
:10376000B0E822400020DDF834B08A4221D0F0E6F3
:1037700000241BE0002116E000FB02FC01FB05F821
:1037800000FB0BF609EB8C0C0EEB860603EB8808AE
:103790005CF821C056F8247058F82480491C0CFBB2
:1037A000087746F824709142E6DB641CAC42E1DB0A
:1037B000401C5045DCDBCCE62DE9F04389B00446E3
:1037C0000068009060680190206902906068039032
:1037D00020690490A069059020690690A06907906F
:1037E000E06908900D466846FFF70FFF8046A06825
:1037F0000190E06804906069079089466846FFF789
:1038000004FF064660680190A06802902069049059
:10381000E0680590A0690790606908900F466846C7
:10382000FFF7F3FEC5E90401C5E90267C5E90089B0
:1038300009B0BDE8F0830000B80C10003C02100095
:10384000FB0210004CAE01002DE9FF4F4FF0000AC3
:1038500089B09B465746D146D046564655465446B3
:103860002021684617F03DF90B9810E00999824431
:1038700031F9102000FB00F102FB0166884441434E
:1038800002FB009901FB004417440D44401C5845BD
:10389000ECDD0B99ABEB0100401CCDE9000ACDE952
:1038A0000654CDE90486CDE9027968460A99FFF706
:1038B00083FF0DB04DE6FE480068017B427B41EA84
:1038C0000221827BC07B41EA024141EA0060400064
:1038D0007047F74800680179427941EA022182790C
:1038E000C07941EA024141EA0060704700B5FFF744
:1038F000E2FF4008400000BDF8B50E460446FFF761
:10390000F5FF0090FFF7D7FF054604216846FFF753
:103910005AFE04EB40070024DDF800102046234641
:103920004FF0010C0CFA03F20A4207D02A4204D0ED
:1039300037F8102026F81420641C401C5B1C1E2B3A
:10394000F0DBF8BDC5E7FCB50E460746FFF7CEFF36
:103950000190FFF7BEFF0090FFF7BBFF0546042173
:1039600001A8FFF730FE044604216846FFF72BFE4E
:1039700000EB440007EB4007002000990446034693
:103980004FF0010C0CFA03F20A4207D02A4204D08D
:1039900037F8142026F81020401C641C5B1C202BD8
:1039A000F0DBFCBD00B5FFF786FF40F0010000BD75
:1039B0008FE7C04A520102EB810101F10851086012
:1039C00070470178012916D0BB494160491C8160CC
:1039D000BA494161B9492C318161B749891CC1603B
:1039E000491C0161491FC161B4496C310162B3498D
:1039F0008D3141627047B04910394160491C816086
:103A0000AE49BD314161AD49E9318161AA490E3903
:103A1000C160491C0161491FC161A9490162A849EE
:103A20002131E6E7F0B507460598884201DD1846E2
:103A3000F0BDB84201DA1046F0BD9E1AC01B4643E5
:103A4000CD1B00D101259A4C96FBF5F0246810445B
:103A500000B294F8F1470E2CEED1A446994CA4F88C
:103A600000C04FEA264CA4F802C0A6802E14E680BF
:103A700025816781A181E28123826082F0BD30B51A
:103A8000002304465242184615B208E034F91320C8
:103A9000AA4203DA002A00DA524210445B1C8B422D
:103AA000F4DB30BD864A533222F810107047F0B56F
:103AB0007F49074600200E68022396F815E015E0BE
:103AC000347D0122A11E0EE003FB0425ADB205F1F9
:103AD000010C1FFA8CFC7D5D17F80CC0654501D107
:103AE000401C80B2521C9142EEDC5B1C9E45E7DC20
:103AF000F0BD2DE9F14F4FF00008FFF753FF4FEAFB
:103B0000500CFFF7E6FE074600264FF0010A00BF03
:103B10000AFA06F1394221D000980025DFF890B169
:103B20002C4600EB060900BF0AFA04F010EA0C0F5D
:103B300011D031462046FFF76FFCDBF80010621C05
:103B4000097D5143A84201F8090003D108F10101A0
:103B50001FFA81F80546641C272CE5DB761C202E15
:103B6000D6DB4046BDE8F88F53481538B0F9000061
:103B700070474F4B10B502464F481B681538B0F9D7
:103B80000000B3F8343100EB4304944208DA5B00E0
:103B9000A3EB6003D21A92B292FBF0F008440BE060
:103BA000C0EB4304944209DD5B0003EB60039A1A07
:103BB00092B292FBF0F0081AC0B210BD084610BDD8
:103BC0002DE9F04381460026FF27481C39D0501CC0
:103BD00037D0881E012800DC0120C4B2901E0228C4
:103BE00000DC022000F0FF0C314801F102080068FF
:103BF000057DAB1E434501DD891C00E0A91E01F0D7
:103C0000FF08417D931C481E984201DD911C00E095
:103C1000491EC9B213E063460DE000BF03FB054037
:103C200080B219F80000B04200D90646874200D998
:103C300007465B1CDBB28B42F0D9641CE4B24445FE
:103C4000E9D9F01BC0B2F4E52DE9F04F8BB04FF08D
:103C5000FF30049005904FF000081B48FFF749FF24
:103C60001948FFF724FF8146772147F2777208460B
:103C700007F0A0FFDFF848B00027DFF84CC00BF1D9
:103C8000530BDFF848A00A4C4CE0012644E0007DCD
:103C90000F4A06FB00718DB2281A1CF8051032F984
:103CA000152080B200923BF9100048B382B211E0B7
:103CB0003C021000242C0120F7FF010040F8010015
:103CC00069F90100E0D70120B4A70120E80B012029
:103CD000B80C10000098FFF74CFF1CF80510411AB3
:103CE00049B2414504DD884679B2049171B205912B
:103CF000FE494855216891F8F1071B2805D009E0D5
:103D0000FF214FF6FF727C2075E0097D00986A1A4A
:103D10002AF81200761CF6B22068417DB142B6D274
:103D20007F1CFFB22068007DB842AED8DDE90412E6
:103D3000812007F03FFF216891F8F10719280ED183
:103D400000205A46534605E032F8105023F8105030
:103D5000401C80B20D7D4E7D75438542F4D891F8AC
:103D6000F1071A280FD10020E04B554605E01A183C
:103D7000B25C25F81020401C80B20A7D4F7D1646AB
:103D80007A438242F3D8D948FFF791FE05460246AE
:103D90004946782007F00EFF206890F8581301EB91
:103DA0000900A84204D2FF214FF6FF72782022E0DA
:103DB0004D4525D34FF6FF773A46FF21792007F08E
:103DC000F9FEDDE90412C948FFF7FAFEDDE9041245
:103DD0000646C748FFF7F4FE0546024631467920FD
:103DE00007F0E8FE2168A81B91F85913884207DD07
:103DF0003A46FF21802007F0DDFE01200BB0B6E43B
:103E00000020FBE704E000BF11F8013B00F8013B94
:103E1000521EF9D2704701EB8010801010B501EBF3
:103E200041014900182391FBF3F403FB141300EB49
:103E3000400000F5F8303F2401689C40A1439A40BF
:103E40000A430270110A4170110C817010BD2DE9F6
:103E5000F05F8B4682460025FFF7A4FD8146FFF701
:103E600038FD06469921272745F25552084607F0A6
:103E7000A1FEAC464FF0010808FA0CF111EA090F57
:103E800013D0002408FA04F030420AD0BBF1010F2D
:103E900013D01AF8052021466046FFF7BCFF6D1CC1
:103EA000ADB2641CA4B2202CECD30CF1010C1FFAAF
:103EB0008CFCBC45E0DBBDE8F09F21466046FFF787
:103EC000ABFA0AF80500EAE78A490880704730B57E
:103ED000894A0021894B05E032F8114020F8114051
:103EE000491C89B21C68257D647D65438D42F3D8E9
:103EF00030BD30B5804A0021804B05E030F81140DC
:103F000022F81140491C89B21C68257D647D6543F7
:103F10008D42F3D830BD784931F9100070478210D6
:103F200002EB42020A4400EB40004000182190FBE3
:103F3000F1F301FB1301106820F07F40C84000F04E
:103F40003F007047831003EB430310B51A4400EBA6
:103F500040004000182390FBF3F403FB14033F24BC
:103F600010689C40A043994001431170080A5070AA
:103F7000080C907010BD2DE9F14F82B04FF0000B8E
:103F80007821029816F0ADFDFFF70CFD4FEA5008BE
:103F9000FFF79FFCDC46814666464FF0010A00BFF2
:103FA0000AFA06F111EA090F25D000240AFA0CF0EA
:103FB00001272546CDF800000AFA05F010EA080F9F
:103FC00014D031462846FFF727FAA04208D00299BC
:103FD000009A51F827101143029A42F8271003E083
:103FE0000BF101011FFA81FB04467F1C6D1C272D7C
:103FF000E2DB0CF1010C761C202ED1DB5846BDE82B
:10400000FE8F2DE9F04F83463C4800242246D0F82D
:1040100000A001219AF81450A5F1010621E0032027
:104020000123DFF8DCE003FA01F99AF8157015E0D6
:104030005EF820C01CEA090F0FD0A0F1010300FBBD
:10404000051C03FB05183BF91CC03BF91830BCEB01
:10405000030300D55B421C44521C401C8742E7DC32
:10406000491C8E42DBDC02B9012294FBF2F0BDE870
:10407000F08F2DE9FF4F85B000210391029101914E
:1040800000911E49012B0C6894F8775005F00F073A
:1040900000D10027667D94F87A30C7F1100BB34247
:1040A00000D21E460023049301238EE04FF0000946
:1040B000C84603242DE0124951F824C0012199403B
:1040C0001CEA010F04FB053130F911C0A4F1010114
:1040D00001FB053130F91110ACEB010114D00029BE
:1040E00000DA4942DDF818C00CE0000074AB012092
:1040F000B4A70120E2FF0100BCF901003C0210005E
:1041000038251000A1EB0C01002900DA494289444E
:10411000641CB442CFDB31469EF815A01FE0FE4C74
:1041200054F821C001249C401CEA040F01FB053413
:1041300030F914C0A1F1010404FB053430F9144036
:10414000ACEB040406D0002C00DA6442DDF818C0A1
:10415000A4EB0C04002C00DA6442A044491C8A45FC
:10416000DDDC0499012910D10199B1EB090101D5D8
:10417000C1F10001039C214403910099B1EB0801B6
:1041800000D54942029C21440291CDE900899EF864
:104190007B10994216D11168039D79430BFB0511E1
:1041A000CC1701EB1471091111609168029D7943DC
:1041B0000BFB0511CC1701EB147109119160002163
:1041C0000391029101215B1C0491D449D1F800E0D4
:1041D0009EF81450691E99423FF768AF50680399E2
:1041E00078430BFB0100C11700EB11700011506008
:1041F000D068029B78430BFB0300C11700EB1170E2
:104200000011D06009B032E730B504460020022228
:10421000A1F101010BE000BF04EB420534F91230BB
:1042200035F9025C5B1B00D55B421844521C8A4284
:10423000F2DB30BD70B5B94A002001461268B84CB7
:10424000537D0BE034F91150B2F85064B54203DBF2
:10425000B2F85264B54200DD0120491C8B42F1DC0A
:1042600070BDF0B5AD4C00200346246801460246FF
:10427000AB4E677D06E000BF36F91350954200DD76
:104280002A465B1C9F42F7DC0023A64E277D05E0F3
:1042900036F913508D4200DD29465B1C9F42F7DC46
:1042A000B4F84E348B4201DB934200DA0120F0BDBA
:1042B0002DE9F04F9949002318460C6894F84914E9
:1042C000267DC1F3C001B4F865B4B4F867A4A6EBC9
:1042D000010926E0657D0322DFF83CE2DFF8488231
:1042E000A5F1010519E000BF5EF822C0012707FA19
:1042F00001F71CEA070F0ED102FB061738F917C0A9
:10430000A2F1010707FB061738F91770BCEB070786
:1043100000D57F423B44521CD2B29542E4DC491C9A
:10432000C9B28945D6DC81499B450B6002D2534511
:1043300000D201209BE67CB50D460446FFF7D6FA75
:104340000090FFF7C6FA0190009804214008009001
:104350006846FFF738F90646042101A8FFF733F94C
:104360003044820021462846FFF74CFD7CBD0B46B9
:104370006A4909684A7D097D521C4A430146520038
:1043800018463FE570B50446642116F0AAFB0023E9
:10439000624D23806380286890F8940700F0010044
:1043A00043EA40106080A360FFF7FCFAE060FFF78B
:1043B00090FA5F4E20615F497088608309785A29BE
:1043C00004D15C49491C097808446083286800F2DC
:1043D0004670C27A817A02F03F0241EA0221A1834B
:1043E0004178E17590F8491021750178A1758178BF
:1043F0002176017BA1774F49407B083100F0F00026
:10440000097801F00F010843E077FFF76FFAE062E7
:10441000FFF75FFA20632C34F0882081E081286860
:1044200000F5E96090F84810217690F84A1061761E
:1044300090F84B10A17610F84E1CE17601212177FF
:10444000637790F84920A277C28A62812282027E35
:104450002273427E6273827EA274C27EE274827F85
:1044600084F823206375237510F8562C2C3CA0F596
:10447000E960D2070AD090F8F30600F00F0084F844
:104480006000608840F48060608070BD84F86010D7
:1044900070BD10B50446FBF7F7FE012C0BD11F4889
:1044A000006890F81001800705D5FCF706FA38B1CE
:1044B000FCF7FFF904E0FCF700FA08B9FCF7F5F99E
:1044C000BDE81040FBF7DEBE0020E2E7134B10B55D
:1044D0001A68947E640704D5D28A0468A2EB0402A9
:1044E00002601A68947EA40703D5128B0C68121B15
:1044F0000A600268002A00DA002202601C68E48A6E
:10450000A24200DD224602600A68002A00DA002288
:104510000A601C68248B0FE0382510003C02100054
:104520002C2B0120682B012060D001209402100068
:1045300050261000EEFF0100A24200DD22460A6074
:104540001B689B7EDB0702D003680B60026010BD16
:10455000F0B500252C46059E0AE000BF31F9147025
:1045600030F914C0A7EB0C07974200DD6D1C641CEA
:104570009C42F3D3B54201D30120F0BD0020F0BD31
:104580002DE9F0439946DDE90787002423460DE035
:1045900031F9135030F9136005EB020C664503DA6C
:1045A000A5EB0905AE4200DC641C5B1CBB42EFDBE3
:1045B000444502D90120BDE8F0830020FBE72DE946
:1045C000F04F8A46DDE90997012547F6F8714E421A
:1045D0009346AC46002416E030F814803AF81420D4
:1045E000A2EB080212B2914200DD1146964200DAB7
:1045F0001646002A02DA4FF0000502E001DD4FF016
:10460000000C04F10104BC42E6DB55EA0C0206D0C2
:10461000012D01D02DB108E0BCF1010F05D1002121
:1046200012E0BCF1010F00D13146002905DD03EB9A
:104630000902B1EB420FF2DC06E005DA03EB0902F6
:104640005242B1EB420FEADB00252C462A4610E02D
:1046500030F812603AF812C00E44ACEB060636B2DF
:104660009E4205DAC9F1000C664501DD3544641C43
:10467000521CBA42ECDB95FBF4F20A44002105E03F
:1046800030F8113013442BF81130491CB942F7DBD4
:10469000EDE4F0B50646002004460546521C059F91
:1046A0000AE000BF36F911C09C4504DDA44502DDD7
:1046B00064460D460120491C9142F3DB3D60F0BD8C
:1046C00030B50268002513460AE000BF50F82540C7
:1046D000944201DD224602E09C4200DA23466D1C32
:1046E0008D42F3DBD01800EBD070401030BD70B5B8
:1046F0009E4B1B685C7D1B7D641C5C43002307E0B4
:1047000032F8135030F81360AD1B21F813505B1CC6
:10471000A342F5DB70BD9649012008604FF470712B
:10472000944816F0BCB92DE9F041064615460F46EF
:10473000302801D1FFF7EFFF8D4C20682844401C42
:10474000B0F5707F01D2206801E001202060894926
:1047500008700E542DB10844401C2A463946FFF714
:1047600051FB20682844401C2060BDE8F08182484D
:104770000021012201704270817070477E480078EC
:10478000704730B5794A126892F8FD26D3070BD0EE
:10479000D5067A4A4FF000034FF0010407D5151FE4
:1047A0002860012901D1136030BD146030BD734D04
:1047B000083D28600129F8D0F5E72DE9F84F6B4C4A
:1047C00000264FF00057206890F8FD06450997F83D
:1047D000510000D101250720FBF72FFFFBF7E5FF74
:1047E000DFF89481C8F8080020684FF0010490F8C1
:1047F000FD06C00603D5062087F8510001E087F8C2
:10480000514000210120FFF7BCFF4FF41670FBF769
:1048100041FD4FF0E02A4FF480594FF0000BCAF8E9
:1048200080924FF040514446D8F80800FBF755FEFF
:10483000DFF84C81012088F80000E8B2FCF710F99D
:10484000CAF800916B4600224FF04051A068FBF778
:1048500054FE4FF04051A068FBF73FFE0098C000A7
:1048600000D501262078B04202D1607801280CD111
:1048700097F85100AEB140EA0522DD20A16807F0AB
:1048800099F900BF84F801B0267000210846FFF7AF
:1048900078FF88F800B00720FBF7EAFE2078BDE833
:1048A000F88F40EA0521092007F06CF9EAE710B516
:1048B000044634484FF480510160FCF7DEF82E487E
:1048C00021468068BDE81040FBF7D8BD70B5274889
:1048D000006890F8D010CA072B491DD090F8D1205D
:1048E00002F00F02531C0A2B01D90A2200E0521CCD
:1048F00000F1D20400234D8805E000BF34F81360B6
:10490000B5420CD05B1C9342F8DBB0F84E274A80CE
:10491000B0F8E8200A8002E0B0F84E274A8090F80C
:104920008023D2071DD090F8812302F00F02531C80
:104930000A2B01D90A2200E0521C00F28235002322
:10494000CC8804E035F81360B44209D05B1C934274
:10495000F8DBB0F85C27CA800A81B0F8AC03888025
:1049600070BDB0F85C07C880088170BD3C021000C3
:104970004002100028080120F8021000280A002236
:10498000CB02100080E100E05026100010B5014677
:104990001C22FA48FFF736FABDE810404FF40061D8
:1049A0000120FBF76BBD2DE9F0419AB080460D4622
:1049B00014466846FFF7E6FCE0074FF0010701D018
:1049C000ADF80070600608D5ED4900200870BDF80C
:1049D000000040F48060ADF80000600733D5E94E78
:1049E000306890F8FD06C0070DD0FFF7E6FE0621FF
:1049F000012805D0BDF8020040F00200ADF8020029
:104A0000ADF8001005E0BDF8000040F00600ADF87C
:104A10000000A00711D1BDF8000040F00100ADF882
:104A20000000306800F2211041788DF817100178ED
:104A30008DF81E1080788DF82200D34800888005FC
:104A400001D58DF84970D149ADF81A80ADF83A50CA
:104A5000ADF83450097840465A2905D1CB49491C54
:104A600009780844ADF81A00AFF2DF00C34D032403
:104A70004FF4006602906846FCF7F6FE19AB002280
:104A800031460120FBF739FD31460120FBF725FDBA
:104A90002878002804D0FEF78AF9641E002CEADC8E
:104AA0001AB0BDE8F0812DE9F041B64A0024214654
:104AB0001268254610F4D17F04D092F82210042504
:104AC0004FEA111110F0050F05D092F8213045F092
:104AD00001054FEA1314C00604D592F8210045F0F1
:104AE000020504098C4200DA0C46641C002DD8D063
:104AF0000026A74F05E0F98878882A46FFF753FF7C
:104B0000761CA642F7DBCCE72DE9F35FDFF8748271
:104B10008B46D8F80000457D017D90F821006D1C82
:104B200000F00F074D437F1C4FF48851994815F052
:104B3000D8FF0026974CDFF85892DFF840A218E023
:104B4000B9F8061001220098FFF72DFF9249DAF814
:104B5000040005F082FE9049002007E054F8202070
:104B600031F910301A4444F82020401CA842F5DBEB
:104B7000761CBE42E4DBD8F8000090F8210000F07B
:104B80000F01491C002006E054F8202092FBF1F2AE
:104B90002BF81020401CA842F6DBBDE8FC9F2DE955
:104BA000F74F784D84B09146286830F83B1F039149
:104BB00040880290FEF79AFE0090FEF7C3FE019037
:104BC00004216846FEF7FFFC8046042101A8FEF799
:104BD000FAFC404446002868B10090F8220000F03A
:104BE0000F04641C6B4815F07CFF296891F8F102F2
:104BF000C20706D0800704D491F8F202044405F0FD
:104C000015FB0027DFF88CB1AA462EE0604804228D
:104C100005994088FFF7C7FEDAF80010574891F869
:104C20009417C568C90704D001692A46284605F0CB
:104C3000A9FBDAF8000090F8F102C10707D080075D
:104C400005D45649284605F00DFB68B1534D0020A8
:104C5000594607E051F8202035F910301A4441F840
:104C60002020401CB042F5DB7F1CA742CEDBDAF8E7
:104C70000010484C504691F8221001F00F0303F148
:104C800001034FF000011CE05BF82120056892FB56
:104C9000F3F295F8F1725FEAC77C08D0BF0706D53A
:104CA00095F8F2727F1C5743B5F8F322BA1AB1EBAC
:104CB000480F01DA039D00E0029D2A4424F81120E8
:104CC000491CB142E0DB049810F0220F09D02046C5
:104CD000D9F80010FEF710FE2046D9F80410FEF7B0
:104CE00032FE07B0BDE8F08F2DE9F0479A46254B1C
:104CF0008946002101252A4E1C681AE032F811303D
:104D000030F81170DB1B1FB200230AE0C3EB031C59
:104D100006EB8C0C5B1C3CF811801BB2B8442CF8E1
:104D2000118094F880C305EB9C1C9C45EEDC491C6B
:104D300009B2637D8B42E1DC00201A4A19E000BF12
:104D40003AF8103039F81010591A0BB2002108E067
:104D500002EB8116491C36F8107009B21F4426F880
:104D6000107094F8806305EB96168E42F0DC401CC0
:104D700000B2217D8142E3DCBDE8F087FC451000F4
:104D8000570210003C02100050021000EEFF01001C
:104D90005026100038141000B80C100034AF012059
:104DA000DC140120081601202DE9FE4F0025824663
:104DB000FE4C2F46DFF8F883DFF8F893012611E068
:104DC00000EB4500C5EB0512B0F8B11308EB82000B
:104DD000009009EB8510CDE901076A465046FFF7C0
:104DE000DEFE6D1C206890F8801306EB9111A9423D
:104DF000E6DC90F85011C90710D090F8911109061F
:104E00000CD5407DEA494200EB48FEF7FBFF2068E5
:104E1000E849007D4200E948FEF7F4FFBDE8FE8F57
:104E2000FEB5E24AE64900241268012300F49075B9
:104E300092F88063C98803EB961306E002EB440600
:104E4000B6F8B163B14202D0641CA342F6DCA342BF
:104E500019DDC5B192F85001C00703D192F82002C4
:104E6000C0070FD0D249C4EB041001EB80013C22F3
:104E7000D448FEF7C7FFCF48402200EB8411D24848
:104E8000FEF7C0FFFEBD00220292CE4A0092CE4A3B
:104E900001926A46FFF783FEFEBD2DE9FC47FEF74F
:104EA00025FD0090FEF74EFD019004216846FEF7B7
:104EB0008AFB0446042101A8FEF785FBBB4E204473
:104EC00044003068A10090F8220000F00F077F1C1A
:104ED000BE4815F006FE0025DFF8F4A2DFF8EC92DC
:104EE000B04622E0B6484022C1884088FFF75BFD0B
:104EF000D8F80010DAF8146091F89417C90705D0B3
:104F000032463046DAF8101005F03CFA00204946E7
:104F100008E000BF51F8202036F910301A4441F85B
:104F20002020401CA042F5DB6D1CBD42DADBD8F826
:104F30000000A64E454690F822004B4600F00F00B8
:104F4000401C002107E000BF53F8212092FBF0F243
:104F500026F81120491CA142F6DB9E493046FEF797
:104F6000CBFC9D493046FEF7EEFC286890F82010F7
:104F7000090711D5994C00212160417D9548FFF723
:104F800043F92168084420602868017D9248FFF7B2
:104F90003BF9216808442060BDE8FC8770B50446F1
:104FA0000020FBF74AFB0320FBF747FB7F4D2868F7
:104FB00090F82010490701D424F4006490F85011AF
:104FC000C90705D190F82012C90701D124F0620465
:104FD00090F88013490701D424F4B07490F8D010ED
:104FE000490701D424F0040490F8E81109B924F029
:104FF000100490F8041309B924F4C07490F8500216
:10500000C00701D124F4806460060BD570483C22AF
:105010006C497C38FEF7F6FE6D4840226A494038FC
:10502000FEF7F0FE6E490020401C8842FCD32005AC
:1050300002D52046FFF737FD14F4907F02D02046BA
:10504000FFF7B2FEE0071CD05D4866494088FFF7D5
:105050005BFD286890F8200000070AD56148FEF73C
:10506000D0FF61490123614A086001465D48FFF7AE
:1050700000F8286890F84904C00702D0204602F0E2
:10508000F2FA600501D5FFF708FF14F0820F02D095
:105090002046FFF7C5FE600607D54D494A4B40390B
:1050A000484AA1F13C00FFF71FFE286890F8100164
:1050B000C00606D54E48007818B980214D4815F035
:1050C000EEFC4D49012008704C49087006F03DFC8B
:1050D0000020FBF7CDFABDE870400320FBF7C8BA0B
:1050E0002DE9F04131490025314A0968314EB1F8C6
:1050F000B133834219D291F880339C0901EB440704
:10510000B7F8B173874209D9012404EB931312E075
:1051100001EB4407B7F8B173B84201D1254602E06C
:1051200008D2A4F10105A5421CD191F85001C00795
:1051300008D103E0641CA342EADCF6E791F8200200
:10514000C00778D0C5EB051002EB80013C221D485A
:10515000FEF758FE06EB8511BDE8F04140221A48E3
:10516000FEF750BE01EB4405B5F8AF33B5F8B153C7
:10517000C01A0002EB1A90FBF3F391F85001C0073C
:1051800003D191F82002C00755D00E4DC4EB041195
:10519000002002EB810100BF01EB400231F91070E9
:1051A00032F93C2CBF1A5F432AE000003C02100099
:1051B000DC14012008160120CC150120081701205D
:1051C0005026100068130120A41301203814100089
:1051D000FC45100048170120841701209C04100092
:1051E00020A10700A800012090021000B0251000A7
:1051F00076021000282C012056021000B402100084
:1052000002EB272225F81020401C1E28C4DB6A4D23
:10521000002006EB841100BF01EB400231F9104081
:1052200032F9402CA41A5C4302EB242225F810200A
:10523000401C2028F0DB34E42DE9F0415F480124D4
:105240005F4E047000253560192000F0A8F8192081
:1052500000F08DF85B4F052038724FF41670FBF7A5
:1052600019F8574844380560FF21397034600460EC
:1052700017E470B55148544C01250570207F40F06B
:10528000040020775148006890F81101C00705D04C
:105290000A2000F084F80A2000F069F8002184F860
:1052A00060105C22A2761120E07684F860505823CA
:1052B000A376E076424B443B1960424EFF213170A9
:1052C000042184F86010A276E0761D6070BD70B590
:1052D0003B480024443804603A4D08352E791920A3
:1052E00000F051F8C6F1FB002978C0B2491CB0FBB0
:1052F000F1F037490870314804703448006890F87C
:105300001101C00702D0BDE87040B2E73049552016
:10531000891E087070BD10B52B4C207F40F0040032
:1053200020772A48006890F81101C00702D00A20AF
:1053300000F029F823490A7B214B0020443B1860E8
:1053400084F860005C23A3761123E3760978891A38
:1053500089B24FF4FA42B2FBF1F11D4A0909521E1B
:1053600011705521521E11701449087010BD00F0C3
:105370001F020121914040094FF0E02202EB800022
:10538000C0F80011704700F01F0201219140400950
:105390004FF0E02202EB8000C0F88011704700F06F
:1053A0001F020121914040094FF0E02202EB8000F2
:1053B000C0F8801270470000A4130120CA02100038
:1053C000480500222E000020001000203C021000A2
:1053D000F4FF01002DE9F047DFF8EC93F9484FF0B6
:1053E0000008D9F800104768487D0E7D401C3446FF
:1053F00006FB00F545E000BF37F91400002802DC89
:1054000048F0200115E040F6FF71884202DB48F0C9
:1054100010010EE0D9F80020B2F83411B2F8BE2124
:105420008B18834206DA891A814203DD12B148F0F3
:1054300040018846D9F8002092F8461701F00F0184
:1054400000FB010001B2107D201A80B2FEF72AFB9A
:10545000D9F8001091F8F107192811D1B0B2DB4B3F
:105460000CE000BF91F846C737F910200CF00F0C84
:1054700002FB0C2223F81020401C80B28542F1DC94
:10548000641CA542B8DC4046BDE8F08710B5014673
:105490001C22CC48FEF7B6FC8021BDE8104001205C
:1054A000FAF7ECBF30B59BB004466846FEF76AFFDA
:1054B000012C07D10120ADF8000000208DF8160066
:1054C0008DF81400BDF80200AFF23F0140F4A67061
:1054D000BC4D0291ADF8020003246846FCF7C4F904
:1054E00019AB002280210120FBF707F88021012061
:1054F000FAF7F3FF2878002804D0FDF758FC641E63
:10550000002CEADC1BB030BD2DE9F04F85B0002047
:1055100003900090FEF746FA0446FEF749FA074664
:105520004FEA540B4FF4F061A94815F0B8FAA548BA
:105530004FF0270980211C3015F0D3FA002002908B
:105540000120FFF7AFFF9F48D0F804A09E480068F5
:10555000047D0120002504906EE0012000FA05F191
:1055600011EA0B0F67D00026012000FA06F818EAAE
:10557000070F55D093481C3050F8250010EA080F4B
:105580004DD131462846FDF747FF01908E483AF944
:1055900014100068B0F83401814234DC8C4A32F9CE
:1055A00014301A1AA1EB000000D55242002800DA8C
:1055B000404282420FDC01983146401EC0B2024692
:1055C00001902846FEF727FC814830F91410009816
:1055D0000844009005E0009A7D481A44009220F8A3
:1055E00014103AF91410039808447A49039001986A
:1055F00021F8140073481C3050F8251041EA0801C6
:1056000040F825100BE001983146401CC2B22846F4
:10561000FEF701FC6E483AF8141020F81410641CD0
:10562000761C202EA0DB67481C3050F82500B842BD
:1056300001D0002004906D1C4D458EDB049838B9D4
:10564000FCF706FE0298401C02904028FFF678AF57
:105650005D484FF0010A00250068067D1DE001202D
:1056600000FA05F111EA0B0F16D000240120A0402A
:1056700038420ED05748214610F8160080460246A0
:105680002846FEF7C8FBB8F13F0F01D34FF0000AE0
:10569000761C641C202CE9DB6D1C4D45DFDBBAF168
:1056A000000F02D10320FDF7A5FBFCF7D1FD01207F
:1056B000FFF7F8FEFFF78EFE434C06462168087D93
:1056C000497D48430099B1FBF0F70399B1FBF0F233
:1056D000D01B00D5404205B20021182006F06AFA1E
:1056E0003A460021192006F065FA2A4600212020BA
:1056F00006F060FA206890F8460700F00F0000FB03
:10570000055000B2FEF7E0FB206890F8F117192968
:105710000FD1047D2F4F6443641C398090F84607F5
:1057200000F00F0005FB00507880FEF71DFAB880EE
:10573000FC8005B03046BDE8F08F2DE9F05F224ACD
:10574000116891F83001C4072348037803F0F0058D
:1057500014D0057000264B7D0C7DDFF868A05B1C23
:10576000B046914604FB03F783460120FFF79AFEFB
:105770002046DAF80420D9F800100EE091F83E1126
:1057800001F00F0129430170BDE8F09F32F910309C
:10579000B1F832C16345F7DB401C8742F6DC0F2EBF
:1057A0000AD2761CF6B245EA060108F101088BF828
:1057B0000010B8F1100FD8DBBDE8F05F0220FDF754
:1057C00019BB0000184610003C021000E80B012035
:1057D00060D00120E0D70120F6FF010010B50124C0
:1057E0004FF404614FF4F83015F07BF9FCF730FD0D
:1057F000FFF7A3FFFFF788FE164A44EA0064144847
:105800001268017892F8FB2701F0F00102F00F0214
:10581000114301701048FEF7AEFB204606F0B2FAC5
:10582000012000F009FDBDE81040002000F004BD9B
:1058300010B54FF480542146084815F030F922463F
:10584000BDE810404FF4F8310448FEF7DBBA000021
:10585000FBFF01003C02100038251000B01A0120A7
:105860002DE9F04F0020FF4D04460246012140F68D
:10587000FF7BFD4BD5F814906E681B6801FA02F7A8
:1058800037421CD039F914A0BAF1000F02DC40F005
:10589000200013E0DA4502DB40F010000EE0B3F820
:1058A00036C1B3F84171E6460CEB0708D04503DB7F
:1058B000AEEB070CD44501DD40F04000641C521CE7
:1058C000202ADBD30024AF69AE68224601FA02F534
:1058D00035421AD037F91450002D02DC40F0200078
:1058E00012E05D4502DB40F010000DE0B3F83A81B4
:1058F000B3F8439108EB090CAC4503DBA8EB090CAA
:10590000AC4501DD40F04000641C521C202ADDD370
:10591000BDE8F08F10B501461C22D448FEF772FA9C
:105920008021BDE810400120FAF7A8BD30B59BB03A
:1059300004466846FEF726FD207801284AD0CA486A
:10594000016891F8FC06800705D5B1F85C07ADF851
:105950003400ADF83A0091F8FD064FF00604C00798
:1059600009D0FEF72AFF012805D0BDF8020040F05B
:105970000200ADF80200ADF8004000208DF84600AE
:105980008DF84500B748416849000B9180680C903C
:10599000BDF80200AFF2830140F4A670B34D02914E
:1059A000ADF8020003246846FBF75EFF19AB002246
:1059B00080210120FAF7A1FD80210120FAF78DFD59
:1059C0002878002804D0FDF7F2F9641E002CEADCE8
:1059D0001BB030BD4FF48060ADF80000CDE72DE97D
:1059E000FC5F0446006A212115F059F83021606AF5
:1059F00015F055F82046FCF7CBFF2046FCF79DFC40
:105A00000420DFF86082DFF860A203254FF0000970
:105A10004FF0010B00902046FFF788FFE8072AD0DF
:105A20000020074606460190D8F804100BFA06F04D
:105A3000084219D03046216AFEF771FAD8F81410DE
:105A400031F91720DAF80010B1F845118A420ADA64
:105A50003F2808D2012101910099226A0844C1B26D
:105A60003046FEF76FFA7F1C761C202EDCD301989F
:105A700008B925F00105A8072BD5002007460646E2
:105A8000CDF80400D8F808100BFA06F0084219D037
:105A90003046616AFEF743FAD8F8181031F917203A
:105AA000DAF80010B1F847118A420ADA3F2808D222
:105AB000012101910099626A0844C1B23046FEF7A3
:105AC00041FA7F1C761C202EDCD3019808B925F002
:105AD000020555B12046FCF75BFF2046FCF72DFC84
:105AE00009F10109B9F1640F95DB03254FF00009B5
:105AF0002046FFF71BFFE80729D00020074606468F
:105B0000CDF80000D8F804100BFA06F0084217D0C0
:105B10003046216AFEF703FAD8F8141031F917203D
:105B2000DAF80010B1F845118A4208DD38B10121D8
:105B30000091401EC1B23046226AFEF703FA7F1C74
:105B4000761C202EDED3009808B925F00105A807A1
:105B500029D5002007460646CDF80000D8F80810E1
:105B60000BFA06F0084217D03046616AFEF7D7F903
:105B7000D8F8181031F91720DAF80010B1F84711E9
:105B80008A4208DD38B101210091401EC1B2304681
:105B9000626AFEF7D7F97F1C761C202EDED30098B0
:105BA00008B925F00205002D0AD02046FCF7F0FECA
:105BB0002046FCF7C2FB09F10109B9F1640F97DB3C
:105BC000BDE8FC9F2DE9F04106460020F169087010
:105BD0002121306A14F063FF3021706A14F05FFFF6
:105BE0003046FCF7AAFB3046FCF7D2FE1D4D0027DD
:105BF0003046FFF79BFED5E904320024204605E03D
:105C000032F91010A14200DD0C46401C9842F7DB2F
:105C10000020EB68AA6905E032F91010A14200DD0E
:105C20000C46401C9842F7DB002C0BDCF069017835
:105C30000F2904D8491C01703046FCF7A9FE7F1CCF
:105C4000202FD5DB40F6FE70844208DDF16908782C
:105C5000401E08703046BDE8F041FCF799BEBDE833
:105C6000F0810000040310003C021000B446100054
:105C70002DE9F05F04464068FF4A00250778A068D8
:105C8000D4F81480D2F804C090F800902E4629462B
:105C9000012000BF00FA01F313EA0C0F04D018F83A
:105CA0000130AB4200D91D46491C2029F2D3A3691B
:105CB000D2F808C00021904600FA01F212EA0C0F57
:105CC00003D05A5CB24200D91646491C2029F3D3AE
:105CD000E068EA49057020690670086890F8FD06DA
:105CE000C20708D08B46800705D5FEF747FD01287F
:105CF00001D1207860B1E81906EB0901FF22884242
:105D00007DD2081A2844FF286ED8E168087073E035
:105D1000DBF8000000F5EB604279017902F03F0208
:105D200001EB0228C2798179007802F03F0201EB91
:105D3000022A400609D508EB0A0105EB410006EBF3
:105D40004102384402EB090109E007EB450208EB88
:105D50000A0102EB410009EB460202EB4101FDF7AB
:105D600049FCDBF800100246B1F8FE36934201D23E
:105D7000A1F8FE2691F8FD26520731D591F8582753
:105D8000520614D54FEA48025342CAF1000203EB0F
:105D9000420291F8FE16E3681144C91B1970DBF842
:105DA000000090F8FE061118A1EB090016E0B1F80A
:105DB000FE3608EB0A01CA19524203EB4202E368BD
:105DC000C2F347021A70DBF80000B0F8FE2601EBC0
:105DD0000900404202EB4000C0F34700216908700F
:105DE000BDE8F09F0BE0FFE7E0680270D8F8001014
:105DF00041F08001C8F8001020690670F0E7814288
:105E000011D2401A3044FF2802D82169087007E0F7
:105E100020690270D8F8001041F08001C8F8001025
:105E2000E0680570DCE7E0680570E5E72DE9F04122
:105E30000446002145699048904B01224FEA010C2D
:105E4000476802FA01F63E420AD01F686E5C97F876
:105E50004A71BE4202D9F61B6E5401E005F801C03A
:105E6000491C2029ECD3D4F818500021876802FA85
:105E700001F63E420AD01F686E5C97F84A71BE4236
:105E800002D9F61B6E5401E005F801C0491C202917
:105E9000ECD32046FFF7ECFE2046BDE8F041FCF7CE
:105EA00095BA2DE9F14F82B02C210298D0E9056511
:105EB000304614F0F4FD4021284614F0F0FD02981D
:105EC000FFF7D6FE0298FCF763FD0298FCF77EFA16
:105ED00004200324DFF8A0A1DFF8A0B100274FF0D1
:105EE000010900900298FFF721FDE00727D04FF04D
:105EF000000C62466046534609FA00F1D3F804806C
:105F000011EA080F13D0596931F91280DBF800103B
:105F1000B1F83811884509DA16F8008000994FF079
:105F2000010C4144FF2900DDFF213154521C401C6B
:105F30002028E1D3BCF1000F01D124F00104A00717
:105F400027D54FF0000C62466046534609FA00F12F
:105F5000D3F8088011EA080F13D0996931F912803B
:105F6000DBF80010B1F83C11884509DA15F800801B
:105F700000994FF0010C4144FF2900DDFF21295415
:105F8000521C401C2028E1D3BCF1000F01D124F0A9
:105F900002045CB10298FFF76BFE0298FCF7F8FC74
:105FA0000298FCF713FA7F1C642F9BDB0324002765
:105FB0000298FFF7BBFCE00725D04FF0000E7146BA
:105FC000704652464FEA0B0CD2F8048009FA00F3EF
:105FD00013EA080F0FD05369DCF8008033F9113051
:105FE000B8F83881434505DD335C1BB15B1E4FF0CB
:105FF000010E3354491C401C2028E5D3BEF1000F8C
:1060000001D124F00104A00725D54FF0000E714600
:10601000704652464FEA0B0CD2F8088009FA00F39A
:1060200013EA080F0FD09369DCF8008033F91130C0
:10603000B8F83C81434505DD2B5C1BB15B1E4FF07E
:10604000010E2B54491C401C2028E5D3BEF1000F43
:1060500001D124F00204002C0BD00298FFF708FEB7
:106060000298FCF795FC0298FCF7B0F97F1C642FAE
:106070009EDBBDE8FE8F0000040310003C02100010
:10608000F0B4C64B00210C461E6896F830219207EA
:106090000BD5426896F8496101211578B54203D9BC
:1060A000A5EB0605157000E014701D6895F8302109
:1060B00052070BD5826895F8495141F002011378D7
:1060C000AB4202D95B1B137000E01470002901D0B1
:1060D000F0BCCDE5F0BC70472DE9F047AF4E04466B
:1060E000002531682F4691F830018207606802D59B
:1060F0000125077003E0227891F83F1101703068A4
:1061000090F83011490704D5A06845F002050770E2
:1061100004E02178A16890F840010870002D6FD04C
:106120002C21606914F0BBFC4021A06914F0B7FC7D
:10613000E06921210770206A14F0B1FC3021606A07
:1061400014F0ADFCE168FF2008702169087020465A
:10615000FCF73CF92046FCF7F0F82046FCF718FC69
:106160004FF01009DFF83882CA4600272046FFF7B3
:10617000DDFBE80726D0D8E904230020014605E02E
:1061800033F911C0844500DD6046491C9142F7DBBC
:106190003168B1F83621824206DA60684FF00109B1
:1061A0000178491E01700DE0B1F84B11814207DB07
:1061B000616808784844FF2800DDFF20087001E08E
:1061C00025F00105A8072AD500200146D8F818C0F7
:1061D000D8F80C3006E000BF3CF91120824200DD07
:1061E0001046491C9942F7DB3168B1F83A218242E6
:1061F00007DAA0684FF0010A0178491E01700EE02D
:1062000018E0B1F84B11814207DBA16808785044CF
:10621000FF2800DDFF20087001E025F00205002DB9
:1062200008D02046FFF724FD2046FCF7B1FB7F1C79
:10623000202F9BDBBDE8F0872DE9F041DFF864817A
:106240008AB0012188F8001005468DF800006846E4
:10625000FDF7B7FB524C00262660FDF747FB606058
:10626000FDF770FBA0606068042140086060201D9D
:10627000FDF7A9F92061042104F10800FDF7A3F955
:10628000E0606846FFF752FB4748012D4ED0C068DA
:106290006061A061D4E9040101EB40016161E16842
:1062A00001EB4000A16901EB4000A0616846FFF7E7
:1062B00013FF6846FFF7E4FE384F386890F8300166
:1062C000800605D56846FFF7ECFD6846FFF7AEFD92
:1062D000386890F83001000702D56846FFF772FC75
:1062E000386890F83001C00602D56846FFF777FBA2
:1062F0006846FCF74DFB6846FFF718FBFFF7B0FA5E
:10630000014620680843206028493A68012D0B782F
:1063100092F8FB2763F303020A7009D040F00200F1
:1063200005F030FD88F800600AB098E44069AFE7F6
:1063300040F00E00F4E72DE9F041184C206890F889
:10634000FC06800729D5FEF738FA012825D12068F8
:10635000A04600F25C7004888178C07800F03F00AD
:1063600001EB00251148801E0778801E0678FBF798
:1063700095FED8F80010B1F8723791F80F26B1F8F1
:10638000FE162344414391FBF2F02B4433443B443B
:106390000749C01A2044C880088160E43C0210000C
:1063A0000403100078021000B4461000FBFF010047
:1063B0005026100010B501461C22A748FDF722FD0B
:1063C0008021BDE810400120FAF758B8F0B5A34E7F
:1063D00005460C4630689BB090F8B10000F00F0104
:1063E000491C4FF0FF308840C7436846FDF7CAFF9D
:1063F0000120ADF80000ADF80240306810F8F91F38
:106400008DF8171044F00501ADF802100397ADF8B0
:106410001A50AFF25F01029141788DF81810807820
:106420008DF81E008E4800785A2805D18C48401CF3
:1064300000782844ADF81A00874D03246846FBF71E
:1064400013FA19AB002280210120FAF756F88021B7
:106450000120FAF742F82878002804D0FCF7A7FCBE
:10646000641E002CEADC1BB0F0BD2DE9FC5FDFF8F8
:10647000ECB14FF0000AD146DBF80000564600F5BB
:106480007070017890F80180807801904FF008508A
:10649000D0F88C0100B9012600208CB2009037E0C2
:1064A000DBF8000090F8CD0300EB800047000025EA
:1064B00024E020460099FFF789FF674840680DF007
:1064C00042FB0146DBF8000090F8F82012F00F00C4
:1064D00000D1012012094A43B2FBF0F01FFA80F903
:1064E000012E09D1BAF5707F06D25E4A0AF1010089
:1064F00022F81A901FFA80FA6D1CADB2BD42D8D9AD
:106500004A462146302005F080FC0198204484B2A0
:106510004445C5DDBDE8FC9F2DE9FF5F4FF6FF76E2
:106520004FF0000A93460F46804634465546DFF842
:106530002C911BE038F815005146FFF747FF4648FD
:1065400040680DF000FBD9F8001091F8F82012F027
:106550000F0100D1012112094243B2FBF1F080B2D8
:10656000A04202D238F8156004466D1CBD42E1DB42
:10657000ABF8006003980480BDE8FF9F2DE9F0416F
:10658000364E05468846306888B090F8D12002F033
:106590000F01C2F30214491C641C0A2900DD0A2100
:1065A000022C00DD0224D23006AB05AAFFF7B4FFAF
:1065B000326892F8D00080071BD5BDF81460012125
:1065C000E632ADF8006000204FF4803C6F4607E0F3
:1065D00013563344634502D227F81130491C401C3E
:1065E000A042F5DB002904DD06AB05AA3846FFF71B
:1065F00093FFBDF814002880BDF81810A8F800100B
:1066000008B0BDE8F0817CB50020FAF716F8164C0A
:1066100001A968466588FFF7B1FF10480068B0F827
:10662000E810BDF80400814201D9218000E02080FB
:10663000BDF8000060800020FAF71AF80B4901202D
:1066400008700B4908700B490870BDF800202946F6
:10665000092005F0BDFB7CBDD04610003C021000B7
:10666000EEFF0100E0D70120502610005602100076
:10667000B4021000C40210002DE9F047064600786D
:10668000FE4D00B128701C223146FD48FDF7BAFBD3
:10669000FC4C206890F89417CA07F94901D00A69A0
:1066A00000E0CA68F64B417D68681C334143002016
:1066B0001AE000BF97F8F1C25FEACC780DD05FEA2C
:1066C0008C7C0AD597F8F27232F810C07F1C0CFB54
:1066D00007FC0F1823F817C005E001EB000C32F897
:1066E000107023F81C70401C276897F815C084456B
:1066F000E0DC686800F1010068607F7D07FB00FC5A
:106700004FF000001EE000BF91F8F182C1465FEA41
:10671000C8780FD05FEA89780CD507EB000891F8AC
:10672000F21232F81880491C08FB01F80CEB00014A
:1067300023F8118039180CEB000832F8111023F8F7
:106740001810401C216891F815808045DCDC6B68CE
:106750004FF0010803F101036B6091F8B10008EB01
:10676000101291F8F102C70705D0870703D491F8FA
:10677000F2723A44D2B2934227DA91F8FD06C0078A
:1067800019D0FDF7FBFF012815D12168A88891F8E1
:10679000B91380B201F00F01B0FBF1F201FB12015D
:1067A000B74864380029418802D041F0020101E075
:1067B00021F002014180307808B1FCF7F8FABDE819
:1067C000F047AF486438FBF74FB8C2072FD08007B7
:1067D0002DD4B1F8F3A2002522E0417DA8486943F9
:1067E0001C3000EB41018946002014E093F8F2329E
:1067F000012231F910605B1C06E000BF02FB070CB0
:10680000521C31F91CC066449342F7DCA6EB0A0225
:1068100029F81020401C23685F7D8742E6DC6D1C50
:10682000206890F8B11008EB1111A942D5DCBDE841
:10683000F04780210120F9F721BE2DE9FF4FDFF855
:1068400040B24FF6FF74002681B08A46A046ABF1F5
:10685000640BB1466DE08A486438FDF793FD894DBD
:10686000286890F8FD06C00708D0FDF7A6FF28B9F4
:10687000BBF8021041F00201ABF80210296891F850
:106880009407C00701D0102200E00222ABF80020DC
:10689000019830F81620ABF83420BBF8022042F003
:1068A0000402ABF80220AFF22F2201F2C931CBF87B
:1068B00008200A788BF84420CA788BF846204A785A
:1068C0008BF84A206D4D89788BF838100327C5F86E
:1068D000049000BF6A4885F800906438FAF7C4FF56
:1068E0006B46002280210120F9F707FE802101205C
:1068F000F9F7F3FD287820B1FCF759FA7F1E002F35
:10690000E8DC5F481C3002F066FE5E49096891F8D9
:10691000C82312F00F0100D101211209424390B2A5
:10692000B0FBF1F0A04203D20199044631F8168081
:10693000761C56458FDB0398A0F8008004980480ED
:1069400005B0BDE8F08F2DE9F0414E4D0646884672
:1069500028688CB000F2823C00F2963790F88103F0
:1069600000F00F01C0F30214491C641C0A2900DD69
:106970000A21022C00DD02240AAB09AA6046FFF7B7
:106980005CFF286890F8800380071AD5BDF8243092
:106990000121ADF8003000204FF4803C6D4607E047
:1069A0003A561A44624502D225F81120491C401C6F
:1069B000A042F5DB012904DD0AAB09AA2846FFF74E
:1069C0003CFFBDF824003080BDF82810A8F8001066
:1069D0000CB0BDE8F0817CB50020F9F72EFE2A4C02
:1069E00001A96846E588FFF7AEFF26480168BDF8B3
:1069F0000400B1F8AC23824201D9A28000E0A0805B
:106A0000BDF80000E0802081854205D091F8801318
:106A1000490701D5FEF764FB1C49012008701C4999
:106A200008701C49002008601B490870F9F720FE17
:106A3000BDF8002029460A2005F0CAF97CBD2DE9E1
:106A4000F843DFF840800E4CD8F80000643C00F2B8
:106A5000C3300588468807794EE009486438FDF759
:106A600091FCD8F8000090F8FD06C00717D0FDF79C
:106A7000A4FEA0B9608840F002000FE020031000DF
:106A8000504710003C021000502610005602100023
:106A9000B40210003C0410002F0410006080D8F8ED
:106AA000000090F89407C00701D0102000E00220F9
:106AB0002080A586608840F004006080AFF24740E7
:106AC000A0600F48002141600E48FAF7CDFE6B46EA
:106AD000002280210120F9F710FD80210120F9F723
:106AE000FCFC0848803002F076FD02462946312041
:106AF00005F08BF9E81985B2B542AEDDBDE8F88343
:106B000020031000EC4610002DE9F0411746044622
:106B10000D46002609E0E00703D03146384605F06F
:106B20008FF8761C6D084FEA340454EA0500F2D160
:106B3000BDE8F08130B5034600204FF0FF3201255B
:106B400005FA00F40C4202D0521C9A4203D0401CB9
:106B50002028F5D3002030BDF0B50E4601250746AC
:106B600005FA06F2FE4C0F2FD4E9151065D2DFE8C6
:106B700007F064434B08106464192129323A5458D1
:106B80005C003046FFF7D6FF8540A06A0543A5624A
:106B900053E001463046FFF7CDFF8540206C0543AA
:106BA00025644AE03046FFF7C5FF8540E06A0543AB
:106BB000E56242E03046FFF7BDFF8540206B0543AC
:106BC00025633AE001463046FFF7B4FF8540A06CEC
:106BD0000543A56431E03046FFF7ACFF8540606BAC
:106BE0000543656329E001463046FFF7A3FF854072
:106BF000E06C0543E56420E03046FFF79BFF8540ED
:106C0000606A0543656218E001463046FFF792FF6F
:106C10008540E06B0543E5630FE0A06B0243A26390
:106C20000BE0206D0243226507E001463046FFF786
:106C300081FF8540606C054365642068401C2060CE
:106C4000F0BD10B501461C22C648FDF7DBF88021D7
:106C5000BDE810400120F9F711BC10B5FCF72BFE80
:106C60004008400010BD2DE9F047894605464FF029
:106C7000FF34FCF72EFEBA4F00231946D7F8046004
:106C80004FF0010C0CFA01F2024200D0641CAC423D
:106C900006D1B9F1010F0AD020EA02030E462021E5
:106CA000491C2029EED318467E60BDE8F0871346C4
:106CB000F4E72DE9F047894605464FF0FF34FFF72A
:106CC000CCFFA74F024600207B6801464FF0010C25
:106CD0000CFA01F6164200D0641CAC4206D1B9F1A0
:106CE000010F08D022EA06000B461E21491C1E296E
:106CF000EED97B60D9E73046F6E7F0B59FB00446A1
:106D00000F466846FDF73EFB19A8FBF77CFEFFF730
:106D1000A4FF934E40087065FCF7DBFD924DB06513
:106D2000012C0BD00626022C30D0032C34D0042C9E
:106D300037D0052C3ED0062C5CD072E0FCF732FE3A
:106D40000390FCF735FE04900120ADF800000C2004
:106D5000ADF81A00854800785A2805D18348401CB0
:106D600000780C30ADF81A001F208DF81800402074
:106D70008DF8170095208DF81E003C20ADF81C0002
:106D80000398400870650498B0654AE0FFF765FF16
:106D90000B90FCF79EFD14E0FCF79BFD01210C908D
:106DA00003E0FCF796FD00210C903846FFF781FFC9
:106DB0000B9007E0FFF751FF0B9001213846FFF7DA
:106DC00052FF0C90ADF80060286800F55A70817889
:106DD0008DF84410C1788DF84A1001788DF838107C
:106DE00041788DF83E108188ADF834100089ADF8F7
:106DF0003A0016E0FFF731FF0B90FCF76AFD0C90AC
:106E0000ADF80060286800F2613081788DF8441098
:106E1000C1788DF84A1001788DF8381040788DF8D7
:106E20003E000020BDF802108DF8140021F0300162
:106E30008DF846008DF8160041F04A018DF84500A6
:106E4000ADF80210AFF2052103260291012C12D0F9
:106E5000092C23D00A2C21D08DF86E008DF87000FB
:106E60008DF86F00022C10D0032C0ED0042C0CD007
:106E7000052C0AD012E0296891F84D178DF86800AA
:106E800041F003018DF86410E6E72868B0F86E134E
:106E9000ADF86A10B0F87203ADF86C0019A8FBF7F2
:106EA000D2FD304C6846FAF7DFFC1DAB0022802192
:106EB0000120F9F722FB80210120F9F70EFB207851
:106EC000002804D0FBF773FF761E002EEADC1FB00B
:106ED000F0BD2DE9FC5F00210120FFF70EFF2148E6
:106EE0004768FCF75FFD0190FCF762FD009004210C
:106EF00001A8FCF768FB064604216846FCF763FB23
:106F0000844600200546DFF858B0DFF85CA000900A
:106F10005DE000BF4FF00008C1465C462846DBF844
:106F20005810FFF707FE014601208840A16C084277
:106F30004CD101243BE000BF04FB0C51DAF8000007
:106F400037F9112090F86703B2EB001F2EDA08F131
:106F50000108B9F1000F00D1A146721E944207E06A
:106F600028031000EC4E10003C021000EEFF010060
:106F70001CD1B8F1010F19D1ACF10102954204D135
:106F8000611E0120FFF7E8FD0EE007EB4101B1F9BA
:106F90000220B2EB001F05DB35B131F9021CB1EB69
:106FA000001F01DA002000E002208046641CB44289
:106FB000C2DBA6EB0901414508D829460220FFF7AC
:106FC000CBFD01200099A840084300906D1C654549
:106FD000A0DB01253BE000BF4FF0000844462CE059
:106FE000DBF84030DBF8482000201A4311D0D946A6
:106FF0002046DBF85810FFF79DFD01460120884030
:10700000D9F84810084203D1D9F84010084000D000
:10701000012005FB0C4137F91120DAF8001091F836
:107020006713B2EB011F07DA30B901200099A040C5
:10703000084201D108F10108641C6445D0DBB8F1B5
:10704000000F03D0691E0120FFF786FD6D1CB542BD
:10705000C2DBBDE8FC9F2DE9F041E14C0020054674
:10706000E04FDFF88483A0611EE029460520FFF78A
:1070700044FE21690120FE6800EB410C36F91C102A
:10708000D8F8000090F87703B1EB001F03D9294628
:107090000E20FFF761FD36F91C00A169884202DD70
:1070A00036F91C00A0616D1C60698542DDD33FE5A7
:1070B0002DE9F04100210620FFF71FFEC9480025F9
:1070C000C94EC74CC7680EE0E0683168284437F9FC
:1070D000100091F86513B0EB011F03DD29460A206B
:1070E000FFF73AFD6D1C20698542EDDB00250EE0BF
:1070F000A0683168284437F9100091F86613B0EBA6
:10710000011F03DD29460B20FFF726FD6D1C60697A
:107110008542EDDB0CE52DE9F041B14C002006463F
:10712000206237E031460420FFF7E7FDAD48002537
:10713000C7682BE0FCF7CDFB01462846FFF7FAFCB9
:10714000014601208840216C08421ED1A649A06852
:107150002844096807EB400030F9040C91F87813D3
:10716000B0EB011F07D931460820FFF7F5FC29468F
:107170000920FFF7F1FCA068216A284407EB4000D2
:1071800030F9040C884200DD20626D1C6069854284
:10719000D0D3761C20698642C4D3C9E42DE9F041DE
:1071A0008F4C002005468F4FDFF83C82E0611AE0EB
:1071B00029460320FFF7A1FDFE68B6F90210D8F8B2
:1071C000000090F87603B1EB001F03D92946072091
:1071D000FFF7C2FCB6F90200E169884202DDB6F9A8
:1071E0000200E0616D1C20698542E1D3A0E42DE935
:1071F000F04100210220FFF780FD7A487A4D784C5B
:10720000C768286890F86003000713D500260EE0D1
:10721000E0682968304437F9100091F87413B0EB36
:10722000011F03D931460320FFF796FC761C206925
:107230008642EDDB286890F86003C00613D500266F
:107240000EE0A0682968304437F9100091F87513F2
:10725000B0EB011F03D931460420FFF77DFC761CFB
:1072600060698642EDDB63E42DE9FC410020F9F71B
:10727000E4F94FF4F83040F6FB7113F010FCFBF723
:10728000ECF8FBF7B3F8FAF7E3FF554C0020206069
:10729000FFF7E3FC0090FCF71CFB0190042168461B
:1072A000FCF791F90546042101A8FCF78CF9014689
:1072B00000EB4500C4E90205C4E904514A4D2868C1
:1072C00090F86003010701D4C00601D5FFF78FFFD6
:1072D000286890F86003800601D5FFF75FFF2868F3
:1072E00090F86003000601D5FFF715FF286890F8B5
:1072F0006003C00701D0FFF7DBFE286890F8600349
:10730000400601D5FFF7A7FE286890F860038007C4
:1073100001D5FFF7DEFD206800285BD0D4E90A35EF
:107320009D43E562606AD4E90F179843A843606201
:10733000666CB943B143E163A16B226D9943A943E4
:10734000256BBA43A943A163A16CB2438A43AB4303
:10735000A362226501220021FFF7D6FB0222002151
:10736000E06BFFF7D1FB03220021A06AFFF7CCFB03
:1073700004220021206CFFF7C7FB07220021E06AEE
:10738000FFF7C2FB08220021206BFFF7BDFB09229B
:107390000021A06CFFF7B8FB0A220021606BFFF709
:1073A000B3FB0B220021E06CFFF7AEFB0C220021A7
:1073B000A06BFFF7A9FB0D220021206DFFF7A4FBB6
:1073C0000E220021606CFFF79FFB0020F9F750F9B7
:1073D000BDE8FC810021084604F032FCF5E700001E
:1073E00028031000EC4E10003C0210002DE9F04183
:1073F0000100ED48ED4F4FF000060068027D437D2F
:1074000090F8545403FB02F3B0F84C4407EB4207E6
:10741000324600D10025002107E000BF37F911C036
:10742000A44501DD521C02E0491C9942F6DB90F8AC
:107430004904400612D5DE4C607978B90027002A4D
:107440000BDDFCF70EFF40B1A078A84202D2401C31
:10745000A07003E0A770012600E0A7703046BDE8E9
:10746000F08110B50120FFF7C1FF0446012814D1B7
:10747000D04840F60502016811430160CC48012163
:1074800001710021C170CC48016841F400610160C4
:107490004FF480610120F8F7F1FF204610BD2DE97F
:1074A000F84FC14905460024086890F8462790F82F
:1074B0006A9490F869A402F00F02072A02D947F6ED
:1074C000FF7603E0521CC2EB023216B290F815C0F0
:1074D000017DB0F84CB4B0F84A240092B34A0027BA
:1074E00002EB410E0CFB01FC3B463A460DB9B94696
:1074F000CA46002110E000BF3EF911505D4500DD95
:107500007F1CDDF80080454500DA5B1CB54200D0E9
:107510000DB9521C92B2491C6145EDDB90F864C470
:10752000A14E0021A24D94450AD26A78521CD2B2D3
:107530006A704A4505D9697029700120BDE8F88F45
:1075400069709F422EDD2A78524503D202F1010272
:107550002A7031E02970697090F84904400702D51B
:10756000FCF7A6FE0446306890F84904C00603D52F
:107570005846FBF767FF0446306890F84904410716
:1075800002D4C10600D4012480060DD53321002287
:10759000084604F00FFBFCF757FB08B1012405E097
:1075A000002409E0297007E0012C05D1687918B999
:1075B000FCF740FE0128F3D02046BFE710B50120BC
:1075C000FFF76DFF0446012814D17A4840F6050202
:1075D00001681143016076480121C17000210171E9
:1075E0007548016841F4006101604FF48061012039
:1075F000F8F744FF204610BD70B56B48026892F85A
:10760000460700F00F00072802D947F6FF7303E092
:10761000401CC0EB003003B2107D547D63494443ED
:1076200001EB40050021084608E000BF35F9106075
:107630009E4200D00EB9491C89B2401CA042F5DB25
:1076400092F8643400225A488B4209D24178491C8E
:1076500011F0FF01417004D042700270012070BD32
:107660004270002070BD2DE9F047514C0027B9460B
:10767000E0783E46012807D02079012817D06079AC
:10768000012814D0BDE8F08701214C48FCF7DFFB4E
:107690004B48FCF71CFCFCF767FA81464748FCF7AF
:1076A00006FA07B24A46C821992004F083FADFF8A7
:1076B000F88000254FF6FF7A61790020012901D179
:1076C000FFF79AFFE178012903D110B90020FFF7F5
:1076D000E6FE2179012909D1D8F8001091F8491462
:1076E000490603D518B90020FFF780FED8B101265E
:1076F000FEF774F8334834494088FDF705FAFDF782
:10770000CCFB2020FDF750FB0220FDF789FB6D1C10
:10771000032DD1DB5246DD21992004F04BFA0020E5
:10772000FBF768FB3AE0C12040EA062004F02AFBA0
:10773000012E33D1E078012829D101212348FCF71B
:1077400086FB2248FCF7B3F905B23A4629469A204F
:1077500004F030FAD8F8000090F857033844A842F3
:1077600015DD4BF6BB32BB21992004F023FA002132
:107770001248FCF76CFB1248FCF7BBFB4846FCF7D1
:10778000A3FB4A46DD21992004F014FA06E0524694
:10779000CC21992004F00EFA11F0D5FD0020E07004
:1077A000207160716EE700003C021000B80C100000
:1077B00084031000480210004C021000B4A70120FE
:1077C000E80B012050261000A80001202808012005
:1077D00008B5DFF80C92834EDFF80C820024834D4D
:1077E000DFF80CA20127307880B10128FBD16B466D
:1077F00000224EF27D71F8F780FE0098C1071DD07F
:1078000001210846F8F769FE3470ECE701210020F9
:10781000FCF7CFF86B46002202210120F8F76DFE3D
:1078200001210846FCF7C5F800988007DBD54EF229
:107830007F710120F8F751FE3770D4E701070CD5AE
:1078400008210120F8F749FE0020F8F7F6FE06208F
:10785000F8F7F3FEFDF7C2FF0EE0410713D5042150
:107860000120F8F73AFE0020F8F7E7FE0620F8F7C7
:10787000E4FE0020FEF7E0FC0620F8F7F9FE002009
:10788000F8F7F6FEAFE7C1060AD510210120F8F798
:1078900024FE99F800000028A5D1FEF7B4FEA2E767
:1078A00081060AD520210120F8F717FE99F800007B
:1078B000002898D1FFF78FF895E7C10507D54FF459
:1078C00080710120F8F709FEFEF7CFFD8BE78105F7
:1078D00007D54FF400710120F8F7FFFDFFF7AFF86F
:1078E00081E7410606D540210120F8F7F6FDFFF7B4
:1078F000BBFC78E7010407D54FF400410120F8F7FD
:10790000ECFDFDF795FF6EE741055FD54FF4806113
:107910000120F8F7E2FD374804602888800505D487
:10792000DAF8000090F8FC0680070AD50020F8F786
:1079300084FEFAF7B3FB7080FEF7FDFC0020F8F739
:1079400097FE2D48D0F800B004605846FDF726FB9E
:10795000B8F80000C00501D5284807705FEA8B70B1
:1079600001D500F0BDFBABF5E061B73905D10520CD
:1079700004F008FAC8F800401AE05FEACB7008D0BB
:10798000D8F8000040F0150004F0FCF9C8F80040F9
:107990000FE01BF0420F03D0286840F0060005E01E
:1079A0005FEA4B5005D5286840F4806004F0EAF99E
:1079B0002C60DAF8000090F81001C00686D5104857
:1079C000007801288CD10F4807700CE7800487D518
:1079D0004FF400510120F8F780FDFDF72DFC02E780
:1079E000670210008A0310004C02100050021000C1
:1079F0003C0210004C041000480210006902100004
:107A0000760210007502100070B5FF480024047063
:107A1000FE480470FE480470FE480470FE4804707E
:107A20000120FE49FF4D0870FD4908702C616C6112
:107A3000AC802C70FF20EC61E880FB480068B0F857
:107A40005211A981B0F8540168813C21F74813F024
:107A500026F84021F64813F022F83C21F54813F0AF
:107A60001EF8F44840213C3013F019F8AC70EC706B
:107A7000BDE8704001F018B830B50024234605E099
:107A800030F913508D4200DD641C5B1C9342F7DB20
:107A9000E548006890F86101A04201D2012030BDA4
:107AA000002030BDF0B5064600200446059F0CE0DE
:107AB00036F91450D3F800C0AC4501DA1D603C70B3
:107AC00010B9954200DD0120641C8C42F0DBF0BD52
:107AD00030B585B0D44C01A800902068002503ABD8
:107AE000B0F95221017DD448FFF7DCFF50B1236883
:107AF0009DF8040093F88A2102F00F01814219D801
:107B00001B7D14E002A80090206804ABB0F954215A
:107B1000417DCA48FFF7C6FF68B123689DF8080099
:107B200093F88A2102F00F01814203D85B7D591A34
:107B3000814200DA150905B0284630BDFEB5BA48C5
:107B400001AB5022006890F88911B0F9877101F0FB
:107B50000F060C09B0F9855102A90091017DB648C4
:107B6000FFF7A0FF0198B84201DD3046FEBDA842F4
:107B700001DA2046FEBD401B311B4843791B90FBB8
:107B8000F1F02044FEBD30B5AD48A74D047828681B
:107B900090F85101800703D5FFF7D0FFA4EB000454
:107BA000286890F85101400702D5FFF791FF04447F
:107BB000002C01DA002402E00F2C00DD0F24204607
:107BC00030BD30B564290DD00023642408E000BF27
:107BD00030F913504D4395FBF4F520F813505B1C1E
:107BE0009342F5DB30BD70B5002364250AE0CC5C20
:107BF000642C06D030F91360664396FBF5F420F848
:107C000013405B1C9342F2DB70BD2DE9F047002569
:107C1000894629462F462E46A8462B460DE000BF32
:107C200030F913C039F913400CFB0C660CFB0477D8
:107C300004FB0488654421445B1C9342F0DB87FB12
:107C4000020485FB013CC71A86FB020385FB056520
:107C500064EB0C04B0EB060C63EB050688FB020337
:107C600081FB0121851A63EB01086421A7FB010355
:107C700004FB0131002207FB02113346624612F079
:107C80009DFE0246A2FB070301FB073102FB041124
:107C90002A46434612F092FE002C00DA4042BDE82C
:107CA000F08730B547F6F873002405E030F914503A
:107CB000AB4200DD2B46641C9442F7DB002405E058
:107CC00030F81450ED1A21F81450641C9442F7DB7C
:107CD00030BD70B503460020024601EBD17408E0C8
:107CE00003EB420633F91250B6F90260AD1B28448B
:107CF000521CB2EB640FF3DB621008E003EB4205A9
:107D000033F9124035F9025C641B2044521C8A424C
:107D1000F4DB70BDF0B587B00746434C03A8009074
:107D200020689C468E461646017D002504AB0FFA5E
:107D30008CF27046FFF7B6FE01283BD102A80090F6
:107D4000206805AB32B2417D3846FFF7ABFE012813
:107D500030D1DDE9041081424FF0640203DD50436D
:107D600090FBF1F102E0514391FBF0F1206890F8B3
:107D700092218A421EDD9DF8081019B990F89121D0
:107D8000D20716D0427D521E8A4203D190F891113B
:107D900089070ED59DF80C1019B990F8912152075A
:107DA00007D5027D521E8A4204D190F89101000746
:107DB00000D4012507B02846F0BD2DE9F04185B07B
:107DC0008046012001900290174C04A80090206882
:107DD0001E468C461746017D002501AB32B2604637
:107DE000FFF760FE064603A80090206802AB3AB297
:107DF000417D4046FFF756FE012E01D0012831D1CA
:107E0000DDE9011081421DE064021000A0021000B3
:107E1000A10210006502100066021000B4021000FA
:107E2000B6021000900310003C02100038A7012099
:107E300074A701205C2E0120D43201209832012049
:107E4000B70210004FF0640203DD504390FBF1F0E5
:107E500002E0514391FBF0F0216891F892118142C8
:107E600000DD012505B02846BDE8F081F0B40446E8
:107E7000FF480B46802100680D4690F8680110B15C
:107E80000146C0F58075FB480089032805D22146CC
:107E9000F0BC52001846FBF7B5BF00200FE000BF52
:107EA00033F9106034F910704E4307FB0566F7177D
:107EB00006EB176646F30F2623F81060401C90422D
:107EC000EEDBF0BC7047F0B50024E94D0FE030F870
:107ED000146031F81470012B0CD0F61B2F6897F842
:107EE0006D717F4206EBC70620F81460641C944253
:107EF000EDDBF0BD3E442F6897F86D71F2E72DE998
:107F0000FC47DC4D80460026288990B93C22DA499E
:107F1000DA48FBF777FF4022D949DA48FBF772FFCE
:107F20003C21D94812F0BBFDD74840213C3012F02B
:107F3000B6FD28890127CE4C032802D2D34807700A
:107F400013E012D92168B1F86B2182420DD94B7D23
:107F5000CA4ACD49C84801F058FF2068CA49C94AF1
:107F6000037D3C31C64801F050FF206890F8501165
:107F7000427D090710D590F88D11CDE9001290F8D7
:107F80008B31C34ABC494046FCF719FB2068BE4907
:107F9000427DB839BE4802E0BB494046B839FFF7D8
:107FA00065FF2068B44A90F85011437D0907B9492C
:107FB00001D5B74800E0404601F027FF2068AE4AEF
:107FC000B449437DB048B83801F01FFF206890F8ED
:107FD0005011C90610D5427D90F89612AD48FFF7B2
:107FE000F0FD216891F85001C00605D54A7D01F5E4
:107FF0001C71A848FFF7F7FD2268B2F85411B2F8D7
:108000006901B2F87F4101440BB229898C4201D247
:10801000184403B200200446DFF87CC2DFF87492F3
:10802000527D1CE039F91080984515DD761C022E32
:1080300013D96878401C40B26870002804DD974866
:108040008CF800706C70077047F6FF70814201D2A7
:10805000491C2981BDE8FC870026401C00B28242F1
:10806000E0DC6C708CF80040EEE7034610B50020B1
:10807000024603E033F91240521C20448A42F9DBE5
:1080800010BDF0B57A4D0F4600262968497DFFF7EF
:10809000ECFF04462868017D3846FFF7E6FF002C18
:1080A00000DA64422A6800237249D2F89C52AC423A
:1080B00006D8002800DA4042A84201D80B620DE041
:1080C000086A401C086292F89B22824206DC7448CF
:1080D0000126026842F4003202600B623046F0BDB5
:1080E0006348006890F89011890606D5614901221D
:1080F0000A7090F895211209CA6190F8F102C00740
:1081000001D002F093B870471CB55A490020098984
:1081100001B901201021564CCDE9001020680F2331
:108120006049427D604801F028FE022000902068EE
:108130005C49437DB0F9AE215B48FCF709FA0128A0
:1081400000D000201CBD2DE9F34F002085B08246F1
:10815000054607460290554C401E03902078DFF8F4
:108160003CB14FF000084FF0010901281CD0404EEF
:10817000306890F82010C9061DD590F825104C489D
:108180000288914217D2A0F800804A48016841F065
:10819000220101604FF480610120F8F76FF98BF83C
:1081A000009007B0BDE8F08F8BF8009000F07CFCE9
:1081B00084F80080F5E70320F8F73FFA3E482D4C9D
:1081C000007801287ED02089012813D93068012346
:1081D0002D49427D2848FFF776FE30682A49012361
:1081E000027D3C312648FFF76EFE3068334990F837
:1081F000FD02087000202081FFF7C5FCDFF89CB06D
:10820000019021499BF8000000903068B046B839D1
:10821000427D019B059801F08DFD9BF800000090C8
:1082200030681949019B027D7C39069801F082FD76
:10823000234E30780A287BD00F2802D200F10100AB
:108240003070D8F80000464690F85011090745D51F
:10825000427D90F88D11CDE900120B4A90F88B31D8
:10826000B83A05491046FCF7AAF93068027D2AE0C1
:108270003C021000900310006813012060140120DC
:10828000A41301209C140120E02D012024041000DF
:10829000384F10009832012066021000B40210001E
:1082A00050021000741A0120381A0120B602100082
:1082B000540210004802100057021000C9031000B9
:1082C000B502100025E090F88E11CDE90012FF4AAA
:1082D00090F88C31FE491046FCF771F93068FD4A80
:1082E000FD49437DF9483C3801F08FFD3068F84A7C
:1082F000FA49037DF54801F088FD306890F8910156
:10830000000625D5F549F448FFF7BBFE01281DD02E
:108310001EE0306890F85101C00605D5FFF7F4FE65
:10832000EF490128087004D00598FFF7E8FD04E044
:1083300007E084F801808BF800900320F8F798F9A3
:108340002FE70D2003F01EFD142079E70120029095
:108350000320F8F78DF93068DFF88883B34690F88A
:10836000901109074CD5D949427D5E464031DA4823
:10837000FFF797FC3068D549427D403100F57470B5
:10838000FFF743FC60613068417DD0484030FFF723
:10839000A0FCA06163698646322B1CDDCB48DBF86C
:1083A00000204030B0F90060B2F854118E4207DD71
:1083B00092F815C000EB4C0C3CF902CC8C4509DC62
:1083C00049428E4207DA527D00EB420030F9020C3E
:1083D000884200DA0125DBF8000090F894119942F8
:1083E0000EDAB0F8AC2172450ADA90F89001400636
:1083F00000D50127D8F8001041F48051C8F80010CA
:10840000DBF800005E4690F85011C9061AD5427D8F
:1084100090F89612B048FFF7D4FB3068027D90F8D0
:10842000E012AE48FFF7CDFB3068427D90F897121E
:10843000AD48FFF7C6FB3068027D90F8E112AB480B
:10844000FFF7BFFB306890F89011890710D5B0F89E
:108450005231B0F85421A1499F48FFF75BFC012835
:1084600006D1D8F80010012741F40051C8F80010D7
:10847000306890F8911189060AD5B0F85231B0F8F9
:10848000542196499448FFF798FC012800D1012710
:10849000306890F89111490617D5B0F95421417D03
:1084A0008D4801F0CFFC02280DD870B13068417DB5
:1084B000894801F0DBFC02463068417D864801F0C6
:1084C000C1FC022801D901273D46316891F890018D
:1084D000820705D4000703D491F8910180060BD5DB
:1084E000012F09D1B4F9040000280ADB401E00B2B4
:1084F000A080002805DCBA4691F8950100F00F0035
:10850000A08091F85001C0061AD54A7D01F51C7172
:108510007148FFF768FB316870480A7D01F52871E2
:10852000FFF761FB316870484A7D01F52171FFF763
:108530005AFB31686D480A7D01F53071FFF753FB36
:10854000306890F85011090611D5CDF80090437DA0
:108550004F46674A6749604801F02DFC0097306834
:10856000634A6549037D5D4801F025FC0CE0407DD0
:10857000594942005F48FBF745FC30685749007D88
:1085800042005D48FBF73EFC306890F89111C90647
:1085900027D503A90091427DB0F8AC31521E0021CD
:1085A0004D48FCF776F8012815D10399012904DB21
:1085B0003068427D921E8A420EDAE0880125401E14
:1085C00000B2E08000280CDAD8F80010AA4641F486
:1085D0008051C8F80010306890F8950100F00F0045
:1085E000E080306890F85111C9070CD0B0F95E21D5
:1085F000417D404801F017FC3068B0F95E21017DF3
:108600003D4801F010FC306890F85011490713D52F
:10861000CDF80090364A437D4F460A3A37493548EF
:1086200001F0C9FB00973068314A3549037D0A3AA9
:10863000314801F0C0FB0CE0407D2E4942002F483C
:10864000FBF7E0FB30682C49007D42002C48FBF72B
:10865000D9FB306890F8911189060FD5B0F85231E6
:10866000B0F8542126492548FFF7A7FB012805D17A
:10867000D8F8001041F48041C8F80010306890F834
:10868000911149061BD5B0F95421417D1B4801F0D9
:10869000D9FB02280DD890B13068417D174801F010
:1086A000E5FB02463068417D144801F0CBFB02280F
:1086B00005D9D8F8001041F40041C8F80010114F56
:1086C0000B23387800903068427D1DE0642D012036
:1086D000A413012068130120384F1000744F1000BC
:1086E000650210005002100038A7012074A7012075
:1086F000BE031000B44F1000F04F1000983201205C
:10870000D4320120B4021000D349D44801F012FB46
:10871000387800903068D0490B23027D3C31D04836
:1087200001F008FB32682378B2F85211B2F8540114
:10873000012B04D0CB4B1B78012B09D010E0B2F8F1
:10874000983103B11946B2F89A314BB1184607E097
:1087500092F85731C91A92F8563189B2C01A80B2CC
:10876000C14B1B783BB192F8A331184492F8A43165
:1087700080B2194489B20FB20FFA80FC0097A7812A
:10878000A4F80AC0B346527D6146B848FFF774F9B1
:108790000646DBF800003946027DB548FFF76CF964
:1087A0000746B44861460670B3480770DBF800001E
:1087B000427DA948FFF760F901281AD0A07820B1BE
:1087C000401EA070AB4800260670DBF80000009940
:1087D000027DA1483C30FFF74FF901281BD0E0781B
:1087E00020B1401EE070A44800270770012E25D05C
:1087F00026E0DBF8000000253C2290F8951101F0FE
:108800000F01A18090F86E01A07093499748FBF783
:10881000F9FA0126D9E7DBF800000025402290F89C
:10882000951101F00F01A18090F86F018A49E07065
:108830003C318F48FBF7E6FA0127D7E7012F0BD031
:108840008E49002008708E490870206900281DDDBF
:10885000401E20610DD019E0884880F800908148C2
:108860000078012812D1DBF8000090F89701206110
:108870000CE0DBF8000090F89001C00606D5D8F8AF
:10888000001041F40061C8F8001002E002980128CD
:108890000CD17C48016841F0220101604FF48061F5
:1088A0000120F7F7EBFD784981F80090BAF1010F4C
:1088B0000CD17448016841F0420101604FF48061BD
:1088C0000120F7F7DBFD704981F80090DBF800002C
:1088D0005E4690F89011890624D52178012921D18E
:1088E000E169002915DD427DB0F954115F48FFF7B9
:1088F000C3F807463068027DB0F952115C48FFF7B3
:10890000BBF807B100B94DB1306890F89501000986
:10891000E0615A480078012807D017E0E069401E5E
:10892000E061F6D100202070F3E73068B4F904105C
:1089300090F8950100F00F00884207D1002D7FF4D8
:1089400039AC4B49494800F035FD2AE400F00FFBF3
:1089500027E42DE9FC4188460746FFF714F94A4E03
:1089600005464A4C3078009020682B464849427DA5
:10897000384601F0DFF930780090206844492B46F2
:10898000027D3C31404601F0D5F9206890F8501145
:10899000090719D5427D90F88D11CDE900123C4AA6
:1089A00090F88B313B491046FBF709FE2068027DA9
:1089B00090F88E11CDE90012354A90F88C313C3296
:1089C00035491046FBF7FBFD2068324A3349437DA9
:1089D0002F4801F01AFA20682F4A3149037D2C48AC
:1089E0003C3001F012FA206890F85111C9070CD000
:1089F000B0F95E21417D294801F015FA2068B0F9EF
:108A00005E21017D264801F00EFA206890F8501191
:108A1000490711D501250095437D224A13491F4876
:108A200001F0C9F9009520681E4A1149037D1C48D0
:108A300001F0C1F9BDE8FC81407D184942000B48B6
:108A4000FBF7E0F920681649007D02B04200BDE85E
:108A5000F0410748FBF7D6B95C2E012038A701206A
:108A600074A701209C0210006E02100098320120B1
:108A7000D4320120A0021000A102100064021000F4
:108A80006602100048021000B40210003C02100000
:108A9000282D012068130120A4130120B44F1000D9
:108AA000F04F1000B4031000F9490020FA4A087092
:108AB000F849C86008618880C88008701070F74A5B
:108AC00048701070887008814881704730B5F44A4A
:108AD00000241268937EDD0792F882310BD0834226
:108AE00017DC158BEB1A834213DB92F88301884263
:108AF0000FDCD28A0AE083420BDCD58AEB1A834270
:108B000007DB92F88301884203DC128B101A88423B
:108B100000DA0124204630BD2DE9FE4314460D46FF
:108B20000646072B09D0DB48092BB0F9041006D004
:108B30003180C188298000781070BDE8FE833288BA
:108B4000ADF802202A88ADF800202778ADF806108D
:108B50008146C088ADF8040001AA694602A80FF05A
:108B60000FF902A80FF004F9DFF834830346D8F8B0
:108B700000C09CF87401BCF8762100F00F01BCF82D
:108B800078C1000952430CFB0CFC93420BDD63459A
:108B900001DB084607E09B1A411A4B43ACEB02018C
:108BA00093FBF1F1401ABDF90230C0F11001B9F99F
:108BB00004C04B4300FB0C3343F30F133380BDF968
:108BC00000304B43B9F9061000FB013040F30F10A1
:108BD0002880D8F80000102199F8002090F875013D
:108BE000A1EB10117943000900FB0210C0F307103C
:108BF0002070A2E75FF0000200EB82035B6840F8A0
:108C00002230521C052AF7DB416170472DE9F04FF5
:108C1000002793B080463E463D46FFF7EBFF00211C
:108C200058F821000744484300FB0155491C0644FD
:108C30000629F5DB974C0997143460680A90A06800
:108C4000CDE90B0620690D906069CDE90E05E0695C
:108C50001090206A119009A8FAF7D7FC8346039177
:108C60002068CDE90907A0680B90E068CDE90C0603
:108C700060690E90A069CDE90F05206A119009A8DE
:108C8000FAF7C3FC8146206809906068CDE90A07BD
:108C9000E0680C902069CDE90D06A0690F90E069AD
:108CA000CDE910058A4609A8FAF7AFFC0326A9FB0F
:108CB00006570A460AFB06710926A0FB0637002460
:108CC00009FB041402FB0672002100FB0120EA18D4
:108CD0004441039912EB0B0061414FF4756200238C
:108CE00011F06CFEC8F80C0013B0BDE8F08F30B581
:108CF0006B4A01241268937EDD0792F87A310BD01B
:108D0000834217DC158BEB1A834213DB92F87B014D
:108D100088420FDCD28A0AE083420BDCD58AEB1A48
:108D2000834207DB92F87B01884203DC128B101A26
:108D3000884200DA0024204630BD2DE9F047DFF8F4
:108D400060910546534CD9F800008AB00E4690F861
:108D500070019A4617464FF00008C00728D0082D2A
:108D600026D094F90200062819DB11463046FFF799
:108D7000BEFF00284B48314609D0FFF747FF06B237
:108D8000484839461830FFF741FF07B210E0FFF7B7
:108D900031FF444839461830FFF72CFF08E0401CEB
:108DA000404940B2A07041F82060183141F820706D
:108DB000ADF80060ADF804708DF814A02B4605AA3C
:108DC00001A96846FFF7A8FE072D2DD0092D2BD14C
:108DD000D9F8001091F87001400725D5B4F90420A6
:108DE000BDF90000101A00D5404291F87C3198423C
:108DF0000EDAB4F90630BDF90400181A00D5404265
:108E000091F87D61B04203DAADF80020ADF804308E
:108E100022789DF81400101A00D5404291F87E1176
:108E2000884201DA8DF81420D9F800004E464FF040
:108E3000000790F8700100060FD5082D0DD0BDF980
:108E40000410BDF90000FFF741FE8046012804D15F
:108E5000306890F87111C9070DD0BDF90010A180DC
:108E6000BDF90420E2809DF814C084F800C0B8F178
:108E7000010F2FD066E0072D18D00B49097831B3C8
:108E800090F8A601401CE06000200AB0BDE8F08721
:108E90009C021000C803100064021000660210005B
:108EA0003C021000084F10006E021000FE490F70C7
:108EB00090F89001C007E7D0FC48016841F022011A
:108EC00001604FF480610120F7F7D8FADCE790F8F1
:108ED0007301D7E7306890F87131DB0732D0837EB9
:108EE000DB0790F8823113D08B4201DDADF8003002
:108EF000018BC91ABDF90030994201DAADF80010B2
:108F000090F88311914201DDADF80410C08A12E09F
:108F10008B4201DDADF80030C18AC91ABDF90030BD
:108F2000994201DAADF8001090F88311914201DD09
:108F3000ADF80410008B401ABDF90410884201DA24
:108F4000ADF804000397BDF800000297ADF80E00DD
:108F50008DF80850BDF80400ADF80C008DF80AC07B
:108F60008DF80B7002A802F073FD01208DE7D04848
:108F700010B50178CF48006849B190F9A611CA48E8
:108F80000278CD48012A05D0002101610DE090F959
:108F90007311F4E7C268521CC2608A4208D30023EE
:108FA0001A4619460820FFF7C8FEBDE810407BE5C9
:108FB00010BDF0B50746DDF814E037F912404FF068
:108FC000FF30744501DA002400E01046012517E067
:108FD000561B07D437F916C0F44503DDA44501DD5F
:108FE000304664465619A1F1010C664507DC37F995
:108FF00016C0F44503DDA44501DD304664466D1C12
:109000009D42E5DDF0BDAB490A68B2F864118142CA
:109010000DDAB2F86621824201DCFF207047401A67
:10902000521AC0EB002090FBF2F00028F6DC012081
:109030007047F0B500240125A1F101060BE0571B94
:1090400002D430F917703C445719B74202DC30F9AA
:1090500017703C446D1C9D42F1DD012A02DB891E24
:109060008A4200DD640030F912002044F0BD2DE991
:10907000F047904D14469A462E6830F914208146E8
:1090800002FB04F00123A1F1010196F862C117E08F
:10909000E51A08D439F91570B6F85E81474502DB48
:1090A00007FB05003A44E5188D4208DC39F91570D4
:1090B000B6F85E81474502DB07FB05003A445B1CBE
:1090C000B3EB1C1FE4DD4A4380FB0A01D31711F008
:1090D00075FC00B2DAE62DE9F05F8B46D0E90015A9
:1090E0009146002280689A4613464FF480348142AC
:1090F00002DD02460B4602E001DA0A460346A0EB17
:1091000001014FF4803CA1FB0C084FEAE17707FB1B
:109110000C874FF000062B44C2F1000201FB0671E0
:1091200003EB42024FEAE27311F048FC4FF4803641
:10913000A9FB063C4FEAE97505FB06C51B18A3FB16
:109140000A06002709FB07524A4102FB0A614FEA5F
:10915000EA7503FB051122463B4611F02FFC5A46E7
:109160004FEAEB7311F02AFC00B2BDE8F09F2DE945
:10917000F04F93B00C4682461746994600251821B9
:109180000CA81C9E11F0ADFC0020029003900490EE
:109190002EB94848006890F8620100F00F06BA1B2B
:1091A00007EB060300D50022661EB34200DD631EF6
:1091B0000CA95046FAF748FB4FB1B7422FD13D48B2
:1091C000006890F85101800613D54D466BE0394890
:1091D000006890F85101800665D4BAF90400029045
:1091E000BAF900000390BAF902004B46012204903C
:1091F0000DE00AEB44007F1C30F9061D0291B0F926
:1092000004100391B0F902004B463AB20490611E7B
:1092100002A8FFF760FF99FBF6F1451A43E0DDE98C
:1092200010B1B1F100084BDADDE90C2352EA03007A
:1092300046D0DDE90E0105910890002940DB1D486C
:10924000056895F85001400611D55846414611F081
:10925000B5FB002800DA404295F86311884206DA2F
:109260004B463A4621465046FFF701FF1AE01BEBFA
:109270000B01A1FB062448EB080000FB0640F31796
:1092800001FB0303089805994542A5FB0907002443
:1092900064EB010404FB09714FEAE97605FB061152
:1092A00011F08CFB054609E09C02100048021000FA
:1092B0006E0210003C021000C803100028B213E533
:1092C000B8F1000FCCDADDE90C010843C8D00F98E3
:1092D0000028C5DBE7E738B5AA4D049C2D6895F852
:1092E0005051AD0603D50094FFF741FF01E0FFF7B1
:1092F000BEFE00B238BD2DE9F04700249A46CE1ECE
:1093000081462346A44627462546022A03DBB2426D
:1093100001DC1046BAE50020491E07E039F910804B
:10932000B8F1000F01DDC4447F1C401C8842F5DB0E
:109330009CFBF7F7022A12DA10460DE039F91060AB
:10934000BE4203DA3CB90446002304E01CB19E424D
:1093500001DD33460546401C8842EFDB14E0B24293
:1093600012DD10460EE000BF39F91010B94203DAE1
:109370003CB90446002304E01CB1994201DD0B46D0
:109380000546401E0228EFDC534500DA1546284604
:109390007CE530B5044630F911300020491C06E068
:1093A00034F911509D4201DD2B460846491C91427B
:1093B000F6DB30BD2DE9F34F724C85B0226892F890
:1093C0008451567D05F00F035F4206EB470606F019
:1093D000FF0B167D2A09554200EB430006EB4505BD
:1093E0000590EDB201EB420001952A46002106905E
:1093F000FFF7CFFF05465A4600210598FFF7C9FF42
:1094000006462068604F90F87001800607D5B7F9CE
:1094100000302A4601990698FFF76DFF054620683F
:10942000DFF868A190F87001C00607D5BAF90030DE
:10943000324659460598FFF75EFF0646DFF8509121
:10944000DFF8508199F80000012828D1206890F8B1
:109450006001010723D0010921D0B7F90010009164
:1094600000F00F03B8F9082001990698FFF7A1FD55
:109470000746BAF9000000902068B8F90A2059465A
:1094800090F8600103090598FFF793FD002F01DBB9
:10949000002802DAFFF76BFD01E03D4606462FB2D9
:1094A00032B2A8F80870A8F80A20002600962068B2
:1094B0005946B0F918300598FFF70DFF0096039054
:1094C00020683A460199B0F916300698FFF703FF75
:1094D0000290206890F87001800704D5032203A948
:1094E00002A806F0B1FA03A902A8FAF7EFFF0123D8
:1094F0002A4601990698FFF79CFDFFF784FDC3B249
:10950000254800780028206810D090F9A51198F817
:1095100001204046521E52B288F80120002A08DB82
:10952000226892F8FC22114449B204E090F97211C9
:10953000EDE7FF22427099F8004005690CB96D1CF7
:1095400005618D4219D340F2FF110161C8F80C602A
:1095500044B1039802B2029801B20920FFF7EDFB73
:1095600048B10AE0012089F80000039802B202988D
:1095700001B20720F2E7FFF7FAFC07B00120BDE8CF
:10958000F08F00003C0210009C0310009A031000B2
:109590009C021000C80310006E021000E448E54A67
:1095A0000068B0F8AC139180E34990F8B0030881EB
:1095B0007047E1490020DE4A8880C880C860488042
:1095C0001268DE4B92F85C2112091A70086108706B
:1095D000DB49087070472DE9F043A1B0814602AF26
:1095E0007821384611F07DFAD1480123016891F8BD
:1095F000B1204C7D91F8A01103EB1216890715D507
:109600000025804610E000BFD8F8001005FB04F0EC
:1096100009EB40004A7D91F88B31CDE90032494693
:109620000246FAF7CCFF6D1CB542EDDB002010E0DE
:1096300000FB04F2002109E002EB010C57F8215075
:1096400039F91C302B4447F82130491CA142F3DB87
:10965000401CB042ECDB002007E000BF57F82010B0
:1096600091FBF6F147F82010401CA042F6DB0020E9
:109670000121A4F1010517E04FF0000C63460BE057
:1096800003FB041839F9182057F82180B2EB0802BF
:1096900000D5524294445B1CB342F1DB9CFBF6F2D2
:1096A000824200DD1046491CA942E5DBB0F5803F4F
:1096B00004DB4FF6FF7021B0BDE8F08380B2FAE71B
:1096C00030B59B499D4B096891F85021920725D5EB
:1096D0009B4A12784AB191F8A74104F00F0225097C
:1096E000B1F8A841B1F8AA1107E001F5AC710C7905
:1096F00004F00F0225090C884988A04201DC1A7089
:1097000030BD884201DB1D7030BD001BAD1A6843BF
:10971000091B90FBF1F01044187030BD91F85C010A
:1097200000F00F00F8E72DE9F041814D814A2E68E5
:1097300096F88013B6F8AC33C9073DD096F8AF431E
:1097400004B90124918896F8AEC3CF1A07FB0CF731
:1097500097FBF4F4B6F8AA730F442744764CB8424A
:109760000ADD002620210120E660F6F787FEE6806C
:10977000286890F8B00306E0814202D9704D2D7838
:1097800025B196F8B0032081BDE8F0816D4D2D78AC
:10979000002DF9D1B4F90850002D01DD6D1E258191
:1097A0002489002CF0D1891E814200DA01468B42C7
:1097B00000DD19469180E7E79380E5E75C4A10B544
:1097C00014680021B4F8A121824204D294F8B000B8
:1097D000800700D501215848594B0278914211D198
:1097E000197891420AD0574C2478224307D0016956
:1097F000491E0161002901DC0078187010BD01705C
:109800000169F7E739B194F8B22002610170002ACA
:10981000F4DC197010BD94F8B320F6E7444910B594
:10982000096891F8B010CA06434918D5464A147819
:109830000A46D388C3EB03125200012C05D0C41A88
:10984000002C0CDC3F4C247824B102EB4000C0F328
:109850004F1004E0C3EB83121044C0F38F10C88094
:1098600080B210BD10B5FFF7B6FEFFF7D7FF324C40
:10987000A080FFF7A3FFA088FFF722FFA088BDE824
:10988000104050E7F0B430490B782B494A88B3B107
:10989000322A01D2521C4A80254A0125136893F8C6
:1098A000B1405B7D05EB1415CC6894FBF5F605FB28
:1098B0001644264E634306EB430700230BE0012AC0
:1098C000EAD9521E4A800022CA60E5E730F813C088
:1098D00027F813C05B1CD2F800C09CF815C09C454B
:1098E000F4DCCB685B1CCB60136893F89477FF07BC
:1098F00007D05B7D641C5F00634306EB43040023D9
:1099000007E0C8680CE0FE1830F8166024F8136011
:109910005B1C1668767D9E42F5DCC868401CC860FA
:10992000A84202DBF0BC09489CE7F0BC704700008D
:109930003C0210005026100000041000B702100076
:109940006E0210006402100057021000D82E012091
:10995000DE490020C86088604860DD4908707047B3
:1099600010B500230BE000BF30F91340002C00DAE3
:1099700064428C4201DD012010BD5B1C1BB293428E
:10998000F2DB002010BD70B5D24CD34AD349206819
:10999000437DD34800F039FA2068D24AD249037D8A
:1099A000D24800F032FA2068427DB0F99812CB48D4
:1099B000FFF7D6FF05462068027DB0F99812CA4825
:1099C000FFF7CEFF0022C149012803D0012D01D0AD
:1099D0004A6070BD4868401C4860236893F89A321A
:1099E0008342F6DCC248036843F480330360C14815
:1099F0004A60016841F022010160BDE870404FF407
:109A000080610120F6F73ABD70B505460020034697
:109A10000CE000BF35F9134031F91360A41B00D5E9
:109A2000644224B2A04200DA20465B1C9342F1DB80
:109A300070BD2DE9FF4FA74E8146B9F1010F306887
:109A400008D0AD4DAD4B047D0020DFF880B24FF063
:109A5000010A64E0AA4DAB4B447DF5E735F81010E0
:109A600033F91070DFF8A0C2C91B0AB29CF800C01D
:109A70000021BCF1010F05D0002A08DADBF80C2028
:109A800012B116E0114614E0029949420DE0DBF8EC
:109A900008C0BCF1000F0CD10199DDF80CC009B26F
:109AA000624506DD0D998A4201DD09B201E00FFA37
:109AB0008CF107EB010223F81020376897F8802318
:109AC00052072BD5B9F1010F4FF0000202D0DFF899
:109AD0001CE21DE0DFF808E20AE000BFC2EB02185A
:109AE0000EEB880C521C3CF8108088442CF8108037
:109AF00097F880830AEB981C9445EFDC0EE000BFDA
:109B00000EEB821C521C3CF8108088442CF810800C
:109B100097F880830AEB981C9445F1DC401CA04226
:109B20009CDBBDE8FF8F2DE9F84F6A4D674C00269E
:109B30002A684FF0010A92F82300527D00F00F07C7
:109B40007248017801293FD0804600913B466C491C
:109B50006F4800F0EFF898F8000000902868664918
:109B60003B46027D6B4800BF00F0E4F86A4800788D
:109B700040077DD569480078B8B3A660E6602868DC
:109B800090F82C10B0F82F90B0F833700C0901F059
:109B90000F08427D5B496248FFF736FF844628681C
:109BA0005649027D5F48FFF72FFF2968484AB1F800
:109BB0005431BCEB530F04DCB1F85211B0EB510F30
:109BC00045DD82F800A043E02680D0463B464C4964
:109BD0004C48CDF800A000F0ADF8CDF80080286822
:109BE0003B464549027D4548BEE7FFE7A168491C61
:109BF000A160286890F82A20B1EB121F00DDA66052
:109C0000E16802F00F02491CE1608A4200DAE66076
:109C100090F8242011090FD090F8383021888B4219
:109C20000AD9491C218090F82B1012090C095443C1
:109C300001F00F01514304E090F82B100C0901F0E2
:109C40000F018846B0F82D90B0F83170A1E716707A
:109C50004B464246214601200097FFF7EAFE4B465D
:109C60004246214600200097FFF7E3FE286800E007
:109C70000AE090F89111090606D590F88003400794
:109C800002D5BDE8F84F7EE6BDE8F88F114810B563
:109C9000006890F82000C10716D0234909780029F0
:109CA00012D12249097809B180060DD520480078E3
:109CB000002809D10320F6F7C0FCFFF734FFBDE808
:109CC00010400320F6F7D4BC10BD000014041000AF
:109CD000C30210003C021000CC150120384F1000C8
:109CE000DC14012008170120744F10000816012011
:109CF000500210004802100020140120A41301207B
:109D0000E41301206813012024041000B4021000A1
:109D1000B02A0120EC2A012028041000570210006C
:109D2000282D0120642D01205D0210006402100026
:109D300067021000F0B40C4601460498C3F1100607
:109D4000012801D0002014E02046F0BC5200FAF7B0
:109D500059B800BF34F9105031F910705D4307FB5A
:109D60000655EF1705EB177545F30F1524F810503E
:109D7000401C9042EEDBF0BC7047F0B40C4601464C
:109D8000DDE90460F51A012801D0002010E020462A
:109D9000F0BC5200FAF736B834F9107031F910C03F
:109DA0005F430CFB057797FBF6F724F81070401C17
:109DB0009042F1DBDFE72DE9F04391460022DDF828
:109DC0001CC019E000252E464FEA050402EB0407EB
:109DD000BF1E08D49F4206DA30F9178039F9147093
:109DE00008FB07553E44641C052CEFDBBCF1010F5A
:109DF00006D021F81250521C9A42E3DBBDE8F083F2
:109E000095FBF6F421F81240F5E770B5002407E061
:109E100032F8145030F81460AD1B21F81450641C53
:109E20009C42F5DB70BD30B500231C4607E000BF47
:109E300030F91350954201DA20F813405B1C8B4235
:109E4000F6DB30BD70B505460020044603460AE047
:109E500035F91360964204DD0CB9401CC0B2641C95
:109E600000E000245B1C8B42F2DB70BD10B50022C9
:109E7000134603E030F913405B1C22448B42F9DBAC
:109E800009B192FBF1F210B210BD2DE9F0430025AB
:109E90002E462C46DDF81C9018E000BF31F91470F6
:109EA00030F914C007EB0208C44505DDBCEB070719
:109EB00000D57F423E4408E0A7EB0208C44504DA1F
:109EC000BCEB070700D57F423D44641C9C42E5DBA8
:109ED000B9F1000F00D10025B54201D201208DE774
:109EE00000208BE710B5BB48BB4A00685168414071
:109EF00010D05060480701D5FDF786FDB7480068CF
:109F000090F81001C00605D54021BDE8104005209D
:109F1000F6F7B4BA10BD10B50446480709D5B049E4
:109F20002046F9F7E9FC2046BDE81040AD49F9F7B5
:109F30000ABD10BD70B5A94C206890F81001C0068C
:109F40005BD5A948A44900780979084000F00405C8
:109F50000620F6F772FB2946A448FFF7DCFF06202F
:109F6000F6F786FBA2480078400746D0680744D53C
:109F70000420F6F762FB9B499948FEF7EAFC0420AF
:109F8000F6F776FB20689649407D42009948F9F73C
:109F900039FF2068017D407D4A00964901EB400071
:109FA0009049F9F72FFF20689349407D420093487C
:109FB000F9F728FF2068017D407D4A008F4901EBB9
:109FC00040008F49F9F71EFF2068017D407D08445D
:109FD000410088480FF09DFC8A4D68802068017D13
:109FE000407D0844410085480FF093FC2880BDE87F
:109FF000704010210520F6F741BA70BD2DE9F041FF
:10A000007548794E4FF0000880F800807E49356829
:10A010000D427CD0406805407C480078002876D10D
:10A020000620F6F70AFB29467048FFF774FF6B4CD1
:10A03000774F206890F8A011C90709D03078000642
:10A040000CD43878022809D06848FFF71BFC05E0DB
:10A0500090F85C016F4900F00F0008700620F6F7D9
:10A0600007FB680709D50420F6F7E7FA5D495C4865
:10A07000FEF769F80420F6F7FBFA3878022802D1D7
:10A080003068002801DAFFF701FE594800784007E0
:10A090003AD0680738D520685149407D420055487C
:10A0A000F9F7B0FE2068017D407D4A00514901EB7F
:10A0B00040004C49F9F7A6FE20684F49407D420018
:10A0C0004E48F9F79FFE2068017D407D4A004B49CC
:10A0D00001EB40004A49F9F795FE2068017D407D7B
:10A0E0000844410043480FF014FC464D6880206846
:10A0F000017D407D0844410040480FF00AFC288063
:10A1000010210520F6F7BAF9434981F80080BDE82F
:10A11000F081314910B500204860FFF719FCFDF7C8
:10A1200073FCFFF746FABDE81040FFF737BA2A4C38
:10A1300008B500256570FFF7ECFF4FF6FF766078F5
:10A1400068B30128FBD16B46002255210420F6F7A5
:10A15000D4F90098C00706D031460420F6F7BDF9BF
:10A16000FFF7D7FF65700098400705D50421084622
:10A17000F6F7B3F9FFF742FF0098400605D54021F6
:10A180000420F6F7AAF9FFF7D5FE0098C006D6D549
:10A1900010210420F6F7A1F9FFF7A4FECFE7042170
:10A1A0000020F9F706FC6B46002202210420F6F796
:10A1B000A4F904210120F9F7FCFB00988007BED523
:10A1C00031460420F6F789F9FFF7A3FF01206070FC
:10A1D000B5E70000E4051000240410003C02100064
:10A1E000B02A0120EC2A01209802100034AF01208F
:10A1F000D00510008626100098320120022710009A
:10A20000D432012070261000140200805D0210007C
:10A21000B8021000B7021000B4021000FE4800217E
:10A220008171C1710172017141717047FA48002159
:10A230000161C1707047F84900B501208870FFF7CF
:10A24000F5FF5DF804EBE9E7F3480021C1604170D8
:10A2500001218170704700B5FFF7E8FFEE4901204A
:10A26000887000BD2DE9FC4789460746F9F73EFB9B
:10A270000090F9F767FB019004216846F9F7A3F90C
:10A280000446042101A8F9F79EF92044E24C460057
:10A29000E2492069E24D704301EB400029687200F9
:10A2A000B1F8F3823946F9F7ADFD2868216990F8D5
:10A2B000F202884202D10120E07002E0E078012839
:10A2C00019D1D64F002014E02A68012137F9103047
:10A2D00092F8F222521C05E006FB010C491C37F9EA
:10A2E0001CC063448A42F7DCA3EB080229F8102063
:10A2F000401CB042E8DB286890F8F21220698142E5
:10A3000001D3401C00E000202061E078BDE8FC871C
:10A310002DE9FC4115460E460746F9F7E7FA00908D
:10A32000F9F710FB0190009804214008009068465E
:10A33000F9F749F90446042101A8F9F744F900EBBB
:10A34000440C07EB440207EB4C03014606EB4407C1
:10A3500006EB4C06002006E032F810C00CFB05FCB2
:10A3600027F810C0401CA042F6DB002006E000BF2A
:10A3700033F810206A4326F81020401C8842F7DB8F
:10A38000BDE8FC812DE9FC47154689460646F9F7EC
:10A39000ADFA0090F9F7D6FA019004216846F9F772
:10A3A00012F90446042101A8F9F70DF901463046D7
:10A3B00006EB440305EB4407002207E030F802CB2C
:10A3C00033F8028B521CC44427F802CBA242F5DBBF
:10A3D00001EB440206EB840006EB420305EB420668
:10A3E000002207E030F8027B33F802CB521C6744AE
:10A3F00026F8027B8A42F5DB48462946002204E023
:10A4000030F8023B21F8023B521CA242F8DB09EB78
:10A41000440005EB8402002105E000BF30F8023B58
:10A4200022F8023B491CA142F8DB6FE72DE9FC4111
:10A430007B4D794C0127286821784FF00008B0F84F
:10A44000AE6159B9A2788021CDE90012427D7F2307
:10A4500074497548FFF791FC84F8028073480078CE
:10A46000062809D002200090286832B26D49437D49
:10A470006D48FAF76DF810E029680126B1F84D0132
:10A4800000964B7D02B267496748FAF761F80027EA
:10A49000012804D04046C4F80C80207011E02078D8
:10A4A00078B9E068401CE060296891F81A1181428F
:10A4B00001D26670267001F0C0F801210220F5F784
:10A4C000DDFF38465CE7F0B40B465549096891F862
:10A4D0009417C90715D056490968490011D400EBF3
:10A4E0004204002109E000BF30F8025B34F8026B3F
:10A4F000491C354423F8025B09B29142F4DBF0BCFD
:10A500007047F0BC014652001846F9F77BBC70B5A5
:10A51000474E0025307810F0940F44D0404C42490B
:10A520002068427D4348FFF7CEFFFFF77FFF0546D7
:10A53000012838D1206890F89407C1073E4809D017
:10A540003168490006D40C30344A03C8F83AFFF7A2
:10A5500019FF04E03149C068F839F9F7ECFE3078AA
:10A56000000608D520682D4990F89327F839521C29
:10A570000846FFF7CDFE2068304990F8F102C00789
:10A580002648A0F1F80002D0FFF76CFE01E0F9F7D1
:10A59000D2FE206890F8F102C00704D01E48C078AF
:10A5A000012800D00025284670BDF8B50746204890
:10A5B0001B4D012600782968400702D5B1F8E72233
:10A5C00001E0B1F8E9221948DFF874C0124C0378B1
:10A5D0000220062B10D00090087D4A7D00FB02F37C
:10A5E000B1F9E9220CEB400107EB4000F9F7B0FFAD
:10A5F0002070012842D046E091F8103100261B0758
:10A6000041D50090087D497D12B200FB01F30CEBAF
:10A61000400107EB400015E02C0410002851100009
:10A620003C021000741A0120381A0120B8021000F0
:10A63000580410002CB001200056100034AF012047
:10A64000A8000120F9F784FF012803D00020E06072
:10A65000207018E02078B0B9E068401CE0602968FC
:10A6600091F81A1181420ED201206070207000F022
:10A67000E4FF01210220F5F701FF04E0F74801683B
:10A6800041F0010101603046F8BD2DE9F041F44D83
:10A690000E46034629681446DFF8CCC34F7D087D7B
:10A6A00007F10107024607FB04F700FB07F0ED4F37
:10A6B000274417F8017C8CF8047091F861100907A1
:10A6C00000D51044420019463046F9F79BFB286834
:10A6D000017D407D401C641E6043414306EB410008
:10A6E000BDE8F0812DE9F84FDFF874A380460646F7
:10A6F000DAF80000DFF870930F46447D007D641C9B
:10A70000444399F80710484689F8081000254FF08F
:10A71000010B4AE0C279D54B02FB04F103EB410681
:10A7200005FB04F108EB410100910BFA02F10279FB
:10A73000114389F8041031460098F9F718FEDAF849
:10A74000000090F8611009071CD5791E8D4208D1D0
:10A75000007D4200009800EB440106EB4400F9F74D
:10A7600051FB99F8070068B9DAF80000017D90F80C
:10A77000F3064A000009BD49604301EB4000314641
:10A78000F9F740FB99F807104846491CC9B289F807
:10A790000710DAF8002092F8F326B1EB121F03D36A
:10A7A0000021C17189F806B06D1CBD42B2D330469C
:10A7B000BDE8F88F2DE9F047DFF8A4820646914600
:10A7C000D8F800000D460224007D3146420028469C
:10A7D000F9F718FBB9F1010F00D1012401270CE0B2
:10A7E000007D00FB07F14200604306EB410105EBF1
:10A7F0004000F9F707FBA41C7F1CD8F80000417D3E
:10A80000491CA142ECD8D8F8001091F86110090752
:10A8100021D50123B9F1000F10D0427D017D521CDA
:10A8200003EB52034B434A4305EB420006EB430361
:10A830004A00BDE8F0471946F9F7E4BA417D027DC8
:10A8400003EB5103491C5343514306EB430305EB10
:10A8500041005200EDE7BDE8F08770B5034684483B
:10A860000C460068820001D5002202E0C20004D537
:10A8700001221846FFF79EFF14E07E4AC504127EAF
:10A8800004D511461846FFF72DFF05E0800405D5D5
:10A8900076491846FFF7F9FE044603E00122184600
:10A8A000FFF7F3FE204670BD2DE9FC41DFF8C881BB
:10A8B000002698F80000042801D0FFF7AFFC6C4F89
:10A8C0006C4C674D3878C0071AD06C496068FFF748
:10A8D000C4FFFFF76AFE06463868C10510D529682F
:10A8E00091F89417C90707D0400005D4D4E90410A3
:10A8F000634AFFF747FD03E061496069F9F71BFD13
:10A90000388840040CD52868017D90F8D10000F00B
:10A910000F00401C41434A005A48A168F9F772FAF7
:10A9200098F80000022868D13868C10565D5296803
:10A9300091F89417C90707D0400005D4D4E9041052
:10A940004F4AFFF71FFD03E04D496069F9F7F3FC3B
:10A950004D494B48F8F7D0FF4C494948F8F7F3FF09
:10A96000286890F85012C90747D090F810110906CE
:10A9700043D590F85011DFF810C1444C09071BD59E
:10A98000427DB0F93412CDE90012B0F93232404ABA
:10A9900040496046F9F713FE2868027DB0F9381285
:10A9A000CDE90012B0F936323B4A3C492046F9F76E
:10A9B00006FEDFF8DCC0384C012700972868A8465F
:10A9C0003449437DB0F9AE216046F9F7C1FD054633
:10A9D000D8F8000090F85012890708D40097037D3A
:10A9E000B0F9AE212D492046F9F7B2FD054325B156
:10A9F0001D480126017801B907703046C0E470B5E2
:10AA0000174C27482168027891F8C810CB0723D04B
:10AA10008B0721D5234B1B78C1F38205012101FA55
:10AA200005F52B4214D00170C8B2824214D001281F
:10AA300010D0CD2001F0A6F9206890F81001C006D2
:10AA40000AD5BDE870404FF480710520F5F716BDBA
:10AA50000021E8E7CC20EDE770BD0000E402100023
:10AA60003C0210005CAE01002C04100020B201205A
:10AA70005804100000561000B8021000B80C100066
:10AA800040190120401801202C2B0120682B0120A7
:10AA9000384F100048170120744F10008417012010
:10AAA0006F0210004B0000202DE9F04742494FF0A3
:10AAB0000009C1F80090FFF7A2FF4048404D007820
:10AAC00020B1F8F774F9C5F80090C4E63D4F386836
:10AAD00090F81001800701D5F7F7E4FF3A4C207891
:10AAE0000128F0D00620F5F7A8FDFFF7DDFE0646A9
:10AAF000FFF70DFD82460620F5F7BAFD33492868B9
:10AB0000DFF8CC800860012E22D12078022801D005
:10AB1000032809D198F80000012805D100F08DFD27
:10AB200001210220F5F7AAFC2078072804D0062886
:10AB300002D0022803D007E04FF4007105E0286836
:10AB4000002801DB082100E004210320F5F796FC32
:10AB5000BAF1010F06D12078072812D00421042071
:10AB6000F5F78CFC20780628ADD128680028AADAF1
:10AB700098F800000028A6D10620F5F75EFD16B172
:10AB800016E04021EBE72878800711D00121002052
:10AB900001F0A4FE386890F8CF06C00708D00D4831
:10ABA000008810F4846F03D000210B4801F0B2FC40
:10ABB0000620F5F75DFD86E7E40210000056100060
:10ABC000580410003C021000B80210009802100057
:10ABD0002C041000D0051000B80C1000FE4AFF4BEA
:10ABE000A2F12401C878125C1A70401CC0B2C8706F
:10ABF000042801D10020C870704710B501461C22FE
:10AC0000F748F9F7FFF80221BDE810400846F5F7CC
:10AC100035BC70B5F34D0446286890F8FD06C007B2
:10AC20002CD02078F04E10F0060F15D0A0788007B9
:10AC300012D4F9F7C2FD012821D0608840F002004B
:10AC40006080286890F8FD06000717D520210620AF
:10AC5000F5F714FC01203070286890F8FD06000715
:10AC60000CD53078012809D1F9F7A7FD012805D1C5
:10AC700010210620F5F702FC0020307070BD2088FE
:10AC8000C0F341010329E7D140F006002080E3E74B
:10AC9000D6490978022915D1D249096891F81011CD
:10ACA00089060FD5CC4924390A468B7A9269012B43
:10ACB00009D001238B7242F000528A61C16801F011
:10ACC0005531C160704700238B7242F080528A6117
:10ACD000C74AC1681140F4E72DE9F04399B0054631
:10ACE0006846F9F74FFBBC4CC248243CC24AA561F8
:10ACF00001881180C149BD4EDFF8E8824988018092
:10AD0000E8074FF001074FF0000971D0BDF80000CF
:10AD100040F00102ADF80020D8F8000090F8B03003
:10AD20009B060DD590F8D13003F00F035B1C042B6C
:10AD300006D842F40062ADF8002045F48042A261DA
:10AD400090F8F226D2070ED03278072A0BD0062AC6
:10AD500009D0BDF8022022F48062ADF80220A26979
:10AD600042F40052A26190F86120120705D5BDF8A7
:10AD7000002042F48072ADF8002090F82011DFF836
:10AD800080C2A04ACB0701D0137833B190F80337C3
:10AD9000DB0730D0C9072CD02DE0317804291CD036
:10ADA000002D1ADB90F822118DF8171090F8211160
:10ADB0008DF81E1090F8231135E000BF8DF86070FB
:10ADC000A16921F40051A16133E0A06940F48060E1
:10ADD000A0616846FFF75CFF36E090F8F206800756
:10ADE00009D5002D09DBA06940F48050A0612BE05B
:10ADF00046E0117821B1002D26DA8CF8009037E07A
:10AE00003178072903D0062901D00229E5D1002D88
:10AE1000E3DB90F805178DF8171090F804178DF8FC
:10AE20001E1090F806178DF8221090F8F216C90738
:10AE3000C4D190F861000007C7D5BDF8000020F428
:10AE40008070ADF80000C0E79CF8000001280FD129
:10AE5000D8F8000090F85012C90709D090F81001F6
:10AE6000000605D5002D03DB4FF48060ADF800002F
:10AE7000E80505D5BDF8000040F48060ADF800009D
:10AE800015F0140F20D0D8F8000090F8A011C907D1
:10AE900006D090F89417C90702D03178032907D05B
:10AEA000317802291DD007291BD0062919D005E0C9
:10AEB000BDF8000040F01000ADF80000BDF8000043
:10AEC00040F00600ADF800006846FFF7A2FEAFF2C2
:10AED000D5200290E7716846F6F7C6FC19B0BDE8C8
:10AEE000F083002D01DA022910D090F8F826D2075D
:10AEF00003D090F8FB268DF84820BDF800200629E5
:10AF000042F00202ADF8002007D020E0BDF80000BA
:10AF100040F00600ADF8000019E090F8021709B102
:10AF20008DF84410BDF8021040F20222114321F0C6
:10AF30002001ADF80210A16941F08041A16190F8B3
:10AF4000F816C90703D090F8FA068DF848008DF876
:10AF50004690A06940F08000A061B5E721490968EA
:10AF600091F8FC20104491F85027C0F38D00801A0E
:10AF700080B20C2800D20C2091F8D210401AC0B236
:10AF800070472DE9FC47DFF85C80D8F8000090F8A6
:10AF9000DA06C0077ED01C4EB71C30785A2801D084
:10AFA000C52802D138785A2874D0F9F706FC012850
:10AFB00070D100242046F5F740FBF7F76FF8134DEA
:10AFC00028800020F5F754FBD8F800304246B3F84B
:10AFD000DC164FEA510C1BE0640410002000002036
:10AFE000005610003C021000FA021000B8021000D7
:10AFF000ABAAAAAAC8021000C60210005026100070
:10B000005702100072021000ECFF01008C031000C8
:10B0100001EB51000FFA80F82888604501DB4045BC
:10B0200007DD02B00202BDE8F04701218A2000F0EE
:10B03000C1BD914693F8DE26A8460A445A258242AD
:10B0400008D393F8DF26891A814203DC02023570A7
:10B0500002214DE0FE49898989B2A1F5AA42AA3AA6
:10B0600043D00020F5F7E9FA01A96846F7F73DF863
:10B07000D9F80000B8F80010B0F9DC2690F8DB062B
:10B08000511A91FBF0F09DF80010084404B2002C16
:10B0900003DA00E072E0002402E00F2C00DD0F2450
:10B0A00041EA042203218A2000F084FDE0B28DF8F9
:10B0B00000009DF80410F7F72AF8F6F7EFFF0446B2
:10B0C000B8F80000042140EA04428A2000F072FD32
:10B0D000A8F800400020F5F7CBFADE499DF8000003
:10B0E0000870C5203070012405E00202357005218A
:10B0F0008A2000F05FFDD9F80000D74B90F8DA06FF
:10B10000800713D5B8F80000FFF728FF064618702F
:10B110003D70324606218A2000F04CFD4EB10124DC
:10B12000FAF75CFB0020FBF787F804E000201870BA
:10B130003D70012C1AD00EF006F9012C1ED1C74823
:10B1400040F6B772016811430160C548016841F4D7
:10B1500000510160C348016841F400110160BDE87D
:10B16000FC474FF480610120F5F788B9FAF736FB08
:10B170000020FBF761F80EF0E6F8E0E7BDE8FC8799
:10B1800080B2F5F796BCB84810B50278B749B84810
:10B19000022A4B79006813D0062A1BD0072A1CD03C
:10B1A000012B1DD0022B1ED090F8134190F81031C6
:10B1B0005B0628D54B7A042B1BD0042A16D018E046
:10B1C00090F81741022BF1D190F81531A342EDDD33
:10B1D0001C46EBE790F81841E8E790F81941E5E7DD
:10B1E00090F81441E2E790F81541DFE790F81B3141
:10B1F0000B7291F90830002B02DD5B1E0B7201E02F
:10B2000090F80F414A7204B91424F5F728FD00287C
:10B2100000DD6400204610BDF0B5954905460020CC
:10B220000C6894F82070F90743D08F490A788F4949
:10B23000022A1CD0072A1AD0062A18D094F83930CE
:10B240008C4E36781EB194F84944E40732D08A4CCB
:10B2500024780CB1BC062DD5CC68641CCC609C4213
:10B2600027DD0023CB6085490978B9B117E0844B0D
:10B270001B78012B0CD0072A0DD0062A0BD094F88E
:10B280003A300E78032EDBD2761C0E70CB60D7E7F7
:10B2900094F83F30F5E794F85630F2E701202EB9E4
:10B2A000072A03D0062A01D040F01400284040F0BD
:10B2B0000040F0BD5A42CA60F0BD10B56B4B02466B
:10B2C0000020694C1B690146062A02D0072A0BD0D0
:10B2D0000DE06C480278012A05D00620207058073E
:10B2E00004D5042003E00170072020700120664A85
:10B2F00018401170624A117010BD2DE9F04F002501
:10B30000DFF868910346A846D9F810602846AC4695
:10B310002F46F1072A4611D05C495D4C0978012976
:10B3200009D05449097831B92178012903D0594904
:10B330000978012902D122704FF0010C49467407A7
:10B3400008D54D4C2478012C03D0534C2478012C83
:10B3500000D10127464CDFF844A1DFF824B1DFF823
:10B3600008912468BCF1010F06D0042B06D0032BF2
:10B370000ED0022B33D034E0CA613EE00A62C869C5
:10B38000401CC86194F85D71874236DACA612FE0CB
:10B39000434F3F78012F0FD0424F3F78012F0BD002
:10B3A0009AF80070012F07D094F81071FF0718D099
:10B3B0008F79012F02D014E00A6212E00F6A7F1C1D
:10B3C0000F6294F812C10CEB8C0CB7EB4C0F08D346
:10B3D000354D0A628BF800200120287012E0012F01
:10B3E00004D0032B04D0022B0CD016E0CA610A62F1
:10B3F000032789F8007017200FE0042789F80070F0
:10B4000003200AE0022589F800500125700703D5C2
:10B4100016204FF0010800E0132099F800709F42B9
:10B4200001D08AF8002094F850323040DB073FD03A
:10B4300094F82032DB0709D194F81A34DB0705D1E0
:10B4400094F810311B0633D5022F31D12EE00000C5
:10B45000F8271000EDFF0100EFFF01004802100087
:10B460004C02100050021000B802100040041000FE
:10B470003C0210005D021000640210006702100020
:10B48000580210002D041000570210006002100036
:10B49000650210002C04100066021000C3021000A8
:10B4A000A0021000A10210002E04100040F48070D1
:10B4B000FC4B002D1D708BF8008000D10A70BDE898
:10B4C000F08F2DE9F041F84FF84E0124386890F8DC
:10B4D0001001C106307800D50446F54D002104283E
:10B4E000696108D0032806D0022804D0062805D0B8
:10B4F000072803D007E0FFF700FF01E0FFF7DDFEBC
:10B500006969084368612869FFF786FE696908432D
:10B510006861307884420AD0386890F81001C0061B
:10B5200005D5BDE8F04140210520F4F7A7BFBDE8EF
:10B53000F08138B5DC4C206890F8E602C00701D0F5
:10B54000FFF74CFBFFF7BDFFDA490868002809DD6B
:10B55000D94A127832B9401E086003D10221062070
:10B56000F4F78CFFFFF70FFEFFF70AFED04D40F215
:10B570001731686908421DD0FFF703FD0020F5F779
:10B580005CF86869FFF7A8FB02216B4600220846B9
:10B59000F4F7B3FF02210846F4F79FFF206890F804
:10B5A000E602C00701D0FFF719FBFFF77DFA002084
:10B5B000F5F75EF838BD10B501210220F4F78DFFD4
:10B5C000BDE81040B5E710B54FF480610220F4F7F4
:10B5D00084FFB6480178022901D103210170B449E2
:10B5E0000020887110BD10B54FF400610220F4F7FF
:10B5F00074FFAF490120887110BD10B540210220B1
:10B60000F4F76BFFA9480178012915D006210170D4
:10B61000FEF71AFEA6490020C8610862A149087019
:10B62000A148006890F81001C00605D54021BDE88A
:10B6300010400520F4F722BF10BDF5F760BA9C4911
:10B6400000209E4A486188611060C8610862C86035
:10B65000944908709A4908709A49087070472DE912
:10B66000F041002704210220F4F737FF9648904E5E
:10B670000568306990EA050420D02C404FF6FF7829
:10B6800007D030B9012741460220F4F726FFFFF723
:10B69000D6FF600701D5FEF7DEFD844C356175B13C
:10B6A0000321012F15D02078022807D100207D4AE0
:10B6B0003062F0611070824A1070217037E7F5F740
:10B6C0001EFA012020704146BDE8F0410220F4F747
:10B6D00004BFE80702D00420207000E02170BDE81C
:10B6E000F04126E770B50446714D000705D50821E5
:10B6F0000220F4F7F2FE00206871E00605D5102163
:10B700000220F4F7EAFE01206871E00406D54FF448
:10B7100080510220F4F7E1FE02206871624800685F
:10B7200090F81001C00605D5BDE870404021052005
:10B73000F4F7A4BE70BD10B5F5F7E1F95B4901203F
:10B7400008705B4900200871BDE810404FF6FF719A
:10B750000220F4F7C2BE38B5534C41F25D112068A7
:10B7600090F81001C00601D541F65D516B460022EC
:10B770000220F4F7C2FE0098400804D00222694675
:10B780005520F8F7D0FF0098C00501D5FFF7D3FF8B
:10B79000009841F21801084201D0FFF7A3FF00987A
:10B7A000400701D5FFF75BFF0098400622D54048CF
:10B7B000002141703D490978072919D1216891F884
:10B7C0001011CA064FEA017108D58078002902DB02
:10B7D00002280DD007E003280AD004E0002907DA88
:10B7E0008078012804D040210220F4F776FE01E0A1
:10B7F000FFF703FF206890F81001C00609D50098F4
:10B80000000501D5FFF7EFFE0098400501D5FFF7D1
:10B81000DAFE0098C00701D0FFF7CDFE38BD2B48F7
:10B820000078234910F01F0001F1240108D00728F7
:10B830000CD0421E0A704870421C8A70C870704753
:10B8400000200870012048700222F6E705200870E9
:10B85000062048700722F0E7144810B50122027054
:10B86000134800211A4B0161417141618161C1613D
:10B8700001621970174B194C1970174B5B882380A4
:10B88000174C23808271C171FF2101724272FFF750
:10B89000C6FFFEF7D0FCBDE81040502111480FF064
:10B8A00020B90000570210003C021000B80210003E
:10B8B00040041000E00510005D0210009802100026
:10B8C000580210002C041000E40510002000002095
:10B8D000B5021000C402100050261000C60210006D
:10B8E000C80210005800012008B502210020F8F716
:10B8F00060F86B4600224FF400710220F4F7FDFD62
:10B9000002210120F8F755F8022269465620F8F77F
:10B910000AFF0098800509D5FFF79EFF4FF6FF71DB
:10B920000220F4F7DAFD1B490120087108BD194C0B
:10B930000020207106E0207920B10128FBD1FFF71B
:10B940000AFFF8E7FFF7D0FFF5E712490020C861CA
:10B9500008621149087011490870704710B5F5F771
:10B96000CEF80121BDE810400220F4F787BD10B5E4
:10B97000084CE079012809D1F5F7C1F808480068BA
:10B9800090F8160100B90120FFF7FAFB0020E071E2
:10B9900010BD7047400410005702100058021000FC
:10B9A0003C02100010B504460220F4F746FE204683
:10B9B000F5F75EF9BDE810400220F4F759BE1CB55A
:10B9C00000210091019102789DF8001062F30301BB
:10B9D0008DF80010427862F307118DF8001042894B
:10B9E000BDF8011062F30B01ADF801100289BDF83A
:10B9F000021062F30F11ADF8021081798DF8041076
:10BA0000C1798DF805100179CA099DF8061062F315
:10BA1000C7118DF80610027962F306018DF8061041
:10BA200080788DF807006846FFF7BCFF1CBD1CB589
:10BA300000200090019002208DF80000FE48006870
:10BA4000C007400E8DF807006846FFF7ABFF1CBD2E
:10BA50001CB500210091019101788DF8001041780A
:10BA60008DF80110C188C1F307118DF8021081888B
:10BA7000C1F307118DF80310017901F00F018DF862
:10BA80000410827941EA02118DF8041081788DF852
:10BA90000510C07800F00F008DF80600E648006839
:10BAA000C007400E8DF807006846FFF77BFF1CBDFE
:10BAB0001CB5002000900190E04800684178827831
:10BAC00010208DF800004006437A8DF80130DC4BE1
:10BAD0001B788DF8023043891B0A8DF803304089AA
:10BAE0008DF80400D4488DF805108DF80620006804
:10BAF000C007400E8DF807006846FFF753FF1CBDD6
:10BB00001CB500200090019011208DF80000CA485B
:10BB10000068C007400E8DF807006846FFF742FF37
:10BB20001CBD2DE9FC41064600200090019012202A
:10BB300015460C468DF800004FF008571EE0200A0D
:10BB40008DF80100C4F30B008DF80240315C3044E5
:10BB50008DF8031041788DF8041081788DF8051068
:10BB6000C0788DF80600D7F8E001C007400E8DF8C8
:10BB700007006846FFF716FF241D2D1F002DDEDC91
:10BB8000BDE8FC811CB50022009201920F228DF8C5
:10BB900000208DF80100080A8DF805008DF80610C8
:10BBA0004020A5498DF80700012008606846F5F798
:10BBB0005FF81CBD1CB5A14B1B6893F8F0379B06C2
:10BBC0001DD5002300930193DB238DF800308DF801
:10BBD00001008DF80210100E8DF80300100C8DF886
:10BBE0000400100A8DF8050093488DF806200068BF
:10BBF000C007400E8DF807006846FFF7D3FE1CBD56
:10BC00001CB5002300930193DB238DF800308DF8E1
:10BC100001008DF80210100E8DF80300100C8DF845
:10BC20000400100A8DF8050083488DF8062000688E
:10BC3000C007400E8DF807006846FFF7B3FE1CBD35
:10BC40001CB50022009201920F228DF800200522DF
:10BC50008DF801208DF8020077488DF803100068F8
:10BC6000C007400E8DF807006846FFF79BFE1CBD1D
:10BC70002DE9FC4104460025009519208DF80000AF
:10BC800040070195417A8DF801106D4909788DF8CA
:10BC900002104189090A8DF803104089674F8DF819
:10BCA0000400654E386841788DF8051080788DF86D
:10BCB00006003068C007400E8DF807006846FFF7A1
:10BCC00071FE00951A2001958DF80000386800F586
:10BCD000FC6001788DF8011041788DF802108178B0
:10BCE0008DF80310C0788DF804003068C007400E4E
:10BCF0008DF807006846FFF755FE00951B2001955B
:10BD00008DF800006068000E8DF801006068000C7E
:10BD10008DF80200A088000A8DF8030020798DF8C4
:10BD2000040020788DF80500207B8DF8060030682F
:10BD3000C007400E8DF807006846FFF733FE0095F8
:10BD40001C2001958DF80000A068000E8DF8010000
:10BD5000A068000C8DF802002089000A8DF803000D
:10BD6000207A8DF80400207C8DF80500207D8DF868
:10BD700006003068C007400E8DF807006846FFF7E0
:10BD800011FEFDE61CB52D49096891F829114906F7
:10BD900003D400F00F010C2919D100210091019169
:10BDA00016218DF800108DF80100010A8DF802109F
:10BDB000010C000E8DF804001F488DF80310006878
:10BDC000C007400E8DF807006846FFF7EBFD1CBD6D
:10BDD0001CB500230093019316238DF800308DF8D5
:10BDE0000100080A8DF80200100A8DF804001248BC
:10BDF0008DF803108DF805200068C007400E8DF8FF
:10BE000007006846FFF7CEFD1CBD1CB5002300935C
:10BE10008DF80000080A8DF802000193100A8DF8D1
:10BE2000050005488DF803108DF806200068C0074E
:10BE3000400E8DF8070005E0E00100223C021000F2
:10BE4000C20210006846FFF7ADFD1CBD1CB5002006
:10BE50000090019080208DF8000005480068C00720
:10BE6000400E8DF807006846FFF79CFD1CBD0000E2
:10BE7000E00100228948006890F82A0100F00700DC
:10BE8000801C00EB8000C006000EF4F7D7BD2DE942
:10BE9000F041834D286820B30520F4F7CEFB002441
:10BEA0005FF00107286807FA04F6304213D004EB6C
:10BEB000440005EB800898F8060005280BD1042102
:10BEC0007848F7F780FBC1B208F10600FFF777FD6D
:10BED0002868B0432860641C0A2CE3D30520F4F7DB
:10BEE000C7FB7048001F4068002802D0BDE8F04141
:10BEF000C0E7BDE8F0816A4900EB400210B501EBF4
:10BF0000820101248B796749091F032B4A6802D0FB
:10BF1000042B04D006E0844014434C6002E08440CB
:10BF2000A2434A6004215F48F7F74DFBC0B210BD41
:10BF30002DE9F0475B4E0520361F7768F4F77DFB4F
:10BF4000DFF85891564D00244FF00108296808FA8F
:10BF500004F0014225D004EB440205EB820A9AF872
:10BF60000620032A09D0042A07D0052A19D1D9F8B6
:10BF7000002092F82921D20613D481432960D9F8F0
:10BF8000000090F81001C00603D547480078072844
:10BF900007D060B2FFF7AFFF01460AF10600FFF7D6
:10BFA0000EFD641C0A2CD1D30520F4F761FBD9F8EF
:10BFB000000090F82901C0060CD570682FB1002848
:10BFC00008D1BDE8F047F4F746BD002802D0BDE82F
:10BFD000F0474FE7BDE8F08732490020091F48606D
:10BFE00080212F480EF07DBD2E4C08B5241F002562
:10BFF0002570F4F730FD207850B30128FBD10022E2
:10C000006B4607211046F4F778FA0098400706D5EA
:10C0100004210020F4F761FAF4F71DFD2570009863
:10C02000800705D502210020F4F757FAFFF780FFBB
:10C030000098C007DFD001210020F4F74EFA17481E
:10C04000006890F82901C006D5D5FFF720FFD2E798
:10C0500000210846F7F7ADFC00226B460821104688
:10C06000F4F74BFA00210120F7F7A3FC0098000732
:10C07000C1D5FFF7B1FFF4F7EEFC0F210020F4F774
:10C080002CFA01202070B6E710B5F4F7E4FC01218A
:10C09000BDE810400020F4F7F1B900003C021000A8
:10C0A000D02510006C041000B8021000F0B4FD4C54
:10C0B0000B4601462068012A90F8CB5605F00F0583
:10C0C000C5F1100601D0002013E0007DF0BC420055
:10C0D0001846F7F797BE00BF33F9102031F91070FA
:10C0E0006A4307FB062242F30F1223F81020401C7C
:10C0F00000B22268127D8242EEDCF0BC70472DE96E
:10C10000F0478A46089971B12024DFF898930521F9
:10C11000D9F8006096F8CF56B1EB151F55D3E24918
:10C12000C3B1002510E00024EFE7002301EBC517A1
:10C1300007E000BF30F813C003EB04085B1C27F8CE
:10C1400018C09342F6DB6D1C96F8CF36B5EB131F83
:10C15000EBDB1FE04FF0FF3313EB15130FD400257B
:10C1600001EBC31607E02F196D1C36F817C006EB5C
:10C170004707A7F880C09542F5DB5B1EEFD500238B
:10C1800006E000BF30F813501E195B1C21F8165052
:10C190009342F7DB00204E4615E0376800252B461A
:10C1A00097F8CF7600EB040C07E000BF01EBC31853
:10C1B0005B1C38F81C8045442DB2B3EB171FF5DB30
:10C1C0002AF81050401C9042E7DBBDE8F087F0B53C
:10C1D000B44A0026354617683446334697F814C0EB
:10C1E00014E000BF30F91320002A01DB964601E07D
:10C1F000C2F1000E8E4507DD002A04DA5242641CAB
:10C200001544E4B200E016445B1C1BB2B3EB4C0FC8
:10C21000E8DBB54203DC97F8CD06A04201D201204D
:10C22000F0BD0020F0BD70B500239E4C09E000BFBA
:10C2300031F8135030F81360AD1B22F813505B1C1B
:10C240001BB225682D7DB3EB450FF1DB70BD2DE9E9
:10C25000FF4F8E469649834600200A8A097A02F4E7
:10C2600080460E438F49DFF8449205460A6804462B
:10C27000074607D0012B02D0B2F8D61606E0B2F876
:10C28000D21603E0012B0AD0B2F8D416854E0FFA6D
:10C2900081FC002136684FF0010A367D12E0B2F8C9
:10C2A000D016F3E73BF91130634506DD401C0AFA6E
:10C2B00001F8C0B21D4448EA04044B4500DD99462C
:10C2C000491C09B28E42EDDC0021D4460AE000BFD1
:10C2D0000CFA01F3234203D03BF9113001FB037741
:10C2E000491C09B28E42F3DC97FBF5F192F8D8367F
:10C2F0008B4202DC741A9C4201DA92F8D9369842D9
:10C3000000D200208EF8001002990D6004B0BDE844
:10C31000F08FF0B5634C226892F8C2261309C3F17E
:10C32000100500220CE000BF31F9127030F91260E4
:10C330005F4306FB057646F30F1621F81260521C88
:10C340002668367DB2EB460FEEDBF0BD2DE9FF41EE
:10C3500000250446009501958DF808508DF80C5085
:10C36000A84601236A4602A9FFF771FF4D4E074612
:10C370000023306801AA03A9007D04EB4000FFF709
:10C3800066FF4B4C01460120A570022F01D3022904
:10C3900000D2A070A7B399B360712572617811B112
:10C3A00001290BD024E0617A491CC9B2617232685C
:10C3B00092F8CE26B1EB121F0DD819E02169C9B150
:10C3C000A17A491CC9B2A172326892F8C32602F060
:10C3D0000F02914212D96070C4F81080A572657284
:10C3E00020788022401C207032493348F7F70AFD3C
:10C3F000206900B9A5726078012816D1657214E031
:10C40000FFE76078012810D16571A5726572207A06
:10C41000401CC0B22072316891F8CE1601F00F01B5
:10C42000884202D92572E5716570306890F8100174
:10C43000C00616D52149607808802149098801295C
:10C440000FD120490A8890420BD0088002211B4856
:10C450000DF05FFA1C4988824FF480510520F4F7F3
:10C460000DF8BDE8FF812DE9F043894647F6F871E4
:10C470004E4201254FF0000C2F4664462BE000BFD2
:10C4800039F8143030F81480A3EB08031BB299423A
:10C4900000DD19469E4200DA1E46002B16DA4FF0E8
:10C4A000000516E03C0210001C5610000880FFFF3B
:10C4B00014330120A82C012028340120F0021000A0
:10C4C000F4021000F20210007026100001DD4FF09F
:10C4D000000704F101049442D2DB55EA070305D0BA
:10C4E000012D01D025B106E0012F04D1002102E089
:10C4F000012F00D1314661440BB2002106E000BF9C
:10C5000030F811401C4420F81140491C9142F7DBDF
:10C51000BDE8F0832DE9F34F07466C486C4D6D4E36
:10C5200003786D492A6881B0012463B98B895B1C4B
:10C530009BB28B8192F8CCC64FEA1C1CB3EBCC0F9C
:10C5400001D90470347065484FF0000C8B460470BC
:10C5500081F806C04378012B00D10293CDF800C0CA
:10C56000127DE2465C4907EB420C804694316046FE
:10C57000FFF7C5FD00942868DFF85C9198F801305A
:10C58000417D027D09F19409514307EB410009EB1C
:10C590004201FFF7B4FD98F8010070B928685049CE
:10C5A000027D4846FFF75FFF2868027D4C4800EB9C
:10C5B000420109EB4200FFF756FF5746464988F80B
:10C5C00001701431C24601F18000029AFFF76EFD3E
:10C5D00028684149A846007D143101EB400109EB70
:10C5E0004000029AFFF762FD3B483E4A3C49143046
:10C5F000FFF719FE9BF802005D46012807D1D8F825
:10C60000000090F8C206C00701D0EF712C713648C7
:10C61000007800B12C71D8F8000090F81011C9060C
:10C620000BD5007D81002F480DF073F92F4948810B
:10C630004FF400610520F3F721FFD8F8000090F8CF
:10C64000CF1689071DD5E97811B1EF72EF7017E0A9
:10C65000B0F9C9162348FFF7BAFD012801D0EF72DF
:10C660000FE0E87A401CC1B2E972D8F8000090F8F7
:10C67000CC0600F00F00B1EB800F02D9EF72EC7026
:10C6800034709AF8000001281DD13078012803D0B9
:10C69000287901280DD012E037702F71EF71D8F88A
:10C6A00000000D49007D143182000D48F7F7AAFB08
:10C6B00005E009482F710A491430FFF72AFEBDE84A
:10C6C000FE4F084842E6BDE8FE8F000076021000EB
:10C6D0003C02100075021000143301207004100099
:10C6E000282C0120A82C01206D02100070261000BB
:10C6F0002DE9FC47A74E1023DFF89C823068DFF855
:10C700009C92457D90F814C02C4690F8232004FBA1
:10C710000CF11709A3EB12140022CDE900216D1CC6
:10C72000B0F92830B0F9262005FB0CF508EB4C01D8
:10C7300009EB4C00F7F724FF00282AD13368414663
:10C740004E46187D11E000BF31F910C036F91020B7
:10C750000CFB07FC02FB04C24FEAE27C02EB1C72FA
:10C7600042F30F1221F81020401CA842ECDB93F892
:10C77000200000070DD58848F7F743FC88490023BF
:10C78000884A086002B00146BDE8F0478248F7F7E2
:10C7900070BCBDE8FC872DE9FC477E4C206890F812
:10C7A0005012C9076FD090F823007F4900F00F05A1
:10C7B000C5F110067D48F7F79FF87D497B48F7F7EC
:10C7C000C2F82068DFF8E0C1794F90F821124906DD
:10C7D0001BD5427DB0F93412CDE90012B0F93232E6
:10C7E000744A75496046F7F7EAFE2068027DB0F9A1
:10C7F0003812CDE90012B0F93632704A7049384625
:10C80000F7F7DDFEDFF8ACC16C4F20684FF0000990
:10C81000A046417DCDE90091B0F93133B0F92F2325
:10C8200065496046F7F7ACFE0446D8F80000017D84
:10C83000CDE90091B0F93133B0F92F236049384682
:10C84000F7F79EFE0443A4D10020574F5A4B4446AD
:10C85000D8F8001010E000BF33F9102037F910C0ED
:10C860006A430CFB06224FEAE27C02EB1C7242F3A5
:10C870000F1223F81020401C4A7D8242ECDC00207D
:10C880004B4F4F4B10E028E033F9102037F910C020
:10C890006A430CFB06224FEAE27C02EB1C7242F375
:10C8A0000F1223F81020401C0A7D8242ECDC91F824
:10C8B0002000000711D5434D3F48C5F80090497D41
:10C8C000F7F7A2FC2968084428602068017D3C48ED
:10C8D000F7F79AFC2968084428605AE72DE9F041E7
:10C8E000064639482B4C0D460078072817D00628F5
:10C8F00015D03648007890B9206890F84904400671
:10C9000003D5FAF7AEFD012841D045B9206890F86B
:10C910004904C00703D0FAF751FE012812D020685D
:10C9200090F82000C00732D0294F2A4DB6B12A48CE
:10C93000007800282BD12888C00528D50320F3F7DC
:10C940007CFE16E0206890F81001C0061FD5BDE8F7
:10C95000F0414FF400710520F3F790BD0320F3F789
:10C960006CFE2878C00701D0FFF7C2FE2888C005FA
:10C9700008D5206890F85102000701D5387808B929
:10C98000FFF709FFBDE8F0410320F3F771BEBDE8F2
:10C99000F08100003C021000A8000120B80C10003B
:10C9A00090021000B02510002C2B0120401901200E
:10C9B000682B0120384F100048170120744F1000D9
:10C9C000841701209C041000B802100072021000AD
:10C9D000CA0410009802100044021000FE49002012
:10C9E0000870704700E010460A5C8242FBD1704735
:10C9F00070B500250E4603462C4606E01946204633
:10CA0000FFF7F0FF1855641CE4B2B442F6D30022DD
:10CA10000AE0985C904203D19D546D1CEDB201E098
:10CA2000185C9854521CD2B2B242F2D3284670BD60
:10CA300038B1884202D20B4601461846884200D0DF
:10CA40001154084670472DE9FF4F0546E3484FF063
:10CA5000000B89B000785C46012805D0E0480470DE
:10CA60000DB05846BDE8F08FDE480021012702686E
:10CA70008046137D527D63F3070462F30F2461F354
:10CA8000174461F31F6429E0012621E007EB07103A
:10CA900006EB4000285C002819DDC4F30721384666
:10CAA000F6F7A4FD60F30F24E1B23046F6F79EFDE1
:10CAB00060F30704C4F307413046F6F79BFD60F3CB
:10CAC0001744210E3846F6F795FD60F31F64761C77
:10CAD000D8F80000007DB042D8DA7F1CD8F80010EA
:10CAE000497DB942D0DAC4F3074604F0FF09A6EB4A
:10CAF0000900270EC4F307240090381B014601905B
:10CB00000098F6F777FD8246DDE90001F6F76EFD45
:10CB10000246B34800210170D8F800104FF0010818
:10CB200091F814C0ACF1010CD44539D04B7D5B1E9B
:10CB3000934235D091F82C03504591DB91F82D03A9
:10CB400090428DDB5A210A980DF0A9FF21464246FA
:10CB50001BE0484601EB011314E000BF00EB430C5F
:10CB600015F80C80B8F1000F0BD005F80C20DDF89B
:10CB700028C0DDF82880BCF802C00CF1010CA8F830
:10CB800002C0401C8642E9DA491C8F42E1DA0C9867
:10CB90004FF0010B80F8049086714471C7715FE714
:10CBA00080F800805CE72DE9FF4F99B001200490E8
:10CBB0008C4819689A460068067D477D41B19AF80D
:10CBC00002109AF800905046B14205D2491C04E088
:10CBD0004FF000094D4608E0314645789AF80300C9
:10CBE000CEB2B84200D2471CFFB2002007A90854B9
:10CBF000401C2D28FAD3199905EB051001EB400CC8
:10CC0000681C67E01998E34608EB081100EB410C3B
:10CC100009F101045AE000BF0CEB04001590006814
:10CC200010B31CF8040000B31598002310F8010C91
:10CC300000B103461BF8041021B107AA1846FFF7FC
:10CC4000F7FE03461A9800280BEB04000ED015904F
:10CC500010F8011C21B107AA1846FFF7E9FE0346A8
:10CC600015984178D9B91FE0E41C2EE0189010F80F
:10CC7000011C59B115981BF8042010F8010C104341
:10CC800004D007AA1846FFF7D3FE03461898417848
:10CC900051B115981BF804204078104304D007AA1E
:10CCA0001846FFF7C5FE034613B10CF804300CE03C
:10CCB00004982D2806D20CF804000498401CC0B239
:10CCC000049002E0401E0CF80400641CB442A3D996
:10CCD00008F101008046B84294D907A80499FFF7EB
:10CCE00087FE804641001B980DF0D9FE00204FF6CC
:10CCF000FF7202E04AF82020401C4045FAD33BE096
:10CD0000199905EB051001EB400022304C460590C7
:10CD10002FE00598011901204058A0B3487838B396
:10CD200007AA105C48701B991B9A0AEB800B31F81C
:10CD30001010491C22F810109BF800102046F6F73E
:10CD400055FC8BF800009BF801102846F6F74EFCC6
:10CD50008BF801009BF802102046F6F74BFC8BF88D
:10CD600002009BF803102846F6F744FC8BF80300FA
:10CD7000641CB442CDD36D1CBD42C1D3A8F10100E7
:10CD8000C0B21DB06EE6FFE7E41CF1E72DE9F04309
:10CD9000994655784FF0010C1CE000BF05EB0513D8
:10CDA00000EB430622360023147897780CE000BF8E
:10CDB00006EB040898F90180884503D10CFA04F8C1
:10CDC00048EA0303641CE4B2A742F1D249F82530D3
:10CDD0006D1CEDB2D37807E07404100062021000FD
:10CDE000630210003C021000AB42D7D2BDE8F083D2
:10CDF000F0B5FE4B0026FE4D1C78A0B0012C11D1E1
:10CE00001E700B78002B59D04B78002B56D02B6816
:10CE10008F781C7D641EA74250D05B7DCC785B1E52
:10CE20009C424BD000236C4644F823605B1C202BB3
:10CE3000FAD34B7891F803C01BE000BF50F8237081
:10CE4000B7B17E0846EA47063E4354F8237037439D
:10CE500044F8237004EB8307D7F804E04EEA060E8B
:10CE6000C7F804E0D7F808E04EEA060EC7F808E075
:10CE70005B1C9C45E2D2002304EB8306766840F8F5
:10CE800023605B1C1E2BF7D3012A17D1087808B149
:10CE9000401E0870487808B1401E48702A6888789B
:10CEA000127D521E904201DA401C88702A68C878B0
:10CEB000527D521E904201DA401CC87020B0F0BD75
:10CEC000F0B50025059E2C468F1E00EB410006D4D0
:10CED00030F9045CCF1E02D430F9067C3D448F1C2F
:10CEE000974207DAB0F90440C91C914202DAB0F95E
:10CEF00006000444281B00D540424FF435714843D6
:10CF0000C11700EB91508012A54203DD316808443F
:10CF10003060F0BD196808441860F0BD2DE9FF4F7E
:10CF2000DFF8CCB207460E46DBF80000002585B0DE
:10CF300090F8A0002C46C106AE484FF4803900EBB3
:10CF4000460A29D5002105E037F8112000EB4103FE
:10CF5000491C5A80B142F7D34188018030F816202D
:10CF6000AAF8022000210DE04A1C00EB420330F831
:10CF7000122033F802CC5B88634403EB420227F8AB
:10CF80001120491CB142EFD307A80023009032467C
:10CF900019463846F7F77DFB07994FF0000800293E
:10CFA0001CDCDBF8000090F8A000C00604D5914816
:10CFB000B0F90000019001E0CDF80480701E37F94F
:10CFC00011C00390814224DBDBF8000090F8A00040
:10CFD000C00608D5BAF90200029006E007EB41004E
:10CFE00030F9020CE6E7CDF80880DBF8000090F895
:10CFF000A000000706D502A8009001AB721E3846BB
:10D00000FFF75EFFDDE90110814207DD05460C46B2
:10D0100007E007EB4100B0F90200DDE701DA0D4659
:10D020000446A0EB0102A2FB09064FEAE27303FBF0
:10D03000096102FB08110CEB0402C5F1000302EBCD
:10D0400043024FEAE2730DF0B9FC079CA4FB0936DA
:10D05000E51705FB096204FB08221B184A410899E1
:10D06000A3FB0105CC1702FB015103FB04114A4647
:10D0700000230DF0A3FC039AD3170DF09FFC00B220
:10D0800009B0EFE42DE9FF4F044681B00020DFF83E
:10D0900060910F9D064607460090D9F8000090F871
:10D0A000A000000719D5207808B1401E20706078D4
:10D0B00008B1401E6070D9F80020A078127D521E81
:10D0C000904201DA401CA070D9F80010E078497D48
:10D0D000491E884201DA401CE07046484421443829
:10D0E0000DF0DDFC002293469246607830E0217816
:10D0F0002AE000BFD9F80030D5F82C8093F814C08E
:10D10000431CE64603FB0C1C08EB4C0CDDF80080CE
:10D11000BCF900C0C44502DD761CB6B26744944534
:10D1200002DD62468B46824695F81CC0BCF1010FB9
:10D1300009D10EFB03FC304B0B441CF8038048F074
:10D1400080080CF80380491CA3788B42D2DA401C7B
:10D15000E1788142CBDA6078D9F800100FE000BFA7
:10D1600091F814C000F1010808FB0CB2EB6A03EB64
:10D17000420213881F4A443A22F81030401CE278D9
:10D180008242EDDA1B48497D52464438039BFFF743
:10D19000C5FE0E9908601748442144380DF07FFC05
:10D1A000DFF850802078A8F144080AF10101D9F88D
:10D1B00000200AE092F814C0EB6A01FB0C0C03EBB0
:10D1C0004C031B8828F81030401CA3788342F1DA06
:10D1D0000848117D5A464438029BFFF79FFE049988
:10D1E00008602F61AE8105B03CE4000074041000BB
:10D1F0003C021000E0581000B4A70120F0B5FE4C2E
:10D20000059F2668D6F8105296F81842BD4202D300
:10D2100004F00F040FE0D6F81462BE4201D82409CE
:10D2200009E004F00F0CCCEB14147F1B7C43751B3E
:10D23000B4FBF5F464441668C4F11005604306FBC2
:10D240000500000910601868614300FB0510000923
:10D250001860F0BD2DE9FF4FE748964684B00D7881
:10D2600091F80190CA780068002489780290007DC6
:10D270002346A0465FEA050B2AD1CC4626E000BF34
:10D280000CF101060196DEF82C604FF0000A012532
:10D29000009609E0DDE9006707FB005706EB47064B
:10D2A0006D1CB6F90070BA44A942F3DADDE90065F5
:10D2B000454306EB4505B5F900506D4395FBFAF57E
:10D2C00005FB0C33641BA8440CF1010C6245D7DA52
:10D2D000451EA9422FD1CC462BE000BF0CF1010620
:10D2E00001964E1E0396DEF82C604FF0000A5D4654
:10D2F000009609E0DDE9006707FB005706EB4706EB
:10D300006D1CB6F90070BA44039EAE42F2DA019D7C
:10D3100005FB0016009D05EB4605B5F900506D4371
:10D3200095FBFAF505FB0C3305FB0044A8440CF112
:10D33000010C6245D2DAB9F1000F25D15D4621E03A
:10D34000DEF82C704FF0000A012600970AE0771CE7
:10D3500007FB0057DDF800C0761C0CEB4707B7F958
:10D3600000C0E244B242F2DA009E471906EB4706DB
:10D37000B6F90060764396FBFAF606FB05449B1B64
:10D38000B0446D1CA942DBDA029D6D7D01956D1ED6
:10D39000AA422BD15D4627E0DEF82C704FF0000A40
:10D3A0004E46A2F1010B00970AE0771C07FB0057DD
:10D3B000DDF800C0761C0CEB4707B7F900C0E2446B
:10D3C000B345F2DA561C06FB0057009E06EB4706F3
:10D3D000019FB6F90060764396FBFAF606FB05441A
:10D3E00006FB0733B0446D1CA942D5DA07980460E8
:10D3F000079843600798C0F8088008B0BDE8F08F30
:10D400002DE9F04F89B04FF00009DFF8ECB1864606
:10D41000CDF81090CDF81490CDF81890DBF80000FE
:10D4200014460F46B0F86820217F4D464E46C84648
:10D4300009B9B0F8C82178783EE000BF5EF821A0B5
:10D440003878039032E00120884010EA0A0F2BD090
:10D45000DBF80000D4F82CC0029B007D01935B1C1C
:10D46000009303FB00130CEB4303B3F9003093422A
:10D4700009DDC446DDF8048001FB036608FB03C830
:10D480001D4409F10109237F012B7ED0002B009B55
:10D4900000FB03F0594B0B4410F803C07ED04CF056
:10D4A000200C00BF00F803C0491C0391B878039911
:10D4B0008842C8DA0298401C0290F87802998842A3
:10D4C000BCDADBF8000090F8600000060BD504AB76
:10D4D000224639467046FFF7BDFE0498059906447A
:10D4E00006988844054444480022F3170168087DE3
:10D4F000C98A401E00FB05FAA1FB060C02FB06C20E
:10D5000001FB03214FEAEA7B52465B460DF056FAD7
:10D510000390394841464FEAE87C00680026427D86
:10D52000038B521EA3FB010806FB01816A4303FB28
:10D530000C114FEAE27A53460DF040FA029003983C
:10D54000002800DA00202C4E03903168C98A8142FD
:10D5500000DA084603900298002800DA00200290C2
:10D560003168098B814200DA084602902561A4F8EF
:10D570000C90039961812081207F022811D001281D
:10D5800016D000B35CE000E008E0009B58431B4B62
:10D590000B4410F803C04CF0800C83E74CF0400CB7
:10D5A00080E7306890F88000C00649D5002210E07E
:10D5B000306890F88010C90612D590F8A000400796
:10D5C000F4D4012205E0306890F88000800637D559
:10D5D000022202A903A802F037FA207F01282FD1E6
:10D5E000306890F8A01049072AD508A9CDE90014A1
:10D5F000B0F9182004E000003C021000B4A701209C
:10D60000B0F9161007AB3846FFF73CFD306890F8CC
:10D610008000C00604D5012208A907A802F014FA68
:10D6200020690090DDE9021008AB07AAFFF7E6FDCC
:10D6300008A907A8F6F74AFF0798E0800898A08095
:10D6400002A903A8F6F742FF039800B2608002998E
:10D6500009B22180326892F8A020520701D4E080FC
:10D66000A1800DE52DE9F84F0C4699469246844677
:10D670000027FE4E0FFA8CFCB9F1010F3068B0F9AB
:10D68000BE56B0F9BC16B0F9BA26B0F9B83608D112
:10D69000BAF1010F11D0B0F8B4060244184412B226
:10D6A00003B22846CDF800C0F6F7BCF985B2306861
:10D6B00090F8F1070D2803D00EE0B0F8B606ECE7BD
:10D6C00044EA044200215D20FEF774FA45EA044270
:10D6D00001215D20FEF76EFA3068AC4290F8F10748
:10D6E00008D20D2804D1012202215D20FEF762FA42
:10D6F000012706E00D2804D1002202215D20FEF75B
:10D7000059FA306890F8F1070C2806D1D848B9F1D9
:10D71000010F05D08484C58407853846BDE8F88F9D
:10D72000C48205834783F8E770B5D04D002428688C
:10D73000B0F8BE36B0F8BC26994202D9914200D268
:10D74000012490F8F1070D2804D122460021712010
:10D75000FEF730FA286890F8F1070C2801D1C44888
:10D760008482204670BD2DE9F0418846BF490446B9
:10D77000DDE9060609681F004FF0000506D0012804
:10D780000BD0B1F9AE06012E0ED011E0B1F9AA0608
:10D79000012E0DD1B1F8AC3608E0B1F9BC03012E71
:10D7A00006D1B1F8BE3301E0B1F8B036C01A00B20C
:10D7B000844200DD012591F8F137AD49082B02D0F4
:10D7C0000C2B08D00CE008230B804C808880CA808A
:10D7D0000D814F8204E0012E05D0C8830C844D8456
:10D7E000012D07D014E08A89521C8A81C8810C82DD
:10D7F0004D82F5E721463846FFF796FF012807D10D
:10D8000033463A4641462046FFF72CFF00B9002533
:10D810002846BDE8F0812DE9F04F9146934A8646AF
:10D82000002348784FF0010BCE78D2F800A019E021
:10D830005EF820700A78441C8D7810E00BFA02FC28
:10D840001CEA070F0AD09AF81480D9F82CC004FB00
:10D8500008280CEB480CBCF900C06344521C9542EC
:10D86000ECDA401C8642E3DAC9F81430C6E52DE94B
:10D87000FC4FA2F1010202EBD2727E4B42F34F0247
:10D880000DB20093A5EB02030FFA83FA4FEA21448D
:10D8900005EB0203A4EB020122444FF0000B16B289
:10D8A0005A4680F83E2080F83F20704A1FB209B2E5
:10D8B0001368D94693F86120D2060CD51DB15A7D64
:10D8C000521E954207D11CB11A7D521E944202D1BC
:10D8D000012280F83F20524666E000BF40F6FF7EFE
:10D8E0000C4618E0002A14DB93F815C0944510DDAF
:10D8F000002C0EDB93F814C0A4450ADD02F10108E8
:10D9000008FB0C48DDF800C03CF918C0F44500DA0B
:10D91000E646641C24B2B442E4DDB3F868C0744641
:10D92000F44500DB0024A646954200D1F3460C46A0
:10D9300036E0002A2EDB93F815C094452ADD002C32
:10D9400028DB93F814C0A44524DD02F1010808FB8C
:10D950000C48DDF800C03CF918C0B3F86880E04519
:10D9600001DB4FF0000CCDF804C093F8F1C7BCF117
:10D970000F0F07D1DFF8F8C04FF00008ACF81A809D
:10D98000ACF81C80DDF804C0ACEB0E0CCC440FFAF4
:10D990008CF903E04FF0010C80F83EC0641C24B207
:10D9A000B442C6DD521C12B2BA4297DD93F8F12799
:10D9B0000F2A0ED12E4A0F231380A2F802A09780BF
:10D9C000D1801681A2F80A9090F83E009081A2F8CA
:10D9D0000EB04846BDE8FC8F70B50D46264914468A
:10D9E00006460A7821490020012A096801D191F8E8
:10D9F0007F00227F042A01D0022A10D191F86630DC
:10DA0000E289184482420AD991F8810041064FF018
:10DA1000030003D519490978012900D12077042290
:10DA2000294604F11800F6F7EDF90122294630469F
:10DA3000FFF7DEF9224629463046FFF7E1FC204693
:10DA4000BDE8704009F0D6BA2DE9F041C0B01C46DF
:10DA500090466B46FFF79AF9224641466846FFF723
:10DA6000DAFE074D014E074F28780DE03C0210000A
:10DA7000E0D70120B44501206F021000AC05100072
:10DA80006702100068021000E0B9306890F82002C8
:10DA9000800717D53878A8B9207F022801D001283F
:10DAA00010D18022694620A8F6F7ACF90122414640
:10DAB00020A8FFF79DF9414620A8626904F0C5FC43
:10DAC00001281FD0306890F82002000615D5FE48C6
:10DAD000007890B9387880B9287870B9FB48007818
:10DAE00058B9FB48FB4900780978084305D14146FD
:10DAF000684604F05DFC002804D022464146684692
:10DB0000FFF76AFF40B084E62DE9FF4F86468B465B
:10DB100000204FF6FF755378D67828E003EB031406
:10DB20000EEB440101F12209EB4914789778D1F802
:10DB300000A018E009EB040191F801C0DC4510D108
:10DB40000E999AF81480D1F830C0591C01FB084195
:10DB50000CEB41010988884200D208468D4200D969
:10DB60000D46641C24B2A742E4DA5B1C1BB29E4241
:10DB7000D4DA039908800D990D8004B03EE42DE9B4
:10DB8000F04F9B4682465378DDF824E02CE000BF3E
:10DB9000D24D03EB03100AEB4004AD68223405EBD1
:10DBA000400522351078CC4F4FF0010917E02618B8
:10DBB00076788E4211D13E68DEF830C096F8148037
:10DBC0005E1C06FB08060CEB4606B6F900605E45D7
:10DBD00003DD05EB000C8CF80190401C00B2967838
:10DBE0008642E4DA5B1C1BB2D0789842D0DA05E4B6
:10DBF0002DE9F047B84F8146C8B038681D468846C1
:10DC000090F8706047A8CDE90005144646AB484639
:10DC1000FFF77AFF287F48B9AC48007800283868B9
:10DC200002D090F8EC6601E090F8CE61BDF81811D2
:10DC3000BDF81C016422091A7143B1FBF2F1A74F30
:10DC40000E184FF48861B8680CF029FFB3B2224671
:10DC5000414648460095FFF792FF2068029002ABCC
:10DC60002FAA0121B868FEF79EFF064601281ED99B
:10DC700001240DF1BC0A0DF10809B84612E000BFFD
:10DC80003AF81400E88109EB84072946384601F088
:10DC9000A5FF2B463A462146D8F80800FFF7D4FEE8
:10DCA000641CE4B2B442EBD948B0BDE8F0872B461F
:10DCB000224641464846FFF7C7FEF5E72DE9FC4FEF
:10DCC000874DDDE90B89DFF810B22D78147896784E
:10DCD000DBF80070012D1AD097F87150DFF8FCC105
:10DCE000AA4603EB031500EB4500DCF808C0223020
:10DCF0000CEB45052235D8F830C03F7D5B1CD8467B
:10DD00005F430CEB47034FF0010B1CB10CE097F89D
:10DD1000C950E3E744788C4205D1B3F900704F4510
:10DD200001DD85F801B00124D8F800C097789CF88F
:10DD300014C0ACF1010C674562D1461CBE5D8E4239
:10DD400007D133F917C0CC4503DD05F1010C07F805
:10DD50000CB09278521ED6B252E0021952788A4222
:10DD60004CD133F914204A4548DD02EB0A0E002756
:10DD700003EB4402CDE9002732F9022C964505DA7F
:10DD8000DDF800C0BCF902C0E64537DB012C10D03D
:10DD9000D8F800703F7DBF1EA74217D1009F37F90A
:10DDA000047CBE4527DA009FB7F90270BE4525DB2B
:10DDB00021E0B3F9027007EB0A02B3F90070BA422E
:10DDC00019DAB3F90670BA4218DB14E0964506DAA0
:10DDD000009FB7F90470BE4501DA01220192009F4D
:10DDE00037F9047CBE4504DA009FB7F90270BE45DE
:10DDF00004DB019A12B92F1987F801B0641CE4B250
:10DE0000B442AAD9E6E52DE9FF4F9AB092F8018015
:10DE1000D7780020ADF84800ADF84C001590314897
:10DE20002D4D1E4600781446012825D02C48017837
:10DE300028460129006823D010F1710090F8009065
:10DE4000407812AB824613A8CDE90006DDE91A013D
:10DE5000FFF75AFE2868244990F8760090B1BDF883
:10DE60004820BDF84C300988D21A42436420B2FBE6
:10DE7000F0F0084405B207E04FF001094846E0E73A
:10DE8000C930DBE7B1F90050607848B9CDE90065E9
:10DE9000DDE91A014FF0010800232246FFF70EFFCB
:10DEA0000D48E1780068407D401E814209D1CDE9EE
:10DEB0000065491ECFB2C3B2DDE91A012246FFF761
:10DEC000FDFE404603E10000CA041000720210008B
:10DED0006A0210006B0210003C0210007404100073
:10DEE0006F02100063021000EC0410001A9A00EB9D
:10DEF000001102EB410202F1220BFE4A00F1020C7A
:10DF000000F10308926802EB410122310A91FA49BB
:10DF1000336B421E0968097D4A4303EB42020D92AE
:10DF200001FB00F203EB42020792421C96464A4371
:10DF300001FB0CFC01FB08F103EB4101089103EB31
:10DF4000420203EB4C0C2178BBE000BF0BEB01035A
:10DF500093F801801B9B98457ED132F911300393D1
:10DF6000AB4279DD00230593039BDDF81C804B4415
:10DF7000019338F91180CDF85080434505DA3CF91A
:10DF80001180434501DA0123059300297ED0DA4B45
:10DF90001B6819931B7D18935B1E8B427BD002EB91
:10DFA00041030993DDF8048033F9023C0E93984550
:10DFB00008DA4346DDF82480B8F90280434501DAE7
:10DFC00001230593039BDDF81C80534408EB4108B3
:10DFD0000393CDF8188038F9028C434507DA0CEB2F
:10DFE0004108B8F90280434501DA01230593DDF8C1
:10DFF0001880039BB8F90280434505DA0CEB410811
:10E0000038F9028C43455ADB059B2BBB199B5B7D82
:10E010009B1E83420CD0DDF85080019B434507DAFC
:10E02000DDF8208038F91180434501DA012305939A
:10E0300001280CD0DDF83480019B38F9118043456C
:10E0400005DA3CF91180434501DA012305930129E2
:10E0500024D0189B9B1E00E01FE08B420CD0DDF803
:10E060003880019B434507DADDF82480B8F9048045
:10E07000434501DA01230593DDF82480019B38F93B
:10E08000048C434507DADDF8248000E003E0B8F9AA
:10E090000280434513DB059B5BB110E0B2F90280BF
:10E0A00008EB0903B2F900804345F4DAB2F90680BF
:10E0B000EFE70A9B4FF001080B4483F80180491CED
:10E0C000C9B2A3788B42BFF441AF0EF0FF00B84253
:10E0D0007FF60CAF15981EB089E52DE9FF4F854CF2
:10E0E000C5B000264FF48861A0680CF0D8FC45AD9F
:10E0F0000FCDFFF788FE479909680091E8BB6B4692
:10E100002DAA0021A046A068FEF74DFD0546012876
:10E1100038D909F01DF80124774F0DF1B409EA460A
:10E1200022E000BF396839F8140091F87510884270
:10E1300012D9012688F800604899C8810AEB84004A
:10E140008346489901F04AFDE1B25A46489BD8F807
:10E150000800FFF779FC06E06848007818B90AEB78
:10E16000840004F051F9641CAC42DBDD386890F89F
:10E170004004800704D4002000E003E008F0EDFF35
:10E18000002E03D145AC0FCCFFF75EFC49B02EE565
:10E190002DE9F04F8A4658490025994686460E6873
:10E1A00028462B4609EB0301491E1FD4747D8C427F
:10E1B0001CDD377D01F1010107FB01F10EEB410888
:10E1C00003EB430C4FF000010AEB4C0B02EB010494
:10E1D000641E08D4A74206DD3BF911C038F914408B
:10E1E000604404FB0C55491C0329EFDB5B1C032B2B
:10E1F000D8DB00B9012095FBF0F0F8E42DE9FF4FE2
:10E2000082B00C464178DDF83CB001B1491E3A4A73
:10E2100001F0FF09C1781668737D5D1EA94201DA1D
:10E22000491C00E02946CDB2017801B1491E01F038
:10E23000FF0A8178307D431E994201DA481C00E0D4
:10E24000401EC6B2B4F9120009F1010101906BE061
:10E25000294B4A1C1868007D00FB02F748430599CA
:10E260000BEB470E01EB400000900AF1010058E073
:10E27000214909680B7D059902FB030701EB470162
:10E28000049FB1F90210B94247DD0099B4F900804A
:10E2900001EB40010027B1F900C00CFB0877B1F990
:10E2A00002C0B4F902800CFB0877B1F904C0B4F9DC
:10E2B000048001EB43010CFB0877B1F900C0B4F90D
:10E2C000068001EB43030CFB0877B1F902C0B4F9F7
:10E2D00008800CFB0877B1F904C0B4F90A80B3F9DF
:10E2E00000100CFB0877B4F90CC001FB0C71B3F9FA
:10E2F000027005E0740410003C0210006802100077
:10E30000B4F90EC0B3F9043007FB0C11B4F9107066
:10E3100003FB0711019B91FBF3F12EF81010401C39
:10E3200000B2B042A4DB11B2A94291DB4F4617E024
:10E33000017D781C41430BEB410800903B4652465F
:10E3400021460598FFF724FF28F81A003B4632467D
:10E3500021460598FFF71CFF28F81600009807B221
:10E36000FE48AF420068E3DD007D691C41430BEBD2
:10E370004101009109F1010148430BEB4008574668
:10E3800012E04B463A4621460598FFF701FF28F870
:10E3900017002B463A4621460598FFF7F9FE0099EB
:10E3A00021F817007F1C3FB2B742EADD06B01EE439
:10E3B000F8B5EB491046069A09781D46022914D291
:10E3C000E84CE6492E7F236809687EB191F84060E9
:10E3D000B6060AD5012A08D10093B1F95820E24BBC
:10E3E000E249FFF70BFF20682863F8BD91F8C06190
:10E3F000F706FAD5B60609D50093B1F9C421DA4B70
:10E40000DB49FFF7FBFE2068E862F8BD012AFCD17A
:10E410000093B1F9C421E2E7F0B4D14C2678CF4C97
:10E42000256816B1B5F8024101E0B5F800411E7F3C
:10E4300064431EB195F86050EE0706D0CD4C2478A9
:10E44000002C0DD1F0BCFFF7D3BBAD0705D5CA4DED
:10E450002D68A54201DAF0BC3FE6F0BCFFF7F4BA44
:10E46000F0BC70472DE9F0478146BC488A4600233E
:10E470000168184601250E7D4F7D1DE000EB00145C
:10E4800009EB44042234194612E000BF52F8208000
:10E4900005FA01FC18EA0C0F08D004EB010898F803
:10E4A00001C0BCF1000F01D188F801A0491CC9B21C
:10E4B000B142EBD3401CC0B2B842DFD3BDE8F08715
:10E4C000A74A10B5127801243AB9A44A126892F802
:10E4D0006020120718D5012916D181780278891A8F
:10E4E00001D5C1F1000101F10101CAB2C178407842
:10E4F000081A00D54042401CC1B21046F5F776F824
:10E50000C0B2012800D10024204610BD2DE9F04FF3
:10E510008A46924983469E464FF001095078D67844
:10E520000C6824E000EB00130BEB4303223311785B
:10E53000957818E05F1897F801C0D44511D194F888
:10E540001480471C07FB0817DEF82CC00CEB4707AC
:10E55000B4F8D2C1B7F90070BC4502DA4FF0000937
:10E5600003E0491C09B28D42E4DA401C00B2864245
:10E57000D8DA484641E62DE9F0439946774B012623
:10E580001C6894F808319D0748D51578B5EB531FE2
:10E5900001D8002501E0A5EB5315EFB2257D92F8D7
:10E5A00002C0A5EB531808F10108E04501DA6D1E21
:10E5B00001E00CEB531505F0FF0C5578B5EB531F3C
:10E5C00001D8002501E0A5EB5315647DD278A4EBBA
:10E5D000531808F10108EDB2904501DA641E01E01C
:10E5E00002EB531404F0FF0811E000BF05EB051225
:10E5F00000EB420322333C4606E01A19527812B16E
:10E600008A4200D00026641C6445F6DD6D1C454539
:10E61000ECDD002E02D1022189F81C10BDE8F08348
:10E6200030B54E4C554A2468B2F90030544A34F99A
:10E63000A85FB2F90020B4F9024029B95149B1F9F3
:10E6400000305149B1F90020A04201DD104630BD33
:10E65000A84201DA184630BD201AD11A4843611B7E
:10E6600090FBF1F0101A00B230BD2DE9FF4F83B0DE
:10E670004FF0FF36DDE91054894607460196934670
:10E680004FF0640AB04610460699F4F7B3FF01B2A2
:10E690004FEA69000091884278DA30480068B0F8A3
:10E6A000A1204A4572DD129931B1012918D0022901
:10E6B00027D003296BD13DE0A11E05D4027D611E48
:10E6C00001FB025137F91160427DA11C8A4268DDCD
:10E6D000007D04F1030404FB005037F910005FE0F3
:10E6E000A91E07D4027D611C01FB025107EB410109
:10E6F00031F9046C007DA91C884252DD04F101044B
:10E7000015E0A91E0BD4427DA11C8A4207DD027DC3
:10E71000E11C01FB025107EB410131F9046C007D62
:10E72000A91C88423DDDA11E3BD4A4F1010404FBD9
:10E73000005031E0A91E09D4A11E07D4027D611E3C
:10E7400001FB025107EB410131F9046C017DAA1C68
:10E75000914226DD427DA01C824219E03C0210005D
:10E760006D0210008C021000E0D70120BEAE010047
:10E77000AAAE01006202100004051000EC041000B3
:10E78000EE041000E6041000E80410005FE03EE034
:10E7900007DDE41C04FB015007EB4000B0F9040066
:10E7A0008046701C33D018F1010030D058460699CD
:10E7B000F4F71CFF009902B2A9EB0100069B01B21D
:10E7C000ABEB03006423009C584309EB0403544261
:10E7D00003EB440390FBF3F0002800DA404241438E
:10E7E00091FBFAF1A9EB010109B25A4512D1069A3F
:10E7F00064235A43069BF31A03FB002393FBFAF2AC
:10E8000064240BFB04F312B2A9EB0B0412E0019891
:10E8100007B0F2E464230BFB03F2A8EB0B0303FB4A
:10E82000002393FBFAF2069B6424069D634312B215
:10E83000A9EB050404FB003494FBFAF3484390FB76
:10E84000FAF01BB21A440844C2EB400006B230464C
:10E85000DEE72DE9FE4F9946F94B571C0646D3F8E3
:10E8600000C04FF0FF3004469CF81430054607FB0B
:10E87000031B5FEA090836F91BA009D0B8F1010FA4
:10E8800018D0B8F1020F21D0B9F1030F52D133E003
:10E89000B2F1010803D402FB031536F915509CF8B8
:10E8A0001580B84544DD02F1020404FB031336F978
:10E8B00013403DE04F1E03D406EB4B0535F9025CD7
:10E8C0004F1CBB4234DD06EB4B032FE0B1F10108D6
:10E8D0000AD49CF81580B84506DD951C05FB031588
:10E8E00006EB450535F9025C4F1CBB4220DD571E87
:10E8F0001ED402FB031317E0B1F1010808D4B2F1F2
:10E90000010805D402FB031506EB450535F9025C49
:10E9100001F1010843450BDD9CF81580B84507DD82
:10E9200002F1020404FB031306EB4303B3F90240B4
:10E930006B1C01D1631C0ED09CF8A0309B0607D540
:10E940008DE806022B46224651463046FFF78DFEE3
:10E95000691C03D003E047F6FF710AE02546611CFD
:10E9600000D12C466219C2EB4A0109B2884200DD8F
:10E970000146B348006890F8F107022808D1B14871
:10E9800020F8395000EBC900A0F802A08480C180B3
:10E990000846BDE8FE8F2DE9FF4F1E46A84B4FF0FD
:10E9A000000A1178186883B0554654465FEA010E94
:10E9B00006D15178B9B1417DD778491E8F4212D026
:10E9C000017D97788B46491E8F4204D192F801C091
:10E9D000BCF1000F07D08F420BD1417D92F803C0EC
:10E9E000491E8C4505D1B0F8AA00801CA6F8270066
:10E9F000AAE0517892F803C0F06A24E04B1C0BFBAC
:10EA000003F200EB42020192039A01EB011302EBC5
:10EA1000430202F122090BB27246009310E000BFDC
:10EA200009EB020393F80180049B984507D1019BF1
:10EA300033F91230534502DD009C9A4615B2521C40
:10EA40009742EDDA491C8C45D8DA01232246294643
:10EA5000FFF7FFFE0746002322462946F06AFFF72C
:10EA6000F8FE8046022322462946F06AFFF7F1FEAF
:10EA70008346032322462946F06AFFF7EAFEDFF8C1
:10EA8000C0A18146DAF8000090F8A01049061ED512
:10EA9000B5B1017D491EA94212D01CB1407D401E76
:10EAA000A04201D1B8460BE041463846F4F79EFD3E
:10EAB00002B249465846F4F7A1FD00BF0FFA80F8AC
:10EAC0000027601ED446641CDAF800901FE008EBB3
:10EAD0000700F3E7002819DB99F81510814215DDCE
:10EAE00099F814A0431CF26A0AFB03F102EB410BF4
:10EAF000691E6A1C08E0002905DB8A4503DD3BF836
:10EB000011303B441FB2491C9142F4DD401CA0422D
:10EB1000E0DDFA2008FB00F898FBF7F004B2A6F855
:10EB2000274001212046FFF77BFD47490C80DCF898
:10EB3000001091F8F117022903D142490C844F8447
:10EB40008884B18C814201DD012061E600205FE60E
:10EB50002DE9FF4FB0F92450A3F10103002403EB8A
:10EB6000D37040F34F0316B22146F01A00D50020AF
:10EB70000FFA80FB3248F7180068467DA6F1010CB9
:10EB8000674501DD664600E03E464FEA224736B261
:10EB9000FA1A00D500220FFA82F9027D3B44571E73
:10EBA000BB4201DD521E00E01A4617B25B462EE062
:10EBB0004A4603F1010A26E0037D0AFB032C9E4628
:10EBC000019B33F91C30B0F868C09C4500DB002382
:10EBD0004FF47A7C03FB0CFC9CFBF5FC644490F83E
:10EBE000F1C724B2BCF1100F09D190F81580DFF8FD
:10EBF00054C008F1010808FB0E182CF81830491C05
:10EC0000521C09B212B2BA42D6DD0FFA8AF3B342ED
:10EC1000CEDD90F8F127102A0ED10A481023038088
:10EC200043885B1C43808480C180A0F80A90878160
:10EC3000A0F80EB006824582012907DA002008E01C
:10EC40003C021000E0D701205A26100094FBF1F09E
:10EC500000B2102A01D1FE49088104B08AE42DE9EE
:10EC6000F04F8246DDE909B500209E4628608946BE
:10EC700053782BE0F74903EB0314DBF82C70096899
:10EC800003F1010C0AEB44040E7D223406FB0CF662
:10EC900007EB4606117814E0671897F80180C8451D
:10ECA0000DD136F911802F6847442F6036F9117065
:10ECB000874204DDAEF802103846AEF80030491C39
:10ECC000C9B297788F42E7D20CF0FF03D17899420E
:10ECD000D0D24FE42DE9FF4F83B01878109C9246B4
:10ECE0001E46A070987820705878E070D8786070D0
:10ECF0004FF000085F784CE0039907EB071001EB39
:10ED0000400101F12209049901EB400000F1220BBE
:10ED10001298C26ACF480068017D781C4143019077
:10ED200002EB4100009035782EE000BF09EB0500B2
:10ED30004178514526D1009830F91510119881423B
:10ED40001CDD08F101001FFA80F821782846F4F74D
:10ED50004DFC207061783846F4F748FC6070A1786B
:10ED60002846F4F747FCA070E1783846F4F742FCF7
:10ED7000E0700BEB050080F801A003E00BEB050051
:10ED8000002141706D1C2DB2B078A842CEDA0198F6
:10ED900007B2F078B842AFDA0FFA88F038E5AD493B
:10EDA0000278096822B10A7D8378521E934208D105
:10EDB000427822B1C278487D401E824201D10120B2
:10EDC000704700207047017869B1A24983780968CB
:10EDD0000A7D521E934206D0427822B1C278487D05
:10EDE000401E824201D1012070470020704730B59B
:10EDF0000546A1B0974800238DF8803002680C4684
:10EE0000107D401E8DF882008DF88130507D6B465C
:10EE1000401E8DF8830020AA2846FDF7B7FF002288
:10EE200020A96846FDF7E4FF6A4621462846FFF719
:10EE300019FB21B030BD2DE9F74F86480C46154629
:10EE400001684FF00009B1F9EEA2217809B1491E1D
:10EE50002170617809B1491E61700268A178127D44
:10EE6000521E914201DA491CA17083460068E17884
:10EE7000407D401E814201DA491CE170A078287073
:10EE8000E07868702078A8706078E87067782FE084
:10EE9000267807F1010826E00098C16ADBF8000037
:10EEA000027D08FB026001EB4000B0F90000504514
:10EEB00017DB09F1010000F0FF0929783046F4F76B
:10EEC00095FB287069783846F4F790FB6870A9784C
:10EED0003046F4F78FFBA870E9783846F4F78AFBE0
:10EEE000E870761CF6B2A078B042D5D208F0FF07E1
:10EEF000E078B842CCD248464BE52DE9FE4F0A787F
:10EF00000192521ED2B202928A78524B521C02F0E7
:10EF1000FF0A4A780092CE78D3F8009035E000BF1F
:10EF20004FF0000E74467546029B25E099F8148058
:10EF300002F1010C0CFB083CC76A07EB4C08B8F95E
:10EF400000B04FF0020808EB4C0C6744B7F90070B2
:10EF5000ABEB0707002F02DA4FF0010402E001DDFE
:10EF60004FF002042DB1A54203D00EF1010505F0CA
:10EF7000FF0E5B1C2546DBB25345D7D9BEF1010F0E
:10EF800001D9002005E5521CD2B29642C8D2009A9F
:10EF9000019B521ED2B2761C06F0FF0A00923BE0A3
:10EFA0004FF0000EF0467446009A2AE099F814706B
:10EFB000551CAB4605FB0735C66A02F1020C0CFB7B
:10EFC000073706EB450506EB4707B5F90050B7F9DB
:10EFD00000703385C66A7285C26A9585EA1B002A6D
:10EFE00002DA4FF0010802E001DD4FF002082CB117
:10EFF000444503D00EF1010202F0FF0E44460BF02F
:10F00000FF025245D2D9BEF1010F03D9002180F889
:10F010003410B6E75B1CDBB28A789A42C0D201207A
:10F02000B7E42DE9F14FE8B000260B480B4C619690
:10F0300000686060074D00F58860A0602968B346ED
:10F04000B146B1F90E125C91B2464FF4886107E007
:10F05000E0D701203C021000880210007404100068
:10F060000BF01DFD286890F86010CA0701D18907D0
:10F0700001D54FF0010BF749097821B190F8E0066E
:10F08000C0F3400003E090F8C001C0F3C0006490FA
:10F090000020039003AB40AA01216068FDF783FDC7
:10F0A000064603AB30AA40A96068FDF7CCFC0128F6
:10F0B00000D10126E84806732B6801201A7D16E06E
:10F0C000012100EB0014DFF894E3E54F0AE000BFF4
:10F0D000D7F8048001EB440C18F80CC00EF802C0FD
:10F0E000521C491C93F814C08C45F1DA401C597D20
:10F0F0008142E5DA0124EEE1402130A80BF0F1FC79
:10F10000DFF86083E1B240A8CDF8EC80CDF8F08064
:10F110008DF8E61030F81400ADF8CE0061AA30A8E2
:10F12000CDE9000203A800EB8402CD48579262AB00
:10F130004068FFF794FD0746286890F8F1071D28FE
:10F140000DD11D21A8F8001004EB440108EB41008B
:10F1500028F81170BDF8CE20428063218180ADF87F
:10F16000E470052230A86299FEF781FBADF8FC003F
:10F170000523BD4930A8629AFFF7EAFC01462868DA
:10F1800090F8F1270C2A0AD10C23A8F80030B8F81F
:10F1900002305B1CA8F80230619BA8F80430ADF87F
:10F1A000FA1090F8F1170C2926D0152924D0002147
:10F1B000ADF8E710DFF8A8828DF8F410BDF98A21C8
:10F1C000BDF98831ADF8F820ADF8F630C44688F8BE
:10F1D000001042B13BB1017D491E8A4203D0417DFE
:10F1E000491E8B4219D101215F919DF8F51041F024
:10F1F00001018DF8F51012E0BDF8FA20A8F80620FC
:10F20000BDF8FC20A8F808209DF8FE20A8F80A20E8
:10F210009DF8FF20A8F80C20C9E700215F919349D1
:10F22000097889070CD58B490978002908D1904ABB
:10F2300090F8A710128891428E49097801D211B135
:10F2400076E0022974D2619A5C998A4270DA0121CF
:10F250008DF8DC1090F8A410609186490978012996
:10F2600005D190F8BC206099114489B260915F99F2
:10F2700001293ED090F8A51090F8CE0008447E49B0
:10F28000599030A8B1F900205BA90091CDE9012087
:10F29000E2B2579BDCF80810D8F80400FFF71AFD1B
:10F2A0006E4980B2ADF8CE000855609988423FD9CA
:10F2B000599988423CD87049B1F900108F4237DD26
:10F2C000012819D034D9286890F8A010890719D5D9
:10F2D0006A49B0F8FD0009684043884212DBE1B298
:10F2E00030AB5BAAD8F80800FFF755FB012809D01E
:10F2F0001EE090F8A600C2E76148B0F9000087421E
:10F300001DDC15E0286890F8A000000617D5012143
:10F310009DF8FF00CDE900019DF8FE30BDF8E42026
:10F32000BDF8FA10BDF8FC00FEF71DFA012806D062
:10F330005F995798FFF7C4F8012817D0CAE0022058
:10F34000ADF8DE00ADF8E00000208DF8DD004FF0F4
:10F350000109E1B230AB4746579AD8F80400FFF7ED
:10F360000AF9E1B230AB5BAAB868B1E04548B0F940
:10F37000000087426DDD40A931F814105A914249CE
:10F38000B1F90010814213DA5BA930AA0091CDE9EE
:10F390000102D8F80410E2B2579B0846FFF79AFC26
:10F3A00040A921F8140057995B9A0A60ADF8CE0085
:10F3B0002868B0F8EC12B94219DD90F8EB02C007EA
:10F3C00015D0012E13D167AA30A85799FFF733FD46
:10F3D000296891F8F012814209D267A8FFF7F3FC7F
:10F3E00028B967A930A8FFF788FD8DF8F4002868D0
:10F3F00090F865701F48007848B15798FFF7CFFC28
:10F400000128286844D090F8BD00384487B240A84D
:10F4100030F81400B8425DD930A800904FF00109CF
:10F42000CA46E3B24746579A3B98D8F8041000F012
:10F43000F1FB296840A830F8140091F86720904249
:10F4400029D312480078012825D004208DF8DC004B
:10F450003AE04CE0720210005A261000B4A70120D6
:10F4600074041000E0D70120B4450120CC02100044
:10F47000860410006D021000EE0410000405100058
:10F4800002051000EC041000FE04100063021000DE
:10F4900090F8C300B9E7654B02208DF8DC00BDF899
:10F4A000E2209A82B1F86E1058468A4200D20020BB
:10F4B0005A99032908D338B10090E1B230AB579A7A
:10F4C0007868FEF775FFA5E0E1B230AB579A78682F
:10F4D000FEF7BAFA641CB4427FF60EAE544880F8C8
:10F4E0000090544880F800A069B0BDE8F08F28680B
:10F4F00090F8C011C907EDD04F4909680029E9D03B
:10F500004E4909780029E5D18DF8DC1090F8C0014A
:10F51000400705D5E1B203AAD8F80400FFF767FC5D
:10F5200047F6FF7059904648007818B1286890F85F
:10F53000E17609E05F9801284248007809D0012867
:10F5400028680FD090F8CB713F48007801280CD084
:10F5500010E00128286802D090F8CD71F4E790F807
:10F56000CC71F1E790F8CA71EEE7286890F82904A9
:10F57000384487B23548B0F900103548B0F900007A
:10F58000814213DA5BAACDE9002030A90291D8F8B4
:10F590000410E2B2579B0846FFF79CFB40A921F8F4
:10F5A000140057995B9A0A60ADF8CE0040A830F875
:10F5B0001400B8428ED9599988428BD86899022094
:10F5C000E3B2087030A800904746579A3B98D8F8A5
:10F5D000041000F01FFB64980090E1B230AB579A22
:10F5E0007868FEF7E5FE286890F8C00180070DD521
:10F5F00014480078012809D1E1B230AB579A7868F5
:10F60000FEF784FF012801D1124908706498002890
:10F610003FF41EAFE1B230AB579A7868FEF7FCFEBC
:10F6200058E7024800210173018070475A261000F4
:10F630005F021000600210009C01002259021000BD
:10F6400072021000610210006D021000FE04100032
:10F65000F0041000FC041000704770B5D74D16463A
:10F6600003462A680024107D527D03EB400350437B
:10F6700000B20AB201461846F4F701FA296891F877
:10F68000F1170B2901D1CE490881B04200DD0124D8
:10F69000204670BD2DE9F047C84C884607462168D2
:10F6A00000259246B1F81C04012B03D1B1F81E14B9
:10F6B000084480B201B2384600F05BFF064620687D
:10F6C000A146B0F82424B0F822143846FFF7C5FF4D
:10F6D00007462068BB4B427DB0F92014404601F03C
:10F6E000DAFE80462068B84B027DB0F920145046FF
:10F6F00001F0D1FE2168B24C91F8F1270B2A09D113
:10F7000022806288521C628047EA4602A28040EA58
:10F710004802E280B8F1010F11D101280FD176B96A
:10F72000012F0CD14A7D087DA84942435200096847
:10F7300001EB400104EB4000F4F764FB0125D9F82C
:10F74000000090F8F1070B2800D165812846BDE83C
:10F75000F08737B599481446006890F8F1070B28F0
:10F7600002D197490120888201A96846F4F7AEFECC
:10F7700000986080019820800220E0832084204649
:10F7800007F038FC3EBD2DE9F0470027144605463A
:10F7900089463E464FF00108DFF820A201F0A9FE9D
:10F7A00000B24FF4FA4C35F91010DAF80000B0F856
:10F7B000460241434FF47A7091FBF0F001B2002011
:10F7C000034600BF04EB4002401C9380A2F80EC029
:10F7D0000328F7DB01202075002031E0B8F1010F8C
:10F7E00031D004EB460235F910C0D389634504DDFE
:10F7F00035F81030D381A3199872D28935F91030B9
:10F800000A4493421BDD7F1CFFB24FF00108022F18
:10F8100000D90227227D521C227504EB470235F9DC
:10F820001030B2F804C0634509DDDAF800C0BCF856
:10F830005EC1634503DD35F810309380E055401C10
:10F840004845CBDB83E704EB470235F91030B2F8CB
:10F8500004C0634509DDDAF800C0BCF826C463457E
:10F8600003DD35F810309380E055928835F910307B
:10F87000521A9342E3DA761CF6B24FF00008022ED9
:10F8800000D9022604EB4602B2F80EC09C45D6DD34
:10F8900035F81030D381A2199072D0E72DE9FF4FCF
:10F8A000DFF818A18FB00025DAF800009B462C463F
:10F8B000017D564609AA1098FFF765FF306803AA34
:10F8C000417D0F98FFF75FFF9DF820109DF83800ED
:10F8D000814204D94FF001088946002730E04FF0FB
:10F8E000010980460027002627E0DAF80000544688
:10F8F00090F81B1401F00F01009109A9C38A8A5DD9
:10F90000017D109801F006FE0546206890F81B1452
:10F9100001F00F01009103A9038BCA5D417D0F988F
:10F9200001F0F8FD0446ABF80A50ABF808405A461F
:10F9300021462846FFF70DFF761C4645D5DB7F1C88
:10F940004F45D0DBDAF8000090F8F1070B281AD108
:10F950001B4A158254829DF83800D0829DF82400FD
:10F9600010839DF8250050839DF8260090839DF814
:10F970002000D0839DF80C0010849DF80D00508469
:10F980009DF80E00908413B0BDE8F08F00B591B0E3
:10F9900002238DF81C300523ADF80E3041F65833A4
:10F9A00004930723ADF80C30094B1B885B1CADF8A2
:10F9B00024306B46FFF772FF11B000BD3C0210000F
:10F9C000E0D70120A8021000A40210008802100055
:10F9D000E6041000F0B5B2F900400568AC4202DD63
:10F9E000B3F900102EE002EB410434F9026CAE4290
:10F9F00004DA03EB410131F9021C23E00024491E23
:10FA00000BE000BF32F91470AF4205DC02EB440694
:10FA1000B6F90270AF4202DA641C8C42F2DB32F9B2
:10FA2000146003EB440133F91430B1F9021002EB16
:10FA30004402AD1BC91AB2F902206943921B91FB23
:10FA4000F2F119440160F0BDF0B50E462B4909688A
:10FA500001F275433AB3012A2ED0022A35D0032A87
:10FA600040D0042A49D191F86EC491F86D441A46E9
:10FA700091F8741403EB4C0303EB410707EB4405C7
:10FA80000CEB04013E2938DCBCF1010F02DD6146BC
:10FA9000FFF7A0FF012C30DD2B463A4621463046C9
:10FAA000BDE8F04096E791F86FC491F8704403EB1D
:10FAB0004C0591F8711410E091F86FC491F87044FE
:10FAC00003EB4C0591F8721407E091F86FC491F8BC
:10FAD000704491F8731403EB4C0503EB410202EB05
:10FAE0004C07CDE791F811C601F2126202EB4C030C
:10FAF00091F8104603EB4C07C0E7F0BD3C02100044
:10FB00004FF47A72504390FBF1F1744810B5814282
:10FB100001DAC01110BD42F6A640814201DD5A2033
:10FB200010BD6F4A002000BF32F910308B4205DC57
:10FB300002EB4003B3F902308B4202DA401C452845
:10FB4000F2D332F9104000EB800302EB4000091BB6
:10FB5000B0F90200553B001B01EB810191FBF0F075
:10FB6000184410BD30B50D460446FFF7C9FF00EB41
:10FB7000D0704010002D02D00DDD34B130BD002C0E
:10FB800003D005DD4FF02D0030BD4FF0000030BD3B
:10FB90004FF05A0030BD002C03D005DD00F15A00B3
:10FBA00030BD6FF0590030BDA0F15A0030BD10B526
:10FBB0008C1A00D56442002800DA404204EB400071
:10FBC00011440A18081A521040104FF47A71484331
:10FBD00090FBF2F0C0F57A70588410BD30B5827891
:10FBE0000378CD89D21AC3784078521C1B1A5B1C4B
:10FBF00005FB02F0D4185D4340006A00B0FBF4F04E
:10FC0000B2FBF4F2904202D9C8830A8430BDCA83A1
:10FC1000088430BD2DE9FF4F0027164682B03A46D2
:10FC20003C46BC46BB46BA46707896F8039025E041
:10FC3000039900EB001301EB43012231019131786C
:10FC4000009196F8028016E0019B0B445D78059BBD
:10FC50009D420FD1A9EB000303F1010E009B0EFBA7
:10FC60000EAACD1A6D1C05FB05BB05FB0ECC7F1C37
:10FC70002A447444491C8845E6DA401C8145D7DA99
:10FC80004FF47A70504390FBF7F101FB04F54FF409
:10FC90007A734FF47A70604390FBF7F0514391FB15
:10FCA000F3F2604390FBF3F195FBF3F5ACEB050544
:10FCB000ABEB0207AAEB01046800391BFFF752FF08
:10FCC0000F9922464877394628460F9BFFF76FFF6A
:10FCD0000F9906B03046BDE8F04F7FE75AD3FFFFDB
:10FCE00064AE0100FE4900200870FE490870FE491C
:10FCF0000870704710B5FD4A00206FF0004100BF4A
:10FD000042F82010401C1428FADB3C21F8480AF085
:10FD1000C6FE4021F7480AF0C2FEF74900200861FC
:10FD20004861087010BD70B5F449002001220870C8
:10FD3000F349FC4BFC4D0A70F249FC4E0870F24945
:10FD40000870F2490870F2490870F2490870F249E7
:10FD50000A70F2490870E849487108624862C87040
:10FD60008861C8610A71EE4A1268B2F862401C806C
:10FD7000B2F8A1302B80B2F80C523580EC4EB2F8BC
:10FD8000C6213280EB4E3480EB4C2380EB4B1D8040
:10FD9000EB4B1A80EB4A1080C860FFF75DFCFFF761
:10FDA000A1FFBDE87040A5E72DE9FF4FDC4A9B4667
:10FDB00081B01268012592F815C0137D0CF1010C79
:10FDC00069E000BF4FF0000A47F6F8724FF00109F2
:10FDD0005442D6465646CDF8009019E005FB03671D
:10FDE00030F8178031F81770A7EB08073FB2BA4216
:10FDF00000DD3A46BC4200DA3C46002F02DA4FF002
:10FE0000000903E002DD4FF00007009706F101064C
:10FE10009E42E3DB009E59EA060709D0B9F1010FC3
:10FE200003D0B9F1000F05D008E0009C012C05D1EA
:10FE3000002203E0009E012E00D12246002412E0A1
:10FE400005FB034630F8167031F816601744F61BB0
:10FE500036B25E4506DACBF10007BE4202DDB2449F
:10FE60000EF1010E641C9C42EADBBEF1000F01DDC5
:10FE70009AFBFEFA0AEB0204002209E005FB0326C6
:10FE8000DDF80C8030F81670521C274428F81670E4
:10FE90009A42F3DB6D1C654594DB05B0BDE8F08F3D
:10FEA0002DE9F00F9E4C9B46266896F8E036DD085B
:10FEB000A54B1B78022B02D0032B04D004E096F84C
:10FEC000ED56ED0800E00025C2F11007BBF1010F6F
:10FED00007D0DFF87892042B07D0EBB30023A246BB
:10FEE00057E0BDE8F00FF4F742BA002530E00023F8
:10FEF00029E000BF05FB063631F916C030F916803F
:10FF00000CFB02FC08FB07CC4CF30F1C21F816C0BD
:10FF1000D4F800C09CF8408698450FDC9CF84186D8
:10FF200098450BDB9CF8428608F10108A84505DCE2
:10FF30009CF843C60CF1010CAC4503DA39F816C045
:10FF400021F816C05B1C2668367D9E42D2DA6D1CF5
:10FF500023685B7D5B1C00E03AE0AB42C7DABDE89A
:10FF6000F00F7047002611E0DAF80040247D03FB13
:10FF70000464761C31F914C030F914800CFB02FCC7
:10FF800008FB07CC4CF30F1C21F814C0AE42EBD990
:10FF90005B1CDAF800605446767D761C9E42E1DAFE
:10FFA00000204A460EE02B4607E000BF00FB063665
:10FFB0005B1C32F8167021F816702668367D9E425A
:10FFC000F4DC401C23685B7D5B1C8342EBDAC6E7F4
:10FFD0005F4B1B78012B01D0002343E00125A24693
:10FFE00027E000241FE000BF5A4EC4F11F0806EBB3
:10FFF000850605FB034356F804CC012606FA08F6ED
:020000021000EC
:100000001CEA060F1FD0BBF1010F19D031F91360A4
:1000100030F913C056430CFB076646F30F1600BFBA
:1000200021F81360641CDAF800301B7DA342DBDA90
:100030006D1CDAF80040647D641CAC42D1DC8EE7B4
:1000400030F81360ECE739F81360E9E731F9135041
:1000500030F91360554306FB075545F30F1521F89A
:1000600013505B1C2668757D367D6D1C75439D4263
:10007000ECDC74E72DE9FC5F294D074693462868C0
:100080000C469846007D0026420001EB80004FF0B0
:1000900001093946F3F7B6FE2868417D007D491C09
:1000A0004143420000EB400007EB410104EB4000FC
:1000B000F3F7A8FE02274FF0300A28683023007DAE
:1000C000CDE900A000FB07F104EB41000246214608
:1000D000F4F775FA7F1C042FEFDB002069E00000C5
:1000E00061021000FC041000590210002859100091
:1000F000A82B0120E42B0120800410005D021000D9
:10010000560210005E0210005F0210006002100034
:100110005B0210005C0210009D021000C50210007E
:100120003C021000E6041000E80410000005100076
:10013000EA041000EC041000EE04100002051000A8
:10014000F0041000FE04100072021000A80001204C
:10015000F60210008027100000EB420334F9101063
:1001600034F91330C91A01D5C1F1000100EB820244
:1001700024F812102A6834F91010127D02EB4203A1
:10018000034434F91330C91A00D5494202EB820204
:10019000024409B224F812102A68127D00EB820290
:1001A00034F91230434500DD761C414500DD761CF4
:1001B000401C29680A7D8242CEDCD1B201EB4101AC
:1001C00045F2AA5024F8210028685E45007D00EB26
:1001D000400004EB800046802968097D01EB410165
:1001E00004EB8101A1F8048001DD4FF000094846CD
:1001F000BDE8FC9F2DE9F0438946FE4900252C46C9
:100200000A78FD490B6812B1B3F8EE6601E0B3F865
:10021000F6625A7D197D521C4A430EE039F911707D
:1002200030F911C007EB0608C44505DDBCEB070734
:1002300000D57F423D44641C491C8A42EEDCEF48F5
:1002400065B193F83610A14208D2416A11B101207C
:10025000BDE8F083012141620020F9E70021FAE7BF
:100260002DE9FF5F8B46E348E349164600250278F7
:1002700008680124A84612B190F8F12601E090F830
:1002800037208A4602F00F0290F8201002EB82021B
:100290004FEA420709071FD5B0F97890D948D84AE4
:1002A00001680098F3F7E5FED748D54902680B6866
:1002B000D1F804C0D21A4368A3EB0C031A44836834
:1002C000D1F808C0C068C968A3EB0C031A44401AEF
:1002D0008118494500DD0024DAF80000D14690F885
:1002E000200080070FD5C948007860B9C848007859
:1002F00048B9C848007830B959460098FFF77AFFE6
:1003000008B1002400E00CB94FF00508BB490020FB
:10031000C1F80C804A79A2B130700A6A521C0A6294
:10032000D9F8003093F837301B0903EB8303B2EBA5
:10033000430F02DD08624871012504B02846BDE87C
:10034000F09F012314B108623370F6E70A6A541C67
:100350000C62BA4209DD4B710862D9F8002092F8AC
:100360003720120901D1487101253070E5E72DE9E8
:10037000F84FA148A84900688979B0F9A130B0F9CF
:100380000C42012906D190F83116490702D5B0F97F
:10039000602601E0B0F9622090F8F1171C2903D122
:1003A0009E4963258A82CD8292490978009111B1D4
:1003B000B0F9E21601E0B0F9C611994D2D78012D82
:1003C00010D1984D2D686DB190F8C051B0F9AD3095
:1003D000B0F96C20AD0705D5934D2D78012D01D1D5
:1003E000B0F96A20894D2D78012D36D0022D07D322
:1003F000B0F8BE1009B1B0F9BE2013461C46214624
:100400008A4DA2462B808A4D2C808A4D2A808A4DA7
:10041000298090F8A36090F864509F1B0FFA87FC26
:10042000864FA41B90F8C361A7F800C0E646DFF82A
:1004300010C224B2A146ACF80040824C551B2DB22C
:100440002580DFF804C28E1B804C36B2ACF8006009
:100450002478AB46012C0FD061E090F8BA502B44C1
:100460002C4490F8BB501BB22A4490F82A5424B272
:10047000294412B209B2C3E790F8CC40642504FBCA
:1004800002F8B8FBF5F84244DFF8A881A8F800208C
:1004900004FB03F8B8FBF5F21A44644BDFF8A081C3
:1004A0001A8004FB09F2B2FBF5F303EB0902A8F88A
:1004B0000020009A002A05D090F8CF305E4A03FB56
:1004C00001F302E05C4A04FB01F3B3FBF5F31944CA
:1004D000118004FB0BF2B2FBF5F35A4903EB0B025C
:1004E0000A8004FB0AF2B2FBF5F3514903EB0A025E
:1004F0000A8004FB0EF1B1FBF5F202EB0E0139802C
:1005000006D090F8CF1001FB06F1B1FBF5F103E046
:1005100004FB06F4B4FBF5F13144ACF800104C498F
:10052000097889070AD44349404A09881180444A16
:10053000118044493E4A09883980118090F8C001F1
:10054000C00702D03748006830B9384801883A48B7
:1005500001803888ACF800003A48BCF90020B0F9B6
:100560000010B7F90000F3F749F83A490880BDE8F0
:10057000F88F214A10B51268537D127D5B1C5343DE
:1005800007E000BF30F912408C4201DD012010BDB0
:10059000521C9A42F6DB002010BD30B5164A126894
:1005A000537D127D5B1C53430AE000BF30F91240BB
:1005B0008C4202DC4D42AC4201DA012030BD521CBB
:1005C0009A42F3DB002030BD2DE9F05F83462248DC
:1005D0008A4615460068002406464FF408610AF072
:1005E0005EFA054900202860086801229446037DD0
:1005F0004DE00000720210003C0210008004100068
:10060000C025100090021000B02510006D021000EF
:10061000670210005D021000D0021000E0D7012038
:10062000610210009C010022FC041000E80410008C
:1006300002051000E6041000EA041000EE041000A9
:1006400000051000EC041000F00410006F02100010
:10065000CC021000FE0410008802100002EB021011
:1006600006EB400901200DE03AF913705B1C5F4571
:1006700007DD09F800C0D5F80080641C4744A4B227
:100680002F60401C0F683F7D8742EDDA521C0868DE
:10069000407D9042E2DA204651E6F0B5FC4E3368E8
:1006A0005D7D1B7D6D1C5D430024274609E000BF76
:1006B00030F913C0944502DA21F8137000E0641C8D
:1006C0005B1CAB42F4DB3068B0F89A00A04201DD5D
:1006D0000020F0BD0120F0BDF0B50025EC4C26E077
:1006E00000220123767D0EE003FB075C30F91CC07D
:1006F000BCF1000F04DD0AB1944503DA624601E063
:100700000022731C5B1C9E42EEDA002A0EDD0123E0
:1007100008E0367D03FB065630F81670BF1A21F844
:1007200016705B1C2668777D9F42F2DA6D1C266886
:10073000377DAF42D4DCF0BD2DE9F043D44B814688
:100740001868467D057D761C002028E01A6892F81E
:100750005C20642A05D9C2F16402424392FBF5F49D
:1007600005E0643A02FB00F494FBF5F4141B6434D6
:1007700001224FF064080FE01F683F7D02FB07076E
:1007800039F917C0BCF1000F05DD0CFB04FC9CFB24
:10079000F8FC21F817C0521CB242EDDB401CA84205
:1007A000D4DB55E52DE9F047B94B81468A461868F8
:1007B000447D057D641C01202DE01E6896F85D10C7
:1007C000642907D9C1F16401421E5143727D91FB36
:1007D000F2F206E06439421E777D4A4392FBF7F25B
:1007E0008A1A317D6432414309EB41060AEB410725
:1007F00000214FF064080BE036F911C0BCF1000F86
:1008000005DD0CFB02FC9CFBF8FC27F811C0491C21
:10081000A942F1DB401CA042CFDBBDE8F0879C4938
:1008200003004FF000000A689A4906D08B785B1EDF
:100830005BB28B70002B03DA012092F8A8238A7038
:1008400070472DE9FC410446934801269349076807
:100850002046F3F751F892492046F3F774F8032045
:10086000EFF7EBFE8A4C8F4D206890F82112490675
:1008700029D5427DB0F93412CDE90012B0F93232F7
:10088000894A8A498548F3F79AFE2068027DB0F9C3
:100890003812CDE90012B0F93632854A85498048D0
:1008A000F3F78DFE2878009020683B468249427D10
:1008B0007D48F9F73FFA2878009020683B467F4949
:1008C000027D7B480EE029780091427D3B467A49C3
:1008D0007248F9F72FFA2878009020683B4677494C
:1008E000027D6F48F9F726FA00202870206890F8FA
:1008F0002112CA0640D5890619D5427DB0F9A01348
:10090000CDE90012B0F99E33674A68496348F3F7AE
:1009100056FE2068027DB0F9A413CDE90012B0F9AB
:10092000A233634A63495E48F3F749FE09E03C227B
:100930005A495D48F3F766FA402259495C48F3F793
:1009400061FA0127009720685849437DB0F8A62333
:100950005548F9F79AFA0546009720685549037DEE
:10096000B0F8A6235248F9F790FA012818D0012DC3
:1009700016D00020FFF753FF20684C4A5049437DB2
:100980004D48F9F742FA20684A4A4E49037D4B48E0
:10099000F9F73BFA0320EFF76BFE3046BDE8FC8128
:1009A0000120FFF73CFF0128E6D10026E4E7F0B57F
:1009B000374E00231D4636681C46777D06E000BF93
:1009C00030F914C0944500DD5B1C641CA742F7DCC1
:1009D0000020347D06E000BF31F91060964200DD52
:1009E0006D1C401C8442F7DC2B4301D00120F0BD7C
:1009F0000020F0BD2DE9F74F82B00024324F009463
:100A000086463A88264647F6FF702146F2B3204ACA
:100A10000023156895F815C00FE000BF3EF91320BC
:100A200037F813801444A2EB080212B2904200DDA2
:100A30001046914200DA11465B1C9C45EEDC002317
:100A4000DFF888C02F7D0FE0039A3CF8138032F95D
:100A500013201444A2EB080212B2904200DD1046AB
:100A6000914200DA11465B1C9F42EDDCDFF824A0C6
:100A7000174F0022DAF81030B9469B4647F823405A
:100A8000ABEB020707F11408142323E04AE000004F
:100A90003C02100080041000D40410002C2B012014
:100AA000682B0120A9041000384F100048170120BE
:100AB000744F100084170120A8340120E434012071
:100AC000C417012000180120A82B0120E42B0120CD
:100AD0002859100098FBF3FC03FB1C881E3759F8BB
:100AE00028C097FBF3F803FB1877521C59F82730FE
:100AF0000A2AACEB03031E44C2DBD5F83226B2420D
:100B000002DA01238AF80030049A0023C2B1CAF83D
:100B1000143000BF0BF10100CAF81000142801DBEB
:100B2000CAF810303C227146F848F3F76BF94022BE
:100B3000F7480399F3F766F9009805B0BDE8F08F20
:100B40009AF800605246012EE4D195F8387656693D
:100B5000B74215DD081AB5F8361688420CDC536129
:100B60008AF800300020494641F82040401C1428F3
:100B7000FADB01200090CDE7761CCAF81460C9E7C3
:100B800053618AF80030C5E72DE9F74FE148154673
:100B9000002400684FF40861814609F080FFDE4EB2
:100BA00000202860306800234FF0010A007D34E007
:100BB000DFF868C30AFA03F15246DCF800C011EA14
:100BC0000C0F27D003EB031709EB470808F12308A4
:100BD0000021DFF84CB3924617E000BFDBF800C0FD
:100BE0000AFA01F717EA0C0F0DD0019FDDF800C0DB
:100BF00037F91070674506DD08F801A02A68641C03
:100C00003A44A4B22A60401C491C3268127D8A42D0
:100C1000E4DC01E0397D08445B1C3768797D99424A
:100C2000C6DC2046BDE8FE8FF0B5BB480024016855
:100C3000B1F8E20691F8C32191F85556861AB1F839
:100C40007026B849B848FFF7B2FE074631B2B74838
:100C5000FFF7A3FCB64900220FB9012802D04A7061
:100C60002046F0BD4878A84202D2401C4870F7E701
:100C70004A700124F4E72DE9F0438946A64900248F
:100C800080460F68204623463E7D18E0002501225D
:100C900097F815C00BE000BF02FB063138F91110C0
:100CA000A94200DD0D46A14200DD0C46521C9445D0
:100CB000F2DAB5F5C87F01DD401C00B25B1C9E4234
:100CC000E4DCA9F800406CE530B50346002001469D
:100CD0004FF4FA7407E000BF33F91150A54201DD6B
:100CE000401CC0B2491C9142F6DB30BDF8B58A4FBA
:100CF0000026ADF8006038680124027DB0F94A167C
:100D00008848FFF7E1FF054669468848FFF7B3FFCB
:100D10003B680146874893F8F1271E2A07D11E2712
:100D2000078045808180BDF80070C78006811B7DEB
:100D3000DB1EAB420BDCBDF90030B3F5487F06DAB1
:100D4000062904DA1E2A01D16421018100247A4D8A
:100D5000287854EA000102D0012C09D004E0D32005
:100D6000FBF710F8012C08D0012028702046F8BDB0
:100D7000012802D1D320FBF705F82E70F6E72DE904
:100D8000F34F6E4987B000270F606D49044638461F
:100D9000097811B16B4A012111706B4980460A78BC
:100DA000069208700320EFF748FCFFF7E0FA674867
:100DB000069B674902682046FFF772F8DFF858B1D2
:100DC000DBF8000090F8F10720284BD10125DFF86F
:100DD00084A119E00024D9460FE000BF05FB0041C3
:100DE0000EB2301A00B2F3F796F8D9F80010097D68
:100DF000721A641C2AF81200A4B2D9F80000007D0F
:100E0000A042EBD86D1CADB2DBF800105846497D0E
:100E1000A942DFD20546006863225446417D037D26
:100E200059432AF81120417D007D642241430AEB99
:100E300041004280F2F798FE01462868427D037D1A
:100E40005A4304EB42029180417D037D6522594360
:100E500004EB4101CA80417D007D6622414304EBE1
:100E60004100028105AA3C493948069BFFF7F8F981
:100E700004469DF81400DFF8E4A0DFF8E4902C4E5F
:100E8000E8B3DBF800005C4690F84000800710D51E
:100E90003448B0F900203448B0F900103348B0F9B4
:100EA0000000F2F7ABFB2A4A03B22B491046FEF7CB
:100EB0007BFF184D284A26482968F3F718FC0320C1
:100EC000EFF7D6FB206890F84000400703D529686B
:100ED0000846FFF701FC206890F84000000703D5A2
:100EE00029680846FFF75EFC206890F84000C006BD
:100EF00003D529680846FFF71FFC206800E037E0AB
:100F000090F82012CA0749D142E00000A82B012026
:100F1000E42B0120880210003C021000A8021000FF
:100F2000A402100000180120C4170120B4450120BC
:100F300080041000E0D70120770210007C0210002E
:100F4000720210006102100056021000D40410005A
:100F500060D00120E80B0120A80001204C02100005
:100F600048021000EA041000E6041000E804100033
:100F70000320EFF77DFB012C45D1D9F80010F26872
:100F80001143C9F80010DAF8001041F4007133E0A1
:100F9000890703D490F8A010090608D5007DF1490F
:100FA0002A6801EB400102EB4000F3F7E0F9DFF8BB
:100FB000B8B39BF8000018B9FFF798FE00287BD063
:100FC000206890F85002C00706D00898FFF739FC57
:100FD000E6490978084304D09BF80000042813D0A0
:100FE0002AE0D9F8001040F215421143C9F8001068
:100FF000DAF8001041F40051CAF800104FF4806193
:101000000120EFF73BFA64E1206890F8C001400648
:1010100015D5FFF709FE01280ED1D9F8001041F0CF
:101020000501C9F80010DAF8001041F08071CAF823
:1010300000108102EFF722FA9BF8000010B100F0D7
:10104000D5F904E001F0F8FE074603280FD0206828
:1010500090F86616490702D5C54A82F8008090F8D4
:101060001A14C90719D0C349097841B115E0C2481B
:10107000B0F90010BB48FFF77CFAC04928E1B0F98D
:101080002604BF4C0090BF4A2378BF49B548FEF7FD
:1010900001FB012811D084F80080BC4C206890F836
:1010A0006010490745D52968B0F968200846FFF760
:1010B000F4FA01281BD03CE017E0B448B44B009987
:1010C0000068427DB04800F0E6F90290AF48B14BAD
:1010D00000990068027DAB4800F0DDF90299012912
:1010E000DBD10128D9D12070042009B026E5216880
:1010F00091F8600080061CD5D9F8002042F0050365
:10110000C9F80030DAF800C04CF4806CCAF800C0AE
:1011100091F82022D20703D191F81A14C90703D0FD
:1011200043F02201C9F800104FF480610120EFF76D
:10113000A5F99948994A00780228206836D0007DA0
:1011400002EB40012A6802EB4000F3F710F9DFF8E8
:1011500028929248B9F90010FFF70BFA8749054623
:1011600008708F49A1F80080206890F829010007D5
:1011700001D5FAF75CFC2068DFF828A290F8311658
:1011800009072CD590F8931701F00F02417D86488E
:1011900000F04EF98AF80000206890F8931701F0EB
:1011A0000F02017D814800F043F91BE090F84010E8
:1011B0004906CCD58DF804808DF80580017D491E47
:1011C0008DF80610417D0092491E8DF80710B0F988
:1011D0005A20774901A82B68FDF710F8B7E7404679
:1011E0008AF800807349012D087062D17249012785
:1011F0000F70206890F8201209064BD55B490978DA
:10120000F1BB9BF80010D9BB6A4A9AF8001012781B
:1012100011433FD1417D5C4800F01BF982462068B4
:10122000017D584800F015F983462068634BB0F8FB
:101230004A16427D01EB0A0001B2534800F02BF937
:1012400020685F4BB0F84A16027D01EB0B0001B23B
:101250004C4800F020F95A49584B08681A6840EA8F
:10126000500040EA4000086042EA520242EA42006E
:101270001860544854490078097808430AD000E0BF
:1012800008E0524A4549B9F90000FFF77DFCF080BB
:1012900040B108E04D4A4149B9F90000FFF794F91F
:1012A000F08000E000253E48F18802888A4200D2A2
:1012B000018075B93149002781F80080444981F8DF
:1012C00000803D4981F800804249087808B1401EFD
:1012D0000870384609E770B505460320EFF7ADF909
:1012E0003E483D4C3E49026823782846FEF7D8FD2B
:1012F000264D00202070286890F84010890706D5F8
:10130000374AB0F9623037491046FEF74DFD364C8A
:10131000344A33482168F3F7EAF9286890F8400026
:10132000400703D521680846FFF7D6F9286890F8EA
:101330004000000703D521680846FFF733FA286804
:1013400090F84000C00603D521680846FFF7F4F97D
:1013500012492068F3F70BF8BDE870400320EFF75F
:1013600087B90000B445012072021000CA041000C1
:101370009F0210006F021000FE0410005F021000B8
:101380006C02100000180120C41701203C0210005C
:10139000B0021000AC0210006D021000E0D7012076
:1013A000540210006A02100048170120841701201F
:1013B000AAAE01006B0210005E021000A80210002D
:1013C000A4021000680210006702100088041000D8
:1013D000600210005902100056021000D4041000E0
:1013E00060D00120A800012088021000FE49FF4BB8
:1013F00001224A7000201870FD4B1A70FD4A1070CF
:101400000882488288820222CA820A83FA4A1070BD
:1014100048718871C8710872C87008714872488331
:10142000887201F11C02C872108090708870704739
:10143000521C10B5C2EB0233002206E030F9124014
:101440009C4201DB012010BD521C8A42F6DB0020C9
:1014500010BD10B5044647F6FF70002206E000BF3D
:1014600034F91230834200DA1846521C8A42F7DB04
:10147000002800DA002010BD10B504460020024606
:1014800006E000BF34F91230834200DD1846521CDA
:101490008A42F7DB10BD2DE9F04381460020054666
:1014A000064604460127186012E000BF39F914C04F
:1014B000BCEB010807D41D6807FA04FC45EA0C05DB
:1014C0001D60012503E01CEB010C00D50126641C06
:1014D0009442EBDB012E08D1C849096891F820122B
:1014E000490702D50220BDE8F083012DFBD1012080
:1014F000F9E730B50446B0F900300020012206E0DB
:1015000034F912509D4201DD2B461046521C8A428E
:10151000F6DB30BD2DE9FC5F1C461346B74D30F9B4
:10152000132000268946834600920192B44602FBAE
:1015300003F1DDF830A00120D5F800E02FE01F1AFC
:1015400010D47EB93BF91750BEF85E81454508DBE3
:10155000DDF80080454504DC05FB07112A440095B1
:1015600000E001261F184F4513DABCF1000F10D11F
:101570003BF91750BEF85E81454508DBDDF8048075
:10158000454504DC05FB07112A44019501E04FF0B5
:10159000010C012E05D0BCF1010F02D0401C5045BA
:1015A000CDDDA9F10100424381FB0401D31709F00D
:1015B00005FA002800DA0020611E884200DD084696
:1015C00000B2BDE8FC9F70B58C4A0346002012684B
:1015D00092F81962D48A158B9E4204DA92F81A6244
:1015E000A41B9C4200DC012092F81B328B4204DADF
:1015F00092F81C22AA1A8A4200DC012070BDF0B5C4
:101600007E4F059E05680C683F68F2B195420BDC81
:10161000AA1A00D5524292B27243C2F38F12AD1A87
:10162000012D12DA012510E0B7F818C0ACEB020268
:10163000AA420ADCAA1A00D5524292B27243C2F3FD
:101640008F121544AC4500DA6546E3B19C420BDCD1
:10165000E21A00D5524292B27243C2F38F12A41A18
:10166000012C10DA01240EE0FF8AFA1AA2420ADCE9
:10167000A21A00D5524292B27243C2F38F1214449E
:10168000A74200DA3C4605600C60F0BD17B581B09A
:101690001446DDE90101FFF796FF00281AD102A9DF
:1016A00001A8F2F713FF5548006890F82012490688
:1016B00009D500F51870017900914388028802A9C4
:1016C00001A8FFF79CFF01986080029820802046C7
:1016D00005F090FC1FBD2DE9FF4F484C8B4689B0AB
:1016E00020681D464FF0000A90F82112C9073FD02C
:1016F00043490A7EDAB300268946A04628E04049DD
:10170000D8F800001A3119F806708A5D90F8441272
:1017100001F00F010091C38A017D5846FFF7FAFEE0
:101720000446D8F800003A4690F8441201F00F0140
:101730000091038B417D0998FFF7ECFE01466FF0A5
:101740006300688129812A462046FFF79FFF761CA7
:1017500099F81810B142D2DCD8F8000090F8F107DF
:10176000062840D12049488B401C48833BE0FFE7D6
:10177000017D5846FFF7BDFE07462068417D099868
:10178000FFF7B7FE064620683A4690F8441201F08B
:101790000F010091C38A017D5846FFF7BBFE0790F9
:1017A0002068324690F8441201F00F010091038B3B
:1017B000417D0998FFF7AEFE0190079B6B810146C2
:1017C00028812A461846FFF761FF206890F88010AC
:1017D000C90608D590F88100400704D5042201A964
:1017E00007A8FEF731F90DE0A80410006702100009
:1017F00068021000690210006C0210003C02100028
:10180000885A10000DB05046BDE8F08F2DE9F04F1A
:10181000ADF5197D00207A90202171A809F061F9B9
:101820003C2141A809F05DF94FF00008202171A882
:1018300009F057F93C2141A809F053F9FA48DFF8BB
:10184000ECA3FB4A0068CAF8000000F5886111604B
:101850000021139113AB7DAA0121FBF7A4F90546E2
:10186000F448006890F8F117F3480A2900D18581FF
:10187000F1480E90F1480078022808D038B10226CD
:1018800000274FF001090DF10C0B01241EE00A2680
:10189000F6E796A9CDE900B113A800EB8402E1B206
:1018A00095ABDAF80000FDF7DAF909FA04F010EA6E
:1018B000080F0AD141A8969950F827208A4204DAE5
:1018C00040F8271071A820F81740641CAC42E0D9FA
:1018D00071A810F8171009FA01F07F1C40EA0808F7
:1018E000B742D2D3012474E04FF00008404671A9FA
:1018F00007E000BF31F91020A24201D14FF00108EA
:10190000401CB042F6D3CE4997AA13A8B1F90010F3
:1019100000EB8403CDE90021C548CDF808B0994615
:101920000168E2B25746DAF80000FDF7D3F97DA965
:1019300080B221F814007A99884249D9B8F1010F90
:1019400046D1BD480F9002208DF828000520ADF843
:101950001A0041F6583007900720ADF8180096A8F5
:10196000CDE900B0E1B295AB4A463868FDF777F9AA
:101970008046ADF83000BDF85602ADF84400BDF821
:101980005402ADF8420003A94846FEF727F9E1B238
:1019900050AB4A463868FBF7F9F90422494609A8D2
:1019A000F2F730FA03AA494650A8FBF734FF03AA1E
:1019B000494650A8FBF724FD03A805F01BFB9D48F2
:1019C000006890F8F107062802D19B4820F814809F
:1019D000641CAC4288D9974C206890F8F11706290E
:1019E00017D1007D944D420005EB40009549F2F778
:1019F00009FA0020944A216808E000BF0B7D441CCE
:101A000032F810606343401C25F813604B7D83421D
:101A1000F4DC0DF5197DF7E670B500231C461D4674
:101A20000CE000BF30F91560964202DD5B1CDBB2B2
:101A300003E0A34200D91C4600236D1C8D42F1DB5C
:101A4000A34200D82346184670BDF0B5441C4D1C77
:101A5000D38966195C435D4364006D00B4FBF6F402
:101A6000B5FBF6F5401C03FB00F6491C47184B4339
:101A700076005900B6FBF7F0B1FBF7F180B289B2FE
:101A8000AC4202D9D0831184F0BDD1831084F0BD63
:101A90002DE9FF4F674C8B466C4D206891B04FF09D
:101AA000000990F881101E9E4A0629689A46CC4685
:101AB00041F480514FF0020712D58DF81C70022EB0
:101AC00033D12960B0F83B27417D1198FFF7A4FF7F
:101AD0002068B0F83B27017D5846FFF79DFF24E0C2
:101AE000022E22D15A4A1278012A01D190F87FC0E1
:101AF0002960B0F83B27417D1198FFF78DFF8046A4
:101B00002068B0F83B27017D5846FFF785FF216824
:101B100008FB00F091F866106144814203D2032073
:101B20008DF81C0001E08DF81C70BAF1010F39D05E
:101B3000002211460B20FAF73DF82068B0F83B2749
:101B4000417D1198FFF768FF84462068B0F83B2775
:101B5000017D5846FFF760FF01460CFB01F03D4A4E
:101B600041F65833022EADF80E0023D0401C0593E9
:101B7000ADF80C0010888DF81C70401CADF82400E6
:101B80006A466046FFF761FF6B465946139A119803
:101B9000FFF7A1FD8146286840F4005028604846C0
:101BA00015B031E6FFF732FE002211460A20FAF79F
:101BB00001F8F4E7401C0493ADF80C001088401CB9
:101BC000ADF82400DCE72DE9F34F234823490068F2
:101BD000096840EA400040EA500040EA400040EA1C
:101BE0005007144841EA410141EA5101046841EAC1
:101BF000410141EA510A667D0021761C0120257DC4
:101C000083464BE0009B00FB05F203EB420CDFF840
