:100000005555AAAA7501000000000000000000007C
:100010001481000000000000000000008B2336B5B2
:1000200000091000E9070000790200008F020000BB
:10003000A5020000BB020000D10200000000000089
:10004000000000000000000000000000D5210000BA
:10005000D921000000000000E7020000DB210000C1
:10006000DD21000009200000F52100003F200000F4
:10007000F7210000F92100000722000015220000EE
:10008000F902000031220000332200003722000074
:10009000392200003B2200003D2200000000000049
:1000A0000000000000000000000000000000000050
:1000B0000000000000000000000000000000000040
:1000C0000000000000000000000000000000000030
:1000D0000000000000000000000000000000000020
:1000E0007501000000F002F800F05AF80AA090E84C
:1000F000000C82448344AAF10107DA4501D100F0E3
:100100004FF8AFF2090EBAE80F0013F0010F18BF55
:10011000FB1A43F00103184728EA000048EA0000F0
:100120000A444FF0000C10F8013B13F0070408BF1D
:1001300010F8014B1D1108BF10F8015B641E05D0BB
:1001400010F8016B641E01F8016BF9D113F0080F70
:100150001EBF10F8014BAD1C0C1B09D16D1E58BF02
:1001600001F801CBFAD505E014F8016B01F8016B39
:100170006D1EF9D59142D6D37047000000230024AC
:1001800000250026103A28BF78C1FBD8520728BFA7
:1001900030C148BF0B6070471FB51FBD10B510BD03
:1001A000DFF80CD0FFF7F8FF02F055F90EF0E0FA97
:1001B0000009100003B4FFF7F1FF03BC0EF0E0FAF2
:1001C0000A484FF0FF0101704FF0000080F31188E2
:1001D0004FF0000080F3098805484FF002010170DC
:1001E00062B604484FF080510160704722ED00E094
:1001F0000009100004ED00E002484FF0805101605A
:100200007047000004ED00E04FF0200080F31188FB
:10021000EFF3098058B10E49096820E9F00F8860B2
:1002200000B50B48006800F0F2F85DF804EB0848F0
:1002300008490A68026000688168B1E8F00F81F33C
:1002400009884EF0040E4FF0000080F311887047CB
:100250000409100008091000EFF311804FF020018D
:1002600081F31188704700004FF0000080F311887F
:100270007047000062B6704772B6704740BA704768
:10028000C0BA7047401E0028FCDC704700BE7047B3
:1002900040BA7047C0BA70471EF0040F0CBFEFF3AE
:1002A0000880EFF309804FF0010101F0F8BE1EF065
:1002B000040F0CBFEFF30880EFF309804FF0020149
:1002C00001F0EDBE1EF0040F0CBFEFF30880EFF35A
:1002D00009804FF0030101F0E2BE1EF0040F0CBFD5
:1002E000EFF30880EFF309804FF0040101F0D7BE6F
:1002F0001EF0040F0CBFEFF30880EFF309804FF0FE
:10030000050101F0CCBE4FF0000000B502F041FD48
:100310005DF804EBFFF778BF1EF0040F0CBFEFF39E
:100320000880EFF309804FF0000101F0B8BE000033
:10033000194910B5012008701849002008601849B3
:100340000860184908601849086000F0B3F900F027
:1003500045F900F063F8002010BD10B5114800F019
:1003600024F90E490968884209D00D4908600A48F5
:100370000078022803D1BDE81040FFF73DBF10BD53
:1003800010B5FFF7EAFF044902200870FFF718FFD5
:100390004FF0FF3010BD00000009100004091000EC
:1003A000080910000C0910001009100070B50D4666
:1003B0000446C1698068CC220EF0DDF8E169A068CE
:1003C000084440384FF08071C163216A8163002185
:1003D00041630163C1628162C0E908514FF00B3192
:1003E000C1614FF00A3181614FF0093141614FF035
:1003F000083101614FF00731C1604FF00631816073
:100400004FF0053141604FF00431016070BD8269E9
:100410008168914201D802F0BCB8704710B54FF422
:10042000B4714C480EF0D1F8002010BD70B50546EF
:1004300000EBC501474800EB8104FFF70DFF0646BE
:10044000207828B13046FFF70FFF6FF0010070BD34
:100450000320207000206560206204F11C0000F081
:100460007DF83046FFF700FF002070BD2DE9F04118
:100470000F46384900EBC000012501EB800400263F
:10048000FFF7EAFE8046206A3843206204F11C0030
:10049000074600F08AF80BE0216A026C114202D094
:1004A00000F060F901262946384600F074F86D1C0A
:1004B0000028F1D1012E01D1FFF74FFF4046FFF791
:1004C000D3FE0020BDE8F08170B50D46214900EB58
:1004D000C00001EB8004FFF7BFFE216AA94321623F
:1004E000FFF7C2FE002070BD70B50C46194900EB45
:1004F000C00001EB800500202060FFF7ADFE296AF7
:100500002160FFF7B1FE002070BD2DE9F0410D46DE
:10051000104900EBC0001F46904601EB8004FFF736
:100520009BFE06460C4800680564216A294203D1F7
:1005300004F11C0100F028F9206A28403860B8F165
:10054000010F02D1206AA84320623046FFF78CFEDB
:100550000020B7E7480B10000409100000210160DB
:100560000846704730B50A6812B10B46C46B09E003
:1005700000220860C0E903210BE000BF02F10C0378
:10058000D26812B1D56BA542F8DC1A68C0E9032124
:100590001860002030BD0068002201E0C068521CD5
:1005A0008A4201DA0028F9D1704700687047026971
:1005B0000AB1116831B96FF00400704701F10C0203
:1005C000C96839B18142F9D1C9681160002101615E
:1005D000084670476FF003007047000010B54FF4F5
:1005E000C87132480DF0F1FF002010BD2DE9F04137
:1005F000884605462D4900EB8500174601EBC004EF
:10060000FFF72AFE0646207830B13046FFF72CFE71
:100610006FF00100BDE8F08102202070E761142234
:10062000414604F1080065600DF060FF0020206283
:1006300004F12400FFF792FF3046FFF715FE00207B
:10064000E8E770B5194900EB800001EBC004FFF743
:1006500003FE0546D4E90701814205DB144804F195
:100660002401006800F090F8206A401C20622846AF
:10067000FFF7FAFD002070BD70B50C4900EB80005B
:1006800001EBC004FFF7E8FD0546206A08B1401EF3
:10069000206204F12400FFF788FF10B1606A00F0C7
:1006A00011F82846FFF7E0FD002070BDB00C1000E7
:1006B0000409100010B54FF42A7140480DF085FF71
:1006C000002010BD10B5044690F8380002280BD069
:1006D0002046FFF76CFF022084F838003849204696
:1006E000FFF740FFFFF739FE002010BD2DE9F05F56
:1006F0008B460646314900EB06109046DDE90AA913
:1007000011F820201D461AB16FF00100BDE8F09FDE
:1007100001EB8004FFF7A0FD074601202070C4E92B
:100720000165C4E90585C4E907A91422594604F105
:1007300024000DF0DBFE002084F8370084F8380038
:100740006169E0602061C4E90F1020460C99FFF751
:100750002DFEA0602046FFF7B5FF3846FFF784FD69
:100760000020D3E710B5044690F83800022809D0DD
:100770002046FFF71CFF022084F83800104920466D
:10078000FFF7F0FE002010BD70B5044690F8380069
:100790000D4602280BD12046FFF709FF032084F8FD
:1007A000380029462046FFF7DDFEFFF7D6FD002082
:1007B00070BD04480068406870470000400E10009B
:1007C0000C09100004091000F0B58446002004460E
:1007D0000C4F14E05CF824600323DD0046FA05F2B8
:1007E00080EA02600825002802DA87EA400000E07B
:1007F00040006D1E002DF6DC5B1EEED5641C8C42A5
:10080000E8DBF0BD1B0000800D4880470D48004725
:10081000FEE7FEE7FEE7FEE7FEE7FEE7FEE7FEE7B0
:10082000FEE7FEE7FEE7FEE7FEE7FEE7FEE7FEE7A0
:10083000FEE7FEE7FEE7FEE7FEE7FEE7FEE7FEE790
:1008400057080000C50000004FF0005191F821004A
:1008500010F00C0009D0042809D0082809D078200D
:10086000401E01F8280F087070470F20F8E71E207F
:10087000F6E73C20F4E7704707493F200870E3E7BC
:10088000054933200870DFE7034800783F2801D08E
:1008900000207047012070472100002010B5084952
:1008A000042001240023C1F8FC00064A14601360F0
:1008B000054BA0221A70C1F8FC01C86710BD0000EA
:1008C00084E000E0D403002202E400E010B504203C
:1008D00000F0D9F8052000F0D6F8062000F0D3F893
:1008E000072000F0D0F8082000F0CDF8774900206C
:1008F000086076492031086075490880734A121DE6
:100900001060724A243210608880704A0832106089
:100910006E4A2832106008816C4A0C3210606B4AB3
:100920002C3210608881694A10321060674A303278
:10093000106008826749086048600621042000F0C2
:10094000BAF80621052000F0B6F80621084600F0A6
:10095000B2F80621072000F0AEF80421082000F0CC
:10096000AAF8042000F09BF8052000F098F8062073
:1009700000F095F8072000F092F8082000F08FF8BA
:10098000042000F074F8052000F071F8062000F053
:100990006EF8072000F06BF8BDE81040082000F06A
:1009A00066B800EB80004FF6FF7101EA400147484E
:1009B00000220260C206118601210160704743498E
:1009C00000200860704700EB80004FF6FF7101EADD
:1009D00040013E480022001D02604FF00052918607
:1009E00001210160704739490020091D08607047E6
:1009F00000EB80004FF6FF7101EA4001334800220E
:100A0000083002604FF000521187012101607047E9
:100A10002E49002008310860704700EB80004FF637
:100A2000FF7101EA4001294800220C3002604FF0BA
:100A300000529187012101607047244900200C3148
:100A40000860704700EB80004FF6FF7101EA40013B
:100A50001E480022103002601D4A0E321180012112
:100A6000016070471949002010310860704700F09C
:100A70001F020121914040094FF0E02202EB80006B
:100A8000C0F80011704700F01F0201219140400999
:100A90004FF0E02202EB8000C0F88011704700F0B8
:100AA0001F020121914040094FF0E02202EB80003B
:100AB000C0F8801270474907090E002803DA00F0D9
:100AC0000F00054A00E0054A8154704724050022C2
:100AD000320000208400002214ED00E000E400E079
:100AE00059480121016000210160704757480121E8
:100AF000016000210160704710B5002000F08BF804
:100B0000534800220260FFF7F1FFFFF7E9FF514869
:100B100002605149A0200870002000F088F8BDE86C
:100B20001040002000F06BB84A4801211C380160D9
:100B300000210160704710B50446002000F06BF8FA
:100B400043484149046001200860002000F06FF82C
:100B5000BDE81040002000F052B830B53C4889B0E4
:100B60000468002C11D0202168460DF02EFD3B4872
:100B700000783A4B00216A465B1C02E0CD5C55547C
:100B8000491C8142FADB1146A04709B030BD2E490D
:100B900001201C39086070473048203000782F4908
:100BA00021310978401A00F03F0070472C49027843
:100BB0000A7042784A7082788A70C278CA70027964
:100BC0000A7142794A7182798A71C079C871704715
:100BD00024480068417882784FF00050437A0374CB
:100BE000214B1B78437443891B0A83744389C37464
:100BF00001754275C1798175017AC175704700F040
:100C00001F020121914040094FF0E02202EB8000D9
:100C1000C0F80011704700F01F0201219140400907
:100C20004FF0E02202EB8000C0F88011704700F026
:100C30001F020121914040094FF0E02202EB8000A9
:100C4000C0F88012704700005C840022A0000022DF
:100C5000140910007C04002200E400E000040020DD
:100C600000020020240910006C09100010B50920B2
:100C700000F02AF80A2000F027F8092000F030F8E8
:100C80000A2000F02DF80521092000F035F8052193
:100C90000A2000F031F81E487F21417081700171F7
:100CA000002100F848191B49096891F8C810CA07C3
:100CB00009D08A0707D510F84A2FC1F38203012112
:100CC00099408A43027010BD00F01F02012191403B
:100CD00040094FF0E02202EB8000C0F8801170471D
:100CE00000F01F020121914040094FF0E02202EB89
:100CF0008000C0F8801270474907090E002803DA07
:100D000000F00F00044A00E0044A815470470000DC
:100D1000480000202409100014ED00E000E400E089
:100D20007047C9484FF48051018000BF00BF00BF29
:100D300000BF00BF00BF00BF00BF00BF00BF4FF437
:100D4000C051018000BF00BF00BF00BF00BF4FF413
:100D500040610180704710B5BB4C0720A41E607035
:100D60000020207044F2C000608000BF00BF00BFC0
:100D70004CF2C000608000BF00BF00BF4CF2E0003A
:100D800060800920FFF77EFA44F2E000608000BF37
:100D900000BF00BF4FF48040608010BDF0B500255B
:100DA0002E464FF00054E02717E000BF883401F0D2
:100DB0003F0160702170678000BF00BF00BFD4F8A2
:100DC00008C043F825C06680883C00BF6D1C521ED9
:100DD000491C3F2901D9401CC0B2002AE6DCF0BD05
:100DE00070B5994C2126268000BF00BF00BF00BF10
:100DF00000BF40F02105258000BF00BF00BF00BF3D
:100E000000BF44F22101084320800420FFF73AFA92
:100E1000258000BF00BF00BF00BF00BF268000BF0D
:100E200000BF00BF00BF00BF0020208000BF00BF88
:100E300000BF00BF00BF70BD70B5044682480025EA
:100E40000580824E0120306000F0EBF8FFF783FF51
:100E500000F0D7F85C20FFF7C3FF234601220221F0
:100E60000720FFF79BFF231D012203210620FFF728
:100E700095FF04F10803012204210520FFF78EFFEE
:100E800004F10C03012203210720FFF787FF04F17F
:100E90001003012204210720FFF780FF00F0B1F8C2
:100EA000FFF759FFFFF73DFF356070BD70B5044691
:100EB000654800250580654E0120306000F0B1F8DE
:100EC000FFF749FF00F09DF85C20FFF789FF2346FC
:100ED000012208210020FFF761FF231D01220921C3
:100EE0000020FFF75BFF04F1080301220A21002024
:100EF000FFF754FF04F10C0301220B210020FFF740
:100F00004DFF04F1100301220C210020FFF746FFE2
:100F100004F1140301220D210020FFF73FFF00F030
:100F200070F8FFF718FFFFF7FCFE356070BD2DE984
:100F3000F0439946079B002603B18026434C0023CB
:100F4000803CC0B21F4665044FF001081DE000BFA1
:100F500085F8890001F03F0C4CEA060C85F888C042
:100F600059F823C0C5F88CC0C4F8B080C4F8B0707C
:100F7000491CC9B2402902D3401CC0B20021D4F898
:100F8000C0C0BCF1000FFAD15B1C9342E0DBBDE8AE
:100F9000F0834FF0005282F88900002319B18020BD
:100FA00082F8880001E082F88830284801218038E2
:100FB000C0F8AC10C0F8AC30D0F8C0100029FBD19C
:100FC000704738B50C4605460021F820FFF7E1FFD1
:100FD0000020014600902B462246F820FFF7A7FF8D
:100FE00038BD38B50C46054601210020FFF7D1FF7A
:100FF0000120002100902B4622460846FFF797FF6C
:1010000038BD10B5104C4FF4804020800420FFF70D
:1010100039F90020208000BF00BF00BF00BF00BF23
:1010200010BD10B5084C4FF4C050208000BF00BF69
:1010300000BF00BF00BF4FF4805020803520FFF775
:1010400021F90020208010BD8A000020801000229D
:10105000F8B5F94C0026354626700120A66000F050
:1010600048FC0E2000F045FC0D2000F042FC0C2056
:1010700000F03FFC032000F03CFC012000F045FCA8
:101080000E2000F042FC0D2000F03FFC0C2000F090
:101090003CFC032000F039FC00F0E1FD6A4602212F
:1010A000E64800F0A9FFE6499DF8010008709DF8A8
:1010B0000000432800D003260521012000F031FC68
:1010C00005210E2000F02DFC05210D2000F029FC4B
:1010D00005210C2000F025FC0621032000F021FC56
:1010E000012000F0FAFB0E2000F0F7FB0D2000F0CD
:1010F000F4FB032000F0F1FBA57065703046F8BDED
:1011000070B5CD4BD888C0F38001C0F34016C0F352
:1011100000247140C0F3C0226140C0F380355140CB
:101120006940400840EAC130D88070BD38B50D46EE
:10113000009014460421684601F08EFAC14989786E
:10114000C90602D5062D00D1401C0099A16484F87F
:10115000460038BD106570472DE9F047BA4D064688
:10116000B84C286890F83404C00718D0608840F064
:1011700080006080FFF7C4FF296800F00700084482
:1011800090F8350484F83500FFF7BAFF2968C0F3FA
:101190000210084490F83504800084F834000020E0
:1011A00084F83E0028684FF002084FF0E90990F8F3
:1011B00045176174A5494FF0010AC1F30E07042ECB
:1011C00006D0032E1FD0022E41D0052E5CD083E026
:1011D0009C4A3146A06AFFF7A9FFE06A2065A4F89F
:1011E0004070A07880060028286890F8590703DA34
:1011F00020F0060040F0040084F8440084F84580A4
:1012000084F8429068E08F4A3146A06AFFF78EFF6B
:10121000E06A20658B480421283001F01DFA8B49D3
:1012200001EB8000C0F30E00A4F84000A078800617
:101230000028286890F8590703DA20F0060040F0EB
:10124000040084F8440084F84580ED2019E07D4ACC
:101250003146A06AFFF76AFFE06A2065A4F8407093
:10126000A07880060028286890F8590703DA20F053
:10127000060040F0040084F84400042084F845008F
:10128000E52084F8420027E0A178890624D500F201
:10129000C93028340178A173C17821744178E17490
:1012A0008078207584F816A0664A31462068FFF7DA
:1012B0003DFF6648DC30C0F30E002083286890F8BC
:1012C000590720F0060040F00200207784F81D80C6
:1012D00084F81A90A4F12804286890F80A17C9071E
:1012E00008D05B49C1F800A014F8430F40F0030098
:1012F000207008E0A17890F86C07890701D520F0EC
:10130000030084F843004C484670BDE8F0474D4860
:1013100000F071BD2DE9F0414A4C05464FF0000840
:10132000494E84F83E80E12084F8420030684A4B00
:10133000414F90F84517617490F80A17CA0745495C
:10134000C1F30E0101D0012D02D0062D1DD031E0D8
:10135000E27CFA7062883A714FF00A0C84F813C08C
:1013600042F001026280A4F8401090F853171A78F6
:1013700001F0F00102F00F021143E17690F85507F9
:101380006077304A2946012010E0A4F8401090F818
:1013900053171A7801F0F00102F00F021143E176C1
:1013A00090F855076077274A2946A068FFF7BEFEE8
:1013B000E06820656188C80705D094F8420040F0D5
:1013C000020084F84200306890F80A27D20716D04D
:1013D000062D04D0072D02D0012D05D017E014F8FA
:1013E000430F20F0030008E01949C1F8008014F809
:1013F000430F20F0030000F10200207007E090F896
:101400006C07890701D520F0030084F843007D7044
:10141000BDE8F0410B4800F0A6BC06281ED0072806
:101420001CD001281AD0042805D0032803D0052891
:1014300001D0022813D18FE61809100004100020F3
:101440006C091000E810100024091000C08501206C
:10145000280A002200800120F60710005AE7704792
:101460002DE9F843F94D8146012901D10020687129
:101470006C79F84F641CF64EA7F124080FE0306831
:1014800090F80A07C00702D057F8242001E058F866
:101490002420694648469047012805D0641C082C42
:1014A000EDD90020BDE8F8836C719DF80000F9E7E4
:1014B00070B50178002932D001465422E64801F087
:1014C000B7FBE34D286890F80A07C0070AD0E24846
:1014D000017811F0760F05D08278920702D441F09E
:1014E00080010170D94E7078002818D10121DA48A6
:1014F000FFF7B6FF040012D0286890F818114907CA
:101500000ED590F8430780070AD400F069FD022049
:10151000B07000F069FD192000F018FC747070BD07
:10152000002030702046BDE8704076E7002070470C
:101530008268120005D00078000602D501200870EC
:101540007047002070478268120006D00078C007FC
:1015500003D0062008700120704700207047026AFF
:10156000120006D00078000703D50720087001207C
:10157000704700207047826A120008D0C26A32B1F8
:101580000078800603D502200870012070470020F3
:101590007047826A120006D00078C00603D5052085
:1015A00008700120704700207047826A120006D040
:1015B0000078800703D504200870012070470020C0
:1015C0007047C26A32B10078400703D50320087023
:1015D00001207047002070470020087001207047EC
:1015E0002DE9F0419C480421283001F035F80446EB
:1015F000994804212C3001F02FF8944F0546DFF86C
:1016000058827878954E042801D002280CD198F899
:101610000200800602D5A200904902E0620006EBBB
:1016200044018F4801F004FB7878032801D0022898
:1016300011D198F80200800603D5AA0006EB8401B8
:1016400004E005EB44006A0006EB4001BDE8F04110
:10165000844801F0EDBABDE8F0811FB500F0CCFA86
:1016600001208DF80000804801907C480290DC3019
:10167000039079484168684688471FBD2DE9F05FAF
:10168000DFF8CC91754D0024D9F800004FF0010A25
:1016900090F80007C0072BD06F4890F83A6006B961
:1016A000012690F83900DFF8A48190FBF6F007B22C
:1016B00098F80100042802D0032802D00AE02C2464
:1016C00021E0654840240421283000F0C5FF63492B
:1016D00001EB800598F8010002280AD005280BD0FC
:1016E000042810D003280ED002280CD005280AD0D8
:1016F00062E06C24594D06E0D9F80000574D2C24C7
:1017000090F80177DC354046D8F80880B84553DCBE
:101710008346B8F1000F04D14FF4DC7153480CF04C
:1017200054FF0021514807E050F8212035F91130CD
:101730001A4440F82120491CA142F5DB08F10101BF
:101740005A46CBF80810B94230DB0021916051783D
:10175000042903D0032901D0022914D1D9F800109B
:10176000DFF80CC1D1F8043700210AE030F821700D
:101770007743FF1A25F8117050F821704CF821704A
:10178000491CA142F2DB9BF80110052914D100216C
:10179000384A08E030F8213025F8113050F821306F
:1017A00042F82130491CA142F4DB05E09BF801001E
:1017B000FFF733FE4FF0000A5046BDE8F09F2DE9D9
:1017C000FF41FFF70DFF244DA878400603D4FFF733
:1017D00055FF002816D01E4F1C4C386890F80A0799
:1017E000C00708D06078012805D1E078E874207936
:1017F000688007F0D6F900211748FFF731FE18B1CD
:10180000FFF70BFEBDE8FF8100266670386890F890
:101810000A17C90701D018490E60184AA42111738C
:1018200090F81801400702D5A67000F0D5FB20788B
:10183000012825D08DF800600B48019007480290E0
:10184000DC300390696868468847DBE718091000B8
:101850002409100090E70000E8101000C085012066
:10186000FC8B0120588C012000800120F88601208B
:10187000B0880120688A0120280A00220010002078
:1018800002208DF80000D7E72B4810B501684FF013
:10189000000291F81801430728480AD591F8431728
:1018A000890706D48178012907D002290ED003299F
:1018B00012D18270BDE81040CFE60221817000F0A5
:1018C00093FBBDE81040322000F040BA0321817044
:1018D0004078BDE81040A0E510BD00F01F020121D6
:1018E000914040094FF0E02202EB8000C0F8001167
:1018F000704700F01F020121914040094FF0E022A3
:1019000002EB8000C0F88011704700F01F02012137
:10191000914040094FF0E02202EB8000C0F88012B5
:1019200070474907090E002803DA00F00F00044A47
:1019300000E0044A8154704724091000180910007F
:1019400014ED00E000E400E0F64801680029FCD155
:101950007047F0B527260022F24DF3484FF480116E
:101960005C270C465FF0000303EB000E11F803C088
:101970005B1C8EF860C00C2BF6DB2B68002BFCD1B7
:101980008276C77604F10C0103EB000E11F803C058
:101990005B1C8EF860C00C2BF6DB29680029FCD19B
:1019A000511C8176C776921C04F12D01B242D8DB1E
:1019B000F0BD2DE9F0479246089E5B1EC6F1080176
:1019C0000022D94C01F0FF0C1546002189469A42AD
:1019D0000BDA00EB0208875C98F8018027FA06F71B
:1019E00008FA0CF847EA080703E007D1875C27FAF2
:1019F00006F701EB040888F8607003E001EB0408C7
:101A000088F8609001F1010102F101020C29DEDB8E
:101A1000C4490F68002FFCD10AEB0501A1765C21B7
:101A2000E1766D1C022DD0DBBDE8F08718B50024EF
:101A300011235C222146BD480094FFF7BAFFBB4842
:101A40001823622200211E300094FFF7B2FF18BD58
:101A50002DE9F0470024DFF8CC82B34982462546C1
:101A600026464FF05C0900209C4206DA00EB010C90
:101A70001AF804708CF8607002E0471887F860600C
:101A8000641C401C0C28EFDBD8F800000028FBD1B8
:101A90005019887681F81B906D1C032DE3DBC3E79A
:101AA000A24800B516235E2200216438FFF7D0FF5C
:101AB0009E482023642200213C385DF804EBC7E7F0
:101AC00070B50023984C05E0CD5C1E195B1C86F8B0
:101AD00060505BB29342F7DB92490B68002BFCD15C
:101AE000A07642F01000E07670BD30B5904C072231
:101AF0000220216801F24271FFF7E2FF2168022211
:101B000001F24A710920FFF7DBFF2168012201F28F
:101B10004C710B20FFF7D4FF2168062201F24D71B2
:101B20000C20FFF7CDFF814920688A31814D90F864
:101B30005307097800F0F00001F00F010843287006
:101B4000012229461220FFF7BBFF2168072201F27C
:101B500054711320FFF7B4FF7448012289300078D4
:101B600000F00F01206890F85B0761F31F102870E8
:101B700029461A20FFF7A4FF2168042201F25C71B4
:101B80001B20FFF79DFF694802228D30294600780F
:101B9000287066488B30007868701F20FFF790FF30
:101BA0002168062201F262712120FFF789FF5F4858
:101BB00002228E302946007828705C488C300078EC
:101BC00068702720FFF77CFF2168022201F26A710A
:101BD0002920FFF775FF2168072201F26C713D2073
:101BE000FFF76EFF206890F8C0175348017033214B
:101BF00041740B21817430BD5048002202604F486F
:101C00001C3802604E4802610121016182608160DE
:101C10000260016002604349A0F574700B68002BFC
:101C2000FCD141490B7B43F020030B730B7B23F06A
:101C300040030B730B7B23F080030B730B7B23F0B0
:101C400020030B73C0F8D823C0F8E0233D4802708E
:101C500070473448183001680029FCD1704730B50E
:101C600037480024743004603548803004603448BC
:101C7000C4600121C160C4600460016004602E4D35
:101C80002020AD1D287068702749593D0873A42095
:101C900008732448183001680029FCD1FFF7ACFF15
:101CA000FFF723FFFFF7FCFEFFF7C0FEFFF751FE33
:101CB00025480460244820300460AC8530BD38B528
:101CC0000546194C806C00906073010AA173010CE9
:101CD000E173000E2074042269462B20FFF7F0FE0A
:101CE000012205F146012F20FFF7EAFE95F8460094
:101CF000A074286D0090E074010A2175010C6175D3
:101D0000000EA075042269463520FFF7D9FE009821
:101D1000800F84F840000749012208703920FFF73E
:101D2000CFFE38BD040B0022001000206C0710000D
:101D3000240910003C111000530000201C0C00224C
:101D4000D00300221909100020050022C9490022F1
:101D50000A600A069085012008607047C64801683D
:101D60000129FCD1704770B50446FFF7A8FFC348AE
:101D7000B4F840100180217C00F8011C94F8421056
:101D80004173BF4DA07C85F83600042204F1110197
:101D90000520FFF795FEBB4E02220920316801F2B3
:101DA0004A71FFF78DFE022204F116010D20FFF7A4
:101DB00087FE022204F118010F20FFF781FE306830
:101DC000052204F11A0190F8540720771120FFF73B
:101DD00077FE012204F143013D20FFF771FEA64882
:101DE00001680129FCD194F842002873BDE87040D5
:101DF00041F28830AAE77CB50446FFF760FF9F48B0
:101E0000B4F84010018094F8371000F8011C94F8E1
:101E1000421041739B4E316891F80A07C0076BD09E
:101E2000B1F80D57B1F87007A178090607D594F8F5
:101E30003510084494F8341080B229448DB28DF8DE
:101E40000400000A8DF80500022201A94120FFF7D5
:101E500037FE280A8DF800508DF8010002226946ED
:101E60000920FFF72DFE022204F130011B20FFF7AD
:101E700027FE022204F132012320FFF721FE012276
:101E800004F136010720FFF71BFE012204F13B019C
:101E90000820FFF715FE012204F13C012120FFF785
:101EA0000FFE012204F13D012920FFF709FE012266
:101EB00004F144011820FFF703FE012204F145015B
:101EC0001920FFF7FDFD30686F49012290F8540793
:101ED00020F0F00008701320FFF7F2FD94F83E00A8
:101EE000674DC0070CD0306800F2C67190F8C60785
:101EF00085F8360001220AE0022201F24A71AFE7BA
:101F000094F8380085F83600012204F138010620E3
:101F1000FFF7D6FD012204F143013D20FFF7D0FD7C
:101F2000554801680129FCD194F842002873BDE8A6
:101F30007C4041F2883009E75249544B0A6892F8D4
:101F40004D2702700A68B2F85027428009681B7852
:101F500001F2547103F00F0311F8012C02F0F002AA
:101F60001A4302714A89C2804A8A0281CA7B8272FC
:101F7000CA7DC27249780173704710B504460146A4
:101F800001220C20FFF79CFD0222A11C0F20FFF76D
:101F900097FD0122211D1220FFF792FD0222A11DB3
:101FA0001D20FFF78DFD022204F108012520FFF717
:101FB00087FD012204F10A012220FFF781FD0122A1
:101FC00004F10B012A20FFF77BFD04F10C01012233
:101FD000BDE81040142073E52949042008737047B8
:101FE00027492020087370472549C020087370478F
:101FF000204900200860704770B51F4C1C342368CE
:10200000002BFCD11D4603E0C6185B1C86F88050EF
:102010008B42F9D32368002BFCD102E0C45CD4547A
:102020005B1C8B42FAD370BD10B500F0CDFE114998
:10203000002008601648007800280FD00E48001DC8
:1020400001680029FCD10E48C078400602D511492C
:1020500001200870BDE81040FFF7B1BB10BD10B5FE
:1020600000F0B2FE034900200860BDE81040FFF711
:102070000BBC000020050022000B002254000020B1
:1020800000100020240910003C111000F607100079
:102090001909100018091000FEF7E4FCFEE70446D9
:1020A000012006F08DFE00210F20226806F09DFE23
:1020B00001210F20626806F098FE02210F20A2681D
:1020C00006F093FE03210F20E26806F08EFE0C213D
:1020D0000F20226906F089FE0E210F20626906F0AA
:1020E00084FE0F210846A26906F07FFE20210F2002
:1020F000E26906F07AFE3E48026821210F2006F0D0
:1021000074FE3B481038026822210F2006F06DFE55
:1021100037480C38026823210F2006F066FE344849
:102120000838026824210F2006F05FFE3048001DA9
:10213000026825210F2006F058FE2D483438026829
:1021400026210F2006F051FE294814380268272165
:102150000F2006F04AFEFEF72CFB024630210F202E
:1021600006F043FEFEF77EFCFEE710B5012805D021
:10217000022805D0032809D0032102E0012100E054
:102180000221BDE81040032006F01ABE0021032002
:1021900006F016FEFEF766FCFEE710B504460146A3
:1021A000042006F00DFE012C02D1FEF75BFCFEE7D9
:1021B00010BD0146082006F003BE0146062006F0C9
:1021C000FFBD10B504460146072006F0F9FD34B105
:1021D000012C07D0022C08D1FEF744FCFEE7FEF7E5
:1021E00041FCFEE7FEF73EFCFEE710BD0220E8E7FB
:1021F00038ED00E000F0E8BD704770471E4810B5AC
:10220000016821F00401016000F0DEFDBDE810402E
:10221000FEF7A3BC7047704710B500F0D5FDBDE8D0
:10222000104006F0A5BC10B500F0CEFDBDE8104092
:1022300007F01AB810B500F0C7FD1048006890F814
:102240002901800703D5BDE8104006F09FBC10BDF2
:10225000704700F0B9BD70477047704770477047CE
:102260007047704770477047704700F0ADBD7047CA
:1022700000F0AABD7047704710ED00E0240910007F
:1022800010B5422186480CF07EF985488549864A7A
:102290000180428085498180854BC380854C0481C3
:1022A000854C4481854C8481854CC481854C048255
:1022B000854C4482854C8482854CC482854C048341
:1022C000C387428781878449A0F84010834801680A
:1022D000814801F24E710A884280CA89C280C98A47
:1022E000018110BDF0B585B0FF22142168460CF0C5
:1022F00042F96846FEF7A0FD03980325012707264B
:1023000045F2AA54A04202D00498A0423BD1DDE994
:102310000001884206D00299884203D00198884281
:1023200008D100900498A04210D10098000E012816
:1023300005D007E05FF00000FFF73FFF0FE00098D7
:10234000C0F301370098C0F3032602E00120FFF735
:1023500034FF0398A04214D1009800F007056049AB
:1023600007F0030040EA061081F86000012088763B
:102370001120C8765B48017865F30201017005B051
:10238000F0BD0220D8E70120FFF717FFF9E770B58D
:10239000FEF772FAFEF7B0FB504D28680078A528CA
:1023A00002D00120FFF7F9FE4F48006810B100206D
:1023B000FFF7F3FE28684FF000064FF0010490F895
:1023C00029118A074FF0085104D5C1F89863C1F864
:1023D000804301E0C1F8984390F82811434A01F086
:1023E0000101116090F82811121DC1F34001116024
:1023F0003F490C60091F0C60091F0C6090F8C80071
:10240000C1070BD0810709D5C0F38200012805D18F
:1024100034483130017821F007010170FEF780FC6B
:10242000FEF754FAFEF714FE032801D1FFF79DFED4
:10243000FEF7CEFBFEF732FAFEF718FCFFF752FF6D
:10244000286890F8290181072A4801D5046000E036
:102450000660046070BD10B54FF0005140F2751079
:102460004881FFF794FFFFF70BFF23493F200860E7
:1024700022490020086023482149016001F2A4603C
:1024800021490860214800F09AFAFDF7F5FE00F0B6
:102490003FF8FDF7EFFEFDF773FF012010BD0000D0
:1024A0000000012000800120E6990120A69F012064
:1024B00042000120C0850120CE200120FC20012007
:1024C000402101206E210120062601203426012012
:1024D000021D0120301D01204C2510002409100090
:1024E0000010002020000020C810002288040022D4
:1024F000280A00227C0400223C21012068091000E7
:102500000C1710004C091000500910005424100042
:102510007FB5FDF70DFF204D002400BF05EB4410F3
:1025200000F11002017F4CCACDE90261CDE9002320
:102530000FC8FEF7DBF810B10120FFF742FE641C64
:10254000072CEBDB144D002415F1E00504EB4400EF
:1025500005EB8001091D55F8200006C9FEF746F875
:1025600010B10120FFF72DFE641C072CEEDB0B4D94
:10257000002400BF05EBC400416855F83400FDF7A6
:1025800055FF10B10120FFF71CFE641C062CF1DB87
:102590007FBD4068FFF72ABEB4E70000E8E800000E
:1025A0002DE9F0479246012547F6F87256429946C2
:1025B000AC460024089F16E030F8143031F814803F
:1025C000A8EB03031BB29A4200DD1A469E4200DAD2
:1025D0001E46002B02DA4FF0000502E001DD4FF04D
:1025E000000C04F10104BC42E6DB55EA0C0306D002
:1025F000012D01D02DB108E0BCF1010F05D1002261
:1026000003E0BCF1010F00D1324600252C462B46D9
:1026100011E000BF30F8136031F813C01644ACEB82
:10262000060636B24E4505DAC9F1000C664501DDF5
:102630003544641C5B1CBB42ECDB95FBF4F10A44A3
:10264000002105E030F8113013442AF81130491CFC
:10265000B942F7DBBDE8F08770B5034600200246BB
:10266000FC4C09E09D5C521C05F00F0604EB1515AF
:10267000A65D2D78304428448A42F3DB70BD884241
:1026800000D308467047884200D808467047884201
:1026900000D30846904200D3104670472DE9F0471A
:1026A000D0F810C00568046A85FB0C12A1FB041267
:1026B00042694368914683FB02628269E246A6FB57
:1026C00002677618D0E9021781FB07C8C069ACFB26
:1026D00000C81CEB060682FB0A2CA2FB011280FB41
:1026E0000902A0FB0502401884FB0712A1FB03129C
:1026F0000818301A4FEAE071ACE72DE9F04389B0D1
:10270000044600680090606801902069029060684B
:10271000039020690490A069059020690690A06943
:102720000790E06908900D466846FFF7B7FF8046BE
:10273000A0680190E0680490606907908946684647
:10274000FFF7ACFF064660680190A0680290206920
:102750000490E0680590A0690790606908900F46B2
:102760006846FFF79BFFC5E90401C5E90267C5E9B3
:10277000008909B0BDE8F0832DE9FF4F4FF0000A52
:1027800089B09B465746D146D04656465546544694
:10279000202168460BF019FF0B9810E0099982443C
:1027A00031F9102000FB00F102FB0166884441432F
:1027B00002FB009901FB004417440D44401C58459E
:1027C000ECDD0B99ABEB0100401CCDE9000ACDE933
:1027D0000654CDE90486CDE9027968460A99FFF7E7
:1027E0008CFF0DB0BDE8F08F9B480068017B427BF9
:1027F00041EA0221827BC07B41EA024141EA00605A
:1028000040007047944800680179427941EA02210A
:102810008279C07941EA024141EA0060704700B51F
:10282000FFF7E2FF4008400000BDF8B50E46044641
:10283000FFF7F5FF0090FFF7D7FF05460421684634
:10284000FFF70AFF04EB40070024009920462346C7
:102850004FF0010C0CFA03F20A4207D02A4204D0CE
:1028600037F8102026F81420641C401C5B1C172B22
:10287000F0DBF8BDC6E7FCB50E460746FFF7CFFF15
:102880000190FFF7BFFF0090FFF7BCFF0546042152
:1028900001A8FFF7E1FE044604216846FFF7DCFECD
:1028A00000EB440007EB4007002000990446034674
:1028B0004FF0010C0CFA03F20A4207D02A4204D06E
:1028C00037F8142026F81020401C641C5B1C202BB9
:1028D000F0DBFCBD00B5FFF787FF40F0010000BD55
:1028E00090E75E4A520102EB810101F10851086054
:1028F0007047C0EB001001EB8000801001EB41013C
:102900004900182291FBF2F300EB400000F5801023
:1029100002FB1311006820F07F40C84000F03F0028
:102920007047C0EB001001EB8000801010B501EB88
:1029300041014900182391FBF3F403FB141300EB4E
:10294000400000F580103F2401689C40A1439A405C
:102950000A430270110A4170110C817010BD82107F
:1029600002EB4202114400EB40004000182290FBB1
:10297000F2F301F5801102FB1302086820F07F409A
:10298000D04000F03F007047831003EB43031A442C
:1029900010B500EB40004000182390FBF3F403FB5C
:1029A000140302F580123F2410689C40A043994014
:1029B00001431170080A5070080C907010BD2DE989
:1029C000F14F5C2100980BF000FEFFF783FF4FEA08
:1029D0005008FFF717FF4FF0000C814666464FF096
:1029E000010A00BF0AFA06F111EA090F1ED00024FD
:1029F000012725460AFA0CFB0AFA05F010EA080F2F
:102A00000FD031462846FFF774FFA04207D0009947
:102A1000009A51F8271041EA0B0142F827100446AA
:102A20007F1C6D1C272DE7DB0CF1010C761C202E82
:102A3000D8DBBDE8F88F2DE9F04F83460648002427
:102A40002246D0F800A001219AF81450A5F1010601
:102A500029E0000018E90000240910003C210120B1
:102A600003200123DFF844E403FA01F99AF8157012
:102A700016E000BF5EF820C01CEA090F0FD0A0F1DD
:102A8000010300FB051C03FB05183BF91CC03BF9C7
:102A90001830BCEB030300D55B421C44521C401CA5
:102AA0008742E7DC491C8E42DADC02B9012294FB42
:102AB000F2F097E62DE9FF4F85B0002103910291D6
:102AC00001910091FA49012B0C6894F8775005F0B8
:102AD0000F0700D10027667D94F87A30C7F1100BFC
:102AE000B34200D21E4600230493012381E000BFBD
:102AF0004FF00009C84603241FE0EC4951F824C0F8
:102B0000012199401CEA010F04FB053130F911C085
:102B1000A4F1010101FB053130F91110ACEB010109
:102B200006D0002900DA4942DDF818C0A1EB0C01FB
:102B3000002900DA49428944641CB442DDDB314695
:102B40009EF815A01FE0D94C54F821C001249C40E8
:102B50001CEA040F01FB053430F914C0A1F1010493
:102B600004FB053430F91440ACEB040406D0002C0F
:102B700000DA6442DDF818C0A4EB0C04002C00DA83
:102B80006442A044491C8A45DDDC0499012910D126
:102B90000199B1EB090101D5C1F10001039C214468
:102BA00003910099B1EB080100D54942029C2144F0
:102BB0000291CDE900899EF87B10994216D11168E7
:102BC000039D79430BFB0511CC1701EB147109111F
:102BD00011609168029D79430BFB0511CC1701EB45
:102BE00014710911916000210391029101215B1C74
:102BF0000491AF49D1F800E09EF81450691E994243
:102C00003FF776AF5068039978430BFB0100C1177B
:102C100000EB117000115060D068029B78430BFBF1
:102C20000300C11700EB11700011D06009B0D9E5A5
:102C300004E000BF11F8013B00F8013B521EF9D23D
:102C400070477CB50D460446FFF7E9FD0090FFF79D
:102C5000D9FD019000980421400800906846FFF7D4
:102C6000FBFC0646042101A8FFF7F6FC3044820075
:102C700021462846FFF7DCFF7CBD0B468C490968DE
:102C80004A7D097D521C4A43014652001846CFE74F
:102C900070B5044654210BF098FC0023844D23703A
:102CA0006380286890F8C50700F0010043EA4010EF
:102CB0006080296891F84517C90940EA01106080D1
:102CC0006360FFF707FEA060FFF79CFD794EE060B0
:102CD0007088E082286800F24670C27A817A02F039
:102CE0003F0241EA022121834178E17490F87A1091
:102CF00021740178A17481782175017BA1766E49D8
:102D0000407B097800F0F00001F00F010843E07605
:102D1000FFF785FDA062FFF775FDE062F088208671
:102D20006086286800F2C170017884F836108178D6
:102D300084F83710C17884F8381010F8BF1C84F874
:102D40003910012184F83A10417884F83B1010F8CA
:102D50005F1C84F83C1010F8571C84F83D1010F8E4
:102D60006B1CA17710F8550C84F8430084F83530BB
:102D700084F8343070BD3F21B0FBF1F13F31490898
:102D8000B0FBF1F211444908B0FBF1F008444008EF
:102D9000704710B50446FDF76FFA012C0BD144487B
:102DA000006890F81801800705D5FDF76DFD38B172
:102DB000FDF766FD04E0FDF767FD08B9FDF75CFD72
:102DC000BDE81040FDF756BA3C4810B5006818B988
:102DD00041F27070FDF736FEBDE810400020D8E7E4
:102DE000334B10B51A68947E640704D5D28A046800
:102DF000A2EB040202601A68947EA40703D5128B2A
:102E00000C68121B0A600268002A00DA00220260C5
:102E10001C68E48AA24200DD224602600A68002A99
:102E200000DA00220A601C68248BA24200DD2246E0
:102E30000A601B689B7EDB0702D003680B600260A0
:102E400010BDF0B500252C4609E000BF31F9146033
:102E500030F91470F61B964200DD6D1C641C9C4218
:102E6000F4DB022D01D90120F0BD0020F0BD2DE9D9
:102E7000F04F9246DDE909B7012547F6F872564250
:102E80009946AC46002420E030F8143031F8148024
:102E9000A8EB03031BB29A4200DD1A469E4200DAF9
:102EA0001E46002B0CDA4FF000050CE054241000F5
:102EB000240910004C251000F607100034050022EC
:102EC00001DD4FF0000C04F10104BC42DCDB55EAEB
:102ED0000C0306D0012D01D02DB108E0BCF1010F8B
:102EE00005D1002203E0BCF1010F00D132460025DC
:102EF0002C462B4611E000BF30F8136031F813C0A8
:102F00001644ACEB060636B24E4505DACBF1000CA2
:102F1000664501DD3544641C5B1CBB42ECDB95FB64
:102F2000F4F10A44002105E030F8113013442AF886
:102F30001130491CB942F7DB54E4F0B506460020D5
:102F400004460546521C059F0AE000BF36F911C031
:102F50009C4504DDA44502DD64460D460120491C64
:102F60009142F3DB3D60F0BD70B50A4B1B685C7DA0
:102F70001B7D641C5C43002308E000BF32F8135043
:102F800030F81360AD1B21F813505B1CA342F5DB36
:102F900070BD00002409100010B501461022FA4847
:102FA000FFF746FEBDE810404FF400610120FDF739
:102FB0005DBA70B596B006460D4614466846FFF7F2
:102FC00067FE14F0050F02D001208DF8000014F404
:102FD000F17F2DD0ED48036893F85001C00706D16A
:102FE00093F8040318B993F8B001C00720D093F800
:102FF0000A07C0079DF8000002D040F0060001E07B
:1030000040F020008DF8000014F0050F10D19DF85D
:10301000000003F2211340F001008DF80000587801
:103020008DF8130018788DF81A0098788DF81E0026
:10303000ADF83250ADF81660ADF83050AFF2A700E1
:10304000D14D03244FF4006601906846FEF730FA34
:1030500015AB002231460120FDF757FA3146012019
:10306000FDF732FA2878002804D0FFF77EF8641EB6
:10307000002CEADC16B070BD10B50446C00709D0BC
:103080004FF4B861C2480BF07EFA4FF4B851C14812
:103090000BF079FA14F0420F07D02E21BE480BF046
:1030A00072FA4021BD480BF06EFAA0060AD5B8218D
:1030B000BB480BF068FABDE810404FF48071B94886
:1030C0000BF061BA10BD2DE9F0410746AF4800682A
:1030D00090F82010490710D590F821000125C0F381
:1030E000011085400024B04E05E0F18870883A4612
:1030F000FFF75FFF641CAC42F7DBBDE8F0812DE910
:10310000FF4F83B08046FFF7EBFB0190FFF7E2FB38
:10311000009004216846FFF79FFA0446042101A8A5
:10312000FFF79AFA44439948012640F6485100684F
:1031300090F8210000F00707BE409C480BF045FACC
:103140000025DFF86892DFF860A2DFF83CB21CE0EF
:10315000BAF8061042460498FFF72BFF18F0050F47
:1031600012D09349DBF8040005F0B6F8904A00202D
:10317000494607E051F8203032F910C0634441F865
:103180002030401CA042F5DB6D1CB542E0DB18F09E
:10319000050F0CD00020494607E000BF51F8202061
:1031A000059B3A4123F81020401CA042F6DB07B0F3
:1031B000BDE8F08F2DE9F74F744C84B0924620683B
:1031C000B0F83B100391B0F83D10029190F8501107
:1031D000C90706D190F8041319B990F8B001C007D7
:1031E0007CD0FFF71CFB0090FFF744FB019004210B
:1031F0006846FFF731FA8146042101A8FFF72CFA4F
:10320000484445002068A046264690F82100012445
:1032100000F00707BC40A90064480BF0D6F93168FC
:1032200091F8F002C20706D0800704D491F8F102A9
:10323000044404F043FE0026C34630E05A48DDE96A
:1032400004214088FFF7B5FEDBF800104E4891F8E6
:10325000C517D0F80880C90704D0C1684246404667
:1032600004F0CEFEDBF8000090F8F002C10708D0B1
:10327000800706D44F49404604F031FE70B1DFF8B4
:1032800034810020494907E051F8203038F91020F6
:103290001A4441F82020401CA842F5DB761CA642C7
:1032A000CCDB424C00215A461EE04048166850F8DC
:1032B000210096F8F03240FA07F05FEAC37C08D0AC
:1032C0009B0706D596F8F1325B1C4343B6F8F20231
:1032D000181AB1EB490F02DA039B01E01DE0029BD3
:1032E000184424F81100491CA942DEDB106890F84C
:1032F0005011C90703D190F8B001C0070DD0049850
:1033000010F0220F09D02046DAF80010FFF78DFAEE
:103310002046DAF80410FFF7AEFA48E72DE9F04747
:103320009A461A4B8946002101251D4E1C681CE057
:1033300032F8113030F81170DB1B1FB200230CE0A3
:10334000C3EBC30C0CEB031C06EB4C0C5B1C3CF8F6
:1033500011801BB2B8442CF8118094F880C305EB9F
:103360009C1C9C45ECDC491C09B2637D8B42DFDC74
:1033700000200C4A31E000BF3AF8103039F8101044
:10338000591A0BB2002120E06C3D100024091000F6
:103390004200012002060120021D0120301D0120F3
:1033A0004C1E0120321F01204C2510000C1710006C
:1033B0004C111000208B012002EB8116491C36F8BD
:1033C000107009B21F4426F8107094F8806305EB62
:1033D00096168E42F0DC401C00B2217D8142CBDC8F
:1033E000BDE8F0872DE9F041FE4DFF4E0746002471
:1033F0002868002300EB4400B0F80211C4EBC400BD
:1034000000EB041006EB80123846FFF778FE641CD0
:10341000042CEDDB71E62DE9FE4FF24C824600F400
:103420009070216891F88013490739D5002837D06A
:1034300000252F46DFF8B483DFF8B493012613E0AC
:1034400000EB4500B0F8B213C5EBC50000EB051268
:1034500008EB4200009009EB8510CDE901076A46B0
:103460005046FFF7A7FE6D1C206890F8801306EB0E
:103470009111A942E4DC90F85011C90710D090F8DE
:10348000911109060CD5407DD8494200D948FFF773
:10349000CFFB2068D649007D4200D748FFF7C8FB24
:1034A000BDE8FE8FFEB5014610F0820034D0CD4A53
:1034B00001F49076D14912680024012392F88053D8
:1034C000C98803EB951306E002EB4407B7F8B27323
:1034D000B94202D0641CA342F6DCA3421DDD6B0797
:1034E0001BD5D6B192F85001C00703D192F8B001B4
:1034F000C00711D0C4EBC400BC4900EB041001EBC1
:1035000040012E22BE48FFF793FBB948402200EB52
:103510008411BC48FFF78CFBFEBD00220292B84A22
:103520000092B84A01926A46FFF744FEFEBD2DE9BB
:10353000F04105460020FDF784F80320FDF781F8EF
:1035400015F040060AD02E22AD49AF48FFF770FBB8
:10355000AD484022AB492E30FFF76AFB2846FFF703
:103560008BFDAA490020401C8842FCD3A848017862
:10357000012904D1002101702846FFF7A4FD994CD0
:1035800005F00400216891F8D010490703D510B167
:103590002846FFF727FF216805F4907091F8801303
:1035A000490703D510B12846FFF735FF15F001078D
:1035B00006D092480023974A41883846FFF79FFD7E
:1035C000F80717D0206890F8200000070AD5914826
:1035D000FFF731FA90490123904A086001468D486F
:1035E000FFF768FA206890F84904C00702D028461F
:1035F00001F09AFF15F0820F0AD02846FFF752FF1C
:10360000206890F84904800702D5284602F043F864
:103610005EB1206890F88003400706D57A49794B5F
:10362000774A2E317848FFF779FE7D4901200870EE
:103630007C49087005F093FA0020FDF71DF8BDE8FD
:10364000F0410320FDF718B8F0B466490022664C3B
:103650000B68B3F80211814213D2B3F8081181420A
:1036600001D803220DE0012103EB4105B5F8025119
:10367000A84201D10A4602E00FD2A1F101028A421A
:103680000FD1C2EBC20000EB021004EB8011F0BCC2
:103690004FF4B8625F48FFF7CBBA491C0429E3DB5B
:1036A000EFE703EB41035B4DB3F80021B3F80231C0
:1036B000801A00029A1A90FBF2F3C1EBC10202EBEE
:1036C000011100204FF4387604EB811101EB400228
:1036D000A2F5B86231F91040B2F90020A41A5C4397
:1036E00002EB242225F81020401CB042EEDBF0BC97
:1036F00070472DE9F0413B4900253C4A09683C4EA2
:10370000B1F8B23383421AD291F880339C0901EBAD
:103710004407B7F8B27387420AD9012404EB931324
:1037200013E000BF01EB4407B7F8B273B84201D110
:10373000254602E008D2A4F10105A5421ED191F868
:103740005001C00708D103E0641CA342EADCF6E79D
:1037500091F8B001C00744D0C5EBC50000EB0510DF
:1037600002EB40012E222648FFF762FA06EB851194
:10377000BDE8F04140222348FFF75ABA01EB440567
:10378000B5F8B033B5F8B253C01A0002EB1A90FB8B
:10379000F3F391F85001C00703D191F8B001C007CD
:1037A0001FD0C4EBC401164D01EB0411002002EB45
:1037B000410100BF01EB400231F9107032F92E2CAB
:1037C000BF1A5F4302EB272225F81020401C172860
:1037D000F0DB0C4D002006EB841200BF02EB400131
:1037E00022E02EE024091000020601204C1E0120D8
:1037F000321F0120041F0120322001204C2510001F
:10380000021D0120301D0120FC3C100020A10700FA
:103810002C0910004200012054091000B0241000AF
:103820003A0910005F09100031F9401C32F91040CC
:10383000641A5C4301EB242125F81010401C202859
:10384000CCDB5AE410B501461022F948FFF7F0F935
:103850008021BDE810400120FCF708BE30B597B0CC
:1038600004466846FFF714FA0021012C02D0022C0E
:1038700008D01CE001208DF812108DF800008DF8A2
:10388000101014E0EB48006890F80A07C00701D058
:10389000062000E020208DF80000E7488DF8381061
:1038A0008DF83710416849000A9180680B90BDF887
:1038B0000200AFF26F0140F4A670DD4D0191ADF84A
:1038C000020003246846FDF7F3FD15AB00228021BA
:1038D0000120FCF71AFE80210120FCF7F5FD287875
:1038E000002804D0FEF741FC641E002CEADC17B06F
:1038F00030BD2DE9F04100240120FFF7AFFFCC4897
:103900004568CC4801684A7D087D521C00FB02F6E0
:103910001DE000BF35F91020002A02DC44F020042D
:1039200014E040F6FF739A4202DB44F010040DE00D
:10393000B1F83471B1F8BE3107EB030C944505DAE8
:10394000FF1A974202DD0BB144F04004401C86424E
:10395000E0DC2046BDE8F081024618215FF001005E
:1039600000FA01F3134201D1491EF9D5491C8840E0
:10397000104370472DE9F05FFEF7ACFF0546FEF7F8
:10398000AFFFAC4C0746206890F84507000603D50A
:103990002846FFF7E1FF05464FEA55094FF4B861A5
:1039A000A6480AF0F0FD4FF027084FF0000A01206A
:1039B000FFF754FF9E480026D0F804B09D480068E9
:1039C000047D34E0012000FA06F111EA090F2DD040
:1039D00000250120A840384225D029463046FEF770
:1039E00088FF9449DFF854C209683CF91430B1F8F3
:1039F0003421991A3BF91430A3EB020200D5494255
:103A0000002A00DA5242914204DB8D492CF814302E
:103A100021F814003F2805D2401CC2B22946304686
:103A2000FEF77FFF641C6D1C202DD2DB761C464503
:103A3000C8DBFDF78EFF0AF1010ABAF1400FB6DBD1
:103A40007C484FF0010B00250068067D012101FA3A
:103A500005F010EA090F16D000240120A0403842DA
:103A60000ED07748214610F81600824602462846B6
:103A7000FEF757FFBAF13F0F01D34FF0000B761C52
:103A8000641C202CE9DB6D1C4545DFDBBBF1000F1E
:103A900002D10320FEF78DFBFDF75BFF0120FFF74E
:103AA000DDFEBDE8F05F24E72DE9F05F614A1168B3
:103AB00091F83001C4076348037803F0F00514D08F
:103AC000057000264B7D0C7DDFF864A15B1CB046C1
:103AD000914604FB03F783460120FFF7BFFE204613
:103AE000DAF80420D9F800100FE091F83E1101F047
:103AF0000F0129430170BDE8F09F00BF32F910307B
:103B0000B1F832C16345F6DB401C8742F6DC0F2E6C
:103B10000AD2761CF6B245EA060108F101088BF8D4
:103B20000010B8F1100FD7DBBDE8F05F0220FEF700
:103B300040BB10B501244FF4E16120050AF045FDBA
:103B4000FDF707FFFFF7B0FFFFF714FF394A44EA1C
:103B500000643C481268401D017892F8FB2701F090
:103B6000F00102F00F02114301703748FEF727FF02
:103B70002046BDE8104005F0FAB92DE9F04F2E4D72
:103B80002C4B0020D5F814906E68D3F80030044612
:103B90000246012140F6FF7B01FA02F737421CD0B2
:103BA00039F914A0BAF1000F02DC40F0200013E054
:103BB000DA4502DB40F010000EE0B3F836C1B3F88E
:103BC0004171E6460CEB0708D04503DBAEEB070C72
:103BD000D44501DD40F04000641C521C202ADBD398
:103BE0000024AF69AE68224601FA02F535421AD0C8
:103BF00037F91450002D02DC40F0200012E05D4542
:103C000002DB40F010000DE0B3F83A81B3F84391C5
:103C100008EB090CAC4503DBA8EB090CAC4501DD56
:103C200040F04000641C521C202ADDD3BDE8F08F18
:103C30007C3D10002409100074091000E699012051
:103C4000A69F0120F6071000542410002DE9F84F1C
:103C50001E21F6480AF0B9FCF4482D211E300AF066
:103C600092FCFDF742FFFDF7E1FE0420F04CDFF887
:103C7000C4A303254FF000084FF001090090022073
:103C8000FFF7ECFDE8072BD04FF0000B5F465E46D8
:103C9000616809FA06F008421AD040F26C713046A9
:103CA000FEF75DFE616931F91720DAF80010B1F80E
:103CB00045118A420BDA3F2809D200994FF0010BD7
:103CC0000844C1B240F26C723046FEF75DFE7F1CC4
:103CD000761C202EDCD3BBF1000F01D125F00105AD
:103CE000A8072BD54FF0000B5F465E46A16809FA86
:103CF00006F008421AD040F28A713046FEF72FFED5
:103D0000A16931F91720DAF80010B1F847118A4299
:103D10000BDA3F2809D200994FF0010B0844C1B2D9
:103D200040F28A723046FEF72FFE7F1C761C202E52
:103D3000DCD3BBF1000F01D125F0020545B1FDF741
:103D4000D4FEFDF773FE08F10108B8F1640F96DBAD
:103D500003254FF000080220FFF780FDE80729D077
:103D60004FF0000B5F465E46616809FA06F00842B4
:103D700018D040F26C713046FEF7F1FD616931F9FF
:103D80001720DAF80010B1F845118A4209DD40B178
:103D9000401EC1B24FF0010B40F26C723046FEF78C
:103DA000F3FD7F1C761C202EDED3BBF1000F01D16A
:103DB00025F00105A80729D54FF0000B5F465E46A8
:103DC000A16809FA06F0084218D040F28A7130461C
:103DD000FEF7C5FDA16931F91720DAF80010B1F836
:103DE00047118A4209DD40B1401EC1B24FF0010BBC
:103DF00040F28A723046FEF7C7FD7F1C761C202EEB
:103E0000DED3BBF1000F01D125F00205002D08D053
:103E1000FDF76BFEFDF70AFE08F10108B8F1640F2B
:103E200099DBBDE8F88F2DE9F041804D0020893500
:103E30001E2128707D480AF0C8FB7C482D211E30C9
:103E40000AF0A1FBFDF7F2FDFDF74FFE784E0027CB
:103E50000220FFF703FDD6E904320024204605E0E6
:103E600032F91010A14200DD0C46401C9842F7DBED
:103E70000020F368B26905E032F91010A14200DDBC
:103E80000C46401C9842F7DB002C09DC28780F28F0
:103E900003D8401C2870FDF728FE7F1C202FD7DB9D
:103EA00040F6FE70844206DD2878401E2870BDE88A
:103EB000F041FDF71ABE4DE52DE9F05F5C4C0020A6
:103EC0005A4F6668643F01460346012202FA03F531
:103ED000354203D0FD5C854200D928465B1C202B6F
:103EE000F4D3524DD4F808603C3D002302FA03F7A6
:103EF000374203D0EF5C8F4200D939465B1C202B40
:103F0000F4D3DFF828814B4D08F18D0808F1010941
:103F100088F8000089F800102A68A8F1020AA8F1C0
:103F2000010B92F80A37DE077ED09B077CD502F2A0
:103F300059721479D37804F03F0403EB0424957983
:103F4000537905F03F0503EB0525167BD37A06F080
:103F50003F0603EB0626977B537B127807F03F075B
:103F600003EB072752060BD5631900EB43009AF8C1
:103F70000020F31910449BF8002001EB43010CE0F2
:103F80006219520002EB40029AF800001044F21944
:103F9000520002EB41029BF800101144FEF773FB44
:103FA0002449096801F20B72B1F80B37834201D240
:103FB000A1F80B0791F80A07400734D591F8590783
:103FC000400617D5600040426B4291F80B1700EB9A
:103FD000430001449AF80000081A88F800007000B5
:103FE0004042794200EB4100117801449BF8000007
:103FF000081A3EE09AF8000063191844B1F80B174C
:10400000404201EB4000C0F3470188F800109BF8E4
:104010000000F11908441188404201EB4000C0F350
:10402000470189F8001066E506E000006C07100003
:104030007409100024091000FD4D9AF800209BF827
:1040400000302D6802440B44FF2645F080059A425B
:1040500009D2991A0844FF2802D888F800004AE5D6
:1040600088F800600AE09342DDD2D01A0844FF28A5
:1040700002D889F800003EE589F8006025603AE53D
:104080002DE9F0410020EB4CE94BEB4A01210546BC
:104090005F6801FA00F63E4209D01768265C97F87F
:1040A0004A71BE4202D9F61B265400E02554401C3A
:1040B0002028EDD3DF4C28345FF000009F6801FA20
:1040C00000F63E4209D01768265C97F84A71BE4256
:1040D00002D9F61B265400E02554401C2028EDD3BD
:1040E000FFF7EAFEBDE8F041FDF7DABC2DE9F84F35
:1040F000D048D04D0646283528210AF066FA3C21E2
:1041000028460AF062FAFFF7D7FEFDF7EEFCFDF74E
:10411000C7FC04200324DFF818A3DFF81CB3002732
:104120004FF0010900900220FFF798FBE00728D02C
:104130004FF0000C624660464FEA0A0309FA00F1AC
:10414000D3F8048011EA080F13D0596931F91280AD
:10415000DBF80010B1F83811884509DA315CDDF878
:1041600000804FF0010C4144FF2900DDFF21315454
:10417000521C401C2028E1D3BCF1000F01D124F0D7
:104180000104A00727D54FF0000C62466046534655
:1041900009FA00F1D3F8088011EA080F13D09969E1
:1041A00031F91280DBF80010B1F83C11884509DACA
:1041B000295CDDF800804FF0010C4144FF2900DD4F
:1041C000FF212954521C401C2028E1D3BCF1000FD0
:1041D00001D124F0020444B1FFF76EFEFDF785FC27
:1041E000FDF75EFC7F1C642F9DDB0324002702206B
:1041F000FFF734FBE00724D04FF0000E7146704605
:104200005246DC46D2F8048009FA00F313EA080F9C
:104210000FD05369DCF8008033F91130B8F83881D9
:10422000434505DD335C1BB15B1E4FF0010E33547B
:10423000491C401C2028E5D3BEF1000F01D124F019
:104240000104A00725D54FF0000E71467046524676
:104250004FEA0B0CD2F8088009FA00F313EA080FB2
:104260000FD09369DCF8008033F91130B8F83C8145
:10427000434505DD2B5C1BB15B1E4FF0010E2B543B
:10428000491C401C2028E5D3BEF1000F01D124F0C9
:104290000204002C08D0FFF70FFEFDF726FCFDF707
:1042A000FFFB7F1C642FA2DBBBE5634930B40968C8
:1042B0000020034691F8302192070CD55D4A91F811
:1042C0004941EF3201201578A54203D9A5EB04043A
:1042D000147000E0137091F8302152070CD5554A44
:1042E00091F84911F03240F0020014788C4202D962
:1042F000611A117000E01370002801D030BCDBE5BA
:1043000030BC70472DE9F0474B4900244B4D0868FD
:10431000274690F83021920702D501242F7002E041
:1043200090F83F212A70894690F83011444E490791
:1043300003D544F00204377002E090F84001307079
:10434000002C7FD028213B480AF03FF939483C2116
:1043500028300AF03AF939481E21801E0770354886
:1043600064300AF032F935482D216D380AF00BF926
:104370003349FF20891C0870491E0870FDF790FB27
:10438000FDF754FBFDF7B1FBDFF8A4804FF0100AF6
:1043900000270220FFF762FAE00723D0D8E9043CA7
:1043A0000020014606E000BF3CF91120824200DDFA
:1043B0001046491C9942F7DBD9F80010B1F83621B4
:1043C000824202DA2878401E08E0B1F84B1181429F
:1043D00006DB28785044FF2800DDFF20287001E02C
:1043E00024F00104A00730D500200146D8F80CC005
:1043F000D8F8183006E000BF33F91120824200DD02
:104400001046491C6145F7DBD9F80010B1F83A2194
:10441000824202DA3078401E08E0B1F84B11814246
:1044200011DB30785044FF2800DDFF2030700CE0B5
:10443000740910000807100024091000F707100085
:10444000F80710000AE024F00204002C06D0FFF761
:1044500033FDFDF74AFB7F1C202F9ADBBDE8F08778
:1044600070B5324C00202060FEF7D9F96060FEF78D
:1044700001FAA0606068042140086060201DFEF71A
:10448000EBF82061042104F10800FEF7E5F8E06094
:104490000220FFF7E3F9264E2169B06800EB4102E4
:1044A0006261E26802EB410100EB4100A061FFF7AD
:1044B00029FFFFF7FAFE1F4D286890F830018006AB
:1044C00003D5FFF713FEFFF7DBFD286890F83001F6
:1044D000000701D5FFF7A7FC286890F83001C00657
:1044E00001D5FFF7B3FBFDF700FB0220FFF7B6F99C
:1044F000B068216900EB41026261E26802EB4101B0
:1045000000EB4100A061FFF738FB21680143216007
:1045100009482A68037892F8FB2763F303020270C4
:10452000BDE8704041F0020004F021BD74091000A4
:104530007C3D100024091000FB07100010B5014657
:1045400010229448FEF774FB8021BDE81040012042
:10455000FBF78CBFF0B5904D06460C4628684FF02F
:10456000FF3197B090F8B10000F00F00401C81407F
:10457000CF436846FEF78CFB01208DF80000ADF8B4
:104580000240286800F5867001788DF8131044F019
:104590000501ADF802100297ADF81660AFF26301A5
:1045A000019141788DF8141080787A4D8DF81A00B9
:1045B00003246846FCF77CFF15AB00228021012014
:1045C000FBF7A3FF80210120FBF77EFF287800285E
:1045D00004D0FDF7CAFD641E002CEADC17B0F0BD64
:1045E0002DE9F0476C4D4FF00009DFF8A8812868ED
:1045F00000F570700478467887781AE049462046BE
:10460000FFF7A8FFD8F8040007F0FAFD0146286874
:1046100090F80B2112F00F0000D1012012094A433B
:10462000B2FBF0F082B22146302004F0E3FCE01946
:1046300084B2B442E2DDBDE8F0872DE9FF5F4FF6BA
:10464000FF764FF0000A93460F46804634465546A3
:10465000DFF844911CE000BF38F815005146FFF721
:1046600079FF4C48406807F0CBFDD9F8001091F86D
:104670000B2112F00F0100D1012112094243B2FBBC
:10468000F1F080B2A04202D238F8156004466D1CE9
:10469000BD42E1DBABF8006003980480BDE8FF9FFA
:1046A0002DE9F0413C4E05468846306888B090F8C8
:1046B000D12002F00F01C2F30214491C641C0A2924
:1046C00000DD0A21022C00DD0224D23006AB05AA4F
:1046D000FFF7B3FF326892F8D00080071BD5BDF812
:1046E00014600121E632ADF8006000204FF4803CF8
:1046F0006F4607E013563344634502D227F8113062
:10470000491C401CA042F5DB002904DD06AB05AACC
:104710003846FFF792FFBDF814002880BDF8181046
:10472000A8F8001008B0BDE8F0817CB50020FBF7C8
:1047300088FF1A4C01A968466588FFF7B1FF164E3D
:104740003068B0F8FA10BDF80400814201D9218028
:1047500000E02080BDF8000060800020FBF78CFFA7
:10476000BDF80000854207D0306890F8D0004007BF
:1047700002D56088FEF768FF0949012008700949E1
:10478000087009490870BDF800202946092004F086
:1047900014FC7CBD8C3D1000240910004C25100039
:1047A0003A0910005F0910006E0910002DE9F0476A
:1047B0000178FE4C01B1217001461022FC48FEF741
:1047C00037FAFC4B186890F8C517CA07F84901D0AA
:1047D000CD6800E08D68417D6068F74E4143002060
:1047E00017E000BF92F8F0725FEAC77C0BD0BF07FA
:1047F00009D592F8F12235F81070521C57430A1867
:1048000026F8127004E00F1835F8102026F817204B
:10481000401C1A68577D8742E4DC616801F10101A0
:104820006160507D4FF0000200FB01F71CE000BF0B
:1048300091F8F0C25FEACC780ED05FEA8C7C0BD5A1
:1048400000EB020C91F8F11235F81CC0491C0CFB6E
:1048500001FCB91826F811C0811807EB020C35F8D5
:10486000111026F81C10521C196891F815C09445B7
:10487000DEDC60684FF0010800F10100606091F833
:10488000B12008EB121491F8F022D50705D0950756
:1048900003D491F8F1522C44E4B2A0421DDA91F80D
:1048A0000A27D20713D091F8BA1380B201F00F0192
:1048B000B0FBF1F201FB1201BD48543800294188D8
:1048C00002D041F0020101E021F002014180BDE887
:1048D000F047B7485438FCF7EBBDD0072FD090070E
:1048E0002DD4B1F8F2A2002522E0417DB2486943FF
:1048F00000EB41018946002015E000BF94F8F14229
:10490000012231F91060641C06E000BF02FB070CB5
:10491000521C31F91CC066449442F7DCA6EB0A0233
:1049200029F81020401C1C68677D8742E6DC6D1C5E
:10493000186890F8B11008EB1111A942D5DCBDE858
:10494000F04780210120FBF791BD2DE9FF4FDFF8F3
:1049500060B24FF6FF74002581B08A46A046ABF1E5
:10496000540BA946914E5DE091485438FEF790F9FA
:10497000904A116891F8C507C00701D0102300E0E4
:1049800002238BF80030019830F81530ABF8303046
:10499000BBF8023043F00403ABF80230AFF2F3137C
:1049A00001F2C931CBF804300A788BF83620CA7886
:1049B0008BF838204A788BF83B2089788BF83C10AC
:1049C0000327C6F8049000BF794886F80090543851
:1049D000FCF76EFD6B46002280210120FBF795FD60
:1049E00080210120FBF770FD307820B1FDF7BDFB81
:1049F0007F1E002FE8DC704802F0E7FC6D49096873
:104A000091F8C82312F00F0100D10121120942438D
:104A100090B2B0FBF1F0A04203D20199044631F804
:104A200015806D1C55459FDB0399A1F80080049803
:104A3000048005B0BDE8F08F2DE9F0415D4D0646DC
:104A4000884628688CB000F2823C00F2963790F8D5
:104A5000810300F00F01C0F30214491C641C0A29F1
:104A600000DD0A21022C00DD02240AAB09AA6046FF
:104A7000FFF76BFF286890F8800380071AD5BDF810
:104A800024300121ADF8003000204FF4803C6D4609
:104A900007E03A561A44624502D225F81120491C13
:104AA000401CA042F5DB012904DD0AAB09AA284617
:104AB000FFF74BFFBDF824003080BDF82810A8F8A0
:104AC00000100CB0BDE8F0817CB50020FBF7B9FD0B
:104AD0003A4C01A96846E588FFF7AEFF3548016802
:104AE000BDF80400B1F8AC23824201D9A28000E0F5
:104AF000A080BDF80000E0802081854205D091F8BB
:104B00008013490701D5FEF7F4FD2D4901200870F7
:104B10002C4908702C49002008602C490870FBF7CC
:104B2000ABFDBDF8002029460A2004F046FA7CBD02
:104B30002DE9F8431F4DDFF878802868A8F1540864
:104B400000F2C33004884688077947E01848543893
:104B5000FEF79EF8286890F8C507C00701D010211D
:104B600000E0022188F80010A8F83040B8F80210E0
:104B700041F00401A8F80210AFF2CF31C8F80410D8
:104B80000A49002048600A485438FCF791FC6B46FB
:104B9000002280210120FBF7B8FC80210120FBF7D7
:104BA00093FC054802F011FC024611E09009100048
:104BB000F03D100024091000D88C01204C25100075
:104BC0003A0910005F091000A40A10009F0A1000A3
:104BD0002146312004F00EFAE01984B2B442B5DD6A
:104BE000BDE8F8832DE9F041174604460D4600263E
:104BF00009E0E00703D03146384604F016F9761C88
:104C00006D084FEA340454EA0500F2D1BDE8F081A2
:104C100030B5034600204FF0FF32012505FA00F4BD
:104C20000C4202D0521C9A4203D0401C2028F5D3DB
:104C3000002030BDF0B50E460125074605FA06F204
:104C4000FE4C0F2FD4E9151065D2DFE807F064435E
:104C50004B08106464192129323A54585C003046DC
:104C6000FFF7D6FF8540A06A0543A56253E00146E1
:104C70003046FFF7CDFF8540206C054325644AE0B0
:104C80003046FFF7C5FF8540E06A0543E56242E034
:104C90003046FFF7BDFF8540206B054325633AE0B2
:104CA00001463046FFF7B4FF8540A06C0543A5647C
:104CB00031E03046FFF7ACFF8540606B054365632C
:104CC00029E001463046FFF7A3FF8540E06C05432D
:104CD000E56420E03046FFF79BFF8540606A0543AE
:104CE000656218E001463046FFF792FF8540E06BB1
:104CF0000543E5630FE0A06B0243A2630BE0206D68
:104D00000243226507E001463046FFF781FF8540F8
:104D1000606C054365642068401C2060F0BD10B5E0
:104D200001461022C648FDF783FF8021BDE81040F0
:104D30000120FBF79BBBFDF765BD10B5FDF754FDEA
:104D40004008400010BD2DE9F047894605464FF068
:104D5000FF34FDF757FDB94F00231946D7F804601B
:104D60004FF0010C0CFA01F2024200D0641CAC427C
:104D700006D1B9F1010F0AD020EA02030E46202124
:104D8000491C2029EED318467E60BDE8F087134603
:104D9000F4E72DE9F047894605464FF0FF34FFF769
:104DA000CCFFA64F024600207B6801464FF0010C65
:104DB0000CFA01F6164200D0641CAC4206D1B9F1DF
:104DC000010F08D022EA06000B461721491C1729BB
:104DD000EED37B60D9E73046F6E7F0B59BB00446EA
:104DE0000F466846FDF754FF15A8FDF7A5F8FFF735
:104DF000A4FF924E40087065FDF704FD914DB0652B
:104E0000012C0BD02026022C26D0032C2AD0042CD7
:104E10002DD0052C34D0062C52D068E0FDF75AFD79
:104E20000290FDF75DFD039001208DF800000C203D
:104E3000ADF816001F208DF8140040208DF81300E7
:104E400091208DF81A003C20ADF818000298400817
:104E500070650398B0654AE0FFF76FFF0A90FDF7B1
:104E6000D1FC14E0FDF7CEFC01210B9003E0FDF72F
:104E7000C9FC00210B903846FFF78BFF0A9007E032
:104E8000FFF75BFF0A9001213846FFF75CFF0B90AC
:104E90008DF80060286800F55A7081788DF836101A
:104EA000C1788DF83B1001788DF83C1041788DF871
:104EB0003D108188ADF830100089ADF8320016E061
:104EC000FFF73BFF0A90FDF79DFC0B908DF800600B
:104ED000286800F2613081788DF83610C1788DF83D
:104EE0003B1001788DF83C1040788DF83D00002093
:104EF000BDF802108DF8380021F030018DF8100057
:104F000041F04A018DF837008DF81200ADF802101B
:104F1000AFF2F51103260191012C12D0092C23D0F8
:104F20000A2C21D08DF85E008DF860008DF85F00AE
:104F3000022C10D0032C0ED0042C0CD0052C0AD03F
:104F400012E0296891F84D178DF8580041F00301DF
:104F50008DF85410E6E72868B0F86E13ADF85A10D3
:104F6000B0F87203ADF85C0015A8FDF706F8344CF4
:104F70006846FCF79DFA19AB002280210120FBF75F
:104F8000C4FA80210120FBF79FFA2078002804D082
:104F9000FDF7EBF8761E002EEADC1BB0F0BD2DE924
:104FA000FC5F00210120FFF718FF25484768FDF747
:104FB00091FC0190FDF794FC0090042101A8FDF7FD
:104FC0004BFB064604216846FDF746FB844600205D
:104FD0000546DFF868B0DFF86CA000905BE000BF2A
:104FE0004FF00008C1465C462846DBF85810FFF732
:104FF0000FFE014601208840A16C08424AD10124DD
:1050000039E000BF04FB0C51DAF8000037F9112039
:1050100090F86703B2EB001F2CDA08F10108B9F130
:10502000000F00D1A146721E944223D1B8F1010FA6
:1050300020D1ACF1010295420BD105E09809100096
:10504000003E100024091000611E0120FFF7F2FD50
:105050000EE007EB4101B1F90220B2EB001F05DBC6
:1050600035B131F9021CB1EB001F01DA002000E07C
:1050700002208046641CB442C4DBA6EB0901414512
:1050800008D829460220FFF7D5FD01200099A84045
:10509000084300906D1C6545A2DB01253BE000BF85
:1050A0004FF0000844462CE0DBF84030DBF84820A5
:1050B00000201A4311D0D9462046DBF85810FFF7DC
:1050C000A7FD014601208840D9F84810084203D1C5
:1050D000D9F84010084000D0012005FB0C4137F9F9
:1050E0001120DAF8001091F86713B2EB011F07DA0C
:1050F00030B901200099A040084201D108F101080F
:10510000641C6445D0DBB8F1000F03D0691E012098
:10511000FFF790FD6D1CB542C2DBBDE8FC9F2DE999
:10512000F041E04C00200546DF4FDFF88083A061AE
:105130001EE029460520FFF750FE21690120BE68C8
:1051400000EB410C36F91C10D8F8000090F87703FA
:10515000B1EB001F03D929460E20FFF76BFD36F98E
:105160001C00A169884202DD36F91C00A0616D1C9B
:1051700060698542DDD349E52DE9F0410021062033
:10518000FFF72BFEC8480025C84EC64C87680EE0C6
:10519000E0683168284437F9100091F86513B0EBE6
:1051A000011F03DD29460A20FFF744FD6D1C20691D
:1051B0008542EDDB00250EE0A0683168284437F910
:1051C000100091F86613B0EB011F03DD29460B2098
:1051D000FFF730FD6D1C60698542EDDB16E52DE9BA
:1051E000F041B04C00200646206237E031460420F2
:1051F000FFF7F3FDAC48002587682BE0FDF702FBC5
:1052000001462846FFF704FD014601208840216C35
:1052100008421ED1A549A0682844096807EB400050
:1052200030F9040C91F87813B0EB011F07D931461F
:105230000820FFF7FFFC29460920FFF7FBFCA068C8
:10524000216A284407EB400030F9040C884200DD55
:1052500020626D1C60698542D0D3761C206986422D
:10526000C4D3D3E42DE9F0418E4C002005468E4F87
:10527000DFF83882E0611AE029460320FFF7ADFD30
:10528000BE68B6F90210D8F8000090F87603B1EBCA
:10529000001F03D929460720FFF7CCFCB6F902000E
:1052A000E169884202DDB6F90200E0616D1C206907
:1052B0008542E1D3AAE42DE9F04100210220FFF765
:1052C0008CFD7948794D774C8768286890F86003A1
:1052D000000713D500260EE0E0682968304437F94E
:1052E000100091F87413B0EB011F03D9314603206D
:1052F000FFF7A0FC761C20698642EDDB286890F859
:105300006003C00613D500260EE0A068296830446B
:1053100037F9100091F87513B0EB011F03D931462E
:105320000420FFF787FC761C60698642EDDB6DE4A4
:105330002DE9FC410020FBF784F94FF48010411265
:1053400009F021F9FCF7D1FBFCF7AAFBFCF701FB04
:10535000544C00202060FFF7F0FC0090FDF752FA5B
:10536000019004216846FDF777F90546042101A85C
:10537000FDF772F9014600EB4500C4E90205C4E9F6
:1053800004514A4D286890F86003010701D4C00613
:1053900001D5FFF790FF286890F86003800601D5DB
:1053A000FFF760FF286890F86003000601D5FFF75B
:1053B00016FF286890F86003C00701D0FFF7DCFEF5
:1053C000286890F86003400601D5FFF7A8FE28681A
:1053D00090F86003800701D5FFF7E1FD2068002801
:1053E0005BD0D4E90A359D43E562606AD4E90F17C2
:1053F0009843A8436062666CB943B143E163A16B13
:10540000226D9943A943256BBA43A943A163A16CBB
:10541000B2438A43AB43A362226501220021FFF716
:10542000E1FB02220021E06BFFF7DCFB03220021FD
:10543000A06AFFF7D7FB04220021206CFFF7D2FB04
:1054400007220021E06AFFF7CDFB08220021206B34
:10545000FFF7C8FB09220021A06CFFF7C3FB0A225B
:105460000021606BFFF7BEFB0B220021E06CFFF711
:10547000B9FB0C220021A06BFFF7B4FB0D22002129
:10548000206DFFF7AFFB0E220021606CFFF7AAFB37
:105490000020FBF7F1F8BDE8FC810021084603F08D
:1054A000C4FCF5E798091000003E10002409100024
:1054B000F0B59A480068437D017DB0F84C44B0F8DF
:1054C0004A6497484B4300EB410500210A460846D1
:1054D0000AE000BF35F91070A74201DD491C02E067
:1054E000B74200DA521C401C9842F3DB914201DDC6
:1054F0000120F0BD0020F0BD10B5FFF7D9FF044634
:1055000001280FD18748016841F0050101608648F4
:10551000016841F020010160844901200870810286
:10552000FAF7A4FF204610BD2DE9F04180467E48E1
:1055300000252E460078800623D500247C4F0AE003
:10554000012808D1FEF7F5FA012579880023744A6D
:105550004046FDF7D4FDFFF7ABFF48B1641C032CB8
:10556000EEDB012E04D0BDE8F0410020FCF721BEA7
:10557000C12003F0FCFC012D03D1BDE8F04108F08F
:10558000D2BEBDE8F0812DE9F04164480123694FA6
:105590000168B1F85604B1F85A244C7D104446080D
:1055A000B1F85804B1F85C241044450800200246C4
:1055B00012E000BF37F912C0B1F852E4F44503DB42
:1055C000B1F84EE4F44506DDB1F84EE40023F445AD
:1055D00001DD01202246521C9442EBD80022DFF864
:1055E00058C10C7D12E000BF3CF91270B1F854E4D0
:1055F000774503DBB1F850E4774506DDB1F850E4B8
:105600000023774501DD01202246521C9442EBD84D
:105610000128B6D0012B0AD02E21484808F0B3FF4C
:10562000464840212E3008F0AEFF0020A9E70020B8
:10563000434C424F024610E034F91030B1F85AC4DE
:10564000634503DBB1F856C4634503DDF31A27F85D
:10565000103001E027F81020401C4B7D8342EBD82E
:10566000364E0020374B2E3611E000BF33F9104084
:10567000B1F85C74BC4203DBB1F85874BC4203DD82
:105680002C1B26F8104001E026F81020401C0C7D51
:105690008442EBD8C9E72DE9F04180462A4800262C
:1056A00037460078800627D5002504E0012C02D17A
:1056B0004046FDF7F7FEFFF766FF0446012806D1D6
:1056C000FEF7CEFE01266D1C032DEFDB17B1012E78
:1056D0000DD00EE00120FCF76CFD2E21174808F0DC
:1056E00052FF164840212E3008F04DFF04E008F02C
:1056F0001AFEC22003F03BFC084C01230F4920682E
:10570000427D0F4802F043FA20680C490123027DD4
:10571000BDE8F0412E310B4802F039BA24091000DF
:105720004200012028091000300910002C09100047
:105730004C251000FC8B0120588C012098920120F0
:10574000021D0120301D01203409100008B5554DFF
:10575000554E0024287880B10128FBD16B460022E9
:1057600040F27D71FAF7D1FE0098C1071ED00121E9
:105770000846FAF7A9FE2C70ECE701210020FDF79E
:10578000B0F86B46002202210120FAF7BEFE01218B
:105790000846FDF7A6F800988007DBD540F27F7138
:1057A0000120FAF791FE01202870D3E701070CD5FC
:1057B00008210120FAF788FE0020FAF742FF0620B0
:1057C000FAF73FFFFEF7B5F90DE0410712D50421C6
:1057D0000120FAF779FE0020FAF733FF0620FAF7E6
:1057E00030FFFEF73DFE0620FAF746FF0020FAF7ED
:1057F00043FFAFE7C10606D510210120FAF764FE8A
:10580000FEF793FFA6E7810606D520210120FAF7CF
:105810005BFEFFF759F99DE7C10507D54FF480718D
:105820000120FAF751FEFEF7DBFE93E7810507D56D
:105830004FF400710120FAF747FEFFF779F989E785
:10584000410606D540210120FAF73EFEFFF770FD24
:1058500080E7400590D54FF480610120FAF734FECF
:10586000124804601248076804603846FDF75FFE7E
:10587000B80701D500F0BBFBA7F54070B73801D1E0
:10588000052009E0F80701D0152005E017F0420FC8
:1058900004D0306840F0060003F069FB054804605E
:1058A000346057E7F409100034091000B00A100002
:1058B0002809100030091000FE4900200870FE4938
:1058C0000870FE490870FE490870FE490870012101
:1058D000FD4A1170FD4A1170FD49FF22C860086140
:1058E0004880087088618A80C8610862F948006849
:1058F000B0F852214A81B0F85401088100F034BF59
:1059000030B50024234605E030F913508D4200DD08
:10591000641C5B1C9342F7DBEE48006890F8610161
:10592000A04201D2012030BD002030BDF0B50025DD
:105930002F462C46DDF814C009E000BF30F9146092
:10594000B54203DA964201DD3546E7B2641C8C426B
:10595000F4DB25B18CF8007001201D60F0BD002043
:10596000F0BD30B585B0DB4C01A800902068002563
:1059700003ABB0F95221017DD748FFF7D7FF50B1F3
:1059800023689DF8040093F88A2102F00F018142F8
:1059900019D81B7D14E002A80090206804ABB0F970
:1059A0005421417DCD48FFF7C1FF68B123689DF8C0
:1059B000080093F88A2102F00F01814203D85B7D31
:1059C000591A814200DA150905B0284630BDFEB5E6
:1059D000C04801AB5022006890F88911B0F9877176
:1059E00001F00F060C09B0F9855102A90091017D63
:1059F000B948FFF79BFF0198B84201DD3046FEBD74
:105A0000A84201DA2046FEBD401B311B4843791BEA
:105A100090FBF1F02044FEBD30B5B148AD4D0478A7
:105A2000286890F85101800703D5FFF7D0FFA4EB59
:105A30000004286890F85101400702D5FFF791FF54
:105A40000444002C01DA002402E00F2C00DD0F24B6
:105A5000204630BD30B564290CD00023642407E013
:105A600030F913504D4395FBF4F520F813505B1CAF
:105A70009342F5DB30BD70B5002364250AE0CC5CB1
:105A8000642C06D030F91360664396FBF5F420F8D9
:105A900013405B1C9342F2DB70BD2DE9F0470025FB
:105AA000894629462F462E46A8462B460DE000BFC4
:105AB00030F913C039F913400CFB0C660CFB04776A
:105AC00004FB0488654421445B1C9342F0DB87FBA4
:105AD000020485FB013CC71A86FB020385FB0565B2
:105AE00064EB0C04B0EB060C63EB050688FB0203C9
:105AF00081FB0121851A63EB01086421A7FB0103E7
:105B000004FB0131002207FB02113346624608F014
:105B1000C9FC0246A2FB070301FB073102FB04118B
:105B20002A46434608F0BEFC002C00DA4042BDE89D
:105B3000F08730B547F6F873002405E030F91450CB
:105B4000AB4200DD2B46641C9442F7DB002405E0E9
:105B500030F81450ED1A21F81450641C9442F7DB0D
:105B600030BD70B503460020024601EBD17408E059
:105B700003EB420633F91250B6F90260AD1B28441C
:105B8000521CB2EB640FF3DB621008E003EB42053A
:105B900033F9124035F9025C641B2044521C8A42DE
:105BA000F4DB70BDF0B587B007464A4C03A80090FF
:105BB00020689C468E461646017D002504AB0FFAF0
:105BC0008CF27046FFF7B2FE01283BD102A800908C
:105BD000206805AB32B2417D3846FFF7A7FE0128A9
:105BE00030D1DDE9041081424FF0640203DD5043FF
:105BF00090FBF1F102E0514391FBF0F1206890F845
:105C000092218A421EDD9DF8081019B990F8912161
:105C1000D20716D0427D521E8A4203D190F89111CC
:105C200089070ED59DF80C1019B990F891215207EB
:105C300007D5027D521E8A4204D190F891010007D7
:105C400000D4012507B02846F0BD2DE9FC41214CC8
:105C500084460F4620680025164690F890114907A3
:105C600069D5009690F89311427D0B091D49604655
:105C700001F04CFF0096206890F89311027D0B090B
:105C8000184938462E3101F041FF206890F89011F4
:105C9000090631D5407D43F6FF76CDE90060114A13
:105CA000334611491046FDF7E2F82068007DCDE942
:105CB00000601BE0440910005D0910005E0910003F
:105CC00045091000460910005F0910006109100025
:105CD000F8091000240910003426012006260120AE
:105CE00062091000AE210120021D0120FE4A334648
:105CF000FE491046FDF7BBF8012700972068FC49D4
:105D0000437DB0F89E21F8482E3801F0D5FF0646B5
:105D100000972068F549037DB0F89C21F24801F016
:105D2000CBFF0346F3490022F348012E06D0C2619F
:105D3000012B14D002622846BDE8FC81C669761C9E
:105D4000C661276897F8937107F00F07B742EFDA3B
:105D5000C2610E68012546F040060E60E8E7036A5E
:105D60005B1C0362246894F8934104F00F049C4286
:105D7000E1DA02620868012540F040000860DAE7D5
:105D8000F0B40446DD480B46802100680D4690F8CB
:105D9000680110B10146C0F58075D748C088032856
:105DA00005D22146F0BC52001846FCF741BF002046
:105DB0000FE000BF33F9106034F910704E4307FB59
:105DC0000566F71706EB176646F30F2623F81060F3
:105DD000401C9042EEDBF0BC7047F0B50024C74D8C
:105DE0000FE030F8146031F81470012B0CD0F61B62
:105DF0002F6897F86D717F4206EBC70620F8146094
:105E0000641C9442EDDBF0BD3E442F6897F86D7141
:105E1000F2E72DE9FC47B84D80460026E88898B99E
:105E20002E22B349B648FCF703FF4022AF49B548DC
:105E3000FCF7FEFEAC482E216E3008F0A4FBAA4809
:105E400040219C3008F09FFBE8880127AB4C0328D9
:105E500002D2AD48077014E013D92168B1F86B2164
:105E600082420ED94B7DA049A54A6E31A04801F06F
:105E700006FF20689C49A34A037D9C319B4801F0A2
:105E8000FEFE206890F85011427D090710D590F869
:105E90008D11CDE9001290F88B319C4A944940460F
:105EA000FCF7E5FF20689049427D9C39974802E065
:105EB0008D4940469C39FFF763FF20688C4A90F873
:105EC0005011437D0907924901D5904800E04046B2
:105ED00001F0D5FE2068864A8D49437D82489C3872
:105EE00001F0CDFE206890F85011C90610D5427D12
:105EF00090F896128648FFF7ADFD216891F85001A1
:105F0000C00605D54A7D01F51C718148FFF7B3FD38
:105F10002268B2F85411B2F86901B2F87F41014425
:105F20000BB2E9888C4201D2184403B20020044627
:105F3000DFF8E0C1DFF8D891527D1CE039F910801C
:105F4000984515DD761C022E13D96878401C40B2A6
:105F50006870002804DD70488CF800706C70077061
:105F600047F6FF70814201D2491CE980BDE8FC87F9
:105F70000026401C00B28242E0DC6C708CF80040CD
:105F8000EEE7034610B50020024603E033F9124065
:105F9000521C20448A42F9DB10BDF0B5574C0F4625
:105FA00000252168497DFFF7ECFF06462068017D4A
:105FB0003846FFF7E6FF236801460024D3F89C72B9
:105FC0004D48B74203D38F4201D344620DE0416A8A
:105FD000491C416293F89B228A4206DC454901250F
:105FE0000A6842F400520A6044622846F0BD434801
:105FF000006890F89011890606D53F4901220A7081
:1060000090F8952112098A6190F8F002C00701D03A
:1060100001F054BF70471CB537490020C98801B949
:1060200001201021354CCDE9001020680F233B4999
:10603000427D3B4801F08DFD20683849437DB0F931
:10604000AE213748FCF7FDFE012800D000201CBD22
:106050002DE9F34F83B0DFF8CC904FF0FF304FF0D5
:10606000000A029099F8000001252B4F5646D046B1
:10607000544601281BD0DFF88490D9F8000090F82E
:106080002010C90619D590F825102748028891429A
:1060900013D204802548016841F022010160A90261
:1060A0000120FAF7E3F93D7005B0BDE8F08F3D70CF
:1060B00000F05AFB89F80040F6E70320FAF7C1FA2E
:1060C0001B48DFF834B0007801287DD0BBF806000B
:1060D00001283FD9D9F8000003490123427DCC466D
:1060E0006E31034826E00000DC210120301D012034
:1060F000021D012034091000F809100024091000C5
:10610000DE1D01200C1E0120940A1000403E1000EC
:1061100006260120460910005F091000A02001207A
:1061200072200120610910003809100028091000B0
:106130003B091000FFF751FEDCF800000123FE4987
:10614000027DFE48FFF749FEDCF80000FC4990F8AC
:10615000FD0208700020ABF806003A78DDE9030183
:106160005C46FFF772FD0746D9F8000090F8700111
:10617000400606D5E069002802DC206A002800DD20
:106180000126FFF749FCDFF8BCB30190EE499BF80C
:1061900000000090D9F80000019B427D039801F0B7
:1061A000B5FC9BF800000090D9F80000E649019B7F
:1061B000027D2E31049801F0A9FCD9F8000090F876
:1061C000501109071CD500E038E0427D90F88D1190
:1061D000CDE90012DC4A90F88B31DC491046FCF71F
:1061E00046FED9F80000027D90F88E11CDE900122C
:1061F000D54A90F88C312E32D0491046FCF737FE44
:10620000D9F80000D14AD249437DCF4801F037FD8B
:10621000D9F80000C94ACF49037DCB482E3001F0A0
:106220002EFDD9F8000090F89101000636D5C94935
:10623000C748FFF7B2FE01282ED02FE0D9F80000A2
:1062400090F85101C00605D5FFF7E5FEC2490128C7
:1062500008700DD03A78DDE90301FFF7F6FC01285C
:1062600009D00398FFF7D5FD0320FAF705FA1BE7DD
:106270008BF801400EE0B9480570B9488BF8014031
:106280003D70016841F0420101604FF480610120DE
:10629000FAF7ECF83D70E7E74FF0010A0320FAF750
:1062A000EBF9A5482E22AA494030FCF7C1FCA248D0
:1062B0004022A8496E30FCF7BBFCD9F80000DFF89B
:1062C000A4B290F89011090750D59B49427D5C39E2
:1062D0009F48FFF72EFCD9F800009749427D5C39B2
:1062E00000F57470FFF7D9FB2061D9F80000417DFB
:1062F00091485C38FFF735FC864660612069009064
:1063000032281CDD8C48D9F800205C38B0F9003008
:10631000B2F854118B4207DD92F815C000EB4C0C1B
:106320003CF902CC8C4509DC49428B4207DA527DAC
:1063300000EB420030F9020C884200DA0126D9F85D
:106340000000009990F894218A420FDAB0F8AC214D
:1063500072450BDA90F89001400601D54FF0010824
:10636000DBF8001041F48071CBF80010D9F8000080
:10637000CC4690F85011C9060DD5427D90F8961282
:106380007348FFF767FBDCF80000027D90F8DC1231
:106390007048FFF75FFBDCF80000E14690F89011D1
:1063A000890716D5B0F85231B0F8542169496848C8
:1063B000FFF7F8FB012806D1DBF80010804641F416
:1063C0000071CBF80010D9F8000090F89001800718
:1063D00005D4D9F8000090F8901109070ED5B8F14E
:1063E000010F09D1B4F9020000280CDB401E00B2F5
:1063F0006080002807DC0127D9F8000090F895019B
:1064000000F00F006080D9F80010CC4691F85001E0
:10641000C0060DD54A7D01F51C714D48FFF72BFBD9
:10642000DCF800104B480A7D01F52871FFF723FBCB
:10643000DCF80000E04690F85011090610D50095F0
:10644000437D494A4949424801F0F0FB0095D8F89C
:106450000000454A4649037D3E4801F0E7FB0DE058
:10646000407D3B4942004148FCF7E2FBD8F8000080
:106470003849007D42003E48FCF7DAFBD8F80000BE
:1064800090F89111C9062CD502A90091427DB0F86F
:10649000AC31521E00212E48FCF74FFD012816D1C9
:1064A0000298012805DBD8F800104A7D921E82422E
:1064B00012DAA0880126401E00B2A080002810DA5F
:1064C000DBF80010012741F48071CBF80010D8F8F8
:1064D000000090F8950101E091F8950100F00F009F
:1064E000A080D8F8000090F85111C9070DD0B0F97C
:1064F0005E21417D1D4801F0D0FBD8F80000B0F9C5
:106500005E21017D1A4801F0C8FBD8F8000090F820
:106510005011490735D50095134A437D0A3A15496C
:10652000124801F083FB0095D8F800000E4A12498A
:10653000037D0A3A0E4821E078220120301D012017
:10654000350A10005F09100040210120021D0120C2
:10655000403E10006E3E1000450910004609100034
:1065600028091000340910002A0A1000AE3E10005D
:10657000DC3E1000062601203426012001F056FBE7
:106580000DE0407D6C4942006C48FCF751FBD8F8A7
:1065900000006B49007D42006A48FCF749FBD8F8CF
:1065A00000002378B0F85211B0F85421012B04D028
:1065B000654B1B78012B09D010E0B0F8983103B17E
:1065C0001946B0F89A314BB11A4607E090F85731A6
:1065D000C91A90F8563189B2D21A92B25B4B1B7825
:1065E0003BB190F8A3311A4490F8A43192B2194407
:1065F00089B20FFA81F9A4F80A9011B22181427D83
:106600004E48FFF77DF98446D8F800004946027DE0
:106610004C48FFF775F94E49DFF83C91BCF1010F8A
:1066200081F800C04B49087001D101280BD04B49BB
:10663000002089F800000870E06800281CDD401E7A
:10664000E0600CD018E0404889F80050007801283C
:1066500012D1D8F8000090F89701E0600CE0D8F86B
:10666000000090F89001C00606D5DBF8001041F05C
:106670008001CBF8001002E0BAF1010F0BD13848CD
:10668000016841F0220101604FF480610120F9F7B7
:10669000EDFE34480570012F0AD13148016841F000
:1066A00042010160B9020120F9F7E0FE2D480570B2
:1066B000D8F80000454690F89011890624D5217835
:1066C000012921D1A169002915DD427DB0F95411BC
:1066D0001A48FFF715F907462868027DB0F95211EC
:1066E0001848FFF70DF907B100B94EB1286890F8C6
:1066F00095010009A06199F80000012807D017E072
:10670000A069401EA061F6D100202070F3E7286840
:10671000B4F9021090F8950100F00F00884207D1FB
:10672000002E7FF4C9AC0749044800F02DFDBBE4FE
:1067300000F003FBB8E40000AE3E10000626012086
:10674000DC3E1000342601205C09100048091000CE
:106750005D0910005E091000440910004609100090
:10676000280910005F09100010B5FF490020FF4CF8
:106770000870FF49E0602061A080E0802070087010
:10678000FC4960700870A07020816081FA48006840
:10679000B0F8641189036161B0F86601B1FBF0F0F3
:1067A00080B2FCF7E8FAA06110BD30B5F24A0024CF
:1067B0001268937EDD0792F882310BD0834217DC9A
:1067C000158BEB1A834213DB92F8830188420FDCAE
:1067D000D28A0AE083420BDCD58AEB1A834207DBBC
:1067E00092F88301884203DC128B101A884200DA87
:1067F0000124204630BD2DE9FE4314460D460646D1
:10680000072B09D0D948092BB0F9041006D03180E4
:10681000C188298000781070BDE8FE833288ADF809
:1068200002202A88ADF800202778ADF806108146AE
:10683000C088ADF8040001AA694602A806F042FF2C
:1068400002A806F037FFDFF830830346D8F800C00F
:106850009CF87401BCF8762100F00F01BCF878C1F7
:10686000000952430CFB0CFC93420BDD634501DB3A
:10687000084607E09B1A411A4B43ACEB020193FB1D
:10688000F1F1401ABDF90230C0F11001B9F904C0AC
:106890004B4300FB0C3343F30F133380BDF900303F
:1068A0004B43B9F9061000FB013040F30F1028806C
:1068B000D8F80000102199F8002090F87501A1EB9C
:1068C00010117943000900FB0210C0F3071020707B
:1068D000A2E72DE9F04F8BB000226B4650F8224022
:1068E00003EBC206E517521CC6E90045052AF5D39D
:1068F00001200022C1F1400A9E464FEAEA7BCC17F4
:1069000001E0002217E00EEBC207B946A0CFAAFBB8
:1069100005680BFB05850AFB0753D9E90257A5FB60
:1069200001C807FB018705FB047516EB0C066B41DC
:10693000C9E90063521CC0F105039342E3D8401C2F
:106940000528DED3DDE9001002020BB042EA116037
:10695000BDE8F08F5FF0000200EB82035B6840F857
:106960002230521C042AF7D3016170475FF0000205
:1069700000EB82035B6840F82230521C052AF7DBEB
:10698000416170472DE9F04F002793B080463E46A5
:106990003D46FFF7EBFF002158F82100074448432C
:1069A00000FB0155491C06440629F5DB6F4C09978D
:1069B0001C3460680A90A068CDE90B0620690D9030
:1069C0006069CDE90E05E0691090206A119009A870
:1069D000FBF764FE834603912068CDE90907A068B0
:1069E0000B90E068CDE90C0660690E90A069CDE9D6
:1069F0000F05206A119009A8FBF750FE8146206818
:106A000009906068CDE90A07E0680C902069CDE93B
:106A10000D06A0690F90E069CDE910058A4609A826
:106A2000FBF73CFE0326A9FB06570A460AFB067144
:106A30000926A0FB0637002409FB041402FB06729A
:106A4000002100FB0120EA184441039912EB0B00DE
:106A500061414FF47562002307F024FDC8F80C0073
:106A600013B075E730B5444A01241268937EDD0700
:106A700092F87A310BD0834217DC158BEB1A8342E4
:106A800013DB92F87B0188420FDCD28A0AE0834252
:106A90000BDCD58AEB1A834207DB92F87B01884234
:106AA00003DC128B101A884200DA0024204630BD25
:106AB0002DE9F04FDFF8C0909B460546D9F800302D
:106AC0002A4C0E4693F870012C495FEAC07C1746A9
:106AD0004FF0000894F9020085B0C24601F1180297
:106AE00025D0082D23D0062818DB39463046FFF77D
:106AF000B9FF00282148314608D0FFF743FF06B20E
:106B00001E4839461830FFF73DFF2AE0FFF72EFFF9
:106B10001A4839461830FFF729FF23E000F1010039
:106B200040B2A07041F8206042F820701AE093F85B
:106B300071319B0716D5082D14D0A0B131460F48EE
:106B4000FFF708FF0D4839461830FFF703FF3321E0
:106B50000A48FFF7BEFE06B2084833211830FFF797
:106B6000B8FE07B20CE01CE05C091000340A10000B
:106B7000440910004609100024091000103E1000BE
:106B8000ADF80060ADF804708DF810B02B4604AA83
:106B900001A96846FFF72FFE072D3AD0092D0CD02A
:106BA00037E094F9020041F8206042F82070401C60
:106BB00040B2A0700628F4DBD4E7D9F8001091F8B1
:106BC0007001400725D5B4F90430BDF90000181A4A
:106BD00000D5404291F87C2190420EDAB4F90620AB
:106BE000BDF90400101A00D5404291F87D61B04211
:106BF00003DAADF80030ADF8042022789DF81000DB
:106C0000101A00D5404291F87E11884201DA8DF8C1
:106C10001020D9F800004E4690F8700100060FD5FC
:106C2000082D0DD0BDF90410BDF90000FFF7BDFD22
:106C30008046012804D1306890F87111C9070CD042
:106C4000BDF90010A180BDF90430E3809DF81070FB
:106C50002770B8F1010F21D058E0072D09D0F9496C
:106C60000978C1B190F8A601401CE060002005B091
:106C70006EE6F54A82F800A090F89001C007F5D0C2
:106C8000F248016841F0220101604FF48061012067
:106C9000F9F7ECFBEAE790F87301E5E7306890F864
:106CA0007121D20732D0827ED20790F8822113D090
:106CB0008A4201DDADF80020018B891ABDF9002060
:106CC000914201DAADF8001090F88311994201DD8C
:106CD000ADF80410C08A12E08A4201DDADF8002050
:106CE000C18A891ABDF90020914201DAADF800107D
:106CF00090F88311994201DDADF80410008B401A21
:106D0000BDF90410884201DAADF80400CDF808A0FE
:106D1000CDF80CA0BDF800108DF80850ADF80E109D
:106D2000BDF804108DF80A70ADF80C108DF80BA0AA
:106D300002A801F0ABFF012099E7C24810B5017825
:106D4000C348006849B190F9A611BF480278C1480C
:106D5000012A05D0002101610DE090F97311F4E7DB
:106D6000C268521CC2608A4208D300231A461946E0
:106D70000820FFF79DFEBDE81040F5E410BDF0B51A
:106D80000746DDF814E037F912404FF0FF30744544
:106D900001DA002400E01046012517E0561B07D455
:106DA00037F916C0F44503DDA44501DD30466446DD
:106DB0005619A1F1010C664507DC37F916C0F445F8
:106DC00003DDA44501DD304664466D1C9D42E5DDD2
:106DD000F0BD10B59F4C6169B1FBF0F080B2FBF7DC
:106DE000CAFFA16988420CD97F2801D37F2010BD3A
:106DF000401AC0EBC010C1F17F01B0FBF1F00028D8
:106E0000F5DC012010BDF0B500240125A1F101063B
:106E10000BE0571B02D430F917703C445719B742A6
:106E200002DC30F917703C446D1C9D42F1DD012AF3
:106E300002DB891E8A4200DD640030F91200204422
:106E4000F0BD2DE9F047824D14469A462E6830F980
:106E50001420814602FB04F00123A1F1010196F800
:106E600062C117E0E51A08D439F91570B6F85E81E9
:106E7000474502DB07FB05003A44E5188D4208DC74
:106E800039F91570B6F85E81474502DB07FB05004E
:106E90003A445B1CB3EB1C1FE4DD4A4380FB0A0150
:106EA000D31707F0FFFA00B2BDE8F0872DE9F05FD5
:106EB0008B46D0E900159146002280689A46134619
:106EC0004FF48034814202DD02460B4602E001DAD3
:106ED0000A460346A0EB01014FF4803CA1FB0C08DD
:106EE0004FEAE17707FB0C874FF000062B44C2F115
:106EF000000201FB067103EB42024FEAE27307F066
:106F0000D1FA4FF48036A9FB063C4FEAE97505FB40
:106F100006C51B18A3FB0A06002709FB07524A41B6
:106F200002FB0A614FEAEA7503FB051122463B4664
:106F300007F0B8FA5A464FEAEB7307F0B3FA00B21B
:106F4000BDE8F09F2DE9F04F93B00C4682461746FE
:106F50009946002518210CA81C9E07F036FB00203E
:106F60000290039004902EB93948006890F86201AD
:106F700000F00F06BA1B07EB060300D50022661EC1
:106F8000B34200DD631E0CA95046FBF7F5FB4FB181
:106F9000B7422FD12E48006890F85101800613D5D2
:106FA0004D4675E02A48006890F8510180066FD47C
:106FB000BAF904000290BAF900000390BAF902008D
:106FC0004B46012204900DE00AEB44007F1C30F98F
:106FD000061D0291B0F904100391B0F902004B466E
:106FE0003AB20490611E02A8FFF760FF99FBF6F128
:106FF000451A4DE0DDE910B1B1F100084ADADDE9EA
:107000000C2352EA030045D0DDE90E0105910890FA
:1070100000293FDB0E48056895F8500140061BD556
:107020005846414607F03EFA002800DA404295F8FB
:107030006311884210DA4B463A4621465046FFF724
:1070400000FF24E0480910005C0910002809100026
:1070500024091000340A10001BEB0B01A1FB0624CD
:1070600048EB080000FB0640F31701FB03030898F8
:1070700005994542A5FB0907002464EB010404FBC4
:1070800009714FEAE97605FB061107F00BFA054690
:1070900028B2E5E4B8F1000FCDDADDE90C010843D0
:1070A000C9D00F980028C6DBF2E738B5B04D049C74
:1070B0002D6895F85051AD0603D50094FFF742FFB7
:1070C00001E0FFF7BEFE00B238BD2DE9F047002415
:1070D0009A46CE1E81462346A44627462546022AC6
:1070E00003DBB24201DC1046DEE60020491E07E069
:1070F00039F91080B8F1000F01DDC4447F1C401C39
:107100008842F5DB9CFBF7F7022A12DA10460DE005
:1071100039F91060BE4203DA3CB90446002304E0AA
:107120001CB19E4201DD33460546401C8842EFDB20
:1071300014E0B24212DD10460EE000BF39F9101023
:10714000B94203DA3CB90446002304E01CB1994279
:1071500001DD0B460546401E0228EFDC534500DAF0
:1071600015462846A0E630B5044630F91130002017
:10717000491C06E034F911509D4201DD2B460846BA
:10718000491C9142F6DB30BD2DE9F34F784C85B0B8
:10719000226892F88451567D05F00F035F4206EB9A
:1071A000470606F0FF0B167D2A09554200EB430007
:1071B00006EB45050590EDB201EB420001952A462C
:1071C00000210690FFF7CFFF06465A46002105989A
:1071D000FFF7C9FF05462068664F90F870018006EA
:1071E00007D5B7F90030324601990698FFF76DFFD1
:1071F00006462068DFF880A190F87001C00607D528
:10720000BAF900302A4659460598FFF75EFF054651
:10721000DFF86891DFF8688199F80000012828D12B
:10722000206890F86001010723D0010921D0B7F947
:107230000010009100F00F03B8F90820019906989A
:10724000FFF79DFD0746BAF9000000902068B8F9E5
:107250000A20594690F8600103090598FFF78FFD51
:10726000002F01DB002802DAFFF767FD01E03E4650
:10727000054637B2A8F808702AB2A8F80A204FF0DD
:10728000000ACDF800A020685946B0F918300598DA
:10729000FFF70BFFCDF800A0039020683A46019954
:1072A000B0F916300698FFF700FF0290206890F8BA
:1072B0007001800704D5032203A902A804F03AF85C
:1072C00003A902A8FBF78CFD012332462D48019942
:1072D000FFF799FD064601232A4659462A48FFF73B
:1072E00092FD3044FFF775FDC3B2284800780028AE
:1072F000206810D090F9A51198F801204046521E40
:1073000052B288F80120002A08DB226892F8FC2299
:10731000114449B204E090F97211EDE7FF22427086
:1073200099F8004005690CB96D1C05618D421AD3AE
:1073300040F2FF110161C8F80CA04CB1039802B2F1
:10734000029801B25FF00900FFF7B2FB48B10AE012
:10735000012089F80000039802B2029801B20720C8
:10736000F2E7FFF7EAFC07B00120BDE8F08F00006C
:1073700024091000020A1000000A10005C09100025
:10738000340A1000E6220120B8220120480910002A
:10739000E448E54A0068B0F8AC139180E34990F8FE
:1073A000B10308817047E1490020DE4A8880C88027
:1073B000C86048801268DE4B92F85C2112091A708E
:1073C00008610870DB49087070472DE9F04399B0F7
:1073D000814602AF5C21384607F0F7F8D148012317
:1073E000016891F8B1204C7D91F8A01103EB1216C1
:1073F000890715D50025804610E000BFD8F8001099
:1074000005FB04F009EB40004A7D91F88B31CDE992
:10741000003249460246FBF72AFD6D1CB542EDDB02
:10742000002010E000FB04F2002109E002EB010C57
:1074300057F8215039F91C302B4447F82130491CAA
:10744000A142F3DB401CB042ECDB002007E000BFB0
:1074500057F8201091FBF6F147F82010401CA0428D
:10746000F6DB00200121A4F1010517E04FF0000C2C
:1074700063460BE003FB041839F9182057F8218004
:10748000B2EB080200D5524294445B1CB342F1DBDC
:107490009CFBF6F2824200DD1046491CA942E5DB66
:1074A000B0F5803F04DB4FF6FF7019B0BDE8F08304
:1074B00080B2FAE730B59B499D4B096891F850219D
:1074C000920725D59B4A12784AB191F8A74104F05A
:1074D0000F022509B1F8A841B1F8AA1107E001F59A
:1074E000AC710C7904F00F0225090C884988A04280
:1074F00001DC1A7030BD884201DB1D7030BD001BFD
:10750000AD1A6843091B90FBF1F01044187030BDB0
:1075100091F85C0100F00F00F8E72DE9F041814D92
:10752000814A2E6896F88013B6F8AC33C9073DD06F
:1075300096F8AF4304B90124918896F8AEC3CF1AE8
:1075400007FB0CF797FBF4F4B6F8AA730F44274433
:10755000764CB8420ADD002620210120E660F8F7CB
:1075600085FFE680286890F8B10306E0814202D9E1
:10757000704D2D7825B196F8B1032081BDE8F081DA
:107580006D4D2D78002DF9D1B4F90850002D01DD95
:107590006D1E25812489002CF0D1891E814200DADC
:1075A00001468B4200DD19469180E7E79380E5E7CD
:1075B0005C4A10B514680021B4F8A121824204D2BB
:1075C00094F8B000800700D501215848594B027843
:1075D000914211D1197891420AD0574C2478224314
:1075E00007D00169491E0161002901DC007818708B
:1075F00010BD01700169F7E739B194F8B22002615A
:107600000170002AF4DC197010BD94F8B320F6E77D
:10761000444910B5096891F8B010CA06434918D515
:10762000464A14780A46D388C3EB03125200012C51
:1076300005D0C41A002C0CDC3F4C247824B102EB9A
:107640004000C0F34F1004E0C3EB83121044C0F3BA
:107650008F10C88080B210BD10B5FFF7B6FEFFF7DF
:10766000D7FF324CA080FFF7A3FFA088FFF722FFCF
:10767000A088BDE8104050E7F0B430490B782B49A2
:107680004A88B3B1322A01D2521C4A80254A0125C8
:10769000136893F8B1405B7D05EB1415CC6894FB3F
:1076A000F5F605FB1644264E634306EB430700231D
:1076B0000BE0012AEAD9521E4A800022CA60E5E79F
:1076C00030F813C027F813C05B1CD2F800C09CF838
:1076D00015C09C45F4DCCB685B1CCB60136893F849
:1076E000C577FF0707D05B7D641C5F00634306EB33
:1076F0004304002307E0C8680CE0FE1830F8166069
:1077000024F813605B1C1668767D9E42F5DCC86821
:10771000401CC860A84202DBF0BC09489CE7F0BCF2
:1077200070470000240910004C251000740A100056
:107730006209100048091000440910003B091000BC
:1077400026230120D7490020886048600860D64978
:107750000870704710B500230BE000BF30F91340EC
:10776000002C00DA64428C4201DD012010BD5B1C5C
:107770001BB29342F2DB002010BD70B5CB4CCC4A5B
:10778000CC492068437DCC4800F079FA2068CB4A88
:10779000CB49037DCB4800F072FA2068427DB0F9F6
:1077A0009812C448FFF7D6FF05462068027DB0F95D
:1077B0009812C348FFF7CEFF0022BA49012803D030
:1077C000012D01D00A6070BD0868401C0860236864
:1077D00093F89A328342F6DCBB48036843F4805343
:1077E0000360BA480A60016841F022010160BDE807
:1077F00070404FF480610120F8F738BE70B505463F
:10780000002003460CE000BF35F9134031F9136046
:10781000A41B00D5644224B2A04200DA20465B1CBF
:107820009342F1DB70BD2DE9FC5FA94D9F4CA94E41
:107830002878009020683378A749427DA74800F057
:1078400065F92878009020683378A549027DA5481D
:1078500000F05CF9A0480190A1480090A24800788F
:10786000400778D5A1488F4D0027007838B36F6066
:10787000AF60206890F82C10B0F82F90B0F833600B
:107880004FEA111A01F00F0B427D99499948FFF711
:10789000B5FF844620689849027D9848FFF7AEFFFF
:1078A0002168814AB1F85431BCEB530F04DCB1F8C4
:1078B0005211B0EB510F1FDD012010701DE06968FF
:1078C000491C6960206890F82A20B1EB121F00DD86
:1078D0006F60A96802F00F02491CA9608A4200DAB1
:1078E000AF6010F82B1FB0F80290C6884FEA111A4B
:1078F00001F00F0B2B38C7E717707D4F7E4B002030
:10790000A6464DE07E4A00211278012A09D0019A4C
:1079100037F910C032F9102062450DDAAA683AB181
:107920001CE0019937F8102031F81010891A01E095
:10793000CBF1000109B211E0D5F80480B8F1000FD5
:107940000CD1A2EB0C020FFA8AF14A4506DDB242D5
:1079500002DD31B202E087E00FFA89F194F880236A
:10796000520717D500220DE0C2EBC20C0CEB021837
:10797000DFF844C1521C0CEB480C3CF810808844E2
:107980002CF8108094F880834FF0010C0CEB981CBD
:107990009445E9DC37F81020114427F81010401CFA
:1079A000DEF800407246617D8142ABDC00204CE095
:1079B000534C00212478012C09D0009C34F910C0CC
:1079C00033F91040A4450DDAAC683CB11FE00099D2
:1079D00033F8104031F81010091B01E0CBF1000121
:1079E00009B214E0D5F804C0BCF1000F0FD1DFF8E4
:1079F000F4C00FFA8AF13CF910C0ACEB04044C451A
:107A000005DDB44201DD31B201E00FFA89F197F8EA
:107A10008043640713D500244FF0010E09E0DFF81E
:107A2000A4C00CEB841C641C3CF8108088442CF827
:107A3000108097F880830EEB981CA445EFDC33F898
:107A40001040214423F81010401C1768397D8142F2
:107A5000AEDC97F89101000606D597F88003400741
:107A600002D5BDE8FC5F88E6BDE8FC9F0F4810B575
:107A7000006890F82000C10712D022490978002937
:107A80000ED12149097809B1800609D50320F8F7FC
:107A9000D8FDFFF7C8FEBDE810400320F8F7ECBDA5
:107AA00010BD0000880A10006D09100024091000A4
:107AB000041F0120403E10004C1E012032200120F6
:107AC0006E3E1000321F01203409100028091000FA
:107AD0005F09100062091000701D0120CE200120F6
:107AE0009E1D0120FC200120980A10003B09100077
:107AF000021D012040210120301D01206E210120A6
:107B0000940A10003F09100044091000F0B40C461C
:107B100001460498C3F11006012801D0002014E0AA
:107B20002046F0BC5200FBF783B800BF34F9105078
:107B300031F910705D4307FB0655EF1705EB17751C
:107B400045F30F1524F81050401C9042EEDBF0BCBA
:107B50007047F0B40C460146DDE90460F51A0128CF
:107B600001D0002010E02046F0BC5200FBF760B8C6
:107B700034F9107031F910C05F430CFB057797FBA7
:107B8000F6F724F81070401C9042F1DBDFE7F0B507
:107B90004FF0000C67466646654664460FE000BF3E
:107BA00031F914E0BEF1000F03DDF44406F10106E3
:107BB00003E002DA774405F1010504F1010494427F
:107BC000EEDB9CFBF6F697FBF5F70024DFF840C1EF
:107BD00029E08BB131F91450002D13DD30F8145029
:107BE00035442DB220F81450DCF800E0BEF858E41B
:107BF000754517DD354413E030F8145031F814E0C2
:107C000075440DE00EDA30F814503D442DB220F8E2
:107C10001450DCF800E0BEF85CE4754502DA3D443F
:107C200020F81450641C9442D3DBF0BD2DE9F043DE
:107C300091460022DDF81CC018E000252E462C4697
:107C400002EB0407BF1E08D49F4206DA30F9178002
:107C500039F9147008FB07553E44641C052CEFDB12
:107C6000BCF1010F06D021F81250521C9A42E4DBFD
:107C7000BDE8F08395FBF6F421F81240F5E770B506
:107C8000002407E032F8145030F81460AD1B21F8DE
:107C90001450641C9C42F5DB70BD30B500231C46BB
:107CA00007E000BF30F91350954201DA20F8134085
:107CB0005B1C8B42F6DB30BD2DE9F04300252E46E0
:107CC0002C46DDF81C9017E031F9147030F914C01F
:107CD00007EB0208C44505DDBCEB070700D57F4272
:107CE0003E4408E0A7EB0208C44504DABCEB0707F2
:107CF00000D57F423D44641C9C42E5DBB9F1000F96
:107D000000D10025B54201D20120B1E70020AFE744
:107D1000240910005D485E4A00685168414004D063
:107D20005060480701D5FDF7C7BD704710B5044640
:107D3000480709D557492046FAF777FD2046BDE8A0
:107D400010405549FAF797BD10BD2DE9F041504854
:107D5000524D0026067052492C680C423CD04068B7
:107D6000044050480078002836D10620F8F769FC16
:107D700021464D48FFF7DAFF4C484D4F006890F818
:107D8000A011C90709D0287800060CD43878022839
:107D900009D04548FFF770FC05E090F85C014549C3
:107DA00000F00F0008700620F8F766FC600709D5A0
:107DB0000420F8F746FC38493648FEF749F9042014
:107DC000F8F75AFC3878022802D12868002801DA2E
:107DD000FFF74CFE38480670BDE8F0812C4910B51D
:107DE00000204860FFF7AEFCFDF766FDFFF7DBFA09
:107DF000BDE81040FFF7CCBA254C08B500256570EA
:107E0000FFF7ECFF4FF6FF76607820B30128FBD137
:107E10006B46002215210420F8F777FB0098C00775
:107E200006D031460420F8F74FFBFFF7D7FF657007
:107E30000098400705D504210846F8F745FBFFF7F1
:107E400084FF0098C006DFD510210420F8F73CFB22
:107E5000FFF760FFD8E704210020FAF742FD6B46E8
:107E6000002202210420F8F750FB04210120FAF738
:107E700038FD00988007C7D531460420F8F724FB69
:107E8000FFF7ACFF01206070BEE700003C0B100064
:107E9000940A1000CE200120FC2001205809100077
:107EA000140200803F091000208B012024091000DB
:107EB00063091000620910005F091000F8480021F2
:107EC0008160C1707047F64901208870F6E7F44878
:107ED000002141604170012181707047EEE72DE97A
:107EE000FC4789460746FAF79AFC0090FAF7C2FC6D
:107EF000019004216846FAF7AFFB0446042101A86B
:107F0000FAF7AAFB2044E64C4600E649A068E64D95
:107F1000704301EB400029687200B1F8F2823946E3
:107F2000FAF786FE2868A16890F8F102884202D12B
:107F30000120E07002E0E07801281AD1D94F00203A
:107F400015E000BF2A68012137F9103092F8F122BC
:107F5000521C05E006FB010C491C37F91CC06344A8
:107F60008A42F7DCA3EB080229F81020401CB0423B
:107F7000E8DB286890F8F112A068814201D3401C28
:107F800000E00020A060E078BDE8FC872DE9FC411E
:107F900015460E460746FAF742FC0090FAF76AFCCF
:107FA000019000980421400800906846FAF754FBBD
:107FB0000446042101A8FAF74FFB00EB440C07EB41
:107FC000440207EB4C03014606EB440706EB4C0664
:107FD000002006E032F810C00CFB05FC27F810C0AA
:107FE000401CA042F6DB002006E000BF33F8102062
:107FF0006A4326F81020401C8842F7DBBDE8FC816C
:108000002DE9FC47154689460646FAF708FC00901C
:10801000FAF730FC019004216846FAF71DFB04468C
:10802000042101A8FAF718FB0146304606EB440389
:1080300005EB4407002207E030F802CB33F8028B4F
:10804000521CC44427F802CBA242F5DB01EB4402E8
:1080500006EB840006EB420305EB4206002207E034
:1080600030F8027B33F802CB521C674426F8027BBF
:108070008A42F5DB48462946002204E030F8023BFC
:1080800021F8023B521CA242F8DB09EB440005EB4D
:108090008402002105E000BF30F8023B22F8023BD9
:1080A000491CA142F8DB6FE72DE9FC417E4F012618
:1080B000386890F81811090719D5794C10210F2349
:1080C000A278CDE90012427D78497948FFF741FD59
:1080D0000025A57038687549437DB0F9AE21744814
:1080E000FAF7AFFE73490978062902D020703046AE
:1080F00084E70026012802D065602570F7E7207824
:108100000028F4D16068401C60600128EFD901208C
:108110006070207000F03FFC01210220F8F7A6F902
:10812000E5E770B5644E0025308810F4CA7F59D059
:108130005D4C62492068407D42005D48FAF778FD59
:10814000FFF7B2FF054601284CD1206890F8C5071B
:10815000C1075B4809D03168490006D40830514A4C
:1081600003C8DC3AFFF74CFF04E04E498068DC3975
:10817000FAF767FD3078000608D52068494990F87D
:10818000C427DC39521C0846FFF700FF20684D4920
:1081900090F8F002C0074348A0F1DC0002D0FFF7DE
:1081A0009EFE01E0FAF74DFD206890F8F012C90735
:1081B00001D03B49CD7890F84914890712D5427D0A
:1081C000404E012306EB42003F49FFF7E0FC2068E8
:1081D00001233E49027D407D02EB400006EB40005A
:1081E000FFF7D5FC284670BD70B52F480125006803
:1081F00090F81811090718D5047D417DB0F96E215A
:10820000334804FB01F300EB4401324800EB440027
:10821000FAF717FE27490A782149062A04D10025D2
:10822000012804D0002048600870284670BD0878F6
:108230000028FAD14868401C48600128F5D901207F
:108240004870087000F0A7FB01210220F8F70EF932
:10825000EBE72DE9F0438946134909684C7D0B7D16
:10826000641C012117E000BF4A1C01FB03F55A43BF
:1082700000EB450600EB420709EB4505002207E04D
:1082800036F812C037F81280C44425F812C0521CC8
:108290009A42F5DB491CA142E6DBBDE8F083000011
:1082A0009C0A1000F83F100024091000A0200120B3
:1082B0007220012063091000BC0A1000FC8B012011
:1082C00044441000208B012098920120C692012086
:1082D000420001204C11100070B5054652480C4672
:1082E000006890F8451709060AD5007D2946420026
:1082F0002046FAF79DFC21462846BDE87040A8E7D5
:1083000021462846BDE87040FAF7B7BC474910B58A
:1083100009780020C90707D0454846494068FFF75B
:10832000DBFFBDE810405FE710BD3F48006890F8F4
:1083300029010106404802D50188491C01E03F4956
:10834000098801807047384930B409683C4891F881
:10835000C8100278CB0718D08B0716D5394B1B787D
:10836000C1F38204012101FA04F4234209D001700F
:10837000C8B2824209D0012805D0CD2030BC00F01F
:10838000F6BD0021F3E7CC20F8E730BC70472DE9BB
:10839000F041FFF7D8FF2648244C0025007820B193
:1083A000F9F7E3FE2560BDE8F081FFF7BEFF1E4848
:1083B000006890F81801800701D5F9F70DFE224EEC
:1083C00030780128EED00620F8F73BF9FFF79EFF42
:1083D0000746FFF7A6FE80460620F8F74DF91B4931
:1083E0002068012F086006D1307807280BD00421BF
:1083F0000320F8F73BF8B8F1010FD3D1144E3078D1
:10840000012803D006E04FF40071F1E70D2000F0E1
:10841000AEFD357004210846F8F728F8C2E70020C1
:10842000704700207047000024091000BC0A1000AB
:10843000444410004C11100064091000AC0A1000F4
:10844000490910004B000020630910005809100072
:108450006009100010B501461022FC48FAF7E8FB4D
:108460000221BDE810400846F8F700B870B596B094
:1084700004466846FAF70CFCF549F648F64B4C61A1
:1084800002881A80F54AF64B52880280F548E207C6
:108490001DD09DF8002042F001028DF800200268F6
:1084A00092F82051ED0712D01D78042D0FD0002C2A
:1084B0000DDB02F2211255788DF8135015788DF8E6
:1084C0001A5092788DF81E2044F480624A6114F4A8
:1084D000457F4FF000052DD0026892F8A061F607A5
:1084E00006D092F8C567F60702D01E78032E07D093
:1084F0001B78022B29D0072B27D0062B25D005E08F
:108500009DF8003043F010038DF800309DF80030E6
:1085100043F020038DF8003092F80A27D20709D0E3
:108520009DF80020930605D522F0200242F00602B5
:108530008DF80020E2054AD5CB4A1278012A31D0C5
:10854000CA4A1278012A2DD041E0002C01DA022B10
:1085500008D09DF80060062B46F002068DF80060FA
:1085600007D010E09DF8003043F020038DF8003074
:1085700009E0BDF8023023F02003ADF802304B696A
:1085800043F080434B6192F80037DB0703D092F849
:1085900003378DF83A308DF838504B6943F080033B
:1085A0004B61B9E7006890F8B02112070FD58DF83C
:1085B000385090F8C507C00705D09DF8000020F09E
:1085C00010008DF80000486940F080004861AFF26B
:1085D0007B1001906846F8F76BFF16B070BD00EB9A
:1085E00080004FF6FF7101EA4000F8F7ECB99C48B3
:1085F00010B501789B48022900680BD006290CD0E1
:1086000007290DD09249897801290CD090F81A4198
:1086100064B10CE090F81D41FAE790F82641F7E7C5
:1086200090F82741F4E790F81B41F1E71424F8F79C
:10863000B3FA002801DD04EB8404204610BDF0B538
:108640008849054600200C6894F82070F90732D05C
:1086500083490B787E49022B1BD0072B19D0062BA0
:1086600017D094F83920824E36781EB194F84944D8
:10867000E40721D07F4C24780CB1BC061CD58C6853
:10868000641C8C60944216DD0020886001204EB18D
:108690000EE00E7894F83A20032EE4D2761C0E7089
:1086A0008A60E0E7072B03D0062B01D040F21510BB
:1086B000284040F00040F0BD52428A60F0BD10B545
:1086C000634B02460020664CDB680146062A02D056
:1086D000072A0BD00DE068480278012A05D0062051
:1086E0002070580704D5042003E001700720207093
:1086F0000120624A18401170614A117010BD2DE9C5
:10870000F04F0024DFF848910346A046D9F80C50FA
:10871000204626462746E907224613D05949DFF866
:1087200068C1097801290AD05149097839B99CF8FA
:108730000010012903D055490978012902D18CF88C
:108740000020012649465FEA457C0ED5DFF824C1AA
:108750009CF800C0BCF1010F06D0DFF834C19CF8D2
:1087600000C0BCF1010F00D10127DFF828A1DFF81C
:1087700010B1DFF8EC90012E08D03A4E042B366889
:1087800006D0032B0ED0022B31D032E08A613CE0C0
:10879000CA618869401C886196F85D61864234DA56
:1087A0008A612DE03C4F3F78012F1ED03B4F3F7830
:1087B000012F1AD09AF80070012F16D096F8187170
:1087C000FF0716D0D1F81CC00CF1010CC1F81CC079
:1087D00096F8196106EBC60707EB0616BCEB860F89
:1087E00007D3CA618BF8002014E0CA6101E0012FB1
:1087F00004D0032B04D0022B0CD016E08A61CA618E
:10880000032689F8006017200FE0042689F800602D
:1088100003200AE0022489F800400124680703D5F8
:1088200016204FF0010800E0132099F800609E42E6
:1088300001D08AF80020114B2840002C1C708BF8C6
:10884000008000D10A70BDE8F08F000044441000A1
:10885000A80A100072091000700910004C251000C1
:10886000630910002409100041091000400910009C
:108870003F091000440910009D0A10003B09100038
:108880003C09100042091000450910009C0A100024
:10889000460910006D0910005D0910005E09100006
:1088A00010B5C24C00202061C1480078042808D0CF
:1088B000032806D0022804D0062805D0072803D0B4
:1088C00007E0FFF71CFF01E0FFF7F9FE216908430D
:1088D0002061E068FFF7B3FE21690843206110BD05
:1088E00038B5FFF7DDFFB3490868002809DDB24A53
:1088F000127832B9401E086003D102210520F7F733
:10890000B5FDAE48A94C006890F80A07C00707D02B
:10891000A7480078042803D0A08910F48A7F03D1E7
:10892000FFF765FEFFF75BFE206940F21731084252
:1089300014D00020F7F785FE2069FFF797FD02218C
:108940006B4600220846F7F7E0FD02210846F7F7DC
:10895000BBFDFFF71CFD0020F7F78EFE38BD10B5FC
:1089600001210220F7F7B0FDBDE81040B8E710B5CF
:1089700040210220F7F7A8FD8D480178012909D090
:1089800006210170FFF7A3FA884900208861C861B9
:108990008B49087010BDF8F726B884490020894A31
:1089A0000861486110608861854AC86188601070FC
:1089B000854A1070854A1070804A126892F8292101
:1089C000920704D5888082490880824908807047D0
:1089D0002DE9F041002704210220F7F775FD7E48BC
:1089E000724E0568F06890EA050427D02C404FF6D7
:1089F000FF7807D030B9012741460220F7F764FD20
:108A0000FFF7CBFF600701D5FFF768FA684CF56008
:108A10002DB1012F12D1E8070BD004200AE0F7F79F
:108A2000E2FF012020704146BDE8F0410220F7F747
:108A30004BBD03202070BDE8F04151E7BDE8F08157
:108A400010B510210220F7F73FFD5849012088702A
:108A500010BD10B508210220F7F736FD534900205C
:108A6000887010BD10B5F7F7BEFF5149012008709E
:108A70004E4900204870BDE810404FF6FF710220BB
:108A8000F7F722BD08B56B460022DD210220F7F77B
:108A90003CFD0098000601D5FFF7E4FF00980007B1
:108AA00001D5FFF7D6FF0098C00601D5FFF7C8FF34
:108AB0000098400701D5FFF78BFF0098400601D5CD
:108AC000FFF755FF0098C00701D0FFF748FF08BD2A
:108AD00037480122354902700020C860887008615B
:108AE00048618861C8613D490A703D4908703D4848
:108AF0003D49408808803D490880FFF7E4B908B542
:108B000002210020F9F7EDFE6B4600224FF4807140
:108B10000220F7F7FAFC02210120F9F7E2FE0098A3
:108B2000C00509D5FFF7D4FF4FF6FF710220F7F714
:108B3000CBFC1E490120487008BD1C49002048702C
:108B400070471A4C0020607006E0607820B1012860
:108B5000FBD1FFF797FFF8E7FFF7D1FFF5E71349E0
:108B600000208861C861164908701749087070476D
:108B700010B5F7F738FF0121BDE810400220F7F7E4
:108B800075BC80B2F7F749BFF7F757BF10B5F7F7D5
:108B900054FF06488188491C8180BDE810400120AF
:108BA000EFE70648006890F81C0118E5A80A1000D5
:108BB00063091000380B10003F0910002409100051
:108BC0003B091000580910003C0910009C0A1000D5
:108BD00064091000660910003C0B100060091000C9
:108BE0006E0910004C251000700910007209100069
:108BF00010B504460220F7F724FD2046F7F7D6FF0C
:108C0000BDE810400220F7F737BDF7F7CFBF1CB51E
:108C100000210091019102789DF8001062F3030198
:108C20008DF80010427862F307118DF80010428928
:108C3000BDF8011062F30B01ADF801100289BDF817
:108C4000021062F30F11ADF8021081798DF8041053
:108C5000C1798DF8051001798DF8061080788DF8AE
:108C600007006846FFF7C4FF1CBD1CB5002000903C
:108C7000019002208DF80000EB480068C007400E0C
:108C80008DF807006846FFF7B3FF1CBD1CB5002137
:108C90000091019101788DF8001041788DF8011054
:108CA000C188C1F307118DF802108188C1F3071143
:108CB0008DF80310017901F00F018DF8041082790D
:108CC00041EA02118DF8041081788DF80510C07802
:108CD00000F00F008DF80600D3480068C007400E72
:108CE0008DF807006846FFF783FF1CBD1CB5002008
:108CF00000900190CD4800684178827810208DF86E
:108D000000004006437A8DF80130C94B1B788DF87E
:108D1000023043891B0A8DF8033040898DF8040026
:108D2000C1488DF805108DF806200068C007400E78
:108D30008DF807006846FFF75BFF1CBD1CB50020DF
:108D40000090019011208DF80000B7480068C0071E
:108D5000400E8DF807006846FFF74AFF1CBD2DE95D
:108D6000FC410646002000900190122015460C465A
:108D70008DF800004FF008571EE0200A8DF8010022
:108D8000C4F30B008DF80240315C30448DF80310C1
:108D900041788DF8041081788DF80510C0788DF831
:108DA0000600D7F8E001C007400E8DF807006846BE
:108DB000FFF71EFF241D2D1F002DDEDCBDE8FC810A
:108DC0001CB50022019200920F228DF800208DF830
:108DD00001008DF80610402093498DF8070001200E
:108DE00008606846F7F7E2FE1CBD1CB5002300933F
:108DF0000193DB238DF800308DF801008DF802100F
:108E0000100E8DF80300100C8DF80400100A8DF878
:108E1000050085488DF806200068C007400E8DF8D3
:108E200007006846FFF7E4FE1CBD1CB50022009257
:108E300001920F228DF8002005228DF801208DF877
:108E4000020079488DF803100068C007400E8DF8C5
:108E500007006846FFF7CCFE1CBD2DE9FC41044627
:108E60000025009519208DF8000040070195417AF2
:108E70008DF801106E4909788DF802104189090AB0
:108E80008DF803104089694F8DF80400664E3868EC
:108E900041788DF8051080788DF806003068C0079D
:108EA000400E8DF807006846FFF7A2FE00951A20D5
:108EB00001958DF80000386800F5FC6001788DF8A8
:108EC000011041788DF8021081788DF80310C07878
:108ED0008DF804003068C007400E8DF80700684622
:108EE000FFF786FE00951B2001958DF80000606855
:108EF000000E8DF801006068000C8DF80200A0885B
:108F0000000A8DF8030020798DF8040020788DF890
:108F10000500207B8DF806003068C007400E8DF8F4
:108F200007006846FFF764FE00951C2001958DF848
:108F30000000A068000E8DF80100A068000C8DF8FC
:108F400002002089000A8DF80300207A8DF80400C1
:108F5000207C8DF80500207D8DF806003068C00764
:108F6000400E8DF807006846FFF742FE26E71CB565
:108F70002E49096891F82911490603D400F00F0120
:108F80000C2919D100210091019116218DF80010B2
:108F90008DF80100010A8DF80210010C000E8DF809
:108FA000040021488DF803100068C007400E8DF8BA
:108FB00007006846FFF71CFE1CBD1CB5002300938C
:108FC000019316238DF800308DF80100080A8DF802
:108FD0000200100A8DF8040013488DF803108DF874
:108FE00005200068C007400E8DF807006846FFF7AF
:108FF000FFFD1CBD1CB5002300938DF80000080A7E
:109000008DF802000193100A8DF8050006488DF8CE
:1090100003108DF806200068C007400E8DF8070089
:109020006846FFF7E5FD1CBDE001002224091000A1
:109030006C0910009148006890F82A0100F00700C0
:10904000801C00EB8000C000F7F7D2BC2DE9F04196
:109050008B4D286818B30520F7F7F3FA0024012791
:10906000286807FA04F6304213D004EB440005EBFD
:10907000800898F8040005280BD104218148F9F7ED
:10908000EBFAC1B208F10400FFF7C1FD2868B04354
:109090002860641C0A2CE3D30520F7F7EDFA794821
:1090A000001F4068002802D0BDE8F041C2E7BDE8DB
:1090B000F081F7F7ADBC2DE9F05F724D05202D1F53
:1090C000D5F80480F7F7BDFADFF8B0914FF0005AF9
:1090D000D9F8000090F82901800702D500218AF80C
:1090E0000510DFF89CB100270126DBF80010BE4018
:1090F000584631423AD007EB470200EB820422790E
:10910000032A09D0042A07D0052A2FD1D9F8002034
:1091100092F82921D20629D4B143CBF80010207946
:10912000032802D0042804D018E0686806436E6063
:1091300014E0D9F8000090F82901C0070BD00520F1
:10914000207104214F48F9F787FAC1B2201DFFF7BB
:109150005EFD042020716868B043686004214948BE
:10916000F9F77AFAC1B2201DFFF751FD7F1C0A2FD3
:10917000BAD3D9F800004C4690F82901800702D5EF
:1091800080218AF805100520F7F776FA206890F814
:109190002901C0060ED56868B8F1000F05D0002877
:1091A00008D1BDE8F05FF7F733BC002802D0BDE876
:1091B000F05F3FE7BDE8F09F32490020091F48609B
:1091C0007C212F4805F001BA2E4C08B5241F00253C
:1091D0002570F7F71DFC207850B30128FBD1002241
:1091E0006B4607211046F7F790F90098400706D51F
:1091F00004210020F7F768F9F7F70AFC25700098BA
:10920000800705D502210020F7F75EF9FFF753FF2D
:109210000098C007DFD001210020F7F755F9174863
:10922000006890F82901C006D5D5FFF70FFFD2E7F7
:1092300000210846F9F755FB00226B46082110462D
:10924000F7F763F900210120F9F74BFB00980007BD
:10925000C1D5FFF7B1FFF7F7DBFB0F210020F7F7D0
:1092600033F901202070B6E710B5F7F7D1FB0121E3
:10927000BDE810400020F7F7F9B8000024091000FD
:10928000D0241000CC0A10002DE9F0473A483B4C9E
:1092900001684D7D087D6D1C91F823204543102306
:1092A0004FEA1219A3EB121833E0354AB1F92660E0
:1092B00032F9103034F9102016449E4228DBB1F9FF
:1092C0002860961B9E4223DC02FB09F603FB086321
:1092D0004FEAE37603EB167343F30F1A91F8D0309D
:1092E0005B0713D5AAEB020216B2DFF898C0002282
:1092F000C2EBC20303EB02130CEB8313521C33F8D3
:109300001070042A374423F81070F1DB24F810A001
:10931000401CA842C9DB91F8200000070CD5174873
:10932000F9F789FB18490023184A0860BDE8F0479F
:1093300001461248F9F7BEBBBDE8F08770B50E4C88
:109340000546206890F84904C00703D0FCF7D4F81C
:10935000012810D0206890F82000C0070BD0002D05
:1093600009D10320F7F76DF9FFF78EFFBDE87040D4
:109370000320F7F781B970BD2409100042000120D5
:109380004C1110000206012054091000B0241000F6
:10939000FE4900200870704700E010460A5C8242D7
:1093A000FBD1704770B500250E4603462C4606E0FB
:1093B00019462046FFF7F0FF1855641CE4B2B4428A
:1093C000F6D300220AE0985C904203D19D546D1CB4
:1093D000EDB201E0185C9854521CD2B2B242F2D302
:1093E000284670BD38B1884202D20B460146184665
:1093F000884200D01154084670472DE9FF4F99B0BC
:1094000001200490E24819689A460068067D477D6D
:1094100041B19AF802109AF800905046B14205D234
:10942000491C04E04FF000094D4608E031464578FC
:109430009AF80300CEB2B84200D2471CFFB2002017
:1094400007A90854401C2D28FAD3199905EB0510DB
:1094500001EB400C681C67E01998E34608EB081123
:1094600000EB410C09F101045AE000BF0CEB0400D1
:109470001590006810B31CF8040000B31598002381
:1094800010F8010C00B103461BF8041021B107AA23
:109490001846FFF7A7FF03461A9800280BEB0400B5
:1094A0000ED0159010F8011C21B107AA1846FFF73D
:1094B00099FF034615984178D9B91FE0E41C2EE0C6
:1094C000189010F8011C59B115981BF8042010F8D9
:1094D000010C104304D007AA1846FFF783FF034688
:1094E0001898417851B115981BF804204078104322
:1094F00004D007AA1846FFF775FF034613B10CF80E
:1095000004300CE004982D2806D20CF804000498CE
:10951000401CC0B2049002E0401E0CF80400641C21
:10952000B442A3D908F101008046B84294D907A8F3
:109530000499FFF737FF804641001B9805F023F898
:1095400000204FF6FF7202E04AF82020401C404500
:10955000FAD33BE0199905EB051001EB40002230EE
:109560004C4605902FE00598011901204058A8B3FA
:10957000487838B307AA105C48701B991B9A0AEB0D
:10958000800B31F81010491C22F810109BF80010C5
:109590002046F9F774F88BF800009BF80110284674
:1095A000F9F76DF88BF801009BF802102046F9F7E7
:1095B0006AF88BF802009BF803102846F9F763F865
:1095C0008BF80300641CB442CDD36D1CBD42C1D3E3
:1095D000A8F101001DB0C0B2BDE8F08FFFE7E41CA8
:1095E000F0E72DE9F043994655784FF0010C1BE068
:1095F00005EB051300EB4306223600231478977819
:109600000CE000BF06EB040898F90180884503D1FF
:109610000CFA04F848EA0303641CE4B2A742F1D24E
:1096200049F825306D1CEDB2D378AB42E0D2BDE8ED
:10963000F083F0B5554B0026554D1C7899B0012CA0
:1096400011D11E700B78002B5AD04B78002B57D0BD
:109650002B688F781C7D641EA74251D05B7DCC782F
:109660005B1E9C424CD000234FEA0D0444F823605B
:109670005B1C192BFAD34B7891F803C01BE000BF99
:1096800050F82370B7B17E0846EA47063E4354F8C7
:109690002370374344F8237004EB8307D7F804E0C2
:1096A0004EEA060EC7F804E0D7F808E04EEA060EC8
:1096B000C7F808E05B1C9C45E2D2002304EB83065C
:1096C000766840F823605B1C172BF7D3012A17D16B
:1096D000087808B1401E0870487808B1401E4870EC
:1096E0002A688878127D521E904201DA401C8870E8
:1096F0002A68C878527D521E904201DA401CC87018
:1097000019B0F0BD2DE9F74F4D78DFF88890DFF8FC
:1097100080B04FF0030E79E000986C1C536A50F84B
:109720002560DBF80000007D6043D9F8004003EBC2
:10973000400304EB40070C78641C012014E000BFD8
:1097400000FA04FC1CEA060F0DD003EB440A33F9BF
:1097500014803AF902CCE044BAF902C0E04498FB24
:10976000FEFC27F814C0641C91F802C0A445E7DC95
:1097700091F800A0BAF1000F2DD000FA0AF434429B
:1097800014D003EB4A0434F9028C05E0D00A10002F
:10979000240910005009100033F91AC0B4F902402E
:1097A000C444A4449CFBFEF427F81A40DBF800C034
:1097B0008C789CF814C0A44500FA04F000EA060076
:1097C00014D110B303EB440033F9143030F9020C18
:1097D0001844401017E016F0010FE7D0B3F900402D
:1097E000B3F902C0644464103C80DFE768B103EB66
:1097F000440033F9143030F9026CB0F902003344FC
:10980000034493FBFEF027F814006D1CC878A842AF
:1098100082DAD9F800005062BDE8FE8FF0B500256D
:10982000059E2C468F1E00EB410006D430F9045CE7
:10983000CF1E02D430F9067C3D448F1C974207DAD4
:10984000B0F90440C91C914202DAB0F906000444A0
:10985000281B00D540424FF435714843C11700EB37
:1098600091508012A54203DD316808443060F0BD9C
:10987000196808441860F0BD2DE9FF4FDFF814B4F3
:1098800007460025DBF8000083B00E4690F8A000E4
:109890002C464FF48039C0062BD50021FE4805E048
:1098A00037F8112000EB4103491C5A80B142F7D32D
:1098B0004188018000EB460230F8161051800021EB
:1098C0000DE04A1C00EB420330F8122033F802CCC2
:1098D0005B88634403EB420227F81120491CB14224
:1098E000EFD305A800230090324619463846F9F711
:1098F00024FB05994FF00008002902DCCDF8048014
:1099000004E007EB410030F9020C019037F911C077
:10991000A6F1010A514502DBCDF8088004E007EB0F
:109920004100B0F902000290DBF8000090F8A000BE
:10993000000706D502A8009001AB721E3846FFF75B
:109940006DFFDDE90110814202DD05460C4602E0B3
:1099500001DA0D460446A0EB0102A2FB09064FEA1C
:10996000E27303FB096102FB08110CEB0402C5F171
:10997000000302EB43024FEAE27304F093FD059CFF
:10998000A4FB0936E51705FB096204FB08221B1836
:109990004A410699A3FB0105CC1702FB015103FBC9
:1099A00004114A46002304F07DFD52464FEAEA7353
:1099B00004F078FD00B207B00EE62DE9FF4F044633
:1099C00081B00020DFF8CC920F9D0646074600903C
:1099D000D9F8000090F8A000000719D5207808B148
:1099E000401E2070607808B1401E6070D9F80020D9
:1099F000A078127D521E904201DA401CA070D9F866
:109A00000010E078497D491E884201DA401CE07070
:109A1000A1484421443804F0B6FD00229346924602
:109A200060782FE0217829E0D9F80030D5F824803B
:109A300093F814C0431CE64603FB0C1C08EB4C0CCB
:109A4000DDF80080BCF900C0C44502DD761CB6B26A
:109A50006744944502DD62468B46824695F814C001
:109A6000BCF1010F09D10EFB03FC8C4B0B441CF81D
:109A7000038048F080080CF80380491CA3788B42CF
:109A8000D2DA401CE1788142CCDA6078D9F8001053
:109A90000FE000BF91F814C000F1010808FB0CB200
:109AA0006B6A03EB420213887B4A443A22F8103077
:109AB000401CE2788242EDDA7748497D52464438CC
:109AC000039BFFF7D9FE0E99086073484421443880
:109AD00004F059FDDFF8C0812078A8F144080AF1AC
:109AE0000101D9F800200AE092F814C06B6A01FB6A
:109AF0000C0C03EB4C031B8828F81030401CA37897
:109B00008342F1DA6448117D5A464438029BFFF7DC
:109B1000B3FE04990860AF60AE8005B05CE5F0B5B7
:109B20005C4C059F2668D6F8105296F81842BD4244
:109B300002D304F00F0410E0D6F814C2BC4501D8DB
:109B400024090AE004F00F067F1BC6EB14147C43C3
:109B5000ACEB0505B4FBF5F434440668C4F110051C
:109B6000664302FB0562120902600868604303FB5A
:109B7000050000090860F0BD2DE9FF4F45489646F5
:109B800084B00D7891F80190CA7800680024897833
:109B90000290007D2346A0465FEA050B2AD1CC4601
:109BA00026E000BF0CF101060196DEF824604FF0BC
:109BB000000A0125009609E0DDE9006707FB005770
:109BC00006EB47066D1CB6F90070BA44A942F3DAF9
:109BD000DDE90065454306EB4505B5F900506D43E9
:109BE00095FBFAF505FB0C33641BA8440CF1010C42
:109BF0006245D7DA451EA9422FD1CC462BE000BFE3
:109C00000CF1010601964E1E0396DEF824604FF01B
:109C1000000A5D46009609E0DDE9006707FB005792
:109C200006EB47066D1CB6F90070BA44039EAE42BF
:109C3000F2DA019D05FB0016009D05EB4605B5F91E
:109C400000506D4395FBFAF505FB0C3305FB004412
:109C5000A8440CF1010C6245D2DAB9F1000F2DD104
:109C60005D4629E0DEF824704FF0000A01260097D7
:109C70000AE0771C07FB0057DDF800C0761C0CEBF0
:109C80004707B7F900C0E244B242F2DA4719009E32
:109C900006E00000240910009844100006930120FB
:109CA00006EB4706B6F90060764396FBFAF606FB2C
:109CB00005449B1BB0446D1CA942D3DA029D6D7D07
:109CC00001956D1EAA422BD15D4627E0DEF8247077
:109CD0004FF0000A4E46A2F1010B00970AE0771CF4
:109CE00007FB0057DDF800C0761C0CEB4707B7F9FF
:109CF00000C0E244B345F2DA561C06FB0057009E52
:109D000006EB4706019FB6F90060764396FBFAF62C
:109D100006FB054406FB0733B0446D1CA942D5DAA7
:109D200007980460079843600798C0F8088008B057
:109D300052E42DE9F04F89B04FF00009DFF878B414
:109D40008646CDF81890CDF81C90CDF82090DBF821
:109D5000000014460F46B0F86820217D4D464E465F
:109D6000C84609B9B0F8C82178783BE05EF820A071
:109D70003878039030E00120884010EA0A0F29D09B
:109D8000DBF80000D4F824C0029B007D01935B1C2B
:109D9000009303FB00130CEB4303B3F90030934231
:109DA00008DDDDF804C001FB03660CFB03881D44DD
:109DB00009F10109237D012B79D0002B009B00FBC9
:109DC00003F0FE4B0B4410F803C079D04CF0200C8C
:109DD00000F803C0491C0391B87803998842CADA95
:109DE0000298401C0290F9788142BFDADBF800004B
:109DF00090F8600000060BD506AB22463946704647
:109E0000FFF7BAFE06980799064408988844054467
:109E1000E948F2170168087DCB8A401E00FB05FA6D
:109E2000A3FB060C002101FB06C103FB02114FEA54
:109E3000EA7B52465B4604F035FB0390DE48414620
:109E40004FEAE87C00680026427D038B521EA3FB8C
:109E5000010806FB01816A4303FB0C114FEAE27A19
:109E6000534604F01FFB02900398002800DA0020FC
:109E7000D14E03903168C98A814200DA08460390C6
:109E80000298002800DA002002903168098B814294
:109E900000DA08460290A560A4F80490207D02280C
:109EA00011D0012816D000B34EE000E008E0009B7E
:109EB0005843C24B0B4410F803C04CF0800C87E7AA
:109EC0004CF0400C84E7306890F88000C0063BD529
:109ED000002210E0306890F88010C90612D590F882
:109EE000A0004007F4D4012205E0306890F880001B
:109EF000800629D5022202A903A801F01BFA207DC1
:109F0000012821D1306890F8A01049071CD505A977
:109F1000CDE90014B0F91820B0F9161004AB38469A
:109F2000FFF74BFD306890F88000C00604D5012291
:109F300005A904A801F0FEF9A0680090DDE904235A
:109F400002A903A8FFF7EBFD02A903A8F8F748FF51
:109F5000039860800298208009B0BDE8F08F2DE959
:109F6000F04F9146944A8646002348784FF0010B03
:109F7000CE78D2F800A019E05EF820700A78441C70
:109F80008D7810E00BFA02FC1CEA070F0AD09AF851
:109F90001480D9F824C004FB08280CEB480CBCF949
:109FA00000C06344521C9542ECDA401C8642E3DA5E
:109FB000C9F80C30D1E72DE9F0410746107D7E4D00
:109FC00014460E46022807D12968E08891F86610E9
:109FD000884201D9032020750422314604F1100083
:109FE000F8F726FE224631463846FFF7B8FF012231
:109FF00031463846FFF71DFB286890F8B00180070E
:10A000000BD5207D022801D0012806D131463846E3
:10A01000E26801F079FF012809D02246314638462E
:10A02000FFF787FE2046BDE8F04103F027B8BDE802
:10A03000F08130B599B01C4615466B46FFF7D1FA52
:10A04000224629466846FFF7B6FF19B030BD2DE914
:10A05000FF4F86468B4600204FF6FF755378D67823
:10A0600029E000BF03EB03140EEB440101F12209C8
:10A07000514914789778D1F800A018E009EB040151
:10A0800091F801C0DC4510D10E999AF81480D1F8EE
:10A0900028C0591C01FB08410CEB4101098888428A
:10A0A00000D208468D4200D90D46641C24B2A74256
:10A0B000E4DA5B1C1BB29E42D4DA039908800D9946
:10A0C0000D8004B049E72DE9F04F9B468246537856
:10A0D000DDF824E02CE000BF394D03EB03100AEB60
:10A0E0004004AD68223405EB400522351078324F2C
:10A0F0004FF0010917E0261876788E4211D13E689C
:10A10000DEF828C096F814805E1C06FB08060CEBEF
:10A110004606B6F900605E4503DD05EB000C8CF8E1
:10A120000190401C00B296788642E4DA5B1C1BB2B8
:10A13000D0789842D0DA10E72DE9F0471E4F8146DB
:10A14000C8B038681D46884690F8706047A8CDE9C9
:10A150000005144646AB4846FFF779FF287D10B945
:10A16000386890F8CE61BDF81811BDF81C01642262
:10A17000091A7143B1FBF2F1114F0E1840F252313E
:10A18000B86804F000FAB3B222464146484600954A
:10A19000FFF799FF2068029002AB2FAA0121B8684F
:10A1A000FFF72BF90646012823D901240DF1BC0A3B
:10A1B0000DF10809B84617E02409100006930120A4
:10A1C000D00A10003AF81400E88009EB8407294609
:10A1D000384601F06DF92B463A462146D8F808007A
:10A1E000FFF727FF641CE4B2B442EBD948B0BDE8E6
:10A1F000F0872B46224641464846FFF71AFFF5E70F
:10A200002DE9F04F1478DDE9099A9278FE4DFF4E62
:10A210002D783768012D03D097F871501CB103E0F9
:10A2200097F8C950FAE7012497F814809446A8F1EA
:10A230000107BA4202D1ACF10102D2B203EB031C16
:10A2400000EB4C07F24822375B1C806808FB03F8E0
:10A2500000EB4C0CD9F828000CF1220C00EB480361
:10A260004BE038194078884245D133F91400504505
:10A2700041DD03EB4409284439F902EC4FF0000BAF
:10A28000704503DAB9F90280404534DB012C10D067
:10A29000D6F8008098F81480A8F10208A04512D1E1
:10A2A00039F9048C404521DAB9F90280404522DBB6
:10A2B0001CE0B3F90200B3F900802844404515DAE8
:10A2C000B3F90680F2E7704505DAB9F90480404534
:10A2D00001DA4FF0010B39F9048C404503DAB9F982
:10A2E0000280404507DBBBF1000F04D10CEB0408F2
:10A2F000012088F80100641CE4B29442B1D92CE634
:10A300002DE9FF4F9AB092F80180D7780020ADF880
:10A310004400ADF840001690BB48BC4E1D46017885
:10A320003068144601291ED010F1710010AB90F86E
:10A33000009090F801A011A8CDE90005DDE91A010F
:10A34000FFF785FE3268BDF84010BDF8440092F872
:10A350007620091A51436422B1FBF2F1084406B297
:10A36000607810B10BE0C930E0E7CDE90056DDE9D7
:10A370001A014FF0010800232246FFF741FFA349CD
:10A38000E0780968497D491E884209D1CDE9005627
:10A39000401EC7B2CBB2DDE91A012246FFF730FFFB
:10A3A0004146EAE09A4B1A9A01EB011002EB400297
:10A3B0009B68223203EB4000223005909348AB6A41
:10A3C000A1F1010C0068007D00FB0CFC03EB4C0CC0
:10A3D000CDF820C000FB01FC03EB4C0CCDF810C005
:10A3E00001F1010CCDF85CC000FB0CFC03EB4C0B45
:10A3F00001F1020C00FB0CFC03EB4C0E01F1030C11
:10A4000000FB0CF003EB400009902078AFE013183C
:10A4100093F801C01B9B9C457ED13BF91030029301
:10A42000B34279DD00231493029BDDF810C04B4446
:10A4300001933CF910C0CDF854C0634505DA3EF9EC
:10A4400010C0634501DA01231493E8B36F4B1B6816
:10A4500019931B7D18935B1E834272D00BEB40084F
:10A46000DDF804C038F9023C0D939C4506DA6346DA
:10A47000B8F902C0634501DA01231493DDF810C076
:10A48000029B0CEB400CCDF84CC03CF902CC534481
:10A49000634509DA0EEB400CBCF902C0634503DAF0
:10A4A0004FF0010CCDF850C0DDF84CC0BCF902C033
:10A4B000634505DA0EEB400C3CF902CC634554DBF6
:10A4C000149B4BBB199B00E03BE05B7D9B1E8B42CA
:10A4D0000CD0DDF854C0019B634507DADDF824C0D9
:10A4E0003CF910C0634501DA0123149301290CD013
:10A4F000DDF820C0019B3CF910C0634505DA3EF948
:10A5000010C0634501DA0123149301281CD0189B65
:10A510009B1E83420CD000E015E0DDF834C0019BA7
:10A52000634505DAB8F904C0634501DA01231493E1
:10A5300038F904CC019B634503DAB8F902C06345DE
:10A5400013DB149B5BB110E0BBF902C00CEB0903F9
:10A55000BBF900C06345F4DABBF906C0EFE7059B21
:10A560004FF0010C034483F801C0401CC0B2A37833
:10A570008342BFF44CAF1798C1B2B9427FF612AF15
:10A5800016981EB0E9E42DE9FF4F214C0E46074610
:10A59000C5B0154640F25231A06803F0F4FF2A46D8
:10A5A00031463846489BFFF7ABFE29686E4600915E
:10A5B00048BB33462DAA0021A068FEF71EFF0746C0
:10A5C000012837D902F0AEFD0125DFF840800DF1FA
:10A5D000B409AA4621E000BFD8F8001039F81500E8
:10A5E00091F87510884217D984F800A04899C8805E
:10A5F00006EB85008346489900F05AFFE9B25A46B7
:10A60000489BA06806E015E04909100024091000E5
:10A61000D00A1000FFF70DFD6D1CBD42DCDDD8F83F
:10A62000000090F84004800702D4002002F07FFD73
:10A6300049B092E4321D0121489BA068FFF7F9FC64
:10A64000F6E72DE9F04F8A46FA49002599468646F5
:10A65000D1F8006028462B4609EB0301491E1FD4A0
:10A66000747D8C421CDD377D01F1010107FB01F196
:10A670000EEB410803EB430C4FF000010AEB4C0BCF
:10A6800002EB0104641E08D4A74206DD3BF911C0A9
:10A6900038F91440604404FB0C55491C0329EFDBD6
:10A6A0005B1C032BD8DB00B9012095FBF0F054E4D0
:10A6B0002DE9FF4F82B00C464178DDF83CB001B186
:10A6C000491EDC4A01F0FF09C1781668737D5D1EE2
:10A6D000A94201DA491C00E02946CDB2017801B156
:10A6E000491E01F0FF0A8178307D431E994201DA4C
:10A6F000481C00E0401EC6B2B4F9120009F1010185
:10A70000019064E0CB4B4A1C1868007D00FB02F707
:10A71000484305990BEB470E01EB400000900AF10E
:10A72000010051E0C34909680B7D059902FB03074D
:10A7300001EB4701049FB1F90210B94240DD0099D5
:10A74000B4F9008001EB40010027B1F900C00CFB17
:10A750000877B1F902C0B4F902800CFB0877B1F9AF
:10A7600004C0B4F9048001EB43010CFB0877B1F994
:10A7700000C0B4F9068001EB43030CFB0877B1F984
:10A7800002C0B4F908800CFB0877B1F904C0B4F931
:10A790000A80B3F900100CFB0877B4F90CC001FB78
:10A7A0000C71B3F90270B4F90EC0B3F9043007FBB1
:10A7B0000C11B4F9107003FB0711019B91FBF3F12D
:10A7C0002EF81010401C00B2B042ABDB11B2A9420F
:10A7D00098DB4F4617E0017D781C41430BEB4108A5
:10A7E00000903B46524621460598FFF72AFF28F87D
:10A7F0001A003B46324621460598FFF722FF28F80B
:10A800001600009807B28B48AF420068E3DD007D78
:10A81000691C41430BEB4101009109F101014843DF
:10A820000BEB4008574612E04B463A462146059846
:10A83000FFF707FF28F817002B463A4621460598F0
:10A84000FFF7FFFE009921F817007F1C3FB2B742C7
:10A85000EADD06B06FE4F8B577491046069A097844
:10A860001D46022914D2754C72492E7D2368096851
:10A870007EB191F84060B6060AD5012A08D100934E
:10A88000B1F958206E4B6F49FFF712FF2068A8629C
:10A89000F8BD91F8C061F706FAD5B60609D5009360
:10A8A000B1F9C421664B6849FFF702FF206868626E
:10A8B000F8BD012AFCD10093B1F9C421E2E730B41C
:10A8C0001C7D2CB15B4C246894F86040E50701D0F6
:10A8D00030BC31E4A40701D530BC54E630BCFFF7EE
:10A8E000A8BB2DE9F047814652488A4600230168FB
:10A8F000184601250E7D4F7D1EE000BF00EB0014C1
:10A9000009EB44042234194612E000BF52F82080BB
:10A9100005FA01FC18EA0C0F08D004EB010898F8BE
:10A9200001C0BCF1000F01D188F801A0491CC9B2D7
:10A93000B142EBD3401CC0B2B842DFD357E43E4A29
:10A9400010B5127801243AB93A4A126892F8602098
:10A95000120718D5012916D181780278891A01D5F4
:10A96000C1F1000101F10101CAB2C1784078081AB1
:10A9700000D54042401CC1B21046F7F780FEC0B27D
:10A98000012800D10024204610BD2DE9F04F8A4651
:10A99000284983469E464FF001095078D6780C68C6
:10A9A00025E000BF00EB00130BEB430322331178CB
:10A9B000957818E05F1897F801C0D44511D194F844
:10A9C0001480471C07FB0817DEF824C00CEB470770
:10A9D000B4F8D2C1B7F90070BC4502DA4FF00009F3
:10A9E00003E0491C09B28D42E4DA401C00B2864201
:10A9F000D8DA484683E42DE9F04399460D4B012609
:10AA00001C6894F810319D0754D51578B5EB531F89
:10AA100001D8002501E0A5EB5315EFB2257D92F892
:10AA200002C0A5EB531808F10108E0450EDA6D1ECF
:10AA30000EE0000024091000470910005009100022
:10AA4000A69F012082E900006EE900000CEB53157F
:10AA500005F0FF0C5578B5EB531F01D8002501E038
:10AA6000A5EB5315647DD278A4EB531808F10108C7
:10AA7000EDB2904501DA641E01E002EB531404F0DC
:10AA8000FF0810E005EB051200EB420322333C46C1
:10AA900006E01A19527812B18A4200D00026641CCE
:10AAA0006445F6DD6D1C4545ECDD002E02D102212A
:10AAB00089F81410BDE8F08330B5FE4CFB4A2468D9
:10AAC000B2F90030FA4A34F9A85FB2F90020B4F9BB
:10AAD000024029B9F849B1F90030F849B1F900202C
:10AAE000A04201DD104630BDA84201DA184630BD53
:10AAF000201AD11A4843611B90FBF1F0101A00B2E2
:10AB000030BD2DE9FF4F83B09946EA4C13784FF0E2
:10AB1000000E019326687146704633B9537893B19D
:10AB2000737DD4785B1E9C420DD0337D97785C1E7C
:10AB3000A74201D1557835B1A7420AD1747DD578A5
:10AB4000641EA54205D1B6F8AA00801CA9F81F0012
:10AB5000ADE0547892F803A0D9F8245027E0621CA5
:10AB60005A4305EB42020292039A04EB041C02EBE7
:10AB70004C0202F1220B0FFA84FC019ACDF800C0BE
:10AB800012E000BF0BEB020C9CF80180DDF810C056
:10AB9000E04508D1DDF808C03CF912C0F44502DDFB
:10ABA0000098E64611B2521C9742EBDA641CA245AB
:10ABB000D5DA00F1010703FB07F205EB420C4FF079
:10ABC000FF3E3CF911A072467446B1F1010803D46E
:10ABD0000CEB410434F9024C01F10108434503DD5B
:10ABE0000CEB4102B2F9022014F1010C00D1144621
:10ABF00012F1010C00D122461444C4EB4A020FFAB0
:10AC000082FB07FB031205EB42027446B2F900A077
:10AC10007246B0F1010C05D400FB031405EB4404AB
:10AC2000B4F9004096F815E0BE4506DD821C02FB33
:10AC3000031205EB4202B2F90020661C00D1144653
:10AC4000561C00D122461444C4EB4A0404EB0B0208
:10AC500000240FFA82FA401E15E0002812DB864518
:10AC600010DD421C5A4305EB42064A1E08E0002A4A
:10AC700005DB934203DD36F812C0644424B2521C53
:10AC80004245F4DD401CB842E7DDFA210AFB01F041
:10AC900090FBF4F004B2A9F81F4001212046FFF711
:10ACA0000BFF87490C80B9F81C10814202DD01209E
:10ACB00007B0FCE40020FBE72DE9F0479A46804608
:10ACC00000205378DDF8209023E000BF03EB03144D
:10ACD00008EB4406774C2236D9F8247024685D1CB2
:10ACE000247D6C4307EB440C14780EE037197F7811
:10ACF0008F4208D13CF91470874204DDAAF8024063
:10AD00003846AAF80030641CE4B29778A742EDD226
:10AD1000EBB2D4789C42D9D210E62DE9FF4F83B034
:10AD20001878109C93461E46A0709878207058782A
:10AD3000E070D87860704FF000085F784DE000BF99
:10AD4000039907EB071001EB400101F1220A049976
:10AD500001EB400000F122091298426A5548006850
:10AD6000017D781C4143019002EB41000090357851
:10AD70002EE000BF0AEB05004178594522D100982A
:10AD800030F91510119881421CDD08F101001FFAFD
:10AD900080F821782846F7F772FC207061783846F1
:10ADA000F7F76DFC6070A1782846F7F76CFCA0708F
:10ADB000E1783846F7F767FC09EB0501E07081F8A8
:10ADC00001B003E009EB0500002141706D1C2DB2BC
:10ADD000B078A842CEDA019807B2F078B842AFDA7C
:10ADE0000FFA88F064E733490278096822B10A7DD6
:10ADF0008378521E934208D1427822B1C278487DAE
:10AE0000401E824201D1012070470020704730B5BA
:10AE100005469AB0274800238DF8643002680C4636
:10AE2000107D401E8DF866008DF86530507D6B46B4
:10AE3000401E8DF8670019AA2846FEF7D2FB0022B3
:10AE400019A96846FEF7F5FB6A4621462846FFF732
:10AE500048FD1AB030BD2DE9F14F1A481A4C154D76
:10AE60000068E0B000F25231C4E9010129684FF0F6
:10AE7000000BD94691F86020DA46D30701D192073A
:10AE800001D54FF0010B91F8C01127ABC1F3C00100
:10AE90005E910021279103AA0121FEF7AEFA08492D
:10AEA000064608732B6801201A7D26E00E0B100061
:10AEB000100B100024091000080B10000A0B1000E2
:10AEC000562510004C091000D00A1000012100EB9B
:10AED0000014EB4FDFF8ACE30AE000BFDEF804C07B
:10AEE00001EB44081CF808C007F802C0521C491CBA
:10AEF00093F814C08C45F1DA401C597D8142E5DAA3
:10AF0000012415E1E04825902690E1B203A88DF8D0
:10AF10008E1030F81400ADF876001CA8009027A819
:10AF2000DFF8608300EB84021A925BABD8F8040070
:10AF3000FFF7C2FE0746ADF88C000020ADF88F0089
:10AF400088F80000BDF96E0158B1BDF96C1141B12E
:10AF50002A68137D5B1E984203D0507D401E8142BB
:10AF600001D1012000E000205990286890F8A0103D
:10AF7000C9074DD0C54A90F8A71012889142C4491C
:10AF8000097801D211B143E0022941D201218DF8A3
:10AF9000841090F8A4105591BD490978012905D174
:10AFA00090F8BC205599114489B2559159990129BD
:10AFB00035D090F8A500B74956901CA8B1F90020EB
:10AFC00057A90091CDE901201A9BD8E90101E2B20D
:10AFD000FFF7A3FEAA4980B2ADF87600085555994F
:10AFE000884215D95699884212D8AA48B0F900006B
:10AFF00087420DDD286890F8A000800712D5E1B2E5
:10B000001CAB57AAD8F80800FFF77BFD012809D030
:10B0100059991A98FFF793FC01281AD087E090F805
:10B02000A600C8E70220ADF88600ADF88800002031
:10B030008DF885004FF00109E1B21CAB47461A9A22
:10B04000D8F80400FFF7D7FCE1B21CAB57AAB868E8
:10B050006BE09148B0F90000874279DD03A931F82F
:10B06000141054918D49B1F90010814213DA57AA96
:10B07000CDE900201CA90291D8F80410E2B21A9B75
:10B080000846FFF74AFE03A921F814001A99579AB7
:10B090000A60ADF87600286890F865707C48007802
:10B0A00048B11A98FFF79FFE0128286836D090F81B
:10B0B000BD00384487B203A830F81400B84236D92E
:10B0C0001CA800904FF00109CA46E3B247461A9AFD
:10B0D0002598D8F8041000F007FA03A82A6830F879
:10B0E000141092F8670081422ED26D4B02208DF829
:10B0F0008400BDF88A109982B2F86E2058469142B9
:10B1000000D20020549903290BD350B10090E1B232
:10B110001CAB1A9A7868FFF79EFBA5E090F8C30075
:10B12000C7E7E1B21CAB1A9A7868FEF782FF641C8D
:10B13000B4427FF6E7AE5B4981F800905A4981F846
:10B1400000A061B056E403E004208DF88400E8E735
:10B15000286890F8C011C907E9D054490968002946
:10B16000E5D0534909780029E1D18DF8841090F891
:10B17000C001400705D5E1B227AAD8F80400FFF7BF
:10B1800046FE47F6FF7056905998012849480078C6
:10B1900009D0012828680FD090F8CB713C4800787E
:10B1A00001280CD010E00128286802D090F8CD7159
:10B1B000F4E790F8CC71F1E790F8CA71EEE72868EF
:10B1C00090F8D901384487B23448B0F900103A48B1
:10B1D000B0F90000814213DA57AACDE900201CA97A
:10B1E0000291D8F80410E2B21A9B0846FFF795FDC9
:10B1F00003A921F814001A99579A0A60ADF876004D
:10B2000003A830F81400B84291D9569988428ED8D4
:10B2100060990220E3B208701CA8009047461A9A71
:10B220002598D8F8041000F05FF95E980090E1B21C
:10B230001CAB1A9A7868FFF70EFB286890F8C001DB
:10B2400080070DD51B480078012809D1E1B21CAB5D
:10B250001A9A7868FFF799FB012801D117490870FD
:10B260005E9800283FF473AFE1B21CAB1A9A78687D
:10B27000FFF725FB5BE70A48002101730180704757
:10B2800006930120D00A1000A69F0120DE0A1000BC
:10B2900047091000100B10000E0B1000060B1000D9
:10B2A0005625100041091000420910009C0100229F
:10B2B0003D09100043091000120B1000040B100090
:10B2C000F0B5B2F900400568AC4202DDB3F90010F8
:10B2D0002EE002EB410434F9026CAE4204DA03EBD7
:10B2E000410131F9021C23E00024491E0BE000BF9C
:10B2F00032F91470AF4205DC02EB4406B6F9027075
:10B30000AF4202DA641C8C42F2DB32F9146003EBC8
:10B31000440133F91430B1F9021002EB4402AD1BC1
:10B32000C91AB2F902206943921B91FBF2F1194448
:10B330000160F0BDF0B50E462549096801F275437C
:10B340002AB3012A2CD0022A33D0032A3ED191F805
:10B3500011C601F2126291F8104602EB4C0303EBA6
:10B360004C0707EB440500BF0CEB04013E292DDC24
:10B37000BCF1010F02DD6146FFF7A2FF012C25DDC4
:10B380002B463A4621463046BDE8F04098E791F812
:10B3900070C491F8714403EB4C0591F8721410E0FD
:10B3A00091F870C491F8714403EB4C0591F8731453
:10B3B00007E091F870C491F8714491F8741403EBAC
:10B3C0004C0503EB410202EB4C07CDE7F0BD00005A
:10B3D000240910004FF47A72504390FBF1F1744845
:10B3E00010B5814201DAC01110BD42F6A64081427B
:10B3F00001DD5A2010BD6F4A002000BF32F9103025
:10B400008B4205DC02EB4003B3F902308B4202DAD7
:10B41000401C4528F2D332F9104000EB800302EBC8
:10B420004000091BB0F90200553B001B01EB8101F4
:10B4300091FBF0F0184410BD30B50D460446FFF7FF
:10B44000C9FF00EBD0704010002D02D00DDD34B1EB
:10B4500030BD002C03D005DD4FF02D0030BD4FF086
:10B46000000030BD4FF05A0030BD002C03D005DD88
:10B4700000F15A0030BD6FF0590030BDA0F15A0004
:10B4800030BD10B58C1A00D56442002800DA404265
:10B4900004EB400011440A18081A521040104FF4EF
:10B4A0007A71484390FBF2F0C0F57A70588310BD72
:10B4B00030B582780378CD88D21AC3784078521C90
:10B4C0001B1A5B1C05FB02F0D4185D4340006A00A8
:10B4D000B0FBF4F0B2FBF4F2904202D9C8820A83C6
:10B4E00030BDCA82088330BD2DE9FF4F00271646C4
:10B4F00082B03A463C46BC46BB46BA46707896F89F
:10B50000039025E0039900EB001301EB4301223186
:10B5100001913178009196F8028016E0019B0B446E
:10B520005D78059B9D420FD1A9EB000303F1010E4D
:10B53000009B0EFB0EAACD1A6D1C05FB05BB05FB7F
:10B540000ECC7F1C2A447444491C8845E6DA401C12
:10B550008145D7DA4FF47A70504390FBF7F101FB45
:10B5600004F54FF47A734FF47A70604390FBF7F070
:10B57000514391FBF3F2604390FBF3F195FBF3F53C
:10B58000ACEB0505ABEB0207AAEB01046800391B25
:10B59000FFF752FF0F9922464875394628460F9B00
:10B5A000FFF76FFF0F9906B03046BDE8F04F7FE719
:10B5B0005AD3FFFF28E90000F74900200870F74937
:10B5C0000870F74908707047F64910B40020F64A31
:10B5D000087001211170F549FA4BFB4C0870F449D1
:10B5E0000870F4490870F4490870F449087048601C
:10B5F0008860F3490968B1F862201A80B1F8A13077
:10B600002380F24CB1F8C6112180F14C2280F14A1E
:10B610001380F14A1180F149088010BCCCE72DE974
:10B62000FF4F81B0E64A4FF00109CDF80090126853
:10B630009B464D4692F815C0137D0CF1010C62E05B
:10B640004FF0000A47F6F8725442D646564619E0C3
:10B6500005FB036730F8178031F81770A7EB080770
:10B660003FB2BA4200DD3A46BC4200DA3C46002F07
:10B6700002DA4FF0000903E002DD4FF00007009707
:10B6800006F101069E42E3DB009F59EA070608D057
:10B69000B9F1010F03D0B9F1000F04D006E0012F7A
:10B6A00004D1002202E0012F00D12246002412E042
:10B6B00005FB034630F8167031F816601744F61B88
:10B6C00036B25E4506DACBF10007BE4202DDB24477
:10B6D0000EF1010E641C9C42EADBBEF1000F01DD9D
:10B6E0009AFBFEFA0AEB0204002209E005FB03269E
:10B6F000DDF80C8030F81670521C274428F81670BC
:10B700009A42F3DB6D1C65459ADB05B0BDE8F08F0E
:10B71000F0B4C2F1100422B1012B02D00023A84FD3
:10B720000EE0F0BCF7F7A9BA31F9135030F9136005
:10B73000554306FB045545F30F1521F813505B1CC8
:10B740003E68757D367D6D1C75439D42ECDCF0BC1A
:10B750007047F0B59A4D002784462D6801203C467D
:10B760006E7D2D7D06F1010606FB05F60CE000BF9F
:10B770003CF9145031F914E0B5EB0E0500D56D42DB
:10B780009D4200DD7F1C641CA642F1DC974200DD77
:10B790000020F0BD2DE9F0438946894900252C465B
:10B7A0000B685A7D197D521CB3F8F6624A430EE0CD
:10B7B00039F9117030F911C007EB0608C44505DDF1
:10B7C000BCEB070700D57F423D44641C491C8A42FC
:10B7D000EEDC7A4865B193F83610A14208D2816850
:10B7E00011B10120BDE8F083012181600020F9E75B
:10B7F0000021FAE72DE9F047714C8246894620681E
:10B80000002600F120000125C17D007801F00F0124
:10B8100001EB810117464FEA4108000720D5714826
:10B820006F4A01685046F7F745F96F496C480B6855
:10B830000268D0F804C09A1A4B68A3EB0C031A44B0
:10B840008B68D0F808C0C968C068A3EB0C03081A5D
:10B8500021681A441044B1F87810814200DA0025BA
:10B86000206890F8200080070BD56048007840B928
:10B870004C48007828B949465046FFF78BFF00B185
:10B8800000254E480022017891B13A704168491C68
:10B890004160236893F837301B0903EB8303B1EB56
:10B8A000430F02DD4260027001263046BDE8F0879A
:10B8B00015B142603D70F8E741684B1C436041455B
:10B8C000F8DD012101704260216891F83710090903
:10B8D000F0D102700126EDE72DE9F05F38482E4CDB
:10B8E00001682578B1F9A120B1F96200B1F9C6313A
:10B8F00091F8C0A1012D0FD13D4C246864B1B1F97C
:10B90000AD20B1F96C005FEA8A7405D5234C247828
:10B91000012C01D1B1F96A00344C2478012C2ED0CD
:10B92000022C06D3B1F8BE200AB1B1F9BE0002461E
:10B930001346DFF894E0234C0546AEF80020208043
:10B94000224CDFF88CC0DFF890B0238091F864605F
:10B950001C46801B06B291F8A300101A07B291F89A
:10B96000C301181A1B4B00B281461F80ACF800605F
:10B97000ABF800001F48007801283DD06CE091F83A
:10B98000BA40224491F8BB4012B2204491F8DA4107
:10B9900000B223441BB2CCE743091000040B100093
:10B9A0003D0910003F0910003A091000400910003D
:10B9B00041091000420910006F091000DC0A100054
:10B9C00024091000080B10000A0B10000C0B1000CB
:10B9D0000E0B1000100B1000120B1000060B1000C5
:10B9E000C024100054091000B024100047091000B2
:10B9F0009C0100224909100091F8CC004FF0640C22
:10BA000000FB05F8B8FBFCF84544DFF80884A8F80B
:10BA1000005000FB02F8B8FBFCF800FB04F5B5FB96
:10BA2000FCF54244AEF80020FB4A2C44148000FB95
:10BA300006F4B4FBFCF4F94A3444148000FB07F22A
:10BA4000B2FBFCF200FB09F0B0FBFCF43A441A80B4
:10BA500004EB0900ABF8000091F8A000C00706D184
:10BA6000EC480188ED48AEF80010008818805FEAC5
:10BA7000CA7002D0EA48006830B9E748BEF8001042
:10BA800001801988ABF80010E448BBF90020B0F938
:10BA90000010B3F90000F6F7FAFDE2490880BDE8AE
:10BAA000F09FE14A10B51268537D127D5B1C534331
:10BAB00007E000BF30F912408C4201DD012010BDCB
:10BAC000521C9A42F6DB002010BD2DE9F04780465B
:10BAD000D64889460024006840F2A461054602F079
:10BAE00052FDD14A1068037D0120064616E000BFD2
:10BAF00000EB001105EB4107012108E039F913C003
:10BB00005B1CC44502DD641C7E54A4B2491CD2F8FF
:10BB100000C09CF814C08C45F0DA401C1168497DC7
:10BB20008142E5DA2046C1E6F0B5BF4E33685D7D5F
:10BB30001B7D6D1C5D430024274608E030F913C0CF
:10BB4000944502DA21F8137000E0641C5B1CAB42E0
:10BB5000F4DB3068B0F89A00A04201DD0020F0BDAF
:10BB60000120F0BDF0B50025AF4C26E000220123F6
:10BB7000767D0EE003FB075C30F91CC0BCF1000FC2
:10BB800004DD0AB1944503DA624601E00022731C29
:10BB90005B1C9E42EEDA002A0EDD012308E0367DB2
:10BBA00003FB065630F81670BF1A21F816705B1C9E
:10BBB0002668777D9F42F2DA6D1C2668377DAF429A
:10BBC000D4DCF0BD2DE9F043974B81461868467DE3
:10BBD000057D761C002028E01A6892F85C20642A13
:10BBE00006D9643A02FB00F494FBF5F4141B04E05C
:10BBF000C2F16402424392FBF5F4643401224FF037
:10BC000064080FE01F683F7D02FB070739F917C082
:10BC1000BCF1000F05DD0CFB04FC9CFBF8FC21F8DB
:10BC200017C0521CB242EDDB401CA842D4DBD9E560
:10BC30002DE9F0477C4B81468A461868447D057D96
:10BC4000641C01202DE01E6896F85D10642907D958
:10BC50006439421E777D4A4392FBF7F28A1A06E066
:10BC6000C1F16401421E5143727D91FBF2F2317DBC
:10BC70006432414309EB41060AEB410700214FF0D2
:10BC800064080BE036F911C0BCF1000F05DD0CFBB8
:10BC900002FC9CFBF8FC27F811C0491CA942F1DB0F
:10BCA000401CA042CFDB01E62DE9FE4F054660486F
:10BCB00000273E46047807700320F4F7C2FCFFF724
:10BCC0000BFE5C4823465C4902682846FFF720FDCE
:10BCD000234602AA59495848FFF78CFD04469DF8AF
:10BCE0000800DFF85C814FF48069E8B34E4CDFF860
:10BCF00024A1206890F8400080070FD54648BAF983
:10BD00000010B0F900204F48B0F90000F6F7BFFC72
:10BD1000494A03B249491046FFF781FC434D474A5F
:10BD200045482968F7F720F90320F4F7A5FC2068B7
:10BD300090F84000400703D529680846FFF712FF36
:10BD4000206890F84000000703D529680846FFF7EF
:10BD50006FFF206890F84000C00603D529680846A8
:10BD6000FFF730FF216800E004E091F8B001C2075E
:10BD700016D10FE00320F4F77FFC012C09D1D8F88D
:10BD80000010012041F00501C8F800104946F4F701
:10BD90006DFB8EE0800703D491F84004800703D543
:10BDA00029492868F6F769FF206890F8601049076C
:10BDB00016D52968B0F968200846FFF7B5FE0128B6
:10BDC0000ED1206890F86000800609D5D8F80010E0
:10BDD000012041F00501C8F800104946F4F746FB80
:10BDE0001A48007802283CD019492868F6F745FF20
:10BDF000DFF830801648B8F90010FFF752FEDFF880
:10BE000054C0DFF85490154D9CF8001041B3012840
:10BE100061D043E0080B10000C0B10000E0B10005B
:10BE20009C010022060B1000240910004C09100090
:10BE30003A091000F00A1000E699012042000120A2
:10BE4000280910000A0B1000742601204709100071
:10BE5000A69F012041091000400910003809100078
:10BE60001AE0206890F840104906C1D58DF80460AA
:10BE70008DF80560017D491E8DF80610417D491E33
:10BE80008DF807101B490091B0F95A201A4901A8F2
:10BE90002B68FEF70DFCABE701280DD017488CF896
:10BEA00000601749067089F80060087808B1401EE4
:10BEB00008703846BDE8FE8FBAF900100D48FFF74C
:10BEC000F0FD8CF800002E80206890F82901000712
:10BED00001D5FCF7CAFE012789F800700549B8F9B9
:10BEE0000000FFF7F2FD0749488029888142E0D22F
:10BEF0002880DEE7A69F01206EE9000042091000BD
:10BF00003D091000DC0A10002DE9F04F9146214A4E
:10BF1000864600201568044695F8B021920737D56B
:10BF20001D4A1278002A33D14A7891F803C01BE0E9
:10BF30002B7D561C7343194E5EF8228006EB430A94
:10BF40000B784FF0010B8F780BE000BF0BFA03F674
:10BF500016EA080F04D03AF91360002E00DA3444D0
:10BF60005B1C9F42F2DA521C9445E1DA0CB94FF0A7
:10BF7000FF34642209FB02F1624291FBF2F1B5F851
:10BF8000BC218A4204DDB5F8BA214A4500DD012012
:10BF9000BDE8F08F24091000470910007426012025
:10BFA000F948FA4A006830F8FA1F1180F849C07958
:10BFB000C8807047F6480021F34A41808180C16003
:10BFC000126892F843201209826001610170F14801
:10BFD000017070472DE9F041EB4DEC4A2E6896F860
:10BFE000D010B6F8FA30C90744D096F8FF4004B92B
:10BFF0000124118896F8FEC0CF1A07FB0CF797FBB7
:10C00000F4F4B6F8FC700F442744E14CB84211DD5B
:10C01000002610210120E660F4F728FA286890F83D
:10C020006010490602D5DC4A01211170A68090F803
:10C03000010106E0814202D9D64D2D7825B196F84E
:10C040000101E080BDE8F081D44D2D78002DF9D1BB
:10C05000B4F90650002D01DD6D1EE580E488002C4A
:10C06000F0D1891E814200DA01468B4200DD19467B
:10C070001180E7E71380E5E7F0B5C349C44D0968CF
:10C0800091F84020D20753D0C24A1778C44A127898
:10C09000AFB1012A09D091F84330B1F84A6003F0FA
:10C0A0000F021C09B1F8483015E091F84D30B1F895
:10C0B000546003F00F021C09B1F852300BE0012A62
:10C0C0001AD011F8423F03F00F024FEA13144B88C5
:10C0D0008E88A1F1420191F820C15FEACC7C16D094
:10C0E000DFF8C0C2BCF800C05FEA4C5C0FD591F825
:10C0F000251157B10A090AE011F84C3F03F00F026D
:10C100001C094B888E884C39E5E701F00F029842F4
:10C1100001DCAA60F0BDB04201DBAC60F0BDC01A2A
:10C12000A11A4843F11A90FBF1F01044A860F0BD49
:10C130000020FBE7944A10B512680021B2F8B8302D
:10C14000834205D292F8B0301B0701D5032112E0DB
:10C15000B2F8B630834205D292F8B0305B0701D511
:10C16000022108E0B2F8B430834204D292F8B00061
:10C17000800700D501218648864C0378994211D169
:10C18000217899420AD0854A1278134307D0016971
:10C19000491E0161002901DC0078207010BD01708A
:10C1A0000169F7E759B1022901D1012B07D092F8B3
:10C1B000B22002610170002AF0DC217010BD92F8FB
:10C1C000B320F6E77049096891F8B010CA067049C3
:10C1D0000DD58A88831A002B09DC704B1B784BB174
:10C1E000C2EB0212520002EB4000C0F34F108880F5
:10C1F00080B27047C2EB82121044C0F38F10F6E792
:10C200002DE9F043604E0546A3B03768802197F8CA
:10C21000B10000F00F04641C02A802F0D6F997F8F0
:10C220005F04C00714D0002710E03168087DB1F921
:10C230006234CDE9003000FB07F2B1F9603405EB60
:10C24000420002462946F6F712FE7F1CA742ECDBAD
:10C2500030680023814602A9007D10E000FB03F650
:10C26000002209E006EB020C51F8227035F91CC0DF
:10C27000674441F82270521C9042F3DC5B1CA342DD
:10C28000ECDB002207E000BF51F8223093FBF4F30F
:10C2900041F82230521C9042F6DC002213462AE07C
:10C2A00000273E460DE000BF06FB003C51F823800E
:10C2B00035F91CC0BCEB080C01D5CCF1000C67446F
:10C2C000761CA642F0DB97FBF4F699F82071FF0785
:10C2D0000DD0344F3F887F0509D599F824714FEA76
:10C2E000171C0CFB06FC07F00F069CFBF6F69642AB
:10C2F00000DD32465B1C9842D2DCB2F5803F04DBA5
:10C300004FF6FF7023B0BDE8F08390B2FAE710B5A6
:10C31000FFF776FFFFF756FF1D4C4FF00051020A62
:10C3200060804A738873FFF705FF6088FFF7A4FEFB
:10C330006088BDE810404DE6F0B4134A116891F8EA
:10C34000B130097D03F00F04114B641CDD6895FBCF
:10C35000F4F604FB16556943134D05EB4105002126
:10C3600005E000BF30F8116025F81160491C16681F
:10C37000367D8E42F6DCD868401CD860A04215DBC2
:10C38000F0BC0948C3E70000240910004C25100048
:10C39000E80A1000470910006F0910004109100059
:10C3A0004309100058091000E6950120F0BC7047C1
:10C3B00031B56846FEF74FFD854C2078022805D13F
:10C3C0009DF80000012801D100F0A9FE9DF80000B1
:10C3D000207000F031FE38BD10B5FEF74CFFBDE80F
:10C3E000104000F019BE10B5FFF7EEF8FCF7D0FFD3
:10C3F00000F0FAFDBDE81040FFF7DCBD74490020F5
:10C400004860F0E710B50024FFF74EFC012801D08A
:10C4100098B101E0FFF7CCFF6E480124007850B1DD
:10C420006D49012008706D48006890F8F002C0075F
:10C4300001D0FBF743FD204610BDFFF7CDFFFAE723
:10C440002DE9F041664F674800253C6804423ED024
:10C45000624E306890F82901800703D5624863492D
:10C46000008808805A48007904400620F4F7E9F86B
:10C47000E00721D05E4C0020217801290AD13168E3
:10C4800091F86010490605D55A495B4A49881288D7
:10C49000914200D12070306890F8B000C00704D0FD
:10C4A000207848B95548FFF747FF207820B954490C
:10C4B0005248FFF7A7FF05463868002802DA2846E9
:10C4C000FCF73CFFBDE8F0410620F4F7D5B8BDE825
:10C4D000F08110B54B483E4900684C6844400AD092
:10C4E0004860E00701D0FFF77EFF600603D5BDE896
:10C4F0001040FFF761B810BD394810B504783448D2
:10C50000007904400620F4F79CF8E00707D001F01A
:10C5100084FC012803D140210220F3F7A7FFBDE8E6
:10C5200010400620F4F7A8B8294C08B5002565701E
:10C53000FFF736FD607878B30128FBD16B46002207
:10C5400040F285210320F3F7E0FF0098C00706D0F2
:10C5500001210320F3F7B8FF6570FFF74FFF009844
:10C56000400705D504210320F3F7AEFFFFF768FF6E
:10C570000098800506D54FF400710320F3F7A4FF5F
:10C58000FFF7BAFF00980006D4D580210320F3F707
:10C590009BFFFFF79EFFCDE7FFE703210020F6F7A3
:10C5A000A0F96B46002202210320F3F7AEFF03211E
:10C5B0000120F6F796F900988007BBD5FFF71EFF1C
:10C5C00040F287210320F3F77FFF01206070B1E77D
:10C5D000FC0A10003F091000610910002409100036
:10C5E000580910000300008064091000660910005B
:10C5F0006F0910004C251000700910004C1110003C
:10C60000208B01203C0B1000D648002101704160B6
:10C61000704710B5027F817F531A9B1C042B05D9EC
:10C62000437FC47F1B1B5B1C022B0FD9CE4B1B7897
:10C6300073B12AB1CD4A1268127D521E914207D1C0
:10C64000417FC07F081A401C022801D8012010BD7C
:10C65000002010BD2DE9F05F436806461804DFF89E
:10C6600010A3000C13D000220A2710465FF001042B
:10C6700004FA00F10B4217D000EB800106EB011128
:10C680000C3191F82050012D06D00A270FE0002030
:10C690008AF80000BDE8F09FCD68098995FBF1F1AB
:10C6A000914201DD0A460746401C0A28E0DBDFF81C
:10C6B000B882DFF8B8B2DFF8AC924FF0000C00BFE0
:10C6C000706804FA0CF108420AD00CEB8C0006EBFF
:10C6D00000150C3595F82000012802D006285BD003
:10C6E00076E0022085F82000287948B198F800000B
:10C6F000C0B3DBF80000674590F8C0001FD115E01B
:10C700009C480078012808D09B4800780128DBF875
:10C71000000016D090F8CF0115E098F8000040B165
:10C72000DBF80000674590F8D80108D100F00F0051
:10C7300009E0DBF80000674590F8D001F6D0000969
:10C7400001E090F8D401E8702846FFF762FF012865
:10C7500010D06878D9F8042004FA00F18A43C9F8A7
:10C76000042035E0FFE7DBF80000674590F8820021
:10C77000E5D1DBE7DBF80000E97890F8830000F012
:10C780000F000844E8706978D9F8042004FA01F031
:10C790001043C9F804001BE0072085F8200098F832
:10C7A00000000028DBF8000032D090F8C10000BF84
:10C7B00000F00F00E870DBF80000696A90F885006F
:10C7C000B1EB101F04DDE97800F00F000844E870B9
:10C7D0000CF1010CBCF10A0FFFF672AF5FF000071D
:10C7E000706804FA07F108426BD007EB870006EB8C
:10C7F00000150C35A0466978CC4604FA01F0D9F84A
:10C80000041008421BD02846FFF703FF18B116E0BA
:10C8100090F88400CCE7DBF80000E97890F883001A
:10C8200000F00F00081A002800DC0020E87068788B
:10C8300008FA00F1DCF804008843CCF80400E8783A
:10C84000E0BB95F82000022802D007283DD038E050
:10C85000032085F82000287948B94648007818B99F
:10C860004FF48670FCF783FB424880F80080434811
:10C870000078012816D103208AF8000028790228C0
:10C8800010D1DFF8F08098F80000012802D10C20C8
:10C89000FCF76DFB3A49052008703A49002088F8FA
:10C8A0000000087038480078012805D19AF8001077
:10C8B00041F002018AF80010E87810B1C0B2401EC1
:10C8C000E8707F1C0A2F8BDBE4E6082085F8200047
:10C8D0002A48007828B99AF8001021F001018AF856
:10C8E0000010294800780028EBD19AF8001021F0B8
:10C8F00002018AF80010E4E7F0B500211B4B012586
:10C90000426805FA01F422421FD001EB810200EBDC
:10C9100002120C3292F82040022C16D1154ED47817
:10C920003678012E15D0144E3678012E1E6816D09A
:10C9300096F8CF7196F8826006F00F06BE1BA41B16
:10C9400024B2002C00DC0024D470491C0A29D7DB57
:10C95000F0BD1E6896F8D07107F00F07EAE796F869
:10C96000D471E7E7140B10004709100024091000E8
:10C970003F091000430910003E0910004109100052
:10C980003D091000040B1000400910007047FE49DB
:10C990000A68B2F82B11814201D300207047B2F827
:10C9A0002D21824201D8FF207047521A401AC0EB55
:10C9B0000020B0FBF2F0C0B2704738B5B2F90230D7
:10C9C000B2F900205B4302FB02340A460146684686
:10C9D00000F078FE684600F06DFEA04201D900200C
:10C9E00038BD012038BDF0B5E74C0123226892F82C
:10C9F0008760320701D1320910D0B0F93470B1F933
:10CA000002507A1B00D5524206F00F06B24210D9EE
:10CA10000023BD4208DDA5EB060208E00968C0F866
:10CA200032104FF0000322E006DA05EB06028286A0
:10CA300002E0B0F84C204A80B0F93260B1F9005001
:10CA4000721B00D55242246894F88740B2EB141F41
:10CA50000AD90023B54202DDA5EB141102E006DA83
:10CA600005EB1411418602E0B0F84A000880184630
:10CA7000F0BD2DE9F84FC44F0D46044690F8201044
:10CA800038684FF001094FF0000A03290ED0002149
:10CA9000B4F938800E4604F13E0304F1320CB8F1CB
:10CAA000000F1EDD90F8982032B10AE090F889005E
:10CAB0002087A4F836A06EE090F89980B8F1000FB6
:10CAC0000BD0ADF8022090F89900ADF800006A464E
:10CAD00019466046FFF771FF0146208F401E2087F0
:10CAE00027E0B4F93620002A0FDD90F880004007D7
:10CAF0001FD529462046FFF776FF0146012802D1BF
:10CB0000E08E401EE086012613E090F8862022B9D0
:10CB100090F89780B8F1000F0BD0ADF8022090F894
:10CB20009700ADF800006A4619466046FFF745FFDA
:10CB3000014694F82000052806D0042804D00728D0
:10CB400030D008282ED02FE041B1386890F880000E
:10CB5000800724D5D4F84A00286025E0E08E98B9F3
:10CB6000B5F90200B4F93410084440106880B5F9F2
:10CB70000010B4F932200002114449102980E0620B
:10CB8000B5F900000002A062A4F838A0386890F857
:10CB90008800E08646B92868C4F8320004E04FF007
:10CBA000000901E00129D5D02868C4F84A004846A8
:10CBB000BDE8F88F2DE9F843044690F820001746A9
:10CBC0000E4603281AD004F14202111FDFF8BC817F
:10CBD0006D4D05281CD007281AD008287ED168463C
:10CBE00000F070FD684600F065FD014698F8000011
:10CBF0000028286873D0B0F8C40088E0B6F90200B5
:10CC00000002E062B1F900000002A062108879E041
:10CC1000684600F057FD684600F04CFD844698F8E1
:10CC2000000048B12B6813F8C20F00F00F015A88BA
:10CC3000000952439B880FE02079A0B101282868A1
:10CC400015D090F88A0000BF2B6800F00F01000992
:10CC500033F88C2F5B8852435B43944513DD9C452E
:10CC600008DB08460FE0286890F8D101ECE790F85F
:10CC7000AC00E9E7ACEB020C411A0CFB01FC991A81
:10CC80009CFBF1F1401A23784149C0F110022BB905
:10CC90000B7960F307130B7123690B612378012B68
:10CCA00003D14B7960F303034B71B6F90230E16AAB
:10CCB0001B02414303FB0211090901F17F0343F306
:10CCC0000F237380E162B6F90030A16A1B02414371
:10CCD00003FB0210000900F17F0101E013E014E002
:10CCE00041F30F213180A0622868218E3A8890F8A4
:10CCF0008B0000F00F00C0F11003414302FB031052
:10CD0000000938802086BDE8F883B0F88C004043E5
:10CD10008142F8DCE06A7F3040F30F207080A06A27
:10CD20007F3040F30F203080208E3880EBE72DE9F4
:10CD3000FC5FDFF860B0DFF850A0074600264FF038
:10CD40000109796809FA06F84D4611EA080F7CD006
:10CD500006EB860007EB00140C3494F8200003283F
:10CD600005D0052803D0042801D008286DD1D4F8B7
:10CD70003E000090A08AADF80400DAF8000090F8B8
:10CD8000800000070DD507E02409100047091000B6
:10CD900056251000D024100001AA69462046FFF74E
:10CDA00009FFDAF8000090F88000C00706D001AA59
:10CDB00069462046FFF75DFE002846D094F8200023
:10CDC000032808D1DAF8000090F82901400702D5BD
:10CDD000D4F83A000090DBF80010754B41EA0801E6
:10CDE000CBF8001022791B785846A9461A4306D181
:10CDF00094F82020082A02D021EA0801016006EBFD
:10CE000046010BEB810594F820002D1D03284FD01F
:10CE1000052853D0042851D05FF00400B5F90A204A
:10CE2000BDF902108A4216D1B5F90810BDF90020EB
:10CE3000914210D1DAF8001091F8801089070AD5D4
:10CE4000297901F07F02A17800E057E0B2EB510FA1
:10CE500001D1891CA170A178490829712279032A7E
:10CE600002D341F0800129710099A96028702078CF
:10CE7000687020796871DAF800002289534690F8CA
:10CE80002F010109514300F00F00B1FBF0F0A87031
:10CE9000E08AFFF77CFDA871207EE8711A68BDF872
:10CEA0000400B2F8901081420AD385F8039019E08B
:10CEB0002146384600F016F90320AFE70520ADE71C
:10CEC000B2F89220824201D83F200AE0521A401A5A
:10CED000C0EB801090FBF2F010F0FF00E87000D182
:10CEE0000120E87094F82000082807D12146384630
:10CEF00000F0EDF82146384600F007F9761C0A2EBE
:10CF0000FFF61FAFBDE8FC9F10B504460520F3F700
:10CF100098FB2046FFF70BFF0520F3F7ADFB2548F4
:10CF2000006818B102210020F3F7A0FA2248006837
:10CF300090F8F007000639D52048224B02782048A7
:10CF40001B788178534062F382011F4A63F34101E9
:10CF50001278C2701D4A127862F30001144A1278E6
:10CF600062F3C30121F0700181701949097841739E
:10CF700018490279097861F3030217490271098897
:10CF8000418116494A88C2800988018114490A787A
:10CF9000417962F307114171C189491CC181014680
:10CFA000BDE8104016220F48F5F742BE10BD000044
:10CFB00043091000D0241000240910004209100079
:10CFC00056251000410910003F09100040091000CB
:10CFD0000C481000F00A1000EA0A10004C2510005E
:10CFE00047091000A69F012010B54FF44B71564819
:10CFF00001F0EBFA4FF42671544801F0E6FA544977
:10D000000020087000F0A8F8FFF7FEFA00F0DCFA44
:10D01000BDE81040FFF7BABC10B500F0C5FA4A48A9
:10D0200000F0D3FA4848FFF715FB4748FFF76CFFBD
:10D0300046490020087010BD10B5444C2078D0B18E
:10D040004448006890F81001C00704D0204600F062
:10D050004EF900280ED03D493B4800F0BAFD3A4851
:10D0600000F086F83848FFF7F5FA3748FFF74CFF2D
:10D070000020207010BDBDE81040CDE710B5334C46
:10D08000014620780F280CD200EB400202EBC000D2
:10D0900004EB8000001D2C22F5F7CAFD2078401C0F
:10D0A000207010BD10B503460020D3F804100122F3
:10D0B00002FA00F4214206D0401C40B20A28F7DBF5
:10D0C0004FF0FF3010BD82401143596010BD10B5C4
:10D0D0004C7801234268A3409A434260002081F8C3
:10D0E000200010BD30B500220368012404FA02F5C7
:10D0F0002B4205D0521C0A2AF8DBFF20087030BDF5
:10D100009440234303600A7030BD10B50C780123AE
:10D110000268A3409A430260FF20087010BD0A48CD
:10D12000FFF7EABB09480A490078087070470949C7
:10D13000096891F86110C90705D0024604480178D2
:10D14000024800F066B97047E04410000C48100037
:10D150001C0B100024091000F94800214170C16027
:10D1600001704160F749096891F8161181607047B4
:10D170002DE9F041002506465FF00107706807FAC7
:10D1800005F1084233D005EB850006EB00140C34A2
:10D1900094F82000012801D0022828D12079022803
:10D1A00003D0012805D0B8B121E0B4F80500E64964
:10D1B00015E0E449E5480968B0F9000091F8A010CD
:10D1C000890704D5B4F91A000021FDF775FCB4F8FD
:10D1D0000510814207DB0AE0B4F80500DC49B1F92B
:10D1E0000010884203DA21463046FFF770FF6D1CBD
:10D1F0002DB20A2DC2DBBDE8F0812DE9F0410446D5
:10D20000D0480025006890F8102192074AD50022E6
:10D2100026780AE002EB420303EBC20304EB83032C
:10D220001B7E012B00D10125521C9642F2DC002707
:10D23000C34A4FF0010C012D0AD153685B1C5360A7
:10D2400090F815619E4203DC82F800C0C2E90167D4
:10D25000012903D01078012806D023E082F800C00D
:10D2600090F81501C2E901070026374616E000BF15
:10D2700007EB470000EBC70004EB8001091D087DA8
:10D2800001280AD106EB460000EBC60004EB800043
:10D29000001D2C22F5F7CCFC761C7F1C2078B842B0
:10D2A000E6DC26702846A6E770B5A64A0023194694
:10D2B0001268057811E000BF01EB410404EBC104E2
:10D2C00000EB840492F811616489B4420BD892F89F
:10D2D0001261B44200D95B1C491C8D42ECDC92F80F
:10D2E0001301984201D2012070BD002070BD70B5BD
:10D2F00006460125FFF7D8FF914C012803D060783E
:10D30000012808D00EE0012060708E48006890F877
:10D310001401E06006E0E068002803DD401EE060E4
:10D320000020607061783046FFF767FF28B96078A9
:10D33000012802D1FFF770FE0025284670BD804805
:10D34000C168002903DD491EC1600021417070479A
:10D350002DE9F0470446914259D007D901EB02006C
:10D36000A0EB0201CAB2A0EB0200C1B201EB410086
:10D3700000EBC10004EB800102EB420000EBC200B5
:10D3800004EB80094B89B9F80A5009F104002B44D9
:10D390004B810B89B9F808502B440B810B69D9F8E4
:10D3A00010502B440B61CE684B680068D9F80C70A4
:10D3B0004FEA234C4FEA204806FB0CFC06EB07051E
:10D3C00007FB08CC9CFBF5FC6CF31F430FFA83FCB6
:10D3D00006FB0CF600B207FB006090FBF5F060F373
:10D3E0000F03CD604B602078A0F1010191420BD07A
:10D3F00000EB400101EBC00004EB8001283909F18A
:10D4000004002C22F5F714FC2078401E2070BDE8A3
:10D41000F0872DE9FC5F07464E4800250278494811
:10D42000012A006808D090F8730000BF00FB00FAE2
:10D430000C464FF001099FE090F8CB00F6E700BFE3
:10D4400009FA04F02646009067E000BF009909FA47
:10D4500006F0084260D006EB460000EBC60007EB82
:10D460008000416820464CE0B04249D000EB4002C9
:10D4700002EBC00207EB820252684FEA224CACEB8F
:10D48000214C0FFA8CFC6CF31F45E646DFF8B4C064
:10D49000A2EB010212B2DCF800B062F30F059BF8B8
:10D4A00061C0CDF804C05FEA8C7C0AD59BF874C0DB
:10D4B00002FB0CF84FF0640C98FBFCFC624462F336
:10D4C0000F05019A52070BD59BF874C00EFB0CF2A6
:10D4D0004FF0640C92FBFCFC0CEB0E0262F31F4558
:10D4E0004FEA254C0CFB0CFC2AB202FB02C252454F
:10D4F00006D2DDF800C009FA00F242EA0C020092FE
:10D50000401C8342B0DC04216846F5F7A5F80128E9
:10D5100002D1009840000090761C3B78B34295DC25
:10D5200004216846F5F798F8012829D00099484663
:10D5300000FA04F20A420FD03E78C846761E18E080
:10D54000200B100024091000080B10000A0B10001B
:10D550000C0B100049091000641CE9E7009908FA57
:10D5600006F0084204D0F2B2E1B23846FFF7F0FE0E
:10D57000761EA642F2DC641C3878A0423FF760AF0A
:10D58000BDE8FC9F0E48017801290CD181680D4A45
:10D59000491C8160126892F816218A4203DC00213E
:10D5A0000170C0E901127047064800B5006890F8A4
:10D5B0001001C00701D0FFF7C2FE5DF804EBE1E700
:10D5C000200B10002409100070472DE9F0410024C1
:10D5D000012605465FF00607686806FA04F108426E
:10D5E00015D004EB840005EB00110C3191F82000FC
:10D5F000032806D0042804D0052802D0022803D02E
:10D6000005E081F8207002E02846FFF760FD641C09
:10D610000A2CE1D3BDE8F08110B5022200EB8203B1
:10D62000521E53F83A4F12F0FF025C60F6D1C0F878
:10D630003E1010BD5FF0000200EB8203521CD2B21C
:10D64000C3F83E10032AF7D3704730B50446427042
:10D65000087D2071C868E06088682061C8882081E2
:10D6600088886081487DA0700D460869E061E88A7D
:10D67000E082288B2083A88BA4F80500B5F81F0052
:10D680006083A889A082012B07D020462968FFF774
:10D69000C3FF606A401C606230BD012084F8200036
:10D6A00020462968FFF7C6FF002060622868C4F89A
:10D6B0003A0030BDB0F90010B0F90200494300FB58
:10D6C0000010704710B553884C881B1B438012888C
:10D6D0000988511A018010BD2DE9FF4F4FF0040851
:10D6E0008946526808EBC004411E4FF0060C1D46E7
:10D6F0000CEBC000DDE90D3A14441044B4F90040CD
:10D70000B0F9007000E0491E08EBC1001044B0F908
:10D710000000A04201D00029F5DA08EBC100104456
:10D72000B0F90000A0427BD10CEBC1001044B0F96D
:10D730000060491E0CEBC1001044B0F90000B0427B
:10D7400001D00029F5DA0CEBC1001044B0F900005B
:10D75000B04278D108EBC100104407EB4702B0F9A2
:10D7600000C004EB840003EB00100CEB8C0103EB16
:10D77000011102EBC7030AEB8302D0F84A00D1F88B
:10D780004A105268009206EB460202EBC6030AEB0F
:10D7900083024FEA204B0FFA80FA08B252680192D6
:10D7A00050440BEB21424310BDF90200BDF90610B5
:10D7B000BDF9048008444110BDF90000A1EB6201ED
:10D7C00040445944C3EB6000ADF80E105044ADF82E
:10D7D0000C006A4603A902A8FFF774FF02A8FFF72E
:10D7E00069FF804601AA03A902A8FFF76BFF02A800
:10D7F000FFF760FF804526D9002000E0401C05EBC4
:10D80000C001B1F90410A14201D04845F6D305EB9F
:10D81000C001B1F90420A24215D1CE80002101E05F
:10D8200011E0491C05EBC102B2F90420624501D0A8
:10D830004945F6D305EBC101B1F90420624504D096
:10D8400005EBC000C780BDE8FF8FCF80FBE7F0B5D8
:10D85000002118E04A1C12E0436803EBC10603EB09
:10D86000C204356823689D4208DD676825607568D5
:10D870006560446804EBC10423606760521C036860
:10D880009342E9DC491C02688A42E3DCF0BD70B5D2
:10D89000D0E90045062606EBC40635442A80042557
:10D8A000426805EBC4052A441180416801EBC401BC
:10D8B000641C0B60046070BDF0B5B1F90240B2F9B0
:10D8C000025004FB05F6002E2ADDB1F90060B2F922
:10D8D00000707E43002E23DD64435D4394FBF5F42A
:10D8E00024B24480B2F90020B1F900105A434943F0
:10D8F00091FBF2F10AB278230280782C00DD43809C
:10D90000B0F902406FF077018C4200DA4180782A4A
:10D9100000DD0380B0F900208A4200DA0180F0BD0A
:10D9200000214180FAE72DE9FF4FADF27C5D814691
:10D930004FF6FF70CDF808050020CDF86C050DF509
:10D94000A360CDF8100508300E46CDF874050DF52E
:10D95000A362002002A903C2D94A0DF5AC6B0DF5F4
:10D96000AD6A117804468046012902D1CDF86C15C4
:10D97000107000270120D9F80410B84001427CD073
:10D98000D04807EB870109EB01150168DDF86C252C
:10D990000C35B1F89400012A03D1B1F89C2002B1F2
:10D9A00010464043CDF8140591F896C005F13E02AB
:10D9B000111D0DF5AC60CDF85C25CDF82415FFF7F1
:10D9C00081FE0DF5AC60FFF775FE0CFB0CFC0CFB4B
:10D9D00000FCDDF81405844502DDCDF828C501E022
:10D9E000CDF828054FF0000C58E000BF0CEB4C00C0
:10D9F00000EBCC0006EB8000001D01900DF5A4604B
:10DA0000DDF85C25DDF82415FFF75CFE05F1460125
:10DA10000DF26450DDF82425FFF754FEDDF874059F
:10DA2000B0F902006430C82806D8DDF87405B0F9F2
:10DA300000006430C82801D9012300E003230DF25F
:10DA400064520DF5A461101FFFF736FFB5F84010C2
:10DA5000BBF802000844AAF80200E98FBBF80000F6
:10DA60000144AAF800100DF5AD610DF5AC60019A06
:10DA7000FFF728FE0DF5AC6000E012E0FFF71AFE9C
:10DA80000346DDF82805834206DA0FFA8CF239B234
:10DA9000DDF81005FFF7FBFE0CF1010C3078604556
:10DAA000A4DC7F1C0A2FFFF665AFDDF818050028FF
:10DAB0007ED0DDF81005FFF7CAFE00210DF5A66E39
:10DAC0000DF5976B4FF0040A3BE000BFDDF81C0535
:10DAD0000AEBC1020244B2F90030062202EBC10295
:10DAE00010440122B0F900C0DDF88405056802FA8F
:10DAF00003F005421FD1DDF8887502FA0CF23F6889
:10DB0000174218D1DDF8847505433D60DDF888556E
:10DB10002D681543DDF8882515600BEBC405641CE2
:10DB2000AB80A5F806C0DDF80825104203D14EF8F9
:10DB3000281008F10108DDF808258243491CCDF8BA
:10DB40000825DDF818058842C0DC7546B8F1000FDD
:10DB500039D0CDE90096A8F101080DF5976355F885
:10DB600028002146DDF81025FFF7B6FDEEE7641E1C
:10DB70000BEBC4000023B0F90410B0F9060001EB70
:10DB8000810200EB400109EB021501EBC0000C35EE
:10DB900006EB8001091D95F901202846FFF755FD88
:10DBA00095F82000032808D0042809D0072800E0B1
:10DBB0000BE005D0052806D102E085F820A002E0A0
:10DBC000052085F82000002CD1D10DF28C5DBDE838
:10DBD000F08F2DE9FC41064640680F4650B1002009
:10DBE0000190009001AB6A463046FFF79CFE00258D
:10DBF00001243EE0002415E004EB840006EB001550
:10DC00000C353046FFF74EFA021E0ADB02EB4200EB
:10DC100000EBC20007EB8001091D01232846FFF736
:10DC200014FD641C3878A042E6DCBDE8FC8100BF2E
:10DC3000019904FA05F008421AD13046FFF732FA8A
:10DC4000B0F1000C14DB05EB450000EBC50007EB61
:10DC500080010CEB8C0006EB0010091D0C30012339
:10DC60006246FFF7F2FC009904FA0CF008430090BA
:10DC70006D1C3878A842DBDC00250627716804FAA1
:10DC800005F0014218D00099084215D105EB850036
:10DC900006EB00110C3191F82000032806D004286F
:10DCA00004D0052802D0022803D005E081F82070B6
:10DCB00002E03046FFF70BFA6D1C0A2DDEDBB4E7FD
:10DCC0006E091000240910006848002141600170AD
:10DCD00070472DE9F04F6648D7B04FF0000905684E
:10DCE0004C4601AB2EAA01212846CDF80490FBF743
:10DCF00084FB06465F48DFF880A103680120197D98
:10DD000011E0012200EB001C574607E002EB4C0833
:10DD100015F8088007F80180491C521C93F81480FC
:10DD20009045F3DA401C5A7D8242EADA01270DF56C
:10DD3000A47B30E02EA830F817000A282AD945A87D
:10DD4000FBB2035547A8009001A800EB870CE04602
:10DD5000624629464948FDF7C7FB9DF8311101A8E5
:10DD60000BF8071010F8273007EB47020AEB4200C8
:10DD70000AF8123098F80230437098F80120827047
:10DD800098F80320C2702EAA641C12F817200271A2
:10DD9000E4B241717F1CB742CCDD012C1BD99DF848
:10DDA00014119DF815211BF901101BF902006FF0E9
:10DDB0003B04A1F11E0263101E2A03D8A04201DB1E
:10DDC000984206DD1E381E2805D8A14203DB994281
:10DDD00001DC4FF0010957B04846BDE8F08F10B59F
:10DDE00000240320F2F72DFC254A24492548F5F7A5
:10DDF000BBF80320F2F740FC1E4820490068B0F948
:10DE00006200FDF762FE20B1FFF763FF012802D038
:10DE10000124204610BD0224FBE770B50025FFF762
:10DE2000DEFF124C002620B1012802D002280FD0BC
:10DE300019E06068401C6060322807DD01254FF062
:10DE4000AD320221AC206660FAF7CFFF26700AE0FF
:10DE50006660207838B9012020704FF0AC32022182
:10DE6000AD20FAF7C2FF284670BD0000300B10004D
:10DE70004C0910002409100006930120A69F0120E0
:10DE8000420001204C1110001248016841F00402C8
:10DE900011490B68002B06D10260096821B10168A5
:10DEA00021F004010160704730BF70470B4C4FF008
:10DEB00008552068401C2060F2F7D4FDD5F8840195
:10DEC00020B10120F4F765FF30BFF2E7FFF7DCFF78
:10DED000EFE7000010ED00E03C2101206809100090
:10DEE000F7480021416081600160704710B54FF034
:10DEF0000854D4F88401002806D040210220F2F70B
:10DF0000B5FA0020C4F8880110BD70B54FF0085470
:10DF1000D4F88401002836D105210120F4F7E1FC72
:10DF2000E7490020486088600860E64908604FF4CF
:10DF300080710220F2F79AFA02210120F2F796FA94
:10DF400002210320F2F792FA08210020F2F78EFA5C
:10DF500002210420F2F78AFADB4D286890F82901A3
:10DF6000800702D50120FAF70CFEFAF7E7FE2868D1
:10DF700090F88003000703D520210120F2F776FAFC
:10DF80000120C4F8840170BD70B54FF00855D5F874
:10DF90008401002834D0CC48006890F8290180071B
:10DFA00001D5FAF7F1FDC7480024012104600846B5
:10DFB000F2F75CFAC248042144600220F2F756FAF4
:10DFC00010210420F2F752FA80210320F2F74EFAD2
:10DFD00080210220F2F74AFA01210320F2F746FAE3
:10DFE00004210020F2F742FA01210420F2F73EFA60
:10DFF000C5F88441BDE8704005210020F4F771BCEC
:10E0000070BD70B5AE4C6268D0072AD1AD48AF4B39
:10E01000016841F0050101601D6845F020051D60A3
:10E02000A94B1B6893F8B031DB0705D012F4017FD0
:10E0300002D141F042010160A5480125A902057005
:10E040002846F2F713FA6068042140F0010060608E
:10E050000220F2F70BFA80210320F2F707FA9D481D
:10E06000056070BD964910B54868C2070DD020F014
:10E070000100486004210220F2F7F8F98021032012
:10E08000F2F7F4F993490020086010BD10B54FF085
:10E090000854D4F88401002806D008210220F2F7A1
:10E0A000E5F90120C4F8880110BD10B54FF00854FF
:10E0B000D4F88401002806D010210220F2F7D6F906
:10E0C0000020C4F8880110BDF2F72EBD7E4810B5BF
:10E0D000006890F85001C0070ED07949486842079F
:10E0E0000AD520F00400486004210220F2F7BEF9AE
:10E0F00010210420F2F7BAF976490020091D0860C2
:10E1000010BD70B57048006890F85001C0070DD080
:10E110006B4C2079400709D46F480178204680680D
:10E1200029B140F00400A0600520206070BD6B495B
:10E13000012520F004000D7069490A6842F02002B0
:10E140000A60A0605F48016841F0220101606048F8
:10E15000A90205702846F2F789F96068042140F0A9
:10E16000040060600220F2F781F910210420F2F728
:10E170007DF95848001D056070BD704770475248D2
:10E1800010B5006890F8C001C00711D04C4948682C
:10E1900042060DD5534B002220F040001A70486013
:10E1A00004210220F2F762F980210320F2F75EF9E0
:10E1B000484900201031086010BD434810B5006880
:10E1C00090F8C001C00715D04649002008703C49AE
:10E1D000486842060ED440F0400048600421022006
:10E1E000F2F744F980210320F2F740F93949012080
:10E1F0001031086010BDF2F779BC324840F2B732F6
:10E200000168114301603249012008708102F2F770
:10E210002DB93348016841F0100101602C490120FB
:10E2200008702848016841F4D17101604FF48061A1
:10E230000120F2F71BB9704708210120F2F716B947
:10E2400004210120F2F712B9704710210120F2F7E2
:10E250000DB920210120F2F709B940210120F2F780
:10E2600005B91948006890F8C800C00705D01E49D4
:10E2700001200870CC20FAF77ABE70471A490020B6
:10E280000870CD20FAF773BE70470A46B0F5805F7C
:10E29000014602DA0C48006801E04FF48010FAF7FA
:10E2A0005EBDF0B54FF40064B0F5805F02D2064B5E
:10E2B0001D6803E0A0F580504FF48015002319E09D
:10E2C000380B100028091000240910003009100034
:10E2D0002C0910008C0100223F0910006009100079
:10E2E000340910003E09100049091000D65C1F18BF
:10E2F0005B1CEE558B4201DAA342F7DBF0BD10B593
:10E30000224C40F2FF112068F2F75EFA22684FF4C7
:10E310000071C2F8FC071046F2F753FEBDE810404A
:10E320000320FAF724BE10B54FF4801440F2FF1119
:10E330002046F2F749FA16490860C9122046F2F75A
:10E3400050FEBDE810400420FAF711BE00B587B0BA
:10E35000FF221821684600F00EF96846F2F7A6FD84
:10E360006846FAF77AFD07B000BD4FF480710120CE
:10E37000F2F77CB84FF400710120F2F777B8054846
:10E38000007A400700D5BCE67047704724091000AA
:10E39000FC071000380B100070B5044629480D46E4
:10E3A000202C02DD2021016000E0046020212648AD
:10E3B00000F0E9F80022244802E0A95C8154521CD4
:10E3C000A242FADBBDE8704001210520F2F74EB809
:10E3D000032804DD0888897840BAFFF756BF7047E4
:10E3E000032806DDC31E08888A1C40BA1946FFF7B9
:10E3F00058BF7047144913480A780068A2F1900387
:10E400001F2B03D8114850F823000047A2F1C00386
:10E410000F2B05D80D4A8032491C52F82320104793
:10E42000B02A07D0B22A07D0FB2A07D0FC2A07D18E
:10E43000FFF779BF491CD3E7491CC9E7FFF75FBF66
:10E4400070470000440B1000A44A100098E9000037
:10E4500008B5FFF745FD1248F2F76DFBFAF746FCE9
:10E4600005210020F4F73DFA03216B460022052028
:10E47000F2F74BF80098C00707D001210520F2F70A
:10E4800023F8FFF7B7FFF2F782FB00988007EBD580
:10E4900002210520F2F718F8FFF771FFE4E700000A
:10E4A00079E3000010B54C1084EA530404D54042CF
:10E4B000C1F1000138BF491E1B4204D55242C3F1CD
:10E4C000000338BF5B1E00F0AAF814F0804F04D0A0
:10E4D0004042C1F1000138BF491E14F0004F04D082
:10E4E0005242C3F1000338BF5B1E10BD032A40F245
:10E4F000308010F0030C00F0158011F8013BBCF1E6
:10E50000020F624498BF11F801CB00F8013B38BFFD
:10E5100011F8013BA2F1040298BF00F801CB38BF0B
:10E5200000F8013B11F0030300F0F080083AC0F05E
:10E53000088051F8043B083A51F804CBA0E80810D1
:10E54000F5E7121D5CBF51F8043B40F8043BAFF304
:10E550000080D20724BF11F8013B11F801CB48BF5E
:10E5600011F8012B24BF00F8013B00F801CB48BF94
:10E5700000F8012B704702F0FF0343EA032242EA4E
:10E58000024200F002B84FF000020429C0F01280ED
:10E5900010F0030C00F01B80CCF1040CBCF1020F56
:10E5A00018BF00F8012BA8BF20F8022BA1EB0C012B
:10E5B00000F00DB85FEAC17C24BF00F8012B00F821
:10E5C000012B48BF00F8012B70474FF0000200B547
:10E5D000134694469646203922BFA0E80C50A0E886
:10E5E0000C50B1F12001BFF4F7AF090728BFA0E834
:10E5F0000C5048BF0CC05DF804EB890028BF40F800
:10E60000042B08BF704748BF20F8022B11F0804F41
:10E6100018BF00F8012B704770477047704753EAE6
:10E62000020C00F069802DE9F04B4FF00006002B42
:10E630001FBFB3FA83F503FA05F424FA05F65E402A
:10E6400012BF1643B2FA82F502FA05F4C5F12005AD
:10E650001EBF22FA05FC44EA0C04203556EA044C9D
:10E660004FEA144418BF641C4FF000084FF0000933
:10E67000904271EB030C39D3002919BFB1FA81F72D
:10E6800001FA07F6B0FA80F700FA07F6C7F120079B
:10E690001EBF20FA07FC46EA0C062037B6FBF4FC46
:10E6A000A7EB0507103F07F01F0BCBF120060CFA74
:10E6B0000BFB2CFA06F644BFB3460026202FA4BF5E
:10E6C0005E464FF0000B5BEA060C08BF4FF0010BF3
:10E6D00019EB0B09ABFB027C48EB0608C01B06FBE1
:10E6E00002CC0BFB03CC71EB0C01C1E70B460246DD
:10E6F00041464846BDE8F08B13B54FF000004FF09F
:10E700000001AFF30080BDE81C40704710B5203A0F
:10E71000C0F00B80B1E81850203AA0E81850B1E8DA
:10E720001850A0E81850BFF4F5AF5FEA027C24BF90
:10E73000B1E81850A0E8185044BF18C918C0BDE887
:10E7400010405FEA827C24BF51F8043B40F8043B50
:10E7500008BF7047D20728BF31F8023B48BF11F805
:10E76000012B28BF20F8023B48BF00F8012B70475F
:10E770000446AFF300802046F1F71CFD704700000F
:10E7800001491820ABBEFEE7260002000D1500006F
:10E79000271500003F1500005715000073150000F5
:10E7A0008B150000A3150000B91500000000000043
:10E7B0000D15000011150000571500008B15000005
:10E7C000A315000073150000271500003F15000079
:10E7D000B91500000600000080EA000001000000FA
:10E7E0007C3C1000800000008DDE00000000000076
:10E7F000020000000500000070EA000002000000B6
:10E800007C3B10000001000031E40000000000002B
:10E81000020000000400000058EA000003000000AD
:10E82000AC381000D0020000D97D000000000000CC
:10E83000020000000300000007EB000004000000DD
:10E84000AC3010000008000009C500000000000006
:10E850000200000002000000A1EA00000500000024
:10E860006C2A100040060000238B0000000000000E
:10E870000200000001000000F7EA000006000000AE
:10E880006C261000000400002D570000000000005E
:10E89000020000000000000016EB0000070000006E
:10E8A0006C25100000010000A9910000000000008C
:10E8B0000200000006000000D8EA0000010000008D
:10E8C00005000000C5EA000001000000040000008F
:10E8D000B8EA0000010000000300000089EA00001F
:10E8E0000100000002000000AAEA00000100000090
:10E8F00001000000E6EA0000010000000000000046
:10E9000078EA0000010000000500000068EA00004D
:10E9100004000000F0EA00000300000000EB00002B
:10E920000200000098EA0000010000005FEA000019
:10E93000000000000EEB00000001010201020203D2
:10E9400001020203020303045AD3D9E96CF145F52D
:10E950009FF73CF96CFA58FB18FCB9FC44FDBFFD6D
:10E960002EFE94FEF4FE50FFA9FF00005700B000F9
:10E970000C016C01D2014102BC024703E803A80468
:10E980009405C4066108BB0A940E2716A62C010044
:10E990000200010002000400020001000200010068
:10E9A0001000FFFFFFFFFFFFFFFF1400FFFFFFFF4F
:10E9B000FFFFFFFF0C00000069DF0000EBDE00003E
:10E9C00045E00000E3DF0000ADE00000E3E0000010
:10E9D00069E2000069E200006DE000008BE00000E9
:10E9E0005BE100005DE1000069E2000069E2000017
:10E9F0005FE100009BE10000A9E00000D7E100001A
:10EA0000DBE1000019E2000021E200002BE200003F
:10EA100033E200003BE2000043E20000F3E10000CB
:10EA20002DE300005DE2000069E20000CDDE0000A1
:10EA30004BE3000055E300006BE300006BE30000D4
:10EA40006BE300006BE300006BE300006BE300008E
:10EA50006BE300006BE300006BE300006BE300007E
:10EA60006BE300006BE300006BE300006BE300006E
:10EA70006BE300006BE3000054736B5F535300457E
:10EA80006C665F5373766300456C665F436D64002C
:10EA900054736B5F436D640053656D5F4166650041
:10EAA00054736B5F49646C650053656D5F43616CC3
:10EAB00069624672616D6500456C665F5363616EA5
:10EAC0000054736B5F5363616E0053656D5F4576F1
:10EAD000656E744669666F0053656D5F535342758A
:10EAE000666665720053656D5F527074546F75632E
:10EAF000684275666665720053656D5F5261774264
:10EB000075666665720053656D5F56697065720063
:10EB1000456C665F53730054736B5F535379730096
:10EB2000456C665F4D740054736B5F4D7400456CAB
:10EB3000665F5270740054736B5F52707400000013
:10EB400040EB000000091000480200000001000036
:10EB50006CEB0000480B10007C3F00005C010000E3
:10EB6000011E5305FA0214F802E50116FFFFFEFF2D
:10EB70000A2DFEFFFFFFF20A1F02F63206320F9A3D
:10EB800037089AE10803D6D3030000000000000014
:10EB90000000000000000000000000000000000075
:10EBA0000000000000000000000000000000000065
:10EBB0000000000000000000000000000000000055
:10EBC0000000000000000000000000000000000045
:10F81000000000000000000000000000782C48BF3D
:10F82000A5012C00FFFFFF0300000000FF7F000088
:10F83000000000001A0FFF04CF02010000000000CA
:10F840002F2300FD05406400320018220020001024
:10F8500000400010000D0001000A0A000000000036
:10F860005700A0F41000300010004000E6FB060036
:10F870003000060030000000300030004864000016
:10F880000603FA004000308001005E018001E001C3
:10F890003C1828640901000AD000080F0620020362
:10F8A0000900310A01F100221005A20820004000E1
:10F8B0000000000880000A000D0D0000800100001B
:10F8C000174000100006040220004800A2D00000EB
:10F8D000138F0220180020010000003000002003D8
:10F8E0003302B40008003000032030701000000024
:10F8F00001040D000E000F001100120000000000B6
:10F90000000000000000FF010000000000000000F7
:10F91000000000000000000000000A0012000301C7
:10F9200000400000000000000000004126172700F2
:10F93000403218020F05200000000A0A00100000E3
:10F940000147120C5A66101000400000005000FAE7
:10F950003E00AC0DB80B00090009000900090000C9
:10F9600000F0003200800C800C000000010000005C
:10F97000FB16A000A000101010003000AA1010000C
:10F980004401230000000012A0800000021E50016C
:10F9900095000405A6C01800F000108001010100C8
:10F9A00000003C3000B00100040A222830606000F2
:10F9B0006C101AC83C33003050015001FF7FFF7FAC
:10F9C00002250010100506A810003000800070000D
:10F9D000096400640064000000B400102001000FFE
:10F9E00021000020080050000A00010400021E034C
:10F9F00011D24000010000008402100000203220DB
:10FA0000FFFFFFFF000200220000000000000000D6
:10FA100000020002000200000000000008000000D8
:10FA20000018013FFF01A3000000000000000000DB
:10FA30005802000078050000F000000000000000FF
:10FA400040000001000100002000C8000202000088
:10FA5000030303020200F000803E55002000000175
:10FA6000B4080000000020000001000000000000B9
:10FA70000000000000000000000000000000000086
:10FA80000000000000000000000000000000000076
:10FA90002048575B5D60626462606D5B574820641C
:10FAA0006464646464646464646464646464646416
:10FAB000646464646464AF00000402020000000037
:10FAC0004E5B5E616464646464646464646464641E
:10FAD000646464646464615E5B4E6464646464640E
:10FAE00064646464646464646464646464646464D6
:10FAF0006464646464646464646464648F000000C7
:10FB000000000000000000000000000000000000F5
:10FB10000101005000006001FFFFFFFF0100000035
:10FB20000000022200000010111213141590009022
:10FB300000900090009000900008900000000000ED
:10FB400000000000000000000000000000000000B5
:10FB500000000000000000000000000000000000A5
:10FB6000FF0F5000320032000000000000000000D3
:10FB70000000000000000000000000000000000085
:10FB8000FAB2B2401F2828FAA2A2401F3C003C0053
:10FB90003C003C000707070707B2B2401F280700D8
:10FBA00088020001080110010000000000000000B0
:10FBB0000000000000000000000000000000000045
:10FBC0000000000000000000000006000300030128
:10FBD00000FFF800080118011801000000000000F3
:10FBE00000000000000000002108170500000000D0
:10FBF0003307E901BF00570028000A000A000A0085
:10FC00000A000A000A0028005700BF00E901330774
:10FC1000000000000000FD000701CE005000310090
:10FC2000EC00E001D701F20044002900A5005301D7
:10FC3000300167000000000000000000000000002C
:10FC400000000000000000000000008000800004B0
:10FC5000000000000100010203000000000000009D
:10FC60000017A001090000000003D007AC0DD80E5A
:10FC7000D80ED007D007803E803E00300030000113
:10FC8000000500050000000000000000000000006A
:10FC90001A122C5800000011006300B5000701592A
:10FCA00001AB01FD014F02A102F30245039703E9F5
:10FCB000033B048D04DF0431058305D50527067950
:10FCC00006CB061D076F077F070000110056009C3A
:10FCD00000E20028016E01B301F9013F028502CA6A
:10FCE00002100356039C03E20327043704000000BC
:10FCF000003B009600E6003A018D01E501360289DD
:10FD000002DA022E038703DA032A047C04D20429D0
:10FD1000057905CA0520067406CB061A076C077F0D
:10FD2000070000000034007C00C4000C0153019C5B
:10FD300001E3012B027402BB0204034C039403DCB5
:10FD40000324043704000000003B009600E6003A5C
:10FD5000018D01E50136028902DA022E038703DAFA
:10FD6000032A047C04D20429057905CA05200674F7
:10FD700006CB061A076C077F070000000034007CE2
:10FD800000C4000C0153019C01E3012B027402BB6F
:10FD90000204034C039403DC032404370400000032
:10FDA0000000000000000000000000000000000053
:10FDB0000000000000000000000000000000000043
:10FDC0000000000000000000000000000000000033
:10FDD0000000000000000000000000000000000023
:10FDE0000000000000000000000000000000000013
:10FDF0000000000000000000000000000000000003
:10FE000000000000000000000000000000000000F2
:10FE100000000000000000000000000000000000E2
:10FE200000000000000000000000000000000000D2
:10FE30000E0E00002000400060008000A000C00006
:10FE4000E000DF06FF061F073F075F077F07000090
:10FE500000000000000000000000000000000000A2
:10FE60000000000000000000000000009600C80034
:10FE7000FA002C015E019001A702D9020B033D0399
:10FE80006F03A103370400006E00AA00E600220100
:10FE90005E019001A702D902150351038D03C90326
:10FEA0003704000000000000000000000000000017
:10FEB0000000000000000000000000000000000042
:10FEC0000000000000000000000000000000000032
:10FED0000000000000000000000000000000000022
:10FEE0000000000000000000000000000000000012
:10FEF0000000000000000000000000000000000002
:10FF000000000000000000000000000032000000BF
:10FF1000226001010000000000000000000000005D
:10FF200001020505001A0000000000000140000069
:10FF300000000000000000000000000000000000C1
:10FF400000000000000000000000000000000000B1
:10FF500000000000000000000000000000000000A1
:10FF60000000D3109000A09817FF6000005B0F0006
:10FF70001A00B784200300045B0104040801A000F8
:10FF8000000035340801A000000035330000E00116
:10FF9000960000000000000000000008071F06187F
:10FFA000222212001EC5440A3731711041890040D7
:10FFB000000000000000000F000F000F000F000005
:10FFC0000000000000000000000105FA0000000031
:10FFD0000000000000000000000000000000000021
:10FFE00000081000000100000000000000000000F8
:10FFF0000000000000000000000000000000000001
:020000021000EC
:10000000148100000000000000000000000000005B
:10001000800000000000000000000011B6D7E0865C
:00000001FF
