:100000005555AAAA6501000000000000000000008C
:10001000248100000000000000000000024A742556
:1000200000011000E9070000790200008F020000C3
:10003000A5020000BB020000D10200000000000089
:10004000000000000000000000000000312400005B
:100050003524000000000000E70200003724000003
:100060003924000063220000912400009D2200003A
:100070005324000055240000592400006724000088
:10008000F902000083240000852400008924000078
:100090008B240000932400000000000000000000FA
:1000A00095240000972400000000000000000000DC
:1000B00000000000992400009B240000B1220000F1
:1000C0009D240000AB240000AD240000C5240000E6
:1000D000C724000000000000000000000000000035
:1000E0006501000000F002F800F05AF80AA090E85C
:1000F000000C82448344AAF10107DA4501D100F0E3
:100100004FF8AFF2090EBAE80F0013F0010F18BF55
:10011000FB1A43F0010318470CEE00002CEE000020
:100120000A444FF0000C10F8013B13F0070408BF1D
:1001300010F8014B1D1108BF10F8015B641E05D0BB
:1001400010F8016B641E01F8016BF9D113F0080F70
:100150001EBF10F8014BAD1C0C1B09D16D1E58BF02
:1001600001F801CBFAD505E014F8016B01F8016B39
:100170006D1EF9D59142D6D37047000000230024AC
:1001800000250026103A28BF78C1FBD8520728BFA7
:1001900030C148BF0B6070471FB51FBD10B510BD03
:1001A000DFF80CD0FFF7F8FF02F08FFA0EF0D2FC68
:1001B0000001100003B4FFF7F1FF03BC0EF0D2FC06
:1001C0000A484FF0FF0101704FF0000080F31188E2
:1001D0004FF0000080F3098805484FF002010170DC
:1001E00062B604484FF080510160704722ED00E094
:1001F0000001100004ED00E002484FF08051016062
:100200007047000004ED00E04FF0200080F31188FB
:10021000EFF3098058B10E49096820E9F00F8860B2
:1002200000B50B48006800F0F2F85DF804EB0848F0
:1002300008490A68026000688168B1E8F00F81F33C
:1002400009884EF0040E4FF0000080F311887047CB
:100250000401100008011000EFF311804FF020019D
:1002600081F31188704700004FF0000080F311887F
:100270007047000062B6704772B6704740BA704768
:10028000C0BA7047401E0028FCDC704700BE7047B3
:1002900040BA7047C0BA70471EF0040F0CBFEFF3AE
:1002A0000880EFF309804FF0010102F032B81EF030
:1002B000040F0CBFEFF30880EFF309804FF0020149
:1002C00002F027B81EF0040F0CBFEFF30880EFF325
:1002D00009804FF0030102F01CB81EF0040F0CBFA0
:1002E000EFF30880EFF309804FF0040102F011B83A
:1002F0001EF0040F0CBFEFF30880EFF309804FF0FE
:10030000050102F006B84FF0000000B502F0D3FE80
:100310005DF804EBFFF778BF1EF0040F0CBFEFF39E
:100320000880EFF309804FF0000101F0F2BF0000F8
:10033000194910B5012008701849002008601849B3
:100340000860184908601849086000F0B3F900F027
:1003500045F900F063F8002010BD10B5114800F019
:1003600024F90E490968884209D00D4908600A48F5
:100370000078022803D1BDE81040FFF73DBF10BD53
:1003800010B5FFF7EAFF044902200870FFF718FFD5
:100390004FF0FF3010BD00000001100004011000FC
:1003A000080110000C0110001001100070B50D467E
:1003B0000446C1698068CC220EF0CFFAE169A068DA
:1003C000084440384FF08071C163216A8163002185
:1003D00041630163C1628162C0E908514FF00B3192
:1003E000C1614FF00A3181614FF0093141614FF035
:1003F000083101614FF00731C1604FF00631816073
:100400004FF0053141604FF00431016070BD8269E9
:100410008168914201D802F0FCB9704710B54FF4E1
:10042000B4714C480EF0C3FA002010BD70B50546FB
:1004300000EBC501474800EB8104FFF70DFF0646BE
:10044000207828B13046FFF70FFF6FF0010070BD34
:100450000320207000206560206204F11C0000F081
:100460007DF83046FFF700FF002070BD2DE9F04118
:100470000F46384900EBC000012501EB800400263F
:10048000FFF7EAFE8046206A3843206204F11C0030
:10049000074600F08AF80BE0216A026C114202D094
:1004A00000F060F901262946384600F074F86D1C0A
:1004B0000028F1D1012E01D1FFF74FFF4046FFF791
:1004C000D3FE0020BDE8F08170B50D46214900EB58
:1004D000C00001EB8004FFF7BFFE216AA94321623F
:1004E000FFF7C2FE002070BD70B50C46194900EB45
:1004F000C00001EB800500202060FFF7ADFE296AF7
:100500002160FFF7B1FE002070BD2DE9F0410D46DE
:10051000104900EBC0001F46904601EB8004FFF736
:100520009BFE06460C4800680564216A294203D1F7
:1005300004F11C0100F028F9206A28403860B8F165
:10054000010F02D1206AA84320623046FFF78CFEDB
:100550000020B7E7540310000401100000210160DF
:100560000846704730B50A6812B10B46C46B09E003
:1005700000220860C0E903210BE000BF02F10C0378
:10058000D26812B1D56BA542F8DC1A68C0E9032124
:100590001860002030BD0068002201E0C068521CD5
:1005A0008A4201DA0028F9D1704700687047026971
:1005B0000AB1116831B96FF00400704701F10C0203
:1005C000C96839B18142F9D1C9681160002101615E
:1005D000084670476FF003007047000010B54FF4F5
:1005E000C87132480EF0E3F9002010BD2DE9F0414A
:1005F000884605462D4900EB8500174601EBC004EF
:10060000FFF72AFE0646207830B13046FFF72CFE71
:100610006FF00100BDE8F08102202070E761142234
:10062000414604F1080065600EF052F90020206296
:1006300004F12400FFF792FF3046FFF715FE00207B
:10064000E8E770B5194900EB800001EBC004FFF743
:1006500003FE0546D4E90701814205DB144804F195
:100660002401006800F090F8206A401C20622846AF
:10067000FFF7FAFD002070BD70B50C4900EB80005B
:1006800001EBC004FFF7E8FD0546206A08B1401EF3
:10069000206204F12400FFF788FF10B1606A00F0C7
:1006A00011F82846FFF7E0FD002070BDBC041000E3
:1006B0000401100010B54FF42A7140480EF077F98C
:1006C000002010BD10B5044690F8380002280BD069
:1006D0002046FFF76CFF022084F838003849204696
:1006E000FFF740FFFFF739FE002010BD2DE9F05F56
:1006F0008B460646314900EB06109046DDE90AA913
:1007000011F820201D461AB16FF00100BDE8F09FDE
:1007100001EB8004FFF7A0FD074601202070C4E92B
:100720000165C4E90585C4E907A91422594604F105
:1007300024000EF0CDF8002084F8370084F838004B
:100740006169E0602061C4E90F1020460C99FFF751
:100750002DFEA0602046FFF7B5FF3846FFF784FD69
:100760000020D3E710B5044690F83800022809D0DD
:100770002046FFF71CFF022084F83800104920466D
:10078000FFF7F0FE002010BD70B5044690F8380069
:100790000D4602280BD12046FFF709FF032084F8FD
:1007A000380029462046FFF7DDFEFFF7D6FD002082
:1007B00070BD044800684068704700004C06100097
:1007C0000C01100004011000F0B58446002004461E
:1007D0000C4F14E05CF824600323DD0046FA05F2B8
:1007E00080EA02600825002802DA87EA400000E07B
:1007F00040006D1E002DF6DC5B1EEED5641C8C42A5
:10080000E8DBF0BD1B00008012488047124800471B
:10081000FEE7FEE7FEE7FEE7FEE7FEE7FEE7FEE7B0
:10082000FEE7FEE7FEE7FEE7FEE7FEE7FEE7FEE7A0
:10083000FEE7FEE7FEE7FEE7FEE7FEE7FEE7FEE790
:10084000FEE7FEE7FEE7FEE7FEE7FEE7FEE7FEE780
:10085000FEE7000095080000C50000001F48006882
:100860004FF00051002891F8210000F01C000DD03D
:10087000042805D0082805D00C2805D096200CE0C7
:1008800011200AE0252008E04B2006E004280BD0C8
:1008900008280BD00C280BD07020401E01F82C0F1C
:1008A00008700120C87170470C20F6E71B20F4E7A0
:1008B0003720F2E770470A4993200870CEE70849CD
:1008C0000B200870CAE70548006818B9044800788A
:1008D000932801D000207047012070473404002283
:1008E0002100002010B5042000F094F9052000F04C
:1008F00091F9062000F08EF9072000F08BF908200E
:1009000000F088F9182000F085F9192000F082F92C
:100910001A2000F07FF9D14A00201060CF4B4033FD
:100920001860CE4918390860CC4908310860CC49B4
:100930000870CA4C143C2060C84C0C3420604870CD
:10094000C64C103C2060C54C103420608870C34CED
:100950000C3C2060C14C14342060C870BF4C083C73
:100960002060BE4C183420600871BC4C28342060D4
:10097000C871241D20600872241D20604872012067
:1009800010601860B7480078552803D0B549192081
:10099000491C08700621042000F054F906210520A6
:1009A00000F050F90621084600F04CF90621072016
:1009B00000F048F90421082000F044F9062118202D
:1009C00000F040F90621192000F03CF906211A2018
:1009D00000F038F9042000F029F9052000F026F98C
:1009E000062000F023F9072000F020F9082000F08D
:1009F0001DF9182000F01AF9192000F017F91A2033
:100A000000F014F9042000F0F9F8052000F0F6F8E1
:100A1000062000F0F3F8072000F0F0F8082000F0BE
:100A2000EDF8182000F0EAF8192000F0E7F8BDE82A
:100A300010401A2000F0E2B800EB80008749400027
:100A4000002218390A60864A0C3A107001200860AA
:100A500070478249002018390860704700EB800019
:100A60007E494000002214390A607D4A0B3A10701A
:100A700001200860704779490020143908607047E8
:100A800000EB800075494000002210390A60744A6A
:100A90000A3A107001200860704770490020103930
:100AA0000860704700EB80006C49400000220C3960
:100AB0000A606B4A093A1070012008607047674964
:100AC00000200C390860704700EB8000634940004B
:100AD000002208390A60624A083A10700120086052
:100AE00070475E4900200839086070475B49002262
:100AF00028310A605A4A521F10700120086070475E
:100B000000EBC00101EB00106FF00A0101EB800067
:100B1000544900B5491C544B0978B0FBF1F0401E14
:100B200080B2FF280CD9010A1970494200EB01205C
:100B30005870FF20FFF7DAFF1878401E187000BDCC
:100B4000002119705970C0B25DF804EBCEE743493B
:100B50000020283108607047434B10B51978587849
:100B600051EA000207D051B1FF20FFF7BFFF18780C
:100B7000401E187010BDBDE8104008F0E4B8FFF743
:100B8000B5FF0020587010BD00EBC00101EB001054
:100B90006FF00A0101EB800032490022491C0978FC
:100BA00090FBF1F02D492C310A602D4A401E121F96
:100BB0001070012008607047284900202C3108601F
:100BC000704700EBC00101EB00106FF00A0101EB70
:100BD000800024490022491C097890FBF1F01F494C
:100BE00030310A601E4A401ED21E1070012008607B
:100BF00070471A49002030310860704700F01F022A
:100C00000121914040094FF0E02202EB8000C0F842
:100C10000011704700F01F020121914040094FF080
:100C2000E02202EB8000C0F88011704700F01F0244
:100C30000121914040094FF0E02202EB8000C0F812
:100C4000801270474907090E002803DA00F00F00F0
:100C5000064A00E0064A8154704700001C05002245
:100C60003A000020F3FF01001401100014ED00E031
:100C700000E400E059480121016000210160704753
:100C800057480121016000210160704710B5002024
:100C900000F08BF8534800220260FFF7F1FFFFF7E6
:100CA000E9FF514802605149A0200870002000F07F
:100CB00088F8BDE81040002000F06BB84A480121D8
:100CC0001C38016000210160704710B50446002007
:100CD00000F06BF84348414904600120086000209F
:100CE00000F06FF8BDE81040002000F052B830B5B9
:100CF0003C4889B00468002C11D0202168460DF0D2
:100D000056FE3B4800783A4B00216A465B1C02E0E5
:100D1000CD5C5554491C8142FADB1146A04709B00D
:100D200030BD2E4901201C39086070473048203002
:100D300000782F4921310978401A00F03F007047B0
:100D40002C4902780A7042784A7082788A70C27898
:100D5000CA7002790A7142794A7182798A71C079BE
:100D6000C871704724480068417882784FF000507D
:100D7000437A0374214B1B78437443891B0A8374A1
:100D80004389C37401754275C1798175017AC17552
:100D9000704700F01F020121914040094FF0E0220E
:100DA00002EB8000C0F80011704700F01F02012123
:100DB000914040094FF0E02202EB8000C0F8801122
:100DC000704700F01F020121914040094FF0E022DE
:100DD00002EB8000C0F88012704700005C840022A3
:100DE000A0000022180110007C04002200E400E0B2
:100DF00000040020000200202801100074011000EF
:100E000010B5092000F02AF80A2000F027F8092080
:100E100000F030F80A2000F02DF80521092000F03C
:100E200035F805210A2000F031F81E487F21417075
:100E300081700171002100F848191B49096891F877
:100E4000C810CA0709D08A0707D510F84A2FC1F37E
:100E50008203012199408A43027010BD00F01F02F5
:100E60000121914040094FF0E02202EB8000C0F8E0
:100E70008011704700F01F020121914040094FF09E
:100E8000E02202EB8000C0F8801270474907090E8B
:100E9000002803DA00F00F00044A00E0044A8154FD
:100EA00070470000480000202801100014ED00E009
:100EB00000E400E07047D4484FF48051018000BF47
:100EC00000BF00BF00BF00BF00BF00BF00BF00BF2A
:100ED00000BF4FF4C051018000BF00BF00BF00BF82
:100EE00000BF4FF440610180704710B5C64C072029
:100EF000A41E60700020207044F2C000608000BF1B
:100F000000BF00BF4CF2C000608000BF00BF00BF48
:100F10004CF2E00060800920FFF7B4F944F2E000F1
:100F2000608000BF00BF00BF4FF48040608010BDF4
:100F3000F0B500252E464FF00054E02717E000BF23
:100F4000883401F03F0160702170678000BF00BFEE
:100F500000BFD4F808C043F825C06680883C00BFB5
:100F60006D1C521E491C3F2901D9401CC0B2002AE9
:100F7000E6DCF0BD70B5A44C2126268000BF00BF82
:100F800000BF00BF00BF40F02105258000BF00BFAB
:100F900000BF00BF00BF44F22101084320800420AD
:100FA000FFF770F9258000BF00BF00BF00BF00BF82
:100FB000268000BF00BF00BF00BF00BF0020208010
:100FC00000BF00BF00BF00BF00BF70BD70B50446CA
:100FD0008D48002505808D4E0120306000F000F91D
:100FE000FFF783FF00F0ECF85C20FFF7C3FF234618
:100FF000012202210720FFF79BFF231D012203216D
:101000000620FFF795FF04F10803012204210520C3
:10101000FFF78EFF04F10C03012203210720FFF7E5
:1010200087FF04F11003012204210720FFF780FF4E
:1010300000F0C6F8FFF759FFFFF73DFF356070BDC0
:1010400070B50446704800250580704E0120306060
:1010500000F0C6F8FFF749FF00F0B2F85C20FFF798
:1010600089FF2346012208210020FFF761FF231D8D
:10107000012209210020FFF75BFF04F10803012290
:101080000A210020FFF754FF04F10C0301220B2179
:101090000020FFF74DFF04F1100301220C21002076
:1010A000FFF746FF04F1140301220D210020FFF792
:1010B0003FFF00F085F8FFF718FFFFF7FCFE3560F3
:1010C00070BDF0B54FF0000C059C0CB14FF0800CDA
:1010D0004E4C0026C5B24FF00057803C28E000BFC0
:1010E00087F889504FEAC05EBEF1000F01F03F0E55
:1010F0004EEA0C0E01DA4EF0400E87F888E053F805
:1011000026E0C7F88CE04FF0010EC4F8B0E04FF0D5
:10111000000EC4F8B0E0491CC9B2402902D36D1CCE
:10112000EDB20021D4F8C0E0BEF1000FFAD1761C78
:101130009642D5DBF0BD4FF0005282F889000023C3
:1011400009B1802002E0C00503D5402082F8880064
:1011500001E082F888302D4801218038C0F8AC10B9
:10116000C0F8AC30D0F8C0100029FBD17047F8B5FA
:101170000C4605464FF4F47600213046FFF7DBFFBE
:101180000020014600902B4622463046FFF799FF8B
:10119000F8BDF8B50C4605464FF4F8760021304608
:1011A000FFF7C9FF00214FF4FC70FFF7C4FF0020D8
:1011B000014600902B4622463046FFF782FFF8BDDD
:1011C00010B5114C4FF4804020800420FFF75AF8EE
:1011D0000020208000BF00BF00BF00BF00BF10BDC7
:1011E00010B5094C4FF4C050208000BF00BF00BFB5
:1011F00000BF00BF4FF4805020803520FFF742F839
:101200000020208010BD00008A00002080100022F5
:10121000F8B5FC4C0026354626700120A66000F08B
:1012200083FC0C2000F080FC032000F07DFC1720E4
:1012300000F07AFC012000F083FC0C2000F080FC20
:10124000032000F07DFC172000F07AFC00F025FE62
:101250006A460221EC4800F0FCFFEC499DF80100D1
:1012600008709DF80000532800D0032605210120B6
:1012700000F072FC05210C2000F06EFC062103201A
:1012800000F06AFC0621172000F066FC012000F047
:101290003FFC032000F03CFC172000F039FCA57057
:1012A0006570E5703046F8BD38B50D4600901446BF
:1012B0000421684601F010FBD5498978C90602D59A
:1012C000062D00D1401C0099A16484F8440038BD6B
:1012D000106570472DE9F047CD4C0646CD4D0020F6
:1012E00084F83C0029684FF002084FF0E90991F8B2
:1012F00045076074C8484FF0010AC0F30E07204646
:10130000042E806A06D0032E1DD0022E3DD0052E5D
:1013100056D07CE0BE4A3146FFF7C6FFE06A206542
:10132000E787A07880060028286890F8590703DA34
:1013300020F0060040F0040084F8420084F8438066
:1013400084F8409063E0B24A3146FFF7ADFFE06AAF
:101350002065AF480421283001F0BEFAAE4901EB08
:101360008000C0F30E00E087A0788006002828687F
:1013700090F8590703DA20F0060040F0040084F8E2
:10138000420084F84380ED2017E0A14A3146FFF780
:101390008BFFE06A2065E787A07880060028286830
:1013A00090F8590703DA20F0060040F0040084F8B2
:1013B0004200042084F84300E52084F8400026E041
:1013C000A278920623D501F2C9310A7804F8342FA5
:1013D000CA78A2704A7862718978A17184F808A0ED
:1013E0008B4A3146FFF760FF8B48F830C0F30E00A0
:1013F0006081286890F8590720F0060040F002004C
:10140000A07384F80F8084F80C90A4F13404286849
:1014100090F80A17C90708D08049C1F800A014F84D
:10142000410F40F00300207008E0A17890F86C07AD
:10143000890701D520F0030084F841007148467007
:10144000BDE8F047724800F002BE2DE9F047704C4D
:101450004FF00009DFF8BC8184F83C90E127054695
:1014600084F84070D8F800006E4A664E90F8451730
:10147000617490F80A175FEAC17C6949C1F30E03F1
:101480002146498801D0012D04D0062D20D0072DFA
:1014900038D04DE0E77C377171710A27E77441F06D
:1014A00001016180E38790F85337127803F0F0036D
:1014B00002F00F021343E37690F855076077C806F1
:1014C00002D5F12084F84000514A2946012015E058
:1014D000E38790F85337127803F0F00302F00F021D
:1014E0001343E37690F855076077C80603D547F0B5
:1014F000100084F84000464A2946A068FFF7D4FE51
:10150000E06814E04849C1F30E01E18790F85317F1
:10151000127801F0F00141EA1211E17690F8000230
:1015200060773B4A2946206AFFF7BEFE606A206565
:101530006188C80705D094F8400040F0020084F8A4
:101540004000D8F8000090F80A27D20716D0062DE0
:1015500004D0072D02D0012D05D017E014F8410F5B
:1015600020F0030008E02D49C1F8009014F8410F65
:1015700020F0030000F10200207007E090F86C07F3
:10158000890701D520F0030084F841007570BDE89B
:10159000F0471F4800F015BD06280CD007280AD0D8
:1015A000012808D0042805D0032803D0052801D03D
:1015B000022801D18EE648E770472DE9F843114D26
:1015C0008146012901D10020A871AC79174F641C14
:1015D000104EA7F124080FE0306890F80A07C00702
:1015E00002D057F8242001E058F8242069464846E4
:1015F000904701281CD0641C082CEDD90020BDE8C0
:10160000F88300001C011000041000207401100079
:10161000F40810002801100080870120280A002209
:1016200000800120F6FF0100F088012074EB00002B
:10163000AC719DF80000E2E72DE9F0410178002946
:1016400032D001465422F74801F082FCF64E306851
:1016500090F80A07C0070AD0F248017811F0760F17
:1016600005D08278920702D441F080010170EF4CDE
:101670006078002818D10121EA48FFF79EFF050095
:1016800012D0EB4801270770306890F8181149070D
:101690000CD590F84307800708D400F0C0FDA77070
:1016A0000A2000F0CDFD6570BDE8F08100202070BB
:1016B0002846BDE8F0416FE7DB48DA49006890F85A
:1016C00000224A7790F80122CA744A88D20504D4CD
:1016D00090F8022202F00F028A7400F203200278CE
:1016E00002F03F020A75B0F801200A83C2788A76B8
:1016F000D04A0079127800F0F00040EA1210C87663
:101700007047002070478268120005D000780006FC
:1017100002D50120087070470020704782681200CF
:1017200006D00078C00703D006200870012070475B
:1017300000207047026A120006D00078000703D527
:10174000072008700120704700207047826A12004D
:1017500008D0C26A32B10078800603D50220087032
:101760000120704700207047826A120006D000787E
:10177000C00603D50520087001207047002070477F
:10178000826A120006D00078800703D50420087012
:101790000120704700207047C26A32B100784007CC
:1017A00003D50320087001207047002070470020F7
:1017B00008700120704770B59C4D9B4C9E4E687818
:1017C000042807D12068407D420006EB40019B4879
:1017D00001F0BEFB687803280CD12168087D497DA3
:1017E000420000EB410106EB4101BDE87040944826
:1017F00001F0AEBB70BD00B585B000F01BFB012051
:101800008DF800008F4801908B48029000F5B87168
:101810008648C27801EB420103910021C1708648DD
:10182000F83004907F4841686846884705B000BD9D
:101830002DE9F05FDFF8F0A17F4D0024DAF8000019
:101840004FF0010B90F80007C00729D075483730DA
:1018500001784678B1FBF6F706B90126DFF8CC81AE
:1018600098F80100042802D0032802D00AE03A24A4
:1018700021E06C4840240421283001F02DF86E4905
:1018800001EB800598F8010002280AD005280BD04A
:10189000042810D003280ED002280CD005280AD026
:1018A00098E07A24644D06E0DAF80000624D3A24AC
:1018B00090F80177F835D8F808108946B94277DCF6
:1018C000B9F1000F04D14FF4F8715F480DF06FF8D3
:1018D00098F801005C494346042803D0032801D04E
:1018E00002280BD1002207E051F822C035F91280FE
:1018F000C44441F822C0521CA242F5DB05280BD19A
:10190000002207E051F822C035F91280C44441F8A2
:1019100022C0521CA242F5DB09F101029A60BA42D0
:1019200054DB00229A60042803D0032801D0022847
:1019300038D1DAF800005246D0F8047700202FE0C2
:10194000D2F800C09CF851815FEAC86819D5DFF869
:10195000FC8098F80080B8F1010F12D193F8018053
:10196000B8F1040F0DD19CF815C0844509DD8444FD
:1019700031F8208031F82CC0C444DFF8D48028F836
:1019800010C031F820C0DFF8CC800CFB06FCACEBBB
:10199000070C25F810C051F820C048F820C0401CA2
:1019A000A042CDDB5878052814D100202A4A0AE04D
:1019B00010E000BF31F8203025F8103051F8203009
:1019C00042F82030401CA042F4DB03E0FFF7E4FDC6
:1019D0004FF0000B5846BDE8F09FF0B585B0FFF71B
:1019E000EAFE104EB078400603D4FFF721FF00282E
:1019F00016D00D4F0D4C386890F80A07C00708D074
:101A00006078012805D12079F0746079708007F042
:101A1000B3F900210348FFF7D0FDF8B1FFF7BCFD93
:101A200005B0F0BDF4081000280110001C011000E2
:101A30007D011000F6FF010080870120CC8E01207F
:101A4000088F012000800120048901203F0110003F
:101A5000EC2B0120F48A0120E48C0120444800256D
:101A600065700570386890F80A17C90701D04149B8
:101A70000D60414AA421117390F81801400702D566
:101A8000A57000F0C8FB2078012813D08DF8005015
:101A90003A48019000F5F0600290E17800F5B870E6
:101AA00000EB41000390E57035480490716868468A
:101AB0008847B5E702208DF80000E9E770B53148A6
:101AC0002B4D4FF00004016891F8180142072E4891
:101AD0000AD591F84317890706D48178012908D0DF
:101AE00002290FD0032903D18470FFF784FE2C70E4
:101AF00070BD0221817000F096FBBDE8704032207D
:101B000000F09EBB032181704078BDE8704043E542
:101B100000F01F020121914040094FF0E02202EB4A
:101B20008000C0F80011704700F01F0201219140B1
:101B300040094FF0E02202EB8000C0F880117047AE
:101B400000F01F020121914040094FF0E02202EB1A
:101B50008000C0F8801270474907090E002803DA98
:101B600000F00F00094A00E0094A81547047000064
:101B70007D011000280A00220010002000800120B2
:101B800078880120280110001C01100014ED00E0ED
:101B900000E400E0FD4801680029FCD17047F0B581
:101BA00027260022F94DFA484FF4F8315C270C46FD
:101BB0005FF0000303EB000E11F803C05B1C8EF80E
:101BC00060C00C2BF6DB2B68002BFCD18276C7762D
:101BD00004F10C0103EB000E11F803C05B1C8EF83E
:101BE00060C00C2BF6DB29680029FCD1511C8176E2
:101BF000C776921C04F13001B242D8DBF0BD2DE96A
:101C0000F0479246089E5B1EC6F108010022E04C98
:101C100001F0FF0C1546002189469A420BDA00EBD1
:101C20000208875C98F8018027FA06F708FA0CF892
:101C300047EA080703E007D1875C27FA06F701EBBC
:101C4000040888F8607003E001EB040888F86090ED
:101C500001F1010102F101020C29DEDBCB490F6821
:101C6000002FFCD10AEB0501A1765C21E1766D1C09
:101C7000022DD0DBBDE8F08718B5002411235C22CB
:101C80002146C4480094FFF7BAFFC24818236222D5
:101C9000002121300094FFF7B2FF18BD2DE9F04775
:101CA0000024DFF8E882BA498246254626464FF0EE
:101CB0005C0900209C4206DA00EB010C1AF8047063
:101CC0008CF8607002E0471887F86060641C401C64
:101CD0000C28EFDBD8F800000028FBD150198876DB
:101CE00081F81B906D1C032DE3DBC3E7A94800B509
:101CF00016235E2200216C38FFF7D0FFA548202371
:101D00006422002140385DF804EBC7E770B500237A
:101D10009F4C05E0CD5C1E195B1C86F860505BB2E1
:101D20009342F7DB99490B68002BFCD1A07642F077
:101D30001000E07670BD30B5974C07220220216874
:101D400001F24271FFF7E2FF2168022201F24A71BB
:101D50000920FFF7DBFF2168062201F24D710B20FD
:101D6000FFF7D4FF20688D498D4D90F8530709780F
:101D700000F0F00001F00F0108432870012229460D
:101D80001120FFF7C3FF2168072201F254711220CE
:101D9000FFF7BCFF81480122401E007800F00F01D0
:101DA000206890F85B0761F31F10287029461920FE
:101DB000FFF7ACFF2168042201F25C711A20FFF7E3
:101DC000A5FF76480222C01C294600782870734877
:101DD000401C007868701E20FFF798FF21680622DB
:101DE00001F262712020FFF791FF6C480222001D72
:101DF0002946007828706948801C00786870262081
:101E0000FFF784FF2168022201F26A712820FFF7A0
:101E10007DFF2168072201F26C713C20FFF776FFFD
:101E2000206890F8C0175F480170332141740B217E
:101E3000817430BD5C48002202605B481C3802603F
:101E40005A48026101210161826081600260016083
:101E500002604E49A0F574700B68002BFCD14C4910
:101E60000B7B43F020030B730B7B23F040030B73BE
:101E70000B7B23F080030B730B7B23F020030B738E
:101E8000C0F8D823C0F8E0234948027070473F48A3
:101E9000183001680029FCD1704730B54348002450
:101EA000743004604148803004604048C4600121BF
:101EB000C160C4600460016004603A4D2020AD1D23
:101EC000287068703249593D0873A42008732F4860
:101ED000183001680029FCD1FFF7ACFFFFF72BFF9A
:101EE000FFF704FFFFF7C8FEFFF759FE3148046013
:101EF00085F8344030BD38B50546254C806C0090DF
:101F00006073010AA173010CE173000E20740422B6
:101F100069462A20FFF7FAFE012205F144012E202E
:101F2000FFF7F4FE95F84400A074286D0090E0746B
:101F3000010A2175010C6175000EA0750422694625
:101F40003420FFF7E3FE0098800F84F84000144926
:101F5000012208703820FFF7D9FE38BD00EBC00120
:101F600001EB00106FF00A0101EB80000B49891EA4
:101F70000022097890FBF1F00E490A60094A401EE0
:101F80001F3A10700120086070470000040B002207
:101F900000100020ACF8010028011000F6FF01003D
:101FA00048091000530000201C0C0022D00300221E
:101FB0001D01100040050022CB4801680129FCD119
:101FC000E2E770B50446FFF796FFC848E18F01804D
:101FD000217C00F8011C94F840104173C44DA07C92
:101FE00085F83600042204F111010520FFF78EFE6A
:101FF000C04E02220920316801F24A71FFF786FEC5
:10200000022204F116010C20FFF780FE022204F1E7
:1020100018010E20FFF77AFE3068052204F11A013C
:1020200090F8540720771020FFF770FE012204F18A
:1020300041013C20FFF76AFEAB4801680129FCD151
:1020400094F840002873BDE87040322086E77CB5E4
:102050000446FFF750FFA548E18F018094F8351042
:1020600000F8011C94F840104173A24D296891F8C2
:102070000A07C00715D0B1F80D67B1F870078DF8E1
:102080000400000A8DF80500022201A94020FFF794
:102090003DFE300A8DF800608DF80100022269468D
:1020A00002E0022201F24A710920FFF72FFE02220C
:1020B00004F130011A20FFF729FE022204F1320157
:1020C0002220FFF723FE012204F134010720FFF74D
:1020D0001DFE012204F139010820FFF717FE01223D
:1020E00004F13A012020FFF711FE012204F13B0127
:1020F0002820FFF70BFE012204F142011720FFF711
:1021000005FE012204F143011820FFF7FFFD2868B6
:102110007949012290F8540720F0F000087012204D
:10212000FFF7F4FD94F83C00714EC00708D0286812
:1021300000F2C67190F8C60786F83600012206E064
:1021400094F8360086F83600012204F136010620A4
:10215000FFF7DCFD012204F141013C20FFF7D6FD31
:10216000614801680129FCD194F840003073BDE852
:102170007C403220F2E65F49604B0A6892F84D27B6
:1021800002700A68B2F85027428009681B7801F291
:10219000547103F00F0311F8012C02F0F0021A43FE
:1021A00002714A89C2804A8A0281CA7B8272CA7DD0
:1021B000C27249780173E7E610B504460146012270
:1021C0000B20FFF7A3FD0222A11C0E20FFF79EFDAE
:1021D0000122211D1120FFF799FD0222A11D1C20C3
:1021E000FFF794FD022204F108012420FFF78EFD81
:1021F000012204F10A012120FFF788FD012204F1E8
:102200000B012920FFF782FD04F10C010122BDE83A
:10221000104013207AE5364904200873B4E63449A7
:1022200020200873B0E63249C0200873ACE6344978
:1022300000200860A8E63249002040310860A3E68B
:102240002F4900220A60294A273A107001200860AD
:102250009AE670B5244C1C342368002BFCD11D4633
:1022600003E0C6185B1C86F880508B42F9D32368C4
:10227000002BFCD102E0C45CD4545B1C8B42FAD32B
:1022800070BD10B500F032FF1D49002040310860DC
:102290001C49097879B11448001D01680029FCD156
:1022A0001348C078400602D5174901200870BDE8E0
:1022B0001040FFF792BB1549087010BD10B500F033
:1022C00015FF0F4900200860BDE81040FFF7F6BB7E
:1022D00010B500F00BFF0A49002040310860BDE84E
:1022E0001040FFF7EBBB0000000B00225400002061
:1022F000001000202801100048091000F6FF01001E
:10230000000500221D0110001C0110007D011000BD
:10231000FEE70446012006F054FE00210F2022684B
:1023200006F064FE01210F20626806F05FFE0221C4
:102330000F20A26806F05AFE03210F20E26806F083
:1023400055FE0C210F20226906F050FE0E210F20B1
:10235000626906F04BFE0F210846A26906F046FEB0
:1023600020210F20E26906F041FE38480268212151
:102370000F2006F03BFE35481038026822210F205E
:1023800006F034FE31480C38026823210F2006F095
:102390002DFE2E480838026824210F2006F026FE64
:1023A0002A48001D026825210F2006F01FFE27483D
:1023B0003438026826210F2006F018FE234814380E
:1023C000026827210F2006F011FEFEF7F2F90246FF
:1023D00030210F2006F00AFEFEE710B5012805D0D7
:1023E000022805D0032809D0032102E0012100E0E2
:1023F0000221BDE81040032006F0E3BD00210320C8
:1024000006F0DFFDFEE710B504460146042006F0A5
:10241000D8FD012C00D1FEE710BD0146082006F0D2
:10242000D0BD0146062006F0CCBD10B504460146DD
:10243000072006F0C6FD24B1012C03D0022C02D1E6
:10244000FEE7FEE7FEE710BD0220EEE738ED00E014
:1024500000F04CBE70477047234810B5016821F06A
:102460000401016000F042FEBDE81040FEF73FBCF1
:102470007047704700F03ABE10B500F037FEBDE877
:10248000104006F0F5BF10B500F030FE17480068A8
:1024900090F82901800703D5BDE8104006F061BC23
:1024A00010BD704700F022BE7047704770477047FC
:1024B00070477047704770477047704710B500F01D
:1024C00015FEBDE81040FEF747BB704710B500F0A1
:1024D0000DFE07480078012803D1BDE8104001F047
:1024E00043BB10BD7047704710ED00E0280110009D
:1024F0007C01100010B5422186480CF036FA854860
:102500008549864A0180428085498180854BC38008
:10251000854C0481854C4481854C8481854CC481E3
:10252000854C0482854C4482854C8482854CC482CF
:10253000854C0483854C4486854C8486854CC486B2
:10254000854C0487C387428781878449A0F840105F
:1025500083480168814801F24E710A884280CA8925
:10256000C280C98A018110BDF0B585B0FF22142157
:1025700068460CF0F2F96846FEF728FD03980E2530
:102580000127072645F2AA54A04202D00498A0428F
:102590003BD1DDE90001884206D00299884203D090
:1025A0000198884208D100900498A04210D1009868
:1025B000000E012805D007E05FF00000FFF731FFB3
:1025C0000FE00098C0F301370098C0F3032602E043
:1025D0000120FFF726FF0398A04214D1009800F0D5
:1025E0000705604907F0030040EA061081F8600023
:1025F000012088761120C8765B48017865F30401D4
:10260000017005B0F0BD0220D8E70120FFF709FFF7
:10261000F9E770B5FEF74FF9FEF738FB504D286823
:102620000078A52802D00120FFF7EDFE28684FF0C2
:1026300000064FF0010490F829118A074FF0085165
:1026400004D5C1F89863C1F8804301E0C1F898430C
:1026500090F82811454A01F00101116090F8281105
:10266000121DC1F34001116041490C60091F0C604B
:10267000091F0C6090F8C800C1070BD0810709D56D
:10268000C0F38200012805D137483130017821F0AC
:1026900007010170FEF70EFCFEF724F9FEF7B8FD06
:1026A000032801D1FFF799FEFEF75CFBFEF7A8FBBC
:1026B000FFF75AFF286890F8290181072D4801D5B6
:1026C000046000E00660046070BD10B54FF000517A
:1026D00040F265104881FFF79CFFFFF70BFF26498A
:1026E0003F200860254900200860264824490160F1
:1026F00001F5086024490860244800F0F9FAFDF764
:10270000BBFD00F045F8FDF7B5FDFDF739FE0120F2
:1027100010BD00000000012000800120A09E0120CB
:1027200020A601204200012080870120BA29012033
:10273000F62901203C2A0120782A0120A03001201E
:10274000DC300120CE2501200A260120AE290120FF
:10275000C8960120D4960120C2250120EC22100049
:102760002801100000100020200000208804002212
:10277000280A00227C040022382A0120700110005F
:10278000D81010005401100058011000D82110007A
:102790007FB5FDF7CDFD204D002400BF05EB4410B3
:1027A00000F11002017F4CCACDE90261CDE900239E
:1027B0000FC8FDF79BFF10B10120FFF736FE641C28
:1027C000072CEBDB144D002415F1E00504EB44006D
:1027D00005EB8001091D55F8200006C9FDF706FF2D
:1027E00010B10120FFF721FE641C072CEEDB0B4D1E
:1027F000002400BF05EBC400416855F83400FDF724
:1028000015FE10B10120FFF710FE641C062CF1DB51
:102810007FBD4068FFF718BE98EB0000CCEC0000CD
:102820002DE9F0479246012547F6F872564299463F
:10283000AC460024089F16E030F8143031F81480BC
:10284000A8EB03031BB29A4200DD1A469E4200DA4F
:102850001E46002B02DA4FF0000502E001DD4FF0CA
:10286000000C04F10104BC42E6DB55EA0C0306D07F
:10287000012D01D02DB108E0BCF1010F05D10022DE
:1028800003E0BCF1010F00D1324600252C462B4657
:1028900011E000BF30F8136031F813C01644ACEB00
:1028A000060636B24E4505DAC9F1000C664501DD73
:1028B0003544641C5B1CBB42ECDB95FBF4F10A4421
:1028C000002105E030F8113013442AF81130491C7A
:1028D000B942F7DBBDE8F08770B503460020024639
:1028E000FE4C09E09D5C521C05F00F0604EB15152B
:1028F000A65D2D78304428448A42F3DB70BD8842BF
:1029000000D308467047884200D80846704788427E
:1029100000D30846904200D3104670472DE9F04797
:10292000D0F810C00568046A85FB0C12A1FB0412E4
:1029300042694368914683FB02628269E246A6FBD4
:1029400002677618D0E9021781FB07C8C069ACFBA3
:1029500000C81CEB060682FB0A2CA2FB011280FBBE
:102960000902A0FB0502401884FB0712A1FB031219
:102970000818301A4FEAE071ACE72DE9F04389B04E
:1029800004460068009060680190206902906068C9
:10299000039020690490A069059020690690A069C1
:1029A0000790E06908900D466846FFF7B7FF80463C
:1029B000A0680190E06804906069079089466846C5
:1029C000FFF7ACFF064660680190A068029020699E
:1029D0000490E0680590A0690790606908900F4630
:1029E0006846FFF79BFFC5E90401C5E90267C5E931
:1029F000008909B0BDE8F0832DE9FF4F4FF0000AD0
:102A000089B09B465746D146D04656465546544611
:102A1000202168460BF0CBFF0B9810E00999824407
:102A200031F9102000FB00F102FB016688444143AC
:102A300002FB009901FB004417440D44401C58451B
:102A4000ECDD0B99ABEB0100401CCDE9000ACDE9B0
:102A50000654CDE90486CDE9027968460A99FFF764
:102A60008CFF0DB0BDE8F08F9D480068017B427B74
:102A700041EA0221827BC07B41EA024141EA0060D7
:102A800040007047964800680179427941EA022186
:102A90008279C07941EA024141EA0060704700B59D
:102AA000FFF7E2FF4008400000BDF8B50E460446BF
:102AB000FFF7F5FF0090FFF7D7FF054604216846B2
:102AC000FFF70AFF04EB4007002400992046234645
:102AD0004FF0010C0CFA03F20A4207D02A4204D04C
:102AE00037F8102026F81420641C401C5B1C1E2B99
:102AF000F0DBF8BDC6E7FCB50E460746FFF7CFFF93
:102B00000190FFF7BFFF0090FFF7BCFF05460421CF
:102B100001A8FFF7E1FE044604216846FFF7DCFE4A
:102B200000EB440007EB40070020009904460346F1
:102B30004FF0010C0CFA03F20A4207D02A4204D0EB
:102B400037F8142026F81020401C641C5B1C202B36
:102B5000F0DBFCBD70B562490020096801F5F57431
:102B600091F8E8518DB191F8E6214FF00103D207B9
:102B70000DD0002203FA02F6354203D0A65C03FA18
:102B800006F10843521C062AF4DB400070BD91F8A0
:102B9000E91103FA01F0F8E770B55149002009681E
:102BA00001F5F57491F8E851002D09D091F8E6216E
:102BB0004FF00103D20704D091F8E91103FA01F0B4
:102BC00070BD03FA02F6354203D0A65C03FA06F1A3
:102BD0000843521C062AF4DB70BD70B50022404C3D
:102BE000012303FA02F6256895F8E851354203D02F
:102BF00030F8125021F81250521C062AF1DB70BD39
:102C000000B5FFF731FF40F0010000BD3AE7354A5B
:102C1000520102EB810101F108510860704701EB9C
:102C20008010801001EB41014900182291FBF2F362
:102C300000EB400000F5F83002FB1311006820F0B3
:102C40007F40C84000F03F00704701EB80108010CB
:102C500010B501EB41014900182391FBF3F403FB8C
:102C6000141300EB400000F5F8303F2401689C404D
:102C7000A1439A400A430270110A4170110C8170FD
:102C800010BD821002EB4202114400EB40004000F4
:102C9000182290FBF2F301F5F83102FB13020868E9
:102CA00020F07F40D04000F03F007047831003EBDE
:102CB00043031A4410B500EB40004000182390FB7A
:102CC000F3F403FB140302F5F8323F2410689C4030
:102CD000A043994001431170080A05E0FCEC000094
:102CE00028011000382A01205070080C907010BD87
:102CF0002DE9F14F782100980BF059FEFFF780FF86
:102D00004FEA5008FFF7BEFE4FF0000C81466646C2
:102D10004FF0010A0AFA06F111EA090F1ED0002449
:102D2000012725460AFA0CFB0AFA05F010EA080FFB
:102D30000FD031462846FFF772FFA04207D0009916
:102D4000009A51F8271041EA0B0142F82710044677
:102D50007F1C6D1C272DE7DB0CF1010C761C202E4F
:102D6000D8DBBDE8F88F2DE9F04F8346F948002401
:102D70002246D0F800A001219AF81450A5F10106CE
:102D800021E003200123DFF8D0E303FA01F99AF8E8
:102D9000157015E05EF820C01CEA090F0FD0A0F1F5
:102DA000010300FB051C03FB05183BF91CC03BF9A4
:102DB0001830BCEB030300D55B421C44521C401C82
:102DC0008742E7DC491C8E42DBDC02B9012294FB1E
:102DD000F2F047E62DE9FF4F85B000210391029103
:102DE00001910091DB49012B0C6894F8775005F0B4
:102DF0000F0700D10027667D94F87A30C7F1100BD9
:102E0000B34200D21E4600230493012381E000BF99
:102E10004FF00009C84603241FE0CF4951F824C0F1
:102E2000012199401CEA010F04FB053130F911C062
:102E3000A4F1010101FB053130F91110ACEB0101E6
:102E400006D0002900DA4942DDF818C0A1EB0C01D8
:102E5000002900DA49428944641CB442DDDB314672
:102E60009EF815A01FE0BC4C54F821C001249C40E2
:102E70001CEA040F01FB053430F914C0A1F1010470
:102E800004FB053430F91440ACEB040406D0002CEC
:102E900000DA6442DDF818C0A4EB0C04002C00DA60
:102EA0006442A044491C8A45DDDC0499012910D103
:102EB0000199B1EB090101D5C1F10001039C214445
:102EC00003910099B1EB080100D54942029C2144CD
:102ED0000291CDE900899EF87B10994216D11168C4
:102EE000039D79430BFB0511CC1701EB14710911FC
:102EF00011609168029D79430BFB0511CC1701EB22
:102F000014710911916000210391029101215B1C50
:102F100004919049D1F800E09EF81450691E99423E
:102F20003FF776AF5068039978430BFB0100C11758
:102F300000EB117000115060D068029B78430BFBCE
:102F40000300C11700EB11700011D06009B089E5D2
:102F500004E000BF11F8013B00F8013B521EF9D21A
:102F600070477CB50D460446FFF799FD0090FFF7CA
:102F700089FD019000980421400800906846FFF701
:102F8000ABFC0646042101A8FFF7A6FC30448200F2
:102F900021462846FFF7DCFF7CBD0B466D490968DA
:102FA0004A7D097D521C4A43014652001846CFE72C
:102FB00070B5044654210BF0FAFC0020654D2070DA
:102FC0006080296891F8C51701F0010140EA4111BC
:102FD00061802A6892F84527D20941EA021161808E
:102FE0006060FFF70DFEA060FFF74CFD5B4EE060F8
:102FF0007088E082286800F24670C27A817A02F016
:103000003F0241EA022121834178E17490F87A106D
:1030100021740178A17481782175017BA1765049D2
:10302000407B097800F0F00001F00F010843E076E2
:10303000FFF790FD2062FFF7AFFD6062FFF72FFD05
:10304000A062FFF71FFDE062F08820866086286896
:1030500000F2C170017884F83410817884F835105A
:10306000C17884F8361010F8BF1C84F8371001219D
:1030700084F83810417884F8391010F85F1C84F80F
:103080003A1010F8571C84F83B1010F86B1CA1770D
:1030900010F8550C84F8410070BD3F21B0FBF1F1F0
:1030A0003F314908B0FBF1F211444908B0FBF1F09F
:1030B00008444008704710B50446FDF7DDF8012CC0
:1030C0000BD12448006890F81801800705D5FDF75A
:1030D000FAFB38B1FDF7F3FB04E0FDF7F4FB08B9A8
:1030E000FDF7E9FBBDE81040FDF7C4B80020E2E7BA
:1030F000184B10B51A68947E640704D5D28A046808
:10310000A2EB040202601A68947EA40703D5128B16
:103110000C68121B0A600268002A00DA00220260B2
:103120001C68E48AA24200DD224602600A68002A86
:1031300000DA00220A601C68248BA24200DD2246CD
:103140000A601B689B7EDB0702D003680B6002608D
:1031500010BD000028011000D8211000EC22100042
:10316000F6FF0100F0B500252C4608E031F91460A7
:1031700030F91470F61B964200DD6D1C641C9C42F5
:10318000F4DB022D01D90120F0BD0020F0BD2DE9B6
:10319000F04F9246DDE909B7012547F6F87256422D
:1031A0009946AC46002416E030F8143031F814800B
:1031B000A8EB03031BB29A4200DD1A469E4200DAD6
:1031C0001E46002B02DA4FF0000502E001DD4FF051
:1031D000000C04F10104BC42E6DB55EA0C0306D006
:1031E000012D01D02DB108E0BCF1010F05D1002265
:1031F00003E0BCF1010F00D1324600252C462B46DE
:1032000011E000BF30F8136031F813C01644ACEB86
:10321000060636B24E4505DACBF1000C664501DDF7
:103220003544641C5B1CBB42ECDB95FBF4F10A44A7
:10323000002105E030F8113013442AF81130491C00
:10324000B942F7DB0EE4F0B5064600200446054619
:10325000521C059F0AE000BF36F911C09C4504DDF1
:10326000A44502DD64460D460120491C9142F3DB72
:103270003D60F0BD70B50A4B1B685C7D1B7D641C16
:103280005C43002308E000BF32F8135030F81360AD
:10329000AD1B21F813505B1CA342F5DB70BD000091
:1032A0002801100010B501461422FD48FFF750FE1A
:1032B000BDE810404FF400610120FDF7D7B870B5AC
:1032C00096B006460D4614466846FFF771FE14F0A8
:1032D000050F02D001208DF80000F248E10609D563
:1032E000016891F8E81129B19DF8001041F008013A
:1032F0008DF8001014F4F17F2CD0036893F850017E
:10330000C00706D193F8040318B993F8B001C007B9
:1033100020D093F80A07C0079DF8000002D040F0C3
:10332000060001E040F020008DF8000014F0050FC9
:1033300010D19DF8000003F2211340F001008DF838
:10334000000058788DF8130018788DF81A009878D6
:103350008DF81E00ADF83250ADF81660ADF8305063
:10336000AFF2BF00CE4E03244FF4006501906846D3
:10337000FEF762F915AB002229460120FDF7C5F8DA
:1033800029460120FDF7A0F83078002804D0FFF787
:1033900024F8641E002CEADC16B070BD10B504469B
:1033A000C0070ED04FF4F061BF480BF0DEFABF4803
:1033B00000210160416081604FF4F051BC480BF086
:1033C000D4FA14F0420F07D03C21BA480BF0CDFAE2
:1033D0004021B9480BF0C9FAA0060AD5F021B74838
:1033E0000BF0C3FABDE810404FF48071B4480BF005
:1033F000BCBA10BD2DE9F0410746AA48006890F814
:103400002010490710D590F821000125C0F30110C4
:1034100085400024AB4E05E0F18870883A46FFF7FE
:103420004EFF641CAC42F7DBBDE8F0812DE9FF4F95
:1034300089B00446FFF7EAFB0790FFF7E1FB06902F
:10344000042106A8FFF748FA0546042107A8FFF75C
:1034500043FADFF850B245434FF0010ADBF80000B1
:103460004FF4885190F8210000F007070AFA07F995
:1034700095480BF09CFA182168460BF098FA002644
:103480003AE090482246C1880A98FFF718FF14F0E6
:10349000050F13D082488D49406804F0F2FF8B4A33
:1034A0000020894908E000BF51F8203032F910C0EF
:1034B000634441F82030401CA842F5DBE0061AD5F1
:1034C00077488349C068FFF788FBDBF80010804B22
:1034D000002091F8E82169460AFA00FC12EA0C0F74
:1034E00006D051F820C033F91080C44441F820C000
:1034F000401C0628F0DB761C4E45C2DB14F0050F9D
:103500000BD00020704A06E052F820100B9B394186
:1035100023F81010401CA842F6DBE00613D500206B
:103520005A4651466C46136801FA00F593F8E831A3
:103530002B4205D054F820300C9D3B4125F810302B
:10354000401C0628EFDB0DB0BDE8F08F2DE9F74FEA
:10355000544D82B09246286890F85011C90706D1A0
:1035600090F8041319B990F8B001C0076AD0FFF7BA
:1035700096FA0090FFF7BEFA019004216846FFF723
:10358000ABF90446042101A8FFF7A6F92044440042
:1035900028680126A94690F8210000F00707BE40E0
:1035A000A10049480BF003FA0025DFF81CB122E026
:1035B0004448DDE902214088FFF781FED9F8001078
:1035C000374891F8C517D0F80880C90704D00169B9
:1035D0004246404604F06AFE0020594608E000BF1B
:1035E00051F8203038F910201A4441F82020401CAE
:1035F000A042F5DB6D1CB542DADB334D00215A46A3
:1036000006E000BF52F82100384125F81100491C9E
:10361000A142F7DBD9F8000090F85011C90703D197
:1036200090F8B001C0070DD0029810F0220F09D019
:103630002846DAF80010FFF738FA2846DAF80410BE
:10364000FFF759FA05B07FE72DE9F0479A46154B89
:10365000894600210125194E1C681AE032F8113004
:1036600030F81170DB1B1FB200230AE0C3EB031C10
:1036700006EB8C0C5B1C3CF811801BB2B8442CF898
:10368000118094F880C305EB9C1C9C45EEDC491C22
:1036900009B2637D8B42E1DC0020094A33E000007F
:1036A000183B10002801100042000120C225012013
:1036B000C2070120CE2501200A2601204227012031
:1036C0006E280120EC221000D810100058091000BC
:1036D000AE2901203AF8103039F81010591A0BB2FF
:1036E000002108E002EB8116491C36F8107009B27F
:1036F0001F4426F8107094F8806305EB96168E42EE
:10370000F0DC401C00B2217D8142E3DCBDE8F087A3
:103710002DE9F041FE4DFF4E0746002428680023A6
:1037200000EB4400B0F80211C4EB041006EBC01229
:103730003846FFF77BFE641C042CEFDB74E62DE9B2
:10374000FE4FF34C824600F49070216891F880138C
:10375000490737D5002835D000252F46DFF8B88334
:10376000DFF8B893012611E000EB4500C5EB051228
:10377000B0F8B21308EB8200009009EB8510CDE998
:1037800001076A465046FFF7E1FE6D1C206890F87D
:10379000801306EB9111A942E6DC90F85011C9079D
:1037A00010D090F8911109060CD5407DDA494200FD
:1037B000DB48FFF7CDFB2068D849007D4200D9489F
:1037C000FFF7C6FBBDE8FE8FFEB5014610F0820094
:1037D00032D0CF4A01F49076D349126800240123F5
:1037E00092F88053C98803EB951306E002EB440777
:1037F000B7F8B273B94202D0641CA342F6DCA3420C
:103800001BDD6B0719D5C6B192F85001C00703D173
:1038100092F8B001C0070FD0BF49C4EB041001EB10
:1038200080013C22C148FFF793FBBC48402200EBDB
:103830008411BF48FFF78CFBFEBD00220292BB4AF9
:103840000092BB4A01926A46FFF780FEFEBD2DE959
:10385000F04104460020FCF7F4FE0320FCF7F1FEE3
:1038600014F040050AD03C22B049B248FFF770FB83
:10387000B0484022AE493C30FFF76AFB2046FFF7D4
:103880008DFDAD490020401C8842FCD3AB48017837
:10389000012904D1002101702046FFF7ABFD9C4EA9
:1038A00004F00400316891F8D010490703D510B135
:1038B0002046FFF72DFF316804F4907091F88013D3
:1038C000490703D510B12046FFF739FF14F011075F
:1038D00006D095489A4B9B4A41883846FFF7A6FD8B
:1038E000F8070FD0306890F8200000070AD59548F7
:1038F000FFF739FA94490123944A08600146914838
:10390000FFF768FA14F0820F02D02046FFF75CFF41
:103910005DB1306890F88003400706D58549844B37
:10392000824A3C318348FFF78FFE894901200870A5
:103930008849087005F0FEF90020FCF79DFEBDE8FF
:10394000F0410320FCF798BEF0B471490022714C9D
:103950000B68B3F80211814213D2B3F80811814207
:1039600001D803220DE0012103EB4105B5F8025116
:10397000A84201D10A4602E00DD2A1F101028A4219
:103980000DD1C2EB021004EBC011F0BC4FF4F06299
:103990006C48FFF7DDBA491C0429E5DBF1E703EBCE
:1039A0004103684DB3F80021B3F80231801A0002D8
:1039B0009A1A90FBF2F3C1EB011100204FF47076DC
:1039C00004EBC11101EB4002A2F5F06231F91040A5
:1039D000B2F90020A41A5C4302EB242225F810203F
:1039E000401CB042EEDBF0BC70472DE9F041484985
:1039F0000025494A0968494EB1F8B23383421AD2C8
:103A000091F880339C0901EB4407B7F8B273874201
:103A10000AD9012404EB931313E000BF01EB440720
:103A2000B7F8B273B84201D1254602E008D2A4F13A
:103A30000105A5421CD191F85001C00708D103E04F
:103A4000641CA342EADCF6E791F8B001C0074CD051
:103A5000C5EB051002EB80013C223448FFF778FAF1
:103A600006EB8511BDE8F04140223148FFF770BAFE
:103A700001EB4405B5F8B033B5F8B253C01A0002F3
:103A8000EB1A90FBF3F391F85001C00703D191F8C2
:103A9000B001C00729D0254DC4EB0411002002EB72
:103AA000810100BF01EB400231F9107032F93C2C6A
:103AB000BF1A5F4302EB272225F81020401C1E2866
:103AC000F0DB1B4D002006EB841100BF01EB400230
:103AD00031F9104032F9402CA41A5C4302EB242245
:103AE00025F81020401C2028F0DB9DE410B51A4971
:103AF00001201A4A087000241460194948710623ED
:103B00004B72164B483B1C60FF240C70106029E080
:103B100028011000C2070120422701206E28012041
:103B2000322801206E290120EC221000CE25012030
:103B30000A2601209C3A100020A107003001100045
:103B4000C2250120420001205C011000502210001B
:103B50003E011000670110007C0110004C0500229E
:103B60002E000020186010BD0B49002008600B4992
:103B7000CA78094B48331860C2F1F4020978D2B20E
:103B8000491CB2FBF1F1064A11705521521E117009
:103B90000449087070470000040500223700002027
:103BA000F4FF01007C01100010B501461422FE480C
:103BB000FFF7CEF98021BDE810400120FCF756BC8C
:103BC00030B597B004466846FFF7F2F90021012CA2
:103BD00004D0032C04D0022C0AD01EE0012000E007
:103BE00008208DF812108DF800008DF8101014E0E8
:103BF000EE48006890F80A07C00701D0062000E0F0
:103C000020208DF80000EA488DF836108DF8351028
:103C1000416849000A9180680B90BDF80200AFF23C
:103C2000770140F4A670E04D0191ADF80200032445
:103C30006846FDF701FD15AB002280210120FCF74D
:103C400064FC80210120FCF73FFC2878002804D088
:103C5000FEF7C3FB641E002CEADC17B030BD2DE973
:103C6000FC5F4FF0000BFEF775FF0446FEF794FF74
:103C7000D04907460020086048608860CE494FEA76
:103C8000540980460860486088604FF0010A0320AC
:103C9000FFF796FFC44800242646C068CDF8000010
:103CA0000AFA06F010EA090F38D000250AFA05F1E1
:103CB000394230D0BD490AFA04F0096891F8E81198
:103CC000014228D029463046FEF7A9FFB749B94A34
:103CD000096832F91430B1F834C1B3EB0C01009B20
:103CE00033F91430A3EB0C0C00D54942BCF1000FA2
:103CF00001DACCF1000C614504DBAF4922F8143045
:103D000021F814003F2805D2401CC2B22946304693
:103D1000FEF79BFF641C6D1C202DC7DB761C272E35
:103D2000BEDBFDF73CFF08F10108B8F1400FAEDB48
:103D3000012000900320FFF743FFD0460026DFF864
:103D40006CA2354608FA05F010EA090F1ED00024CF
:103D500008FA04F1394216D0DAF8001008FA06F031
:103D600091F8E81101420ED09348214610F8160050
:103D7000019002462846FEF768FF01983F2801D3CC
:103D800000200090761C641C202CE1DB6D1C272D8C
:103D9000D8DB009810B90520FEF73FFBFDF7FFFECA
:103DA0000320FFF70DFF80488449C068FEF715FF28
:103DB000DAF80040814D002094F8E831424600BF17
:103DC00002FA00F10B421CD035F91010002902DC78
:103DD0004BF0020005E040F6FF76B14203DB4BF00A
:103DE0000100834610E0B4F83471B4F8BE6107EB0B
:103DF000060C8C4505DABF1B8F4202DD0EB14BF07D
:103E0000040B401C0628DBDB5846BDE8FC9F2DE96F
:103E1000F05F66490A6892F8300105066848037841
:103E200003F00F0407D492F83E1121F00F01214353
:103E30000170BDE8F09F0025DFF86CA18346047097
:103E40002E46012789460320FFF7BAFE5B49DAF8C0
:103E50000C00FEF7C2FED9F80020584B002092F863
:103E6000E81100BF07FA00FC11EA0C0F05D033F986
:103E700010C0B2F84D81C445DBDB401C0628F1DBE5
:103E80000F2D08D26D1CEDB244EA0510761C8BF89C
:103E90000000102ED7DBBDE8F05F0420FEF7BDBAAE
:103EA0002DE9F04100240120FFF78AFE3E484568D5
:103EB0003E4801684A7D087D521C00FB02F61CE06A
:103EC00035F91020002A02DC44F0200414E040F60A
:103ED000FF739A4202DB44F010040DE0B1F8347134
:103EE000B1F8BE3107EB030C944505DAFF1A97428F
:103EF00002DD0BB144F04004401C8642E0DC204669
:103F0000BDE8F081024618215FF0010000FA01F3DC
:103F1000134201D1491EF9D5491C8840104370470E
:103F20002DE9F05FFEF76CFE0546FEF76FFE1F4CB5
:103F30000746206890F84507000603D52846FFF796
:103F4000E1FF05464FEA55094FF4F0611D480AF0BC
:103F50000CFD4FF027084FF0000A0120FFF730FE5C
:103F600011480026D0F804B010480068047D46E0EF
:103F7000012000FA06F111EA090F3FD000250120C7
:103F8000A840384237D029463046FEF748FE074958
:103F9000DFF830C009683CF91430B1F83421991ABF
:103FA0003BF9143010E000002C3B100028011000F9
:103FB00080011000C8960120D4960120AE2901206E
:103FC000F6FF0100A09E0120A3EB020200D54942AA
:103FD000002A00DA5242914204DBFF492CF81430E7
:103FE00021F814003F2805D2401CC2B229463046B1
:103FF000FEF72BFE641C6D1C202DC0DB761C464595
:10400000B6DBFDF7CCFD0AF1010ABAF1400FA4DBE3
:10401000F2484FF0010B00250068067D012101FAEE
:1040200005F010EA090F16D000240120A040384204
:104030000ED0E948214610F816008246024628466E
:10404000FEF703FEBAF13F0F01D34FF0000B761CD1
:10405000641C202CE9DB6D1C4545DFDBBBF1000F48
:1040600002D10320FEF7D9F9FDF799FD0120FFF7F2
:10407000A7FDBDE8F05F13E72DE9F05FD74A1168AF
:1040800091F83001C407D648037803F0F00514D046
:10409000057000264B7D0C7DDFF848A35B1CB04605
:1040A000914604FB03F783460120FFF789FD204674
:1040B000DAF80420D9F800100DE091F83E1101F073
:1040C0000F0129430170B4E632F91030B1F832C162
:1040D0006345F8DB401C8742F6DC0F2E0AD2761CC3
:1040E000F6B245EA060108F101088BF80010B8F1B4
:1040F000100FD9DBBDE8F05F0220FEF78EB970B576
:1041000001244FF404614FF4F8300AF050FCFDF73D
:1041100046FDFFF7B1FFFFF703FFB04D44EA00642F
:10412000286890F8E80128B1FFF771FEFFF797FDC6
:1041300044EA0044AA482A68401D017892F8FB2707
:1041400001F0F00102F00F0211430170A648FEF7E2
:10415000CFFD2046BDE8704005F00AB82DE9F04FCC
:10416000A24D9E4B0020D5F814906E681B68044643
:104170000246012140F6FF7B01FA02F737421CD0CC
:1041800039F914A0BAF1000F02DC40F0200013E06E
:10419000DA4502DB40F010000EE0B3F836C1B3F8A8
:1041A0004171E6460CEB0708D04503DBAEEB070C8C
:1041B000D44501DD40F04000641C521C202ADBD3B2
:1041C0000024AF69AE68224601FA02F535421AD0E2
:1041D00037F91450002D02DC40F0200012E05D455C
:1041E00002DB40F010000DE0B3F83A81B3F84391E0
:1041F00008EB090CAC4503DBA8EB090CAC4501DD71
:1042000040F04000641C521C202ADDD3BDE8F08F32
:104210002DE9F84F212176480AF0C9FB7448302176
:1042200021300AF0A2FBFDF786FDFDF725FD0420F5
:104230006E4CDFF8A8A103254FF000084FF00109EC
:1042400000900220FFF7BCFCE8072BD04FF0000BDA
:104250005F465E46616809FA06F008421AD040F6E9
:10426000AC013046FEF70DFD616931F91720DAF82F
:104270000010B1F845118A420BDA3F2809D20099A3
:104280004FF0010B0844C1B240F6AC023046FEF7D5
:104290000DFD7F1C761C202EDCD3BBF1000F01D15D
:1042A00025F00105A8072BD54FF0000B5F465E46B1
:1042B000A16809FA06F008421AD040F6CD0130464E
:1042C000FEF7DFFCA16931F91720DAF80010B1F828
:1042D00047118A420BDA3F2809D200994FF0010BAF
:1042E0000844C1B240F6CD023046FEF7DFFC7F1C29
:1042F000761C202EDCD3BBF1000F01D125F0020586
:1043000045B1FDF718FDFDF7B7FC08F10108B8F15C
:10431000640F96DB03254FF000080220FFF750FCE6
:10432000E80729D04FF0000B5F465E46616809FA46
:1043300006F0084218D040F6AC013046FEF7A1FC6A
:10434000616931F91720DAF80010B1F845118A4295
:1043500009DD40B1401EC1B24FF0010B40F6AC0286
:104360003046FEF7A3FC7F1C761C202EDED3BBF16B
:10437000000F01D125F00105A80729D54FF0000B4A
:104380005F465E46A16809FA06F0084218D040F67A
:10439000CD013046FEF775FCA16931F91720DAF836
:1043A0000010B1F847118A4209DD40B1401EC1B288
:1043B0004FF0010B40F6CD023046FEF777FC7F1C34
:1043C000761C202EDED3BBF1000F01D125F00205B3
:1043D000002D18D00EE0000020A6012028011000BA
:1043E000F6FF01002C3B1000D821100080011000C6
:1043F000ACF80100FDF79FFCFDF73EFC08F1010859
:10440000B8F1640F89DBBDE8F88F2DE9F041FF4D6D
:10441000002021212870FE480AF0C9FAFC4830210A
:1044200021300AF0A2FAFDF727FCFDF784FCF94ED3
:1044300000270220FFF7C4FBD6E9043200242046FF
:1044400006E000BF32F91010A14200DD0C46401C0E
:104450009842F7DB0020F368B26905E032F91010EA
:10446000A14200DD0C46401C9842F7DB002C09DC21
:1044700028780F2803D8401C2870FDF75CFC7F1CAF
:10448000202FD6DB40F6FE70844206DD2878401EE1
:104490002870BDE8F041FDF74EBC31E52DE9F05F35
:1044A000DC4C0020DA4F66686C3F0146034601226F
:1044B00002FA03F5354203D0FD5C854200D9284657
:1044C0005B1C202BF4D3D24DD4F80860403D002370
:1044D00002FA03F7374203D0EF5C8F4200D9394626
:1044E0005B1C202BF4D3DFF82483CB4D08F10408A8
:1044F00008F1010988F8000089F800102A68A8F17D
:10450000020AA8F1010B92F80A37DE077FD09B0759
:104510007DD502F259721479D37804F03F0403EB8D
:1045200004249579537905F03F0503EB0525167BA7
:10453000D37A06F03F0603EB0626977B537B12786F
:1045400007F03F0703EB072752060BD5631900EB73
:1045500043009AF80020F31910449BF8002001EB67
:1045600043010CE06219520002EB40029AF800008D
:104570001044F219520002EB41029BF80010114462
:10458000FEF7C1F9A449096801F20B72B1F80B37C3
:10459000834201D2A1F80B0791F80A07400734D5EE
:1045A00091F85907400617D5600040426B4291F8D8
:1045B0000B1700EB430001449AF80000081A88F832
:1045C000000070004042794200EB41001178014444
:1045D0009BF80000081A37E09AF8000063191844A5
:1045E000B1F80B17404201EB4000C0F3470188F8D7
:1045F00000109BF80000F11908441188404201EBBB
:104600004000C0F3470189F8001012E4FFE7814D34
:104610009AF800209BF800302D6802440B44FF26D6
:1046200045F080059A4209D2991A0844FF2802D819
:1046300088F8000047E588F800600AE09342F9D264
:10464000D01A0844FF2802D889F800003BE589F811
:104650000060256037E52DE9F0416D4C00206C3C91
:104660006C4B6D4A012105465F6801FA00F63E4237
:1046700009D01768265C97F84A71BE4202D9F61B2A
:10468000265400E02554401C2028EDD3604C403CCB
:104690005FF000009F6801FA00F63E4209D01768FB
:1046A000265C97F84A71BE4202D9F61B265400E0F8
:1046B0002554401C2028EDD3FFF7F0FEBDE8F04163
:1046C000FDF714BB2DE9F84F5148514D6C380646A3
:1046D000403D2C210AF06BF9402128460AF067F989
:1046E000FFF7DCFEFDF727FBFDF700FB04200324AA
:1046F000DFF820A1DFF820B100274FF0010900907A
:104700000220FFF75DFAE00727D04FF0000C624669
:104710006046534609FA00F1D3F8048011EA080F05
:1047200013D0596931F91280DBF80010B1F8381153
:10473000884509DA315CDDF800804FF0010C414416
:10474000FF2900DDFF213154521C401C2028E1D3F9
:10475000BCF1000F01D124F00104A00727D54FF0D0
:10476000000C62466046534609FA00F1D3F808800F
:1047700011EA080F13D0996931F91280DBF80010A3
:10478000B1F83C11884509DA295CDDF800804FF06A
:10479000010C4144FF2900DDFF212954521C401C1B
:1047A0002028E1D3BCF1000F01D124F0020444B170
:1047B000FFF774FEFDF7BFFAFDF798FA7F1C642F30
:1047C0009EDB032400270220FFF7FAF9E0072DD033
:1047D0004FF0000E714670465246DC46D2F8048017
:1047E00009FA00F313EA080F0FD05369DCF80080D0
:1047F00033F91130B8F83881434505DD335C1BB11E
:104800005B1E4FF0010E3354491C07E0F5FF010019
:10481000ACF801008001100028011000401C202885
:10482000DCD3BEF1000F01D124F00104A00724D590
:104830004FF0000E714670465246DC46D2F80880B2
:1048400009FA00F313EA080F0FD09369DCF800802F
:1048500033F91130B8F83C81434505DD2B5C1BB1C1
:104860005B1E4FF0010E2B54491C401C2028E5D341
:10487000BEF1000F01D124F00204002C08D0FFF794
:104880000DFEFDF758FAFDF731FA7F1C642F9ADB15
:10489000B9E59B4930B409680020034691F83021FE
:1048A00092070BD5974A91F8494101201578A54206
:1048B00003D9A5EB0404147000E0137091F83021C3
:1048C00052070CD58F4A91F84911521C40F0020052
:1048D00014788C4202D9611A117000E0137000281C
:1048E00001D030BCDAE530BC70472DE9F04784498F
:1048F0000024844D0868274690F83021920702D59D
:1049000001242F7002E090F83F212A70894690F828
:1049100030117D4E490703D544F00204377002E0A0
:1049200090F840013070002C74D02C2177480AF0A8
:104930003EF8764840212C300AF039F871482121A0
:10494000801E077071486C300AF031F86F483021D2
:104950008D300AF00AF86C49FF20891C0870491E46
:104960000870FDF7C3F9FDF787F9FDF7E4F9DFF803
:10497000A0814FF0100A00270220FFF721F9E0077D
:1049800022D0D8E9043C0020014605E03CF9112082
:10499000824200DD1046491C9942F7DBD9F800102D
:1049A000B1F83621824202DA2878401E08E0B1F8D8
:1049B0004B11814206DB28785044FF2800DDFF20A0
:1049C000287001E024F00104A00726D5002001464C
:1049D000D8F80CC0D8F8183006E000BF33F9112021
:1049E000824200DD1046491C6145F7DBD9F8001012
:1049F000B1F83A21824202DA3078401E08E0B1F87C
:104A00004B11814207DB30785044FF2800DDFF2046
:104A1000307002E00AE024F00204002C06D0FFF718
:104A20003DFDFDF788F97F1C202FA5DBBDE8F08751
:104A300070B5374C00202060FEF731F86060FEF75B
:104A400059F8A0606068042140086060201DFDF7EF
:104A500043FF2061042104F10800FDF73DFFE06001
:104A60000220FFF7ADF82B4E2169B06800EB410240
:104A70006261E26802EB410100EB4100A061FFF7D7
:104A800034FFFFF706FF1E4D286890F830018006BE
:104A900003D5FFF717FEFFF7DEFD286890F8300119
:104AA000000701D5FFF7B1FC286890F83001C00677
:104AB00001D5FFF7ADFBFDF73EF90220FFF780F8C7
:104AC000B068216900EB41026261E26802EB4101DA
:104AD00000EB4100A061FFF741FB216801430A4858
:104AE00021602A68C01C037892F8FB2763F3030255
:104AF0000270BDE8704041F0020004F039BB70471D
:104B000028011000F7FF0100F8FF010040F8010044
:104B1000800110002C3B100010B50146142294486F
:104B2000FEF716FA8021BDE810400120FBF79EBC7D
:104B3000F0B5904D06460C4628684FF0FF3197B00F
:104B400090F8B10000F00F00401C8140CF43684650
:104B5000FEF72EFA01208DF80000ADF8024028681B
:104B600000F5867001788DF8131044F00501ADF85A
:104B700002100297ADF81660AFF26301019141781F
:104B80008DF8141080787A4D8DF81A000324684649
:104B9000FCF752FD15AB002280210120FBF7B5FC8C
:104BA00080210120FBF790FC2878002804D0FDF735
:104BB00014FC641E002CEADC17B0F0BD2DE9F047B0
:104BC0006C4D4FF00009DFF8A881286800F570707F
:104BD0000478467887781AE049462046FFF7A8FF10
:104BE000D8F8040007F084FD0146286890F80B21EE
:104BF00012F00F0000D1012012094A43B2FBF0F07D
:104C000082B22146302004F0F6FAE01984B2B442B0
:104C1000E2DDBDE8F0872DE9FF5F4FF6FF764FF04C
:104C2000000A93460F46804634465546DFF84491C5
:104C30001CE000BF38F815005146FFF779FF4C48DB
:104C4000406807F055FDD9F8001091F80B2112F0DB
:104C50000F0100D1012112094243B2FBF1F080B2F1
:104C6000A04202D238F8156004466D1CBD42E1DB5B
:104C7000ABF8006003980480BDE8FF9F2DE9F04188
:104C80003C4E05468846306888B090F8D12002F046
:104C90000F01C2F30214491C641C0A2900DD0A2119
:104CA000022C00DD0224D23006AB05AAFFF7B3FFC9
:104CB000326892F8D00080071BD5BDF8146001213E
:104CC000E632ADF8006000204FF4803C6F4607E00C
:104CD00013563344634502D227F81130491C401C57
:104CE000A042F5DB002904DD06AB05AA3846FFF734
:104CF00092FFBDF814002880BDF81810A8F8001025
:104D000008B0BDE8F0817CB50020FBF79AFC1A4C96
:104D100001A968466588FFF7B1FF164E3068B0F804
:104D2000FA10BDF80400814201D9218000E0208002
:104D3000BDF8000060800020FBF79EFCBDF800007D
:104D4000854207D0306890F8D000400702D56088CF
:104D5000FEF7FAFD09490120087009490870094960
:104D60000870BDF800202946092004F027FA7CBD10
:104D7000403B100028011000EC2210003E01100002
:104D800067011000760110002DE9F0410178CE4C4A
:104D900001B1217001461422CC48FEF7D9F8CC4865
:104DA000016891F8C527D307C84A01D0136900E00C
:104DB00093684A7D6168C74D4A43002106E000BF01
:104DC00033F811605718491C25F817600668767D7E
:104DD0008E42F5DC6268521C62600168497D01FB0D
:104DE00002F6002207E08F1806EB020C33F817706A
:104DF00025F81C70521C07687F7D9742F3DC6168C0
:104E00000123491C6160006890F8B12003EB121285
:104E100091421DDA90F80A27D20713D090F8BA030E
:104E200089B200F00F00B1FBF0F200FB1211A748AD
:104E300054380029418802D041F0020101E021F0FC
:104E400002014180BDE8F041A0485438FCF7F4BBB2
:104E5000BDE8F04180210120FBF708BB2DE9FF4FA1
:104E6000DFF868B24FF6FF74002581B08A46A0468D
:104E7000ABF1540BA946944E5CE094485438FEF7CD
:104E800097F8934A116891F8C507C00701D010231D
:104E900000E002238BF80030019830F81530ABF8B1
:104EA0003030BBF8023043F00403ABF80230AFF20D
:104EB000271301F2C931CBF804300A788BF834207B
:104EC000CA788BF836204A788BF8392089788BF8A5
:104ED0003A100327C6F804907C4886F800905438AE
:104EE000FCF7AAFB6B46002280210120FBF70DFB9B
:104EF00080210120FBF7E8FA307820B1FDF76DFA48
:104F00007F1E002FE8DC734802F011FC704909682D
:104F100091F8C82312F00F0100D101211209424378
:104F200090B2B0FBF1F0A04203D20199044631F8EF
:104F300015806D1C5545A0DB0399A1F800800498ED
:104F4000048005B0BDE8F08F2DE9F041604D0646C4
:104F5000884628688CB000F2823C00F2963790F8C0
:104F6000810300F00F01C0F30214491C641C0A29DC
:104F700000DD0A21022C00DD02240AAB09AA6046EA
:104F8000FFF76CFF286890F8800380071AD5BDF8FA
:104F900024300121ADF8003000204FF4803C6D46F4
:104FA00007E03A561A44624502D225F81120491CFE
:104FB000401CA042F5DB012904DD0AAB09AA284602
:104FC000FFF74CFFBDF824003080BDF82810A8F88A
:104FD00000100CB0BDE8F0817CB50020FBF731FB80
:104FE0003D4C01A96846E588FFF7AEFF38480168E7
:104FF000BDF80400B1F8AC23824201D9A28000E0E0
:10500000A080BDF80000E0802081854205D091F8A5
:105010008013490701D5FEF7E8FC304901200870EC
:105020002F4908700020FBF727FBBDF80020294618
:105030000A2004F0C3F87CBD2DE9F843244DDFF8C5
:105040008C802868A8F1540800F2C3300488468890
:10505000077934E01D485438FDF7AAFF286890F816
:10506000C507C00701D0102100E0022188F8001018
:10507000A8F83040B8F8021041F00401A8F8021076
:10508000AFF2FB21C8F804100F49002048600F4818
:105090005438FCF7D1FA6B46002280210120FBF73F
:1050A00034FA80210120FBF70FFA0A4802F03FFB97
:1050B00002462146312004F09EF8E01984B2B44241
:1050C000C8DDBDE8F88300009C011000A83B10007B
:1050D00028011000488F0120EC2210003E01100032
:1050E000670110002DE9F041174604460D460026E1
:1050F00009E0E00703D03146384603F097FF761CFD
:105100006D084FEA340454EA0500F2D1BDE8F0819D
:1051100030B5034600204FF0FF32012505FA00F4B8
:105120000C4202D0521C9A4203D0401C2028F5D3D6
:10513000002030BDF0B50E46F94C07460125D4E9F4
:10514000151005FA06F20F2F65D2DFE807F0644369
:105150004B08106464192129323A54585C003046D7
:10516000FFF7D6FF8540A06A0543A56253E00146DC
:105170003046FFF7CDFF8540206C054325644AE0AB
:105180003046FFF7C5FF8540E06A0543E56242E02F
:105190003046FFF7BDFF8540206B054325633AE0AD
:1051A00001463046FFF7B4FF8540A06C0543A56477
:1051B00031E03046FFF7ACFF8540606B0543656327
:1051C00029E001463046FFF7A3FF8540E06C054328
:1051D000E56420E03046FFF79BFF8540606A0543A9
:1051E000656218E001463046FFF792FF8540E06BAC
:1051F0000543E5630FE0A06B0243A2630BE0206D63
:105200000243226507E001463046FFF781FF8540F3
:10521000606C054365642068401C2060F0BD10B5DB
:1052200001461422BF48FDF793FE8021BDE81040DF
:105230000120FBF71BB910B5FDF724FC0446FDF770
:10524000ABFC204310BD10B5FDF70EFC4408FDF784
:1052500081FC44EA5000400010BD2DE9F04789462A
:1052600005464FF0FF34FFF7E6FFAD4F0246002042
:105270007B6801464FF0010C0CFA01F6164200D093
:10528000641CAC4206D1B9F1010F09D022EA060034
:105290000B462021491C2029EED37B60BDE8F08716
:1052A0003046F5E72DE9F047894605464FF0FF34D3
:1052B000FFF7C9FF9A4F02460020D7F80430014695
:1052C0004FF0010C0CFA01F6164200D0641CAC42FF
:1052D00006D1B9F1010F08D022EA06000B461E21C3
:1052E000491C1E29EED37B60D8E73046F6E72DE94E
:1052F000F34F9BB004466846FDF75AFE15A8FCF72D
:105300003AFFFFF7A0FF864E40087065FFF793FF56
:10531000854D4FF00C084FF01F094FF0400A4FF039
:10532000910BB065012C0DD02027022C23D0032C2B
:1053300027D0042C2AD0052C31D0062C4FD0082C95
:1053400065D073E0FDF75CFC0290FDF75FFC039015
:1053500001208DF800008DF81AB03C20ADF818003F
:105360000298ADF816808DF814908DF813A04008BF
:105370007065039859E0FFF766FF0A90FFF75BFF3F
:1053800014E0FFF758FF01210B9003E0FFF753FFF4
:1053900000210B901C98FFF785FF0A9007E0FFF7AC
:1053A00052FF0A9001211C98FFF757FF0B908DF8D0
:1053B0000070286800F55A7081788DF83410C17833
:1053C0008DF8391001788DF83A1041788DF83B103E
:1053D0008188ADF830100089ADF8320026E0FFF783
:1053E00032FF0A90FFF727FF0B908DF800702868B6
:1053F00000F2613081788DF83410C1788DF8391061
:1054000001788DF83A1040788DF83B000EE00820C6
:105410008DF80000ADF816808DF814908DF813A06B
:105420008DF81AB0089870650998B0650020BDF82D
:1054300002108DF8360021F030018DF8100041F097
:105440004A018DF835008DF81200ADF80210AFF268
:10545000312103260191012C13D0092C24D00A2CD0
:1054600022D000BF8DF85E008DF860008DF85F00DF
:10547000022C10D0032C0ED0042C0CD0052C0AD0FA
:1054800012E0296891F84D178DF8580041F003019A
:105490008DF85410E6E72868B0F86E13ADF85A108E
:1054A000B0F87203ADF85C0015A8FCF785FE1D4C42
:1054B0006846FCF7C1F819AB002280210120FBF7F8
:1054C00024F880210120FAF7FFFF2078002804D07B
:1054D000FCF783FF761E002EEADC1DB0BDE8F08FDE
:1054E0002DE9FC5F00210120FFF701FF0D4847680F
:1054F000FDF786FB0190FDF789FB0090042101A8D0
:10550000FDF7EAF9064604216846FDF7E5F9844609
:1055100000200546DFF808B0DFF80CA0009059E045
:10552000A4011000BC3B1000280110004FF000083F
:10553000C1465C462846DBF85810FFF7E9FD0146F6
:1055400001208840A16C084243D1012432E000BF11
:1055500004FB0C51DAF8000037F9112090F86703CA
:10556000B2EB001F25DA08F10108B9F1000F00D1F4
:10557000A146721E94421CD1B8F1010F19D1ACF1B1
:105580000102954204D1611E0120FFF7D3FD0EE018
:1055900007EB4101B1F90220B2EB001F05DB35B189
:1055A00031F9021CB1EB001F01DA002000E00220FB
:1055B0008046641CB442CBDBA6EB0901414508D808
:1055C00029460220FFF7B6FD01200099A8400843B4
:1055D00000906D1C6545A9DB01253AE04FF00008FD
:1055E00044462CE0DBF84030DBF8482000201A432A
:1055F00011D0D9462046DBF85810FFF789FD014647
:1056000001208840D9F84810084203D1D9F8401049
:10561000084000D0012005FB0C4137F91120DAF8D1
:10562000001091F86713B2EB011F07DA30B90120BF
:105630000099A040084201D108F10108641C6445AA
:10564000D0DBB8F1000F03D0691E0120FFF772FD17
:105650006D1CB542C2DBBDE8FC9F2DE9F041FF4C5B
:1056600000200546FE4FDFF8FC83A0611EE02946BE
:105670000520FFF73CFE21690120BE6800EB410CCC
:1056800036F91C10D8F8000090F87703B1EB001F32
:1056900003D929460E20FFF74DFD36F91C00A169FC
:1056A000884202DD36F91C00A0616D1C60698542EC
:1056B000DDD32BE52DE9F04700263746314608209B
:1056C000FFF715FEE648E74D0021D0F80CC028682A
:1056D000012400F5F57990F8E82100BF04FA01F300
:1056E0001A4208D03CF9113090F87D83B3EB081FC3
:1056F00000DA761C7F1C491C0629EFDBBE420BD169
:1057000090F8E611C90790F8E91101D00D2000E0EA
:105710000C20BDE8F0470DE5002E1CD000262868BF
:1057200004FA06F290F8E811114211D03CF9161073
:1057300090F87D23B1EB021F0ADA90F8E60119F820
:105740000610C00701D00C2000E00D20FFF7F2FC8E
:10575000761C062EE3DBA1E52DE9F04100210620B1
:10576000FFF7C5FDBE480025BE4EBC4C87680EE065
:10577000E0683168284437F9100091F86513B0EB00
:10578000011F03DD29460A20FFF7D4FC6D1C2069A8
:105790008542EDDB00250EE0A0683168284437F92A
:1057A000100091F86613B0EB011F03DD29460B20B2
:1057B000FFF7C0FC6D1C60698542EDDBA6E42DE9B6
:1057C000F041A64C00200646206237E03146042016
:1057D000FFF78DFDA248002587682BE0FFF72BFD22
:1057E00001462846FFF794FC014601208840216CC1
:1057F00008421ED19B49A0682844096807EB400075
:1058000030F9040C91F87813B0EB011F07D9314639
:105810000820FFF78FFC29460920FFF78BFCA068C2
:10582000216A284407EB400030F9040C884200DD6F
:1058300020626D1C60698542D0D3761C2069864247
:10584000C4D363E42DE9F041844C00200546844F25
:10585000DFF81082E0611AE029460320FFF747FDD8
:10586000BE68B6F90210D8F8000090F87603B1EBE4
:10587000001F03D929460720FFF75CFCB6F9020098
:10588000E169884202DDB6F90200E0616D1C206921
:105890008542E1D33AE42DE9F04100210220FFF7EF
:1058A00026FD6F486F4D6D4C8768286890F860033F
:1058B000000713D500260EE0E0682968304437F968
:1058C000100091F87413B0EB011F03D93146032087
:1058D000FFF730FC761C20698642EDDB286890F8E3
:1058E0006003C00613D500260EE0A0682968304486
:1058F00037F9100091F87513B0EB011F03D9314649
:105900000420FFF717FC761C60698642EDDBD0E6C9
:105910002DE9FC410020FAF794FE4FF4F83040F6F0
:10592000FD0109F022F8FCF706FAFCF7DFF9FCF7B5
:1059300036F94A4C00202060FFF785FC0090FFF705
:105940007AFC019004216846FCF7C6FF0546042155
:1059500001A8FCF7C1FF014600EB4500C4E90205C0
:10596000C4E904513F4D286890F86003010701D451
:10597000C00601D5FFF78FFF286890F86003800606
:1059800001D5FFF75FFF286890F86003000601D596
:10599000FFF715FF286890F86003C00701D0FFF7F4
:1059A000DBFE286890F86013490704D590F8E801F9
:1059B00008B1FFF77FFE286890F86003400601D524
:1059C000FFF74BFE286890F86003800701D5FFF7CA
:1059D00087FD2068002862D0D4E90A359D43E5623E
:1059E000606AD4E90F179843A8436062666CB943B4
:1059F000B143E163A26B216D9A43AA43256BB9437E
:105A0000AA43A263A26CB1439143AB43A362216555
:105A100001220021FFF766FB02220021E06BFFF765
:105A200061FB03220021A06AFFF75CFB0422002136
:105A3000206CFFF757FB07220021E06AFFF752FBBB
:105A400008220021206BFFF74DFB09220021A06CEA
:105A5000FFF748FB0A220021606B05E0A40110005B
:105A6000BC3B100028011000FFF73CFB0B2200217B
:105A7000E06CFFF737FB0C220021A06BFFF732FB35
:105A80000D220021206DFFF72DFB0E220021606CFE
:105A9000FFF728FB0020FAF7EFFDBDE8FC810021AD
:105AA000084603F0C3FAF5E708B55A4D5A4E0024EC
:105AB000287880B10128FBD16B46002242F27D712B
:105AC000FAF723FD0098C1071ED001210846FAF716
:105AD000FBFC2C70ECE701210020FDF798F86B46E9
:105AE000002202210120FAF710FD01210846FDF7EE
:105AF0008EF800988007DBD542F27F710120FAF71B
:105B0000E3FC01202870D3E701070CD50821012010
:105B1000FAF7DAFC0020FAF794FD0620FAF791FD77
:105B2000FEF7EDFA0DE0410712D504210120FAF746
:105B3000CBFC0020FAF785FD0620FAF782FDFEF780
:105B400077FF0620FAF798FD0020FAF795FDAFE7FA
:105B5000C10606D510210120FAF7B6FCFFF7D3F8ED
:105B6000A6E7810606D520210120FAF7ADFCFFF754
:105B700033FA9DE7C10507D54FF480710120FAF78C
:105B8000A3FCFFF71BF893E7810507D54FF40071DD
:105B90000120FAF799FCFFF74FFA89E7410606D58D
:105BA00040210120FAF790FCFFF7B2FE80E74105A3
:105BB00026D54FF480610120FAF786FC174804606F
:105BC0001748076804603846FDF741FEB80701D55D
:105BD00000F0C5FBA7F54070B73801D1052009E0FA
:105BE000F80701D0152005E017F0420F04D0306807
:105BF00040F0060003F0BCFA0A480460346057E73E
:105C00008004A4D54FF400510120FAF75DFCFDF7A4
:105C10006DFF4DE70002100038011000B8021000BF
:105C20002C01100034011000FE4900200870FE49CC
:105C30000870FE490870FE490870FE49087001218D
:105C4000FD4A1170FD4A1170FD49FF22C8600861CC
:105C50004880087088618A80C8610862F9480068D5
:105C6000B0F852214A81B0F85401088100F02EBFEB
:105C700030B50024234605E030F913508D4200DD95
:105C8000641C5B1C9342F7DBEE48006890F86101EE
:105C9000A04201D2012030BD002030BDF0B500256A
:105CA0002F462C46DDF814C009E000BF30F914601F
:105CB000B54203DA964201DD3546E7B2641C8C42F8
:105CC000F4DB25B18CF8007001201D60F0BD0020D0
:105CD000F0BD30B585B0DB4C01A8009020680025F0
:105CE00003ABB0F95221017DD748FFF7D7FF50B180
:105CF00023689DF8040093F88A2102F00F01814285
:105D000019D81B7D14E002A80090206804ABB0F9FC
:105D10005421417DCD48FFF7C1FF68B123689DF84C
:105D2000080093F88A2102F00F01814203D85B7DBD
:105D3000591A814200DA150905B0284630BDFEB572
:105D4000C04801AB5022006890F88911B0F9877102
:105D500001F00F060C09B0F9855102A90091017DEF
:105D6000B948FFF79BFF0198B84201DD3046FEBD00
:105D7000A84201DA2046FEBD401B311B4843791B77
:105D800090FBF1F02044FEBD30B5B148AD4D047834
:105D9000286890F85101800703D5FFF7D0FFA4EBE6
:105DA0000004286890F85101400702D5FFF791FFE1
:105DB0000444002C01DA002402E00F2C00DD0F2443
:105DC000204630BD30B564290CD00023642407E0A0
:105DD00030F913504D4395FBF4F520F813505B1C3C
:105DE0009342F5DB30BD70B5002364250AE0CC5C3E
:105DF000642C06D030F91360664396FBF5F420F866
:105E000013405B1C9342F2DB70BD2DE9F047002587
:105E1000894629462F462E46A8462B460DE000BF50
:105E200030F913C039F913400CFB0C660CFB0477F6
:105E300004FB0488654421445B1C9342F0DB87FB30
:105E4000020485FB013CC71A86FB020385FB05653E
:105E500064EB0C04B0EB060C63EB050688FB020355
:105E600081FB0121851A63EB01086421A7FB010373
:105E700004FB0131002207FB02113346624608F0A1
:105E800003FD0246A2FB070301FB073102FB0411DD
:105E90002A46434608F0F8FC002C00DA4042BDE8F0
:105EA000F08730B547F6F873002405E030F9145058
:105EB000AB4200DD2B46641C9442F7DB002405E076
:105EC00030F81450ED1A21F81450641C9442F7DB9A
:105ED00030BD70B503460020024601EBD17408E0E6
:105EE00003EB420633F91250B6F90260AD1B2844A9
:105EF000521CB2EB640FF3DB621008E003EB4205C7
:105F000033F9124035F9025C641B2044521C8A426A
:105F1000F4DB70BDF0B587B007464A4C03A800908B
:105F200020689C468E461646017D002504AB0FFA7C
:105F30008CF27046FFF7B2FE01283BD102A8009018
:105F4000206805AB32B2417D3846FFF7A7FE012835
:105F500030D1DDE9041081424FF0640203DD50438B
:105F600090FBF1F102E0514391FBF0F1206890F8D1
:105F700092218A421EDD9DF8081019B990F89121EE
:105F8000D20716D0427D521E8A4203D190F8911159
:105F900089070ED59DF80C1019B990F89121520778
:105FA00007D5027D521E8A4204D190F89101000764
:105FB00000D4012507B02846F0BD2DE9FC41214C55
:105FC00084460F4620680025164690F89011490730
:105FD00069D5009690F89311427D0B091D496046E2
:105FE00001F04AFF0096206890F89311027D0B099A
:105FF000184938463C3101F03FFF206890F8901175
:10600000090631D5407D43F6FF76CDE90060114A9F
:10601000334611491046FDF7BAF82068007DCDE9F6
:1060200000601BE0480110006501100066011000CF
:10603000490110004A0110006701100069011000B9
:106040000402100028011000DC300120A0300120E3
:106050006A011000B82A0120CE250120FE4A3346ED
:10606000FE491046FDF793F8012700972068FC4988
:10607000437DB0F89E21F8483C3801F0D3FF064636
:1060800000972068F549037DB0F89C21F24801F0A3
:10609000C9FF0346F3490022F348012E06D0C2612E
:1060A000012B14D002622846BDE8FC81C669761C2B
:1060B000C661276897F8937107F00F07B742EFDAC8
:1060C000C2610E68012546F040060E60E8E7036AEB
:1060D0005B1C0362246894F8934104F00F049C4213
:1060E000E1DA02620868012540F040000860DAE762
:1060F000F0B40446DD480B46802100680D4690F858
:10610000680110B10146C0F58075D748C0880328E2
:1061100005D22146F0BC52001846FCF719BF0020FA
:106120000FE000BF33F9106034F910704E4307FBE5
:106130000566F71706EB176646F30F2623F810607F
:10614000401C9042EEDBF0BC7047F0B50024C74D18
:106150000FE030F8146031F81470012B0CD0F61BEE
:106160002F6897F86D717F4206EBC70620F8146020
:10617000641C9442EDDBF0BD3E442F6897F86D71CE
:10618000F2E72DE9FC47B84D80460026E88898B92B
:106190003C22B349B648FCF7DBFE4022AF49B54884
:1061A000FCF7D6FEAC483C217C3008F0DEFBAA4868
:1061B0004021B83008F0D9FBE8880127AB4C032810
:1061C00002D2AD48077014E013D92168B1F86B21F1
:1061D00082420ED94B7DA049A54A7C31A04801F0EE
:1061E00004FF20689C49A34A037DB8319B4801F015
:1061F000FCFE206890F85011427D090710D590F8F8
:106200008D11CDE9001290F88B319C4A944940469B
:10621000FCF7BDFF20689049427DB839974802E0FD
:106220008D494046B839FFF763FF20688C4A90F8E3
:106230005011437D0907924901D5904800E040463E
:1062400001F0D3FE2068864A8D49437D8248B838E4
:1062500001F0CBFE206890F85011C90610D5427DA0
:1062600090F896128648FFF7ADFD216891F850012D
:10627000C00605D54A7D01F51C718148FFF7B3FDC5
:106280002268B2F85411B2F86901B2F87F410144B2
:106290000BB2E9888C4201D2184403B200200446B4
:1062A000DFF8E0C1DFF8D891527D1CE039F91080A9
:1062B000984515DD761C022E13D96878401C40B233
:1062C0006870002804DD70488CF800706C700770EE
:1062D00047F6FF70814201D2491CE980BDE8FC8786
:1062E0000026401C00B28242E0DC6C708CF800405A
:1062F000EEE7034610B50020024603E033F91240F2
:10630000521C20448A42F9DB10BDF0B5574C0F46B1
:1063100000252168497DFFF7ECFF06462068017DD6
:106320003846FFF7E6FF236801460024D3F89C7245
:106330004D48B74203D38F4201D344620DE0416A16
:10634000491C416293F89B228A4206DC454901259B
:106350000A6842F400520A6044622846F0BD43488D
:10636000006890F89011890606D53F4901220A700D
:1063700090F895010009886170471CB53A490020E2
:10638000C98801B901201021384CCDE900102068DE
:106390003E490F23427DA1F13C0001F090FD2068B1
:1063A0003A49437DB0F9AE21A1F13C00FCF7DAFE99
:1063B000012800D000201CBD2DE9F34F83B0DFF889
:1063C000D0904FF0FF304FF0000A029099F8000093
:1063D00001252D4F5646D046544601281BD0DFF8E4
:1063E0008C90D9F8000090F82010C90619D590F8C3
:1063F000251028480288914213D20480264801685B
:1064000041F022010160A9020120FAF72FF83D7046
:1064100005B0BDE8F08F3D7000F058FB89F80040F2
:10642000F6E70320FAF70DF91C48DFF83CB00078D6
:1064300001287DD0BBF8060001283CD9D9F800001E
:106440000549CC46427D01237C310548FFF77DFE9E
:10645000DCF80000027D23E0F42A01200A26012056
:10646000CE25012038011000040210002801100080
:10647000C626012002270120A0021000003C1000C7
:10648000A03001204A01100067011000282C0120D3
:10649000690110003C0110002C0110003F011000A8
:1064A0000123FE49FE48FFF750FEDCF80000FD49DD
:1064B00090F8FD0208700020ABF806003A78DDE99C
:1064C00003015C46FFF779FD0746D9F8000090F814
:1064D0007001400606D5E069002802DC206A002829
:1064E00000DD0126FFF750FCDFF8BCB30190EF4957
:1064F0009BF800000090D9F80000019B427D0398B2
:1065000001F0BAFC9BF800000090D9F80000E749C0
:10651000019B027D3C31049801F0AEFCD9F80000EB
:1065200090F8501109071CD5427D90F88D1100E0BC
:1065300035E0CDE90012DD4A90F88B31DC49104698
:10654000FCF725FED9F80000027D90F88E11CDE908
:106550000012D64A90F88C313C32D1491046FCF7F3
:1065600016FED9F80000D24AD249437DCF4801F047
:106570003CFDD9F80000CA4ACF49037DCB483C30E6
:1065800001F033FDD9F8000090F89101000636D5EE
:10659000C949C848FFF7B9FE01282ED02FE0D9F825
:1065A000000090F85101C00605D5FFF7E6FEC3498B
:1065B000012808700DD03A78DDE90301FFF7FDFCF2
:1065C000012809D00398FFF7DCFD0320FAF754F8FF
:1065D0001EE78BF801400EE0B9480570B9488BF80A
:1065E00001403D70016841F0420101604FF480615B
:1065F0000120F9F73BFF3D70E7E74FF0010A032068
:10660000FAF73AF8A5483C22AA49B830FCF7A0FCB2
:10661000A2484022A849F430FCF79AFCD9F80000BF
:10662000DFF8A4B290F89011090750D59B49427D3C
:106630007839A048FFF735FCD9F800009749427D2A
:10664000783900F57470FFF7E0FB2061D9F800009D
:10665000417D92487838FFF73CFC864660612069AE
:10666000009032281CDD8D48D9F800207838B0F928
:106670000030B2F854118B4207DD92F815C000EBE0
:106680004C0C3CF902CC8C4509DC49428B4207DAC0
:10669000527D00EB420030F9020C884200DA0126FC
:1066A000D9F80000009990F894218A420FDAB0F8E6
:1066B000AC2172450BDA90F89001400601D54FF0FD
:1066C0000108DBF8001041F48071CBF80010D9F814
:1066D0000000CC4690F85011C9060DD5427D90F8C7
:1066E00096127448FFF76EFBDCF80000027D90F80C
:1066F000DC127148FFF766FBDCF80000E14690F819
:106700009011890716D5B0F85231B0F854216A4972
:106710006848FFF7FFFB012806D1DBF80010804630
:1067200041F40071CBF80010D9F8000090F8900106
:10673000800705D4D9F8000090F8901109070ED50C
:10674000B8F1010F09D1B4F9020000280CDB401E9A
:1067500000B26080002807DC0127D9F8000090F81B
:10676000950100F00F006080D9F80010CC4691F838
:106770005001C0060DD54A7D01F51C714D48FFF74B
:1067800032FBDCF800104C480A7D01F52871FFF758
:106790002AFBDCF80000E04690F85011090610D5FD
:1067A0000095437D494A4A49424801F0F5FB00956E
:1067B000D8F80000454A4749037D3F4801F0ECFB0B
:1067C0000DE0407D3B4942004148FCF7C1FBD8F851
:1067D00000003949007D42003E48FCF7B9FBD8F87B
:1067E000000090F89111C9062CD502A90091427DB4
:1067F000B0F8AC31521E00212E48FCF724FD0128D0
:1068000016D10298012805DBD8F800104A7D921EA7
:10681000824212DAA0880126401E00B2A080002821
:1068200010DADBF80010012741F48071CBF800107A
:10683000D8F8000090F8950101E091F8950100F07A
:106840000F00A080D8F8000090F85111C9070DD0B2
:10685000B0F95E21417D1E4801F0D5FBD8F800005B
:10686000B0F95E21017D1B4801F0CDFBD8F8000096
:1068700090F85011490736D50095144A437D0A3ADD
:106880001549134801F088FB0095D8F800000F4A1D
:106890001249037D0A3A0F4822E00000AC2B012088
:1068A0000A26012041021000670110003C2A012045
:1068B000CE250120003C10003C3C10004901100096
:1068C0004A0110002C01100038011000360210009F
:1068D0007C3C1000B83C1000A0300120DC300120CE
:1068E00001F05AFB0DE0407D6C4942006C48FCF71A
:1068F0002FFBD8F800006B49007D42006A48FCF786
:1069000027FBD8F800002378B0F85211B0F85421D2
:10691000012B04D0654B1B78012B09D010E0B0F897
:10692000983103B11946B0F89A314BB11A4607E0D5
:1069300090F85731C91A90F8563189B2D21A92B2EA
:106940005B4B1B783BB190F8A3311A4490F8A4310B
:1069500092B2194489B20FFA81F9A4F80A9011B2DF
:106960002181427D4E48FFF783F98446D8F8000024
:106970004946027D4C48FFF77BF94E49DFF83C91D0
:10698000BCF1010F81F800C04B49087001D101280A
:106990000BD04B49002089F800000870E0680028FF
:1069A0001CDD401EE0600CD018E0404889F8005023
:1069B0000078012812D1D8F8000090F89701E06023
:1069C0000CE0D8F8000090F89001C00606D5DBF87E
:1069D000001041F08001CBF8001002E0BAF1010F85
:1069E0000BD13848016841F0220101604FF4806109
:1069F0000120F9F73BFD34480570012F0AD13148D9
:106A0000016841F042010160B9020120F9F72EFD51
:106A10002D480570D8F80000454690F89011890679
:106A200024D52178012921D1A169002915DD427DD4
:106A3000B0F954111A48FFF71BF907462868027D80
:106A4000B0F952111848FFF713F907B100B94EB168
:106A5000286890F895010009A06199F800000128C4
:106A600007D017E0A069401EA061F6D10020207079
:106A7000F3E72868B4F9021090F8950100F00F00D0
:106A8000884207D1002E7FF4CBAC0749044800F0C0
:106A90002DFDBDE400F003FBBAE400007C3C1000D7
:106AA000A0300120B83C1000DC300120640110004F
:106AB0004D01100065011000660110004801100032
:106AC0004A0110002C0110006701100010B5FF49A9
:106AD0000020FF4C0870FF49E0602061A080E0804A
:106AE00020700870FC4960700870A070208160817F
:106AF000FA480068B0F8641189036161B0F8660172
:106B0000B1FBF0F080B2FCF7C8FAA06110BD30B55F
:106B1000F24A00241268937EDD0792F882310BD08E
:106B2000834217DC158BEB1A834213DB92F8830147
:106B300088420FDCD28A0AE083420BDCD58AEB1A4A
:106B4000834207DB92F88301884203DC128B101A20
:106B5000884200DA0124204630BD2DE9FE43144668
:106B60000D460646072B09D0D948092BB0F9041069
:106B700006D03180C188298000781070BDE8FE837E
:106B80003288ADF802202A88ADF800202778ADF8C9
:106B900006108146C088ADF8040001AA694602A823
:106BA00007F01CF802A807F011F8DFF8308303465D
:106BB000D8F800C09CF87401BCF8762100F00F01F1
:106BC000BCF878C1000952430CFB0CFC93420BDD6E
:106BD000634501DB084607E09B1A411A4B43ACEBC7
:106BE000020193FBF1F1401ABDF90230C0F110012E
:106BF000B9F904C04B4300FB0C3343F30F1333804C
:106C0000BDF900304B43B9F9061000FB013040F3E9
:106C10000F102880D8F80000102199F8002090F873
:106C20007501A1EB10117943000900FB0210C0F3BC
:106C300007102070A2E72DE9F04F8BB000226B46C1
:106C400050F8224003EBC206E517521CC6E9004586
:106C5000052AF5D301200022C1F1400A9E464FEAE1
:106C6000EA7BCC1701E0002217E00EEBC207B94621
:106C7000A0CFAAFB05680BFB05850AFB0753D9E9E2
:106C80000257A5FB01C807FB018705FB047516EB3E
:106C90000C066B41C9E90063521CC0F10503934225
:106CA000E3D8401C0528DED3DDE9001002020BB05A
:106CB00042EA1160BDE8F08F5FF0000200EB820352
:106CC0005B6840F82230521C042AF7D301617047F8
:106CD0005FF0000200EB82035B6840F82230521C38
:106CE000052AF7DB416170472DE9F04F002793B08B
:106CF00080463E463D46FFF7EBFF002158F8210055
:106D00000744484300FB0155491C06440629F5DBAE
:106D10006F4C09971C3460680A90A068CDE90B0697
:106D200020690D906069CDE90E05E0691090206A38
:106D3000119009A8FBF7F2FD834603912068CDE985
:106D40000907A0680B90E068CDE90C0660690E9019
:106D5000A069CDE90F05206A119009A8FBF7DEFDB7
:106D60008146206809906068CDE90A07E0680C90C8
:106D70002069CDE90D06A0690F90E069CDE9100505
:106D80008A4609A8FBF7CAFD0326A9FB06570A464F
:106D90000AFB06710926A0FB0637002409FB041430
:106DA00002FB0672002100FB0120EA18444103990E
:106DB00012EB0B0061414FF47562002307F064FD94
:106DC000C8F80C0013B075E730B5444A01241268C6
:106DD000937EDD0792F87A310BD0834217DC158B56
:106DE000EB1A834213DB92F87B0188420FDCD28AD4
:106DF0000AE083420BDCD58AEB1A834207DB92F868
:106E00007B01884203DC128B101A884200DA0024CE
:106E1000204630BD2DE9F04FDFF8C0909B46054677
:106E2000D9F800302A4C0E4693F870012C495FEADD
:106E3000C07C17464FF0000894F9020085B0C246A6
:106E400001F1180225D0082D23D0062818DB394679
:106E50003046FFF7B9FF00282148314608D0FFF738
:106E600043FF06B21E4839461830FFF73DFF2AE0BF
:106E7000FFF72EFF1A4839461830FFF729FF23E0A5
:106E800000F1010040B2A07041F8206042F820708B
:106E90001AE093F871319B0716D5082D14D0A0B1D4
:106EA00031460F48FFF708FF0D4839461830FFF705
:106EB00003FF33210A48FFF7BEFE06B2084833211C
:106EC0001830FFF7B8FE07B20CE01CE064011000B8
:106ED00040021000480110004A0110002801100073
:106EE000D03B1000ADF80060ADF804708DF810B024
:106EF0002B4604AA01A96846FFF72FFE072D3AD0BA
:106F0000092D0CD037E094F9020041F8206042F8D6
:106F10002070401C40B2A0700628F4DBD4E7D9F8FA
:106F2000001091F87001400725D5B4F90430BDF97F
:106F30000000181A00D5404291F87C2190420EDAE8
:106F4000B4F90620BDF90400101A00D5404291F8AA
:106F50007D61B04203DAADF80030ADF8042022784C
:106F60009DF81000101A00D5404291F87E11884219
:106F700001DA8DF81020D9F800004E4690F8700123
:106F800000060FD5082D0DD0BDF90410BDF9000085
:106F9000FFF7BDFD8046012804D1306890F87111DB
:106FA000C9070CD0BDF90010A180BDF90430E38001
:106FB0009DF810702770B8F1010F21D058E0072D0F
:106FC00009D0F9490978C1B190F8A601401CE060E8
:106FD000002005B06EE6F54A82F800A090F8900116
:106FE000C007F5D0F248016841F0220101604FF47A
:106FF00080610120F9F73AFAEAE790F87301E5E7D2
:10700000306890F87121D20732D0827ED20790F892
:10701000822113D08A4201DDADF80020018B891A4C
:10702000BDF90020914201DAADF8001090F883110B
:10703000994201DDADF80410C08A12E08A4201DDF8
:10704000ADF80020C18A891ABDF90020914201DA09
:10705000ADF8001090F88311994201DDADF80410ED
:10706000008B401ABDF90410884201DAADF8040023
:10707000CDF808A0CDF80CA0BDF800108DF8085090
:10708000ADF80E10BDF804108DF80A70ADF80C10B4
:107090008DF80BA002A801F0E7FE012099E7C24895
:1070A00010B50178C348006849B190F9A611BF48EE
:1070B0000278C148012A05D0002101610DE090F954
:1070C0007311F4E7C268521CC2608A4208D30023DD
:1070D0001A4619460820FFF79DFEBDE81040F5E46A
:1070E00010BDF0B50746DDF814E037F912404FF057
:1070F000FF30744501DA002400E01046012517E056
:10710000561B07D437F916C0F44503DDA44501DD4D
:10711000304664465619A1F1010C664507DC37F983
:1071200016C0F44503DDA44501DD304664466D1C00
:107130009D42E5DDF0BD10B59F4C6169B1FBF0F0FB
:1071400080B2FBF7AAFFA16988420CD97F2801D33E
:107150007F2010BD401AC0EBC010C1F17F01B0FB11
:10716000F1F00028F5DC012010BDF0B50024012568
:10717000A1F101060BE0571B02D430F917703C4413
:107180005719B74202DC30F917703C446D1C9D4220
:10719000F1DD012A02DB891E8A4200DD640030F93C
:1071A00012002044F0BD2DE9F047824D14469A4666
:1071B0002E6830F91420814602FB04F00123A1F16E
:1071C000010196F862C117E0E51A08D439F9157083
:1071D000B6F85E81474502DB07FB05003A44E51837
:1071E0008D4208DC39F91570B6F85E81474502DB3F
:1071F00007FB05003A445B1CB3EB1C1FE4DD4A436C
:1072000080FB0A01D31707F03FFB00B2BDE8F0870F
:107210002DE9F05F8B46D0E9001591460022806889
:107220009A4613464FF48034814202DD02460B46F3
:1072300002E001DA0A460346A0EB01014FF4803C6C
:10724000A1FB0C084FEAE17707FB0C874FF0000623
:107250002B44C2F1000201FB067103EB42024FEA2C
:10726000E27307F011FB4FF48036A9FB063C4FEAAE
:10727000E97505FB06C51B18A3FB0A06002709FBD9
:1072800007524A4102FB0A614FEAEA7503FB051106
:1072900022463B4607F0F8FA5A464FEAEB7307F0EE
:1072A000F3FA00B2BDE8F09F2DE9F04F93B00C4621
:1072B000824617469946002518210CA81C9E07F007
:1072C00076FB00200290039004902EB939480068A4
:1072D00090F8620100F00F06BA1B07EB060300D519
:1072E0000022661EB34200DD631E0CA95046FBF768
:1072F00083FB4FB1B7422FD12E48006890F851015F
:10730000800613D54D4675E02A48006890F8510173
:1073100080066FD4BAF904000290BAF90000039015
:10732000BAF902004B46012204900DE00AEB44003A
:107330007F1C30F9061D0291B0F904100391B0F9D9
:1073400002004B463AB20490611E02A8FFF760FFAC
:1073500099FBF6F1451A4DE0DDE910B1B1F10008F5
:107360004ADADDE90C2352EA030045D0DDE90E01DB
:107370000591089000293FDB0E48056895F85001FB
:1073800040061BD55846414607F07EFA002800DA31
:10739000404295F86311884210DA4B463A4621463E
:1073A0005046FFF700FF24E04D011000640110007B
:1073B0002C01100028011000400210001BEB0B01F3
:1073C000A1FB062448EB080000FB0640F31701FB75
:1073D0000303089805994542A5FB0907002464EBBF
:1073E000010404FB09714FEAE97605FB061107F079
:1073F0004BFA054628B2E5E4B8F1000FCDDADDE935
:107400000C010843C9D00F980028C6DBF2E738B555
:10741000B04D049C2D6895F85051AD0603D50094ED
:10742000FFF742FF01E0FFF7BEFE00B238BD2DE9D5
:10743000F04700249A46CE1E81462346A44627469E
:107440002546022A03DBB24201DC1046DEE60020BC
:10745000491E07E039F91080B8F1000F01DDC4447E
:107460007F1C401C8842F5DB9CFBF7F7022A12DAEE
:1074700010460DE039F91060BE4203DA3CB904460B
:10748000002304E01CB19E4201DD33460546401C4A
:107490008842EFDB14E0B24212DD10460EE000BF7E
:1074A00039F91010B94203DA3CB90446002304E06C
:1074B0001CB1994201DD0B460546401E0228EFDC57
:1074C000534500DA15462846A0E630B5044630F9A3
:1074D00011300020491C06E034F911509D4201DDB5
:1074E0002B460846491C9142F6DB30BD2DE9F34F8F
:1074F000784C85B0226892F88451567D05F00F03D0
:107500005F4206EB470606F0FF0B167D2A0955423F
:1075100000EB430006EB45050590EDB201EB4200A0
:1075200001952A4600210690FFF7CFFF06465A46EE
:1075300000210598FFF7C9FF05462068664F90F8BF
:107540007001800607D5B7F90030324601990698D8
:10755000FFF76DFF06462068DFF880A190F8700104
:10756000C00607D5BAF900302A4659460598FFF7F4
:107570005EFF0546DFF86891DFF8688199F8000042
:10758000012828D1206890F86001010723D0010963
:1075900021D0B7F90010009100F00F03B8F90820CE
:1075A00001990698FFF79DFD0746BAF90000009083
:1075B0002068B8F90A20594690F860010309059837
:1075C000FFF78FFD002F01DB002802DAFFF767FDD0
:1075D00001E03E46054637B2A8F808702AB2A8F87E
:1075E0000A204FF0000ACDF800A020685946B0F9F3
:1075F00018300598FFF70BFFCDF800A00390206826
:107600003A460199B0F916300698FFF700FF02904C
:10761000206890F87001800704D5032203A902A80E
:1076200004F0ECF803A902A8FBF762FD012332463F
:107630002D480199FFF799FD064601232A46594630
:107640002A48FFF792FD3044FFF775FDC3B2284882
:1076500000780028206810D090F9A51198F8012032
:107660004046521E52B288F80120002A08DB2268E8
:1076700092F8FC22114449B204E090F97211EDE74E
:10768000FF22427099F8004005690CB96D1C056134
:107690008D421AD340F2FF110161C8F80CA04CB121
:1076A000039802B2029801B25FF00900FFF7B2FB43
:1076B00048B10AE0012089F80000039802B202985C
:1076C00001B20720F2E7FFF7EAFC07B00120BDE8AE
:1076D000F08F0000280110000E0210000C021000B4
:1076E0006401100040021000A02C0120642C012035
:1076F0004D011000E448E54A0068B0F8AC139180F1
:10770000E34990F8B10308817047E1490020DE4A5F
:107710008880C880C86048801268DE4B92F85C217F
:1077200012091A7008610870DB49087070472DE96A
:10773000F043A1B0814602AF7821384607F037F90F
:10774000D1480123016891F8B1204C7D91F8A01136
:1077500003EB1216890715D50025804610E000BFFF
:10776000D8F8001005FB04F009EB40004A7D91F8C1
:107770008B31CDE9003249460246FBF708FD6D1C0E
:10778000B542EDDB002010E000FB04F2002109E02F
:1077900002EB010C57F8215039F91C302B4447F803
:1077A0002130491CA142F3DB401CB042ECDB00203D
:1077B00007E000BF57F8201091FBF6F147F82010C2
:1077C000401CA042F6DB00200121A4F1010517E0D6
:1077D0004FF0000C63460BE003FB041839F9182046
:1077E00057F82180B2EB080200D5524294445B1C4A
:1077F000B342F1DB9CFBF6F2824200DD1046491CED
:10780000A942E5DBB0F5803F04DB4FF6FF7021B005
:10781000BDE8F08380B2FAE730B59B499D4B09681B
:1078200091F85021920725D59B4A12784AB191F8D8
:10783000A74104F00F022509B1F8A841B1F8AA1137
:1078400007E001F5AC710C7904F00F0225090C88F2
:107850004988A04201DC1A7030BD884201DB1D70EE
:1078600030BD001BAD1A6843091B90FBF1F01044BA
:10787000187030BD91F85C0100F00F00F8E72DE9B9
:10788000F041814D814A2E6896F88013B6F8AC33EA
:10789000C9073DD096F8AF4304B90124918896F802
:1078A000AEC3CF1A07FB0CF797FBF4F4B6F8AA7334
:1078B0000F442744764CB8420ADD002620210120DF
:1078C000E660F8F7D3FDE680286890F8B10306E09B
:1078D000814202D9704D2D7825B196F8B1032081EF
:1078E000BDE8F0816D4D2D78002DF9D1B4F9085027
:1078F000002D01DD6D1E25812489002CF0D1891E0B
:10790000814200DA01468B4200DD19469180E7E7AB
:107910009380E5E75C4A10B514680021B4F8A12112
:10792000824204D294F8B000800700D50121584863
:10793000594B0278914211D1197891420AD0574C93
:107940002478224307D00169491E0161002901DC26
:107950000078187010BD01700169F7E739B194F82B
:10796000B22002610170002AF4DC197010BD94F895
:10797000B320F6E7444910B5096891F8B010CA067B
:10798000434918D5464A14780A46D388C3EB0312F4
:107990005200012C05D0C41A002C0CDC3F4C24787A
:1079A00024B102EB4000C0F34F1004E0C3EB83129C
:1079B0001044C0F38F10C88080B210BD10B5FFF71F
:1079C000B6FEFFF7D7FF324CA080FFF7A3FFA088D9
:1079D000FFF722FFA088BDE8104050E7F0B430491F
:1079E0000B782B494A88B3B1322A01D2521C4A8003
:1079F000254A0125136893F8B1405B7D05EB14150A
:107A0000CC6894FBF5F605FB1644264E634306EB63
:107A1000430700230BE0012AEAD9521E4A800022C4
:107A2000CA60E5E730F813C027F813C05B1CD2F832
:107A300000C09CF815C09C45F4DCCB685B1CCB6097
:107A4000136893F8C577FF0707D05B7D641C5F0060
:107A5000634306EB4304002307E0C8680CE0FE180C
:107A600030F8166024F813605B1C1668767D9E4221
:107A7000F5DCC868401CC860A84202DBF0BC0948BD
:107A80009CE7F0BC7047000028011000EC221000B9
:107A9000800210006A0110004D0110004801100022
:107AA0003F011000E02C0120D84900208860486088
:107AB0000860D7490870704710B500230BE000BF7D
:107AC00030F91340002C00DA64428C4201DD0120C1
:107AD00010BD5B1C1BB29342F2DB002010BD70B5E1
:107AE000CC4CCD4ACD492068437DCD4800F07DFA8D
:107AF0002068CC4ACC49037DCC4800F076FA206857
:107B0000427DB0F99812C548FFF7D6FF05462068B8
:107B1000027DB0F99812C448FFF7CEFF0022BB499E
:107B2000012803D0012D01D00A6070BD0868401CF7
:107B30000860236893F89A328342F6DCBC480368F5
:107B400043F480530360BB480A60016841F022019E
:107B50000160BDE870404FF480610120F8F786BCF9
:107B600070B50546002003460CE000BF35F9134010
:107B700031F91360A41B00D5644224B2A04200DA9C
:107B800020465B1C9342F1DB70BD2DE9FC5FAA4DE2
:107B9000A04CAA4E2878009020683378A849427DEE
:107BA000A84800F069F92878009020683378A64941
:107BB000027DA64800F060F9A1480190A24800901B
:107BC000A3480078400778D5A248904D0027007858
:107BD00038B36F60AF60206890F82C10B0F82F9029
:107BE000B0F833604FEA111A01F00F0B427D9A4949
:107BF0009A48FFF7B5FF844620689949027D994865
:107C0000FFF7AEFF2168824AB1F85431BCEB530F45
:107C100004DCB1F85211B0EB510F1FDD01201070E0
:107C20001DE06968491C6960206890F82A20B1EB62
:107C3000121F00DD6F60A96802F00F02491CA960E5
:107C40008A4200DAAF6010F82B1FB0F80290C688A5
:107C50004FEA111A01F00F0B2B38C7E717707E4F50
:107C60007F4B0020A6464BE07F4A00211278012A74
:107C700009D0019A32F910C037F9102094450DDA75
:107C8000AA683AB11CE0019937F8102031F81010B9
:107C9000891A01E0CBF1000109B211E0D5F80480A6
:107CA000B8F1000F0CD1ACEB02020FFA8AF14A4591
:107CB00006DDB24202DD31B202E085E00FFA89F161
:107CC00094F88023520715D500220BE0DFF850C14D
:107CD000C2EB02180CEB880C521C3CF81080884454
:107CE0002CF8108094F880834FF0010C0CEB981C5A
:107CF0009445EBDC37F81020114427F81010401C95
:107D0000DEF800407246617D8142ADDC00204CE02F
:107D1000554C00212478012C09D0009C34F910C066
:107D200033F91040A4450DDAAC683CB11FE000996E
:107D300033F8104031F81010091B01E0CBF10001BD
:107D400009B214E0D5F804C0BCF1000F0FD1DFF880
:107D5000FCC00FFA8AF13CF910C0ACEB04044C45AE
:107D600005DDB44201DD31B201E00FFA89F197F887
:107D70008043640713D500244FF0010E09E0DFF8BB
:107D8000ACC00CEB841C641C3CF8108088442CF8BC
:107D9000108097F880830EEB981CA445EFDC33F835
:107DA0001040214423F81010401C1768397D81428F
:107DB000AEDC97F89101000606D597F880034007DE
:107DC00002D5BDE8FC5F8AE6BDE8FC9F114810B50E
:107DD000006890F82000C10716D0244909780029CE
:107DE00012D12349097809B180060DD521480078C0
:107DF000002809D10320F8F724FCFFF7C6FEBDE8F0
:107E000010400320F8F738BC10BD000094021000A9
:107E1000750110002801100032280120003C1000DC
:107E2000422701206E2901203C3C10006E280120D1
:107E3000380110002C011000670110006A011000C9
:107E40004A260120BA29012086260120F629012090
:107E5000A40210003F011000CE2501203C2A012081
:107E60000A260120782A0120A002100043011000F8
:107E7000480110004B011000F0B40C460146049874
:107E8000C3F11006012801D0002014E02046F0BC08
:107E90005200FBF75DB800BF34F9105031F9107093
:107EA0005D4307FB0655EF1705EB177545F30F15F7
:107EB00024F81050401C9042EEDBF0BC7047F0B448
:107EC0000C460146DDE90460F51A012801D00020C6
:107ED00010E02046F0BC5200FBF73AB834F91070BD
:107EE00031F910C05F430CFB057797FBF6F724F8D8
:107EF0001070401C9042F1DBDFE7F0B54FF0000C52
:107F000067466646654664460FE000BF31F914E0F7
:107F1000BEF1000F03DDF44406F1010603E002DACE
:107F2000774405F1010504F101049442EEDB9CFB6A
:107F3000F6F697FBF5F70024DFF840C129E08BB196
:107F400031F91450002D13DD30F8145035442DB2A2
:107F500020F81450DCF800E0BEF858E4754517DD51
:107F6000354413E030F8145031F814E075440DE056
:107F70000EDA30F814503D442DB220F81450DCF8DD
:107F800000E0BEF85CE4754502DA3D4420F8145088
:107F9000641C9442D3DBF0BD2DE9F04391460022EE
:107FA000DDF81CC018E000252E462C4602EB040725
:107FB000BF1E08D49F4206DA30F9178039F91470D1
:107FC00008FB07553E44641C052CEFDBBCF1010F98
:107FD00006D021F81250521C9A42E4DBBDE8F0832F
:107FE00095FBF6F421F81240F5E770B5002407E0A0
:107FF00032F8145030F81460AD1B21F81450641C92
:108000009C42F5DB70BD30B500231C4607E000BF85
:1080100030F91350954201DA20F813405B1C8B4273
:10802000F6DB30BD2DE9F04300252E462C46DDF869
:108030001C9017E031F9147030F914C007EB0208F6
:10804000C44505DDBCEB070700D57F423E4408E090
:10805000A7EB0208C44504DABCEB070700D57F4252
:108060003D44641C9C42E5DBB9F1000F00D10025C2
:10807000B54201D20120B1E70020AFE7280110008E
:108080005D485E4A00685168414004D0506048072E
:1080900001D5FDF7C9BD704710B50446480709D59D
:1080A00057492046FAF701FD2046BDE810405549E2
:1080B000FAF721BD10BD2DE9F0415048524D002680
:1080C000067052492C680C423CD04068044050482D
:1080D0000078002836D10620F8F7B3FA21464D483B
:1080E000FFF7DAFF4C484D4F006890F8A011C90720
:1080F00009D0287800060CD43878022809D04548E1
:10810000FFF76CFC05E090F85C01454900F00F00BA
:1081100008700620F8F7B0FA600709D50420F8F7D0
:1081200090FA38493648FEF747F90420F8F7A4FAE0
:108130003878022802D12868002801DAFFF746FEC5
:1081400038480670BDE8F0812C4910B50020486021
:10815000FFF7AAFCFDF768FDFFF7D7FABDE810406E
:10816000FFF7C8BA254C08B500256570FFF7ECFF8E
:108170004FF6FF76607820B30128FBD16B460022D2
:1081800015210420F8F7C1F90098C00706D0314640
:108190000420F8F799F9FFF7D7FF657000984007BA
:1081A00005D504210846F8F78FF9FFF784FF0098FA
:1081B000C006DFD510210420F8F786F9FFF760FF2D
:1081C000D8E704210020FAF722FD6B4600220221A5
:1081D0000420F8F79AF904210120FAF718FD009815
:1081E0008007C7D531460420F8F76EF9FFF7ACFFDA
:1081F00001206070BEE7000048031000A0021000DC
:10820000BA290120F6290120600110001402008023
:1082100043011000D48D0120280110006B011000D3
:108220006A011000670110007047EB4800214160AF
:108230004170704770472DE9FC4115460E460746D0
:10824000FAF72DFC0090FAF755FC019000980421F4
:10825000400800906846FAF73FFB0446042101A855
:10826000FAF73AFB00EB440C07EB440207EB4C0334
:10827000014606EB440706EB4C06002007E000BF72
:1082800032F810C00CFB05FC27F810C0401CA042BF
:10829000F6DB002006E000BF33F810206A4326F822
:1082A0001020401C8842F7DBBDE8FC812DE9FC472B
:1082B000154689460646FAF7F2FB0090FAF71AFCD3
:1082C000019004216846FAF707FB0446042101A83F
:1082D000FAF702FB0146304606EB440305EB440780
:1082E000002207E030F802CB33F8028B521CC44462
:1082F00027F802CBA242F5DB01EB440206EB840037
:1083000006EB420305EB4206002207E030F8027B51
:1083100033F802CB521C674426F8027B8A42F5DB15
:1083200048462946002204E030F8023B21F8023B8F
:10833000521CA242F8DB09EB440005EB8402002149
:1083400005E000BF30F8023B22F8023B491CA14285
:10835000F8DBBDE8FC8770B5A04C0020218811F443
:10836000CA7F1FD09E4D9F49286890F8C507C20755
:10837000886804D009699C4AFFF798FF02E09A498F
:10838000FAF7EFFD2078000607D52868964990F89F
:10839000C4270846521CFFF74EFF94499248FAF74B
:1083A000E0FD012070BD8E4910B50968002091F8EC
:1083B000E811002909D089490978890705D5894834
:1083C0008B49C068FAF709FC012010BD70B58448DC
:1083D0000125006890F81811090718D5047D417D22
:1083E000B0F96E21834804FB01F300EB440182489D
:1083F00000EB4400FAF7B6FE80490A787649062A6F
:1084000004D10025012804D00020486008702846C7
:1084100070BD08780028FAD14868401C48600128DF
:10842000F5D901204870087000F0A0FB012102205E
:10843000F8F71CF8EBE72DE9F0438946684909682D
:108440004C7D0B7D641C012117E000BF4A1C01FB21
:1084500003F55A4300EB450600EB420709EB4505DF
:10846000002207E036F812C037F81280C44425F81D
:1084700012C0521C9A42F5DB491CA142E6DBBDE862
:10848000F08370B5054656480C46006890F84517CD
:1084900009060AD5007D294642002046FAF758FD14
:1084A00021462846BDE87040C5E721462846BDE87C
:1084B0007040FAF772BD494910B509780020C90724
:1084C00007D048484C494068FFF7DBFFBDE8104043
:1084D0007CE710BD4248006890F829010106484831
:1084E00002D50188491C01E046490988018070478E
:1084F0003B4930B40968444891F8C8100278CB076A
:1085000018D08B0716D5414B1B78C1F3820401218B
:1085100001FA04F4234209D00170C8B2824209D0A2
:10852000012805D0CD2030BC00F022BE0021F3E7A9
:10853000CC20F8E730BC70472DE9F047FFF7D8FFB3
:108540002848264C0025007820B1F9F746FF256021
:10855000BDE8F087FFF7BEFF2148006890F81801DA
:10856000800701D5F9F757FE244E30780128EED068
:108570000620F8F766F8FFF79EFF0746FFF713FFA0
:108580008046FFF7E8FE81460620F8F775F8204997
:108590002068012F086002D0B8F1010F06D13078B1
:1085A00007280BD004210320F7F760FFB9F1010F72
:1085B000CDD1184E3078012803D006E04FF4007179
:1085C000F1E70D2000F0D4FD357004210846F7F7DF
:1085D0004DFFBCE700207047A8021000C402100045
:1085E00028011000F03D1000F83C1000D48D01204F
:1085F000AE29012042000120580910006B01100033
:108600006C011000B40210004E0110004B0000205D
:10861000600110006801100010B501461422FC48EA
:10862000FAF796FC0221BDE810400846F7F71EBF96
:1086300070B596B004466846FAF7BAFCF548F649B4
:10864000F64B44610A881A80F54AF64B52880A8034
:10865000F549E2071DD09DF8002042F001028DF897
:1086600000200A6892F82051ED0712D01D78042DE1
:108670000FD0002C0DDB02F2211255788DF813502B
:1086800015788DF81A5092788DF81E2044F4806287
:108690004261A20705D59DF8002042F008028DF83E
:1086A000002014F4457F4FF000052DD00A6892F8A1
:1086B000A061F60706D092F8C567F60702D01E78CB
:1086C000032E07D01B78022B29D0072B27D0062B8F
:1086D00025D005E09DF8003043F010038DF8003000
:1086E0009DF8003043F020038DF8003092F80A27FF
:1086F000D20709D09DF80020930605D522F020026C
:1087000042F006028DF80020E20537D5C74A1278FC
:10871000012A1ED0C64A1278012A1AD02EE09DF8EE
:108720000030002C02DA43F0200301E043F00203A2
:108730008DF8003092F80037DB0703D092F803374A
:108740008DF838308DF83650436943F0800343612B
:10875000CCE7096891F8B02112070FD58DF8365093
:1087600091F8C517C90705D09DF8001021F0100138
:108770008DF80010416941F080014161AFF267104E
:1087800001906846F8F758FF16B070BD80B2F8F750
:10879000B7B9A44810B50178A348022900680BD0E6
:1087A00006290CD007290DD09A49897801290CD0C7
:1087B00090F81A4164B10CE090F81D41FAE790F886
:1087C0002641F7E790F82741F4E790F81B41F1E7DD
:1087D0001424F8F7ABFA002801DD04EB84042046EA
:1087E00010BD30B59049044600200A6892F8205028
:1087F000E90722D08B490B788649022B09D0072B39
:1088000007D0062B05D092F839208A4B1B7853B13C
:1088100011E00B7892F83A20032BF6D203F1010312
:108820000B708A60F1E7844B1B780BB1AB0602D565
:10883000824B1B7813B152428A6030BD8B685B1C3F
:108840008B609342F9DD0020886040F217102040D1
:1088500040F0004030BD02460020724B0146062A1F
:1088600002D0072A07D009E075480278012A01D012
:10887000062001E00170072018700120714A117074
:10888000714A11706349C968084070472DE9F04F7B
:108890000025DFF880910346A846D9F80C40284609
:1088A0002E462F46E1072A4613D06849DFF8A0C1BB
:1088B000097801290AD05F49097839B99CF8001074
:1088C000012903D063490978012902D18CF80020DD
:1088D000012649465FEA847C07D5DFF860C19CF831
:1088E00000C0BCF1010F00D101265FEA447C0ED527
:1088F000DFF844C19CF800C0BCF1010F06D0DFF8DE
:1089000058C19CF800C0BCF1010F00D10127DFF86D
:108910004CA1DFF834B1DFF80C91012E08D0424EA3
:10892000042B366806D0032B0ED0022B31D032E058
:108930008A613CE0CA618869401C886196F85D6183
:10894000864234DA8A612DE0454F3F78012F1ED0F0
:10895000444F3F78012F1AD09AF80070012F16D09B
:1089600096F81871FF0716D0D1F81CC00CF1010C55
:10897000C1F81CC096F8196106EBC60707EB06168E
:10898000BCEB860F07D3CA618BF8002014E0CA61E4
:1089900001E0012F04D0032B04D0022B0CD016E0F1
:1089A0008A61CA61032689F8006017200FE0042657
:1089B00089F8006003200AE0022589F800500125AB
:1089C000600703D516204FF0010800E0132099F846
:1089D00000609E4201D08AF800201A4B2040002DF2
:1089E0001D708BF8008000D10A70BDE8F08F10B5C3
:1089F000084C002020610B480078042834D003285C
:108A000032D0022830D0062831D007282FD033E0CA
:108A1000F03D1000B00210007A0110007801100043
:108A2000EC2210006B01100028011000450110001D
:108A30004401100043011000480110004B011000D8
:108A4000A90210003F011000400110004601100073
:108A500049011000A80210004A0110007501100021
:108A60006501100066011000FFF710FF01E0FFF73D
:108A7000F2FE216908432061E068FFF7B2FE216938
:108A80000843206110BDF8B5FFF7B1FFBD49086884
:108A9000002809DDBC4A127832B9401E086003D1B3
:108AA00002210520F7F7E2FCB84CB94E206890F897
:108AB0000A07C00707D0B7480078042803D0B08958
:108AC00010F48A7F03D1FFF764FEFFF75FFE206892
:108AD000B14D90F8F007C0070AD0286840B16B4646
:108AE000002220210220F7F710FD0020286019E065
:108AF000306940F21731084214D00020F7F7A1FD89
:108B00003069FFF795FD02216B4600220846F7F712
:108B1000FCFC02210846F7F7D7FCFFF70DFD00200B
:108B2000F7F7AAFD206890F8F007800701D501202B
:108B30002860F8BD10B501210220F7F7C5FCBDE89B
:108B40001040A0E710B540210220F7F7BDFC914886
:108B50000178012909D006210170FFF766FB8C49D5
:108B600000208861C8618D49087010BDF7F7EFBF1C
:108B7000874900208A4A0861486110608861874AF5
:108B8000C86188601070874A1070874A10707F4AE9
:108B9000126892F82921920704D5888083490880B9
:108BA0008349088070472DE9F04100270421022005
:108BB000F7F78AFC7F48764E0568F06890EA05046E
:108BC00027D02C404FF6FF7807D030B90127414617
:108BD0000220F7F779FCFFF7CBFF600701D5FFF71D
:108BE00029FB6C4CF5602DB1012F12D1E8070BD099
:108BF00004200AE0F7F7ABFF012020704146BDE8F2
:108C0000F0410220F7F760BC03202070BDE8F0417E
:108C100039E7BDE8F08110B510210220F7F754FCC8
:108C20005B490120887010BD10B508210220F7F7BC
:108C30004BFC57490020887010BD10B5F7F787FF2F
:108C4000544901200870524900204870BDE8104086
:108C50004FF6FF710220F7F737BC08B56B460022CC
:108C6000DD210220F7F751FC0098000601D5FFF73F
:108C7000E4FF0098000701D5FFF7D6FF0098C00673
:108C800001D5FFF7C8FF0098400701D5FFF78BFF1C
:108C90000098400601D5FFF755FF0098C00701D0A6
:108CA000FFF748FF08BD3B48012239490270002008
:108CB000C8608870086148618861C8613E490A706F
:108CC0003E4908703E483F49408808803E49088038
:108CD000FFF7AABA08B502210020F9F798FF6B4602
:108CE00000224FF480710220F7F70FFC02210120CF
:108CF000F9F78DFF0098C00509D5FFF7D4FF4FF6AF
:108D0000FF710220F7F7E0FB21490120487008BD00
:108D10001F490020487070471D4C0020607006E01D
:108D2000607820B10128FBD1FFF797FFF8E7FFF744
:108D3000D1FFF5E7164900208861C861174908701E
:108D400018490870704710B5F7F701FF0121BDE819
:108D500010400220F7F78ABBC0B2F7F7A3BEF7F7BF
:108D6000AEBE10B5F7F7ABFE09488188491C81807B
:108D7000BDE810400120EFE70448006890F81C01AE
:108D800004E5000044031000430110002801100016
:108D9000B00210006B011000500110003F011000E4
:108DA0006001100040011000A80210006C011000CA
:108DB0006E011000480310006801100076011000D9
:108DC000EC221000780110007A01100010B5044662
:108DD0000220F7F736FC2046F7F7B2FFBDE8104057
:108DE0000220F7F749BCF7F7ABBF1CB50021009193
:108DF000019102789DF8001062F303018DF80010D4
:108E0000427862F307118DF800104289BDF8011015
:108E100062F30B01ADF801100289BDF8021062F394
:108E20000F11ADF8021081798DF80410C1798DF819
:108E3000051001798DF8061080788DF807006846D6
:108E4000FFF7C4FF1CBD1CB500200090019002205C
:108E50008DF80000F5480068C007400E8DF8070047
:108E60006846FFF7B3FF1CBD1CB5002100910191BE
:108E700001788DF8001041788DF80110C188C1F398
:108E800007118DF802108188C1F307118DF80310C6
:108E9000017901F00F018DF80410827941EA021185
:108EA0008DF8041081788DF80510C07800F00F005F
:108EB0008DF80600DD480068C007400E8DF80700F9
:108EC0006846FFF783FF1CBD1CB50021009101918E
:108ED0000E218DF800108DF80200D4480068C007FC
:108EE000400E8DF807006846FFF770FF1CBD1CB5EB
:108EF000002000900190CE480068417882781020D0
:108F00008DF800004006437A8DF80130C94B1B787C
:108F10008DF8023043891B0A8DF8033040898DF8A3
:108F20000400C2488DF805108DF806200068C007BF
:108F3000400E8DF807006846FFF748FF1CBD1CB5C2
:108F400000200090019011208DF80000B7480068C3
:108F5000C007400E8DF807006846FFF737FF1CBDBD
:108F60002DE9FC4106460020009001901220154694
:108F70000C468DF800004FF008571EE0200A8DF8CF
:108F80000100C4F30B008DF80240315C30448DF8D1
:108F9000031041788DF8041081788DF80510C078A1
:108FA0008DF80600D7F8E001C007400E8DF80700E5
:108FB0006846FFF70BFF241D2D1F002DDEDCBDE8EA
:108FC000FC811CB50022019200920F228DF8002036
:108FD0008DF801008DF80610402094498DF80700A7
:108FE000012008606846F7F7ABFE1CBD1CB50023E6
:108FF00000930193DB238DF800308DF801008DF88C
:109000000210100E8DF80300100C8DF80400100AE9
:109010008DF8050085488DF806200068C007400ED1
:109020008DF807006846FFF7D1FE1CBD1CB5002275
:10903000009201920F228DF8002005228DF8012068
:109040008DF8020079488DF803100068C007400EC3
:109050008DF807006846FFF7B9FE1CBD2DE9FC41FD
:1090600004460025009519208DF800004007019561
:10907000417A8DF801106F4909788DF80210418905
:10908000090A8DF803104089694F8DF80400674E76
:10909000386841788DF8051080788DF806003068C2
:1090A000C007400E8DF807006846FFF78FFE009559
:1090B0001A2001958DF80000386800F5FC600178F1
:1090C0008DF8011041788DF8021081788DF8031029
:1090D000C0788DF804003068C007400E8DF8070096
:1090E0006846FFF773FE00951B2001958DF8000080
:1090F0006068000E8DF801006068000C8DF80200B9
:10910000A088000A8DF8030020798DF804002078EB
:109110008DF80500207B8DF806003068C007400EF2
:109120008DF807006846FFF751FE00951C20019559
:109130008DF80000A068000E8DF80100A068000CFA
:109140008DF802002089000A8DF80300207A8DF83E
:109150000400207C8DF80500207D8DF80600306825
:10916000C007400E8DF807006846FFF72FFE26E780
:109170001CB52F49096891F82911490603D400F05C
:109180000F010C2919D100210091019116218DF8B0
:1091900000108DF80100010A8DF80210010C000E7C
:1091A0008DF8040021488DF803100068C007400EB8
:1091B0008DF807006846FFF709FE1CBD1CB50023AB
:1091C0000093019316238DF800308DF80100080AF2
:1091D0008DF80200100A8DF8040014488DF8031071
:1091E0008DF805200068C007400E8DF8070068461E
:1091F000FFF7ECFD1CBD1CB5002300938DF80000AB
:10920000080A8DF802000193100A8DF8050007483E
:109210008DF803108DF806200068C007400E8DF809
:1092200007006846FFF7D2FD1CBD0000E0010022E8
:1092300028011000740110009248006890F82A017B
:1092400000F00700801C00EB8000C006000EF7F75E
:1092500017BC2DE9F0418C4D286820B30520F7F7A5
:10926000F0F900245FF00107286807FA04F630429D
:1092700013D004EB440005EB800898F8040005289F
:109280000BD104218148F9F727FBC1B208F1040092
:10929000FFF7ABFD2868B0432860641C0A2CE3D3B9
:1092A0000520F7F7E9F97948001F4068002802D047
:1092B000BDE8F041C0E7BDE8F081F7F7EEBB2DE96E
:1092C000F05F724D05202D1FD5F80480F7F7B9F92E
:1092D000DFF8B0914FF0005AD9F8000090F829015A
:1092E000800702D500218AF80510DFF89CB100271D
:1092F0000126DBF80010BE40584631423AD007EB59
:10930000470200EB82042279032A09D0042A07D0FD
:10931000052A2FD1D9F8002092F82921D20629D484
:10932000B143CBF800102079032802D0042804D0E0
:1093300018E0686806436E6014E0D9F8000090F801
:109340002901C0070BD00520207104214F48F9F7EF
:10935000C3FAC1B2201DFFF748FD042020716868E0
:10936000B043686004214948F9F7B6FAC1B2201D3C
:10937000FFF73BFD7F1C0A2FBAD3D9F800004C46FB
:1093800090F82901800702D580218AF80510052070
:10939000F7F772F9206890F82901C0060ED56868C1
:1093A000B8F1000F05D0002808D1BDE8F05FF7F74D
:1093B00074BB002802D0BDE8F05F3DE7BDE8F09F38
:1093C00032490020091F48607C212F4805F0EFBA80
:1093D0002E4C08B5241F00252570F7F75EFB20787A
:1093E00050B30128FBD100226B4607211046F7F746
:1093F0008CF80098400706D504210020F7F764F8A0
:10940000F7F74BFB25700098800705D50221002057
:10941000F7F75AF8FFF753FF0098C007DFD0012194
:109420000020F7F751F81748006890F82901C006A6
:10943000D5D5FFF70EFFD2E700210846F9F7E7FB85
:1094400000226B4608211046F7F75FF80021012043
:10945000F9F7DDFB00980007C1D5FFF7B1FFF7F77B
:109460001CFB0F210020F7F72FF801202070B6E732
:1094700010B5F7F712FB0121BDE810400020F6F708
:10948000F5BF00002801100070221000D402100067
:10949000944900200122087093490A70C8704870EE
:1094A0008870486008819149086048608860C86099
:1094B000086148617047F0B58D4B044600201D6877
:1094C0000246012795F8E86107FA02F31E421ED012
:1094D000DFF820C29CF800C0BCF1010F0FD195F855
:1094E000E6C15FEA1C1E0AD031F912E04FEA1C1CEB
:1094F0009EFBFCFC34F912E0F44506DB07E034F98E
:1095000012C031F912E0F44501DD0343D8B2521C18
:10951000062AD9DBF0BDF0B5754C734F01232268E4
:1095200092F8FC2102F00F053A78C5F11006012AE5
:109530004FF0000211D1256803FA02F695F8E851C0
:10954000354203D030F8125021F81250521C12B29A
:10955000062AF0DB00203870F0BD276803FA02FC11
:1095600097F8E87117EA0C0F0AD030F9127031F948
:1095700012C077430CFB057747F30F1721F81270E1
:10958000521C12B2062AE8DBF0BDF0B50023584D9C
:10959000012404FA03F72E6896F8E8613E4206D0EB
:1095A00032F8136030F81370F61B21F813605B1C5F
:1095B0001BB2062BEDDBF0BDF0B5DFF82CC1034686
:1095C00000229CF802000CF1040583EA00064848DA
:1095D0000124076804FA02F030420BD0184297F8D1
:1095E000E70102D004EB101002E000F00F00401C75
:1095F000A85411E015F802E0BEF1000F0CD0AEF156
:10960000010E1EF0FF0E05F802E005D1184202D04F
:109610000843C1B200E08143521C062ADADB8CF811
:1096200002300846F0BDF1B59DF80000002823D0B7
:1096300001216846F9F750F9C0B201281DD02A4A25
:109640005078002818D12A4C0021284D2468012385
:10965000084694F8E8610C3503FA00F4264205D078
:1096600035F910408C4201DD2146D070401C06289F
:10967000F2DBD0788340D8B2F8BD9DF80000F8BD89
:1096800070B51A49FFF747FF0320F6F7DAFF1749CD
:10969000194A0C311548FFF778FF0320F6F7ECFF65
:1096A000134C124821680C3001F5F871FFF703FFE5
:1096B0000C4D48B101212970216891F8E611890704
:1096C00004D5FFF7B0FF01E000212970064C617856
:1096D000FFF772FF6178884202D06070FFF7F4FBF9
:1096E000287870BD4B011000D8021000C8960120E8
:1096F0002801100047011000C22501202DE9F04784
:109700004F48504C01684D7D087D6D1C91F8232019
:10971000454310234FEA1219A3EB121831E04A4ACD
:10972000B1F9266032F9103034F9102016449E4207
:1097300026DBB1F92860961B9E4221DC02FB09F66C
:1097400003FB08634FEAE37603EB167343F30F1A48
:1097500091F8D0305B0711D5AAEB020216B2DFF800
:10976000ECC00022C2EB02130CEBC313521C33F803
:109770001070042A374423F81070F3DB24F810A08B
:10978000401CA842CBDB91F8200000070CD52D48E7
:10979000F9F7E9FA2E4900232E4A0860BDE8F047A0
:1097A00001462848F9F716BBBDE8F087F0B5244814
:1097B000016891F8E80100282BD091F82400264A8E
:1097C00000F00F040020C4F11007012691F8E831E1
:1097D00006FA00F52B4219D0204B32F91050B1F99E
:1097E00044C333F91030AC449C450FDBB1F946C398
:1097F000A5EB0C0C9C4509DC654303FB0753DD1707
:1098000003EB157343F30F1322F81030401C0628A6
:10981000DCDBF0BD0A4910B5096891F82010C907D2
:109820000DD000280BD10320F6F70BFFFFF766FFE2
:10983000FFF7BCFFBDE810400320F6F71DBF10BDC9
:10984000280110004200012058091000C207012021
:109850005C01100050221000C2250120AE29012019
:10986000FE4900200870704700E010460A5C824202
:10987000FBD1704770B500250E4603462C4606E026
:1098800019462046FFF7F0FF1855641CE4B2B442B5
:10989000F6D300220AE0985C904203D19D546D1CDF
:1098A000EDB201E0185C9854521CD2B2B242F2D32D
:1098B000284670BD38B1884202D20B460146184690
:1098C000884200D01154084670472DE9FF4F99B0E7
:1098D00001200490E24819689A460068067D477D99
:1098E00041B19AF802109AF800905046B14205D260
:1098F000491C04E04FF000094D4608E03146457828
:109900009AF80300CEB2B84200D2471CFFB2002042
:1099100007A90854401C2D28FAD3199905EB051006
:1099200001EB400C681C67E01998E34608EB08114E
:1099300000EB410C09F101045AE000BF0CEB0400FC
:109940001590006810B31CF8040000B315980023AC
:1099500010F8010C00B103461BF8041021B107AA4E
:109960001846FFF7A7FF03461A9800280BEB0400E0
:109970000ED0159010F8011C21B107AA1846FFF768
:1099800099FF034615984178D9B91FE0E41C2EE0F1
:10999000189010F8011C59B115981BF8042010F804
:1099A000010C104304D007AA1846FFF783FF0346B3
:1099B0001898417851B115981BF80420407810434D
:1099C00004D007AA1846FFF775FF034613B10CF839
:1099D00004300CE004982D2806D20CF804000498FA
:1099E000401CC0B2049002E0401E0CF80400641C4D
:1099F000B442A3D908F101008046B84294D907A81F
:109A00000499FFF737FF804641001B9804F0ADFF33
:109A100000204FF6FF7202E04AF82020401C40452B
:109A2000FAD33BE0199905EB051001EB4000223019
:109A30004C4605902FE00598011901204058A8B325
:109A4000487838B307AA105C48701B991B9A0AEB38
:109A5000800B31F81010491C22F810109BF80010F0
:109A60002046F8F74CFF8BF800009BF801102846C1
:109A7000F8F745FF8BF801009BF802102046F8F735
:109A800042FF8BF802009BF803102846F8F73BFFD3
:109A90008BF80300641CB442CDD36D1CBD42C1D30E
:109AA000A8F101001DB0C0B2BDE8F08FFFE7E41CD3
:109AB000F0E72DE9F043994655784FF0010C1BE093
:109AC00005EB051300EB4306223600231478977844
:109AD0000CE000BF06EB040898F90180884503D12B
:109AE0000CFA04F848EA0303641CE4B2A742F1D27A
:109AF00049F825306D1CEDB2D378AB42E0D2BDE819
:109B0000F083F0B5554B0026554D1C78A0B0012CC4
:109B100011D11E700B78002B5AD04B78002B57D0E8
:109B20002B688F781C7D641EA74251D05B7DCC785A
:109B30005B1E9C424CD000234FEA0D0444F8236086
:109B40005B1C202BFAD34B7891F803C01BE000BFBD
:109B500050F82370B7B17E0846EA47063E4354F8F2
:109B60002370374344F8237004EB8307D7F804E0ED
:109B70004EEA060EC7F804E0D7F808E04EEA060EF3
:109B8000C7F808E05B1C9C45E2D2002304EB830687
:109B9000766840F823605B1C1E2BF7D3012A17D18F
:109BA000087808B1401E0870487808B1401E487017
:109BB0002A688878127D521E904201DA401C887013
:109BC0002A68C878527D521E904201DA401CC87043
:109BD00020B0F0BD2DE9F04F8346107D01287FD1E4
:109BE0004D781F4F01244FF0030A74E03868536A20
:109BF00005F1010C007D5BF8256000FB0CF003EB28
:109C000040000B7813E000BF04FA03FC1CEA060FC7
:109C10000DD000EB430930F9138039F902CCE04450
:109C2000B9F902C0E04498FBFAFC20F813C091F89F
:109C300002C05B1C9C45E7DC0B7873B304FA03FCA1
:109C40001CEA060F12D000EB430930F9138039F9F2
:109C500002CCE044B9F902C0E04403E0E4021000A1
:109C60002801100098FBFAFC20F813C0D7F800C0B8
:109C70008B789CF814C09C4504FA03FC0CEA060C93
:109C800017D1BCF1000F25D000EB430630F913C00B
:109C900036F9026C664476101AE0FFE716F0010F01
:109CA000E4D0B0F90030B0F902C063445B10038027
:109CB000DCE7BCF1000F0DD000EB430630F9138058
:109CC00036F902CCB6F90260C444B4449CFBFAF6FF
:109CD00020F813606D1CC878A84200E000E085DA27
:109CE000E2E6F0B50025059E2C468F1E00EB4100F4
:109CF00006D430F9045CCF1E02D430F9067C3D4412
:109D00008F1C974207DAB0F90440C91C914202DA6D
:109D1000B0F906000444281B00D540424FF43571C9
:109D20004843C11700EB91508012A54203DD316812
:109D300008443060F0BD196808441860F0BD2DE992
:109D4000FF4FDFF8F8B307460025DBF8000083B0CB
:109D50000E4690F8A0002C464FF48039C0062CD552
:109D60000021F74806E000BF37F8112000EB41035F
:109D7000491C5A80B142F7D34188018000EB46026A
:109D800030F81610518000210DE04A1C00EB420310
:109D900030F8122033F802CC5B88634403EB4202B4
:109DA00027F81120491CB142EFD305A800230090E9
:109DB000324619463846F9F746FA05994FF0000839
:109DC000002902DCCDF8048004E007EB410030F903
:109DD000020C019037F911C0A6F1010A514502DBCE
:109DE000CDF8088004E007EB4100B0F902000290D2
:109DF000DBF8000090F8A000000706D502A800904C
:109E000001AB721E3846FFF76CFFDDE9011081429D
:109E100002DD05460C4602E001DA0D460446A0EBE1
:109E20000102A2FB09064FEAE27303FB096102FB90
:109E300008110CEB0402C5F1000302EB43024FEAE8
:109E4000E27304F021FD059CA4FB0936E51705FB30
:109E5000096204FB08221B184A410699A3FB01056D
:109E6000CC1702FB015103FB04114A46002304F006
:109E70000BFD52464FEAEA7304F006FD00B207B04C
:109E800012E62DE9FF4F044681B00020DFF8AC92C6
:109E90000F9D064607460090D9F8000090F8A000F4
:109EA000000719D5207808B1401E2070607808B1ED
:109EB000401E6070D9F80020A078127D521E90429A
:109EC00001DA401CA070D9F80010E078497D491EE5
:109ED000884201DA401CE07099484421443804F07B
:109EE00044FD00229346924660782FE0217829E0D5
:109EF000D9F80030D5F8248093F814C0431CE64606
:109F000003FB0C1C08EB4C0CDDF80080BCF900C016
:109F1000C44502DD761CB6B26744944502DD624654
:109F20008B46824695F814C0BCF1010F09D10EFB97
:109F300003FC844B0B441CF8038048F080080CF8A9
:109F40000380491CA3788B42D2DA401CE17881421D
:109F5000CCDA6078D9F800100FE000BF91F814C097
:109F600000F1010808FB0CB26B6A03EB4202138894
:109F7000734A443A22F81030401CE2788242EDDA0B
:109F80006F48497D52464438039BFFF7D8FE0E992F
:109F900008606B484421443804F0E7FCDFF8A081F6
:109FA0002078A8F144080AF10101D9F800200AE05C
:109FB00092F814C06B6A01FB0C0C03EB4C031B887A
:109FC00028F81030401CA3788342F1DA5C48117DF8
:109FD0005A464438029BFFF7B2FE04990860AF600E
:109FE000AE8005B060E5F0B5544C059F2668D6F804
:109FF000105296F81842BD4202D304F00F0410E04C
:10A00000D6F814C2BC4501D824090AE004F00F06B2
:10A010007F1BC6EB14147C43ACEB0505B4FBF5F4D5
:10A0200034440668C4F11005664302FB0562120958
:10A0300002600868604303FB050000090860F0BD8A
:10A040002DE9FF4F3D48964684B00D7891F8019078
:10A05000CA780068002489780290007D2346A046D3
:10A060005FEA050B2AD1CC4626E000BF0CF10106C1
:10A070000196DEF824604FF0000A0125009609E001
:10A08000DDE9006707FB005706EB47066D1CB6F9D4
:10A090000070BA44A942F3DADDE90065454306EBF6
:10A0A0004505B5F900506D4395FBFAF505FB0C33FA
:10A0B000641BA8440CF1010C6245D7DA451EA94285
:10A0C0002FD1CC462BE000BF0CF1010601964E1EAD
:10A0D0000396DEF824604FF0000A5D46009609E022
:10A0E000DDE9006707FB005706EB47066D1CB6F974
:10A0F0000070BA44039EAE42F2DA019D05FB0016E1
:10A10000009D05EB4605B5F900506D4395FBFAF54A
:10A1100005FB0C3305FB0044A8440CF1010C62451F
:10A12000D2DAB9F1000F2CD15D4628E0DEF82470B8
:10A130004FF0000A0126009711E0000028011000EE
:10A14000483E1000E0960120771C07FB0057DDF821
:10A1500000C0761C0CEB4707B7F900C0E244B242DE
:10A16000F2DA009E471906EB4706B6F9006076431F
:10A1700096FBFAF606FB05449B1BB0446D1CA942F6
:10A18000D4DA029D6D7D01956D1EAA422CD15D46EB
:10A1900028E000BFDEF824704FF0000A4E46A2F11E
:10A1A000010B00970AE0771C07FB0057DDF800C0A1
:10A1B000761C0CEB4707B7F900C0E244B345F2DA6E
:10A1C000561C06FB0057009E06EB4706019FB6F99A
:10A1D0000060764396FBFAF606FB054406FB073360
:10A1E000B0446D1CA942D5DA079804600798436013
:10A1F0000798C0F8088008B056E42DE9F04F89B000
:10A200004FF00009DFF878B48646CDF81890CDF805
:10A210001C90CDF82090DBF8000014460F46B0F8F3
:10A220006820217D4D464E46C84609B9B0F8C82180
:10A2300078783BE05EF820A03878039030E0012089
:10A24000884010EA0A0F29D0DBF80000D4F824C0B7
:10A25000029B007D01935B1C009303FB00130CEB3E
:10A260004303B3F90030934208DDDDF804C001FB7D
:10A2700003660CFB03881D4409F10109237D012BB2
:10A2800079D0002B009B00FB03F0FE4B0B4410F831
:10A2900003C079D04CF0200C00F803C0491C039196
:10A2A000B87803998842CADA0298401C0290F9787B
:10A2B0008142BFDADBF8000090F8600000060BD5A1
:10A2C00006AB224639467046FFF7BAFE0698079954
:10A2D0000644089888440544E948F2170168087D57
:10A2E000CB8A401E00FB05FAA3FB060C002101FBF4
:10A2F00006C103FB02114FEAEA7B52465B4604F0BB
:10A30000C3FA0390DE4841464FEAE87C0068002625
:10A31000427D038B521EA3FB010806FB01816A43A9
:10A3200003FB0C114FEAE27A534604F0ADFA0290B7
:10A330000398002800DA0020D14E03903168C98AC2
:10A34000814200DA084603900298002800DA0020D3
:10A3500002903168098B814200DA08460290A560BC
:10A36000A4F80490207D022811D0012816D000B353
:10A370004EE000E008E0009B5843C24B0B4410F84D
:10A3800003C04CF0800C87E74CF0400C84E7306849
:10A3900090F88000C0063BD5002210E0306890F8AD
:10A3A0008010C90612D590F8A0004007F4D401220D
:10A3B00005E0306890F88000800629D5022202A9C5
:10A3C00003A801F01BFA207D012821D1306890F804
:10A3D000A01049071CD505A9CDE90014B0F9182033
:10A3E000B0F9161004AB3846FFF74BFD306890F813
:10A3F0008000C00604D5012205A904A801F0FEF9D9
:10A40000A0680090DDE9042302A903A8FFF7EBFD93
:10A4100002A903A8F8F76CFE0398608002982080D8
:10A4200009B05DE42DE9F04F9146954A8646002338
:10A4300048784FF0010BCE78D2F800A01AE000BFA8
:10A440005EF820700A78441C8D7810E00BFA02FC4C
:10A450001CEA070F0AD09AF81480D9F824C004FB2C
:10A4600008280CEB480CBCF900C06344521C954210
:10A47000ECDA401C8642E3DAC9F80C3030E42DE90E
:10A48000F0410746107D7E4D14460E46022807D146
:10A490002968E08891F86610884201D90320207568
:10A4A0000422314604F11000F8F752FD22463146ED
:10A4B0003846FFF7B7FF012231463846FFF721FB48
:10A4C000286890F8B00180070BD5207D022801D0C4
:10A4D000012806D131463846E26801F08DFF012897
:10A4E00013D0286890F84507000604D52246314667
:10A4F0003846FFF76FFB224631463846FFF77DFEB0
:10A500002046BDE8F04103F045B8BDE8F08130B524
:10A51000A1B01C4615466B46FFF7CBFA22462946EA
:10A520006846FFF7ACFF21B030BD2DE9FF4F8646EE
:10A530008B4600204FF6FF755378D67829E000BF90
:10A5400003EB03140EEB440101F122094C4914788A
:10A550009778D1F800A018E009EB040191F801C048
:10A56000DC4510D10E999AF81480D1F828C0591CF6
:10A5700001FB08410CEB41010988884200D20846E2
:10A580008D4200D90D46641C24B2A742E4DA5B1C5C
:10A590001BB29E42D4DA039908800D990D8004B055
:10A5A0006CE72DE9F04F9B4682465378DDF824E0B6
:10A5B0002CE000BF344D03EB03100AEB4004AD6800
:10A5C000223405EB4005223510782D4F4FF001095C
:10A5D00017E0261876788E4211D13E68DEF828C042
:10A5E00096F814805E1C06FB08060CEB4606B6F9CE
:10A5F00000605E4503DD05EB000C8CF80190401C0B
:10A6000000B296788642E4DA5B1C1BB2D07898429E
:10A61000D0DA33E72DE9F047194F8146C8B03868E2
:10A620001D46884690F8706047A8CDE9000514469D
:10A6300046AB4846FFF779FF287D10B9386890F897
:10A64000CE61BDF81811BDF81C016422091A7143CE
:10A65000B1FBF2F10C4F0E184FF48861B86804F0AA
:10A6600084F9B3B22246414648460095FFF799FF68
:10A670002068029002AB2FAA0121B86806E0000012
:10A6800028011000E0960120E4021000FFF71DF9F8
:10A69000064601281DD901240DF1BC0A0DF1080957
:10A6A000B84611E03AF81400E88009EB840729461F
:10A6B000384601F061F92B463A462146D8F80800A1
:10A6C000FFF725FF641CE4B2B442EBD948B0BDE803
:10A6D000F0872B46224641464846FFF718FFF5E72C
:10A6E0002DE9F04FFF4D147892782D78FE4EDDF86D
:10A6F0002490012D376803D097F871501CB103E006
:10A7000097F8C950FAE7012497F814809446A8F105
:10A710000107BA4202D1ACF10102D2B203EB031C31
:10A7200000EB4C07F14822375B1C806808FB03F8FC
:10A7300000EB4C0CD9F828000CF1220C00EB48037C
:10A740004FE038194078884249D1DFF8A48333F9C3
:10A750001400B8F90080404541DD03EB440928446A
:10A7600039F902BC4FF0000A584503DAB9F9028002
:10A77000404534DB012C10D0D6F8008098F81480C6
:10A78000A8F10208A04512D139F9048C404521DA1C
:10A79000B9F90280404522DB1CE0B3F90200B3F9AD
:10A7A00000802844404515DAB3F90680F2E75845A1
:10A7B00005DAB9F90480404501DA4FF0010A39F9A8
:10A7C000048C404503DAB9F90280404507DBBAF151
:10A7D000000F04D10CEB0408012088F80100641C70
:10A7E000E4B29442ADD949E62DE9FF4F97B05478D1
:10A7F000D77800201390BB48DFF8ECB21E460178F2
:10A80000DBF800001546012906D0713090F8009061
:10A8100090F801A014B108E0C930F7E70096DDE92F
:10A82000170101240023FFF75BFFDBF80000E97844
:10A83000407D401E814208D1491ECFB2C3B200966E
:10A84000DDE917012A46FFF74BFFFDE0179904EBFE
:10A85000041001EB4003A549621E2233896804F10C
:10A86000020C01EB400022300790DBF80000B16AD7
:10A87000007D424301EB4202089200FB04F201EB2F
:10A8800042020992621C149200FB0CFC424301EB51
:10A890004C0E04F1030C00FB0CF001EB40000A909D
:10A8A00001EB42022878C9E0191891F801C0189903
:10A8B0008C457CD18E4932F910C0B1F900108C451D
:10A8C00075DD0021DDF8248010910CEB090138F9C9
:10A8D0001080CDF83480414507DA3EF910804145BB
:10A8E00003DA4FF00108CDF84080E8B3DBF80080D0
:10A8F000CDF8588098F81480CDF85480A8F101085C
:10A90000804531D002EB4008CDF82C8038F9028C1C
:10A91000CDF84480414509DADDF82C80B8F9028091
:10A92000414503DA4FF00108CDF84080DDF824807E
:10A93000D44408EB4008CDF8488038F9028CC4456F
:10A9400009DA0EEB4008B8F90280C44503DA4FF08B
:10A950000108CDF84080DDF84880B8F90280C44590
:10A9600007DA0EEB400800E052E038F9028CC445EB
:10A9700062DBDDF840C0BCF1000F5DD1DDF858C0EE
:10A980009CF815C0ACF1020CA4450DD0DDF834C024
:10A99000614509DADDF828C03CF910C0614503DAE9
:10A9A0004FF0010CCDF840C0012C0FD000E031E099
:10A9B000DDF820C03CF910C0614507DA3EF910C04F
:10A9C000614503DA4FF0010CCDF840C0012822D0D8
:10A9D000DDF854C0ACF1020C84450DD0DDF844C064
:10A9E000614509DADDF82CC0BCF904C0614503DA21
:10A9F0004FF0010CCDF840C0DDF82CC03CF904CC80
:10AA0000614505DADDF82CC0BCF902C0614513DBF5
:10AA1000109959B110E0B2F902C00CEB0901B2F97A
:10AA200000C06145F4DAB2F906C0EFE707994FF0CC
:10AA3000010C014481F801C0401CC0B2A9788142D8
:10AA4000BFF432AF1498C4B2BC427FF6FFAE139885
:10AA50001BB013E52DE9FF4F244C0E460746C5B049
:10AA600015464FF48861A06803F07FFF2A463146FF
:10AA70003846489BFFF7B8FE29686E460091C8BB70
:10AA800033462DAA0021A068FEF71FFF07460128C4
:10AA900038D902F0D3FD0125DFF84C800DF1B4095F
:10AAA000AA4618E0D8F8001039F8150091F875108A
:10AAB00088420FD984F800A04899C88006EB850029
:10AAC0008346489900F058FFE9B25A46489BA0686F
:10AAD000FFF71DFD6D1CBD42E4DDD8F8000090F8C5
:10AAE000400408E04E01100028011000E4021000AC
:10AAF0002203100006E0800702D4002002F0A3FD2C
:10AB000049B0BBE4321D0121489BA068FFF7FFFC60
:10AB1000F6E72DE9F04F8A46FA4900259946864620
:10AB2000D1F8006028462B4609EB0301491E1FD4CB
:10AB3000747D8C421CDD377D01F1010107FB01F1C1
:10AB40000EEB410803EB430C4FF000010AEB4C0BFA
:10AB500002EB0104641E08D4A74206DD3BF911C0D4
:10AB600038F91440604404FB0C55491C0329EFDB01
:10AB70005B1C032BD8DB00B9012095FBF0F07DE4D2
:10AB80002DE9FF4F82B00C464178DDF83CB001B1B1
:10AB9000491EDC4A01F0FF09C1781668737D5D1E0D
:10ABA000A94201DA491C00E02946CDB2017801B181
:10ABB000491E01F0FF0A8178307D431E994201DA77
:10ABC000481C00E0401EC6B2B4F9120009F10101B0
:10ABD000019064E0CB4B4A1C1868007D00FB02F733
:10ABE000484305990BEB470E01EB400000900AF13A
:10ABF000010051E0C34909680B7D059902FB030779
:10AC000001EB4701049FB1F90210B94240DD009900
:10AC1000B4F9008001EB40010027B1F900C00CFB42
:10AC20000877B1F902C0B4F902800CFB0877B1F9DA
:10AC300004C0B4F9048001EB43010CFB0877B1F9BF
:10AC400000C0B4F9068001EB43030CFB0877B1F9AF
:10AC500002C0B4F908800CFB0877B1F904C0B4F95C
:10AC60000A80B3F900100CFB0877B4F90CC001FBA3
:10AC70000C71B3F90270B4F90EC0B3F9043007FBDC
:10AC80000C11B4F9107003FB0711019B91FBF3F158
:10AC90002EF81010401C00B2B042ABDB11B2A9423A
:10ACA00098DB4F4617E0017D781C41430BEB4108D0
:10ACB00000903B46524621460598FFF72AFF28F8A8
:10ACC0001A003B46324621460598FFF722FF28F836
:10ACD0001600009807B28B48AF420068E3DD007DA4
:10ACE000691C41430BEB4101009109F1010148430B
:10ACF0000BEB4008574612E04B463A462146059872
:10AD0000FFF707FF28F817002B463A46214605981B
:10AD1000FFF7FFFE009921F817007F1C3FB2B742F2
:10AD2000EADD06B075E4F8B577491046069A097869
:10AD30001D46022914D2754C72492E7D236809687C
:10AD40007EB191F84060B6060AD5012A08D1009379
:10AD5000B1F958206E4B6F49FFF712FF2068A862C7
:10AD6000F8BD91F8C061F706FAD5B60609D500938B
:10AD7000B1F9C421664B6849FFF702FF2068686299
:10AD8000F8BD012AFCD10093B1F9C421E2E730B447
:10AD90001C7D2CB15B4C246894F86040E50701D021
:10ADA00030BC37E4A40701D530BC53E630BCFFF714
:10ADB000AEBB2DE9F047814652488A460023016820
:10ADC000184601250E7D4F7D1EE000BF00EB0014EC
:10ADD00009EB44042234194612E000BF52F82080E7
:10ADE00005FA01FC18EA0C0F08D004EB010898F8EA
:10ADF00001C0BCF1000F01D188F801A0491CC9B203
:10AE0000B142EBD3401CC0B2B842DFD35FE43E4A4C
:10AE100010B5127801243AB93A4A126892F86020C3
:10AE2000120718D5012916D181780278891A01D51F
:10AE3000C1F1000101F10101CAB2C1784078081ADC
:10AE400000D54042401CC1B21046F7F758FDC0B2D1
:10AE5000012800D10024204610BD2DE9F04F8A467C
:10AE6000284983469E464FF001095078D6780C68F1
:10AE700025E000BF00EB00130BEB430322331178F6
:10AE8000957818E05F1897F801C0D44511D194F86F
:10AE90001480471C07FB0817DEF824C00CEB47079B
:10AEA000B4F8D2C1B7F90070BC4502DA4FF000091E
:10AEB00003E0491C09B28D42E4DA401C00B286422C
:10AEC000D8DA48468FE42DE9F04399460D4B012628
:10AED0001C6894F810319D0754D51578B5EB531FB5
:10AEE00001D8002501E0A5EB5315EFB2257D92F8BE
:10AEF00002C0A5EB531808F10108E0450EDA6D1EFB
:10AF00000EE00000280110004C0110005801100054
:10AF100020A6012066ED000052ED00000CEB531559
:10AF200005F0FF0C5578B5EB531F01D8002501E063
:10AF3000A5EB5315647DD278A4EB531808F10108F2
:10AF4000EDB2904501DA641E01E002EB531404F007
:10AF5000FF0810E005EB051200EB420322333C46EC
:10AF600006E01A19527812B18A4200D00026641CF9
:10AF70006445F6DD6D1C4545ECDD002E02D1022155
:10AF800089F81410BDE8F08330B5FC4CF94A246808
:10AF9000B2F90030F84A34F9A85FB2F90020B4F9E8
:10AFA000024029B9F649B1F90030F649B1F900205B
:10AFB000A04201DD104630BDA84201DA184630BD7E
:10AFC000201AD11A4843611B90FBF1F0101A00B20D
:10AFD00030BD2DE9FF4F83B09946E84C13784FF010
:10AFE000000E019325687146704633B9537893B1CA
:10AFF0006B7DD4785B1E9C420DD02B7D96785C1EB9
:10B00000A64201D1577837B1A6420AD16C7DD778D4
:10B01000641EA74205D1B5F8AA00801CA9F81F003C
:10B02000AAE0547892F803A0D9F8247027E0621CB3
:10B030005A4307EB42020292039A04EB041C02EB10
:10B040004C0202F1220B0FFA84FC019ACDF800C0E9
:10B0500012E000BF0BEB020C9CF90180DDF810C080
:10B06000E04508D1DDF808C03CF912C0F44502DD26
:10B070000098E64611B2521C9642EBDA641CA245D7
:10B08000D5DA00F1010603FB06F207EB420C4FF0A4
:10B09000FF323CF911B01446B1F1010803D40CEBB6
:10B0A000410434F9024C01F10108C246434503DD75
:10B0B0000CEB4102B2F9022014F1010C00D114464C
:10B0C00012F1010C00D122461444C4EB4B02B7F933
:10B0D00000C00FFA82FE06FB03C20A440FFA82FB8D
:10B0E0004FF0FF321446B0F1010803D400FB03C453
:10B0F0000C4424B26D7D0095B54204DD821C02FB38
:10B1000003C20A4412B2651C00D11446551C00D17A
:10B1100022461444C4EB4B0404EB0E02002415B287
:10B12000401E16E0002813DB009A824210DD421C0C
:10B130005A4307EB420C4A1E08E0002A05DB934203
:10B1400003DD3CF81280444424B2521C5245F4DD25
:10B15000401CB042E6DDFA20454395FBF4F004B212
:10B16000A9F81F4001212046FFF70EFF86490C80F9
:10B17000B9F81C10814202DD012007B0FFE4002075
:10B18000FBE72DE9F0479A46804600205378DDF82A
:10B19000209022E003EB031408EB4406774C2236A0
:10B1A000D9F8247024685D1C247D6C4307EB440CA3
:10B1B00014780EE037197F788F4208D13CF914706B
:10B1C000874204DDAAF802403846AAF80030641C21
:10B1D000E4B29778A742EDD2EBB2D4789C42D9D2B0
:10B1E00014E62DE9FF4F83B01878109C93461E4655
:10B1F000A070987820705878E070D87860704FF020
:10B2000000085F784DE000BF039907EB071001EBE2
:10B21000400101F1220A049901EB400000F12209EA
:10B220001298426A55480068017D781C414301909C
:10B2300002EB4100009035782EE000BF0AEB0500DC
:10B240004178594522D1009830F915101198814262
:10B250001CDD08F101001FFA80F821782846F7F775
:10B260004EFB207061783846F7F749FB6070A17893
:10B270002846F7F748FBA070E1783846F7F743FB1C
:10B2800009EB0501E07081F801B003E009EB05006E
:10B29000002141706D1C2DB2B078A842CEDA019821
:10B2A00007B2F078B842AFDA0FFA88F065E73349B1
:10B2B0000278096822B10A7D8378521E934208D130
:10B2C000427822B1C278487D401E824201D10120DD
:10B2D00070470020704730B50546A1B027480023CD
:10B2E0008DF8803002680C46107D401E8DF882007B
:10B2F0008DF88130507D6B46401E8DF8830020AA6A
:10B300002846FEF7D6FB002220A96846FEF7F9FB87
:10B310006A4621462846FFF74CFD21B030BD2DE995
:10B32000F14F1A481A4C154D0068E0B000F58861DD
:10B33000C4E9010129684FF0000BD94691F860205B
:10B34000DA46D30701D1920701D54FF0010B91F8EE
:10B35000C01127ABC1F3C0015E910021279103AA60
:10B360000121FEF7B2FA0849064608732B6801204E
:10B370001A7D26E02203100024031000280110008B
:10B380001C0310001E031000F622100054011000D0
:10B39000E4021000012100EB0014EB4FDFF8ACE3F6
:10B3A0000AE000BFDEF804C001EB44081CF808C046
:10B3B00007F802C0521C491C93F814C08C45F1DAFE
:10B3C000401C597D8142E5DA012415E1E0482590D1
:10B3D0002690E1B203A88DF88E1030F81400ADF875
:10B3E00076001CA8009027A8DFF8608300EB840299
:10B3F0001A925BABD8F80400FFF7C3FE0746ADF81E
:10B400008C000020ADF88F0088F80000BDF96E01B7
:10B4100058B1BDF96C1141B12A68137D5B1E984289
:10B4200003D0507D401E814201D1012000E0002068
:10B430005990286890F8A010C9074DD0C54A90F8D7
:10B44000A71012889142C449097801D211B143E092
:10B45000022941D201218DF8841090F8A410559151
:10B46000BD490978012905D190F8BC2055991144AE
:10B4700089B255915999012935D090F8A500B7495D
:10B4800056901CA8B1F9002057A90091CDE90120E0
:10B490001A9BD8E90101E2B2FFF7A3FEAA4980B2E4
:10B4A000ADF8760008555599884215D956998842C5
:10B4B00012D8AA48B0F9000087420DDD286890F83C
:10B4C000A000800712D5E1B21CAB57AAD8F808003B
:10B4D000FFF77FFD012809D059991A98FFF797FCCB
:10B4E00001281AD087E090F8A600C8E70220ADF83E
:10B4F0008600ADF8880000208DF885004FF0010926
:10B50000E1B21CAB47461A9AD8F80400FFF7DBFCFF
:10B51000E1B21CAB57AAB8686BE09148B0F90000E3
:10B52000874279DD03A931F8141054918D49B1F99E
:10B530000010814213DA57AACDE900201CA902911C
:10B54000D8F80410E2B21A9B0846FFF74AFE03A996
:10B5500021F814001A99579A0A60ADF87600286805
:10B5600090F865707C48007848B11A98FFF79FFE04
:10B570000128286836D090F8BD00384487B203A867
:10B5800030F81400B84236D91CA800904FF00109D9
:10B59000CA46E3B247461A9A2598D8F8041000F034
:10B5A00007FA03A82A6830F8141092F8670081425D
:10B5B0002ED26D4B02208DF88400BDF88A1099823E
:10B5C000B2F86E205846914200D2002054990329C7
:10B5D0000BD350B10090E1B21CAB1A9A7868FFF718
:10B5E000A2FBA5E090F87600C7E7E1B21CAB1A9A7F
:10B5F0007868FEF78CFF641CB4427FF6E7AE5B49C7
:10B6000081F800905A4981F800A061B05AE403E043
:10B6100004208DF88400E8E7286890F8C011C90775
:10B62000E9D0544909680029E5D05349097800292F
:10B63000E1D18DF8841090F8C001400705D5E1B242
:10B6400027AAD8F80400FFF746FE47F6FF70569089
:10B65000599801284948007809D0012828680FD056
:10B6600090F8CB713C48007801280CD010E00128FC
:10B67000286802D090F8CD71F4E790F8CC71F1E72A
:10B6800090F8CA71EEE7286890F8D901384487B27B
:10B690003448B0F900103A48B0F90000814213DA9A
:10B6A00057AACDE900201CA90291D8F80410E2B2F3
:10B6B0001A9B0846FFF795FD03A921F814001A9973
:10B6C000579A0A60ADF8760003A830F81400B84223
:10B6D00091D9569988428ED860990220E3B20870B9
:10B6E0001CA8009047461A9A2598D8F8041000F034
:10B6F0005FF95E980090E1B21CAB1A9A7868FFF788
:10B7000012FB286890F8C00180070DD51B4800780F
:10B71000012809D1E1B21CAB1A9A7868FFF79DFBAA
:10B72000012801D1174908705E9800283FF473AFD3
:10B73000E1B21CAB1A9A7868FFF729FB5BE70A486D
:10B740000021017301807047E0960120E40210009F
:10B7500020A60120F20210004C011000240310006A
:10B76000220310001A031000F622100045011000F9
:10B77000460110009C010022410110004701100009
:10B780002603100018031000F0B5B2F90040056858
:10B79000AC4202DDB3F900102EE002EB410434F9B3
:10B7A000026CAE4204DA03EB410131F9021C23E0E2
:10B7B0000024491E0BE000BF32F91470AF4205DCD3
:10B7C00002EB4406B6F90270AF4202DA641C8C4206
:10B7D000F2DB32F9146003EB440133F91430B1F9B0
:10B7E000021002EB4402AD1BC91AB2F902206943F0
:10B7F000921B91FBF2F119440160F0BDF0B50E46C9
:10B800002549096801F275432AB3012A2CD0022A7E
:10B8100033D0032A3ED191F811C601F2126291F899
:10B82000104602EB4C0303EB4C0707EB440500BF4B
:10B830000CEB04013E292DDCBCF1010F02DD614659
:10B84000FFF7A2FF012C25DD2B463A462146304664
:10B85000BDE8F04098E791F870C491F8714403EBAB
:10B860004C0591F8721410E091F870C491F871448D
:10B8700003EB4C0591F8731407E091F870C491F84C
:10B88000714491F8741403EB4C0503EB410202EB95
:10B890004C07CDE7F0BD0000280110004FF47A728C
:10B8A000504390FBF1F17D4810B5814201DAC0119F
:10B8B00010BD42F6A640814201DD5A2010BD784AF3
:10B8C000002000BF32F910308B4205DC02EB400350
:10B8D000B3F902308B4202DA401C4528F2D332F928
:10B8E000104000EB800302EB4000091BB0F902009E
:10B8F000553B001B01EB810191FBF0F0184410BD9A
:10B9000030B50D460446FFF7C9FF00EBD07040107C
:10B91000002D02D00DDD34B130BD002C03D005DD8B
:10B920004FF02D0030BD4FF0000030BD4FF05A00F9
:10B9300030BD002C03D005DD00F15A0030BD6FF0A2
:10B94000590030BDA0F15A0030BD10B58C1A00D599
:10B950006442002800DA404204EB400011440A1817
:10B96000081A521040104FF47A71484390FBF2F0DD
:10B97000C0F57A70588310BD30B582780378CD88D1
:10B98000D21AC3784078521C1B1A5B1C05FB02F0CC
:10B99000D4185D4340006A00B0FBF4F0B2FBF4F24F
:10B9A000904202D9C8820A8330BDCA82088330BD62
:10B9B0002DE9FF4F1646002284B0104615469646E4
:10B9C00093469246747896F8039036E0059904EB16
:10B9D000041301EB4301223103913378029396F86B
:10B9E00002C027E0039919444F7807998F4220D16C
:10B9F0002C4909680F7D611C01FB0737049901EB95
:10BA00004701A9EB0407B1F902107F1CCDE900172B
:10BA100002995F1A00997F1C0A44794301FB07BB16
:10BA2000019F084401FB07EE0099794301FB07AA37
:10BA30000D445B1C9C45D5DA641CA145C6DA4FF465
:10BA40007A71414391FBF2F14FF47A736B4393FBAC
:10BA5000F2F201FB05F44FF47A7394FBF3F74143E0
:10BA600091FBF3F1AEEB0704ABEB01076A4392FBEA
:10BA7000F3F1AAEB01056000791BFFF741FF119973
:10BA80002A46487539462046119BFFF75EFF1199FB
:10BA900008B03046BDE8F04F6EE700005AD3FFFF14
:10BAA0000CED000028011000F74900200870F7494C
:10BAB0000870F74908707047F64910B40020F64A3C
:10BAC000087001211170F549FA4BFB4C0870F449DC
:10BAD0000870F4490870F4490870F4490870486027
:10BAE0008860F3490968B1F862201A80B1F8A13082
:10BAF0002380F24CB1F8C6112180F14C2280F14A2A
:10BB00001380F14A1180F149088010BCCCE72DE97F
:10BB1000FF4F81B0E64A4FF00109CDF8009012685E
:10BB20009B464D4692F815C0137D0CF1010C62E066
:10BB30004FF0000A47F6F8725442D646564619E0CE
:10BB400005FB036730F8178031F81770A7EB08077B
:10BB50003FB2BA4200DD3A46BC4200DA3C46002F12
:10BB600002DA4FF0000903E002DD4FF00007009712
:10BB700006F101069E42E3DB009F59EA070608D062
:10BB8000B9F1010F03D0B9F1000F04D006E0012F85
:10BB900004D1002202E0012F00D12246002412E04D
:10BBA00005FB034630F8167031F816601744F61B93
:10BBB00036B25E4506DACBF10007BE4202DDB24482
:10BBC0000EF1010E641C9C42EADBBEF1000F01DDA8
:10BBD0009AFBFEFA0AEB0204002209E005FB0326A9
:10BBE000DDF80C8030F81670521C274428F81670C7
:10BBF0009A42F3DB6D1C65459ADB05B0BDE8F08F1A
:10BC0000F0B4C2F1100422B1012B02D00023A84FDE
:10BC10000EE0F0BCF7F7C1B931F9135030F91360F9
:10BC2000554306FB045545F30F1521F813505B1CD3
:10BC30003E68757D367D6D1C75439D42ECDCF0BC25
:10BC40007047F0B59A4D002784462D6801203C4688
:10BC50006E7D2D7D06F1010606FB05F60CE000BFAA
:10BC60003CF9145031F914E0B5EB0E0500D56D42E6
:10BC70009D4200DD7F1C641CA642F1DC974200DD82
:10BC80000020F0BD2DE9F0438946894900252C4666
:10BC90000B685A7D197D521CB3F8F6624A430EE0D8
:10BCA00039F9117030F911C007EB0608C44505DDFC
:10BCB000BCEB070700D57F423D44641C491C8A4207
:10BCC000EEDC7A4865B193F83610A14208D281685B
:10BCD00011B10120BDE8F083012181600020F9E766
:10BCE0000021FAE72DE9F047714C82468946206829
:10BCF000002600F120000125C17D007801F00F0130
:10BD000001EB810117464FEA4108000720D5714831
:10BD10006F4A01685046F7F75DF86F496C480B6849
:10BD20000268D0F804C09A1A4B68A3EB0C031A44BB
:10BD30008B68D0F808C0C968C068A3EB0C03081A68
:10BD400021681A441044B1F87810814200DA0025C5
:10BD5000206890F8200080070BD56048007840B933
:10BD60004C48007828B949465046FFF78BFF00B190
:10BD700000254E480022017891B13A704168491C73
:10BD80004160236893F837301B0903EB8303B1EB61
:10BD9000430F02DD4260027001263046BDE8F087A5
:10BDA00015B142603D70F8E741684B1C4360414566
:10BDB000F8DD012101704260216891F8371009090E
:10BDC000F0D102700126EDE72DE9F05F38482E4CE6
:10BDD00001682578B1F9A120B1F96200B1F9C63145
:10BDE00091F8C0A1012D0FD13D4C246864B1B1F987
:10BDF000AD20B1F96C005FEA8A7405D5234C247834
:10BE0000012C01D1B1F96A00344C2478012C2ED0D8
:10BE1000022C06D3B1F8BE200AB1B1F9BE00024629
:10BE20001346DFF894E0234C0546AEF8002020804E
:10BE3000224CDFF88CC0DFF890B0238091F864606A
:10BE40001C46801B06B291F8A300101A07B291F8A5
:10BE5000C301181A1B4B00B281461F80ACF800606A
:10BE6000ABF800001F48007801283DD06CE091F845
:10BE7000BA40224491F8BB4012B2204491F8DA4112
:10BE800000B223441BB2CCE7470110001803100096
:10BE900041011000430110003E0110004401100058
:10BEA000450110004601100077011000F00210005B
:10BEB000280110001C0310001E03100020031000B6
:10BEC0002203100024031000260310001A031000A0
:10BED000602210005C011000502210004C01100084
:10BEE0009C0100224E01100091F8CC004FF0640C30
:10BEF00000FB05F8B8FBFCF84544DFF80884A8F817
:10BF0000005000FB02F8B8FBFCF800FB04F5B5FBA1
:10BF1000FCF54244AEF80020FB4A2C44148000FBA0
:10BF200006F4B4FBFCF4F94A3444148000FB07F235
:10BF3000B2FBFCF200FB09F0B0FBFCF43A441A80BF
:10BF400004EB0900ABF8000091F8A000C00706D18F
:10BF5000EC480188ED48AEF80010008818805FEAD0
:10BF6000CA7002D0EA48006830B9E748BEF800104D
:10BF700001801988ABF80010E448BBF90020B0F943
:10BF80000010B3F90000F6F7C2FCE2490880BDE8F2
:10BF9000F09FE14A10B51268537D127D5B1C53433C
:10BFA00007E000BF30F912408C4201DD012010BDD6
:10BFB000521C9A42F6DB002010BD2DE9F047804666
:10BFC000D6488946002400684FF40861054602F00F
:10BFD000CCFCD14A1068037D0120064616E000BF64
:10BFE00000EB001105EB4107012108E039F913C00E
:10BFF0005B1CC44502DD641C7E54A4B2491CD2F80B
:10C0000000C09CF814C08C45F0DA401C1168497DD2
:10C010008142E5DA2046C1E6F0B5BF4E33685D7D6A
:10C020001B7D6D1C5D430024274608E030F913C0DA
:10C03000944502DA21F8137000E0641C5B1CAB42EB
:10C04000F4DB3068B0F89A00A04201DD0020F0BDBA
:10C050000120F0BDF0B50025AF4C26E00022012301
:10C06000767D0EE003FB075C30F91CC0BCF1000FCD
:10C0700004DD0AB1944503DA624601E00022731C34
:10C080005B1C9E42EEDA002A0EDD012308E0367DBD
:10C0900003FB065630F81670BF1A21F816705B1CA9
:10C0A0002668777D9F42F2DA6D1C2668377DAF42A5
:10C0B000D4DCF0BD2DE9F043974B81461868467DEE
:10C0C000057D761C002028E01A6892F85C20642A1E
:10C0D00006D9643A02FB00F494FBF5F4141B04E067
:10C0E000C2F16402424392FBF5F4643401224FF042
:10C0F00064080FE01F683F7D02FB070739F917C08E
:10C10000BCF1000F05DD0CFB04FC9CFBF8FC21F8E6
:10C1100017C0521CB242EDDB401CA842D4DBD9E56B
:10C120002DE9F0477C4B81468A461868447D057DA1
:10C13000641C01202DE01E6896F85D10642907D963
:10C140006439421E777D4A4392FBF7F28A1A06E071
:10C15000C1F16401421E5143727D91FBF2F2317DC7
:10C160006432414309EB41060AEB410700214FF0DD
:10C1700064080BE036F911C0BCF1000F05DD0CFBC3
:10C1800002FC9CFBF8FC27F811C0491CA942F1DB1A
:10C19000401CA042CFDB01E62DE9FE4F054660487A
:10C1A00000273E46047807700320F4F74AFAFFF7A9
:10C1B0000BFE5C4823465C4902682846FFF720FDD9
:10C1C000234602AA59495848FFF78CFD04469DF8BA
:10C1D0000800DFF85C814FF48069E8B34E4CDFF86B
:10C1E00024A1206890F8400080070FD54648BAF98E
:10C1F0000010B0F900204F48B0F90000F6F787FBB7
:10C20000494A03B249491046FFF781FC434D474A6A
:10C2100045482968F7F72EF80320F4F72DFA20682F
:10C2200090F84000400703D529680846FFF712FF41
:10C23000206890F84000000703D529680846FFF7FA
:10C240006FFF206890F84000C00603D529680846B3
:10C25000FFF730FF216800E004E091F8B001C20769
:10C2600016D10FE00320F4F707FA012C09D1D8F812
:10C270000010012041F00501C8F800104946F4F70C
:10C28000F5F88EE0800703D491F84004800703D5C9
:10C2900029492868F6F781FE206890F86010490760
:10C2A00016D52968B0F968200846FFF7B5FE0128C1
:10C2B0000ED1206890F86000800609D5D8F80010EB
:10C2C000012041F00501C8F800104946F4F7CEF806
:10C2D0001A48007802283CD019492868F6F75DFE14
:10C2E000DFF830801648B8F90010FFF752FEDFF88B
:10C2F00054C0DFF85490154D9CF8001041B301284C
:10C3000061D043E01C031000200310002203100042
:10C310009C0100221A031000280110005401100093
:10C320003E01100004031000A09E012042000120E5
:10C330002C0110001E0310001C3101204C011000C4
:10C3400020A6012045011000440110003C0110000E
:10C350001AE0206890F840104906C1D58DF80460B5
:10C360008DF80560017D491E8DF80610417D491E3E
:10C370008DF807101B490091B0F95A201A4901A8FD
:10C380002B68FEF7FDFBABE701280DD017488CF8B2
:10C3900000601749067089F80060087808B1401EEF
:10C3A00008703846BDE8FE8FBAF900100D48FFF757
:10C3B000F0FD8CF800002E80206890F8290100071D
:10C3C00001D5FCF740FD012789F800700549B8F94F
:10C3D0000000FFF7F2FD0749488029888142E0D23A
:10C3E0002880DEE720A6012052ED00004601100063
:10C3F00041011000F00210002DE9F04F9146214A52
:10C40000864600201568044695F8B021920737D576
:10C410001D4A1278002A33D14A7891F803C01BE0F4
:10C420002B7D561C7343194E5EF8228006EB430A9F
:10C430000B784FF0010B8F780BE000BF0BFA03F67F
:10C4400016EA080F04D03AF91360002E00DA3444DB
:10C450005B1C9F42F2DA521C9445E1DA0CB94FF0B2
:10C46000FF34642209FB02F1624291FBF2F1B5F85C
:10C47000BC218A4204DDB5F8BA214A4500DD01201D
:10C48000BDE8F08F280110004C0110001C31012084
:10C49000F948FA4A006830F8FA1F1180F849C07963
:10C4A000C8807047F6480021F34A41808180C1600E
:10C4B000126892F843201209826001610170F1480C
:10C4C000017070472DE9F041EB4DEC4A2E6896F86B
:10C4D000D010B6F8FA30C90744D096F8FF4004B936
:10C4E0000124118896F8FEC0CF1A07FB0CF797FBC2
:10C4F000F4F4B6F8FC700F442744E14CB84211DD67
:10C50000002610210120E660F3F7B0FF286890F8BC
:10C510006010490602D5DC4A01211170A68090F80E
:10C52000010106E0814202D9D64D2D7825B196F859
:10C530000101E080BDE8F081D44D2D78002DF9D1C6
:10C54000B4F90650002D01DD6D1EE580E488002C55
:10C55000F0D1891E814200DA01468B4200DD194686
:10C560001180E7E71380E5E7F0B5C349C44D0968DA
:10C5700091F84020D20753D0C24A1778C44A1278A3
:10C58000AFB1012A09D091F84330B1F84A6003F005
:10C590000F021C09B1F8483015E091F84D30B1F8A0
:10C5A000546003F00F021C09B1F852300BE0012A6D
:10C5B0001AD011F8423F03F00F024FEA13144B88D0
:10C5C0008E88A1F1420191F820C15FEACC7C16D09F
:10C5D000DFF8C0C2BCF800C05FEA4C5C0FD591F830
:10C5E000251157B10A090AE011F84C3F03F00F0278
:10C5F0001C094B888E884C39E5E701F00F02984200
:10C6000001DCAA60F0BDB04201DBAC60F0BDC01A35
:10C61000A11A4843F11A90FBF1F01044A860F0BD54
:10C620000020FBE7944A10B512680021B2F8B83038
:10C63000834205D292F8B0301B0701D5032112E0E6
:10C64000B2F8B630834205D292F8B0305B0701D51C
:10C65000022108E0B2F8B430834204D292F8B0006C
:10C66000800700D501218648864C0378994211D174
:10C67000217899420AD0854A1278134307D001697C
:10C68000491E0161002901DC0078207010BD017095
:10C690000169F7E759B1022901D1012B07D092F8BE
:10C6A000B22002610170002AF0DC217010BD92F806
:10C6B000B320F6E77049096891F8B010CA067049CE
:10C6C0000DD58A88831A002B09DC704B1B784BB17F
:10C6D000C2EB0212520002EB4000C0F34F10888000
:10C6E00080B27047C2EB82121044C0F38F10F6E79D
:10C6F0002DE9F043604E0546A3B03768802197F8D6
:10C70000B10000F00F04641C02A802F050F997F881
:10C710005F04C00714D0002710E03168087DB1F92C
:10C720006234CDE9003000FB07F2B1F9603405EB6B
:10C73000420002462946F6F72AFD7F1CA742ECDBA1
:10C7400030680023814602A9007D10E000FB03F65B
:10C75000002209E006EB020C51F8227035F91CC0EA
:10C76000674441F82270521C9042F3DC5B1CA342E8
:10C77000ECDB002207E000BF51F8223093FBF4F31A
:10C7800041F82230521C9042F6DC002213462AE087
:10C7900000273E460DE000BF06FB003C51F8238019
:10C7A00035F91CC0BCEB080C01D5CCF1000C67447A
:10C7B000761CA642F0DB97FBF4F699F82071FF0790
:10C7C0000DD0344F3F887F0509D599F824714FEA81
:10C7D000171C0CFB06FC07F00F069CFBF6F69642B6
:10C7E00000DD32465B1C9842D2DCB2F5803F04DBB0
:10C7F0004FF6FF7023B0BDE8F08390B2FAE710B5B2
:10C80000FFF776FFFFF756FF1D4C4FF00051020A6D
:10C8100060804A738873FFF705FF6088FFF7A4FE06
:10C820006088BDE810404DE6F0B4134A116891F8F5
:10C83000B130097D03F00F04114B641CDD6895FBDA
:10C84000F4F604FB16556943134D05EB4105002131
:10C8500005E000BF30F8116025F81160491C16682A
:10C86000367D8E42F6DCD868401CD860A04215DBCD
:10C87000F0BC0948C3E7000028011000EC221000BA
:10C88000FC0210004C01100077011000450110005F
:10C890004701100060011000A09A0120F0BC704711
:10C8A00031B56846FEF73BFD814C2078022805D162
:10C8B0009DF80000012801D100F0BDFE9DF80000A8
:10C8C000207000F045FE38BD10B5FEF738FFBDE81A
:10C8D000104000F02DBE10B5FFF7EEF8FCF7C0FFDA
:10C8E00000F00EFEBDE81040FFF7DCBD704910B54A
:10C8F00000204860FFF7EFFF6E48006890F8E801FD
:10C90000002803D0BDE81040FCF7C2BD10BD10B533
:10C910000024FFF741FC012801D058B101E0FFF7E6
:10C92000BFFF65480124007810B1644901200870F8
:10C93000204610BDFFF7C8FFFAE72DE9F041604F30
:10C94000604800243D68054244D05A4E306890F853
:10C950002901800703D55C485C4900880880544859
:10C96000406805400620F3F76CFEA80703D5584839
:10C97000FCF786FE0446E80721D0564D00202978B2
:10C9800001290AD1316891F86010490605D552494C
:10C99000524A49881288914200D12870306890F834
:10C9A000B000C00704D0287848B94D48FFF73CFFD5
:10C9B000287820B94B494A48FFF7A9FF0443386853
:10C9C000002802DA2046FCF725FFBDE8F0410620EA
:10C9D000F3F752BEBDE8F08110B543483449006812
:10C9E0004C6844400ED04860A00701D5FCF750FDCC
:10C9F000E00701D0FFF76FFF600603D5BDE81040E8
:10CA0000FFF752B810BD98E7294C08B500256570AE
:10CA1000FFF73EFD607878B30128FBD16B4600221A
:10CA200040F285210320F3F770FD0098C00706D07F
:10CA300001210320F3F748FD6570FFF757FF0098C9
:10CA4000400705D504210320F3F73EFDFFF775FFEE
:10CA50000098800506D54FF400710320F3F734FDEC
:10CA6000FFF76BFF00980006D4D580210320F3F771
:10CA70002BFDFFF7B1FFCDE7FFE703210020F6F71D
:10CA8000C6F86B46002202210320F3F73EFD032186
:10CA90000120F6F7BCF800988007BBD5FFF726FF0A
:10CAA00040F287210320F3F70FFD01206070B1E70A
:10CAB000100310002801100043011000690110004C
:10CAC00060011000030000806C0110006E01100076
:10CAD000AE29012077011000EC221000780110002F
:10CAE00058091000D48D012048031000D6480021B9
:10CAF00001704160704710B5027F817F531A9B1C03
:10CB0000042B05D9437FC47F1B1B5B1C022B0FD951
:10CB1000CE4B1B7873B12AB1CD4A1268127D521EDA
:10CB2000914207D1417FC07F081A401C022801D8DA
:10CB3000012010BD002010BD2DE9F05F43680646BE
:10CB40001804DFF810A3000C13D000220A271046A7
:10CB50005FF0010404FA00F10B4217D000EBC001B2
:10CB600006EBC1010C3191F82050012D06D00A27A7
:10CB70000FE000208AF80000BDE8F09FCD68098929
:10CB800095FBF1F1914201DD0A460746401C0A2857
:10CB9000E0DBDFF8B882DFF8B8B2DFF8AC924FF034
:10CBA000000C00BF706804FA0CF108420AD00CEBCC
:10CBB000CC0006EBC0050C3595F82000012802D00A
:10CBC00006285BD076E0022085F82000287948B15D
:10CBD00098F80000C0B3DBF80000674590F8C0008B
:10CBE0001FD115E09C480078012808D09B480078A8
:10CBF0000128DBF8000016D090F8CF0115E098F876
:10CC0000000040B1DBF80000674590F8D80108D17A
:10CC100000F00F0009E0DBF80000674590F8D00154
:10CC2000F6D0000901E090F8D401E8702846FFF73B
:10CC300062FF012810D06878D9F8042004FA00F1C6
:10CC40008A43C9F8042035E0FFE7DBF800006745B8
:10CC500090F88200E5D1DBE7DBF80000E97890F896
:10CC6000830000F00F000844E8706978D9F80420C8
:10CC700004FA01F01043C9F804001BE0072085F80E
:10CC8000200098F800000028DBF8000032D090F86F
:10CC9000C10000BF00F00F00E870DBF80000696A17
:10CCA00090F88500B1EB101F04DDE97800F00F006B
:10CCB0000844E8700CF1010CBCF10A0FFFF672AFEA
:10CCC0005FF00007706804FA07F108426BD007EBC9
:10CCD000C70006EBC0050C35A0466978CC4604FABF
:10CCE00001F0D9F8041008421BD02846FFF703FFD3
:10CCF00018B116E090F88400CCE7DBF80000E97882
:10CD000090F8830000F00F00081A002800DC0020D3
:10CD1000E870687808FA00F1DCF804008843CCF881
:10CD20000400E878E0BB95F82000022802D007282C
:10CD30003DD038E0032085F82000287948B94648DE
:10CD4000007818B94FF48670FCF712FA424880F860
:10CD5000008043480078012816D103208AF800009B
:10CD60002879022810D1DFF8F08098F80000012817
:10CD700002D10C20FCF7FCF93A49052008703A4929
:10CD8000002088F80000087038480078012805D194
:10CD90009AF8001041F002018AF80010E87810B10A
:10CDA000C0B2401EE8707F1C0A2F8BDBE4E608202F
:10CDB00085F820002A48007828B99AF8001021F058
:10CDC00001018AF80010294800780028EBD19AF870
:10CDD000001021F002018AF80010E4E7F0B500210C
:10CDE0001B4B0125426805FA01F422421FD001EBDA
:10CDF000C10200EBC2020C3292F82040022C16D184
:10CE0000154ED4783678012E15D0144E3678012E72
:10CE10001E6816D096F8CF7196F8826006F00F065D
:10CE2000BE1BA41B24B2002C00DC0024D470491CBF
:10CE30000A29D7DBF0BD1E6896F8D07107F00F07FE
:10CE4000EAE796F8D471E7E7280310004C011000D8
:10CE5000280110004301100047011000420110009A
:10CE6000450110004101100018031000440110009A
:10CE70007047FE490A68B2F82B11814201D30020A5
:10CE80007047B2F82D21824201D8FF207047521A14
:10CE9000401AC0EB0020B0FBF2F0C0B2704738B5CA
:10CEA000B2F90230B2F900205B4302FB02340A46B9
:10CEB0000146684600F092FE684600F087FEA042F8
:10CEC00001D9002038BD012038BDF0B5E74C002263
:10CED000236893F887502B0701D12B091DD0B0F997
:10CEE0003060B1F90230F31A00D55B4205F00F074C
:10CEF000BB4200D90122B0F92E70B1F90030FB1A03
:10CF000000D55B42B3EB151F01D942F0020232B1EA
:10CF1000012A09D0022A09D009E00020F0BDD0F88A
:10CF20002E0008600120F0BD0F8000E04E80D30786
:10CF300015D0B1F90230B0F93050AB4207DD2568A9
:10CF400095F8875005F00F05A3EB050306E006DA18
:10CF5000256895F8875005F00F052B444B80920704
:10CF600012D5B1F90020B0F92E309A4205DD2368C0
:10CF700093F88730A2EB131205E005DA236893F8E3
:10CF8000873002EB13120A800968C0F82E10C4E73C
:10CF90002DE9F843B54E0D46044690F820100127C0
:10CFA00030684FF0000903290DD0B4F93480002116
:10CFB00004F13A0C04F12E03B8F1000F1EDD90F8D5
:10CFC000982032B10AE090F88900A086A4F8329047
:10CFD00068E090F89980B8F1000F0BD0ADF802200E
:10CFE00090F89900ADF800006A4661461846FFF7D0
:10CFF00056FF0146A08E401EA08626E0B4F93220DE
:10D00000002A0EDD90F8800040071ED529462046F4
:10D01000FFF75BFF0146012817D1608E401E608636
:10D0200013E090F8862022B990F89780B8F1000FAD
:10D030000BD0ADF8022090F89700ADF800006A46DA
:10D0400061461846FFF72BFF014694F8200005289B
:10D0500006D0042804D007282AD0082828D029E0A0
:10D0600041B1306890F8800080071FD5D4F82E00B9
:10D0700028601FE0608E78B9B5F90200B4F930106D
:10D08000084440106880B5F90000B4F92E10084437
:10D09000401028802868A062A4F83490306890F886
:10D0A000880060862868C4F82E0003E0002701E0AD
:10D0B0000129DBD03846BDE8F8832DE9F843044662
:10D0C00090F8200016460F46032824D004F13E02B3
:10D0D000111FDFF89C81654D05281ED02B6893F841
:10D0E00029315FEA836C01D4072816D0082803D0C1
:10D0F0009B067DD507287BD1684600F06FFD68460A
:10D1000000F064FD014698F800000028286876D0F9
:10D11000B0F8C40075E008686DE0684600F05EFD98
:10D12000684600F053FD034698F8000060B1D5F85A
:10D1300000C09CF8C200BCF8C42000F00F01000938
:10D140005243BCF8C6C011E02079B8B10128286864
:10D1500018D090F88A0000BFD5F800C000F00F0189
:10D160000009BCF88C20BCF88EC052430CFB0CFCB0
:10D17000934212DD634508DB08460EE0286890F80C
:10D18000D101E9E790F8AC00E6E79B1A411A4B435E
:10D19000ACEB020193FBF1F1401A23783549C0F161
:10D1A00010022BB90B7960F307130B7123690B6124
:10D1B0002378012B03D14B7960F303034B71A16AF0
:10D1C0003B68414303FB02106FF0F02101EA1010AD
:10D1D00038602868338890F88B0000F00F01A08D2C
:10D1E000C1F11002484303FB02000009308001E056
:10D1F00004E004E03868A0623088A0855BE7B0F8FE
:10D200008C0040438142F9DCA06A3860A08D3080F8
:10D2100051E72DE9FC5FDFF860B0DFF8509007467A
:10D2200000264FF0010A79680AFA06F8554611EA15
:10D23000080F7DD006EBC60007EBC0040C3494F851
:10D24000200003280ED005280CD004280AD0D9F8D5
:10D25000001091F829118906002901DA072801D068
:10D26000082865D1D4F83A10009107E02801100091
:10D270004C011000F622100070221000A18AADF8B7
:10D280000410D9F8002092F829319B0604D504280F
:10D2900002D1D4F83E00009092F88000000704D537
:10D2A00001AA69462046FFF708FFD9F8000090F868
:10D2B0008000C00706D001AA69462046FFF768FE35
:10D2C000002835D094F82000032808D1D9F80000B0
:10D2D00090F82901400702D5D4F836000090DBF819
:10D2E0000010794B41EA0801CBF8001022791B7835
:10D2F0005846AA461A4306D194F82020082A02D09C
:10D3000021EA0801016006EB46010BEB810594F868
:10D3100020002D1D032857D004285BD0052859D0A4
:10D32000D9F8001091F82911890603D5072800E0E3
:10D3300070E04FD05FF00400B5F90A10BDF902208B
:10D34000914214D1B5F90810BDF9002091420ED1D7
:10D35000D9F8001091F88010890708D5297901F0D3
:10D360007F02A178B2EB510F01D1891CA170A17885
:10D37000490829712279032A02D341F080012971D9
:10D380000099A96028702078687020796871D9F8B0
:10D39000000022894B4690F82F010109514300F00B
:10D3A0000F00B1FBF0F0A870E08AFFF762FDA871F2
:10D3B000207EE8711A68BDF80400B2F8901081422E
:10D3C0000AD385F803A019E02146384600F016F983
:10D3D0000320B1E70520AFE7B2F89220824201D8DE
:10D3E0003F200AE0521A401AC0EB801090FBF2F086
:10D3F00010F0FF00E87000D10120E87094F82000E0
:10D40000082807D12146384600F0EDF82146384675
:10D4100000F007F9761C0A2EFFF605AFBDE8FC9F69
:10D4200010B504460520F3F70CF92046FFF7F1FE8E
:10D430000520F3F721F92548006818B102210020E2
:10D44000F3F714F82248006890F8F007000639D581
:10D450002048224B027820481B788178534062F3A1
:10D4600082011F4A63F341011278C2701D4A12788B
:10D4700062F30001144A127862F3C30121F07001D3
:10D48000817019490978417318490279097861F363
:10D490000302174902710988418116494A88C280EE
:10D4A0000988018114490A78417962F307114171B1
:10D4B000C189491CC1810146BDE8104016220F48B0
:10D4C000F5F746BD10BD00004701100070221000A6
:10D4D0002801100046011000F6221000450110003E
:10D4E00043011000440110006C41100004031000BF
:10D4F000FE021000EC2210004C01100020A60120BA
:10D5000010B54FF43771564801F051FA4FF42671B7
:10D51000544801F04CFA54490020087000F0A8F873
:10D52000FFF7E4FA00F0DCFABDE81040FFF7A0BC1A
:10D5300010B500F0C5FA4A4800F0D3FA4848FFF7A2
:10D54000FBFA4748FFF76CFF46490020087010BD02
:10D5500010B5444C2078D0B14448006890F81001D0
:10D56000C00704D0204600F04EF900280ED03D49F7
:10D570003B4800F0B8FD3A4800F086F83848FFF71D
:10D58000DBFA3748FFF74CFF0020207010BDBDE8E4
:10D590001040CDE710B5334C014620780F280CD24F
:10D5A00000EB400202EBC00004EB8000001D2C22C7
:10D5B000F5F7CEFC2078401C207010BD10B5034656
:10D5C0000020D3F80410012202FA00F4214206D010
:10D5D000401C40B20A28F7DB4FF0FF3010BD8240FC
:10D5E0001143596010BD10B54C7801234268A34027
:10D5F0009A434260002081F8200010BD30B500221F
:10D600000368012404FA02F52B4205D0521C0A2AB1
:10D61000F8DBFF20087030BD9440234303600A709C
:10D6200030BD10B50C7801230268A3409A43026014
:10D63000FF20087010BD0A48FFF7D0BB09480A490F
:10D640000078087070470949096891F86110C907A6
:10D6500005D0024604480178024800F066B97047D8
:10D66000903E10006C4110003003100028011000A3
:10D67000F94800214170C16001704160F7490968B3
:10D6800091F81611816070472DE9F041002506469A
:10D690005FF00107706807FA05F1084233D005EB27
:10D6A000C50006EBC0040C3494F82000012801D01A
:10D6B000022828D12079022803D0012805D0B8B14A
:10D6C00021E0B4F80500E64915E0E449E5480968B9
:10D6D000B0F9000091F8A010890704D5B4F91A0038
:10D6E0000021FDF751FCB4F80510814207DB0AE088
:10D6F000B4F80500DC49B1F90010884203DA21468C
:10D700003046FFF770FF6D1C2DB20A2DC2DBBDE85D
:10D71000F0812DE9F0410446D0480025006890F8DA
:10D72000102192074AD5002226780AE002EB420334
:10D7300003EBC20304EB83031B7E012B00D1012505
:10D74000521C9642F2DC0027C34A4FF0010C012D17
:10D750000AD153685B1C536090F815619E4203DC4C
:10D7600082F800C0C2E90167012903D010780128BE
:10D7700006D023E082F800C090F81501C2E9010745
:10D780000026374616E000BF07EB470000EBC70056
:10D7900004EB8001091D087D01280AD106EB460033
:10D7A00000EBC60004EB8000001D2C22F5F7D0FB37
:10D7B000761C7F1C2078B842E6DC26702846A6E757
:10D7C00070B5A64A002319461268057811E000BF1B
:10D7D00001EB410404EBC10400EB840492F81161F5
:10D7E0006489B4420BD892F81261B44200D95B1C30
:10D7F000491C8D42ECDC92F81301984201D20120C1
:10D8000070BD002070BD70B506460125FFF7D8FF3A
:10D81000914C012803D06078012808D00EE0012047
:10D8200060708E48006890F81401E06006E0E068DF
:10D83000002803DD401EE060002060706178304603
:10D84000FFF767FF28B96078012802D1FFF770FE63
:10D850000025284670BD8048C168002903DD491EA7
:10D86000C1600021417070472DE9F04704469142A4
:10D8700059D007D901EB0200A0EB0201CAB2A0EB1C
:10D880000200C1B201EB410000EBC10004EB8001DA
:10D8900002EB420000EBC20004EB80094B89B9F8AF
:10D8A0000A5009F104002B444B810B89B9F8085048
:10D8B0002B440B810B69D9F810502B440B61CE68B7
:10D8C0004B680068D9F80C704FEA234C4FEA2048A7
:10D8D00006FB0CFC06EB070507FB08CC9CFBF5FCE4
:10D8E0006CF31F430FFA83FC06FB0CF600B207FB38
:10D8F000006090FBF5F060F30F03CD604B60207883
:10D90000A0F1010191420BD000EB400101EBC000FE
:10D9100004EB8001283909F104002C22F5F718FBEB
:10D920002078401E2070BDE8F0872DE9FC5F074697
:10D930004E48002502784948012A006808D090F82E
:10D94000730000BF00FB00FA0C464FF001099FE096
:10D9500090F8CB00F6E700BF09FA04F026460090E5
:10D9600067E000BF009909FA06F0084260D006EBB4
:10D97000460000EBC60007EB8000416820464CE003
:10D98000B04249D000EB400202EBC00207EB82023A
:10D9900052684FEA224CACEB214C0FFA8CFC6CF332
:10D9A0001F45E646DFF8B4C0A2EB010212B2DCF874
:10D9B00000B062F30F059BF861C0CDF804C05FEAC8
:10D9C0008C7C0AD59BF874C002FB0CF84FF0640CF9
:10D9D00098FBFCFC624462F30F05019A52070BD5D9
:10D9E0009BF874C00EFB0CF24FF0640C92FBFCFC35
:10D9F0000CEB0E0262F31F454FEA254C0CFB0CFCAE
:10DA00002AB202FB02C2524506D2DDF800C009FA72
:10DA100000F242EA0C020092401C8342B0DC042176
:10DA20006846F4F759FF012802D1009840000090A1
:10DA3000761C3B78B34295DC04216846F4F74CFF32
:10DA4000012829D00099484600FA04F20A420FD072
:10DA50003E78C846761E18E03403100028011000F6
:10DA60001C0310001E031000200310004E011000C4
:10DA7000641CE9E7009908FA06F0084204D0F2B203
:10DA8000E1B23846FFF7F0FE761EA642F2DC641CD7
:10DA90003878A0423FF760AFBDE8FC9F0E480178A0
:10DAA00001290CD181680D4A491C8160126892F8E5
:10DAB00016218A4203DC00210170C0E9011270477F
:10DAC000064800B5006890F81001C00701D0FFF7C4
:10DAD000C2FE5DF804EBE1E73403100028011000FA
:10DAE00070472DE9F0410024012605465FF0060746
:10DAF000686806FA04F1084215D004EBC40005EB8F
:10DB0000C0010C3191F82000032806D0042804D06D
:10DB1000052802D0022803D005E081F8207002E039
:10DB20002846FFF760FD641C0A2CE1D3BDE8F081B4
:10DB300010B5022200EB8203521E53F8364F12F04A
:10DB4000FF025C60F6D1C0F83A1010BD5FF0000231
:10DB500000EB8203521CD2B2C3F83A10032AF7D367
:10DB6000704730B504464270087D2071C868E06097
:10DB700088682061C888208188886081487DA0707D
:10DB80000D460869E061E88AE082288B2083A88B33
:10DB9000A4F80500B5F81F006083A889A082012BB6
:10DBA00007D020462968FFF7C3FF606A401C606207
:10DBB00030BD012084F8200020462968FFF7C6FF09
:10DBC000002060622868C4F8360030BDB0F900104B
:10DBD000B0F90200494300FB0010704710B55388AC
:10DBE0004C881B1B438012880988511A018010BD84
:10DBF0002DE9FF4F4FF004088946526808EBC00436
:10DC0000411E4FF0060C1D460CEBC000DDE90D3A3D
:10DC100014441044B4F90040B0F9007000E0491E0B
:10DC200008EBC1001044B0F90000A04201D0002967
:10DC3000F5DA08EBC1001044B0F90000A0427BD136
:10DC40000CEBC1001044B0F90060491E0CEBC100A0
:10DC50001044B0F90000B04201D00029F5DA0CEB15
:10DC6000C1001044B0F90000B04278D108EBC10007
:10DC7000104407EB4702B0F900C004EBC40003EB0B
:10DC8000C0000CEBCC0103EBC10102EBC7030AEBB4
:10DC90008302D0F84600D1F846105268009206EB95
:10DCA000460202EBC6030AEB83024FEA204B0FFA4F
:10DCB00080FA08B25268019250440BEB21424310A3
:10DCC000BDF90200BDF90610BDF9048008444110F9
:10DCD000BDF90000A1EB620140445944C3EB600070
:10DCE000ADF80E105044ADF80C006A4603A902A826
:10DCF000FFF774FF02A8FFF769FF804601AA03A996
:10DD000002A8FFF76BFF02A8FFF760FF804526D946
:10DD1000002000E0401C05EBC001B1F90410A14255
:10DD200001D04845F6D305EBC001B1F90420A24269
:10DD300015D1CE80002101E011E0491C05EBC102A4
:10DD4000B2F90420624501D04945F6D305EBC10183
:10DD5000B1F90420624504D005EBC000C780BDE8DE
:10DD6000FF8FCF80FBE7F0B5002118E04A1C12E0DE
:10DD7000436803EBC10603EBC204356823689D4288
:10DD800008DD6768256075686560446804EBC10458
:10DD900023606760521C03689342E9DC491C0268F7
:10DDA0008A42E3DCF0BD70B5D0E90045062606EBFB
:10DDB000C40635442A800425426805EBC4052A447C
:10DDC0001180416801EBC401641C0B60046070BDEC
:10DDD000F0B5B1F90240B2F9025004FB05F6002E8D
:10DDE0002ADDB1F90060B2F900707E43002E23DD18
:10DDF00064435D4394FBF5F424B24480B2F90020FF
:10DE0000B1F900105A43494391FBF2F10AB2782369
:10DE10000280782C00DD4380B0F902406FF077017A
:10DE20008C4200DA4180782A00DD0380B0F90020BE
:10DE30008A4200DA0180F0BD00214180FAE72DE935
:10DE4000FF4FADF27C5D81464FF6FF70CDF80805BF
:10DE50000020CDF86C050DF5A360CDF81005083055
:10DE60000E46CDF874050DF5A362002002A903C289
:10DE7000D84A0DF5AC6B0DF5AD6A117804468046B5
:10DE8000012902D1CDF86C15107000270120D9F8B6
:10DE90000410B84001427DD0CF4807EBC70109EB21
:10DEA000C1050168DDF86C250C35B1F89400012A34
:10DEB00003D1B1F89C2002B110464043CDF81405BF
:10DEC00091F896C005F13A02111D0DF5AC60CDF840
:10DED0005C25CDF82415FFF781FE0DF5AC60FFF74A
:10DEE00075FE0CFB0CFC0CFB00FCDDF814058445F6
:10DEF00002DDCDF828C501E0CDF828054FF0000C73
:10DF000057E000BF0CEB4C0000EBCC0006EB8000B0
:10DF1000001D01900DF5A460DDF85C25DDF82415E9
:10DF2000FFF75CFE05F142010DF26450DDF8242597
:10DF3000FFF754FEDDF87405B0F902006430C8281C
:10DF400006D8DDF87405B0F900006430C82801D99E
:10DF5000012300E003230DF264520DF5A461101FAC
:10DF6000FFF736FFA98FBBF802000844AAF80200A9
:10DF7000698FBBF800000144AAF800100DF5AD61EF
:10DF80000DF5AC60019AFFF729FE0DF5AC60FFF7C7
:10DF90001DFE00E010E00346DDF82805834206DAA6
:10DFA0000FFA8CF239B2DDF81005FFF7FCFE0CF128
:10DFB000010C30786045A5DC7F1C0A2FFFF666AFA8
:10DFC000DDF8180500287DD0DDF81005FFF7CBFE41
:10DFD00000210DF5A66E0DF5976B4FF0040A3AE09F
:10DFE000DDF81C050AEBC1020244B2F9003006223A
:10DFF00002EBC10210440122B0F900C0DDF8840533
:10E00000056802FA03F005421FD1DDF8887502FAAF
:10E010000CF23F68174218D1DDF8847505433D6066
:10E02000DDF888552D681543DDF8882515600BEB64
:10E03000C405641CAB80A5F806C0DDF808251042B5
:10E0400003D14EF8281008F10108DDF808258243B5
:10E05000491CCDF80825DDF818058842C0DC754656
:10E06000B8F1000F39D0CDE90096A8F101080DF5FF
:10E07000976355F828002146DDF81025FFF7B8FD15
:10E08000EEE7641E0BEBC4000023B0F90410B0F9F6
:10E09000060001EBC10200EB400109EBC20501EBF8
:10E0A000C0000C3506EB8001091D95F901202846BA
:10E0B000FFF757FD95F82000032808D0042809D061
:10E0C000072800E00BE005D0052806D102E085F81E
:10E0D00020A002E0052085F82000002CD1D10DF20F
:10E0E0008C5DBDE8F08F2DE9FC41064640680F4687
:10E0F00050B100200190009001AB6A463046FFF716
:10E100009EFE002501243EE0002415E004EBC4003F
:10E1100006EBC0050C353046FFF750FA021E0ADB4D
:10E1200002EB420000EBC20007EB8001091D012356
:10E130002846FFF716FD641C3878A042E6DCBDE8EF
:10E14000FC8100BF019904FA05F008421AD130465B
:10E15000FFF734FAB0F1000C14DB05EB450000EBDF
:10E16000C50007EB80010CEBCC0006EBC000091DDD
:10E170000C3001236246FFF7F4FC009904FA0CF01E
:10E18000084300906D1C3878A842DBDC0025062788
:10E19000716804FA05F0014218D00099084215D1BF
:10E1A00005EBC50006EBC0010C3191F820000328F7
:10E1B00006D0042804D0052802D0022803D005E0A8
:10E1C00081F8207002E03046FFF70DFA6D1C0A2D31
:10E1D000DEDBB4E776011000280110001049086862
:10E1E00000204FF4FA7200BF401C9042FBD308603D
:10E1F00030BF086820F0040008607047094C0A4DE1
:10E200000A4E2068401C206028783178084304D0EA
:10E210000120F4F750FF30BFF3E7FFF7DFFFF0E72F
:10E2200010ED00E0700110007D0110007C01100075
:10E23000F7480021416081600160704710B54FF0E0
:10E240000854D4F88401002806D040210220F2F7B7
:10E250000DF90020C4F8880110BD70B54FF00854C6
:10E26000D4F88401002836D105210120F4F7CFFC31
:10E27000E7490020486088600860E64908604FF47C
:10E2800080710220F2F7F2F802210120F2F7EEF895
:10E2900002210320F2F7EAF808210020F2F7E6F85D
:10E2A00002210420F2F7E2F8DB4D286890F82901FA
:10E2B000800702D50120FAF74FFDFAF740FE2868E3
:10E2C00090F88003000703D520210120F2F7CEF853
:10E2D0000120C4F8840170BD70B54FF00855D5F821
:10E2E0008401002834D0CC48006890F829018007C8
:10E2F00001D5FAF734FDC74800240121046008461F
:10E30000F2F7B4F8C248042144600220F2F7AEF8F4
:10E3100010210420F2F7AAF880210320F2F7A6F8D2
:10E3200080210220F2F7A2F801210320F2F79EF8E3
:10E3300004210020F2F79AF801210420F2F796F860
:10E34000C5F88441BDE8704005210020F4F75FBCAA
:10E3500070BD70B5AE4C6268D0072AD1AD48AF4BE6
:10E36000016841F0050101601D6845F020051D6050
:10E37000A94B1B6893F8B031DB0705D012F4017F7D
:10E3800002D141F042010160A5480125A9020570B2
:10E390002846F2F76BF86068042140F001006060E5
:10E3A0000220F2F763F880210320F2F75FF89D481E
:10E3B000056070BD964910B54868C2070DD020F0C1
:10E3C0000100486004210220F2F750F88021032068
:10E3D000F2F74CF893490020086010BD10B54FF0DB
:10E3E0000854D4F88401002806D008210220F2F74E
:10E3F0003DF80120C4F8880110BD10B54FF0085455
:10E40000D4F88401002806D010210220F2F72EF85B
:10E410000020C4F8880110BDF2F750BC7E4810B54A
:10E42000006890F85001C0070ED07949486842074B
:10E430000AD520F00400486004210220F2F716F803
:10E4400010210420F2F712F876490020091D086017
:10E4500010BD70B57048006890F85001C0070DD02D
:10E460006B4C2079400709D46F48017820468068BA
:10E4700029B140F00400A0600520206070BD6B4908
:10E48000012520F004000D7069490A6842F020025D
:10E490000A60A0605F48016841F0220101606048A5
:10E4A000A90205702846F1F7E1FF6068042140F0F9
:10E4B000040060600220F1F7D9FF10210420F1F779
:10E4C000D5FF5848001D056070BD534810B5006861
:10E4D00090F8E801002812D04D49486882070ED50F
:10E4E00020F00200486004210220F1F7BFFF8021E4
:10E4F0000320F1F7BBFF4B4900200C31086010BD31
:10E50000454810B5006890F8E80100281DD0404C3F
:10E510002079800719D43F48016841F0100101605B
:10E520004FF480610120F1F7A1FF6068042140F001
:10E53000020060600220F1F799FF80210320F1F7CB
:10E5400095FF384901200C31086010BD324810B5E4
:10E55000006890F8C001C00711D02D4948684206F4
:10E560000DD5344B002220F040001A704860042181
:10E570000220F1F77BFF80210320F1F777FF294983
:10E5800000201031086010BD234810B5006890F8D5
:10E59000C001C00715D02749002008701C494868F1
:10E5A00042060ED440F04000486004210220F1F7FA
:10E5B0005DFF80210320F1F759FF1A490120103136
:10E5C000086010BDF2F75CBB124840F2B732016838
:10E5D000114301601249012008708102F1F746BF22
:10E5E0001348016841F0100101600D4901200870D5
:10E5F0000848016841F4D17101604FF48061012045
:10E60000F1F734BF4FF400510120F1F72FBF0000A4
:10E61000440310002C0110002801100034011000E8
:10E62000300110008C01002243011000680110002D
:10E63000380110004201100008210120F1F716BF37
:10E6400004210120F1F712BF704710210120F1F7DA
:10E650000DBF20210120F1F709BF40210120F1F772
:10E6600005BF4248006890F8C800C00705D040497F
:10E6700001200870CC20FAF77BBD70473C49002090
:10E680000870CD20FAF774BD70470A46B0F5805F78
:10E69000014602DA3548006801E04FF4F830FAF735
:10E6A0005FBCF0B54FF40064B0F5805F02D22F4B31
:10E6B0001D6803E0A0F580504FF4F835002303E017
:10E6C000D65C1F185B1CEE558B4201DAA342F7DBC8
:10E6D000F0BD10B5254C40F2FF112068F2F774F838
:10E6E00022684FF40071C2F8FC071046F2F73FFDB4
:10E6F000BDE810400320FAF73BBD10B54FF4F834E5
:10E7000040F2FF312046F2F75FF81A4908604FF4F3
:10E7100080612046F2F73DFDBDE810400420FAF785
:10E7200027BD00B587B0FF221821684600F015F913
:10E730006846F2F785FC6846FAF790FC07B000BD22
:10E7400020210220F1F792BE4FF480710120F1F7F1
:10E750008DBE4FF400710120F1F788BE0648007AA3
:10E76000400700D575E6704770470000280110008B
:10E770004E011000FCFF01004403100070B5044678
:10E7800029480D46202C02DD2021016000E00460B4
:10E790002021264800F0E9F80022244802E0A95C84
:10E7A0008154521CA242FADBBDE8704001210520D1
:10E7B000F1F75CBE032804DD0888897840BAFFF7CA
:10E7C00064BF7047032806DDC31E08888A1C40BA50
:10E7D0001946FFF766BF7047144913480A78006866
:10E7E000A2F190031F2B03D8114850F823000047D3
:10E7F000A2F1C0030F2B05D80D4A8032491C52F8F4
:10E8000023201047B02A07D0B22A07D0FB2A07D00E
:10E81000FC2A07D1FFF771BF491CD3E7491CC9E7A0
:10E82000FFF757BF7047000050031000044410006A
:10E830007CED000008B5FFF7FBFC1248F2F745FA43
:10E84000FAF755FB05210020F4F7E1F903216B46A7
:10E8500000220520F1F759FE0098C00707D00121DA
:10E860000520F1F731FEFFF7B7FFF2F75AFA0098EB
:10E870008007EBD502210520F1F726FEFFF76EFF9A
:10E88000E4E700005DE7000010B54C1084EA530493
:10E8900004D54042C1F1000138BF491E1B4204D5D6
:10E8A0005242C3F1000338BF5B1E00F0AAF814F017
:10E8B000804F04D04042C1F1000138BF491E14F01E
:10E8C000004F04D05242C3F1000338BF5B1E10BD9D
:10E8D000032A40F2308010F0030C00F0158011F88C
:10E8E000013BBCF1020F624498BF11F801CB00F864
:10E8F000013B38BF11F8013BA2F1040298BF00F8B8
:10E9000001CB38BF00F8013B11F0030300F0F080A9
:10E91000083AC0F0088051F8043B083A51F804CB9B
:10E92000A0E80810F5E7121D5CBF51F8043B40F861
:10E93000043BAFF30080D20724BF11F8013B11F86C
:10E9400001CB48BF11F8012B24BF00F8013B00F8B0
:10E9500001CB48BF00F8012B704702F0FF0343EAE8
:10E96000032242EA024200F002B84FF000020429FA
:10E97000C0F0128010F0030C00F01B80CCF1040CEE
:10E98000BCF1020F18BF00F8012BA8BF20F8022B22
:10E99000A1EB0C0100F00DB85FEAC17C24BF00F8C8
:10E9A000012B00F8012B48BF00F8012B70474FF0F6
:10E9B000000200B5134694469646203922BFA0E8CF
:10E9C0000C50A0E80C50B1F12001BFF4F7AF0907DB
:10E9D00028BFA0E80C5048BF0CC05DF804EB8900CC
:10E9E00028BF40F8042B08BF704748BF20F8022B0F
:10E9F00011F0804F18BF00F8012B70477047704727
:10EA0000704753EA020C00F069802DE9F04B4FF09B
:10EA10000006002B1FBFB3FA83F503FA05F424FAAE
:10EA200005F65E4012BF1643B2FA82F502FA05F40B
:10EA3000C5F120051EBF22FA05FC44EA0C0420356E
:10EA400056EA044C4FEA144418BF641C4FF0000807
:10EA50004FF00009904271EB030C39D3002919BF24
:10EA6000B1FA81F701FA07F6B0FA80F700FA07F673
:10EA7000C7F120071EBF20FA07FC46EA0C06203724
:10EA8000B6FBF4FCA7EB0507103F07F01F0BCBF11B
:10EA900020060CFA0BFB2CFA06F644BFB346002600
:10EAA000202FA4BF5E464FF0000B5BEA060C08BFA8
:10EAB0004FF0010B19EB0B09ABFB027C48EB06088E
:10EAC000C01B06FB02CC0BFB03CC71EB0C01C1E7B6
:10EAD0000B46024641464846BDE8F08B13B54FF061
:10EAE00000004FF00001AFF30080BDE81C4070470C
:10EAF00010B5203AC0F00B80B1E81850203AA0E8D9
:10EB00001850B1E81850A0E81850BFF4F5AF5FEA0C
:10EB1000027C24BFB1E81850A0E8185044BF18C9BF
:10EB200018C0BDE810405FEA827C24BF51F8043B66
:10EB300040F8043B08BF7047D20728BF31F8023BBA
:10EB400048BF11F8012B28BF20F8023B48BF00F84E
:10EB5000012B70470446AFF300802046F1F72AFBF3
:10EB60007047000001491820ABBEFEE726000200F6
:10EB7000E3160000FD160000151700002D17000019
:10EB80004917000061170000791700008F17000077
:10EB900000000000E3160000E71600002D1700003B
:10EBA000611700007917000049170000FD160000EA
:10EBB000151700008F1700000600000064EE00002B
:10EBC000010000001C3A100080000000DDE10000A0
:10EBD00000000000020000000500000054EE0000EC
:10EBE000020000001C3910000001000015E80000C0
:10EBF0000000000002000000040000003CEE0000E5
:10EC0000030000004C361000D002000045810000D7
:10EC1000000000000200000003000000EBEE000016
:10EC2000040000004C2E100000080000E9C900009C
:10EC300000000000020000000200000085EE00005D
:10EC4000050000000C28100040060000F98C0000B0
:10EC5000000000000200000001000000DBEE0000E8
:10EC6000060000000C24100000040000895A000077
:10EC7000000000000200000000000000FAEE0000AA
:10EC8000070000000C23100000010000B1930000F9
:10EC9000000000000200000006000000BCEE0000C2
:10ECA0000100000005000000A9EE000001000000C6
:10ECB000040000009CEE00000100000003000000C2
:10ECC0006DEE000001000000020000008EEE00006A
:10ECD0000100000001000000CAEE00000100000079
:10ECE000000000005CEE00000100000005000000D4
:10ECF0004CEE000004000000D4EE00000300000011
:10ED0000E4EE0000020000007CEE000001000000C4
:10ED100043EE000000000000F2EE000000010102DE
:10ED20000102020301020203020303045AD3D9E9D8
:10ED30006CF145F59FF73CF96CFA58FB18FCB9FCEF
:10ED400044FDBFFD2EFE94FEF4FE50FFA9FF00001F
:10ED50005700B0000C016C01D2014102BC02470314
:10ED6000E803A8049405C4066108BB0A940E27169C
:10ED7000A62C0100020001000200040002000100B4
:10ED8000020001001000FFFFFFFFFFFFFFFF140064
:10ED9000FFFFFFFFFFFFFFFF0C000000B9E20000D4
:10EDA0003BE2000095E3000033E30000FDE30000D8
:10EDB00033E4000069E60000E5E50000BDE3000083
:10EDC000DBE30000ABE40000E1E4000069E60000E2
:10EDD00069E600002DE5000069E50000F9E30000A8
:10EDE000A5E50000A9E5000019E6000021E6000005
:10EDF0002BE6000033E600003BE6000043E600009F
:10EE0000C1E5000003E700005DE6000069E60000E0
:10EE10001DE2000029E7000033E7000049E7000099
:10EE200049E7000049E7000049E7000049E7000022
:10EE300049E7000049E7000049E7000049E7000012
:10EE400049E7000049E7000049E7000049E7000002
:10EE500049E7000049E7000049E7000054736B5F91
:10EE6000535300456C665F5373766300456C665F71
:10EE7000436D640054736B5F436D640053656D5F55
:10EE80004166650054736B5F49646C650053656D42
:10EE90005F43616C69624672616D6500456C665FD7
:10EEA0005363616E0054736B5F5363616E0053650F
:10EEB0006D5F4576656E744669666F0053656D5F7C
:10EEC00053534275666665720053656D5F52707488
:10EED000546F7563684275666665720053656D5F51
:10EEE0005261774275666665720053656D5F56695B
:10EEF00070657200456C665F53730054736B5F53AB
:10EF000053797300456C665F4D740054736B5F4DAD
:10EF10007400456C665F5270740054736B5F52707E
:10EF20007400000024EF00000001100054020000F3
:10EF30000001000054EF000054031000D040000016
:10EF40005C01000001290313E80109121401DA161B
:10EF5000FFFFFEFF0A2DFEFFFFFFFA0A1F02FE322F
:10EF600006320F9A37089AE108035AD303091E9C08
:10EF7000015C000000000000000000000000000034
:10EF80000000000000000000000000000000000081
:10EF90000000000000000000000000000000000071
:10EFA0000000000000000000000000000000000061
:10EFB0000000000000000000000000000000000051
:020000021000EC
:10E8100000000000000000000000000095F6587B9A
:10E82000A5012E00FFFFFFFF00000000FFFF030017
:10E83000000000002012FF099F05010000000000F9
:10E840002D2300FD05406400320018220020001036
:10E8500000400010000D0001000A0A000000000046
:10E860005700A0F41000300010004000E6FB060046
:10E870003000060030000000300030004864000026
:10E880000603FA004000308001005E018001E001D3
:10E890003C1828640901000AD000080F0620020372
:10E8A0000900310A01F100221005A20820004000F1
:10E8B0000000000880000A000D0D0000800100002B
:10E8C000174000100006040220004800A2D00000FB
:10E8D000138F0220180020010000003000002003E8
:10E8E0003302B40008003000032030701000000034
:10E8F00001040D000E000F001100120000000000C6
:10E90000000000000000FF01000000000000000007
:10E91000000000000000000000000A0012000301D7
:10E920000040000000000000000000412617270002
:10E93000403218020F05200000000A0A00100000F3
:10E940000147120C5A66101000400000005000FAF7
:10E950003E00AC0DB80B00090009000900090000D9
:10E9600000F0003200800C800C000000010000006C
:10E97000FB16A000A000101010003000AA1010001C
:10E980004401230000000012A0800000021E50017C
:10E9900095000405A6C01800F000108001010100D8
:10E9A00000003C3000B00100040A22283060600002
:10E9B0006C101AC83C33003050015001FF7FFF7FBC
:10E9C00002250010100506A810003000800070001D
:10E9D000086400640064000000B400102001000F0F
:10E9E00021000020080050000A00010400021E035C
:10E9F00011D24000010000008402100000203220EB
:10EA0000FFFFFFFF000200220000000000000000E6
:10EA100000020002000200000000000008000000E8
:10EA20000018013FFF01A3000000000000000000EB
:10EA30005802000078050000F0000000000000000F
:10EA400040000001000100002000C8000202000098
:10EA5000030303020200F000803E55002000000185
:10EA6000B4080000000020000001000000000000C9
:10EA70000000000000000000000000000000000096
:10EA80000000000000000000000000000000000086
:10EA90002048575B5D60626462606D5B574820642C
:10EAA0006464646464646464646464646464646426
:10EAB000646464646464AF00000402020000000047
:10EAC0004E5B5E616464646464646464646464642E
:10EAD000646464646464615E5B4E6464646464641E
:10EAE00064646464646464646464646464646464E6
:10EAF0006464646464646464646464648F000000D7
:10EB00000000000000000000000000000000000005
:10EB10000101005000006001FFFFFFFF0100000045
:10EB20000000022200000010111213141590009032
:10EB300000900090009000900008900000000000FD
:10EB400000000000000000000000000000000000C5
:10EB500000000000000000000000000000000000B5
:10EB6000FF0F5000320032000000000000000000E3
:10EB70000000000000000000000000000000000095
:10EB8000FEB2B2401F2828FAA2A2401F3C003C005F
:10EB90003C003C000707070707B2B2401F280700E8
:10EBA00088020001080110010000000000000000C0
:10EBB0000000000000000000000000000000000055
:10EBC0000000000000000000000006000300030138
:10EBD00000FFF80008011801180100000000000003
:10EBE00000000000000000002108170500000000E0
:10EBF0003307E901BF00570028000A000A000A0095
:10EC00000A000A000A0028005700BF00E901330784
:10EC1000000000000000FD000701CE0050003100A0
:10EC2000EC00E001D701F20044002900A5005301E7
:10EC3000300167000000000000000000000000003C
:10EC400000000000000000000000008000800004C0
:10EC500000000000010001020300000000000000AD
:10EC60000017A001090000000000000000000000E3
:10EC70000000000000000000000000000000000193
:10EC8000000500050000000000000000000000007A
:10EC90001A122C5800000011006300B5000701593A
:10ECA00001AB01FD014F02A102F30245039703E905
:10ECB000033B048D04DF0431058305D50527067960
:10ECC00006CB061D076F077F070000110056009C4A
:10ECD00000E20028016E01B301F9013F028502CA7A
:10ECE00002100356039C03E20327043704000000CC
:10ECF000003B009600E6003A018D01E501360289ED
:10ED000002DA022E038703DA032A047C04D20429E0
:10ED1000057905CA0520067406CB061A076C077F1D
:10ED2000070000000034007C00C4000C0153019C6B
:10ED300001E3012B027402BB0204034C039403DCC5
:10ED40000324043704000000003B009600E6003A6C
:10ED5000018D01E50136028902DA022E038703DA0A
:10ED6000032A047C04D20429057905CA0520067407
:10ED700006CB061A076C077F070000000034007CF2
:10ED800000C4000C0153019C01E3012B027402BB7F
:10ED90000204034C039403DC032404370400000042
:10EDA0000000000000000000000000000000000063
:10EDB0000000000000000000000000000000000053
:10EDC0000000000000000000000000000000000043
:10EDD0000000000000000000000000000000000033
:10EDE0000000000000000000000000000000000023
:10EDF0000000000000000000000000000000000013
:10EE00000000000000000000000000000000000002
:10EE100000000000000000000000000000000000F2
:10EE200000000000000000000000000000000000E2
:10EE30000E0E00002000400060008000A000C00016
:10EE4000E000DF06FF061F073F075F077F070000A0
:10EE500000000000000000000000000000000000B2
:10EE60000000000000000000000000009600C80044
:10EE7000FA002C015E019001A702D9020B033D03A9
:10EE80006F03A103370400006E00AA00E600220110
:10EE90005E019001A702D902150351038D03C90336
:10EEA0003704000000000000000000000000000027
:10EEB0000000000000000000000000000000000052
:10EEC0000000000000000000000000000000000042
:10EED0000000000000000000000000000000000032
:10EEE0000000000000000000000000000000000022
:10EEF0000000000000000000000000000000000012
:10EF000000000000000000000000000032000000CF
:10EF1000226001010000000000000000000000006D
:10EF200001020505001A0000000000000140000079
:10EF300000000000000000000000000000000000D1
:10EF400000000000000000000000000000000000C1
:10EF500000000000000000000000000000000000B1
:10EF60000000D2109000A09817FF6000005B0F0017
:10EF70001A00B784200300045B0104040801A00008
:10EF8000000035340801A000000035330000E00126
:10EF9000960000000000000000000008071F06188F
:10EFA000222212001EC5440A3731711041890040E7
:10EFB000000000000000000F000F000F000F000015
:10EFC0000000000000000000000105FA0000000041
:10EFD0000000000000000000000000000000000031
:10EFE0000008100000010000000000000000000008
:10EFF0000000000000000000000000000000000011
:10F00000248100000000000000000000000000005B
:10F010008000000000000000000000119D1823E4A3
:10F0200000000000000000000000000000000000E0
:10F0300000000000000000000000000000000000D0
:10F0400000000000000000000000000000000000C0
:10F0500000000000000000000000000000000000B0
:020000022000DC
:00000001FF
