:100000005555AAAA90120000000000000000000050
:10001000668700000000000000000000C4E0F29EBF
:100020000001100005080000890200009F02000086
:10003000B5020000CB020000E10200000000000059
:10004000000000000000000000000000C1280000C7
:10005000C528000000000000F7020000C7280000CB
:10006000C9280000B526000075290000ED26000013
:10007000E3280000172900001B290000292900009F
:100080003B2900003D2900003F2900005D290000B8
:100090005F29000077290000000000000000000038
:1000A000792900007B29000000000000000000000A
:1000B000000000007D2900007F29000001270000CA
:1000C000812900008F29000009030000A7290000F2
:1000D000A92900000000000000000000000000004E
:1000E0009012000000F002F800F05AF80AA090E820
:1000F000000C82448344AAF10107DA4501D100F0E3
:100100004FF8AFF2090EBAE80F0013F0010F18BF55
:10011000FB1A43F0010318470036010020360100A6
:100120000A444FF0000C10F8013B13F0070408BF1D
:1001300010F8014B1D1108BF10F8015B641E05D0BB
:1001400010F8016B641E01F8016BF9D113F0080F70
:100150001EBF10F8014BAD1C0C1B09D16D1E58BF02
:1001600001F801CBFAD505E014F8016B01F8016B39
:100170006D1EF9D59142D6D37047000000230024AC
:1001800000250026103A28BF78C1FBD8520728BFA7
:1001900030C148BF0B6070471FB51FBD10B510BD03
:1001A000DFF80CD0FFF7F8FF02F032FD13F05EF835
:1001B0000001100003B4FFF7F1FF03BC13F05EF879
:1001C0000A484FF0FF0101704FF0000080F31188E2
:1001D0004FF0000080F3098805484FF002010170DC
:1001E00062B604484FF080510160704722ED00E094
:1001F0000001100004ED00E002484FF08051016062
:100200007047000004ED00E04FF0200080F31188FB
:10021000EFF3098098B112480068124909688842D2
:1002200017D0EFF309800E49096820E9F00F8860C4
:1002300000B50B48006800F0F2F85DF804EB0848E0
:1002400008490A68026000688168B1E8F00F81F32C
:1002500009884EF0040E4FF0000080F311887047BB
:100260000401100008011000EFF311804FF020018D
:1002700081F31188704700004FF0000080F311886F
:100280007047000062B6704772B6704740BA704758
:10029000C0BA7047401E0028FCDC704700BE7047A3
:1002A00040BA7047C0BA70471EF0040F0CBFEFF39E
:1002B0000880EFF309804FF0010102F06CBA1EF0E4
:1002C000040F0CBFEFF30880EFF309804FF0020139
:1002D00002F061BA1EF0040F0CBFEFF30880EFF3D9
:1002E00009804FF0030102F056BA1EF0040F0CBF54
:1002F000EFF30880EFF309804FF0040102F04BBAEE
:100300001EF0040F0CBFEFF30880EFF309804FF0ED
:10031000050102F040BA4FF0000000B503F0D9F932
:100320005DF804EBFFF770BF1EF0040F0CBFEFF396
:100330000880EFF309804FF0000102F02CBA0000B2
:10034000194910B5012008701849002008601849A3
:100350000860184908601849086000F0B9F900F011
:100360004BF900F063F8002010BD10B5114800F003
:100370002AF90F4908600D490968884207D00A48E0
:100380000078022803D1BDE81040FFF735BF10BD4B
:1003900010B5FFF7EAFF044902200870FFF710FFCD
:1003A0004FF0FF3010BD00000001100004011000EC
:1003B000080110000C0110001001100070B50D466E
:1003C0000446C1698068CC2212F053FEE169A0683E
:1003D000084440384FF08071C163216A8163002175
:1003E00041630163C1628162C0E908514FF00B3182
:1003F000C1614FF00A3181614FF0093141614FF025
:10040000083101614FF00731C1604FF00631816062
:100410004FF0053141604FF00431016070BD8269D9
:100420008168914201D802F0AABC704710B54FF420
:10043000B4714F4812F047FE002010BD70B505465C
:1004400000EBC5014A4800EB8104FFF70DFF0646AB
:10045000207828B13046FFF70FFF6FF0010070BD24
:100460000320207000206560206204F11C0000F071
:1004700083F83046FFF700FF002070BD2DE9F04102
:100480000F463B49002500EBC00001EB80042E46DF
:10049000FFF7EAFE8046206A3843206204F11C0020
:1004A000074600F090F80CE0216A026C114203D07C
:1004B00000F066F9012600E06D1C2946384600F080
:1004C00078F80028F0D1012E01D1FFF74EFF404609
:1004D000FFF7D2FE0020BDE8F08170B50D4624493B
:1004E00000EBC00001EB8004FFF7BEFE216AA943C8
:1004F0002162FFF7C1FE002070BD70B50C461C499B
:1005000000EBC00001EB800500202060FFF7ACFE8F
:10051000296A2160FFF7B0FE002070BD2DE9F0418F
:100520000D46134900EBC0001E46904601EB8004C7
:10053000FFF79AFE07460F4800680564216A2942C2
:1005400003D104F11C0100F02DF93846FFF794FEA9
:10055000FFF78AFE216A29403160B8F1010F02D10C
:10056000216AA9432162FFF787FE0020B3E700005C
:1005700000041000040110000021016008467047CB
:1005800030B50A6812B10B46C46B09E0002208605E
:10059000C0E903210BE000BF02F10C03D26812B1E5
:1005A000D56BA542F8DC1A68C0E903211860002069
:1005B00030BD0068002201E0C068521C8A4201D0B0
:1005C0000028F9D170470068704702690AB11168C4
:1005D00031B96FF00400704701F10C02C96839B1FC
:1005E0008142F9D1C9681160002101610846704754
:1005F0006FF003007047000010B54FF4C871324827
:1006000012F061FD002010BD2DE9F041884605463D
:100610002D4900EB8500174601EBC004FFF724FECF
:100620000646207830B13046FFF726FE6FF0010015
:10063000BDE8F08102202070E7611422414604F1F8
:100640000800656012F0D0FC0020206204F1240054
:10065000FFF792FF3046FFF70FFE0020E8E770B586
:10066000194900EB800001EBC004FFF7FDFD0546D2
:10067000D4E90701814205DB144804F12401006834
:1006800000F090F8206A401C20622846FFF7F4FD35
:10069000002070BD70B50C4900EB800001EBC00478
:1006A000FFF7E2FD0546206A08B1401E206204F112
:1006B0002400FFF788FF10B1606A00F011F82846A7
:1006C000FFF7DAFD002070BD68051000040110007E
:1006D00010B54FF42A71404812F0F5FC002010BD0F
:1006E00010B5044690F8380002280BD02046FFF7DA
:1006F0006CFF022084F8380038492046FFF740FF9D
:10070000FFF733FE002010BD2DE9F05F8B46064653
:10071000314900EB06109046DDE90AA911F82020C6
:100720001D461AB16FF00100BDE8F09F01EB800497
:10073000FFF79AFD074601202070C4E90165C4E96E
:100740000585C4E907A91422594604F1240012F0D2
:100750004BFC002084F8370084F838006169E060C1
:100760002061C4E90F1020460C99FFF727FEA06016
:100770002046FFF7B5FF3846FFF77EFD0020D3E7A0
:1007800010B5044690F83800022809D02046FFF73B
:100790001CFF022084F8380010492046FFF7F0FEC5
:1007A000002010BD70B5044690F838000D460228B0
:1007B0000BD12046FFF709FF032084F838002946B3
:1007C0002046FFF7DDFEFFF7D0FD002070BD044896
:1007D0000068406870470000F80610000C01100027
:1007E00004011000F0B58446002004460C4F14E0CC
:1007F0005CF824600323DD0046FA05F280EA02601B
:100800000825002802DA87EA400000E040006D1E5B
:10081000002DF6DC5B1EEED5641C8C42E8DBF0BDDF
:100820001B0000801248804712480047FEE7FEE7A1
:10083000FEE7FEE7FEE7FEE7FEE7FEE7FEE7FEE790
:10084000FEE7FEE7FEE7FEE7FEE7FEE7FEE7FEE780
:10085000FEE7FEE7FEE7FEE7FEE7FEE7FEE7FEE770
:10086000FEE7FEE7FEE7FEE7FEE7FEE7FEE7000045
:10087000AD080000C50000001E4800684FF00051A0
:10088000002891F8210000F01C000DD0042805D0AC
:10089000082805D00C2805D096200CE011200AE08D
:1008A000252008E04B2006E0042809D0082809D0BC
:1008B0000C2809D07020401E01F82C0F08707047DA
:1008C0000C20F8E71B20F6E73720F4E770470A49C9
:1008D00093200870D0E708490B200870CCE7054842
:1008E000006818B904480078932801D000207047A8
:1008F00001207047340400222100002070B504203C
:1009000000F0D2F9052000F0CFF9062000F0CCF974
:10091000072000F0C9F9082000F0C6F9182000F0FF
:10092000C3F9192000F0C0F91A2000F0BDF9F04910
:1009300000200860EE4A40321060ED4B183B186012
:10094000EB4B08331860EB4CE071E94B143B18603B
:10095000E74B0C3318602072E54B103B1860E44BFA
:10096000103318606072E24B0C3B1860E04B14339C
:100970001860A072DE4B083B1860DD4B183318601E
:10098000E072DB4B28331860A0731E1D3060E073EB
:10099000331D1860207401250D6015602570062137
:1009A000042000F099F90621052000F095F90621B0
:1009B000084600F091F90621072000F08DF9062184
:1009C000082000F089F90621182000F085F9062199
:1009D000192000F081F904211A2000F07DF904208B
:1009E00000F06EF9052000F06BF9062000F068F9C0
:1009F000072000F065F9082000F062F9182000F0E7
:100A00005FF9192000F05CF91A2000F059F9042070
:100A100000F03EF9052000F03BF9062000F038F91F
:100A2000072000F035F9082000F032F9182000F016
:100A30002FF91A2000F02CF9FF20E070356070BD0E
:100A400000EB8000AA494000002218390A60A94A38
:100A5000521F1070012008607047A5490020183906
:100A60000860704700EB8000A14940000022143963
:100A70000A60A04A121F10700120086070479C494C
:100A8000002014390860704700EB8000984940004E
:100A9000002210390A60974AD21E107001200860A7
:100AA00070479349002010390860704700EB8000C0
:100AB0008F49400000220C390A608E4A921E107045
:100AC0000120086070478A4900200C39086070478F
:100AD00000EB800086494000002208390A60854A00
:100AE000521E1070012008607047814900200839AB
:100AF000086070478049097848430A21B0FBF1F14A
:100B00007E48491E80F86010572181761121C176F8
:100B1000042280F860205B228276C1767047774895
:100B2000002180F860105B2181761121C176704729
:100B30006F4A10B5283214680123D10664B100242D
:100B4000146081F8350091F8420000BF91F84240EE
:100B50008442FBD0136010BD81F83500FAE700EB4A
:100B6000C00101EB00106FF0030101EB800010B534
:100B70006349644C0978B0FBF1F0401E80B2FF2855
:100B80000CD9010A2170494200EB01206070FF205E
:100B9000FFF7CEFF2078401E207010BD002121708D
:100BA0006170BDE81040C0B2C2E75148283001680A
:100BB000002909D000210160C10691F8420000BF60
:100BC00091F842208242FBD0704710B54D4C2178FD
:100BD000607851EA000207D051B1FF20FFF7A8FF6B
:100BE0002078401E207010BDBDE8104009F00ABCFE
:100BF000FFF79EFF0020607010BD3D4A10B53032F7
:100C000014680123590794B10024146081F8370057
:100C100091F8420091F842408442FBD0136091F871
:100C2000420000BF91F842208242FBD010BD81F803
:100C30003700F3E72E483030016800290AD0002140
:100C400001604FF0005191F8420000BF91F842203E
:100C50008242FBD0704700EB800040001921B0FBBE
:100C6000F1F028490004000C488001D01920E7E683
:100C7000704710B5234C0023608830B11920FFF76E
:100C8000DFFE6088401E608000E00123184610BD32
:100C900000F01F020121914040094FF0E02202EBD9
:100CA0008000C0F80011704700F01F020121914040
:100CB00040094FF0E02202EB8000C0F8801170473D
:100CC00000F01F020121914040094FF0E02202EBA9
:100CD0008000C0F8801270474907090E002803DA27
:100CE00000F00F00084A00E0084A815470470000F5
:100CF0001C0500223300002090011000001000208D
:100D00008F0110001401100014ED00E000E400E079
:100D100059480121016000210160704757480121B5
:100D2000016000210160704710B5002000F08BF8D1
:100D3000534800220260FFF7F1FFFFF7E9FF514837
:100D400002605149A0200870002000F088F8BDE83A
:100D50001040002000F06BB84A4801211C380160A7
:100D600000210160704710B50446002000F06BF8C8
:100D700043484149046001200860002000F06FF8FA
:100D8000BDE81040002000F052B830B53C4889B0B2
:100D90000468002C11D02021684612F094F93B48D9
:100DA00000783A4B00216A465B1C02E0CD5C55544A
:100DB000491C8142FADB1146A04709B030BD2E49DB
:100DC00001201C39086070473048203000782F49D6
:100DD00021310978401A00F03F0070472C49027811
:100DE0000A7042784A7082788A70C278CA70027932
:100DF0000A7142794A7182798A71C079C8717047E3
:100E000024480068417882784FF00050437A037498
:100E1000214B1B78437443891B0A83744389C37431
:100E200001754275C1798175017AC175704700F00D
:100E30001F020121914040094FF0E02202EB8000A7
:100E4000C0F80011704700F01F02012191404009D5
:100E50004FF0E02202EB8000C0F88011704700F0F4
:100E60001F020121914040094FF0E02202EB800077
:100E7000C0F88012704700005C840022A0000022AD
:100E8000180110007C04002200E400E000040020AF
:100E900000020020380110008401100010B5092064
:100EA00000F054F80A2000F051F8092000F05AF838
:100EB0000A2000F057F80521092000F05FF805210D
:100EC0000A2000F05BF833487F2141707C22827059
:100ED0000171002100F848192F490A684FF00101FB
:100EE00092F8C830DC070AD09C0708D590F84A4031
:100EF000C3F3820301FA03F39C4380F84A4092F85B
:100F00001131DC0721D0C3F34203012B03D0234B63
:100F10004FF480641C604830837802F21112147818
:100F2000C4F3420401FA04F4A343837003791478F0
:100F3000C4F3420401FA04F42343037103781278E2
:100F4000C2F3420291400B43037010BD00F01F0238
:100F50000121914040094FF0E02202EB8000C0F8EF
:100F60008011704700F01F020121914040094FF0AD
:100F7000E02202EB8000C0F8801270474907090E9A
:100F8000002803DA00F00F00054A00E0054A81540A
:100F900070470000480000203801100000E100E028
:100FA00014ED00E000E400E0704710B5044602468E
:100FB0002A21002000F060F9221D2B21002000F0E2
:100FC0005BF904F108022C21002000F055F920689B
:100FD000000E032825D104F110022D21002000F07D
:100FE0004BF904F10C022E21002000F045F904F128
:100FF00018022F21002000F03FF904F114023021E3
:10100000002000F039F904F120023121002000F025
:1010100033F904F11C023221BDE81040002000F039
:101020002BB910BD10B5BE4C072060700020207099
:1010300044F2C000608000BF00BF00BF4CF2C0009F
:10104000608000BF00BF00BF4CF2E000608009205C
:10105000FFF720F944F2E000608000BF00BF00BF4E
:101060004FF48040608010BDF0B500252E464FF053
:101070000054E02717E000BF883401F03F016070A2
:101080002170678000BF00BF00BFD4F808C043F8DC
:1010900025C06680883C00BF6D1C521E491C3F293C
:1010A00001D9401CC0B2002AE6DCF0BD2DE9F047B2
:1010B0009B4D0026AD1C04462E80DFF8689201216E
:1010C000C9F880104FF4C058A5F8008000BF00BFD9
:1010D00000BF00BF00BF4FF480572F803520FFF7BF
:1010E000D9F82E80FFF79EFF00F0DCF85C2000F0BE
:1010F000EAF82346012208210020FFF7B5FF231D4F
:10110000012209210020FFF7AFFF04F108030122AB
:101110000A210020FFF7A8FF04F10C0301220B2194
:101120000020FFF7A1FF04F1100301220C21002091
:10113000FFF79AFF04F1140301220D210020FFF7AD
:1011400093FF00F0AFF8FFF76DFF2F8000BF00BFE7
:1011500000BF00BF00BF00BF00BF00BF00BF00BF97
:10116000A5F8008000BF00BF00BF00BF00BF4FF464
:1011700040602880C9F88060BDE8F087F0B54FF086
:10118000000C059C0CB14FF0800CC5B200264FF04E
:101190000057644C28E000BF87F889504FEAC05ED2
:1011A000BEF1000F01F03F0E4EEA0C0E01DA4EF0D8
:1011B000400E87F888E053F826E0C7F88CE04FF03F
:1011C000010EC4F8B0E04FF0000EC4F8B0E0491CC6
:1011D000C9B2402902D36D1CEDB20021D4F8C0E0A1
:1011E000BEF1000FFAD1761C9642D5DBF0BD4FF070
:1011F000005282F88900002309B1802002E0C00576
:1012000003D5402082F8880001E082F88830454804
:101210000121C0F8AC10C0F8AC3000BFD0F8C0104D
:101220000029FBD17047F8B50C4605464FF4F4761B
:1012300000213046FFF7DBFF0020014600902B46DF
:1012400022463046FFF79AFFF8BDF8B50C46054632
:101250004FF4F87600213046FFF7C9FF00214FF424
:10126000FC70FFF7C4FF0020014600902B46224689
:101270003046FFF783FFF8BD294B587041F08000DE
:1012800003F8880927480021B4300160012140F8A3
:10129000B41900BFD0F8C0100029FBD1D3F89000DA
:1012A0001060704710B51E4C4FF48040A41C208085
:1012B0000420FEF7EFFF0020208000BF00BF00BF2A
:1012C00000BF00BF10BD70B5154C2126A41C2680A0
:1012D00000BF00BF00BF00BF00BF40F02105258058
:1012E00000BF00BF00BF00BF00BF44F221010843A0
:1012F00020800420FEF7CEFF258000BF00BF00BF86
:1013000000BF00BF268000BF00BF00BF00BF00BFFE
:101310000020208000BF00BF00BF00BF00BF70BD25
:101320008800002000100022F8B5FF4C002635464A
:101330002670E66026610120666100F0B8FD0C2091
:1013400000F0B5FD032000F0B2FD172000F0AFFD66
:10135000012000F0B8FD0C2000F0B5FD032000F0E6
:10136000B2FD172000F0AFFD00F05FFF6A460221DA
:10137000EE4801F097F9EE499DF8010008709DF8DC
:101380000000532800D004260521012000F0A7FD0D
:1013900005210C2000F0A3FD0621032000F09FFD95
:1013A0000621172000F09BFD012000F074FD0320B2
:1013B00000F071FD172000F06EFDA5706570E570FE
:1013C0003046F8BD70B5D84B1889C0F38001C0F322
:1013D0004016C0F300247140C0F3C0226140C0F346
:1013E000803551406940400840EAC130188170BDE5
:1013F00038B50D46009014460421684601F022FDE0
:10140000CC498978C90602D5062D00D1401C009927
:10141000216584F84E0038BD906570472DE9F0478E
:10142000C54D0646C34C286890F83404C00718D050
:10143000608840F080006080FFF7C4FF296800F0FA
:101440000700084490F8350484F83D00FFF7BAFF20
:101450002968C0F30210084490F83504800084F82D
:101460003C00002084F8470028684FF002084FF045
:10147000E90990F845176174B049042EC1F30E07CD
:1014800006D0032E1FD0022E41D0052E5CD082E064
:10149000A84A3146206BFFF7ABFF606BA065A4F84C
:1014A0004870A07880060028286890F8590703DA69
:1014B00020F0060040F0040084F84C0084F84D80D1
:1014C00084F84A9067E09B4A3146206BFFF790FF13
:1014D000606BA06597480421303001F0B3FC974958
:1014E00001EB8000C0F30E00A4F84800A07880064D
:1014F0000028286890F8590703DA20F0060040F029
:10150000040084F84C0084F84D80ED2019E0894AED
:101510003146206BFFF76CFF606BA065A4F8487044
:10152000A07880060028286890F8590703DA20F090
:10153000060040F0040084F84C00042084F84D00BC
:10154000E52084F84A0026E0A178890623D500F238
:10155000C93030340178A173C17821744178217584
:10156000807860750120E075724A31462068FFF787
:101570003FFF7248F830C0F30E002083286890F8CF
:10158000590720F0060040F00200207784F81D8003
:1015900084F81A90303C286890F80A17C907A17897
:1015A0004FEA81710BD000290BDB0121084602F0C4
:1015B000D9F914F84B0F40F0030020700AE000291D
:1015C00004DA90F86C0720F0030001E090F86C0753
:1015D00084F84B0054484670BDE8F047554800F089
:1015E0001FBF55480168534891F83627427791F854
:1015F0003727C2744288D20505D491F8382702F003
:101600000F02827402E000228274027401F23971C6
:101610000A7802F03F020275B1F801200283CA780D
:101620008276474A0979127801F0F00102F00F0240
:101630001143C176704740483E49006890F8002247
:101640004A7790F80122CA744A88D20504D490F8E7
:10165000022202F00F028A7400F20320027802F0E4
:101660003F020A75B0F801200A83C2788A76344AAC
:101670000079921D00F0F000127840EA1210C8764E
:1016800070472DE9F0472B4C0546002084F84700B1
:10169000DFF8A4A0E12084F84A00DAF80000DFF8BF
:1016A000A890214E90F84517617490F80A175FEAE8
:1016B000C1782449C1F30E072146B1F802C0CB7CA2
:1016C0000CF0FF024CF0010104D05FEA8C7C01D4E5
:1016D000012D08D0072D0ED0062D5DD0082D70D01D
:1016E000092D7CD03CE0337172710A22E274618072
:1016F000A4F848700DE0337172716180417D027D04
:10170000491C51430F4A02EB4101C1F30E01A4F8F9
:10171000481090F8531799F8002001F0F00102F0FA
:101720000F021143E17611E01C01100004100020AB
:1017300084011000A009100038011000A8870120C2
:10174000F0FF010000800120F6FF010090F855072E
:101750006077FE4A29460120FFF74AFEE068A0654F
:101760006088C10705D094F84A1041F0020184F85E
:101770004A10DAF800104FEA807091F80A27D20771
:101780004BD000284BDB062D37D0082D35D0092D46
:1017900033D0012D36D04BE0A4F8487090F85317A1
:1017A00099F8002001F0F00102F00F021143E176F8
:1017B00090F855076077E54A2946A068CCE700E035
:1017C0000DE0E348C0F30E00A4F84800FFF733FF34
:1017D000DE4A2946206AFFF70BFE606ABFE7DD4854
:1017E000C0F30E00A4F84800FFF7FBFED74A2946D5
:1017F000A06AFFF7FDFDE06AB1E714F84B0F20F097
:10180000030008E00021012002F0ACF814F84B0FAF
:1018100020F00300801C20700AE0002804DA91F810
:101820006C0720F0030001E091F86C0784F84B008E
:101830007570BDE8F047C54800F09ABD062810D085
:1018400008280ED001280CD007280AD0092808D073
:10185000042805D0032803D0052801D0022801D18F
:10186000DCE50EE770472DE9F84FBB4D82460129B4
:1018700001D10020A871AC79DFF8E49204F10104F1
:10188000B64EDFF8C882A9F12C0713E0306890F853
:101890000A07C00706D098F80200800702D459F85A
:1018A000242001E057F8242069465046904701283B
:1018B00005D0641C0A2CE9D90020BDE8F88FAC7172
:1018C0009DF80000F9E770B505460088002838D07B
:1018D0005C2229469D4801F04AFEFEF778FF9E4CA7
:1018E0009E4EA061306890F80A07C0070AD0A87819
:1018F000800707D49549088810F0760F02D040F091
:1019000080000880607800281BD101218F48FFF7F4
:10191000AAFF050015D0934901200870306890F89F
:10192000101149070ED590F8430780070AD400F03C
:1019300094FE0220A07000F094FE192000F0A9FE91
:10194000657070BD002020702846BDE8704075E7C6
:10195000002070478268120006D00088C00503D5B9
:10196000072008700120704700207047826812002D
:1019700006D00078C00703D0062008700120704709
:1019800000207047826A120006D00088800503D5C7
:10199000092008700120704700207047026A120079
:1019A00006D00078000703D5082008700120704792
:1019B000002070478268120005D00078000602D52A
:1019C00001200870704700207047026B120008D099
:1019D000426B32B10078800603D5022008700120E6
:1019E000704700207047026B120006D00078C006D6
:1019F00003D5052008700120704700207047026B56
:101A0000120006D00078800703D50420087001205A
:101A1000704700207047426B32B10078400703D511
:101A200003200870012070470020704700200870D4
:101A3000012070472DE9F04144480421303001F085
:101A400001FA044641480421343001F0FBF9424FC9
:101A50000546404E7878DFF8F4802836042801D017
:101A600002280DD198F80200800603D53949A2005A
:101A7000283102E0620006EB44013B4801F077FDAB
:101A80007878032801D0022811D198F80200800646
:101A900003D5AA0006EB840104E005EB44006A00CC
:101AA00006EB4001BDE8F041304801F060BDBDE803
:101AB000F08130B587B001208DF800002748234D14
:101AC000254C006890F80A07C0070AD0A87880075C
:101AD00007D46078012804D102208DF8000008F0B6
:101AE0009AFC00F06FFB224801901A4802902830BF
:101AF00003901748E17800EB410004900020E0706B
:101B000013488038059069686846884707B030BD3B
:101B10002DE9FE4FDFF844A001200090DAF8000024
:101B20000C4E0024B0F95614B0F95A24283611444A
:101B300001EBD17149100291B0F95814B0F95C244D
:101B4000114401EBD1714910019113E0A00910007B
:101B500020890120808701201C011000380110001D
:101B6000943201008D011000FC8E0120748F012041
:101B70000080012090F80017C9072BD0DD4991F8AB
:101B8000427007B90127DB49DB4D91F8411091FB09
:101B9000F7F10FFA81F86978042902D0032903D0FC
:101BA0000BE0407D440020E0D24840240421303046
:101BB00001F048F9D14901EB8006687802280AD083
:101BC00005280BD0042810D003280ED002280CD0F2
:101BD00005280AD0D1E07A24C84E06E0DAF80000E1
:101BE000C64E3A2490F80187F836E9688B4641459D
:101BF0007DDCBBF1000F04D14FF4F871C04811F047
:101C000062FABF490020894608E000BF51F8202051
:101C100036F910301A4449F82020401CA042F5DB68
:101C20000BF10100E86040457EDB0020E860687849
:101C3000DFF8D082042804D0032824D0022844D01E
:101C400083E0AC4890F8430038B1DAF80000407DFA
:101C50004100AB4801F01EFE2861002049462A6978
:101C60000EE000BF31F820307B43A3EB020C029B57
:101C7000634426F8103051F8203048F82030401CDA
:101C8000A042EFDB61E09B4890F8430038B1DAF8FE
:101C90000000007D41009A4801F0FCFD68610020D1
:101CA00049466A690EE000BF31F820307B43A3EB60
:101CB000020C019B634426F8103051F8203048F89C
:101CC0002030401CA042EFDB3FE08A4890F8430000
:101CD00098B1DAF80000407D4100894801F0DAFD52
:101CE0002861DAF80000017D427D490000E03EE015
:101CF00009EBC20001F0CEFD686100205246434668
:101D0000494620E0D2F800C09CF815C0B0EB4C0F5B
:101D100031F820C00CFB07FC07DAB5F81080ACEBFB
:101D20000808DDF808C006E022E0B5F81480ACEB46
:101D30000808DDF804C0C44426F810C051F820C0DB
:101D400043F820C0401CA042DCDB6878052814D191
:101D500000206D4A09E000BF31F8203026F810302D
:101D600051F8203042F82030401CA042F4DB04E05F
:101D70006878FFF763FD002000900098BDE8FE8FB3
:101D8000F0B587B0FFF756FE5A4DA878400603D449
:101D9000FFF7BEFE002819D05C4F574C386890F80A
:101DA0000A07C0070BD0A878800708D460780128FC
:101DB00005D12079E8746079688008F02CFB002157
:101DC0004C48FFF750FD18B1FFF738FD07B0F0BDE4
:101DD0004F48002666700670386890F80A07C007FA
:101DE00006D0A878800703D40021084601F0BAFD88
:101DF0004849A4200873386890F81001400702D5BC
:101E0000A67000F018FC2078012816D08DF800602C
:101E10004148019000F5F060029028300390E1788D
:101E200000F5BC7000EB410004903548E670943832
:101E30000590696868468847C8E703208DF8000068
:101E4000E6E770B53148324D4FF00004016891F873
:101E50001001420728480AD591F84317890706D48C
:101E60008178012908D002290FD0032903D1847079
:101E7000FFF71FFE2C7070BD0221817000F0F1FB96
:101E8000BDE87040322000F004BC0321817040782E
:101E9000BDE87040D2E400F01F02012191404009EA
:101EA0004FF0E02202EB8000C0F80011704700F014
:101EB0001F020121914040094FF0E02202EB800017
:101EC000C0F88011704700F01F02012191404009C5
:101ED0004FF0E02202EB8000C0F880127047490703
:101EE000090E002803DA00F00F000C4A00E00C4A4B
:101EF00081547047A00910001C011000A887012020
:101F000034890120248B0120148D01203801100018
:101F10008D011000001000200080012014ED00E071
:101F200000E400E0FE4801680029FCD17047F0B5EC
:101F300027260022FA4DFB484FF4F8315C270C4667
:101F40005FF0000303EB000E11F803C05B1C8EF87A
:101F500060C00C2BF6DB2B68002BFCD18276C77699
:101F600004F10C0103EB000E11F803C05B1C8EF8AA
:101F700060C00C2BF6DB29680029FCD1511C81764E
:101F8000C776921C04F13001B242D8DBF0BD2DE9D6
:101F9000F0479246089E5B1EC6F108010022E14C04
:101FA00001F0FF0C1546002189469A420BDA00EB3E
:101FB0000208875C98F8018027FA06F708FA0CF8FF
:101FC00047EA080703E007D1875C27FA06F701EB29
:101FD000040888F8607003E001EB040888F860905A
:101FE00001F1010102F101020C29DEDBCC490F688D
:101FF000002FFCD10AEB0501A1765C21E1766D1C76
:10200000022DD0DBBDE8F08718B5002411235C2237
:102010002146C5480094FFF7BAFFC348182362223F
:10202000002121300094FFF7B2FF18BD2DE9F047E1
:102030000024DFF8EC82BB498246254626464FF055
:102040005C0900209C4206DA00EB010C1AF80470CF
:102050008CF8607002E0471887F86060641C401CD0
:102060000C28EFDBD8F800000028FBD15019887647
:1020700081F81B906D1C032DE3DBC3E7AA4800B574
:1020800016235E2200216C38FFF7D0FFA6482023DC
:102090006422002140385DF804EBC7E770B50023E7
:1020A000A04C05E0CD5C1E195B1C86F860505BB24D
:1020B0009342F7DB9A490B68002BFCD1A07642F0E3
:1020C0001000E07670BD30B5984C072202202168E0
:1020D00001F24271FFF7E2FF2168022201F24A7128
:1020E0000920FFF7DBFF2168062201F24D710B206A
:1020F000FFF7D4FF20688E498E4D90F8530709787A
:1021000000F0F00001F00F01084328700122294679
:102110001120FFF7C3FF2168072201F2547112203A
:10212000FFF7BCFF82480122401E007800F00F013B
:10213000206890F85B0761F31F102870294619206A
:10214000FFF7ACFF2168042201F25C711A20FFF74F
:10215000A5FF77480222C01C2946007828707448E1
:10216000401C007868701E20FFF798FF2168062247
:1021700001F262712020FFF791FF6D480222001DDD
:102180002946007828706A48801C007868702620EC
:10219000FFF784FF2168022201F26A712820FFF70D
:1021A0007DFF2168072201F26C713C20FFF776FF6A
:1021B000206890F8C01760480170332141740B21EA
:1021C000817430BD5D48002202605C481C380260AA
:1021D0005B480261012101618260816002600160EF
:1021E00002604F49A0F574700B68002BFCD14D497B
:1021F0000B7B43F020030B730B7B23F040030B732B
:102200000B7B23F080030B730B7B23F020030B73FA
:10221000C0F8D823C0F8E0234A480270704740480D
:10222000183001680029FCD1704730B544480024BB
:10223000743004604248803004604148C460012129
:10224000C160C4600460016004603B4D2020AD1D8E
:10225000287068703349593D0873A42008733048CA
:10226000183001680029FCD1FFF7ACFFFFF72BFF06
:10227000FFF704FFFFF7C8FEFFF759FE324804607E
:1022800085F8344030BD38B50546264C006D0090C9
:102290006073010AA173010CE173000E2074042223
:1022A00069462A20FFF7FAFE012205F14E012E2091
:1022B000FFF7F4FE95F84E00A074A86D0090E0744E
:1022C000010A2175010C6175000EA0750422694692
:1022D0003420FFF7E3FE0098800F84F84000154992
:1022E000012208703820FFF7D9FE38BD00EBC0018D
:1022F00001EB00106FF0030101EB800010B51349F2
:10230000114A0978146890FBF1F0401EC1B2012314
:1023100058072CB30024146080F8341018E0000033
:10232000040B002200100020ACF80100380110005E
:10233000F6FF0100FC091000530000201C0C0022D5
:10234000D00300221D011000400500228F01100063
:1023500090F8421090F842408C42FBD0136010BDC0
:1023600080F83410FAE7FC4801680129FCD1704775
:1023700078B50446FFF787FFF848B4F848100180A5
:10238000217C00F8011C94F84A104173F44EA07CA3
:1023900086F83600F34D286890F842078DF8000063
:1023A0006188890503D520F012008DF80000012214
:1023B00069460220FFF772FE042204F11101052094
:1023C000FFF76CFE2968022201F24A710920FFF72B
:1023D00065FE022204F116010C20FFF75FFE0222C7
:1023E00004F118010E20FFF759FE2868052204F1B8
:1023F0001A0190F8540720771020FFF74FFE0122B2
:1024000004F14B013C20FFF749FED3480168012944
:10241000FCD194F84A0030732320FFF767FF78BDA2
:102420007EB50446FFF72FFFCC48B4F84810018072
:1024300094F83F1000F8011C94F84A104173C94DFC
:10244000286890F842078DF800006188890503D557
:1024500020F012008DF80000012269460220FFF7EB
:102460001DFE296891F80A07C00769D062889007A5
:1024700066D4B1F80D07ADF80400B1F87017ADF8E7
:102480000810120609D594F83D201144ADF8081043
:1024900094F83C100844ADF80400022202A9402040
:1024A000FFF7FCFD022201A90920FFF7F7FD022238
:1024B00004F138011A20FFF7F1FD022204F13A017C
:1024C0002220FFF7EBFD012204F13E010720FFF778
:1024D000E5FD012204F144010820FFF7DFFD0122A0
:1024E00004F145012020FFF7D9FD012204F1460146
:1024F0002820FFF7D3FD012204F14C011720FFF73C
:10250000CDFD012204F14D011820FFF7C7FD286819
:102510009549012290F8540720F0F000087012202D
:10252000FFF7BCFD94F847008D4EC0070CD028681B
:1025300000F2C67190F8C60786F8360001220AE05C
:10254000022201F24A71AFE794F8400086F83600A3
:10255000012204F140010620FFF7A0FD012204F151
:102560004B013C20FFF79AFD28680122694690F84C
:10257000430740F008008DF800000320FFF78EFDB0
:10258000754801680129FCD194F84A003073232072
:10259000FFF7ACFE7EBD7349744B0A6892F84D2775
:1025A00002700A68B2F85027428009681B7801F26D
:1025B000547103F00F0311F8012C02F0F0021A43DA
:1025C00002714A89C2804A8A0281CA7B8272CA7DAC
:1025D000C27249780173704710B504460146012262
:1025E0000B20FFF75BFD0222A11C0E20FFF756FD1A
:1025F0000122211D1120FFF751FD0222A11D1C20E7
:10260000FFF74CFD022204F108012420FFF746FDEC
:10261000012204F10A012120FFF740FD012204F10B
:102620000B012920FFF73AFD04F10C010122BDE85E
:102630001040132032E54A4908B504200873494880
:1026400001226946006890F8430720F008008DF8E1
:1026500000000320FFF722FD08BD41492020087338
:1026600070473F49C0200873704741490020086007
:1026700070473F4840300168002909D000210160BF
:102680004FF0005191F8420091F842208242FBD075
:102690007047374900220A60304A273A10700120FB
:1026A0000860704770B52C4C1C342368002BFCD19B
:1026B0001D4603E0C6185B1C86F880508B42F9D398
:1026C0002368002BFCD102E0C45CD4545B1C8B4219
:1026D000FAD370BD10B501F022F8FFF7CAFF254804
:1026E000007878B11C48001D01680029FCD11C4805
:1026F000C078400602D5204901200870BDE810408E
:10270000FFF73EBB1D490020087010BD10B501F059
:1027100006F8174900200860BDE81040FFF791BB9C
:1027200010B500F0FCFFFFF7A4FFBDE81040FFF775
:1027300088BB0B4B10B59876DA760748001D046805
:10274000002CFCD1012083F8E00003481C30046811
:10275000002CFCD1002019E0000B002254000020C6
:102760000010002038011000FC091000F6FF0100E5
:10277000000500221D0110001C0110008D01100039
:10278000C41894F860400C54401C40B29042F7DBEF
:1027900010BD0000FEE70446012007F078FF00218D
:1027A0000F20226807F08BFF01210F20626807F0DD
:1027B00086FF02210F20A26807F081FF03210F206E
:1027C000E26807F07CFF0C210F20226907F077FFF9
:1027D0000E210F20626907F072FF0F210846A269DF
:1027E00007F06DFF20210F20E26907F068FF3B48EA
:1027F000026821210F2007F062FF38481038026874
:1028000022210F2007F05BFF34480C380268232197
:102810000F2007F054FF31480838026824210F20A8
:1028200007F04DFF2D48001D026825210F2007F0FD
:1028300046FF2A483438026826210F2007F03FFF60
:1028400026481438026827210F2007F038FFFDF7CB
:10285000BEFF024630210F2007F031FFFEE710B522
:10286000012807D002280ED0032805D0042805D05F
:10287000042109E0012107E0032105E000210320F4
:1028800007F005FFFEE70221BDE81040032007F036
:10289000FEBE10B504460146042007F0F8FE012CE8
:1028A00000D1FEE710BD0146082007F0F0BE01464A
:1028B000062007F0ECBE10B504460146072007F0DD
:1028C000E6FE012C04D0022C03D0032C02D1FEE73B
:1028D000FEE7FEE710BD0320EDE7000038ED00E065
:1028E00000F01DBF70477047384810B5016821F0EF
:1028F0000401016000F013FFBDE81040FEF745BA87
:102900007047334810B5007801280DD0032811D145
:10291000FEF7A3F80EF049FEFEF7ABF9002809D048
:10292000BDE8104007F0F3BFFEF797F8BDE8104090
:102930000EF03BBE10BD00F0F2BE10B500F0EFFE91
:10294000BDE8104008F003B910B500F0E8FEBDE89E
:1029500010404FF0005001F099B87047704710B523
:1029600000F0DDFE1B480078012803D0BDE81040D0
:1029700007F063BDBDE8104001F0CCBD704710B555
:1029800000F0CDFEBDE810404FF0805001F07EB861
:10299000704770477047704770477047704770477F
:1029A00010B500F0BCFEBDE81040FEF70EB910B542
:1029B00000F0B5FE07480078012803D1BDE81040BB
:1029C00001F084BD10BD70477047000010ED00E0BD
:1029D000A20110008C01100010B556219E4810F085
:1029E00050FB9D489D499E4A018082809D494180BF
:1029F0009D4BC3809D4C04819D4C44819D4C8481A2
:102A00009D4CC4819D4C04829D4C44829D4C84828B
:102A10009D4CC4829D4C04839D4C44869D4C848671
:102A20009D4CC4869D4C0487C387418782879C49FF
:102A3000A0F84E109B49A0F850109B49A0F85210E6
:102A40009A49A0F854109A49A0F840109949096889
:102A5000B1F86220A0F84220B1F8C621A0F84420C5
:102A6000B1F8A120A0F84620B1F8F021A0F8482044
:102A7000B1F85421A0F84A20B1F85221A0F84C2016
:102A80008B48B1F84E274280B1F85C27C280B1F87C
:102A90006417018110BD884813228949037887484B
:102AA000552B02D0027019200CE0824B1B6893F862
:102AB0001131DB0702D0804A521C127802707E4826
:102AC000801C0078087070472DE9F0418AB0FF2221
:102AD0002421684610F0CDFA6846FEF766FA01999F
:102AE0000E240126072545F2AA50814202D0029900
:102AF000814237D1009980460F0E0299414508D195
:102B0000032F02D10098C0F301360098C0F30325CB
:102B100002E00120FFF7CBFE0199414503D1009867
:102B200000F01F0402E00220FFF7C1FE032F1FD1B7
:102B3000049A40466349824201D1039A00E0624A06
:102B40000A60069A6149824201D1059A00E0604A12
:102B50000A60089A5F49424501D1079800E05E4843
:102B6000086005E00120FFF7A2FE0220FFF79FFEAC
:102B70005A4906F0030040EA051081F86000012080
:102B800088761120C8765648017864F304010170F4
:102B90000AB0BDE8F08170B5FDF799FEFEF7C4F804
:102BA000444C20680078A52802D00120FFF771FE70
:102BB0004FF008500125C0F898532068494A90F812
:102BC000281101F00101116090F82801111DC0F3D6
:102BD00040000860FEF7E8F9FDF790FEFEF7A4FB61
:102BE000042801D1FFF73BFEFEF70AF9FEF756F97C
:102BF0003A48802180F86010042181761121C17645
:102C0000FFF762FFFFF747FF36480C38056070BDDD
:102C100041F2902010B541064881FFF7BCFFFFF755
:102C2000DBFE31495F2008603049002008603148F0
:102C30002F49016001F508602F4908602F4800F016
:102C40002AFBFDF721FB00F05BF8FDF71BFBFDF70E
:102C50009FFB012010BD000000000120008001202A
:102C600048A70120C89F012056000120A887012005
:102C7000462E0120822E0120A82F0120E42F0120C2
:102C80009C340120D8340120E22901201E2A012091
:102C90003A2E0120F0970120FC970120D62901202F
:102CA000C82E0120F02E0120402F0120182F0120D6
:102CB000A423100038011000F2FF01009001100061
:102CC0008F0110009401100040A5AE029801100081
:102CD000008793039C01100000366E010010002055
:102CE0002000002088040022C42E01208001100052
:102CF0008C11100064011000680110008C2210007B
:102D00007FB5FDF71DFB1F4D002400BF05EB4410F0
:102D100000F11002017F4CCACDE90261CDE9002328
:102D20000FC8FDF7F1FC10B10220FFF7C4FD641CD1
:102D3000082CEBDB144D002404EB440005EB800170
:102D4000091D55F8200006C9FDF75EFC10B10220F0
:102D5000FFF7B1FD641C082CEEDB0B4D0024603541
:102D600005EBC400416855F83400FDF767FB10B16E
:102D70000220FFF7A0FD641C072CF1DB7FBD40683B
:102D8000FFF7A9BDC0320100C03301002DE9F047B3
:102D90009246012547F6F87256429946AC46002401
:102DA000089F16E030F8143031F81480A8EB0303C4
:102DB0001BB29A4200DD1A469E4200DA1E46002BE4
:102DC00002DA4FF0000502E001DD4FF0000C04F1E3
:102DD0000104BC42E6DB55EA0C0306D0012D01D00C
:102DE0002DB108E0BCF1010F05D1002203E0BCF1D8
:102DF000010F00D1324600252C462B4611E000BFC2
:102E000030F8136031F813C01644ACEB060636B246
:102E10004E4505DAC9F1000C664501DD3544641CF8
:102E20005B1CBB42ECDB95FBF4F10A44002105E09E
:102E300030F8113013442AF81130491CB942F7DB3D
:102E4000BDE8F08770B5034600200246FE4C09E05D
:102E50009D5C521C05F00F0604EB1515A65D2D7840
:102E6000304428448A42F3DB70BD884200D30846D0
:102E70007047884200D808467047884200D3084609
:102E8000904200D3104670472DE9F047D0F810C0AB
:102E90000568046A85FB0C12A1FB041242694368B1
:102EA000914683FB02628269E246A6FB02677618BE
:102EB000D0E9021781FB07C8C069ACFB00C81CEB56
:102EC000060682FB0A2CA2FB011280FB0902A0FB72
:102ED0000502401884FB0712A1FB03120818301AE0
:102EE0004FEAE071ACE72DE9F04389B00446006891
:102EF00000906068019020690290606803902069EA
:102F00000490A069059020690690A0690790E06987
:102F100008900D466846FFF7B7FF8046A06801900D
:102F2000E06804906069079089466846FFF7ACFF47
:102F3000064660680190A068029020690490E068ED
:102F40000590A0690790606908900F466846FFF7F2
:102F50009BFFC5E90401C5E90267C5E9008909B01D
:102F6000BDE8F0832DE9FF4F4FF0000A89B09B4682
:102F70005746D146D04656465546544620216846C7
:102F800010F0A1F80B9810E00999824431F9102053
:102F900000FB00F102FB01668844414302FB0099FB
:102FA00001FB004417440D44401C5845ECDD0B99CF
:102FB000ABEB0100401CCDE9000ACDE90654CDE998
:102FC0000486CDE9027968460A99FFF78CFF0DB0B7
:102FD000BDE8F08F9D480068017B427B41EA0221F9
:102FE000827BC07B41EA024141EA006040007047B9
:102FF000964800680179427941EA02218279C079D4
:1030000041EA024141EA00607047904800210068AF
:1030100000F21270027841EA02214278807841EA97
:10302000024141EA00604000704788480021006882
:1030300090F8102790F8110741EA024141EA006038
:10304000704700B5FFF7C6FF4008400000BDF8B567
:103050000E460446FFF7F5FF0090FFF7BBFF05465D
:1030600004216846FFF7EEFE04EB400700240099B8
:10307000204623464FF0010C0CFA03F20A4207D017
:103080002A4204D037F8102026F81420641C401C73
:103090005B1C1E2BF0DBF8BDAAE7FCB50E4607460D
:1030A000FFF7CFFF0190FFF7A3FF0090FFF7A0FF0E
:1030B0000546042101A8FFF7C5FE04460421684621
:1030C000FFF7C0FE00EB440007EB4007002000992B
:1030D000044603464FF0010C0CFA03F20A4207D0F3
:1030E0002A4204D037F8142026F81020401C641C13
:1030F0005B1C202BF0DBFCBD70B554490020096837
:1031000001F5F57491F8E8518DB191F8E6214FF091
:103110000103D2070DD0002203FA02F6354203D094
:10312000A65C03FA06F10843521C062AF4DB4000B1
:1031300070BD91F8E91103FA01F0F8E770B5434961
:103140000020096801F5F57491F8E851002D09D0C7
:1031500091F8E6214FF00103D20704D091F8E9116C
:1031600003FA01F070BD03FA02F6354203D0A65C03
:1031700003FA06F10843521C062AF4DB70BD70B551
:103180000022324C012303FA02F6256895F8E85133
:10319000354203D030F8125021F81250521C062A42
:1031A000F1DB70BD00B5FFF715FF40F0010000BD79
:1031B0001EE7274A520102EB810101F10851086024
:1031C000704701EB8010801001EB4101490018228B
:1031D00091FBF2F300EB400000F5F83002FB131115
:1031E000006820F07F40C84000F03F00704701EBCE
:1031F0008010801010B501EB41014900182391FBAC
:10320000F3F403FB141300EB400000F5F8303F2407
:1032100001689C40A1439A400A430270110A417020
:10322000110C817010BD821002EB4202114400EBC0
:1032300040004000182290FBF2F301F5F83102FB48
:103240001302086806E0000058340100380110003D
:10325000C42E012020F07F40D04000F03F00704796
:10326000831003EB43031A4410B500EB4000400009
:10327000182390FBF3F403FB140302F5F8323F2408
:1032800010689C40A043994001431170080A507097
:10329000080C907010BD2DE9F14F782100980FF0C7
:1032A00012FFFFF77FFF4FEA5008FFF7A1FE4FF034
:1032B000000C814666464FF0010A00BF0AFA06F18B
:1032C00011EA090F1ED00024012725460AFA0CFB3B
:1032D0000AFA05F010EA080F0FD031462846FFF72A
:1032E00070FFA04207D00099009A51F8271041EAD8
:1032F0000B0142F8271004467F1C6D1C272DE7DBCD
:103300000CF1010C761C202ED8DBBDE8F88F2DE9DE
:10331000F04F8346F84800242246D0F800A001214F
:103320009AF81450A5F1010621E003200123DFF8EB
:10333000CCE303FA01F99AF8157015E05EF820C0A5
:103340001CEA090F0FD0A0F1010300FB051C03FBD1
:1033500005183BF91CC03BF91830BCEB030300D542
:103360005B421C44521C401C8742E7DC491C8E42D5
:10337000DBDC02B9012294FBF2F029E62DE9FF4FD4
:1033800085B000210391029101910091DA49012B4E
:103390000C6894F8775005F00F0700D10027667D80
:1033A00094F87A30C7F1100BB34200D21E460023C6
:1033B0000493012381E000BF4FF00009C8460324B5
:1033C0001FE0CE4951F824C0012199401CEA010FA9
:1033D00004FB053130F911C0A4F1010101FB0531F5
:1033E00030F91110ACEB010106D0002900DA494296
:1033F000DDF818C0A1EB0C01002900DA494289442C
:10340000641CB442DDDB31469EF815A01FE0BB4CC6
:1034100054F821C001249C401CEA040F01FB053430
:1034200030F914C0A1F1010404FB053430F9144053
:10343000ACEB040406D0002C00DA6442DDF818C0BE
:10344000A4EB0C04002C00DA6442A044491C8A4519
:10345000DDDC0499012910D10199B1EB090101D5F5
:10346000C1F10001039C214403910099B1EB0801D3
:1034700000D54942029C21440291CDE900899EF881
:103480007B10994216D11168039D79430BFB0511FE
:10349000CC1701EB1471091111609168029D7943F9
:1034A0000BFB0511CC1701EB147109119160002180
:1034B0000391029101215B1C04918F49D1F800E036
:1034C0009EF81450691E99423FF776AF50680399F1
:1034D00078430BFB0100C11700EB11700011506025
:1034E000D068029B78430BFB0300C11700EB1170FF
:1034F0000011D06009B06BE52DE9F04F7E49002442
:1035000020460D6801222B7DB5F865B4B5F867A497
:10351000A3F1010923E003214FF0010EDFF8E08160
:103520006E7D18E0754F57F821C00EFA02F71CEABD
:10353000070F0ED101FB032738F917C0A1F10107CE
:1035400007FB032738F91770BCEB070700D57F424C
:103550003C44491CC9B28E42E4D8521CD2B29145B7
:10356000D9DCA34502D2544500D2012030E503E066
:1035700011F8013B00F8013B521EF9D270477CB5AF
:103580000D460446FFF75DFD0090FFF731FD019009
:1035900000980421400800906846FFF753FC064657
:1035A000042101A8FFF74EFC304482002146284642
:1035B000FFF7DDFF7CBD0B464F4909684A7D097D59
:1035C000521C4A43014652001846D0E72DE9F0410B
:1035D00004465C210FF077FD0025474E258065806D
:1035E000306890F8C50700F0010045EA401060809F
:1035F000316891F84517C90940EA0110608065609B
:10360000FFF7D0FDA060FFF7F3FC3E4FE060788845
:10361000E082306800F24670C27A817A02F03F029E
:1036200041EA022121834178E17490F87A102174F3
:103630000178A17481782175017BA1763249407BA4
:10364000097800F0F00001F00F010843E076FFF781
:1036500053FD2062FFF772FD6062FFF7D6FCA062A7
:10366000FFF7E3FCE062FFF7ECFC2063FFF7C0FC30
:103670006063F88820876087306800F2C170017845
:1036800084F83E10817884F83F10C17884F84010A7
:1036900010F8BF1C84F84110012184F8421084F80E
:1036A0004350417884F8441010F85F1C84F84510AA
:1036B00010F8571C84F8461010F86B1CA17710F80E
:1036C000550C84F84B0084F83D5084F83C50BDE81C
:1036D000F08110B50446FCF7D7FD012C16D1064841
:1036E000006890F81001800710D5FDF7F8F890B148
:1036F000FDF7F1F80FE00000380110008C221000F7
:103700000C0A1000A4231000F6FF0100FDF7E7F8F3
:1037100008B9FDF7DCF8BDE81040FCF7B3BD0020A8
:10372000D7E7E24B10B51A68947E640704D5D28AB5
:103730000468A2EB040202601A68947EA40703D511
:10374000128B0C68121B0A600268002A00DA002241
:1037500002601C68E48AA24200DD224602600A6818
:10376000002A00DA00220A601C68248BA24200DDD5
:1037700022460A601B689B7EDB0702D003680B6051
:10378000026010BDF0B500252C4608E031F9146048
:1037900030F91470F61B964200DD6D1C641C9C42CF
:1037A000F4DB012D01D90120F0BD0020F0BD2DE991
:1037B000F04F9246DDE909B7012547F6F872564207
:1037C0009946AC46002416E030F8143031F81480E5
:1037D000A8EB03031BB29A4200DD1A469E4200DAB0
:1037E0001E46002B02DA4FF0000502E001DD4FF02B
:1037F000000C04F10104BC42E6DB55EA0C0306D0E0
:10380000012D01D02DB108E0BCF1010F05D100223E
:1038100003E0BCF1010F00D1324600252C462B46B7
:1038200011E000BF30F8136031F813C01644ACEB60
:10383000060636B24E4505DACBF1000C664501DDD1
:103840003544641C5B1CBB42ECDB95FBF4F10A4481
:10385000002105E030F8113013442AF81130491CDA
:10386000B942F7DB89E5F0B5064600200446054677
:10387000521C059F0AE000BF36F911C09C4504DDCB
:10388000A44502DD64460D460120491C9142F3DB4C
:103890003D60F0BD30B50268002513460AE000BF68
:1038A00050F82540944201DD224602E09C4200DAB5
:1038B00023466D1C8D42F3DBD01800EBD070401016
:1038C00030BDF0B4794C23685D7D1B7D6D1C5D437C
:1038D000002307E032F8136030F81370F61B21F86C
:1038E00013605B1CAB42F5DB2068427D007DF0BCC1
:1038F000424301EB420142006D4838E66D49012028
:10390000086081026C480FF0BCBB2DE9F04106460F
:1039100015460F46302801D1FFF7F0FF654C2068AF
:103920002844401CB0F5806F01D2206801E00120DE
:103930002060614908700E542DB10844401C2A468D
:103940003946FFF714FE20682844401C2060BEE67C
:103950005A48002101220170427081707047574817
:103960000078704730B5514A126892F80A27D30799
:103970000BD0D506524A4FF000034FF0010407D593
:10398000151F2860012901D1136030BD146030BDBE
:103990004B4D083D28600129F8D0F5E72DE9F84F97
:1039A000424C00264FF00057206890F80A0745095E
:1039B00097F8510000D101250720FCF750FEFCF7D5
:1039C00006FFDFF8F880C8F8040020684FF0010413
:1039D00090F80A07C00603D5062087F8510001E0D9
:1039E00087F8514000210120FFF7BCFF4FF416700B
:1039F000FCF750FC4FF0E02A4FF480594FF0000BD9
:103A0000CAF880924FF040514446D8F80400FCF7C1
:103A100064FDDFF8B080012088F80000E8B2FDF70F
:103A200045F8CAF800916B4600224FF0405160689B
:103A3000FCF774FD4FF040516068FCF74EFD0098B4
:103A4000C00000D501262078B04202D1607801285C
:103A50000BD197F851009EB140EA0522DD20616844
:103A600006F02DFE84F801B0267000210846FFF70D
:103A700079FF88F800B00720FCF70CFE207844E4BA
:103A800040EA0521092006F002FEEBE710B50446E6
:103A90000D484FF480510160FDF715F807482146A5
:103AA0004068BDE81040FCF7E9BC00003801100098
:103AB000682F01203C011000D6250120C80110000C
:103AC000280A00228D01100080E100E010B50146B7
:103AD0001822F748FFF74BFDBDE810404FF4006196
:103AE0000120FCF7CBBC2DE9F04198B080460D4693
:103AF00014466846FFF76AFDE0074FF0010701D062
:103B0000ADF80070A00705D5BDF8000040F0080032
:103B1000ADF80000A00603D54FF40070ADF800002A
:103B2000600735D5E34E306890F80A07C00712D019
:103B3000FFF734FF01280CD0BDF8020040F002006E
:103B4000ADF802005FF02000ADF80000A00707D03C
:103B500018E00620F8E7BDF8000040F02000F3E789
:103B6000BDF8000040F00100ADF80000306800F240
:103B7000211041788DF8131001788DF81A10807893
:103B80008DF81E00CC480078800601D58DF8437072
:103B9000ADF83A50ADF81680ADF83850AFF2D3001A
:103BA000C34D03244FF4006601906846FDF78BFE79
:103BB00017AB002231460120FCF7B0FC3146012052
:103BC000FCF78BFC2878002804D0FEF748FE641E22
:103BD000002CEADC18B0BDE8F0812DE9F041B549D0
:103BE00001260024096810F4D17F91F82110C1F357
:103BF000011106FA01F600D0042410F0050F01D0DF
:103C000044F00104C00601D544F00204002CE2D0C7
:103C10000025AA4F05E0F98878882246FFF763FF60
:103C20006D1CB542F7DBD6E72DE9F35FA1488B4663
:103C300001260068447D017D90F82100641C4C43FE
:103C400000F00707BE404FF488519D480FF03BFA43
:103C50000025DFF86C82DFF86492DFF854A21AE0E6
:103C6000B9F8061001220098FFF73DFF9549DAF8F0
:103C7000040005F00AFE934A0020414608E000BF18
:103C800051F8203032F910C0634441F82030401C14
:103C9000A042F5DB6D1CB542E2DB0020414605E0A9
:103CA00051F820203A412BF81020401CA042F7DBAD
:103CB000BDE8FC9F2DE9F35F7E488B460126006836
:103CC00090F8164790F8151790F821004C4300F033
:103CD0000707BE40A1007A480FF0F5F90025DFF88C
:103CE000E081DFF8D891DFF8C8A11AE0B9F8061032
:103CF00020220098FFF7F7FE7349DAF8080005F074
:103D0000D4FC714A0020414608E000BF51F8203041
:103D100032F910C0634441F82030401CA042F5DB6A
:103D20006D1CB542E2DB0020414605E051F8202041
:103D30003A412BF81020401CA042F7DBB8E72DE9F0
:103D4000F34FDFF8709187B00124D9F800001821F3
:103D500090F8210000F0070704FA07F668460FF014
:103D6000B2F90025DFF854B1DFF860A1E84618E0A9
:103D7000BBF8061002220798FFF7B5FE4C485349DE
:103D80000069FFF7FCF900205246414632F910C0A5
:103D900051F82030634441F82030401C0628F5DB00
:103DA0006D1CB542E4DB0020494643460A6804FA2C
:103DB00000F592F8E8212A4205D053F82020089D0A
:103DC0003A4125F81020401C0628EFDB09B0BDE879
:103DD000F08F2DE9F74FDFF8DC9084B09346D9F8E7
:103DE00000004E4630F83B1F039140880290FFF7D9
:103DF00028F90090FFF750F9019004216846FFF779
:103E000021F88246042101A8FFF71CF85044450020
:103E10003068012490F8210000F00707BC40A90099
:103E200027480FF050F9316891F8F002C20706D028
:103E3000800704D491F8F102044405F049FA002601
:103E400031E01E48042205994088FFF74CFED9F85E
:103E50000010174891F8C517D0F80C80C90704D096
:103E600041694246404605F0DBFAD9F8000090F877
:103E7000F002C10708D0800706D41549404605F076
:103E80003EFA78B1DFF8488000200D4908E000BF15
:103E900051F8203038F910201A4441F82020401CF5
:103EA000A842F5DB761CA642CBDB054C00212FE0B7
:103EB000A03E10003801100048011000A42310009B
:103EC0008C1110000C0A1000C82E01203A2E01207F
:103ED000048E0120FE48D9F8003050F8210093F8F4
:103EE000F02240FA07F0D60708D0920706D593F8DB
:103EF000F122521C4243B3F8F202101AB1EB4A0FFE
:103F000001DA039A00E0029A104424F81100491CD7
:103F1000A942DFDB049810F0220F09D02046DBF81D
:103F20000010FFF794F82046DBF80410FFF7B5F80F
:103F300007B04CE72DE9F0479A46E64B8946002149
:103F40000125E54E1C681AE032F8113030F8117086
:103F5000DB1B1FB200230AE0C3EB031C06EB8C0C37
:103F60005B1C3CF811801BB2B8442CF8118094F80B
:103F700080C305EB9C1C9C45EEDC491C09B2637DAB
:103F80008B42E1DC0020D54A19E000BF3AF810303E
:103F900039F81010591A0BB2002108E002EB811613
:103FA000491C36F8107009B21F4426F8107094F8B6
:103FB000806305EB96168E42F0DC401C00B2217D3A
:103FC0008142E3DCBDE8F08770B5C24DC44E0024E9
:103FD0002868C4EB041100EB440006EBC111B0F8F3
:103FE000EF00FFF721FE641C042CF1DB70BD2DE90E
:103FF000FE4F00258246B74C2F46DFF8DC82DFF803
:10400000DC92012612E000BF00EB4500C5EB051273
:10401000B0F8B21308EB8200009009EB8510CDE9EF
:1040200001076A465046FFF7D4FE6D1C206890F8E1
:10403000801306EB9111A942E6DC90F85011C907F4
:1040400010D090F8911109060CD5407DA24942008C
:10405000A448FFF78CFA2068A049007D4200A248DE
:10406000FFF785FABDE8FE8FFEB59A4A9F49002406
:104070001268012300F4907592F88063C98803EBFD
:10408000961306E002EB4406B6F8B263B14202D0E2
:10409000641CA342F6DCA34219DDC5B192F85001BD
:1040A000C00703D192F8B001C0070FD08A49C4EB12
:1040B000041001EB80013C228D48FFF758FA874835
:1040C000402200EB84118B48FFF751FAFEBD00221D
:1040D0000292874A0092874A01926A46FFF779FE68
:1040E000FEBD2DE9F04104460020FCF7B8FA03209C
:1040F000FCF7B5FA774D286890F82010490701D4ED
:1041000024F4006490F85011C90705D190F8B0115B
:10411000C90701D124F0620490F88013490701D443
:1041200024F4B07490F8D010490701D424F00404AA
:1041300090F8E81109B924F0100490F8040308B9C4
:1041400024F4C07460060AD53C2269496A48FFF726
:104150000EFA6948402267493C30FFF708FA674980
:104160000020401C8842FCD3200502D52046FFF7E2
:1041700034FD600701D5FFF727FF14F4907F02D0CC
:104180002046FFF734FF594EDFF87481E0074FF007
:10419000010720D070885B49FFF746FD70885A49B7
:1041A000FFF788FD286890F8200000070AD55548D9
:1041B000FFF7ADF855490123554A086001465148BB
:1041C000FFF7DCF8286890F84904C0070BD02046B8
:1041D00002F0FEFB07E0E00405D570884A49FFF7CE
:1041E00069FD88F80070E00603D570884949FFF73B
:1041F000A6FD14F0820F0AD02046FFF735FF28688D
:1042000090F84904800702D5204602F099FC600628
:1042100006D53949374B364A3C313748FFF78AFED5
:104220003D4807703D4888F80070077006F0E1F8D7
:104230000020FCF72FFABDE8F0410320FCF72ABA72
:10424000F0B424490022264C0B68B3F8EF108142E9
:1042500013D2B3F8F510814201D803220DE00121F9
:1042600003EB4105B5F8EF50A84201D10A4602E040
:104270000DD2A1F101028A420DD1C2EB021004EB72
:10428000C011F0BC4FF4F0621E48FFF770B9491C32
:104290000429E5DBF1E703EB41031A4D33F8ED2F79
:1042A000C1EB01115B88801A00029A1A90FBF2F3AD
:1042B00000204FF4707604EBC11100BF01EB400207
:1042C000A2F5F06231F91040B2F90020A41A27E0FB
:1042D0008C11100038011000562B0120822C012077
:1042E000D6070120462C0120822D0120A423100096
:1042F000E22901201E2A0120243E100020A10700EF
:104300006101100056000120182F01206C011000DF
:1043100004231000D62901204E011000780110005E
:104320005C4302EB242225F81020401CB042C5DB80
:10433000F0BC70472DE9F0419E4900259E4A09686E
:104340009E4EB1F8B233834219D291F880339C0962
:1043500001EB4407B7F8B273874209D9012404EB93
:10436000931312E001EB4407B7F8B273B84201D1DE
:10437000254602E008D2A4F10105A5421CD191F81E
:104380005001C00708D103E0641CA342EADCF6E751
:1043900091F8B001C0074CD0C5EB051002EB8001CD
:1043A0003C228748FFF7E3F806EB8511BDE8F041B2
:1043B00040228448FFF7DBB801EB4405B5F8B03381
:1043C000B5F8B253C01A0002EB1A90FBF3F391F860
:1043D0005001C00703D191F8B001C00729D0784D32
:1043E000C4EB0411002002EB810100BF01EB40028D
:1043F00031F9107032F93C2CBF1A5F4302EB2722CF
:1044000025F81020401C1E28F0DB6E4D002006EB26
:10441000841100BF01EB400231F9104032F9402C09
:10442000A41A5C4302EB242225F81020401C20280B
:10443000F0DBBDE8F0812DE9F04163480124634ED3
:10444000047000253560192000F0A8F8192000F04C
:104450008DF85F4F052038724FF41670FBF71AFF86
:104460005A4844380560FF21397034600460E0E741
:1044700070B55548574C01250570207F40F0040069
:1044800020774C48006890F81101C00705D00A2039
:1044900000F084F80A2000F069F8002184F8601028
:1044A0005B22A2761120E07684F860505723A37631
:1044B000E076464B443B1960454EFF2131700421A4
:1044C00084F86010A276E0761D6070BD70B53F483C
:1044D0000024443804603E4D08352E79192000F040
:1044E00051F8C6F1FB002978C0B2491CB0FBF1F0CD
:1044F00039490870344804702E48006890F811015A
:10450000C00702D0BDE87040B2E733495520891E8C
:10451000087070BD10B52F4C207F40F0040020774C
:104520002448006890F81101C00702D00A2000F06A
:1045300029F827490A7B254B0020443B186084F862
:1045400060005B23A3761123E3760978891A89B288
:104550004FF4FA42B2FBF1F11F4A0909521E1170E1
:104560005521521E11701849087010BD00F01F022D
:104570000121914040094FF0E02202EB8000C0F899
:104580000011704700F01F020121914040094FF0D7
:10459000E02202EB8000C0F88011704700F01F029B
:1045A0000121914040094FF0E02202EB8000C0F869
:1045B0008012704738011000562B0120822C0120F8
:1045C000E22901201E2A01208C011000480500224A
:1045D0002E00002000100020F4FF010010B501465D
:1045E0001822FD48FEF7C3FF8021BDE810400120DE
:1045F000FBF744BF30B599B004466846FEF7E6FFC6
:104600000020012C04D0022C04D0032C0AD00DE091
:10461000012100E008218DF81200ADF800108DF89E
:10462000100003E04FF40070ADF80000BDF8020088
:10463000AFF2570140F4A670E74D0191ADF80200CA
:1046400003246846FDF73FF917AB002280210120C3
:10465000FBF764FF80210120FBF73FFF287800284B
:1046600004D0FEF7FCF8641E002CEADC19B030BD63
:104670002DE9F84F4FF0000BFEF7C7FC0446FEF79C
:10468000D4FC80464FEA54092821D4480EF0F9FCA6
:104690002821D3480EF0F5FC00274FF0010A032033
:1046A000FFF7A8FFCC48002426468068CDF800001C
:1046B0000AFA06F010EA090F2FD000250AFA05F0D1
:1046C00010EA080F26D029463046FEF77AFDC54984
:1046D000DFF808C309683CF91430B1F83427991A97
:1046E000009B33F91430A3EB020200D54942002AA3
:1046F00000DA5242914204DBB9492CF8143021F817
:1047000014003F2805D2401CC2B229463046FEF7AD
:104710006EFD641C6D1C202DD0DB761C272EC7DBA4
:10472000FDF705FC7F1C402FB9DB01200090032022
:10473000FFF760FF00273E464FEA0A0404FA06F03E
:1047400010EA090F17D0002504FA05F010EA080F47
:104750000ED0A348294610F817008246024630467C
:10476000FEF745FDBAF13F0F01D3002000907F1CFA
:104770006D1C202DE8DB761C272EDFDB009810B99E
:104780000520FEF790F8FDF7D2FB0320FFF732FF7C
:104790009449914809688368002091F8E82100BF96
:1047A00004FA00F52A421CD033F91050002D02DC27
:1047B0004BF4007005E040F6FF76B54203DB4BF4A6
:1047C0008070834610E0B1F83477B1F8BE6107EB32
:1047D000060CAC4505DABF1BAF4202DD0EB14BF44F
:1047E000806B401C0628DBDB5846BDE8F88F2DE9BE
:1047F000F0477C4E306890F831177B480A0604D4A5
:1048000001F00F010170BDE8F0870021724F0170C7
:104810000C460D4681460320FFF7ECFE326800206F
:10482000BB6892F8151792F816C701FB0CF106E069
:1048300033F910C0B2F83287C445E4DB401C814232
:10484000F6DC0F2C06D2641CE4B26D1C89F8004023
:10485000102DE0DBBDE8F0470620FEF724B82DE977
:10486000FC5F4FF0000BFEF747FC0446FEF766FCCA
:104870005E49074600200860486088605C494FEA4E
:10488000540980460860486088604FF0010A0220A1
:10489000FFF7B0FE5048002426460069CDF800001E
:1048A0000AFA06F010EA090F38D000250AFA05F1D5
:1048B000394230D04B490AFA04F0096891F8E811FE
:1048C000014228D029463046FEF77BFC4549474A3D
:1048D000096832F91430B1F80AC2B3EB0C01009B3D
:1048E00033F91430A3EB0C0C00D54942BCF1000F96
:1048F00001DACCF1000C614504DB3D4922F81430AB
:1049000021F814003F2805D2401CC2B22946304687
:10491000FEF76DFC641C6D1C202DC7DB761C272E5A
:10492000BEDBFDF704FB08F10108B8F1400FAEDB78
:10493000012000900220FFF75DFED0460026DFF840
:10494000A4A0354608FA05F010EA090F1ED000248D
:1049500008FA04F1394216D0DAF8001008FA06F025
:1049600091F8E81101420ED02148214610F81600B6
:10497000019002462846FEF73AFC01983F2801D3F1
:1049800000200090761C641C202CE1DB6D1C272D80
:10499000D8DB009810B90520FDF785FFFDF7C7FAB1
:1049A0000220FFF727FE0C4812490069FEF7E7FBDB
:1049B000DAF800400F4D002094F8E831424600BF7D
:1049C00002FA00F10B422DD035F91010002913DC4A
:1049D0004BF0020016E00000B83E1000F02E01205F
:1049E000402F012038011000F0FF0100F097012056
:1049F000FC9701203A2E012040F6FF76B14203DBFE
:104A00004BF00100834610E0B4F80A72B4F8BE61BE
:104A100007EB060C8C4505DABF1B8F4202DD0EB199
:104A20004BF0040B401C0628CADB5846BDE8FC9F2F
:104A30002DE9F05FE2490A6892F830010506E14885
:104A4000037803F00F0407D492F83E1121F00F0110
:104A500021430170BDE8F09F0025DFF86CA3834679
:104A600004702E46012789460220FFF7C3FDD7496F
:104A7000DAF81000FEF783FBD9F80020D34B0020B2
:104A800092F8E81107FA00FC11EA0C0F05D033F98F
:104A900010C0B2F80882C445DCDB401C0628F1DBFC
:104AA0000F2D08D26D1CEDB244EA0510761C8BF870
:104AB0000000102ED8DBBDE8F05F0420FDF7F3BE48
:104AC000F0B5C14900204D68BD490A68537D117D8C
:104AD0005B1C01FB03F41CE035F91130002B02DCF8
:104AE00040F0200014E040F6FF76B34202DB40F0D5
:104AF00010000DE0B2F83471B2F8BE6107EB060C9D
:104B00009C4505DABF1B9F4202DD0EB140F040001C
:104B1000491C8C42E0DCF0BD024618215FF0010028
:104B200000FA01F3134201D1491EF9D5491C88400E
:104B3000104370472DE9FE4FFEF734FB0446FEF7A5
:104B400037FB9F4D0746286890F84507000603D5B8
:104B50002046FFF7E1FF04464FEA540B4FF4F061A3
:104B60009B480EF08EFA98484FF0270980211830A4
:104B70000EF0A9FA002001900120FFF73BFD9248BA
:104B8000D0F804A08E480068057D01200024029022
:104B90005FE0012000FA04F111EA0B0F58D0002663
:104BA000012000FA06F818EA070F46D086481830A8
:104BB00050F8240010EA080F3ED131462046FEF797
:104BC00000FB00907E483AF915100068B0F83401F7
:104BD000814225DC7E4B33F91520121AA1EB00002F
:104BE00000D55242002800DA4042824209DC009897
:104BF0003146401EC0B2024600902046FEF7F7FA4A
:104C000001E023F815107349009821F815006E484B
:104C1000183050F8241041EA080140F824100BE045
:104C200000983146401CC2B22046FEF7E0FA6848C0
:104C30003AF8151020F815106D1C761C202EAFDBED
:104C40006148183050F82400B84201D0002002908A
:104C5000641C4C459DDB029830B9FDF768F901985A
:104C6000401C0190402887DB55484FF0010A002581
:104C70000068067D1DE0012202FA05F010EA0B0F24
:104C800016D000240120A04038420ED051482146C1
:104C900010F81600804602462846FEF7A8FAB8F13A
:104CA0003F0F01D34FF0000A761C641C202CE9DB77
:104CB0006D1C4D45DFDBBAF1000F02D10320FDF77B
:104CC000F2FDFDF734F90120FFF794FCBDE8FE4F3B
:104CD000F6E62DE9F05F3A4A116891F83001C40711
:104CE0003848037803F0F00514D0057000264B7D9A
:104CF0000C7DDFF8D4A05B1CB046914604FB03F7A3
:104D000083460120FFF776FC2046DAF80420D9F824
:104D100000100EE091F83E1101F00F0129430170DF
:104D200098E600BF32F91030B1F832C16345F7DBC5
:104D3000401C8742F6DC0F2E0AD2761CF6B245EAFA
:104D4000060108F101088BF80010B8F1100FD8DB4C
:104D5000BDE8F05F0220FDF7A6BD70B501244FF459
:104D600004614FF4F8300EF0AEF9FDF7E0F8FFF70C
:104D7000B0FFFFF7DFFE124D44EA0064286890F8A8
:104D8000E80128B1FFF754FEFFF769FD44EA00444B
:104D9000FFF72DFDFFF76CFC0A482A68401D0178DB
:104DA00092F8FB2701F0F00102F00F0211430170AD
:104DB0000948FEF770FA2046BDE8704005F041BD95
:104DC00038011000F6FF0100B83E10003A2E012015
:104DD000C89F012048A701208C2210002DE9F04F28
:104DE0000020FF4D04460246012140F6FF7BFD4BAB
:104DF000D5F814906E681B6801FA02F737421CD090
:104E000039F914A0BAF1000F02DC40F0200013E0E1
:104E1000DA4502DB40F010000EE0B3F836C1B3F81B
:104E20004171E6460CEB0708D04503DBAEEB070CFF
:104E3000D44501DD40F04000641C521C202ADBD325
:104E40000024AF69AE68224601FA02F535421AD055
:104E500037F91450002D02DC40F0200012E05D45CF
:104E600002DB40F010000DE0B3F83A81B3F8439153
:104E700008EB090CAC4503DBA8EB090CAC4501DDE4
:104E800040F04000641C521C202ADDD3BDE8F08FA6
:104E900010B501461822D448FEF769FB8021BDE811
:104EA00010400120FBF7EABA30B599B06846FEF72A
:104EB0008DFBCC484FF02004006890F80A07C0072B
:104EC00009D0FEF76BFD012834D0BDF8020040F098
:104ED0000200ADF80200ADF8004000208DF840005F
:104EE0008DF83F00BE48416849000C9180680D90E4
:104EF000BDF80200AFF2670140F4A670BA4D01910F
:104F0000ADF8020003246846FCF7DDFC17AB002275
:104F100080210120FBF702FB80210120FBF7DDFA55
:104F20002878002804D0FDF79AFC641E002CEADCE7
:104F300019B030BD0620ADF80000CEE72DE9F84FDE
:104F40002121AA480EF0BFF8A848302121300EF0E8
:104F500098F8FDF7B8F8FDF757F8042003254FF04F
:104F600000084FF001099E4CDFF878A2CDF8000050
:104F7000FFF79AFFE8072BD04FF0000B5F465E4625
:104F8000616809FA06F008421AD040F6AC013046D2
:104F9000FEF749F9616931F91720DAF80010B1F824
:104FA00045118A420BDA3F2809D200994FF0010BD4
:104FB0000844C1B240F6AC023046FEF751F97F1CFE
:104FC000761C202EDCD3BBF1000F01D125F00105AA
:104FD000A8072BD54FF0000B5F465E46A16809FA83
:104FE00006F008421AD040F6CD013046FEF71BF914
:104FF000A16931F91720DAF80010B1F847118A4297
:105000000BDA3F2809D200994FF0010B0844C1B2D6
:1050100040F6CD023046FEF723F97F1C761C202E89
:10502000DCD3BBF1000F01D125F0020545B1FDF73E
:105030004AF8FCF7E9FF08F10108B8F1640F97DBC3
:1050400003254FF0000800BFFFF72EFFE80729D027
:105050004FF0000B5F465E46616809FA06F00842B1
:1050600018D040F6AC013046FEF7DDF8616931F941
:105070001720DAF80010B1F845118A4209DD40B175
:10508000401EC1B24FF0010B40F6AC023046FEF7B5
:10509000E7F87F1C761C202EDED3BBF1000F01D178
:1050A00025F00105A80729D54FF0000B5F465E46A5
:1050B000A16809FA06F0084218D040F6CD01304642
:1050C000FEF7B1F8A16931F91720DAF80010B1F84C
:1050D00047118A4209DD40B1401EC1B24FF0010BB9
:1050E00040F6CD023046FEF7BBF87F1C761C202E22
:1050F000DED3BBF1000F01D125F00205002D08D051
:10510000FCF7E1FFFCF780FF08F10108B8F1640F3C
:105110009ADBBDE8F88F2DE9F041354D00202121C3
:10512000287032480DF0CFFF3048302121300DF08B
:10513000A8FFFCF769FFFCF7C6FF294E002700BF58
:10514000FFF7B2FED6E904320024204606E000BF95
:1051500032F91010A14200DD0C46401C9842F7DBEA
:105160000020F368B26905E032F91010A14200DDB9
:105170000C46401C9842F7DB002C09DC28780F28ED
:1051800003D8401C2870FCF79EFF7F1C202FD7DB24
:1051900040F6FE70844206DD2878401E2870BDE887
:1051A000F041FCF790BFBDE8F0812DE9F05F0C4EB7
:1051B00000240E4FD6F804306C3F254621460120CE
:1051C00000FA01F21A4203D07A5CA24200D91446D6
:1051D000491C2029F4D3054FB268403F002109E063
:1051E000D001100038011000503F1000ACF8010051
:1051F000F5FF010000FA01F3134203D07B5CAB42E0
:1052000000D91D46491C2029E9D3DFF804A40AF17E
:10521000010B8AF800408BF80050FE4F386890F878
:105220000A07C10705D0800703D5FEF798FB0128C0
:1052300011D0F748F649801E491E007809782044AD
:105240002944FF2288427AD2081A2044FF2877D8BE
:105250008AF8000099E0EF48006800F2597002797E
:10526000C17802F03F0201EB02268279417902F017
:105270003F0201EB0228027BC17A02F03F0201EB00
:105280000227827B417B007802F03F0201EB02297A
:1052900040060FD5DE48801E017806EB080004EBBF
:1052A00040000844DA49491E0A7807EB090105EB7A
:1052B000410110E006EB0800400000EB4401D44837
:1052C000801E0078084407EB0901490001EB450204
:1052D000CF49491E09781144FDF7CBFDCD49096836
:1052E00001F20B72B1F80B37834201D2A1F80B0720
:1052F00091F80A07400720D591F85907400620D5B4
:1053000070004342C8F1000091F80B1703EB400016
:105310000144BF48801E0078091A8AF800107800FE
:105320004142C9F1000001EB400011780144B84846
:10533000401E0078081A8BF80000BDE8F09F27E0B7
:105340001DE0B348B1F80B17801E037806EB080088
:105350001844404201EB4000C0F34701AC488AF8D2
:105360000010401E017807EB0900084411884042F4
:1053700001EB4000C0F347018BF80010DDE78AF82D
:105380000020306840F0800030608BF80050D4E797
:1053900081420FD2401A2844FF2802D88BF800001F
:1053A00005E08BF80020306840F0800030608AF81B
:1053B0000040C2E78AF80040E7E72DE9F04100200D
:1053C000954C964B934A01214FEA00055F6801FA1C
:1053D00000F63E4209D01768265C97F84A71BE4233
:1053E00002D9F61B265400E02554401C2028EDD39A
:1053F000894C2C345FF000009F6801FA00F63E42B1
:1054000009D01768265C97F84A71BE4202D9F61B8C
:10541000265400E02554401C2028EDD3FFF7C5FE9C
:10542000BDE8F041FCF72ABE2DE9F84F7A487A4DE5
:1054300006462C352C210DF046FE402128460DF065
:1054400042FEFFF7B2FEFCF73EFEFCF717FE04201B
:10545000032400274FF00109DFF8C0A1DFF8B4B141
:10546000CDF80000FFF720FDE00728D04FF0000C3A
:10547000624660464FEA0A0309FA00F1D3F8048055
:1054800011EA080F13D0596931F91280DBF80010C6
:10549000B1F83811884509DA315CDDF800804FF049
:1054A000010C4144FF2900DDFF213154521C401CF6
:1054B0002028E1D3BCF1000F01D124F00104A007A2
:1054C00027D54FF0000C62466046534609FA00F1BA
:1054D000D3F8088011EA080F13D0996931F91280C6
:1054E000DBF80010B1F83C11884509DA295CDDF8D9
:1054F00000804FF0010C4144FF2900DDFF212954B9
:10550000521C401C2028E1D3BCF1000F01D124F033
:10551000020444B1FFF749FEFCF7D5FDFCF7AEFDF0
:105520007F1C642F9EDB03245FF00007FFF7BCFCA9
:10553000E00724D04FF0000E714670465246DC461C
:10554000D2F8048009FA00F313EA080F0FD0536968
:10555000DCF8008033F91130B8F83881434505DDB7
:10556000335C1BB15B1E4FF0010E3354491C401CD1
:105570002028E5D3BEF1000F01D124F00104A007DB
:1055800025D54FF0000E7146704652464FEA0B0C7F
:10559000D2F8088009FA00F313EA080F0FD09369D4
:1055A000DCF8008033F91130B8F83C81434505DD63
:1055B0002B5C1BB15B1E4FF0010E2B54491C401C91
:1055C0002028E5D3BEF1000F01D124F00204002C05
:1055D00008D0FFF7EAFDFCF776FDFCF74FFD7F1CD6
:1055E000642FA3DB95E50B4930B40968002003461E
:1055F00091F83021920714D5054A91F84941921E3D
:1056000001201578A5420BD9A5EB0404147008E01D
:10561000F9FF01003801100040F80100D00110002E
:10562000137091F8302152070BD58D4A91F849112A
:1056300040F0020014788C4202D9611A117000E027
:105640001370002801D030BCAFE530BC70472DE9A5
:10565000F04784490024844D0868274690F830219B
:10566000920702D501242F7002E090F83F212A70A2
:10567000894690F830117A4E490703D544F0020468
:10568000377002E090F840013070002C74D02C216B
:1056900076480DF018FD754840212C300DF013FDB3
:1056A00071482121801E077070486C300DF00BFD91
:1056B0006E4830218D300DF0E4FC6949FF20891CD3
:1056C0000870491E0870FCF7D9FCFCF79DFCFCF73C
:1056D000FAFC4FF0100A0027DFF89481FFF7E4FB93
:1056E000E00723D0D8E9043C0020014606E000BFD3
:1056F0003CF91120824200DD1046491C9942F7DB3B
:10570000D9F80010B1F83621824202DA2878401E1A
:1057100008E0B1F84B11814206DB28785044FF289D
:1057200000DDFF20287001E024F00104A00726D549
:1057300000200146D8F80CC0D8F8183006E000BFA9
:1057400033F91120824200DD1046491C6145F7DB28
:10575000D9F80010B1F83A21824202DA3078401EBE
:1057600008E0B1F84B11814207DB30785044FF2844
:1057700000DDFF20307002E00AE024F00204002C7B
:1057800006D0FFF712FDFCF79EFC7F1C202FA5DB47
:10579000BDE8F08770B5364C00202060FDF751FC65
:1057A0006060FDF779FCA0606068042140086060DB
:1057B000201DFDF747FB2061042104F10800FDF7DF
:1057C00041FBE060FFF770FB2A4E2169F06800EBB7
:1057D00041026261E26802EB410100EB4100A0611D
:1057E000FFF735FFFFF7FFFE1E4D286890F83001E8
:1057F000800603D5FFF718FEFFF7DFFD286890F855
:105800003001000701D5FFF786FC286890F83001C9
:10581000C00601D5FFF792FBFCF755FCFFF744FBF0
:10582000F068216900EB41026261E26802EB41012C
:1058300000EB4100A061FFF7D1FA2168014308485D
:1058400021602A68C01C037892F8FB2763F30302E7
:105850000270BDE8704041F0020004F0F2BF0000A9
:10586000F8FF010038011000F7FF010040F80100C7
:10587000D0011000503F100010B501461822944886
:10588000FDF775FE8021BDE810400120FAF7F6BD56
:10589000F0B5904D06460C4628684FF0FF3199B0A0
:1058A00090F8B10000F00F00401C8140CF436846E3
:1058B000FDF78CFE0120ADF80000ADF8024028682D
:1058C00010F8F91F8DF8131044F00501ADF802101F
:1058D0000297ADF81660AFF25F01019141788DF843
:1058E000141080787A4D8DF81A0003246846FBF76F
:1058F000EAFF17AB002280210120FAF70FFE80217A
:105900000120FAF7EAFD2878002804D0FCF7A7FF69
:10591000641E002CEADC19B0F0BD2DE9F0476D4D96
:105920004FF00009DFF8A881286800F5707004784E
:10593000467887781AE049462046FFF7A9FFD8F84D
:10594000040009F043F80146286890F8F82012F0A6
:105950000F0000D1012012094A43B2FBF0F082B2DD
:105960002146302004F0B0FFE01984B2B442E2DDF9
:10597000BDE8F0872DE9FF5F4FF6FF764FF0000A94
:1059800093460F46804634465546DFF848911BE063
:1059900038F815005146FFF77BFF4D48406809F085
:1059A00015F8D9F8001091F8F82012F00F0100D185
:1059B000012112094243B2FBF1F080B2A04202D2AF
:1059C00038F8156004466D1CBD42E1DBABF80060A1
:1059D00003980480BDE8FF9F2DE9F0413D4E054648
:1059E0008846306888B090F8D12002F00F01C2F3E9
:1059F0000214491C641C0A2900DD0A21022C00DD66
:105A00000224D23006AB05AAFFF7B4FF326892F841
:105A1000D00080071BD5BDF814600121E632ADF837
:105A2000006000204FF4803C6F4607E0135633447B
:105A3000634502D227F81130491C401CA042F5DB17
:105A4000002904DD06AB05AA3846FFF793FFBDF831
:105A500014002880BDF81810A8F8001008B0BDE8A0
:105A6000F0817CB50020FAF7FAFD1B4C01A96846CD
:105A70006588FFF7B1FF174E3068B0F8E810BDF841
:105A80000400814201D9218000E02080BDF800009F
:105A900060800020FAF7FEFDBDF80000854207D0C7
:105AA000306890F8D000400702D56088FEF7C8FB48
:105AB0000A49012008700A4908700A4908700A4911
:105AC0000870BDF800202946092004F0E0FE7CBDE6
:105AD000683F100038011000A42310004E01100090
:105AE0006101100078011000860110002DE9F047D7
:105AF00006460078FE4D00B1287018223146FD4858
:105B0000FDF735FDFC4C206890F8C517CA07F94928
:105B100001D04A6900E0CA68417D6868F74B41439B
:105B2000002019E097F8F0C25FEACC780DD05FEA68
:105B30008C7C0AD597F8F17232F810C07F1C0CFBF0
:105B400007FC0F1823F817C005E001EB000C32F832
:105B5000107023F81C70401C276897F815C0844506
:105B6000E0DC686800F1010068607F7D07FB00FCF5
:105B70004FF000001EE000BF91F8F082C1465FEADE
:105B8000C8780FD05FEA89780CD507EB000891F848
:105B9000F11232F81880491C08FB01F80CEB0001E7
:105BA00023F8118039180CEB000832F8111023F893
:105BB0001810401C216891F815808045DCDC6B686A
:105BC0004FF0010803F101036B6091F8B10008EB9D
:105BD000101291F8F002C70705D0870703D491F897
:105BE000F1723A44D2B2934227DA91F80A07C00719
:105BF00019D0FDF7B4FE012815D12168A88891F8C5
:105C0000BA1380B201F00F01B0FBF1F201FB1201F7
:105C1000B8485C380029418802D041F0020101E017
:105C200021F002014180307808B1FCF718FEBDE890
:105C3000F047B0485C38FBF746BEC2072FD080075C
:105C40002DD4B1F8F2A2002522E0417DAB48694392
:105C500000EB41018946002015E000BF93F8F132C6
:105C6000012231F910605B1C06E000BF02FB070C4B
:105C7000521C31F91CC066449342F7DCA6EB0A02C1
:105C800029F81020401C23685F7D8742E6DC6D1CEC
:105C9000206890F8B11008EB1111A942D5DCBDE8DD
:105CA000F04780210120FAF7E9BB2DE9FF4FDFF82B
:105CB00044B24FF6FF74002681B08A46A046ABF18D
:105CC0005C0BB1466CE08B485C38FDF77FFC8A4D7D
:105CD000286890F80A07C00708D0FDF75FFE28B9CA
:105CE000BBF8021041F00201ABF80210296891F8EC
:105CF000C507C00701D0102200E00222ABF8002047
:105D0000019830F81620ABF83820BBF8022042F09A
:105D10000402ABF80220AFF22B2201F2C931CBF81A
:105D200004200A788BF83E20CA788BF840204A7805
:105D30008BF844206E4D89788BF845100327C5F801
:105D4000049000BF6B4885F800905C38FBF7BBFD02
:105D50006B46002280210120FAF7E0FB8021012020
:105D6000FAF7BBFB287820B1FCF779FD7F1E002FE6
:105D7000E8DC624802F0FDFC5F49096891F8C8233D
:105D800012F00F0100D101211209424390B2B0FB81
:105D9000F1F0A04203D20199044631F81680761C36
:105DA000564590DB0398A0F800800498048005B065
:105DB000BDE8F08F2DE9F0414F4D06468846286832
:105DC0008CB000F2823C00F2963790F8810300F02C
:105DD0000F01C0F30214491C641C0A2900DD0A21CA
:105DE000022C00DD02240AAB09AA6046FFF75DFF22
:105DF000286890F8800380071AD5BDF82430012167
:105E0000ADF8003000204FF4803C6D4607E03A5674
:105E10001A44624502D225F81120491C401CA042B8
:105E2000F5DB012904DD0AAB09AA2846FFF73DFF8F
:105E3000BDF824003080BDF82810A8F800100CB080
:105E4000BDE8F0817CB50020FAF709FC2C4C01A9D3
:105E50006846E588FFF7AEFF27480168BDF80400F3
:105E6000B1F8AC23824201D9A28000E0A080BDF845
:105E70000000E0802081854205D091F88013490719
:105E800001D5FEF757FA1F49012008701E49087016
:105E90001E4908701E49002008601E490870FAF764
:105EA000F9FBBDF8002029460A2004F0F0FC7CBD77
:105EB0002DE9F843DFF840800E4CD8F800005C3C38
:105EC00000F2C33005884688077951E009485C38FC
:105ED000FDF77CFBD8F8000090F80A07C00706D051
:105EE000FDF75CFD18B9608840F00200608013E0A7
:105EF000EC011000DC3F100038011000F48F01208D
:105F0000A42310004E011000610110007801100060
:105F1000F4021000EF021000D8F8000090F8C50756
:105F2000C00701D0102000E0022020802587608873
:105F300040F004006080AFF24B4060600E480021EA
:105F400041600E48FBF7BFFC6B4600228021012018
:105F5000FAF7E4FA80210120FAF7BFFA084802F0C4
:105F600008FC02462946312004F0AEFCE81985B24F
:105F7000B542ABDDBDE8F883EC011000803F1000B6
:105F8000F48F01202DE9F041174604460D46002606
:105F900009E0E00703D03146384604F0B0FB761C38
:105FA0006D084FEA340454EA0500F2D1BDE8F081EF
:105FB00030B5034600204FF0FF32012505FA00F40A
:105FC0000C4202D0521C9A4203D0401C2028F5D328
:105FD000002030BDF0B50E46F94C07460125D4E946
:105FE000151005FA06F20F2F65D2DFE807F06443BB
:105FF0004B08106464192129323A54585C00304629
:10600000FFF7D6FF8540A06A0543A56253E001462D
:106010003046FFF7CDFF8540206C054325644AE0FC
:106020003046FFF7C5FF8540E06A0543E56242E080
:106030003046FFF7BDFF8540206B054325633AE0FE
:1060400001463046FFF7B4FF8540A06C0543A564C8
:1060500031E03046FFF7ACFF8540606B0543656378
:1060600029E001463046FFF7A3FF8540E06C054379
:10607000E56420E03046FFF79BFF8540606A0543FA
:10608000656218E001463046FFF792FF8540E06BFD
:106090000543E5630FE0A06B0243A2630BE0206DB4
:1060A0000243226507E001463046FFF781FF854045
:1060B000606C054365642068401C2060F0BD10B52D
:1060C00001461822BF48FDF752FA8021BDE8104072
:1060D0000120FAF7D3B910B5FCF78AFF0446FDF7A3
:1060E0002DF8204310BD10B5FCF774FF4408FDF7F0
:1060F00003F844EA5000400010BD2DE9F0478946FE
:1061000005464FF0FF34FFF7E6FFAD4F0246002093
:106110007B6801464FF0010C0CFA01F6164200D0E4
:10612000641CAC4206D1B9F1010F09D022EA060085
:106130000B462021491C2029EED37B60BDE8F08767
:106140003046F5E72DE9F047894605464FF0FF3424
:10615000FFF7C9FF9A4F02460020D7F804300146E6
:106160004FF0010C0CFA01F6164200D0641CAC4250
:1061700006D1B9F1010F08D022EA06000B461E2114
:10618000491C1E29EED97B60D8E73046F6E72DE999
:10619000F34F9DB004466846FDF718FA17A8FCF7C0
:1061A000FAF9FFF7A0FF864E40087065FFF793FFEE
:1061B000854D4FF00C084FF01F094FF0400A4FF08B
:1061C000950BB065012C0DD02027022C23D0032C79
:1061D00027D0042C2AD0052C31D0062C4FD0082CE7
:1061E00065D073E0FCF7DEFF0290FCF7E1FF03905F
:1061F0000120ADF800008DF81AB03C20ADF8180071
:106200000298ADF816808DF814908DF813A0400810
:106210007065039859E0FFF766FF0C90FFF75BFF8E
:1062200014E0FFF758FF01210D9003E0FFF753FF43
:1062300000210D901E98FFF785FF0C9007E0FFF7F7
:1062400052FF0C9001211E98FFF757FF0D90ADF8FB
:106250000070286800F55A7081788DF83E10C1787A
:106260008DF8441001788DF8451041788DF846106E
:106270008188ADF838100089ADF83A0026E0FFF7C4
:1062800032FF0C90FFF727FF0D90ADF800702868E3
:1062900000F2613081788DF83E10C1788DF844109D
:1062A00001788DF8451040788DF846000EE0082002
:1062B000ADF80000ADF816808DF814908DF813A09D
:1062C0008DF81AB0089870650998B06500208DF8AF
:1062D0003F00BDF802108DF8100021F0300141F0B0
:1062E0004A018DF840008DF81200ADF80210AFF2AF
:1062F000312103260191012C13D0092C24D00A2C22
:1063000022D000BF8DF866008DF868008DF8670018
:10631000022C10D0032C0ED0042C0CD0052C0AD04B
:1063200012E0296891F84D178DF8600041F00301E3
:106330008DF85C10E6E72868B0F86E13ADF86210CF
:10634000B0F87203ADF8640017A8FCF745F91D4CCE
:106350006846FBF7B8FA1BAB002280210120FAF750
:10636000DDF880210120FAF7B8F82078002804D061
:10637000FCF775FA761E002EEADC1FB0BDE8F08F40
:106380002DE9FC5F00210120FFF701FF0D48476860
:10639000FCF708FF0190FCF70BFF0090042101A817
:1063A000FCF750FD064604216846FCF74BFD844689
:1063B00000200546DFF808B0DFF80CA0009059E097
:1063C000F4011000F43F1000380110004FF00008F5
:1063D000C1465C462846DBF85810FFF7E9FD014648
:1063E00001208840A16C084243D1012432E000BF63
:1063F00004FB0C51DAF8000037F9112090F867031C
:10640000B2EB001F25DA08F10108B9F1000F00D145
:10641000A146721E94421CD1B8F1010F19D1ACF102
:106420000102954204D1611E0120FFF7D3FD0EE069
:1064300007EB4101B1F90220B2EB001F05DB35B1DA
:1064400031F9021CB1EB001F01DA002000E002204C
:106450008046641CB442CBDBA6EB0901414508D859
:1064600029460220FFF7B6FD01200099A840084305
:1064700000906D1C6545A9DB01253AE04FF000084E
:1064800044462CE0DBF84030DBF8482000201A437B
:1064900011D0D9462046DBF85810FFF789FD014698
:1064A00001208840D9F84810084203D1D9F840109B
:1064B000084000D0012005FB0C4137F91120DAF823
:1064C000001091F86713B2EB011F07DA30B9012011
:1064D0000099A040084201D108F10108641C6445FC
:1064E000D0DBB8F1000F03D0691E0120FFF772FD69
:1064F0006D1CB542C2DBBDE8FC9F2DE9F041FF4CAD
:1065000000200546FE4FDFF8FC83A0611EE029460F
:106510000520FFF73CFE21690120FE6800EB410CDD
:1065200036F91C10D8F8000090F87703B1EB001F83
:1065300003D929460E20FFF74DFD36F91C00A1694D
:10654000884202DD36F91C00A0616D1C606985423D
:10655000DDD32BE52DE9F0470026374631460820EC
:10656000FFF715FEE648E74D0021D0F810C0286877
:10657000012400F5F57990F8E82100BF04FA01F351
:106580001A4208D03CF9113090F87D83B3EB081F14
:1065900000DA761C7F1C491C0629EFDBBE420BD1BA
:1065A00090F8E611C90790F8E91101D00D2000E03C
:1065B0000C20BDE8F0470DE5002E1CD00026286811
:1065C00004FA06F290F8E811114211D03CF91610C5
:1065D00090F87D23B1EB021F0ADA90F8E60119F872
:1065E0000610C00701D00C2000E00D20FFF7F2FCE0
:1065F000761C062EE3DBA1E52DE9F0410021062003
:10660000FFF7C5FDBE480025BE4EBC4CC7680EE076
:10661000E0683168284437F9100091F86513B0EB51
:10662000011F03DD29460A20FFF7D4FC6D1C2069F9
:106630008542EDDB00250EE0A0683168284437F97B
:10664000100091F86613B0EB011F03DD29460B2003
:10665000FFF7C0FC6D1C60698542EDDBA6E42DE907
:10666000F041A64C00200646206237E03146042067
:10667000FFF78DFDA2480025C7682BE0FFF72BFD33
:1066800001462846FFF794FC014601208840216C12
:1066900008421ED19B49A0682844096807EB4000C6
:1066A00030F9040C91F87813B0EB011F07D931468B
:1066B0000820FFF78FFC29460920FFF78BFCA06814
:1066C000216A284407EB400030F9040C884200DDC1
:1066D00020626D1C60698542D0D3761C2069864299
:1066E000C4D363E42DE9F041844C00200546844F77
:1066F000DFF81082E0611AE029460320FFF747FD2A
:10670000FE68B6F90210D8F8000090F87603B1EBF5
:10671000001F03D929460720FFF75CFCB6F90200E9
:10672000E169884202DDB6F90200E0616D1C206972
:106730008542E1D33AE42DE9F04100210220FFF740
:1067400026FD6F486F4D6D4CC768286890F8600350
:10675000000713D500260EE0E0682968304437F9B9
:10676000100091F87413B0EB011F03D931460320D8
:10677000FFF730FC761C20698642EDDB286890F834
:106780006003C00613D500260EE0A06829683044D7
:1067900037F9100091F87513B0EB011F03D931469A
:1067A0000420FFF717FC761C60698642EDDBD0E61B
:1067B0002DE9FC410020F9F752FF4FF4F83040F684
:1067C000FD010CF05EFCFBF77EFCFBF757FCFBF7D2
:1067D000AEFB4A4C00202060FFF785FC0090FFF7DD
:1067E0007AFC019004216846FCF72CFB0546042145
:1067F00001A8FCF727FB014600EB4500C4E90205B0
:10680000C4E904513F4D286890F86003010701D4A2
:10681000C00601D5FFF78FFF286890F86003800657
:1068200001D5FFF75FFF286890F86003000601D5E7
:10683000FFF715FF286890F86003C00701D0FFF745
:10684000DBFE286890F86013490704D590F8E8014A
:1068500008B1FFF77FFE286890F86003400601D575
:10686000FFF74BFE286890F86003800701D5FFF71B
:1068700087FD2068002862D0D4E90A359D43E5628F
:10688000606AD4E90F179843A8436062666CB94305
:10689000B143E163A26B216D9A43AA43256BB943CF
:1068A000AA43A263A26CB1439143AB43A3622165A7
:1068B00001220021FFF766FB02220021E06BFFF7B7
:1068C00061FB03220021A06AFFF75CFB0422002188
:1068D000206CFFF757FB07220021E06AFFF752FB0D
:1068E00008220021206BFFF74DFB09220021A06C3C
:1068F000FFF748FB0A220021606B05E0F40110005D
:10690000F43F100038011000FFF73CFB0B22002180
:10691000E06CFFF737FB0C220021A06BFFF732FB86
:106920000D220021206DFFF72DFB0E220021606C4F
:10693000FFF728FB0020F9F7ADFEBDE8FC81002140
:10694000084603F0DCFEF5E7F0B49848984A016881
:10695000087D4C7D02EB400644430022B1F84C54C4
:10696000B1F84A74134610460AE000BF36F910C069
:10697000AC4501DD521C02E0BC4500DA5B1C401C4A
:10698000A042F3DB9A4209DD91F84904400702D5A1
:10699000F0BCFCF7B1BD0120F0BC70470020FBE764
:1069A00010B5FFF7D1FF044601280FD1814840F60A
:1069B00005020168114301607F48016841F0200130
:1069C00001604FF480610120F9F758FD204610BDA9
:1069D0002DE9F041784800252E460078800621D523
:1069E0000024764F08E0012806D1FEF7B6F901250C
:1069F00078886F49FDF718F9FFF7A6FF48B1641CC6
:106A0000032CF0DB012E04D0BDE8F0410020FBF7A1
:106A10004ABFC12003F015FF012D03D1BDE8F041AD
:106A20000BF0D4B8BDE8F0812DE9F05F5F48012597
:106A3000DFF88CE10168B1F958B4B1F95C34B1F90F
:106A400056A4B1F95A440BEB03000AEB040200EB25
:106A5000D07002EBD27240F34F0942F34F06002090
:106A600002464F7D12E000BF3EF912C0B1F85284D9
:106A7000C44503DBB1F84E84C44506DDB1F84E844D
:106A80000025C44501DD01203A46521C9742EBD84F
:106A90000022DFF830E10F7D12E000BF3EF912C0A6
:106AA000B1F85484C44503DBB1F85084C44506DD15
:106AB000B1F850840025C44501DD01203A46521C3E
:106AC0009742EBD801280BD0012D0BD03C213E483A
:106AD0000CF0D7FA3C4840213C300CF0D2FA0020B0
:106AE000BDE8F09F0020394FDFF8DCC002460CE023
:106AF00037F91050A54201DB554503DD751B2CF815
:106B0000105001E02CF81020401C4D7D8542EFD83C
:106B10002D4E00202E4C3C360EE000BF34F91050B4
:106B20009D4201DB5D4504DDA9EB050526F810500B
:106B300001E026F81020401C0D7D8542EED8CEE7FE
:106B40002DE9F0418046234800263746007880062C
:106B50002AD5002504E0012C02D14046FDF784FA35
:106B6000FFF762FF0446012806D1FEF713FE012657
:106B70006D1C032DEFDB17B1012E0ED00FE00120AD
:106B8000FBF791FE3C2110480CF07BFABDE8F04188
:106B90000D4840213C300CF074BA0BF017F8BDE8FA
:106BA000F041C22003F04DBE3CE700003801100068
:106BB000560001204001100044011000A4231000E1
:106BC000FC8E0120748F012074970120E22901209E
:106BD0001E2A01204801100008B55A4D5A4E0024C3
:106BE000287880B10128FBD16B46002246F27D71E6
:106BF000F9F794FC0098C1071ED001210846F9F767
:106C00006CFC2C70ECE701210020FCF7D2FA6B46FB
:106C1000002202210120F9F781FC01210846FCF73E
:106C2000C8FA00988007DBD546F27F710120F9F79A
:106C300054FC01202870D3E701070CD5082101205E
:106C4000F9F74BFC0020F9F70AFD0620F9F707FDDC
:106C5000FEF783F80DE0410712D504210120F9F772
:106C60003CFC0020F9F7FBFC0620F9F7F8FCFEF7E6
:106C700091FD0620F9F70EFD0020F9F70BFDAFE7B7
:106C8000C10606D510210120F9F727FCFEF7E9FE21
:106C9000A6E7810606D520210120F9F71EFCFFF7A3
:106CA000D1F89DE7C10507D54FF480710120F9F7B0
:106CB00014FCFEF732FE93E7810507D54FF400710F
:106CC0000120F9F70AFCFFF7F3F889E7410606D53A
:106CD00040210120F9F701FCFFF76AFD80E741053B
:106CE00026D54FF480610120F9F7F7FB17480460BF
:106CF0001748076804603846FDF7F3F9B80701D56F
:106D000000F078FBA7F59850B73801D1052009E0CD
:106D1000F80701D0152005E017F0420F04D03068C5
:106D200040F0060003F08DFD0A480460346057E728
:106D30008004A4D54FF400510120F9F7CEFBFDF7F4
:106D40007AFB4DE7500210004801100000031000CC
:106D50004001100044011000F7490020FB4A087070
:106D6000F6490870F6490870F6490870F649087047
:106D700001211170F64A1170F649C8600861488017
:106D800008708861FF208880F3480068B0F85221BD
:106D90004A81B0F85401088100F054BF30B5002496
:106DA000234605E030F913508D4200DD641C5B1C66
:106DB0009342F7DBE848006890F86101A04201D2F5
:106DC000012030BD002030BDF0B50646002004464D
:106DD000059F0CE036F91450D3F800C0AC4501DA39
:106DE0001D603C7010B9954200DD0120641C8C428E
:106DF000F0DBF0BD30B585B0D74C01A8009020681D
:106E0000002503ABB0F95221017DD448FFF7DCFF28
:106E100050B123689DF8040093F88A2102F00F0115
:106E2000814219D81B7D14E002A80090206804ABB1
:106E3000B0F95421417DCA48FFF7C6FF68B1236805
:106E40009DF8080093F88A2102F00F01814203D8CF
:106E50005B7D591A814200DA150905B0284630BD1C
:106E6000FEB5BD4801AB5022006890F88911B0F919
:106E7000877101F00F060C09B0F9855102A9009144
:106E8000017DB648FFF7A0FF0198B84201DD30460A
:106E9000FEBDA84201DA2046FEBD401B311B48431F
:106EA000791B90FBF1F02044FEBD30B5AD48AA4DF2
:106EB0000478286890F85101800703D5FFF7D0FFC8
:106EC000A4EB0004286890F85101400702D5FFF7B1
:106ED00091FF0444002C01DA002402E00F2C00DDB5
:106EE0000F24204630BD30B564290DD00023642422
:106EF00008E000BF30F913504D4395FBF4F520F83E
:106F000013505B1C9342F5DB30BD70B50023642544
:106F10000AE0CC5C642C06D030F91360664396FB23
:106F2000F5F420F813405B1C9342F2DB70BD2DE9B1
:106F3000F0470025894629462F462E46A8462B466F
:106F40000DE000BF30F913C039F913400CFB0C669B
:106F50000CFB047704FB0488654421445B1C9342CA
:106F6000F0DB87FB020485FB013CC71A86FB0203AA
:106F700085FB056564EB0C04B0EB060C63EB0506C2
:106F800088FB020381FB0121851A63EB0108642160
:106F9000A7FB010304FB0131002207FB021133466A
:106FA00062460BF0FDFF0246A2FB070301FB07311F
:106FB00002FB04112A4643460BF0F2FF002C00DAD4
:106FC0004042BDE8F08730B547F6F873002405E08D
:106FD00030F91450AB4200DD2B46641C9442F7DBC1
:106FE000002405E030F81450ED1A21F81450641C08
:106FF0009442F7DB30BD70B503460020024601EB3A
:10700000D17408E003EB420633F91250B6F902607E
:10701000AD1B2844521CB2EB640FF3DB621008E096
:1070200003EB420533F9124035F9025C641B20443E
:10703000521C8A42F4DB70BDF0B587B00746464C5F
:1070400003A8009020689C468E461646017D0025C8
:1070500004AB0FFA8CF27046FFF7B6FE01283BD165
:1070600002A80090206805AB32B2417D3846FFF798
:10707000ABFE012830D1DDE9041081424FF06402FB
:1070800003DD504390FBF1F102E0514391FBF0F13D
:10709000206890F892218A421EDD9DF8081019B9E7
:1070A00090F89121D20716D0427D521E8A4203D118
:1070B00090F8911189070ED59DF80C1019B990F828
:1070C0009121520707D5027D521E8A4204D190F8C1
:1070D0009101000700D4012507B02846F0BD2DE935
:1070E000F04185B080460120019002901A4C04A81E
:1070F000009020681E468C461746017D002501AB96
:1071000032B26046FFF760FE064603A80090206892
:1071100002AB3AB2417D4046FFF756FE012E01D048
:1071200001282AD1DDE9011081424FF064021BDD04
:10713000504390FBF1F01AE05A0110007601100064
:10714000770110005B0110005C0110007801100055
:107150007A0110005402100038011000D8340120C8
:107160009C3401207B011000514391FBF0F0216819
:1071700091F89211814200DD012505B02846BDE855
:10718000F081F0B40446F9480B46802100680D46B2
:1071900090F8680110B10146C0F58075F448C088C8
:1071A000032805D22146F0BC52001846FCF7DFB98F
:1071B00000200EE033F9106034F910704E4307FBE5
:1071C0000566F71706EB176646F30F2623F81060DF
:1071D000401C9042EEDBF0BC7047F0B50024E34D5C
:1071E0000FE030F8146031F81470012B0CD0F61B4E
:1071F0002F6897F86D717F4206EBC70620F8146080
:10720000641C9442EDDBF0BD3E442F6897F86D712D
:10721000F2E72DE9FC47D64D80460026E88890B974
:107220003C22D449D448FCF7A2F94022D349D4489F
:10723000FCF79DF93C21D3480BF023FFD1484021B6
:107240003C300BF01EFFE8880127C84C032802D20F
:10725000CD48077013E012D92168B1F86B21824242
:107260000DD94B7DC44AC749C24801F0D8FE2068F9
:10727000C449C34A037D3C31C04801F0D0FE2068B8
:1072800090F85011427D090710D590F88D11CDE985
:10729000001290F88B31BD4AB6494046FCF787FA98
:1072A0002068B849427DB839B84802E0B54940463F
:1072B000B839FFF766FF2068AE4A90F85011437D59
:1072C0000907B34901D5B14800E0404601F0A7FEE7
:1072D0002068A84AAE49437DAA48B83801F09FFE0D
:1072E000206890F85011C90610D5427D90F896128A
:1072F000A748FFF7F8FD216891F85001C00605D5B1
:107300004A7D01F51C71A248FFF7FFFD2268B2F823
:107310005411B2F86901B2F87F4101440BB2E98817
:107320008C4201D2184403B200200446DFF864C244
:10733000DFF85C92527D1CE039F91080984515DD2C
:10734000761C022E13D96878401C40B26870002861
:1073500004DD91488CF800706C70077047F6FF7080
:10736000814201D2491CE980BDE8FC870026401C0F
:1073700000B28242E0DC6C708CF80040EEE703461D
:1073800010B50020024603E033F91240521C20449D
:107390008A42F9DB10BDF0B5744D0F46002629680E
:1073A000497DFFF7ECFF04462868017D3846FFF76A
:1073B000E6FF002C00DA64422A6800236C49D2F808
:1073C0009C52AC4206D8002800DA4042A84201D8BC
:1073D000CB610DE0C869401CC86192F89B228242D3
:1073E00006DC6E480126026842F400520260CB615E
:1073F0003046F0BD5D48006890F89011890606D5CA
:107400005B4901220A7090F8952112098A6190F86F
:10741000F002C00701D001F05BBF70471CB55449B2
:107420000020C98801B901201021504CCDE900107D
:1074300020680F235A49427D5A4801F060FD2068B8
:107440005749437DB0F9AE215648FCF79BF9012816
:1074500000D000201CBD2DE9F34F002085B08146EF
:10746000074680460290504D401E03902878002425
:107470000126DFF824A101281AD03C4D286890F895
:107480002010C9061AD590F8251048480288914264
:1074900014D204804648016841F022010160B10223
:1074A0000120F8F7EBFF8AF8006007B0BDE8F08F25
:1074B0008AF8006000F0C6FB2C70F6E70320F9F7AD
:1074C000CEF83C48DFF8A8B0007801283ED0BBF8E1
:1074D0000600DC46012813D9286801232949427D8A
:1074E0002448FFF77AFE286826490123027D3C31B3
:1074F0002248FFF772FE28682F4990F8FD020870B5
:10750000A3466446ACF806B0FFF7CFFCDFF888A0CE
:1075100001901C499AF8000000902868B839019B36
:10752000427D059801F0C8FC9AF800000090286898
:107530001449019B027D7C39069801F0BDFCDFF8FF
:107540007CA09AF80000012844D048E0286890F810
:107550005101C00605D5FFF761FF194901280870E0
:1075600030D00598FFF755FE30E0000038011000DC
:1075700054021000E2290120DA2A01201E2A0120EB
:10758000162B012060300120E40210003C40100066
:107590009C3401205C0110007801100048011000AB
:1075A000FE2D0120C22D01207A0110004C01100097
:1075B000400110004F0110008902100079011000F5
:1075C0005B0110008BF801408AF800600320F9F796
:1075D00061F86AE70D2003F034F98AF800B02868F2
:1075E00090F85011090719D5427D90F88D11CDE919
:1075F0000012F94A90F88B31F8491046FCF7D7F899
:107600002868027D90F88E11CDE90012F24A90F8B8
:107610008C313C32F2491046FCF7C9F82868EF4A31
:10762000F049437DEC4801F0FAFC2868EC4AEE4949
:10763000037DE9483C3001F0F2FC286890F89101A4
:10764000000606D5E849E748FFF7A5FE012800D166
:1076500002900320F9F71EF8E448DFF894A30068CD
:1076600090F8901109074DD5DB49427DDF4D7C3103
:10767000DC48FFF7A8FC2868D749427D7C3100F53B
:107680007470FFF754FC20612868417DD2487C303B
:10769000FFF7B1FC606123698646322B1CDDD349BC
:1076A000CD480A687C30B0F90050B2F854118D42D0
:1076B00007DD92F815C000EB4C0C3CF902CC8C4570
:1076C00009DC49428D4207DA527D00EB420030F975
:1076D000020C884200DA0127C448006890F894112F
:1076E00099420FDAB0F8AC2172450BDA90F89001AC
:1076F000400601D54FF00108DAF8001041F480711E
:10770000CAF80010B94D286890F85011C9060CD578
:10771000427D90F89612B348FFF7E5FB2868027D9A
:1077200090F8DC12B048FFF7DEFB286890F8901163
:10773000890710D5B0F85231B0F85421AA49A948A8
:10774000FFF77AFC012806D1DAF80010804641F4F0
:107750000071CAF80010286890F89111890610D5B8
:10776000B0F85231B0F854219F499E48FFF7B7FC5A
:10777000012806D1DAF80010804641F48061CAF889
:107780000010286890F8911149061ED5B0F95421CF
:10779000417D944801F060FC02280DD8A8B128680A
:1077A000417D904801F06CFC02462868417D8D487F
:1077B00001F052FC022808D9DAF800104FF0010855
:1077C00041F400614746CAF80010296891F8900119
:1077D000820705D4000703D491F8910180060DD5E6
:1077E000B8F1010F0AD1B4F9020000280BDB401EEA
:1077F00000B26080002806DC4FF0010991F8950185
:1078000000F00F00608091F85001C0060CD54A7D51
:1078100001F51C717348FFF778FB296872480A7DEF
:1078200001F52871FFF771FB286890F850110906DF
:107830000FD50096437D6F4A6F496A4801F0C5FB3A
:10784000009628686B4A6D49037D674801F0BDFBCF
:107850000CE0407D634942006748FBF788FE2868DA
:107860006149007D42006548FBF781FE286890F879
:107870009111C90627D503A90091427DB0F8AC311A
:10788000521E00215748FBF7EEFF012815D103993E
:10789000012904DB2868427D921E8A420EDAA08804
:1078A0000127401E00B2A08000280CDADAF8001090
:1078B000B94641F48071CAF80010286890F8950123
:1078C00000F00F00A080286890F85111C9070CD073
:1078D000B0F95E21417D484801F0AFFB2868B0F95E
:1078E0005E21017D454801F0A8FB286890F8501101
:1078F000490711D500963F4A437D0A3A40493E4820
:1079000001F063FB009628683A4A3E49037D0A3A33
:107910003A4801F05AFB0CE0407D374942003848B4
:10792000FBF725FE28683549007D42003548FBF706
:107930001EFE28682378B0F85211B0F85421012BAC
:1079400004D0314B1B78012B09D010E0B0F89831EE
:1079500003B11946B0F89A314BB11A4607E090F8D6
:107960005731C91A90F8563189B2D21A92B2274BC0
:107970001B783BB190F8A3311A4490F8A43192B22D
:10798000194489B20FFA81F8A4F80A8011B2218152
:10799000427D1B48FFF702FA844628684146027D73
:1079A0001848FFF7FBF91A49DFF86C80BCF1010FAA
:1079B00081F800C01749087001D1012830D017495B
:1079C00088F800B081F800B0E06800283FDD401E74
:1079D000E06030D03BE00000A82F0120E229012028
:1079E0001E2A01203C401000784010003801100091
:1079F000480110007E021000B8401000F440100052
:107A00009C340120D8340120740110005F01100063
:107A100076011000770110005A0110005C0110007F
:107A20007C4888F800600078012810D1286890F818
:107A30009701E0600BE0286890F89001C00606D539
:107A4000DAF8001041F08001CAF8001002E0029854
:107A500001280BD17048016841F0220101604FF408
:107A600080610120F8F70AFD6C480670B9F1010F3A
:107A70000BD16948016841F0420101604FF4806117
:107A80000120F8F7FBFC65480670286890F8901113
:107A9000890624D52178012921D1A169002915DD84
:107AA000427DB0F954115E48FFF778F90646286820
:107AB000027DB0F952115B48FFF770F906B100B9C9
:107AC0004FB1286890F895010009A06198F800006E
:107AD000012807D017E0A069401EA061F6D184F804
:107AE00000B0F3E72868B4F9021090F8950100F0AF
:107AF0000F00884207D1002F7FF4DFAC4949484886
:107B000000F026FDD1E400F000FBCEE42DE9FC41BD
:107B100088460746FFF7C9F9404E0546424C307883
:107B2000009020682B464149427D384601F0C4F957
:107B30003078009020683D492B46027D3C3140461C
:107B400001F0BAF9206890F85011090719D5427D63
:107B500090F88D11CDE90012344A90F88B313449F8
:107B60001046FBF724FE2068027D90F88E11CDE9C7
:107B700000122E4A90F88C313C322E491046FBF709
:107B800016FE20682A4A2C49437D284801F047FA0E
:107B90002068284A2949037D24483C3001F03FFAF7
:107BA000206890F85111C9070CD0B0F95E21417DD1
:107BB000214801F042FA2068B0F95E21017D1F489A
:107BC00001F03BFA206890F85011490711D50125C2
:107BD0000095437D1A4A1249174801F0F6F90095BD
:107BE0002068174A0F49037D144801F0EEF9BDE8FB
:107BF000FC81407D104942000948FBF7B8FC206831
:107C00000E49007D02B04200BDE8F0410548FBF797
:107C1000AEBC00007401100040011000780110009B
:107C20009C340120D834012038011000A82F0120F5
:107C3000E22901201E2A0120B8401000F440100063
:107C400074021000F9490020FA4A0870F849C86027
:107C500008618880C88008701070F74A48701070FA
:107C6000887008814881704730B5F44A0024126852
:107C7000937EDD0792F882310BD0834217DC158B9F
:107C8000EB1A834213DB92F8830188420FDCD28A1D
:107C90000AE083420BDCD58AEB1A834207DB92F8B9
:107CA0008301884203DC128B101A884200DA012417
:107CB000204630BD2DE9FE4314460D460646072BEF
:107CC00009D0DB48092BB0F9041006D03180C188F7
:107CD000298000781070BDE8FE833288ADF802205C
:107CE0002A88ADF800202778ADF806108146C088B4
:107CF000ADF8040001AA694602A808F03EFD02A8FA
:107D000008F033FDDFF834830346D8F800C09CF850
:107D10007401BCF8762100F00F01BCF878C10009AD
:107D200052430CFB0CFC93420BDD634501DB084620
:107D300007E09B1A411A4B43ACEB020193FBF1F1B4
:107D4000401ABDF90230C0F11001B9F904C04B432B
:107D500000FB0C3343F30F133380BDF900304B436A
:107D6000B9F9061000FB013040F30F102880D8F855
:107D70000000102199F8002090F87501A1EB101176
:107D80007943000900FB0210C0F307102070A2E73E
:107D90005FF0000200EB82035B6840F82230521C67
:107DA000052AF7DB416170472DE9F04F002793B0BA
:107DB00080463E463D46FFF7EBFF002158F8210084
:107DC0000744484300FB0155491C06440629F5DBDE
:107DD000974C0997143460680A90A068CDE90B06A7
:107DE00020690D906069CDE90E05E0691090206A68
:107DF000119009A8FBF748F8834603912068CDE964
:107E00000907A0680B90E068CDE90C0660690E9048
:107E1000A069CDE90F05206A119009A8FBF734F895
:107E20008146206809906068CDE90A07E0680C90F7
:107E30002069CDE90D06A0690F90E069CDE9100534
:107E40008A4609A8FBF720F80326A9FB06570A462D
:107E50000AFB06710926A0FB0637002409FB04145F
:107E600002FB0672002100FB0120EA18444103993D
:107E700012EB0B0061414FF4756200230BF090F898
:107E8000C8F80C0013B0BDE8F08F30B56B4A012480
:107E90001268937EDD0792F87A310BD0834217DCAB
:107EA000158BEB1A834213DB92F87B0188420FDCBF
:107EB000D28A0AE083420BDCD58AEB1A834207DBC5
:107EC00092F87B01884203DC128B101A884200DA98
:107ED0000024204630BD2DE9F047DFF860910546CB
:107EE000534CD9F800008AB00E4690F870019A46BB
:107EF00017464FF00008C00728D0082D26D094F967
:107F00000200062819DB11463046FFF7BEFF0028A5
:107F10004B48314609D0FFF747FF06B2484839467B
:107F20001830FFF741FF07B210E0FFF731FF444878
:107F300039461830FFF72CFF08E0401C404940B29A
:107F4000A07041F82060183141F82070ADF8006051
:107F5000ADF804708DF814A02B4605AA01A9684657
:107F6000FFF7A8FE072D2DD0092D2BD1D9F8001031
:107F700091F87001400725D5B4F90420BDF900003F
:107F8000101A00D5404291F87C3198420EDAB4F9CB
:107F90000630BDF90400181A00D5404291F87D6101
:107FA000B04203DAADF80020ADF8043022789DF835
:107FB0001400101A00D5404291F87E11884201DA6F
:107FC0008DF81420D9F800004E464FF0000790F8C5
:107FD000700100060FD5082D0DD0BDF90410BDF9B4
:107FE0000000FFF741FE8046012804D1306890F878
:107FF0007111C9070DD0BDF90010A180BDF9042091
:10800000E2809DF814C084F800C0B8F1010F2FD0B1
:1080100066E0072D18D00B49097831B390F8A60116
:10802000401CE06000200AB0BDE8F0877401100039
:10803000880210005A0110005C0110003801100085
:108040000C4010005F011000FE490F7090F8900185
:10805000C007E7D0FC48016841F0220101604FF4FD
:1080600080610120F8F70AFADCE790F87301D7E79E
:10807000306890F87131DB0732D0837EDB0790F8EF
:10808000823113D08B4201DDADF80030018BC91A6B
:10809000BDF90030994201DAADF8001090F8831173
:1080A000914201DDADF80410C08A12E08B4201DD7F
:1080B000ADF80030C18AC91ABDF90030994201DA21
:1080C000ADF8001090F88311914201DDADF8041075
:1080D000008B401ABDF90410884201DAADF80400A3
:1080E0000397BDF800000297ADF80E008DF8085018
:1080F000BDF80400ADF80C008DF80AC08DF80B70C7
:1081000002A802F017FA01208DE7D04810B50178D7
:10811000CF48006849B190F9A611CA480278CD4805
:10812000012A05D0002101610DE090F97311F4E7F7
:10813000C268521CC2608A4208D300231A461946FC
:108140000820FFF7C8FEBDE810407BE510BDF0B584
:108150000746DDF814E037F912404FF0FF30744560
:1081600001DA002400E01046012517E0561B07D471
:1081700037F916C0F44503DDA44501DD30466446F9
:108180005619A1F1010C664507DC37F916C0F44514
:1081900003DDA44501DD304664466D1C9D42E5DDEE
:1081A000F0BDAB490A68B2F8641181420DDAB2F849
:1081B0006621824201DC7F207047401A521AC0EBD0
:1081C000C01090FBF2F00028F6DC01207047F0B5FB
:1081D00000240125A1F101060BE0571B02D430F960
:1081E00017703C445719B74202DC30F917703C4411
:1081F0006D1C9D42F1DD012A02DB891E8A4200DDF1
:10820000640030F912002044F0BD2DE9F047904D94
:1082100014469A462E6830F91420814602FB04F079
:108220000123A1F1010196F862C117E0E51A08D413
:1082300039F91570B6F85E81474502DB07FB05008A
:108240003A44E5188D4208DC39F91570B6F85E81BC
:10825000474502DB07FB05003A445B1CB3EB1C1FE0
:10826000E4DD4A4380FB0A01D3170AF099FE00B20D
:10827000DAE62DE9F05F8B46D0E900159146002241
:1082800080689A4613464FF48034814202DD0246EC
:108290000B4602E001DA0A460346A0EB01014FF467
:1082A000803CA1FB0C084FEAE17707FB0C874FF0FD
:1082B00000062B44C2F1000201FB067103EB4202EF
:1082C0004FEAE2730AF06CFE4FF48036A9FB063CDD
:1082D0004FEAE97505FB06C51B18A3FB0A06002734
:1082E00009FB07524A4102FB0A614FEAEA7503FBA8
:1082F000051122463B460AF053FE5A464FEAEB73FD
:108300000AF04EFE00B2BDE8F09F2DE9F04F93B0A9
:108310000C46824617469946002518210CA81C9E3B
:108320000AF0D1FE00200290039004902EB9484834
:10833000006890F8620100F00F06BA1B07EB060315
:1083400000D50022661EB34200DD631E0CA9504614
:10835000FAF708FE4FB1B7422FD13D48006890F8B8
:108360005101800613D54D466BE03948006890F8FE
:108370005101800665D4BAF904000290BAF90000F0
:108380000390BAF902004B46012204900DE00AEB7B
:1083900044007F1C30F9061D0291B0F904100391CE
:1083A000B0F902004B463AB20490611E02A8FFF7F2
:1083B00060FF99FBF6F1451A43E0DDE910B1B1F138
:1083C00000084BDADDE90C2352EA030046D0DDE970
:1083D0000E0105910890002940DB1D48056895F8BD
:1083E0005001400611D5584641460AF0D9FD0028F3
:1083F00000DA404295F86311884206DA4B463A4665
:1084000021465046FFF701FF1AE01BEB0B01A1FBD1
:10841000062448EB080000FB0640F31701FB0303AA
:10842000089805994542A5FB0907002464EB01045F
:1084300004FB09714FEAE97605FB06110AF0B0FD6D
:10844000054609E074011000400110005F011000B2
:10845000380110008802100028B213E5B8F1000FAF
:10846000CCDADDE90C010843C8D00F980028C5DB41
:10847000E7E738B5AA4D049C2D6895F85051AD0634
:1084800003D50094FFF741FF01E0FFF7BEFE00B205
:1084900038BD2DE9F04700249A46CE1E814623467A
:1084A000A44627462546022A03DBB24201DC1046D9
:1084B000BAE50020491E07E039F91080B8F1000F35
:1084C00001DDC4447F1C401C8842F5DB9CFBF7F7B0
:1084D000022A12DA10460DE039F91060BE4203DAC2
:1084E0003CB90446002304E01CB19E4201DD334642
:1084F0000546401C8842EFDB14E0B24212DD104614
:108500000EE000BF39F91010B94203DA3CB9044655
:10851000002304E01CB1994201DD0B460546401ED4
:108520000228EFDC534500DA154628467CE530B5D5
:10853000044630F911300020491C06E034F911508E
:108540009D4201DD2B460846491C9142F6DB30BDB9
:108550002DE9F34F724C85B0226892F88451567D14
:1085600005F00F035F4206EB470606F0FF0B167D92
:108570002A09554200EB430006EB45050590EDB294
:1085800001EB420001952A4600210690FFF7CFFF3C
:1085900005465A4600210598FFF7C9FF06462068A0
:1085A000604F90F87001800607D5B7F900302A4671
:1085B00001990698FFF76DFF05462068DFF868A16E
:1085C00090F87001C00607D5BAF900303246594616
:1085D0000598FFF75EFF0646DFF85091DFF85081FF
:1085E00099F80000012828D1206890F8600101075F
:1085F00023D0010921D0B7F90010009100F00F033A
:10860000B8F9082001990698FFF7A1FD0746BAF9C5
:10861000000000902068B8F90A20594690F86001DF
:1086200003090598FFF793FD002F01DB002802DA0C
:10863000FFF76BFD01E03D4606462FB232B2A8F8C7
:108640000870A8F80A200026009620685946B0F95C
:1086500018300598FFF70DFF0096039020683A4602
:108660000199B0F916300698FFF703FF02902068D1
:1086700090F87001800704D5032203A902A804F032
:1086800011FD03A902A8FBF74CF801232A46019922
:108690000698FFF79CFDFFF784FDC3B225480078DC
:1086A0000028206810D090F9A51198F801204046C4
:1086B000521E52B288F80120002A08DB226892F884
:1086C000FC22114449B204E090F97211EDE7FF2257
:1086D000427099F8004005690CB96D1C05618D4226
:1086E00019D340F2FF110161C8F80C6044B103983E
:1086F00002B2029801B20920FFF7EDFB48B10AE08F
:10870000012089F80000039802B2029801B2072004
:10871000F2E7FFF7FAFC07B00120BDE8F08F000098
:10872000380110005E0210005C021000740110009D
:10873000880210005F011000E448E54A0068B0F8C4
:10874000AC139180E34990F8B10308817047E14987
:108750000020DE4A8880C880C86048801268DE4BEE
:1087600092F85C2112091A7008610870DB490870E0
:1087700070472DE9F043A1B0814602AF7821384619
:108780000AF0A1FCD1480123016891F8B1204C7D89
:1087900091F8A01103EB1216890715D50025804624
:1087A00010E000BFD8F8001005FB04F009EB400012
:1087B0004A7D91F88B31CDE9003249460246FAF7FD
:1087C000F6FF6D1CB542EDDB002010E000FB04F26B
:1087D000002109E002EB010C57F8215039F91C3057
:1087E0002B4447F82130491CA142F3DB401CB04226
:1087F000ECDB002007E000BF57F8201091FBF6F1FA
:1088000047F82010401CA042F6DB00200121A4F113
:10881000010517E04FF0000C63460BE003FB041862
:1088200039F9182057F82180B2EB080200D55242DE
:1088300094445B1CB342F1DB9CFBF6F2824200DD08
:108840001046491CA942E5DBB0F5803F04DB4FF63A
:10885000FF7021B0BDE8F08380B2FAE730B59B49E4
:108860009D4B096891F85021920725D59B4A1278B3
:108870004AB191F8A74104F00F022509B1F8A841C7
:10888000B1F8AA1107E001F5AC710C7904F00F0200
:1088900025090C884988A04201DC1A7030BD884245
:1088A00001DB1D7030BD001BAD1A6843091B90FB36
:1088B000F1F01044187030BD91F85C0100F00F0029
:1088C000F8E72DE9F041814D814A2E6896F8801332
:1088D000B6F8AC33C9073DD096F8AF4304B90124CC
:1088E000918896F8AEC3CF1A07FB0CF797FBF4F408
:1088F000B6F8AA730F442744764CB8420ADD002626
:1089000020210120E660F7F7B9FDE680286890F89D
:10891000B10306E0814202D9704D2D7825B196F859
:10892000B1032081BDE8F0816D4D2D78002DF9D186
:10893000B4F90850002D01DD6D1E25812489002C1D
:10894000F0D1891E814200DA01468B4200DD1946D2
:108950009180E7E79380E5E75C4A10B51468002151
:10896000B4F8A121824204D294F8B000800700D567
:1089700001215848594B0278914211D119789142FE
:108980000AD0574C2478224307D00169491E01615F
:10899000002901DC0078187010BD01700169F7E74B
:1089A00039B194F8B22002610170002AF4DC197028
:1089B00010BD94F8B320F6E7444910B5096891F862
:1089C000B010CA06434918D5464A14780A46D388D7
:1089D000C3EB03125200012C05D0C41A002C0CDC8E
:1089E0003F4C247824B102EB4000C0F34F1004E068
:1089F000C3EB83121044C0F38F10C88080B210BD47
:108A000010B5FFF7B6FEFFF7D7FF324CA080FFF797
:108A1000A3FFA088FFF722FFA088BDE8104050E721
:108A2000F0B430490B782B494A88B3B1322A01D2CD
:108A3000521C4A80254A0125136893F8B1405B7D9A
:108A400005EB1415CC6894FBF5F605FB1644264E91
:108A5000634306EB430700230BE0012AEAD9521EC9
:108A60004A800022CA60E5E730F813C027F813C037
:108A70005B1CD2F800C09CF815C09C45F4DCCB68A8
:108A80005B1CCB60136893F8C577FF0707D05B7D4D
:108A9000641C5F00634306EB4304002307E0C868DF
:108AA0000CE0FE1830F8166024F813605B1C1668A2
:108AB000767D9E42F5DCC868401CC860A84202DB97
:108AC000F0BC09489CE7F0BC70470000380110007A
:108AD000A4231000C00210007B0110005F011000F1
:108AE0005A0110004F011000DC300120D84900204D
:108AF000C86088604860D7490870704710B5002387
:108B00000BE000BF30F91340002C00DA64428C42C5
:108B100001DD012010BD5B1C1BB29342F2DB002083
:108B200010BD70B5CC4CCD4ACD492068437DCD48B1
:108B300000F075FA2068CC4ACC49037DCC4800F09F
:108B40006EFA2068427DB0F99812C548FFF7D6FF4B
:108B500005462068027DB0F99812C448FFF7CEFFA1
:108B60000022BB49012803D0012D01D04A6070BD0D
:108B70004868401C4860236893F89A328342F6DCC8
:108B8000BC48036843F480530360BB484A600168F3
:108B900041F022010160BDE870404FF48061012086
:108BA000F7F76CBC70B50546002003460CE000BF2B
:108BB00035F9134031F91360A41B00D5644224B287
:108BC000A04200DA20465B1C9342F1DB70BD2DE928
:108BD000FF4FA14E8146B9F1010F306808D0A74D73
:108BE000A74B047D0020DFF868B24FF0010A64E073
:108BF000A44DA54B447DF5E735F8101033F91070FE
:108C0000DFF888C2C91B0AB29CF800C00021BCF181
:108C1000010F05D0002A08DADBF80C2012B116E0AB
:108C2000114614E0029949420DE0DBF808C0BCF19E
:108C3000000F0CD10199DDF80CC009B2624506DDC8
:108C40000D998A4201DD09B201E00FFA8CF107EBC0
:108C5000010223F81020376897F8802352072BD59C
:108C6000B9F1010F4FF0000202D0DFF804E21DE07D
:108C7000DFF8F0E10AE000BFC2EB02180EEB880C4F
:108C8000521C3CF8108088442CF8108097F88083A0
:108C90000AEB981C9445EFDC0EE000BF0EEB821C43
:108CA000521C3CF8108088442CF8108097F8808380
:108CB0000AEB981C9445F1DC401CA0429CDBBDE80B
:108CC000FF8F2DE9F84F7249614C00250878012883
:108CD00000D12580DFF8808189464646D8F80020FB
:108CE000684992F82330009003F00F07527D3B460D
:108CF000684800F0E1F899F80000009030683B46C1
:108D00005E49027D644800F0D7F864480078400767
:108D10007CD56348007860B3A560E560D8F80000B2
:108D20002D3010F8011CB0F80290C7880C0901F032
:108D30000F06D8F80000C4465349427D5948FFF752
:108D400031FF8246DCF800004D49027D5648FFF7AE
:108D500029FFDCF800203F4BB2F854C1BAEB5C0F9E
:108D600004DCB2F85211B0EB510F32DD0120187063
:108D700030E0A168491CA160D8F8000090F82A20D2
:108D8000B1EB121F00DDA560E16802F00F02491C83
:108D9000E1608A4200DAE56090F8242011090FD0E2
:108DA00090F8383021888B420AD9491C218090F8EC
:108DB0002B1012090C09544301F00F06564304E02E
:108DC00090F82B100C0901F00F0630F82D9F8788C2
:108DD000AFE71D704B463246214601200097FFF752
:108DE000F6FE4B463246214600200097FFF7EFFE85
:108DF000D8F8000090F89111090607D590F8800383
:108E0000400703D5BDE8F84F8BE6FFE7BDE8F88FD4
:108E1000114810B5006890F82000C10716D023490A
:108E20000978002912D12249097809B180060DD5A7
:108E300020480078002809D10320F7F710FCFFF73D
:108E400040FFBDE810400320F7F724BC10BD000030
:108E5000D40210008501100038011000462C0120BA
:108E60003C401000562B0120822D0120784010003C
:108E7000822C012048011000400110009A2A012094
:108E80001E2A01205E2A0120E2290120E4021000AE
:108E900078011000462E0120822E0120E8021000E9
:108EA0004F011000A82F0120E42F012055011000D0
:108EB0005A0110005D011000F0B40C460146049800
:108EC000C3F11006012801D0002014E02046F0BCB8
:108ED0005200FAF74CBB00BF34F9105031F9107052
:108EE0005D4307FB0655EF1705EB177545F30F15A7
:108EF00024F81050401C9042EEDBF0BC7047F0B4F8
:108F00000C460146DDE90460F51A012801D0002075
:108F100010E02046F0BC5200FAF729BB34F910707B
:108F200031F910C05F430CFB057797FBF6F724F887
:108F30001070401C9042F1DBDFE72DE9F04700267E
:108F4000DDE908A9B4463546374634460FE000BF90
:108F500031F91480B8F1000F03DD464405F1010535
:108F600003E002DAC44407F1010704F1010494426A
:108F7000EEDB96FBF5F69CFBF7F7002421E06BB1E6
:108F800031F91450002D0FDD30F8145035442DB256
:108F900020F814504D4513DD35440FE030F81450DF
:108FA00031F814C0654409E00ADA30F814503D4441
:108FB0002DB220F81450554502DA3D4420F81450E3
:108FC000641C9442DBDBBDE8F0872DE9F043914659
:108FD0000022DDF81CC019E000252E464FEA0504EA
:108FE00002EB0407BF1E08D49F4206DA30F917804F
:108FF00039F9147008FB07553E44641C052CEFDB5F
:10900000BCF1010F06D021F81250521C9A42E3DB4A
:10901000BDE8F08395FBF6F421F81240F5E770B552
:10902000002407E032F8145030F81460AD1B21F82A
:109030001450641C9C42F5DB70BD30B500231C4607
:1090400007E000BF30F91350954201DA20F81340D1
:109050005B1C8B42F6DB30BD70B505460020044634
:1090600003460AE035F91360964204DD0CB9401C52
:10907000C0B2641C00E000245B1C8B42F2DB70BDBC
:1090800010B50022134603E030F913405B1C224464
:109090008B42F9DB09B192FBF1F210B210BD000076
:1090A00010B57F487F4A0068516841400ED050603B
:1090B000480701D5FDF750FE80210520F7F7DEF9BE
:1090C0004021BDE810400520F7F7D8B910BD10B514
:1090D0000446480709D574492046F9F7B8FF2046E9
:1090E000BDE810407149F9F7D8BF10BD704810B500
:1090F000006890F81001C00622D56E4869490078D2
:109100000979084000F004040620F7F7A8FA214680
:109110006948FFF7DCFF0620F7F7BCFA60070FD5B8
:109120000420F7F79CFA61495F48FEF7EFFC042042
:10913000F7F7B0FA1021BDE810400520F7F79EB907
:1091400010BD2DE9F04157485A4D002606705B4985
:109150002C680C4242D040680440594800780028EE
:109160003CD10620F7F77BFA21465348FFF7AFFFC3
:109170004F48544F006890F8A011C90709D02878CB
:1091800000060CD43878022809D04B48FFF748FC79
:1091900005E090F85C014C4900F00F0008700620D3
:1091A000F7F778FA600709D50420F7F758FA3F492E
:1091B0003D48FEF750F90420F7F76CFA387802289A
:1091C00002D12868002801DAFFF722FE600703D5E4
:1091D00010210520F7F752F93C480670BDE8F081F0
:1091E000304910B500204860FFF780FCFDF7B4FD62
:1091F000FFF7ADFABDE81040FFF79EBA294C08B55D
:1092000000256570FFF7ECFF4FF6FF76607868B3D6
:109210000128FBD16B46002255210420F7F77EF987
:109220000098C00706D031460420F7F756F9FFF73B
:10923000D7FF65700098400705D504210846F7F769
:109240004CF9FFF77EFF0098400605D54021042029
:10925000F7F743F9FFF74AFF0098C006D6D510216B
:109260000420F7F73AF9FFF71BFFCFE704210020AE
:10927000F9F79FFF6B46002202210420F7F74EF911
:1092800004210120F9F795FF00988007BED53146EB
:109290000420F7F722F9FFF7A3FF01206070B5E77C
:1092A000E4031000E4021000462E0120822E01206B
:1092B0003801100070011000048E0120140200809B
:1092C000550110007C0110007B0110007801100096
:1092D000FE4800218160C1707047FC490120887000
:1092E000F6E7FA4800214160417001218170704722
:1092F00000B5FFF7EDFFF5490120887000BD2DE9AD
:10930000FC4789460746F9F79CFE0090F9F7C4FE32
:10931000019004216846F9F795FD0446042101A84F
:10932000F9F790FD2044E94C4600E949A068E94D71
:10933000704301EB400029687200B1F8F2823946AF
:10934000FAF715F92868A16890F8F102884202D16D
:109350000120E07002E0E07801281AD1DC4F002003
:1093600015E000BF2A68012137F9103092F8F12288
:10937000521C05E006FB010C491C37F91CC0634474
:109380008A42F7DCA3EB080229F81020401CB04207
:10939000E8DB286890F8F112A068814201D3401CF4
:1093A00000E00020A060E078BDE8FC872DE9FC41EA
:1093B00015460E460746F9F744FE0090F9F76CFE95
:1093C000019000980421400800906846F9F73AFDA2
:1093D0000446042101A8F9F735FD00EB440C07EB26
:1093E000440207EB4C03014606EB440706EB4C0630
:1093F000002006E032F810C00CFB05FC27F810C076
:10940000401CA042F6DB002006E000BF33F810202D
:109410006A4326F81020401C8842F7DBBDE8FC8137
:109420002DE9FC47154689460646F9F70AFE0090E5
:10943000F9F732FE019004216846F9F703FD04466E
:10944000042101A8F9F7FEFC0146304606EB44036F
:1094500005EB4407002207E030F802CB33F8028B1B
:10946000521CC44427F802CBA242F5DB01EB4402B4
:1094700006EB840006EB420305EB4206002207E000
:1094800030F8027B33F802CB521C674426F8027B8B
:109490008A42F5DB48462946002204E030F8023BC8
:1094A00021F8023B521CA242F8DB09EB440005EB19
:1094B0008402002105E000BF30F8023B22F8023BA5
:1094C000491CA142F8DB6FE72DE9FC417F4C0126E6
:1094D000804F2078002558B9A1788020CDE900017F
:1094E00038687F237C49427D7C48FFF708FDA570E2
:1094F00038687949437DB0F9AE217848FAF742F9E6
:1095000077490978062902D02070304686E7002680
:10951000012802D065602570F7E720780028F4D193
:109520006068401C60600128EFD9012060702070E5
:1095300000F018FE01210220F6F7A0FFE5E7F0B4E5
:109540000B466449096891F8C517C90715D06549E4
:109550000968490011D400EB4204002109E000BF72
:1095600030F8025B34F8026B491C354423F8025B87
:1095700009B29142F4DBF0BC7047F0BC01465200E6
:109580001846F9F7F4BF70B5564E0025308810F430
:10959000CA7F44D04F4C51492068427D5248FFF762
:1095A000CEFFFFF791FF0546012838D1206890F8DB
:1095B000C507C1074D4809D03168490006D4444A5F
:1095C0004169C068F83AFFF72BFF04E04049C068E2
:1095D000F839F9F7D4FF3078000608D520683C49FF
:1095E00090F8C427F839521C0846FFF7DFFE2068C0
:1095F0003F4990F8F002C0073548A0F1F80002D0CA
:10960000FFF77DFE01E0F9F7BAFF206890F8F0025D
:10961000C00704D02D48C078012800D00025284676
:1096200070BD2C4910B50968002091F8E811002997
:1096300009D02C490978890705D52C482D4900699E
:10964000F9F79DFD012010BD254810B500780024D4
:10965000062816D11F48016891F81001000710D59F
:1096600091F8153791F81607B1F9E02243432249E2
:109670002248FAF787F81549012804D000204860ED
:109680000870204610BD08780028FAD14868401CB0
:1096900048600128F5D901204870087000F062FD8B
:1096A00001210220F6F7EAFEEBE770B50C4605460D
:1096B000014628222046F9F75AFF0648006890F82C
:1096C0001C07C10738D005210A4619E0EC0210003A
:1096D0002C42100038011000FE2D0120C22D012067
:1096E0007C0110000C031000FC8E012004471000C8
:1096F000048E01203A2E0120182F0120C82E0120AF
:1097000000200B1A134405EB4303161833F8023CF0
:10971000401C24F816308842F3DB0F2200200B1A7D
:10972000134405EB4303161833F8023C401C24F89D
:1097300016308842F3DB70BD81071DD5052100225C
:1097400010460B1A134405EB4303161833F8023C7A
:10975000401C24F816308842F3DB0A2200200B1A42
:10976000134405EB4303161833F8023C401C24F85D
:1097700016308842F3DB70BD4007FCD5052100227E
:1097800010460B1A134405EB4303161833F8023C3A
:10979000401C24F816308842F3DB0A2200200B1A02
:1097A000134405EB4303161833F8023C401C24F81D
:1097B00016308842F3DB70BD2DE9F041AA4801253F
:1097C000AA4F0278AB48AA4EAB4C0168062A0DD0CE
:1097D0000B7D487DB1F9E022584307EB430106EBCE
:1097E000430603463046F9F7CDFF14E091F8100127
:1097F0000025000721D5087D4A7D00FB02F3B1F961
:10980000E02207EB400106EB4000F9F7BBFF01281F
:1098100003D00020606020700FE0207868B9606895
:10982000401C6060012808D901206070207000F0A1
:1098300099FC01210220F6F721FE2846BDE8F081BF
:109840002DE9F04389468B4909684C7D0B7D641CEA
:10985000012116E04A1C01FB03F55A4300EB4506C3
:1098600000EB420709EB4505002207E036F812C07D
:1098700037F81280C44425F812C0521C9A42F5DB16
:10988000491CA142E6DBBDE8F08370B5794E054680
:109890000C46306890F8451709060AD5007D294620
:1098A00042002046F9F763FE21462846FFF7C8FF2D
:1098B00003E021462846F9F77EFE316891F8600002
:1098C000C0060DD5487D097D401C484305EB40038B
:1098D00004EB4000BDE870404A001946F9F747BE66
:1098E00070BD70B5654D0024654E2878C00706D060
:1098F0005F497068FFF7C9FFFFF75EFF04462888DD
:10990000000508D55F49B068FFF7CFFEFFF79CFE62
:10991000012800D10124204670BD7047554930B45C
:109920000968594891F8C8100278CB0718D08B07FE
:1099300016D5564B1B78C1F38204012101FA04F4B9
:10994000234209D00170C8B2824209D0012805D053
:10995000CD2030BC00F075BF0021F3E7CC20F8E744
:1099600030BC70472DE9F047FFF7D8FF4448434D1E
:109970004FF0000A007828B1F8F771FFC5F800A091
:10998000BDE8F0873B48006890F81001800701D5DA
:10999000F8F751FE344C20780128EFD00620F6F776
:1099A0005EFEFFF79EFF0646FFF73BFE0746FFF70A
:1099B000EAFD80460620F6F76DFE35492868DFF897
:1099C000B8900860012E01D0012F15D1207802280F
:1099D00009D199F8000001280AD100F0C3FB012148
:1099E0000220F6F74BFD2078072809D0062807D07B
:1099F00004210320F6F742FDB8F1010F03D014E073
:109A00004FF40071F5E7DFF88C8098F8000001282A
:109A100004D10D2000F015FF88F800A02078072859
:109A200013D004210420F6F729FD20780628A5D1BB
:109A300028680028A2DA99F8000000289ED10620A4
:109A4000F6F70DFE3E4302D007E04021EAE7287812
:109A5000800702D0002001F04BFA0620F6F71AFE2C
:109A60008CE70020704700007C01100056000120A8
:109A70000C0A100038011000EC0210000C0310005A
:109A800004471000C82E0120600110004B00002088
:109A90007001100079011000FE4AFF4BA2F1200175
:109AA0004878125C1A70401CC0B24870042801D17A
:109AB00000204870704710B501461822F748F9F7A2
:109AC00056FD0221BDE810400846F6F7D7BC70B538
:109AD000F34D0446286890F80A07C0072CD0207878
:109AE000F04E10F0260F15D0A078800712D4F9F7A9
:109AF00055FF012821D0608840F00200608028686E
:109B000090F80A07000717D520210620F6F7B6FCC3
:109B100001203070286890F80A0700070CD53078CB
:109B2000012809D1F9F73AFF012805D110210620B3
:109B3000F6F7A4FC0020307070BD20888106E9D5BE
:109B400020F0200040F006002080E3E7F0B597B059
:109B500005466846F9F73AFDCE4CD348203CD34A37
:109B6000656101881180D249D24ACD4E4988018071
:109B7000E80728D0BDF8000040F00101ADF8001062
:109B8000306890F86030DB0603D541F48071ADF8A1
:109B9000001090F82011C90715D0C749097891B96C
:109BA000117804290FD0002D0DDB00F2211041782F
:109BB0008DF8131001788DF81A1080788DF81E003A
:109BC00045F480606061280505D5BDF8000040F4CB
:109BD0000070ADF80000A80705D5BDF8000040F002
:109BE0000800ADF8000015F48A7F4FF000071FD081
:109BF000316891F8A001C00706D091F8C507C007E9
:109C000002D01078032807D0107802281ED0072829
:109C10001CD006281AD005E0BDF8000040F0100066
:109C2000ADF80000BDF8000040F02000ADF80000E5
:109C30006846FFF74CFFE80552D5A0480078012898
:109C400039D09F480078012835D049E0002D01DA4D
:109C5000022808D0BDF80020062842F00202ADF824
:109C6000002007D018E0BDF8000040F02000ADF85B
:109C7000000011E091F8080708B18DF83E00BDF82A
:109C8000020040F20222104320F02000ADF8020052
:109C9000606940F08040606191F80007C00703D020
:109CA00091F803078DF842008DF84070606940F02C
:109CB00080006061BCE7306890F8B01109070FD5EB
:109CC0008DF8407090F8C507C00705D0BDF80000BA
:109CD00020F01000ADF80000606940F08000606185
:109CE000AFF22D200190012060716846F7F7EBFD7F
:109CF00017B0F0BD80B2F6F732BF6E4810B50278EB
:109D0000644967482039022A0068C9780BD0062ABE
:109D100013D0072A14D0012915D0022916D090F8A3
:109D20001341B4B116E090F817410229F9D190F827
:109D30001501A042F5DD0446F3E790F81841F0E77D
:109D400090F81941EDE790F81441EAE790F81541D1
:109D5000E7E71424F7F738F8002801DD04EB840462
:109D6000204610BDF0B54E49054600200C6894F819
:109D70002070F9071CD04F490B7846492039022B37
:109D800017D0072B15D0062B13D094F839204D4E41
:109D900036781EB194F84944E40707D04A4C247839
:109DA0000CB1BC0602D5494C24785CB152428A60A1
:109DB000F0BD0E7894F83A20032EE8D2761C0E708F
:109DC0008A60E4E78C68641C8C609442F0DD0020BB
:109DD000886003202EB9072B03D0062B01D040F258
:109DE000171040F40060284040F00040F0BD294BBF
:109DF00010B50246203B00202E4CDB680146062AA7
:109E000002D0072A0BD00EE031480278012A05D093
:109E10000620207058070CD504200BE001700720A5
:109E2000207040F601002B4A184011702A4A117028
:109E300010BD012040F40060F5E72DE9F04F00254A
:109E4000DFF850900346A9F12009A846D9F80C4044
:109E500028462E462F46E1072A4613D01F49DFF831
:109E600080C0097801290AD01649097839B99CF8C7
:109E70000010012903D01B490978012902D18CF86F
:109E80000020012649465FEA847C33D5DFF83CC0D8
:109E90002AE00000180310002000002004471000F2
:109EA00038011000CA0110008A011000880110005A
:109EB000A42310007C011000910110005701100034
:109EC00056011000550110005A0110005D011000EC
:109ED000ED0210004F011000500110005801100059
:109EE0005B011000EC0210009CF800C0BCF1010FF7
:109EF00000D101265FEA447C0ED5DFF8F8C39CF858
:109F000000C0BCF1010F06D0DFF8ECC39CF800C024
:109F1000BCF1010F00D10127DFF8E0A3DFF8E0B3C7
:109F2000DFF8E093012E08D0F74E042B366806D0F8
:109F3000032B0ED0022B35D036E08A6140E0CA6197
:109F40008869401C886196F85D61864238DA8A61CA
:109F500031E0EE4F3F78012F0FD0ED4F3F78012FCA
:109F60000BD09AF80070012F07D096F81071FF07F8
:109F70001AD00F79012F02D016E0CA6114E0D1F88F
:109F80001CC00CF1010CC1F81CC096F8126106EB64
:109F9000C60707EB0616BCEB860F05D3CA618BF824
:109FA000002012E0012F04D0032B04D0022B0CD090
:109FB00016E08A61CA61032689F8006017200FE065
:109FC000042689F8006003200AE0022589F8005081
:109FD0000125600703D516204FF0010800E013208B
:109FE00099F800609E4201D08AF80020C30701D092
:109FF00040F40060C74B2040002D1D708BF800809E
:10A0000000D10A70BDE8F08F70B5BE4EC24C002181
:10A01000307821610546042808D0032806D002289C
:10A0200004D0062805D0072803D007E0FFF705FF76
:10A0300001E0FFF7DCFE216908432061E068FFF7DB
:10A0400091FE2169084320613078854209D0802142
:10A050000520F6F713FABDE8704040210520F6F719
:10A060000DBA70BD38B5A84C206890F8DD02C00765
:10A0700001D0FFF711FDFFF7C7FFA84908680028C6
:10A0800009DDA74A127832B9401E086003D10221C7
:10A090000620F6F7F3F9FFF730FEFFF72BFE9E4D93
:10A0A00040F21731286908421BD00020F6F7D7FA92
:10A0B0002869FFF74BFD02216B4600220846F6F7A0
:10A0C0002DFA02210846F6F708FA206890F8DD021A
:10A0D000C00701D0FFF7E0FCFFF744FC0020F6F7D3
:10A0E000D9FA38BD10B501210220F6F7F6F9BDE81E
:10A0F0001040B7E710B54FF480610220F6F7EDF994
:10A1000080480178022901D1032101708249002091
:10A11000087110BD10B54FF400610220F6F7DDF9AB
:10A120007D490120087110BD10B540210220F6F7CD
:10A13000D4F974480178012913D006210170FFF782
:10A14000D0F8754900208861C86172490870802183
:10A150000520F6F793F94021BDE810400520F6F7F9
:10A160008DB910BDF6F721BD6B4900206D4A08611D
:10A17000486110608861C8618860664908706049FC
:10A1800008706949087070472DE9F04100270421E3
:10A190000220F6F7A2F965485F4E0568F06890EA7C
:10A1A000050427D02C404FF6FF7807D030B901279F
:10A1B00041460220F6F791F9FFF7D6FF600701D577
:10A1C000FFF796F84F4CF5602DB1012F12D1E8073B
:10A1D0000BD004200AE0F6F7E8FC0120207041468D
:10A1E000BDE8F0410220F6F778B903202070BDE801
:10A1F000F04137E7BDE8F08170B50446464D0007F1
:10A2000005D508210220F6F768F90020E870E0067D
:10A2100005D510210220F6F760F90120E870E0046E
:10A2200006D54FF480510220F6F757F90220E87066
:10A2300080210520F6F722F9BDE870404021052075
:10A24000F6F71CB910B5F6F7B0FC2E4901200870DE
:10A25000314900208870BDE810404FF6FF710220A0
:10A26000F6F73BB908B541F65D516B460022022076
:10A27000F6F754F90098400804D0022269465520A8
:10A28000F9F743FB0098C00501D5FFF7DBFF009805
:10A2900041F21801084201D0FFF7AEFF00984007D5
:10A2A00001D5FFF771FF0098400601D5FFF73CFF8D
:10A2B0000098000501D5FFF72DFF0098400501D556
:10A2C000FFF718FF0098C00701D0FFF70BFF08BD8C
:10A2D00017480078104910F01F0001F1200129D023
:10A2E00007282DD0421E0A704870421C8A70C87020
:10A2F000704700005A0110005C0110008501100039
:10A30000500110007C01100038011000760110008F
:10A31000770110004F011000F8021000E003100058
:10A320005501100070011000EC021000E403100051
:10A330002000002000200870012048700222D5E78C
:10A3400005200870062048700722CFE73B4810B56B
:10A3500001223B4902700020C860C8700861486152
:10A36000384B8861C8611A70374B394C1870374BBD
:10A370005B882380374C23800A714871FFF7A8FF60
:10A38000BDE81040FEF7A9BF08B502210020F8F78C
:10A3900010FF6B4600224FF400710220F6F7BEF862
:10A3A00002210120F8F705FF022269465620F9F73D
:10A3B000ACFA0098800509D5FFF7C8FF4FF6FF718A
:10A3C0000220F6F78AF81E490120887008BD1C4952
:10A3D000002088708CE71A4C0020A07006E0A0785E
:10A3E00020B10128FBD1FFF73DFFF8E7FFF7CCFFD5
:10A3F000F5E7134900208861C861174908701749BB
:10A40000087075E710B5F6F7D0FB0121BDE81040E4
:10A410000220F6F733B810B5094C6079012809D14C
:10A42000F6F7C3FB0E48006890F8160100B901204A
:10A43000FFF760FC0020607110BD59E77C0110003F
:10A44000F80210007901100086011000A42310000A
:10A45000880110008A0110004F0110005001100007
:10A460003801100010B504460220F6F7F8F820462F
:10A47000F6F7B4FCBDE810400220F6F70BB9F6F78A
:10A48000ADBC1CB500210091019102789DF800102F
:10A4900062F303018DF80010427862F307118DF822
:10A4A00000104289BDF8011062F30B01ADF80110F4
:10A4B0000289BDF8021062F30F11ADF80210817924
:10A4C0008DF80410C1798DF805100179CA099DF83D
:10A4D000061062F3C7118DF80610027962F30601C7
:10A4E0008DF8061081789DF8070061F30600FF499A
:10A4F0008DF807000978012908D020F0800000BFFE
:10A500008DF807006846FFF7ADFF1CBD40F08000E6
:10A51000F6E71CB500200090019002208DF80000A5
:10A52000F3480068C007400E8DF807006846FFF743
:10A5300099FF1CBD1CB500210091019101788DF897
:10A54000001041788DF80110C188C1F307118DF812
:10A5500002108188C1F307118DF80310017901F011
:10A560000F018DF80410827941EA02118DF8041070
:10A5700081788DF80510C07800F00F008DF8060086
:10A58000DB480068C007400E8DF807006846FFF7FB
:10A5900069FF1CBD1CB50021009101910E218DF8B1
:10A5A00000108DF80200D2480068C007400E8DF8F8
:10A5B00007006846FFF756FF1CBD1CB50020009041
:10A5C0000190CC4800684178827810208DF8000016
:10A5D0004006437A8DF80130C74B1B788DF8023066
:10A5E00043891B0A8DF8033040898DF80400C04868
:10A5F0008DF805108DF806200068C007400E8DF814
:10A6000007006846FFF72EFF1CBD1CB50020009018
:10A61000019011208DF80000B5480068C007400E79
:10A620008DF807006846FFF71DFF1CBD2DE9FC41B2
:10A630000646002000900190122015460C468DF829
:10A6400000004FF008571EE0200A8DF80100C4F307
:10A650000B008DF80240315C30448DF803104178D6
:10A660008DF8041081788DF80510C0788DF80600FB
:10A67000D7F8E001C007400E8DF807006846FFF7E5
:10A68000F1FE241D2D1F002DDEDCBDE8FC811CB574
:10A690000022009201920F228DF800208DF8010017
:10A6A000080A8DF805008DF80610402090498DF8B5
:10A6B0000700012008606846F6F790FB1CBD1CB53A
:10A6C000002300930193DB238DF800308DF8010007
:10A6D0008DF80210100E8DF80300100C8DF8040098
:10A6E000100A8DF8050082488DF806200068C00722
:10A6F000400E8DF807006846FFF7B4FE1CBD1CB580
:10A700000022009201920F228DF8002005228DF880
:10A7100001208DF8020076488DF803100068C0070C
:10A72000400E8DF807006846FFF79CFE1CBD2DE922
:10A73000FC4104460025009519208DF800004007D3
:10A740000195417A8DF801106B4909788DF8021056
:10A750004189090A8DF803104089664F8DF804007D
:10A76000634E386841788DF8051080788DF80600C2
:10A770003068C007400E8DF807006846FFF772FE8C
:10A7800000951A2001958DF80000386800F5FC60EE
:10A7900001788DF8011041788DF8021081788DF8DC
:10A7A0000310C0788DF804003068C007400E8DF8A3
:10A7B00007006846FFF756FE00951B2001958DF8AF
:10A7C00000006068000E8DF801006068000C8DF8D4
:10A7D0000200A088000A8DF8030020798DF804009B
:10A7E00020788DF80500207B8DF806003068C007C2
:10A7F000400E8DF807006846FFF734FE00951C20D8
:10A8000001958DF80000A068000E8DF80100A06889
:10A81000000C8DF802002089000A8DF80300207AD0
:10A820008DF80400207C8DF80500207D8DF8060051
:10A830003068C007400E8DF807006846FFF712FE2B
:10A8400023E71CB52B49096891F82911490603D45F
:10A8500000F00F010C2919D100210091019116215E
:10A860008DF800108DF80100010A8DF80210010C1E
:10A87000000E8DF804001E488DF803100068C00714
:10A88000400E8DF807006846FFF7ECFD1CBD1CB5B7
:10A8900000230093019316238DF800308DF80100FA
:10A8A000080A8DF80200100A8DF8040010488DF88F
:10A8B00003108DF805200068C007400E8DF80700D2
:10A8C0006846FFF7CFFD1CBD1CB5002300938DF833
:10A8D0000000080A8DF802000193100A8DF80500A7
:10A8E0008DF803108DF80620014807E06201100082
:10A8F000E001002238011000840110000068C00748
:10A90000400E8DF807006846FFF7ACFD1CBD1CB576
:10A9100000200090019080208DF80000044800681D
:10A92000C007400E8DF807006846FFF79BFD1CBD71
:10A93000E00100228A48006890F82A0100F0070030
:10A94000801C00EB8000C006000EF6F79DB82DE9D4
:10A95000F041844D286820B30520F5F780FE0024DF
:10A960005FF00107286807FA04F6304213D004EBC1
:10A97000440005EB800898F8060005280BD1042157
:10A980007948F8F75FFAC1B208F10600FFF779FDE0
:10A990002868B0432860641C0A2CE3D30520F5F72F
:10A9A00079FE7148001F4068002802D0BDE8F041E0
:10A9B000C0E7BDE8F081F6F774B82DE9F0476A4CBE
:10A9C0000520241F6768F5F74AFEDFF894A1DFF839
:10A9D000949100264FF00108D9F8003008FA06F0EB
:10A9E0004946034240D006EB460201EB8205AA79B4
:10A9F000032A09D0042A07D0052A35D1DAF8002025
:10AA000092F82921D2062FD483430B608A88024210
:10AA100006D00422AA718A888243A9F8042018E08B
:10AA2000AA79032A02D0042A03D015E06168014301
:10AA300011E0DAF8002092F82921D20709D0052286
:10AA4000AA718A8802438A800A680243C9F80020F2
:10AA500002E061688143616004214348F8F7F2F93C
:10AA6000C1B2A81DFFF70DFD761C0A2EB4D3052038
:10AA7000F5F710FEDAF8000090F82901C0060CD5B1
:10AA800060682FB1002808D1BDE8F047F6F709B893
:10AA9000002802D0BDE8F0474CE7BDE8F087324916
:10AAA0000020091F486080212E4808F00CBB2E4C66
:10AAB00008B5241F00252570F5F7F3FF207850B363
:10AAC0000128FBD100226B4607211046F5F726FD31
:10AAD0000098400706D504210020F5F7FEFCF5F7A5
:10AAE000E0FF25700098800705D502210020F5F7CA
:10AAF000F4FCFFF762FF0098C007DFD001210020BF
:10AB0000F5F7EBFC1648006890F82901C006D5D58A
:10AB1000FFF71DFFD2E700210846F8F74AFB0022A5
:10AB20006B4608211046F5F7F9FC00210120F8F7E3
:10AB300040FB00980007C1D5FFF7B1FFF5F7B1FF63
:10AB40000F210020F5F7C9FC01202070B6E710B5F1
:10AB5000F5F7A7FF0121BDE810400020F5F78EBCF6
:10AB60003801100024231000200310009449002015
:10AB70000122087093490A70C87048708870486054
:10AB800008819149086048608860C8600861486130
:10AB90007047F0B58D4B044600201D680246012722
:10ABA00095F8E86107FA02F31E421ED0DFF820C2D2
:10ABB0009CF800C0BCF1010F0FD195F8E6C15FEA27
:10ABC0001C1E0AD031F912E04FEA1C1C9EFBFCFC53
:10ABD00034F912E0F44506DB07E034F912C031F92C
:10ABE00012E0F44501DD0343D8B2521C062AD9DB3A
:10ABF000F0BDF0B5754C734F0123226892F8FC212B
:10AC000002F00F053A78C5F11006012A4FF0000254
:10AC100011D1256803FA02F695F8E851354203D0C0
:10AC200030F8125021F81250521C12B2062AF0DBF2
:10AC300000203870F0BD276803FA02FC97F8E8712D
:10AC400017EA0C0F0AD030F9127031F912C07743AD
:10AC50000CFB057747F30F1721F81270521C12B244
:10AC6000062AE8DBF0BDF0B50023584D012404FAB4
:10AC700003F72E6896F8E8613E4206D032F813607A
:10AC800030F81370F61B21F813605B1C1BB2062B07
:10AC9000EDDBF0BDF0B5DFF82CC1034600229CF8D7
:10ACA00002000CF1040583EA000648480124076805
:10ACB00004FA02F030420BD0184297F8E70102D0B4
:10ACC00004EB101002E000F00F00401CA85411E04B
:10ACD00015F802E0BEF1000F0CD0AEF1010E1EF02F
:10ACE000FF0E05F802E005D1184202D00843C1B2B8
:10ACF00000E08143521C062ADADB8CF80230084659
:10AD0000F0BDF1B59DF80000002823D00121684670
:10AD1000F8F798F8C0B201281DD02A4A50780028C8
:10AD200018D12A4C0021284D24680123084694F8A4
:10AD3000E8610C3503FA00F4264205D035F91040DD
:10AD40008C4201DD2146D070401C0628F2DBD07811
:10AD50008340D8B2F8BD9DF80000F8BD70B51A491F
:10AD6000FFF747FF0320F5F77AFC1749194A0C3122
:10AD70001548FFF778FF0320F5F78CFC134C1248B9
:10AD800021680C3001F5F871FFF703FF0C4D48B155
:10AD900001212970216891F8E611890704D5FFF790
:10ADA000B0FF01E000212970064C6178FFF772FFC7
:10ADB0006178884202D06070FFF7ECFB287870BDA4
:10ADC0005D01100024031000F097012038011000ED
:10ADD00059011000D62901202DE9F0475548564C5D
:10ADE00001684D7D087D6D1C91F82320454310239B
:10ADF0004FEA1219A3EB121831E0504AB1F926605C
:10AE000032F9103034F9102016449E4226DBB1F995
:10AE10002860961B9E4221DC02FB09F603FB0863B7
:10AE20004FEAE37603EB167343F30F1A91F8D03031
:10AE30005B0711D5AAEB020216B2DFF804C10022AB
:10AE4000C2EB02130CEBC313521C33F81070042A2C
:10AE5000374423F81070F3DB24F810A0401CA842FC
:10AE6000CBDB91F8200000070CD53348F8F74FFAF8
:10AE700034490023344A0860BDE8F04701462E48B3
:10AE8000F8F77CBABDE8F087F0B52A48016891F878
:10AE9000E80100282BD091F824002C4A00F00F0480
:10AEA0000020C4F11007012691F8E83106FA00F5F8
:10AEB0002B4219D0264B32F91050B1F944C333F963
:10AEC0001030AC449C450FDBB1F946C3A5EB0C0C2C
:10AED0009C4509DC654303FB0753DD1703EB157342
:10AEE00043F30F1322F81030401C0628DCDBF0BDC2
:10AEF00070B5104C0546206890F84904C00703D08F
:10AF0000FBF74EFD012814D0206890F82000C00700
:10AF10000FD0002D0DD10320F5F7A1FBFFF75CFF4B
:10AF2000FFF7B2FF03F03AF8BDE870400320F5F7F1
:10AF3000B1BB70BD38011000560001200C0A100092
:10AF4000D60701206C01100004231000D62901202F
:10AF50003A2E0120FE4900200870704700E010469C
:10AF60000A5C8242FBD1704770B500250E4603464D
:10AF70002C4606E019462046FFF7F0FF1855641CE2
:10AF8000E4B2B442F6D300220AE0985C904203D1C6
:10AF90009D546D1CEDB201E0185C9854521CD2B265
:10AFA000B242F2D3284670BD38B1884202D20B4675
:10AFB00001461846884200D01154084670472DE9D2
:10AFC000FF4F99B001200490E24819689A46006842
:10AFD000067D477D41B19AF802109AF800905046DC
:10AFE000B14205D2491C04E04FF000094D4608E08B
:10AFF000314645789AF80300CEB2B84200D2471CD9
:10B00000FFB2002007A90854401C2D28FAD3199933
:10B0100005EB051001EB400C681C67E01998E3464E
:10B0200008EB081100EB410C09F101045AE000BFE4
:10B030000CEB04001590006810B31CF8040000B37A
:10B040001598002310F8010C00B103461BF80410FA
:10B0500021B107AA1846FFF7A7FF03461A98002850
:10B060000BEB04000ED0159010F8011C21B107AABB
:10B070001846FFF799FF034615984178D9B91FE0A4
:10B08000E41C2EE0189010F8011C59B115981BF81B
:10B09000042010F8010C104304D007AA1846FFF74B
:10B0A00083FF03461898417851B115981BF8042086
:10B0B0004078104304D007AA1846FFF775FF0346EF
:10B0C00013B10CF804300CE004982D2806D20CF8CB
:10B0D00004000498401CC0B2049002E0401E0CF82A
:10B0E0000400641CB442A3D908F101008046B842B0
:10B0F00094D907A80499FFF737FF804641001B98B1
:10B1000007F0BFFF00204FF6FF7202E04AF8202050
:10B11000401C4045FAD33BE0199905EB051001EBC3
:10B12000400022304C4605902FE00598011901207F
:10B130004058A8B3487838B307AA105C48701B99E8
:10B140001B9A0AEB800B31F81010491C22F81010E2
:10B150009BF800102046F7F788FE8BF800009BF85C
:10B1600001102846F7F781FE8BF801009BF80210CA
:10B170002046F7F77EFE8BF802009BF80310284666
:10B18000F7F777FE8BF80300641CB442CDD36D1C37
:10B19000BD42C1D3A8F101001DB0C0B2BDE8F08F1F
:10B1A000FFE7E41CF0E72DE9F043994655784FF0AE
:10B1B000010C1BE005EB051300EB430622360023D0
:10B1C000147897780CE000BF06EB040898F901802A
:10B1D000884503D10CFA04F848EA0303641CE4B27E
:10B1E000A742F1D249F825306D1CEDB2D378AB42BD
:10B1F000E0D2BDE8F083F0B5554B0026554D1C78E4
:10B20000A0B0012C11D11E700B78002B5AD04B78B6
:10B21000002B57D02B688F781C7D641EA74251D01D
:10B220005B7DCC785B1E9C424CD000234FEA0D0422
:10B2300044F823605B1C202BFAD34B7891F803C0B1
:10B240001BE000BF50F82370B7B17E0846EA4706FE
:10B250003E4354F82370374344F8237004EB8307CC
:10B26000D7F804E04EEA060EC7F804E0D7F808E085
:10B270004EEA060EC7F808E05B1C9C45E2D20023AC
:10B2800004EB8306766840F823605B1C1E2BF7D323
:10B29000012A17D1087808B1401E0870487808B113
:10B2A000401E48702A688878127D521E904201DA4A
:10B2B000401C88702A68C878527D521E904201DA7C
:10B2C000401CC87020B0F0BD2DE9F74F4D78DFF875
:10B2D0008890DFF880B04FF0030E79E000986C1C86
:10B2E000936A50F82560DBF80000007D6043D9F8D0
:10B2F000004003EB400304EB40070C78641C012082
:10B3000014E000BF00FA04FC1CEA060F0DD003EBAA
:10B31000440A33F914803AF902CCE044BAF902C085
:10B32000E04498FBFEFC27F814C0641C91F802C0AE
:10B33000A445E7DC91F800A0BAF1000F2DD000FA87
:10B340000AF4344214D003EB4A0434F9028C05E0C9
:10B3500030031000380110006801100033F91AC0E2
:10B36000B4F90240C444A4449CFBFEF427F81A40FC
:10B37000DBF800C08C789CF814C0A44500FA04F0F7
:10B3800000EA060014D110B303EB440033F9143083
:10B3900030F9020C1844401017E016F0010FE7D006
:10B3A000B3F90040B3F902C0644464103C80DFE7A5
:10B3B00068B103EB440033F9143030F9026CB0F992
:10B3C00002003344034493FBFEF027F814006D1C85
:10B3D000C878A84282DAD9F800009062BDE8FE8FF2
:10B3E000F0B50025059E2C468F1E00EB410006D4CB
:10B3F00030F9045CCF1E02D430F9067C3D448F1C2A
:10B40000974207DAB0F90440C91C914202DAB0F958
:10B4100006000444281B00D540424FF435714843D0
:10B42000C11700EB91508012A54203DD316808443A
:10B430003060F0BD196808441860F0BD2DE9FF4F79
:10B44000DFF808B407460E46DBF80000002585B09B
:10B4500090F8A0002C46C106FD484FF4803900EB5F
:10B46000460A29D5002105E037F8112000EB4103F9
:10B47000491C5A80B142F7D34188018030F8162028
:10B48000AAF8022000210DE04A1C00EB420330F82C
:10B49000122033F802CC5B88634403EB420227F8A6
:10B4A0001120491CB142EFD307A800230090324677
:10B4B00019463846F8F7D7F907994FF000080029E0
:10B4C0001CDCDBF8000090F8A000C00604D5E048C2
:10B4D000B0F90000019001E0CDF80480701E37F94A
:10B4E00011C00390814224DBDBF8000090F8A0003B
:10B4F000C00608D5BAF90200029006E007EB410049
:10B5000030F9020CE6E7CDF80880DBF8000090F88F
:10B51000A000000706D502A8009001AB721E3846B5
:10B52000FFF75EFFDDE90110814207DD05460C46AD
:10B5300007E007EB4100B0F90200DDE701DA0D4654
:10B540000446A0EB0102A2FB09064FEAE27303FBEB
:10B55000096102FB08110CEB0402C5F1000302EBC8
:10B5600043024FEAE27307F01BFD079CA4FB093678
:10B57000E51705FB096204FB08221B184A410899DC
:10B58000A3FB0105CC1702FB015103FB04114A4642
:10B59000002307F005FD039AD31707F001FD00B261
:10B5A00009B0FBE52DE9FF4F044681B00020DFF82C
:10B5B0009C920F9D064607460090D9F8000090F82F
:10B5C000A000000719D5207808B1401E20706078CF
:10B5D00008B1401E6070D9F80020A078127D521E7C
:10B5E000904201DA401CA070D9F80010E078497D43
:10B5F000491E884201DA401CE070954844214438D5
:10B6000007F03FFD002293469246607830E02178B3
:10B610002AE000BFD9F80030D5F8288093F814C08C
:10B62000431CE64603FB0C1C08EB4C0CDDF80080C9
:10B63000BCF900C0C44502DD761CB6B2674494452F
:10B6400002DD62468B46824695F818C0BCF1010FB8
:10B6500009D10EFB03FC7F4B0B441CF8038048F020
:10B6600080080CF80380491CA3788B42D2DA401C76
:10B67000E1788142CBDA6078D9F800100FE000BFA2
:10B6800091F814C000F1010808FB0CB2AB6A03EB9F
:10B69000420213886E4A443A22F81030401CE27885
:10B6A0008242EDDA6A48497D52464438039BFFF7EF
:10B6B000C5FE0E99086066484421443807F0E1FC55
:10B6C000DFF88C812078A8F144080AF10101D9F84B
:10B6D00000200AE092F814C0AB6A01FB0C0C03EBEB
:10B6E0004C031B8828F81030401CA3788342F1DA01
:10B6F0005748117D5A464438029BFFF79FFE049934
:10B700000860EF602E8105B048E5F0B54F4C059F0D
:10B710002668D6F8105296F81842BD4202D304F0BB
:10B720000F040FE0D6F81462BE4201D8240909E0E4
:10B7300004F00F0CCCEB14147F1B7C43751BB4FB83
:10B74000F5F464441668C4F11005604306FB050077
:10B75000000910601868614300FB051000091860BB
:10B76000F0BD2DE9FF4F3948964684B00D7891F829
:10B770000190CA780068002489780290007D2346F1
:10B78000A0465FEA050B29D1CC4625E00CF1010665
:10B790000196DEF828604FF0000A0125009609E0C6
:10B7A000DDE9006707FB005706EB47066D1CB6F99D
:10B7B0000070BA44A942F3DADDE90065454306EBBF
:10B7C0004505B5F900506D4395FBFAF505FB0C33C3
:10B7D000641BA8440CF1010C6245D7DA451EA9424E
:10B7E0002FD1CC462BE000BF0CF1010601964E1E76
:10B7F0000396DEF828604FF0000A5D46009609E0E7
:10B80000DDE9006707FB005706EB47066D1CB6F93C
:10B810000070BA44039EAE42F2DA019D05FB0016A9
:10B82000009D05EB4605B5F900506D4395FBFAF513
:10B8300005FB0C3305FB0044A8440CF1010C6245E8
:10B84000D2DAB9F1000F2BD15D4627E038011000A4
:10B850006047100008980120DEF828704FF0000AB9
:10B86000012600970AE0771C07FB0057DDF800C0AF
:10B87000761C0CEB4707B7F900C0E244B242F2DA9B
:10B88000009E471906EB4706B6F90060764396FB23
:10B89000FAF606FB05449B1BB0446D1CA942DBDA9B
:10B8A000029D6D7D01956D1EAA422BD15D4627E05C
:10B8B000DEF828704FF0000A4E46A2F1010B009707
:10B8C0000AE0771C07FB0057DDF800C0761C0CEB84
:10B8D0004707B7F900C0E244B345F2DA561C06FB4D
:10B8E0000057009E06EB4706019FB6F900607643BD
:10B8F00096FBFAF606FB054406FB0733B0446D1CC5
:10B90000A942D5DA07980460079843600798C0F801
:10B91000088008B042E42DE9F04F89B04FF00009EB
:10B92000DFF878B48646CDF81090CDF81490CDF8B5
:10B930001890DBF8000014460F46B0F86820217E0E
:10B940004D464E46C84609B9B0F8C82178783BE064
:10B950005EF820A03878039030E00120884010EA9B
:10B960000A0F29D0DBF80000D4F828C0029B007D24
:10B9700001935B1C009303FB00130CEB4303B3F92F
:10B980000030934208DDDDF804C001FB03660CFBC8
:10B9900003881D4409F10109237E012B79D0002B76
:10B9A000009B00FB03F0FE4B0B4410F803C079D062
:10B9B0004CF0200C00F803C0491C0391B87803999F
:10B9C0008842CADA0298401C0290F9788142BFDAB4
:10B9D000DBF8000090F8600000060BD504AB2246AF
:10B9E00039467046FFF7BDFE04980599064406984F
:10B9F00088440544E948F3170168087DCA8A401E57
:10BA000000FB05FAA2FB060C002101FB06C102FBAC
:10BA100003114FEAEA7B52465B4607F0C1FA0390F6
:10BA2000DE4841464FEAE87C00680026427D038BF1
:10BA3000521EA3FB010806FB01816A4303FB0C11A4
:10BA40004FEAE27A534607F0ABFA029003980028D7
:10BA500000DA0020D14E03903168C98A814200DAB1
:10BA6000084603900298002800DA0020029031680E
:10BA7000098B814200DA08460290E560A4F808903C
:10BA8000207E022811D0012816D000B356E000E035
:10BA900008E0009B5843C24B0B4410F803C04CF025
:10BAA000800C87E74CF0400C84E7306890F8800009
:10BAB000C00643D5002210E0306890F88010C90617
:10BAC00012D590F8A0004007F4D4012205E03068B8
:10BAD00090F88000800631D5022202A903A801F067
:10BAE000E1FA207E012829D1306890F8A01049079A
:10BAF00024D508A9CDE90014B0F91820B0F9161022
:10BB000007AB3846FFF74EFD306890F88000C0065E
:10BB100004D5012208A907A801F0C4FAE068009042
:10BB2000DDE9021008AB07AAFFF7EFFD08A907A897
:10BB3000F7F7F7FD0798E0800898A08002A903A80E
:10BB4000F7F7EFFD039801B26180029800B2208000
:10BB5000326892F8A020520701D4E180A080002032
:10BB600084F830001CE52DE9F04F91468B4A86465B
:10BB7000002348784FF0010BCE78D2F800A019E0EE
:10BB80005EF820700A78441C8D7810E00BFA02FCF5
:10BB90001CEA070F0AD09AF81480D9F828C004FBD1
:10BBA00008280CEB480CBCF900C06344521C9542B9
:10BBB000ECDA401C8642E3DAC9F81030BDE8F08FB9
:10BBC00070B50646107E14460D46022808D173490A
:10BBD0006089096891F86610884201D903202076AF
:10BBE0000422294604F11400F7F7C1FC2246294635
:10BBF0003046FFF7B8FF012229463046FFF7FBFA2F
:10BC0000224629463046FFF786FE2046BDE87040B2
:10BC100004F08EB930B5A1B01C4615466B46FFF74F
:10BC2000C2FA224629466846FFF7CAFF21B030BD56
:10BC30002DE9FF4F86468B4600204FF6FF7553785F
:10BC4000D67828E003EB03140EEB440101F122093E
:10BC5000524914789778D1F800A018E009EB040154
:10BC600091F801C0DC4510D10E999AF81480D1F8F2
:10BC70002CC0591C01FB08410CEB4101098888428A
:10BC800000D208468D4200D90D46641C24B2A7425A
:10BC9000E4DA5B1C1BB29E42D4DA039908800D994A
:10BCA0000D8004B08AE72DE9F04F9B468246537819
:10BCB000DDF824E02CE000BF3A4D03EB03100AEB63
:10BCC0004004AD68223405EB400522351078334F2F
:10BCD0004FF0010917E0261876788E4211D13E68A0
:10BCE000DEF82CC096F814805E1C06FB08060CEBF0
:10BCF0004606B6F900605E4503DD05EB000C8CF8E6
:10BD00000190401C00B296788642E4DA5B1C1BB2BC
:10BD1000D0789842D0DA51E72DE9F0471F4F81469D
:10BD2000C8B038681D46884690F8706047A8CDE9CD
:10BD30000005144646AB4846FFF77AFF287E30B927
:10BD4000194800780128386834D090F8CE61BDF8E1
:10BD50001811BDF81C016422091A7143B1FBF2F1FC
:10BD6000104F0E184FF48861B86807F08AF9B3B223
:10BD70002246414648460095FFF795FF206802900D
:10BD800002AB2FAA0121B868FFF719F9064601286E
:10BD90002BD901240DF1BC0A08E000003801100085
:10BDA0000898012030031000910110000DF10809DE
:10BDB000B84615E090F8EC66C9E700BF3AF8140001
:10BDC000688109EB84072946384601F031FA2B4691
:10BDD0003A462146D8F80800FFF71CFF641CE4B27D
:10BDE000B442EBD948B0BDE8F0872B462246414625
:10BDF0004846FFF70FFFF5E72DE9FC4FDDE90B891A
:10BE000014789678FE4DDFF8FCB32D78DBF80070DF
:10BE1000012D1AD097F87150DFF8ECC3AA4603EB56
:10BE2000031500EB4500DCF808C022300CEB45059B
:10BE30002235D8F82CC03F7D5B1CD8465F430CEB05
:10BE400047034FF0010B1CB10CE097F8C950E3E732
:10BE500044788C4205D1B3F900704F4501DD85F877
:10BE600001B00124D8F800C097789CF814C0ACF158
:10BE7000010C674562D1461CBE5D8E4207D133F985
:10BE800017C0CC4503DD05F1010C07F80CB0927822
:10BE9000521ED6B252E0021952788A424CD133F97E
:10BEA00014204A4548DD02EB0A0E002703EB44024A
:10BEB000CDE9002732F9022C964505DADDF800C0FD
:10BEC000BCF902C0E64537DB012C10D0D8F8007071
:10BED0003F7DBF1EA74217D1009F37F9047CBE45A6
:10BEE00027DA009FB7F90270BE4525DB21E0B3F9E0
:10BEF000027007EB0A02B3F90070BA4219DAB3F91B
:10BF00000670BA4218DB14E0964506DA009FB7F9CE
:10BF10000470BE4501DA01220192009F37F9047CCA
:10BF2000BE4504DA009FB7F90270BE4504DB019AF2
:10BF300012B92F1987F801B0641CE4B2B442AAD92F
:10BF4000BDE8FC8F2DE9FF4F9AB092F80180D778B9
:10BF50000020ADF84800ADF84C001590A848A94D58
:10BF60001E4601782868144601291FD010F171007F
:10BF700012AB90F8009090F801A013A8CDE900064C
:10BF8000DDE91A01FFF754FE2868A04990F8760011
:10BF900070B1BDF84820BDF84C300988D21A424330
:10BFA0006420B2FBF0F0084405B203E0C930DFE7DB
:10BFB000B1F90050607848B9CDE90065DDE91A01B2
:10BFC0004FF0010800232246FFF716FF8D49E07865
:10BFD0000968497D491E884209D1CDE90065401EA6
:10BFE000C7B2CBB2DDE91A012246FFF705FF414691
:10BFF000ECE000BF844B1A9A01EB011002EB400207
:10C000009B68223203EB4000223007907D48F36AA0
:10C01000A1F1010C0068007D00FB0CFC03EB4C0C53
:10C02000CDF830C000FB01FC03EB4C0CCDF814C084
:10C0300001F1010CCDF85CC000FB0CFC03EB4C0BD8
:10C0400001F1020C00FB0CFC03EB4C0E01F1030CA4
:10C0500000FB0CF003EB400006902078B0E01318D2
:10C0600093F801C01B9B9C457ED13BF91030039394
:10C07000AB4279DD00230D93039BDDF814C04B44E4
:10C0800001933CF910C0CDF850C0634506DA9C46D8
:10C090003EF910309C4501DA01230D93F0B3594B62
:10C0A0001B6819931B7D18935B1E834272D00BEBA8
:10C0B0004008DDF804C038F9023C0B939C4506DAD1
:10C0C0006346B8F902C0634501DA01230D93DDF838
:10C0D00014C0039B0CEB400CCDF838C03CF902CCEB
:10C0E0005344634509DA0EEB400CBCF902C06345CA
:10C0F00003DA4FF0010CCDF834C0DDF838C0BCF9DC
:10C1000002C0634505DA0EEB400C3CF902CC6345F6
:10C1100054DB0D9B43BB199B5B7D00E03AE09B1E0B
:10C120008B420CD0DDF850C0019B634507DADDF887
:10C1300018C03CF910C0634501DA01230D930129B1
:10C140000CD0DDF830C0019B3CF910C0634505DA26
:10C150003EF910C0634501DA01230D9301281CD07C
:10C16000189B9B1E834200E016E00AD0DDF82CC02D
:10C17000019B634505DAB8F904C0634501DA012380
:10C180000D9338F904CC019B634503DAB8F902C07A
:10C19000634513DB0D9B5BB110E0BBF902C00CEBF8
:10C1A0000903BBF900C06345F4DABBF906C0EFE749
:10C1B000079B4FF0010C034483F801C0401CC0B240
:10C1C000A3788342BFF44BAF1798C1B2B9427FF650
:10C1D00011AF15981EB0F1E42DE9FF4F0A4DC5B01F
:10C1E00000274FF48861A86806F04BFF45AC0FCCE0
:10C1F000FFF7A8FE479909680091E8BB6B4607E086
:10C2000060011000380110003003100076031000A8
:10C210002DAA0021A868FEF7D2FE0646012832D9D1
:10C2200003F0F4FE0124DFF85C840DF1B409EA4662
:10C23000A34619E0D8F8001039F8140091F87510E9
:10C24000884210D985F800B04899012748810AEB47
:10C2500084004490489900F0EBFFE1B2489B449A77
:10C26000A868FFF7D7FC641CB442E3DDD8F80000EF
:10C2700090F84004800700E005E002D4002003F0BD
:10C28000CAFE002F03D145AC0FCCFFF7C3FC49B069
:10C2900094E42DE9F04F8A46FA49002599468646EE
:10C2A000D1F8006028462B4609EB0301491E1FD434
:10C2B000747D8C421CDD377D01F1010107FB01F12A
:10C2C0000EEB410803EB430C4FF000010AEB4C0B63
:10C2D00002EB0104641E08D4A74206DD3BF911C03D
:10C2E00038F91440604404FB0C55491C0329EFDB6A
:10C2F0005B1C032BD8DB00B9012095FBF0F05DE45B
:10C300002DE9FF4F82B00C464178DDF83CB001B119
:10C31000491EDC4A01F0FF09C1781668737D5D1E75
:10C32000A94201DA491C00E02946CDB2017801B1E9
:10C33000491E01F0FF0A8178307D431E994201DADF
:10C34000481C00E0401EC6B2B4F9120009F1010118
:10C35000019064E0CB4B4A1C1868007D00FB02F79B
:10C36000484305990BEB470E01EB400000900AF1A2
:10C37000010051E0C34909680B7D059902FB0307E1
:10C3800001EB4701049FB1F90210B94240DD009969
:10C39000B4F9008001EB40010027B1F900C00CFBAB
:10C3A0000877B1F902C0B4F902800CFB0877B1F943
:10C3B00004C0B4F9048001EB43010CFB0877B1F928
:10C3C00000C0B4F9068001EB43030CFB0877B1F918
:10C3D00002C0B4F908800CFB0877B1F904C0B4F9C5
:10C3E0000A80B3F900100CFB0877B4F90CC001FB0C
:10C3F0000C71B3F90270B4F90EC0B3F9043007FB45
:10C400000C11B4F9107003FB0711019B91FBF3F1C0
:10C410002EF81010401C00B2B042ABDB11B2A942A2
:10C4200098DB4F4617E0017D781C41430BEB410838
:10C4300000903B46524621460598FFF72AFF28F810
:10C440001A003B46324621460598FFF722FF28F89E
:10C450001600009807B28B48AF420068E3DD007D0C
:10C46000691C41430BEB4101009109F10101484373
:10C470000BEB4008574612E04B463A4621460598DA
:10C48000FFF707FF28F817002B463A462146059884
:10C49000FFF7FFFE009921F817007F1C3FB2B7425B
:10C4A000EADD06B037E4F8B577491046069A097810
:10C4B0001D46022914D2754C72492E7E23680968E4
:10C4C0007EB191F84060B6060AD5012A08D10093E2
:10C4D000B1F958206E4B6F49FFF712FF2068E862F0
:10C4E000F8BD91F8C061F706FAD5B60609D50093F4
:10C4F000B1F9C421664B6849FFF702FF2068A862C2
:10C50000F8BD012AFCD10093B1F9C421E2E7F0B4EF
:10C510005D4C26785B4C256816B1B5F8024101E008
:10C52000B5F800411E7E64431EB195F86050EE07D9
:10C5300002D0F0BCFFF7F0BBAD0705D5574D2D6815
:10C54000A54201DAF0BC47E6F0BCFFF763BB2DE97A
:10C55000F04781464B488A4600230168184601256A
:10C560000E7D4F7D1EE000BF00EB001409EB44047C
:10C570002234194612E000BF52F8208005FA01FC6F
:10C5800018EA0C0F08D004EB010898F801C0BCF1C0
:10C59000000F01D188F801A0491CC9B2B142EBD308
:10C5A000401CC0B2B842DFD31DE4374A10B5127840
:10C5B00001243AB9334A126892F86020120718D55C
:10C5C000012916D181780278891A01D5C1F10001BB
:10C5D00001F10101CAB2C1784078081A00D5404281
:10C5E000401CC1B21046F6F740FCC0B2012800D191
:10C5F0000024204610BD2DE9F04F8A46214983468C
:10C600009E464FF001095078D6780C6825E000BFAF
:10C6100000EB00130BEB430322331178957818E0FD
:10C620005F1897F801C0D44511D194F81480471CC5
:10C6300007FB0817DEF828C00CEB4707B4F8D2C197
:10C64000B7F90070BC4502DA4FF0000903E0491C5D
:10C6500009B28D42E4DA401C00B28642D8DA48467C
:10C660004DE62DE9F0439946064B01261C6894F8E7
:10C6700008319D0756D51578B5EB531F10D8002506
:10C6800010E00000380110005E0110006801100089
:10C6900048A70120C2340100AE3401007C03100021
:10C6A000A5EB5315EFB2257D92F802C0A5EB531808
:10C6B00008F10108E04501DA6D1E01E00CEB5315AD
:10C6C00005F0FF0C5578B5EB531F01D8002501E0AC
:10C6D000A5EB5315647DD278A4EB531808F101083B
:10C6E000EDB2904501DA641E01E002EB531404F050
:10C6F000FF0810E005EB051200EB420322333C4635
:10C7000006E01A19527812B18A4200D00026641C41
:10C710006445F6DD6D1C4545ECDD002E02D102219D
:10C7200089F81810BDE8F08330B5FB4CF84A24684E
:10C73000B2F90030F74A34F9A85FB2F90020B4F931
:10C74000024029B9F549B1F90030F549B1F90020A5
:10C75000A04201DD104630BDA84201DA184630BDC6
:10C76000201AD11A4843611B90FBF1F0101A00B255
:10C7700030BD2DE9FF4F1D4683B0E74B14784FF0D5
:10C78000000E01941B687146704634B95478B4B1F8
:10C790005C7DD678641EA64211D01C7D9778661EFB
:10C7A000B74204D192F801C0BCF1000F07D0B742E4
:10C7B0000BD15E7D92F803C0761EB44505D1B3F867
:10C7C000AA00801CA5F82300E7E0567892F803A0A1
:10C7D000D5F8289029E000BF06F1010C04FB0CFC01
:10C7E00009EB4C020292039A06EB061C02EB4C0288
:10C7F00002F1220B0FFA86FC019ACDF800C011E07D
:10C800000BEB020C9CF80180DDF810C0E04508D16C
:10C81000DDF808C03CF912C0F44502DD0098E64698
:10C8200011B2521C9742EBDA761CB245D4DA00F111
:10C83000010604FB06F709EB470C4FF0FF3E3CF9FD
:10C8400011A072467746B1F1010803D40CEB410701
:10C8500037F9027C01F10108C146444503DD0CEBC8
:10C860004102B2F902207C1C00D11746541C00D1B1
:10C870003A4602EB070CCCEB4A04DFF8A8C224B21C
:10C88000B0F10108ACF80070ACF802A0ACF80420DC
:10C89000ACF806401A7DAF6A934606FB021207EB1E
:10C8A0004202F446B2F900A0724605D400FB0B1C0C
:10C8B00007EB4C0CBCF900C093F81580B04507DDC0
:10C8C00000F1020202FB0B1207EB4202B2F9002058
:10C8D0001CF1010700D19446571C00D1624602EBBF
:10C8E0000C08C8EB4A07DFF83C823FB2A8F808C042
:10C8F000A8F80AA0A8F80C20A8F80E7093F8A020B9
:10C9000052060FD581B11A7D521E8A420CD018B141
:10C910005A7D521E824201D1274605E0BC42FBDD12
:10C920003C46F9E73A1917B20024C246A8F810703D
:10C93000401E1CE0002819DB5A7D824216DD1A7D5C
:10C9400000F101089346D5F828C002FB08F20CEB71
:10C9500042084A1E08E0002A05DB934503DD38F84B
:10C9600012C0644424B2521C4A45F4DD401CB0425B
:10C97000E0DDFA20474397FBF4F004B2AAF8124036
:10C980005646A5F8234001212046FFF7CDFE664913
:10C99000B0820C80298C814202DD012007B0AEE418
:10C9A0000020FBE72DE9F04F8246DDE909B70020C2
:10C9B0009E463880894653782DE000BF564903EBE8
:10C9C00003140AEB440609682236DBF82840097D87
:10C9D0005D1C694304EB4104117817E006EB010C80
:10C9E0009CF80180C8450FD1B7F800C034F8118019
:10C9F000C444A7F800C034F911C0844504DDAEF882
:10CA000002106046AEF80030491CC9B292F802C06C
:10CA10008C45E3D2EBB2D1789942CFD26FE42DE9C5
:10CA2000FF4F83B01878109C92461E46A0709878ED
:10CA300020705878E070D87860704FF000085F7808
:10CA40004DE000BF039907EB071001EB400101F136
:10CA50002209049901EB400000F1220B1298826A2E
:10CA60002D480068017D781C4143019002EB410094
:10CA7000009035782EE000BF09EB05004178514564
:10CA800026D1009830F91510119881421CDD08F16B
:10CA900001001FFA80F821782846F6F7E6F92070A1
:10CAA00061783846F6F7E1F96070A1782846F6F724
:10CAB000E0F9A070E1783846F6F7DBF9E0700BEBAF
:10CAC000050080F801A003E00BEB05000021417098
:10CAD0006D1C2DB2B078A842CEDA019807B2F0787A
:10CAE000B842AFDA0FFA88F058E70B4902780968C4
:10CAF00022B10A7D8378521E934217D1427822B127
:10CB0000C278487D401E824210D10120704700004B
:10CB10007603100078031000380110007003100035
:10CB20007203100048A70120AE2310000020EDE79B
:10CB300030B5A1B000230C4605468DF88030FE4884
:10CB40000268107D401E8DF882008DF88130507D86
:10CB50006B46401E8DF8830020AA2846FEF723FB73
:10CB6000002220A96846FEF746FB6A462146284671
:10CB7000FFF7EDFC21B030BD2DE9F14FE4B0002608
:10CB8000EE48EF4CADF8686100686060EA4D00F572
:10CB90008860A0602968B346B146B1F90E125B9176
:10CBA000B2464FF4886106F06CFA286890F860107D
:10CBB000CA0701D1890701D54FF0010BE149097876
:10CBC000012913D090F8C001C0F3C0005F9000208D
:10CBD000299029AB10AA01216068FEF7F0F9DA4923
:10CBE000064608732B6801201A7D1AE090F8E006CB
:10CBF000C0F34000EAE7012100EB0014DFF84CE34A
:10CC0000CF4F09E0D7F8048001EB440C18F80C80F2
:10CC10000EF80280521C491C93F814C08C45F1DABE
:10CC2000401C597D8142E6DA012421E1C8480D907B
:10CC30000E90E1B210A88DF82E1030F81400ADF867
:10CC400016005AAA03A8CDE9000229A8DFF8F0824D
:10CC500000EB8402279260ABD8F80400FFF7A2FE35
:10CC60000746ADF82C000020ADF82F0088F8000032
:10CC7000BDF9820158B1BDF9801141B12A68137D17
:10CC80005B1E984203D0507D401E814201D101209D
:10CC900000E000205D90AF480078800758D5A94893
:10CCA0000078E8BB2868AC4A90F8A7101288914237
:10CCB000AA49097801D211B14AE0022948D2BDF946
:10CCC00068215B998A4243DA01218DF8241090F89B
:10CCD000A4105791A1490978012905D190F8BC20E9
:10CCE0005799114489B257915D99012937D090F82D
:10CCF000A5009B49589003A8B1F9002059A90091BB
:10CD0000CDE90120279BD8E90101E2B2FFF787FEB8
:10CD10008E4980B2ADF8160008555799884200E058
:10CD200016E015D95899884212D88D48B0F90000FC
:10CD300087420DDD286890F8A000800712D5E1B287
:10CD400003AB59AAD8F80800FFF713FD012809D052
:10CD50005D992798FFF729FC01281AD087E090F801
:10CD6000A600C6E70220ADF82600ADF82800002096
:10CD70008DF825004FF00109E1B203AB4746279A31
:10CD8000D8F80400FFF76DFCE1B203AB59AAB8680C
:10CD90006BE07448B0F90000874279DD10A931F8E2
:10CDA000141056917049B1F90010814213DA59AA52
:10CDB000CDE9002003A90291D8F80410E2B2279B24
:10CDC0000846FFF72CFE10A921F814002799599A5C
:10CDD0000A60ADF81600286890F865705F48007822
:10CDE00048B12798FFF781FE0128286836D090F8CF
:10CDF000BD00384487B210A830F81400B84236D9C4
:10CE000003A800904FF00109CA46E3B24746279AAB
:10CE10000D98D8F8041000F027FA10A830F8141074
:10CE2000286890F8672091422ED20221464B8DF857
:10CE30002410BDF82A109982B0F86E005A4681423B
:10CE400000D20022569803280BD352B10092E1B2CF
:10CE500003AB279A7868FFF726FBD6E090F8C3006B
:10CE6000C7E7E1B203AB279A7868FEF7D3FE641CEC
:10CE7000B4427FF6DBAE3D4981F800903C4981F831
:10CE800000A065B0CAE503E004208DF82400E8E7BF
:10CE9000286890F8C011C907E9D036490968002907
:10CEA000E5D0354909780029E1D18DF8241090F8B2
:10CEB000C001400705D5E1B229AAD8F80400FFF760
:10CEC00037FE47F6FF7058901E48007801280ED0B4
:10CED0005D980128294800780DD00128286813D0D2
:10CEE00090F8CB711D480078012810D014E0286814
:10CEF00090F8E176F6E70128286802D090F8CD7125
:10CF0000F0E790F8CC71EDE790F8CA71EAE728688D
:10CF100090F8D901384487B21348B0F90010184886
:10CF2000B0F9000081423ADA59AACDE9002003A9FC
:10CF30000291E2B2279B25E0380110006401100045
:10CF40003003100091011000AE231000089801205A
:10CF500048A701208E0110003E0310005E01100062
:10CF600078031000760310006E03100057011000C4
:10CF7000580110009C0100225101100059011000BD
:10CF80007A031000D8F804100846FFF748FD10A9EE
:10CF900021F814002799599A0A60ADF8160010A8D4
:10CFA00030F81400B8427FF6D9AE589988423FF65F
:10CFB000D5AE64990220E3B2087003A800904746FA
:10CFC000279A0D98D8F8041000F04EF95F98009059
:10CFD000E1B203AB279A7868FFF765FA286890F802
:10CFE000C00180070DD50F480078012809D1E1B2B2
:10CFF00003AB279A7868FFF7FEFA012801D10A49A6
:10D0000008705F9800283FF442AFE1B203AB279A63
:10D010007868FFF77CFA2AE7044800210173018051
:10D0200074E50000590110006C031000AE231000DD
:10D03000F0B5B2F900400568AC4202DDB3F900106A
:10D040002EE002EB410434F9026CAE4204DA03EB49
:10D05000410131F9021C23E00024491E0BE000BF0E
:10D0600032F91470AF4205DC02EB4406B6F90270E7
:10D07000AF4202DA641C8C42F2DB32F9146003EB3B
:10D08000440133F91430B1F9021002EB4402AD1B34
:10D09000C91AB2F902206943921B91FBF2F11944BB
:10D0A0000160F0BDF0B50E46294900240B6803F27B
:10D0B000754C1AB3012A29D0022A2FD0032A39D05D
:10D0C000042A44D193F8205293F8211203F2222724
:10D0D00004EB4504224607EB410C4B193E2B36DC92
:10D0E000012902DD6346FFF7A3FF012D2FDD234653
:10D0F0003A4629463046BDE8F04099E703F58E638D
:10D1000019785D780CEB41049A780EE003F58E6394
:10D1100019785D780CEB4104DA7806E003F58E634C
:10D1200019785D781A790CEB41040CEB420202EBA2
:10D130004107D2E793F8111603F2126293F81056E2
:10D1400002EB410C0CEB410707EB4504C5E7F0BDD2
:10D15000380110004FF47A72504390FBF1F174489B
:10D1600010B5814201DAC01110BD42F6A6408142DD
:10D1700001DD5A2010BD6F4A002000BF32F9103087
:10D180008B4205DC02EB4003B3F902308B4202DA3A
:10D19000401C4528F2D332F9104000EB800302EB2B
:10D1A0004000091BB0F90200553B001B01EB810157
:10D1B00091FBF0F0184410BD30B50D460446FFF762
:10D1C000C9FF00EBD0704010002D02D00DDD34B14E
:10D1D00030BD002C03D005DD4FF02D0030BD4FF0E9
:10D1E000000030BD4FF05A0030BD002C03D005DDEB
:10D1F00000F15A0030BD6FF0590030BDA0F15A0067
:10D2000030BD10B58C1A00D56442002800DA4042C7
:10D2100004EB400011440A18081A521040104FF451
:10D220007A71484390FBF2F0C0F57A70D88310BD54
:10D2300030B5827803784D89D21AC3784078521C71
:10D240001B1A5B1C05FB02F0D4185D4340006A000A
:10D25000B0FBF4F0B2FBF4F2904202D948838A8327
:10D2600030BD4A83888330BD2DE9FF4F0027164625
:10D2700082B03A463C46BC46BB46BA46707896F801
:10D28000039025E0039900EB001301EB43012231E9
:10D2900001913178009196F8028016E0019B0B44D1
:10D2A0005D78059B9D420FD1A9EB000303F1010EB0
:10D2B000009B0EFB0EAACD1A6D1C05FB05BB05FBE2
:10D2C0000ECC7F1C2A447444491C8845E6DA401C75
:10D2D0008145D7DA4FF47A70504390FBF7F101FBA8
:10D2E00004F54FF47A734FF47A70604390FBF7F0D3
:10D2F000514391FBF3F2604390FBF3F195FBF3F59F
:10D30000ACEB0505ABEB0207AAEB01046800391B87
:10D31000FFF752FF0F9922464876394628460F9B61
:10D32000FFF76FFF0F9906B03046BDE8F04F7FE77B
:10D330005AD3FFFF68340100FC4900200870FC4903
:10D340000870FC4908707047FB490120FC4A0870CE
:10D35000FA48006890F8281701F00F01116090F862
:10D360002507F84900F00F0008607047F64910B52E
:10D370000020F64A087001211170F54AFC4BFD4C63
:10D380001070F44A1070F44A1070F44A1070F44AA5
:10D390001070F44A1170F4490870F449087048603C
:10D3A0008860E6490968B1F862201A80B1F8A130B6
:10D3B0002380F14CB1F8C6112180F04C2280F04A54
:10D3C0001380F04A1180F0490880FFF7B5FFBDE8EF
:10D3D0001040B9E72DE9FF4FD84A9B4681B012684B
:10D3E000012592F815C0137D0CF1010C69E000BF16
:10D3F0004FF0000A47F6F8724FF001095442D64642
:10D400005646CDF8009019E005FB036730F8178009
:10D4100031F81770A7EB08073FB2BA4200DD3A4671
:10D42000BC4200DA3C46002F02DA4FF0000903E06C
:10D4300002DD4FF00007009706F101069E42E3DB94
:10D44000009E59EA060709D0B9F1010F03D0B9F1DE
:10D45000000F05D008E0009C012C05D1002203E05C
:10D46000009E012E00D12246002412E005FB034657
:10D4700030F8167031F816601744F61B36B25E4568
:10D4800006DACBF10007BE4202DDB2440EF1010E16
:10D49000641C9C42EADBBEF1000F01DD9AFBFEFA40
:10D4A0000AEB0204002209E005FB0326DDF80C80EC
:10D4B00030F81670521C274428F816709A42F3DB95
:10D4C0006D1C654594DB05B0BDE8F08F2DE9F0419A
:10D4D000C2F1100742B1012B06D0AC4B1C78974B20
:10D4E000012C05D000244DE0BDE8F041F6F763B80B
:10D4F000002518E000240FE0367D05FB0646641C7D
:10D5000031F916C030F916E00CFB02FC0EFB07CC1B
:10D510004CF30F1C21F816C01E6896F8E0C6B4EB59
:10D52000DC0FE9DD6D1C1C68647D641CAC42E1DA33
:10D5300000200127964D11E092F8E02607EBD20279
:10D5400007E000BF00FB0424521C35F8146021F8EA
:10D5500014601C68247D9442F4DC401C1A68547DDD
:10D56000641C8442E8DABDE8F08100BF31F9145050
:10D5700030F91460554306FB075545F30F1521F8A4
:10D580001450641C1E68757D367D6D1C7543A54264
:10D59000ECDCE8E72DE9FC5F684D07469346286818
:10D5A0000C469846007D0026420001EB80004FF0BB
:10D5B00001093946F5F7DBFF2868417D007D491CEC
:10D5C0004143420000EB400007EB410104EB400007
:10D5D000F5F7CDFF00274FF0300A28683023007D93
:10D5E000CDE900A000FB07F104EB41000246214613
:10D5F000F6F7DDF87F1C042FEFDB00201DE000BFF5
:10D6000000EB420334F9101034F91330C91A01D574
:10D61000C1F1000100EB820224F812102A6834F9EB
:10D620001010127D00EB420234F91220891A00D545
:10D630004942414500DD761C401C29680A7D824232
:10D64000DEDC002020E000BF02EB4203034434F99B
:10D65000101034F91330C91A01D5C1F1000102EBE1
:10D660008202024424F812102A6834F91010127D44
:10D6700002EB4202024434F91220891A00D54942D1
:10D68000414500DD761C401C29680A7D8242DBDCB6
:10D69000D1B201EB410145F2AA5024F821002868DB
:10D6A0005E45007D00EB400004EB80004680296869
:10D6B000097D01EB410104EB8101A1F8048001DD4A
:10D6C0004FF000094846BDE8FC9F2DE9F04389462C
:10D6D0002E4900252C460A781849012A0B6806D0E5
:10D6E000B3F8F6625A7D197D521C4A4311E0B3F833
:10D6F000F166F7E739F9117030F911C007EB060848
:10D70000C44505DDBCEB070700D57F423D44641CE2
:10D71000491C8A42EEDC1548E5B393F83610A14265
:10D720003ED28168B9B30120BDE8F08359011000F1
:10D730006C0310005101100061011000380110004D
:10D74000AC011000B0011000550110004E01100096
:10D75000560110005701100058011000530110002D
:10D760005401100075011000870110003C031000E7
:10D770007003100072031000740310007603100091
:10D78000780310007A0310006E031000910110005E
:10D790005600012004E0FFE7012181600020C3E77B
:10D7A0000021FAE72DE9F0478246FE48FE4C894603
:10D7B00001780026012520689046012936D090F88E
:10D7C000371000BF01F00F0190F8200001EB81013C
:10D7D0004FEA4107000720D5F548F44A0168504652
:10D7E000F5F7CCFDF349F1480A680368D0F804C0A6
:10D7F000D21A4B68A3EB0C031A448B68D0F808C00C
:10D80000C968C068A3EB0C03081A21681A441044C5
:10D81000B1F87810814200DA0025206890F82000E5
:10D8200080070FD5E448007818B10BE090F8F316A4
:10D83000C8E7E248007828B949465046FFF745FF57
:10D8400000B10025DE48002102789AB188F8001066
:10D850004268521C4260236893F837301B0903EB7F
:10D860008303B2EB430F02DD4160017001263046B5
:10D87000BDE8F0871DB1416088F80050F7E74268C5
:10D88000531C4360BA42F7DD0122027041602268F6
:10D8900092F837201209EFD101700126ECE72DE94B
:10D8A000F05FC148BF4B01681B78B1F9A120B1F905
:10D8B0006200012B0AD0B1F9C631C24C2578BA4CAE
:10D8C000012D246894F8C09103D012E0B1F9E2363A
:10D8D000F3E7BD4C246864B1B1F9AD20B1F96C0037
:10D8E0005FEA897405D5B94C2478012C01D1B1F9CE
:10D8F0006A00B14C2478012C2ED0022C06D3B1F84A
:10D90000BE200AB1B1F9BE0002461346DFF8C0B22C
:10D91000B04C0546ABF800202080AF4CDFF8C0E2E9
:10D92000DFF8C0A2238091F864601C46801B06B219
:10D9300091F8A300101A07B291F8C301181AA74B67
:10D940000FFA80FCA8481F80AEF80060AAF800C05B
:10D95000007801280DD03AE091F8BA40224491F8BD
:10D96000BB4012B2204491F8DA4100B223441BB20A
:10D97000CCE791F8CC00642100FB05F8B8FBF1F886
:10D980004544DFF85082A8F8005000FB02F8B8FBCD
:10D99000F1F800FB04F5B5FBF1F54244ABF80020CB
:10D9A0008D4A2C44148000FB06F400FB07F2B4FB04
:10D9B000F1F4B2FBF1F200FB0CF0B0FBF1F03444F7
:10D9C000AEF800403A441A806044AAF80000874844
:10D9D0000078800706D47F480188ABF80010BEF8B5
:10D9E000000018805FEAC97002D07748006830B93B
:10D9F0007948BBF8001001801988AAF80010BAF91C
:10DA00000020BEF90010B3F90000F5F736FA7849A6
:10DA10000880BDE8F09F644A10B51268537D127DFE
:10DA20005B1C534307E000BF30F912408C4201DD1C
:10DA3000012010BD521C9A42F6DB002010BD2DE9DA
:10DA4000F04780466B488946002400684FF408611F
:10DA5000054605F016FB544A1068037D0120064672
:10DA600016E000BF00EB001105EB4107012108E0C3
:10DA700039F913C05B1CC44502DD641C7E54A4B29A
:10DA8000491CD2F800C09CF814C08C45F0DA401C48
:10DA90001168497D8142E5DA2046E9E6F0B5424E5B
:10DAA00033685D7D1B7D6D1C5D430024274608E0C7
:10DAB00030F913C0944502DA21F8137000E0641CB9
:10DAC0005B1CAB42F4DB3068B0F89A00A04201DD89
:10DAD0000020F0BD0120F0BDF0B50025324C26E05D
:10DAE00000220123767D0EE003FB075C30F91CC0A9
:10DAF000BCF1000F04DD0AB1944503DA624601E08F
:10DB00000022731C5B1C9E42EEDA002A0EDD01230C
:10DB100008E0367D03FB065630F81670BF1A21F870
:10DB200016705B1C2668777D9F42F2DA6D1C2668B2
:10DB3000377DAF42D4DCF0BD2DE9F0431A4B81466E
:10DB40001868467D057D761C002028E01A6892F84A
:10DB50005C20642A06D9643A02FB00F494FBF5F4D5
:10DB6000141B04E0C2F16402424392FBF5F46434F6
:10DB700001224FF064080FE01F683F7D02FB07079A
:10DB800039F917C0BCF1000F05DD0CFB04FC9CFB50
:10DB9000F8FC21F817C0521CB242EDDB401CA84231
:10DBA000D4DBC1E5910110003801100014231000EE
:10DBB0006C011000042310005E01100055011000DC
:10DBC0003C031000590110009C0100226C0310005E
:10DBD000720310007003100074031000780310002B
:10DBE000760310007A031000600110008E0110000F
:10DBF0006E031000640110002DE9F047BB4B814615
:10DC00008A461868447D057D641C01202DE01E684D
:10DC100096F85D10642907D96439421E777D4A431E
:10DC200092FBF7F28A1A06E0C1F16401421E5143E9
:10DC3000727D91FBF2F2317D6432414309EB410682
:10DC40000AEB410700214FF064080BE036F911C0E0
:10DC5000BCF1000F05DD0CFB02FC9CFBF8FC27F877
:10DC600011C0491CA942F1DB401CA042CFDBFFE5FB
:10DC70002DE9FE4F05469E4800274FF0010B007826
:10DC800010B19C4981F800B09B48002604780670CA
:10DC90000320F2F7E4FCFFF702FE98482346984978
:10DCA00002682846FFF712FC234602AA95499448C9
:10DCB000FFF778FD04469DF80800DFF84C824FF42A
:10DCC0008069E8B3894CDFF844A2206890F84000EE
:10DCD00080070FD58E48BAF90010B0F900208D48A2
:10DCE000B0F90000F5F7C9F8854A03B28549104636
:10DCF000FFF770FB884D834A81482968F5F7E1FDFD
:10DD00000320F2F7C7FC206890F84000400703D5D5
:10DD100029680846FFF7E0FE206890F840000007F9
:10DD200003D529680846FFF767FF206890F8400090
:10DD3000C00603D529680846FFF7FEFE206800E00C
:10DD40000CE090F86010490727D52968B0F96820E1
:10DD50000846FFF7A3FE012810D01EE00320F2F7CB
:10DD600099FC012C5BD1D8F80010012041F005018D
:10DD7000C8F800104946F2F781FB50E0206890F89F
:10DD80006000800609D5D8F80010012041F0050197
:10DD9000C8F800104946F2F771FB60480078022885
:10DDA00015D05F492868F5F706FCDFF878815C48F4
:10DDB000B8F90010FFF72FFEDFF86CC1DFF86C91A7
:10DDC0005B4D9CF80010E9B101283AD01CE02068B6
:10DDD00090F840104906E8D58DF804608DF805608C
:10DDE000017D491E8DF80610417D491E8DF80710F2
:10DDF0004B490091B0F95A204E4901A82B68FEF713
:10DE00007FFAD2E701280DD04B488CF800604B49CF
:10DE1000067089F80060087808B1401E087038461E
:10DE2000BDE8FE8FBAF900103D48FFF7F4FD8CF80D
:10DE300000002E80206890F82901000701D5FCF72A
:10DE400068FB89F800B001273549B8F90000FFF7F1
:10DE5000F6FD3B49488029888142E0D22880DEE7F0
:10DE600070B505460320F2F7FAFB2448224C2449FA
:10DE7000026823782846FFF729FB1C4D00202070FC
:10DE8000286890F84010890706D51D4AB0F962301D
:10DE90001C491046FFF79EFA1F4C1A4A1848216881
:10DEA000F5F70FFD286890F84000400703D521687A
:10DEB0000846FFF711FE286890F84000000703D5D8
:10DEC00021680846FFF798FE286890F84000C006D1
:10DED00003D521680846FFF72FFE11492068F5F7A2
:10DEE0006AFBBDE870400320F2F7D4BB3801100094
:10DEF00091011000590110004E011000580310004C
:10DF0000C89F01205600012040011000700310003E
:10DF10007403100072031000640110005E01100011
:10DF200048A701206E031000570110005601100091
:10DF30004C011000AE3401005801100051011000D6
:10DF40003C031000F0B40C46F94D0146C2F1100636
:10DF50001AB1012B01D0002016E0286890F816278E
:10DF600090F8150742432046F0BC5200F5F7FFBA7F
:10DF700034F9103031F91070534307FB063343F383
:10DF80000F1324F81030401C2B6893F8167793F881
:10DF900015375F438742EBDCF0BC7047F0B5E448CF
:10DFA0001022016891F82300A2EB10150609002049
:10DFB000E04A19E0E04B32F91040B1F9267033F92C
:10DFC000103027449F420EDBB1F92870E71B9F42B7
:10DFD00009DC744303FB0543DC1703EB147343F3C1
:10DFE0000F1322F81030401C91F8163791F815479E
:10DFF00063438342DEDCF0BDF0B5CD4E326892F86B
:10E00000184792F81C27520700D5641C00220FE025
:10E0100000252B4607E000BF03FB072C5B1C30F8F4
:10E020001CC065442DB2A342F6DB21F81250521CED
:10E03000336893F817779742EADCF0BD2DE9FE4F7D
:10E04000BE4DBF4801262F78B0F90230DFF8F482C8
:10E0500000249FB14146032291F90010012F24D0E2
:10E06000DFF8E4B2032F3ED0C8F80040C8F80440FF
:10E070008BF8004088F80440BDE8FE8FAC4F38684C
:10E08000B0F8220783420BDD0822AD49AD48F5F711
:10E090006EFA386890F8240788F804002E70EBE7D1
:10E0A000C8F80040C8F80440E6E790F90060B142C3
:10E0B0000CD0C82B0ADDB3F52F7F07DA98F90110D1
:10E0C00090F90100814201D12A70D5E798F9040046
:10E0D000002802DD401E88F8040098F8040000289B
:10E0E000CAD12C70DCE7C82BC6DC00940194092748
:10E0F0000294022540F2DC5A8DF801708DF805502B
:10E10000ADF808A040F2E6508DF800204FF040092D
:10E11000ADF80A008DF806508DF803908DF8076071
:10E1200000216846FCF7ADF901948DF805508DF893
:10E13000065000948DF807608DF801700520814E1F
:10E1400002948DF800008DF80390ADF808A03078A7
:10E15000D0464FF4C36920B140F2B450ADF80A0084
:10E1600001E0ADF80A9000216846FCF78AF90094B6
:10E170008DF801700420019402948DF800008DF850
:10E1800003408DF80550ADF80880307820B14FF489
:10E19000B460ADF80A0001E0ADF80A9000216846CD
:10E1A000FCF76FF965480470346074608BF80040C8
:10E1B000347161E730B5B0F90230C2881A4412B246
:10E1C000002A00DC0122B0F9044005885C4394FB7E
:10E1D000F2F42B4423440B80B0F90440B0F906302C
:10E1E00000895C4394FBF2F218441044488030BD2F
:10E1F0002DE9F84FDFF838810025544CD8F800108D
:10E20000A94601F2F561009151492F462E460A6850
:10E2100023785049FFF796FEAB4684F800B0D8F853
:10E2200000004D4C90F81C07400718D5DFF82CA1D2
:10E230004FEA080C05EB8501DCF80000427D007D0B
:10E2400002FB00110AEB410004EB8501FFF7B2FF6E
:10E250006D1C052DEEDBDCF8000090F81757002050
:10E26000C246D8F8001028E0324A3A4B32F8102063
:10E2700033F81030A2EB030213B200EB050224F8CE
:10E28000123091F81CC75FEA4C7C0CD5DDF800C059
:10E290004FF064081CF800C003FB0CFC9CFBF8FC6E
:10E2A000634424F812302E4B34F91220B3F90030B5
:10E2B0009A4201DD07B90127401C91F8162791F811
:10E2C00015375A438242CFDC91F81C074FF0FF38D4
:10E2D000C0064FD500200AE02B18B1F826C734F944
:10E2E0001330CCF1000C634500DA761C401C8242EE
:10E2F000F2DC91F828171B48B6EB111F37DB0268D8
:10E30000002A01DD521E026082BB01F00F01016094
:10E310001548016841F4C05101604FF4806101204B
:10E32000F2F7ACF84246FF21FC20FCF7C8F921E0E7
:10E3300038011000182F0120C82E0120C401100040
:10E34000B4011000BC011000C501100061011000F3
:10E3500058031000F02E0120402F012048A7012073
:10E360006E031000AC0110004001100002E001F04B
:10E370000F01016000205946DAF8006007E000BF95
:10E3800034F91020002A01DA24F81010401C96F805
:10E3900015272A448242F3DC96F81C0700071BD598
:10E3A00042460821E54804F064FEE449002000BF2D
:10E3B000B1F9022034F910309A4208DA96F817576A
:10E3C00090FBF5F20A7005FB12024A704B80401C6C
:10E3D0001428EDDBFFF732FED949DA48FFF70CFECF
:10E3E000012F00D1B9464846BDE8F88F30B5D64B6D
:10E3F0001A68148BB2F819572C44957EA4B26D0795
:10E4000004D5D28A0568A2EB050202601A68927EE2
:10E41000920702D50A68A21A0A600268002A00DA86
:10E42000002202601D68ED8AAA4200DD2A460260D1
:10E430000A68002A00DA00220A60A24200DD2246B1
:10E440000A601B689B7EDB0702D003680B600260DA
:10E4500030BDF0B5BC4A00263546146894F81C2738
:10E4600094F81837520700D55B1C00220EE000BF5D
:10E4700094F8177702FB071730F91770002F04DDA7
:10E4800002F1010C07FB0C663D44521C9A42EFDB83
:10E4900005B90125701BB4F819175B1E48435D438D
:10E4A00090FBF5F0218B0844F0BD2DE9FF4F83B0C0
:10E4B0004FF0000A0746A5480190C0130E464A1EB9
:10E4C000029054465546D146D3465146CDF800A059
:10E4D0003846FAF72CF89C4B37F91000196891F878
:10E4E00021174843642190FBF1F20020012108E04C
:10E4F00037F910C0944503DD01FA00FC4CEA04042E
:10E50000401CB042F4D30022104664E001FA00FE41
:10E510001EEA040F1ED030B1A0F1010801FA08FC78
:10E520001CEA040F00D16D1C37F910C0DDF804801F
:10E53000C44505DDCDF804C00FFA80FCCDF808C055
:10E54000A6F1010C604503D14FF0010CCDF800C0DD
:10E55000521C04E01DB14FF0010CCDF800C04D4538
:10E5600038D0DDF800C0BCF1010F33D1D3F800C0C2
:10E570009CF825C7B2EB1C1F0ADAB9F1050F23D2AC
:10E58000DDF814C0029A0CF8092009F101091BE01A
:10E59000421E02E024EA0E04521E01FA02FC1CEAAA
:10E5A000040F01D0002AF5DA6D1EBBF1000F0BD16C
:10E5B000A2F1010C52466CF30F2200F1010C6CF336
:10E5C0001F624FF0010B9246604A0192D2130292F1
:10E5D00000220092401CB04298D3069800B104601B
:10E5E0005B4A5C48BBF1010F0ED0196891F8251702
:10E5F00001F00F0101600020107057492846C1F852
:10E6000000A007B0BDE8F08F0468002C01DD641E97
:10E610000460002CF1D11B6893F8253703F00F0339
:10E6200003601170E9E72DE9F04790B000240E94E3
:10E63000342168460D9404F046FD4548474B484A4E
:10E640000470414C206890F817173D48FFF72DFFE4
:10E65000061E70DD0025DFF8EC90414FDFF804A1C5
:10E6600067E0795D206839F911C0B0F81F379C4523
:10E6700006DC90F817C78C4439F91C209A4257DD04
:10E680004A0802EB820201F0010102EB41018A1EFD
:10E69000002A01DD891E00E0002189B2037D4A1DA8
:10E6A000934200D85A1E407D92B258430AEB400074
:10E6B000F9F73DFF82B22068437D017D03FB01280D
:10E6C0003AF918C0BCF1640F32DB4B430AEB430C40
:10E6D000B0F9163012B26046F9F797FD0E90795DE9
:10E6E0001848FFF7B6FE0D900DA90EA8FFF77EFEA5
:10E6F00004220DA90EA8FEF7D5FC0E98ADF8020075
:10E700000D98ADF8000002208DF818000620ADF835
:10E710000A00ADF8080041F28830039012480088E2
:10E72000ADF8200001208DF83000684601F000FCB3
:10E730006D1CB54295DB10B0BDE8F087B401100048
:10E7400018350120402F0120380110000080FFFF04
:10E7500063011000B0011000A8011000A401100016
:10E760004803100048A7012070031000F948FA4A36
:10E77000006830F8E81F1180F8498079C880704738
:10E78000F6480021F34A41808180C160126892F806
:10E7900043201209826001610170F14801707047E5
:10E7A0002DE9F041EB4DEC4A2E6896F8D010B6F802
:10E7B000E830C90744D096F8ED4004B90124118827
:10E7C00096F8ECC0CF1A07FB0CF797FBF4F4B6F8F9
:10E7D000EA700F442744E14CB84211DD00261021B5
:10E7E0000120E660F1F74AFE286890F860104906BB
:10E7F00002D5DC4A01211170A68090F8EE0006E0F7
:10E80000814202D9D64D2D7825B196F8EE00E080F0
:10E81000BDE8F081D44D2D78002DF9D1B4F9065022
:10E82000002D01DD6D1EE580E488002CF0D1891EED
:10E83000814200DA01468B4200DD19461180E7E78C
:10E840001380E5E7F0B5C349C44D096891F840204D
:10E85000D20753D0C24A1778C44A1278AFB1012AFE
:10E8600009D091F84330B1F84A6003F00F021C0957
:10E87000B1F8483015E091F84D30B1F8546003F02C
:10E880000F021C09B1F852300BE0012A1AD011F81E
:10E89000423F03F00F024FEA13144B888E88A1F118
:10E8A000420191F820C15FEACC7C16D0DFF8C0C2EB
:10E8B000BCF800C05FEA4C5C0FD591F8251157B148
:10E8C0000A090AE011F84C3F03F00F021C094B88BB
:10E8D0008E884C39E5E701F00F02984201DCAA600E
:10E8E000F0BDB04201DBAC60F0BDC01AA11A4843D4
:10E8F000F11A90FBF1F01044A860F0BD0020FBE796
:10E90000944A10B512680021B2F8B830834205D29B
:10E9100092F8B0301B0701D5032112E0B2F8B630EF
:10E92000834205D292F8B0305B0701D5022108E09E
:10E93000B2F8B430834204D292F8B000800700D518
:10E9400001218648864C0378994211D12178994259
:10E950000AD0854A1278134307D00169491E016124
:10E96000002901DC0078207010BD01700169F7E713
:10E9700059B1022901D1012B07D092F8B2200261CE
:10E980000170002AF0DC217010BD92F8B320F6E788
:10E990007049096891F8B010CA0670490DD58A8887
:10E9A000831A002B09DC704B1B784BB1C2EB0212AF
:10E9B000520002EB4000C0F34F10888080B27047D5
:10E9C000C2EB82121044C0F38F10F6E72DE9F0433A
:10E9D000604E0546A3B03768802197F8B10000F07B
:10E9E0000F04641C02A804F06EFB97F85F04C007D4
:10E9F00014D0002710E03168087DB1F96234CDE908
:10EA0000003000FB07F2B1F9603405EB420002462A
:10EA10002946F4F7CCFE7F1CA742ECDB30680023CC
:10EA2000814602A9007D10E000FB03F6002209E008
:10EA300006EB020C51F8227035F91CC0674441F80E
:10EA40002270521C9042F3DC5B1CA342ECDB0022E0
:10EA500007E000BF51F8223093FBF4F341F8223075
:10EA6000521C9042F6DC002213462AE000273E4664
:10EA70000DE000BF06FB003C51F8238035F91CC0B7
:10EA8000BCEB080C01D5CCF1000C6744761CA64207
:10EA9000F0DB97FBF4F699F82071FF070DD0344FA7
:10EAA0003F887F0509D599F824714FEA171C0CFBA4
:10EAB00006FC07F00F069CFBF6F6964200DD324698
:10EAC0005B1C9842D2DCB2F5803F04DB4FF6FF704E
:10EAD00023B0BDE8F08390B2FAE710B5FFF776FFF8
:10EAE000FFF756FF1D4C4FF00051020A60804A7339
:10EAF0008873FFF705FF6088FFF7A4FE6088BDE814
:10EB000010404DE6F0B4134A116891F8B130097D18
:10EB100003F00F04114B641CDD6895FBF4F604FB55
:10EB200016556943134D05EB4105002105E000BF73
:10EB300030F8116025F81160491C1668367D8E4248
:10EB4000F6DCD868401CD860A04215DBF0BC094850
:10EB5000C3E7000038011000A42310005003100088
:10EB60005E011000870110005701100059011000CC
:10EB700070011000C89B0120F0BC704731B5684699
:10EB8000FDF7FAFFEB4C2078022805D19DF8000034
:10EB9000012801D101F037FA9DF80000207038BD3E
:10EBA00010B5FEF739FABDE8104001F08FB910B585
:10EBB000FEF7DCFBFCF7CEF901F070F9BDE8104080
:10EBC000FFF7DEBDDB4910B500204860FFF7EFFF1F
:10EBD000D948006890F8E801002803D0BDE810404B
:10EBE000FBF7C4BF10BD2DE9F041FFF741F8054622
:10EBF000D248FFF7FDFA0446012801D1FFF713FDC3
:10EC0000CD4E012D03D0012C06D0D5B328E02846E7
:10EC1000FFF7B4FF012C04D100221146C84801F0CF
:10EC200091FB306890F81C07C00616D5C54F3878A0
:10EC3000012812D1C448016841F4C05101604FF469
:10EC400080610120F1F71AFC00221146FC20FBF73D
:10EC500036FD01F033FC0020387001F047F99DB11A
:10EC6000BA480125007848B1B949012008703068D8
:10EC700090F8F002C00701D0FAF72AFB012C03D06C
:10EC800003E0FFE7FFF78CFF012508210520F1F7DE
:10EC9000F5FB2846BDE8F0812DE9FC47AD49AE48BB
:10ECA00000260D6805427DD0A848A34C0278206854
:10ECB000032A02D0022A23D002E0A84A1278FAB12D
:10ECC00090F87D008A4680469A48406805400620B4
:10ECD000F1F7C5FCA80703D5A148FCF73FF80646A5
:10ECE000E8073CD020689F4D4FF0000790F8601077
:10ECF000C90603D59C490978042904D02F703AE04D
:10ED000090F87E00DEE7DFF8649220211F2399F857
:10ED10000020CDE90012027D95499648FAF7EFF8F8
:10ED200099F80000012801D189F800702068434655
:10ED30008F4990F87C208F48FEF72CFC40B9206862
:10ED40008D4990F87F002870012008708B49087069
:10ED5000287880B1401E28708648FFF7D3FEDAF885
:10ED60000000002802DA3046FCF7C2F8BDE8FC4794
:10ED70000620F1F78FBC824D287801280AD120683F
:10ED800090F86000400605D57E487F494088098894
:10ED9000884200D12F70206890F8B000C00704D0DE
:10EDA000744800E00AE0FFF7ADFE28780028D6D1CD
:10EDB00076497048FFF717FF0643D0E7BDE8FC87A8
:10EDC00010B573485B4900684C6844400ED04860F9
:10EDD000A00701D5FBF7CAFEE00701D0FFF7E7FE69
:10EDE000600603D5BDE81040FEF7A6BA10BD2DE9B8
:10EDF000F0415848002504684E4840680440062009
:10EE0000F1F72DFC4C4E634FE00726D0306890F8A8
:10EE10001001000712D53878C00705D05548FFF714
:10EE20001FF802F057F805464F480078072805D12B
:10EE3000012D03D140210220F1F720FB306890F82A
:10EE40001001C00609D54B48FFF70AF8387840078B
:10EE500003D508210520F1F711FB200510D53068F6
:10EE600090F81001C0060BD53878000708D5334854
:10EE700002F08CF9012803D140210220F1F7FEFABB
:10EE8000BDE8F0410620F1F705BC2A4C08B5002585
:10EE90006570FFF76BFC607878B30128FBD16B4697
:10EEA000002240F285210320F1F738FB0098C007CB
:10EEB00006D001210320F1F710FB6570FFF782FEF9
:10EEC0000098400705D504210320F1F706FBFFF762
:10EED000E3FE0098800506D54FF400710320F1F79A
:10EEE000FCFAFFF784FF00980006D4D580210320A8
:10EEF000F1F7F3FAFFF764FFCDE7FFE70321002006
:10EF0000F4F757F96B46002202210320F1F706FBC4
:10EF100003210120F4F74DF900988007BBD5FFF7D6
:10EF200051FE40F287210320F1F7D7FA01206070EB
:10EF3000B1E700006403100038011000C82E012062
:10EF4000384F1000630110004001100055011000FF
:10EF50007A011000700110000300008058011000B9
:10EF60003A2E0120530110007C01100075011000A1
:10EF7000C8AE01200C0A10004E01100086011000DE
:10EF800087011000A423100088011000048E0120C6
:10EF9000E40310008E011000E84800210170416078
:10EFA000704710B5027F817F531A9B1C042B05D933
:10EFB000437FC47F1B1B5B1C022B0FD9E04B1B78CC
:10EFC00073B12AB1DF4A1268127D521E914207D1F5
:10EFD000417FC07F081A401C022801D8012010BDC3
:10EFE000002010BD2DE9F05F436806461804DFF8E5
:10EFF00058A3000C13D000220A2710465FF001042A
:10F0000004FA00F10B4217D000EB400106EB81112E
:10F01000103191F82050012D06D00A270FE0002072
:10F020008AF80000BDE8F09FCD68098995FBF1F1F1
:10F03000914201DD0A460746401C0A28E0DBDFF862
:10F040000083DFF8F892DFF8FCB24FF0000C00BF4D
:10F05000716804FA0CF001420AD00CEB4C0006EB8C
:10F060008015103595F82000012802D006285BD0C5
:10F0700076E0022085F82000287948B198F8000051
:10F08000C0B3DBF80000674590F8C0001FD115E061
:10F09000AE480078012808D0AD4800780128DBF898
:10F0A000000016D090F8CF0115E098F8000040B1AC
:10F0B000DBF80000674590F8D80108D100F00F0098
:10F0C00009E0DBF80000674590F8D001F6D00009B0
:10F0D00001E090F8D401E8702846FFF762FF0128AC
:10F0E00010D06878D9F8042004FA00F18A43C9F8EE
:10F0F000042035E0FFE7DBF80000674590F8820068
:10F10000E5D1DBE7DBF80000E97890F8830000F058
:10F110000F000844E8706978D9F8042004FA01F077
:10F120001043C9F804001BE0072085F8200098F878
:10F1300000000028DBF8000032D090F8C10000BFCA
:10F1400000F00F00E870DBF80000696A90F88500B5
:10F15000B1EB101F04DDE97800F00F000844E870FF
:10F160000CF1010CBCF10A0FFFF672AF5FF0000763
:10F17000706804FA07F1084233D007EB470006EB4A
:10F1800080151035D9F804106878A04604FA00F00C
:10F19000CC4608421BD02846FFF703FF18B116E003
:10F1A00090F88400CCE7DBF80000E97890F8830061
:10F1B00000F00F00081A002800DC0020E8706978D1
:10F1C00008FA01F0DCF804108143CCF80410E87868
:10F1D000E8BB95F82000022804D0072839D0287908
:10F1E000B0B370E0032085F82000287948B957486B
:10F1F000007818B94FF48670FBF723FB534880F86A
:10F20000008054480078012816D103208AF80000B5
:10F210002879022810D1DFF8348198F800000128FD
:10F2200002D10C20FBF70DFB4B49052008704B4920
:10F23000002088F8000008704948007801283DD176
:10F240009AF8001041F002018AF8001036E037E029
:10F2500015E0082085F820003E48007828B99AF883
:10F26000001021F001018AF800103D48007850BBE1
:10F270009AF8001021F002018AF8001023E0DBF870
:10F280000000E97990F8CF0181421CD90220287151
:10F290000020E871DFF8B48003208AF8000098F8B5
:10F2A0000000012802D10C20FBF7CBFA2A490520E7
:10F2B00008702A49002088F800000870E87810B12A
:10F2C000C0B2401EE8707F1C0A2FFFF651AFA9E6BE
:10F2D000F0B500211B4B0125426805FA01F42242DA
:10F2E0001FD001EB410200EB8212103292F8204055
:10F2F000022C16D1154ED4783678012E15D0144E26
:10F300003678012E1E6816D096F8CF7196F8826076
:10F3100006F00F06BE1BA41B24B2002C00DC002448
:10F32000D470491C0A29D7DBF0BD1E6896F8D0714D
:10F3300007F00F07EAE796F8D471E7E780031000BB
:10F340005E01100038011000550110005901100035
:10F350005201100057011000510110006C03100001
:10F3600056011000FE490020086070472DE9F04F5B
:10F37000002789B03E463D463B46C3F105020029C1
:10F3800000EB820264D0B2F9002017445A4302FB1A
:10F3900003555B1C1644062BEFDBF24C00976068AC
:10F3A0000190A068CDE90206206904906069CDE96A
:10F3B0000505E0690790206A08906846F3F764FD48
:10F3C00082462068CDE90007A0680290E068CDE998
:10F3D000030660690590A069CDE90605206A0890DA
:10F3E0008B466846F3F750FD8046206800906068C1
:10F3F000CDE90107E06803902069CDE90406A06922
:10F400000690E069CDE9070589466846F3F73CFDBB
:10F410000326A8FB06470B4609FB0671002508FBDF
:10F4200005110925A0FB056703FB0573002200FBFE
:10F430000230A319414113EB0A0041EB0B014FF4D9
:10F440007562002303F0ACFD09B000B2BDE8F08F97
:10F45000B2F9022099E770B50546002442302146F2
:10F460000646FFF783FF60F31F4401213046FFF794
:10F470007DFF0146204661F30F00C5F84A0070BDCC
:10F48000B9490A68B2F82B11814201D300207047B4
:10F49000B2F82D21824201D8FF207047521A401A3B
:10F4A000C0EB0020B0FBF2F0C0B2704738B5B2F943
:10F4B0000230B2F900205B4302FB02340A460146E7
:10F4C000684601F05AF9684601F04FF9A04201D9A7
:10F4D000002038BD012038BDF8B5A34E0D460446C6
:10F4E00090F820100127306803290ED0B4F93C10A1
:10F4F000002916DD10F8981FADF802104078ADF81D
:10F500000000A08F401EA08712E088304178A187BC
:10F51000007860872868C4F832002868C4F836008C
:10F5200085E010F8861FADF80210407CADF80000B1
:10F530006A4604F1420104F13200FFF7B7FF0146C9
:10F5400094F82000052806D0042804D0072869D0A4
:10F55000082867D06BE079B13068B4F93A1090F8B8
:10F560008820914245DA90F8800040074FD529461F
:10F57000204600F044FC4AE02868C4F83200B5F99F
:10F580000200B4F938108842316891F8871001F010
:10F590000F0101DD401A00E008442087B5F90000A2
:10F5A000B4F936108842316891F8871002DDA0EB7B
:10F5B000111001E000EB1110E0863168B4F93A0057
:10F5C00091F8881088420FDDB5F90200B4F93410C3
:10F5D00008444FEA60006880B5F90000B4F93210C1
:10F5E00008444FEA600028804FF000006087A08741
:10F5F0001DE003D12868C4F8320008E0D4F83200D6
:10F600002860306890F88000800700D40027B4F9A3
:10F610003A0040F6FF71884201DA401C6087012FF2
:10F6200005D00FE0012902D1D4F85A0028602868DB
:10F63000C4F85A00B5F902000002E062B5F9000012
:10F640000002A0623846F8BD2DE9FF4F8146D0F890
:10F65000B000D9F8B4101D46144693B082468B46CC
:10F660000222002303F09CFC07910C90C82D11DBB3
:10F6700000204FF4BB510B90099000913B480A9039
:10F680000114119145F60111002042F6C1650E9159
:10F6900001900FE0002140F222700B91099100903F
:10F6A0003349450048140A91119049F24060002105
:10F6B00001910E9099F82000052819D0082807D04C
:10F6C0002949096891F8A01089060FD507280DD19E
:10F6D000B9F94210C9F82810B9F94400C9F82C004A
:10F6E000149948801498B9F84210018017B0ADE61B
:10F6F0002078012801D100202070D9E918120F923A
:10F700000A9B119CA1FB030602FB0362089101FB0B
:10F71000042152465B4603F043FCB9F94430B9F981
:10F720004C209C18009AE717A4FB026C07FB02C24E
:10F730000B9B04FB0324B9F94820099BA2FB057825
:10F740004FEAE27C0CFB058C02FB03C2F319544127
:10F750001E1AD9E91A3764EB01040E9A0AE0000078
:10F760007C03100088031000380110008104FFFFA3
:10F770004786FEFFA3FB020C07FB02C2019903FBB5
:10F78000012152465B4603F00BFC321A64EB010484
:10F79000CDE90424D9E922210A9C0D91A2FB04069B
:10F7A00001FB0461119B109202FB031152465B4660
:10F7B00003F0F6FBB9F94230B9F94A209C18009BD6
:10F7C000E717A4FB036C07FB03C30B9A04FB02348B
:10F7D000B9F94630099AA3FB05C8DF1707FB058571
:10F7E00003FB025216EB0C0354411D1A64EB010497
:10F7F000D9E924360E99019AA3FB010706FB017192
:10F8000003FB021152465B4603F0CAFB2E1A64EB5F
:10F8100001070F9A0899C9E91A120D9A1099C9E9B6
:10F820002412DDE904210C98079B10185941524617
:10F830005B4603F0B5FB0546C9F82C000C98079A07
:10F84000301847EB020152465B4603F0A9FBC9F8AA
:10F850002800DDE90424C9E92267FD49C9E9182423
:10F8600009688A7ED207002A03D00A8B03D1098B4C
:10F8700002E0CA8AFAE7C98A954201DD154602E02C
:10F88000002D00DA0025C9F82C50884204DC00283D
:10F8900001DA002100E00146C9F8281014984580DB
:10F8A0001499B9F82800088020E72DE9FC470446A0
:10F8B0000020E74D8DF8040094F82000D5F800C032
:10F8C00091460E4603281CD004F14602111FE14F59
:10F8D00005285CD09CF829815FEA886801D4072854
:10F8E00055D09CF8A0C05FEA8C6801D502284ED0A4
:10F8F00008287CD05FEA8C6101D5072878D0BDE864
:10F90000FC87B6F902004FEA0020E062B6F9000079
:10F910004FEA0020A062B9F8000020869CF8A00001
:10F920008006ECD501208DF804000104603400202D
:10F93000C4E91410B6F90220A2FB0157D31703FB48
:10F94000017302FB0032C4E90052B6F90020A2FBA9
:10F950000157D31703FB017302FB0032C4E90A52BB
:10F96000B6F90220A2FB0157D31703FB017302FB78
:10F970000032C4E90252B6F90020A2FB0156D317A7
:10F9800003FB016102FB0010C4E90C50B7E76846B5
:10F9900000F0F3FE684600F0E8FEAF490346086851
:10F9A000984200DA18460860387848B12F6817F88E
:10F9B000C20F00F00F017A8800095243BF880FE0A0
:10F9C0002079B0B10128286817D090F88A0000BFCC
:10F9D0002F6800F00F01000937F88C2F7F88524301
:10F9E0007F43934215DDBB420ADB084611E05FE02E
:10F9F00061E0286890F8D101EAE790F8AC00E7E709
:10FA0000A3EB020C411A0CFB01FCB91A9CFBF1F1AF
:10FA1000401A27789149C0F110022FB90F7960F38D
:10FA200007170F7127690F612778012F03D14F79CD
:10FA300060F303074F71296891F8A010890605D576
:10FA400001AA31462046FFF7FFFD1DE0B6F902305E
:10FA5000E16A1B02414303FB0211090901F17F0323
:10FA600043F30F237380E162B6F90030A16A4FEAD5
:10FA70000323414303FB02104FEA101000F17F0102
:10FA800041F30F213180A0622868218EB9F800303F
:10FA900090F88B0000F00F00C0F1100201FB00F1A4
:10FAA00003FB02104FEA1010A9F80000208626E799
:10FAB0005FEA8C6005D501AA31462046FFF7C4FDF8
:10FAC0001DE7684600F059FE684600F04EFE01460C
:10FAD00038780028286802D0B0F8C40001E0B0F8F7
:10FAE0008C0040438142E2DCE06A7F3040F30F202B
:10FAF0007080A06A7F3040F30F203080218EA9F8FB
:10FB00000010FCE62DE9FE4F074600215248DFF8C1
:10FB100050C1012201608CF800207D680E46084625
:10FB200002FA00F31D4216D000EB400307EB8313EB
:10FB3000103393F82040032C05D0052C03D0042C5F
:10FB400001D0082C07D11C8993F8B830214489B220
:10FB50000BB98CF80060401C0A28E1DBDFF8F0B03C
:10FB6000DBF80000B0F804318B4201D87F200DE0B3
:10FB7000B0F80601884201D3002007E0091AC1EB62
:10FB8000C111181AB1FBF0F000F07F00804600268A
:10FB9000924679680AFA06F9554611EA090F7DD0AE
:10FBA00006EB460007EB80141034029094F8200016
:10FBB000032805D0052803D0042801D008286DD1DA
:10FBC000D4F842100091A18AADF80410DBF80010BF
:10FBD00091F829319B0603D491F8A0309B0604D5F7
:10FBE000042802D1D4F84600009091F88000400625
:10FBF00003D52046FFF72FFC0090DBF8000090F8BB
:10FC00008000000704D501AA69462046FFF74DFE93
:10FC1000DBF8000090F88000C00706D001AA694612
:10FC20002046FFF759FC002838D094F8200003281C
:10FC300008D1DBF8000090F82901400702D5D4F87C
:10FC40003E0000900748AA46016841EA09010BE01E
:10FC5000380110005E0110007C031000AE2310007C
:10FC600062011000242310007E4B016022791B7872
:10FC70001A4306D194F82020082A02D021EA09016B
:10FC80000160029900EB810594F82000AD1D032866
:10FC900033D0052837D0042835D000E056E00421C1
:10FCA00020790328287930D020F0800068F30600FE
:10FCB00028710098A8602970207868702079687190
:10FCC000DBF8000022895B4690F82F0101095143BF
:10FCD00000F00F00B1FBF0F0A870E08AFFF7D0FB56
:10FCE000A871207EE8711A68BDF80400B2F890107F
:10FCF00081420DD385F803A01CE02146384600F070
:10FD000065F90321CCE70521CAE740F08000CDE783
:10FD1000B2F89220824201D83F200AE0521A401ADB
:10FD2000C0EB801090FBF2F010F0FF00E87000D103
:10FD30000120E87094F82000082807D121463846B1
:10FD400000F039F92146384600F053F9761C0A2EA6
:10FD5000FFF61FAFBDE8FE8F10B504460520F0F793
:10FD60007EFC2046FFF7CEFE0520F0F793FC3E48D0
:10FD7000006818B102210020F0F780FB3B480068C2
:10FD800090F8F007000639D539483B4B02783948DE
:10FD90001B788178534062F38201384A63F3410152
:10FDA0001278C270364A127862F300012D4A127836
:10FDB00062F3C30121F07001817032490978417307
:10FDC00031490279097861F30302304902710988E7
:10FDD00041812F494A88C280098801812D490A78CA
:10FDE000417962F307114171C189491CC181014602
:10FDF000BDE8104016222848F3F7B9BB10BD70B516
:10FE0000B1F90250B0F93820184CAB1A226892F8B8
:10FE1000872002F00F029A4201DAAA1A03E0564242
:10FE20009E4202DD2A44028702E0B0F85C204A804C
:10FE3000B1F90030B0F936209D1A226892F8872077
:10FE4000B5EB121F02DDA3EB121105E014096442A9
:10FE5000AC4203DD03EB1211C18670BDB0F85A004D
:10FE6000088070BD590110002423100038011000D3
:10FE700058011000AE23100057011000550110006A
:10FE800056011000384F10005803100052031000A4
:10FE9000A42310005E01100048A7012010B54FF404
:10FEA000F261634803F00FF94FF44471614803F0C5
:10FEB0000AF961490020087000F0C4F8FFF76CF8F7
:10FEC00000F0BAFBBDE81040FFF74CBA10B500F0E7
:10FED0009EFB574800F0B1FB5548FFF783F85448A4
:10FEE000FFF73AFF53490020087010BD10B5514C80
:10FEF0002078D0B15148006890F80801C00704D0BC
:10FF0000204600F078F900280ED04A49484800F011
:10FF1000CCFE474800F0A2F84548FFF763F8444894
:10FF2000FFF71AFF0020207010BDBDE81040CDE79C
:10FF300070B5404C22780F2A28D24149097801290E
:10FF400015D13E49B0F902300968B1F8E456AB4228
:10FF50001CDBB1F8E656AB4218DCB0F90030B1F862
:10FF6000E856AB4212DBB1F8EA168B420EDC02EB2C
:10FF7000820101EBC20104EB81031B1D0146342207
:10FF80001846F3F7F4FA2078401C207070BD10B5C5
:10FF9000034600205968012202FA00F4214206D0EB
:10FFA000401C40B20A28F7DB4FF0FF3010BD824002
:10FFB0001143596010BD10B54C7801234268A3402D
:10FFC0009A434260002081F8200010BD30B5002225
:10FFD0000368012404FA02F52B4205D0521C0A2AB8
:10FFE000F8DBFF20087030BD9440234303600A70A3
:10FFF00030BD10B50C7801230268A3409A4302601B
:020000021000EC
:10000000FF20087010BD0A48FFF762B909480A4985
:100010000078087070470949096891F86110C907AC
:1000200005D0024604480178024800F08BB97047B9
:10003000A8471000384F1000AC0310003801100022
:1000400091011000FE4800214170C16001704160C3
:10005000FC49096891F80E11816070472DE9F04163
:10006000002506465FF00107706807FA05F10842AF
:1000700041D005EB450006EB8014103494F82000C5
:10008000012801D0022836D12079012802D0022887
:1000900013D023E0EB49EC480968B0F9000091F86F
:1000A000A010890704D5B4F91A000021FCF73CFB25
:1000B000B4F8051081420DDB10E0E449B4F8050006
:1000C000B1F90010884216DAE148006810B100204A
:1000D000207105E021463046FFF76DFF207950B9C9
:1000E000DC49B4F80500B1F90010884203DA214672
:1000F0003046FFF760FF6D1C2DB20A2DB4DBBDE862
:10010000F0812DE9F0410446CE480025006890F8C2
:10011000082192074AD5002226780AE002EB8203E2
:1001200003EBC20304EB83031B7F012B00D10125EA
:10013000521C9642F2DC0027C14A4FF0010C012DFF
:100140000AD153685B1C536090F80D619E4203DC3A
:1001500082F800C0C2E90167012903D010780128A4
:1001600006D023E082F800C090F80D01C2E9010733
:100170000026374616E000BF07EB870000EBC700FC
:1001800004EB8001091D087E01280AD106EB8600D8
:1001900000EBC60004EB8000001D3422F3F7E7F902
:1001A000761C7F1C2078B842E6DC26702846A6E73D
:1001B00070B5A44A002319461268057811E000BF03
:1001C00001EB810404EBC10400EB840492F80961A3
:1001D000E489B4420BD892F80A61B44200D95B1C9E
:1001E000491C8D42ECDC92F80B01984201D20120AF
:1001F00070BD002070BD70B506460125FFF7D8FF21
:100200008F4C012803D06078012808D00EE001202F
:1002100060708C48006890F80C01E06006E0E068CF
:10022000002803DD401EE0600020607061783046E9
:10023000FFF767FF28B96078012802D1FFF746FE73
:100240000025284670BD7E48C168002903DD491E8F
:10025000C1600021417070472DE9F047044691428A
:1002600065D007D901EB0200A0EB0201CAB2A0EBF6
:100270000200C1B201EB810000EBC10004EB80037E
:1002800002EB820000EBC20003F1040304EB8009DF
:100290005889B9F80E1009F1040C084458811889DE
:1002A000B9F80C10084418811869D9F814100844DA
:1002B0001861D868D9F8107093F830801968DCF8A4
:1002C000006000EB0705B8F1010F32D09CF830C098
:1002D000BCF1010F2DD04FEA214C4FEA264800FB1C
:1002E0000CFC07FB08CC9CFBF5FC6CF31F410FFAE0
:1002F00081FC00FB0CF036B207FB060090FBF5F02A
:1003000060F30F01DD6019602078411E91420BD02F
:1003100000EB800101EBC00004EB8001303909F1F2
:1003200004003422F3F723F92078401E2070BDE842
:10033000F087081400EB264000EBD070401060F30B
:100340001F41DFE72DE9FC5F07464348002502789F
:100350003C48012A006807D090F873000C4600FB67
:1003600000FA4FF00109A3E090F8CB00F6E700BFD8
:1003700009FA04F02646009077E000BF009909FAD8
:1003800006F0084270D006EB860000EBC60007EBD3
:100390008000416820464CE0B04249D000EB80022A
:1003A00002EBC00207EB820252684FEA224CACEB30
:1003B000214C0FFA8CFC6CF31F45E646DFF884C035
:1003C000A2EB010212B2DCF800B062F30F059BF859
:1003D00061C0CDF804C05FEA8C7C0AD59BF874C07C
:1003E00002FB0CF84FF0640C98FBFCFC624462F3D7
:1003F0000F05019A52070BD59BF874C00EFB0CF247
:100400004FF0640C92FBFCFC0CEB0E0262F31F45F8
:100410004FEA254C0CFB0CFC2AB202FB02C25245EF
:1004200006D2DDF800C009FA00F242EA0C0200929E
:10043000401C8342B0DC04216846F2F703FD0EE065
:10044000B003100038011000720310007003100098
:100450009C010022740310006001100004E00128D8
:1004600002D1009840000090761C3B78B34285DCB6
:1004700004216846F2F7E6FC01281DD000994846A1
:1004800000FA04F20A4203D03E78C846761E0CE019
:10049000641CF5E7009908FA06F0084204D0F2B2AD
:1004A000E1B23846FFF7D8FE761EA642F2DC641CA5
:1004B0003878A0423FF75CAFBDE8FC9F2DE9F047DC
:1004C000594C0025594FDFF868914FF00A0832E087
:1004D00005EB850000EBC50004EB8001D9F80000B6
:1004E0007B78C28A5343B3FBF8F631F9043F9E424E
:1004F00020DCFE785643B6FBF8F098421ADBB1F9DF
:100500000200B0F5B46F15DD2E460CE006EB860058
:1005100000EBC60004EB800000F13801001D34221E
:10052000F3F725F8761C2078401EB042EEDC2078E8
:10053000401E20706D1C2078A842C9DCF7E63D48BB
:10054000017801290CD18168394A491C81601268FF
:1005500092F80E218A4203DC00210170C0E90112E9
:10056000704770B53249054600200A68917E148BA9
:10057000CB07D18A01D0234601E00B46214692F8F1
:1005800019622C14B44204DD92F81A629B1B9C423F
:1005900000DB012092F81B422BB2A34204DD92F84B
:1005A0001C22891A8B4200DB012070BDF0B5204E61
:1005B0000546944630680C4690F81D02C00707D0E7
:1005C000207E0027012804D0022801D185F85E7022
:1005D000F0BD2068FFF7C5FF0128F9D1BCF1010F7C
:1005E00003D02879052804D00FE085F85E70052037
:1005F0000BE015F85E0F401CC0B22870316891F80E
:100600001D12B0EB510FE3D301202076F0BD084856
:1006100000B5006890F80801C00701D0FFF713FE8D
:100620005DF804EB8BE70000384F1000A8011000C4
:1006300038011000B003100070472DE9F04100248C
:10064000012605465FF00607686806FA04F10842CD
:1006500015D004EB440005EB8011103191F8200017
:10066000032806D0042804D0052802D0022803D08D
:1006700005E081F8207002E02846FFF79CFC641C2E
:100680000A2CE1D3BDE8F08110B5052200EB82030E
:10069000521E53F83E4F12F0FF025C60F6D1C0F8D4
:1006A000421010BD5FF0000200EB8203521CD2B278
:1006B000C3F84210062AF7D370472DE9F04190465F
:1006C0001E460D46044607791A46FFF76FFF287E3F
:1006D000012801D16868286084F80180287E207193
:1006E0002869E060E8682061688920812889608144
:1006F000687EA0706869E061688BE082A88B2083C7
:10070000288CA4F80500B5F823006083288AA0820D
:100710004FF0000C012E01D07FB11AE0012084F8C7
:10072000200020462968FFF7BDFFC4F824C084F8E4
:1007300007C02868C4F83E0012E0287E022808D1CD
:10074000FD480078012804D184F804C0E079401CF9
:10075000E07120462968FFF797FF606A401C6062DD
:1007600095F8300084F8B8008CE7B0F90010B0F9C3
:100770000200494300FB0010704710B553884C88B5
:100780001B1B438012880988511A018010BD2DE976
:10079000FF4F4FF004088946526808EBC004411E21
:1007A0004FF0060C1D460CEBC000DDE90D3A144479
:1007B0001044B4F90040B0F9007000E0491E08EBA5
:1007C000C1001044B0F90000A04201D00029F5DAC0
:1007D00008EBC1001044B0F90000A0427BD10CEB43
:1007E000C1001044B0F90060491E0CEBC100104478
:1007F000B0F90000B04201D00029F5DA0CEBC100DD
:100800001044B0F90000B04278D108EBC1001044A8
:1008100007EB8702B0F900C004EB440003EB801043
:100820000CEB4C0103EB811102EBC7030AEB8302D3
:10083000D0F85200D1F852105268009206EB8602AE
:1008400002EBC6030AEB83024FEA204B0FFA80FA51
:1008500008B25268019250440BEB21424310BDF99B
:100860000200BDF90610BDF9048008444110BDF92D
:100870000000A1EB620140445944C3EB6000ADF8B5
:100880000E105044ADF80C006A4603A902A8FFF709
:1008900074FF02A8FFF769FF804601AA03A902A816
:1008A000FFF76BFF02A8FFF760FF804526D9002005
:1008B00000E0401C05EBC001B1F90410A14201D0D9
:1008C0004845F6D305EBC001B1F90420A24215D189
:1008D000CE80002101E011E0491C05EBC102B2F914
:1008E0000420624501D04945F6D305EBC101B1F9B9
:1008F0000420624504D005EBC000C780BDE8FF8F2F
:10090000CF80FBE7F0B5002118E04A1C12E04368F5
:1009100003EBC10603EBC204356823689D4208DD82
:100920006768256075686560446804EBC1042360EE
:100930006760521C03689342E9DC491C02688A42E2
:10094000E3DCF0BD70B5D0E90045062606EBC40631
:1009500035442A800425426805EBC4052A441180E9
:10096000416801EBC401641C0B60046070BDF0B50C
:10097000B1F90240B2F9025004FB05F6002E2ADD5F
:10098000B1F90060B2F900707E43002E23DD6443AC
:100990005D4394FBF5F424B24480B2F90020B1F930
:1009A00000105A43494391FBF2F10AB278230280C6
:1009B000782C00DD4380B0F902406FF077018C4263
:1009C00000DA4180782A00DD0380B0F900208A42F5
:1009D00000DA0180F0BD00214180FAE72DE9FF4FE8
:1009E000ADF27C5D81464FF6FF70CDF81C0500200E
:1009F000CDF86C050DF5A260CDF854055030CDF85A
:100A000074050020CDF8100502A8CDF814054B4858
:100A10000E46002401780DF25C5B0DF5AD6AA04630
:100A2000012903D1CDF86C15002101704FF0000CA5
:100A30000120D9F8041000FA0CF001427BD04048A4
:100A40000CEB4C0109EB81150168DDF86C251035C4
:100A5000B1F89400012A03D1B1F89C2002B11046EC
:100A60004043CDF8080591F8967005F14202111D3A
:100A70000DF25C50CDF858250191FFF77EFE0DF286
:100A80005C50FFF772FE7F434743DDF8080587425D
:100A900002DDCDF8207501E0CDF820052948017868
:100AA000012905D16FF00041CDF82015002101701A
:100AB00000275EE007EB870000EBC70006EB800035
:100AC000001DCDF80C050DF5AC60DDF85825019939
:100AD000FFF753FE05F14A010DF26450019AFFF74A
:100AE0004CFEDDF87405B0F902006430C82806D861
:100AF000DDF87405B0F900006430C82801D901237D
:100B000000E003230DF26452111F081FFFF72FFFAF
:100B1000B5F84410BBF802000844AAF80200B5F882
:100B20004210BBF800000844AAF800000DF5AD61C2
:100B30000DF25C5008E01FE0590110008601100022
:100B40003801100054011000DDF80C25FFF715FEE8
:100B50000DF25C50FFF709FE0346DDF820058342E5
:100B600006DA3AB20FFA8CF1DDF85405FFF7EAFE27
:100B70007F1C3078B8429DDC0CF1010CBCF10A0FEF
:100B8000FFF656AFDDF8100500287DD0DDF85405DE
:100B9000FFF7B8FE00210DF22C5E0DF5976B4FF0BC
:100BA000040A3AE0DDF814050AEBC1020244B2F986
:100BB0000030062202EBC10210440122B0F900C04D
:100BC000DDF88405056802FA03F005421FD1DDF85F
:100BD000887502FA0CF23F68174218D1DDF8847567
:100BE00005433D60DDF888552D681543DDF88825FF
:100BF00015600BEBC405641CAB80A5F806C0DDF8DE
:100C00001C25104203D14EF8281008F10108DDF828
:100C10001C258243491CCDF81C25DDF810058842AF
:100C2000C0DC7546B8F1000F39D0CDE90096A8F1C7
:100C300001080DF5976355F828002146DDF8542585
:100C4000FFF7A5FDEEE7641E0BEBC4010023B1F92D
:100C50000400B1F9061000EB400201EB810009EB42
:100C6000821500EBC100103506EB8001091D95F9D6
:100C700001202846FFF721FD95F82000032808D021
:100C8000042809D0072800E00BE005D0052806D18C
:100C900002E085F820A002E0052085F82000002C65
:100CA000D1D10DF28C5DBDE8F08F2DE9FC410646F7
:100CB00040680F4650B100200190009001AB6A4699
:100CC0003046FFF78BFE002401253EE0002415E0AE
:100CD00004EB440006EB801510353046FFF757F95A
:100CE000021E0ADB02EB820000EBC20007EB800170
:100CF000091D01232846FFF7E0FC641C3878A04258
:100D0000E6DCBDE8FC8100BF019905FA04F0084269
:100D10001AD13046FFF73BF9B0F1000814DB04EBC1
:100D2000840000EBC40007EB800108EB480006EBF1
:100D30008010091D103001234246FFF7BEFC0099C8
:100D400005FA08F008430090641C3878A042DBDC08
:100D500000240627716805FA04F0014218D00099B2
:100D6000084215D104EB440006EB8011103191F8D4
:100D70002000032806D0042804D0052802D0022829
:100D800003D005E081F8207002E03046FFF713F948
:100D9000641C0A2CDEDBB4E762480021416001706C
:100DA00070472DE9F04F6048D9B04FF00009056851
:100DB0004C4601AB2EAA01212846CDF80490FAF743
:100DC000FEF806465948DFF868A103680120197D3E
:100DD00011E0012200EB001C574607E002EB4C0833
:100DE00015F8088007F80180491C521C93F81480FC
:100DF0009045F3DA401C5A7D8242EADA01270DF56C
:100E0000A87B30E02EA830F817000A282AD945A878
:100E1000FBB2035547A8009001A800EB870CE04601
:100E2000624629464348FCF71FFA9DF8351101A890
:100E30000BF8071010F8273007EB47020AEB4200C7
:100E40000AF8123098F80230437098F80120827046
:100E500098F80320C2702EAA641C12F817200271A1
:100E6000E4B241717F1CB742CCDD012C1BD99DF847
:100E700014119DF815211BF901101BF902006FF0E8
:100E80003B04A1F11E0263101E2A03D8A04201DB1D
:100E9000984206DD1E381E2805D8A14203DB994280
:100EA00001DC4FF0010959B04846BDE8F08F1F48FA
:100EB00010B5006800241F49B0F91F07FCF7BFFDFB
:100EC00020B1FFF76EFF012802D00124204610BD9B
:100ED0000224FBE770B50025FFF7E9FF114C00265F
:100EE00020B1012802D002280FD019E06068401C10
:100EF0006060322807DD01254FF0AD320221AC20C1
:100F00006660F9F7DCFB26700AE06660207838B985
:100F1000012020704FF0AC320221AD20F9F7CFFB59
:100F2000284670BDC0031000640110003801100095
:100F30000898012048A701202821A64802F0C3B83C
:100F4000401A00D54042A3494A6902444A618A696D
:100F5000824200DA8861704710B59E4C2369052BE8
:100F600001DD042307E034F91310B4F90C00FFF796
:100F7000E7FF5B1E08E004EB430034F91310B0F9FF
:100F80000200FFF7DDFF5B1C012BF4DC10BD70B528
:100F9000904A0346002410782546012908D01146BE
:100FA00091F82510491CC9B2A0B101281BD020E03E
:100FB0001169491C1161E0B9012909D019DD4FF00F
:100FC00001001070507082F82550FFF7C5FF10E047
:100FD00093810EE0156182F82510142909D90124A6
:100FE000FFF7AAFF05E082F82510022901D90220A7
:100FF0001070204670BD2DE9F041764B0024764EEE
:1010000018786425012802D0022858D06AE0012906
:1010100068D1B3F90210B3F90400FFF791FF5878D3
:10102000012802D0022839D05CE0B3F90C00B3F9F2
:101030000220D969801A01D4074600E047420029FE
:1010400000DA49428F4201DDD861DA81B3F90E003E
:10105000811AD86901F0004200F00047BA4241D03D
:101060004622424392FBF5F2002901DB0F4600E0E5
:101070004F42002A00DA5242974233DD3268D28A68
:1010800002EB82029200B2FBF5F2002800DA404245
:10109000824227DA02205870196223E0B3F90E0069
:1010A000B3F90210401A196A01D4024600E0424224
:1010B000002900DA49428A4214DD186212E0D3E9BD
:1010C000041090FBF1F0586143485E780168414894
:1010D000C2695042012E08D0022E18D05FF00104E0
:1010E000FFF72AFF2046BDE8F081C98A01EB8101A4
:1010F0008900B1FBF5F1002A00DB10468142EFDAEE
:10110000002A01DD012100E00021E0201DE0C98A64
:1011100001EB81018900B1FBF5F1002A00DB1046EB
:101120008142DDDA4621514391FBF5F1186A00282E
:1011300000DA4042002900DA49428842D0DD002A24
:1011400001DD012100E00021E120F9F7B8FAC7E74D
:1011500070B50D46044601290BD11E4B042200BF79
:1011600033F8120003EB4201521E4880002AF7DCDC
:101170005C8029462046FFF70AFF0646012804D076
:1011800029462046FFF737FF304670BD70B5002670
:10119000FDF72EF8104D114B114A286890F81717DB
:1011A0001048FDF782F9012802D0012C01D00BE094
:1011B000012428680A49B0F916300A7890F8171700
:1011C0000848F7F722F8064621463046BDE8704049
:1011D000BEE700004852100038011000A4011000C2
:1011E00048031000183501200E48016841F0040141
:1011F000016030BF016821F00401016070470A4CB2
:101200000A4D0B4E2068401C206028783178084336
:1012100004D00120F2F75DFA30BFF3E7FFF7E4FFF7
:10122000F0E7000010ED00E0800110008D011000DB
:101230008C01100038B5804C002565602570A560D4
:1012400000F0B2FE0023E0601A46194618460095E9
:1012500000F050FE38BDA0F5704081B208B5002006
:10126000034602460090022000F044FE08BD08B587
:10127000714B1B79DB0608D55143002300934B00CB
:1012800002460421012000F035FE08BD08B56A4B76
:101290001B791B0708D55143002300934B000246DE
:1012A0000321012000F026FE08BDF8B50E46624974
:1012B00015461C460979890714D5014662005F4826
:1012C000F2F755F95D486A0000EB44003146F2F749
:1012D0004EF900200090281943000121574A084682
:1012E00000F008FEF8BDF8B50E46534915461C46F9
:1012F0000979C90714D0014662005048F2F737F95E
:101300004E486A0000EB44003146F2F730F9002005
:10131000009028194300494A0021012000F0EAFD0D
:10132000F8BD454A08B51279120607D50022009289
:101330004B0002460721012000F0DCFD08BD3E4ABB
:1013400008B51279520607D5002200924B000246DA
:101350000621012000F0CEFD08BD002008B503469F
:10136000024601460090032000F0C4FD08BD08B508
:101370000020034602469621009000F0BBFD08BD08
:1013800008B50020034602469721009000F0B2FD08
:1013900008BD08B50020034602463221009000F047
:1013A000A9FD08BD08B50020034602463321009080
:1013B00000F0A0FD08BD08B50020034602466421E8
:1013C000009000F097FD08BDF9F7A1BA10B51A4CCE
:1013D0002078012809D1A06808B1042100E0082183
:1013E0000620EFF74BF80020207010BD012303FA10
:1013F00000F2114830B4446801290ED094432246CB
:10140000C0F80440846802F003018C4201D00370EC
:1014100081602AB14FF4806104E022434260F1E729
:101420004FF4006130BC0220EFF728B800F0ACB8F0
:1014300000F0C2B800F0CBB8C80310007052100022
:1014400070B5694D04462878A04213D0A01E062826
:101450000FD2DFE800F0090C0C0E0306FFF787FF40
:1014600007E0FFF78DFF04E0FFF79CFF01E0FFF7C7
:1014700090FF2C7070BD5C4D08B500266E70FFF7B4
:10148000D9FE5A4C6878002866D00128FAD1FFF7B7
:101490009DFF6B460022FD210520EFF73FF80098E5
:1014A000C00706D06E70FFF786FF01210520EFF719
:1014B00014F80098400707D54D480088FFF7CBFE89
:1014C00004210520EFF709F80098400605D5FFF73D
:1014D00044FF40210520EFF700F80098000713D5DE
:1014E0002068427D017D434800EB4100FFF7BFFECD
:1014F0002068427D017D404800EB4100FFF7C6FEB9
:1015000008210520EEF7E9FF0098C00611D52068F4
:101510003A49437D027D3A48FFF7C7FE20683949C2
:10152000437D027D3848FFF7DEFE10210520EEF7EF
:10153000D4FF0098800603D520210520EEF7CDFFCB
:10154000009800069ED531480078FFF779FF80218A
:101550000520EEF7C2FF95E705210020F1F729FEEF
:101560006B46002202210520EEF7D8FF052101205D
:10157000F1F71FFE0098800784D5FF210520EEF7C4
:10158000ACFF012068707DE720480078072803D170
:1015900040210220EEF772BF70471D49002008600D
:1015A0001B4901202031086070471949002008605C
:1015B0001749203108607047164910B5012008709E
:1015C000FFF7EBFFBDE810400520EFF739BA1149EE
:1015D00010B5024603200870FFF7DFFFBDE810409A
:1015E0001046EFF738BB0000D80310003801100098
:1015F000A00110000C0A100048A70120822E012033
:10160000462E0120D83401209C3401207C0110009A
:1016100028090022A2011000FE4800218160C1605B
:101620004160704710B54FF00854D4F88401002889
:1016300011D0F8498868420706D440F00400886059
:1016400004210220EEF71AFF40210220EEF716FFD8
:101650000020C4F8880110BD2DE9F0414FF0085674
:10166000D6F88401002840D106210120F1F7A1FD20
:10167000E84C0025E848A560E56065600560E7483E
:10168000E74F04210170396891F8A010C90701D013
:1016900006210170F2F75CF94FF400710220EEF7B9
:1016A000EDFE02210120EEF7E9FE02210320EEF714
:1016B000E5FE08210020EEF7E1FE02210420EEF70E
:1016C000DDFE02210520EEF7D9FE25706570F8F7E2
:1016D0009CFF386890F88003000703D52021012083
:1016E000EEF7CCFE0120C6F88401BDE8F08170B5AC
:1016F0004FF00855D5F88401002831D0C6480024A1
:10170000012104600846EEF7B9FEC2480421846056
:101710000220EEF7B3FE10210420EEF7AFFE802189
:101720000320EEF7ABFE4FF480710220EEF7A6FE29
:1017300001210320EEF7A2FE04210020EEF79EFE19
:1017400001210420EEF79AFE01210520EEF796FE16
:10175000C5F88441BDE8704006210020F1F729BD9D
:1017600070BD70B5AB4CA168C8072CD1AA4840F633
:10177000050302681A43AB4B02601D6845F0200563
:101780001D60A74B1B6893F8B031DB0705D011F43F
:10179000017F02D142F0420101604FF480610120DB
:1017A000EEF76CFEA068042140F0010040F40060F8
:1017B000A0600220EEF762FE80210320EEF75EFEBD
:1017C00099490120086070BD924810B58168CA0728
:1017D0000FD021F0010121F4006181600421022079
:1017E000EEF74CFE80210320EEF748FE8E490020E4
:1017F000086010BD8A4810B5006890F8C001C007A5
:1018000011D08449886842060DD5884B002220F00B
:1018100040001A70886004210220EEF72FFE80211C
:101820000320EEF72BFE804900201031086010BD28
:101830007B4810B5006890F8E006C00707D07C4CE4
:101840002078012803D1FFF7D5FF0020207010BDBC
:10185000734810B5006890F8C001C00715D07349EF
:10186000002008706B49886842060ED440F04000A2
:10187000886004210220EEF701FE80210320EEF7AC
:10188000FDFD694901201031086010BD644810B5A4
:10189000006890F8E006C00707D0654C2078002863
:1018A00003D1FFF7D5FF0120207010BD10B54FF018
:1018B0000854D4F88401002806D008210220EEF74D
:1018C000DDFD0120C4F8880110BD10B54FF00854AB
:1018D000D4F88401002806D010210220EEF7CEFDB6
:1018E0000020C4F8880110BD10B54FF00854D4F89A
:1018F0008401002807D04FF480510220EEF7BEFD8E
:101900000020C4F8880110BDEFF726BA444810B58E
:10191000006890F85001C0070ED03E498868420721
:101920000AD520F00400886004210220EEF7A6FD0D
:1019300010210420EEF7A2FD3B490020091D08609C
:1019400010BD3448002141700078002800D1DDE747
:10195000704770B53248006890F85001C0070CD04D
:101960002C4C207A400708D43248007830B1E06827
:1019700040F00400E0600520606070BD2E48012545
:101980000570F1F7E5FF2D4840F62202016841F0AD
:1019900020010160E06820F00400E0601E4801685A
:1019A00011430160A9020120EEF768FDA06804213F
:1019B00040F00400A0600220EEF760FD102104203A
:1019C000EEF75CFD1848001D056070BD114901204F
:1019D0004870BEE710B50F4800240470407808B97D
:1019E000FFF794FF1648047010BD0A4901200870E3
:1019F000AFE70B4810B5006890F8E80100282AD03E
:101A000004498868820726D520F0020088600421F6
:101A1000022017E0DC031000400110008E011000CE
:101A200038011000440110008C0100225201100006
:101A300091011000550110007901100048011000BB
:101A4000CA011000EEF71AFD80210320EEF716FD03
:101A5000AB490020086010BDAA4810B5006890F896
:101A6000E80100281CD0A84C207A800718D4A74889
:101A7000016841F0100101604FF480610120EEF730
:101A8000FDFCA068042140F00200A0600220EEF7F7
:101A9000F5FC80210320EEF7F1FC99490120086054
:101AA00010BD70477047EFF739B9984841F6B73223
:101AB0000168114301604FF480610120EEF7DEBC44
:101AC000934840F6A212016841F0100101608F486E
:101AD0000168114301604FF480610120EEF7CEBC34
:101AE0008A4841F615020168114301604FF4806194
:101AF0000120EEF7C3BC4FF480410120EEF7BEBCDD
:101B00004FF400510120EEF7B9BC08210120EEF797
:101B1000B5BC04210120EEF7B1BC704710210120B3
:101B2000EEF7ACBC20210120EEF7A8BC402101203B
:101B3000EEF7A4BC7348006890F8C800C00705D051
:101B4000744901200870CC20F8F77BBE70477149BA
:101B500000200870CD20F8F774BE70470A46B0F533
:101B6000805F014602DA6748006801E04FF4F83010
:101B7000F8F75CBDF0B54FF40064B0F5805F02D2B9
:101B8000604B1D6803E0A0F580504FF4F83500234A
:101B900003E0D65C1F185B1CEE558B4201DAA342B2
:101BA000F7DBF0BD10B5574C40F2FF112068EEF79F
:101BB00019FE22684FF40071C2F8FC071046EFF7D7
:101BC00032FBBDE810400320F8F73BBE10B54FF4E0
:101BD000F83440F2FF312046EEF704FE4E4908602B
:101BE0004FF480612046EFF730FBBDE81040042041
:101BF000F8F727BE00B587B0FF221821684601F02C
:101C000038FA6846EFF752FA6846F8F790FD07B0E1
