:100000005555AAAA081500000000000000000000D5
:100010008BE3000000000000000000009290771EBB
:100020000002100005080000890200009F02000085
:10003000B5020000CB020000E10200000000000059
:10004000000000000000000000000000392F000048
:100050003D2F000000000000F70200003F2F0000CD
:10006000412F0000F12C0000B52F0000292D0000C9
:10007000592F00005B2F00005F2F00006D2F000044
:100080007F2F0000812F0000832F0000A12F000090
:10009000A32F0000B72F00000000000000000000A8
:1000A000B92F0000BB2F000000000000000000007E
:1000B00000000000BD2F0000BF2F00003D2D0000FC
:1000C000C12F0000CF2F000009030000E72F000020
:1000D000E92F000000000000000000000000000008
:1000E0000815000000F002F800F05AF80AA090E8A5
:1000F000000C82448344AAF10107DA4501D100F0E3
:100100004FF8AFF2090EBAE80F0013F0010F18BF55
:10011000FB1A43F001031847805C0100A05C01005A
:100120000A444FF0000C10F8013B13F0070408BF1D
:1001300010F8014B1D1108BF10F8015B641E05D0BB
:1001400010F8016B641E01F8016BF9D113F0080F70
:100150001EBF10F8014BAD1C0C1B09D16D1E58BF02
:1001600001F801CBFAD505E014F8016B01F8016B39
:100170006D1EF9D59142D6D37047000000230024AC
:1001800000250026103A28BF78C1FBD8520728BFA7
:1001900030C148BF0B6070471FB51FBD10B510BD03
:1001A000DFF80CD0FFF7F8FF03F09CF815F07EFBAA
:1001B0000002100003B4FFF7F1FF03BC15F07EFB53
:1001C0000A484FF0FF0101704FF0000080F31188E2
:1001D0004FF0000080F3098805484FF002010170DC
:1001E00062B604484FF080510160704722ED00E094
:1001F0000002100004ED00E002484FF08051016061
:100200007047000004ED00E04FF0200080F31188FB
:10021000EFF3098098B112480068124909688842D2
:1002200017D0EFF309800E49096820E9F00F8860C4
:1002300000B50B48006800F0F2F85DF804EB0848E0
:1002400008490A68026000688168B1E8F00F81F32C
:1002500009884EF0040E4FF0000080F311887047BB
:100260000402100008021000EFF311804FF020018B
:1002700081F31188704700004FF0000080F311886F
:100280007047000062B6704772B6704740BA704758
:10029000C0BA7047401E0028FCDC704700BE7047A3
:1002A00040BA7047C0BA70471EF0040F0CBFEFF39E
:1002B0000880EFF309804FF0010102F0A9BD1EF0A4
:1002C000040F0CBFEFF30880EFF309804FF0020139
:1002D00002F09EBD1EF0040F0CBFEFF30880EFF399
:1002E00009804FF0030102F093BD1EF0040F0CBF14
:1002F000EFF30880EFF309804FF0040102F088BDAE
:100300001EF0040F0CBFEFF30880EFF309804FF0ED
:10031000050102F07DBD4FF0000000B503F08CFD3B
:100320005DF804EBFFF770BF1EF0040F0CBFEFF396
:100330000880EFF309804FF0000102F069BD000072
:10034000194910B5012008701849002008601849A3
:100350000860184908601849086000F0B9F900F011
:100360004BF900F063F8002010BD10B5114800F003
:100370002AF90F4908600D490968884207D00A48E0
:100380000078022803D1BDE81040FFF735BF10BD4B
:1003900010B5FFF7EAFF044902200870FFF710FFCD
:1003A0004FF0FF3010BD00000002100004021000EA
:1003B000080210000C0210001002100070B50D466B
:1003C0000446C1698068CC2215F073F9E169A06820
:1003D000084440384FF08071C163216A8163002175
:1003E00041630163C1628162C0E908514FF00B3182
:1003F000C1614FF00A3181614FF0093141614FF025
:10040000083101614FF00731C1604FF00631816062
:100410004FF0053141604FF00431016070BD8269D9
:100420008168914201D803F026B8704710B54FF4A7
:10043000B4714F4815F067F9002010BD70B505463E
:1004400000EBC5014A4800EB8104FFF70DFF0646AB
:10045000207828B13046FFF70FFF6FF0010070BD24
:100460000320207000206560206204F11C0000F071
:1004700083F83046FFF700FF002070BD2DE9F04102
:100480000F463B49002500EBC00001EB80042E46DF
:10049000FFF7EAFE8046206A3843206204F11C0020
:1004A000074600F090F80CE0216A026C114203D07C
:1004B00000F066F9012600E06D1C2946384600F080
:1004C00078F80028F0D1012E01D1FFF74EFF404609
:1004D000FFF7D2FE0020BDE8F08170B50D4624493B
:1004E00000EBC00001EB8004FFF7BEFE216AA943C8
:1004F0002162FFF7C1FE002070BD70B50C461C499B
:1005000000EBC00001EB800500202060FFF7ACFE8F
:10051000296A2160FFF7B0FE002070BD2DE9F0418F
:100520000D46134900EBC0001E46904601EB8004C7
:10053000FFF79AFE07460F4800680564216A2942C2
:1005400003D104F11C0100F02DF93846FFF794FEA9
:10055000FFF78AFE216A29403160B8F1010F02D10C
:10056000216AA9432162FFF787FE0020B3E700005C
:100570005005100004021000002101600846704779
:1005800030B50A6812B10B46C46B09E0002208605E
:10059000C0E903210BE000BF02F10C03D26812B1E5
:1005A000D56BA542F8DC1A68C0E903211860002069
:1005B00030BD0068002201E0C068521C8A4201D0B0
:1005C0000028F9D170470068704702690AB11168C4
:1005D00031B96FF00400704701F10C02C96839B1FC
:1005E0008142F9D1C9681160002101610846704754
:1005F0006FF003007047000010B54FF4C871324827
:1006000015F081F8002010BD2DE9F041884605461F
:100610002D4900EB8500174601EBC004FFF724FECF
:100620000646207830B13046FFF726FE6FF0010015
:10063000BDE8F08102202070E7611422414604F1F8
:100640000800656014F0F0FF0020206204F124002F
:10065000FFF792FF3046FFF70FFE0020E8E770B586
:10066000194900EB800001EBC004FFF7FDFD0546D2
:10067000D4E90701814205DB144804F12401006834
:1006800000F090F8206A401C20622846FFF7F4FD35
:10069000002070BD70B50C4900EB800001EBC00478
:1006A000FFF7E2FD0546206A08B1401E206204F112
:1006B0002400FFF788FF10B1606A00F011F82846A7
:1006C000FFF7DAFD002070BDB8061000040210002C
:1006D00010B54FF42A71404815F015F8002010BDF0
:1006E00010B5044690F8380002280BD02046FFF7DA
:1006F0006CFF022084F8380038492046FFF740FF9D
:10070000FFF733FE002010BD2DE9F05F8B46064653
:10071000314900EB06109046DDE90AA911F82020C6
:100720001D461AB16FF00100BDE8F09F01EB800497
:10073000FFF79AFD074601202070C4E90165C4E96E
:100740000585C4E907A91422594604F1240014F0D0
:100750006BFF002084F8370084F838006169E0609E
:100760002061C4E90F1020460C99FFF727FEA06016
:100770002046FFF7B5FF3846FFF77EFD0020D3E7A0
:1007800010B5044690F83800022809D02046FFF73B
:100790001CFF022084F8380010492046FFF7F0FEC5
:1007A000002010BD70B5044690F838000D460228B0
:1007B0000BD12046FFF709FF032084F838002946B3
:1007C0002046FFF7DDFEFFF7D0FD002070BD044896
:1007D0000068406870470000480810000C021000D4
:1007E00004021000F0B58446002004460C4F14E0CB
:1007F0005CF824600323DD0046FA05F280EA02601B
:100800000825002802DA87EA400000E040006D1E5B
:10081000002DF6DC5B1EEED5641C8C42E8DBF0BDDF
:100820001B0000801248804712480047FEE7FEE7A1
:10083000FEE7FEE7FEE7FEE7FEE7FEE7FEE7FEE790
:10084000FEE7FEE7FEE7FEE7FEE7FEE7FEE7FEE780
:10085000FEE7FEE7FEE7FEE7FEE7FEE7FEE7FEE770
:10086000FEE7FEE7FEE7FEE7FEE7FEE7FEE7000045
:10087000AD080000C50000001E4800684FF00051A0
:10088000002891F8210000F01C000DD0042805D0AC
:10089000082805D00C2805D096200CE011200AE08D
:1008A000252008E04B2006E0042809D0082809D0BC
:1008B0000C2809D07020401E01F82C0F08707047DA
:1008C0000C20F8E71B20F6E73720F4E770470A49C9
:1008D00093200870D0E708490B200870CCE7054842
:1008E000006818B904480078932801D000207047A8
:1008F00001207047340400222100002070B504203C
:1009000000F0B5F9052000F0B2F9062000F0AFF9CB
:10091000072000F0ACF9082000F0A9F9182000F039
:10092000A6F9192000F0A3F91A2000F0A0F9E14976
:1009300000200860DF4A40321060DE4B183B186030
:10094000DC4B08331860DC4CE071DA4B143B186068
:10095000D84B0C3318602072D64B103B1860D54B27
:10096000103318606072D34B0C3B1860D14B1433BA
:100970001860A072CF4B083B1860CE4B183318603C
:10098000E072CC4B28331860A0731E1D3060E073FA
:10099000331D1860207401250D6015602570062137
:1009A000042000F07CF90621052000F078F90621EA
:1009B000084600F074F90621072000F070F90621BE
:1009C000082000F06CF90621182000F068F90621D3
:1009D000192000F064F904211A2000F060F90420C5
:1009E00000F051F9052000F04EF9062000F04BF917
:1009F000072000F048F9082000F045F9182000F021
:100A000042F9192000F03FF91A2000F03CF90420C7
:100A100000F021F9052000F01EF9062000F01BF976
:100A2000072000F018F9082000F015F9182000F050
:100A300012F91A2000F00FF9FF20E070356070BD48
:100A400000EB80009B494000002218390A609A4A56
:100A5000521F107001200860704796490020183915
:100A60000860704700EB8000924940000022143972
:100A70000A60914A121F10700120086070478D496A
:100A8000002014390860704700EB8000894940005D
:100A9000002210390A60884AD21E107001200860B6
:100AA00070478449002010390860704700EB8000CF
:100AB0008049400000220C390A607F4A921E107063
:100AC0000120086070477B4900200C39086070479E
:100AD00000EB800077494000002208390A60764A1E
:100AE000521E1070012008607047724900200839BA
:100AF000086070477149097848430A21B0FBF1F159
:100B00006F48491E80F86010582181761121C17606
:100B1000042280F860205C228276C17670476848A3
:100B2000002180F860105C2181761121C176704728
:100B3000604A10B5283214680123D10664B100243C
:100B4000146081F8350091F8420000BF91F84240EE
:100B50008442FBD0136010BD81F83500FAE700EB4A
:100B6000C00101EB00106FF0030101EB800010B534
:100B70005449554C0978B0FBF1F0401E80B2FF2873
:100B80000CD9010A2170494200EB01206070FF205E
:100B9000FFF7CEFF2078401E207010BD002121708D
:100BA0006170BDE81040C0B2C2E742482830016819
:100BB000002909D000210160C10691F8420000BF60
:100BC00091F842208242FBD0704710B53E4C21780C
:100BD000607851EA000207D051B1FF20FFF7A8FF6B
:100BE0002078401E207010BDBDE810400AF0C4BA45
:100BF000FFF79EFF0020607010BD2E4A10B5303206
:100C000014680123590794B10024146081F8370057
:100C100091F8420091F842408442FBD0136091F871
:100C2000420000BF91F842208242FBD010BD81F803
:100C30003700F3E71F483030016800290AD000214F
:100C400001604FF0005191F8420000BF91F842203E
:100C50008242FBD0704700F01F0201219140400901
:100C60004FF0E02202EB8000C0F80011704700F066
:100C70001F020121914040094FF0E02202EB800069
:100C8000C0F88011704700F01F0201219140400917
:100C90004FF0E02202EB8000C0F880127047490755
:100CA000090E002803DA00F00F00084A00E0084AA5
:100CB000815470471C05002233000020C20210003E
:100CC00000100020C10210001402100014ED00E01A
:100CD00000E400E049480121016000210160704703
:100CE00047480121016000210160704710B50020D4
:100CF00000F06BF8FFF7F4FFFFF7ECFF414900202D
:100D000008604149A0200870002000F06AF8BDE8A2
:100D10001040002000F04DB83A4801211C38016015
:100D200000210160704710B5002000F04EF83349F3
:100D300001200860002000F054F8BDE810400020B9
:100D400000F037B82D4901201C39086070472F4842
:100D500000782E49491C0978401A00F03F0070477E
:100D60002B4902780A7042784A7082788A70C27879
:100D7000CA7002790A7142794A7182798A71C0799E
:100D8000C871704723480068417882784FF000505E
:100D9000437A0374204B1B78437443891B0A837482
:100DA0004389C37401754275C1798175017AC17532
:100DB000704700F01F020121914040094FF0E022EE
:100DC00002EB8000C0F80011704700F01F02012103
:100DD000914040094FF0E02202EB8000C0F8801102
:100DE000704700F01F020121914040094FF0E022BE
:100DF00002EB8000C0F88012704700005C84002283
:100E0000A00000227C04002200E400E02004002076
:100E1000000200203C021000B502100010B50920AD
:100E200000F054F80A2000F051F8092000F05AF8B8
:100E30000A2000F057F80521092000F05FF805218D
:100E40000A2000F05BF833487F2141707C228270D9
:100E50000171002100F848192F490A684FF001017B
:100E600092F8C830DC070AD09C0708D590F84A40B1
:100E7000C3F3820301FA03F39C4380F84A4092F8DB
:100E80001131DC0721D0C3F34203012B03D0234BE4
:100E90004FF480641C604830837802F21112147899
:100EA000C4F3420401FA04F4A34383700379147871
:100EB000C4F3420401FA04F4234303710378127863
:100EC000C2F3420291400B43037010BD00F01F02B9
:100ED0000121914040094FF0E02202EB8000C0F870
:100EE0008011704700F01F020121914040094FF02E
:100EF000E02202EB8000C0F8801270474907090E1B
:100F0000002803DA00F00F00054A00E0054A81548A
:100F100070470000480000203C02100000E100E0A3
:100F200014ED00E000E400E0704710B5044602460E
:100F30002A21002000F06EF9221D2B21002000F054
:100F400069F904F108022C21002000F063F904F192
:100F50000C020F21032000F05DF92068000E032829
:100F600025D304F114022D21002000F053F904F1DF
:100F700010022E21002000F04DF904F11C022F2157
:100F8000002000F047F904F118023021002000F0A1
:100F900041F904F124023121002000F03BF904F171
:100FA00020023221BDE81040002000F033B910BD0E
:100FB00008B507216A46084600F02CF9009808BDDC
:100FC00010B5BE4C072060700020207044F2C000B5
:100FD000608000BF00BF00BF4CF2C000608000BF57
:100FE00000BF00BF4CF2E00060800920FFF752F91B
:100FF00044F2E000608000BF00BF00BF4FF48040BB
:10100000608010BDF0B500252E464FF00054E0275B
:1010100017E000BF883401F03F01607021706780E5
:1010200000BF00BF00BFD4F808C043F825C06680E9
:10103000883C00BF6D1C521E491C3F2901D9401C31
:10104000C0B2002AE6DCF0BD2DE9F0479B4D00263A
:10105000AD1C04462E80DFF868920121C9F880108B
:101060004FF4C058A5F8008000BF00BF00BF00BF0C
:1010700000BF4FF480572F803520FFF70BF92E80EB
:10108000FFF79EFF00F0DCF85C2000F0EAF8234652
:10109000012208210020FFF7B5FF231D01220921AD
:1010A0000020FFF7AFFF04F1080301220A2100200E
:1010B000FFF7A8FF04F10C0301220B210020FFF72A
:1010C000A1FF04F1100301220C210020FFF79AFF79
:1010D00004F1140301220D210020FFF793FF00F01B
:1010E000AFF8FFF76DFF2F8000BF00BF00BF00BF4C
:1010F00000BF00BF00BF00BF00BF00BFA5F8008059
:1011000000BF00BF00BF00BF00BF4FF44060288099
:10111000C9F88060BDE8F087F0B54FF0000C059C81
:101120000CB14FF0800CC5B200264FF00057644C54
:1011300028E000BF87F889504FEAC05EBEF1000F7B
:1011400001F03F0E4EEA0C0E01DA4EF0400E87F829
:1011500088E053F826E0C7F88CE04FF0010EC4F8A1
:10116000B0E04FF0000EC4F8B0E0491CC9B240290D
:1011700002D36D1CEDB20021D4F8C0E0BEF1000F27
:10118000FAD1761C9642D5DBF0BD4FF0005282F8C2
:101190008900002309B1802002E0C00503D540206A
:1011A00082F8880001E082F8883045480121C0F8C3
:1011B000AC10C0F8AC3000BFD0F8C0100029FBD193
:1011C0007047F8B50C4605464FF4F47600213046DA
:1011D000FFF7DBFF0020014600902B4622463046F9
:1011E000FFF79AFFF8BDF8B50C4605464FF4F876C0
:1011F00000213046FFF7C9FF00214FF4FC70FFF7D4
:10120000C4FF0020014600902B4622463046FFF7DF
:1012100083FFF8BD294B587041F0800003F888091E
:1012200027480021B4300160012140F8B41900BF03
:10123000D0F8C0100029FBD1D3F89000106070479F
:1012400010B51E4C4FF48040A41C20800420FFF7F2
:1012500021F80020208000BF00BF00BF00BF00BFFA
:1012600010BD70B5154C2126A41C268000BF00BF00
:1012700000BF00BF00BF40F02105258000BF00BFB8
:1012800000BF00BF00BF44F22101084320800420BA
:10129000FFF700F8258000BF00BF00BF00BF00BF00
:1012A000268000BF00BF00BF00BF00BF002020801D
:1012B00000BF00BF00BF00BF00BF70BD880000209E
:1012C00000100022F8B5FF4D002634466E70EE6027
:1012D0002E616E610120AE6101F002F80C2000F079
:1012E000FFFF032000F0FCFF172000F0F9FF0120B2
:1012F00001F002F80C2000F0FFFF032000F0FCFFDB
:10130000172000F0F9FF01F05FF86A460221EE486D
:1013100001F0E7FCED499DF80000ED4A08709DF8EA
:1013200001101170442800D0042601F064FA01F085
:1013300058FA0521012000F0EBFF05210C2000F0F8
:10134000E7FF0621032000F0E3FF0621172000F04D
:10135000DFFF012000F0B8FF032000F0B5FF1720E9
:1013600000F0B2FFEC70AC702C713046F8BD70B577
:10137000D44B1889C0F38001C0F34016C0F3002499
:101380007140C0F3C0226140C0F3803551406940D4
:10139000400840EAC130188170BDD065704738B54B
:1013A0000D46009014460421684602F0C7F8C9496A
:1013B0008978C90602D5072D00D1401C00996165C6
:1013C00084F8530038BD2DE9F04FC34D0646C14C9B
:1013D00028688BB090F83404C00718D0608840F0BB
:1013E00080006080FFF7C3FF296800F00700084411
:1013F00090F8350484F84100FFF7B9FF2968C0F37D
:101400000210084490F83504800084F840004FF042
:10141000000984F84B902868AA4F062E90F84507DB
:101420006075387802D0062825D010E006280ED046
:1014300001208DF80000684602F00DFA684601F0C0
:10144000ABF8684601F05FF8684601F08AFBA348F4
:10145000BA463E70C0F30E074FF00208042E0DD0BE
:10146000032E25D04FF0040B022E45D0052E5FD061
:10147000062E7CD0C5E08DF80090DCE7954A314619
:10148000E06AFFF78CFF206BE065A4F84C70A07851
:1014900080060028286890F8580703DA20F0060034
:1014A00040F0040084F8510084F85280E9203CE0C8
:1014B000884A3146E06AFFF772FF206BE065854895
:1014C00004212C3002F03AF8844901EB8000C0F38B
:1014D0000E00A4F84C00A07880060028286890F838
:1014E000580703DA20F0060040F0040084F85100A9
:1014F00084F85280ED2018E0764A3146E06AFFF722
:101500004EFF206BE065A4F84C70A07880060028A0
:10151000286890F8580703DA20F0060040F004002D
:1015200084F8510084F852B0E52084F84E0068E059
:10153000A078800665D52868323400F2C930654A43
:101540000178A174C1782175417821768078A071E5
:10155000607E314640F00100607654F8060CFFF7DB
:101560001EFF5F48C0F30E006083286800E00CE0B7
:1015700090F8580720F0060040F00200E07784F869
:101580002080E9202077323C3BE0524A3146E06A35
:10159000FFF705FF206BE0655048F830C0F30E0000
:1015A000A4F84C00A07880060028286890F8510222
:1015B00003DA20F0060040F0040084F851003434CF
:1015C00084F81EB0286800F25220018821804188EA
:1015D0006180817A2171C27A6271C388E380038954
:1015E0002381A172E272017B217490F84115A174EC
:1015F000407BA075E520A076E07D40F00400E0751A
:10160000343C286890F80A17C907A1784FEA81711D
:1016100020D0002920DB94F84B10490721D490F802
:101620000907C0070DD00021012002F05AFD94F8EF
:101630004F0020F00300801C84F84F00A4F8429073
:1016400013E00121084602F04CFD94F84F0040F0F1
:10165000030008E0002904DA90F8660720F0030090
:1016600001E090F8660784F84F00607D20F00400E8
:1016700060758AF802600BB01648BDE8F04F01F0C3
:101680009CB915481349006890F8002281F8212080
:1016900090F80122CA754A88D20504D490F8022233
:1016A00002F00F028A7500F20320027802F03F0276
:1016B0000A76B0F801208A83C2788A77007900F030
:1016C000F0000FE01802100004100020B402100017
:1016D000B5021000F00A10003C021000009E01202C
:1016E000F09F0120F74A127840EA1210C87770473D
:1016F0002DE9F047F44C0546002084F84B00F34FE9
:10170000E12084F84E003868DFF8B893F04E90F886
:101710004517617590F80A175FEAC1782146B1F85C
:1017200002C0CB7D0CF0FF024CF0010104D05FEA57
:101730008C7C01D4012D08D0DFF89883082D0BD0C4
:10174000072D3CD0092D58D032E07371B2710A22B6
:10175000E2756180DF4911E07371B2716180417D92
:10176000027D4B1C94F860C003FB02F1BCF1010F39
:1017700002D902FB0CF1594308EB4101C1F30E0100
:10178000A4F84C1090F8531799F8002001F0F001DC
:1017900002F00F021143E17790F8550784F8210019
:1017A000C94A29465FF00100FFF7F9FD2069E065AD
:1017B00060884107617D2ED521F0040131E0427D32
:1017C000338B017D521C5A43514308EB4101C1F355
:1017D0000E01A4F84C1090F8531799F8002001F06E
:1017E000F00102F00F021143E17790F8550784F8F9
:1017F0002100B54A2946E068D6E7B748C0F30E0095
:10180000A4F84C00FFF73DFFAF4A2946606AFFF796
:10181000C6FDA06ACBE73A6892F8452702F00402B9
:1018200011436175C10705D094F84E1041F00201D3
:1018300084F84E1039684FEA807091F80A27D20771
:1018400018D0002818DB072D04D0092D02D0012D57
:1018500005D01AE014F84F0F20F0030008E0002133
:10186000012002F03EFC14F84F0F20F00300801C12
:1018700020700AE0002804DA91F8660720F00300DF
:1018800001E091F8660784F84F00B570BDE8F047B5
:101890008D4801F023B8072810D009280ED0012860
:1018A0000CD008280AD0042807D0032805D0052822
:1018B00003D0022801D0062801D184E518E770473B
:1018C0002DE9F843824D8146012901D10020E871BC
:1018D000EC79824E641C7D4FDFF8EC810FE03868B4
:1018E00090F80A07C00702D098F80200800756F85F
:1018F0002420694648469047012805D0641C0A2CDC
:10190000EDD90020BDE8F883EC719DF80000F9E7FF
:101910002DE9F0410546008800283AD06422294686
:10192000694802F0BEF9FEF752FF694C0027674E86
:10193000C4E90670306890F80A07C0070AD0A87892
:10194000800707D46049088810F0760F02D040F075
:1019500080000880A07800281BD101215A48FFF799
:10196000AFFF050015D05E4901200870306890F87F
:10197000101149070FD590F8430780070BD401F0E9
:101980008CF90220E07001F08CF9192001F0A1F926
:10199000A570BDE8F08167702846BDE8F0417AE7A0
:1019A00000207047C268120006D00088C00503D529
:1019B000082008700120704700207047C26812009C
:1019C00006D00078C00703D00720087001207047B8
:1019D00000207047426A120006D00078000703D545
:1019E000092008700120704700207047C26812006B
:1019F00005D00078000602D501200870704700204D
:101A00007047C26A120008D0026B32B100788006BB
:101A100003D5022008700120704700207047C26A79
:101A2000120006D00078C00603D5052008700120FA
:101A3000704700207047C26A120006D00078800705
:101A400003D5042008700120704700207047026B06
:101A500032B10078400703D5032008700120704799
:101A600000207047C26A120008D0026B32B10088B1
:101A7000400503D5062008700120704700207047FC
:101A800000200870012070472DE9F0410E48042124
:101A90002C3001F053FD04460B480421303001F096
:101AA0004DFD0B4F0546DFF82080B8780D4E042819
:101AB00001D002281ED198F80200800614D5A20099
:101AC000084914E0F6FF0100F00A10003C02100083
:101AD000180210000080012070A00120A858010009
:101AE000BF021000009E0120620006EB4401F8488E
:101AF00002F0D7F8B878032801D0022811D198F85D
:101B00000200800603D5AA0006EB840104E005EB81
:101B100044006A0006EB4001BDE8F041ED4802F0E8
:101B2000C0B836E730B587B001208DF80000EA482C
:101B3000EA4DEB4C006890F80A07C0070AD0A87875
:101B4000800707D4A078012804D102208DF8000076
:101B500009F01BFB00F005FCE248019000F5F05095
:101B60000290217900F51C7000EB410003900020E9
:101B70002071DD480490A9686846884707B030BDE9
:101B8000F0B5D54B47F6FF7201291B6803D01B7DCA
:101B9000D64C00211EE0D54C5B7D3C3CF9E70D188E
:101BA000EDB2D34FEE18F6B237F815E007F1800C1E
:101BB00037F816703CF815503CF81660AEEB05058A
:101BC000BE1B35442DB224F81150954200DA2A4646
:101BD000491CC9B29942E2D3002006E034F8101043
:101BE000891A24F81010401CC0B29842F6D3F0BDF8
:101BF0002DE9FC5F01200026B74CCDE9006020688C
:101C0000BC4D90F80017C9072FD0B44991F848701F
:101C100007B90127B149DFF8C88291F8471091FB55
:101C2000F7F10FFA81FB98F80210042902D003297A
:101C300003D00CE0407D460024E0007D04214600F6
:101C4000A6482C3001F07AFCAA4901EB800598F8EF
:101C5000020002280AD005280FD0042812D0032839
:101C600010D002280ED005280CD0DBE12068A14D51
:101C7000417D007D0844460004E020689A4D3A26E4
:101C800090F801B7D8F80C108A465945EDDCBAF146
:101C9000000F05D194484FF4F871943013F033FDE0
:101CA000C64698F80200DFF84882002108F1800853
:101CB000A8F5AA692BE000BF59F8213035F911C009
:101CC0000428634449F8213001D003281ED1BAF119
:101CD000000F07D1864A002322F8113047F6FF7221
:101CE00028F81120DFF808C235F911203CF911302D
:101CF0009A4200DC1A462CF8112035F9112038F9E7
:101D000011309A4200DB1A4628F81120491CB142D2
:101D1000D2DB0AF10101CEF80C1059457ADB002321
:101D2000DFF8D4A1F046CEF80C30042806D0032802
:101D300056D002286FD005286ED073E10121002013
:101D4000FFF71EFFDFF894B19BF8490060B12068EF
:101D5000407D41006448943002F064F9C8F81000F6
:101D60007821664813F0ADFC0020D8F8103034E03C
:101D700039F820207A43A2EB030212B225F8102092
:101D80009046226892F849C45FEA8C7C20D59BF883
:101D900049C0BCF1000F12D0B2F956C4E04502DDD3
:101DA000A8EB0C0207E0B2F95A24904502DAA8EB3E
:101DB000020200E00022DFF844C12CF810204F4A54
:101DC00035F810C032F81020ACEB020225F81020D4
:101DD00059F820204AF82020401CB042C8DB21E1FD
:101DE00000210846FFF7CCFEDFF8F0B09BF8490071
:101DF00060B12068007D41003B48943002F012F948
:101E0000C8F8140080213E4813F05BFC0020D8F88D
:101E1000143038E002E139E0EFE000BF39F820206B
:101E20007A43A2EB030212B225F8102090462268F2
:101E300092F849C45FEA8C7C20D59BF849C0BCF17C
:101E4000000F12D0B2F958C4E04502DDA8EB0C0235
:101E500007E0B2F95C24904502DAA8EB020200E048
:101E60000022DFF89CC02CF81020254A35F810C05D
:101E700032F81020ACEB020225F8102059F820208F
:101E80004AF82020401CB042C8DBCBE0DFF84CB061
:101E90009BF84900D0B12068407D41001248943041
:101EA00002F0C0F8C8F810002068017D427D4900AA
:101EB00009EBC20002F0B6F8C8F8140078210F4808
:101EC00013F0FFFB80210E4813F0FBFB00204CE0D9
:101ED000C8A7012040A801203C021000F00A100011
:101EE0001802100000800120F09F012090A6012020
:101EF00054A50120009E012074A20120C0A8012049
:101F000038A9012039F82010B8F810307943A1EB36
:101F1000030109B225F81010236893F849C45FEA59
:101F20008C7C1DD59BF849C0BCF1000F10D0B3F9D3
:101F300056C4614502DDA1EB0C0106E0B3F95A3449
:101F4000994201DAC91A00E00021F74B23F810107A
:101F5000F54935F8103031F81010591A25F81010DD
:101F600059F820204AF82020401C2168497DB0EB18
:101F7000410FC7DB2068407D4FEA40003AE000BFD8
:101F800039F82030B8F814107B43A3EB010109B2F3
:101F900025F81010236893F849C45FEA8C7C21D59A
:101FA0009BF849C0BCF1000F12D0B3F958C4614589
:101FB00002DDA1EB0C0106E0B3F95C34994201DAD1
:101FC000C91A00E00021D94BDDF800C023F81C102D
:101FD000D64B009935F810C033F81110ACEB010165
:101FE00025F810100099491C009159F820204AF852
:101FF0002020401CB042C3DB14E000204946CC4AFC
:1020000009E000BF31F8203025F8103051F82030B9
:1020100042F82030401CB042F4DB03E0FFF73BFC09
:10202000002001900198BDE8FC9FC24910B58A7854
:102030000120072A0BD18B69BF4C5B1C8B6194F884
:102040006040A34204DA1046FFF725FC002010BDD3
:1020500000228A6110BD70B5B84909684B7D097DC1
:102060005B1C4B43B4490C460A7894F86040D20795
:1020700020D0012C1ED9498849051BD50020B04A23
:1020800015E001210AE000BF01FB030632F8105001
:1020900032F81660491C354422F810508C42F3DCAB
:1020A00032F9101091FBF4F122F81010401C984204
:1020B000E7D370BD047670BD2DE9F04188B0FFF71D
:1020C000E3FCFFF7B2FF002826D09B4DA87840061E
:1020D00003D4FFF78DFD00281ED0984E954C306834
:1020E00090F80A07C0070BD0A878800708D4A0781A
:1020F000012805D16079E875A079688009F045F874
:10210000A078082801D1A079688000218A48FFF7CB
:10211000D7FB18B1FFF7BFFB08B03AE489480027A6
:10212000A7700770306890F80A07C00706D0A87833
:10213000800703D40021084601F0D3FF8249A42080
:102140000873306890F81001400702D5E77000F07E
:1021500092FD6078012828D08DF8007001208DF85C
:1021600018006846FFF777FF2888DFF8E081400510
:1021700007D53068407D420008EB4001404601F041
:1021800090FD6F48019000F5F0500290217900F524
:102190001C7000EB410003906C482771F830CDE9CA
:1021A0000408A96868468847B6E703208DF8000050
:1021B000D4E770B56148634D4FF00004016891F8B1
:1021C000100142075B480AD591F84317890706D4E6
:1021D000C178012908D002290FD0032903D1C47086
:1021E000FFF7A0FC2C7070BD0221C17000F059FDFA
:1021F000BDE87040322000F06CBD0321C1708078D2
:10220000BDE87040FFF747BBF0B500224D1E12E05D
:10221000531C1F460BE000BF30F8126030F813402B
:10222000A64203D920F8136020F812405B1C9BB231
:102230008B42F1D3BAB2AA42EADBF0BD2DE9FF41ED
:1022400000252E462946012001F04BFF00246F4651
:1022500000F0A8FD27F81400641CA4B2082CF7D3E2
:1022600008216846FFF7D0FF5FF0020037F8101032
:1022700019B131446D1C8EB2ADB2401C80B206283B
:10228000F4D3B6FBF5F004B04BE438B50C46054684
:1022900001226946104600F06AFD9DF80000000921
:1022A00028709DF8000000F00300207038BD08B5CC
:1022B00001F0030141EA00118DF800100122694686
:1022C000104600F09BF908BD00F01F02012191406B
:1022D00040094FF0E02202EB8000C0F80011704787
:1022E00000F01F020121914040094FF0E02202EB73
:1022F0008000C0F88011704700F01F02012191405A
:1023000040094FF0E02202EB8000C0F880127047D5
:102310004907090E002803DA00F00F000C4A00E01C
:102320000C4A815470470000C0A8012038A9012040
:1023300064A4012018021000F00A10003C021000F2
:1023400000800120BF02100000100020F89E012034
:1023500014ED00E000E400E0FE4801680029FCD133
:102360007047FD4800220260FB481C380260FB48B1
:10237000026101210161826081600260016002608E
:10238000F449A0F574700B68002BFCD1F4490B7B69
:1023900043F020030B730B7B23F040030B730B7B89
:1023A00023F080030B730B7B23F020030B73C0F827
:1023B000D823C0F8E023EB4802707047E548183096
:1023C00001680029FCD1704730B5E448002474301E
:1023D0000460E24880300460E048C4600121C160CC
:1023E000C460046001600460DF4D202028706870C4
:1023F000DB49593D0873A4200873D648183001689A
:102400000029FCD1FFF7ADFFD848046085F83440BF
:1024100030BDF0B5D64A1278442A0BD0542A0BD0DE
:10242000814200DA084600234FF4F832C94ECC4905
:102430005C2727E02720F6E71820F4E7154600245C
:1024400004EB010E12F804C0641C8EF860C00C2C62
:10245000F6DB3468002CFCD18B76CF7605F10C02CC
:1024600004EB010E12F804C0641C8EF860C00C2C42
:10247000F6DB3268002AFCD15A1C8A76CF7605F149
:1024800030029B1CB3EB400FD8DBF0BD2DE9F047C9
:102490009246089E5B1EC6F108010022B04C01F076
:1024A000FF0C1546002189469A420BDA00EB020820
:1024B000875C98F8018027FA06F708FA0CF847EAD3
:1024C000080703E007D1875C27FA06F701EB040849
:1024D00088F8607003E001EB040888F8609001F16F
:1024E000010102F101020C29DEDB9A490F68002F7D
:1024F000FCD10AEB0501A1765C21E1766D1C022D71
:10250000D0DBBDE8F08778B500259A4E00950446EB
:10251000006A112332782946FFF7B8FF0095182387
:1025200072780021606AFFF7B1FF78BD00B58BB00B
:1025300000208DF80000684601F08DF96846FFF72D
:10254000E2FF0BB000BD2DE9F0470024DFF8048264
:1025500083498246254626464FF05C0900209C426E
:1025600006DA00EB010C1AF804708CF8607002E0D7
:10257000471887F86060641C401C0C28EFDB00BF24
:10258000D8F800000028FBD15019887681F81B90FC
:102590006D1C032DE2DBB4E730B5764D044640698F
:1025A0001623AA780021FFF7CEFFEA78A069BDE8DC
:1025B000304020230021C6E700B58BB000208DF805
:1025C0000000684601F047F96846FFF7E5FFB8E705
:1025D000F0B50024624D05E0165D6719641C87F8AC
:1025E000606064B29C42F7DB5A4A1468002CFCD14C
:1025F000A976184340F01000E876F0BD70B50023CE
:10260000574C05E0CD5C1E195B1C86F860505BB230
:102610009342F7DB4F490B68002BFCD1A07642F0C8
:102620001000E07670BD30B5534C072202202168BF
:1026300001F24271FFF7E2FF2168022201F24A71C2
:102640000920FFF7DBFF2168062201F24D710B2004
:10265000FFF7D4FF20684949494D90F8530709789E
:1026600000F0F00001F00F01084328700122294614
:102670001120FFF7C3FF2168032201F257711620D2
:10268000FFF7BCFF3D480122401E007800F00F011B
:10269000206890F85A0761F31F1028702946192006
:1026A000FFF7ACFF2168012201F25B711A20FFF7EE
:1026B000A5FF2168042201F25C711B20FFF79EFF39
:1026C0002E480222C01C2946007828702B48401C46
:1026D000007868701F20FFF791FF2168022201F542
:1026E000EC612120FFF78AFF24480222001D2946C1
:1026F000007828702148801C007868702720FFF738
:102700007DFF2168012201F263712A20FFF776FF25
:102710002168072201F266713D20FFF76FFF2068F4
:10272000022290F86E17297090F86F07687029469A
:102730004420FFF763FF2168022201F5EE61462085
:10274000FFF75CFF2168082201F272714820FFF751
:1027500055FF17E0040B00221C0C0022D0030022BE
:10276000001000201A02100059000020400500222D
:10277000B4021000380210003C021000F6FF010005
:10278000540B10002168082201F27A715020FFF7E3
:1027900035FF2168052201F284715820FFF72EFFD2
:1027A0002268FF4D92F88F072870012302F28A7287
:1027B000FA210020FFF70CFF2268012302F28C723D
:1027C0000E21C020FFF704FF2268012302F28D7260
:1027D0001421C020FFF7FCFE332068740B20A8747E
:1027E00030BD10B5FFF71FFFFFF7E6FEFFF79EFEB7
:1027F000BDE810400DE630B55C2562225E236424FE
:10280000E849442801D0542804D00D704A708B70D8
:10281000CC7030BD30200870352048703220887070
:102820003720C87030BD38B50546DF4C406D00908C
:102830006073010AA173010CE173000E207404227D
:1028400069462B20FFF7DAFE012205F153012F2004
:10285000FFF7D4FE95F85300A074E86D0090E07483
:10286000010A2175010C6175000EA07504226946EC
:102870003520FFF7C3FE0098800F84F84000CB4955
:10288000012208703920FFF7B9FE38BD00EBC00106
:1028900001EB00106FF0030101EB800010B5C4499B
:1028A000C44A0978146890FBF1F0401EC1B20123BC
:1028B00058075CB10024146080F8341090F83F1081
:1028C00090F83F408C42FBD0136010BD80F834106C
:1028D000FAE7B94801680129FCD170477CB5044684
:1028E00000208DF804002046FFF79DFFAC48B4F8A7
:1028F0004C10401C0180217D00F8011C94F84E1002
:102900004173A94EA07D86F83600AC4D286890F83A
:1029100042078DF800006188890503D520F0120078
:102920008DF80000012269460220FFF767FE0422AD
:1029300004F115010520FFF761FE2968022201F26A
:102940004A710920FFF75AFE022204F11A010C20F5
:10295000FFF754FE022204F11C010E20FFF74EFE89
:10296000052204F11E011020FFF748FE286890F8A8
:102970000907C0070AD0012201A94420FFF73EFE43
:10298000022204F142013F20FFF738FE012204F148
:102990004F013D20FFF732FE012204F15001442097
:1029A000FFF72CFE844801680129FCD194F84E0001
:1029B00030732320FFF76AFF7CBD7EB50446FFF726
:1029C00032FF7748B4F84C10401C018094F8451051
:1029D00000F8011C94F84E104173784D286890F867
:1029E00042078DF800006188890503D520F01200A8
:1029F0008DF80000012269460220FFF7FFFD012249
:102A000004F115010520FFF7F9FD94F84B00664E1F
:102A1000C00708D0286800F2957190F8950786F8ED
:102A20003600012206E094F8460086F836000122BE
:102A300004F146010620FFF7E1FD012204F1440103
:102A40000720FFF7DBFD012204F14A010820FFF710
:102A5000D5FD286890F80A17C90734D061888A071D
:102A600031D494F84B2052072DD4B0F80D27ADF88F
:102A70000420B0F86A07ADF80800090609D594F8F3
:102A800041100844ADF8080094F840001044ADF837
:102A90000400022202A94120FFF7B0FD022201A991
:102AA0000920FFF7ABFD296891F80907C0071DD081
:102AB000012201F26E714420FFF7A0FD022204F111
:102AC00042013F2010E090F80907C00707D000201E
:102AD0008DF80400012201A94420FFF78FFD296829
:102AE000022201F24A710920FFF788FD012204F158
:102AF00051011720FFF782FD012204F15201182035
:102B0000FFF77CFD022204F134011B20FFF776FD64
:102B1000022204F136011D20FFF770FD012204F1AD
:102B200038012120FFF76AFD012204F1390122203A
:102B3000FFF764FD012204F13F012A20FFF75EFD4B
:102B4000012204F14F013D20FFF758FD1A480168AA
:102B50000129FCD194F84E0030732320FFF796FE34
:102B60007EBD30B50446C069104D0122007800F0EA
:102B70000F011248006890F85A0761F31F1028707F
:102B800029461920FFF73AFDE0680222294600781D
:102B900028706068007868701F20FFF72FFD0FE035
:102BA000530000203802100000100020540B1000C9
:102BB000C102100040050022000B00223C02100060
:102BC00020692946022200782870A0680078687081
:102BD000BDE83040272011E58449854B0A6892F80A
:102BE0004D2702700A68B2F85027428009681B78A6
:102BF00001F2537103F00F030A7802F0F0021A4356
:102C00000271B1F80B20C28002818A7B82720A7C39
:102C1000C27289780173704710B5044601460122DB
:102C20000B20FFF7EBFC0222A11C0E20FFF7E6FCB5
:102C30000122211D1120FFF7E1FC0222A11D1D2010
:102C4000FFF7DCFC022204F108012520FFF7D6FC87
:102C5000012204F10A012220FFF7D0FC012204F135
:102C60000B012A20FFF7CAFC04F10C010122BDE888
:102C700010401320C2E45F4908B5042008735B4884
:102C800001226946006890F8430720F008008DF89B
:102C900000000320FFF7B2FC08BD5649202008734E
:102CA00070475449C020087370475349002008609A
:102CB0007047514840300168002909D00021016067
:102CC0004FF0005191F83F0091F83F208242FBD035
:102CD0007047494900220A60484A10700120086084
:102CE000704770B5464C2368002BFCD11D4603E0AD
:102CF000C6185B1C86F880508B42F9D32368002BE2
:102D0000FCD102E0C45CD4545B1C8B42FAD370BD8E
:102D100010B501F0ACF8FFF7CCFF3A48007878B175
:102D20003748183801680029FCD13248C07840067D
:102D300002D5354901200870BDE81040FFF7BCB945
:102D400032490020087010BD10B501F090F82A49F2
:102D500000200860BDE81040FFF72BBA10B501F065
:102D600086F8FFF7A6FFBDE81040FFF722BA214B17
:102D700010B59876DA76224818380468002CFCD111
:102D8000012083F8E0001E480468002CFCD10020DC
:102D900005E0C41894F860400C54401C40B29042C6
:102DA000F7DB10BD08B543F6FF70ADF80000022256
:102DB00069463F20FFF722FC0220ADF80000012207
:102DC00069463D20FFF71AFC0A49E02008734FF4DA
:102DD0001670FDF75FFA022269468720FFF7C7FFEA
:102DE000FFF749FFBDF8000008BD00003C021000DD
:102DF000F6FF010000100020000500222D00002039
:102E00001C0B00221A02100019021000BF02100051
:102E10000446012008F0EFFA00210F20226808F094
:102E200002FB01210F20626808F0FDFA02210F2049
:102E3000A26808F0F8FA03210F20E26808F0F3FA1C
:102E40000C210F20226908F0EEFA0E210F20626992
:102E500008F0E9FA0F210846A26908F0E4FA2021F7
:102E60000F20E26908F0DFFA3A48026821210F20BA
:102E700008F0D9FA37481038026822210F2008F0EC
:102E8000D2FA34480C38026823210F2008F0CBFA1C
:102E900030480838026824210F2008F0C4FA2D4871
:102EA000001D026825210F2008F0BDFA294834389A
:102EB000026826210F2008F0B6FA26481438026866
:102EC00027210F2008F0AFFAFDF781FC02463021E0
:102ED0000F2008F0A8FAFEE710B5012807D0022855
:102EE0000ED0032805D0042805D0042109E00121D3
:102EF00007E0032105E00021032008F07CFAFEE74B
:102F00000221BDE81040032008F075BA10B5044650
:102F10000146042008F06FFA012C00D1FEE710BD35
:102F20000146082008F067BA0146062008F063BA97
:102F300010B504460146072008F05DFA012C04D0C4
:102F4000022C03D0032C02D1FEE7FEE7FEE710BD02
:102F50000320EDE738ED00E000F089BF70477047CF
:102F60002A4810B5016821F00401016000F07FFFDC
:102F7000BDE8104012F088BA704700F078BF10B575
:102F800000F075FFBDE8104008F09CBC10B500F0E3
:102F90006EFFBDE810404FF0005001F038B97047A7
:102FA000704710B500F063FF19480078012803D07E
:102FB000BDE8104008F0FBB8BDE8104001F0ECBFE0
:102FC000704710B500F053FFBDE810404FF080503F
:102FD00001F01DB9704770477047704770477047E0
:102FE00010B500F044FFBDE81040FDF7EEBD10B590
:102FF00000F03DFF06480078012803D1BDE81040ED
:1030000001F07ABF10BD70477047000010ED00E07E
:10301000BE02100010B55621C44812F052FBC3483E
:10302000C349C44A01808280C3494180C34BC380E5
:10303000C34C0481C34C4481C34C8481C34CC481C0
:10304000C34C0482C34C4482C34C8482C34CC482AC
:10305000C34C0483C34C4483C34C8483C34CC48398
:10306000C34C0484C34C4484C34C8484C34CC48484
:10307000C34C0485C34C4486C34C8486C34CC4866D
:10308000C34C0487C38741878287C249A0F8401098
:10309000C1490968B1F86220A0F84220B1F8C62100
:1030A000A0F84420B1F8A120A0F84620B1F8F02102
:1030B000A0F84820B1F85421A0F84A20B1F85221D4
:1030C000A0F84C200022A0F84E204A7DA0F8502005
:1030D0000A7DA0F85220B14AA0F85420AD4891F8DA
:1030E0004E274280B1F85C17C180018110BD10B538
:1030F000FDF75EFF00EB104081B2A948172203786C
:10310000A848442B04D1382902D01D21017010BDDC
:10311000027010BDA4481322A5490378A348552B7B
:1031200002D0027019200CE09B4B1B6893F8113100
:10313000DB0702D09C4A521C127802709A48801C0D
:103140000078087070472DE9F047FF222821994840
:1031500012F0AFFA9748FDF7E8FEDFF858920E2418
:103160000126D9F80410072545F2AA58414503D095
:10317000D9F8081041453BD1D9F80000D9F808200A
:10318000070E424506D1032F01D1C0F30136C0F32B
:10319000032502E00120FFF7C7FED9F804104145DE
:1031A00004D199F8000000F01F0402E00220FFF7AC
:1031B000BBFE032F22D1D9F8143041467E4A48463F
:1031C0008B4201D1036900E07C4B1360C3697C4AE8
:1031D0008B4201D1836900E07A4B1360436A7A4ADB
:1031E000434502D1D9F8200000E07848106005E09E
:1031F0000120FFF799FE0220FFF796FE664801685E
:1032000091F8F007400702D591F8F20704E006F0C4
:1032100003002A0740EA126091F8DA16C90711D0B4
:10322000B9F80C108AB242450CD05F49891F097861
:10323000C52907D120F0F0015B48401F0078000746
:1032400041EA1060624981F860000120887611200F
:10325000C8766048017864F304010170BDE8F08726
:1032600070B5FDF734FBFDF741FD4B4D2868007844
:10327000A52802D00120FFF749FE4FF00850012495
:10328000C0F898432868544A90F8271101F00101CA
:10329000116090F82701111DC0F340000860FDF790
:1032A00043FEFDF72BFBFEF70DF8042801D1FFF7D5
:1032B00013FEFDF767FDFDF7B1FD4548802180F85D
:1032C0006010042181761121C176FFF73CFFFFF7E2
:1032D00021FF41486C380460FFF709FF3E480C3875
:1032E000046070BD41F2085010B581064881FFF7B7
:1032F000B7FFFFF78FFE39493F20086038490020AB
:10330000086039483749016001F5086037490860AD
:10331000374800F03FFBFCF7B7FF00F06BF8FCF715
:10332000B1FFFDF735F8012010BD000000000120BD
:103330000080012058D70120D8CF0120560001205D
:10334000009E0120364001207240012034410120BE
:1033500070410120A4460120E0460120E22901201D
:103360001E2A0120B2400120EE400120204701200A
:103370005C4701203E2E01207A2E0120C22D012023
:10338000FE2D01202A40012000C801200CC8012088
:10339000D6290120FC2410003C0210002A30012014
:1033A000B402100064021000F2FF0100C20210001B
:1033B000C10210001C251000C402100040A5AE027E
:1033C000C802100000879303CC02100000366E0183
:1033D000001000202000002088040022304101203D
:1033E000B0021000E412100070021000740210000D
:1033F000E42310007FB5FCF7A3FF204D002400BF9D
:1034000005EB441000F11002017F4CCACDE90261C6
:10341000CDE900230FC8FDF777F910B10220FFF7BF
:1034200087FD641C072CEBDB144D002415F1E0052F
:1034300004EB440005EB8001091D55F8200006C986
:10344000FDF7E2F810B10220FFF772FD641C082CB2
:10345000EEDB0B4D002400BF05EBC400416855F8BE
:103460003400FCF7EBFF10B10220FFF761FD641C94
:10347000062CF1DB7FBD4068FFF76ABDD458010020
:10348000145A01002DE9F0479246012547F6F872DB
:1034900056429946AC460024089F16E030F8143096
:1034A00031F81480A8EB03031BB29A4200DD1A46E0
:1034B0009E4200DA1E46002B02DA4FF0000502E0C1
:1034C00001DD4FF0000C04F10104BC42E6DB55EADB
:1034D0000C0306D0012D01D02DB108E0BCF1010F85
:1034E00005D1002203E0BCF1010F00D132460025D6
:1034F0002C462B4611E000BF30F8136031F813C0A2
:103500001644ACEB060636B24E4505DAC9F1000C9E
:10351000664501DD3544641C5B1CBB42ECDB95FB5E
:10352000F4F10A44002105E030F8113013442AF880
:103530001130491CB942F7DBBDE8F08770B503468E
:1035400000200246FE4C09E09D5C521C05F00F066F
:1035500004EB1515A65D2D78304428448A42F3DB30
:1035600070BD884200D308467047884200D808469C
:103570007047884200D30846904200D310467047F7
:103580002DE9F047D0F810C00568046A85FB0C12DD
:10359000A1FB041242694368914683FB026282697F
:1035A000E246A6FB02677618D0E9021781FB07C83E
:1035B000C069ACFB00C81CEB060682FB0A2CA2FB10
:1035C000011280FB0902A0FB0502401884FB0712D0
:1035D000A1FB03120818301A4FEAE071ACE72DE99D
:1035E000F04389B00446006800906068019020694B
:1035F00002906068039020690490A069059020699A
:103600000690A0690790E06908900D466846FFF7AC
:10361000B7FF8046A0680190E06804906069079059
:1036200089466846FFF7ACFF064660680190A068CF
:10363000029020690490E0680590A0690790606995
:1036400008900F466846FFF79BFFC5E90401C5E9EE
:103650000267C5E9008909B0BDE8F0832DE9FF4F95
:103660004FF0000A89B09B465746D146D046564691
:10367000554654462021684612F045F80B9810E054
:103680000999824431F9102000FB00F102FB016628
:103690008844414302FB009901FB004417440D4458
:1036A000401C5845ECDD0B99ABEB0100401CCDE90B
:1036B000000ACDE90654CDE90486CDE902796846D1
:1036C0000A99FFF78CFF0DB0BDE8F08F9D480068A8
:1036D000017B427B41EA0221827BC07B41EA0241BD
:1036E00041EA0060400070479648006801794279DD
:1036F00041EA02218279C07941EA024141EA00604F
:10370000704700B5FFF7E2FF4008400000BDF8B584
:103710000E460446FFF7F5FF0090FFF7D7FF05467A
:1037200004216846FFF70AFF04EB400700240099D4
:10373000204623464FF0010C0CFA03F20A4207D050
:103740002A4204D037F8102026F81420641C401CAC
:103750005B1C1E2BF0DBF8BDC6E7FCB50E4607462A
:10376000FFF7CFFF0190FFF7BFFF0090FFF7BCFF0F
:103770000546042101A8FFF7E1FE0446042168463E
:10378000FFF7DCFE00EB440007EB40070020009948
:10379000044603464FF0010C0CFA03F20A4207D02C
:1037A0002A4204D037F8142026F81020401C641C4C
:1037B0005B1C202BF0DBFCBD62490020096891F8FE
:1037C000E81119B160480178012088404000704735
:1037D00070B55C490020096801F5F57491F8E8516D
:1037E000002D09D091F8E6214FF00103D20704D053
:1037F00091F8E91103FA01F070BD03FA02F63542BF
:1038000003D0A65C03FA06F10843521C062AF4DB37
:1038100070BD70B500224B4C012303FA02F62568F7
:1038200095F8E851354203D030F8125021F8125083
:10383000521C062AF1DB70BD00B5FFF747FF40F0D0
:10384000010000BD50E7414A520102EB810101F144
:103850000851086070470178012916D03C49416041
:10386000491C81603B4941613A492C3181613849A9
:10387000891CC160491C0161491FC16135496C3116
:10388000016234498D3141627047314910394160DC
:10389000491C81602F49BD3141612E49E931816167
:1038A0002B490E39C160491C0161491FC1612A4978
:1038B000016229492131E6E701EB8010801001EB1C
:1038C00041014900182291FBF2F300EB400000F5A2
:1038D000F83002FB1311006820F07F40C84000F070
:1038E0003F00704701EB8010801010B501EB4101E3
:1038F0004900182391FBF3F403FB141300EB400081
:1039000000F5F8303F2401689C40A1439A400A43E7
:103910000270110A4170110C817010BD821002EB0F
:1039200042020A4400EB40004000182190FBF1F3F2
:1039300001FB1301106820F07F40C8400EE000003A
:10394000445A01003C021000640210003041012082
:10395000F7FF010040F8010069F9010000F03F00A5
:103960007047831003EB430310B51A4400EB40008B
:103970004000182390FBF3F403FB14033F2410686A
:103980009C40A043994001431170080A5070080CF4
:10399000907010BD2DE9F14F7821009811F0B3FE21
:1039A000FFF74AFF4FEA5008FFF79EFE4FF0000C6A
:1039B000814666464FF0010A0AFA06F111EA090F3C
:1039C0001ED00024012725460AFA0CFB0AFA05F04E
:1039D00010EA080F0FD031462846FFF76DFFA042CE
:1039E00007D00099009A51F8271041EA0B0142F8DC
:1039F000271004467F1C6D1C272DE7DB0CF1010C02
:103A0000761C202ED8DBBDE8F88F2DE9F04F8346D9
:103A1000FF4800242246D0F800A001219AF8145053
:103A2000A5F1010621E003200123DFF8E8E303FA12
:103A300001F99AF8157015E05EF820C01CEA090F2C
:103A40000FD0A0F1010300FB051C03FB05183BF997
:103A50001CC03BF91830BCEB030300D55B421C448F
:103A6000521C401C8742E7DC491C8E42DBDC02B959
:103A7000012294FBF2F027E62DE9FF4F85B00021EB
:103A80000391029101910091E149012B0C6894F896
:103A9000775005F00F0700D10027667D94F87A3043
:103AA000C7F1100BB34200D21E460023049301233A
:103AB00081E000BF4FF00009C84603241FE0D5494C
:103AC00051F824C0012199401CEA010F04FB053183
:103AD00030F911C0A4F1010101FB053130F91110D9
:103AE000ACEB010106D0002900DA4942DDF818C02C
:103AF000A1EB0C01002900DA49428944641CB4425C
:103B0000DDDB31469EF815A01FE0C24C54F821C001
:103B100001249C401CEA040F01FB053430F914C059
:103B2000A1F1010404FB053430F91440ACEB0404AA
:103B300006D0002C00DA6442DDF818C0A4EB0C04B7
:103B4000002C00DA6442A044491C8A45DDDC04995B
:103B5000012910D10199B1EB090101D5C1F1000191
:103B6000039C214403910099B1EB080100D549421F
:103B7000029C21440291CDE900899EF87B10994274
:103B800016D11168039D79430BFB0511CC1701EB8E
:103B90001471091111609168029D79430BFB0511A5
:103BA000CC1701EB1471091191600021039102916E
:103BB00001215B1C04919649D1F800E09EF8145055
:103BC000691E99423FF776AF5068039978430BFB23
:103BD0000100C11700EB117000115060D068029B0A
:103BE00078430BFB0300C11700EB11700011D0608C
:103BF00009B069E530B5044600200222A1F10101B7
:103C00000BE000BF04EB420534F9123035F9025CD9
:103C10005B1B00D55B421844521C8A42F2DB30BD6C
:103C20002DE9F04F7A49002318460C6894F849149E
:103C3000257DC1F3C001B4F865B4B4F867A4A5EB61
:103C4000010924E00322DFF8CCE1DFF8CC81667DB6
:103C500019E000BF5EF822C0012707FA01F71CEA4D
:103C6000070F0ED102FB051738F917C0A2F10107A3
:103C700007FB051738F91770BCEB070700D57F4223
:103C80003B44521CD2B29642E4D8491CC9B2894581
:103C9000D8DC62499B450B6002D2534500D201201B
:103CA00012E503E011F8013B00F8013B521EF9D286
:103CB00070477CB50D460446FFF723FD0090FFF7E3
:103CC00013FD019000980421400800906846FFF71A
:103CD00035FC0646042101A8FFF730FC3044820081
:103CE00021462846FFF7DDFF7CBD0B4648490968A1
:103CF0004A7D097D521C4A43014652001846D0E7CE
:103D00002DE9F0410446642111F0FDFC0025404EF0
:103D100025806580306890F8940700F0010045EA3E
:103D200040106080A560FFF787FDE060FFF7DCFCD6
:103D30003B4F20613B497888608309785A2904D138
:103D40003849491C097808446083306800F246709D
:103D5000C27A817A02F03F0241EA0221A1834178CE
:103D6000E17590F8491021750178A1758178217667
:103D7000017BA1772B49407B083100F0F0000978E6
:103D800001F00F010843E077FFF716FD6062FFF7CF
:103D90001FFDA062FFF7B5FCE062FFF7A5FC206302
:103DA0002C34F8882081E081306800F5E96090F8D3
:103DB0004810217690F84A10617690F84B10A17661
:103DC00010F8461CE17601212177657790F84920AB
:103DD000A277C28A62812282027E2273427E62734D
:103DE000827EA274C27EE274827F84F8232065758D
:103DF000257510F8502C2C3CA0F5E960D20718D09E
:103E000090F8F90600F00F0084F8600060880BE07D
:103E10003C021000E4231000D8CF012088021000DB
:103E2000FC241000EEFF010040F480606080BDE8DB
:103E3000F08184F86010FAE710B50446FCF724FA24
:103E4000012C0BD1F948006890F81001800705D5C6
:103E5000FCF745FD38B1FCF73EFD04E0FCF73FFD03
:103E600008B9FCF734FDBDE81040FCF70BBA0020A0
:103E7000E2E7EE4B10B51A68947E640704D5D28A47
:103E80000468A2EB040202601A68947EA40703D5BA
:103E9000128B0C68121B0A600268002A00DA0022EA
:103EA00002601C68E48AA24200DD224602600A68C1
:103EB000002A00DA00220A601C68248BA24200DD7E
:103EC00022460A601B689B7EDB0702D003680B60FA
:103ED000026010BDF0B500252C4608E031F91460F1
:103EE00030F91470F61B964200DD6D1C641C9C4278
:103EF000F4DB012D01D90120F0BD0020F0BD2DE93A
:103F0000F0439946DDE90787002423460EE000BF11
:103F100031F9135030F9136005EB020C664503DAF2
:103F2000A5EB0905AE4200DC641C5B1CBB42EFDB69
:103F3000444502D90120BDE8F0830020FBE72DE9CC
:103F4000F04F9246DDE909B7012547F6F87256426F
:103F50009946AC46002416E030F8143031F814804D
:103F6000A8EB03031BB29A4200DD1A469E4200DA18
:103F70001E46002B02DA4FF0000502E001DD4FF093
:103F8000000C04F10104BC42E6DB55EA0C0306D048
:103F9000012D01D02DB108E0BCF1010F05D10022A7
:103FA00003E0BCF1010F00D1324600252C462B4620
:103FB00011E000BF30F8136031F813C01644ACEBC9
:103FC000060636B24E4505DACBF1000C664501DD3A
:103FD0003544641C5B1CBB42ECDB95FBF4F10A44EA
:103FE000002105E030F8113013442AF81130491C43
:103FF000B942F7DB3FE5F0B506460020044605462A
:10400000521C059F0AE000BF36F911C09C4504DD33
:10401000A44502DD64460D460120491C9142F3DBB4
:104020003D60F0BD30B50268002513460AE000BFD0
:1040300050F82540944201DD224602E09C4200DA1D
:1040400023466D1C8D42F3DBD01800EBD07040107E
:1040500030BD70B5754B1B685C7D1B7D641C5C437B
:10406000002307E032F8135030F81360AD1B21F83D
:1040700013505B1CA342F5DB70BD6D490120086045
:1040800081026C4811F01DBB2DE9F0410646154632
:104090000F46302801D1FFF7F0FF654C2068284417
:1040A000401CB0F5806F01D2206801E00120206043
:1040B000604908700E542DB10844401C2A46394608
:1040C000FFF7EFFD20682844401C2060AFE65A4807
:1040D00000210122017042708170704756480078BB
:1040E000704730B5514A126892F80A27D3070BD0AF
:1040F000D506524A4FF000034FF0010407D5151FB3
:104100002860012901D1136030BD146030BD4B4DD2
:10411000083D28600129F8D0F5E72DE9F84F434C18
:1041200000264FF00057206890F80A07450997F8D5
:10413000510000D101250720FCF791FAFCF747FB5D
:10414000DFF8F480C8F8040020684FF0010490F80C
:104150000A07C00603D5062087F8510001E087F85A
:10416000514000210120FFF7BCFF4FF41670FCF70F
:1041700091F84FF0E02A4FF480594FF0000BCAF845
:1041800080924FF040514446D8F80400FCF7A5F95E
:10419000DFF8AC80012088F80000E8B2FCF786FC6C
:1041A000CAF800916B4600224FF040516068FCF75E
:1041B000B5F94FF040516068FCF78FF90098C000E6
:1041C00000D501262078B04202D1607801280CD1B8
:1041D00097F85100AEB140EA0522DD20616807F092
:1041E00022F900BF84F801B0267000210846FFF7CD
:1041F00078FF88F800B00720FCF74CFA2078BDE87B
:10420000F88F40EA0521092007F0F5F8EAE710B534
:1042100004460C484FF480510160FCF754FC0648FA
:1042200021464068BDE81040FCF728B93C02100068
:1042300040021000D6250120D4021000280A0022D6
:10424000BF02100080E100E070B52748006890F8D8
:10425000D010CA0725491DD090F8D12002F00F02D6
:10426000531C0A2B01D90A2200E0521C00F1D2048F
:1042700000234D8805E000BF34F81360B5420CD030
:104280005B1C9342F8DBB0F84E274A80B0F8E82078
:104290000A8002E0B0F84E274A8090F88023D207C7
:1042A0001DD090F8812302F00F02531C0A2B01D974
:1042B0000A2200E0521C00F282350023CC8804E080
:1042C00035F81360B44209D05B1C9342F8DBB0F8B8
:1042D0005C27CA800A81B0F8AC03888070BDB0F852
:1042E0005C07C880088170BD3C021000FC241000EF
:1042F00010B501461C22F648FFF7D3FCBDE810407C
:104300004FF400610120FCF7B9B82DE9F0419AB0F3
:1043100080460D4614466846FFF7F2FCE0074FF072
:10432000010701D0ADF80070A00705D5BDF8000069
:1043300040F00800ADF80000600605D5BDF80000AB
:1043400040F48060ADF80000600733D5E14E30687E
:1043500090F80A07C0070DD0FFF7DFFE06210128FD
:1043600005D0BDF8020040F00200ADF80200ADF843
:10437000001005E0BDF8000040F00600ADF80000B8
:10438000A00711D1BDF8000040F00100ADF8000019
:10439000306800F2211041788DF8171001788DF8FF
:1043A0001E1080788DF82200CB480088800501D54A
:1043B0008DF84970C949ADF81A80ADF83A50ADF89A
:1043C0003450097840465A2905D1C449491C097816
:1043D0000844ADF81A00AFF2E700BD4D03244FF4D6
:1043E000006602906846FDF793FA19AB0022314649
:1043F0000120FCF793F831460120FCF76EF828788D
:10440000002804D0FEF768FD641E002CEADC1AB018
:10441000BDE8F0812DE9F041AE4A00242146126842
:10442000254610F4D17F04D092F8221004254FEADB
:10443000111110F0050F05D092F8213045F001055B
:104440004FEA1314C00604D592F8210045F0020586
:1044500004098C4200DA0C46641C002DD8D00026DA
:104460009F4F05E0F98878882A46FFF74EFF761CB3
:10447000A642F7DBCCE72DE9F35FDFF858820C4664
:10448000D8F80000467D017D90F82100761C00F0F0
:104490000F074E437F1C4FF48851924811F033F9B7
:1044A0000025DFF84092DFF838A2DFF824B21AE0E6
:1044B000BAF8061001220098FFF727FF8A49DBF8B7
:1044C000040005F024FF884A0020494608E000BFA8
:1044D00051F8203032F910C0634441F82030401CBC
:1044E000B042F5DB6D1CBD42E2DBD8F800107F4A1C
:1044F000404691F82110127801F00F01491C012A61
:1045000025D17B4ADFF8ECB1DFF8ECC11278DFF897
:10451000ECA1521E4E4615E09BF800305B1E551C68
:104520000AE007683F7D05FB07375B1C56F82780CC
:1045300098FBF1F824F817809CF800707F1EBB42AE
:10454000EFDD521C9AF800305B1E9A42E4DD6C4AA3
:104550001278012A22D16B4ADFF8ACA16B4F127896
:10456000DFF8AC81521E14E09AF800305B1E551C37
:104570000AE00668367D05FB06365B1C59F826C046
:104580009CFBF1FC24F816C03E78761EB342F0DDA9
:10459000521C98F800305B1E9A42E5DDBDE8FC9F96
:1045A0002DE9F35FDFF82C818B46D8F80000457DBC
:1045B000017D90F821006D1C00F00F074D437F1C1A
:1045C0004FF48851474811F09EF80026454CDFF81B
:1045D0001091DFF8FCA018E0B9F80610012200984D
:1045E000FFF793FE4049DAF8040005F090FE3E49DB
:1045F000002007E054F8202031F910301A4444F824
:104600002020401CA842F5DB761CBE42E4DBD8F833
:10461000000090F8210000F00F01491C002006E086
:1046200054F8202092FBF1F22BF81020401CA842F5
:10463000F6DBB3E72DE9F34F264D87B08B462868AC
:10464000182190F8210000F00F077F1C684611F038
:104650005AF800266C46DFF88890DFF874A0DFF87F
:10466000B48018E0B9F8061002220798FFF74DFE53
:104670002849DAF80C00FFF7CCF800204FEA0801CF
:1046800054F8202031F910301A4444F82020401CFE
:104690000628F5DB761CBE42E4DB286890F8210092
:1046A00000F00F01491C002001222B6802FA00F6DD
:1046B00093F8E831334205D054F8203093FBF1F3FE
:1046C0002BF81030401C0628EFDB09B0BDE8F08F56
:1046D000504010003C0210004C021000EEFF0100A0
:1046E000FC241000E4121000640B10008202100081
:1046F0007F0210007D0210007E0210008002100078
:10470000810210007B021000790210007A02100072
:104710007C0210002A4001202DE9F74FFD4D84B0A6
:104720009146286830F83B1F039140880290FEF7BD
:10473000E8FF0090FFF710F8019004216846FEF7AB
:10474000FDFE8046042101A8FEF7F8FE4044460025
:104750002868B10090F8220000F00F04641CEE48B5
:1047600010F0D1FF296891F8F002C20706D0800747
:1047700004D491F8F102044405F0A4FA0027DFF80C
:1047800098B3AA462FE0E548042205994088FFF730
:10479000BCFDDAF80010E24891F894178568C90763
:1047A00004D001692A46284605F038FBDAF80000F3
:1047B00090F8F002C10707D0800705D4D9492846F0
:1047C00005F09CFA70B1D74D0020594608E000BFB3
:1047D00051F8202035F910301A4441F82020401CAF
:1047E000B042F5DB7F1CA742CDDBDAF80010CA4CE3
:1047F000504691F8221001F00F0303F101034FF02E
:1048000000011CE05BF82120056892FBF3F295F8AB
:10481000F0725FEAC77C08D0BF0706D595F8F17241
:104820007F1C5743B5F8F222BA1AB1EB480F01DAF0
:10483000039D00E0029D2A4424F81120491CB14246
:10484000E0DB049810F0220F09D02046D9F80010C0
:10485000FEF75DFF2046D9F80410FEF77EFF07B093
:1048600034E72DE9F0479A46AA4B894600210125F5
:10487000AD4E1C681BE000BF32F8113030F81170EB
:10488000DB1B1FB200230AE0C3EB031C06EB8C0CFE
:104890005B1C3CF811801BB2B8442CF8118094F8D2
:1048A00080C305EB9C1C9C45EEDC491C09B2637D72
:1048B0008B42E1DC00209D4A19E000BF3AF810303D
:1048C00039F81010591A0BB2002108E002EB8116DA
:1048D000491C36F8107009B21F4426F8107094F87D
:1048E000806305EB96168E42F0DC401C00B2217D01
:1048F0008142E3DCBDE8F08770B5864D8C4E002424
:104900002868C4EB041100EB440006EBC111B0F8B9
:10491000EF00FFF745FE641C042CF1DB70BD2DE9B0
:10492000FE4F002582467B4C2F46DFF8FC81DFF8E6
:10493000FC91012612E000BF00EB4500C5EB05121B
:10494000B0F8B21308EB8200009009EB8510CDE9B6
:1049500001076A465046FFF7DFFE6D1C206890F89D
:10496000801306EB9111A942E6DC90F85011C907BB
:1049700010D090F8911109060CD5407D6A4942008B
:104980006C48FFF78EF920686849007D42006A484C
:10499000FFF787F9BDE8FE8FFEB55E4A5F49002448
:1049A0001268012300F4907592F88063C98803EBC4
:1049B000961306E002EB4406B6F8B263B14202D0A9
:1049C000641CA342F6DCA34219DDC5B192F8500184
:1049D000C00703D192F82002C0070FD05249C4EBA0
:1049E000041001EB80013C225448FFF75AF94F486C
:1049F000402200EB84115248FFF753F9FEBD00221C
:104A000002924E4A00924E4A01926A46FFF784FE95
:104A1000FEBD2DE9FC47FEF774FE0090FEF79CFEFC
:104A2000019004216846FEF789FD0446042101A88F
:104A3000FEF784FD374E204444003068A10090F812
:104A4000220000F00F077F1C334810F05CFE0025A9
:104A5000DFF8CCA0DFF8C090B04622E02F4840221B
:104A6000C1884088FFF751FCD8F80010DAF81460CC
:104A700091F89417C90705D032463046DAF810107D
:104A800005F0CCF90020494608E000BF51F820208D
:104A900036F910301A4441F82020401CA042F5DBC2
:104AA0006D1CBD42DADBD8F800001B4E454690F87D
:104AB00022004B4600F00F00401C002107E000BF21
:104AC00053F8212092FBF0F226F81120491CA14254
:104AD000F6DB1C493046FEF71AFE1B493046FEF74E
:104AE0003CFE286890F82010090711D5174C0021CA
:104AF0002160417D1348FFF77DF82168084420605C
:104B00002868017D1048FFF775F821680844206087
:104B1000BDE8FC873C021000E4121000FC241000E9
:104B200050401000D0A60120562B0120822C0120DD
:104B3000D6070120462C0120822D0120E2290120E8
:104B40001E2A0120C22D0120FE2D0120800410000C
:104B500070B504460020FBF782FD0320FBF77FFDC4
:104B6000F74D286890F82010490701D424F4006418
:104B700090F85011C90705D190F82012C90701D14A
:104B800024F0620490F88013490701D424F4B0742F
:104B900090F8D010490701D424F0040490F8E811EB
:104BA00009B924F0100490F8041309B924F4C0746E
:104BB00090F85002C00701D124F4806460060AD541
:104BC0003C22E049E048FFF76CF8DF484022DF492B
:104BD0003C30FFF766F8DE490020401C8842FCD3D9
:104BE000200502D52046FFF715FC600701D5FFF729
:104BF00083FE14F4907F02D02046FFF790FED54E3E
:104C0000E00726D0D4480178D448072902D00021F3
:104C1000017002E0007801284BD07088D049FFF77E
:104C2000BFFC286890F8200000070AD5CC48FEF7A2
:104C3000ECFECC490123CC4A08600146C848FEF787
:104C40001BFF286890F84904C00702D0204602F0F4
:104C5000C7FBE00603D57088C449FFF7EBFC60058D
:104C600001D5FFF7D6FE14F0820F0AD02046FFF7D9
:104C700093FE286890F84904800702D5204602F088
:104C800021FC600606D5B049B04BAE4A3C31AE4877
:104C9000FFF7E7FDB64901200870B649087006F035
:104CA00062FA0020FBF7F6FCBDE870400320FBF73A
:104CB000F1BC7088AA49FFF7DEFBB2E7F0B4A04967
:104CC0000022AD4C0B68B3F8EF10814213D2B3F859
:104CD000F510814201D803220DE0012103EB4105CB
:104CE000B5F8EF50A84201D10A4602E00DD2A1F179
:104CF00001028A420DD1C2EB021004EBC011F0BCDC
:104D00004FF4F0629648FEF7CCBF491C0429E5DB5E
:104D1000F1E703EB4103924D33F8ED2FC1EB0111A5
:104D20005B88801A00029A1A90FBF2F300204FF47D
:104D3000707604EBC11100BF01EB4002A2F5F062F6
:104D400031F91040B2F90020A41A5C4302EB24228E
:104D500025F81020401CB042EEDBF0BC70472DE976
:104D6000F04177490025854A0968854EB1F8B2338C
:104D700083421AD291F880339C0901EB4407B7F8BB
:104D8000B27387420AD9012404EB931313E000BFE6
:104D900001EB4407B7F8B273B84201D1254602E0EF
:104DA00008D2A4F10105A5421CD191F85001C00719
:104DB00008D103E0641CA342EADCF6E791F8200284
:104DC000C0074CD0C5EB051002EB80013C225D48CA
:104DD000FEF767FF06EB8511BDE8F04140225B4816
:104DE000FEF75FBF01EB4405B5F8B033B5F8B25339
:104DF000C01A0002EB1A90FBF3F391F85001C007C0
:104E000003D191F82002C00729D04E4DC4EB041104
:104E1000002002EB810100BF01EB400231F910706C
:104E200032F93C2CBF1A5F4302EB272225F81020F1
:104E3000401C1E28F0DB454D002006EB841100BF0E
:104E400001EB400231F9104032F9402CA41A5C43C6
:104E500002EB242225F81020401C2028F0DBBDE8BE
:104E6000F0812DE9F04147480124474E04700025A8
:104E70003560192000F0D2F8192000F0B7F8434F40
:104E8000052038724FF41670FBF704FA3E48443898
:104E90000560FF21397034600460E0E770B539487F
:104EA0003B4C01250570207F40F00400207724480A
:104EB000006890F81101C00705D00A2000F0AEF894
:104EC0000A2000F093F8002184F860105C22A2769A
:104ED0001120E07684F860505823A376E0762A4BC0
:104EE000443B1960294EFF213170042184F8601081
:104EF000A276E0761D6070BD70B52348002444386A
:104F00000460224D08352E79192000F07BF8C6F197
:104F1000FB002978C0B2491CB0FBF1F01D490870B4
:104F2000184804700648006890F81101C00702D0C4
:104F3000BDE87040B2E717495520891E087070BD62
:104F40003C021000E2290120D43F10001E2A01205B
:104F500020A10700FC241000AC0210007802100011
:104F600056000120840210005C241000D629012084
:104F700052021000A8021000D6070120562B012073
:104F8000822C0120BE021000480500222E000020C5
:104F900000100020F4FF010010B5264C207F40F0E7
:104FA000040020772448006890F81101C00702D05F
:104FB0000A2000F027F821490A7B214B00201860C5
:104FC00084F860005C23A3761123E3760978891ABC
:104FD00089B24FF4FA42B2FBF1F11A4A0909117091
:104FE0005521521E11701849087010BD00F01F02A3
:104FF0000121914040094FF0E02202EB8000C0F80F
:105000000011704700F01F020121914040094FF04C
:10501000E02202EB8000C0F88011704700F01F0210
:105020000121914040094FF0E02202EB8000C0F8DE
:1050300080127047001000203C0210002E0000205B
:1050400004050022F3FF0100BE02100010B5014666
:105050001C22FC48FEF725FE8021BDE810400120FF
:10506000FBF70CBA30B59BB004466846FEF748FE25
:105070000021012C02D0022C02D008E0012000E027
:105080000820ADF800008DF816108DF81410BDF84A
:105090000200AFF2470140F4A670EA4D0291ADF86C
:1050A000020003246846FCF733FC19AB0022802180
:1050B0000120FBF733FA80210120FBF70EFA287854
:1050C000002804D0FDF708FF641E002CEADC1BB0AA
:1050D00030BD2DE9FC5F4FF0000BFEF76DFB044681
:1050E000FEF776FBD84907460020086048608860D4
:1050F000D6494FEA540980460860486088604FF0FE
:10510000010A0220FFF7AEFFCE4800242646C06801
:10511000CDF800000AFA06F010EA090F38D0002591
:105120000AFA05F1394230D0C9490AFA04F009688F
:1051300091F8E811014228D029463046FEF7BCFB21
:10514000C349C14A096832F91430B1F80AC2B3EB55
:105150000C01009B33F91430A3EB0C0C00D5494231
:10516000BCF1000F01DACCF1000C614504DBB7495A
:1051700022F8143021F814003F2805D2401CC2B296
:1051800029463046FEF7AEFB641C6D1C202DC7DBA4
:10519000761C272EBEDBFDF73CF908F10108B8F1BB
:1051A000400FAEDB012000900220FFF75BFFD046EE
:1051B0000026DFF89CA2354608FA05F010EA090F30
:1051C0001ED0002408FA04F1394216D0DAF8001093
:1051D00008FA06F091F8E81101420ED09B482146EA
:1051E00010F81600019002462846FEF77BFB019856
:1051F0003F2801D300200090761C641C202CE1DBAA
:105200006D1C272DD8DB009810B90520FDF788FE0E
:10521000FDF7FFF80220FFF725FF8A488D49C06897
:10522000FEF7F7FADAF800408A4D002094F8E831EA
:10523000424600BF02FA00F10B421CD035F91010B3
:10524000002902DC4BF0020005E040F6FF76B14297
:1052500003DB4BF00100834610E0B4F80A72B4F8A7
:10526000BE6107EB060C8C4505DABF1B8F4202DDE1
:105270000EB14BF0040B401C0628DBDB5846BDE8A2
:10528000FC9F2DE9F05F72490A6892F8300105062B
:105290007148037803F00F0407D492F83E1121F00F
:1052A0000F0121430170BDE8F09F0025DFF894A1B4
:1052B000834604702E46012789460220FFF7D2FE5E
:1052C0006449DAF80C00FEF7A4FAD9F80020614B23
:1052D000002092F8E81100BF07FA00FC11EA0C0F59
:1052E00005D033F910C0B2F80882C445DBDB401C9E
:1052F0000628F1DB0F2D08D26D1CEDB244EA051033
:10530000761C8BF80000102ED7DBBDE8F05F042080
:10531000FDF706BEF0B54B4900204D684C490A68C0
:10532000537D117D5B1C01FB03F41CE035F911304A
:10533000002B02DC40F0200014E040F6FF76B34280
:1053400002DB40F010000DE0B2F83471B2F8BE613B
:1053500007EB060C9C4505DABF1B9F4202DD0EB130
:1053600040F04000491C8C42E0DCF0BD2DE9FE4FCE
:10537000FEF762FA0446FEF765FA07464FEA540B59
:105380004FF4F061354810F09CF92E484FF0270992
:1053900080211C3010F0B7F9002001900120FFF7A8
:1053A00061FE2848D0F804A029480068057D012046
:1053B000002402906EE0012000FA04F111EA0B0FC4
:1053C00067D00026012000FA06F818EA070F56D029
:1053D0001C481C3050F8241011EA080F4ED13146F9
:1053E0002046FEF769FA009019483AF9151000684E
:1053F000B0F83401814235DC184B33F91520121A0C
:10540000A1EB000000D55242002800DA404282425F
:1054100009DC00983146401EC0B20246009020468A
:10542000FEF760FA01E023F815100D49009821F805
:10543000150004481C3050F8241041EA080140F8D7
:1054400024101BE06C40100000C801200CC8012093
:105450003C0210002A400120F6FF0100D8CF0120B5
:1054600058D7012000983146401CC2B22046FEF7B2
:1054700039FA6C483AF8151020F815106D1C761C96
:10548000202E9FDB684850F82400B84201D000204D
:105490000290641C4C458EDB029838B9FCF7B9FFCA
:1054A0000198401C01904028FFF678AF5F484FF00C
:1054B000010A00250068067D1DE0012000FA05F1C3
:1054C00011EA0B0F16D000240120A04038420ED064
:1054D0005748214610F81600804602462846FEF737
:1054E00001FAB8F13F0F01D34FF0000A761C641C9B
:1054F000202CE9DB6D1C4D45DFDBBAF1000F02D13A
:105500000320FDF70DFDFCF784FF0120FFF7AAFD46
:10551000BDE8FE4FFEE62DE9F05F444A116891F8C0
:105520003001C4074348037803F0F00516D0057036
:1055300000264B7D0C7DDFF8F0A05B1CB046AAF185
:105540001C0A914604FB03F783460120FFF78AFDFE
:105550002046DAF80420D9F800100EE091F83E1148
:1055600001F00F01294301709DE600BF32F91030B0
:10557000B1F832C16345F7DB401C8742F6DC0F2EE1
:105580000AD2761CF6B245EA060108F101088BF84A
:105590000010B8F1100FD8DBBDE8F05F0220FDF776
:1055A000BFBC70B501244FF404614FF4F83010F023
:1055B000AAF8FCF72EFFFFF7AEFFFFF7D7FE1B4D53
:1055C00044EA0064286890F8E80128B1FFF759FE22
:1055D000FFF77FFD44EA004416482A68401D017821
:1055E00092F8FB2701F0F00102F00F021143017065
:1055F0001148FEF7CFF9204605F0FDFFBDE87040E9
:10560000012000F001BD10B54FF4805421460B4835
:1056100010F057F82246BDE810404FF4F831074823
:10562000FEF73FBBD8CF0120884010003C0210009D
:1056300058D70120F6FF0100E42310002A30012092
:105640002DE9F04F0020FF4D04460246012140F6AF
:10565000FF7BFD4BD5F814906E681B6801FA02F7CA
:1056600037421CD039F914A0BAF1000F02DC40F027
:10567000200013E0DA4502DB40F010000EE0B3F842
:1056800036C1B3F84171E6460CEB0708D04503DBA1
:10569000AEEB070CD44501DD40F04000641C521C09
:1056A000202ADBD30024AF69AE68224601FA02F556
:1056B00035421AD037F91450002D02DC40F020009A
:1056C00012E05D4502DB40F010000DE0B3F83A81D6
:1056D000B3F8439108EB090CAC4503DBA8EB090CCC
:1056E000AC4501DD40F04000641C521C202ADDD393
:1056F000BDE8F08F10B501461C22D448FEF7D1FA60
:105700008021BDE810400120FAF7B8BE30B59BB04B
:1057100004466846FEF7F4FA207801284AD0CA48C1
:10572000016891F80907800705D5B1F85C07ADF865
:105730003400ADF83A0091F80A074FF00604C007AC
:1057400009D0FEF7EAFC012805D0BDF8020040F0C0
:105750000200ADF80200ADF8004000208DF84600D0
:105760008DF84500B748416849000B9180680C905E
:10577000BDF80200AFF2830140F4A670B34D029170
:10578000ADF8020003246846FCF7C2F819AB00220A
:1057900080210120FAF7C2FE80210120FAF79DFE48
:1057A0002878002804D0FDF797FB641E002CEADC63
:1057B0001BB030BD4FF48060ADF80000CDE72DE99F
:1057C000FC5F0446006A21210FF07BFF3021606AF4
:1057D0000FF077FF2046FDF7C4F92046FCF793FE53
:1057E0000420DFF86082DFF860A203254FF0000993
:1057F0004FF0010B00902046FFF788FFE8072AD002
:105800000020074606460190D8F804100BFA06F06F
:10581000084219D03046216AFEF780F8D8F81410F3
:1058200031F91720DAF80010B1F845118A420ADA86
:105830003F2808D2012101910099226A0844C1B28F
:105840003046FEF78EF87F1C761C202EDCD30198A4
:1058500008B925F00105A8072BD500200746064604
:10586000CDF80400D8F808100BFA06F0084219D059
:105870003046616AFEF752F8D8F8181031F917204F
:10588000DAF80010B1F847118A420ADA3F2808D244
:10589000012101910099626A0844C1B23046FEF7C5
:1058A00060F87F1C761C202EDCD3019808B925F007
:1058B000020555B12046FDF754F92046FCF723FEBA
:1058C00009F10109B9F1640F95DB03254FF00009D7
:1058D0002046FFF71BFFE80729D0002007460646B1
:1058E000CDF80000D8F804100BFA06F0084217D0E3
:1058F0003046216AFEF712F8D8F8141031F9172053
:10590000DAF80010B1F845118A4208DD38B10121FA
:105910000091401EC1B23046226AFEF722F87F1C79
:10592000761C202EDED3009808B925F00105A807C3
:1059300029D5002007460646CDF80000D8F8081003
:105940000BFA06F0084217D03046616AFDF7E6FF11
:10595000D8F8181031F91720DAF80010B1F847110B
:105960008A4208DD38B101210091401EC1B23046A3
:10597000626AFDF7F6FF7F1C761C202EDED30098AE
:1059800008B925F00205002D0AD02046FDF7E9F8F8
:105990002046FCF7B8FD09F10109B9F1640F97DB66
:1059A000BDE8FC9F2DE9F04106460020F169087032
:1059B0002121306A0FF085FE3021706A0FF081FEE0
:1059C0003046FCF7A0FD3046FDF7CBF81D4D002713
:1059D0003046FFF79BFED5E904320024204605E05F
:1059E00032F91010A14200DD0C46401C9842F7DB52
:1059F0000020EB68AA6905E032F91010A14200DD31
:105A00000C46401C9842F7DB002C0BDCF069017857
:105A10000F2904D8491C01703046FDF7A2F87F1CFD
:105A2000202FD5DB40F6FE70844208DDF16908784E
:105A3000401E08703046BDE8F041FDF792B8BDE861
:105A4000F0810000DC0210003C0210000841100050
:105A50002DE9F05F04464068FE4A00250778A068FB
:105A6000D4F81480D2F804C090F800902E4629464D
:105A7000012000BF00FA01F313EA0C0F04D018F85C
:105A80000130AB4200D91D46491C2029F2D3A3693D
:105A9000D2F808C00021904600FA01F212EA0C0F79
:105AA00003D05A5CB24200D91646491C2029F3D3D0
:105AB000E068E949057020690670086890F80A07EF
:105AC000C20708D08B46800705D5FEF707FB0128E3
:105AD00001D1207860B1E81906EB0901FF22884264
:105AE0007CD2081A2844FF286DD8E168087072E05B
:105AF000DBF8000000F5EB604279017902F03F022B
:105B000001EB0228C2798179007802F03F0201EBB3
:105B1000022A400609D508EB0A0105EB410006EB15
:105B20004102384402EB090109E007EB450208EBAA
:105B30000A0102EB410009EB460202EB4101FDF7CD
:105B400014FDDBF8001002465846B1F80B379342BB
:105B500001D2A1F80B2791F80A2752072FD591F807
:105B60005827520613D54FEA48025342CAF10002A1
:105B700003EB420291F80B17E3681144C91B19703B
:105B8000006890F80B071118A1EB090015E0B1F8B7
:105B90000B3708EB0A01CA19524203EB4202E368D1
:105BA000C2F347021A700068B0F80B2701EB090036
:105BB000404202EB4000C0F3470021690870BDE895
:105BC000F09F0BE0FFE7E0680270D8F8001041F0AA
:105BD0008001C8F8001020690670F0E7814211D2F8
:105BE000401A3044FF2802D82169087007E0206974
:105BF0000270D8F8001041F08001C8F80010E06889
:105C00000570DCE7E0680570E5E72DE9F041044642
:105C1000002145698F48904B01228C46476802FA63
:105C200001F63E420AD01F686E5C97F84A71BE4288
:105C300002D9F61B6E5401E005F801C0491C202969
:105C4000ECD3D4F818500021876802FA01F63E42DE
:105C50000AD01F686E5C97F84A71BE4202D9F61BE3
:105C60006E5401E005F801C0491C2029ECD3204600
:105C7000FFF7EEFE2046BDE8F041FCF78DBC2DE9B4
:105C8000F14F82B02C210298D0E9056530460FF023
:105C900018FD402128460FF014FD0298FFF7D8FEAA
:105CA0000298FCF75EFF0298FCF776FC04200324C0
:105CB000DFF8A0A1DFF8A0B100274FF001090090A4
:105CC0000298FFF723FDE00727D04FF0000C624653
:105CD0006046534609FA00F1D3F8048011EA080F30
:105CE00013D0596931F91280DBF80010B1F838117E
:105CF000884509DA16F8008000994FF0010C4144FC
:105D0000FF2900DDFF213154521C401C2028E1D323
:105D1000BCF1000F01D124F00104A00727D54FF0FA
:105D2000000C62466046534609FA00F1D3F8088039
:105D300011EA080F13D0996931F91280DBF80010CD
:105D4000B1F83C11884509DA15F8008000994FF048
:105D5000010C4144FF2900DDFF212954521C401C45
:105D60002028E1D3BCF1000F01D124F002045CB182
:105D70000298FFF76DFE0298FCF7F3FE0298FCF71D
:105D80000BFC7F1C642F9BDB032400270298FFF78A
:105D9000BDFCE00725D04FF0000E7146704652461C
:105DA0004FEA0B0CD2F8048009FA00F313EA080F4B
:105DB0000FD05369DCF8008033F91130B8F838811E
:105DC000434505DD335C1BB15B1E4FF0010E3354C0
:105DD000491C401C2028E5D3BEF1000F01D124F05E
:105DE0000104A00725D54FF0000E714670465246BB
:105DF0004FEA0B0CD2F8088009FA00F313EA080FF7
:105E00000FD09369DCF8008033F91130B8F83C8189
:105E1000434505DD2B5C1BB15B1E4FF0010E2B547F
:105E2000491C401C2028E5D3BEF1000F01D124F00D
:105E30000204002C0BD00298FFF70AFE0298FCF730
:105E400090FE0298FCF7A8FB7F1C642F9EDBBDE848
:105E5000FE8F0000DC0210003C021000F0B4BD4BCD
:105E600000210C461E6896F8302192070BD5426837
:105E700096F8496101211578B54203D9A5EB0605CD
:105E8000157000E014701D6895F8302152070BD58D
:105E9000826895F8495141F002011378AB4202D96A
:105EA0005B1B137000E01470002901D0F0BCCFE53B
:105EB000F0BC70472DE9F047A64E04460025316836
:105EC0002F4691F830018207606802D501250770DE
:105ED00003E0227891F83F110170306890F830119A
:105EE000490704D5A06845F00205077004E0217851
:105EF000A16890F840010870002D75D02C216069D0
:105F00000FF0DFFB4021A0690FF0DBFBE0692121EE
:105F10000770206A0FF0D5FB3021606A0FF0D1FBCB
:105F2000E168FF200870216908702046FCF734FB07
:105F30002046FCF7E8FA2046FCF713FEDFF818824B
:105F40004FF0100900272046FFF7E0FBE80724D0B8
:105F5000D8E904C30020014606E000BF33F9112050
:105F6000824200DD1046491C6145F7DB3168B1F81B
:105F70003621824203DA61680878401E09E0B1F8F0
:105F80004B11814207DB616808784844FF2800DD37
:105F9000FF20087001E025F00105A80727D50020A3
:105FA0000146D8F818C0D8F80C3005E03CF91120AB
:105FB000824200DD1046491C9942F7DB3168B1F896
:105FC0003A21824204DAA0680178491E01700EE08D
:105FD000B1F84B11814208DBA16808784844FF28DA
:105FE00000DDFF20087002E00CE025F00205002D26
:105FF00008D02046FFF72CFD2046FCF7B2FD7F1CA1
:10600000202FA0DBBDE8F08730B58BB005468DF8BA
:1060100000006846FDF71FFC4F4C00202060FDF794
:1060200070FB6060FDF798FBA06060680421400889
:106030006060201DFDF782FA2061042104F1080050
:10604000FDF77CFAE0606846FFF760FB4348012DEE
:1060500049D080686061A061D4E9040101EB40018E
:106060006161E16801EB4000A16901EB4000A061C2
:106070006846FFF71FFF6846FFF7F0FE354D2868BA
:1060800090F83001800605D56846FFF7F8FD6846B0
:10609000FFF7BBFD286890F83001000702D568467D
:1060A000FFF780FC286890F83001C00602D56846EA
:1060B000FFF785FB6846FCF754FD6846FFF726FBB3
:1060C000FFF7BEFA21680143216025482A6803785A
:1060D00092F8FB2763F30302027041F0020005F01F
:1060E0008AFA0BB030BD4069B4E72DE9F041194C94
:1060F000206890F8090780072AD5FEF70EF80128D6
:1061000026D12068A04600F25C7004888178C078AF
:1061100000F03F0001EB00251148801E0778801E2B
:106120000678FCF78BF881B2D8F80000B0F8723727
:1061300090F80827B0F80B072344484390FBF2F08F
:106140002B4433443B440749C01A2044C88008818B
:1061500075E400003C021000DC0210000841100051
:10616000FBFF0100FC24100010B501461C22AD48C5
:10617000FDF797FD8021BDE810400120FAF77EB9B8
:10618000F0B5A94E05460C4630689BB090F8B100BA
:1061900000F00F01491C4FF0FF308840C7436846AC
:1061A000FDF7AEFD0120ADF80000ADF8024030680B
:1061B00010F8F91F8DF8171044F00501ADF8021022
:1061C0000397ADF81A50AFF25F01029141788DF854
:1061D000181080788DF81E00944800785A2805D150
:1061E0009248401C00782844ADF81A008D4D0324D5
:1061F0006846FBF78DFB19AB002280210120FAF7DE
:106200008DF980210120FAF768F92878002804D058
:10621000FCF762FE641E002CEADC1BB0F0BD2DE929
:10622000FC5FDFF804A24FF000094E46DAF80000E8
:1062300000F57070017890F80180807801904FF03F
:106240000850D0F88C0100B9012600208CB20090D3
:1062500038E000BFDAF8000090F8CD0300EB8000D2
:106260004700002524E020460099FFF789FF6D488C
:1062700040680AF0B6FF0146DAF8000090F8F8200E
:1062800012F00F0000D1012012094A43B2FBF0F0D6
:106290001FFA80FB012E09D1B9F5707F06D2644A3E
:1062A00009F1010022F819B01FFA80F96D1CADB296
:1062B000BD42D8D95A462146302005F0E5F901986B
:1062C000204484B24445C5DDBDE8FC9F2DE9FF5F55
:1062D0004FF6FF764FF0000A93460F46804634464D
:1062E0005546DFF844911BE038F815005146FFF79A
:1062F00047FF4C4840680AF074FFD9F8001091F845
:10630000F82012F00F0100D1012112094243B2FB23
:10631000F1F080B2A04202D238F8156004466D1C3C
:10632000BD42E1DBABF8006003980480BDE8FF9F4D
:106330002DE9F0413C4E05468846306888B090F81B
:10634000D12002F00F01C2F30214491C641C0A2977
:1063500000DD0A21022C00DD0224D23006AB05AAA2
:10636000FFF7B4FF326892F8D00080071BD5BDF864
:1063700014600121E632ADF8006000204FF4803C4B
:106380006F4607E013563344634502D227F81130B5
:10639000491C401CA042F5DB002904DD06AB05AA20
:1063A0003846FFF793FFBDF814002880BDF8181099
:1063B000A8F8001008B0BDE8F0817CB50020FAF71D
:1063C0004EF91C4C01A968466588FFF7B1FF164ECF
:1063D0003068B0F8E810BDF80400814201D921808E
:1063E00000E02080BDF8000060800020FAF752F93C
:1063F000BDF80000854207D0306890F8D000400713
:1064000002D56088FEF75AFC0B49012008700B4941
:1064100008700B490870BDF800202946092005F0D6
:1064200010F97CBD244110003C021000EEFF010079
:1064300058D70120FC24100052021000A8021000BE
:10644000B70210002DE9F04706460078FE4D00B176
:1064500028701C223146FD48FDF723FCFC4C2068C7
:1064600090F89417CA07F94901D00A6900E08A68D0
:10647000F64B417D68681C33414300201AE000BFA1
:1064800097F8F0C25FEACC780DD05FEA8C7C0AD531
:1064900097F8F17232F810C07F1C0CFB07FC0F1844
:1064A00023F817C005E001EB000C32F8107023F858
:1064B0001C70401C276897F815C08445E0DC6868AC
:1064C00000F1010068607F7D07FB00FC4FF00000D9
:1064D0001EE000BF91F8F082C1465FEAC8780FD095
:1064E0005FEA89780CD507EB000891F8F11232F8D1
:1064F0001880491C08FB01F80CEB000123F81180FF
:1065000039180CEB000832F8111023F81810401C51
:10651000216891F815808045DCDC6B684FF001083C
:1065200003F101036B6091F8B10008EB101291F8D0
:10653000F002C70705D0870703D491F8F1723A44F7
:10654000D2B2934227DA91F80A07C00719D0FDF7B3
:10655000C5FD012815D12168A88891F8BA1380B229
:1065600001F00F01B0FBF1F201FB1201B7486438F2
:106570000029418802D041F0020101E021F002012E
:106580004180307808B1FCF7A7FCBDE8F047AF4880
:106590006438FBF7BDB9C2072FD080072DD4B1F8FE
:1065A000F2A2002522E0417DA84869431C3000EB9F
:1065B00041018946002014E093F8F132012231F9BB
:1065C00010605B1C06E000BF02FB070C521C31F997
:1065D0001CC066449342F7DCA6EB0A0229F810209F
:1065E000401C23685F7D8742E6DC6D1C206890F8C4
:1065F000B11008EB1111A942D5DCBDE8F0478021AC
:106600000120F9F73BBF2DE9FF4FDFF840B24FF60D
:10661000FF74002681B08A46A046ABF1640BB146F8
:106620006DE08A486438FDF76BFB894D286890F867
:106630000A07C00708D0FDF770FD28B9BBF80210A3
:1066400041F00201ABF80210296891F89407C007E5
:1066500001D0102200E00222ABF80020019830F8AF
:106660001620ABF83420BBF8022042F00402ABF84D
:106670000220AFF22F2201F2C931CBF808200A78AC
:106680008BF84420CA788BF846204A788BF84A2049
:106690006D4D89788BF838100327C5F8049000BF3A
:1066A0006A4885F800906438FBF732F96B4600229F
:1066B00080210120F9F732FF80210120F9F70DFF39
:1066C000287820B1FCF708FC7F1E002FE8DC5F482B
:1066D0001C3002F088FD5E49096891F8C82312F069
:1066E0000F0100D101211209424390B2B0FBF1F039
:1066F000A04203D20199044631F81680761C564513
:106700008FDB0398A0F800800498048005B0BDE8F2
:10671000F08F2DE9F0414E4D0646884628688CB032
:1067200000F2823C00F2963790F8810300F00F01EE
:10673000C0F30214491C641C0A2900DD0A21022C42
:1067400000DD02240AAB09AA6046FFF75CFF286857
:1067500090F8800380071AD5BDF824300121ADF8E8
:10676000003000204FF4803C6D4607E03A561A4452
:10677000624502D225F81120491C401CA042F5DBDD
:10678000012904DD0AAB09AA2846FFF73CFFBDF842
:1067900024003080BDF82810A8F800100CB0BDE827
:1067A000F0817CB50020F9F75AFF2A4C01A9684610
:1067B000E588FFF7AEFF26480168BDF80400B1F890
:1067C000AC23824201D9A28000E0A080BDF8000085
:1067D000E0802081854205D091F88013490701D5DA
:1067E000FEF7BDFA1C49012008701C4908701C49BD
:1067F000002008601B490870F9F74CFFBDF8002025
:1068000029460A2004F01DFF7CBD2DE9F843DFF87E
:1068100040800E4CD8F80000643C00F2C33005887C
:10682000468807794EE009486438FDF769FAD8F8D8
:10683000000090F80A07C00717D0FDF76EFCA0B95A
:10684000608840F002000FE0F8021000A441100040
:106850003C021000FC24100052021000A80210009C
:1068600010041000030410006080D8F8000090F8B5
:106870009407C00701D0102000E002202080A586E8
:10688000608840F004006080AFF24740A0600F488D
:10689000002141600E48FBF73BF86B460022802147
:1068A0000120F9F73BFE80210120F9F716FE084888
:1068B000803002F098FC02462946312004F0E4FEC4
:1068C000E81985B2B542AEDDBDE8F883F8021000E4
:1068D000404110002DE9F041174604460D460026C0
:1068E00009E0E00703D03146384604F0E2FD761CAB
:1068F0006D084FEA340454EA0500F2D1BDE8F08196
:1069000030B5034600204FF0FF32012505FA00F4B0
:106910000C4202D0521C9A4203D0401C2028F5D3CE
:10692000002030BDF0B50E460125074605FA06F2F7
:10693000FE4C0F2FD4E9151065D2DFE807F0644351
:106940004B08106464192129323A54585C003046CF
:10695000FFF7D6FF8540A06A0543A56253E00146D4
:106960003046FFF7CDFF8540206C054325644AE0A3
:106970003046FFF7C5FF8540E06A0543E56242E027
:106980003046FFF7BDFF8540206B054325633AE0A5
:1069900001463046FFF7B4FF8540A06C0543A5646F
:1069A00031E03046FFF7ACFF8540606B054365631F
:1069B00029E001463046FFF7A3FF8540E06C054320
:1069C000E56420E03046FFF79BFF8540606A0543A1
:1069D000656218E001463046FFF792FF8540E06BA4
:1069E0000543E5630FE0A06B0243A2630BE0206D5B
:1069F0000243226507E001463046FFF781FF8540EC
:106A0000606C054365642068401C2060F0BD10B5D3
:106A100001461C22C648FDF744F98021BDE810401C
:106A20000120F9F72BBD10B5FCF75EFE0446FCF71C
:106A3000CFFE204310BD10B5FCF748FE4408FCF71C
:106A4000BBFE44EA5000400010BD2DE9F0478946E6
:106A500005464FF0FF34FFF7E6FFB44F0246002033
:106A60007B6801464FF0010C0CFA01F6164200D08B
:106A7000641CAC4206D1B9F1010F09D022EA06002C
:106A80000B462021491C2029EED37B60BDE8F0870E
:106A90003046F5E72DE9F047894605464FF0FF34CB
:106AA000FFF7C9FFA14F02460020D7F80430014686
:106AB0004FF0010C0CFA01F6164200D0641CAC42F7
:106AC00006D1B9F1010F08D022EA06000B461E21BB
:106AD000491C1E29EED97B60D8E73046F6E72DE940
:106AE000F34F9FB004466846FDF70AF919A8FCF772
:106AF00073F8FFF7A0FF8D4E40087065FFF793FF16
:106B0000DFF830928C4D4FF00C0809F1010A4FF07C
:106B10001F0BB065012C0DD00627022C2ED0032CA4
:106B200032D0042C35D0052C3CD0062C5AD0082C61
:106B300071D08AE0FCF780FE0390FCF783FE04909E
:106B40000120ADF80000ADF81A8099F800005A282D
:106B500004D19AF800000C30ADF81A0040208DF8EE
:106B6000170095208DF81E003C20ADF81C000398FE
:106B70008DF818B040087065049865E0FFF75BFF7A
:106B80000B90FFF750FF14E0FFF74DFF01210C9031
:106B900003E0FFF748FF00210C902098FFF77AFFF1
:106BA0000B9007E0FFF747FF0B9001212098FFF7BC
:106BB0004CFF0C90ADF80070286800F55A70817891
:106BC0008DF84410C1788DF84A1001788DF838108E
:106BD00041788DF83E108188ADF834100089ADF809
:106BE0003A0032E0FFF727FF0B90FFF71CFF0C90F5
:106BF000ADF80070286800F2613081788DF844109B
:106C0000C1788DF84A1001788DF8381040788DF8E9
:106C10003E001AE0FFE70820ADF80000ADF81A804A
:106C200099F800005A2804D19AF800000C30ADF809
:106C30001A0040208DF8170095208DF81E008DF861
:106C400018B0099870650A98B0650020BDF8021068
:106C50008DF8140021F030018DF846008DF81600F3
:106C600041F04A018DF84500ADF80210AFF2612104
:106C700003260291012C12D0092C23D00A2C21D0FA
:106C80008DF86E008DF870008DF86F00022C10D01A
:106C9000032C0ED0042C0CD0052C0AD012E029684D
:106CA00091F84D178DF8680041F003018DF86410DC
:106CB000E6E72868B0F86E13ADF86A10B0F8720312
:106CC000ADF86C0019A8FBF7A7FF194C6846FAF756
:106CD0001FFE1DAB002280210120F9F71FFC80213F
:106CE0000120F9F7FAFB2078002804D0FCF7F4F82B
:106CF000761E002EEADC21B0BDE8F08F2DE9FC5FA6
:106D000000210120FFF7EBFE09484768FCF794FDDE
:106D10000190FCF797FD0090042101A8FCF70EFC00
:106D2000064604216846FCF709FC07E00003100052
:106D300040491000EEFF01003C0210008446002094
:106D40000546DFF838B5DFF838A5009054E000BFFD
:106D50004FF00008C1465C462846DBF85810FFF7A4
:106D6000CFFD014601208840A16C084243D1012497
:106D700032E000BF04FB0C51DAF8000037F91120B3
:106D800090F86703B2EB001F25DA08F10108B9F1AA
:106D9000000F00D1A146721E94421CD1B8F1010F20
:106DA00019D1ACF10102954204D1611E0120FFF717
:106DB000B9FD0EE007EB4101B1F90220B2EB001F73
:106DC00005DB35B131F9021CB1EB001F01DA0020FF
:106DD00000E002208046641CB442CBDBA6EB090134
:106DE000414508D829460220FFF79CFD0120009963
:106DF000A840084300906D1C6545A9DB01253AE0D9
:106E00004FF0000844462CE0DBF84030DBF8482027
:106E100000201A4311D0D9462046DBF85810FFF75E
:106E20006FFD014601208840D9F84810084203D17F
:106E3000D9F84010084000D0012005FB0C4137F97B
:106E40001120DAF8001091F86713B2EB011F07DA8E
:106E500030B901200099A040084201D108F1010891
:106E6000641C6445D0DBB8F1000F03D0691E01201B
:106E7000FFF758FD6D1CB542C2DBBDE8FC9F2DE954
:106E8000F041FE4C00200546FE4FDFF8F483A06180
:106E90001EE029460520FFF722FE21690120BE6879
:106EA00000EB410C36F91C10D8F8000090F877037D
:106EB000B1EB001F03D929460E20FFF733FD36F949
:106EC0001C00A169884202DD36F91C00A0616D1C1E
:106ED00060698542DDD311E52DE9F047002637468C
:106EE00031460820FFF7FBFDE648E54D0021D0F8CC
:106EF0000CC02868012400F5F57990F8E82100BF5E
:106F000004FA01F31A4208D03CF9113090F87D835D
:106F1000B3EB081F00DA761C7F1C491C0629EFDB47
:106F2000BE420BD190F8E611C90790F8E91101D0E3
:106F30000D2000E00C20BDE8F047F3E4002E1CD04B
:106F40000026286804FA06F290F8E811114211D0E0
:106F50003CF9161090F87D23B1EB021F0ADA90F885
:106F6000E60119F80610C00701D00C2000E00D2042
:106F7000FFF7D8FC761C062EE3DB87E52DE9F04110
:106F800000210620FFF7ABFDBE480025BC4EBB4CE0
:106F900087680EE0E0683168284437F9100091F8FE
:106FA0006513B0EB011F03DD29460A20FFF7BAFC89
:106FB0006D1C20698542EDDB00250EE0A06831687C
:106FC000284437F9100091F86613B0EB011F03DD78
:106FD00029460B20FFF7A6FC6D1C60698542EDDB9E
:106FE0008CE42DE9F041A54C00200646206237E0F4
:106FF00031460420FFF773FDA248002587682BE087
:10700000FFF711FD01462846FFF77AFC01460120F3
:107010008840216C08421ED19949A068284409681B
:1070200007EB400030F9040C91F87813B0EB011F26
:1070300007D931460820FFF775FC29460920FFF7DC
:1070400071FCA068216A284407EB400030F9040C69
:10705000884200DD20626D1C60698542D0D3761CB9
:1070600020698642C4D349E42DE9F041834C0020D5
:107070000546844FDFF80882E0611AE029460320C4
:10708000FFF72DFDBE68B6F90210D8F8000090F8A1
:107090007603B1EB001F03D929460720FFF742FC16
:1070A000B6F90200E169884202DDB6F90200E0614A
:1070B0006D1C20698542E1D320E42DE9F0410021D7
:1070C0000220FFF70CFD6F486D4D6C4C87682868F7
:1070D00090F86003000713D500260EE0E0682968E9
:1070E000304437F9100091F87413B0EB011F03D945
:1070F00031460320FFF716FC761C20698642EDDB43
:10710000286890F86003C00613D500260EE0A0683A
:107110002968304437F9100091F87513B0EB011F5E
:1071200003D931460420FFF7FDFB761C60698642D7
:10713000EDDBD0E62DE9FC410020F9F790FA4FF4A1
:10714000F83040F6FD010EF0BCFAFBF76CFAFBF7E5
:1071500033FAFBF75EF9494C00202060FFF76BFC27
:107160000090FFF760FC019004216846FCF7E6F907
:107170000546042101A8FCF7E1F9014600EB4500B2
:10718000C4E90205C4E904513D4D286890F8600344
:10719000010701D4C00601D5FFF78FFF286890F8DA
:1071A0006003800601D5FFF75FFF286890F8600351
:1071B000000601D5FFF715FF286890F86003C007A7
:1071C00001D0FFF7DBFE286890F86013490704D56B
:1071D00090F8E80108B1FFF77FFE286890F8600397
:1071E000400601D5FFF74BFE286890F86003800742
:1071F00001D5FFF783FD2068002862D0D4E90A3565
:107200009D43E562606AD4E90F179843A843606222
:10721000666CB943B143E163A26B216D9A43AA4303
:10722000256BB943AA43A263A26CB1439143AB431C
:10723000A362216501220021FFF74CFB02220021FD
:10724000E06BFFF747FB03220021A06AFFF742FB38
:1072500004220021206CFFF73DFB07220021E06A99
:10726000FFF738FB08220021206BFFF733FB0922D0
:107270000021A06CFFF72EFB0A2205E0000310009E
:107280003C021000404910000021606BFFF722FB18
:107290000B220021E06CFFF71DFB0C220021A06BEC
:1072A000FFF718FB0D220021206DFFF713FB0E22C4
:1072B0000021606CFFF70EFB0020F9F7EBF9BDE849
:1072C000FC810021084604F0F4F8F5E770B5984910
:1072D000002209684C7D0B7D651C5D43194603E067
:1072E00030F91160491C3244A942F9DB5C4392FB3E
:1072F000F4F000B270BD2DE9F05F8D498D4C096846
:107300000B7D4A7D04EB43095A43002491F86A64DB
:1073100091F86954B1F84CA4B1F84AB42746234611
:1073200008B900263546002040F6FF7E11E000BF78
:1073300039F910C0D44501DD641C02E0DC4500DAF7
:107340007F1CF44502D0BCF1000F01D15B1C9BB245
:10735000401C9042ECDB91F864C4002276489C45C6
:1073600008D243785B1CDBB24370B34203D942704E
:10737000027013E04270BC4213DD0378AB4203D2CB
:1073800003F1010303700DE00270427091F84904AB
:10739000400703D5BDE8F05FFCF742BC0120BDE823
:1073A000F09F02700020FAE710B50120FFF7A3FF5D
:1073B0000446012812D1614840F6050201681143D4
:1073C00001605D49012088705D48016841F40061F9
:1073D00001604FF480610120F9F750F8204610BD9C
:1073E0002DE9F041544E0024B07801281ED1554FAC
:1073F00000250020FFF77FFF68B10124FEF7D1F8D8
:1074000078885149FDF7CCF86D1C032DF1DB002085
:10741000FBF786FD08E0C12040EA042004F0EBF809
:10742000012C01D10DF078FF0020B070BDE8F08193
:10743000F0B53F490020034609680246434F4D7DA1
:1074400040F6FF7616E000BF37F91240B44200D094
:107450000CB95B1C9BB2B1F852C4644503DBB1F8B4
:107460004EC4644505DDB1F84EC4644501DD01201C
:107470002A46521C9542E7D80022354F0D7D15E073
:1074800037F91240B44200D00CB95B1C9BB2B1F882
:1074900054C4644503DBB1F850C4644505DDB1F85C
:1074A00050C4644501DD01202A46521C9542E7D8AC
:1074B00091F85E14994201D20120F0BD0128FCD060
:1074C0000020F0BD2DE9F0418046224800263746D5
:1074D00000888005AAD5002504E0012C02D1404691
:1074E000FDF75AFAFFF7A4FF0446012807D1002050
:1074F000FEF78AFD01266D1C032DEEDB17B1012E70
:107500000ED00FE00120FBF70BFD782112480EF0A2
:10751000D8F8BDE8F0411048802178300EF0D1B89D
:107520000DF0FAFEBDE8F041C22004F064B87DE73A
:107530003C021000640B10005C03100044021000B9
:1075400048021000FC24100056000120C8A70120AA
:1075500040A801204C021000C0A8012008B5714FBE
:10756000714DDFF8C881724E0024287880B101285F
:10757000FBD16B4600224EF27D71F8F7CFFF0098E9
:10758000C1071ED001210846F8F7A7FF2C70ECE7D1
:1075900001210020FCF757F96B460022022101204F
:1075A000F8F7BCFF01210846FCF74DF90098800769
:1075B000DBD54EF27F710120F8F78FFF0120287094
:1075C000D3E701070CD508210120F8F786FF00203A
:1075D000F9F745F80620F9F742F8FDF7E2FF0EE06B
:1075E000410713D504210120F8F777FF0020F9F7B0
:1075F00036F80620F9F733F80020FEF705FD0620DF
:10760000F9F748F80020F9F745F8AEE7C10609D5C3
:1076100010210120F8F761FF38780028A5D1FEF786
:10762000CCFEA2E7810609D520210120F8F755FFFD
:107630003878002899D1FFF7B4F896E7C10507D547
:107640004FF480710120F8F748FFFEF7E8FD8CE762
:10765000810507D54FF400710120F8F73EFFFFF7D1
:10766000D4F882E7410606D540210120F8F735FF1E
:10767000FFF760FD79E7010407D54FF400410120D1
:10768000F8F72BFFFDF7BFFF6FE7410540D54FF43B
:1076900080610120F8F721FF2648046030888005CA
:1076A0000AD50020F8F7DBFFFAF7C8FD6880FEF77F
:1076B0001CFD0020F8F7EEFF1F48D0F80090046092
:1076C0004846FDF745FA5FEA897001D500F0A2FB54
:1076D000A9F5E061B73905D1052003F08CFFC8F8A2
:1076E000004013E05FEAC97008D0D8F8000040F00D
:1076F000150003F080FFC8F8004036E719F0420F8C
:107700008FD0306840F0060003F075FF34602CE73E
:10771000800486D54FF400510120F8F7DEFEFDF716
:10772000A0FB22E766021000600310004802100070
:107730004C0210001C0410004402100070B5FF48F9
:1077400000240470FE480470FE480470FE48047073
:10775000FE4804700120FE49FF4D0870FD49087085
:107760002C616C61AC802C70FF20EC61E880FB48E0
:107770000068B0F85211A981B0F8540168813C2129
:10778000F7480DF09EFF4021F6480DF09AFF3C218E
:10779000F5480DF096FFF44840213C300DF091FF84
:1077A000AC70EC70BDE8704000F086BF30B50024CE
:1077B000234605E030F913508D4200DD641C5B1C4C
:1077C0009342F7DBE548006890F86101A04201D2DE
:1077D000012030BD002030BDF0B506460020044633
:1077E000059F0CE036F91450D3F800C0AC4501DA1F
:1077F0001D603C7010B9954200DD0120641C8C4274
:10780000F0DBF0BD30B585B0D44C01A80090206805
:10781000002503ABB0F95221017DD448FFF7DCFF0E
:1078200050B123689DF8040093F88A2102F00F01FB
:10783000814219D81B7D14E002A80090206804AB97
:10784000B0F95421417DCA48FFF7C6FF68B12368EB
:107850009DF8080093F88A2102F00F01814203D8B5
:107860005B7D591A814200DA150905B0284630BD02
:10787000FEB5BA4801AB5022006890F88911B0F902
:10788000877101F00F060C09B0F9855102A900912A
:10789000017DB648FFF7A0FF0198B84201DD3046F0
:1078A000FEBDA84201DA2046FEBD401B311B484305
:1078B000791B90FBF1F02044FEBD30B5AD48A74DDB
:1078C0000478286890F85101800703D5FFF7D0FFAE
:1078D000A4EB0004286890F85101400702D5FFF797
:1078E00091FF0444002C01DA002402E00F2C00DD9B
:1078F0000F24204630BD30B564290DD00023642408
:1079000008E000BF30F913504D4395FBF4F520F823
:1079100013505B1C9342F5DB30BD70B5002364252A
:107920000AE0CC5C642C06D030F91360664396FB09
:10793000F5F420F813405B1C9342F2DB70BD2DE997
:10794000F0470025894629462F462E46A8462B4655
:107950000DE000BF30F913C039F913400CFB0C6681
:107960000CFB047704FB0488654421445B1C9342B0
:10797000F0DB87FB020485FB013CC71A86FB020390
:1079800085FB056564EB0C04B0EB060C63EB0506A8
:1079900088FB020381FB0121851A63EB0108642146
:1079A000A7FB010304FB0131002207FB0211334650
:1079B00062460DF015FE0246A2FB070301FB0731EC
:1079C00002FB04112A4643460DF00AFE002C00DAA1
:1079D0004042BDE8F08730B547F6F873002405E073
:1079E00030F91450AB4200DD2B46641C9442F7DBA7
:1079F000002405E030F81450ED1A21F81450641CEE
:107A00009442F7DB30BD70B503460020024601EB1F
:107A1000D17408E003EB420633F91250B6F9026064
:107A2000AD1B2844521CB2EB640FF3DB621008E07C
:107A300003EB420533F9124035F9025C641B204424
:107A4000521C8A42F4DB70BDF0B587B00746434C48
:107A500003A8009020689C468E461646017D0025AE
:107A600004AB0FFA8CF27046FFF7B6FE01283BD14B
:107A700002A80090206805AB32B2417D3846FFF77E
:107A8000ABFE012830D1DDE9041081424FF06402E1
:107A900003DD504390FBF1F102E0514391FBF0F123
:107AA000206890F892218A421EDD9DF8081019B9CD
:107AB00090F89121D20716D0427D521E8A4203D1FE
:107AC00090F8911189070ED59DF80C1019B990F80E
:107AD0009121520707D5027D521E8A4204D190F8A7
:107AE0009101000700D4012507B02846F0BD2DE91B
:107AF000F04185B08046012001900290174C04A807
:107B0000009020681E468C461746017D002501AB7B
:107B100032B26046FFF760FE064603A80090206878
:107B200002AB3AB2417D4046FFF756FE012E01D02E
:107B3000012831D1DDE9011081421DE06002100011
:107B40009202100093021000610210006202100005
:107B5000A8021000AA021000640310003C021000EA
:107B600054A6012090A6012068420120E046012091
:107B7000A4460120AB0210004FF0640203DD504325
:107B800090FBF1F002E0514391FBF0F0216891F895
:107B90009211814200DD012505B02846BDE8F08143
:107BA000F0B40446FE480B46802100680D4690F86C
:107BB000680110B10146C0F58075FA4800890328B4
:107BC00005D22146F0BC52001846FCF76AB80020E6
:107BD0000FE000BF33F9106034F910704E4307FB1B
:107BE0000566F71706EB176646F30F2623F81060B5
:107BF000401C9042EEDBF0BC7047F0B50024E84D2D
:107C00000FE030F8146031F81470012B0CD0F61B23
:107C10002F6897F86D717F4206EBC70620F8146055
:107C2000641C9442EDDBF0BD3E442F6897F86D7103
:107C3000F2E72DE9FC47DB4D80460026288990B904
:107C40003C22D949D948FCF72CF84022D849D948D8
:107C5000FCF727F83C21D8480DF033FDD6484021E9
:107C60003C300DF02EFD28890127CD4C032802D28F
:107C7000D248077013E012D92168B1F86B21824213
:107C80000DD94B7DC94ACC49C74801F0CCFE2068CC
:107C9000C949C84A037D3C31C54801F0C4FE20688B
:107CA00090F85011427D090710D590F88D11CDE95B
:107CB000001290F88B31C24ABB494046FCF73FF9AD
:107CC0002068BD49427DB839BD4802E0BA49404606
:107CD000B839FFF765FF2068B34A90F85011437D2B
:107CE0000907B84901D5B64800E0404601F09BFEBF
:107CF0002068AD4AB349437DAF48B83801F093FEE0
:107D0000206890F85011C90610D5427D90F896125F
:107D1000AC48FFF7F0FD216891F85001C00605D589
:107D20004A7D01F51C71A748FFF7F7FD2268B2F8FC
:107D30005411B2F86901B2F87F4101440BB22989AC
:107D40008C4201D2184403B200200446DFF878C206
:107D5000DFF87092527D1CE039F91080984515DDEE
:107D6000761C022E13D96878401C40B26870002837
:107D700004DD96488CF800706C70077047F6FF7051
:107D8000814201D2491C2981BDE8FC870026401CA4
:107D900000B28242E0DC6C708CF80040EEE70346F3
:107DA00010B50020024603E033F91240521C204473
:107DB0008A42F9DB10BDF0B5794D0F4600262968DF
:107DC000497DFFF7ECFF04462868017D3846FFF740
:107DD000E6FF002C00DA64422A6800237149D2F8D9
:107DE0009C52AC4206D8002800DA4042A84201D892
:107DF0000B620DE0086A401C086292F89B228242E6
:107E000006DC73480126026842F4003202600B620D
:107E10003046F0BD6248006890F89011890606D59A
:107E2000604901220A7090F895211209CA6190F800
:107E3000F002C00701D001F045BF70471CB5594999
:107E40000020098901B901201021554CCDE900100D
:107E500020680F235F49427D5F4801F09CFD206848
:107E60005C49437DB0F9AE215B48FCF733F801284B
:107E700000D000201CBD2DE9F34F002085B08246C4
:107E8000054607460290554C401E03902078DFF8C7
:107E90003CB14FF000084FF0010901281CD0404EC2
:107EA000306890F82010C9061DD590F825104C4870
:107EB0000288914217D2A0F800804A48016841F038
:107EC000220101604FF480610120F8F7D7FA8BF8A6
:107ED000009007B0BDE8F08F8BF8009000F0ECFB4D
:107EE00084F80080F5E70320F8F7B9FB3E482D4CF5
:107EF000007801287ED02089012813D93068012319
:107F00002D49427D2848FFF778FE30682A49012331
:107F1000027D3C312648FFF770FE3068334990F807
:107F2000FD02087000202081FFF7C7FCDFF89CB03D
:107F3000019021499BF8000000903068B046B839A4
:107F4000427D019B059801F003FD9BF80000009025
:107F500030681949019B027D7C39069801F0F8FCD4
:107F6000234E30780A287BD00F2802D200F101007E
:107F70003070D8F80000464690F85011090745D5F2
:107F8000427D90F88D11CDE900120B4A90F88B31AB
:107F9000B83A05491046FBF7D2FF3068027D2AE067
:107FA0003C02100064031000E2290120DA2A0120BB
:107FB0001E2A0120162B0120EC410120F80310009D
:107FC0008C491000A446012062021000A802100093
:107FD0004C021000EE2F0120B22F0120AA02100047
:107FE0005002100044021000530210009D031000C4
:107FF000A902100025E090F88E11CDE90012FF4A89
:1080000090F88C31FE491046FBF799FF3068FD4A25
:10801000FD49437DF9483C3801F005FD3068F84AD8
:10802000FA49037DF54801F0FEFC306890F89101B3
:10803000000625D5F549F448FFF7BDFE01281DD0FF
:108040001EE0306890F85101C00605D5FFF7F6FE36
:10805000EF490128087004D00598FFF7EAFD04E015
:1080600007E084F801808BF800900320F8F712FBFA
:108070002FE70D2003F0BFFA142079E701200290CA
:108080000320F8F707FB3068DFF88883B34690F8E1
:10809000901109074CD5D949427D5E464031DA48F6
:1080A000FFF799FC3068D549427D403100F5747086
:1080B000FFF745FC60613068417DD0484030FFF7F4
:1080C000A2FCA06163698646322B1CDDCB48DBF83D
:1080D00000204030B0F90060B2F854118E4207DD44
:1080E00092F815C000EB4C0C3CF902CC8C4509DC35
:1080F00049428E4207DA527D00EB420030F9020C11
:10810000884200DA0125DBF8000090F894119942CA
:108110000EDAB0F8AC2172450ADA90F89001400608
:1081200000D50127D8F8001041F48051C8F800109C
:10813000DBF800005E4690F85011C9061AD5427D62
:1081400090F89612B048FFF7D6FB3068027D90F8A1
:10815000E012AE48FFF7CFFB3068427D90F89712EF
:10816000AD48FFF7C8FB3068027D90F8E112AB48DC
:10817000FFF7C1FB306890F89011890710D5B0F86F
:108180005231B0F85421A1499F48FFF75DFC012806
:1081900006D1D8F80010012741F40051C8F80010AA
:1081A000306890F8911189060AD5B0F85231B0F8CC
:1081B000542196499448FFF79AFC012800D10127E1
:1081C000306890F89111490617D5B0F95421417DD6
:1081D0008D4801F045FC02280DD870B13068417D12
:1081E000894801F051FC02463068417D864801F023
:1081F00037FC022801D901273D46316891F89001EA
:10820000820705D4000703D491F8910180060BD5AD
:10821000012F09D1B4F9040000280ADB401E00B286
:10822000A080002805DCBA4691F8950100F00F0007
:10823000A08091F85001C0061AD54A7D01F51C7145
:108240007148FFF76AFB316870480A7D01F52871B3
:10825000FFF763FB316870484A7D01F52171FFF734
:108260005CFB31686D480A7D01F53071FFF755FB05
:10827000306890F85011090611D5CDF80090437D73
:108280004F46674A6749604801F0A3FB0097306892
:10829000634A6549037D5D4801F09BFB0CE0407D2E
:1082A000594942005F48FBF7FCFC30685749007DA4
:1082B00042005D48FBF7F5FC306890F89111C90663
:1082C00027D503A90091427DB0F8AC31521E0021A0
:1082D0004D48FBF790FE012815D10399012904DBD5
:1082E0003068427D921E8A420EDAE0880125401EE7
:1082F00000B2E08000280CDAD8F80010AA4641F459
:108300008051C8F80010306890F8950100F00F0017
:10831000E080306890F85111C9070CD0B0F95E21A7
:10832000417D404801F08DFB3068B0F95E21017D50
:108330003D4801F086FB306890F85011490713D58D
:10834000CDF80090364A437D4F460A3A37493548C2
:1083500001F03FFB00973068314A3549037D0A3A06
:10836000314801F036FB0CE0407D2E4942002F4899
:10837000FBF797FC30682C49007D42002C48FBF746
:1083800090FC306890F8911189060FD5B0F8523101
:10839000B0F8542126492548FFF7A9FB012805D14B
:1083A000D8F8001041F48041C8F80010306890F807
:1083B000911149061BD5B0F95421417D1B4801F0AC
:1083C0004FFB02280DD890B13068417D174801F06D
:1083D0005BFB02463068417D144801F041FB0228F6
:1083E00005D9D8F8001041F40041C8F80010114F29
:1083F0000B23387800903068427D1DE070410120E9
:108400001E2A0120E22901208C491000C8491000D1
:10841000610210004C02100054A6012090A6012019
:1084200092031000084A1000444A1000A44601209C
:10843000E0460120A80210009249934801F088FA12
:108440003878009030688F490B23027D3C318F488B
:1084500001F07EFA32682378B2F85211B2F8540172
:10846000012B04D08A4B1B78012B09D010E0B2F805
:10847000983103B11946B2F89A314BB1184607E06A
:1084800092F85731C91A92F8563189B2C01A80B29F
:10849000804B1B783BB192F8A331184492F8A43179
:1084A00080B2194489B20FB20FFA80FC0097A781FD
:1084B000A4F80AC0B346527D61467748FFF776F9C3
:1084C0000646DBF800003946027D7448FFF76EF976
:1084D000074673486146067072480770DBF8000073
:1084E000427D6848FFF762F901281AD0A07820B1D0
:1084F000401EA0706A4800260670DBF80000009954
:10850000027D60483C30FFF751F901281BD0E0782C
:1085100020B1401EE070634800270770012E25D06F
:1085200026E0DBF8000000253C2290F8951101F0D0
:108530000F01A18090F86E01A07052495648FBF7D8
:10854000B0FB0126D9E7DBF800000025402290F8B7
:10855000951101F00F01A18090F86F014949E07079
:108560003C314E48FBF79DFB0127D7E7012F0BD08D
:108570004D49002008704D490870206900281DDD14
:10858000401E20610DD019E0474880F80090404817
:108590000078012812D1DBF8000090F897012061E3
:1085A0000CE0DBF8000090F89001C00606D5D8F882
:1085B000001041F40061C8F8001002E002980128A0
:1085C0000CD13B48016841F0220101604FF4806109
:1085D0000120F7F753FF374981F80090BAF1010FF6
:1085E0000CD13348016841F0420101604FF48061D1
:1085F0000120F7F743FF2F4981F80090DBF80000D6
:108600005E4690F89011890624D52178012921D160
:10861000E169002915DD427DB0F954111E48FFF7CC
:10862000C5F807463068027DB0F952111B48FFF7C4
:10863000BDF807B100B94DB1306890F89501000957
:10864000E06119480078012807D017E0E069401E72
:10865000E061F6D100202070F3E73068B4F904102F
:1086600090F8950100F00F00884207D1002D7FF4AB
:1086700039AC0A49084800F0A5FC2AE400F07FFA6A
:1086800027E400006842012054A6012090A60120A2
:108690009002100069021000A4460120E04601206B
:1086A000920210009302100060021000620210009B
:1086B00044021000A8021000F9490020FA4A08708C
:1086C000F849C86008618880C88008701070F74A4F
:1086D00048701070887008814881704730B5F44A3E
:1086E00000241268937EDD0792F882310BD083421A
:1086F00017DC158BEB1A834213DB92F88301884257
:108700000FDCD28A0AE083420BDCD58AEB1A834263
:1087100007DB92F88301884203DC128B101A88422F
:1087200000DA0124204630BD2DE9FE4314460D46F3
:108730000646072B09D0DB48092BB0F9041006D0F8
:108740003180C188298000781070BDE8FE833288AE
:10875000ADF802202A88ADF800202778ADF8061081
:108760008146C088ADF8040001AA694602A80BF052
:108770003CFB02A80BF031FBDFF834830346D8F84A
:1087800000C09CF87401BCF8762100F00F01BCF821
:1087900078C1000952430CFB0CFC93420BDD63458E
:1087A00001DB084607E09B1A411A4B43ACEB020180
:1087B00093FBF1F1401ABDF90230C0F11001B9F993
:1087C00004C04B4300FB0C3343F30F133380BDF95C
:1087D00000304B43B9F9061000FB013040F30F1095
:1087E0002880D8F80000102199F8002090F8750131
:1087F000A1EB10117943000900FB0210C0F3071030
:108800002070A2E75FF0000200EB82035B6840F893
:108810002230521C052AF7DB416170472DE9F04FE9
:10882000002793B080463E463D46FFF7EBFF002110
:1088300058F821000744484300FB0155491C0644F1
:108840000629F5DB974C0997143460680A90A068F4
:10885000CDE90B0620690D906069CDE90E05E06950
:108860001090206A119009A8FAF78AFE83460391B6
:108870002068CDE90907A0680B90E068CDE90C06F7
:1088800060690E90A069CDE90F05206A119009A8D2
:10889000FAF776FE8146206809906068CDE90A07FC
:1088A000E0680C902069CDE90D06A0690F90E069A1
:1088B000CDE910058A4609A8FAF762FE0326A9FB4E
:1088C00006570A460AFB06710926A0FB0637002454
:1088D00009FB041402FB0672002100FB0120EA18C8
:1088E0004441039912EB0B0061414FF47562002380
:1088F0000CF076FEC8F80C0013B0BDE8F08F30B570
:108900006B4A01241268937EDD0792F87A310BD00E
:10891000834217DC158BEB1A834213DB92F87B0141
:1089200088420FDCD28A0AE083420BDCD58AEB1A3C
:10893000834207DB92F87B01884203DC128B101A1A
:10894000884200DA0024204630BD2DE9F047DFF8E8
:1089500060910546534CD9F800008AB00E4690F855
:1089600070019A4617464FF00008C00728D0082D1E
:1089700026D094F90200062819DB11463046FFF78D
:10898000BEFF00284B48314609D0FFF747FF06B22B
:10899000484839461830FFF741FF07B210E0FFF7AB
:1089A00031FF444839461830FFF72CFF08E0401CDF
:1089B000404940B2A07041F82060183141F8207061
:1089C000ADF80060ADF804708DF814A02B4605AA30
:1089D00001A96846FFF7A8FE072D2DD0092D2BD140
:1089E000D9F8001091F87001400725D5B4F904209A
:1089F000BDF90000101A00D5404291F87C31984230
:108A00000EDAB4F90630BDF90400181A00D5404258
:108A100091F87D61B04203DAADF80020ADF8043082
:108A200022789DF81400101A00D5404291F87E116A
:108A3000884201DA8DF81420D9F800004E464FF034
:108A4000000790F8700100060FD5082D0DD0BDF974
:108A50000410BDF90000FFF741FE8046012804D153
:108A6000306890F87111C9070DD0BDF90010A180D0
:108A7000BDF90420E2809DF814C084F800C0B8F16C
:108A8000010F2FD066E0072D18D00B49097831B3BC
:108A900090F8A601401CE06000200AB0BDE8F08715
:108AA000900210009C03100060021000620210008F
:108AB0003C0210005C49100069021000FE490F7072
:108AC00090F89001C007E7D0FC48016841F022010E
:108AD00001604FF480610120F7F7D0FCDCE790F8EB
:108AE0007301D7E7306890F87131DB0732D0837EAD
:108AF000DB0790F8823113D08B4201DDADF80030F6
:108B0000018BC91ABDF90030994201DAADF80010A5
:108B100090F88311914201DDADF80410C08A12E093
:108B20008B4201DDADF80030C18AC91ABDF90030B1
:108B3000994201DAADF8001090F88311914201DDFD
:108B4000ADF80410008B401ABDF90410884201DA18
:108B5000ADF804000397BDF800000297ADF80E00D1
:108B60008DF80850BDF80400ADF80C008DF80AC06F
:108B70008DF80B7002A802F091FB01208DE7D04820
:108B800010B50178CF48006849B190F9A611CA48DC
:108B90000278CD48012A05D0002101610DE090F94D
:108BA0007311F4E7C268521CC2608A4208D30023E2
:108BB0001A4619460820FFF7C8FEBDE810407BE5BD
:108BC00010BDF0B50746DDF814E037F912404FF05C
:108BD000FF30744501DA002400E01046012517E05B
:108BE000561B07D437F916C0F44503DDA44501DD53
:108BF000304664465619A1F1010C664507DC37F989
:108C000016C0F44503DDA44501DD304664466D1C05
:108C10009D42E5DDF0BDAB490A68B2F864118142BE
:108C20000DDAB2F86621824201DCFF207047401A5B
:108C3000521AC0EB002090FBF2F00028F6DC012075
:108C40007047F0B500240125A1F101060BE0571B88
:108C500002D430F917703C445719B74202DC30F99E
:108C600017703C446D1C9D42F1DD012A02DB891E18
:108C70008A4200DD640030F912002044F0BD2DE985
:108C8000F047904D14469A462E6830F914208146DC
:108C900002FB04F00123A1F1010196F862C117E083
:108CA000E51A08D439F91570B6F85E81474502DB3C
:108CB00007FB05003A44E5188D4208DC39F91570C8
:108CC000B6F85E81474502DB07FB05003A445B1CB2
:108CD000B3EB1C1FE4DD4A4380FB0A01D3170CF001
:108CE0007FFC00B2DAE62DE9F05F8B46D0E9001593
:108CF0009146002280689A4613464FF480348142A0
:108D000002DD02460B4602E001DA0A460346A0EB0A
:108D100001014FF4803CA1FB0C084FEAE17707FB0F
:108D20000C874FF000062B44C2F1000201FB0671D4
:108D300003EB42024FEAE2730CF052FC4FF4803630
:108D4000A9FB063C4FEAE97505FB06C51B18A3FB0A
:108D50000A06002709FB07524A4102FB0A614FEA53
:108D6000EA7503FB051122463B460CF039FC5A46D6
:108D70004FEAEB730CF034FC00B2BDE8F09F2DE934
:108D8000F04F93B00C4682461746994600251821AD
:108D90000CA81C9E0CF0B7FC0020029003900490DD
:108DA0002EB94848006890F8620100F00F06BA1B1F
:108DB00007EB060300D50022661EB34200DD631EEA
:108DC0000CA95046FAF74AFC4FB1B7422FD13D48A3
:108DD000006890F85101800613D54D466BE0394884
:108DE000006890F85101800665D4BAF90400029039
:108DF000BAF900000390BAF902004B460122049030
:108E00000DE00AEB44007F1C30F9061D0291B0F919
:108E100004100391B0F902004B463AB20490611E6F
:108E200002A8FFF760FF99FBF6F1451A43E0DDE980
:108E300010B1B1F100084BDADDE90C2352EA03006E
:108E400046D0DDE90E0105910890002940DB1D4860
:108E5000056895F85001400611D5584641460CF07A
:108E6000BFFB002800DA404295F86311884206DA19
:108E70004B463A4621465046FFF701FF1AE01BEBEE
:108E80000B01A1FB062448EB080000FB0640F3178A
:108E900001FB0303089805994542A5FB0907002437
:108EA00064EB010404FB09714FEAE97605FB061146
:108EB0000CF096FB054609E09002100044021000F9
:108EC000690210003C0210009C03100028B213E558
:108ED000B8F1000FCCDADDE90C010843C8D00F98D7
:108EE0000028C5DBE7E738B5AA4D049C2D6895F846
:108EF0005051AD0603D50094FFF741FF01E0FFF7A5
:108F0000BEFE00B238BD2DE9F04700249A46CE1EC1
:108F100081462346A44627462546022A03DBB24261
:108F200001DC1046BAE50020491E07E039F910803F
:108F3000B8F1000F01DDC4447F1C401C8842F5DB02
:108F40009CFBF7F7022A12DA10460DE039F910609F
:108F5000BE4203DA3CB90446002304E01CB19E4241
:108F600001DD33460546401C8842EFDB14E0B24287
:108F700012DD10460EE000BF39F91010B94203DAD5
:108F80003CB90446002304E01CB1994201DD0B46C4
:108F90000546401E0228EFDC534500DA15462846F8
:108FA0007CE530B5044630F911300020491C06E05C
:108FB00034F911509D4201DD2B460846491C91426F
:108FC000F6DB30BD2DE9F34F724C85B0226892F884
:108FD0008451567D05F00F035F4206EB470606F00D
:108FE000FF0B167D2A09554200EB430006EB4505B1
:108FF0000590EDB201EB420001952A460021069052
:10900000FFF7CFFF05465A4600210598FFF7C9FF35
:1090100006462068604F90F87001800607D5B7F9C2
:1090200000302A4601990698FFF76DFF0546206833
:10903000DFF868A190F87001C00607D5BAF90030D2
:10904000324659460598FFF75EFF0646DFF8509115
:10905000DFF8508199F80000012828D1206890F8A5
:109060006001010723D0010921D0B7F90010009158
:1090700000F00F03B8F9082001990698FFF7A1FD49
:109080000746BAF9000000902068B8F90A2059464E
:1090900090F8600103090598FFF793FD002F01DBAD
:1090A000002802DAFFF76BFD01E03D4606462FB2CD
:1090B00032B2A8F80870A8F80A20002600962068A6
:1090C0005946B0F918300598FFF70DFF0096039048
:1090D00020683A460199B0F916300698FFF703FF69
:1090E0000290206890F87001800704D5032203A93C
:1090F00002A805F02DFC03A902A8FAF7BAFE012385
:109100002A4601990698FFF79CFDFFF784FDC3B23C
:10911000254800780028206810D090F9A51198F80B
:1091200001204046521E52B288F80120002A08DB76
:10913000226892F8FC22114449B204E090F97211BD
:10914000EDE7FF22427099F8004005690CB96D1CEB
:1091500005618D4219D340F2FF110161C8F80C601E
:1091600044B1039802B2029801B20920FFF7EDFB67
:1091700048B10AE0012089F80000039802B2029881
:1091800001B20720F2E7FFF7FAFC07B00120BDE8C3
:10919000F08F00003C021000700310006E031000FE
:1091A000900210009C03100069021000E448E54A98
:1091B0000068B0F8AC139180E34990F8B1030881DE
:1091C0007047E1490020DE4A8880C880C860488036
:1091D0001268DE4B92F85C2112091A70086108705F
:1091E000DB49087070472DE9F043A1B0814602AF1A
:1091F000782138460CF087FAD1480123016891F8AC
:10920000B1204C7D91F8A01103EB1216890715D5FA
:109210000025804610E000BFD8F8001005FB04F0E0
:1092200009EB40004A7D91F88B31CDE90032494687
:109230000246FAF784FE6D1CB542EDDB002010E01B
:1092400000FB04F2002109E002EB010C57F8215069
:1092500039F91C302B4447F82130491CA142F3DB7B
:10926000401CB042ECDB002007E000BF57F82010A4
:1092700091FBF6F147F82010401CA042F6DB0020DD
:109280000121A4F1010517E04FF0000C63460BE04B
:1092900003FB041839F9182057F82180B2EB0802B3
:1092A00000D5524294445B1CB342F1DB9CFBF6F2C6
:1092B000824200DD1046491CA942E5DBB0F5803F43
:1092C00004DB4FF6FF7021B0BDE8F08380B2FAE70F
:1092D00030B59B499D4B096891F85021920725D5DF
:1092E0009B4A12784AB191F8A74104F00F02250970
:1092F000B1F8A841B1F8AA1107E001F5AC710C79F9
:1093000004F00F0225090C884988A04201DC1A707C
:1093100030BD884201DB1D7030BD001BAD1A6843B3
:10932000091B90FBF1F01044187030BD91F85C01FE
:1093300000F00F00F8E72DE9F041814D814A2E68D9
:1093400096F88013B6F8AC33C9073DD096F8AF4312
:1093500004B90124918896F8AEC3CF1A07FB0CF725
:1093600097FBF4F4B6F8AA730F442744764CB8423E
:109370000ADD002620210120E660F7F77FF8E6806D
:10938000286890F8B10306E0814202D9704D2D782B
:1093900025B196F8B1032081BDE8F0816D4D2D789F
:1093A000002DF9D1B4F90850002D01DD6D1E258185
:1093B0002489002CF0D1891E814200DA01468B42BB
:1093C00000DD19469180E7E79380E5E75C4A10B538
:1093D00014680021B4F8A121824204D294F8B000AC
:1093E000800700D501215848594B0278914211D18C
:1093F000197891420AD0574C2478224307D001694A
:10940000491E0161002901DC0078187010BD01704F
:109410000169F7E739B194F8B22002610170002ABE
:10942000F4DC197010BD94F8B320F6E7444910B588
:10943000096891F8B010CA06434918D5464A14780D
:109440000A46D388C3EB03125200012C05D0C41A7C
:10945000002C0CDC3F4C247824B102EB4000C0F31C
:109460004F1004E0C3EB83121044C0F38F10C88088
:1094700080B210BD10B5FFF7B6FEFFF7D7FF324C34
:10948000A080FFF7A3FFA088FFF722FFA088BDE818
:10949000104050E7F0B430490B782B494A88B3B1FB
:1094A000322A01D2521C4A80254A0125136893F8BA
:1094B000B1405B7D05EB1415CC6894FBF5F605FB1C
:1094C0001644264E634306EB430700230BE0012AB4
:1094D000EAD9521E4A800022CA60E5E730F813C07C
:1094E00027F813C05B1CD2F800C09CF815C09C453F
:1094F000F4DCCB685B1CCB60136893F89477FF07B0
:1095000007D05B7D641C5F00634306EB43040023CC
:1095100007E0C8680CE0FE1830F8166024F8136005
:109520005B1C1668767D9E42F5DCC868401CC860EE
:10953000A84202DBF0BC09489CE7F0BC7047000081
:109540003C021000FC241000D4031000AB021000F9
:10955000690210006002100053021000E442012072
:10956000E0490020C86088604860DF4908707047A3
:1095700010B500230BE000BF30F91340002C00DAD7
:1095800064428C4201DD012010BD5B1C1BB2934282
:10959000F2DB002010BD70B5D44CD54AD549206807
:1095A000437DD54800F03FFA2068D44AD449037D72
:1095B000D44800F038FA2068427DB0F99812CD48BE
:1095C000FFF7D6FF05462068027DB0F99812CC4817
:1095D000FFF7CEFF0022C349012803D0012D01D09F
:1095E0004A6070BD4868401C4860236893F89A320E
:1095F0008342F6DCC448036843F480330360C34805
:109600004A60016841F022010160BDE870404FF4FA
:1096100080610120F6F732BF70B505460020034691
:109620000CE000BF35F9134031F91360A41B00D5DD
:10963000644224B2A04200DA20465B1C9342F1DB74
:1096400070BD2DE9FF4FA94E8146B9F1010F306879
:1096500008D0AF4DAF4B047D0020DFF888B24FF04B
:10966000010A64E0AC4DAD4B447DF5E735F81010D0
:1096700033F91070DFF8A8C2C91B0AB29CF800C009
:109680000021BCF1010F05D0002A08DADBF80C201C
:1096900012B116E0114614E0029949420DE0DBF8E0
:1096A00008C0BCF1000F0CD10199DDF80CC009B263
:1096B000624506DD0D998A4201DD09B201E00FFA2B
:1096C0008CF107EB010223F81020376897F880230C
:1096D00052072BD5B9F1010F4FF0000202D0DFF88D
:1096E00024E21DE0DFF810E20AE000BFC2EB02183E
:1096F0000EEB880C521C3CF8108088442CF810802B
:1097000097F880830AEB981C9445EFDC0EE000BFCD
:109710000EEB821C521C3CF8108088442CF8108000
:1097200097F880830AEB981C9445F1DC401CA0421A
:109730009CDBBDE8FF8F2DE9F84F6C4D694C00268E
:109740002A684FF0010A92F82300527D00F00F07BB
:109750007448017801293FD0804600913B466E490C
:10976000714800F0F5F898F8000000902868684902
:109770003B46027D6D4800BF00F0EAF86C48007877
:1097800040077DD56B480078B8B3A660E6602868CE
:1097900090F82C10B0F82F90B0F833700C0901F04D
:1097A0000F08427D5D496448FFF736FF844628680C
:1097B0005849027D6148FFF72FFF29684A4AB1F8EE
:1097C0005431BCEB530F04DCB1F85211B0EB510F24
:1097D00045DD82F800A043E02680D0463B464E4956
:1097E0004E48CDF800A000F0B3F8CDF8008028680E
:1097F0003B464749027D4748BEE7FFE7A168491C51
:10980000A160286890F82A20B1EB121F00DDA66045
:10981000E16802F00F02491CE1608A4200DAE6606A
:1098200090F8242011090FD090F8383021888B420D
:109830000AD9491C218090F82B1012090C095443B5
:1098400001F00F01514304E090F82B100C0901F0D6
:109850000F018846B0F82D90B0F83170A1E716706E
:109860004B464246214601200097FFF7EAFE4B4651
:109870004246214600200097FFF7E3FE286800E0FB
:109880000AE090F89111090606D590F88003400788
:1098900002D5BDE8F84F7EE6BDE8F88F134810B555
:1098A000006890F82000C1071AD0254909780029DE
:1098B00016D12449097809B1800611D522480078CB
:1098C00000280DD121480078002809D10320F6F79F
:1098D000C6FEFFF730FFBDE810400320F6F7DABE02
:1098E00010BD0000E8031000B60210003C0210009A
:1098F000462C01208C491000562B0120822D01207E
:10990000C8491000822C01204C02100044021000B3
:109910009A2A01201E2A01205E2A0120E229012024
:10992000F8031000A8021000364001207240012008
:10993000FC0310005302100034410120704101204B
:10994000590210006002100066021000630210004D
:10995000F0B40C4601460498C3F11006012801D06A
:10996000002014E02046F0BC5200FAF79AB900BF7C
:1099700034F9105031F910705D4307FB0655EF17AD
:1099800005EB177545F30F1524F81050401C904255
:10999000EEDBF0BC7047F0B40C460146DDE9046034
:1099A000F51A012801D0002010E02046F0BC52003A
:1099B000FAF777B934F9107031F910C05F430CFB36
:1099C000057797FBF6F724F81070401C9042F1DB06
:1099D000DFE72DE9F04391460022DDF81CC019E0D5
:1099E00000252E464FEA050402EB0407BF1E08D4EB
:1099F0009F4206DA30F9178039F9147008FB0755D1
:109A00003E44641C052CEFDBBCF1010F06D021F8AD
:109A10001250521C9A42E3DBBDE8F08395FBF6F44A
:109A200021F81240F5E770B5002407E032F8145031
:109A300030F81460AD1B21F81450641C9C42F5DB17
:109A400070BD30B500231C4607E000BF30F913504D
:109A5000954201DA20F813405B1C8B42F6DB30BDE7
:109A600070B505460020044603460AE035F9136048
:109A7000964204DD0CB9401CC0B2641C00E0002416
:109A80005B1C8B42F2DB70BD10B50022134603E075
:109A900030F913405B1C22448B42F9DB09B192FB85
:109AA000F1F210B210BD2DE9F04300252E462C46F0
:109AB000DDF81C9018E000BF31F9147030F914C0C3
:109AC00007EB0208C44505DDBCEB070700D57F4264
:109AD0003E4408E0A7EB0208C44504DABCEB0707E4
:109AE00000D57F423D44641C9C42E5DBB9F1000F88
:109AF00000D10025B54201D201208DE700208BE77F
:109B00006048614A00685168414004D0506048078D
:109B100001D5FDF713BE704710B50446480709D5B7
:109B20005A492046F9F7F3FD2046BDE81040584950
:109B3000F9F713BE10BD2DE9F0415348554D0026ED
:109B4000067055492C680C423CD04068044053488C
:109B50000078002836D10620F6F781FD21465048CE
:109B6000FFF7DAFF4F48504F006890F8A011C9077F
:109B700009D0287800060CD43878022809D0484843
:109B8000FFF788FC05E090F85C01484900F00F0001
:109B900008700620F6F77EFD600709D50420F6F769
:109BA0005EFD3B493948FEF766F90420F6F772FD81
:109BB0003878022802D12868002801DAFFF76EFE03
:109BC0003B480670BDE8F0812F4910B50020486081
:109BD000FFF7C6FCFDF7B2FDFFF7F3FABDE8104052
:109BE000FFF7E4BA284C08B500256570FFF7ECFFD5
:109BF0004FF6FF76607858B30128FBD16B46002200
:109C000055210420F6F78AFC0098C00706D031469B
:109C10000420F6F762FCFFF7D7FF65700098400755
:109C200005D504210846F6F758FCFFF784FF009895
:109C3000400603D540210420F6F74FFC0098C006EB
:109C4000D8D510210420F6F748FCFFF759FFD1E7DB
:109C500004210020F9F7F7FD6B46002202210420C1
:109C6000F6F75CFC04210120F9F7EDFD0098800770
:109C7000C0D531460420F6F730FCFFF7A5FF0120E0
:109C80006070B7E744051000F8031000364001206B
:109C9000724001208C021000140200805902100052
:109CA000D0A601203C021000AC021000AB02100054
:109CB000A8021000FD4800218171C171017201717B
:109CC00041717047F94800210161C1707047F7493F
:109CD00000B501208870FFF7F5FF5DF804EBE9E7B8
:109CE000F2480021C160417001218170704700B5C8
:109CF000FFF7E8FFED490120887000BD2DE9FC4722
:109D000089460746F9F7FDFC0090F9F725FD01901B
:109D100004216846F9F712FC0446042101A8F9F76A
:109D20000DFC2044E14C4600E1492069E14D7043BF
:109D300001EB400029687200B1F8F2823946F9F768
:109D4000B0FF2868216990F8F102884202D1012011
:109D5000E07002E0E078012819D1D54F002014E02E
:109D60002A68012137F9103092F8F122521C05E0DF
:109D700006FB010C491C37F91CC063448A42F7DC1E
:109D8000A3EB080229F81020401CB042E8DB286849
:109D900090F8F1122069814201D3401C00E00020BC
:109DA0002061E078BDE8FC872DE9FC4115460E46B0
:109DB0000746F9F7A6FC0090F9F7CEFC0190009851
:109DC0000421400800906846F9F7B8FB04460421D6
:109DD00001A8F9F7B3FB00EB440C07EB440207EBD7
:109DE0004C03014606EB440706EB4C06002006E058
:109DF00032F810C00CFB05FC27F810C0401CA04234
:109E0000F6DB002006E000BF33F810206A4326F896
:109E10001020401C8842F7DBBDE8FC812DE9FC479F
:109E2000154689460646F9F76CFC0090F9F794FC54
:109E3000019004216846F9F781FB0446042101A83A
:109E4000F9F77CFB0146304606EB440305EB44077B
:109E5000002207E030F802CB33F8028B521CC444D6
:109E600027F802CBA242F5DB01EB440206EB8400AB
:109E700006EB420305EB4206002207E030F8027BC6
:109E800033F802CB521C674426F8027B8A42F5DB8A
:109E900048462946002204E030F8023B21F8023B04
:109EA000521CA242F8DB09EB440005EB84020021BE
:109EB00005E000BF30F8023B22F8023B491CA142FA
:109EC000F8DB6FE72DE9FC477A4D784C01262868CE
:109ED00021784FF00009B0F8AE7159B9A27880210D
:109EE000CDE90012427D7F2373497448FFF753FD8B
:109EF00084F80290DFF8C88198F80000062802D1A3
:109F00002868B0F84D7128683AB26B49437D6B48B8
:109F1000F9F7E0FF98F80010062905D1002601287E
:109F200005D04846C4F80C90207030463AE72078B7
:109F30000028FAD1E068401CE060296891F81A1105
:109F4000814202D201206070207000F0EFFF0121F9
:109F50000220F6F793FAE8E7F0B40B465549096892
:109F600091F89417C90714D056490968490010D4CC
:109F700000EB4204002108E030F8025B34F8026B89
:109F8000491C354423F8025B09B29142F4DBF0BC72
:109F90007047F0BC014652001846F9F782BE70B512
:109FA000484E0025307810F0940F44D0414C43497E
:109FB0002068427D4448FFF7CFFFFFF783FF054647
:109FC000012838D1206890F89407C1073F4809D08C
:109FD0003168490006D4364A01698068F83AFFF7CB
:109FE0001DFF04E032498068F839F9F762FE3078E5
:109FF000000608D520682E4990F89327F839521C9E
:10A000000846FFF7D1FE2068314990F8F002C007FA
:10A010002748A0F1F80002D0FFF770FE01E0F9F741
:10A0200048FE206890F8F002C00704D01F48C078AE
:10A03000012800D00025284670BD1E4910B50968CA
:10A04000002091F8E811002909D01E4909788907F4
:10A0500005D51E481F49C068F9F7DBFB012010BD7C
:10A060002DE9F04107461748124D0126007829686E
:10A07000400702D5B1F8E62201E0B1F8E822104825
:10A08000DFF854C0094C0078062827D0087D4A7DA7
:10A0900000FB02F3B1F9E8220CEB400107EB4000B2
:10A0A000F9F718FF2070012842D046E000041000A4
:10A0B0007C4B10003C021000EE2F0120B22F01203B
:10A0C000AC02100028041000C8A701205450100052
:10A0D000D0A601202A4001205600012091F810014D
:10A0E0000026000729D5087D497D12B200FB01F347
:10A0F0000CEB400107EB4000F9F7ECFE012803D020
:10A100000020E060207018E02078B0B9E068401CC2
:10A11000E060296891F81A1181420ED20120607026
:10A12000207000F003FF01210220F6F7A7F904E0F8
:10A13000FE48016841F0010101603046BDE8F08150
:10A140002DE9F041FA4D0E46034629681446DFF822
:10A15000E8C34F7D087D07F10107024607FB04F7BE
:10A1600000FB07F0F34F274417F8017C8CF80470CC
:10A1700091F86110090700D5104442001946304695
:10A18000F9F78FFD2868017D407D401C641E604307
:10A19000414306EB4100D1E72DE9F84FDFF890A3EA
:10A1A00080460646DAF80000DFF88C930F46447DBF
:10A1B000007D641C444399F80710484689F808104C
:10A1C00000254FF0010B4AE0C279DC4B02FB04F1A1
:10A1D00003EB410605FB04F108EB410100910BFA8A
:10A1E00002F10279114389F8041031460098F9F719
:10A1F0007CFDDAF8000090F8611009071CD5791E83
:10A200008D4208D1007D4200009800EB440106EB2E
:10A210004400F9F746FD99F8070068B9DAF800003C
:10A22000017D90F8F9064A000009C449604301EB3A
:10A2300040003146F9F735FD99F807104846491CAA
:10A24000C9B289F80710DAF8002092F8F926B1EBC4
:10A25000121F03D30021C17189F806B06D1CBD42E5
:10A26000B2D33046BDE8F88F2DE9F047DFF8C08261
:10A2700006469146D8F800000D460224007D31467E
:10A2800042002846F9F70DFDB9F1010F00D1012474
:10A2900001270CE0007D00FB07F14200604306EB64
:10A2A000410105EB4000F9F7FCFCA41C7F1CD8F829
:10A2B0000000417D491CA142ECD8D8F8001091F86B
:10A2C0006110090721D50123B9F1000F10D0427D9B
:10A2D000017D521C03EB52034B434A4305EB420002
:10A2E00006EB43034A00BDE8F0471946F9F7D9BC2D
:10A2F000417D027D03EB5103491C5343514306EB5F
:10A30000430305EB41005200EDE7BDE8F08770B56F
:10A3100003468B480C460068820001D5002202E00B
:10A32000C20004D501221846FFF79EFF14E0854ABB
:10A33000C504127E04D511461846FFF72DFF05E02F
:10A34000800405D57D491846FFF7FAFE044603E070
:10A3500001221846FFF7F4FE204670BD2DE9F041BA
:10A36000DFF8E481002798F80000042801D0FFF707
:10A37000A1FC734D734C6E4E2878C0071AD07349F8
:10A380006068FFF7C4FFFFF76BFE07462868C1054A
:10A3900010D5316891F89417C90707D0400005D44B
:10A3A000D4E904106A4AFFF739FD03E0684960699F
:10A3B000F9F77FFC98F8000002282BD12868C10526
:10A3C00010D5316891F89417C90707D0400005D41B
:10A3D000D4E904105E4AFFF721FD03E05C4960699F
:10A3E000F9F767FC5B495A48F9F791F95A49584817
:10A3F000F9F7B3F930685949437DB0F9AE215548B2
:10A40000F9F768FD012805D14B480127017809B902
:10A4100001210170384691E6454930B40968504839
:10A4200091F8C8100278CB0718D08B0716D54D4B82
:10A430001B78C1F38204012101FA04F4234209D0FC
:10A440000170C8B2824209D0012805D0CD2030BCAD
:10A4500001F0D1B80021F3E7CC20F8E730BC704719
:10A460002DE9F04731494FF00009C1F80090FFF79E
:10A47000D3FF3448324D007820B1F8F72DFDC5F8F0
:10A48000009042E72A48006890F81001800701D543
:10A49000F8F7F1FB2C4C20780128F0D00620F6F7D5
:10A4A000DEF8FFF75BFF0646FFF7C7FD0746FFF73D
:10A4B00076FD82460620F6F7EDF82B492868DFF88E
:10A4C00078800860012E01D0012F17D12078022852
:10A4D00001D0032809D198F80000012805D100F027
:10A4E00025FD01210220F5F7C9FF2078072809D0B2
:10A4F000062807D004210320F5F7C0FFBAF1010FA9
:10A5000003D009E04FF40071F5E72078072834D034
:10A5100004210420F5F7B2FF20780628AFD128687F
:10A520000028ACDA98F8000000281FE0D0021000E4
:10A530003C021000545A010000041000C0A9012080
:10A540002804100054501000AC021000640B1000DE
:10A55000BA2E0120B2400120EE400120C22D012080
:10A560006A0210004B0000208C02100087D10620E8
:10A57000F6F775F83E4302D007E04021C9E7287896
:10A58000800702D0002001F074FC0620F6F782F864
:10A5900075E70000FE4AFF4BA2F120014878125CEB
:10A5A0001A70401CC0B24870042801D100204870C5
:10A5B000704710B501461C22F748F9F772FB0221DB
:10A5C000BDE810400846F5F759BF70B5F34D044695
:10A5D000286890F80A07C0072CD02078F04E10F0B9
:10A5E000060F15D0A078800712D4F9F796FD012840
:10A5F00021D0608840F002006080286890F80A0747
:10A60000000717D520210520F5F738FF012030700D
:10A61000286890F80A0700070CD53078012809D17E
:10A62000F9F77BFD012805D110210520F5F726FF5C
:10A630000020307070BD2088C0F341010329E7D1AC
:10A6400040F006002080E3E7D6490978022915D1B9
:10A65000D249096891F8101189060FD5CC492039E3
:10A660000A46CB795269012B09D00123CB7142F004
:10A6700000524A61C16801F05531C1607047002342
:10A68000CB7142F080524A61C74AC1681140F4E779
:10A69000F0B599B005466846F9F732FBBC4CC348A3
:10A6A000203CC34A656101881180C249DFF8F4C2C9
:10A6B000BA4E49880180E8074FF001077BD0BDF80A
:10A6C000000040F00101ADF80010306890F8F82665
:10A6D000D2070ED09CF80020072A0AD0062A08D0FC
:10A6E000BDF8022022F48062ADF8022045F4005249
:10A6F000626190F86120120703D541F48071ADF8D2
:10A70000001090F82011C9073AD0AB49097861BB15
:10A710009CF80010042929D0002D27DB90F8221185
:10A720008DF8171090F821118DF81E1090F8231154
:10A730008DF8221090F8F816C90705D08DF86070D2
:10A74000616921F40051616190F86100000705D54D
:10A75000BDF8000020F48070ADF80000606940F49E
:10A76000806060616846FFF76FFF09E090F8F806C7
:10A77000800705D5002D03DB606940F480506061DF
:10A780008E48007801280ED1306890F85012C90721
:10A7900009D090F81001000605D5002D03DB4FF419
:10A7A0008060ADF80000E80505D5BDF8000040F474
:10A7B0008060ADF80000A80705D5BDF8000040F0A6
:10A7C0000800ADF8000015F0140F21D0306890F8A3
:10A7D000A011C90707D090F89417C90703D09CF8B7
:10A7E0000010032908D09CF8001002291CD007296A
:10A7F0001AD0062918D005E0BDF8000040F010007E
:10A80000ADF80000BDF8000040F00600ADF8000013
:10A810006846FFF7DAFEAFF26520029027716846BE
:10A82000F7F776F819B0F0BD002D01DA022910D043
:10A8300090F80027D20703D090F803278DF848201E
:10A84000BDF80020062942F00202ADF8002007D032
:10A8500020E0BDF8000040F00600ADF8000019E06F
:10A8600090F80F1709B18DF84410BDF8021040F2AE
:10A870000222114321F02001ADF80210616941F07C
:10A880008041616190F80017C90703D090F8020772
:10A890008DF8480000208DF84600606940F0800087
:10A8A0006061B5E73D49096891F8FC20104491F8D2
:10A8B0005027C0F38D00801A80B20C2800D20C20E3
:10A8C00091F8D210401AC0B270472DE9FC47DFF86A
:10A8D000CC80D8F8000090F8DA06C00757D0384E80
:10A8E000B71C30785A2801D0C52802D138785A28A8
:10A8F0004DD0F9F712FC012849D100242046F5F784
:10A90000AEFEF7F79BFC2F4D28800020F5F7C2FE26
:10A91000D8F800304246B3F8DC1601EB51000FFACC
:10A9200080F828884FEA510C604501DB404507DD7F
:10A9300002B00202BDE8F04701218A2000F073BD99
:10A94000914693F8DE26A8460A445A25824208D347
:10A9500093F8DF26891A814203DC02023570022156
:10A960006BE01949898989B2A1F5AA42AA3A61D056
:10A970000020F5F774FE01A96846F7F786FCD9F8C0
:10A980000000B8F80010B0F9DC26511A1EE09AE079
:10A990003404100020000020545010003C0210002D
:10A9A000D6021000AC021000ABAAAAAABC0210008A
:10A9B000BA021000FC2410006C02100053021000B8
:10A9C000ECFF0100620310001C25100090F8DB066C
:10A9D00091FBF0F09DF80010084404B2002C01DA5D
:10A9E000002402E00F2C00DD0F2441EA04220321A1
:10A9F0008A2000F018FDE0B28DF800009DF80410E8
:10AA0000F7F755FCF7F71AFC0446B8F800000421E4
:10AA100040EA04428A2000F006FDA8F80040002029
:10AA2000F5F738FEFA499DF800000870C52030702F
:10AA3000012405E00202357005218A2000F0F3FCB4
:10AA4000D9F80000F34B90F8DA06800713D5B8F870
:10AA50000000FFF727FF064618703D7032460621BA
:10AA60008A2000F0E0FC4EB10124FAF79AFD0020A4
:10AA7000FBF7CAFA04E0002018703D70012C1AD0D0
:10AA80000AF04AFC012C1ED1E34840F6B772016877
:10AA900011430160E148016841F400510160E04860
:10AAA000016841F480210160BDE8FC474FF48061FA
:10AAB0000120F5F7E3BCFAF774FD0020FBF7A4FAD8
:10AAC0000AF02AFCE0E7BDE8FC8780B2F6F747B859
:10AAD000D44810B50178D44AD4480229D378006804
:10AAE00014D006291CD007291DD0012B1ED0022B03
:10AAF0001FD090F8134100BF90F810315B0627D5A6
:10AB00009379042B1BD0042916D018E090F8174134
:10AB1000022BF1D190F81531A342EDDD1C46EBE795
:10AB200090F81841E8E790F81941E5E790F81441EA
:10AB3000E2E790F81541DFE790F81B31537192F985
:10AB40000530002B03DD5B1E537190F813419171AA
:10AB500004B91424F6F7FBF8002800DD6400204651
:10AB600010BDF0B5B149054600200B6893F8207080
:10AB7000F90736D0AB490C78AB49022C15D0072C1D
:10AB800013D0062C11D093F83920A94E36781EB177
:10AB900093F84934DB0722D0A64B1B780BB1BB06D8
:10ABA0001DD5A54B1B78BBB119E0A44A1278012A28
:10ABB0000CD0072C0DD0062C0BD093F83A200E7831
:10ABC000032EE2D2761C0E708A60DEE793F83F20F7
:10ABD000F5E793F85620F2E7994B1B7813B15242F0
:10ABE0008A60F0BD8B685B1C8B609342F9DD0020AE
:10ABF0008860032026B9072C02D0062C00D017202D
:10AC0000284040F00040F0BD10B5874B02460020C0
:10AC1000844CDB680146062A02D0072A0BD00DE0DF
:10AC200088480278012A05D006202070580704D5EC
:10AC3000042003E00170072020700120824A1840A0
:10AC400011707E4A117010BD2DE9F04F0026764933
:10AC50000346B146CD6830463746B446EC07324627
:10AC60001BD07A4C94F80080794CB8F1010F12D0C7
:10AC7000DFF8BC8198F80080B8F1000F0BD194F890
:10AC80000080B8F1010F06D0DFF8C88198F8008085
:10AC9000B8F1010F01D122700127AC0704D5684C2F
:10ACA0002478012C00D101276C0709D5614C247848
:10ACB000012C03D0684C2478012C01D14FF0010CF9
:10ACC0005A4CDFF898B1DFF874E1DFF858A1246836
:10ACD000012F06D0042B06D0032B0ED0022B31D02F
:10ACE00033E08A613DE0CA618869401C886194F85C
:10ACF0005D71874235DA8A612EE0594F3F78012F26
:10AD00001ED0584F3F78012F1AD09BF80070012FAA
:10AD100016D094F81071FF0717D0CF697F1CCF6150
:10AD200094F812C10CEBCC0808EB0C1CB7EB8C0FA1
:10AD30000BD34D4ECA618EF800200120307015E013
:10AD4000CA6102E0BCF1010F04D0032B04D0022B36
:10AD50000CD016E08A61CA6103278AF800701720B8
:10AD60000FE004278AF8007003200AE002268AF820
:10AD700000600126680703D516204FF0010900E0A6
:10AD800013209AF800709F4201D08BF8002094F8AD
:10AD900050322840DB0712D094F82032DB0702D073
:10ADA000324B1B784BB194F81F34DB0705D194F874
:10ADB00010311B0603D5022F01D140F48070224BC5
:10ADC000002E1E708EF8009000D10A70BDE8F08F42
:10ADD00010B5154C0020206112480078042808D0D6
:10ADE000032806D0022804D0062805D0072803D05F
:10ADF00007E0FFF729FF01E0FFF706FF216908439D
:10AE00002061E068FFF7ADFE21690843206110BDB5
:10AE1000EDFF0100EFFF01004402100048021000A6
:10AE20004C021000AC021000140410003C02100090
:10AE30005902100060021000660210005402100057
:10AE40006302100001041000530210005C021000A5
:10AE5000610210000004100062021000B60210002F
:10AE60009202100093021000020410006802100009
:10AE700038B5CF4C206890F8E502C00701D0FFF745
:10AE800089FBFFF7A5FFCB490868002809DDCA4AFE
:10AE9000127832B9401E086003D102210520F5F76F
:10AEA000EDFAFFF715FEFFF710FEC44D40F2173123
:10AEB000286908421DD0FFF708FD0020F5F7CFFBF9
:10AEC0002869FFF7E5FB02216B4600220846F5F7EB
:10AED00025FB02210846F5F700FB206890F8E50203
:10AEE000C00701D0FFF756FBFFF7BAFA0020F5F7CD
:10AEF000D1FB38BD10B501210220F5F7EEFABDE80F
:10AF00001040B5E710B540210220F5F7E6FAAC484D
:10AF10000178012909D006210170FEF7E1FEA74959
:10AF200000208861C861A749087070E7F5F73DBE49
:10AF3000A2490020A44A0861486110608861C86184
:10AF40008860A0490870A1490870A149087070473D
:10AF50002DE9F041002704210220F5F7BEFA9D48B3
:10AF6000964E0568F06890EA050420D02C404FF614
:10AF7000FF7807D030B9012741460220F5F7ADFA36
:10AF8000FFF7D6FF600701D5FEF7B1FE8C4CF560E8
:10AF90007DB10321012F16D02078022807D100208F
:10AFA000884AF061B0611070884A10702170BDE865
:10AFB000F081F5F7FAFD012020704146BDE8F0412F
:10AFC0000220F5F78ABAE80702D00420207000E0DA
:10AFD0002170BDE8F0414BE770B50446774D00079E
:10AFE00005D508210220F5F778FA0020E870E00680
:10AFF00005D510210220F5F770FA0120E870E00471
:10B0000006D54FF480510220F5F767FA0220E87068
:10B0100070BD10B5F5F7C9FD694901200870674991
:10B0200000208870BDE810404FF6FF710220F5F750
:10B0300054BA08B541F25D116B4600220220F5F7C3
:10B040006DFA0098400804D0022269465520F9F7AD
:10B050001BF80098C00501D5FFF7DBFF009841F20F
:10B060001801084201D0FFF7B7FF0098400701D54B
:10B07000FFF76EFF0098400601D5FFF743FF0098E9
:10B08000C00701D0FFF736FF08BD534800784B4991
:10B0900010F01F0001F1200108D007280CD0421E3B
:10B0A0000A704870421C8A70C8707047002008708F
:10B0B000012048700222F6E705200870062048703B
:10B0C0000722F0E73E4810B501223C4902700020FB
:10B0D000C860C87008614861404B8861C8611870D9
:10B0E0003F4B414C18703F4B5B8823803F4C238083
:10B0F0000871FF2048718A71FFF7C7FFBDE8104053
:10B10000FEF7E5BD08B502210020F8F79CFB6B4671
:10B1100000224FF400710220F5F700FA022101200D
:10B12000F8F791FB022269465620F8F7ADFF009828
:10B13000800509D5FFF7C6FF4FF6FF710220F5F72E
:10B14000CCF91E490120887008BD1C4C0020A0705D
:10B1500006E0A07820B10128FBD1FFF76AFFF8E7ED
:10B16000FFF7D0FFF5E7154900208861C861154950
:10B17000087016490870704710B5F5F716FD0121E3
:10B18000BDE810400220F5F779B910B50B4C2079D5
:10B19000012809D1F5F709FD0548006890F8160166
:10B1A00000B90120FFF791FC002020712FE67047C5
:10B1B0003C02100040051000590210001404100059
:10B1C000AC021000530210008C0210005402100058
:10B1D000000410004405100020000020A902100007
:10B1E000B7021000FC241000BA021000BC021000CC
:10B1F00010B504460220F5F732FA2046F5F7B0FD07
:10B20000BDE810400220F5F745BA1CB500210091B9
:10B21000019102789DF8001062F303018DF800108F
:10B22000427862F307118DF800104289BDF80110D1
:10B2300062F30B01ADF801100289BDF8021062F350
:10B240000F11ADF8021081798DF80410C1798DF8D5
:10B2500005100179CA099DF8061062F3C7118DF82F
:10B260000610027962F306018DF8061080788DF8D9
:10B2700007006846FFF7BCFF1CBD1CB5002000900E
:10B28000019002208DF80000FC480068C007400EC5
:10B290008DF807006846FFF7ABFF1CBD1CB5002109
:10B2A0000091019101788DF8001041788DF801101E
:10B2B000C188C1F307118DF802108188C1F307110D
:10B2C0008DF80310017901F00F018DF804108279D7
:10B2D00041EA02118DF8041081788DF80510C078CC
:10B2E00000F00F008DF80600E4480068C007400E2B
:10B2F0008DF807006846FFF77BFF1CBD1CB50021D9
:10B30000009101910E218DF800108DF80200DB48AC
:10B310000068C007400E8DF807006846FFF768FF19
:10B320001CBD1CB5002000900190D54800684178F4
:10B33000827810208DF800004006437A8DF80130A5
:10B34000D04B1B788DF8023043891B0A8DF80330EF
:10B3500040898DF80400C9488DF805108DF8062045
:10B360000068C007400E8DF807006846FFF740FFF1
:10B370001CBD1CB500200090019011208DF800002C
:10B38000BE480068C007400E8DF807006846FFF70A
:10B390002FFF1CBD2DE9FC410646002000900190C6
:10B3A000122015460C468DF800004FF008571EE09D
:10B3B000200A8DF80100C4F30B008DF80240315CC7
:10B3C00030448DF8031041788DF8041081788DF8A1
:10B3D0000510C0788DF80600D7F8E001C007400ED0
:10B3E0008DF807006846FFF703FF241D2D1F002D71
:10B3F000DEDCBDE8FC811CB50022009201920F2228
:10B400008DF800208DF80100080A8DF805008DF8F0
:10B410000610402099498DF8070001200860684611
:10B42000F5F79EFC1CBD1CB5954B1B6893F8F037D7
:10B430009B061DD5002300930193DB238DF800307C
:10B440008DF801008DF80210100E8DF80300100C1D
:10B450008DF80400100A8DF8050088488DF8062044
:10B460000068C007400E8DF807006846FFF7C0FE71
:10B470001CBD1CB5002300930193DB238DF8003025
:10B480008DF801008DF80210100E8DF80300100CDD
:10B490008DF80400100A8DF8050078488DF8062014
:10B4A0000068C007400E8DF807006846FFF7A0FE51
:10B4B0001CBD1CB50022009201920F228DF80020C5
:10B4C00005228DF801208DF802006C488DF80310DC
:10B4D0000068C007400E8DF807006846FFF788FE39
:10B4E0001CBD2DE9FC4104460025009519208DF86E
:10B4F000000040070195417A8DF8011061490978F3
:10B500008DF802104189090A8DF8031040895C4FBB
:10B510008DF80400594E386841788DF80510807810
:10B520008DF806003068C007400E8DF807006846A9
:10B53000FFF75EFE00951A2001958DF8000038682F
:10B5400000F5FC6001788DF8011041788DF802104B
:10B5500081788DF80310C0788DF804003068C0073A
:10B56000400E8DF807006846FFF742FE00951B204D
:10B5700001958DF800006068000E8DF8010060688C
:10B58000000C8DF80200A088000A8DF803002079D5
:10B590008DF8040020788DF80500207B8DF80600DA
:10B5A0003068C007400E8DF807006846FFF720FEA0
:10B5B00000951C2001958DF80000A068000E8DF804
:10B5C0000100A068000C8DF802002089000A8DF8A7
:10B5D0000300207A8DF80400207C8DF80500207D82
:10B5E0008DF806003068C007400E8DF807006846E9
:10B5F000FFF7FEFDFDE61CB52149096891F8291108
:10B60000490603D400F00F010C2919D10021009143
:10B61000019116218DF800108DF80100010A8DF8B6
:10B620000210010C000E8DF8040014488DF8031070
:10B630000068C007400E8DF807006846FFF7D8FD88
:10B640001CBD1CB500230093019316238DF8003018
:10B650008DF80100080A8DF80200100A8DF8040028
:10B6600006488DF803108DF805200068C007400ECD
:10B670008DF807006846FFF7BBFD1CBDE001002206
:10B680003C021000B50210001CB5002300938DF899
:10B690000000080A8DF802000193100A8DF80500D9
:10B6A00006488DF803108DF806200068C007400E8C
:10B6B0008DF807006846FFF79BFDDEE7E0010022FA
:10B6C0008548006890F82A0100F00700801C00EB14
:10B6D0008000C006000EF5F7D7B92DE9F0417F4D87
:10B6E000286820B30520F4F7BAFF00245FF00107B3
:10B6F000286807FA04F6304213D004EB440005EB47
:10B70000800898F8060005280BD104217448F7F743
:10B7100015FFC1B208F10600FFF777FD2868B043B6
:10B720002860641C0A2CE3D30520F4F7B3FF6C48AF
:10B73000001F4068002802D0BDE8F041C0E7BDE826
:10B74000F081664900EB400210B501EB8201012453
:10B750008B796349091F032B4A6802D0042B04D05C
:10B7600006E0844014434C6002E08440A2434A60F7
:10B7700004215B48F7F7E2FEC0B210BD2DE9F047A7
:10B78000574E0520361F7768F4F769FFDFF848A1A8
:10B79000DFF8489100244FF00108D9F8003008FA8A
:10B7A00004F148460B421AD004EB440200EB820538
:10B7B000AA79032A09D0042A07D0052A0FD1DAF87A
:10B7C000002092F82921D20609D48B4360B2C9F82F
:10B7D0000030FFF7B6FF0146A81DFFF716FD641CF9
:10B7E0000A2CDAD30520F4F755FFDAF8000090F8B8
:10B7F0002901C0060CD570682FB1002808D1BDE81A
:10B80000F047F5F74EB9002802D0BDE8F04757E7FA
:10B81000BDE8F08732490020091F486080212F4889
:10B8200009F071BF2E4C08B5241F00252570F5F7CF
:10B8300038F9207850B30128FBD100226B4607214C
:10B840001046F4F76BFE0098400706D5042100204F
:10B85000F4F743FEF5F725F925700098800705D524
:10B8600002210020F4F739FEFFF788FF0098C00797
:10B87000DFD001210020F4F730FE1748006890F86F
:10B880002901C006D5D5FFF728FFD2E700210846D9
:10B89000F7F7D9FF00226B4608211046F4F73EFE69
:10B8A00000210120F7F7CFFF00980007C1D5FFF76F
:10B8B000B1FFF5F7F6F80F210020F4F70EFE012096
:10B8C0002070B6E710B5F5F7ECF80121BDE810409F
:10B8D0000020F4F7D3BD00003C0210007C241000CF
:10B8E0003C041000CE49002001220870CD490A70A6
:10B8F0004870886008718870C8700C310860888052
:10B90000C949086048608860C8600861486170473C
:10B91000F0B5C64B044600201D6802465FF00107E3
:10B9200095F8E86107FA02F31E421ED0DFF800C363
:10B930009CF800C0BCF1010F0FD195F8E6C15FEA99
:10B940001C1E0AD031F912E04FEA1C1C9EFBFCFCC5
:10B9500034F912E0F44506DB07E034F912C031F99E
:10B9600012E0F44501DD0343D8B2521C062AD9DBAC
:10B97000F0BDF0B5AD4CAB4F0123226892F8FC212D
:10B9800002F00F053A78C5F11006012A4FF00002C7
:10B9900011D1256803FA02F695F8E851354203D033
:10B9A00030F8125021F81250521C12B2062AF0DB65
:10B9B00000203870F0BD276803FA02FC97F8E871A0
:10B9C00017EA0C0F0AD030F9127031F912C0774320
:10B9D0000CFB057747F30F1721F81270521C12B2B7
:10B9E000062AE8DBF0BDF0B50023904D012404FAEF
:10B9F00003F72E6896F8E8613E4206D032F81360ED
:10BA000030F81370F61B21F813605B1C1BB2062B79
:10BA1000EDDBF0BDF0B5DFF80CC2034600229CF868
:10BA200003000CF10C0583EA000680480124076836
:10BA300004FA02F030420BD0184297F8E70102D026
:10BA400004EB101002E000F00F00401CA85411E0BD
:10BA500015F802E0BEF1000F0CD0AEF1010E1EF0A1
:10BA6000FF0E05F802E005D1184202D00843C1B22A
:10BA700000E08143521C062ADADB8CF803300846CA
:10BA8000F0BDF1B59DF80000002823D001216846E3
:10BA9000F7F754FDC0B201281DD0624A9078002803
:10BAA00018D1624C0021604D24680123084694F8A7
:10BAB000E8610C3503FA00F4264205D035F9104050
:10BAC0008C4201DD21461071401C0628F2DB107902
:10BAD0008340D8B2F8BD9DF80000F8BDF0B5534BD7
:10BAE00000252C461B682A46012793F8E86100BF11
:10BAF00007FA02F31E4211D030F91230002B01DB9D
:10BB00009C4601E0C3F1000C8C4507DD002B01DDF4
:10BB10001D4403E001DAC3F100031C4402F10102F9
:10BB2000062AE5DBA54201D20120F0BD0020F0BDD0
:10BB30002DE9F0473C49FFF71CFF0320F4F78FFD88
:10BB400039493C4A0C313848FFF74DFF0320F4F7E0
:10BB5000A1FD364E324F334C30684FF001094FF0A3
:10BB6000000590F8E61149072ED56178DFF8C88006
:10BB70004FF4806A61B1A168491CA16090F8FF018F
:10BB8000000900EB8000B1EB400F1DDDA5602DE04A
:10BB9000B0F8FD1124480C30FFF7A0FF012801D0B8
:10BBA000A56011E0A068411CA160316891F8FF1107
:10BBB00001F00F0202EB8202B0EB420F04DD84F8C9
:10BBC0000190A560080911D03168174801F5F87196
:10BBD0000C30FFF79DFEA8B187F80090316891F80E
:10BBE000E61189070FD5FFF74CFF0CE06570D8F818
:10BBF0000010012041F01001C8F800105146F4F780
:10BC00003DFC09E03D70A178FFF704FFA178884270
:10BC100002D0A070FFF772FB3878BDE8F087000013
:10BC2000630210004004100000C801203C02100014
:10BC30005D021000D6290120440210002DE9FC5FAE
:10BC40009D4F1023DFF874A23868DFF87492447DAA
:10BC500090F82320214690F814C01609A3EB121582
:10BC600001FB0CF10022CDE90021641CB0F9283061
:10BC7000B0F9262004FB0CF40AEB4C0109EB4C0054
:10BC8000F8F73DF900283ED13A68107D27E000BF63
:10BC90003AF9101039F9103001FB06F703FB057370
:10BCA0004FEAE37703EB177392F8D07043F30F1367
:10BCB0007F0711D5591A0FFA81FCDFF808B200216D
:10BCC000C1EB01180BEBC817491C37F81080042989
:10BCD000E04427F81080F3DB2AF81030401CA04223
:10BCE000D6DB92F8200000070DD57448F7F78DFEDB
:10BCF00075490023754A086002B00146BDE8F05F4F
:10BD00006E48F7F7B9BEBDE8FC9FF0B56A48016818
:10BD100091F8E80100282CD091F824006C4A00F03A
:10BD20000F040020C4F11007012600BF91F8E8318C
:10BD300006FA00F52B4219D0664B32F91050B1F9D2
:10BD400033C333F91030AC449C450FDBB1F935C334
:10BD5000A5EB0C0C9C4509DC654303FB0753DD1781
:10BD600003EB157343F30F1322F81030401C062821
:10BD7000DCDBF0BD2DE9FC414F4C206890F85012FF
:10BD8000C90774D054490978002970D190F823006C
:10BD9000524900F00F05C5F110065148F7F7B7FCFE
:10BDA00050494F48F7F7D9FC20684FF00008417D13
:10BDB000CDE90081B0F93133B0F92F234A49474822
:10BDC000F8F79DF807462068017DCDE90081B0F9BC
:10BDD0003133B0F92F2345494248F8F790F807432B
:10BDE00045D100203D4F404A21680FE032F9103024
:10BDF00037F910C06B430CFB06334FEAE37C03EBCF
:10BE00001C7343F30F1322F81030401C4B7D834208
:10BE1000ECDC0020334F354B10E000BF33F910202D
:10BE200037F910C06A430CFB06224FEAE27C02EBB2
:10BE30001C7242F30F1223F81020401C0A7D82422C
:10BE4000ECDC91F82000000711D5294D2648C5F8F3
:10BE50000080497DF7F7CEFE2968084428602068F5
:10BE6000017D2248F7F7C6FE296808442860BDE82E
:10BE7000FC8170B5104C0546206890F84904C00755
:10BE800003D0FBF791FA012814D0206890F8200025
:10BE9000C0070FD0002D0DD10320F4F7E0FBFFF712
:10BEA000CDFEFFF732FFFFF765FFBDE870400320CE
:10BEB000F4F7F0BB70BD00003C02100056000120FA
:10BEC000640B1000D6070120840210005C241000CF
:10BED000D62901202A40012068021000B24001202A
:10BEE000BA2E0120EE400120C22D0120FE2D01209E
:10BEF00080041000FE4900200870704700E01046E2
:10BF00000A5C8242FBD1704770B500250E4603469D
:10BF10002C4606E019462046FFF7F0FF1855641C32
:10BF2000E4B2B442F6D300220AE0985C904203D116
:10BF30009D546D1CEDB201E0185C9854521CD2B2B5
:10BF4000B242F2D3284670BD38B1884202D20B46C5
:10BF500001461846884200D01154084670472DE922
:10BF6000FF4F0546E3484FF0000B89B000785C4670
:10BF7000012805D0E04804700DB05846BDE8F08FA8
:10BF8000DE480021012702688046137D527D63F35D
:10BF9000070462F30F2461F3174461F31F6429E07F
:10BFA000012621E007EB071006EB4000285C002883
:10BFB00019DDC4F307213846F7F7D3FA60F30F24ED
:10BFC000E1B23046F7F7CDFA60F30704C4F3074156
:10BFD0003046F7F7CAFA60F31744210E3846F7F7F0
:10BFE000C4FA60F31F64761CD8F80000007DB042EC
:10BFF000D8DA7F1CD8F80010497DB942D0DAC4F3F2
:10C00000074604F0FF09A6EB0900270EC4F3072436
:10C010000090381B014601900098F7F7A6FA824677
:10C02000DDE90001F7F79DFA0246B34800210170EF
:10C03000D8F800104FF0010891F814C0ACF1010CD1
:10C04000D44539D04B7D5B1E934235D091F82C03FB
:10C05000504591DB91F82D0390428DDB5A210A98CF
:10C0600009F02FFB214642461BE0484601EB011335
:10C0700014E000BF00EB430C15F80C80B8F1000F82
:10C080000BD005F80C20DDF828C0DDF82880BCF8BE
:10C0900002C00CF1010CA8F802C0401C8642E9DA8B
:10C0A000491C8F42E1DA0C984FF0010B80F80490A4
:10C0B00086714471C7715FE780F800805CE72DE905
:10C0C000FF4F99B0012004908C4819689A46006887
:10C0D000067D477D41B19AF802109AF800905046CB
:10C0E000B14205D2491C04E04FF000094D4608E07A
:10C0F000314645789AF80300CEB2B84200D2471CC8
:10C10000FFB2002007A90854401C2D28FAD3199922
:10C1100005EB051001EB400C681C67E01998E3463D
:10C1200008EB081100EB410C09F101045AE000BFD3
:10C130000CEB04001590006810B31CF8040000B369
:10C140001598002310F8010C00B103461BF80410E9
:10C1500021B107AA1846FFF7F7FE03461A980028F0
:10C160000BEB04000ED0159010F8011C21B107AAAA
:10C170001846FFF7E9FE034615984178D9B91FE044
:10C18000E41C2EE0189010F8011C59B115981BF80A
:10C19000042010F8010C104304D007AA1846FFF73A
:10C1A000D3FE03461898417851B115981BF8042026
:10C1B0004078104304D007AA1846FFF7C5FE03468F
:10C1C00013B10CF804300CE004982D2806D20CF8BA
:10C1D00004000498401CC0B2049002E0401E0CF819
:10C1E0000400641CB442A3D908F101008046B8429F
:10C1F00094D907A80499FFF787FE804641001B9851
:10C2000009F05FFA00204FF6FF7202E04AF82020A2
:10C21000401C4045FAD33BE0199905EB051001EBB2
:10C22000400022304C4605902FE00598011901206E
:10C230004058A0B3487838B307AA105C48701B99DF
:10C240001B9A0AEB800B31F81010491C22F81010D1
:10C250009BF800102046F7F784F98BF800009BF854
:10C2600001102846F7F77DF98BF801009BF80210C2
:10C270002046F7F77AF98BF802009BF8031028465E
:10C28000F7F773F98BF80300641CB442CDD36D1C2F
:10C29000BD42C1D3A8F10100C0B21DB06EE6FFE7F8
:10C2A000E41CF1E72DE9F043994655784FF0010C75
:10C2B0001CE000BF05EB051300EB4306223600230C
:10C2C000147897780CE000BF06EB040898F9018019
:10C2D000884503D10CFA04F848EA0303641CE4B26D
:10C2E000A742F1D249F825306D1CEDB2D37807E0B2
:10C2F000540410005E0210005F0210003C021000A7
:10C30000AB42D7D2BDE8F083F0B5FE4B0026FE4D20
:10C310001C78A0B0012C11D11E700B78002B59D0C5
:10C320004B78002B56D02B688F781C7D641EA7425B
:10C3300050D05B7DCC785B1E9C424BD000236C467A
:10C3400044F823605B1C202BFAD34B7891F803C090
:10C350001BE000BF50F82370B7B17E0846EA4706DD
:10C360003E4354F82370374344F8237004EB8307AB
:10C37000D7F804E04EEA060EC7F804E0D7F808E064
:10C380004EEA060EC7F808E05B1C9C45E2D200238B
:10C3900004EB8306766840F823605B1C1E2BF7D302
:10C3A000012A17D1087808B1401E0870487808B1F2
:10C3B000401E48702A688878127D521E904201DA29
:10C3C000401C88702A68C878527D521E904201DA5B
:10C3D000401CC87020B0F0BDF0B50025059E2C466D
:10C3E0008F1E00EB410006D430F9045CCF1E02D44E
:10C3F00030F9067C3D448F1C974207DAB0F90440BF
:10C40000C91C914202DAB0F906000444281B00D589
:10C4100040424FF435714843C11700EB91508012F0
:10C42000A54203DD316808443060F0BD1968084456
:10C430001860F0BD2DE9FF4FDFF8CCB207460E467D
:10C44000DBF80000002585B090F8A0002C46C1065E
:10C45000AE484FF4803900EB460A29D5002105E0AB
:10C4600037F8112000EB4103491C5A80B142F7D341
:10C470004188018030F81620AAF8022000210DE042
:10C480004A1C00EB420330F8122033F802CC5B88E0
:10C49000634403EB420227F81120491CB142EFD359
:10C4A00007A800230090324619463846F7F7A3FD47
:10C4B00007994FF0000800291CDCDBF8000090F819
:10C4C000A000C00604D59148B0F90000019001E039
:10C4D000CDF80480701E37F911C00390814224DB2F
:10C4E000DBF8000090F8A000C00608D5BAF90200F9
:10C4F000029006E007EB410030F9020CE6E7CDF8C8
:10C500000880DBF8000090F8A000000706D502A81C
:10C51000009001AB721E3846FFF75EFFDDE90110A7
:10C52000814207DD05460C4607E007EB4100B0F904
:10C530000200DDE701DA0D460446A0EB0102A2FB92
:10C5400009064FEAE27303FB096102FB08110CEBD9
:10C550000402C5F1000302EB43024FEAE27309F063
:10C560003FF8079CA4FB0936E51705FB096204FBAD
:10C5700008221B184A410899A3FB0105CC1702FBAE
:10C58000015103FB04114A46002309F029F8039ADC
:10C59000D31709F025F800B209B0EFE42DE9FF4FF9
:10C5A000044681B00020DFF860910F9D06460746E3
:10C5B0000090D9F8000090F8A000000719D5207865
:10C5C00008B1401E2070607808B1401E6070D9F834
:10C5D0000020A078127D521E904201DA401CA0700B
:10C5E000D9F80010E078497D491E884201DA401CE4
:10C5F000E07046484421443809F063F8002293462D
:10C600009246607830E021782AE000BFD9F8003007
:10C61000D5F8288093F814C0431CE64603FB0C1C95
:10C6200008EB4C0CDDF80080BCF900C0C44502DD0D
:10C63000761CB6B26744944502DD62468B4682465C
:10C6400095F818C0BCF1010F09D10EFB03FC304B6B
:10C650000B441CF8038048F080080CF80380491C48
:10C66000A3788B42D2DA401CE1788142CBDA607841
:10C67000D9F800100FE000BF91F814C000F10108D4
:10C6800008FB0CB2AB6A03EB420213881F4A443A20
:10C6900022F81030401CE2788242EDDA1B48497DD6
:10C6A00052464438039BFFF7C5FE0E9908601748B1
:10C6B0004421443809F005F8DFF850802078A8F1CB
:10C6C00044080AF10101D9F800200AE092F814C0E8
:10C6D000AB6A01FB0C0C03EB4C031B8828F81030F1
:10C6E000401CA3788342F1DA0848117D5A46443849
:10C6F000029BFFF79FFE04990860EF602E8105B052
:10C700003CE40000540410003C021000B45010003F
:10C7100018C80120F0B5FE4C059F2668D6F81052C7
:10C7200096F81842BD4202D304F00F040FE0D6F889
:10C730001462BE4201D8240909E004F00F0CCCEBCE
:10C7400014147F1B7C43751BB4FBF5F4644416681A
:10C75000C4F11005604306FB05000009106018686D
:10C76000614300FB051000091860F0BD2DE9FF4F83
:10C77000E748964684B00D7891F80190CA78006831
:10C78000002489780290007D2346A0465FEA050BCD
:10C790002AD1CC4626E000BF0CF101060196DEF856
:10C7A00028604FF0000A0125009609E0DDE90067E6
:10C7B00007FB005706EB47066D1CB6F90070BA443C
:10C7C000A942F3DADDE90065454306EB4505B5F915
:10C7D00000506D4395FBFAF505FB0C33641BA84430
:10C7E0000CF1010C6245D7DA451EA9422FD1CC4687
:10C7F0002BE000BF0CF1010601964E1E0396DEF8F9
:10C8000028604FF0000A5D46009609E0DDE9006708
:10C8100007FB005706EB47066D1CB6F90070BA44DB
:10C82000039EAE42F2DA019D05FB0016009D05EB6A
:10C830004605B5F900506D4395FBFAF505FB0C3341
:10C8400005FB0044A8440CF1010C6245D2DAB9F1B1
:10C85000000F25D15D4621E0DEF828704FF0000A78
:10C86000012600970AE0771C07FB0057DDF800C09F
:10C87000761C0CEB4707B7F900C0E244B242F2DA8B
:10C88000009E471906EB4706B6F90060764396FB13
:10C89000FAF606FB05449B1BB0446D1CA942DBDA8B
:10C8A000029D6D7D01956D1EAA422BD15D4627E04C
:10C8B000DEF828704FF0000A4E46A2F1010B0097F7
:10C8C0000AE0771C07FB0057DDF800C0761C0CEB74
:10C8D0004707B7F900C0E244B345F2DA561C06FB3D
:10C8E0000057009E06EB4706019FB6F900607643AD
:10C8F00096FBFAF606FB054406FB0733B0446D1CB5
:10C90000A942D5DA07980460079843600798C0F8F1
:10C91000088008B0BDE8F08F2DE9F04F89B04FF0E6
:10C920000009DFF8ECB18646CDF81090CDF81490F0
:10C93000CDF81890DBF8000014460F46B0F86820D8
:10C94000217E4D464E46C84609B9B0F8C8217878D0
:10C950003CE000BF5EF820A03878039030E0012072
:10C96000884010EA0A0F29D0DBF80000D4F828C06C
:10C97000029B007D01935B1C009303FB00130CEBF7
:10C980004303B3F90030934208DDDDF804C001FB36
:10C9900003660CFB03881D4409F10109237E012B6A
:10C9A0007AD0002B009B00FB03F05A4B0B4410F88D
:10C9B00003C07AD04CF0200C00F803C0491C03914E
:10C9C000B87803998842CADA0298401C0290F97834
:10C9D0008142BFDADBF8000090F8600000060BD55A
:10C9E00004AB224639467046FFF7C0FE049805990D
:10C9F0000644069888440544454800230168087D9C
:10CA0000CA8A401E00FB05FAA2FB060C03FB06C304
:10CA1000F11702FB01314FEAEA7B52465B4608F010
:10CA2000DFFD03903A4841464FEAE87600684FF050
:10CA3000000C427D038B521EA3FB01080CFB0181FD
:10CA40006A4303FB06114FEAE27A534608F0C8FD39
:10CA500002900398002800DA00202D4E03903168E0
:10CA6000C98A814200DB014602980391002800DA5E
:10CA7000002002903168098B814200DA084602905A
:10CA8000E560A4F80890207E022811D0012816D075
:10CA900000B35BE000E008E0009B58431D4B0B44F3
:10CAA00010F803C04CF0800C86E74CF0400C83E794
:10CAB000306890F88000C00648D5002210E0306849
:10CAC00090F88010C90612D590F8A0004007F4D461
:10CAD000012205E0306890F88000800636D50222F9
:10CAE00002A903A801F034FF207E01282ED130686E
:10CAF00090F8A010490729D508A9CDE90014B0F98C
:10CB00001820B0F9161007AB3846FFF747FD03E0D1
:10CB10003C02100018C80120306890F88000C00660
:10CB200004D5012208A907A801F012FFE0680090CF
:10CB3000DDE9021008AB07AAFFF7ECFD08A907A87A
:10CB4000F7F797F90798E0800898A08002A903A852
:10CB5000F7F78FF9039801B26180029800B2208044
:10CB6000326892F8A020520701D4E180A08013E53A
:10CB70002DE9F04F86464878914600234FF0010B8F
:10CB8000FE4ACE78D2F800A01AE000BF5EF820700E
:10CB90000A78441C8D7810E00BFA02FC1CEA070F9F
:10CBA0000AD09AF81480D9F828C004FB08280CEBA6
:10CBB000480CBCF900C06344521C9542ECDA401C9E
:10CBC0008642E3DAC9F81030A4E62DE9F0410E46BA
:10CBD000EB49EA4D144607460A7800202968012AE5
:10CBE00001D191F87F00227E042A01D0022A07D1C8
:10CBF00091F8661062890844824201D903202076A8
:10CC00000422314604F11400F7F74BF8224631466E
:10CC10003846FFF7ADFF012231463846FFF774FB77
:10CC2000D848007880B9286890F8200280070BD592
:10CC3000207E022801D0012806D1314638462269DB
:10CC400004F0CBF8012809D0224631463846FFF7D8
:10CC500063FE2046BDE8F04106F0CDBBBDE8F081A3
:10CC600030B5A1B01C4615466B46FFF71BFB2246AC
:10CC700029466846FFF7A9FF21B030BD2DE9FF4FD7
:10CC800086468B4600204FF6FF755378D67828E00D
:10CC900003EB03140EEB440101F12209B7491478A8
:10CCA0009778D1F800A018E009EB040191F801C0D1
:10CCB000DC4510D10E999AF81480D1F82CC0591C7B
:10CCC00001FB08410CEB41010988884200D208466B
:10CCD0008D4200D90D46641C24B2A742E4DA5B1CE5
:10CCE0001BB29E42D4DA039908800D990D8004B0DE
:10CCF00010E62DE9F04F9B4682465378DDF824E09C
:10CD00002CE000BFA04D03EB03100AEB4004AD681C
:10CD1000223405EB400522351078984F4FF0010979
:10CD200017E0261876788E4211D13E68DEF82CC0C6
:10CD300096F814805E1C06FB08060CEB4606B6F956
:10CD400000605E4503DD05EB000C8CF80190401C93
:10CD500000B296788642E4DA5B1C1BB2D078984227
:10CD6000D0DAD7E52DE9F047844F8146C8B038685E
:10CD70001D46884690F8706047A8CDE90005144626
:10CD800046AB4846FFF77AFF287E48B97F480078CF
:10CD90000028386802D090F8EC6601E090F8CE6187
:10CDA000BDF81811BDF81C016422091A7143B1FBCA
:10CDB000F2F1754F0E184FF48861B86808F081FCE5
:10CDC000B3B22246414648460095FFF792FF2068DD
:10CDD000029002AB2FAA0121B868FFF770F906464E
:10CDE00001281ED901240DF1BC0A0DF10809B8462D
:10CDF00012E000BF3AF81400688109EB8407294665
:10CE0000384601F063FE2B463A462146D8F8080022
:10CE1000FFF726FF641CE4B2B442EBD948B0BDE88A
:10CE2000F0872B46224641464846FFF719FFF5E7B3
:10CE30002DE9FC4F524DDDE90B89DFF840B12D782B
:10CE400014789678DBF80070012D1AD097F871509D
:10CE5000DFF834C1AA4603EB031500EB4500DCF80C
:10CE600008C022300CEB45052235D8F82CC03F7D98
:10CE70005B1CD8465F430CEB47034FF0010B1CB122
:10CE80000CE097F8C950E3E744788C4205D1B3F938
:10CE900000704F4501DD85F801B00124D8F800C0CD
:10CEA00097789CF814C0ACF1010C674562D1461C20
:10CEB000BE5D8E4207D133F917C0CC4503DD05F1C5
:10CEC000010C07F80CB09278521ED6B252E002194B
:10CED00052788A424CD133F914204A4548DD02EB9E
:10CEE0000A0E002703EB4402CDE9002732F9022C99
:10CEF000964505DADDF800C0BCF902C0E64537DB2F
:10CF0000012C10D0D8F800703F7DBF1EA74217D16A
:10CF1000009F37F9047CBE4527DA009FB7F90270FD
:10CF2000BE4525DB21E0B3F9027007EB0A02B3F935
:10CF30000070BA4219DAB3F90670BA4218DB14E08D
:10CF4000964506DA009FB7F90470BE4501DA012262
:10CF50000192009F37F9047CBE4504DA009FB7F9BF
:10CF60000270BE4504DB019A12B92F1987F801B08F
:10CF7000641CE4B2B442AAD9BDE8FC8F3C021000A4
:10CF80006A02100066021000540410006C021000C7
:10CF90002DE9FF4F9AB092F80180D7780020ADF8C4
:10CFA0004800ADF84C001590FA48FB4D1E4600783D
:10CFB0001446012824D0F948017828460129006840
:10CFC00022D0713090F80090407812AB824613A8BE
:10CFD000CDE90006DDE91A01FFF750FE2868F049A7
:10CFE00090F8760090B1BDF84820BDF84C30098823
:10CFF000D21A42436420B2FBF0F0084405B207E0C5
:10D000004FF001094846E0E7C930DBE7B1F90050CD
:10D01000607848B9CDE90065DDE91A014FF00108F3
:10D0200000232246FFF704FFDB48E1780068407DDB
:10D03000401E814209D1CDE90065491ECFB2C3B27D
:10D04000DDE91A012246FFF7F3FE4046F1E000BF9A
:10D050001A9A00EB001102EB410202F1220BD14AB5
:10D0600000F1020C00F10308926802EB4101223149
:10D070000A91C949F36A421E0968097D4A4303EBD4
:10D0800042020D9201FB00F203EB42020792421CA6
:10D0900096464A4301FB0CFC01FB08F103EB4101FE
:10D0A000089103EB420203EB4C0C2178BBE000BF7C
:10D0B0000BEB010393F801801B9B98457ED132F95D
:10D0C00011300393AB4279DD00230593039BDDF818
:10D0D0001C804B44019338F91180CDF850804345B2
:10D0E00005DA3CF91180434501DA01230593002953
:10D0F0007ED0A94B1B6819931B7D18935B1E8B4236
:10D100007BD002EB41030993DDF8048033F9023C44
:10D110000E93984508DA4346DDF82480B8F902807A
:10D12000434501DA01230593039BDDF81C8053443A
:10D1300008EB41080393CDF8188038F9028C434579
:10D1400007DA0CEB4108B8F90280434501DA012304
:10D150000593DDF81880039BB8F90280434505DA92
:10D160000CEB410838F9028C43455ADB059B2BBB7D
:10D17000199B5B7D9B1E83420CD0DDF85080019B88
:10D18000434507DADDF8208038F91180434501DA9C
:10D190000123059301280CD0DDF83480019B38F978
:10D1A0001180434505DA3CF91180434501DA01233A
:10D1B0000593012924D0189B9B1E00E01FE08B42A1
:10D1C0000CD0DDF83880019B434507DADDF8248078
:10D1D000B8F90480434501DA01230593DDF8248082
:10D1E000019B38F9048C434507DADDF8248000E020
:10D1F00003E0B8F90280434513DB059B5BB110E007
:10D20000B2F9028008EB0903B2F900804345F4DA71
:10D21000B2F90680EFE70A9B4FF001080B4483F850
:10D220000180491CC9B2A3788B42BFF441AF0EF014
:10D23000FF00B8427FF60CAF15981EB0C4E42DE98C
:10D24000FF4F584DC5B000274FF48861A86808F01B
:10D2500038FA45AC0FCCFFF79BFE4799096800915F
:10D26000C8BB6B462DAA0021A868FEF728FF06461A
:10D27000012830D906F044F90124DFF81C810DF1B2
:10D28000B409EA46A34619E0D8F8001039F81400AA
:10D2900091F87510884210D985F800B04899012797
:10D2A00048810AEB84004490489901F00FFCE1B2F8
:10D2B000489B449AA868FFF7D3FC641CB442E3DDA2
:10D2C000D8F8000090F84004800702D4002006F04F
:10D2D0001CF9002F03D145AC0FCCFFF7C1FC49B0BE
:10D2E00072E42DE9F04F8A462B490025994686467F
:10D2F000D1F8006028462B4609EB0301491E1FD4D4
:10D30000747D8C421CDD377D01F1010107FB01F1C9
:10D310000EEB410803EB430C4FF000010AEB4C0B02
:10D3200002EB0104641E08D4A74206DD3BF911C0DC
:10D3300038F91440604404FB0C55491C0329EFDB09
:10D340005B1C032BD8DB00B9012095FBF0F03BE41C
:10D350002DE9FF4F82B00C464178DDF83CB001B1B9
:10D36000491E0D4A01F0FF09C1781668737D5D1EE4
:10D37000A94201DA491C00E02946CDB2017801B189
:10D38000491E01F0FF0A8178307D431E99420BDA75
:10D39000481C0AE05F0210003C0210006A02100004
:10D3A000CA04100054041000401EC6B2B4F91200A2
:10D3B00009F10101019064E0FC4B4A1C1868007DF2
:10D3C00000FB02F7484305990BEB470E01EB4000C9
:10D3D00000900AF1010051E0F44909680B7D0599BC
:10D3E00002FB030701EB4701049FB1F90210B942A8
:10D3F00040DD0099B4F9008001EB40010027B1F94C
:10D4000000C00CFB0877B1F902C0B4F902800CFB34
:10D410000877B1F904C0B4F9048001EB43010CFBB7
:10D420000877B1F900C0B4F9068001EB43030CFBA7
:10D430000877B1F902C0B4F908800CFB0877B1F99C
:10D4400004C0B4F90A80B3F900100CFB0877B4F9F2
:10D450000CC001FB0C71B3F90270B4F90EC0B3F942
:10D46000043007FB0C11B4F9107003FB0711019B8A
:10D4700091FBF3F12EF81010401C00B2B042ABDB70
:10D4800011B2A94298DB4F4617E0017D781C414359
:10D490000BEB410800903B46524621460598FFF7AA
:10D4A00020FF28F81A003B46324621460598FFF730
:10D4B00018FF28F81600009807B2BC48AF42006871
:10D4C000E3DD007D691C41430BEB4101009109F153
:10D4D000010148430BEB4008574612E04B463A46E1
:10D4E00021460598FFF7FDFE28F817002B463A461F
:10D4F00021460598FFF7F5FE009921F817007F1CDB
:10D500003FB2B742EADD06B02BE4F8B5A8491046B1
:10D51000069A09781D46022914D2A64CA3492E7EEC
:10D52000236809687EB191F84060B6060AD5012AE1
:10D5300008D10093B1F958209F4BA049FFF708FF8D
:10D540002068E862F8BD91F8C061F706FAD5B60622
:10D5500009D50093B1F9C421974B9949FFF7F8FE1B
:10D560002068A862F8BD012AFCD10093B1F9C4215A
:10D57000E2E7F0B48E4C26788C4C256816B1B5F8ED
:10D58000024101E0B5F800411E7E64431EB195F8EA
:10D590006050EE0706D08B4C2478002C0DD1F0BCE7
:10D5A000FFF7E0BBAD0705D5874D2D68A54201DA31
:10D5B000F0BC44E6F0BCFFF753BBF0BC70472DE96C
:10D5C000F047814679488A460023016818460125BC
:10D5D0000E7D4F7D1EE000BF00EB001409EB4404FC
:10D5E0002234194612E000BF52F8208005FA01FCEF
:10D5F00018EA0C0F08D004EB010898F801C0BCF140
:10D60000000F01D188F801A0491CC9B2B142EBD387
:10D61000401CC0B2B842DFD3BDE8F087644A10B501
:10D62000127801243AB9614A126892F86020120710
:10D6300018D5012916D181780278891A01D5C1F14E
:10D64000000101F10101CAB2C1784078081A00D581
:10D650004042401CC1B21046F5F783FFC0B201281A
:10D6600000D10024204610BD2DE9F04F8A464F49D5
:10D6700083469E464FF001095078D6780C6824E026
:10D6800000EB00130BEB430322331178957818E07D
:10D690005F1897F801C0D44511D194F81480471C45
:10D6A00007FB0817DEF828C00CEB4707B4F8D2C117
:10D6B000B7F90070BC4502DA4FF0000903E0491CDD
:10D6C00009B28D42E4DA401C00B28642D8DA4846FC
:10D6D0003DE62DE9F0439946344B01261C6894F849
:10D6E00008319D0748D51578B5EB531F01D80025A3
:10D6F00001E0A5EB5315EFB2257D92F802C0A5EB32
:10D70000531808F10108E04501DA6D1E01E00CEB49
:10D71000531505F0FF0C5578B5EB531F01D80025C4
:10D7200001E0A5EB5315647DD278A4EB531808F102
:10D730000108EDB2904501DA641E01E002EB5314DA
:10D7400004F0FF0811E000BF05EB051200EB4203F7
:10D7500022333C4606E01A19527812B18A4200D0B0
:10D760000026641C6445F6DD6D1C4545ECDD002E8D
:10D7700002D1022189F81810BDE8F08330B50B4CB6
:10D78000124A2468B2F90030114A34F9A85FB2F99C
:10D790000020B4F9024029B90E49B1F900300E4910
:10D7A000B1F90020A04219DD104630BD3C02100046
:10D7B000680210007402100058D70120B65A010008
:10D7C000A25A01005E021000E0041000CA0410001A
:10D7D000CC041000C4041000C6041000A84201DAF2
:10D7E0001846E2E7201AD11A4843611B90FBF1F07A
:10D7F000101A00B2D9E72DE9FF5F8B460746DDE935
:10D800000E544FF0FF36DDE90201B046C246F5F78F
:10D81000A8FE0FFA80F9DDE90201F5F7A6FE01B2D4
:10D820000BEB0900401088427CDAF848109A32B1BC
:10D83000012A1AD0022A2BD0032A73D142E0A21E59
:10D8400006D40268137D621E02FB035237F9126090
:10D850000068A21C437D934252DD007D04F1030465
:10D8600004FB005037F9100049E0AA1E08D40268F2
:10D87000137D621C02FB035207EB420232F9046C77
:10D880000068AA1C007D90423ADD04F1010430E0FA
:10D89000AA1E0DD40268A31C92F815C09C4507DD92
:10D8A000137DE21C02FB035207EB420232F9046CC7
:10D8B0000068AA1C007D904222DDA21E20D4A4F1A3
:10D8C000010416E0AA1E0AD4A21E08D40268137D21
:10D8D000621E02FB035207EB420232F9046C02683B
:10D8E000AB1C107D98420BDD537DA21C934207DDDB
:10D8F000E41C04FB005007EB4000B0F90400804634
:10D90000701C0FD018F101000CD0029A914500D084
:10D9100046460BEB0100401006EB0901C1EB40004D
:10D920000FFA80FA04B05046BDE8F09F2DE9FE4F93
:10D93000DFF8D8A21E0002F10107DAF800C0DDF816
:10D9400030B04FF0FF349CF81430254607FB031825
:10D9500030F9189006D0012E16D0022E20D0032EBA
:10D9600052D133E0B2F1010803D402FB031530F9C0
:10D9700015509CF81580B84544DD02F1020404FB03
:10D98000031330F913403DE04F1E03D400EB48056C
:10D9900035F9025C4F1CBB4234DD00EB48032FE03D
:10D9A000B1F101080AD49CF81580B84506DD951C34
:10D9B00005FB031500EB450535F9025C4F1CBB4226
:10D9C00020DD571E1ED402FB031317E0B1F101083E
:10D9D00008D4B2F1010805D402FB031500EB45059C
:10D9E00035F9025C01F1010843450BDD9CF8158017
:10D9F000B84507DD02F1020404FB031300EB430307
:10DA0000B3F902406B1C01D1631C0FD09CF8A0300D
:10DA10009B0608D58DE846002B4622464946FFF76F
:10DA2000EAFEABF80000681C03D003E047F6FF7085
:10DA300007E02546601C00D12C466119C1EB490066
:10DA400000B2DAF8001091F8F117022908D17049F4
:10DA500021F8365001EBC601A1F802908C80C880F5
:10DA6000BDE8FE8F2DE9FF4F002085B0DFF89CC197
:10DA700001900290117883460546044607460391BB
:10DA8000DCF800001E4631B95178B9B1417DD37838
:10DA9000491E8B4212D0017D93788E46491E8B42DF
:10DAA00004D192F80180B8F1000F07D08B420BD15E
:10DAB000417D92F80380491E884505D1B0F8AA003F
:10DAC000801CA6F82300DFE0517892F80390B06A3A
:10DAD00029E000BF01F1010C0EFB0CF200EB420249
:10DAE0000492059A01EB011C02EB4C0202F1220A9E
:10DAF0000FFA81FC039ACDF800C011E00AEB020C8A
:10DB00009CF80180DDF818C0E04508D1DDF810C0B0
:10DB10003CF912C0DC4502DD009CE34615B2521C04
:10DB20009342EBDA491C8945D4DA01A9009101231B
:10DB300022462946FFF7FAFE81460DF106000090C5
:10DB4000002322462946B06AFFF7F0FE804602A86D
:10DB50000090022322462946B06AFFF7E7FE0390B1
:10DB60000DF10A000090032322462946B06AFFF710
:10DB7000DDFEDFF898A08346DAF8000090F8A010E8
:10DB800049063FD51DB1027D521EAA4201D1414630
:10DB900031E01CB1407D401EA04201D149462AE03F
:10DBA00041464846F5F7DDFC02B259460398F5F7C1
:10DBB000E0FC01B2DAF8000090F8A00080061AD567
:10DBC000002001AA32F91030002B01DD7F1CFFB2CA
:10DBD000401C0428F6DB032F0DD3BDF90610BDF958
:10DBE0000400F5F7BEFC02B2BDF90A10BDF9080049
:10DBF000F5F7BFFC01B20027601ED446641CDAF8BA
:10DC0000009025E008EB0900F4E700003C0210005A
:10DC100058D7012000281ADB99F81520824216DD1A
:10DC200099F814A000F10108B36A0AFB08F203EBAB
:10DC3000420B6A1E6B1C08E0002A05DB924503DDDF
:10DC40003BF8128047443FB2521C9A42F4DD401C1C
:10DC5000A042DFDDFA20414391FBF7F004B2A6F8C1
:10DC6000234001212046FFF789FDF8490C80DCF8AC
:10DC7000001091F8F117022903D1F5490C844F8463
:10DC80008884318C814202DD012009B020E500202A
:10DC9000FBE72DE9F04F8246DDE909B700209E46FB
:10DCA0003880894653782CE0EA4903EB03140AEBE9
:10DCB000440609682236DBF82840097D5D1C69436B
:10DCC00004EB4104117817E006EB010C9CF801808D
:10DCD000C8450FD1B7F800C034F81180C444A7F884
:10DCE00000C034F911C0844504DDAEF8021060466E
:10DCF000AEF80030491CC9B292F802C08C45E3D29C
:10DD0000EBB2D1789942CFD2E2E42DE9FF4F83B054
:10DD10001878109C92461E46A0709878207058780B
:10DD2000E070D87860704FF000085F784DE000BF79
:10DD3000039907EB071001EB400101F12209049957
:10DD400001EB400000F1220B1298826AC148006882
:10DD5000017D781C4143019002EB41000090357831
:10DD60002EE000BF09EB05004178514526D100980F
:10DD700030F91510119881421CDD08F101001FFADD
:10DD800080F821782846F5F7ECFB2070617838465A
:10DD9000F5F7E7FB6070A1782846F5F7E6FBA07081
:10DDA000E1783846F5F7E1FBE0700BEB050080F811
:10DDB00001A003E00BEB0500002141706D1C2DB2AA
:10DDC000B078A842CEDA019807B2F078B842AFDA5C
:10DDD0000FFA88F007B07BE49E490278096822B107
:10DDE0000A7D8378521E934208D1427822B1C278CC
:10DDF000487D401E824201D10120704700207047BB
:10DE0000017869B19349837809680A7D521E93426B
:10DE100006D0427822B1C278487D401E824201D1AC
:10DE2000012070470020704730B50546A1B08948F1
:10DE300000238DF8803002680C46107D401E8DF85E
:10DE400082008DF88130507D6B46401E8DF8830036
:10DE500020AA2846FEF726FA002220A96846FEF7E7
:10DE600053FA6A4621462846FFF7A9FB21B09CE4F5
:10DE70002DE9F74F77480C46154601684FF0000929
:10DE8000B1F9EDA2217809B1491E2170617809B17B
:10DE9000491E61700268A178127D521E914201DA1A
:10DEA000491CA17083460068E178407D401E814294
:10DEB00001DA491CE170A0782870E0786870207859
:10DEC000A8706078E87067782FE0267807F101087D
:10DED00026E00098816ADBF80000027D08FB026002
:10DEE00001EB4000B0F90000504517DB09F10100DB
:10DEF00000F0FF0929783046F5F733FB2870697880
:10DF00003846F5F72EFB6870A9783046F5F72DFBFB
:10DF1000A870E9783846F5F728FBE870761CF6B269
:10DF2000A078B042D5D208F0FF07E078B842CCD252
:10DF3000484695E52DE9FE4F0A780192521ED2B26D
:10DF400002928A78434B521C02F0FF0A4A780092F0
:10DF5000CE78D3F8009034E04FF0000E744675464A
:10DF6000029B25E099F8148002F1010C0CFB083C9F
:10DF7000876A07EB4C08B8F900B04FF0020808EBCD
:10DF80004C0C6744B7F90070ABEB0707002F02DABF
:10DF90004FF0010402E001DD4FF002042DB1A54273
:10DFA00003D00EF1010505F0FF0E5B1C2546DBB228
:10DFB0005345D7D9BEF1010F01D9002050E5521CBD
:10DFC000D2B29642C8D2009A019B521ED2B2761C9F
:10DFD00006F0FF0A009241E04FF0000EF046744652
:10DFE000009A2AE099F81470551CAB4605FB0735DA
:10DFF000866A02F1020C0CFB073706EB450506EBBF
:10E000004707B5F90050B7F900703385866A728505
:10E01000826A9585EA1B002A02DA4FF0010802E0C5
:10E0200001DD4FF002082CB1444503D00EF101028E
:10E0300002F0FF0E44460BF0FF025245D2D9BEF16A
:10E04000010F09D9002180F83010B6E7062510002D
:10E0500058D701203C0210005B1CDBB28A789A4240
:10E06000BAD20120FCE42DE9F14F0026E6B0B34618
:10E07000ADF86461B146B246FD48FE4CFE4D006805
:10E08000606000F58860A0602968B1F90E125E91A9
:10E090004FF4886107F015FB296891F86000C2070A
:10E0A00001D1800701D54FF0010BF448007820B171
:10E0B00091F8E006C0F3400003E091F8C001C0F31E
:10E0C000C000609000202A902AAB11AA012160684C
:10E0D000FDF7F5FF06462AAB03AA11A96068FDF714
:10E0E0003EFF012800D10126E548AE4606732B68A5
:10E0F00001201A7D15E0012100EB0014E14FDD4DF8
:10E100000AE000BFD5F8048001EB440C18F80CC0FD
:10E1100007F802C0521C491C93F814C08C45F1DA70
:10E12000401C597D75468142E5DA012463E13821BE
:10E1300003A807F0E8FAD4480D900E90E1B211A8B8
:10E140008DF82E1030F81400ADF8160059AA03A867
:10E15000CDE900022AA8DFF81C8300EB8402289294
:10E1600061ABD8F80400FFF794FD0746ADF82C002A
:10E170000020ADF82F008DF83C00BDF98611BDF9E7
:10E180008421ADF84010ADF83E2088F8000049B178
:10E1900042B12868037D5B1E994203D0407D401E3A
:10E1A000824201D1012000E000205D90B748007854
:10E1B000800763D5B1480078F0BB2968B44A91F86C
:10E1C000A70012889042B348007801D210B155E000
:10E1D000022853D2BDF964215E9882424EDA0120B2
:10E1E0008DF8240091F8A4005B90AA4800780128DB
:10E1F00005D191F8BC205B98104480B25B905D988B
:10E20000012842D091F8A500A3495C9003A8B1F978
:10E21000002058A90091CDE90120289BD8E90101EF
:10E22000E2B2FFF772FD974980B2ADF816000855CB
:10E230005B99884222D900E020E05C9988421DD891
:10E240009549B1F900108F4218DD012820D004D97A
:10E25000286890F8A00080071FD528688F49B0F87B
:10E26000FD0009684043884217DBE1B203AB58AABE
:10E27000D8F80800FFF7F6FB01280ED05D99289822
:10E28000FFF7CCF901281FD0B4E091F8A600BBE756
:10E290008348B0F900008742DFDD0220ADF8280096
:10E2A000ADF8260000208DF825004FF00109E1B2FD
:10E2B00003AB4746289AD8F80400FFF70AFAE1B200
:10E2C00003AB58AAB86893E07648B0F900008742DB
:10E2D00070DD11A931F8141057917349B1F900108C
:10E2E000814213DA58AACDE9002003A90291D8F897
:10E2F0000410E2B2289B0846FFF707FD11A921F898
:10E3000014002899589A0A60ADF816002868B0F8E9
:10E31000EB12B94219DD90F8EA02C00715D0012EC0
:10E3200013D164AA03A82899FFF7A2FD296891F8E0
:10E33000EF12814209D264A8FFF762FD28B964A9EF
:10E3400003A8FFF7F7FD8DF83C00286890F865708A
:10E350005048007848B12898FFF73EFD012828680A
:10E3600025D090F8BD00384487B211A830F81400C9
:10E37000B8423FD903A800904FF00109CA46E3B262
:10E380004746289A0D98D8F8041000F0BBFB11A856
:10E390002B6830F8141093F8670081420BD3434880
:10E3A0000078012807D004208DF824001CE090F8A4
:10E3B000C300D8E72AE0022031498DF82400BDF8D7
:10E3C0002A008882B3F86E105A46884200D2002292
:10E3D0005798032808D33AB10092E1B203AB289AC8
:10E3E0007868FFF792F8D0E0E1B203AB289A78683A
:10E3F000FEF736FC641CB4427FF699AE2C492D48DA
:10E4000081F8009080F800A067B07DE4286890F85B
:10E41000C011C907EED0284909680029EAD0274968
:10E4200009780029E6D18DF8241090F8C001400742
:10E4300005D5E1B22AAAD8F80400FFF7F5FC47F6A3
:10E44000FF705C900D48007818B1286890F8E1766C
:10E4500009E05D9801281A48007833D0012828681F
:10E4600039D090F8CB710B480078012836D03AE0CB
:10E4700070021000540410003C0210006C021000E6
:10E480000625100018C8012058D70120C00210002E
:10E490006604100068021000CC041000E0041000B4
:10E4A000DE041000CA041000DA0410005F0210003D
:10E4B0005B0210005C0210009C010022550210005B
:10E4C0005D0210000128286802D090F8CD71CAE7DB
:10E4D00090F8CC71C7E790F8CA71C4E7286890F843
:10E4E000D901384487B22F48B0F900102E48B0F94E
:10E4F0000000814213DA58A903AA0091CDE9010274
:10E50000D8F80410E2B2289B0846FFF7FEFB11A9D9
:10E5100021F814002899589A0A60ADF8160011A83D
:10E5200030F81400B8427FF6AFAE5C9988423FF6EF
:10E53000ABAE66990220E3B2087003A8009047468C
:10E54000289A0D98D8F8041000F0DCFA6098009032
:10E55000E1B203AB289A7868FEF7D7FF286890F8F5
:10E56000C00180070DD511480078012809D1E1B21A
:10E5700003AB289A7868FFF777F8012801D10C4996
:10E580000870609800283FF411AFE1B203AB289AFD
:10E590007868FEF7EEFF2DE7064800210173018041
:10E5A00070470000DA041000CE0410005D02100075
:10E5B000D80410000625100070472DE9F047C14C23
:10E5C0000F469146216802460025B1F82004012B30
:10E5D00003D1B1F82214084480B201B2104600F011
:10E5E000E1FE06462068A046B74B427DB0F92414F0
:10E5F000384601F0B4FD07462068B44B027DB0F9FF
:10E600002414484601F0ABFD2168B14C91F8F12784
:10E610000B2A06D122806288521C6280A680E78085
:10E620002081012F0FD101280DD166B94A7D087DC7
:10E63000A84942435200096801EB400104EB400045
:10E64000F5F72FFB0125D8F8000090F8F1070B280B
:10E6500000D165812846BDE8F08737B59948144652
:10E66000006890F8F1070B2802D1994901208882AF
:10E6700001A96846F5F7FDFB0098608001982080AD
:10E6800002206083A083204604F0B5FE3EBD2DE944
:10E69000F04700271446054689463E464FF00108DC
:10E6A000DFF820A201F0B8FD00B24FF4FA4C35F9C2
:10E6B0001010DAF80000B0F8460241434FF47A70C7
:10E6C00091FBF0F001B20020034600BF04EB4002D2
:10E6D000401C9380A2F80EC00328F7DB01202075B0
:10E6E000002031E0B8F1010F31D004EB460235F9DA
:10E6F00010C0D389634504DD35F81030D381A319E8
:10E700009872D28935F910300A4493421BDD7F1C80
:10E71000FFB24FF00108022F00D90227227D521CC0
:10E72000227504EB470235F91030B2F804C0634596
:10E7300009DDDAF800C0BCF85EC1634503DD35F8D9
:10E7400010309380E055401C4845CBDB83E704EB59
:10E75000470235F91030B2F804C0634509DDDAF834
:10E7600000C0BCF827C4634503DD35F81030938042
:10E77000E055928835F91030521A9342E3DA761C4C
:10E78000F6B24FF00008022E00D9022604EB460232
:10E79000B2F80EC09C45D6DD35F81030D381A219F1
:10E7A0009072D0E72DE9FF4FDFF8188197B09B46B4
:10E7B000D8F80000444607AA017D1898FFF767FFC4
:10E7C00020680FAA417D1798FFF761FF9DF8500060
:10E7D0009DF83010884203D90124054600272CE01B
:10E7E000012504460027002624E000BFD8F80000D9
:10E7F00090F8261401F00F01009107A9C38A8A5DE1
:10E80000017D189801F01AFD8246D8F8000090F8B2
:10E81000261401F00F0100910FA9038BCA5D417D01
:10E82000179801F00BFD814601465A465046FFF706
:10E8300014FF761CA642D9DB7F1CAF42D3DBD8F88D
:10E84000000090F8F1070B2820D12148A0F80CB067
:10E85000A0F80EB0A0F810A0A0F812909DF830100B
:10E86000C1829DF81C1001839DF81D1041839DF805
:10E870001E1081839DF85010C1839DF83C100184C7
:10E880009DF83D1041849DF83E1081841BB0BDE889
:10E89000F08F00B58FB002238DF818300523ADF846
:10E8A0000A3041F6583303930723ADF808300A4B7A
:10E8B0001B885B1CADF820306B46FFF773FF0FB071
:10E8C00000BD00003C0210009802100094021000ED
:10E8D00058D7012070021000C4041000F0B5B2F93E
:10E8E00000400568AC4202DDB3F900102EE002EBF7
:10E8F000410434F9026CAE4204DA03EB410131F910
:10E90000021C23E00024491E0BE000BF32F9147002
:10E91000AF4205DC02EB4406B6F90270AF4202DA00
:10E92000641C8C42F2DB32F9146003EB440133F9CE
:10E930001430B1F9021002EB4402AD1BC91AB2F94E
:10E9400002206943921B91FBF2F119440160F0BD72
:10E95000F0B50E462549096801F275432AB3012A2C
:10E960002CD0022A33D0032A3ED191F811C601F2ED
:10E97000126291F8104602EB4C0303EB4C0707EBD5
:10E98000440500BF0CEB04013E292DDCBCF1010F56
:10E9900002DD6146FFF7A2FF012C25DD2B463A463A
:10E9A00021463046BDE8F04098E791F870C491F8F0
:10E9B000714403EB4C0591F8721410E091F870C4A7
:10E9C00091F8714403EB4C0591F8731407E091F84A
:10E9D00070C491F8714491F8741403EB4C0503EB87
:10E9E000410202EB4C07CDE7F0BD00003C021000F5
:10E9F0004FF47A72504390FBF1F1744810B58142A4
:10EA000001DAC01110BD42F6A640814201DD5A2054
:10EA100010BD6F4A002000BF32F910308B4205DC78
:10EA200002EB4003B3F902308B4202DA401C452866
:10EA3000F2D332F9104000EB800302EB4000091BD7
:10EA4000B0F90200553B001B01EB810191FBF0F096
:10EA5000184410BD30B50D460446FFF7C9FF00EB62
:10EA6000D0704010002D02D00DDD34B130BD002C2F
:10EA700003D005DD4FF02D0030BD4FF0000030BD5C
:10EA80004FF05A0030BD002C03D005DD00F15A00D4
:10EA900030BD6FF0590030BDA0F15A0030BD10B547
:10EAA0008C1A00D56442002800DA404204EB400092
:10EAB00011440A18081A521040104FF47A71484352
:10EAC00090FBF2F0C0F57A70D88310BD30B5827833
:10EAD00003784D89D21AC3784078521C1B1A5B1CEC
:10EAE00005FB02F0D4185D4340006A00B0FBF4F06F
:10EAF000B2FBF4F2904202D948838A8330BD4A8344
:10EB0000888330BD2DE9FF4F0027164682B03A4674
:10EB10003C46BC46BB46BA46707896F8039025E062
:10EB2000039900EB001301EB43012231019131788D
:10EB3000009196F8028016E0019B0B445D78059BDE
:10EB40009D420FD1A9EB000303F1010E009B0EFBC8
:10EB50000EAACD1A6D1C05FB05BB05FB0ECC7F1C58
:10EB60002A447444491C8845E6DA401C8145D7DABA
:10EB70004FF47A70504390FBF7F101FB04F54FF42A
:10EB80007A734FF47A70604390FBF7F0514391FB36
:10EB9000F3F2604390FBF3F195FBF3F5ACEB050565
:10EBA000ABEB0207AAEB01046800391BFFF752FF29
:10EBB0000F9922464876394628460F9BFFF76FFF8C
:10EBC0000F9906B03046BDE8F04F7FE75AD3FFFFFC
:10EBD0005C5A0100FA4900200870FA490870FA49A5
:10EBE0000870704710B56FF000421421F74806F026
:10EBF00060FDF7480021016141618161017010BD34
:10EC000070B5F449002001220870F349FB4BFC4D1C
:10EC10000A70F249FB4E0870F1490870F14908701A
:10EC2000F1490870F1490870F1490A70F14908701A
:10EC3000E7490871486288628870C8610862CA70D2
:10EC4000ED4A1268B2F862401C80B2F8A1302B8005
:10EC5000B2F80C523580EC4EB2F8C6213280EB4E41
:10EC60003480EB4C2380EB4B1D80EB4B1A80EB4A3E
:10EC70001080C860FFF7A0FCFFF7ACFFBDE8704054
:10EC8000B0E72DE9FF4FDC4A9B4681B012680125B1
:10EC900092F815C0137D0CF1010C68E04FF0000AEA
:10ECA00047F6F8724FF001095442D6465646CDF861
:10ECB000009019E005FB036730F8178031F81770F2
:10ECC000A7EB08073FB2BA4200DD3A46BC4200DA81
:10ECD0003C46002F02DA4FF0000903E002DD4FF05E
:10ECE0000007009706F101069E42E3DB009E59EA09
:10ECF000060709D0B9F1010F03D0B9F1000F05D013
:10ED000008E0009C012C05D1002203E0009E012EAA
:10ED100000D12246002412E005FB034630F81670AD
:10ED200031F816601744F61B36B25E4506DACBF1B1
:10ED30000007BE4202DDB2440EF1010E641C9C428B
:10ED4000EADBBEF1000F01DD9AFBFEFA0AEB0204DA
:10ED5000002209E005FB0326DDF80C8030F8167070
:10ED6000521C274428F816709A42F3DB6D1C654547
:10ED700094DB05B0BDE8F08F2DE9F0039E4CA84E62
:10ED80002768367897F8E056ED08022E02D0032E59
:10ED900004D004E097F8ED56ED0800E00025C2F13C
:10EDA0001007012B03D0EEB30026A1461BE0BDE8FF
:10EDB000F003F4F79ABF002412E000BFD9F8003046
:10EDC0001B7D06FB0343641C31F913C030F913802B
:10EDD0000CFB02FC08FB07CC4CF30F1C21F813C002
:10EDE000AC42EBD9761CD9F800404B46647D641CDC
:10EDF000B442E0DA00208B4E0EE02C4607E000BF64
:10EE000000FB0242641C36F8127021F812701A6876
:10EE1000127DA242F4DC401C1A68527D521C8242D0
:10EE2000EBDA00E002E0BDE8F003704700230BE0FE
:10EE300031F9135030F91360554306FB075545F37C
:10EE40000F1521F813505B1C25686E7D2D7D761CF7
:10EE50006E439E42ECDCE4E72DE9FC5F664D07461D
:10EE6000934628680C469846007D0026420001EB38
:10EE700080004FF001093946F4F713FF2868417DFF
:10EE8000007D491C4143420000EB400007EB41017B
:10EE900004EB4000F4F705FF02274FF0300A286822
:10EEA0003023007DCDE900A000FB07F104EB410019
:10EEB00002462146F5F743F87F1C042FEFDB0020C4
:10EEC0002DE000BF00EB420334F9101034F9133089
:10EED000C91A01D5C1F1000100EB820224F8121019
:10EEE0002A6834F91010127D02EB4203034434F90E
:10EEF0001330C91A00D5494202EB8202024409B21A
:10EF000024F812102A68127D00EB820234F91230C4
:10EF1000434500DD761C414500DD761C401C296818
:10EF20000A7D8242CEDCD1B201EB410145F2AA500A
:10EF300024F8210028685E45007D00EB400004EBCA
:10EF4000800046802968097D01EB410104EB8101C5
:10EF5000A1F8048001DD4FF000094846BDE8FC9FA0
:10EF60002DE9F04389462E4900252C460A7822498E
:10EF70000B6812B1B3F8F16601E0B3F8F6625A7D9E
:10EF8000197D521C4A430EE039F9117030F911C055
:10EF900007EB0608C44505DDBCEB070700D57F423B
:10EFA0003D44641C491C8A42EEDC0948E5B393F8F1
:10EFB0003610A1423ED2816AB9B30120BDE8F08388
:10EFC0005D021000D804100055021000FC50100023
:10EFD0006004100059021000520210005A02100082
:10EFE0005B0210005C021000570210005802100073
:10EFF00091021000B80210003C021000C40410007E
:10F00000C6041000DC041000C8041000CA0410007C
:10F01000CC041000DE041000CE041000DA0410004E
:10F020006C0210005600012004E0FFE7012181621C
:10F030000020C3E70021FAE72DE9FF4FFD48FE4914
:10F04000924602784FF000090124086883B02746F1
:10F050004D4612B190F8F32601E090F8372002F007
:10F060000F0202EB82024FEA4202009290F8201057
:10F07000090764D5B0F97860F148DFF8BCB3EF4A0E
:10F0800001680398F4F7F8FCEE49EC480A6802922C
:10F090000368D0F804C0D21A4B689846A3EB0C035F
:10F0A0001A448B680193D0F808C0D1F80CE0C0680E
:10F0B000A3EB0C031A44AEEB00001044DBF8002075
:10F0C00092F82012C90737D0029B4FF0000B9844EA
:10F0D000019B5946734408EB030CB2F82C3263458C
:10F0E00002DA0BB14FF0010BDFF85C83B2F82A3281
:10F0F000D8F81CC0634501DA03B10121BBF1010F4F
:10F1000000D111B101290BD00CE0D04B01211970B5
:10F11000CF4B1970B2F82E1221B1B2F92E6201E074
:10F12000411C0EB2D8F82030B2F83012A3EB0C0319
:10F130008B4201DD01B10027B04200DD0024BE4E4C
:10F14000306890F8200080070ED5C248007858B982
:10F15000BF48007840B9C048007828B9DDE903010C
:10F16000FFF7FEFE00B10024326892F82002C007CB
:10F1700007D04FF4806014B137B9054604E0054666
:10F1800000E00CB945F00505AF480023C5600179E2
:10F19000A1B18AF80030416A491C4162326892F894
:10F1A0003720120902EB8202B1EB420F03DD43620A
:10F1B00003714FF00109484607B0DBE52CB127B1D8
:10F1C000436201208AF80000F5E7416A4C1C446262
:10F1D000009CA14209DD01210171436292F83710C0
:10F1E000090902D103714FF001098AF80030E2E702
:10F1F0002DE9F05F90488F4A03681278B3F9A110A7
:10F20000B3F90C42B3F9620012B1B3F9E22601E09E
:10F21000B3F9C621914D2E78874D012E2D6895F8B2
:10F22000C0B10FD18E4D2D6865B1B3F9AD10B3F9F2
:10F230006C005FEA8B7505D58A4D2D78012D01D1C3
:10F24000B3F96A00834D2D78012D35D0022D07D3F7
:10F25000B3F8BE1009B1B3F9BE0001460C46224610
:10F26000814D0646DFF818E22980804D2C80804DC4
:10F270002880804D2A8093F86450401B0FFA80F854
:10F2800093F8A3000D1A2FB293F8C351BA46551B39
:10F290000FFA85FC784D201A00B22F80774F8146F7
:10F2A00038807848AEF800804746A0F800C076481D
:10F2B000007801280FD04CE093F8BA5029442C4430
:10F2C00093F8BB5009B2284493F8DA5124B22A4487
:10F2D00000B212B2C4E793F8CC00642300FB06F836
:10F2E000B8FBF3F84644DFF88881A8F8006000FB1B
:10F2F00001F8B8FBF3F85C4E4144318000FB09F69D
:10F30000B6FBF3F85D4908EB09060E8000FB02F638
:10F31000B6FBF3F6574932440A8000FB07F2B2FB12
:10F32000F3F23A44AEF8002000FB04F2B2FBF3F231
:10F330004E4922440A8000FB0AF1B1FBF3F200FBC4
:10F340000CF0B0FBF3F002EB0A0129804D49604458
:10F3500008804E48007880070AD445484249008812
:10F360000880464908804149BEF80000288008808E
:10F370005FEACB7002D03A48006830B93A48018859
:10F380003C4801803F48298801803E48BEF9001072
:10F39000B0F90020B5F90000F4F7EBF83C4908801B
:10F3A000BDE8F09F244A10B51268537D127D5B1CA6
:10F3B000534306E030F912408C4201DD012010BDBC
:10F3C000521C9A42F6DB002010BD2DE9F05F834607
:10F3D00030488A4615460068002406464FF4086106
:10F3E00006F06FF91449002028600868012294464D
:10F3F000037D18E002EB021006EB400901200DE04E
:10F400003AF913705B1C5F4507DD09F800C0D5F8B9
:10F410000080641C4744A4B22F60401C0F683F7DED
:10F420008742EDDA521C0868407D9042E2DA2046BD
:10F43000B6E700006C0210003C0210006C241000C3
:10F44000840210005C2410006004100065021000AB
:10F450006602100068021000590210005D021000E0
:10F460009C010022D8041000C6041000DE04100025
:10F47000C4041000C8041000CC041000DC04100008
:10F48000CA041000CE0410006A021000C00210006E
:10F49000DA04100070021000F0B5FB4E33685D7D99
:10F4A0001B7D6D1C5D430024274608E030F913C026
:10F4B000944502DA21F8137000E0641C5B1CAB4237
:10F4C000F4DB3068B0F89A00A04201DD0020F0BD06
:10F4D0000120F0BDF0B50025EB4C26E00022012311
:10F4E000767D0EE003FB075C30F91CC0BCF1000F19
:10F4F00004DD0AB1944503DA624601E00022731C80
:10F500005B1C9E42EEDA002A0EDD012308E0367D08
:10F5100003FB065630F81670BF1A21F816705B1CF4
:10F520002668777D9F42F2DA6D1C2668377DAF42F0
:10F53000D4DCF0BD2DE9F043D34B81461868467DFD
:10F54000057D761C002028E01A6892F85C20642A69
:10F5500005D9C2F16402424392FBF5F405E0643A36
:10F5600002FB00F494FBF5F4141B643401224FF009
:10F5700064080FE01F683F7D02FB070739F917C0D9
:10F58000BCF1000F05DD0CFB04FC9CFBF8FC21F832
:10F5900017C0521CB242EDDB401CA842D4DB0DE583
:10F5A0002DE9F047B84B81468A461868447D057DB1
:10F5B000641C01202DE01E6896F85D10642907D9AF
:10F5C000C1F16401421E5143727D91FBF2F206E0EB
:10F5D0006439421E777D4A4392FBF7F28A1A317DE5
:10F5E0006432414309EB41060AEB410700214FF029
:10F5F00064080BE036F911C0BCF1000F05DD0CFB0F
:10F6000002FC9CFBF8FC27F811C0491CA942F1DB65
:10F61000401CA042CFDBBDE8F0872DE9F04F9246B9
:10F62000DDE909B6012747F6F87255429946BC460E
:10F63000002416E030F8143031F81480A8EB0303EE
:10F640001BB29A4200DD1A469D4200DA1D46002B8D
:10F6500002DA4FF0000702E001DD4FF0000C04F188
:10F660000104B442E6DB1FB9BCF1010F00D12A4608
:10F6700000273D463B4610E030F8134031F813C0F8
:10F680001444ACEB040424B24C4505DACBF1000C75
:10F69000644501DD27446D1C5B1CB342ECDB97FB2A
:10F6A000F5F10A44002105E030F8113013442AF83E
:10F6B0001130491CB142F7DBBDE8F08F72490300FD
:10F6C0004FF000000A68714906D04B785B1E5BB2B0
:10F6D0004B70002B03DA012092F8A8234A70704780
:10F6E0002DE9FC4104466A4801266A49076820461C
:10F6F000F4F70DF868492046F4F72FF80320F0F7E7
:10F70000AEFF614C654D206890F85011090729D56E
:10F71000427DB0F93412CDE90012B0F93232604ABC
:10F7200060495C48FFF779FF2068027DB0F9381224
:10F73000CDE90012B0F936325B4A5C495648FFF712
:10F740006CFF2878009020683B465949427D544818
:10F75000FAF7FEF82878009020683B465549027D6C
:10F7600051480EE029780091427D3B465049494876
:10F77000FAF7EEF82878009020683B464D49027D64
:10F780004548FAF7E5F800272F70206890F8211215
:10F79000CA063FD5890619D5427DB0F9A013CDE937
:10F7A0000012B0F99E333E4A3E493A48F4F7C7FB8F
:10F7B0002068027DB0F9A413CDE90012B0F9A2339C
:10F7C000394A3A493448F4F7BAFB09E03C22314956
:10F7D0003348F4F766FA40222F493348F4F761FAC8
:10F7E000009720682F49437DB0F8A6232C48FAF7EC
:10F7F0005AF90546009720682C49037DB0F8A623E6
:10F800002948FAF750F9012818D0012D16D0002008
:10F81000FFF754FF2068234A2749437D2448FAF71D
:10F8200002F92068214A2549037D2248FAF7FBF8AE
:10F830000320F0F72FFF3046BDE8FC810120FFF7E1
:10F840003DFF0128E6D10026E4E770B50E4A00230B
:10F850001268547D08E000BFB2F8B36130F913506C
:10F860007642B5420DDB5B1C9C42F5DC0020137D2B
:10F8700027E000BFB2F8B35131F910406D42AC42FD
:10F880001EDA012070BD00003C0210006004100070
:10F89000B4041000B2400120EE4001208D0410009D
:10F8A0008C491000C22D0120C8491000FE2D0120F6
:10F8B000204701205C4701203E2E01207A2E0120A6
:10F8C000401C8342D6DC0020DCE7F0B5FF4A002371
:10F8D0001D4612681C46567D08E000BF30F91470C2
:10F8E000B2F8BBC1674500DD5B1C641CA642F5DCB9
:10F8F0000020147D08E000BF31F91060B2F8BB7140
:10F90000BE4200DD6D1C401C8442F5DC2B4301D05F
:10F910000120F0BD0020F0BD2DE9F047EB4B0024A5
:10F9200092461B68A146224625465E7D04E000BF44
:10F9300030F915706D1C3C44AE42F9DC00201D7D91
:10F9400004E000BF31F91060401C34448542F9DC0A
:10F95000DF481425016991FBF5F605FB1617DD4E0E
:10F9600046F8274000240F1B07F1140898FBF5FC0C
:10F9700005FB1C8C1E3797FBF5F805FB187756F82E
:10F980002CC056F82770641CACEB07073A440A2CCD
:10F99000E9DB0024BAF1000F20D1D3F8B55195422C
:10F9A00002DA0125057002E00578012D16D193F8E1
:10F9B000BA518669B5420FDD4569551B00D56D42C8
:10F9C00093F8B9319D4204DC846104704FF0010961
:10F9D00004E0761C866101E08461047042611429B0
:10F9E00002DA491C016100E00461484613E62DE992
:10F9F000F34F044685B0B8480026029600784FF0D1
:10FA0000010810B1B54981F80080B5484FF00009F0
:10FA10000178009180F800900320F0F720FEFFF7B6
:10FA2000E7FBB048009BB04902682046FFF7A4F905
:10FA3000A64FA74C386890F82002C00714D0AB49F5
:10FA40000698F3F764FEAA490698F3F786FE38682D
:10FA5000417DA648F4F7CEF805463868017DA448F4
:10FA6000F4F7C8F82844E061386890F8B20140071C
:10FA700004D5A049A048FFF728FF029038689F4DA1
:10FA800040F2014B90F8B201C0070ED099499A4854
:10FA9000FFF7DBFE012808D128684FF4806140EAB7
:10FAA0000B0028600120F0F7E9FC3868BA4690F8AE
:10FAB000B20180070FD58E498C48029AFFF72CFFC0
:10FAC000012808D128684FF4806140EA0B002860C3
:10FAD0000120F0F7D3FC01AA89498348009BFFF776
:10FAE000ABFA07469DF80400F0B3DAF8000090F88E
:10FAF0004000800710D58348B0F900208248B0F953
:10FB000000108248B0F90000F3F733FD764A03B2E3
:10FB10007B491046FFF7B5F87D4F794A724839683E
:10FB2000F4F797FA0320F0F7B5FDDAF8000090F843
:10FB30004000400703D539680846FFF7CBFCDAF8E8
:10FB4000000090F84000000703D539680846FFF729
:10FB500027FDDAF8000090F84000C00603D53968A8
:10FB60000846FFF7E7FC00E011E0DAF8000090F843
:10FB70002012C90702D06749097819B190F81F040B
:10FB8000C00722D00698FFF7ABFD70B123E0032039
:10FB9000F0F780FD012F17D12868E168084328603D
:10FBA0005D48016841F4007108E0286840F21541A1
:10FBB000084328605848016841F4005101604FF43F
:10FBC00080610120F0F75AFC1AE2544981F8009054
:10FBD000534981F80090DAF8000090F82012CA0723
:10FBE00005D1890703D490F84014890708D5007D12
:10FBF0004C493A6801EB400102EB4000F4F775F81C
:10FC0000DFF8C8A0BB463968DAF80000B0F928224E
:10FC1000069801F01AF8DAF80000DFF80CA190F865
:10FC2000F1270A2A0AD10A23AAF800303C4B1F7890
:10FC30003A4B1B7847EA4303AAF802303749097860
:10FC4000012923D084F8029090F81F14C9070DD021
:10FC5000B0F92704354F0090264A3B7826493248B0
:10FC6000FEF7ABFC01286ED087F80090174F38687C
:10FC700090F86010490708D5DBF80010B0F968204B
:10FC80000846FFF709FC01287ED072E1B0F9421264
:10FC90000091B0F94E120D4B4F460291ADF80C9009
:10FCA0000A2A04D1BAF80420521CAAF80420007DC4
:10FCB000DBF800200AEB40019946554602EB400074
:10FCC000F4F713F816480078012831E03C021000E0
:10FCD00060041000FC5010006C0210005D02100067
:10FCE00052021000B4041000D8CF0120B24001200D
:10FCF000EE4001207A2E01203E2E01204402100009
:10FD000056000120C8041000C4041000C6041000EE
:10FD10007002100068021000480210006602100015
:10FD2000650210009C47012058D70120670210008F
:10FD30000AD0E0780128D9F800000DD090F8F1073A
:10FD40000A2843D048E0D9E0E770D9F8000090F8DD
:10FD5000F1070A283BD03CE0B0F94A12DD48FFF732
:10FD600021FB8346D9F80000DB4B427DB0F94C12F1
:10FD7000DA4800F0F4F98246D9F80000D84B027D49
:10FD8000B0F94C12D74800E0D5E000F0E8F9BAF13C
:10FD9000010F0DD101280BD1BBF1010F08D1D9F80A
:10FDA000001091F82012890602D584F8038000E043
:10FDB000E770D9F8001091F8F1170A2909D14FEA34
:10FDC0008B0242EA4A010143E98000E0EF80E078DB
:10FDD0002881E078012820D0D9F8000090F820028E
:10FDE000C00605D503AABF49BC4801F072F80090CF
:10FDF000D9F80000B84B0099427DB84800F0AFF93F
:10FE00008246D9F80000B64B0099027DB54800F053
:10FE1000A6F9BAF1010F34D035E0AE480299FFF7E8
:10FE2000C1FA012829D0A770AF4AAA490298FFF762
:10FE3000CCFAE080D9F800004F46017DA94800F0D7
:10FE4000EBF9A84931F81000E8843868417DA348EF
:10FE500000F0E2F9A14931F8100028853868417DA9
:10FE6000007D414305EB400000F0D6F93968097D7B
:10FE7000084435F81000688534E084F802800326D1
:10FE8000D2E7012807D0A770D9F8000090F8F11741
:10FE9000062904D01BE084F802800326F4E7007DE5
:10FEA0004F4642008F498B48F3F7FBFE00208B4AF8
:10FEB000396809E00B7D00F1010C32F8107003FB8A
:10FEC0000CF3401C25F813704B7D8342F2DCD9F80B
:10FED000000090F8F107052804D1BDF80C00288037
:10FEE00000986880032E01D084F80380D9F80000C0
:10FEF00090F8F1070A2800D16E8181E07B487C4BA5
:10FF000000990068427D754800F029F90290774811
:10FF1000784B00990068027D724800F020F9029940
:10FF200001297FF4A3AE0128FBD187F800800420CB
:10FF300007B0BDE8F08F386890F86010890618D5D2
:10FF4000296841F005026C492A600B6843F480631C
:10FF50000B6090F82012C90703D190F81F04C00766
:10FF600002D042F0220028604FF480610120F0F7B7
:10FF700085FA624800780228386818D0007DDBF8DE
:10FF800000200AEB400102EB4000F3F7AEFE5C48B4
:10FF9000B0F900104F48FFF705FA5A4DDFF868A195
:10FFA000DFF868B12978E9B101283BD01CE090F86E
:10FFB00040104906EBD58DF808908DF80990017D29
:10FFC000491E8DF80A10417DCDF800A0491E8DF81C
:10FFD0000B10B0F95A204E4902A8DBF80030FDF7AB
:10FFE000B7F9D4E701280DD04A4985F8009081F887
:10FFF000009049498AF80090087808B1401E0870BE
:020000021000EC
:10000000304695E74548B0F900103248FFF7CAF985
:100010002870ABF80090386890F82901000701D5E6
:10002000FBF72BF98AF80080386801262E4AB0F9D0
:100030003E072849FFF7C9F9E080BBF8002082425B
:10004000DED2ABF80000DBE770B505460320F0F721
:1000500006FB3448324C3449026823782846FEF7C0
:100060008BFE224D00202070286890F840108907F0
:1000700006D52D4AB0F962302C491046FEF701FE34
:100080002B4C2A4A28482168F3F7E3FF286890F8A8
:100090004000400703D521680846FFF71BFA28688F
:1000A00090F84000000703D521680846FFF778FA6A
:1000B000286890F84000C00603D521680846FFF77D
:1000C00039FA04492068F3F710FEBDE870400320B8
:1000D000F0F7E0BA58D70120980210003E2E012018
:1000E000940210007A2E0120680410003C021000D7
:1000F000A4021000A00210004802100068021000C4
:10010000DA0410005B0210005A02100050021000C6
:10011000A25A01005C02100055021000C404100035
:1001200052021000B4041000D8CF01205600012064
:1001300070021000FE480121FE4A4170002111703A
:10014000FD4A117005224281828141718171C17124
:100150000172C17001714172C181817070472DE9D6
:10016000F0438146002005460646044601271860F4
:1001700012E000BF39F914C0BCEB010807D41D68B8
:1001800007FA04FC45EA0C051D60012503E01CEBA1
:10019000010C00D50126641C9442EBDB012E08D132
:1001A000E649096891F82012490702D50220BDE806
:1001B000F083012DFBD10120F9E7E04A10B5126868
:1001C000537D127D5B1C534307E000BF30F91240A2
:1001D0008C4201DA012010BD521C9A42F6DB00204D
:1001E00010BD30B5D54DD64B2868427DB0F92612EA
:1001F000D448FFF7B4FF04462868D34B027DB0F91A
:100200002612D248FFF7ABFF012C03D0012801D002
:10021000002030BD012030BD30B50446B0F90030BB
:100220000020012207E000BF34F912509D4201DD99
:100230002B461046521C8A42F6DB30BD2DE9FC5F8E
:10024000894630F912101D468346BC4B02F101006D
:10025000002701FB00F400910191BC46DDF830A0BD
:100260004FF00100D3F800E031E0161A11D487B93D
:100270003BF91630BEF85E81434509DBDDF80080AE
:10028000434505DC761C03FB06441944009300E05B
:10029000012716184E4514DABCF1000F11D13BF9B5
:1002A0001630BEF85E81434509DBDDF80480434526
:1002B00005DC761C03FB06441944019301E04FF072
:1002C000010C012F05D0BCF1010F02D0401C50459C
:1002D000CBDDA9F1010001FB00F2601A80FB0501F2
:1002E000D31705F07DF9002800DA0020691E884246
:1002F00000DD084600B2BDE8FC9F70B58F4A03469A
:100300000020126892F81962D48A158B9E4204DA92
:1003100092F81A62A41B9C4200DC012092F81B3266
:100320008B4204DA92F81C22AA1A8A4200DC0120CD
:1003300070BD37B51446DDE90001FFF7DEFF002888
:100340000DD101A96846F3F794FD009860800198EB
:10035000208002206083A083204603F04CF83EBD3D
:100360002DE9F047DFF8D49105468A46D9F8000018
:1003700000271446B0F9461290F821023E464FF08D
:10038000010C000710D551462846FFF745FFD9F864
:10039000001000B235F91000B1F8461248434FF48E
:1003A0007A7190FBF1F001B2002080464FF4FA43DD
:1003B00004EB4002401CA2F8048013820428F7DBFF
:1003C00001202076002031E0BCF1010F32D004EB97
:1003D000460235F91080138A434504DD35F81030A4
:1003E0001382A3191873128A35F910300A44934204
:1003F0001BDD7F1CFFB24FF0010C032F00D9032738
:10040000227E04EB4703521C227635F91020B3F804
:100410000480424509DDD9F80080B8F85E81424584
:1004200003DD35F810209A80E055401C5045CBDBA9
:10043000BDE8F08704EB470235F91030B2F80480CC
:10044000434509DDD9F80080B8F84282434503DD11
:1004500035F810309380E055928835F91030521AF3
:100460009342E2DA761CF6B24FF0000C032E00D96C
:10047000032604EB4602B2F810809845D5DD35F826
:1004800010301382A2191073CFE72DE9FF4F93B0FC
:100490002A4D00200D902868144690F82112CA07B2
:1004A000017D7DD0002083460B902E46284A14986B
:1004B000FFF756FF3068264A417D1A3A1398FFF736
:1004C0004FFF2348A0F11A0190F800A00F7843785D
:1004D000039330684A78BE46067D07F1010702F1B2
:1004E000010C07FB06A10E970CFB06A507FB0637C0
:1004F0000CFB063C34F9111034F9155034F917701F
:1005000034F91CC0CDF848C090F821C25FEA4C7C99
:1005100072D590F8F1C7BCF1060F44D1DFF810C0D6
:10052000BCF80E809CF809C0CDF810C012E00000A5
:100530008C04100066021000650210003C021000DE
:10054000980210003E2E0120940210007A2E012005
:10055000665110000CF1030CDFF8089406FB0CF652
:1005600009EB4606CDF808C0A6F80280FE4EDDF87D
:1005700008C096F81880067D06FB0CF609EB4606C7
:10058000A6F80A80F84EDDF810C01A360CF1040CFB
:1005900096F81880067D06FB0CF609EB460600E08F
:1005A00064E2A6F80A80F04E96F818C0EF4ECDF837
:1005B00010C096F805800026C4451ED0DFF8AC9325
:1005C000E04699F807C0CDF818C0E0450FD199F87A
:1005D00003C00CF1010C0CF0FF0C89F803C0BCF156
:1005E000030F0ED3DDF8188089F8058009E089F83B
:1005F000078089F8036004E03CE0DFF870C38CF802
:100600000360DFF864C3DFF864830CF11A0C9CF814
:10061000189098F80680DFF854C3C1451AD09CF8AA
:1006200008C0CDF830C0E14510D1D04E96F804C0D6
:100630000CF1010C0CF0FF0C86F804C0BCF1030FA8
:100640000AD3DDF830C086F806C005E0DFF81CC329
:100650008CF808908CF80460C44EDDF810C096F851
:100660000580C44502D1B679B14511D0012017B03B
:10067000BDE8F08FBC4E96F818C0BC4E86F805C099
:10068000DFF8E4C20CF11A0C9CF818C086F806C01A
:10069000B64EDFF8D48296F805C088F818C0CDF8B9
:1006A00010C0B67908F11A0CB1468CF8186090F8B1
:1006B0002162B60750D590F8F167062E41D1AB4EB6
:1006C00090F81480DDF810C0767A0C96F61C08FBC2
:1006D00006F80696A34E06EB4806A6F804C090F866
:1006E0001480069E08FB06F89E4E06EB4806A6F808
:1006F00006E090F814C0069E0CFB06FC994E06EB33
:100700004C0632810C9E90F81480361D08FB06F8CA
:100710000696944E06EB4806A6F8049090F81480CE
:10072000069E08FB06F88F4E06EB4806A6F806A0C4
:1007300090F814C0069E0CFB06FC8A4E06EB4C0695
:100740003381DDF81080DFF820C20126B8F1010FF7
:1007500003D0B8F1020F18D073E0834D1A35B9F108
:10076000020F6ED1A3EB0A0CBCF1040F69DD01EBA3
:10077000D17CB7EB6C0F01DA2E7662E007EBD7770E
:10078000B1EB670F5DDA2E7641E0B9F1010F03D0CE
:10079000B9F1020F16D054E0A2EB0E07042F50DD82
:1007A00001EBD177B5EB670F02DA8CF8186048E0FF
:1007B00005EBD575B1EB650F43DA8CF818608CF852
:1007C00000203EE0E046A2EB0E0CBCF1040F04DC7E
:1007D000A3EB0A0CBCF1040F33DDB94219DD129D05
:1007E00001EBD177B5EB670F05DA5F4988F8186040
:1007F0001A310E7625E005EBD575B1EB650F20DAE1
:10080000594D88F818601A352E7688F800202B701C
:1008100017E005EBD571B7EB610F07DA524D88F899
:1008200018601A352E7688F800200AE007EBD77199
:10083000B5EB610F05DA4C4988F818601A310E766D
:100840000B7090F8F117DFF8289106294BD1474932
:1008500090F814C0434D4E7ACF89711C0CFB01FCFB
:1008600005EB4C0CACF8027090F814C03E4F0CFB3A
:1008700001FC05EB4C0C97F81880ACF8048090F85C
:1008800014C097F800800CFB01FC05EB4C0CACF895
:10089000068090F814C00CFB01FC05EB4C0CACF886
:1008A0000820027D7F7B4A4305EB42012E4A4F819F
:1008B0001A32077DB11C4F4305EB470692F818C06A
:1008C000A6F804C0067D17784E4305EB4606F78070
:1008D000067D4E4305EB46063381537B027D4A433A
:1008E00005EB42014B8190F84412C84601F00F011C
:1008F0000091DFF87490C38A09F11A09017D4E4610
:1009000099F800201498FFF799FC0746D8F80000E2
:1009100090F8441201F00F0100911349038B0A78FB
:10092000417D1398FFF78AFC0546307E01280ED9D9
:10093000D8F8000090F8441201F00F010091C38A2A
:10094000017D99F801201498FFF778FC0B90064878
:10095000007E012817D9D8F8000090F8441201F061
:100960000F0107E058D701204C5110008C041000F3
:100970003C0210000091FB49038B4A78417D13989B
:10098000FFF75CFC8346D8F8001091F8F1070628C1
:100990001CD1F5480E7DF54B427A501C464303EBC3
:1009A0004606921CB58191F814C00CFB00FC03EBC9
:1009B0004C00A0F80EB0087D504303EB4000878147
:1009C0000E7D0B98564303EB4602D081E548007E2E
:1009D000012802D0022807D00CE099F8180002285C
:1009E00008D12946169A37E099F81800012805D051
:1009F00002280BD0169A294638461CE0294638466C
:100A0000169AFFF796FC5946169AF5E7087D0E9A56
:100A100002FB00A134F91130039902FB0010169A71
:100A200034F91000834216DD29463846FFF781FC71
:100A3000169A59460B98FFF77CFCCB4807618561F5
:100A40000B99C0F81CB04161D8F8001091F8F1176B
:100A5000062907D03CE059463846FFF76AFC29468C
:100A6000169AE7E7C189491CC18131E01498FFF764
:100A7000D3FB06462868417D1398FFF7CDFB04465B
:100A80002868324690F8441201F00F010091C38AA1
:100A9000017D1498FFF7D2FB07462868224690F89C
:100AA000441201F00F010091038B417D1398FFF771
:100AB000C5FB0146286890F8F1070A2804D1AB4825
:100AC000C6810482478281823846169AFFF731FC3C
:100AD0000D98CCE570B550780124049E0CE0B6F971
:100AE00032500021854203D196F8345004FA05F1C2
:100AF00043F82010401CC0B2D1788142EFD270BDC3
:100B00002DE9F04F9A48DFF86C92FBB000689A4AE2
:100B100000F58861C9F8000011604FF0000810ABC3
:100B20005FAA0121CDF84080FBF7C9FA934E074632
:100B30008E4C306890F8F1070A2800D1A781012572
:100B400042E05FA830F8151041453CD902200D94D1
:100B50008DF820000520ADF8120041F658300590C0
:100B60000720ADF810007AA902A8CDE9000110A86D
:100B700000EB85000C9483460246E9B278ABD9F8C5
:100B80000000FDF786F88246ADF82800BDF8E201C6
:100B9000ADF83C00BDF8E001ADF83A0002A80090C5
:100BA000E9B23EAB5A46D9F80000FFF793FF02AA1C
:100BB00059463EA8FCF709F8306890F8F107062876
:100BC00001D124F815A06D1CBD42BAD9306890F847
:100BD000F117062915D1007D6949420004EB400058
:100BE000F3F75FF80020674A316807E00B7D451C8A
:100BF00032F810606B43401C24F813604B7D834235
:100C0000F4DC7BB034E530B500248FB00546012B11
:100C100018D002208DF818000520ADF80A0041F622
:100C2000583003900720ADF8080057486B460088FD
:100C3000401CADF820002846FFF727FC04460FB003
:100C4000204630BDFFF75CFFF9E72DE9F74FDFF8ED
:100C50002C810026444CD8F800004C4D934690F867
:100C600020123746C907B24602D04949097859B11E
:100C7000484A85F800A082F800A090F84812A181A7
:100C800090F8490260818EE011460198FEF78AFBD8
:100C90008146CBF1000001B20198FFF78EFA83463E
:100CA000FFF79FFAB9F1010F01D100B9012659EA06
:100CB0000B0100D101270121012E02D0012F15D0F7
:100CC0002CE0B4F90C20002A0ADB521E12B2A281D9
:100CD000002A05DC2970D8F8002092F84822A28169
:100CE000D8F8002092F84922628117E0B4F90A206E
:100CF000002A0EDB521E12B26281002A09DC254B4B
:100D000085F800A083F800A0D8F8002092F84922C6
:100D10006281D8F8002092F84822A28184F800A0CD
:100D2000B9F1010F00D12170BBF1010F03D121787E
:100D300041F002012170012803D1207840F0040025
:100D40002070012E03D1207840F008002070012F80
:100D500003D1207840F010002070287801281BD0A3
:100D6000F8B120E04C5110008C04100058D701203D
:100D700070021000580410005C0410003C021000C7
:100D80007A2E01203E2E0120C404100066021000BD
:100D90006802100065021000207840F0800020708A
:100DA00001E0012E07D06F4981F800A0A07801284A
:100DB00005D040B10DE06B49207B0870F6E728783C
:100DC00038B9082003E02878012802D10720FAF773
:100DD00012FC2878A070BDE8FE8F2DE9F04F9146F7
:100DE000614A864600201568044695F8202292073D
:100DF00038D55E4A1278002A34D14A7891F803C077
:100E00001CE000BF2B7D561C7343594E5EF82280B8
:100E100006EB430A0B784FF0010B8F780BE000BF15
:100E20000BFA03F616EA080F04D03AF91360002E05
:100E300000DA34445B1C9F42F2DA521C9445E1DA3A
:100E40000CB94FF0FF34642209FB02F1624291FBBE
:100E5000F2F1B5F824228A4204DDB5F822224A458F
:100E600000DD012004E4F0B530F911604FF0FF34EB
:100E700025464F1E03D400EB410535F9025C4F1C9B
:100E8000974203DA00EB4100B0F90240681C04F11C
:100E9000010001D030B106E008B1254603E047F675
:100EA000FF7012E02C464FF47A70454395FBF6F044
:100EB00005B24FF47A70444394FBF6F004B2601923
:100EC000C0F5FA604FF47A7600B2311929441960FE
:100ED000F0BD2DE9F74FDFF890C0834682B0DCF813
:100EE00000009246B0F93A62B0F93C42B0F93E5285
:100EF000B0F94072417D5846FFF78EF90FFA80F83D
:100F0000DCF80000017D0398FFF786F90FFA80F9FD
:100F1000DCF800006B464146427D5846FFF7A3FFD0
:100F20008046DCF8000001AB4946027D0398FFF7DC
:100F30009AFF4146404500DD0846AAF80000B84245
:100F400002DD304605B08DE7A84201DA2046F9E718
:100F5000401BA11B4843791B90FBF1F0201A00B203
:100F6000F0E700009C0210003C0210006802100034
:100F70009C470120FD48FE4A006830F8E81F1180B8
:100F8000FC498079C8807047FA480021F74A4180BF
:100F90008180C160126892F8432012098260016169
:100FA0000170F548017070472DE9F041EF4DF04AAE
:100FB0002F6897F8D0C0B7F8E8605FEACC714AD0E4
:100FC00097F8ED3003B90123118897F8ECE0A1EB15
:100FD000060404FB0EF494FBF3F3B7F8EA405FEA6F
:100FE000CC6C01EB040E734400D52346E14C9842CF
:100FF00011DD002610210120E660EFF73FFA286896
:1010000090F86010490602D5DC4A01211170A680D3
:1010100090F8EE0006E0814202D9D74B1B7823B14D
:1010200097F8EE00E080BDE8F081D54B1B78002BEF
:10103000F9D1B4F90630002B01DD5B1EE380E388B3
:10104000002BF0D1891E814200DA01468E4200DD7C
:1010500031461180E7E71680E5E7F0B5C349C54D95
:10106000096891F84020D20753D0C34A1778C54A7F
:101070001278AFB1012A09D091F84330B1F84A6033
:1010800003F00F021C09B1F8483015E091F84D301B
:10109000B1F8546003F00F021C09B1F852300BE0B4
:1010A000012A1AD011F8423F03F00F024FEA13143D
:1010B0004B888E88A1F1420191F820C15FEACC7C77
:1010C00016D0DFF8C4C2BCF800C05FEA4C5C0FD594
:1010D00091F8251157B10A090AE011F84C3F03F0C5
:1010E0000F021C094B888E884C39E5E701F00F028E
:1010F000984201DCAA60F0BDB04201DBAC60F0BDFB
:10110000C01AA11A4843F11A90FBF1F01044A860EC
:10111000F0BD0020FBE7954A10B512680021B2F837
:10112000B830834205D292F8B0301B0701D50321B5
:1011300012E0B2F8B630834205D292F8B0305B07C5
:1011400001D5022108E0B2F8B430834204D292F80B
:10115000B000800700D501218648874C037899426A
:1011600011D1217899420AD0854A1278134307D0C9
:101170000169491E0161002901DC0078207010BD61
:1011800001700169F7E759B1022901D1012B07D09C
:1011900092F8B22002610170002AF0DC217010BDCB
:1011A00092F8B320F6E77149096891F8B010CA06C1
:1011B00070490DD58A88831A002B09DC704B1B7887
:1011C0004BB1C2EB0212520002EB4000C0F34F10D1
:1011D000888080B27047C2EB82121044C0F38F1037
:1011E000F6E72DE9F043614E0546A3B0376880214C
:1011F00097F8B10000F00F04641C02A804F083FA11
:1012000097F85F04C00714D0002710E03168087D0C
:10121000B1F96234CDE9003000FB07F2B1F9603476
:1012200005EB420002462946F2F789FE7F1CA742E1
:10123000ECDB30680023814602A9007D11E000BF8D
:1012400000FB03F6002209E006EB020C51F82270C5
:1012500035F91CC0674441F82270521C9042F3DCFF
:101260005B1CA342ECDB002207E000BF51F82230F8
:1012700093FBF4F341F82230521C9042F6DC00223A
:1012800013462AE000273E460DE000BF06FB003C67
:1012900051F8238035F91CC0BCEB080C01D5CCF10A
:1012A000000C6744761CA642F0DB97FBF4F699F835
:1012B0002071FF070DD0344F3F887F0509D599F87D
:1012C00024714FEA171C0CFB06FC07F00F069CFB71
:1012D000F6F6964200DD32465B1C9842D2DCB2F54F
:1012E000803F04DB4FF6FF7023B0BDE8F08390B27F
:1012F000FAE710B5FFF775FFFFF755FF1D4C4FF0EC
:101300000051020A60804A738873FFF704FF608807
:10131000FFF7A3FE6088BDE8104045E6F0B4134A2D
:10132000116891F8B130097D03F00F04114B641C72
:10133000DD6895FBF4F604FB16556943134D05EB88
:101340004105002105E000BF30F8116025F811606B
:10135000491C1668367D8E42F6DCD868401CD86081
:10136000A04215DBF0BC0948C3E700003C021000B6
:10137000FC241000AC04100068021000B802100039
:101380005B0210005D0210008C021000D8CB01201F
:10139000F0BC704731B56846FCF765FEFC4C207820
:1013A000022805D19DF80000012801D102F0A5F81E
:1013B0009DF80000207038BD10B5FDF7EDF8BDE8D0
:1013C000104001F0C5BF10B5FDF71AFCFAF792FD09
:1013D00001F0A6FFFEF7AEFEBDE81040FFF7D4BD5A
:1013E000EB4910B500204861FFF7EDFFE9480068C0
:1013F00090F8E801002803D0BDE81040FAF772BA6F
:1014000010BD2DE9F84F4FF00057387C797A8842AB
:1014100001D101203874387C4FF0AA09012805D188
:10142000DD49DE48F2F761FC87F81090387CDA4C31
:10143000D84ED74D022815D12146D948F2F755FC90
:10144000306890F8F10758B9A888208068896080D2
:10145000E888A080A889E08028892081E8896081C7
:1014600087F810904FF00050007C032847D1306877
:1014700047F6FF784FF0000E477D017D7F1C4F43FC
:1014800004EB47006FEA080BC246734672460090B1
:101490001DE0C34830F811C0009830F81100ACEBE3
:1014A000000000B224F81100404500DA804658459B
:1014B00000DD83460344002800DA404200B2504574
:1014C00000DA8246704500DD86460244491CB94276
:1014D000DFDBA4F80080A4F802B01814A080E38039
:1014E000A4F808A0A4F80AE01014A081E281AC4896
:1014F0000099F2F7FAFB4FF0005181F810904FF08D
:10150000005B9BF81000042836D130680027BA46EB
:1015100090F815C00121DFF88882007D10E00022DC
:101520000AE000BF01FB002338F913309F4201DAC3
:101530001F468A46521C12B29042F3DC491C09B283
:101540008C45ECDA00FB0AF1B5F910304200584343
:1015500008EB410104EB4000F2F7A3FBB5F91000E2
:10156000202801DA24F810702080401C00B2288264
:101570003C2801DB012028829BF810005F460528EB
:1015800013D13168487D097D401C484301EB800040
:10159000420084498048F2F784FB83480078A080A9
:1015A00082480078E08087F81090387CFF2806D1C8
:1015B0004FF4F051784804F084F887F81090387CA4
:1015C000FE2814D10020764A316808E034F910C0B2
:1015D00032F910309C4501DA24F81030401C4B7D64
:1015E00091F814C05B1C03FB0CF38342EEDC387CE7
:1015F000FD2804D100206870A870FC203874387C65
:10160000FC2830D1DFF8A88198F80000C00702D08C
:101610000120687002E06878012824D13168487D93
:10162000097D401C4843A9784200414304EB410432
:101630005B492046F2F735FBB8F80000E087A88840
:1016400060866889A086E888E086A889208728893E
:101650006087E889A087A878401CC0B2A8700428D9
:1016600001D187F81090BDE8F88F10B50024FEF77F
:10167000BEF9012805D0032806D0042821D030B3B4
:101680000EE0FFF787FE09E04A484B4A4B490378D2
:101690004B48FFF7B8FA10F0FF0F01D101F068FED8
:1016A00048480124007850B1474901200870394862
:1016B000006890F8F002C00701D0F8F703FB20465D
:1016C00010BD3D4A3D493E48FDF7E3F8E6E7FFF728
:1016D00073FEF4E72F4910B50C6804F2223414F8B5
:1016E000013C2178A2886488A04201D9184610BD27
:1016F000904201D2084610BD801A5B1A5843A21AC4
:10170000B0FBF2F0084410BD2DE9F34F8B462149A0
:10171000002583B0086840F6FF762C46037D477DA0
:101720001A467F1C57431FFA87FC284F3F78042F27
:101730007ED18A4690F86010C9066DD51946DFF84B
:10174000909006E039F91170B74200DA3E46491C24
:1017500089B26145F6D3B0F85E10B14268DC194633
:1017600058E000BF039E39F8117036F81160BE1BB7
:1017700090F85C7036B2642F2CD9C7F16408B1FBC5
:10178000F3F703FB171707FB08F797FBF2F72CE0BB
:10179000C00410003C0210001C4F0120640B10001C
:1017A00058D70120C0A9012005041000080410002A
:1017B000D0021000630410009C4701207A2E012003
:1017C0003E2E012059021000AA021000AC021000A7
:1017D00056000120B1FBF3F803FB1818643F08FB27
:1017E00007F898FBF2F8A7EB08076437002E04DD32
:1017F0007E43642796FBF7F636B2B0F8FC76B74224
:1018000004DBB0F8FA767F42B74201DD012503E040
:10181000491C89B26145A5D390F86100DFF81084B6
:101820005646000725D5D8F80000FFF753FF00E023
:101830002FE00446BBF1010F10D1FE4F20201F23E3
:101840003978CDE900013068FB49027D0398F8F74B
:10185000A2F83878012801D1002038704DB93068DD
:101860002346F54990F820230398FDF7F5FA00B9CF
:101870001025306890F8F10701280AD1EF480121BE
:101880000180D8F800100A14428081802114C180A0
:10189000048105B02846BDE8F08F2DE9F047E848FF
:1018A0000026E84F02683146507D127D401C00FB47
:1018B00002F8387840B3DFF890A300244FF0010914
:1018C000387809FA04F5054215D0E0480078A042BE
:1018D00000D10121DE4A04FB08F002EB4000FFF7D3
:1018E00013FFA0B1A04030439AF80010C6B2A9433C
:1018F0008AF800100021641C042CE1D39AF800003F
:1019000000B10026002038703046BDE8F0879AF814
:1019100000100D438AF80050ECE72DE9F05FC84A4B
:1019200006460125002710688B0403D590F8F93688
:1019300003F00F05C90409D590F8F9160D09C5493A
:10194000097809B9C4490D78C0490F78447D007DF4
:10195000641C4443DFF8F8B29246012D44D9BA4AD8
:101960004FF0000948464FF00108117809E000BF28
:1019700008FA00F30B4203D009F1010303F0FF0959
:10198000401CA842F4D3C80705D06200B0493046D5
:10199000F2F787F903E06100304603F092FEDAF8CF
:1019A00000004246DFF8A0E2007D1BE0012110E0CC
:1019B0009EF800C002FA01F313EA0C0F08D001FBF5
:1019C000040836F810303BF818C0634426F810308D
:1019D000491CA942ECD336F9103093FBF9F126F8F3
:1019E0001010401CA042E1D3DAF8000067430BEB73
:1019F0004701007D42003046F2F753F90120BDE86F
:101A0000F09F2DE9F041954F00263546388810F4B7
:101A1000405F07D0FFF741FF044691483968FFF760
:101A20007CFF04E001218E48FFF76EFE044654B1AE
:101A30008C490120054608708B4900220870214618
:101A4000FD20F9F7F0FC89487D4C0178012914D17B
:101A5000216891F8601049060FD58549854A498863
:101A60001288914202D10021017006E001254FF653
:101A7000FF722946FC20F9F7D6FC206890F8B000E8
:101A8000C00702D07648FFF749FC25B97A49744867
:101A9000FFF7EBFD0646FFF7B4FC3046BDE8F081EA
:101AA00070B56E4E75480024356805421BD07448E9
:101AB000406905400620EEF7D2FDA80703D571481E
:101AC000FAF736F80446E80702D0FFF79AFF044316
:101AD0003068002802DA2046FAF7CBF9BDE87040FA
:101AE0000620EEF7D7BD70BD10B5674864490068A1
:101AF0004C6944400ED04861A00701D5F9F7F2FEC9
:101B0000E00701D0FFF75FFC600603D5BDE8104099
:101B1000FDF760B810BD70B55048002405785848EE
:101B2000007D05400620EEF79AFDE8072AD04448DC
:101B3000006890F81001000724D5544D2878C0079C
:101B400005D04748FEF780FA02F008FD04462878E1
:101B500001070AD5C00702D14148FEF775FA374898
:101B600003F038F8012800D10124494800780728FB
:101B700008D1012C06D147490020087040210220DD
:101B8000EEF77CFCBDE870400620EEF783BD3C4CD0
:101B900008B50025E570FFF7EDF9E07878B3012886
:101BA000FBD16B46002240F285210320EEF7B6FC04
:101BB0000098C00706D001210320EEF78EFCE570E7
:101BC000FFF70EFC0098400705D504210320EEF72F
:101BD00084FCFFF765FF0098800506D54FF400717F
:101BE0000320EEF77AFCFFF796FF00980006D4D5A5
:101BF00080210320EEF771FCFFF776FFCDE7FFE7CA
:101C000003210020F1F71FFE6B4600220221032072
