:100000005555AAAA850300000209092014000A0018
:100010008AF1000000000000000000004748B6C35D
:1000200000021000E1070000890200009F020000AA
:10003000B5020000CB020000E10200000000000059
:10004000000000000000000000000000292A00005D
:100050002D2A000000000000F70200002F2A0000F7
:10006000312A000057280000E12A00008F280000F4
:10007000492A00007D2A00008B2A0000992A0000EE
:10008000AB2A0000AD2A0000AF2A0000CD2A0000F4
:10009000CF2A0000E32A000000000000000000005A
:1000A000E52A0000E72A0000000000000000000030
:1000B00000000000E92A0000EB2A0000A52800004B
:1000C000ED2A0000FB2A000009030000132B0000AA
:1000D000152B0000000000000000000000000000E0
:1000E0008503000000F002F800F05AF80AA090E83A
:1000F000000C82448344AAF10107DA4501D100F0E3
:100100004FF8AFF2090EBAE80F0013F0010F18BF55
:10011000FB1A43F001031847903E0100B03E010076
:100120000A444FF0000C10F8013B13F0070408BF1D
:1001300010F8014B1D1108BF10F8015B641E05D0BB
:1001400010F8016B641E01F8016BF9D113F0080F70
:100150001EBF10F8014BAD1C0C1B09D16D1E58BF02
:1001600001F801CBFAD505E014F8016B01F8016B39
:100170006D1EF9D59142D6D37047000000230024AC
:1001800000250026103A28BF78C1FBD8520728BFA7
:1001900030C148BF0B6070471FB51FBD10B510BD03
:1001A000DFF80CD0FFF7F8FF02F0DCFD13F056FC8F
:1001B0000002100003B4FFF7F1FF03BC13F056FC7C
:1001C0000A484FF0FF0101704FF0000080F31188E2
:1001D0004FF0000080F3098805484FF002010170DC
:1001E00062B604484FF080510160704722ED00E094
:1001F0000002100004ED00E002484FF08051016061
:100200007047000004ED00E04FF0200080F31188FB
:10021000EFF3098098B112480068124909688842D2
:1002200017D0EFF309800E49096820E9F00F8860C4
:1002300000B50B48006800F0F2F85DF804EB0848E0
:1002400008490A68026000688168B1E8F00F81F32C
:1002500009884EF0040E4FF0000080F311887047BB
:100260000402100008021000EFF311804FF020018B
:1002700081F31188704700004FF0000080F311886F
:100280007047000062B6704772B6704740BA704758
:10029000C0BA7047401E0028FCDC704700BE7047A3
:1002A00040BA7047C0BA70471EF0040F0CBFEFF39E
:1002B0000880EFF309804FF0010102F021BB1EF02E
:1002C000040F0CBFEFF30880EFF309804FF0020139
:1002D00002F016BB1EF0040F0CBFEFF30880EFF323
:1002E00009804FF0030102F00BBB1EF0040F0CBF9E
:1002F000EFF30880EFF309804FF0040102F000BB38
:100300001EF0040F0CBFEFF30880EFF309804FF0ED
:10031000050102F0F5BA4FF0000000B503F025FA30
:100320005DF804EBFFF770BF1EF0040F0CBFEFF396
:100330000880EFF309804FF0000102F0E1BA0000FD
:10034000194910B5012008701849002008601849A3
:100350000860184908601849086000F0A7F900F023
:1003600039F900F063F8002010BD10B5114800F015
:1003700018F90F4908600D490968884207D00A48F2
:100380000078022803D1BDE81040FFF735BF10BD4B
:1003900010B5FFF7EAFF044902200870FFF710FFCD
:1003A0004FF0FF3010BD00000002100004021000EA
:1003B000080210000C0210001002100070B50D466B
:1003C0000446C1698068CC2213F04BFAE169A06849
:1003D000084440384FF08071C163216A8163002175
:1003E00041630163C1628162C0E908514FF00B3182
:1003F000C1614FF00A3181614FF0093141614FF025
:10040000083101614FF00731C1604FF00631816062
:100410004FF0053141604FF00431016070BD8269D9
:100420008168914201D802F04CBD704710B54FF47D
:10043000B471464813F03FFA002010BD70B5054670
:1004400000EBC501414800EB8104FFF70DFF0646B4
:10045000207828B13046FFF70FFF6FF0010070BD24
:100460000320207000206560206204F11C0000F071
:1004700071F83046FFF700FF002070BD2DE9F04114
:100480000F463249002500EBC00001EB80042E46E8
:10049000FFF7EAFE8046206A3843206204F11C0020
:1004A000074600F07EF80CE0216A026C114203D08E
:1004B00000F054F9012600E06D1C2946384600F092
:1004C00066F80028F0D1012E01D1FFF74EFF40461B
:1004D000FFF7D2FE0020BDE8F08170B50D461B4944
:1004E00000EBC00001EB8004FFF7BEFE216AA943C8
:1004F0002162FFF7C1FE002070BD2DE9F0410D46DD
:10050000124900EBC0001E46904601EB8004FFF745
:10051000ABFE07460E4800680564216A294203D1F4
:1005200004F11C0100F02CF93846FFF7A5FEFFF797
:100530009BFE216A29403160B8F1010F02D1216A86
:10054000A9432162FFF798FE0020C4E7C40510000C
:1005500004021000002101600846704730B50A68A7
:1005600012B10B46C46B09E000220860C0E9032108
:100570000BE000BF02F10C03D26812B1D56BA542AB
:10058000F8DC1A68C0E903211860002030BD00685B
:10059000002201E0C068521C8A4201D00028F9D133
:1005A00070470068704702690AB1116831B96FF08D
:1005B0000400704701F10C02C96839B18142F9D1D8
:1005C000C968116000210161084670476FF003009F
:1005D0007047000010B54FF4C871324813F06BF942
:1005E000002010BD2DE9F041884605462D4900EB5D
:1005F0008500174601EBC004FFF736FE064620785B
:1006000030B13046FFF738FE6FF00100BDE8F081F1
:1006100002202070E7611422414604F10800656061
:1006200013F0DAF80020206204F12400FFF792FFB3
:100630003046FFF721FE0020E8E770B5194900EBCE
:10064000800001EBC004FFF70FFE0546D4E9070167
:10065000814205DB144804F12401006800F090F8A1
:10066000206A401C20622846FFF706FE002070BD6D
:1006700070B50C4900EB800001EBC004FFF7F4FDFE
:100680000546206A08B1401E206204F12400FFF7ED
:1006900088FF10B1606A00F011F82846FFF7ECFD02
:1006A000002070BD2C0710000402100010B54FF49C
:1006B0002A71404813F0FFF8002010BD10B5044621
:1006C00090F8380002280BD02046FFF76CFF02207C
:1006D00084F8380038492046FFF740FFFFF745FE11
:1006E000002010BD2DE9F05F8B460646314900EB36
:1006F00006109046DDE90AA911F820201D461AB11E
:100700006FF00100BDE8F09F01EB8004FFF7ACFD46
:10071000074601202070C4E90165C4E90585C4E9E4
:1007200007A91422594604F1240013F055F80020BB
:1007300084F8370084F838006169E0602061C4E91A
:100740000F1020460C99FFF739FEA0602046FFF7F6
:10075000B5FF3846FFF790FD0020D3E710B50446FB
:1007600090F83800022809D02046FFF71CFF02202D
:1007700084F8380010492046FFF7F0FE002010BD35
:1007800070B5044690F838000D4602280BD120467B
:10079000FFF709FF032084F8380029462046FFF7B9
:1007A000DDFEFFF7E2FD002070BD044800684068F0
:1007B00070470000BC0810000C021000040210007A
:1007C000F0B58446002004460C4F14E05CF8246029
:1007D0000323DD0046FA05F280EA026008250028BE
:1007E00002DA87EA400000E040006D1E002DF6DCD2
:1007F0005B1EEED5641C8C42E8DBF0BD1B00008064
:100800001248804712480047FEE7FEE7FEE7FEE792
:10081000FEE7FEE7FEE7FEE7FEE7FEE7FEE7FEE7B0
:10082000FEE7FEE7FEE7FEE7FEE7FEE7FEE7FEE7A0
:10083000FEE7FEE7FEE7FEE7FEE7FEE7FEE7FEE790
:10084000FEE7FEE7FEE7FEE7FEE70000890800009E
:10085000C50000001E4800684FF00051002891F8C4
:10086000210000F01C000DD0042805D0082805D078
:100870000C2805D096200CE011200AE0252008E085
:100880004B2006E0042809D0082809D00C2809D0FC
:100890007020401E01F82C0F087070470C20F8E7FC
:1008A0001B20F6E73720F4E770470A4993200870C9
:1008B000D0E708490B200870CCE70548006818B954
:1008C00004480078932801D0002070470120704729
:1008D000340400222100002070B5042000F058F9F3
:1008E000052000F055F9062000F052F9072000F02D
:1008F0004FF9082000F04CF9182000F049F91920B0
:1009000000F046F91A2000F043F9B34900200860CE
:10091000B14A40321060B04B183B1860AE4B083300
:100920001860AE4CE071AC4B143B1860AA4B0C3312
:1009300018602072A84B103B1860A74B103318604A
:100940006072A54B0C3B1860A34B14331860A07267
:10095000A14B083B1860A04B18331860E0729E4B07
:1009600028331860A0731E1D3060E073331D1860BB
:10097000207401250D60156025700621042000F00B
:100980001FF90621052000F01BF90621084600F09A
:1009900017F90621072000F013F90621082000F0BE
:1009A0000FF90621182000F00BF90621192000F09C
:1009B00007F904211A2000F003F9042000F0F4F8EC
:1009C000052000F0F1F8062000F0EEF8072000F016
:1009D000EBF8082000F0E8F8182000F0E5F81920FE
:1009E00000F0E2F81A2000F0DFF8042000F0C4F86C
:1009F000052000F0C1F8062000F0BEF8072000F046
:100A0000BBF8082000F0B8F8182000F0B5F81A205C
:100A100000F0B2F8FF20E070356070BD00EB8000A0
:100A20006D494000002218390A606C4A521F10704C
:100A30000120086070476849002018390860704735
:100A40006549002014390860704700EB8000624956
:100A50004000002210390A60604AD21E1070012046
:100A6000086070475C49002010390860704700EB4F
:100A700080005949400000220C390A60574A921EF2
:100A80001070012008607047534900200C3908603D
:100A90007047514A10B5283214680123D1065CB161
:100AA0000024146081F8350091F8420091F842402A
:100AB0008442FBD0136010BD81F83500FAE700EBEB
:100AC000C00101EB00106FF0030101EB800010B5D5
:100AD0004349444C0978B0FBF1F0401E80B2FF2836
:100AE0000CD9010A2170494200EB01206070FF20FF
:100AF000FFF7CFFF2078401E207010BD002121702D
:100B00006170BDE81040C0B2C3E7334828300168C7
:100B1000002909D000210160C10691F8420000BF00
:100B200091F842208242FBD0704710B52D4C2178BD
:100B3000607851EA000207D051B1FF20FFF7A9FF0A
:100B40002078401E207010BDBDE8104009F06CBD3B
:100B5000FFF79FFF0020607010BD10B5214C0023EF
:100B6000608830B11920FFF759FF6088401E60800F
:100B700000E00123184610BD00F01F020121914042
:100B800040094FF0E02202EB8000C0F800117047EE
:100B900000F01F020121914040094FF0E02202EBDA
:100BA0008000C0F88011704700F01F0201219140C1
:100BB00040094FF0E02202EB8000C0F8801270473D
:100BC0004907090E002803DA00F00F00064A00E08A
:100BD000064A8154704700001C05002233000020A3
:100BE000930210001402100014ED00E000E400E095
:100BF00049480121016000210160704747480121F7
:100C0000016000210160704710B5002000F06BF812
:100C1000FFF7F4FFFFF7ECFF41490020086041496E
:100C2000A0200870002000F06AF8BDE81040002005
:100C300000F04DB83A4801211C38016000210160E4
:100C4000704710B5002000F04EF8334901200860CD
:100C5000002000F054F8BDE81040002000F037B844
:100C60002D4901201C39086070472F4800782E4913
:100C7000491C0978401A00F03F0070472B49027860
:100C80000A7042784A7082788A70C278CA70027993
:100C90000A7142794A7182798A71C079C871704744
:100CA00023480068417882784FF00050437A0374FB
:100CB000204B1B78437443891B0A83744389C37494
:100CC00001754275C1798175017AC175704700F06F
:100CD0001F020121914040094FF0E02202EB800009
:100CE000C0F80011704700F01F0201219140400937
:100CF0004FF0E02202EB8000C0F88011704700F056
:100D00001F020121914040094FF0E02202EB8000D8
:100D1000C0F88012704700005C840022A00000220E
:100D20007C04002200E400E02004002000020020F7
:100D3000380210008802100010B5092000F054F8A5
:100D40000A2000F051F8092000F05AF80A2000F0BB
:100D500057F80521092000F05FF805210A2000F06E
:100D60005BF833487F2141707C2282700171002141
:100D700000F848192F490A684FF0010192F8C8306D
:100D8000DC070AD09C0708D590F84A40C3F38203D9
:100D900001FA03F39C4380F84A4092F81131DC07D2
:100DA00021D0C3F34203012B03D0234B4FF48064C3
:100DB0001C604830837802F211121478C4F34204A4
:100DC00001FA04F4A343837003791478C4F3420452
:100DD00001FA04F42343037103781278C2F3420248
:100DE00091400B43037010BD00F01F0201219140A0
:100DF00040094FF0E02202EB8000C0F880117047FC
:100E000000F01F020121914040094FF0E02202EB67
:100E10008000C0F8801270474907090E002803DAE5
:100E200000F00F00054A00E0054A815470470000B9
:100E3000480000203802100000E100E014ED00E05E
:100E400000E400E0704710B5044602462A21002065
:100E500000F060F9221D2B21002000F05BF904F165
:100E600008022C21002000F055F92068000E03280C
:100E700025D104F110022D21002000F04BF904F1DE
:100E80000C022E21002000F045F904F118022F2158
:100E9000002000F03FF904F114023021002000F09E
:100EA00039F904F120023121002000F033F904F176
:100EB0001C023221BDE81040002000F02BB910BD0B
:100EC00010B5BE4C072060700020207044F2C000B6
:100ED000608000BF00BF00BF4CF2C000608000BF58
:100EE00000BF00BF4CF2E00060800920FFF7D2F99C
:100EF00044F2E000608000BF00BF00BF4FF48040BC
:100F0000608010BDF0B500252E464FF00054E0275C
:100F100017E000BF883401F03F01607021706780E6
:100F200000BF00BF00BFD4F808C043F825C06680EA
:100F3000883C00BF6D1C521E491C3F2901D9401C32
:100F4000C0B2002AE6DCF0BD2DE9F0479B4D00263B
:100F5000AD1C04462E80DFF868920121C9F880108C
:100F60004FF4C058A5F8008000BF00BF00BF00BF0D
:100F700000BF4FF480572F803520FFF78BF92E806C
:100F8000FFF79EFF00F0DCF85C2000F0EAF8234653
:100F9000012208210020FFF7B5FF231D01220921AE
:100FA0000020FFF7AFFF04F1080301220A2100200F
:100FB000FFF7A8FF04F10C0301220B210020FFF72B
:100FC000A1FF04F1100301220C210020FFF79AFF7A
:100FD00004F1140301220D210020FFF793FF00F01C
:100FE000AFF8FFF76DFF2F8000BF00BF00BF00BF4D
:100FF00000BF00BF00BF00BF00BF00BFA5F800805A
:1010000000BF00BF00BF00BF00BF4FF4406028809A
:10101000C9F88060BDE8F087F0B54FF0000C059C82
:101020000CB14FF0800CC5B200264FF00057644C55
:1010300028E000BF87F889504FEAC05EBEF1000F7C
:1010400001F03F0E4EEA0C0E01DA4EF0400E87F82A
:1010500088E053F826E0C7F88CE04FF0010EC4F8A2
:10106000B0E04FF0000EC4F8B0E0491CC9B240290E
:1010700002D36D1CEDB20021D4F8C0E0BEF1000F28
:10108000FAD1761C9642D5DBF0BD4FF0005282F8C3
:101090008900002309B1802002E0C00503D540206B
:1010A00082F8880001E082F8883045480121C0F8C4
:1010B000AC10C0F8AC3000BFD0F8C0100029FBD194
:1010C0007047F8B50C4605464FF4F47600213046DB
:1010D000FFF7DBFF0020014600902B4622463046FA
:1010E000FFF79AFFF8BDF8B50C4605464FF4F876C1
:1010F00000213046FFF7C9FF00214FF4FC70FFF7D5
:10110000C4FF0020014600902B4622463046FFF7E0
:1011100083FFF8BD294B587041F0800003F888091F
:1011200027480021B4300160012140F8B41900BF04
:10113000D0F8C0100029FBD1D3F8900010607047A0
:1011400010B51E4C4FF48040A41C20800420FFF7F3
:10115000A1F80020208000BF00BF00BF00BF00BF7B
:1011600010BD70B5154C2126A41C268000BF00BF01
:1011700000BF00BF00BF40F02105258000BF00BFB9
:1011800000BF00BF00BF44F22101084320800420BB
:10119000FFF780F8258000BF00BF00BF00BF00BF81
:1011A000268000BF00BF00BF00BF00BF002020801E
:1011B00000BF00BF00BF00BF00BF70BD880000209F
:1011C00000100022F8B5FF4C002635462670E66078
:1011D000266166610120A66100F024FF0C2000F06A
:1011E00021FF032000F01EFF172000F01BFF01204D
:1011F00000F024FF0C2000F021FF032000F01EFF70
:10120000172000F01BFF01F0D1F86A460221EE48DA
:1012100001F019FBED499DF8010008709DF80000F0
:10122000442800D004260521012000F013FF0521E9
:101230000C2000F00FFF0621032000F00BFF062119
:10124000172000F007FF012000F0E0FE032000F06F
:10125000DDFE172000F0DAFEA5706570E5703046FF
:10126000F8BD70B5D74B1889C0F38001C0F34016A4
:10127000C0F300247140C0F3C0226140C0F3803548
:1012800051406940400840EAC130188170BD38B50E
:101290000D46009014460421684601F019FECC4921
:1012A0008978C90602D5062D00D1401C0099216518
:1012B00084F84C0038BD2DE9F047C64D0646C44CB5
:1012C000286890F83404C00718D0608840F0800087
:1012D0006080FFF7C6FF296800F00700084490F817
:1012E000350484F83900FFF7BCFF2968C0F3021009
:1012F000084490F83504800084F838004FF0000A64
:1013000084F845A028684FF002084FF0E90990F8EA
:1013100045176175B049042EC1F30E0706D0032EA0
:101320001FD0022E41D0052E5CD082E0A84A314663
:10133000E06AFFF7ACFF206BA065A4F84670A078C8
:1013400080060028286890F8590703DA20F0060084
:1013500040F0040084F84A0084F84B8084F84890F8
:1013600067E09B4A3146E06AFFF791FF206BA0657A
:10137000974804212C3001F0ABFD974901EB800028
:10138000C0F30E00A4F84600A07880060028286864
:1013900090F8590703DA20F0060040F0040084F8C2
:1013A0004A0084F84B80ED2019E0894A3146E06A12
:1013B000FFF76DFF206BA065A4F84670A07880064B
:1013C0000028286890F8590703DA20F0060040F05A
:1013D000040084F84A00042084F84B00E52084F8D7
:1013E000480026E0A178890623D500F2C9302C34C4
:1013F00001782174C178A1744178A1758078E07575
:1014000001206076724A31462068FFF740FF72483B
:10141000F830C0F30E006083286890F8590720F078
:10142000060040F00200A07784F81F8084F81C902A
:101430002C3C286890F80A17C907A1784FEA8171F7
:101440001CD000291CDB90F80907C0070DD0002133
:10145000012002F0C0FA94F8490020F00300801C3B
:1014600084F84900A4F83AA013E00121084602F0EC
:10147000B2FA94F8490040F0030008E0002904DAC9
:1014800090F86C0720F0030001E090F86C0784F8F6
:101490004900607D20F0040060754A484670BDE850
:1014A000F0474B4801F08CB84A484949006890F829
:1014B000002281F8212090F80122CA754A88D205BD
:1014C00004D490F8022202F00F028A7500F2032081
:1014D000027802F03F020A76B0F801208A83C278CF
:1014E0008A773E4A0079127800F0F00040EA121044
:1014F000C87770472DE9F047354C0546002084F841
:101500004500344FE12084F848003868DFF8CC907B
:101510002C4E90F84517617590F80A175FEAC1786C
:101520002146B1F802C0CB7D0CF0FF024CF0010166
:1015300004D05FEA8C7C01D4012D08D0DFF8A080B4
:10154000072D0BD0062D4DD0082D69D032E0337118
:1015500072710A22E2756180214911E03371727162
:101560006180417D027D4B1C94F85CC003FB02F15D
:10157000BCF1010F02D902FB0CF1594308EB410108
:10158000C1F30E01A4F8461090F8531799F8002003
:1015900001F0F00102F00F021143E17790F85507D6
:1015A00084F821000A4A29465FF00100FFF76FFE28
:1015B0002069A06560884107617D3FD521F0040165
:1015C00042E0000018021000041000208802100001
:1015D000640B100038021000009E0120F6FF01008D
:1015E00000800120427D338B017D521C5A435143C0
:1015F00008EB4101C1F30E01A4F8461090F853170F
:1016000099F8002001F0F00102F00F021143E17798
:1016100090F8550784F82100FE4A2946E068C5E79E
:10162000FD48C0F30E00A4F84600FFF73DFFF94A5D
:101630002946606AFFF72BFEA06ABAE73A6892F87B
:10164000452702F0040211436175C10705D094F8E3
:10165000481041F0020184F8481039684FEA807060
:1016600091F80A27D2071CD000281CDB062D04D0D5
:10167000082D02D0012D09D01EE03A34E07B20F085
:101680000300E073B1F86E07208015E0002101200F
:1016900002F0A1F914F8490F20F00300801C20701B
:1016A0000AE0002804DA91F86C0720F0030001E05A
:1016B00091F86C0784F849007570BDE8F047D5488B
:1016C00000F011BF06280ED008280CD001280AD03F
:1016D000072808D0042805D0032803D0052801D006
:1016E000022801D1E7E505E770472DE9F84FCB4D1A
:1016F0008246012901D10020A871AC79DFF824933A
:1017000004F10104C64EDFF80C83A9F1280713E0A9
:10171000306890F80A07C00706D098F802008007E2
:1017200002D459F8242001E057F824206946504695
:101730009047012805D0641C092CE9D90020BDE898
:10174000F88FAC719DF80000F9E72DE9F0410546EE
:10175000008800283AD060222946AE4801F037FFC1
:10176000FFF723F8AD4C0027AD4EC4E90670306892
:1017700090F80A07C0070AD0A878800707D4A549BF
:10178000088810F0760F02D040F080000880607862
:1017900000281BD101219F48FFF7A7FF050015D0A6
:1017A000A14901200870306890F8101149070FD541
:1017B00090F8430780070BD401F024F80220A070B2
:1017C00001F024F8192001F034F86570BDE8F081CB
:1017D00027702846BDE8F04174E700207047C268D2
:1017E000120006D00088C00503D50720087001202C
:1017F000704700207047C268120006D00078C0070A
:1018000003D0062008700120704700207047426A0C
:10181000120006D00078000703D5082008700120C8
:10182000704700207047C268120005D0007800069B
:1018300002D501200870704700207047C26A12006C
:1018400008D0026B32B10078800603D50220087000
:101850000120704700207047C26A120006D000784D
:10186000C00603D50520087001207047002070478E
:10187000C26A120006D00078800703D504200870E1
:101880000120704700207047026B32B1007840079A
:1018900003D5032008700120704700207047002006
:1018A0000870012070472DE9F0415A4804212C307E
:1018B00001F00EFB044657480421303001F008FBCC
:1018C000564F0546DFF84C817878584E042801D0F1
:1018D00002280CD198F80200800602D5A2005349D4
:1018E00002E0620006EB4401514801F070FE787896
:1018F000032801D0022811D198F80200800603D5F0
:10190000AA0006EB840104E005EB44006A0006EB44
:101910004001BDE8F041474801F059BE56E730B5F7
:1019200087B001208DF800003D483A4D3B4C0068DF
:1019300090F80A07C0070AD0A878800707D4607813
:10194000012804D102208DF8000008F076FE00F096
:1019500000FD39480190354802902F48E17800EBAE
:10196000410003900020E0702B4878380490A9686B
:101970006846884707B030BDF0B5294B47F6FF727F
:1019800001291B6803D01B7D2C4C00211EE02B4C31
:101990005B7D3C3CF9E70D18EDB2294FEE18F6B22D
:1019A00037F815E007F1800C37F816703CF8155041
:1019B0003CF81660AEEB0505BE1B35442DB224F88D
:1019C0001150954200DA2A46491CC9B29942E2D325
:1019D000002006E034F81010891A24F81010401C7A
:1019E000C0B29842F6D3F0BD2DE9FC5F012000267D
:1019F0000B4CCDE9006020680C4D90F80017C9072A
:101A000047D0044991F8407007B90127014991F87E
:101A10003F1017E0640B1000709F012018021000A7
:101A200038021000803A010091021000009E01204F
:101A3000C8A6012040A701200080012090A5012018
:101A400054A4012091FBF7F1DFF804840FFA81FB25
:101A500098F80110042902D0032903D00BE0407D3F
:101A6000460024E0007D04214600FA4801F030FAE7
:101A7000F94901EB800598F8010002280AD00528F1
:101A80000FD0042813D0032811D002280FD0052826
:101A90000DD0C5E12068F04D417D007D0844460031
:101AA00005E02068EC4D3A2690F801B7F835D8F8F3
:101AB0000C108A465945ECDCBAF1000F04D14FF402
:101AC000F871E64811F0F7FEC64698F801000021CB
:101AD000DFF88C83DFF884932EE000BF59F82130C3
:101AE00035F911C00428634449F8213001D0032896
:101AF00021D1BAF1000F08D1D94A0023803A22F847
:101B0000113047F6FF7228F81120DFF854C335F979
:101B10001120ACF1800C3CF911309A4200DC1A46DD
:101B20002CF8112035F9112038F911309A4200DBD8
:101B30001A4628F81120491CB142CFDB0AF10101F5
:101B4000CEF80C1059457CDB0023DFF818A3F046D3
:101B5000CEF80C30042806D0032857D0022871D0C4
:101B6000052870D05CE101210020FFF705FFDFF8B8
:101B7000E4B2ABF12C0B9BF8410058B12068407DDA
:101B80004100B64801F0C8FEC8F810007821B648F8
:101B900011F06FFE0020D8F8103034E039F8202022
:101BA0007A43A2EB030212B225F810209046226875
:101BB00092F849C45FEA8C7C20D59BF841C0BCF107
:101BC000000F12D0B2F956C4E04502DDA8EB0C02BA
:101BD00007E0B2F95A24904502DAA8EB020200E0CD
:101BE0000022DFF884C22CF810209F4A35F810C07C
:101BF00032F81020ACEB020225F8102059F8202012
:101C00004AF82020401CB042C8DB09E10021084608
:101C1000FFF7B2FEDFF83CB2ABF12C0B9BF84100B2
:101C200058B12068007D41008C4801F075FEC8F86D
:101C3000140080218D4811F01CFE0020D8F81430CB
:101C400037E0E9E038E0D6E039F820207A43A2EB2B
:101C5000030212B225F810209046226892F849C477
:101C60005FEA8C7C20D59BF841C0BCF1000F12D0FC
:101C7000B2F958C4E04502DDA8EB0C0207E0B2F966
:101C80005C24904502DAA8EB020200E00022DFF8B3
:101C9000DCC12CF81020754A35F810C032F810203D
:101CA000ACEB020225F8102059F820204AF8202039
:101CB000401CB042C8DBB3E0DFF898B1ABF12C0BAD
:101CC0009BF84100C8B12068407D4100634801F0A5
:101CD00023FEC8F810002068017D427D490009EB11
:101CE000C20001F019FEC8F8140078215E4811F016
:101CF000C0FD80215D4811F0BCFD002033E000BF35
:101D000039F82010B8F810307943A1EB030109B27B
:101D100025F81010236893F849C45FEA8C7C1DD520
:101D20009BF841C0BCF1000F10D0B3F956C4614517
:101D300002DDA1EB0C0106E0B3F95A34994201DA55
:101D4000C91A00E00021484B23F81010464935F825
:101D5000103031F81010591A25F8101059F82020B9
:101D60004AF82020401C2168497DB0EB410FC7DBB9
:101D70002068407D4FEA40003AE000BF39F820304B
:101D8000B8F814107B43A3EB010109B225F8101039
:101D9000236893F849C45FEA8C7C21D59BF841C045
:101DA000BCF1000F12D0B3F958C4614502DDA1EBBC
:101DB0000C0106E0B3F95C34994201DAC91A00E07B
:101DC00000212A4BDDF800C023F81C10274B009996
:101DD00035F810C033F81110ACEB010125F81010E4
:101DE0000099491C009159F820204AF82020401CF5
:101DF000B042C3DB14E0002049461D4A09E000BFA1
:101E000031F8203025F8103051F8203042F82030D9
:101E1000401CB042F4DB03E0FFF754FC00200190CB
:101E20000198BDE8FC9F0A4910B54A780120062AAE
:101E30000CD18B69074C5B1C2C3C8B6194F85C408B
:101E4000A34217DA1046FFF73DFC002010BD00004A
:101E500018021000900B1000009E0120849F0120AA
:101E6000D4A4012074A1012040AF0120B8AF01200B
:101E700064A3012000228A61E8E770B57B49096804
:101E80004B7D097D5B1C4B43794991F85C40012CEB
:101E90001ED9498849051BD50020764A15E0012145
:101EA0000AE000BF01FB030632F8105032F816605A
:101EB000491C354422F810508C42F3DC32F91010E2
:101EC00091FBF4F122F81010401C9842E7D370BD4A
:101ED000047570BDF0B587B0FFF7E5FCFFF7A3FF11
:101EE000002821D0624DA878400603D4FFF77CFD7E
:101EF000002819D05D4F604C386890F80A07C00779
:101F00000BD0A878800708D46078012805D1207903
:101F1000E8756079688008F090FB00215448FFF76D
:101F2000E4FB18B1FFF7CEFB07B0F0BD5348002625
:101F300066700670386890F80A07C00706D0A8785F
:101F4000800703D40021084601F045FD4C49A42038
:101F50000873386890F81001400702D5A67000F0A9
:101F60004DFC2078012819D08DF8006001208DF8F3
:101F700014006846FFF781FF3E48019000F5F050DD
:101F80000290E17800F5B87000EB41000390E67034
:101F90003C480490A96868468847C5E703208DF847
:101FA0000000E3E770B53148344D4FF0000401689C
:101FB00091F81001420730480AD591F84317890774
:101FC00006D48178012908D002290FD0032903D132
:101FD0008470FFF7A4FC2C7070BD0221817000F0AA
:101FE00015FCBDE87040322000F023BC0321817055
:101FF0004078BDE87040FFF765BB10B5FEF720FDE7
:102000001D484078BDE81040FFF75CBB00F01F02A0
:102010000121914040094FF0E02202EB8000C0F81E
:102020000011704700F01F020121914040094FF05C
:10203000E02202EB8000C0F88011704700F01F0220
:102040000121914040094FF0E02202EB8000C0F8EE
:10205000801270474907090E002803DA00F00F00CC
:10206000094A00E0094A8154704700003802100014
:10207000640B100000800120180210009102100073
:1020800000100020F89E012014ED00E000E400E0C4
:10209000F0B527260022FF4DFF484FF4F8315C27AA
:1020A0000C46002303EB000E11F803C05B1C8EF8F6
:1020B00060C00C2BF6DB2B68002BFCD18276C77638
:1020C00004F10C0103EB000E11F803C05B1C8EF849
:1020D00060C00C2BF6DB29680029FCD1511C8176ED
:1020E000C776921C04F13001B2EB460FD8DBF0BD8D
:1020F0002DE9F0479246089E5B1EC6F108010022BA
:10210000E54C01F0FF0C1546002189469A420BDA96
:1021100000EB0208875C98F8018027FA06F708FAB6
:102120000CF847EA080703E007D1875C27FA06F7AF
:1021300001EB040888F8607003E001EB040888F8FC
:10214000609001F1010102F101020C29DEDBD149AD
:102150000F68002FFCD10AEB0501A1765C21E17626
:102160006D1C022DD0DBBDE8F08718B500241123CB
:102170005C222146C9480094FFF7BAFFC7481823DC
:102180006222002121300094FFF7B2FF18BD2DE933
:10219000F0470024DFF8FC82BF49824625462646E8
:1021A0004FF05C0900209C4206DA00EB010C1AF8A3
:1021B00004708CF8607002E0471887F86060641C57
:1021C000401C0C28EFDB00BFD8F800000028FBD132
:1021D0005019887681F81B906D1C032DE2DBC2E755
:1021E000AE4800B516235E2200216C38FFF7CFFF02
:1021F000AA4820236422002140385DF804EBC6E79A
:1022000070B50023A44C05E0CD5C1E195B1C86F85C
:1022100060505BB29342F7DB9E490B68002BFCD108
:10222000A07642F01000E07670BD30B59C4C0722DD
:102230000220216801F24271FFF7E2FF21680222C9
:1022400001F24A710920FFF7DBFF2168062201F243
:102250004D710B20FFF7D4FF20689249924D90F802
:102260005307097800F0F00001F00F0108432870CF
:10227000012229461120FFF7C3FF2168072201F23E
:1022800054711220FFF7BCFF86480122401E0078DF
:1022900000F00F01206890F85B0761F31F102870B1
:1022A00029461920FFF7ACFF2168012201F249718C
:1022B0001A20FFF7A5FF2168042201F25C711B20A0
:1022C000FFF79EFF77480222C01C2946007828703D
:1022D0007448401C007868701F20FFF791FF216848
:1022E000062201F262712120FFF78AFF6D48022267
:1022F000001D2946007828706A48801C00786870A4
:102300002720FFF77DFF2168022201F26A71292050
:10231000FFF776FF2168072201F26C713D20FFF77D
:102320006FFF21680A2201F5F5614420FFF768FF7D
:1023300021680A2201F2B2714E20FFF761FF206886
:1023400090F8C01759480170332141740B218174F2
:1023500030BD57480022026055481C38026055487D
:10236000026101210161826081600260016002609E
:102370004849A0F574700B68002BFCD146490B7BD3
:1023800043F020030B730B7B23F040030B730B7B99
:1023900023F080030B730B7B23F020030B73C0F837
:1023A000D823C0F8E02344480270704730B5414854
:1023B0000024743004603F48803004603D48C460AD
:1023C0000121C160C460046001600460374D2020B9
:1023D000AD1D287068703049593D0873A4200873FA
:1023E0002C48183001680029FCD1FFF7B2FFFFF735
:1023F0001CFFFFF7F5FEFFF7B8FEFFF749FE2F4879
:10240000046085F8344030BD38B50546224C006D77
:1024100000906073010AA173010CE173000E207437
:10242000042269462B20FFF7EBFE012205F14C0147
:102430002F20FFF7E5FE95F84C00A074A86D0090E2
:10244000E074010A2175010C6175000EA07504226B
:1024500069463520FFF7D4FE0098800F84F84000CD
:102460001149012208703920FFF7CAFE38BD00EB80
:10247000C00101EB00106FF0030101EB800010B50B
:102480000F490E4A0978146890FBF1F0401EC1B262
:10249000012317E0040B002200100020ACF801001B
:1024A00038021000F6FF0100C40B1000530000209A
:1024B0001C0C0022D003002219021000400500224B
:1024C0009302100058075CB10024146080F83410A7
:1024D00090F8421090F842408C42FBD0136010BD3F
:1024E00080F83410FAE77CB5044600208DF804002B
:1024F0002046FFF789FFF848B4F846100180217D97
:1025000000F8011C94F848104173F44EA07D86F841
:102510003600F34D286890F842078DF80000618876
:10252000890503D520F012008DF8000001226946CC
:102530000220FFF765FE042204F115010520FFF7D4
:102540005FFE2968022201F24A710920FFF758FE56
:10255000022204F11A010C20FFF752FE022204F1BC
:102560001C010E20FFF74CFE2868052204F11E0115
:1025700090F8540784F820001020FFF741FE2868E7
:1025800090F80907C0070AD0012201A94420FFF7EB
:1025900037FE022204F13A013F20FFF731FE01220B
:1025A00004F149013D20FFF72BFECE4801680129C7
:1025B000FCD194F8480030732320FFF758FF7CBD0E
:1025C0007EB50446FFF720FFC348B4F846100180EB
:1025D00094F83D1000F8011C94F848104173C04D68
:1025E000286890F842078DF800006188890503D5B6
:1025F00020F012008DF80000012269460220FFF74A
:10260000FFFD286890F80A17C90730D06288910743
:102610002DD4B0F80D17ADF80410B0F87007ADF870
:102620000800120609D594F839201044ADF80800C6
:1026300094F838000844ADF80400022202A94120B1
:10264000FFF7DEFD022201A90920FFF7D9FD296865
:1026500091F80907C0071DD0012201F5F56144205A
:10266000FFF7CEFD022204F13A013F2010E090F87E
:102670000907C00707D000208DF80400012201A936
:102680004420FFF7BDFD2968022201F24A710920AA
:10269000FFF7B6FD022204F134011B20FFF7B0FD65
:1026A000022204F136012320FFF7AAFD012204F1E2
:1026B0003C010720FFF7A4FD012204F1420108209C
:1026C000FFF79EFD012204F143012120FFF798FD51
:1026D000012204F144012920FFF792FD012204F1B7
:1026E0004A011720FFF78CFD012204F14B0118204D
:1026F000FFF786FD28687C49012290F8540720F0F6
:10270000F00008701220FFF77BFD94F84500734E2F
:10271000C00708D0286800F2C67190F8C60786F88E
:102720003600012206E094F83E0086F836000122C9
:1027300004F13E010620FFF763FD012204F1490187
:102740003D20FFF75DFD674801680129FCD194F841
:10275000480030732320FFF78AFE7EBD6049634B3B
:102760000A6892F84D2702700A68B2F85027428032
:1027700009681B7801F2547103F00F0311F8012C62
:1027800002F0F0021A4302714A89C2804A8A028129
:10279000CA7B8272CA7DC27249780173704710B5D4
:1027A0000446014601220B20FFF72AFD0222A11C4C
:1027B0000E20FFF725FD0122211D1120FFF720FD2E
:1027C0000222A11D1D20FFF71BFD022204F10801BA
:1027D0002520FFF715FD012204F10A012220FFF751
:1027E0000FFD012204F10B012A20FFF709FD04F17E
:1027F0000C010122BDE81040132001E537490420F7
:102800000873704735492020087370473349C0204A
:102810000873704736480168002909D0002101601B
:102820004FF0005191F8420091F842208242FBD0D3
:1028300070472F49002240390A60274A273A107012
:1028400001200860704770B5264C1C342368002BAB
:10285000FCD11D4603E0C6185B1C86F880508B42F5
:10286000F9D32368002BFCD102E0C45CD4545B1C78
:102870008B42FAD370BD10B500F092FFFFF7CAFF8C
:102880001C48007878B11748001D01680029FCD168
:102890001248C078400602D5174901200870BDE8EB
:1028A0001040FFF717BB15490020087010BD10B588
:1028B00000F076FF0E49002040390860BDE8104066
:1028C000FFF770BB10B500F06BFFFFF7A3FFBDE88B
:1028D0001040FFF767BB00005400002000100020EC
:1028E00038021000000B0022C40B1000F6FF01009C
:1028F0004005002219021000180210009102100079
:102900000446012007F0C5FF00210F20226807F0D0
:10291000D8FF01210F20626807F0D3FF02210F20AA
:10292000A26807F0CEFF03210F20E26807F0C9FF7D
:102930000C210F20226907F0C4FF0E210F206269CD
:1029400007F0BFFF0F210846A26907F0BAFF202158
:102950000F20E26907F0B5FF3A48026821210F20F5
:1029600007F0AFFF37481038026822210F2007F028
:10297000A8FF34480C38026823210F2007F0A1FF7C
:1029800030480838026824210F2007F09AFF2D48AC
:10299000001D026825210F2007F093FF29483438D5
:1029A000026826210F2007F08CFF264814380268A1
:1029B00027210F2007F085FFFDF7F7FE02463021A3
:1029C0000F2007F07EFFFEE710B5012807D0022890
:1029D0000ED0032805D0042805D0042109E00121E8
:1029E00007E0032105E00021032007F052FFFEE786
:1029F0000221BDE81040032007F04BBF10B504468C
:102A00000146042007F045FF012C00D1FEE710BD70
:102A10000146082007F03DBF0146062007F039BFF8
:102A200010B504460146072007F033FF012C04D0FF
:102A3000022C03D0032C02D1FEE7FEE7FEE710BD17
:102A40000320EDE738ED00E000F0AABE70477047C4
:102A5000394810B5016821F00401016000F0A0FEC2
:102A6000BDE810400FF042BC344810B50078012892
:102A70000DD0032811D1FDF7DEFF0FF069F8FEF746
:102A80006CF8002809D0BDE8104008F03FB8FDF709
:102A9000D2FFBDE810400FF05BB810BD10B500F0DC
:102AA0007FFEBDE81040FFF7A8BA10B500F078FE31
:102AB000BDE8104008F040B910B500F071FEBDE867
:102AC00010404FF0005001F01BB87047704710B530
:102AD00000F066FE1A480078012803D0BDE81040D7
:102AE00007F0BDBDBDE8104001F05BBD704710B5FB
:102AF00000F056FEBDE810404FF0805001F000B8E5
:102B000070477047704770477047704710B500F0C6
:102B100047FEBDE81040FEF708B810B500F040FED3
:102B200007480078012803D1BDE8104001F015BD29
:102B300010BD70477047000010ED00E0AA021000C1
:102B40009002100010B55621984810F092FE974858
:102B50009749984A0180828097494180974BC3806A
:102B6000974C0481974C4481974C8481974CC48145
:102B7000974C0482974C4482974C8482974CC48231
:102B8000974C0483974C4486974C8486974CC48614
:102B9000974C0487C387418782879649A0F84010E5
:102BA00095490968B1F86220A0F84220B1F8C62121
:102BB000A0F84420B1F8A120A0F84620B1F8F021F7
:102BC000A0F84820B1F85421A0F84A20B1F85221C9
:102BD000A0F84C208748B1F84E274280B1F85C2716
:102BE000C280B1F86417018110BD84481322854961
:102BF00003788348552B02D0027019200CE07E4BDD
:102C00001B6893F81131DB0702D07C4A521C127802
:102C100002707A48801C0078087070472DE9F041F6
:102C20008AB0FF222421684610F01BFE6846FEF79A
:102C30000AF901990E240126072545F2AA5081427E
:102C400002D00299814237D1009980460F0E029935
:102C5000414508D1032F02D10098C0F301360098F6
:102C6000C0F3032502E00120FFF7D6FE019941459C
:102C700003D1009800F01F0402E00220FFF7CCFE11
:102C8000032F1FD1049A40465F49824201D1039A23
:102C900000E05E4A0A60069A5D49824201D1059AC7
:102CA00000E05C4A0A60089A5B49424501D10798F6
:102CB00000E05A48086005E00120FFF7ADFE022061
:102CC000FFF7AAFE564906F0030040EA051081F816
:102CD0006000012088761120C8765248017864F39C
:102CE000040101700AB0BDE8F08170B5FDF7DDFDAB
:102CF000FDF78AFF404C20680078A52802D001200B
:102D0000FFF77CFE4FF008500125C0F8985320686B
:102D1000454A90F8271101F00101116090F8270150
:102D2000111DC0F340000860FEF78CF8FDF7D4FDDC
:102D3000FEF748FA042801D1FFF746FEFDF7B0FF81
:102D4000FDF7FAFF3648802180F860100421817673
:102D50001121C176FFF762FFFFF747FF32480C38B9
:102D6000056070BD10B54FF0005140F285304881CC
:102D7000FFF7BBFFFFF7E6FE2C495F2008602C49F8
:102D8000002008602C482B49016001F508602B49A0
:102D900008602B4800F0AAFAFDF776FA00F052F826
:102DA000FDF770FAFDF7F4FA012010BD00000120D4
:102DB00000800120D8DD012058D6012056000120D6
:102DC000009E0120462E0120822E0120C82E0120C7
:102DD000042F01203834012074340120E22901201D
:102DE0001E2A01203A2E012080CE01208CCE012007
:102DF000D62901206C25100038021000F2FF0100D6
:102E000094021000930210009802100040A5AE0238
:102E10009C02100000879303A002100000366E0190
:102E2000001000202000002088040022C42E012071
:102E30008402100054131000640210006802100095
:102E4000542410007FB5FDF77BFA1F4D002400BF0E
:102E500005EB441000F11002017F4CCACDE902617C
:102E6000CDE900230FC8FDF73DFC10B10220FFF7AC
:102E7000D7FD641C082CEBDB144D002404EB44004C
:102E800005EB8001091D55F8200006C9FDF7AAFBD6
:102E900010B10220FFF7C4FD641C082CEEDB0B4DC3
:102EA0000024603505EBC400416855F83400FDF797
:102EB000C5FA10B10220FFF7B3FD641C072CF1DB4B
:102EC0007FBD4068FFF7BCBDA83A0100A83B0100E8
:102ED00070B5034600200246FE4C09E09D5C521C82
:102EE00005F00F0604EB1515A65D2D783044284437
:102EF0008A42F3DB70BD884200D30846704788429F
:102F000000D808467047884200D30846904200D354
:102F1000104670472DE9F047D0F810C00568046AE4
:102F200085FB0C12A1FB041242694368914683FBA6
:102F300002628269E246A6FB02677618D0E90217B0
:102F400081FB07C8C069ACFB00C81CEB060682FB0E
:102F50000A2CA2FB011280FB0902A0FB050240180B
:102F600084FB0712A1FB03120818301A4FEAE07124
:102F7000BDE8F0872DE9F04389B004460068009071
:102F80006068019020690290606803902069049055
:102F9000A069059020690690A0690790E0690890F3
:102FA0000D466846FFF7B6FF8046A0680190E068CE
:102FB00004906069079089466846FFF7ABFF0646B4
:102FC00060680190A068029020690490E068059014
:102FD000A0690790606908900F466846FFF79AFF5E
:102FE000C5E90401C5E90267C5E9008909B0BDE882
:102FF000F0832DE9FF4F4FF0000A89B09B465746FA
:10300000D146D0465646554654462021684610F0D3
:1030100052FC0B9810E00999824431F9102000FB12
:1030200000F102FB01668844414302FB009901FB69
:10303000004417440D44401C5845ECDD0B99ABEBA4
:103040000100401CCDE9000ACDE90654CDE9048613
:10305000CDE9027968460A99FFF78CFF0DB0BDE80B
:10306000F08F9D480068017B427B41EA0221827B10
:10307000C07B41EA024141EA006040007047964847
:1030800000680179427941EA02218279C07941EAF6
:10309000024141EA0060704700B5FFF7E2FF4008D7
:1030A000400000BDF8B50E460446FFF7F5FF00905E
:1030B000FFF7D7FF054604216846FFF709FF04EB39
:1030C00040070024DDF80010204623464FF0010C95
:1030D0000CFA03F20A4207D02A4204D037F8102033
:1030E00026F81420641C401C5B1C1E2BF0DBF8BD72
:1030F000C5E7FCB50E460746FFF7CEFF0190FFF788
:10310000BEFF0090FFF7BBFF0546042101A8FFF7B3
:10311000DFFE044604216846FFF7DAFE00EB4400B8
:1031200007EB400700200099044603464FF0010CCE
:103130000CFA03F20A4207D02A4204D037F81420CE
:1031400026F81020401C641C5B1C202BF0DBFCBD0F
:1031500070B561490020096801F5F57491F8E851EE
:103160008DB191F8E6214FF00103D2070DD0002276
:1031700003FA02F6354203D0A65C03FA06F10843CF
:10318000521C062AF4DB400070BD91F8E91103FAE5
:1031900001F0F8E770B550490020096801F5F574B1
:1031A00091F8E851002D09D091F8E6214FF0010384
:1031B000D20704D091F8E91103FA01F070BD03FAC7
:1031C00002F6354203D0A65C03FA06F10843521C0E
:1031D000062AF4DB70BD70B500223F4C012303FAD0
:1031E00002F6256895F8E851354203D030F81250C0
:1031F00021F81250521C062AF1DB70BD00B5FFF712
:1032000030FF40F0010000BD39E7344A520102EBC3
:10321000810101F108510860704701EB80108010B6
:1032200001EB41014900182291FBF2F300EB400051
:1032300000F5F83002FB1311006820F07F40C84011
:1032400000F03F00704701EB8010801010B501EBDB
:1032500041014900182391FBF3F403FB141300EB25
:10326000400000F5F8303F2401689C40A1439A409B
:103270000A430270110A4170110C817010BD821056
:1032800002EB4202114400EB40004000182290FB88
:10329000F2F301F5F83102FB1302086820F07F40D9
:1032A000D04000F03F007047831003EB43031A4403
:1032B00010B500EB40004000182390FBF3F403FB33
:1032C000140302F5F8323F2410689C40A043994053
:1032D000014305E0403C010038021000C42E0120EB
:1032E0001170080A5070080C907010BD2DE9F14F54
:1032F0007821009810F0DFFAFFF780FF4FEA5008BE
:10330000FFF7BDFE4FF0000C814666464FF0010A04
:103310000AFA06F111EA090F1ED0002401272546FA
:103320000AFA0CFB0AFA05F010EA080F0FD0314632
:103330002846FFF772FFA04207D00099009A51F883
:10334000271041EA0B0142F8271004467F1C6D1C30
:10335000272DE7DB0CF1010C761C202ED8DBBDE815
:10336000F88F2DE9F04F8346F84800242246D0F824
:1033700000A001219AF81450A5F1010621E00320D4
:103380000123DFF8CCE303FA01F99AF8157015E090
:103390005EF820C01CEA090F0FD0A0F1010300FB6A
:1033A000051C03FB05183BF91CC03BF91830BCEBAE
:1033B000030300D55B421C44521C401C8742E7DCDF
:1033C000491C8E42DBDC02B9012294FBF2F046E696
:1033D0002DE9FF4F85B000210391029101910091E9
:1033E000DA49012B0C6894F8775005F00F0700D1EB
:1033F0000027667D94F87A30C7F1100BB34200D2F3
:103400001E4600230493012381E000BF4FF0000912
:10341000C84603241FE0CE4951F824C00121994039
:103420001CEA010F04FB053130F911C0A4F10101C0
:1034300001FB053130F91110ACEB010106D0002978
:1034400000DA4942DDF818C0A1EB0C01002900DACE
:1034500049428944641CB442DDDB31469EF815A024
:103460001FE0BB4C54F821C001249C401CEA040F0F
:1034700001FB053430F914C0A1F1010404FB05344B
:1034800030F91440ACEB040406D0002C00DA64429E
:10349000DDF818C0A4EB0C04002C00DA6442A04450
:1034A000491C8A45DDDC0499012910D10199B1EB51
:1034B000090101D5C1F10001039C21440391009948
:1034C000B1EB080100D54942029C21440291CDE9AB
:1034D00000899EF87B10994216D11168039D7943AB
:1034E0000BFB0511CC1701EB1471091111609168E8
:1034F000029D79430BFB0511CC1701EB14710911E7
:10350000916000210391029101215B1C04918F497C
:10351000D1F800E09EF81450691E99423FF776AF4B
:103520005068039978430BFB0100C11700EB117041
:1035300000115060D068029B78430BFB0300C11759
:1035400000EB11700011D06009B088E52DE9F04F53
:103550007E49002318460C6894F84914257DC1F370
:10356000C001B4F865B4B4F867A4A5EB010924E080
:103570000322DFF8DCE1DFF8DC81667D19E000BFC3
:103580005EF822C0012707FA01F71CEA070F0ED1E7
:1035900002FB051738F917C0A2F1010707FB051751
:1035A00038F91770BCEB070700D57F423B44521C2B
:1035B000D2B29642E4D8491CC9B28945D8DC6649E2
:1035C0009B450B6002D2534500D2012047E503E042
:1035D00011F8013B00F8013B521EF9D270477CB54F
:1035E0000D460446FFF758FD0090FFF748FD019097
:1035F00000980421400800906846FFF769FC0646E1
:10360000042101A8FFF764FC3044820021462846CB
:10361000FFF7DDFF7CBD0B464C4909684A7D097DFB
:10362000521C4A43014652001846D0E72DE9F041AA
:103630000446602110F03FF90025444E2580658046
:10364000306890F8C50700F0010045EA401060803E
:10365000316891F84517C90940EA01106080A560FA
:10366000FFF7CCFDE060FFF70AFD3C4F2061788852
:103670006083306800F24670C27A817A02F03F02BD
:1036800041EA0221A1834178E17590F87A10217511
:103690000178A17581782176017BA1773049407B43
:1036A000097800F0F00001F00F010843E077FFF720
:1036B0004FFD6062FFF76EFDA062FFF7EDFCE06278
:1036C000FFF7DDFC2063F888A086E086306800F212
:1036D0004E7090F8731084F83C1090F8751084F8D0
:1036E0003D1090F8761084F83E1010F84C1C84F8C9
:1036F0003F10012184F8401084F8415090F8742064
:1037000084F84220027D84F84320027F84F844201C
:10371000027A84F82220827F84F8492084F8395084
:1037200084F83850028C628710F8562CA0F24E7044
:10373000D20717D090F8F90600F00F0084F85C006B
:10374000608840F480606080BDE8F081380210003D
:1037500054241000D40B1000700210006C251000CF
:10376000F6FF010084F85C10EEE710B50446FCF7A4
:103770008BFD012C0BD1FC48006890F810018007EC
:1037800005D5FDF79AF838B1FDF793F804E0FDF799
:1037900094F808B9FDF789F8BDE81040FCF772BD50
:1037A0000020E2E7F04B10B51A68947E640704D558
:1037B000D28A0468A2EB040202601A68947EA4070D
:1037C00003D5128B0C68121B0A600268002A00DA0B
:1037D000002202601C68E48AA24200DD22460260E8
:1037E0000A68002A00DA00220A601C68248BA242C0
:1037F00000DD22460A601B689B7EDB0702D003685F
:103800000B60026010BDF0B500252C4609E000BF3A
:1038100031F9146030F91470F61B964200DD6D1C0E
:10382000641C9C42F4DB012D01D90120F0BD002075
:10383000F0BD2DE9F04F9246DDE909B7012547F6C5
:10384000F87256429946AC46002416E030F814301F
:1038500031F81480A8EB03031BB29A4200DD1A462C
:103860009E4200DA1E46002B02DA4FF0000502E00D
:1038700001DD4FF0000C04F10104BC42E6DB55EA27
:103880000C0306D0012D01D02DB108E0BCF1010FD1
:1038900005D1002203E0BCF1010F00D13246002522
:1038A0002C462B4611E000BF30F8136031F813C0EE
:1038B0001644ACEB060636B24E4505DACBF1000CE9
:1038C000664501DD3544641C5B1CBB42ECDB95FBAB
:1038D000F4F10A44002105E030F8113013442AF8CD
:1038E0001130491CB942F7DB71E5F0B506460020FE
:1038F00004460546521C059F0AE000BF36F911C078
:103900009C4504DDA44502DD64460D460120491CAA
:103910009142F3DB3D60F0BD30B5026800251346EF
:103920000AE000BF50F82540944201DD224602E043
:103930009C4200DA23466D1C8D42F3DBD01800EB6D
:10394000D070401030BD70B5874B1B685C7D1B7D0F
:10395000641C5C43002307E032F8135030F8136016
:10396000AD1B21F813505B1CA342F5DB70BD7F49F2
:103970000120086081027E480FF07BBF2DE9F041F5
:10398000064615460F46302801D1FFF7F0FF774C69
:1039900020682844401CB0F5806F01D2206801E007
:1039A00001202060724908700E542DB10844401C5B
:1039B0002A463946FFF70BFE20682844401C206049
:1039C000C2E66C480021012201704270817070478C
:1039D00068480078704730B5634A126892F80A2741
:1039E000D3070BD0D506644A4FF000034FF0010413
:1039F00007D5151F2860012901D1136030BD14605F
:103A000030BD5D4D083D28600129F8D0F5E72DE96E
:103A1000F84F554C00264FF00057206890F80A07E1
:103A2000450997F8510000D101250720FCF705FE54
:103A3000FCF7BBFEDFF83C81C8F8040020684FF0BB
:103A4000010490F80A07C00603D5062087F8510044
:103A500001E087F8514000210120FFF7BCFF4FF43F
:103A60001670FCF717FC4FF0E02A4FF480594FF026
:103A7000000BCAF880924FF040514446D8F8040039
:103A8000FCF72BFDDFF8F480012088F80000E8B295
:103A9000FCF7EDFFCAF800916B4600224FF0405151
:103AA0006068FCF72AFD4FF040516068FCF715FD97
:103AB0000098C00000D501262078B04202D160787D
:103AC00001280CD197F85100A6B140EA0522DD206B
:103AD000616806F0F6FE00BF84F801B02670002190
:103AE0000846FFF778FF88F800B00720FCF7C0FD14
:103AF000207834E440EA0521092006F0CAFEEBE70D
:103B000010B504461E484FF480510160FCF7BCFF1D
:103B1000184821464068BDE81040FCF7AFBC70B5BE
:103B20001148006890F8D010CA0716492CD090F8B8
:103B3000D12002F00F02531C0A2B01D90A2200E007
:103B4000521C00F1D20400234D8804E034F81360C5
:103B5000B5421CD05B1C9342F8DBB0F84E274A807C
:103B6000B0F8E8200A8012E0380210003C02100091
:103B7000D6250120AC021000280A00229102100074
:103B800080E100E06C251000B0F84E274A8090F8E4
:103B90008023D2071FD090F8812302F00F035A1C14
:103BA0000A2A01D90A2300E05B1C00F282350024B6
:103BB000CA8804E035F81460B2420BD0641C9C4201
:103BC000F8DBB0F85C27CA80B0F864270A81B0F847
:103BD000AC03888070BDB0F85C27CA80B0F8640779
:103BE000088170BD10B501461822F748FFF7EFFCB9
:103BF000BDE810404FF400610120FCF73FBC2DE907
:103C0000F0419AB080460D4614466846FFF70EFD17
:103C1000E0074FF0010701D0ADF80070A00705D50F
:103C2000BDF8000040F00800ADF80000600735D591
:103C3000E64E306890F80A07C00712D0FFF7E7FE9B
:103C400001280CD0BDF8020040F00200ADF80200DF
:103C50005FF02000ADF80000A00707D018E00620B4
:103C6000F8E7BDF8000040F02000F3E7BDF80000E1
:103C700040F00100ADF80000306800F221104178FA
:103C80008DF8171001788DF81E1080788DF82200BD
:103C9000CF480088800501D58DF84170ADF83650C9
:103CA000ADF81A80ADF83450AFF2C700C64D03240A
:103CB0004FF4006602906846FDF747FD18AB0022FE
:103CC00031460120FCF719FC31460120FCF705FCC8
:103CD0002878002804D0FEF777FE641E002CEADC6A
:103CE0001AB0BDE8F0812DE9F041B84A0024214620
:103CF0001268254610F4D17F04D092F822100425D2
:103D00004FEA111110F0050F05D092F8213045F05F
:103D100001054FEA1314C00604D592F8210045F0BE
:103D2000020504098C4200DA0C46641C002DD8D030
:103D30000026A84F05E0F98878882A46FFF75FFF3C
:103D4000761CA642F7DBCCE72DE9F35FDFF87C8237
:103D50008B46D8F80000457D017D90F821006D1C50
:103D600000F00F074D437F1C4FF488519A480FF025
:103D7000A2FD0026984CDFF85C92DFF84CA218E018
:103D8000B9F8061001220098FFF739FF9349DAF8D5
:103D9000040005F01AFE9149002007E054F82020A5
:103DA00031F910301A4444F82020401CA842F5DBB9
:103DB000761CBE42E4DBD8F8000090F8210000F049
:103DC0000F01491C002006E054F8202092FBF1F27C
:103DD0002BF81020401CA842F6DBBDE8FC9F2DE923
:103DE000F34F7A4D87B08B462868182190F8210050
:103DF00000F00F077F1C68460FF05DFD00266C4643
:103E0000DFF8D091DFF8C0A1DFF8D48119E000BF5E
:103E1000B9F8061002220798FFF7F1FE7049DAF8A8
:103E20000C00FFF7D8F900204FEA080154F82020D1
:103E300031F910301A4444F82020401C0628F5DBE4
:103E4000761CBE42E4DB286890F8210000F00F01E8
:103E5000491C002001222B6802FA00F693F8E83191
:103E6000334205D054F8203093FBF1F32BF8103097
:103E7000401C0628EFDB09B0BDE8F08F2DE9F74FB5
:103E8000524D84B09146286830F83B1F039140881A
:103E90000290FFF701F90090FFF72AF90190042141
:103EA0006846FFF715F88046042101A8FFF710F8CF
:103EB000404446002868B10090F8220000F00F044A
:103EC000641C45480FF0F7FC296891F8F002C2071E
:103ED00006D0800704D491F8F102044405F02AFAD0
:103EE0000027DFF8F4B0AA462FE03A4804220599EB
:103EF0004088FFF784FEDAF80010334891F8C517C0
:103F00008568C90704D001692A46284605F0BEFA2B
:103F1000DAF8000090F8F002C10707D0800705D456
:103F20003049284605F022FA70B12E4D002059463E
:103F300008E000BF51F8202035F910301A4441F84C
:103F40002020401CB042F5DB7F1CA742CDDBDAF815
:103F50000010214C504691F8221001F00F0303F19C
:103F600001034FF000011CE05BF82120056892FB83
:103F7000F3F295F8F0725FEAC77C08D0BF0706D568
:103F800095F8F1727F1C5743B5F8F222BA1AB1EBDB
:103F9000480F01DA039D00E0029D2A4424F8112015
:103FA000491CB142E0DB049810F0220F09D02046F2
:103FB000D9F80010FFF776F82046D9F80410FFF77B
:103FC00098F807B058E70000684310003802100066
:103FD000480210006C25100054131000D40B100080
:103FE0003A2E0120D0A501202DE9F0479A46F94B41
:103FF000894600210125F84E1C681AE032F811307C
:1040000030F81170DB1B1FB200230AE0C3EB031C66
:1040100006EB8C0C5B1C3CF811801BB2B8442CF8EE
:10402000118094F880C305EB9C1C9C45EEDC491C78
:1040300009B2637D8B42E1DC0020E84A19E000BF51
:104040003AF8103039F81010591A0BB2002108E074
:1040500002EB8116491C36F8107009B21F4426F88D
:10406000107094F8806305EB96168E42F0DC401CCD
:1040700000B2217D8142E3DCBDE8F08770B5D54D0B
:10408000D74E00242868C4EB041100EB440006EB73
:10409000C111B0F8EF00FFF757FE641C042CF1DBF0
:1040A00070BD2DE9FE4F00258246CA4C2F46DFF831
:1040B0002883DFF82893012612E000BF00EB4500BB
:1040C000C5EB0512B0F8B21308EB8200009009EBC3
:1040D0008510CDE901076A465046FFF7CFFE6D1CFB
:1040E000206890F8801306EB9111A942E6DC90F865
:1040F0005011C90710D090F8911109060CD5407DD8
:10410000B5494200B748FFF762FA2068B349007D1D
:104110004200B548FFF75BFABDE8FE8FFEB5AD4A39
:10412000B24900241268012300F4907592F880636C
:10413000C98803EB961306E002EB4406B6F8B263B7
:10414000B14202D0641CA342F6DCA34219DDC5B122
:1041500092F85001C00703D192F8B001C0070FD008
:104160009D49C4EB041001EB80013C22A048FFF7FD
:104170002EFA9A48402200EB84119E48FFF727FA56
:10418000FEBD002202929A4A00929A4A01926A4621
:10419000FFF774FEFEBD70B504460020FCF74DFA33
:1041A0000320FCF74AFA8B4D286890F82010490745
:1041B00001D424F4006490F85011C90705D190F897
:1041C000B011C90701D124F0620490F880134907A7
:1041D00001D424F4B07490F8D010490701D424F02D
:1041E000040490F8E81109B924F0100490F80413BD
:1041F00009B924F4C07490F82002C00701D124F456
:10420000007460060AD53C2279497B48FFF7DFF944
:104210007948402277493C30FFF7D9F977490020A7
:10422000401C8842FCD3200502D52046FFF75BFDE9
:10423000600701D5FFF722FF14F4907F02D02046DB
:10424000FFF72FFF694EE0071BD070886C49FFF71E
:104250007BFD286890F8200000070AD56848FFF722
:1042600080F868490123684A086001466448FFF7FE
:10427000AFF8286890F84904C00702D0204602F041
:104280006DFBE00603D570886049FFF7A8FD14F0C8
:10429000820F0AD02046FFF741FF286890F84904B2
:1042A000800702D5204602F0CFFB600606D55249B2
:1042B000504B4F4A3C315048FFF796FE544901207D
:1042C00008705449087006F0A6F90020FCF7D0F9F0
:1042D000BDE870400320FCF7CBB9F0B43D490022A3
:1042E0003F4C0B68B3F8EF10814214D2B3F8F510CD
:1042F000814201D803220EE05FF0010103EB41058A
:10430000B5F8EF50A84201D10A4602E00DD2A1F162
:1043100001028A420DD1C2EB021004EBC011F0BCC5
:104320004FF4F0623648FFF752B9491C0429E5DB27
:10433000F1E703EB4103324D33F8ED2FC1EB0111EF
:104340005B88801A00029A1A90FBF2F300204FF467
:10435000707604EBC11100BF01EB4002A2F5F062E0
:1043600031F91040B2F90020A41A5C4302EB242278
:1043700025F81020401CB042EEDBF0BC70472DE960
:10438000F04114490025144A0968144EB1F8B233BB
:1043900083421AD291F880339C0901EB4407B7F8A5
:1043A000B27387420AD9012404EB931335E000BFAE
:1043B00001EB4407B7F8B273B84201D1254602E0D9
:1043C0002AD2A4F10105A5423ED191F85001C007BF
:1043D0002AD125E038021000562B0120822C012022
:1043E000D6070120462C0120822D01206C251000CB
:1043F000E22901201E2A0120EC42100020A1070022
:10440000560001206C021000CC241000D629012097
:104410004E0210007C021000641CA342C8DCD4E7EA
:1044200091F8B001C0074CD0C5EB051002EB80013C
:104430003C228448FFF7CBF806EB8511BDE8F0413C
:1044400040228148FFF7C3B801EB4405B5F8B0330B
:10445000B5F8B253C01A0002EB1A90FBF3F391F8CF
:104460005001C00703D191F8B001C00729D0754DA4
:10447000C4EB0411002002EB810100BF01EB4002FC
:1044800031F9107032F93C2CBF1A5F4302EB27223E
:1044900025F81020401C1E28F0DB6B4D002006EB99
:1044A000841100BF01EB400231F9104032F9402C79
:1044B000A41A5C4302EB242225F81020401C20287B
:1044C000F0DB0EE42DE9F04160480124604E0470F9
:1044D00000253560192000F0A8F8192000F08DF8AB
:1044E0005C4F052038724FF41670FBF7D3FE584826
:1044F00044380560FF2139703460046023E470B5EE
:104500005248554C01250570207F40F0040020776B
:104510005248006890F81101C00705D00A2000F049
:1045200084F80A2000F069F8002184F860105C2209
:10453000A2761120E07684F860505823A376E076C6
:10454000434B443B1960434EFF213170042184F8F2
:104550006010A276E0761D6070BD70B53C48002406
:10456000443804603B4D08352E79192000F051F88D
:10457000C6F1FB002978C0B2491CB0FBF1F0384904
:104580000870324804703548006890F81101C0077F
:1045900002D0BDE87040B2E731495520891E08704D
:1045A00070BD10B52C4C207F40F0040020772B48C4
:1045B000006890F81101C00702D00A2000F029F825
:1045C00024490A7B224B0020443B186084F8600099
:1045D0005C23A3761123E3760978891A89B24FF414
:1045E000FA42B2FBF1F11E4A0909521E117055211F
:1045F000521E11701549087010BD00F01F020121F4
:10460000914040094FF0E02202EB8000C0F8001119
:10461000704700F01F020121914040094FF0E02255
:1046200002EB8000C0F88011704700F01F020121EA
:10463000914040094FF0E02202EB8000C0F8801268
:1046400070470000E22901201E2A0120900210007C
:10465000480500222E000020001000203802100023
:10466000F4FF010010B501461822FE48FEF7AFFF27
:104670008021BDE810400120FBF700BF30B599B0A4
:1046800004466846FEF7D2FF00210120012C02D02B
:10469000022C03D009E0ADF8000002E00822ADF8DA
:1046A00000208DF816108DF81410BDF80210AFF22E
:1046B0004B0241F4A671ADF80210EB490292096871
:1046C00091F8F816C90701D08DF85C00E54D032478
:1046D0006846FDF73AF818AB002280210120FBF76D
:1046E0000CFF80210120FBF7F8FE2878002804D079
:1046F000FEF76AF9641E002CEADC19B030BD2DE922
:10470000FC5F4FF0000BFEF723FD0446FEF742FD71
:10471000D64907460020086048608860D4494FEABF
:10472000540980460860486088604FF0010A022002
:10473000FFF7A4FFCB4800242646C068CDF8000050
:104740000AFA06F010EA090F38D000250AFA05F136
:10475000394230D0C4490AFA04F0096891F8E811E6
:10476000014228D029463046FEF757FDBE49BF4AD0
:10477000096832F91430B1F80AC2B3EB0C01009B9E
:1047800033F91430A3EB0C0C00D54942BCF1000FF7
:1047900001DACCF1000C614504DBB54922F8143094
:1047A00021F814003F2805D2401CC2B229463046E9
:1047B000FEF749FD641C6D1C202DC7DB761C272EDF
:1047C000BEDBFDF765FC08F10108B8F1400FAEDB78
:1047D000012000900220FFF751FFD0460026DFF8AD
:1047E00088A2354608FA05F010EA090F1ED0002409
:1047F00008FA04F1394216D0DAF8001008FA06F087
:1048000091F8E81101420ED09948214610F816009F
:10481000019002462846FEF716FD01983F2801D375
:1048200000200090761C641C202CE1DB6D1C272DE1
:10483000D8DB009810B90520FEF7EAF8FDF728FC50
:104840000220FFF71BFF87488A49C068FEF7C3FCB8
:10485000DAF80040874D002094F8E831424600BF66
:1048600002FA00F10B421CD035F91010002902DCCD
:104870004BF0020005E040F6FF76B14203DB4BF05F
:104880000100834610E0B4F80A72B4F8BE6107EB89
:10489000060C8C4505DABF1B8F4202DD0EB14BF0D2
:1048A000040B401C0628DBDB5846BDE8FC9F2DE9C5
:1048B000F05F6D490A6892F8300105066E4803788A
:1048C00003F00F0407D492F83E1121F00F012143A9
:1048D0000170BDE8F09F0025DFF888A183460470D1
:1048E0002E46012789460220FFF7C8FE6149DAF803
:1048F0000C00FEF770FCD9F800205E4B002092F807
:10490000E81100BF07FA00FC11EA0C0F05D033F9DB
:1049100010C0B2F80882C445DBDB401C0628F1DB7E
:104920000F2D08D26D1CEDB244EA0510761C8BF8F1
:104930000000102ED7DBBDE8F05F0420FEF768B85A
:10494000F0B5484900204D6847490A68537D117DFC
:104950005B1C01FB03F41CE035F91130002B02DC79
:1049600040F0200014E040F6FF76B34202DB40F056
:1049700010000DE0B2F83471B2F8BE6107EB060C1E
:104980009C4505DABF1B9F4202DD0EB140F040009E
:10499000491C8C42E0DCF0BD024618215FF00100AA
:1049A00000FA01F3134201D1491EF9D5491C884090
:1049B000104370472DE9FE4FFEF720FC0446FEF73A
:1049C00023FC294D0746286890F84507000603D5C3
:1049D0002046FFF7E1FF04464FEA540B4FF4F06125
:1049E00026480EF046FF1F484FF027098021183057
:1049F0000EF061FF002001900120FFF73FFE1948F3
:104A0000D0F804A018480068057D01200024029019
:104A10006CE0012000FA04F111EA0B0F65D00026CA
:104A2000012000FA06F818EA070F54D00D48183094
:104A300050F8240010EA080F4CD131462046FEF70A
:104A4000ECFB009008483AF915100068B0F8340102
:104A5000814233DC094B33F91520121AA1EB000017
:104A60000FD50DE0804310003802100080CE0120E9
:104A70008CCE01203A2E0120F6FF010058D60120ED
:104A80005242002800DA4042824209DC0098314656
:104A9000401EC0B2024600902046FEF7D4FB01E063
:104AA00023F815106C49009821F815006B4850F850
:104AB000241041EA080140F824100BE00098314628
:104AC000401CC2B22046FEF7BEFB65483AF81510FE
:104AD00020F815106D1C761C202EA1DB5F4850F8C5
:104AE0002400B84201D000200290641C4C4590DBA9
:104AF000029838B9FDF7CCFA0198401C0190402883
:104B0000FFF67AAF57484FF0010A00250068067D8E
:104B10001DE0012202FA05F010EA0B0F16D0002466
:104B20000120A04038420ED04B48214610F8160014
:104B3000804602462846FEF786FBB8F13F0F01D3B8
:104B40004FF0000A761C641C202CE9DB6D1C4D45DF
:104B5000DFDBBAF1000F02D10320FDF759FFFDF7AB
:104B600097FA0120FFF78AFDBDE8FE4FE8E62DE940
:104B7000F05F3C4A116891F83001C4073A48037865
:104B800003F0F00516D0057000264B7D0C7DDFF894
:104B9000CCA05B1CB046AAF1180A914604FB03F7AF
:104BA00083460120FFF76AFD2046DAF80420D9F891
:104BB00000100EE091F83E1101F00F012943017041
:104BC00087E600BF32F91030B1F832C16345F7DB38
:104BD000401C8742F6DC0F2E0AD2761CF6B245EA5C
:104BE000060108F101088BF80010B8F1100FD8DBAE
:104BF000BDE8F05F0220FDF70BBF70B501244FF454
:104C000004614FF4F8300EF056FEFDF741FAFFF75D
:104C1000AEFFFFF7CFFE134D44EA0064286890F81A
:104C2000E80128B1FFF743FEFFF769FD44EA0044BD
:104C30000D482A68401D017892F8FB2701F0F00129
:104C400002F00F02114301700848FEF74FFB2046A7
:104C5000BDE8704005F0F7BED8DD01209843100094
:104C600058D6012038021000F6FF0100542410002D
:104C70002DE9F04FF84DF94B0020D5F814906E68EF
:104C80001B6804460246012140F6FF7B01FA02F749
:104C900037421CD039F914A0BAF1000F02DC40F001
:104CA000200013E0DA4502DB40F010000EE0B3F81C
:104CB00036C1B3F84171E6460CEB0708D04503DB7B
:104CC000AEEB070CD44501DD40F04000641C521CE3
:104CD000202ADBD30024AF69AE68224601FA02F530
:104CE00035421AD037F91450002D02DC40F0200074
:104CF00012E05D4502DB40F010000DE0B3F83A81B0
:104D0000B3F8439108EB090CAC4503DBA8EB090CA5
:104D1000AC4501DD40F04000641C521C202ADDD36C
:104D2000BDE8F08F10B501461822CD48FEF74FFCC4
:104D30008021BDE810400120FBF7A0BB30B599B041
:104D40006846FEF773FCC548006890F809178907A4
:104D500007D5B0F85C17B0F86427ADF83410ADF89B
:104D6000362090F80A074FF02004C00709D0FEF75C
:104D70004EFE012834D0BDF8020040F00200ADF82C
:104D80000200ADF8004000208DF83E008DF83D0097
:104D9000B148416849000B9180680C90BDF8020051
:104DA000AFF27F0140F4A670AD4D0291ADF8020064
:104DB00003246846FCF7C9FC18AB002280210120BF
:104DC000FBF79BFB80210120FBF787FB287800285D
:104DD00004D0FDF7F9FD641E002CEADC19B030BDEB
:104DE0000620ADF80000CEE72DE9F84F21219D48BF
:104DF0000EF061FD9B48302121300EF03AFDFDF7A9
:104E000014FAFDF7B2F9042003254FF000084FF023
:104E10000109914CDFF844A2CDF80000FFF78EFFA6
:104E2000E8072BD04FF0000B5F465E46616809FA39
:104E300006F008421AD040F6AC013046FEF71FFAE1
:104E4000616931F91720DAF80010B1F845118A428A
:104E50000BDA3F2809D200994FF0010B0844C1B288
:104E600040F6AC023046FEF71FFA7F1C761C202E5F
:104E7000DCD3BBF1000F01D125F00105A8072BD52C
:104E80004FF0000B5F465E46A16809FA06F0084243
:104E90001AD040F6CD013046FEF7F1F9A16931F99B
:104EA0001720DAF80010B1F847118A420BDA3F28D0
:104EB00009D200994FF0010B0844C1B240F6CD026F
:104EC0003046FEF7F1F97F1C761C202EDCD3BBF1B7
:104ED000000F01D125F0020545B1FDF7A6F9FDF758
:104EE00044F908F10108B8F1640F97DB03254FF08E
:104EF000000800BFFFF722FFE80729D04FF0000BA2
:104F00005F465E46616809FA06F0084218D040F62E
:104F1000AC013046FEF7B3F9616931F91720DAF8D0
:104F20000010B1F845118A4209DD40B1401EC1B2FE
:104F30004FF0010B40F6AC023046FEF7B5F97F1C8E
:104F4000761C202EDED3BBF1000F01D125F0010528
:104F5000A80729D54FF0000B5F465E46A16809FA05
:104F600006F0084218D040F6CD013046FEF787F92A
:104F7000A16931F91720DAF80010B1F847118A4217
:104F800009DD40B1401EC1B24FF0010B40F6CD0229
:104F90003046FEF789F97F1C761C202EDED3BBF14C
:104FA000000F01D125F00205002D08D0FDF73DF9D5
:104FB000FDF7DBF808F10108B8F1640F9ADBBDE8F2
:104FC000F88F2DE9F041284D002021212870254837
:104FD0000EF071FC2348302121300EF04AFCFDF721
:104FE000C4F8FDF722F91C4E002700BFFFF7A6FE0C
:104FF000D6E904320024204606E000BF32F9101042
:10500000A14200DD0C46401C9842F7DB0020F3680B
:10501000B26905E032F91010A14200DD0C46401CD7
:105020009842F7DB002C09DC28780F2803D8401CB5
:105030002870FDF7FAF87F1C202FD7DB40F6FE70B2
:10504000844206DD2878401E2870BDE8F041FDF757
:10505000ECB8BDE8F0810000B40210003802100086
:1050600018441000ACF80100F5FF01002DE9F05FD5
:105070000024FF4F25462146FE4E0120D6F804307D
:1050800000FA01F21A4203D07A5CA24200D9144617
:10509000491C2029F4D3F64FD6F808202C370021DC
:1050A00000FA01F3134203D07B5CAB4200D91D46EA
:1050B000491C2029F4D3DFF8C0A3F04F0AF1010BFB
:1050C0008AF800408BF80050386890F80A07C1074A
:1050D00005D0800703D5FEF77BFC012811D0E648F8
:1050E000E549801E491E0078097820442944FF22A2
:1050F00088427AD2081A2044FF2877D88AF800001C
:1051000099E0DE48006800F259700279C17802F037
:105110003F0201EB02268279417902F03F0201EB66
:105120000228027BC17A02F03F0201EB0227827B58
:10513000417B007802F03F0201EB022940060FD5C7
:10514000CD48801E017806EB080004EB40000844BF
:10515000C949491E0A7807EB090105EB410110E036
:1051600006EB0800400000EB4401C348801E0078B5
:10517000084407EB0901490001EB4502BE49491EFD
:1051800009781144FDF7BBFEBC49096801F20B72B6
:10519000B1F80B37834201D2A1F80B0791F80A0747
:1051A000400720D591F85907400620D570004342AA
:1051B000C8F1000091F80B1703EB40000144AE4822
:1051C000801E0078091A8AF8001078004142C9F15F
:1051D000000001EB400011780144A748401E007810
:1051E000081A8BF80000BDE8F09F27E01DE0A248F8
:1051F000B1F80B17801E037806EB080018444042F4
:1052000001EB4000C0F347019B488AF80010401EA4
:10521000017807EB090008441188404201EB400087
:10522000C0F347018BF80010DDE78AF800203068F2
:1052300040F0800030608BF80050D4E781420FD2FC
:10524000401A2844FF2802D88BF8000005E08BF8AC
:105250000020306840F0800030608AF80040C2E7EB
:105260008AF80040E7E72DE9F0410020804C814BAF
:10527000824A01214FEA00055F6801FA00F63E42CA
:1052800009D01768265C97F84A71BE4202D9F61B0E
:10529000265400E02554401C2028EDD3744C2C34B7
:1052A0005FF000009F6801FA00F63E4209D01768DF
:1052B000265C97F84A71BE4202D9F61B265400E0DC
:1052C0002554401C2028EDD3FFF7D0FEBDE8F04167
:1052D000FCF786BF2DE9F84F6548654D06462C352D
:1052E0002C210EF0E8FA402128460EF0E4FAFFF7F0
:1052F000BDFEFCF79AFFFCF773FF04200324002790
:105300004FF00109DFF86CA1DFF870B1CDF80000B3
:10531000FFF714FDE00728D04FF0000C624660460E
:105320004FEA0A0309FA00F1D3F8048011EA080FE2
:1053300013D0596931F91280DBF80010B1F8381137
:10534000884509DA315CDDF800804FF0010C4144FA
:10535000FF2900DDFF213154521C401C2028E1D3DD
:10536000BCF1000F01D124F00104A00727D54FF0B4
:10537000000C62466046534609FA00F1D3F80880F3
:1053800011EA080F13D0996931F91280DBF8001087
:10539000B1F83C11884509DA295CDDF800804FF04E
:1053A000010C4144FF2900DDFF212954521C401CFF
:1053B0002028E1D3BCF1000F01D124F0020444B154
:1053C000FFF754FEFCF731FFFCF70AFF7F1C642F48
:1053D0009EDB03245FF00007FFF7B0FCE00724D05A
:1053E0004FF0000E714670465246DC46D2F80480FB
:1053F00009FA00F313EA080F0FD05369DCF80080B4
:1054000033F91130B8F83881434505DD335C1BB101
:105410005B1E4FF0010E3354491C401C2028E5D37D
:10542000BEF1000F01D124F00104A0072ED54FF0EA
:10543000000E7146704652464FEA0B0CD2F80880B7
:1054400009FA00F313EA080F0FD09369DCF8008023
:1054500033F91130B8F83C81434505DD2B5C1BB1B5
:105460005B1E4FF0010E2B54491C401C202807E006
:1054700040F80100B4021000F9FF010038021000EA
:10548000DCD3BEF1000F01D124F00204002C08D0BF
:10549000FFF7ECFDFCF7C9FEFCF7A2FE7F1C642FB2
:1054A0009ADB8CE59A4930B409680020034691F8EC
:1054B000302192070BD5974A91F849410120157880
:1054C000A54203D9A5EB0404147000E0137091F811
:1054D000302152070CD58F4A91F84911521C40F0E7
:1054E000020014788C4202D9611A117000E0137026
:1054F000002801D030BCB9E530BC70472DE9F04739
:1055000083490024834D0868274690F8302192078C
:1055100002D501242F7002E090F83F212A708946BD
:1055200090F830117C4E490703D544F002043770DF
:1055300002E090F840013070002C75D02C217748A3
:105540000EF0B9F9754840212C300EF0B4F97148CD
:105550002121801E077071486C300EF0ACF96F4845
:1055600030218D300EF085F96B49FF20891C0870C1
:10557000491E0870FCF734FEFCF7F7FDFCF755FEFA
:10558000DFF89C814FF0100A002700BFFFF7D6FB21
:10559000E00723D0D8E9043C0020014606E000BF24
:1055A0003CF91120824200DD1046491C9942F7DB8C
:1055B000D9F80010B1F83621824202DA2878401E6C
:1055C00008E0B1F84B11814206DB28785044FF28EF
:1055D00000DDFF20287001E024F00104A00726D59B
:1055E00000200146D8F80CC0D8F8183006E000BFFB
:1055F00033F91120824200DD1046491C6145F7DB7A
:10560000D9F80010B1F83A21824202DA3078401E0F
:1056100008E0B1F84B11814207DB30785044FF2895
:1056200000DDFF20307002E00AE024F00204002CCC
:1056300006D0FFF71BFDFCF7F8FD7F1C202FA5DB34
:10564000BDE8F08770B5364C00202060FDF724FDE2
:105650006060FDF74DFDA060606804214008606057
:10566000201DFDF735FC2061042104F10800FDF741
:105670002FFCE060FFF762FB2A4E2169B06800EB67
:1056800041026261E26802EB410100EB4100A0616E
:10569000FFF734FFFFF706FF1D4D286890F8300133
:1056A000800603D5FFF716FEFFF7DDFD286890F8AA
:1056B0003001000701D5FFF784FC286890F830011D
:1056C000C00601D5FFF790FBFCF7AFFDFFF736FBF7
:1056D000B068216900EB41026261E26802EB4101BE
:1056E00000EB4100A061FFF7C3FA216801430A48BB
:1056F00021602A68C01C037892F8FB2763F3030239
:105700000270BDE8704041F0020005F09CB9000055
:1057100038021000F7FF0100F8FF010040F8010017
:10572000B40210001844100010B501461822A84811
:10573000FDF74DFF8021BDE810400120FAF79EBE25
:10574000F0B5A44D06460C4628684FF0FF3199B0DD
:1057500090F8B10000F00F00401C8140CF43684634
:10576000FDF764FF0120ADF80000ADF802402868A5
:1057700010F8F91F8DF8171044F00501ADF802106C
:105780000397ADF81A60AFF25F01029141788DF88E
:10579000181080788E4D8DF81E0003246846FBF7A4
:1057A000D4FF18AB002280210120FAF7A6FE802149
:1057B0000120FAF792FE2878002804D0FDF704F9BA
:1057C000641E002CEADC19B0F0BD2DE9FC5FDFF8A7
:1057D00004A24FF000094E46DAF8000000F57070A0
:1057E000017890F80180807801904FF00850D0F84F
:1057F0008C0100B9012600208CB2009038E000BF77
:10580000DAF8000090F8CD0300EB80004700002597
:1058100024E020460099FFF793FF6D48406809F0A7
:1058200072F80146DAF8000090F8F82012F00F0044
:1058300000D1012012094A43B2FBF0F01FFA80FBAD
:10584000012E09D1B9F5707F06D2634A09F1010032
:1058500022F819B01FFA80F96D1CADB2BD42D8D93B
:105860005A462146302005F031F90198204484B28F
:105870004445C5DDBDE8FC9F2DE9FF5F4FF6FF768F
:105880004FF0000A93460F46804634465546DFF8EF
:1058900044911BE038F815005146FFF751FF4C4882
:1058A000406809F030F8D9F8001091F8F82012F0AB
:1058B0000F0100D1012112094243B2FBF1F080B285
:1058C000A04202D238F8156004466D1CBD42E1DBEF
:1058D000ABF8006003980480BDE8FF9F2DE9F0411C
:1058E0003C4E05468846306888B090F8D12002F0DA
:1058F0000F01C2F30214491C641C0A2900DD0A21AD
:10590000022C00DD0224D23006AB05AAFFF7B4FF5B
:10591000326892F8D00080071BD5BDF814600121D1
:10592000E632ADF8006000204FF4803C6F4607E09F
:1059300013563344634502D227F81130491C401CEA
:10594000A042F5DB002904DD06AB05AA3846FFF7C7
:1059500093FFBDF814002880BDF81810A8F80010B7
:1059600008B0BDE8F0817CB50020FAF766FE1B4C5C
:1059700001A968466588FFF7B1FF164E3068B0F898
:10598000E810BDF80400814201D9218000E02080A8
:10599000BDF8000060800020FAF76AFEBDF8000044
:1059A000854207D0306890F8D000400702D5608863
:1059B000FEF793FC0A49012008700A4908700A4959
:1059C0000870BDF800202946092005F062F87CBD6A
:1059D0003044100038021000D8DD01206C25100082
:1059E0004E0210007C0210008A0210002DE9F047E0
:1059F00006460078FE4D00B1287018223146FD4859
:105A0000FDF7E5FDFC4C206890F8C517CA07F94979
:105A100001D00A6900E08A68417D6868F74B41431C
:105A2000002019E097F8F0C25FEACC780DD05FEA69
:105A30008C7C0AD597F8F17232F810C07F1C0CFBF1
:105A400007FC0F1823F817C005E001EB000C32F833
:105A5000107023F81C70401C276897F815C0844507
:105A6000E0DC686800F1010068607F7D07FB00FCF6
:105A70004FF000001EE000BF91F8F082C1465FEADF
:105A8000C8780FD05FEA89780CD507EB000891F849
:105A9000F11232F81880491C08FB01F80CEB0001E8
:105AA00023F8118039180CEB000832F8111023F894
:105AB0001810401C216891F815808045DCDC6B686B
:105AC0004FF0010803F101036B6091F8B10008EB9E
:105AD000101291F8F002C70705D0870703D491F898
:105AE000F1723A44D2B2934227DA91F80A07C0071A
:105AF00019D0FDF76DFF012815D12168A88891F80C
:105B0000BA1380B201F00F01B0FBF1F201FB1201F8
:105B1000B84860380029418802D041F0020101E014
:105B200021F002014180307808B1FCF74DFFBDE85B
:105B3000F047B0486038FBF708BEC2072FD0800797
:105B40002DD4B1F8F2A2002522E0417DAB48694393
:105B500000EB41018946002015E000BF93F8F132C7
:105B6000012231F910605B1C06E000BF02FB070C4C
:105B7000521C31F91CC066449342F7DCA6EB0A02C2
:105B800029F81020401C23685F7D8742E6DC6D1CED
:105B9000206890F8B11008EB1111A942D5DCBDE8DE
:105BA000F04780210120FAF769BC2DE9FF4FDFF8AB
:105BB00044B24FF6FF74002681B08A46A046ABF18E
:105BC000600BB1466CE08B486038FDF72FFD8A4DC5
:105BD000286890F80A07C00708D0FDF718FF28B911
:105BE000BBF8021041F00201ABF80210296891F8ED
:105BF000C507C00701D0102200E00222ABF8002048
:105C0000019830F81620ABF83420BBF8022042F09F
:105C10000402ABF80220AFF22B2201F2C931CBF81B
:105C200008200A788BF83C20CA788BF83E204A7806
:105C30008BF842206E4D89788BF843100327C5F806
:105C4000049000BF6B4885F800906038FBF77DFD3D
:105C50006B46002280210120FAF74FFC80210120B1
:105C6000FAF73BFC287820B1FCF7AEFE7F1E002F30
:105C7000E8DC624802F0E3FD5F49096891F8C82357
:105C800012F00F0100D101211209424390B2B0FB82
:105C9000F1F0A04203D20199044631F81680761C37
:105CA000564590DB0398A0F800800498048005B066
:105CB000BDE8F08F2DE9F0414F4D06468846286833
:105CC0008CB000F2823C00F2963790F8810300F02D
:105CD0000F01C0F30214491C641C0A2900DD0A21CB
:105CE000022C00DD02240AAB09AA6046FFF75DFF23
:105CF000286890F8800380071AD5BDF82430012168
:105D0000ADF8003000204FF4803C6D4607E03A5675
:105D10001A44624502D225F81120491C401CA042B9
:105D2000F5DB012904DD0AAB09AA2846FFF73DFF90
:105D3000BDF824003080BDF82810A8F800100CB081
:105D4000BDE8F0817CB50020FAF777FC2C4C01A966
:105D50006846E588FFF7AEFF27480168BDF80400F4
:105D6000B1F8AC23824201D9A28000E0A080BDF846
:105D70000000E0802081854205D091F8801349071A
:105D800001D5FEF7FCFA1F49012008701E49087072
:105D90001E49002008601E490870FAF769FCBDF82A
:105DA000002029460A2004F074FE7CBD2DE9F8434A
:105DB000DFF844800F4CD8F80000603C00F2C3309C
:105DC0000588468807794FE00A486038FDF72EFCC1
:105DD000D8F8000090F80A07C00706D0FDF717FEB4
:105DE00018B9608840F002006080D8F8000011E027
:105DF000D0021000A844100038021000C0A70120F3
:105E00006C2510004E0210007C021000E803100008
:105E1000DB03100090F8C507C00701D0102000E098
:105E200002202080A586608840F004006080AFF2E8
:105E30004340A0600E48002141600E48FBF785FCFE
:105E40006B46002280210120FAF757FB80210120B8
:105E5000FAF743FB084802F0F2FC024629463120DB
:105E600004F034FEE81985B2B542ADDDBDE8F88333
:105E7000D002100048441000C0A701202DE9F041D5
:105E8000174604460D46002609E0E00703D03146D8
:105E9000384604F036FD761C6D084FEA340454EAA7
:105EA0000500F2D1BDE8F08130B5034600204FF087
:105EB000FF32012505FA00F40C4202D0521C9A422E
:105EC00003D0401C2028F5D3002030BDF0B50E468D
:105ED000F94C07460125D4E9151005FA06F20F2FF3
:105EE00065D2DFE807F064434B0810646419212988
:105EF000323A54585C003046FFF7D6FF8540A06A1E
:105F00000543A56253E001463046FFF7CDFF8540CB
:105F1000206C054325644AE03046FFF7C5FF854005
:105F2000E06A0543E56242E03046FFF7BDFF854089
:105F3000206B054325633AE001463046FFF7B4FF86
:105F40008540A06C0543A56431E03046FFF7ACFF07
:105F50008540606B0543656329E001463046FFF7E5
:105F6000A3FF8540E06C0543E56420E03046FFF781
:105F70009BFF8540606A0543656218E00146304634
:105F8000FFF792FF8540E06B0543E5630FE0A06BF0
:105F90000243A2630BE0206D0243226507E0014645
:105FA0003046FFF781FF8540606C054365642068DB
:105FB000401C2060F0BD10B501461822BF48FDF717
:105FC00006FB8021BDE810400120FAF757BA10B552
:105FD000FDF755F80446FDF7DDF8204310BD10B578
:105FE000FDF73FF84408FDF7B3F844EA50004000DD
:105FF00010BD2DE9F047894605464FF0FF34FFF705
:10600000E6FFAD4F024600207B6801464FF0010CD1
:106010000CFA01F6164200D0641CAC4206D1B9F16C
:10602000010F09D022EA06000B462021491C202935
:10603000EED37B60BDE8F0873046F5E72DE9F04709
:10604000894605464FF0FF34FFF7C9FF9A4F0246D5
:106050000020D7F8043001464FF0010C0CFA01F68D
:10606000164200D0641CAC4206D1B9F1010F08D031
:1060700022EA06000B461E21491C1E29EED97B6030
:10608000D8E73046F6E72DE9F34F9DB00446684661
:10609000FDF7CCFA18A8FCF761FBFFF7A0FF864ECE
:1060A00040087065FFF793FF854D4FF00C084FF0E7
:1060B0001F094FF0400A4FF0950BB065012C0DD031
:1060C0002027022C23D0032C27D0042C2AD0052CE7
:1060D00031D0062C4FD0082C65D073E0FDF78EF838
:1060E0000390FDF791F804900120ADF800008DF8C1
:1060F0001EB03C20ADF81C000398ADF81A808DF856
:1061000018908DF817A040087065049859E0FFF7C3
:1061100066FF0B90FFF75BFF14E0FFF758FF0121CC
:106120000C9003E0FFF753FF00210C901E98FFF73F
:1061300085FF0B9007E0FFF752FF0B9001211E989F
:10614000FFF757FF0C90ADF80070286800F55A7003
:1061500081788DF83C10C1788DF8421001788DF867
:10616000431041788DF844108188ADF834100089CF
:10617000ADF8360026E0FFF732FF0B90FFF727FF60
:106180000C90ADF80070286800F2613081788DF8CD
:106190003C10C1788DF8421001788DF8431040789A
:1061A0008DF844000EE00820ADF80000ADF81A802C
:1061B0008DF818908DF817A08DF81EB009987065AD
:1061C0000A98B06500208DF83E008DF83D00BDF8BE
:1061D00002108DF8140021F030018DF8160041F006
:1061E0004A01ADF80210AFF2312103260291012CD1
:1061F00013D0092C24D00A2C22D000BF8DF86A00BD
:106200008DF86C008DF86B00022C10D0032C0ED092
:10621000042C0CD0052C0AD012E0296891F84D17F7
:106220008DF8640041F003018DF86010E6E72868FE
:10623000B0F86E13ADF86610B0F87203ADF86800F0
:1062400018A8FCF7ACFA1D4C6846FBF77EFA1CABAD
:10625000002280210120FAF750F980210120FAF76D
:106260003CF92078002804D0FCF7AEFB761E002E07
:10627000EADC1FB0BDE8F08F2DE9FC5F00210120B2
:10628000FFF701FF0D484768FCF7B8FF0190FCF7E6
:10629000BBFF0090042101A8FCF71AFE064604216A
:1062A0006846FCF715FE844600200546DFF808B076
:1062B000DFF80CA0009059E0D8021000C044100094
:1062C000380210004FF00008C1465C462846DBF853
:1062D0005810FFF7E9FD014601208840A16C0842F3
:1062E00043D1012432E000BF04FB0C51DAF8000076
:1062F00037F9112090F86703B2EB001F25DA08F197
:106300000108B9F1000F00D1A146721E94421CD1C0
:10631000B8F1010F19D1ACF10102954204D1611E0F
:106320000120FFF7D3FD0EE007EB4101B1F9022098
:10633000B2EB001F05DB35B131F9021CB1EB001FD8
:1063400001DA002000E002208046641CB442CBDB6E
:10635000A6EB0901414508D829460220FFF7B6FD02
:1063600001200099A840084300906D1C6545A9DBF9
:1063700001253AE04FF0000844462CE0DBF84030BD
:10638000DBF8482000201A4311D0D9462046DBF81C
:106390005810FFF789FD014601208840D9F84810C0
:1063A000084203D1D9F84010084000D0012005FB75
:1063B0000C4137F91120DAF8001091F86713B2EBAD
:1063C000011F07DA30B901200099A040084201D12D
:1063D00008F10108641C6445D0DBB8F1000F03D05C
:1063E000691E0120FFF772FD6D1CB542C2DBBDE8DE
:1063F000FC9F2DE9F041FF4C00200546FE4FDFF8E1
:10640000FC83A0611EE029460520FFF73CFE2169C0
:106410000120BE6800EB410C36F91C10D8F80000D2
:1064200090F87703B1EB001F03D929460E20FFF740
:106430004DFD36F91C00A169884202DD36F91C00C9
:10644000A0616D1C60698542DDD32BE52DE9F04725
:106450000026374631460820FFF715FEE648E74D8F
:106460000021D0F80CC02868012400F5F57990F8D7
:10647000E82100BF04FA01F31A4208D03CF91130B8
:1064800090F87D83B3EB081F00DA761C7F1C491C53
:106490000629EFDBBE420BD190F8E611C90790F850
:1064A000E91101D00D2000E00C20BDE8F0470DE51A
:1064B000002E1CD00026286804FA06F290F8E81195
:1064C000114211D03CF9161090F87D23B1EB021F58
:1064D0000ADA90F8E60119F80610C00701D00C207E
:1064E00000E00D20FFF7F2FC761C062EE3DBA1E5B1
:1064F0002DE9F04100210620FFF7C5FDBE4800252B
:10650000BE4EBC4C87680EE0E0683168284437F91D
:10651000100091F86513B0EB011F03DD29460A2036
:10652000FFF7D4FC6D1C20698542EDDB00250EE0F1
:10653000A0683168284437F9100091F86613B0EB71
:10654000011F03DD29460B20FFF7C0FC6D1C6069AD
:106550008542EDDBA6E42DE9F041A64C002006467D
:10656000206237E031460420FFF78DFDA248002568
:1065700087682BE0FFF72BFD01462846FFF794FCC8
:10658000014601208840216C08421ED19B49A06829
:106590002844096807EB400030F9040C91F878139F
:1065A000B0EB011F07D931460820FFF78FFC2946C1
:1065B0000920FFF78BFCA068216A284407EB400004
:1065C00030F9040C884200DD20626D1C6069854250
:1065D000D0D3761C20698642C4D363E42DE9F04110
:1065E000844C00200546844FDFF81082E0611AE0F9
:1065F00029460320FFF747FDBE68B6F90210D8F818
:10660000000090F87603B1EB001F03D9294607205C
:10661000FFF75CFCB6F90200E169884202DDB6F9D9
:106620000200E0616D1C20698542E1D33AE42DE966
:10663000F04100210220FFF726FD6F486F4D6D4CA1
:106640008768286890F86003000713D500260EE0DD
:10665000E0682968304437F9100091F87413B0EB02
:10666000011F03D931460320FFF730FC761C206957
:106670008642EDDB286890F86003C00613D500263B
:106680000EE0A0682968304437F9100091F87513BE
:10669000B0EB011F03D931460420FFF717FC761C2D
:1066A00060698642EDDBD0E62DE9FC410020F9F778
:1066B000C4FF4FF4F83040F6FD010DF0DAF8FBF7B7
:1066C000B4FDFBF78DFDFBF7E3FC4A4C0020206096
:1066D000FFF785FC0090FFF77AFC019004216846E3
:1066E000FCF7F6FB0546042101A8FCF7F1FB014687
:1066F00000EB4500C4E90205C4E904513F4D286898
:1067000090F86003010701D4C00601D5FFF78FFFA1
:10671000286890F86003800601D5FFF75FFF2868BE
:1067200090F86003000601D5FFF715FF286890F880
:106730006003C00701D0FFF7DBFE286890F8601304
:10674000490704D590F8E80108B1FFF77FFE2868F3
:1067500090F86003400601D5FFF74BFE286890F8DB
:106760006003800701D5FFF787FD2068002862D00D
:10677000D4E90A359D43E562606AD4E90F1798436E
:10678000A8436062666CB943B143E163A26B216DBB
:106790009A43AA43256BB943AA43A263A26CB143AF
:1067A0009143AB43A362216501220021FFF766FB01
:1067B00002220021E06BFFF761FB03220021A06AA7
:1067C000FFF75CFB04220021206CFFF757FB072238
:1067D0000021E06AFFF752FB08220021206BFFF73F
:1067E0004DFB09220021A06CFFF748FB0A22002183
:1067F000606B05E0D8021000C044100038021000A1
:10680000FFF73CFB0B220021E06CFFF737FB0C226B
:106810000021A06BFFF732FB0D220021206DFFF756
:106820002DFB0E220021606CFFF728FB0020F9F7FA
:106830001FFFBDE8FC810021084604F062F8F5E77F
:1068400070B59C49002209684C7D0B7D651C5D4339
:10685000194603E030F91160491C3244A942F9DBC2
:106860005C4392FBF4F000B270BD2DE9F05F9149FA
:10687000914C09680B7D4A7D04EB43095A4300247F
:1068800091F86A6491F86954B1F84CA4B1F84AB42B
:106890002746234608B900263546002040F6FF7EED
:1068A00011E000BF39F910C0D44501DD641C02E0DD
:1068B000DC4500DA7F1CF44502D0BCF1000F01D1A9
:1068C0005B1C9BB2401C9042ECDB91F864C400223C
:1068D0007A489C4508D243785B1CDBB24370B342D4
:1068E00003D94270027013E04270BC4213DD03789A
:1068F000AB4203D203F1010303700DE0027042705A
:1069000091F84904400703D5BDE8F05FFCF71EBECF
:106910000120BDE8F09F02700020FAE770B5012069
:10692000FFF7A3FF654D0446012811D1644840F6E6
:1069300005020168114301600120A87061480168E7
:1069400041F4006101604FF480610120F9F796FD88
:106950005D48FFF775FFA880204670BD2DE9F04126
:10696000564E0024B07801281ED1584F0025002033
:10697000FFF77BFF68B10124FEF73FF978885249A1
:10698000FDF7E2F96D1C032DF1DB0020FCF740F868
:1069900008E0C12040EA042004F055F8012C01D1A0
:1069A0000BF0F3FB0020B0704748FFF749FFB080C1
:1069B000BDE8F081F0B53F49002003460968024672
:1069C000434F4D7D40F6FF7616E000BF37F9124089
:1069D000B44200D00CB95B1C9BB2B1F852C4644500
:1069E00003DBB1F84EC4644505DDB1F84EC464451F
:1069F00001DD01202A46521C9542E7D80022354F7E
:106A00000D7D15E037F91240B44200D00CB95B1C83
:106A10009BB2B1F854C4644503DBB1F850C464457B
:106A200005DDB1F850C4644501DD01202A46521C41
:106A30009542E7D891F85E14994201D20120F0BD49
:106A40000128FCD00020F0BD2DE9F041804622480D
:106A50000026374600888005AAD5002504E0012CD1
:106A600002D14046FDF75AFBFFF7A4FF0446012878
:106A700006D1FEF7E7FD01266D1C032DEFDB17B1F4
:106A8000012E0ED00FE00120FBF7C2FF7821134842
:106A90000CF0EFFEBDE8F0411048802178300CF09A
:106AA000E8BE0BF072FBBDE8F041C22003F0CBBFA3
:106AB0007EE7000038021000D40B100034031000F1
:106AC0004002100044021000560001206C25100006
:106AD000C8A6012040A701204802100040AF0120B5
:106AE00008B55F4D5F4E604F0024287880B10128C3
:106AF000FBD16B46002246F27D71F9F7FEFC00984F
:106B0000C1071ED001210846F9F7E7FC2C70ECE71D
:106B100001210020FCF779FB6B46002202210120B5
:106B2000F9F7EBFC01210846FCF76FFB00988007A2
:106B3000DBD546F27F710120F9F7CFFC01202870E8
:106B4000D3E701070CD508210120F9F7C6FC002086
:106B5000F9F773FD0620F9F770FDFEF74EF80DE02A
:106B6000410712D504210120F9F7B7FC0020F9F7FD
:106B700064FD0620F9F761FDFEF764FD0620F9F7D4
:106B800077FD0020F9F774FDAFE7C10606D51021A7
:106B90000120F9F7A2FCFEF7E6FEA6E7810606D57E
:106BA00020210120F9F799FCFFF7CCF89DE7C105FA
:106BB00007D54FF480710120F9F78FFCFEF705FE31
:106BC00093E7810507D54FF400710120F9F785FCA3
:106BD000FFF7ECF889E7410606D540210120F9F7D7
:106BE0007CFCFFF761FD80E741052FD54FF4806104
:106BF0000120F9F772FC1D481D490460D1F800809E
:106C00000C604046FDF7C7FA5FEA887001D500F0D6
:106C10009DFBA8F54071B73904D1052003F013FF9F
:106C2000346011E05FEAC87006D0306840F01500AB
:106C300003F009FF346058E718F0420FA4D0386819
:106C400040F0060003F0FFFE3C604EE780049BD559
:106C50004FF400510120F9F740FCFDF733FC44E705
:106C60003A0310004402100048021000F80310001C
:106C70004002100070B5FF4800240470FE48047004
:106C8000FE480470FE480470FE4804700120FE496E
:106C9000FF4D0870FD4908702C616C61AC802C7050
:106CA000FF20EC61E880FB480068B0F85211A98130
:106CB000B0F8540168813C21F7480CF0DAFD40211E
:106CC000F6480CF0D6FD3C21F5480CF0D2FDF44816
:106CD00040213C300CF0CDFDAC70EC70BDE8704054
:106CE00001F016B830B50024234605E030F9135002
:106CF0008D4200DD641C5B1C9342F7DBE5480068B5
:106D000090F86101A04201D2012030BD002030BDC9
:106D1000F0B5064600200446059F0CE036F91450F5
:106D2000D3F800C0AC4501DA1D603C7010B9954243
:106D300000DD0120641C8C42F0DBF0BD30B585B075
:106D4000D44C01A800902068002503ABB0F9522173
:106D5000017DD448FFF7DCFF50B123689DF80400A3
:106D600093F88A2102F00F01814219D81B7D14E0AB
:106D700002A80090206804ABB0F95421417DCA48B4
:106D8000FFF7C6FF68B123689DF8080093F88A21D1
:106D900002F00F01814203D85B7D591A814200DA6B
:106DA000150905B0284630BDFEB5BA4801AB5022E2
:106DB000006890F88911B0F9877101F00F060C098D
:106DC000B0F9855102A90091017DB648FFF7A0FFF7
:106DD0000198B84201DD3046FEBDA84201DA2046E6
:106DE000FEBD401B311B4843791B90FBF1F0204452
:106DF000FEBD30B5AD48A74D0478286890F8510124
:106E0000800703D5FFF7D0FFA4EB0004286890F8B3
:106E10005101400702D5FFF791FF0444002C01DA2D
:106E2000002402E00F2C00DD0F24204630BD30B5D9
:106E300064290DD00023642408E000BF30F913500A
:106E40004D4395FBF4F520F813505B1C9342F5DBA2
:106E500030BD70B5002364250AE0CC5C642C06D0FC
:106E600030F91360664396FBF5F420F813405B1C81
:106E70009342F2DB70BD2DE9F04700258946294693
:106E80002F462E46A8462B460DE000BF30F913C012
:106E900039F913400CFB0C660CFB047704FB0488E7
:106EA000654421445B1C9342F0DB87FB020485FBB5
:106EB000013CC71A86FB020385FB056564EB0C04E5
:106EC000B0EB060C63EB050688FB020381FB012196
:106ED000851A63EB01086421A7FB010304FB013160
:106EE000002207FB0211334662460CF051FC0246B9
:106EF000A2FB070301FB073102FB04112A464346AC
:106F00000CF046FC002C00DA4042BDE8F08730B5BA
:106F100047F6F873002405E030F91450AB4200DD69
:106F20002B46641C9442F7DB002405E030F8145033
:106F3000ED1A21F81450641C9442F7DB30BD70B593
:106F400003460020024601EBD17408E003EB420641
:106F500033F91250B6F90260AD1B2844521CB2EB53
:106F6000640FF3DB621008E003EB420533F91240D3
:106F700035F9025C641B2044521C8A42F4DB70BD6C
:106F8000F0B587B00746434C03A8009020689C46A4
:106F90008E461646017D002504AB0FFA8CF2704632
:106FA000FFF7B6FE01283BD102A80090206805AB90
:106FB00032B2417D3846FFF7ABFE012830D1DDE922
:106FC000041081424FF0640203DD504390FBF1F165
:106FD00002E0514391FBF0F1206890F892218A423F
:106FE0001EDD9DF8081019B990F89121D20716D02E
:106FF000427D521E8A4203D190F8911189070ED525
:107000009DF80C1019B990F89121520707D5027D0F
:10701000521E8A4204D190F89101000700D4012544
:1070200007B02846F0BD2DE9F04185B0804601202B
:1070300001900290174C04A8009020681E468C46D0
:107040001746017D002501AB32B26046FFF760FEB6
:10705000064603A80090206802AB3AB2417D404644
:10706000FFF756FE012E01D0012831D1DDE90110D4
:1070700081421DE05C0210007A0210007B021000C9
:107080005D0210005E0210007C0210007E02100003
:107090003C0310003802100054A5012090A50120E7
:1070A000FC2F012074340120383401207F021000AD
:1070B0004FF0640203DD504390FBF1F002E05143D6
:1070C00091FBF0F0216891F89211814200DD0125D9
:1070D00005B02846BDE8F081F0B40446FE480B46F2
:1070E000802100680D4690F8680110B10146C0F596
:1070F0008075FA480089032805D22146F0BC520069
:107100001846FCF764BA00200FE000BF33F91060A6
:1071100034F910704E4307FB0566F71706EB176648
:1071200046F30F2623F81060401C9042EEDBF0BCC3
:107130007047F0B50024E84D0FE030F8146031F8E6
:107140001470012B0CD0F61B2F6897F86D717F42DD
:1071500006EBC70620F81460641C9442EDDBF0BD1A
:107160003E442F6897F86D71F2E72DE9FC47DB4D3F
:1071700080460026288990B93C22D949D948FCF795
:1071800026FA4022D849D948FCF721FA3C21D848B0
:107190000CF06FFBD64840213C300CF06AFB28898C
:1071A0000127CD4C032802D2D248077013E012D930
:1071B0002168B1F86B2182420DD94B7DC94ACC4977
:1071C000C74801F056FF2068C949C84A037D3C31D1
:1071D000C54801F04EFF206890F85011427D090724
:1071E00010D590F88D11CDE9001290F88B31C24A7C
:1071F000BB494046FCF71DFB2068BD49427DB839BC
:10720000BD4802E0BA494046B839FFF765FF20683B
:10721000B34A90F85011437D0907B84901D5B648E3
:1072200000E0404601F025FF2068AD4AB349437DA8
:10723000AF48B83801F01DFF206890F85011C9061A
:1072400010D5427D90F89612AC48FFF7F0FD21680A
:1072500091F85001C00605D54A7D01F51C71A7487B
:10726000FFF7F7FD2268B2F85411B2F86901B2F8DD
:107270007F4101440BB229898C4201D2184403B2E8
:1072800000200446DFF878C2DFF87092527D1CE0DF
:1072900039F91080984515DD761C022E13D96878CF
:1072A000401C40B26870002804DD96488CF80070DD
:1072B0006C70077047F6FF70814201D2491C29812A
:1072C000BDE8FC870026401C00B28242E0DC6C7006
:1072D0008CF80040EEE7034610B50020024603E0BC
:1072E00033F91240521C20448A42F9DB10BDF0B53C
:1072F000794D0F4600262968497DFFF7ECFF0446CB
:107300002868017D3846FFF7E6FF002C00DA64426A
:107310002A6800237149D2F89C52AC4206D8002852
:1073200000DA4042A84201D80B620DE0086A401C16
:10733000086292F89B22824206DC734801260268AA
:1073400042F4003202600B623046F0BD62480068D1
:1073500090F89011890606D5604901220A7090F8CC
:1073600095211209CA6190F8F002C00701D001F01E
:10737000E1BF70471CB559490020098901B90120B6
:107380001021554CCDE9001020680F235F49427D44
:107390005F4801F026FE20685C49437DB0F9AE21CC
:1073A0005B48FCF730FA012800D000201CBD2DE915
:1073B000F34F002085B08246054607460290554CA3
:1073C000401E03902078DFF83CB14FF000084FF0EA
:1073D000010901281CD0404E306890F82010C906E1
:1073E0001DD590F825104C480288914217D2A0F87C
:1073F00000804A48016841F0220101604FF4806139
:107400000120F9F73BF88BF8009007B0BDE8F08F4A
:107410008BF8009000F07CFC84F80080F5E70320F6
:10742000F9F70BF93E482D4C007801287ED02089D1
:10743000012813D9306801232D49427D2848FFF7E0
:1074400078FE30682A490123027D3C312648FFF747
:1074500070FE3068334990F8FD02087000202081EA
:10746000FFF7C7FCDFF89CB0019021499BF80000B2
:1074700000903068B046B839427D019B059801F014
:107480008DFD9BF80000009030681949019B027D3A
:107490007C39069801F082FD234E30780A287BD093
:1074A0000F2802D200F101003070D8F800004646E3
:1074B00090F85011090745D5427D90F88D11CDE91E
:1074C00000120B4A90F88B31B83A05491046FCF788
:1074D000B0F93068027D2AE0380210003C03100049
:1074E000E2290120DA2A01201E2A0120162B012080
:1074F000802F0120D00310000845100038340120EF
:107500005E0210007C02100048021000FE2D0120D7
:10751000C22D01207E0210004C021000400210001B
:107520004F021000750310007D02100025E090F856
:107530008E11CDE90012FF4A90F88C31FE491046B9
:10754000FCF777F93068FD4AFD49437DF9483C383E
:1075500001F08FFD3068F84AFA49037DF54801F0E3
:1075600088FD306890F89101000625D5F549F4486A
:10757000FFF7BDFE01281DD01EE0306890F85101D4
:10758000C00605D5FFF7F6FEEF490128087004D0C4
:107590000598FFF7EAFD04E007E084F801808BF826
:1075A00000900320F9F764F82FE70D2003F04BFA61
:1075B000142079E7012002900320F9F759F8306888
:1075C000DFF88883B34690F8901109074CD5D94964
:1075D000427D5E464031DA48FFF799FC3068D54974
:1075E000427D403100F57470FFF745FC6061306802
:1075F000417DD0484030FFF7A2FCA0616369864618
:10760000322B1CDDCB48DBF800204030B0F90060A5
:10761000B2F854118E4207DD92F815C000EB4C0C05
:107620003CF902CC8C4509DC49428E4207DA527D96
:1076300000EB420030F9020C884200DA0125DBF849
:10764000000090F8941199420EDAB0F8AC2172451E
:107650000ADA90F89001400600D50127D8F800100A
:1076600041F48051C8F80010DBF800005E4690F845
:107670005011C9061AD5427D90F89612B048FFF70E
:10768000D6FB3068027D90F8E012AE48FFF7CFFBE2
:107690003068427D90F89712AD48FFF7C8FB30681C
:1076A000027D90F8E112AB48FFF7C1FB306890F81B
:1076B0009011890710D5B0F85231B0F85421A14982
:1076C0009F48FFF75DFC012806D1D8F8001001277C
:1076D00041F40051C8F80010306890F89111890603
:1076E0000AD5B0F85231B0F8542196499448FFF7C2
:1076F0009AFC012800D10127306890F891114906C1
:1077000017D5B0F95421417D8D4801F0CFFC0228F6
:107710000DD870B13068417D894801F0DBFC02462C
:107720003068417D864801F0C1FC022801D901275B
:107730003D46316891F89001820705D4000703D4D3
:1077400091F8910180060BD5012F09D1B4F90400FD
:1077500000280ADB401E00B2A080002805DCBA46E3
:1077600091F8950100F00F00A08091F85001C0063B
:107770001AD54A7D01F51C717148FFF76AFB316823
:1077800070480A7D01F52871FFF763FB3168704886
:107790004A7D01F52171FFF75CFB31686D480A7D78
:1077A00001F53071FFF755FB306890F8501109066C
:1077B00011D5CDF80090437D4F46674A6749604830
:1077C00001F02DFC00973068634A6549037D5D48F0
:1077D00001F025FC0CE0407D594942005F48FBF771
:1077E000F6FE30685749007D42005D48FBF7EFFE2A
:1077F000306890F89111C90627D503A90091427D00
:10780000B0F8AC31521E00214D48FCF76EF801284B
:1078100015D10399012904DB3068427D921E8A420A
:107820000EDAE0880125401E00B2E08000280CDA64
:10783000D8F80010AA4641F48051C8F8001030680A
:1078400090F8950100F00F00E080306890F8511139
:10785000C9070CD0B0F95E21417D404801F017FC0A
:107860003068B0F95E21017D3D4801F010FC3068C0
:1078700090F85011490713D5CDF80090364A437D52
:107880004F460A3A3749354801F0C9FB009730683E
:10789000314A3549037D0A3A314801F0C0FB0CE01A
:1078A000407D2E4942002F48FBF791FE30682C495D
:1078B000007D42002C48FBF78AFE306890F8911159
:1078C00089060FD5B0F85231B0F854212649254821
:1078D000FFF7A9FB012805D1D8F8001041F4804139
:1078E000C8F80010306890F8911149061BD5B0F91E
:1078F0005421417D1B4801F0D9FB02280DD890B1DD
:107900003068417D174801F0E5FB02463068417D53
:10791000144801F0CBFB022805D9D8F8001041F437
:107920000041C8F80010114F0B23387800903068E0
:10793000427D1DE0042F01201E2A0120E2290120A2
:1079400008451000444510005D0210004802100078
:1079500054A5012090A501206A0310008445100061
:10796000C045100038340120743401207C0210001E
:10797000D349D44801F012FB387800903068D049E0
:107980000B23027D3C31D04801F008FB326823789C
:10799000B2F85211B2F85401012B04D0CB4B1B7832
:1079A000012B09D010E0B2F8983103B11946B2F8B2
:1079B0009A314BB1184607E092F85731C91A92F83C
:1079C000563189B2C01A80B2C14B1B783BB192F8D4
:1079D000A331184492F8A43180B2194489B20FB28D
:1079E0000FFA80FC0097A781A4F80AC0B346527D25
:1079F0006146B848FFF776F90646DBF800003946DD
:107A0000027DB548FFF76EF90746B4486146067037
:107A1000B3480770DBF80000427DA948FFF762F920
:107A200001281AD0A07820B1401EA070AB480026D3
:107A30000670DBF800000099027DA1483C30FFF79A
:107A400051F901281BD0E07820B1401EE070A44815
:107A500000270770012E25D026E0DBF80000002566
:107A60003C2290F8951101F00F01A18090F86E0171
:107A7000A07093499748FBF7AAFD0126D9E7DBF8E8
:107A800000000025402290F8951101F00F01A1801F
:107A900090F86F018A49E0703C318F48FBF797FD01
:107AA0000127D7E7012F0BD08E49002008708E499F
:107AB0000870206900281DDD401E20610DD019E0EE
:107AC000884880F8009081480078012812D1DBF8BE
:107AD000000090F8970120610CE0DBF8000090F8BE
:107AE0009001C00606D5D8F8001041F40061C8F82E
:107AF000001002E0029801280CD17C48016841F096
:107B0000220101604FF480610120F8F7B7FC784949
:107B100081F80090BAF1010F0CD17448016841F06E
:107B2000420101604FF480610120F8F7A7FC704921
:107B300081F80090DBF800005E4690F8901189060D
:107B400024D52178012921D1E169002915DD427D63
:107B5000B0F954115F48FFF7C5F807463068027D59
:107B6000B0F952115C48FFF7BDF807B100B94DB14B
:107B7000306890F895010009E0615A4800780128C2
:107B800007D017E0E069401EE061F6D100202070C8
:107B9000F3E73068B4F9041090F8950100F00F0095
:107BA000884207D1002D7FF439AC4B49494800F099
:107BB00035FD2AE400F00FFB27E42DE9FC4188465F
:107BC0000746FFF716F94A4E05464A4C30780090B2
:107BD00020682B464849427D384601F0DFF930786D
:107BE0000090206844492B46027D3C31404601F01C
:107BF000D5F9206890F85011090719D5427D90F801
:107C00008D11CDE900123C4A90F88B313B4910466A
:107C1000FBF70FFE2068027D90F88E11CDE900126F
:107C2000354A90F88C313C3235491046FBF701FE5D
:107C30002068324A3349437D2F4801F01AFA206800
:107C40002F4A3149037D2C483C3001F012FA20685C
:107C500090F85111C9070CD0B0F95E21417D294837
:107C600001F015FA2068B0F95E21017D264801F087
:107C70000EFA206890F85011490711D5012500959A
:107C8000437D224A13491F4801F0C9F90095206835
:107C90001E4A1149037D1C4801F0C1F9BDE8FC8171
:107CA000407D184942000B48FBF791FC20681649BB
:107CB000007D02B04200BDE8F0410748FBF787BCF9
:107CC000FC2F012054A5012090A50120780210006E
:107CD0006102100038340120743401207A0210004F
:107CE0007B0210005C0210005E02100040021000D7
:107CF0007C02100038021000C82E0120E229012069
:107D00001E2A012084451000C045100060031000A9
:107D1000F9490020FA4A0870F849C860086188806B
:107D2000C88008701070F74A487010708870088119
:107D30004881704730B5F44A00241268937EDD070D
:107D400092F882310BD0834217DC158BEB1A8342F9
:107D500013DB92F8830188420FDCD28A0AE0834267
:107D60000BDCD58AEB1A834207DB92F88301884249
:107D700003DC128B101A884200DA0124204630BD41
:107D80002DE9FE4314460D460646072B09D0DB4875
:107D9000092BB0F9041006D03180C1882980007801
:107DA0001070BDE8FE833288ADF802202A88ADF855
:107DB00000202778ADF806108146C088ADF8040091
:107DC00001AA694602A809F0F1F802A809F0E6F84C
:107DD000DFF834830346D8F800C09CF87401BCF87F
:107DE000762100F00F01BCF878C1000952430CFB6A
:107DF0000CFC93420BDD634501DB084607E09B1A50
:107E0000411A4B43ACEB020193FBF1F1401ABDF96F
:107E10000230C0F11001B9F904C04B4300FB0C3330
:107E200043F30F133380BDF900304B43B9F906100B
:107E300000FB013040F30F102880D8F8000010211B
:107E400099F8002090F87501A1EB10117943000911
:107E500000FB0210C0F307102070A2E75FF00002E1
:107E600000EB82035B6840F82230521C052AF7DBE6
:107E7000416170472DE9F04F002793B080463E46A0
:107E80003D46FFF7EBFF002158F821000744484327
:107E900000FB0155491C06440629F5DB974C099760
:107EA000143460680A90A068CDE90B0620690D9033
:107EB0006069CDE90E05E0691090206A119009A86B
:107EC000FBF728F8834603912068CDE90907A068ED
:107ED0000B90E068CDE90C0660690E90A069CDE9D1
:107EE0000F05206A119009A8FBF714F88146206855
:107EF00009906068CDE90A07E0680C902069CDE937
:107F00000D06A0690F90E069CDE910058A4609A821
:107F1000FBF700F80326A9FB06570A460AFB067181
:107F20000926A0FB0637002409FB041402FB067295
:107F3000002100FB0120EA184441039912EB0B00D9
:107F400061414FF4756200230BF022FCC8F80C006D
:107F500013B0BDE8F08F30B56B4A01241268937EF0
:107F6000DD0792F87A310BD0834217DC158BEB1AC0
:107F7000834213DB92F87B0188420FDCD28A0AE04D
:107F800083420BDCD58AEB1A834207DB92F87B0134
:107F9000884203DC128B101A884200DA0024204643
:107FA00030BD2DE9F047DFF860910546534CD9F814
:107FB00000008AB00E4690F870019A4617464FF0BE
:107FC0000008C00728D0082D26D094F90200062802
:107FD00019DB11463046FFF7BEFF00284B483146FB
:107FE00009D0FFF747FF06B2484839461830FFF777
:107FF00041FF07B210E0FFF731FF4448394618301F
:10800000FFF72CFF08E0401C404940B2A07041F847
:108010002060183141F82070ADF80060ADF80470B0
:108020008DF814A02B4605AA01A96846FFF7A8FE03
:10803000072D2DD0092D2BD1D9F8001091F8700102
:10804000400725D5B4F90420BDF90000101A00D569
:10805000404291F87C3198420EDAB4F90630BDF90D
:108060000400181A00D5404291F87D61B04203DA4D
:10807000ADF80020ADF8043022789DF81400101AF5
:1080800000D5404291F87E11884201DA8DF8142023
:10809000D9F800004E464FF0000790F87001000636
:1080A0000FD5082D0DD0BDF90410BDF90000FFF764
:1080B00041FE8046012804D1306890F87111C9074B
:1080C0000DD0BDF90010A180BDF90420E2809DF81B
:1080D00014C084F800C0B8F1010F2FD066E0072D5E
:1080E00018D00B49097831B390F8A601401CE06024
:1080F00000200AB0BDE8F087780210007403100079
:108100005C0210005E02100038021000D84410001B
:1081100061021000FE490F7090F89001C007E7D08F
:10812000FC48016841F0220101604FF480610120A8
:10813000F8F7A4F9DCE790F87301D7E7306890F816
:108140007131DB0732D0837EDB0790F8823113D0A8
:108150008B4201DDADF80030018BC91ABDF900304A
:10816000994201DAADF8001090F88311914201DDD7
:10817000ADF80410C08A12E08B4201DDADF800308A
:10818000C18AC91ABDF90030994201DAADF8001070
:1081900090F88311914201DDADF80410008B401A74
:1081A000BDF90410884201DAADF804000397BDF868
:1081B00000000297ADF80E008DF80850BDF80400DD
:1081C000ADF80C008DF80AC08DF80B7002A802F013
:1081D000B3FA01208DE7D04810B50178CF48006888
:1081E00049B190F9A611CA480278CD48012A05D0B4
:1081F000002101610DE090F97311F4E7C268521C8F
:10820000C2608A4208D300231A4619460820FFF7A5
:10821000C8FEBDE810407BE510BDF0B50746DDF8AF
:1082200014E037F912404FF0FF30744501DA0024B2
:1082300000E01046012517E0561B07D437F916C099
:10824000F44503DDA44501DD304664465619A1F12D
:10825000010C664507DC37F916C0F44503DDA4457B
:1082600001DD304664466D1C9D42E5DDF0BDAB4945
:108270000A68B2F8641181420DDAB2F866218242CE
:1082800001DCFF207047401A521AC0EB002090FB1F
:10829000F2F00028F6DC01207047F0B5002401253B
:1082A000A1F101060BE0571B02D430F917703C44D2
:1082B0005719B74202DC30F917703C446D1C9D42DF
:1082C000F1DD012A02DB891E8A4200DD640030F9FB
:1082D00012002044F0BD2DE9F047904D14469A4617
:1082E0002E6830F91420814602FB04F00123A1F12D
:1082F000010196F862C117E0E51A08D439F9157042
:10830000B6F85E81474502DB07FB05003A44E518F5
:108310008D4208DC39F91570B6F85E81474502DBFD
:1083200007FB05003A445B1CB3EB1C1FE4DD4A432A
:1083300080FB0A01D3170BF02BFA00B2DAE62DE925
:10834000F05F8B46D0E900159146002280689A467E
:1083500013464FF48034814202DD02460B4602E0B0
:1083600001DA0A460346A0EB01014FF4803CA1FB71
:108370000C084FEAE17707FB0C874FF000062B440F
:10838000C2F1000201FB067103EB42024FEAE27305
:108390000BF0FEF94FF48036A9FB063C4FEAE97575
:1083A00005FB06C51B18A3FB0A06002709FB07529D
:1083B0004A4102FB0A614FEAEA7503FB05112246B6
:1083C0003B460BF0E5F95A464FEAEB730BF0E0F948
:1083D00000B2BDE8F09F2DE9F04F93B00C46824605
:1083E00017469946002518210CA81C9E0BF063FA2D
:1083F00000200290039004902EB94848006890F83D
:10840000620100F00F06BA1B07EB060300D500223D
:10841000661EB34200DD631E0CA95046FAF7E9FD63
:108420004FB1B7422FD13D48006890F85101800606
:1084300013D54D466BE03948006890F8510180062D
:1084400065D4BAF904000290BAF900000390BAF9B1
:1084500002004B46012204900DE00AEB44007F1C11
:1084600030F9061D0291B0F904100391B0F9020031
:108470004B463AB20490611E02A8FFF760FF99FBD9
:10848000F6F1451A43E0DDE910B1B1F100084BDA2D
:10849000DDE90C2352EA030046D0DDE90E01059127
:1084A0000890002940DB1D48056895F850014006FA
:1084B00011D5584641460BF06BF9002800DA4042CE
:1084C00095F86311884206DA4B463A4621465046F3
:1084D000FFF701FF1AE01BEB0B01A1FB062448EBA1
:1084E000080000FB0640F31701FB030308980599F9
:1084F0004542A5FB0907002464EB010404FB097154
:108500004FEAE97605FB06110BF042F9054609E052
:1085100078021000400210006102100038021000C2
:108520007403100028B213E5B8F1000FCCDADDE9CE
:108530000C010843C8D00F980028C5DBE7E738B521
:10854000AA4D049C2D6895F85051AD0603D50094B2
:10855000FFF741FF01E0FFF7BEFE00B238BD2DE995
:10856000F04700249A46CE1E81462346A44627465D
:108570002546022A03DBB24201DC1046BAE50020A0
:10858000491E07E039F91080B8F1000F01DDC4443D
:108590007F1C401C8842F5DB9CFBF7F7022A12DAAD
:1085A00010460DE039F91060BE4203DA3CB90446CA
:1085B000002304E01CB19E4201DD33460546401C09
:1085C0008842EFDB14E0B24212DD10460EE000BF3D
:1085D00039F91010B94203DA3CB90446002304E02B
:1085E0001CB1994201DD0B460546401E0228EFDC16
:1085F000534500DA154628467CE530B5044630F987
:1086000011300020491C06E034F911509D4201DD73
:108610002B460846491C9142F6DB30BD2DE9F34F4D
:10862000724C85B0226892F88451567D05F00F0394
:108630005F4206EB470606F0FF0B167D2A095542FE
:1086400000EB430006EB45050590EDB201EB42005F
:1086500001952A4600210690FFF7CFFF05465A46AE
:1086600000210598FFF7C9FF06462068604F90F883
:108670007001800607D5B7F900302A46019906989F
:10868000FFF76DFF05462068DFF868A190F87001DC
:10869000C00607D5BAF90030324659460598FFF7AB
:1086A0005EFF0646DFF85091DFF8508199F8000030
:1086B000012828D1206890F86001010723D0010922
:1086C00021D0B7F90010009100F00F03B8F908208D
:1086D00001990698FFF7A1FD0746BAF9000000903E
:1086E0002068B8F90A20594690F8600103090598F6
:1086F000FFF793FD002F01DB002802DAFFF76BFD87
:1087000001E03D4606462FB232B2A8F80870A8F83C
:108710000A200026009620685946B0F918300598BE
:10872000FFF70DFF0096039020683A460199B0F9D3
:1087300016300698FFF703FF0290206890F870014A
:10874000800704D5032203A902A805F073F803A942
:1087500002A8FBF727F801232A4601990698FFF79C
:108760009CFDFFF784FDC3B22548007800282068EF
:1087700010D090F9A51198F801204046521E52B22F
:1087800088F80120002A08DB226892F8FC221144B4
:1087900049B204E090F97211EDE7FF22427099F8B6
:1087A000004005690CB96D1C05618D4219D340F27A
:1087B000FF110161C8F80C6044B1039802B202983D
:1087C00001B20920FFF7EDFB48B10AE0012089F86A
:1087D0000000039802B2029801B20720F2E7FFF707
:1087E000FAFC07B00120BDE8F08F0000380210004D
:1087F00048031000460310007802100074031000B4
:1088000061021000E448E54A0068B0F8AC139180BA
:10881000E34990F8B10308817047E1490020DE4A3E
:108820008880C880C86048801268DE4B92F85C215E
:1088300012091A7008610870DB49087070472DE949
:10884000F043A1B0814602AF782138460BF033F8EF
:10885000D1480123016891F8B1204C7D91F8A01115
:1088600003EB1216890715D50025804610E000BFDE
:10887000D8F8001005FB04F009EB40004A7D91F8A0
:108880008B31CDE9003249460246FAF7D2FF6D1C22
:10889000B542EDDB002010E000FB04F2002109E00E
:1088A00002EB010C57F8215039F91C302B4447F8E2
:1088B0002130491CA142F3DB401CB042ECDB00201C
:1088C00007E000BF57F8201091FBF6F147F82010A1
:1088D000401CA042F6DB00200121A4F1010517E0B5
:1088E0004FF0000C63460BE003FB041839F9182025
:1088F00057F82180B2EB080200D5524294445B1C29
:10890000B342F1DB9CFBF6F2824200DD1046491CCB
:10891000A942E5DBB0F5803F04DB4FF6FF7021B0E4
:10892000BDE8F08380B2FAE730B59B499D4B0968FA
:1089300091F85021920725D59B4A12784AB191F8B7
:10894000A74104F00F022509B1F8A841B1F8AA1116
:1089500007E001F5AC710C7904F00F0225090C88D1
:108960004988A04201DC1A7030BD884201DB1D70CD
:1089700030BD001BAD1A6843091B90FBF1F0104499
:10898000187030BD91F85C0100F00F00F8E72DE998
:10899000F041814D814A2E6896F88013B6F8AC33C9
:1089A000C9073DD096F8AF4304B90124918896F8E1
:1089B000AEC3CF1A07FB0CF797FBF4F4B6F8AA7313
:1089C0000F442744764CB8420ADD002620210120BE
:1089D000E660F7F753FDE680286890F8B10306E0FB
:1089E000814202D9704D2D7825B196F8B1032081CE
:1089F000BDE8F0816D4D2D78002DF9D1B4F9085006
:108A0000002D01DD6D1E25812489002CF0D1891EE9
:108A1000814200DA01468B4200DD19469180E7E78A
:108A20009380E5E75C4A10B514680021B4F8A121F1
:108A3000824204D294F8B000800700D50121584842
:108A4000594B0278914211D1197891420AD0574C72
:108A50002478224307D00169491E0161002901DC05
:108A60000078187010BD01700169F7E739B194F80A
:108A7000B22002610170002AF4DC197010BD94F874
:108A8000B320F6E7444910B5096891F8B010CA065A
:108A9000434918D5464A14780A46D388C3EB0312D3
:108AA0005200012C05D0C41A002C0CDC3F4C247859
:108AB00024B102EB4000C0F34F1004E0C3EB83127B
:108AC0001044C0F38F10C88080B210BD10B5FFF7FE
:108AD000B6FEFFF7D7FF324CA080FFF7A3FFA088B8
:108AE000FFF722FFA088BDE8104050E7F0B43049FE
:108AF0000B782B494A88B3B1322A01D2521C4A80E2
:108B0000254A0125136893F8B1405B7D05EB1415E8
:108B1000CC6894FBF5F605FB1644264E634306EB42
:108B2000430700230BE0012AEAD9521E4A800022A3
:108B3000CA60E5E730F813C027F813C05B1CD2F811
:108B400000C09CF815C09C45F4DCCB685B1CCB6076
:108B5000136893F8C577FF0707D05B7D641C5F003F
:108B6000634306EB4304002307E0C8680CE0FE18EB
:108B700030F8166024F813605B1C1668767D9E4200
:108B8000F5DCC868401CC860A84202DBF0BC09489C
:108B90009CE7F0BC70470000380210006C25100004
:108BA000AC0310007F021000610210005C02100094
:108BB0004F02100078300120DE490020C860886034
:108BC0004860DD490870704710B500230BE000BF16
:108BD00030F91340002C00DA64428C4201DD0120A0
:108BE00010BD5B1C1BB29342F2DB002010BD70B5C0
:108BF000D24CD34AD3492068437DD34800F039FA98
:108C00002068D24AD249037DD24800F032FA206867
:108C1000427DB0F99812CB48FFF7D6FF0546206891
:108C2000027DB0F99812CA48FFF7CEFF0022C14971
:108C3000012803D0012D01D04A6070BD4868401C56
:108C40004860236893F89A328342F6DCC24803688E
:108C500043F480330360C1484A60016841F0220157
:108C60000160BDE870404FF480610120F7F706BC59
:108C700070B50546002003460CE000BF35F91340EF
:108C800031F91360A41B00D5644224B2A04200DA7B
:108C900020465B1C9342F1DB70BD2DE9FF4FA74ED0
:108CA0008146B9F1010F306808D0AD4DAD4B047D60
:108CB0000020DFF880B24FF0010A64E0AA4DAB4B10
:108CC000447DF5E735F8101033F91070DFF8A0C2D5
:108CD000C91B0AB29CF800C00021BCF1010F05D0ED
:108CE000002A08DADBF80C2012B116E0114614E075
:108CF000029949420DE0DBF808C0BCF1000F0CD12D
:108D00000199DDF80CC009B2624506DD0D998A4271
:108D100001DD09B201E00FFA8CF107EB010223F843
:108D20001020376897F8802352072BD5B9F1010F2F
:108D30004FF0000202D0DFF81CE21DE0DFF808E28D
:108D40000AE000BFC2EB02180EEB880C521C3CF884
:108D5000108088442CF8108097F880830AEB981CC8
:108D60009445EFDC0EE000BF0EEB821C521C3CF879
:108D7000108088442CF8108097F880830AEB981CA8
:108D80009445F1DC401CA0429CDBBDE8FF8F2DE93F
:108D9000F84F6A4D674C00262A684FF0010A92F896
:108DA0002300527D00F00F077248017801293FD05F
:108DB000804600913B466C496F4800F0EFF898F808
:108DC00000000090286866493B46027D6B4800BF62
:108DD00000F0E4F86A48007840077DD569480078DB
:108DE000B8B3A660E660286890F82C10B0F82F9011
:108DF000B0F833700C0901F00F08427D5B496248FE
:108E0000FFF736FF844628685649027D5F48FFF722
:108E10002FFF2968484AB1F85431BCEB530F04DCEA
:108E2000B1F85211B0EB510F45DD82F800A043E0DC
:108E30002680D0463B464C494C48CDF800A000F077
:108E4000ADF8CDF8008028683B464549027D45488D
:108E5000BEE7FFE7A168491CA160286890F82A20B6
:108E6000B1EB121F00DDA660E16802F00F02491CA1
:108E7000E1608A4200DAE66090F8242011090FD000
:108E800090F8383021888B420AD9491C218090F80B
:108E90002B1012090C09544301F00F01514304E057
:108EA00090F82B100C0901F00F018846B0F82D90B6
:108EB000B0F83170A1E716704B46424621460120BA
:108EC0000097FFF7EAFE4B464246214600200097F6
:108ED000FFF7E3FE286800E00AE090F89111090628
:108EE00006D590F88003400702D5BDE8F84F7EE62E
:108EF000BDE8F88F114810B5006890F82000C10750
:108F000016D023490978002912D12249097809B1DC
:108F100080060DD520480078002809D10320F7F7F6
:108F20008CFBFFF734FFBDE810400320F7F7A0BB30
:108F300010BD0000C00310008902100038021000AC
:108F4000462C012008451000562B0120822D0120BF
:108F500044451000822C01204802100040021000FD
:108F60009A2A01201E2A01205E2A0120E2290120DE
:108F7000D00310007C021000462E0120822E01201A
:108F8000D40310004F021000C82E0120042F01202E
:108F9000550210005C0210005F021000F0B40C4695
:108FA00001460498C3F11006012801D0002014E006
:108FB0002046F0BC5200FAF70ABB00BF34F910504B
:108FC00031F910705D4307FB0655EF1705EB177578
:108FD00045F30F1524F81050401C9042EEDBF0BC16
:108FE0007047F0B40C460146DDE90460F51A01282B
:108FF00001D0002010E02046F0BC5200FAF7E7BA9A
:1090000034F9107031F910C05F430CFB057797FB02
:10901000F6F724F81070401C9042F1DBDFE72DE9F1
:10902000F04391460022DDF81CC019E000252E46D1
:109030004FEA050402EB0407BF1E08D49F4206DA7C
:1090400030F9178039F9147008FB07553E44641C49
:10905000052CEFDBBCF1010F06D021F81250521C99
:109060009A42E3DBBDE8F08395FBF6F421F8124069
:10907000F5E770B5002407E032F8145030F81460BA
:10908000AD1B21F81450641C9C42F5DB70BD30B55B
:1090900000231C4607E000BF30F91350954201DA67
:1090A00020F813405B1C8B42F6DB30BD70B50546E3
:1090B0000020044603460AE035F91360964204DDB9
:1090C0000CB9401CC0B2641C00E000245B1C8B4245
:1090D000F2DB70BD10B50022134603E030F91340F7
:1090E0005B1C22448B42F9DB09B192FBF1F210B216
:1090F00010BD000010B57F487F4A006851684140AC
:109100000ED05060480701D5FDF7B4FD8021052041
:10911000F7F7B4F94021BDE810400520F7F7AEB9E4
:1091200010BD10B50446480709D574492046F9F723
:10913000B9FF2046BDE810407149F9F7DABF10BD0C
:10914000704810B5006890F81001C00622D56E482E
:10915000694900780979084000F004040620F7F70F
:109160006CFA21466948FFF7DCFF0620F7F780FA22
:1091700060070FD50420F7F760FA61495F48FEF7F2
:109180001CFD0420F7F774FA1021BDE810400520FB
:10919000F7F774B910BD2DE9F04157485A4D002634
:1091A00006705B492C680C4242D040680440594824
:1091B000007800283CD10620F7F73FFA21465348B3
:1091C000FFF7AFFF4F48544F006890F8A011C90750
:1091D00009D0287800060CD43878022809D04B48EA
:1091E000FFF784FC05E090F85C014C4900F00F00AB
:1091F00008700620F7F73CFA600709D50420F7F756
:109200001CFA3F493D48FEF7D2F80420F7F730FA40
:109210003878022802D12868002801DAFFF76AFEB0
:10922000600703D510210520F7F728F93C480670A0
:10923000BDE8F081304910B500204860FFF7BCFC64
:10924000FDF718FDFFF7E9FABDE81040FFF7DABABD
:10925000294C08B500256570FFF7ECFF4FF6FF7647
:10926000607868B30128FBD16B46002255210420A9
:10927000F7F743F90098C00706D031460420F7F706
:109280002CF9FFF7D7FF65700098400705D504213A
:109290000846F7F722F9FFF77EFF0098400605D54C
:1092A00040210420F7F719F9FFF74AFF0098C0069C
:1092B000D6D510210420F7F710F9FFF71BFFCFE7F1
:1092C00004210020F9F7A1FF6B46002202210420AF
:1092D000F7F713F904210120F9F797FF00988007A9
:1092E000BED531460420F7F7F8F8FFF7A3FF0120B9
:1092F0006070B5E7E4041000D0031000462E012092
:10930000822E01203802100074021000D0A5012026
:109310001402008055021000800210007F0210002D
:109320007C021000FD4800218171C1710172017140
:1093300041717047F94800210161C1707047F749D8
:1093400000B501208870FFF7F5FF5DF804EBE9E751
:10935000F2480021C160417001218170704700B561
:10936000FFF7E8FFED490120887000BD2DE9FC47BB
:1093700089460746F9F790FE0090F9F7B9FE01908B
:1093800004216846F9F7A4FD0446042101A8F9F771
:109390009FFD2044E14C4600E1492069E14D7043C6
:1093A00001EB400029687200B1F8F2823946FAF701
:1093B0000EF92868216990F8F102884202D1012053
:1093C000E07002E0E078012819D1D54F002014E0C8
:1093D0002A68012137F9103092F8F122521C05E079
:1093E00006FB010C491C37F91CC063448A42F7DCB8
:1093F000A3EB080229F81020401CB042E8DB2868E3
:1094000090F8F1122069814201D3401C00E0002055
:109410002061E078BDE8FC872DE9FC4115460E4649
:109420000746F9F739FE0090F9F762FE01900098BF
:109430000421400800906846F9F74AFD04460421DB
:1094400001A8F9F745FD00EB440C07EB440207EBDC
:109450004C03014606EB440706EB4C06002006E0F1
:1094600032F810C00CFB05FC27F810C0401CA042CD
:10947000F6DB002006E000BF33F810206A4326F830
:109480001020401C8842F7DBBDE8FC812DE9FC4739
:10949000154689460646F9F7FFFD0090F9F728FEC4
:1094A000019004216846F9F713FD0446042101A840
:1094B000F9F70EFD0146304606EB440305EB440781
:1094C000002207E030F802CB33F8028B521CC44470
:1094D00027F802CBA242F5DB01EB440206EB840045
:1094E00006EB420305EB4206002207E030F8027B60
:1094F00033F802CB521C674426F8027B8A42F5DB24
:1095000048462946002204E030F8023B21F8023B9D
:10951000521CA242F8DB09EB440005EB8402002157
:1095200005E000BF30F8023B22F8023B491CA14293
:10953000F8DB6FE72DE9FC477A4D784C0126286867
:1095400021784FF00009B0F8AE7159B9A2788021A6
:10955000CDE90012427D7F2373497448FFF741FD36
:1095600084F80290DFF8C88198F80000062802D13C
:109570002868B0F84D7128683AB26B49437D6B4852
:10958000FAF741F998F80010062905D100260128BC
:1095900005D04846C4F80C90207030463AE7207851
:1095A0000028FAD1E068401CE060296891F81A119F
:1095B000814202D201206070207000F0D3FE0121B0
:1095C0000220F6F75BFFE8E7F0B40B46554909685F
:1095D00091F8C517C90714D056490968490010D435
:1095E00000EB4204002108E030F8025B34F8026B23
:1095F000491C354423F8025B09B29142F4DBF0BC0C
:109600007047F0BC014652001846F9F7E0BF70B54C
:10961000484E0025308810F4CA7F44D0414C43495D
:109620002068427D4448FFF7CFFFFFF783FF0546E0
:10963000012838D1206890F8C507C1073F4809D0F4
:109640003168490006D4364A01698068F83AFFF764
:109650001DFF04E032498068F839F9F7C0FF30781F
:10966000000608D520682E4990F8C427F839521C06
:109670000846FFF7D1FE2068314990F8F002C00794
:109680002748A0F1F80002D0FFF770FE01E0F9F7DB
:10969000A6FF206890F8F002C00704D01F48C078E9
:1096A000012800D00025284670BD1E4910B5096864
:1096B000002091F8E811002909D01E49097889078E
:1096C00005D51E481F49C068F9F785FD012010BD6A
:1096D0002DE9F04107461748124D01260078296808
:1096E000400702D5B1F8E62201E0B1F8E8221048BF
:1096F000DFF854C0094C0078062827D0087D4A7D41
:1097000000FB02F3B1F9E8220CEB400107EB40004B
:10971000FAF779F82070012842D046E0D80310000B
:10972000F846100038021000FE2D0120C22D012045
:109730008002100004041000C8A60120D04B1000C5
:10974000D0A501203A2E01205600012091F81001E9
:109750000026000729D5087D497D12B200FB01F3E0
:109760000CEB400107EB4000FAF74DF8012803D05D
:109770000020E060207018E02078B0B9E068401C5C
:10978000E060296891F81A1181420ED201206070C0
:10979000207000F0E7FD01210220F6F76FFE04E0E3
:1097A000FA48016841F0010101603046BDE8F081EE
:1097B0002DE9F041F64D0E46034629681446DFF8C0
:1097C000D8C34F7D087D07F10107024607FB04F768
:1097D00000FB07F0EF4F274417F8017C8CF804706A
:1097E00091F86110090700D510444200194630462F
:1097F000F9F7EDFE2868017D407D401C641E604342
:10980000414306EB4100D1E72DE9F84FDFF880A393
:1098100080460646DAF80000DFF87C930F46447D68
:10982000007D641C444399F80710484689F80810E5
:1098300000254FF0010B4AE0C279D84B02FB04F13E
:1098400003EB410605FB04F108EB410100910BFA23
:1098500002F10279114389F8041031460098F9F7B2
:10986000DAFEDAF8000090F8611009071CD5791EBD
:109870008D4208D1007D4200009800EB440106EBC8
:109880004400F9F7A4FE99F8070068B9DAF8000077
:10989000017D90F8F9064A000009C049604301EBD8
:1098A00040003146F9F793FE99F807104846491CE5
:1098B000C9B289F80710DAF8002092F8F926B1EB5E
:1098C000121F03D30021C17189F806B06D1CBD427F
:1098D000B2D33046BDE8F88F2DE9F047DFF8B0820B
:1098E00006469146D8F800000D460224007D314618
:1098F00042002846F9F76BFEB9F1010F00D10124AF
:1099000001270CE0007D00FB07F14200604306EBFD
:10991000410105EB4000F9F75AFEA41C7F1CD8F862
:109920000000417D491CA142ECD8D8F8001091F804
:109930006110090721D50123B9F1000F10D0427D34
:10994000017D521C03EB52034B434A4305EB42009B
:1099500006EB43034A00BDE8F0471946F9F737BE66
:10996000417D027D03EB5103491C5343514306EBF8
:10997000430305EB41005200EDE7BDE8F0872DE918
:10998000F0438946824909684C7D0B7D641C0121A6
:1099900017E000BF4A1C01FB03F55A4300EB4506E4
:1099A00000EB420709EB4505002207E036F812C03C
:1099B00037F81280C44425F812C0521C9A42F5DBD5
:1099C000491CA142E6DBBDE8F08370B5054670484E
:1099D0000C46006890F8451709060AD5007D29460F
:1099E00042002046F9F7F3FD21462846FFF7C7FF5E
:1099F00023E06B480068810001D5002202E0C1002D
:109A000005D5012221462846FFF766FF15E0654986
:109A1000C204097D03D52846FFF7F6FE06E0800460
:109A200006D50A465D492846FFF7C2FE044604E013
:109A3000012221462846FFF7BBFE204670BD5A484A
:109A400010B500780022042801D0FFF76BFC5448C1
:109A50000078C00707D0534854494068FFF7B5FF66
:109A6000FFF736FE0246104610BD494930B409687A
:109A70004F4891F8C8100278CB0718D08B0716D53D
:109A80004C4B1B78C1F38204012101FA04F42342F8
:109A900009D00170C8B2824209D0012805D0CD207A
:109AA00030BC00F0D0BF0021F3E7CC20F8E730BC99
:109AB00070472DE9F04735494FF00009C1F8009093
:109AC000FFF7D3FF3748364D007820B1F8F77CFF19
:109AD000C5F8009051E72E48006890F81001800703
:109AE00001D5F8F78BFE304C20780128F0D0062005
:109AF000F6F7A3FDFFF7A3FF0646FFF7D6FD0746DF
:109B0000FFF785FD82460620F6F7B2FD2A49286850
:109B1000DFF884800860012E01D0012F17D1207852
:109B2000022801D0032809D198F80000012805D1A6
:109B300000F018FC01210220F6F7A0FC207807288D
:109B400009D0062807D004210320F6F797FCBAF1C4
:109B5000010F03D009E04FF40071F5E720780728E2
:109B60002CD004210420F6F789FC20780628AFD1F8
:109B700028680028ACDA98F800000028A8D1062050
:109B8000F6F75BFD3E431BD020E00000A40210006E
:109B900038021000503C0100D803100040B00120F2
:109BA00004041000D04B100080021000D40B1000F1
:109BB000620210004B000020740210004021D1E727
:109BC0002878800702D0002001F088FA0620F6F7F6
:109BD0004FFD7DE7FE4AFF4BA2F124014878125C5D
:109BE0001A70401CC0B24870042801D1002048708F
:109BF000704710B501461822F748F9F7E8FC022132
:109C0000BDE810400846F6F739BC70B5F34D044680
:109C1000286890F80A07C0072CD02078F04E10F082
:109C2000260F15D0A078800712D4F9F7F0FE01288E
:109C300021D0608840F002006080286890F80A0710
:109C4000000717D520210620F6F718FC01203070F8
:109C5000286890F80A0700070CD53078012809D148
:109C6000F9F7D5FE012805D110210620F6F706FCEC
:109C70000020307070BD20888106E9D520F02000DA
:109C800040F006002080E3E7D6490978022915D183
:109C9000D249096891F8101189060FD5CC492439A9
:109CA0000A460B7A9269012B09D001230B7242F00C
:109CB00000528A61C16801F05531C16070470023CC
:109CC0000B7242F080528A61C74AC1681140F4E7C2
:109CD0002DE9F04198B005466846F9F7A7FCBC4C61
:109CE000C248243CC24AA56101881180C149DFF8FD
:109CF000F4C2BA4E49880180E8074FF001085AD0F3
:109D0000BDF8000040F00101ADF80010306890F897
:109D1000F826D20708D0BDF8022022F48062ADF800
:109D2000022045F40052A26190F86120120703D589
:109D300041F48071ADF8001090F82011C9073AD0B5
:109D4000AD49097861BB9CF80010042929D0002D89
:109D500027DB90F822118DF8171090F821118DF85B
:109D60001E1090F823118DF8221090F8F816C907EC
:109D700005D08DF85C80A16921F40051A16190F8B3
:109D80006100000705D5BDF8000020F48070ADF833
:109D90000000A06940F48060A0616846FFF774FF8E
:109DA00009E090F8F806800705D5002D03DBA069CF
:109DB00040F48050A061A80705D5BDF8000040F030
:109DC0000800ADF8000015F48A7F4FF0000721D09D
:109DD000306890F8A011C90707D090F8C517C907D7
:109DE00003D09CF80010032908D09CF80010022929
:109DF0001ED007291CD006291AD005E0BDF80000A6
:109E000040F01000ADF80000BDF8000040F0200068
:109E1000ADF800006846FFF7F8FEE8055AD5774828
:109E20000078012841D07648007801283DD051E0E3
:109E3000002D01DA022910D090F80027D20703D0B4
:109E400090F803278DF84020BDF80020062942F045
:109E50000202ADF8002007D020E0BDF8000040F07D
:109E60002000ADF8000019E090F80F1709B18DF847
:109E70003C10BDF8021040F20222114321F02001F3
:109E8000ADF80210A16941F08041A16190F800177E
:109E9000C90703D090F802078DF840008DF83E7096
:109EA000A06940F08000A061B4E7306890F8B0117C
:109EB00009070FD58DF83E7090F8C507C00705D08B
:109EC000BDF8000020F01000ADF80000A06940F0DF
:109ED0008000A061AFF2E520029084F8058068461A
:109EE000F7F733FC18B0BDE8F08180B2F6F7E7BDB4
:109EF0003C4810B50178364A3848243A0229D378CC
:109F0000006813D006291BD007291CD0012B1DD0B7
:109F1000022B1ED090F8134190F810315B0627D524
:109F2000D379042B1BD0042916D018E090F81741E0
:109F3000022BF1D190F81531A342EDDD1C46EBE781
:109F400090F81841E8E790F81941E5E790F81441D6
:109F5000E2E790F81541DFE790F81B31937192F931
:109F60000630002B03DD5B1E937190F81341D17115
:109F700004B91424F6F779FE002800DD64002046B9
:109F800010BDF0B51549054600200C6894F8207006
:109F9000F9071CD013490B780D492439022B37D00F
:109FA000072B35D0062B33D094F83920154E367850
:109FB0001EB194F84944E40707D0134C24780CB13F
:109FC000BC0602D5114C24787CB35242CA60F0BD65
:109FD0001004100020000020D04B100038021000A8
:109FE000AE02100080021000ABAAAAAA8E021000D6
:109FF0008C0210006C251000950210005702100012
:10A0000056021000550210005C0210005F021000A2
:10A01000FD4A1278012A09D094F83A200E78032ECE
:10A02000C4D2761C0E70CA60C0E702E094F83F20EC
:10A03000F4E7CC68641CCC609442C8DD0020C860A2
:10A0400003202EB9072B03D0062B01D040F21710A6
:10A05000284040F00040BAE710B5ED4B0246002022
:10A06000EA4C1B690146062A02D0072A0BD00DE0F4
:10A07000E8480278012A05D006202070580704D548
:10A08000042003E00170072020700120E24A1840FC
:10A090001170DD4A117010BD2DE9F04F0025DFF879
:10A0A00070930346A846D9F8104028462E462F46FE
:10A0B000E1072A4613D0D949DFF864C3097801299A
:10A0C0000AD0D849097839B99CF80010012903D081
:10A0D000D5490978012902D18CF80020012649468A
:10A0E0005FEA847C07D5DFF844C39CF800C0BCF16C
:10A0F000010F00D101265FEA447C0ED5DFF830C3A2
:10A100009CF800C0BCF1010F06D0DFF828C39CF812
:10A1100000C0BCF1010F00D10127DFF81CA3DFF85C
:10A12000E8B2DFF8E892012E08D0C44E042B36685E
:10A1300006D0032B0ED0022B38D039E0CA6143E0A1
:10A140000A62C869401CC86196F85D6186423BDAC4
:10A15000CA6134E0BA4F3F78012F0FD0B94F3F7832
:10A16000012F0BD09AF80070012F07D096F81071CC
:10A17000FF071DD00F79012F02D019E00A6217E006
:10A18000D1F820C00CF1010CC1F820C096F8126182
:10A1900006EBC60707EB0616BCEB860F08D3AA4DE5
:10A1A0000A628BF800200120287012E0012F04D0F1
:10A1B000032B04D0022B0CD016E0CA610A620326DE
:10A1C00089F8006017200FE0042689F8006003205A
:10A1D0000AE0022589F800500125600703D5162002
:10A1E0004FF0010800E0132099F800609E4201D072
:10A1F0008AF80020884B2040002D1D708BF80080CD
:10A2000000D10A70BDE8F08F70B5804E804C0021FF
:10A21000307861610546042808D0032806D002285A
:10A2200004D0062805D0072803D007E0FFF734FF45
:10A2300001E0FFF711FF6169084360612069FFF7E2
:10A24000A0FE6169084360613078854209D08021B1
:10A250000520F6F713F9BDE8704040210520F6F718
:10A260000DB970BD38B5754C206890F8E502C0078F
:10A2700001D0FFF7AFFCFFF7C7FF7449086800285B
:10A2800009DD684A127832B9401E086003D1022104
:10A290000620F6F7F3F8FFF72BFEFFF726FE5C4DDE
:10A2A00040F21731686908421BD00020F6F7C5F963
:10A2B0006869FFF70DFD02216B4600220846F6F79C
:10A2C0001CF902210846F6F708F9206890F8E50223
:10A2D000C00701D0FFF77EFCFFF7EBFB0020F6F78D
:10A2E000C7F938BD10B501210220F6F7F6F8BDE830
:10A2F0001040B7E710B54FF480610220F6F7EDF893
:10A3000042480178022901D103210170404900200F
:10A31000087110BD10B54FF400610220F6F7DDF8AA
:10A320003B490120087110BD10B540210220F6F70D
:10A33000D4F836480178012913D006210170FFF7BF
:10A3400007F833490020C86108623349087080214A
:10A350000520F6F793F84021BDE810400520F6F7F8
:10A360008DB810BDF6F7D1BB29490020384A4861A5
:10A3700088611060C8610862C86027490870224976
:10A3800008702949087070472DE9F0410027042121
:10A390000220F6F7A2F82F481D4E0568306990EAB2
:10A3A000050420D02C404FF6FF7807D030B90127A4
:10A3B00041460220F6F791F8FFF7D6FF600701D576
:10A3C000FEF7CDFF114C356175B10321012F15D07A
:10A3D0002078022807D100200F4A3062F061107007
:10A3E000094A107021707EE5F6F78FFB012020707E
:10A3F0004146BDE8F0410220F6F76FB8E8072BD0E0
:10A400000420207029E0000050021000800210009B
:10A41000EC031000D90310004F0210005802100086
:10A420005D02100055021000D80310005F021000FA
:10A430005C0210005E021000890210003802100059
:10A440007A0210007B021000DA031000E004100012
:10A4500074021000E40410002170BDE8F04101E72F
:10A4600070B504467E4D000705D508210220F6F799
:10A4700034F80020E870E00605D510210220F6F738
:10A480002CF80120E870E00406D54FF4805102203A
:10A49000F6F723F80220E87080210520F5F7EEFF9B
:10A4A000BDE8704040210520F5F7E8BF10B5F6F78C
:10A4B0002CFB6C4901200870694900208870BDE8B8
:10A4C00010404FF6FF710220F6F707B808B541F6C5
:10A4D0005D516B4600220220F6F70FF80098400805
:10A4E00004D0022269465520F9F748FA0098C005C1
:10A4F00001D5FFF7DBFF009841F21801084201D0B7
:10A50000FFF7AEFF0098400701D5FFF73DFF009829
:10A51000400601D5FFF708FF0098000501D5FFF7B9
:10A52000F9FE0098400501D5FFF7E4FE0098C0074A
:10A5300001D0FFF7D7FE08BD4B480078484910F01E
:10A540001F0001F1240108D007280CD0421E0A7018
:10A550004870421C8A70C870704700200870012043
:10A5600048700222F6E7052008700620487007228E
:10A57000F0E73C4810B501220270394800213B4BFE
:10A580000161C17041618161C16101621970384B23
:10A59000394C1970374B5B882380384C238002710B
:10A5A0004171FF218171C271FFF7C6FFBDE8104004
:10A5B000FEF7C5BE08B502210020F8F726FE6B465F
:10A5C00000224FF400710220F5F797FF02210120CD
:10A5D000F8F71BFE022269465620F9F7CFF90098DA
:10A5E000800509D5FFF7C5FF4FF6FF710220F5F78B
:10A5F00074FF1B490120887008BD194C0020A07011
:10A6000006E0A07820B10128FBD1FFF75FFFF8E753
:10A61000FFF7D0FFF5E712490020C861086218492A
:10A62000087018490870704710B5F6F76EFA0121E6
:10A63000BDE810400220F5F721BF10B5084C607945
:10A64000012809D1F6F761FA0F48006890F8160161
:10A6500000B90120FFF749FC0020607110BD704770
:10A66000EC03100080021000200000207D0210008A
:10A670008A0210006C2510008C0210008E0210005F
:10A680004F021000500210003802100010B50446AE
:10A690000220F5F7D2FF2046F6F7F0FABDE81040A9
:10A6A0000220F5F7E5BF1CB5002100910191027869
:10A6B0009DF8001062F303018DF80010427862F3F8
:10A6C00007118DF800104289BDF8011062F30B01EB
:10A6D000ADF801100289BDF8021062F30F11ADF858
:10A6E000021081798DF80410C1798DF80510017977
:10A6F000CA099DF8061062F3C7118DF80610027999
:10A7000062F306018DF8061080788DF80700684620
:10A71000FFF7BCFF1CBD1CB500200090019002207B
:10A720008DF80000F6480068C007400E8DF807005D
:10A730006846FFF7ABFF1CBD1CB5002100910191DD
:10A7400001788DF8001041788DF80110C188C1F3AF
:10A7500007118DF802108188C1F307118DF80310DD
:10A76000017901F00F018DF80410827941EA02119C
:10A770008DF8041081788DF80510C07800F00F0076
:10A780008DF80600DE480068C007400E8DF807000F
:10A790006846FFF77BFF1CBD1CB5002100910191AD
:10A7A0000E218DF800108DF80200D5480068C00712
:10A7B000400E8DF807006846FFF768FF1CBD1CB50A
:10A7C000002000900190CF480068417882781020E6
:10A7D0008DF800004006437A8DF80130CA4B1B7893
:10A7E0008DF8023043891B0A8DF8033040898DF8BB
:10A7F0000400C3488DF805108DF806200068C007D6
:10A80000400E8DF807006846FFF740FF1CBD1CB5E1
:10A8100000200090019011208DF80000B8480068D9
:10A82000C007400E8DF807006846FFF72FFF1CBDDC
:10A830002DE9FC41064600200090019012201546AB
:10A840000C468DF800004FF008571EE0200A8DF8E6
:10A850000100C4F30B008DF80240315C30448DF8E8
:10A86000031041788DF8041081788DF80510C078B8
:10A870008DF80600D7F8E001C007400E8DF80700FC
:10A880006846FFF703FF241D2D1F002DDEDCBDE809
:10A89000FC811CB50022009201920F228DF800204D
:10A8A0008DF80100080A8DF805008DF8061040208B
:10A8B00093498DF80700012008606846F6F7DEF935
:10A8C0001CBD1CB5002300930193DB238DF80030E1
:10A8D0008DF801008DF80210100E8DF80300100C99
:10A8E0008DF80400100A8DF8050085488DF80620C3
:10A8F0000068C007400E8DF807006846FFF7C6FEE7
:10A900001CBD1CB50022009201920F228DF8002080
:10A9100005228DF801208DF8020079488DF803108A
:10A920000068C007400E8DF807006846FFF7AEFECE
:10A930001CBD2DE9FC4104460025009519208DF829
:10A94000000040070195417A8DF801106E490978A1
:10A950008DF802104189090A8DF803104089694F6A
:10A960008DF80400664E386841788DF805108078BF
:10A970008DF806003068C007400E8DF80700684665
:10A98000FFF784FE00951A2001958DF800003868C5
:10A9900000F5FC6001788DF8011041788DF8021007
:10A9A00081788DF80310C0788DF804003068C007F6
:10A9B000400E8DF807006846FFF768FE00951B20E3
:10A9C00001958DF800006068000E8DF80100606848
:10A9D000000C8DF80200A088000A8DF80300207991
:10A9E0008DF8040020788DF80500207B8DF8060096
:10A9F0003068C007400E8DF807006846FFF746FE36
:10AA000000951C2001958DF80000A068000E8DF8BF
:10AA10000100A068000C8DF802002089000A8DF862
:10AA20000300207A8DF80400207C8DF80500207D3D
:10AA30008DF806003068C007400E8DF807006846A4
:10AA4000FFF724FE23E71CB52E49096891F8291168
:10AA5000490603D400F00F010C2919D100210091FF
:10AA6000019116218DF800108DF80100010A8DF872
:10AA70000210010C000E8DF8040021488DF803101F
:10AA80000068C007400E8DF807006846FFF7FEFD1E
:10AA90001CBD1CB500230093019316238DF80030D4
:10AAA0008DF80100080A8DF80200100A8DF80400E4
:10AAB00013488DF803108DF805200068C007400E7C
:10AAC0008DF807006846FFF7E1FD1CBD1CB50023AB
:10AAD00000938DF80000080A8DF802000193100A17
:10AAE0008DF8050006488DF803108DF806200068E3
:10AAF000C007400E8DF807006846FFF7C7FD1CBD74
:10AB0000E001002238021000880210001CB500206D
:10AB10000090019080208DF8000005480068C00773
:10AB2000400E8DF807006846FFF7B0FD1CBD000021
:10AB3000E00100228548006890F82A0100F0070033
:10AB4000801C00EB8000C006000EF5F77EBF2DE9EB
:10AB5000F0417F4D286820B30520F5F76EFD0024F5
:10AB60005FF00107286807FA04F6304213D004EBBF
:10AB7000440005EB800898F8060005280BD1042155
:10AB80007448F8F7A5F9C1B208F10600FFF78BFD8C
:10AB90002868B0432860641C0A2CE3D30520F5F72D
:10ABA00067FD6C48001F4068002802D0BDE8F041F6
:10ABB000C0E7BDE8F081664900EB400210B501EB4B
:10ABC000820101248B796349091F032B4A6802D053
:10ABD000042B04D006E0844014434C6002E084401F
:10ABE000A2434A6004215B48F8F772F9C0B210BD75
:10ABF0002DE9F047574E0520361F7768F5F71DFD04
:10AC0000DFF848A1DFF8489100244FF00108D9F897
:10AC1000003008FA04F148460B421AD004EB440213
:10AC200000EB8205AA79032A09D0042A07D0052A55
:10AC30000FD1DAF8002092F82921D20609D48B43EB
:10AC400060B2C9F80030FFF7B6FF0146A81DFFF754
:10AC50002AFD641C0A2CDAD30520F5F709FDDAF881
:10AC6000000090F82901C0060CD570682FB10028AB
:10AC700008D1BDE8F047F5F7F5BE002802D0BDE8E1
:10AC8000F04757E7BDE8F08732490020091F4860C8
:10AC900080212F4808F00FBE2E4C08B5241F002538
:10ACA0002570F5F7DFFE207850B30128FBD1002294
:10ACB0006B4607211046F5F720FC0098400706D5A3
:10ACC00004210020F5F709FCF5F7CCFE257000986B
:10ACD000800705D502210020F5F7FFFBFFF788FF6D
:10ACE0000098C007DFD001210020F5F7F6FB1748D8
:10ACF000006890F82901C006D5D5FFF728FFD2E7F4
:10AD000000210846F8F781FA00226B460821104618
:10AD1000F5F7F3FB00210120F8F777FA0098000718
:10AD2000C1D5FFF7B1FFF5F79DFE0F210020F5F724
:10AD3000D4FB01202070B6E710B5F5F793FE012192
:10AD4000BDE810400020F5F799BB00003802100064
:10AD5000EC2410001804100094490020012208700F
:10AD600093490A70C870487088704860088191499A
:10AD7000086048608860C860086148617047F0B545
:10AD80008D4B044600201D680246012795F8E861B6
:10AD900007FA02F31E421ED0DFF820C29CF800C062
:10ADA000BCF1010F0FD195F8E6C15FEA1C1E0AD075
:10ADB00031F912E04FEA1C1C9EFBFCFC34F912E056
:10ADC000F44506DB07E034F912C031F912E0F4452E
:10ADD00001DD0343D8B2521C062AD9DBF0BDF0B521
:10ADE000754C734F0123226892F8FC2102F00F0585
:10ADF0003A78C5F11006012A4FF0000211D12568FA
:10AE000003FA02F695F8E851354203D030F81250B3
:10AE100021F81250521C12B2062AF0DB00203870C2
:10AE2000F0BD276803FA02FC97F8E87117EA0C0FE7
:10AE30000AD030F9127031F912C077430CFB057754
:10AE400047F30F1721F81270521C12B2062AE8DBE2
:10AE5000F0BDF0B50023584D012404FA03F72E6825
:10AE600096F8E8613E4206D032F8136030F813706D
:10AE7000F61B21F813605B1C1BB2062BEDDBF0BD4B
:10AE8000F0B5DFF82CC1034600229CF802000CF15B
:10AE9000040583EA000648480124076804FA02F022
:10AEA00030420BD0184297F8E70102D004EB1010A3
:10AEB00002E000F00F00401CA85411E015F802E079
:10AEC000BEF1000F0CD0AEF1010E1EF0FF0E05F822
:10AED00002E005D1184202D00843C1B200E081432C
:10AEE000521C062ADADB8CF802300846F0BDF1B5B8
:10AEF0009DF80000002823D001216846F7F7E8FFFD
:10AF0000C0B201281DD02A4A5078002818D12A4CF6
:10AF10000021284D24680123084694F8E8610C3587
:10AF200003FA00F4264205D035F910408C4201DDC9
:10AF30002146D070401C0628F2DBD0788340D8B27E
:10AF4000F8BD9DF80000F8BD70B51A49FFF747FF3E
:10AF50000320F5F772FB1749194A0C311548FFF722
:10AF600078FF0320F5F784FB134C124821680C305E
:10AF700001F5F871FFF703FF0C4D48B1012129706D
:10AF8000216891F8E611890704D5FFF7B0FF01E0C9
:10AF900000212970064C6178FFF772FF61788842C2
:10AFA00002D06070FFF7F8FB287870BD5F021000D8
:10AFB0001C04100080CE012038021000590210003D
:10AFC000D62901202DE9F0475748584C01684D7D9E
:10AFD000087D6D1C91F82320454310234FEA121978
:10AFE000A3EB121831E0524AB1F9266032F9103061
:10AFF00034F9102016449E4226DBB1F92860961BD6
:10B000009E4221DC02FB09F603FB08634FEAE3766C
:10B0100003EB167343F30F1A91F8D0305B0711D589
:10B02000AAEB020216B2DFF80CC10022C2EB021337
:10B030000CEBC313521C33F81070042A374423F866
:10B040001070F3DB24F810A0401CA842CBDB91F871
:10B05000200000070CD53548F8F783F9364900235E
:10B06000364A0860BDE8F04701463048F8F7B0B905
:10B07000BDE8F087F0B52C48016891F8E801002898
:10B080002BD091F824002E4A00F00F040020C4F1C8
:10B090001007012691F8E83106FA00F52B4219D085
:10B0A000284B32F91050B1F933C333F91030AC44A6
:10B0B0009C450FDBB1F935C3A5EB0C0C9C4509DCB5
:10B0C000654303FB0753DD1703EB157343F30F13BE
:10B0D00022F81030401C0628DCDBF0BD70B5124CA5
:10B0E0000546206890F84904C00703D0FBF716FC1A
:10B0F000012817D00D48FBF7A3FB134908802068EF
:10B1000090F82000C0070DD0002D0BD10320F5F7DB
:10B1100094FAFFF757FFFFF7ADFFBDE8704003203B
:10B12000F5F7A6BA70BD00003802100056000120E5
:10B13000D40B1000D60701206C021000CC241000A4
:10B14000D62901203A2E012038031000FE490020A4
:10B150000870704700E010460A5C8242FBD17047DD
:10B1600070B500250E4603462C4606E019462046DB
:10B17000FFF7F0FF1855641CE4B2B442F6D3002286
:10B180000AE0985C904203D19D546D1CEDB201E041
:10B19000185C9854521CD2B2B242F2D3284670BD09
:10B1A00038B1884202D20B4601461846884200D088
:10B1B0001154084670472DE9FF4F0546E3484FF00C
:10B1C000000B89B000785C46012805D0E048047087
:10B1D0000DB05846BDE8F08FDE4800210127026817
:10B1E0008046137D527D63F3070462F30F2461F3FD
:10B1F000174461F31F6429E0012621E007EB0710E3
:10B2000006EB4000285C002819DDC4F3072138460E
:10B21000F7F771FE60F30F24E1B23046F7F76BFEEB
:10B2200060F30704C4F307413046F7F768FE60F3A4
:10B230001744210E3846F7F762FE60F31F64761C50
:10B24000D8F80000007DB042D8DA7F1CD8F8001092
:10B25000497DB942D0DAC4F3074604F0FF09A6EBF2
:10B260000900270EC4F307240090381B0146019003
:10B270000098F7F744FE8246DDE90001F7F73BFE50
:10B280000246B34800210170D8F800104FF00108C1
:10B2900091F814C0ACF1010CD44539D04B7D5B1E44
:10B2A000934235D091F82C03504591DB91F82D0352
:10B2B00090428DDB5A210A9808F0DBFA214642467B
:10B2C0001BE0484601EB011314E000BF00EB430C08
:10B2D00015F80C80B8F1000F0BD005F80C20DDF844
:10B2E00028C0DDF82880BCF802C00CF1010CA8F8D9
:10B2F00002C0401C8642E9DA491C8F42E1DA0C9810
:10B300004FF0010B80F8049086714471C7715FE7BC
:10B3100080F800805CE72DE9FF4F99B00120049090
:10B320008C4819689A460068067D477D41B19AF8B5
:10B3300002109AF800905046B14205D2491C04E030
:10B340004FF000094D4608E0314645789AF8030071
:10B35000CEB2B84200D2471CFFB2002007A9085461
:10B36000401C2D28FAD3199905EB051001EB400C70
:10B37000681C67E01998E34608EB081100EB410CE4
:10B3800009F101045AE000BF0CEB040015900068BD
:10B3900010B31CF8040000B31598002310F8010C3A
:10B3A00000B103461BF8041021B107AA1846FFF7A5
:10B3B000F7FE03461A9800280BEB04000ED01590F8
:10B3C00010F8011C21B107AA1846FFF7E9FE034651
:10B3D00015984178D9B91FE0E41C2EE0189010F8B8
:10B3E000011C59B115981BF8042010F8010C1043EA
:10B3F00004D007AA1846FFF7D3FE034618984178F1
:10B4000051B115981BF804204078104304D007AAC6
:10B410001846FFF7C5FE034613B10CF804300CE0E4
:10B4200004982D2806D20CF804000498401CC0B2E1
:10B43000049002E0401E0CF80400641CB442A3D93E
:10B4400008F101008046B84294D907A80499FFF793
:10B4500087FE804641001B9808F00BFA00204FF64B
:10B46000FF7202E04AF82020401C4045FAD33BE03E
:10B47000199905EB051001EB400022304C46059070
:10B480002FE00598011901204058A0B3487838B33F
:10B4900007AA105C48701B991B9A0AEB800B31F8C5
:10B4A0001010491C22F810109BF800102046F7F7E6
:10B4B00022FD8BF800009BF801102846F7F71BFDD2
:10B4C0008BF801009BF802102046F7F718FD8BF867
:10B4D00002009BF803102846F7F711FD8BF80300D4
:10B4E000641CB442CDD36D1CBD42C1D3A8F1010090
:10B4F000C0B21DB06EE6FFE7E41CF1E72DE9F043B2
:10B50000994655784FF0010C1CE000BF05EB051380
:10B5100000EB430622360023147897780CE000BF36
:10B5200006EB040898F90180884503D10CFA04F869
:10B5300048EA0303641CE4B2A742F1D249F825307B
:10B540006D1CEDB2D37807E0280410005A021000F9
:10B550005B02100038021000AB42D7D2BDE8F08386
:10B56000F0B5FE4B0026FE4D1C78A0B0012C11D189
:10B570001E700B78002B59D04B78002B56D02B68BF
:10B580008F781C7D641EA74250D05B7DCC785B1EFB
:10B590009C424BD000236C4644F823605B1C202B5C
:10B5A000FAD34B7891F803C01BE000BF50F823702A
:10B5B000B7B17E0846EA47063E4354F82370374346
:10B5C00044F8237004EB8307D7F804E04EEA060E34
:10B5D000C7F804E0D7F808E04EEA060EC7F808E01E
:10B5E0005B1C9C45E2D2002304EB8306766840F89E
:10B5F00023605B1C1E2BF7D3012A17D1087808B1F2
:10B60000401E0870487808B1401E48702A68887843
:10B61000127D521E904201DA401C88702A68C87858
:10B62000527D521E904201DA401CC87020B0F0BD1D
:10B63000F0B50025059E2C468F1E00EB410006D478
:10B6400030F9045CCF1E02D430F9067C3D448F1CD7
:10B65000974207DAB0F90440C91C914202DAB0F906
:10B6600006000444281B00D540424FF4357148437E
:10B67000C11700EB91508012A54203DD31680844E8
:10B680003060F0BD196808441860F0BD2DE9FF4F27
:10B69000DFF8CCB207460E46DBF80000002585B087
:10B6A00090F8A0002C46C106AE484FF4803900EB5C
:10B6B000460A29D5002105E037F8112000EB4103A7
:10B6C000491C5A80B142F7D34188018030F81620D6
:10B6D000AAF8022000210DE04A1C00EB420330F8DA
:10B6E000122033F802CC5B88634403EB420227F854
:10B6F0001120491CB142EFD307A800230090324625
:10B7000019463846F8F7F1F807994FF00008002974
:10B710001CDCDBF8000090F8A000C00604D59148BE
:10B72000B0F90000019001E0CDF80480701E37F9F7
:10B7300011C00390814224DBDBF8000090F8A000E8
:10B74000C00608D5BAF90200029006E007EB4100F6
:10B7500030F9020CE6E7CDF80880DBF8000090F83D
:10B76000A000000706D502A8009001AB721E384663
:10B77000FFF75EFFDDE90110814207DD05460C465B
:10B7800007E007EB4100B0F90200DDE701DA0D4602
:10B790000446A0EB0102A2FB09064FEAE27303FB99
:10B7A000096102FB08110CEB0402C5F1000302EB76
:10B7B00043024FEAE27307F0EBFF079CA4FB093654
:10B7C000E51705FB096204FB08221B184A4108998A
:10B7D000A3FB0105CC1702FB015103FB04114A46F0
:10B7E000002307F0D5FF039AD31707F0D1FF00B26B
:10B7F00009B0EFE42DE9FF4F044681B00020DFF8E7
:10B8000060910F9D064607460090D9F8000090F819
:10B81000A000000719D5207808B1401E207060787C
:10B8200008B1401E6070D9F80020A078127D521E29
:10B83000904201DA401CA070D9F80010E078497DF0
:10B84000491E884201DA401CE070464844214438D1
:10B8500008F00FF8002293469246607830E0217895
:10B860002AE000BFD9F80030D5F8288093F814C03A
:10B87000431CE64603FB0C1C08EB4C0CDDF8008077
:10B88000BCF900C0C44502DD761CB6B267449445DD
:10B8900002DD62468B46824695F818C0BCF1010F66
:10B8A00009D10EFB03FC304B0B441CF8038048F01D
:10B8B00080080CF80380491CA3788B42D2DA401C24
:10B8C000E1788142CBDA6078D9F800100FE000BF50
:10B8D00091F814C000F1010808FB0CB2AB6A03EB4D
:10B8E000420213881F4A443A22F81030401CE27882
:10B8F0008242EDDA1B48497D52464438039BFFF7EC
:10B90000C5FE0E99086017484421443807F0B1FF7E
:10B91000DFF850802078A8F144080AF10101D9F835
:10B9200000200AE092F814C0AB6A01FB0C0C03EB98
:10B930004C031B8828F81030401CA3788342F1DAAE
:10B940000848117D5A464438029BFFF79FFE049930
:10B950000860EF602E8105B03CE400002804100070
:10B96000380210002C4C100098CE0120F0B5FE4C8F
:10B97000059F2668D6F8105296F81842BD4202D3A9
:10B9800004F00F040FE0D6F81462BE4201D8240977
:10B9900009E004F00F0CCCEB14147F1B7C43751BE7
:10B9A000B4FBF5F464441668C4F11005604306FB6B
:10B9B0000500000910601868614300FB05100009CC
:10B9C0001860F0BD2DE9FF4FE748964684B00D782A
:10B9D00091F80190CA780068002489780290007D6F
:10B9E0002346A0465FEA050B2AD1CC4626E000BFDD
:10B9F0000CF101060196DEF828604FF0000A0125DF
:10BA0000009609E0DDE9006707FB005706EB4706F3
:10BA10006D1CB6F90070BA44A942F3DADDE900659D
:10BA2000454306EB4505B5F900506D4395FBFAF526
:10BA300005FB0C33641BA8440CF1010C6245D7DAFA
:10BA4000451EA9422FD1CC462BE000BF0CF10106C8
:10BA500001964E1E0396DEF828604FF0000A5D4600
:10BA6000009609E0DDE9006707FB005706EB470693
:10BA70006D1CB6F90070BA44039EAE42F2DA019D25
:10BA800005FB0016009D05EB4605B5F900506D431A
:10BA900095FBFAF505FB0C3305FB0044A8440CF1BB
:10BAA000010C6245D2DAB9F1000F25D15D4621E0E3
:10BAB000DEF828704FF0000A012600970AE0771C94
:10BAC00007FB0057DDF800C0761C0CEB4707B7F901
:10BAD00000C0E244B242F2DA009E471906EB470684
:10BAE000B6F90060764396FBFAF606FB05449B1B0D
:10BAF000B0446D1CA942DBDA029D6D7D01956D1E7F
:10BB0000AA422BD15D4627E0DEF828704FF0000AEC
:10BB10004E46A2F1010B00970AE0771C07FB005785
:10BB2000DDF800C0761C0CEB4707B7F900C0E24413
:10BB3000B345F2DA561C06FB0057009E06EB47069B
:10BB4000019FB6F90060764396FBFAF606FB0544C2
:10BB500006FB0733B0446D1CA942D5DA0798046090
:10BB6000079843600798C0F8088008B0BDE8F08FD8
:10BB70002DE9F04F89B04FF00009DFF8ECB18646AF
:10BB8000CDF81090CDF81490CDF81890DBF80000A7
:10BB900014460F46B0F86820217E4D464E46C846F2
:10BBA00009B9B0F8C82178783CE000BF5EF820A061
:10BBB0003878039030E00120884010EA0A0F29D03D
:10BBC000DBF80000D4F828C0029B007D01935B1CC9
:10BBD000009303FB00130CEB4303B3F900309342D3
:10BBE00008DDDDF804C001FB03660CFB03881D447F
:10BBF00009F10109237E012B7AD0002B009B00FB69
:10BC000003F05A4B0B4410F803C07AD04CF0200CD0
:10BC100000F803C0491C0391B87803998842CADA36
:10BC20000298401C0290F9788142BFDADBF80000EC
:10BC300090F8600000060BD504AB224639467046EA
:10BC4000FFF7C0FE04980599064406988844054409
:10BC5000454800230168087DCA8A401E00FB05FA9A
:10BC6000A2FB060C03FB06C3F11702FB01314FEAEE
:10BC7000EA7B52465B4607F08BFD03903A4841460B
:10BC80004FEAE87600684FF0000C427D038B521EAD
:10BC9000A3FB01080CFB01816A4303FB06114FEA79
:10BCA000E27A534607F074FD02900398002800DA08
:10BCB00000202D4E03903168C98A814200DB014685
:10BCC00002980391002800DA002002903168098B65
:10BCD000814200DA08460290E560A4F80890207ED0
:10BCE000022811D0012816D000B35BE000E008E084
:10BCF000009B58431D4B0B4410F803C04CF0800CC4
:10BD000086E74CF0400C83E7306890F88000C0066E
:10BD100048D5002210E0306890F88010C90612D58E
:10BD200090F8A0004007F4D4012205E0306890F8B4
:10BD30008000800636D5022202A903A801F07AFD10
:10BD4000207E01282ED1306890F8A010490729D50F
:10BD500008A9CDE90014B0F91820B0F9161007AB06
:10BD60003846FFF747FD03E03802100098CE012067
:10BD7000306890F88000C00604D5012208A907A801
:10BD800001F058FDE0680090DDE9021008AB07AA59
:10BD9000FFF7ECFD08A907A8F7F704FD0798E08076
:10BDA0000898A08002A903A8F7F7FCFC039801B249
:10BDB0006180029800B22080326892F8A020520779
:10BDC00001D4E180A08013E52DE9F04F8646487844
:10BDD000914600234FF0010BFE4ACE78D2F800A026
:10BDE0001AE000BF5EF820700A78441C8D7810E0DD
:10BDF0000BFA02FC1CEA070F0AD09AF81480D9F853
:10BE000028C004FB08280CEB480CBCF900C06344B4
:10BE1000521C9542ECDA401C8642E3DAC9F8103035
:10BE2000A4E670B50D46EC49144606460A78E94981
:10BE30000020012A096801D191F87F00227E042A9E
:10BE400001D0022A07D191F8661062890844824223
:10BE500001D9032020760422294604F11400F7F7C3
:10BE6000B6FB224629463046FFF7AEFF012229469F
:10BE70003046FFF775FB224629463046FFF778FE2D
:10BE80002046BDE8704004F061BC30B5A1B01C464E
:10BE900015466B46FFF732FB224629466846FFF7F8
:10BEA000C0FF21B030BD2DE9FF4F86468B460020F4
:10BEB0004FF6FF755378D67829E000BF03EB0314E3
:10BEC0000EEB440101F12209C24914789778D1F8A8
:10BED00000A018E009EB040191F801C0DC4510D185
:10BEE0000E999AF81480D1F82CC0591C01FB084116
:10BEF0000CEB41010988884200D208468D4200D9E6
:10BF00000D46641C24B2A742E4DA5B1C1BB29E42BD
:10BF1000D4DA039908800D990D8004B026E62DE946
:10BF2000F04F9B4682465378DDF824E02CE000BFBA
:10BF3000AA4D03EB03100AEB4004AD68223405EB75
:10BF4000400522351078A34F4FF0010917E026185D
:10BF500076788E4211D13E68DEF82CC096F81480B7
:10BF60005E1C06FB08060CEB4606B6F900605E4553
:10BF700003DD05EB000C8CF80190401C00B29678B4
:10BF80008642E4DA5B1C1BB2D0789842D0DAEDE549
:10BF90002DE9F0478F4F8146C8B038681D46884666
:10BFA00090F8706047A8CDE90005144646AB4846B6
:10BFB000FFF779FF287E30B9894800780128386872
:10BFC0002AD090F8CE61BDF81811BDF81C0164228A
:10BFD000091A7143B1FBF2F1804F0E184FF48861DA
:10BFE000B86807F046FCB3B2224641464846009581
:10BFF000FFF795FF2068029002AB2FAA0121B868D5
:10C00000FFF789F90646012821D901240DF1BC0A60
:10C010000DF10809B84615E090F8EC66D3E700BFCB
:10C020003AF81400688109EB84072946384601F084
:10C03000BFFC2B463A462146D8F80800FFF725FFFB
:10C04000641CE4B2B442EBD948B0BDE8F0872B469B
:10C05000224641464846FFF718FFF5E72DE9FC4F19
:10C060005D4DDDE90B89DFF86CB12D781478967899
:10C07000DBF80070012D1AD097F87150DFF85CC121
:10C08000AA4603EB031500EB4500DCF808C022309C
:10C090000CEB45052235D8F82CC03F7D5B1CD846FB
:10C0A0005F430CEB47034FF0010B1CB10CE097F81A
:10C0B000C950E3E744788C4205D1B3F900704F458D
:10C0C00001DD85F801B00124D8F800C097789CF80C
:10C0D00014C0ACF1010C674562D1461CBE5D8E42B6
:10C0E00007D133F917C0CC4503DD05F1010C07F882
:10C0F0000CB09278521ED6B252E0021952788A429F
:10C100004CD133F914204A4548DD02EB0A0E0027D2
:10C1100003EB4402CDE9002732F9022C964505DAFB
:10C12000DDF800C0BCF902C0E64537DB012C10D0B9
:10C13000D8F800703F7DBF1EA74217D1009F37F986
:10C14000047CBE4527DA009FB7F90270BE4525DBA7
:10C1500021E0B3F9027007EB0A02B3F90070BA42AA
:10C1600019DAB3F90670BA4218DB14E0964506DA1C
:10C17000009FB7F90470BE4501DA01220192009FC9
:10C1800037F9047CBE4504DA009FB7F90270BE455A
:10C1900004DB019A12B92F1987F801B0641CE4B2CC
:10C1A000B442AAD9BDE8FC8F2DE9FF4F9AB092F8AE
:10C1B0000180D7780020ADF84800ADF84C0015900C
:10C1C0000848044D1E4600781446012830D0024825
:10C1D000017809E038021000620210002804100003
:10C1E000950210005B02100028460129006823D048
:10C1F00010F1710090F80090407812AB824613A8BD
:10C20000CDE90006DDE91A01FFF74DFE2868F9497E
:10C2100090F8760090B1BDF84820BDF84C30098800
:10C22000D21A42436420B2FBF0F0084405B207E0A2
:10C230004FF001094846E0E7C930DBE7B1F90050AB
:10C24000607848B9CDE90065DDE91A014FF00108D1
:10C2500000232246FFF702FFE748E1780068407DAF
:10C26000401E814209D1CDE90065491ECFB2C3B25B
:10C27000DDE91A012246FFF7F1FE4046F1E000BF7A
:10C280001A9A00EB001102EB410202F1220BDB4A89
:10C2900000F1020C00F10308926802EB4101223127
:10C2A0000A91D549F36A421E0968097D4A4303EBA6
:10C2B00042020D9201FB00F203EB42020792421C84
:10C2C00096464A4301FB0CFC01FB08F103EB4101DC
:10C2D000089103EB420203EB4C0C2178BBE000BF5A
:10C2E0000BEB010393F801801B9B98457ED132F93B
:10C2F00011300393AB4279DD00230593039BDDF8F6
:10C300001C804B44019338F91180CDF8508043458F
:10C3100005DA3CF91180434501DA01230593002930
:10C320007ED0B54B1B6819931B7D18935B1E8B4207
:10C330007BD002EB41030993DDF8048033F9023C22
:10C340000E93984508DA4346DDF82480B8F9028058
:10C35000434501DA01230593039BDDF81C80534418
:10C3600008EB41080393CDF8188038F9028C434557
:10C3700007DA0CEB4108B8F90280434501DA0123E2
:10C380000593DDF81880039BB8F90280434505DA70
:10C390000CEB410838F9028C43455ADB059B2BBB5B
:10C3A000199B5B7D9B1E83420CD0DDF85080019B66
:10C3B000434507DADDF8208038F91180434501DA7A
:10C3C0000123059301280CD0DDF83480019B38F956
:10C3D0001180434505DA3CF91180434501DA012318
:10C3E0000593012924D0189B9B1E00E01FE08B427F
:10C3F0000CD0DDF83880019B434507DADDF8248056
:10C40000B8F90480434501DA01230593DDF824805F
:10C41000019B38F9048C434507DADDF8248000E0FD
:10C4200003E0B8F90280434513DB059B5BB110E0E4
:10C43000B2F9028008EB0903B2F900804345F4DA4F
:10C44000B2F90680EFE70A9B4FF001080B4483F82E
:10C450000180491CC9B2A3788B42BFF441AF0EF0F2
:10C46000FF00B8427FF60CAF15981EB0D8E42DE956
:10C47000FF4F624DC5B000274FF48861A86807F0F0
:10C48000F8F945AC0FCCFFF78FFE4799096800918A
:10C49000C8BB6B462DAA0021A868FEF73CFF0646E4
:10C4A000012830D904F0C0F90124DFF84C810DF1E6
:10C4B000B409EA46A34619E0D8F8001039F8140088
:10C4C00091F87510884210D985F800B04899012775
:10C4D00048810AEB84004490489901F069FAE1B27E
:10C4E000489B449AA868FFF7D0FC641CB442E3DD83
:10C4F000D8F8000090F84004800702D4002004F02F
:10C5000098F9002F03D145AC0FCCFFF7BEFC49B022
:10C5100086E42DE9F04F8A4637490025994686463C
:10C52000D1F8006028462B4609EB0301491E1FD4B1
:10C53000747D8C421CDD377D01F1010107FB01F1A7
:10C540000EEB410803EB430C4FF000010AEB4C0BE0
:10C5500002EB0104641E08D4A74206DD3BF911C0BA
:10C5600038F91440604404FB0C55491C0329EFDBE7
:10C570005B1C032BD8DB00B9012095FBF0F04FE4E6
:10C580002DE9FF4F82B00C464178DDF83CB001B197
:10C59000491E194A01F0FF09C1781668737D5D1EB6
:10C5A000A94201DA491C00E02946CDB2017801B167
:10C5B000491E01F0FF0A8178307D431E994201DA5D
:10C5C000481C00E0401EC6B2B4F9120009F1010196
:10C5D00001906AE0084B4A1C1868007D00FB02F7D6
:10C5E000484305990BEB470E01EB400000900AF120
:10C5F000010057E062041000380210002804100007
:10C60000FB4909680B7D059902FB030701EB470114
:10C61000049FB1F90210B94240DD0099B4F90080DD
:10C6200001EB40010027B1F900C00CFB0877B1F91C
:10C6300002C0B4F902800CFB0877B1F904C0B4F968
:10C64000048001EB43010CFB0877B1F900C0B4F999
:10C65000068001EB43030CFB0877B1F902C0B4F983
:10C6600008800CFB0877B1F904C0B4F90A80B3F96B
:10C6700000100CFB0877B4F90CC001FB0C71B3F986
:10C680000270B4F90EC0B3F9043007FB0C11B4F911
:10C69000107003FB0711019B91FBF3F12EF81010B2
:10C6A000401C00B2B042ABDB11B2A94292DB4F4654
:10C6B00017E0017D781C41430BEB410800903B469D
:10C6C000524621460598FFF724FF28F81A003B46FA
:10C6D000324621460598FFF71CFF28F816000098FF
:10C6E00007B2C348AF420068E3DD007D691C4143E7
:10C6F0000BEB4101009109F1010148430BEB4008AC
:10C70000574612E04B463A4621460598FFF701FF8F
:10C7100028F817002B463A4621460598FFF7F9FE00
:10C72000009921F817007F1C3FB2B742EADD06B03E
:10C730002DE4F8B5AF491046069A09781D4602293E
:10C7400014D2AD4CAA492E7E236809687EB191F8B7
:10C750004060B6060AD5012A08D10093B1F95820E5
:10C76000A64BA749FFF70CFF2068E862F8BD91F8D7
:10C77000C061F706FAD5B60609D50093B1F9C42110
:10C780009E4BA049FFF7FCFE2068A862F8BD012A75
:10C79000FCD10093B1F9C421E2E7F0B4954C2678BE
:10C7A000934C256816B1B5F8024101E0B5F8004197
:10C7B0001E7E64431EB195F86050EE0706D0924C81
:10C7C0002478002C0DD1F0BCFFF7E2BBAD0705D5F6
:10C7D0008E4D2D68A54201DAF0BC48E6F0BCFFF7AB
:10C7E00054BBF0BC70472DE9F047814680488A462B
:10C7F00000230168184601250E7D4F7D1EE000BF15
:10C8000000EB001409EB44042234194612E000BF87
:10C8100052F8208005FA01FC18EA0C0F08D004EB4E
:10C82000010898F801C0BCF1000F01D188F801A0FF
:10C83000491CC9B2B142EBD3401CC0B2B842DFD3ED
:10C8400003E46C4A10B5127801243AB9684A1268B8
:10C8500092F86020120718D5012916D18178027844
:10C86000891A01D5C1F1000101F10101CAB2C178F3
:10C870004078081A00D54042401CC1B21046F6F775
:10C880003AFBC0B2012800D10024204610BD2DE99A
:10C89000F04F8A46564983469E464FF0010950782C
:10C8A000D6780C6825E000BF00EB00130BEB4303C8
:10C8B00022331178957818E05F1897F801C0D445B5
:10C8C00011D194F81480471C07FB0817DEF828C024
:10C8D0000CEB4707B4F8D2C1B7F90070BC4502DAD7
:10C8E0004FF0000903E0491C09B28D42E4DA401C14
:10C8F00000B28642D8DA484641E62DE9F04399462F
:10C900003B4B01261C6894F808319D0748D51578E3
:10C91000B5EB531F01D8002501E0A5EB5315EFB28D
:10C92000257D92F802C0A5EB531808F10108E045F7
:10C9300001DA6D1E01E00CEB531505F0FF0C557884
:10C94000B5EB531F01D8002501E0A5EB5315647D1D
:10C95000D278A4EB531808F10108EDB2904501DA42
:10C96000641E01E002EB531404F0FF0811E000BF65
:10C9700005EB051200EB420322333C4606E01A1990
:10C98000527812B18A4200D00026641C6445F6DD5C
:10C990006D1C4545ECDD002E02D1022189F81810EE
:10C9A000BDE8F08330B5124C194A2468B2F9003062
:10C9B000184A34F9A85FB2F90020B4F9024029B945
:10C9C0001549B1F900301549B1F90020A04201DD47
:10C9D000104630BDA84201DA184630BD201AD11ADF
:10C9E0004843611B90FBF1F0101A00B230BD00000B
:10C9F000380210006002100068021000D8DD01202B
:10CA0000B23C01009E3C01005A0210007404100068
:10CA100062041000640410005C0410005E04100046
:10CA20002DE9FF5F8B460746DDE90E544FF0FF36D8
:10CA3000DDE90201B046C246F6F75DFA0FFA80F969
:10CA4000DDE90201F6F75BFA01B20BEB09004010D9
:10CA500088427CDAF748109A32B1012A1AD0022AA9
:10CA60002BD0032A73D142E0A21E06D40268137DA4
:10CA7000621E02FB035237F912600068A21C437D5C
:10CA8000934252DD007D04F1030404FB005037F9AA
:10CA9000100049E0AA1E08D40268137D621C02FB44
:10CAA000035207EB420232F9046C0068AA1C007DB5
:10CAB00090423ADD04F1010430E0AA1E0DD4026870
:10CAC000A31C92F815C09C4507DD137DE21C02FBF8
:10CAD000035207EB420232F9046C0068AA1C007D85
:10CAE000904222DDA21E20D4A4F1010416E0AA1E69
:10CAF0000AD4A21E08D40268137D621E02FB0352F0
:10CB000007EB420232F9046C0268AB1C107D9842BC
:10CB10000BDD537DA21C934207DDE41C04FB005097
:10CB200007EB4000B0F904008046701C0FD018F1EC
:10CB300001000CD0029A914500D046460BEB010053
:10CB4000401006EB0901C1EB40000FFA80FA04B077
:10CB50005046BDE8F09F2DE9FE4FDFF8D8A21E0039
:10CB600002F10107DAF800C0DDF830B04FF0FF3411
:10CB70009CF81430254607FB031830F9189006D0AE
:10CB8000012E16D0022E20D0032E52D133E0B2F166
:10CB9000010803D402FB031530F915509CF81580E9
:10CBA000B84544DD02F1020404FB031330F91340DD
:10CBB0003DE04F1E03D400EB480535F9025C4F1CE5
:10CBC000BB4234DD00EB48032FE0B1F101080AD489
:10CBD0009CF81580B84506DD951C05FB031500EB98
:10CBE000450535F9025C4F1CBB4220DD571E1ED4A3
:10CBF00002FB031317E0B1F1010808D4B2F10108F8
:10CC000005D402FB031500EB450535F9025C01F183
:10CC1000010843450BDD9CF81580B84507DD02F19E
:10CC2000020404FB031300EB4303B3F902406B1C43
:10CC300001D1631C0FD09CF8A0309B0608D58DE86D
:10CC400046002B4622464946FFF7EAFEABF80000B5
:10CC5000681C03D003E047F6FF7007E02546601C20
:10CC600000D12C466119C1EB490000B2DAF800107E
:10CC700091F8F117022908D16F4921F8365001EBDC
:10CC8000C601A1F802908C80C880BDE8FE8F2DE916
:10CC9000FF4F002085B0DFF89CC101900290117811
:10CCA00083460546044607460391DCF800001E460D
:10CCB00031B95178B9B1417DD378491E8B4212D038
:10CCC000017D93788E46491E8B4204D192F80180F3
:10CCD000B8F1000F07D08B420BD1417D92F8038051
:10CCE000491E884505D1B0F8AA00801CA6F823008B
:10CCF000DEE0517892F80390B06A28E001F1010C6F
:10CD00000EFB0CF200EB42020492059A01EB011CAF
:10CD100002EB4C0202F1220A0FFA81FC039ACDF8D1
:10CD200000C011E00AEB020C9CF80180DDF818C08D
:10CD3000E04508D1DDF810C03CF912C0DC4502DD49
:10CD4000009CE34615B2521C9342EBDA491C89451C
:10CD5000D4DA01A90091012322462946FFF7FBFE00
:10CD600081460DF106000090002322462946B06A54
:10CD7000FFF7F1FE804602A80090022322462946D2
:10CD8000B06AFFF7E8FE03900DF10A00009003235C
:10CD900022462946B06AFFF7DEFEDFF898A08346F8
:10CDA000DAF8000090F8A01049063FD51DB1027DC9
:10CDB000521EAA4201D1414631E01CB1407D401EC5
:10CDC000A04201D149462AE041464846F6F793F889
:10CDD00002B259460398F6F796F801B2DAF8000065
:10CDE00090F8A00080061AD5002001AA32F9103070
:10CDF000002B01DD7F1CFFB2401C0428F6DB032F53
:10CE00000DD3BDF90610BDF90400F6F774F802B2AF
:10CE1000BDF90A10BDF90800F6F775F801B2002750
:10CE2000601ED446641CDAF8009025E008EB090087
:10CE3000F4E7000038021000D8DD012000281ADBDA
:10CE400099F81520824216DD99F814A000F1010826
:10CE5000B36A0AFB08F203EB420B6A1E6B1C08E084
:10CE6000002A05DB924503DD3BF8128047443FB2C0
:10CE7000521C9A42F4DD401CA042DFDDFA204143FF
:10CE800091FBF7F004B2A6F8234001212046FFF7FA
:10CE900089FDF8490C80DCF8001091F8F11702299F
:10CEA00003D1F5490C844F848884318C814202DDA2
:10CEB000012009B020E50020FBE72DE9F04F824674
:10CEC000DDE909B700209E463880894653782CE07A
:10CED000EA4903EB03140AEB440609682236DBF83F
:10CEE0002840097D5D1C694304EB4104117817E07B
:10CEF00006EB010C9CF80180C8450FD1B7F800C0C3
:10CF000034F81180C444A7F800C034F911C0844536
:10CF100004DDAEF802106046AEF80030491CC9B21C
:10CF200092F802C08C45E3D2EBB2D1789942CFD2CD
:10CF3000E2E42DE9FF4F83B01878109C92461E461C
:10CF4000A070987820705878E070D87860704FF0B2
:10CF500000085F784DE000BF039907EB071001EB75
:10CF6000400101F12209049901EB400000F1220B7C
:10CF70001298826AC1480068017D781C4143019083
:10CF800002EB4100009035782EE000BF09EB050070
:10CF90004178514526D1009830F9151011988142F9
:10CFA0001CDD08F101001FFA80F821782846F5F70A
:10CFB000A2FF207061783846F5F79DFF6070A17878
:10CFC0002846F5F79CFFA070E1783846F5F797FF03
:10CFD000E0700BEB050080F801A003E00BEB05000F
:10CFE000002141706D1C2DB2B078A842CEDA0198B4
:10CFF00007B2F078B842AFDA0FFA88F007B07BE4F6
:10D000009E490278096822B10A7D8378521E9342B4
:10D0100008D1427822B1C278487D401E824201D1B7
:10D020000120704700207047017869B193498378E7
:10D0300009680A7D521E934206D0427822B1C27816
:10D04000487D401E824201D1012070470020704778
:10D0500030B50546A1B0894800238DF880300268BC
:10D060000C46107D401E8DF882008DF88130507D79
:10D070006B46401E8DF8830020AA2846FEF73EFA34
:10D08000002220A96846FEF76BFA6A462146284628
:10D09000FFF7A9FB21B030BD2DE9F74F77480C46CB
:10D0A000154601684FF00009B1F9EDA2217809B1E8
:10D0B000491E2170617809B1491E61700268A1782A
:10D0C000127D521E914201DA491CA170834600680C
:10D0D000E178407D401E814201DA491CE170A07870
:10D0E0002870E07868702078A8706078E8706778B9
:10D0F0002FE0267807F1010826E00098816ADBF826
:10D100000000027D08FB026001EB4000B0F9000066
:10D11000504517DB09F1010000F0FF09297830467E
:10D12000F5F7E9FE287069783846F5F7E4FE68708F
:10D13000A9783046F5F7E3FEA870E9783846F5F7A8
:10D14000DEFEE870761CF6B2A078B042D5D208F0C8
:10D15000FF07E078B842CCD2484696E52DE9FE4F6D
:10D160000A780192521ED2B202928A78434B521C24
:10D1700002F0FF0A4A780092CE78D3F8009034E0AB
:10D180004FF0000E74467546029B25E099F8148016
:10D1900002F1010C0CFB083C876A07EB4C08B8F95C
:10D1A00000B04FF0020808EB4C0C6744B7F9007070
:10D1B000ABEB0707002F02DA4FF0010402E001DDBC
:10D1C0004FF002042DB1A54203D00EF1010505F088
:10D1D000FF0E5B1C2546DBB25345D7D9BEF1010FCC
:10D1E00001D9002051E5521CD2B29642C8D2009A11
:10D1F000019B521ED2B2761C06F0FF0A009241E05B
:10D200004FF0000EF0467446009A2AE099F8147028
:10D21000551CAB4605FB0735866A02F1020C0CFB78
:10D22000073706EB450506EB4707B5F90050B7F998
:10D2300000703385866A7285826A9585EA1B002AAA
:10D2400002DA4FF0010802E001DD4FF002082CB1D4
:10D25000444503D00EF1010202F0FF0E44460BF0EC
:10D26000FF025245D2D9BEF1010F09D9002180F841
:10D270003010B6E776251000D8DD01203802100006
:10D280005B1CDBB28A789A42BAD20120FDE42DE918
:10D29000F14FE6B00026FC48FC4DADF8686100682F
:10D2A0006860FB4C00F58860A8602168B346B14611
:10D2B000B1F90E125B91B2464FF4886106F0D9FACB
:10D2C000206890F86010CA0701D1890701D54FF096
:10D2D000010BF0490978012916D090F8C001C0F37C
:10D2E000C0005F900020299029AB10AA0121686836
:10D2F000FEF711F8064629AB03AA10A96868FDF7E6
:10D300005AFF012805D005E090F8E006C0F3400080
:10D31000E7E70126E048A6460673236801201A7D48
:10D3200015E0012100EB0014DC4DD84F0AE000BFEE
:10D33000D7F8048001EB440C18F80CC005F802C0C3
:10D34000521C491C93F814C08C45F1DA401C597DDD
:10D3500075468142E5DA012452E1D1480D900E90E4
:10D36000E1B210A88DF82E1030F81400ADF81600B8
:10D370005AAA03A8CDE9000229A8DFF8108300EB20
:10D380008402279260ABD8F80400FFF796FD0746A9
:10D39000ADF82C000020ADF82F008DF83C0088F887
:10D3A0000000BDF9820158B1BDF9803143B129684F
:10D3B0000A7D521E904203D0487D401E834201D117
:10D3C000012000E000205D90B648007880075FD51E
:10D3D000B0480078F0BB2868B34990F8A7200988C6
:10D3E0008A42B249097801D211B151E002294FD2E3
:10D3F000BDF968215B998A424ADA01218DF824102F
:10D4000090F8A4105891A9490978012905D190F8FC
:10D41000BC205899114489B258915D9901293ED098
:10D4200090F8A500A249599003A8B1F9002057A986
:10D430000091CDE90120279BD8E90101E2B2FFF775
:10D4400078FD964980B2ADF8160008555899884283
:10D450001ED900E01CE05999884219D89448B0F9C7
:10D460000000874214DD286890F8A010890719D5BC
:10D470009049B0F8FD0009684043884212DBE1B2F0
:10D4800003AB57AAD8F80800FFF701FC012809D020
:10D490005D992798FFF7D5F901281AD0AFE090F8E9
:10D4A000A600BFE70220ADF82600ADF82800002056
:10D4B0008DF825004FF00109E1B203AB4746279AEA
:10D4C000D8F80400FFF719FAE1B203AB57AAB8681D
:10D4D00093E07948B0F90000874270DD10A931F877
:10D4E000141056917549B1F90010814213DA57AA08
:10D4F000CDE9002003A90291D8F80410E2B2279BDD
:10D500000846FFF716FD10A921F814002799579A2D
:10D510000A60ADF816002868B0F8EB12B94219DDC0
:10D5200090F8EA02C00715D0012E13D163AA03A810
:10D530002799FFF7B1FD296891F8EF12814209D2CE
:10D5400063A8FFF771FD28B963A903A8FFF706FEDA
:10D550008DF83C00286890F865705448007848B110
:10D560002798FFF74DFD0128286825D090F8BD00C9
:10D57000384487B210A830F81400B8423FD903A845
:10D5800000904FF00109CA46E3B24746279A0D982A
:10D59000D8F8041000F028FA10A82A6830F81410FF
:10D5A00092F8670081420BD345480078012807D0E4
:10D5B00004208DF824001CE090F8C300D8E72AE08E
:10D5C000354B02208DF82400BDF82A109982B2F85C
:10D5D0006E205846914200D200205699032908D364
:10D5E00038B10090E1B203AB279A7868FFF7A1F851
:10D5F000CFE0E1B203AB279A7868FEF746FC641CE3
:10D60000B4427FF6AAAE2F4981F800902E4981F8E6
:10D6100000A067B08CE4286890F8C011C907EED06C
:10D620002A4909680029EAD0294909780029E6D160
:10D630008DF8241090F8C001400705D5E1B229AA61
:10D64000D8F80400FFF704FD47F6FF705990114821
:10D65000007801280ED05D9801281E4800780DD072
:10D66000012828683BD090F8CB7110480078012839
:10D6700038D03CE0286890F8E176F6E70128286881
:10D680002AD090F8CD71F0E7640210002804100051
:10D6900038021000950210007625100098CE012067
:10D6A000D8DD012092021000360410006002100044
:10D6B000640410007404100062041000720410006E
:10D6C0005B02100057021000580210009C0100225B
:10D6D000510210005902100090F8CC71C5E790F883
:10D6E000CA71C2E7286890F8D901384487B22F4838
:10D6F000B0F900102E48B0F90000814213DA57AAA1
:10D70000CDE9002003A90291D8F80410E2B2279BCA
:10D710000846FFF70EFC10A921F814002799579A24
:10D720000A60ADF8160010A830F81400B8427FF671
:10D73000B5AE599988423FF6B1AE66990220E3B280
:10D74000087003A800904746279A0D98D8F804104F
:10D7500000F04AF95F980090E1B203AB279A78682D
:10D76000FEF7E7FF286890F8C00180070DD5114843
:10D770000078012809D1E1B203AB279A7868FFF756
:10D7800086F8012801D10C4908705F9800283FF401
:10D7900012AFE1B203AB279A7868FEF7FEFF2EE7DF
:10D7A00006480021017301807047000072041000D8
:10D7B0006604100059021000700410007625100055
:10D7C000F0B5B2F900400568AC4202DDB3F90010D3
:10D7D0002EE002EB410434F9026CAE4204DA03EBB2
:10D7E000410131F9021C23E00024491E0BE000BF77
:10D7F00032F91470AF4205DC02EB4406B6F9027050
:10D80000AF4202DA641C8C42F2DB32F9146003EBA3
:10D81000440133F91430B1F9021002EB4402AD1B9C
:10D82000C91AB2F902206943921B91FBF2F1194423
:10D830000160F0BDF0B50E462549096801F2754357
:10D840002AB3012A2CD0022A33D0032A3ED191F8E0
:10D8500011C601F2126291F8104602EB4C0303EB81
:10D860004C0707EB440500BF0CEB04013E292DDCFF
:10D87000BCF1010F02DD6146FFF7A2FF012C25DD9F
:10D880002B463A4621463046BDE8F04098E791F8ED
:10D8900070C491F8714403EB4C0591F8721410E0D8
:10D8A00091F870C491F8714403EB4C0591F873142E
:10D8B00007E091F870C491F8714491F8741403EB87
:10D8C0004C0503EB410202EB4C07CDE7F0BD000035
:10D8D000380210004FF47A72504390FBF1F1744813
:10D8E00010B5814201DAC01110BD42F6A640814256
:10D8F00001DD5A2010BD6F4A002000BF32F9103000
:10D900008B4205DC02EB4003B3F902308B4202DAB2
:10D91000401C4528F2D332F9104000EB800302EBA3
:10D920004000091BB0F90200553B001B01EB8101CF
:10D9300091FBF0F0184410BD30B50D460446FFF7DA
:10D94000C9FF00EBD0704010002D02D00DDD34B1C6
:10D9500030BD002C03D005DD4FF02D0030BD4FF061
:10D96000000030BD4FF05A0030BD002C03D005DD63
:10D9700000F15A0030BD6FF0590030BDA0F15A00DF
:10D9800030BD10B58C1A00D56442002800DA404240
:10D9900004EB400011440A18081A521040104FF4CA
:10D9A0007A71484390FBF2F0C0F57A70D88310BDCD
:10D9B00030B5827803784D89D21AC3784078521CEA
:10D9C0001B1A5B1C05FB02F0D4185D4340006A0083
:10D9D000B0FBF4F0B2FBF4F2904202D948838A83A0
:10D9E00030BD4A83888330BD2DE9FF4F002716469E
:10D9F00082B03A463C46BC46BB46BA46707896F87A
:10DA0000039025E0039900EB001301EB4301223161
:10DA100001913178009196F8028016E0019B0B4449
:10DA20005D78059B9D420FD1A9EB000303F1010E28
:10DA3000009B0EFB0EAACD1A6D1C05FB05BB05FB5A
:10DA40000ECC7F1C2A447444491C8845E6DA401CED
:10DA50008145D7DA4FF47A70504390FBF7F101FB20
:10DA600004F54FF47A734FF47A70604390FBF7F04B
:10DA7000514391FBF3F2604390FBF3F195FBF3F517
:10DA8000ACEB0505ABEB0207AAEB01046800391B00
:10DA9000FFF752FF0F9922464876394628460F9BDA
:10DAA000FFF76FFF0F9906B03046BDE8F04F7FE7F4
:10DAB0005AD3FFFF583C0100FE4900200870FE4980
:10DAC0000870FE4908707047FD4910B40020FD4AF7
:10DAD000087001211170FC4A1070FC4A1070FC4A59
:10DAE0001070FC4A1070FC4A1070FC4A1170FC491E
:10DAF0000870FC4908708860C860FB490968B1F883
:10DB00006220FA4BFA4C1A80B1F8A1302380F94C0C
:10DB1000B1F8C6112180F84C2280F84A1380F84AE7
:10DB20001180F849088010BCC6E72DE9FF4FEE4A86
:10DB30009B4681B01268012592F815C0137D0CF147
:10DB4000010C68E04FF0000A47F6F8724FF0010947
:10DB50005442D6465646CDF8009019E005FB0367BF
:10DB600030F8178031F81770A7EB08073FB2BA42B8
:10DB700000DD3A46BC4200DA3C46002F02DA4FF0A4
:10DB8000000903E002DD4FF00007009706F10106EF
:10DB90009E42E3DB009E59EA060709D0B9F1010F66
:10DBA00003D0B9F1000F05D008E0009C012C05D18D
:10DBB000002203E0009E012E00D12246002412E044
:10DBC00005FB034630F8167031F816601744F61B53
:10DBD00036B25E4506DACBF10007BE4202DDB24442
:10DBE0000EF1010E641C9C42EADBBEF1000F01DD68
:10DBF0009AFBFEFA0AEB0204002209E005FB032669
:10DC0000DDF80C8030F81670521C274428F8167086
:10DC10009A42F3DB6D1C654594DB05B0BDE8F08FDF
:10DC20002DE9F041C2F1100742B1012B06D0B64BED
:10DC30001C78AD4B012C05D000244DE0BDE8F0412F
:10DC4000F5F7E9BC002518E000240FE0367D05FB60
:10DC50000646641C31F916C030F916E00CFB02FCD4
:10DC60000EFB07CC4CF30F1C21F816C01E6896F86B
:10DC7000E0C6B4EBDC0FE9DD6D1C1C68647D641C40
:10DC8000AC42E1DA00200127A04D11E092F8E02635
:10DC900007EBD20207E000BF00FB0424521C35F85A
:10DCA000146021F814601C68247D9442F4DC401C4C
:10DCB0001A68547D641C8442E8DABDE8F08100BF34
:10DCC00031F9145030F91460554306FB075545F3FC
:10DCD0000F1521F81450641C1E68757D367D6D1C6F
:10DCE0007543A542ECDCE8E72DE9FC5F7E4D074675
:10DCF000934628680C469846007D0026420001EBBA
:10DD000080004FF001093946F5F761FC2868417D34
:10DD1000007D491C4143420000EB400007EB4101FC
:10DD200004EB4000F5F753FC02274FF0300A286857
:10DD30003023007DCDE900A000FB07F104EB41009A
:10DD400002462146F5F775FD7F1C042FEFDB00200E
:10DD50002DE000BF00EB420334F9101034F913300A
:10DD6000C91A01D5C1F1000100EB820224F812109A
:10DD70002A6834F91010127D02EB4203034434F98F
:10DD80001330C91A00D5494202EB8202024409B29B
:10DD900024F812102A68127D00EB820234F9123046
:10DDA000434500DD761C414500DD761C401C29689A
:10DDB0000A7D8242CEDCD1B201EB410145F2AA508C
:10DDC00024F8210028685E45007D00EB400004EB4C
:10DDD000800046802968097D01EB410104EB810147
:10DDE000A1F8048001DD4FF000094846BDE8FC9F22
:10DDF0002DE9F0438946444900252C460A783A49E2
:10DE0000012A0B6806D0B3F8F6625A7D197D521CC0
:10DE10004A4312E0B3F8F166F7E700BF39F9117031
:10DE200030F911C007EB0608C44505DDBCEB070758
:10DE300000D57F423D44641C491C8A42EEDC2948DF
:10DE400065B193F83610A14208D2C16811B1012022
:10DE5000BDE8F0830121C1600020F9E70021FAE765
:10DE60002DE9F047824628481F4C89460178002654
:10DE700001252068904601296CD090F8371000BF2A
:10DE800001F00F0190F8200001EB81014FEA4107FA
:10DE9000000756D51F481E4A01685046F5F798FA04
:10DEA0001D491B480A680368D0F804C0D21A4B68A1
:10DEB00034E00000590210007004100051021000FC
:10DEC000550210004E0210005602100057021000BA
:10DED0005802100053021000540210007902100082
:10DEE0008B02100034041000380210005C04100093
:10DEF0005E0410006004100062041000640410004E
:10DF000066041000720410009502100056000120F3
:10DF1000DC2410006C021000CC241000A3EB0C03D6
:10DF20001A448B68D0F808C0C968C068A3EB0C031A
:10DF3000081A21681A441044B1F87810814200DAB6
:10DF40000025206890F8200080070FD5F74800785A
:10DF500018B10BE090F8F31692E7F548007828B96D
:10DF600049465046FFF744FF00B10025F148002123
:10DF700002789AB188F800108268521C8260236887
:10DF800093F837301B0903EB8303B2EB430F02DD39
:10DF90008160017001263046BDE8F0871DB18160C7
:10DFA00088F80050F7E78268531C8360BA42F7DDB7
:10DFB000012202708160226892F837201209EFD1A5
:10DFC00001700126ECE72DE9F05FDB48DB4B0168CF
:10DFD0001B78B1F9A120B1F96200012B0AD0B1F987
:10DFE000C631D74C2578D44C012D246894F8C091C3
:10DFF00003D012E0B1F9E236F3E7D24C246864B101
:10E00000B1F9AD20B1F96C005FEA897405D5CE4C49
:10E010002478012C01D1B1F96A00C44C2478012C78
:10E020002ED0022C06D3B1F8BE200AB1B1F9BE0041
:10E0300002461346DFF814B3C54C0546ABF8002082
:10E040002080C44CDFF814E3DFF814A3238091F898
:10E0500064601C46801B06B291F8A300101A07B238
:10E0600091F8C301181ABC4B0FFA80FCBD481F8001
:10E07000AEF80060AAF800C0007801280DD03AE0A0
:10E0800091F8BA40224491F8BB4012B2204491F872
:10E09000DA4100B223441BB2CCE791F8CC006421F2
:10E0A00000FB05F8B8FBF1F84544DFF8A482A8F8B6
:10E0B000005000FB02F8B8FBF1F800FB04F5B5FBDB
:10E0C000F1F54244ABF80020A24A2C44148000FB36
:10E0D00006F400FB07F2B4FBF1F4B2FBF1F200FB33
:10E0E0000CF0B0FBF1F03444AEF800403A441A8032
:10E0F0006044AAF800009C480078800706D4944841
:10E100000188ABF80010BEF8000018805FEAC97003
:10E1100002D08C48006830B98E48BBF800100180EE
:10E120001988AAF80010BAF90020BEF90010B3F956
:10E130000000F4F7E8FE8D490880BDE8F09F7E4AB4
:10E1400010B51268537D127D5B1C534307E000BF7E
:10E1500030F912408C4201DD012010BD521C9A4260
:10E16000F6DB002010BD2DE9F05F834680488A462B
:10E1700015460068002406464FF4086105F079FB57
:10E180006D4900202860086801229446037D18E04C
:10E1900002EB021006EB400901200DE03AF9137082
:10E1A0005B1C5F4507DD09F800C0D5F80080641CE2
:10E1B0004744A4B22F60401C0F683F7D8742EDDAD0
:10E1C000521C0868407D9042E2DA2046B5E7F0B57F
:10E1D000594E33685D7D1B7D6D1C5D4300242746D1
:10E1E00009E000BF30F913C0944502DA21F813703A
:10E1F00000E0641C5B1CAB42F4DB3068B0F89A00B2
:10E20000A04201DD0020F0BD0120F0BDF0B50025E9
:10E21000494C26E000220123767D0EE003FB075CDB
:10E2200030F91CC0BCF1000F04DD0AB1944503DADB
:10E23000624601E00022731C5B1C9E42EEDA002A5B
:10E240000EDD012308E0367D03FB065630F816701C
:10E25000BF1A21F816705B1C2668777D9F42F2DAA0
:10E260006D1C2668377DAF42D4DCF0BD2DE9F0434C
:10E27000314B81461868467D057D761C002028E0DC
:10E280001A6892F85C20642A05D9C2F164024243FC
:10E2900092FBF5F405E0643A02FB00F494FBF5F41C
:10E2A000141B643401224FF064080FE01F683F7DA7
:10E2B00002FB070739F917C0BCF1000F05DD0CFBA5
:10E2C00004FC9CFBF8FC21F817C0521CB242EDDBA9
:10E2D000401CA842D4DBBBE52DE9F047164B814634
:10E2E0008A461868447D057D641C012051E01E6843
:10E2F00096F85D10642907D9C1F16401421E5143AB
:10E30000727D91FBF2F206E06439421E777D4A434A
:10E3100092FBF7F28A1A317D6432414309EB4106E0
:10E320000AEB410700214FF064082FE06002100063
:10E33000550210003404100038021000950210003D
:10E34000590210009C010022700410005E041000AD
:10E350005C041000600410006404100062041000EB
:10E360006604100062021000920210007204100095
:10E370006402100036F911C0BCF1000F05DD0CFB82
:10E3800002FC9CFBF8FC27F811C0491CA942F1DBF8
:10E39000401CA042ABDBFFE52DE9FE4F0546A74838
:10E3A00000274FF0010B007810B1A54981F800B0AB
:10E3B000A4480026047806700320F2F73EF9FFF720
:10E3C00002FEA1482346A14902682846FFF728FC1F
:10E3D000234602AA9E499D48FFF742FD04469DF848
:10E3E0000800DFF87082DFF87092E8B39B4CDFF82A
:10E3F00070A2206890F8400080070FD59948BAF9BC
:10E400000010B0F900209848B0F90000F4F77BFD47
:10E410008E4A03B28E491046FFF787FB934D8C4A14
:10E420008A482968F5F78FFA0320F2F721F9206866
:10E4300090F84000400703D529680846FFF7E6FE3C
:10E44000206890F84000000703D529680846FFF7C8
:10E4500043FF206890F84000C00603D529680846AD
:10E46000FFF704FF206800E00CE090F86010490717
:10E4700034D52968B0F968200846FFF7A8FE0128BE
:10E4800016D02BE00320F2F7F3F8012C6CD1D8F86A
:10E490000010012041F00501C8F80010D9F8001063
:10E4A00041F40071C9F80010A102F1F7E7FF5BE049
:10E4B000206890F86000800610D5D8F80010012080
:10E4C00041F00501C8F80010D9F8001041F480614E
:10E4D000C9F800104FF48061F1F7D0FF6448654936
:10E4E00000780228206819D0007D2A6801EB4001DD
:10E4F00002EB4000F5F78FF8DFF87C815D48B8F952
:10E500000010FFF71CFEDFF874C1DFF874915D4D59
:10E510009CF80010D9B1012838D01AE090F84020BA
:10E520005206E9D58DF804608DF80560027D521E13
:10E530008DF80620427D0091521E8DF80720B0F91B
:10E540005A20514901A82B68FEF71AF8D4E7012890
:10E550000DD04E488CF800604D49067089F8006077
:10E56000087808B1401E08703846BDE8FE8FBAF939
:10E5700000104048FFF7E3FD8CF800002E80206873
:10E5800090F82901000701D5FCF7C5F889F800B01B
:10E590000127404A3749B8F90000FFF7E4FD3D493B
:10E5A000091F488029888142DED22880DCE770B5C7
:10E5B00005460320F2F741F82348224C234902681C
:10E5C00023782846FFF72CFB244D00202070286874
:10E5D00090F84010890706D51C4AB0F962301C49F2
:10E5E0001046FFF7A2FA214C194A18482168F5F79E
:10E5F000AAF9286890F84000400703D5216808462A
:10E60000FFF704FE286890F84000000703D5216852
:10E610000846FFF761FE286890F84000C00603D561
:10E6200021680846FFF722FE12492068F4F7F3FF3D
:10E63000BDE870400320F2F71BB8000095021000FF
:10E64000590210004E0210004C04100058D6012050
:10E650005600012040021000440210003802100051
:10E660005C041000600410005E04100064021000DE
:10E6700060021000D8DD0120720410005702100063
:10E68000560210004C0210009E3C0100580210007F
:10E690005102100038041000FD48FE4A006830F8AE
:10E6A000E81F1180FC498079C8807047FA48002132
:10E6B000F74A41808180C160126892F843201209B4
:10E6C000826001610170F548017070472DE9F041E9
:10E6D000EF4DF04A2F6897F8D0C0B7F8E8605FEACE
:10E6E000CC714AD097F8ED3003B90123118897F81F
:10E6F000ECE0A1EB060404FB0EF494FBF3F3B7F893
:10E70000EA405FEACC6C01EB040E734400D523466B
:10E71000E14C984211DD002610210120E660F1F75E
:10E72000ADFE286890F86010490602D5DC4A012148
:10E730001170A68090F8EE0006E0814202D9D74B16
:10E740001B7823B197F8EE00E080BDE8F081D54B4F
:10E750001B78002BF9D1B4F90630002B01DD5B1ECC
:10E76000E380E388002BF0D1891E814200DA014664
:10E770008E4200DD31461180E7E71680E5E7F0B50F
:10E78000C349C54D096891F84020D20753D0C34A08
:10E790001778C54A1278AFB1012A09D091F84330F1
:10E7A000B1F84A6003F00F021C09B1F8483015E0D7
:10E7B00091F84D30B1F8546003F00F021C09B1F824
:10E7C00052300BE0012A1AD011F8423F03F00F0239
:10E7D0004FEA13144B888E88A1F1420191F820C1B1
:10E7E0005FEACC7C16D0DFF8C4C2BCF800C05FEA98
:10E7F0004C5C0FD591F8251157B10A090AE011F8C0
:10E800004C3F03F00F021C094B888E884C39E5E71A
:10E8100001F00F02984201DCAA60F0BDB04201DBBA
:10E82000AC60F0BDC01AA11A4843F11A90FBF1F098
:10E830001044A860F0BD0020FBE7954A10B51268AF
:10E840000021B2F8B830834205D292F8B0301B07ED
:10E8500001D5032112E0B2F8B630834205D292F816
:10E86000B0305B0701D5022108E0B2F8B430834232
:10E8700004D292F8B000800700D501218648874C69
:10E880000378994211D1217899420AD0854A1278A9
:10E89000134307D00169491E0161002901DC00789A
:10E8A000207010BD01700169F7E759B1022901D14B
:10E8B000012B07D092F8B22002610170002AF0DC2F
:10E8C000217010BD92F8B320F6E77149096891F8FC
:10E8D000B010CA0670490DD58A88831A002B09DC4E
:10E8E000704B1B784BB1C2EB0212520002EB40009E
:10E8F000C0F34F10888080B27047C2EB8212104480
:10E90000C0F38F10F6E72DE9F043614E0546A3B042
:10E910003768802197F8B10000F00F04641C02A84A
:10E9200004F0C9FF97F85F04C00714D0002710E077
:10E930003168087DB1F96234CDE9003000FB07F29F
:10E94000B1F9603405EB420002462946F4F771FF45
:10E950007F1CA742ECDB30680023814602A9007DC2
:10E9600011E000BF00FB03F6002209E006EB020CF9
:10E9700051F8227035F91CC0674441F82270521CCE
:10E980009042F3DC5B1CA342ECDB002207E000BFFB
:10E9900051F8223093FBF4F341F82230521C90429C
:10E9A000F6DC002213462AE000273E460DE000BFB9
:10E9B00006FB003C51F8238035F91CC0BCEB080C69
:10E9C00001D5CCF1000C6744761CA642F0DB97FB26
:10E9D000F4F699F82071FF070DD0344F3F887F057A
:10E9E00009D599F824714FEA171C0CFB06FC07F0B7
:10E9F0000F069CFBF6F6964200DD32465B1C984201
:10EA0000D2DCB2F5803F04DB4FF6FF7023B0BDE8E7
:10EA1000F08390B2FAE710B5FFF775FFFFF755FFE7
:10EA20001D4C4FF00051020A60804A738873FFF753
:10EA300004FF6088FFF7A3FE6088BDE8104045E64C
:10EA4000F0B4134A116891F8B130097D03F00F0456
:10EA5000114B641CDD6895FBF4F604FB1655694305
:10EA6000134D05EB4105002105E000BF30F81160B2
:10EA700025F81160491C1668367D8E42F6DCD86890
:10EA8000401CD860A04215DBF0BC0948C3E7000079
:10EA9000380210006C2510004404100060021000C1
:10EAA0008B0210005702100059021000740210006F
:10EAB00058D20120F0BC704731B56846FEF7E7FB3D
:10EAC000FE4C2078022805D19DF80000012801D1D4
:10EAD00001F0A7FE9DF80000207038BD10B5FEF7CC
:10EAE0005FFEBDE8104001F0F1BD10B5FEF7ECFF90
:10EAF000FCF72CFB01F0D2FDBDE81040FFF7D6BDBE
:10EB0000EE4910B500204861FFF7EFFFEC480068C0
:10EB100090F8E801002803D0BDE81040FCF71CB9CC
:10EB200010BD2DE9F84F4FF00057387C797A8842B4
:10EB300001D101203874387C4FF0AA09012805D191
:10EB4000E049E148F4F767FD87F81090387CDD4C28
:10EB5000DB4EDA4D022815D12146DC48F4F75BFD87
:10EB6000306890F8F10758B9A888208068896080DB
:10EB7000E888A080A889E08028892081E8896081D0
:10EB800087F810904FF00050007C032847D1306880
:10EB900047F6FF784FF0000E477D017D7F1C4F4305
:10EBA00004EB47006FEA080BC246734672460090BA
:10EBB0001DE0C64830F811C0009830F81100ACEBE9
:10EBC000000000B224F81100404500DA80465845A4
:10EBD00000DD83460344002800DA404200B250457D
:10EBE00000DA8246704500DD86460244491CB9427F
:10EBF000DFDBA4F80080A4F802B01814A080E38042
:10EC0000A4F808A0A4F80AE01014A081E281AF489B
:10EC10000099F4F700FD4FF0005181F810904FF08B
:10EC2000005B9BF81000042836D130680027BA46F4
:10EC300090F815C00121DFF89482007D10E00022D9
:10EC40000AE000BF01FB002338F913309F4201DACC
:10EC50001F468A46521C12B29042F3DC491C09B28C
:10EC60008C45ECDA00FB0AF1B5F91030420058434C
:10EC700008EB410104EB4000F4F7A9FCB5F91000E2
:10EC8000202801DA24F810702080401C00B228826D
:10EC90003C2801DB012028829BF810005F460528F4
:10ECA00013D13168487D097D401C484301EB800049
:10ECB000420087498348F4F78AFC86480078A080A0
:10ECC00085480078E08087F81090387CFF2806D1CE
:10ECD0004FF4F0517B4804F0CCFD87F81090387C5D
:10ECE000FE2814D10020794A316808E034F910C0B8
:10ECF00032F910309C4501DA24F81030401C4B7D6D
:10ED000091F814C05B1C03FB0CF38342EEDC387CEF
:10ED1000FD2804D100206870A870FC203874387C6D
:10ED2000FC2830D1DFF8B48198F80000C00702D089
:10ED30000120687002E06878012824D13168487D9C
:10ED4000097D401C4843A9784200414304EB41043B
:10ED50005E492046F4F73BFCB8F80000E087A8883D
:10ED600060866889A086E888E086A8892087288947
:10ED70006087E889A087A878401CC0B2A8700428E2
:10ED800001D187F81090BDE8F88F10B50024FFF787
:10ED900003FB012801D0C8B103E0FFF78DFE01F0AD
:10EDA000A5FC4F480124007850B14E49012008705D
:10EDB0004348006890F8F002C00701D0FAF7BAFAA9
:10EDC00008210520F1F75AFB204610BDFFF786FE0B
:10EDD000F6E73B4910B50C6804F2223414F8013C04
:10EDE0002178A2886488A04201D9184610BD9042BB
:10EDF00001D2084610BD801A5B1A5843A21AB0FB14
:10EE0000F2F0084410BD2DE9FC472D4D894682469D
:10EE1000286835490026B0F8FA26098834460A449D
:10EE200013B2B0F8FC26891A0FB2427D017D521C44
:10EE30004A431FFA82FC2D4A1278042A6BD190F8BB
:10EE40006020D2060AD40BE03AF911209A4201DC84
:10EE5000BA4201DA012603E0491C89B26145F3D3C5
:10EE600090F86100DFF88880000723D5D8F800000B
:10EE7000FFF7AFFF0446B9F1010F10D11D4F20205D
:10EE80001F233978CDE9000128681B49027D5046CF
:10EE9000FAF7A7F83878012801D1002038704EB968
:10EEA00028682346144990F820235046FEF71CFF9B
:10EEB00000B91026286890F8F1071FE058041000E8
:10EEC00038021000B4340120D40B1000D8DD01202A
:10EED00040B00120DD031000E0031000A402100088
:10EEE000550210007E02100038031000800210004E
:10EEF000380410007902100058E5012001280AD1D9
:10EF0000EE4801210180D8F800100A144280818067
:10EF10002114C18004813046BDE8FC872DE9F0470B
:10EF2000E7480026E74F02683146507D127D401CBD
:10EF300000FB02F8387848B3DFF88CA300244FF0C8
:10EF4000010900BF387809FA04F5054215D0DF48F9
:10EF50000078A04200D10121DD4A04FB08F002EB59
:10EF60004000FFF750FFA0B1A04030439AF80010D6
:10EF7000C6B2A9438AF800100021641C042CE1D316
:10EF80009AF8000000B10026002038703046BDE835
:10EF9000F0879AF800100D438AF80050ECE72DE94D
:10EFA000F05FC74A06460125002710688B0403D589
:10EFB00090F8F93603F00F05C90409D590F8F91651
:10EFC0000D09C449097809B9C3490D78BF490F78BB
:10EFD000447D007D641C4443DFF8F4B29246012D69
:10EFE00044D9B94A4FF0000948464FF0010811785A
:10EFF00009E000BF08FA00F30B4203D009F1010356
:10F0000003F0FF09401CA842F4D3C80705D06200F2
:10F01000AF493046F4F7DBFA03E06100304604F014
:10F0200028FCDAF800004246DFF89CE2007D1BE095
:10F03000012110E09EF800C002FA01F313EA0C0F60
:10F0400008D001FB040836F810303BF818C06344C0
:10F0500026F81030491CA942ECD336F9103093FB46
:10F06000F9F126F81010401CA042E1D3DAF80000B4
:10F0700067430BEB4701007D42003046F4F7A7FAE7
:10F080000120BDE8F09F2DE9F041944F0026354660
:10F09000388810F4405F07D0FFF740FF04469048DF
:10F0A0003968FFF77CFF04E001218D48FFF7ABFED4
:10F0B000044664B18B490120054608708A490870EE
:10F0C0008A482146B0F90020FD20FBF7FAFB88486A
:10F0D0007B4C0178012914D1216891F86010490610
:10F0E0000FD58449844A49881288914202D100216F
:10F0F000017006E001254FF6FF722946FC20FBF760
:10F10000E0FB206890F8B000C00702D07448FFF719
:10F1100097FC25B979497248FFF737FE0646FFF795
:10F1200000FD3046BDE8F08170B56C4E7448002497
:10F13000356805421BD07348406905400620F1F749
:10F140007CFAA80703D57048FBF7FEFE0446E807E3
:10F1500002D0FFF798FF04433068002802DA204607
:10F16000FBF7BCFFBDE870400620F1F781BA70BD27
:10F1700010B56648634900684C6944400ED0486148
:10F18000A00701D5FBF7E8FDE00701D0FFF7ADFCD4
:10F19000600603D5BDE81040FEF78EBC10BD70B50B
:10F1A0004E48002405785748007D05400620F1F7B9
:10F1B00044FAE80728D0424D554E286890F81001CF
:10F1C000000712D53078C00705D04548FFF7EFF9A2
:10F1D00002F0A8FA04464F480078072805D1012C10
:10F1E00003D140210220F1F749F9286890F8100175
:10F1F000C00609D53A48FFF7DAF93078400703D559
:10F2000008210520F1F73AF9BDE870400620F1F732
:10F210002FBA3C4C08B50025E570FFF73DFAE078C1
:10F2200078B30128FBD16B46002240F285210320F0
:10F23000F1F763F90098C00706D001210320F1F728
:10F240004CF9E570FFF75CFC0098400705D50421F8
:10F250000320F1F742F9FFF767FF0098800506D514
:10F260004FF400710320F1F738F9FFF798FF009889
:10F270000006D4D580210320F1F72FF9FFF778FF9E
:10F28000CDE7FFE703210020F3F7BFFF6B46002225
:10F2900002210320F1F731F903210120F3F7B5FF33
:10F2A00000988007BBD5FFF72BFC40F28721032095
:10F2B000F1F713F90120E070B1E70000D8DD01207B
:10F2C00038021000DC031000DD031000E003100022
:10F2D00040B00120DE031000DF03100074021000B4
:10F2E000D40B10004E0210008A02100038031000E8
:10F2F0008B0210006C2510008C021000D0A501209C
:10F3000003000080580410003A2E0120E40410008D
:10F310009202100080021000FE480021017041603E
:10F320007047FD480178FD4819B9017821F00101C5
:10F330000170FB490978002903D1017821F002010D
:10F340000170704738B5044690F8C90000281AD1FA
:10F3500004F14602111F684601F028FEBDF90200C3
:10F36000002800DA4042EF49096891F828118842E4
:10F3700006DCBDF90000002800DA4042884202DDC8
:10F38000012084F8C90038BD10B5827F90F82010A4
:10F39000531ADB1C042B06D9C37F90F821401B1B9A
:10F3A0009B1C022B10D9E04B1B787BB12AB1DD4AA4
:10F3B0001268127D521E914208D1C17F90F821003F
:10F3C000081A401C022801D8012010BD002010BDE1
:10F3D0002DE9F05F4368054600261804000CB3468B
:10F3E00018D000214FF00A0808464FF0010C00BF6A
:10F3F0000CFA00F213421AD000EB800202EBC002BA
:10F4000005EB0212103292F82240012C07D04FF087
:10F410000A080FE0C14981F800B0BDE8F09FD46848
:10F42000128994FBF2F28A4201DD11468046401CAB
:10F430000A28DDDBDFF8DCA2DFF8E892002700BF56
:10F4400068680CFA07F108420DD007EB870000EB63
:10F45000C70005EB00141034761C94F82200012834
:10F4600002D007286BD084E0022084F822002079A3
:10F4700048B1AD480078C0B3D9F80000B84590F85D
:10F48000C0001FD115E0A9480078012808D0A8487D
:10F4900000780128D9F8000016D090F8CF0115E0C7
:10F4A000A148007840B1D9F80000B84590F8D801DB
:10F4B00008D100F00F0009E0D9F80000B84590F835
:10F4C000D001F6D0000901E090F8D401E0702046A8
:10F4D000FFF75AFF012820D060780CFA00F2DAF822
:10F4E00004009043CAF8040043E0FFE7D9F80000A5
:10F4F000B84590F8820002D100F00F0000E000094A
:10F50000E07094F8C8000128E1D18A4884F803B07B
:10F51000016841F004010160D9E7D9F80000E17801
:10F5200090F8830000F00F000844E0706078DAF88B
:10F5300004200CFA00F11143CAF8041019E0082065
:10F5400084F8220078480078D8B3D9F8000090F801
:10F55000C10000F00F00E070D9F80000616A90F877
:10F560008500B1EB101F04DDE17800F00F000844C6
:10F57000E0707F1C0A2FFFF663AF00274FEA0C08EC
:10F58000686808FA07F1084267D007EB870000EBCC
:10F59000C70005EB0014D9F800001034CC4690F8F1
:10F5A0008110C90701D0012E20D0617808FA01F03E
:10F5B000DAF8041008422DD02046FFF7E5FEB0B37C
:10F5C00028E0FFE7D9F8001091F8841001F00F014E
:10F5D000E170D9F8000090F8E006C007BCD05648AA
:10F5E00000780128B8D184F803C0B5E790F883000B
:10F5F000E17800F00F00081A22E0E07002E000BF9E
:10F6000084F803B06078DAF8042008FA00F18A433D
:10F61000CAF80420DCF80000E14690F82901C00790
:10F6200002D02046FFF78EFEE07860B19BE0FFE756
:10F63000DCF80010E07891F8831001F00F01401A17
:10F640000028DDDDD9E794F82200022806D008283A
:10F650003CD0092844D02079B8B387E0032084F84F
:10F6600022003448016841F002010160207948B964
:10F670002E48007818B94FF48670FBF7E4F92B494F
:10F6800081F8008024480078012815D123490320FF
:10F690000870207902280FD124480078012802D16F
:10F6A0000C20FBF7D0F92549052008701F4981F887
:10F6B00000B0234981F800B019480078012850D1E2
:10F6C0001648017841F002014AE013E0D9F8000041
:10F6D00090F82901C00703D094F8C900012805D08B
:10F6E0000A2084F82200FFF71CFE3AE0092084F883
:10F6F00022003BE0D9F80000E17990F8CF01814287
:10F7000034D902202071054984F807B0032008701D
:10F71000064817E078041000570210005502100048
:10F72000560210003802100060021000590210004A
:10F7300052021000A40210009502100051021000A5
:10F74000700410000078012802D10C20FBF77BF92F
:10F750002549052008702548594680F800B02448FE
:10F760000170E07810B1C0B2401EE0707F1C0A2F1B
:10F77000FFF606AF51E6F0B500211E4C012500BF93
:10F78000426805FA01F31A4221D001EB810202EB33
:10F79000C10200EB0212103292F82230022B16D175
:10F7A000124ED3783678012E15D0134E3678012EAE
:10F7B000266816D096F8CF7196F8826006F00F068C
:10F7C000BE1B9B1B1BB2002B00DC0023D370491C0B
:10F7D0000A29D5DBF0BD266896F8D07107F00F072F
:10F7E000EAE796F8D471E7E75102100059021000D9
:10F7F000700410003802100052021000FC49002072
:10F80000086070472DE9F04F002789B03E463D461D
:10F810003B46C3F10502002900EB820264D0B2F935
:10F82000002017445A4302FB03555B1C1644062B69
:10F83000EFDBF04C009760680190A068CDE902060C
:10F84000206904906069CDE90505E0690790206AA8
:10F8500008906846F3F75EFB82462068CDE9000712
:10F86000A0680290E068CDE9030660690590A06990
:10F87000CDE90605206A08908B466846F3F74AFBF7
:10F880008046206800906068CDE90107E068039039
:10F890002069CDE90406A0690690E069CDE9070575
:10F8A00089466846F3F736FB0326A8FB06470B4656
:10F8B00009FB0671002508FB05110925A0FB05675A
:10F8C00003FB0573002200FB0230A319414113EB37
:10F8D0000A0041EB0B014FF47562002303F058FF5F
:10F8E00009B000B2BDE8F08FB2F9022099E770B517
:10F8F00005460024423021460646FFF783FF60F3A9
:10F900001F4401213046FFF77DFF0146204661F389
:10F910000F00C5F84A0070BDB7490A68B2F81C115B
:10F92000814211D2B2F81E21824201D8D0B209E040
:10F93000401A521AC0EB0020B0FBF2F0FF2800D9A9
:10F94000FF20C0B2002800D101207047AA490A68F0
:10F95000B2F82B1181420ED2B2F82D21824201D889
:10F96000FF207047521A401AC0EB0020B0FBF2F0A3
:10F9700010F0FF00F5D10120704730B59E490968AD
:10F9800091F81D22920725D58A7ED20702D00B8BD3
:10F99000CA8A01E0CB8A0A8B91F819420514A54264
:10F9A00001DC64F31F4091F81A5204145B1B9C4263
:10F9B00001DB63F31F4091F81B3204B29C4201DC6F
:10F9C00063F30F0091F81C1203B2511A8B4201DB52
:10F9D00061F30F0030BD38B5B2F90230B2F9002042
:10F9E0005B4302FB02340A460146684601F0DEFA38
:10F9F000684601F0D3FAA04201D9002038BD0120A9
:10FA000038BDF8B57C4E0D46044690F8221001270B
:10FA1000306803290ED0B4F93C10002916DD10F827
:10FA2000981FADF802104078ADF80000A08F401E7E
:10FA3000A08712E088304178A18700786087286825
:10FA4000C4F832002868C4F8360087E010F8861F32
:10FA5000ADF80210407CADF800006A4604F14201A6
:10FA600004F13200FFF7B7FF014694F822000528A1
:10FA700008D0042806D008286BD00A2869D00928A5
:10FA800067D06BE079B13068B4F93A1090F888200B
:10FA9000914245DA90F8800040074FD5294620462C
:10FAA00000F0B7FD4AE02868C4F83200B5F902005A
:10FAB000B4F938108842316891F8871001F00F01CD
:10FAC00001DD401A00E008442087B5F90000B4F9D0
:10FAD00036108842316891F8871002DDA0EB1110D2
:10FAE00001E000EB1110E0863168B4F93A0091F8BA
:10FAF000881088420FDDB5F90200B4F934100844CB
:10FB00004FEA60006880B5F90000B4F9321008448B
:10FB10004FEA600028804FF000006087A0871DE05A
:10FB200003D12868C4F8320008E0D4F83200286015
:10FB3000306890F88000800700D40027B4F93A00BC
:10FB400040F6FF71884201DA401C6087012F05D022
:10FB50000FE0012902D1D4F85A0028602868C4F8BF
:10FB60005A00B5F902000002E062B5F90000000297
:10FB7000A0623846F8BDC2F11003504301FB0300F8
:10FB80000009704770B51D4B1C781B4B1D6844B1B4
:10FB900015F8C20F00F00F0403096888AD884043D0
:10FBA0000BE078B1012810D095F88A0000F00F041E
:10FBB000030935F88C0F6D8840436D43814207DCA3
:10FBC000184610E095F8D101F0E795F8AC00EDE7A4
:10FBD000A94201DB204606E0091A1E1B7143281AC0
:10FBE00091FBF0F0181A82420AD9A2F101000CE050
:10FBF0007404100088041000380210006002100025
:10FC000002D202F1010000E01046A04201D22046DB
:10FC100070BD9842FCD9184670BDFE4A10B51478E4
:10FC2000FD4A136844B113F8C20F00F00F025C885C
:10FC3000000964439B880CE090B1012813D093F82D
:10FC40008A0000BF33F88C4F00F00F0200095B8878
:10FC500064435B43A14202DD994207DB104610BDBD
:10FC600093F8D101EEE793F8AC00EBE7091B821A99
:10FC700051431A1B91FBF2F1401A10BD70B50446B6
:10FC80000E4690F822000021032824D0052831D008
:10FC900004282AD00A2801D009281BD1DE4801688F
:10FCA00091F88000000615D4DA4BB1F88C001B786F
:10FCB000404313B1B1F8C400404382420AD8BA3479
:10FCC00060687F3040F30F20708020687F3040F301
:10FCD0000F20308070BDB6F90200BA3400026060B7
:10FCE000B6F900000002206070BD20791146FFF7D0
:10FCF00094FF04E02079D4F8C420FFF743FFC4F850
:10FD0000C40005462178C54829B9017965F3071172
:10FD10000171216901612178012903D1417965F3DC
:10FD200003014171B6F90200BA34010260682A4643
:10FD3000FFF721FF60607F3040F30F207080B6F93D
:10FD400000002A4601022068FFF715FF2060BDE78A
:10FD50002DE9F04F81468B4693B0D9F8B410144684
:10FD6000D0F8B00002220023CDE9000103F010FD1D
:10FD700008910E9099F8B810042936D0A6480022B0
:10FD80000223D0F800A029B999F8220003282ED028
:10FD900002282CD099F82200082865D0042863D0C6
:10FDA000052861D0092877D00A2875D0012921D0EB
:10FDB00002295BD0042918D19AF83703C00701D073
:10FDC00089F8B9209AF8FF004043A0427ED2B9F9E1
:10FDD0004210C9F82810B9F94400C9F82C00ABF852
:10FDE0000200B9F84210ABF8001013B07AE5012117
:10FDF00089F8B8109AF83703C00701D089F8B920FC
:10FE000089F8B8304FF480310020C9E92C10BBF9D3
:10FE10000220A2FB0145D31703FB015302FB003371
:10FE2000C9E91843BBF90020A2FB0145D31703FB26
:10FE3000015302FB0033C9E92243BBF90220A2FBB4
:10FE40000145D31703FB015302FB0032C9E91A42F3
:10FE5000BBF90020A2FB0145D31703FB015102FBB4
:10FE60000011C9E92441C0E789F8B8306948007831
:10FE7000B0B140F6E8100021CDE9040141F2CF31E4
:10FE80000020CDE9090166484114CDE9020148F29C
:10FE9000C460002151E0FFE7042189F8B8108BE726
:10FEA000BAF838035F494043A0429AF8370301F19A
:10FEB0002802A1F15003A1F128054FEAC07031DCFE
:10FEC000F0B199F8B900092803D200E025E1401CFF
:10FED0002FE0092489F8B94099F8B90051F82010A9
:10FEE000CC17CDE9041452F82010CA17CDE9092126
:10FEF00053F82010CA17CDE9021255F820001BE074
:10FF0000DAF85603C117CDE90401DAF85203C11734
:10FF1000CDE90910DAF84A03C117CDE90201DAF890
:10FF20004E0309E0002874D099F8B9000028D3D016
:10FF3000401E89F8B900CFE7C117CDE90C01D9E916
:10FF400018211292DDE90234A2FB03050B9101FB9B
:10FF5000035102FB0411DDE9002303F019FCB9F998
:10FF60004430B9F94C201344DDE90424A3FB0267B3
:10FF7000DD1705FB027203FB0424B9F94830DDE903
:10FF80000925A3FB05C8DF1707FB058503FB025204
:10FF900016EB0C0354411D1A64EB0104DDE90C213E
:10FFA000D9E91A36A3FB020706FB027203FB012103
:10FFB000DDE9002303F0ECFB2A1A64EB0104CDE930
:10FFC0000624D9E92221CDE91021DDE90234A2FB82
:10FFD000030501FB035102FB0411DDE9002303F0DB
:10FFE000D7FBB9F94230B9F94A201344DDE90424BA
:10FFF000A3FB0267DD1705FB027203FB0424B9F9BA
:020000021000EC
:100000004630DDE90952A3FB02C8DF1707FB028275
:100010000AE053E06002100038021000762510005C
:10002000DAA0FEFF183D010003FB052216EB0C03CE
:1000300054411D1A64EB0104DDE90C12D9E92436A0
:10004000A3FB010706FB017103FB0211DDE900239D
:1000500003F09EFB2E1A64EB01070B99129AC9E973
:100060001A21DDE91012C9E92412DDE906210E98F2
:10007000089B10185941DDE9002303F089FB054670
:10008000C9F82C000E98089A301847EB0201DDE9F8
:10009000002303F07DFBC9F82800DDE90624C9E947
:1000A0002267C9E918249AF81A10C90700291AD03A
:1000B000BAF818201AD1BAF8181019E0DAF846037D
:1000C0004FEAE071CDE90401DAF842034FEAE0714A
:1000D000CDE90910DAF83A034FEAE071CDE90201FF
:1000E000DAF83E0328E7BAF81620E3E7BAF8161064
:1000F000954201DD154602E0002D00DA0025C9F821
:100100002C50884204DC002801DA002100E001467E
:10011000C9F82810ABF8025026E0D9E918310E983A
:10012000089A18185141DDE9002303F031FB044619
:10013000D9E922310E98089A18185141DDE90023B7
:1001400003F026FBB9F94410214401EBD1714910A9
:10015000C9F82C10B9F94220104400EBD0704210BD
:10016000C9F82820ABF80210B9F82800ABF8000055
:100170003BE62DE9F843154600F146028846044661
:10018000111F684600F012FF684600F007FF07469F
:10019000FE480168B94200DA3946FD4E0160306818
:1001A00090F88000000604D53A4641462046FFF705
:1001B000CFFDF849D8F800004860306890F880001A
:1001C000000704D53A4641462046FFF757FD94F80C
:1001D000220003280BD005280BD0042809D00928B9
:1001E00001D00A2801D1208E2880BDE8F883288814
:1001F00009E03068298890F88B0000F00F02208E0B
:10020000FFF7B9FC28802086EFE770B5002245682B
:100210001146012606FA01F31D4213D001EB8103BA
:1002200003EBC10300EB0314103494F82230022BCB
:1002300005D0032B03D0042B01D0052B02D1238939
:100240001A4492B2491C0A29E4DBD1480068B0F88C
:100250000411914201D87F2070BDB0F80601904290
:1002600009D2121AC2EBC212081AB2FBF0F000F067
:100270007F000228F0D2022070BD2DE9FE4FC34955
:10028000074600200860C44908703846FFF7BDFFE4
:10029000814600264FF0010B79680BFA06F85C46A0
:1002A00011EA080F7ED006EB860000EBC60007EBD4
:1002B0000015103595F8220003280FD004280DD022
:1002C00005280BD0B249096891F88010090601D5BC
:1002D000082803D0092801D00A2863D1D5F84200A4
:1002E0000090DFF8ACA2A88AADF80400DAF80000AC
:1002F00090F88000400603D52846FFF7F8FA0090F2
:10030000A448009901AA016069462846FFF731FF19
:10031000DAF8000090F88000C00706D001AA69460C
:100320002846FFF76EFB0028BCD095F82200032872
:1003300008D1DAF8000090F82901400702D5D5F875
:100340003E0000909549964BA346086840EA080095
:1003500008602A791B781A4306D195F822200A2AC8
:1003600002D020EA080008608C4906EB460001EB49
:10037000800495F82200A41D03281ED0DAF800108E
:1003800091F88010090601D508281DD005281BD03A
:10039000042819D0092817D04FF0040C2879032815
:1003A000207900E0C7E012D020F080007A49207167
:1003B0000A787AB1012A11D027E02946384600F0A0
:1003C00013FA4FF0030CE9E74FF0050CE6E740F0B5
:1003D0008000EBE7020618D581F800B000F07F013D
:1003E0004945DAF8001091F8262102D002EB090104
:1003F00003E0A9F10101114489B27F2902D340F041
:100400007F0008E061F3060005E000F07F024A4546
:1004100028D069F3060020710098FFF7AEFAA060BB
:1004200084F800C02878607028796071DAF80000DC
:100430002A89534690F82F010109514300F00F001B
:10044000B1FBF0F0A070E88AFFF780FAA07118689D
:10045000B0F81C1149B1B0F81E0130B1288BFFF77C
:100460005BFA03E0A9F10101CCE7287EE0711A688C
:10047000BDF80410B2F89000884202D384F803B0AB
:1004800013E0B2F892208A4201D83F200CE0A2EBA0
:100490000002A1EB0000C0EB801090FBF2F010F026
:1004A000FF00E07000D10120E070186890F8F007BC
:1004B000400634D57042092101EB400A082101EBC6
:1004C000400836480AEB4A0100EB8100801D0C22EF
:1004D00021460290F3F77BF82E4902980C22096816
:1004E000816002982D4980F801A008EB480001EBDB
:1004F0008000801D21460290F3F769F82549029893
:100500000BFA0AF249688160029880F801800BFAC0
:1005100008F002432148006802432048026095F831
:1005200022000A2807D12946384600F052F9294608
:10053000384600F06CF9761C0A2EFFF6ADAEBDE829
:10054000FE8F10B504460520F0F777F82046FFF738
:1005500094FE0520F0F78CF81048006818B10221CD
:100560000020EFF78BFF0A48006890F8F107032896
:100570004ED10C480D4B02780B481B7881785340C4
:1005800062F3820163F34101094A13E0740410002D
:1005900038021000800410005A021000EC241000F1
:1005A0005902100058021000762510005702100062
:1005B000550210001278C2702F4A127862F30001BF
:1005C0002E4A127862F3C30121F0700181702C4928
:1005D000097841732B490279097861F303022A49AA
:1005E00002710988418129494A88C28009880181AC
:1005F00027490A78417962F307114171C189491C81
:10060000C1810146BDE8104016222248F2F7DFBF43
:1006100010BD70B5B1F90250B0F938201E4CAB1ABC
:10062000226892F8872002F00F029A4201DAAA1A91
:1006300003E056429E4202DD2A44028702E0B0F8FF
:100640005C204A80B1F90030B0F936209D1A22684A
:1006500092F88720B5EB121F02DDA3EB121105E023
:1006600014096442AC4203DD03EB1211C18670BD74
:10067000B0F85A00088070BD5602100059021000F0
:10068000A85410004C041000460410006C25100003
:1006900060021000D8DD01203802100010B54FF4C0
:1006A00003616A4803F007F94FF44471684803F0A6
:1006B00002F968490020087000F0D4F8FEF72CFE1B
:1006C00000F0CAFBBDE81040FFF798B810B500F085
:1006D000B3FB5E4800F0C1FB5C48FEF779FE5B4867
:1006E000FFF72FFF5A490020087010BD70B5584C15
:1006F000207838B1584D01280ED958480078012883
:1007000003D009E0BDE87040E0E7286890F82903CD
:1007100010B14F4800F025F9286890F80801C0078B
:1007200004D04B4800F0CFF900280ED04849474884
:1007300000F0E1FE454800F0B8F84448FEF748FEF6
:100740004248FFF7FEFE0020207070BD70B5404C9F
:1007500022780F2A28D242490978012915D13E4929
:10076000B0F902300968B1F8E456AB421CDBB1F8CD
:10077000E656AB4218DCB0F90030B1F8E856AB42AF
:1007800012DBB1F8EA168B420EDC02EB820101EBC0
:10079000C20104EB81031B1D014634221846F2F707
:1007A00016FF2078401C207070BD10B50346002055
:1007B0005968012202FA00F4214206D0401C40B2DE
:1007C0000A28F7DB4FF0FF3010BD8240114359601B
:1007D00010BD10B54C7801234268A3409A43426093
:1007E000002081F8220010BD30B5002203680124EA
:1007F00004FA02F52B4205D0521C0A2AF8DBFF202E
:10080000087030BD9440234303600A7030BD10B5BA
:100810000C7801230268A3409A430260FF2008700D
:1008200010BD0A48FEF7A7BF09480A4900780870BA
:1008300070470949096891F86110C90705D0024657
:1008400004480178024800F0D0B97047784C100095
:10085000A8541000AC041000380210005802100018
:1008600095021000FE4800214170C1600170416096
:10087000FC49096891F80E1181607047F949828B33
:100880000968B1F86E309A420DD2B1F87C20C36885
:10089000934208DD038991F87E00834203D902B9AF
:1008A00008B101207047002070472DE9F041002574
:1008B00006460127706807FA05F108424BD005EBA0
:1008C000850000EBC50006EB0014103494F82200FC
:1008D000012801D002283ED12079012802D0022827
:1008E00013D02BE0DF49E0480968B0F9000091F827
:1008F000A010890704D5B4F91A000021FCF752F8BA
:10090000B4F80510814215DB18E0D849B4F80500A9
:10091000B1F9001088421EDAD548006810B10020F5
:1009200020710DE0D348007820B92046FFF7A6FFDC
:10093000012803D021463046FFF74BFF207950B9FC
:10094000CD49B4F80500B1F90010884203DA214618
:100950003046FFF73EFF6D1C2DB20A2DAADBBDE825
:10096000F081F0B5BF4900234FF6FF75D1F800C004
:10097000011D1C469CF828639CF8297390F800E040
:100980000FE000BF04EB840101EBC40100EB810127
:10099000091D4A899A4200D91346AA4200D2154637
:1009A000641CA645EEDCB5480078012807D19CF808
:1009B0002A03304486B29CF82B03384487B2B342F2
:1009C00005D3B3FBF5F0B84201D303200876F0BDA0
:1009D0002DE9F0410446A3480025006890F808215D
:1009E00092074BD5002226780BE000BF02EB820372
:1009F00003EBC20304EB83031B7F012B00D1012512
:100A0000521C9642F2DC0027954A4FF0010C012D52
:100A10000AD153685B1C536090F80D619E4203DC61
:100A200082F800C0C2E90167012903D010780128CB
:100A300006D023E082F800C090F80D01C2E901075A
:100A40000026374616E000BF07EB870000EBC70023
:100A500004EB8001091D087E01280AD106EB8600FF
:100A600000EBC60004EB8000001D3422F2F7AFFD5E
:100A7000761C7F1C2078B842E6DC267028466EE79C
:100A800070B5784A002319461268057811E000BF56
:100A900001EB810404EBC10400EB840492F80961CA
:100AA000E489B4420BD892F80A61B44200D95B1CC5
:100AB000491C8D42ECDC92F80B01984201D20120D6
:100AC00070BD002070BD70B506460125FFF7D8FF48
:100AD000634C012803D06078012808D00EE0012083
:100AE00060706048006890F80C01E06006E0E06823
:100AF000002803DD401EE060002060706178304611
:100B0000FFF766FF28B96078012802D1FFF7DEFD04
:100B10000025284670BD5248C168002903DD491EE2
:100B2000C1600021417070472DE9F04704469142B1
:100B300059D007D901EB0200A0EB0201CAB2A0EB29
:100B40000200C1B201EB810000EBC10004EB8001A7
:100B500002EB820000EBC20004EB8009CB89B9F8FC
:100B60000E5009F104002B44CB818B89B9F80C504D
:100B70002B448B814B69D9F814502B444B610E697F
:100B80004B680068D9F810704FEA234C4FEA2048B0
:100B900006FB0CFC06EB070507FB08CC9CFBF5FCF1
:100BA0006CF31F430FFA83FC06FB0CF600B207FB45
:100BB000006090FBF5F060F30F030D614B6020784F
:100BC000A0F1010191420BD000EB800101EBC000CC
:100BD00004EB8001303909F104003422F2F7F7FC0C
:100BE0002078401E2070BDE8F0872DE9FC5F0746A5
:100BF0002248002502781B48012A006808D090F896
:100C0000730000BF00FB00FA0C464FF00109A5E09D
:100C100090F8CB00F6E700BF09FA04F026460090F2
:100C200078E000BF009909FA06F0084271D006EB9F
:100C3000860000EBC60007EB8000416820465DE0BF
:100C4000B0425AD000EB800202EBC00207EB8202F6
:100C500052684FEA224CACEB214C0FFA8CFC0FE0AF
:100C6000B0041000380210005E0410005C04100094
:100C70009C0100225B021000600410006202100060
:100C80006CF31F45E646DFF8C8C1A2EB010212B2C1
:100C9000DCF800B062F30F059BF861C0CDF804C02A
:100CA0005FEA8C7C0AD59BF874C002FB0CF84FF00D
:100CB000640C98FBFCFC624462F30F05019A520736
:100CC0000BD59BF874C00EFB0CF24FF0640C92FB3A
:100CD000FCFC0CEB0E0262F31F454FEA254C0CFBAB
:100CE0000CFC2AB202FB02C2524506D2DDF800C05B
:100CF00009FA00F242EA0C020092401C83429FDC97
:100D000004216846F2F7E4F8012802D10098400077
:100D10000090761C3B78B34284DC04216846F2F7ED
:100D2000D7F801281ED0DDF80010484600FA04F27A
:100D30000A4203D03E78C846761E0CE0641CF5E7F4
:100D4000009908FA06F0084204D0F2B2E1B238463F
:100D5000FFF7EAFE761EA642F2DC641C3878A04259
:100D60003FF75AAFBDE8FC9F3A48017801290CD102
:100D70008168374A491C8160126892F80E218A42C4
:100D800003DC00210170C0E90112704770B53049E1
:100D9000054600200A68917E148BCB07D18A01D0CA
:100DA000234601E00B46214692F819622C14B44206
:100DB00004DD92F81A629B1B9C4200DB012092F832
:100DC0001B422BB2A34204DD92F81C22891A8B42EB
:100DD00000DB012070BDF0B51D4E0546944630681D
:100DE0000C4690F81D02C00707D0207E002701287E
:100DF00004D0022801D185F85E70F0BD2068FFF7AD
:100E0000C5FF0128F9D1BCF1010F03D028790528CD
:100E100004D00FE085F85E7005200BE015F85E0F3A
:100E2000401CC0B22870316891F81D12B0EB910FD0
:100E3000E3D301202076F0BD054800B5006890F8A6
:100E40000801C00701D0FFF766FE5DF804EB8BE7F1
:100E500038021000B004100070472DE9F041002462
:100E6000012605465FF00707686806FA04F10842A4
:100E700017D004EB840000EBC40005EB0011103127
:100E800091F82200032806D0042804D0052802D0B7
:100E9000022803D005E081F8227002E02846FFF71F
:100EA00098FC641C0A2CDFD3BDE8F08110B5052244
:100EB00000EB8203521E53F83E4F12F0FF025C60BB
:100EC000F6D1C0F8421010BD5FF0000200EB8203C3
:100ED000521CD2B2C3F84210062AF7D370472DE94C
:100EE000F04190461E460D46044607791A46FFF724
:100EF00072FF287E012801D16868286084F801808B
:100F0000287E20712869E060E86820616889208176
:100F100028896081687EA0706869C4F81E00688BAB
:100F2000E082A88B2083288CA4F80500B5F8230064
:100F30006083288AA08295F8300084F8C800E88B86
:100F4000A0834FF0000C012E01D09FB11EE00120C4
:100F500084F8220084F8B8C020462968FFF7B4FF5F
:100F6000C4F824C084F807C02868C4F83E0084F898
:100F7000C9C099E7287E022808D1FD4800780128D9
:100F800004D184F804C0E079401CE071204629684F
:100F9000FFF78CFF606A401C606285E7B0F90010C3
:100FA000B0F90200494300FB0010704710B55388A8
:100FB0004C881B1B438012880988511A018010BD80
:100FC0002DE9FF4F4FF004088946526808EBC00432
:100FD000411E4FF0060C1D460CEBC000DDE90D3A3A
:100FE00014441044B4F90040B0F9007000E0491E08
:100FF00008EBC1001044B0F90000A04201D0002964
:10100000F5DA08EBC1001044B0F90000A0427DD130
:101010000CEBC1001044B0F90060491E0CEBC1009C
:101020001044B0F90000B04201D00029F5DA0CEB11
:10103000C1001044B0F90000B0427DD108EBC100FE
:10104000104407EB8702B0F900C004EB840000EB0A
:10105000C4000CEB8C0103EB001001EBCC0103EBA3
:10106000011102EBC7030AEB8302D0F85200D1F85A
:1010700052105268009206EB860202EBC6030AEB9E
:1010800083024FEA204B526801920FFA80FA0BEB71
:10109000214208B2531050444210BDF90200BDF97C
:1010A0000610BDF9048008444110BDF90000C91ABA
:1010B0004044C2EB60005944ADF80E105044ADF806
:1010C0000C006A4603A902A8FFF770FF02A8FFF709
:1010D00065FF804601AA03A902A8FFF767FF02A8DF
:1010E000FFF75CFF804527D9002000E0401C05EB9E
:1010F000C001B1F90410A14201D04845F6D305EB77
:10110000C001B1F90420A24216D100E014E0CE8063
:10111000002100E0491C05EBC102B2F90420624540
:1011200001D04945F6D305EBC101B1F90420624570
:1011300004D005EBC000C780BDE8FF8FCF80FBE780
:10114000F0B5002118E04A1C12E0436803EBC10629
:1011500003EBC204356823689D4208DD676825609B
:1011600075686560446804EBC10423606760521CC5
:1011700003689342E9DC491C02688A42E3DCF0BD63
:1011800070B5D0E90045062606EBC40635442A8032
:101190000425426805EBC4052A441180416801EB2F
:1011A000C401641C0B60046070BDF0B5B1F902406D
:1011B000B2F9025004FB05F6002E2ADDB1F90060F9
:1011C000B2F900707E43002E23DD64435D4394FB3F
:1011D000F5F424B24480B2F90020B1F900105A436A
:1011E000494391FBF2F10AB278230280782C00DDAA
:1011F0004380B0F902406FF077018C4200DA418001
:10120000782A00DD0380B0F900208A4200DA0180EC
:10121000F0BD00214180FAE72DE9FF4FADF27C5D82
:1012200081464FF6FF70CDF854050020CDF86C05CF
:101230000DF20C50CDF818055430CDF8740500208F
:10124000CDF80C0502A8CDF810054A480E46002539
:1012500001780DF25C5B0DF5AD6AA846012903D15A
:10126000CDF86C150021017000270120D9F8041079
:10127000B84001427BD007EB870000EBC70109EBC8
:101280000114103494F82200092870D03A48DDF88F
:101290006C250168012AB1F8940003D1B1F89C20B3
:1012A00002B110464043019091F896C004F1420209
:1012B000111DCDF858250DF25C50CDF80815FFF73B
:1012C00075FE0DF25C50FFF769FE0CFB0CFC0CFB8D
:1012D00000FC0198844502DDCDF820C501E0CDF881
:1012E000200526480178012905D16FF00041CDF88D
:1012F0002015002101704FF0000C5FE00CEB8C001A
:1013000000EBCC0006EB8000001D01900DF5AC60F9
:10131000DDF85825DDF80815FFF748FE04F14A010D
:101320000DF26450DDF80825FFF740FEDDF8740586
:10133000B0F902006430C82806D8DDF87405B0F9A9
:1013400000006430C82801D9012300E003230DF216
:101350006452111F081FFFF728FFB4F84410BBF8B0
:1013600002000844AAF80200B4F8421008E028E09D
:10137000590210008A0210003802100054021000B6
:10138000BBF800000844AAF800000DF5AD610DF2AD
:101390005C50019AFFF70AFE0DF25C50FFF7FEFD6C
:1013A0000346DDF82005834206DA0FFA8CF239B2E3
:1013B000DDF81805FFF7E4FE0CF1010C307860450C
:1013C0009CDC7F1C0A2FFFF650AFDDF80C050028CF
:1013D0007ED0DDF81805FFF7B3FE00210DF22C5E7C
:1013E0000DF5976B4FF0040A3BE000BFDDF81005E8
:1013F0000AEBC1020244B2F90040062202EBC1022C
:1014000010440122B0F900C0DDF88405036802FA37
:1014100004F003421FD1DDF8887502FA0CF23F6830
:10142000174218D1DDF8847503433B60DDF8883539
:101430001B681343DDF8882513600BEBC5026D1C98
:101440009480A2F806C0DDF85425104203D14EF86E
:10145000281008F10108DDF854258243491CCDF815
:101460005425DDF80C058842C0DC7446B8F1000F45
:101470003BD0CDE90096A8F101080DF5976354F82B
:1014800028002946DDF81825FFF79AFDEEE76D1EC6
:101490000BEBC5000023B0F90410B0F9060001EB16
:1014A000810202EBC10200EB800109EB021401EBA7
:1014B000C000103406EB8001091D94F9012020467C
:1014C000FFF70DFD94F82200032808D0042800E05F
:1014D0000DE007D0082805D0052806D102E084F8E1
:1014E00022A002E0052084F82200002DCFD10DF2C9
:1014F0008C5DBDE8F08F2DE9FC41064640680F4643
:1015000050B100200190009001AB6A463046FFF7D1
:1015100083FE0024012542E0002417E004EB840050
:1015200000EBC40006EB001510353046FFF73DF91F
:10153000021E0ADB02EB820000EBC20007EB800117
:10154000091D01232846FFF7CAFC641C3878A04215
:10155000E4DCBDE8FC8100BF019905FA04F0084213
:101560001CD13046FFF721F9B0F1000816DB04EB7F
:10157000840000EBC40007EB800108EB880202EB5B
:10158000C80006EB0010091D103001234246FFF78A
:10159000A6FC009905FA08F008430090641C38780E
:1015A000A042D9DC00240727716805FA04F0014243
:1015B0001AD00099084217D104EB840000EBC40054
:1015C00006EB0011103191F82200032806D0042800
:1015D00004D0052802D0022803D005E081F822704B
:1015E00002E03046FFF7F5F8641C0A2CDCDBB0E7BC
:1015F0002DE9F04F5F48D9B04FF0000905684C461F
:1016000001AB2EAA01212846CDF80490F9F783FEFC
:1016100006465948DFF864A103680120197D12E0ED
:10162000012200EB001C574608E000BF02EB4C080B
:1016300015F8088007F80180491C521C93F81480A3
:101640009045F3DA401C5A7D8242E9DA01270DF514
:10165000A87B30E02EA830F817000A282AD945A820
:10166000FBB2035547A8009001A800EB870CE046A9
:10167000624629464248FCF7B7F99DF8351101A8A2
:101680000BF8071010F8273007EB47020AEB42006F
:101690000AF8123098F80230437098F801208270EE
:1016A00098F80320C2702EAA641C12F81720027149
:1016B000E4B241717F1CB742CCDD012C1BD99DF8EF
:1016C00014119DF815211BF901101BF902006FF090
:1016D0003B04A1F11E0263101E2A03D8A04201DBC5
:1016E000984206DD1E381E2805D8A14203DB994228
:1016F00001DC4FF0010959B04846BDE8F08F1E48A3
:1017000010B5006800241E49B0F96200FCF72BFDFB
:1017100020B1FFF76DFF012802D00124204610BD43
:101720000224FBE770B50025FFF7E9FF154C002602
:1017300020B1012802D002280FD019E06068401CB7
:101740006060322807DD01254FF0AD320221AC2068
:101750006660F9F7B6F826700AE06660207838B956
:10176000012020704FF0AC320221AD20F9F7A9F82A
:10177000284670BD640210003802100098CE012087
:10178000D8DD0120C00410000E48016841F00401BA
:10179000016030BF016821F00401016070470A4C0C
:1017A0000A4D0B4E2068401C206028783178084391
:1017B00004D00120F1F7D9FF30BFF3E7FFF7E4FFD2
:1017C000F0E7000010ED00E084021000910210002C
:1017D0009002100038B57D4C0025A5602570E560AD
:1017E00000F0C9FE002360601A46194618460095AD
:1017F00000F07BFE38BDA0F5704081B208B5002036
:10180000034602460090022000F06FFE08BD08B5B6
:101810006E4B1B7ADB0608D55143002300934B0027
:1018200002460421012000F060FE08BD08B5674BA8
:101830001B7A1B0708D55143002300934B00024637
:101840000321012000F051FE08BDF8B50E465F49A6
:1018500015461C46097A890714D5014662005C4882
:10186000F1F7B5FE5A486A0000EB44003146F1F743
:10187000AEFE00200090281943000121544A08467A
:1018800000F033FEF8BDF8B50E46504915461C462B
:10189000097AC90714D0014662004D48F1F797FE56
:1018A0004B486A0000EB44003146F1F790FE0020FF
:1018B000009028194300464A0021012000F015FE3F
:1018C000F8BD002008B503460246014600900320FB
:1018D00000F00BFE08BD08B5002003460246962125
:1018E000009000F002FE08BD08B500200346024645
:1018F0009721009000F0F9FD08BD08B500200346CF
:1019000002463221009000F0F0FD08BD08B500202D
:10191000034602463321009000F0E7FD08BD08B5FC
:101920000020034602466421009000F0DEFD08BD61
:1019300026484068002804D0264901200870F9F79D
:10194000E5B8704710B5214C606800280CD02078AD
:10195000012809D1E06808B1042100E0082106202F
:10196000EEF78CFD0020207010BD184A10B55368AA
:10197000002B10D0012404FA00F3104601298068DE
:101980000AD098439060107AD16800F00300814239
:1019900001D01470D06010BD03439360F3E70B498E
:1019A0004968002909D0012804D04FF48061022041
:1019B000EEF764BD4FF40061F9E7704703484068F3
:1019C000002801D000F0BBB870470000C804100028
:1019D000B8571000AB02100003484068002801D03F
:1019E00000F0DEB870470000C804100070B55C4D10
:1019F00004462878A04213D0A01E06280FD2DFE8A4
:101A000000F0090C0C0E0306FFF765FF07E0FFF777
:101A10006BFF04E0FFF77AFF01E0FFF76EFF2C7029
:101A200070BD4F4D08B54F4C00266E70206890F881
:101A30001001C0066BD5FFF7CDFE6878002866D090
:101A40000128FAD1FFF77EFF6B460022FD21052019
:101A5000EEF753FD0098C00706D06E70FFF75FFFEA
:101A600001210520EEF739FD0098400707D53E48D3
:101A70000088FFF7C0FE04210520EEF72EFD009838
:101A8000400605D5FFF71DFF40210520EEF725FD97
:101A90000098000713D52068427D017D334800EB94
:101AA0004100FFF7B4FE2068427D017D304800EB25
:101AB0004100FFF7BBFE08210520EEF70EFD009860
:101AC000C00611D520682B49437D027D2A48FFF7C7
:101AD000BCFE20682949437D027D2948FFF7D3FEDB
:101AE00010210520EEF7F9FC0098800603D520218F
:101AF0000520EEF7F2FC009800069ED521480078FC
:101B0000FFF774FF80210520EEF7E7FC95E705213C
:101B10000020F1F77AFB6B46002202210520EEF748
:101B2000ECFC05210120F1F770FB0098800784D5BB
:101B3000FF210520EEF7D1FC012068707DE71148F8
:101B40000078072803D140210220EEF797BC7047A8
:101B50000D49002008600C492031086070470000E2
:101B6000D804100038021000A8021000D40B100096
:101B7000D8DD0120822E0120462E01207434012060
:101B80003834012080021000280900220349002077
:101B900008600249012020310860704728090022AE
:101BA000054910B501200870FFF7F0FFBDE81040AF
:101BB0000520EEF733BF0000AA021000F94800210B
:101BC0008160C1604160704710B54FF00854D4F88F
:101BD000840100281CD0F448006890F81001C10668
:101BE00001D4000714D5F14900200870ED49886838
:101BF000420706D440F00400886004210220EEF77A
:101C00003DFC40210220EEF739FC0020C4F8880199
