:100000005555AAAA271400000000000000000000B7
:10001000698B00000000000000000000D0B09F339A
:100020000002100005080000890200009F02000085
:10003000B5020000CB020000E10200000000000059
:10004000000000000000000000000000B12C0000D3
:10005000B52C000000000000F7020000B72C0000E3
:10006000B92C0000672A0000332D00009F2A0000F1
:10007000D32C0000D52C0000D92C0000E72C000068
:10008000F92C0000FB2C0000FD2C00001B2D0000B3
:100090001D2D0000352D00000000000000000000B4
:1000A000372D0000392D0000000000000000000086
:1000B000000000003B2D00003D2D0000B32A000091
:1000C0003F2D00004D2D000009030000652D0000AC
:1000D000672D00000000000000000000000000008C
:1000E0002714000000F002F800F05AF80AA090E887
:1000F000000C82448344AAF10107DA4501D100F0E3
:100100004FF8AFF2090EBAE80F0013F0010F18BF55
:10011000FB1A43F00103184798470100B847010054
:100120000A444FF0000C10F8013B13F0070408BF1D
:1001300010F8014B1D1108BF10F8015B641E05D0BB
:1001400010F8016B641E01F8016BF9D113F0080F70
:100150001EBF10F8014BAD1C0C1B09D16D1E58BF02
:1001600001F801CBFAD505E014F8016B01F8016B39
:100170006D1EF9D59142D6D37047000000230024AC
:1001800000250026103A28BF78C1FBD8520728BFA7
:1001900030C148BF0B6070471FB51FBD10B510BD03
:1001A000DFF80CD0FFF7F8FF02F028FF14F0E4F8B6
:1001B0000002100003B4FFF7F1FF03BC14F0E4F8F1
:1001C0000A484FF0FF0101704FF0000080F31188E2
:1001D0004FF0000080F3098805484FF002010170DC
:1001E00062B604484FF080510160704722ED00E094
:1001F0000002100004ED00E002484FF08051016061
:100200007047000004ED00E04FF0200080F31188FB
:10021000EFF3098098B112480068124909688842D2
:1002200017D0EFF309800E49096820E9F00F8860C4
:1002300000B50B48006800F0F2F85DF804EB0848E0
:1002400008490A68026000688168B1E8F00F81F32C
:1002500009884EF0040E4FF0000080F311887047BB
:100260000402100008021000EFF311804FF020018B
:1002700081F31188704700004FF0000080F311886F
:100280007047000062B6704772B6704740BA704758
:10029000C0BA7047401E0028FCDC704700BE7047A3
:1002A00040BA7047C0BA70471EF0040F0CBFEFF39E
:1002B0000880EFF309804FF0010102F05EBC1EF0F0
:1002C000040F0CBFEFF30880EFF309804FF0020139
:1002D00002F053BC1EF0040F0CBFEFF30880EFF3E5
:1002E00009804FF0030102F048BC1EF0040F0CBF60
:1002F000EFF30880EFF309804FF0040102F03DBCFA
:100300001EF0040F0CBFEFF30880EFF309804FF0ED
:10031000050102F032BC4FF0000000B503F0D6FD3D
:100320005DF804EBFFF770BF1EF0040F0CBFEFF396
:100330000880EFF309804FF0000102F01EBC0000BE
:10034000194910B5012008701849002008601849A3
:100350000860184908601849086000F0B9F900F011
:100360004BF900F063F8002010BD10B5114800F003
:100370002AF90F4908600D490968884207D00A48E0
:100380000078022803D1BDE81040FFF735BF10BD4B
:1003900010B5FFF7EAFF044902200870FFF710FFCD
:1003A0004FF0FF3010BD00000002100004021000EA
:1003B000080210000C0210001002100070B50D466B
:1003C0000446C1698068CC2213F0D9FEE169A068B7
:1003D000084440384FF08071C163216A8163002175
:1003E00041630163C1628162C0E908514FF00B3182
:1003F000C1614FF00A3181614FF0093141614FF025
:10040000083101614FF00731C1604FF00631816062
:100410004FF0053141604FF00431016070BD8269D9
:100420008168914201D802F09CBE704710B54FF42C
:10043000B4714F4813F0CDFE002010BD70B50546D5
:1004400000EBC5014A4800EB8104FFF70DFF0646AB
:10045000207828B13046FFF70FFF6FF0010070BD24
:100460000320207000206560206204F11C0000F071
:1004700083F83046FFF700FF002070BD2DE9F04102
:100480000F463B49002500EBC00001EB80042E46DF
:10049000FFF7EAFE8046206A3843206204F11C0020
:1004A000074600F090F80CE0216A026C114203D07C
:1004B00000F066F9012600E06D1C2946384600F080
:1004C00078F80028F0D1012E01D1FFF74EFF404609
:1004D000FFF7D2FE0020BDE8F08170B50D4624493B
:1004E00000EBC00001EB8004FFF7BEFE216AA943C8
:1004F0002162FFF7C1FE002070BD70B50C461C499B
:1005000000EBC00001EB800500202060FFF7ACFE8F
:10051000296A2160FFF7B0FE002070BD2DE9F0418F
:100520000D46134900EBC0001E46904601EB8004C7
:10053000FFF79AFE07460F4800680564216A2942C2
:1005400003D104F11C0100F02DF93846FFF794FEA9
:10055000FFF78AFE216A29403160B8F1010F02D10C
:10056000216AA9432162FFF787FE0020B3E700005C
:1005700014051000040210000021016008467047B5
:1005800030B50A6812B10B46C46B09E0002208605E
:10059000C0E903210BE000BF02F10C03D26812B1E5
:1005A000D56BA542F8DC1A68C0E903211860002069
:1005B00030BD0068002201E0C068521C8A4201D0B0
:1005C0000028F9D170470068704702690AB11168C4
:1005D00031B96FF00400704701F10C02C96839B1FC
:1005E0008142F9D1C9681160002101610846704754
:1005F0006FF003007047000010B54FF4C871324827
:1006000013F0E7FD002010BD2DE9F04188460546B6
:100610002D4900EB8500174601EBC004FFF724FECF
:100620000646207830B13046FFF726FE6FF0010015
:10063000BDE8F08102202070E7611422414604F1F8
:100640000800656013F056FD0020206204F12400CC
:10065000FFF792FF3046FFF70FFE0020E8E770B586
:10066000194900EB800001EBC004FFF7FDFD0546D2
:10067000D4E90701814205DB144804F12401006834
:1006800000F090F8206A401C20622846FFF7F4FD35
:10069000002070BD70B50C4900EB800001EBC00478
:1006A000FFF7E2FD0546206A08B1401E206204F112
:1006B0002400FFF788FF10B1606A00F011F82846A7
:1006C000FFF7DAFD002070BD7C0610000402100068
:1006D00010B54FF42A71404813F07BFD002010BD87
:1006E00010B5044690F8380002280BD02046FFF7DA
:1006F0006CFF022084F8380038492046FFF740FF9D
:10070000FFF733FE002010BD2DE9F05F8B46064653
:10071000314900EB06109046DDE90AA911F82020C6
:100720001D461AB16FF00100BDE8F09F01EB800497
:10073000FFF79AFD074601202070C4E90165C4E96E
:100740000585C4E907A91422594604F1240013F0D1
:10075000D1FC002084F8370084F838006169E0603B
:100760002061C4E90F1020460C99FFF727FEA06016
:100770002046FFF7B5FF3846FFF77EFD0020D3E7A0
:1007800010B5044690F83800022809D02046FFF73B
:100790001CFF022084F8380010492046FFF7F0FEC5
:1007A000002010BD70B5044690F838000D460228B0
:1007B0000BD12046FFF709FF032084F838002946B3
:1007C0002046FFF7DDFEFFF7D0FD002070BD044896
:1007D00000684068704700000C0810000C02100010
:1007E00004021000F0B58446002004460C4F14E0CB
:1007F0005CF824600323DD0046FA05F280EA02601B
:100800000825002802DA87EA400000E040006D1E5B
:10081000002DF6DC5B1EEED5641C8C42E8DBF0BDDF
:100820001B0000801248804712480047FEE7FEE7A1
:10083000FEE7FEE7FEE7FEE7FEE7FEE7FEE7FEE790
:10084000FEE7FEE7FEE7FEE7FEE7FEE7FEE7FEE780
:10085000FEE7FEE7FEE7FEE7FEE7FEE7FEE7FEE770
:10086000FEE7FEE7FEE7FEE7FEE7FEE7FEE7000045
:10087000AD080000C50000001E4800684FF00051A0
:10088000002891F8210000F01C000DD0042805D0AC
:10089000082805D00C2805D096200CE011200AE08D
:1008A000252008E04B2006E0042809D0082809D0BC
:1008B0000C2809D07020401E01F82C0F08707047DA
:1008C0000C20F8E71B20F6E73720F4E770470A49C9
:1008D00093200870D0E708490B200870CCE7054842
:1008E000006818B904480078932801D000207047A8
:1008F00001207047340400222100002070B504203C
:1009000000F0B5F9052000F0B2F9062000F0AFF9CB
:10091000072000F0ACF9082000F0A9F9182000F039
:10092000A6F9192000F0A3F91A2000F0A0F9E14976
:1009300000200860DF4A40321060DE4B183B186030
:10094000DC4B08331860DC4CE071DA4B143B186068
:10095000D84B0C3318602072D64B103B1860D54B27
:10096000103318606072D34B0C3B1860D14B1433BA
:100970001860A072CF4B083B1860CE4B183318603C
:10098000E072CC4B28331860A0731E1D3060E073FA
:10099000331D1860207401250D6015602570062137
:1009A000042000F07CF90621052000F078F90621EA
:1009B000084600F074F90621072000F070F90621BE
:1009C000082000F06CF90621182000F068F90621D3
:1009D000192000F064F904211A2000F060F90420C5
:1009E00000F051F9052000F04EF9062000F04BF917
:1009F000072000F048F9082000F045F9182000F021
:100A000042F9192000F03FF91A2000F03CF90420C7
:100A100000F021F9052000F01EF9062000F01BF976
:100A2000072000F018F9082000F015F9182000F050
:100A300012F91A2000F00FF9FF20E070356070BD48
:100A400000EB80009B494000002218390A609A4A56
:100A5000521F107001200860704796490020183915
:100A60000860704700EB8000924940000022143972
:100A70000A60914A121F10700120086070478D496A
:100A8000002014390860704700EB8000894940005D
:100A9000002210390A60884AD21E107001200860B6
:100AA00070478449002010390860704700EB8000CF
:100AB0008049400000220C390A607F4A921E107063
:100AC0000120086070477B4900200C39086070479E
:100AD00000EB800077494000002208390A60764A1E
:100AE000521E1070012008607047724900200839BA
:100AF000086070477149097848430A21B0FBF1F159
:100B00006F48491E80F86010572181761121C17607
:100B1000042280F860205B228276C17670476848A4
:100B2000002180F860105B2181761121C176704729
:100B3000604A10B5283214680123D10664B100243C
:100B4000146081F8350091F8420000BF91F84240EE
:100B50008442FBD0136010BD81F83500FAE700EB4A
:100B6000C00101EB00106FF0030101EB800010B534
:100B70005449554C0978B0FBF1F0401E80B2FF2873
:100B80000CD9010A2170494200EB01206070FF205E
:100B9000FFF7CEFF2078401E207010BD002121708D
:100BA0006170BDE81040C0B2C2E742482830016819
:100BB000002909D000210160C10691F8420000BF60
:100BC00091F842208242FBD0704710B53E4C21780C
:100BD000607851EA000207D051B1FF20FFF7A8FF6B
:100BE0002078401E207010BDBDE810400AF05FBBA9
:100BF000FFF79EFF0020607010BD2E4A10B5303206
:100C000014680123590794B10024146081F8370057
:100C100091F8420091F842408442FBD0136091F871
:100C2000420000BF91F842208242FBD010BD81F803
:100C30003700F3E71F483030016800290AD000214F
:100C400001604FF0005191F8420000BF91F842203E
:100C50008242FBD0704700F01F0201219140400901
:100C60004FF0E02202EB8000C0F80011704700F066
:100C70001F020121914040094FF0E02202EB800069
:100C8000C0F88011704700F01F0201219140400917
:100C90004FF0E02202EB8000C0F880127047490755
:100CA000090E002803DA00F00F00084A00E0084AA5
:100CB000815470471C05002233000020B002100050
:100CC00000100020AF0210001402100014ED00E02C
:100CD00000E400E049480121016000210160704703
:100CE00047480121016000210160704710B50020D4
:100CF00000F06BF8FFF7F4FFFFF7ECFF414900202D
:100D000008604149A0200870002000F06AF8BDE8A2
:100D10001040002000F04DB83A4801211C38016015
:100D200000210160704710B5002000F04EF83349F3
:100D300001200860002000F054F8BDE810400020B9
:100D400000F037B82D4901201C39086070472F4842
:100D500000782E49491C0978401A00F03F0070477E
:100D60002B4902780A7042784A7082788A70C27879
:100D7000CA7002790A7142794A7182798A71C0799E
:100D8000C871704723480068417882784FF000505E
:100D9000437A0374204B1B78437443891B0A837482
:100DA0004389C37401754275C1798175017AC17532
:100DB000704700F01F020121914040094FF0E022EE
:100DC00002EB8000C0F80011704700F01F02012103
:100DD000914040094FF0E02202EB8000C0F8801102
:100DE000704700F01F020121914040094FF0E022BE
:100DF00002EB8000C0F88012704700005C84002283
:100E0000A00000227C04002200E400E02004002076
:100E10000002002038021000A402100010B50920C2
:100E200000F054F80A2000F051F8092000F05AF8B8
:100E30000A2000F057F80521092000F05FF805218D
:100E40000A2000F05BF833487F2141707C228270D9
:100E50000171002100F848192F490A684FF001017B
:100E600092F8C830DC070AD09C0708D590F84A40B1
:100E7000C3F3820301FA03F39C4380F84A4092F8DB
:100E80001131DC0721D0C3F34203012B03D0234BE4
:100E90004FF480641C604830837802F21112147899
:100EA000C4F3420401FA04F4A34383700379147871
:100EB000C4F3420401FA04F4234303710378127863
:100EC000C2F3420291400B43037010BD00F01F02B9
:100ED0000121914040094FF0E02202EB8000C0F870
:100EE0008011704700F01F020121914040094FF02E
:100EF000E02202EB8000C0F8801270474907090E1B
:100F0000002803DA00F00F00054A00E0054A81548A
:100F100070470000480000203802100000E100E0A7
:100F200014ED00E000E400E0704710B5044602460E
:100F30002A21002000F066F9221D2B21002000F05C
:100F400061F904F108022C21002000F05BF904F1A2
:100F50000C020F21032000F055F92068000E032831
:100F600025D304F114022D21002000F04BF904F1E7
:100F700010022E21002000F045F904F11C022F215F
:100F8000002000F03FF904F118023021002000F0A9
:100F900039F904F124023121002000F033F904F181
:100FA00020023221BDE81040002000F02BB910BD16
:100FB00010B5BE4C072060700020207044F2C000C5
:100FC000608000BF00BF00BF4CF2C000608000BF67
:100FD00000BF00BF4CF2E00060800920FFF75AF923
:100FE00044F2E000608000BF00BF00BF4FF48040CB
:100FF000608010BDF0B500252E464FF00054E0276C
:1010000017E000BF883401F03F01607021706780F5
:1010100000BF00BF00BFD4F808C043F825C06680F9
:10102000883C00BF6D1C521E491C3F2901D9401C41
:10103000C0B2002AE6DCF0BD2DE9F0479B4D00264A
:10104000AD1C04462E80DFF868920121C9F880109B
:101050004FF4C058A5F8008000BF00BF00BF00BF1C
:1010600000BF4FF480572F803520FFF713F92E80F3
:10107000FFF79EFF00F0DCF85C2000F0EAF8234662
:10108000012208210020FFF7B5FF231D01220921BD
:101090000020FFF7AFFF04F1080301220A2100201E
:1010A000FFF7A8FF04F10C0301220B210020FFF73A
:1010B000A1FF04F1100301220C210020FFF79AFF89
:1010C00004F1140301220D210020FFF793FF00F02B
:1010D000AFF8FFF76DFF2F8000BF00BF00BF00BF5C
:1010E00000BF00BF00BF00BF00BF00BFA5F8008069
:1010F00000BF00BF00BF00BF00BF4FF440602880AA
:10110000C9F88060BDE8F087F0B54FF0000C059C91
:101110000CB14FF0800CC5B200264FF00057644C64
:1011200028E000BF87F889504FEAC05EBEF1000F8B
:1011300001F03F0E4EEA0C0E01DA4EF0400E87F839
:1011400088E053F826E0C7F88CE04FF0010EC4F8B1
:10115000B0E04FF0000EC4F8B0E0491CC9B240291D
:1011600002D36D1CEDB20021D4F8C0E0BEF1000F37
:10117000FAD1761C9642D5DBF0BD4FF0005282F8D2
:101180008900002309B1802002E0C00503D540207A
:1011900082F8880001E082F8883045480121C0F8D3
:1011A000AC10C0F8AC3000BFD0F8C0100029FBD1A3
:1011B0007047F8B50C4605464FF4F47600213046EA
:1011C000FFF7DBFF0020014600902B462246304609
:1011D000FFF79AFFF8BDF8B50C4605464FF4F876D0
:1011E00000213046FFF7C9FF00214FF4FC70FFF7E4
:1011F000C4FF0020014600902B4622463046FFF7F0
:1012000083FFF8BD294B587041F0800003F888092E
:1012100027480021B4300160012140F8B41900BF13
:10122000D0F8C0100029FBD1D3F8900010607047AF
:1012300010B51E4C4FF48040A41C20800420FFF702
:1012400029F80020208000BF00BF00BF00BF00BF02
:1012500010BD70B5154C2126A41C268000BF00BF10
:1012600000BF00BF00BF40F02105258000BF00BFC8
:1012700000BF00BF00BF44F22101084320800420CA
:10128000FFF708F8258000BF00BF00BF00BF00BF08
:10129000268000BF00BF00BF00BF00BF002020802D
:1012A00000BF00BF00BF00BF00BF70BD88000020AE
:1012B00000100022F8B5FF4C002635462670E66087
:1012C000266166610120A66100F07EFF0C2000F01F
:1012D0007BFF032000F078FF172000F075FF01204E
:1012E00000F07EFF0C2000F07BFF032000F078FF71
:1012F000172000F075FF01F030F96A460221EE4830
:1013000001F0AAFBED499DF8010008709DF800006E
:10131000532800D004260521012000F06DFF05218F
:101320000C2000F069FF0621032000F065FF062174
:10133000172000F061FF012000F03AFF032000F0C9
:1013400037FF172000F034FFA5706570E570304658
:10135000F8BD70B5D74B1889C0F38001C0F34016B3
:10136000C0F300247140C0F3C0226140C0F3803557
:1013700051406940400840EAC130188170BD38B51D
:101380000D46009014460421684601F04DFFCC49FB
:101390008978C90602D5062D00D1401C0099E16468
:1013A00084F8480038BD506570472DE9F047C54DB9
:1013B0000646C34C286890F83404C00718D06088EB
:1013C00040F080006080FFF7C4FF296800F007004C
:1013D000084490F8350484F83500FFF7BAFF29680F
:1013E000C0F30210084490F83504800084F83400FB
:1013F0004FF0000A84F841A028684FF002084FF02F
:10140000E90990F845176174AF49042EC1F30E073E
:1014100006D0032E1FD0022E41D0052E5CD082E0D4
:10142000A74A3146A06AFFF7AAFFE06A6065A4F800
:101430004270A07880060028286890F8590703DADF
:1014400020F0060040F0040084F8460084F847804D
:1014500084F8449067E09A4A3146A06AFFF78FFF0C
:10146000E06A606596480421283001F0DDFE964967
:1014700001EB8000C0F30E00A4F84200A0788006C3
:101480000028286890F8590703DA20F0060040F099
:10149000040084F8460084F84780ED2019E0884A6B
:1014A0003146A06AFFF76BFFE06A6065A4F84270FE
:1014B000A07880060028286890F8590703DA20F001
:1014C000060040F0040084F84600042084F8470039
:1014D000E52084F8440026E0A178890623D500F2AF
:1014E000C930283401782174C178A1744178A1757C
:1014F0008078E07501206076714A31462068FFF7F8
:101500003EFF7148F830C0F30E006083286890F801
:10151000590720F0060040F00200A07784F81F80F1
:1015200084F81C90283C286890F80A17C907A1780D
:101530004FEA81711CD000291CDB90F80907C00715
:101540000CD00021012002F010FE14F8450F20F00D
:101550000300801C207024F80FAC14E00121084621
:1015600002F003FE14F8450F40F0030020700AE07B
:10157000002904DA90F86C0720F0030001E090F8ED
:101580006C0784F845004B484670BDE8F0474C486E
:1015900001F0EEB84B484A49006890F800224A77BB
:1015A00090F80122CA744A88D20504D490F8022225
:1015B00002F00F028A7400F20320027802F03F0268
:1015C0000A75B0F801200A83C2788A763F4A00790A
:1015D000127800F0F00040EA1210C87670472DE94A
:1015E000F047374C0546002084F84100DFF8D490DE
:1015F000E12084F84400D9F80020344B2D4E92F8B5
:101600004507607492F80A075FEAC0782046B0F890
:1016100002C0C77C0CF0FF014CF0010004D05FEA6F
:101620008C7C01D4012D08D0DFF8A480072D0BD0CD
:10163000062D5ED0082D79D030E0377171710A2106
:10164000E1746080224812E0377171716080507DD2
:10165000117D471C94F858C007FB01F0BCF1010F45
:1016600003D901FB0CF101FB07F008EB4000C0F3CC
:101670000E00A4F8420092F85307197800F0F00029
:1016800001F00F010843E07692F8550760770C4AA5
:1016900029460120FFF773FEE06860656188C8078E
:1016A00005D094F8440040F0020084F84400D9F8D2
:1016B00000000FE01802100004100020A402100027
:1016C000B40A100038021000009E0120F6FF01004D
:1016D0000080012090F80A274FEA8171D20747D095
:1016E000002947DB062D2FD0082D2DD0012D34D019
:1016F00049E0517D378B107D491C7943484308EB05
:101700004000C0F30E00A4F8420092F85307197885
:1017100000F0F00001F00F010843E07692F8550761
:101720006077F84A2946A068B4E7FFE7F648C0F3B7
:101730000E00A4F84200FFF72DFFF24A2946206A66
:10174000FFF71DFE606AA8E73634E17B21F0030154
:10175000E173B0F86E07208015E00021012002F04F
:1017600004FD14F8450F20F00300801C20700AE0EF
:10177000002904DA90F86C0720F0030001E090F8EB
:101780006C0784F845007570BDE8F047DD4800F04F
:1017900083BF06280ED008280CD001280AD00728BD
:1017A00008D0042805D0032803D0052801D002283A
:1017B00001D1FAE513E770472DE9F84FD34D824682
:1017C000012901D10020A871AC79DFF8489304F118
:1017D0000104CF4EDFF82C83A9F1280713E030680D
:1017E00090F80A07C00706D098F80200800702D4D4
:1017F00059F8242001E057F82420694650469047C4
:10180000012805D0641C092CE9D90020BDE8F88F17
:10181000AC719DF80000F9E72DE9F041054600881C
:1018200000283AD05C222946B64802F08EFAFEF72C
:10183000CEFFB64C0027B64EC4E90670306890F86B
:101840000A07C0070AD0A878800707D4AD490888DE
:1018500010F0760F02D040F08000088060780028F9
:101860001BD10121A748FFF7A7FF050015D0AA4902
:1018700001200870306890F8101149070FD590F8D2
:10188000430780070BD401F0AFF80220A07001F0ED
:10189000AFF8192001F0C5F86570BDE8F081277038
:1018A0002846BDE8F04174E70020704782681200C6
:1018B00006D00088C00503D50720087001207047B6
:1018C000002070478268120006D00078C00703D05D
:1018D000062008700120704700207047026A12003D
:1018E00006D00078000703D5082008700120704753
:1018F000002070478268120005D00078000602D5EB
:1019000001200870704700207047826A120008D0DA
:10191000C26A32B10078800603D502200870012027
:10192000704700207047826A120006D00078C00617
:1019300003D5052008700120704700207047826A97
:10194000120006D00078800703D50420087001201B
:10195000704700207047C26A32B10078400703D553
:101960000320087001207047002070470020087095
:10197000012070472DE9F04162480421283001F030
:1019800053FC04465F4804212C3001F04DFC5F4FAE
:101990000546DFF870817878604E042801D002286F
:1019A0000CD198F80200800602D5A2005B4902E043
:1019B000620006EB44015A4802F0C7F97878032820
:1019C00001D0022811D198F80200800603D5AA00A0
:1019D00006EB840104E005EB44006A0006EB4001DD
:1019E000BDE8F0414F4802F0B0B956E730B587B0D6
:1019F00001208DF800004648424D444C006890F8A4
:101A00000A07C0070AD0A878800707D460780128A1
:101A100004D102208DF8000009F052FC00F06AFDAC
:101A2000414801903D4802903748E17800EB410081
:101A300003900020E0703448783804906968684664
:101A4000884707B030BDF0B5314B47F6FF7201292A
:101A50001B6803D01B7D354C00211EE0334C5B7DA1
:101A60003C3CF9E70D18EDB2314FEE18F6B237F8FD
:101A700015E007F1800C37F816703CF815503CF86B
:101A80001660AEEB0505BE1B35442DB224F811508F
:101A9000954200DA2A46491CC9B29942E2D3002095
:101AA00007E000BF34F81010891A24F81010401C09
:101AB000C0B29842F6D3F0BD2DE9F84F144C012086
:101AC000009020680026154D90F80017B346C9070E
:101AD00047D00C4991F83C7007B901270949DFF854
:101AE0002C8091F83B1091FBF7F10FFA81FA98F8EE
:101AF0000110042902D003291CD024E0407D4600B7
:101B00003DE00000B40A1000709F01201802100090
:101B1000380210009C430100AD021000009E01201D
:101B2000C8A6012040A701200080012090A5012027
:101B300054A40120007D04214600FE4801F074FBFE
:101B4000FD4901EB800598F8010002280AD005281C
:101B50000FD0042813D0032811D002280FD0052855
:101B60000DD0D2E12068F44D417D007D084446004F
:101B700005E02068F04D3A2690F801A7F835D8F82E
:101B80000C105145EDDC81B94FF4F871EB4812F0BF
:101B900020FB98F80100042807D12068407D42000E
:101BA00005EB4001284602F0D0F8E5490020DFF8B7
:101BB0009483D1F80CE04978DFF880932EE000BFE1
:101BC00059F8203035F910C00429634449F8203011
:101BD00001D0032921D1BEF1000F08D1D94B002239
:101BE000803B23F8102047F6FF7228F81020DFF81A
:101BF00054C335F91020ACF1800C3CF910309A42F6
:101C000000DC1A462CF8102035F9102038F9103075
:101C10009A4200DB1A4628F81020401CB042CFDB65
:101C2000C74A0EF101005045D0607CDB0023DFF88D
:101C300018A39046D360042906D0032958D002295E
:101C400072D0052971D060E101210020FFF7FBFE71
:101C5000DFF8E0B2ABF1280B9BF83D0058B12068EB
:101C6000407D4100B54802F021FAC8F81000782103
:101C7000B64812F08CFA0020D8F8103035E000BFDA
:101C800039F820207A43A2EB030212B225F8102083
:101C90009046226892F848C45FEA8C7C20D59BF875
:101CA0003DC0BCF1000F12D0B2F955C4E04502DDD1
:101CB000A8EB0C0207E0B2F95924904502DAA8EB30
:101CC000020200E00022DFF884C22CF810209F4AB4
:101CD00035F810C032F81020ACEB020225F81020C5
:101CE00059F820204AF82020401CB042C8DB0CE103
:101CF00000210846FFF7A7FEDFF838B2ABF1280B4A
:101D00009BF83D0058B12068007D41008B4802F0EF
:101D1000CDF9C8F8140080218D4812F038FA00205F
:101D2000D8F8143037E0EBE038E0D8E039F820207C
:101D30007A43A2EB030212B225F8102090462268E3
:101D400092F848C45FEA8C7C20D59BF83DC0BCF17A
:101D5000000F12D0B2F957C4E04502DDA8EB0C0227
:101D600007E0B2F95B24904502DAA8EB020200E03A
:101D70000022DFF8DCC12CF81020754A35F810C0BD
:101D800032F81020ACEB020225F8102059F8201090
:101D90004AF82010401CB042C8DBB6E0654828383D
:101DA00090F83D00C8B12068407D4100634802F0D2
:101DB0007DF9C8F810002068017D427D490009EBDB
:101DC000C20002F073F9C8F8140078215F4812F0DD
:101DD000DEF980215E4812F0DAF9002037E000BF1A
:101DE00039F82010B8F810307943A1EB030109B29B
:101DF00025F81010236893F848C45FEA8C7C21D53D
:101E0000DFF830C1ACF1280C9CF83DC0BCF1000FEC
:101E100010D0B3F955C4614502DDA1EB0C0106E019
:101E2000B3F95934994201DAC91A00E00021474B4D
:101E300023F81010454935F8103031F81010591AB0
:101E400025F8101059F820204AF82020401C21685D
:101E5000497DB0EB410FC3DB2068407D4FEA400075
:101E60003AE000BF39F82010B8F814307943A1EBFC
:101E7000030109B225F81010236893F848C45FEAFB
:101E80008C7C22D5DFF8ACC0ACF1280C9CF83DC0AE
:101E9000BCF1000F10D0B3F957C4614502DDA1EBCE
:101EA0000C0106E0B3F95B34994201DAC91A00E08B
:101EB0000021274B23F81B10254B35F810C033F8B1
:101EC0001B10ACEB010125F8101059F820204AF83E
:101ED00020200BF1010B401CB042C3DB15E00020B9
:101EE00049461C4A09E000BF31F8203025F810307F
:101EF00051F8203042F82030401CB042F4DB04E0BE
:101F00000846FFF746FC0020009000987EE40C494C
:101F100010B54A780120062A1FD18B69054C5B1C3D
:101F2000283C8B6194F85840A34217DA1046FFF71B
:101F300030FC11E0DC0A1000009E0120849F01208B
:101F400018021000D4A4012074A1012040AF012088
:101F5000B8AF012064A30120002010BD00228A61D7
:101F600010BD70B5AA4909684B7D097D5B1C4B43C8
:101F7000A84991F85840012C1ED9498849051BD51C
:101F80000020A54A15E001210AE000BF01FB03067D
:101F900032F8105032F81660491C354422F81050BF
:101FA0008C42F3DC32F9101091FBF4F122F810109E
:101FB000401C9842E7D370BD047570BDF0B587B082
:101FC000FFF7D8FCFFF7A3FF002828D0914DA87891
:101FD000400603D4FFF770FD002820D08C4F8F4CB3
:101FE000386890F80A07C0070BD0A878800708D493
:101FF0006078012805D12079E8746079688009F05B
:102000005FF96078072803D12079E87460796880E7
:1020100000218048FFF7D0FB18B1FFF7BAFB07B0EB
:10202000F0BD7F48002666700670386890F80A0791
:10203000C00706D0A878800703D40021084602F024
:1020400094F87849A4200873386890F81001400784
:1020500002D5A67000F0B6FC2078012819D08DF8C2
:10206000006001208DF814006846FFF77AFF6A4887
:10207000019000F5F0500290E17800F5B87000EBA7
:1020800041000390E6706848049069686846884794
:10209000C5E703208DF80000E3E770B55C48604DAC
:1020A0004FF00004016891F8100142075B480AD51F
:1020B00091F84317890706D48178012908D00229AD
:1020C0000FD0032903D18470FFF790FC2C7070BDF2
:1020D0000221817000F08CFCBDE87040322000F0DD
:1020E000A0BC032181704078BDE87040FFF751BB70
:1020F000F0B500224D1E12E0531C1F460BE000BF3E
:1021000030F8126030F81340A64203D920F813606B
:1021100020F812405B1C9BB28B42F1D3BAB2AA42A8
:10212000EADBF0BD2DE9FF4100252E4629460120BE
:1021300002F01BF800246F4600F0EFFC27F81400B3
:10214000641CA4B2082CF7D308216846FFF7D0FF1F
:102150005FF0020037F8101019B131446D1C8EB2D7
:10216000ADB2401C80B20628F4D3B6FBF5F004B043
:102170003BE438B50C46054601226946104600F09E
:10218000B1FC9DF80000000928709DF8000000F0E7
:102190000300207038BD08B501F0030141EA0011C9
:1021A0008DF8001001226946104600F001F908BDC3
:1021B00000F01F020121914040094FF0E02202EBA4
:1021C0008000C0F80011704700F01F02012191400B
:1021D00040094FF0E02202EB8000C0F88011704708
:1021E00000F01F020121914040094FF0E02202EB74
:1021F0008000C0F8801270474907090E002803DAF2
:1022000000F00F00094A00E0094A815470470000BD
:1022100038021000B40A10000080012018021000DB
:10222000AD02100000100020F89E012014ED00E027
:1022300000E400E0F94801680029FCD17047F0B5DE
:1022400027260022F54DF6484FF4F8315C270C465E
:102250005FF0000303EB000E11F803C05B1C8EF867
:1022600060C00C2BF6DB2B68002BFCD18276C77686
:1022700004F10C0103EB000E11F803C05B1C8EF897
:1022800060C00C2BF6DB29680029FCD1511C81763B
:10229000C776921C04F13001B2EB460FD7DBF0BDDC
:1022A0002DE9F0479246089E5B1EC6F10801002208
:1022B000DB4C01F0FF0C1546002189469A420BDAEF
:1022C00000EB0208875C98F8018027FA06F708FA05
:1022D0000CF847EA080703E007D1875C27FA06F7FE
:1022E00001EB040888F8607003E001EB040888F84B
:1022F000609001F1010102F101020C29DEDBC74906
:102300000F68002FFCD10AEB0501A1765C21E17674
:102310006D1C022DD0DBBDE8F08718B50024112319
:102320005C222146BF480094FFF7BAFFBD4818233E
:102330006222002121300094FFF7B2FF18BD2DE981
:10234000F0470024DFF8D482B54982462546264668
:102350004FF05C0900209C4206DA00EB010C1AF8F1
:1023600004708CF8607002E0471887F86060641CA5
:10237000401C0C28EFDB00BFD8F800000028FBD180
:102380005019887681F81B906D1C032DE2DBC2E7A3
:10239000A44800B516235E2200216C38FFF7CFFF5A
:1023A000A04820236422002140385DF804EBC6E7F2
:1023B00070B500239A4C05E0CD5C1E195B1C86F8B5
:1023C00060505BB29342F7DB94490B68002BFCD161
:1023D000A07642F01000E07670BD30B5924C072236
:1023E0000220216801F24271FFF7E2FF2168022218
:1023F00001F24A710920FFF7DBFF2168062201F292
:102400004D710B20FFF7D4FF20688849884D90F864
:102410005307097800F0F00001F00F01084328701D
:10242000012229461120FFF7C3FF2168072201F28C
:1024300054711220FFF7BCFF7C480122401E007837
:1024400000F00F01206890F85B0761F31F102870FF
:1024500029461920FFF7ACFF2168042201F25C71C4
:102460001A20FFF7A5FF71480222C01C29460078F8
:1024700028706E48401C007868701E20FFF798FF97
:102480002168062201F262712020FFF791FF674860
:102490000222001D2946007828706448801C0078BC
:1024A00068702620FFF784FF2168022201F26A711A
:1024B0002820FFF77DFF2168072201F26C713C2084
:1024C000FFF776FF21680A2201F5F5614320FFF747
:1024D0006FFF21680A2201F2B2714D20FFF768FFF9
:1024E000206890F8C01753480170332141740B21C4
:1024F000817430BD5048002202604F481C38026091
:102500004E480261012101618260816002600160C8
:1025100002604249A0F574700B68002BFCD1404961
:102520000B7B43F020030B730B7B23F040030B73F7
:102530000B7B23F080030B730B7B23F020030B73C7
:10254000C0F8D823C0F8E0233D48027070473348F4
:10255000183001680029FCD1704730B53748002495
:10256000743004603548803004603448C460012110
:10257000C160C4600460016004602E4D2020AD1D68
:10258000287068702649593D0873A42008732348B1
:10259000183001680029FCD1FFF7ACFFFFF71DFFE1
:1025A000FFF7F6FEFFF7B9FEFFF749FE2548046086
:1025B00085F8344030BD38B50546194CC06C0090E4
:1025C0006073010AA173010CE173000E20740422F0
:1025D00069462A20FFF7ECFE012205F148012E2072
:1025E000FFF7E6FE95F84800A074686D0090E0746F
:1025F000010A2175010C6175000EA075042269465F
:102600003420FFF7D5FE0098800F84F84000084979
:10261000012208703820FFF7CBFE38BD040B0022E2
:1026200000100020ACF8010038021000F6FF010095
:10263000100B1000530000201C0C0022D0030022BD
:10264000190210004005002200EBC00101EB001050
:102650006FF0030101EB800010B5F749F74A0978E4
:10266000146890FBF1F0401EC1B2012358075CB121
:102670000024146080F8341090F8421090F8424022
:102680008C42FBD0136010BD80F83410FAE7EC48A0
:1026900001680129FCD170477CB5044600208DF803
:1026A00004002046FFF787FFE648B4F84210018097
:1026B000217C00F8011C94F844104173E24EA07C88
:1026C00086F83600E14D286890F842078DF8000042
:1026D0006188890503D520F012008DF800000122E1
:1026E00069460220FFF764FE042204F1110105206F
:1026F000FFF75EFE2968022201F24A710920FFF706
:1027000057FE022204F116010C20FFF751FE0222AF
:1027100004F118010E20FFF74BFE2868052204F192
:102720001A0190F8540720771020FFF741FE28681F
:1027300090F80907C0070AD0012201A94320FFF73A
:1027400037FE022204F136013E20FFF731FE01225E
:1027500004F145013C20FFF72BFEB948016801292F
:10276000FCD194F8440030732320FFF76DFF7CBD4B
:102770007EB50446FFF71FFFB248B4F8421001804F
:1027800094F8391000F8011C94F844104173AF4DCF
:10279000286890F842078DF800006188890503D504
:1027A00020F012008DF80000012269460220FFF798
:1027B000FFFD286890F80A17C90730D06288910792
:1027C0002DD4B0F80D17ADF80410B0F87007ADF8BF
:1027D0000800120609D594F835201044ADF8080019
:1027E00094F834000844ADF80400022202A9402005
:1027F000FFF7DEFD022201A90920FFF7D9FD2968B4
:1028000091F80907C0071DD0012201F5F5614320A9
:10281000FFF7CEFD022204F136013E2010E090F8D1
:102820000907C00707D000208DF80400012201A984
:102830004320FFF7BDFD2968022201F24A710920F9
:10284000FFF7B6FD022204F130011A20FFF7B0FDB8
:10285000022204F132012220FFF7AAFD012204F135
:1028600038010720FFF7A4FD012204F13E010820F2
:10287000FFF79EFD012204F13F012020FFF798FDA4
:10288000012204F140012820FFF792FD012204F10A
:1028900046011720FFF78CFD012204F147011820A3
:1028A000FFF786FD28686A49012290F8540720F056
:1028B000F00008701220FFF77BFD94F84100624E93
:1028C000C00708D0286800F2C67190F8C60786F8DD
:1028D0003600012206E094F83A0086F8360001221C
:1028E00004F13A010620FFF763FD012204F14501DE
:1028F0003C20FFF75DFD28680122694690F84307F8
:1029000040F008008DF800000320FFF751FD4C480F
:1029100001680129FCD194F8440030732320FFF7AB
:1029200093FE7EBD49494B4B0A6892F84D270270D1
:102930000A68B2F85027428009681B7801F2547186
:1029400003F00F0311F8012C02F0F0021A43027198
:102950004A89C2804A8A0281CA7B8272CA7DC27257
:1029600049780173704710B50446014601220B20D7
:10297000FFF71EFD0222A11C0E20FFF719FD012208
:10298000211D1120FFF714FD0222A11D1C20FFF7BD
:102990000FFD022204F108012420FFF709FD0122A6
:1029A00004F10A012120FFF703FD012204F10B01CC
:1029B0002920FFF7FDFC04F10C010122BDE81040C5
:1029C0001320F5E4204908B5042008731F480122AC
:1029D0006946006890F8430720F008008DF8000071
:1029E0000320FFF7E5FC08BD174920200873704756
:1029F0001549C0200873704710490020403908600D
:102A000070470E48016800290AD0002101604FF08C
:102A1000005191F8420000BF91F842208242FBD061
:102A200070470649002240390A60064A273A10706A
:102A30000120086070470000AF021000400500222E
:102A4000000B00225400002000100020380210006B
:102A5000100B1000F6FF010070B5414C2368002BED
:102A6000FCD11D4603E0C6185B1C86F880508B42E3
:102A7000F9D32368002BFCD102E0C45CD4545B1C66
:102A80008B42FAD370BD10B501F03BFAFFF7B9FFE6
:102A90003448007878B13248183801680029FCD1F0
:102AA0003148C078400602D5304901200870BDE8A1
:102AB0001040FFF783BA2E490020087010BD10B5F2
:102AC00001F01FFA2B4900200860BDE81040FFF715
:102AD000E4BA10B501F015FAFFF793FFBDE8104016
:102AE000FFF7DBBA204B10B59876DA761C48183819
:102AF0000468002CFCD1012083F8E0001848046829
:102B0000002CFCD1002005E0C41894F860400C545F
:102B1000401C40B29042F7DB10BD08B543F6FF7091
:102B2000ADF80000022269463E20FFF741FC02207A
:102B3000ADF80000012269463C20FFF739FC0A4944
:102B4000E02008734FF41670FDF7A4FB02226946DB
:102B50006D20FFF7C7FFFFF735FFBDF8000008BD88
:102B60001C0B002219021000001000201802100097
:102B7000AD02100000050022FEE70446012008F027
:102B8000D4FC00210F20226808F0E7FC01210F206F
:102B9000626808F0E2FC02210F20A26808F0DDFC68
:102BA00003210F20E26808F0D8FC0C210F202269D5
:102BB00008F0D3FC0E210F20626908F0CEFC0F2133
:102BC0000846A26908F0C9FC20210F20E26908F03C
:102BD000C4FC3E48026821210F2008F0BEFC3B489F
:102BE0001038026822210F2008F0B7FC37480C3853
:102BF000026823210F2008F0B0FC3448083802682E
:102C000024210F2008F0A9FC3048001D026825216E
:102C10000F2008F0A2FC2D483438026826210F202E
:102C200008F09BFC29481438026827210F2008F07F
:102C300094FCFDF7CCFD024630210F2008F08DFCFE
:102C4000ED214EF6ED52084608F0B5FCFEE710B552
:102C5000012807D002280ED0032805D0042805D06B
:102C6000042109E0012107E0032105E00021032000
:102C700008F05BFCFEE70221BDE81040032008F0ED
:102C800054BC10B504460146042008F04EFC012C4B
:102C900000D1FEE710BD0146082008F046BC014601
:102CA000062008F042BC10B504460146072008F093
:102CB0003CFC012C04D0022C03D0032C02D1FEE7F3
:102CC000FEE7FEE710BD0320EDE7000038ED00E071
:102CD00001F017B9704770472B4810B5016821F013
:102CE0000401016001F00DF9BDE8104011F032B9A6
:102CF0007047704701F005B910B501F002F9BDE861
:102D0000104008F085BE10B501F0FBF8BDE810409A
:102D10004FF0005001F0BFBA7047704710B501F096
:102D2000F0F81A480078012803D0BDE8104008F0F8
:102D3000D9BABDE8104002F032B8704710B501F0C2
:102D4000E0F8BDE810404FF0805001F0A4BA7047A1
:102D5000704770477047704770477047704710B5AD
:102D600001F0CFF8BDE81040FDF72FBF10B501F01E
:102D7000C8F806480078012803D1BDE8104001F0EA
:102D8000EABF10BD7047704710ED00E0AC021000C4
:102D900010B55621AB4811F0FAF9AA48AA49AB4A36
:102DA00001808280AA494180AA4BC380AA4C048139
:102DB000AA4C4481AA4C8481AA4CC481AA4C0482A6
:102DC000AA4C4482AA4C8482AA4CC482AA4C048392
:102DD000AA4C4486AA4C8486AA4CC486AA4C048772
:102DE000C38741878287A949A0F84010A84909688C
:102DF000B1F86220A0F84220B1F8C621A0F8442022
:102E0000B1F8A120A0F84620B1F8F021A0F84820A0
:102E1000B1F85421A0F84A20B1F85221A0F84C2072
:102E20009A48B1F84E274280B1F85C27C280B1F8C9
:102E30006417018110BD974813229849037896487A
:102E4000552B02D0027019200CE0914B1B6893F8AF
:102E50001131DB0702D08F4A521C127802708D4864
:102E6000801C0078087070472DE9F047FF22282168
:102E70008B4811F084F98A48FEF757F8DFF8209262
:102E80000E240126D9F80410072545F2AA58414519
:102E900003D0D9F8081041453BD1D9F80000D9F842
:102EA0000820070E424506D1032F01D1C0F3013699
:102EB000C0F3032502E00120FFF7F1FED9F804106A
:102EC000414504D199F8000000F01F0402E00220FF
:102ED000FFF7E5FE032F22D1D9F814304146714A9D
:102EE00048468B4201D1036900E06F4B1360C36910
:102EF0006E4A8B4201D1836900E06D4B1360436AD7
:102F00006C4A434502D1D9F8200000E06A481060BD
:102F100005E00120FFF7C3FE0220FFF7C0FE5C487A
:102F2000016891F8F007400702D591F8F20704E034
:102F300006F003002A0740EA126091F8DA16C90782
:102F400011D0B9F80C108AB242450CD05149891FF2
:102F50000978C52907D120F0F0014E48401F0078BC
:102F6000000741EA1060554981F860000120887629
:102F70001120C8765248017864F304010170BDE85D
:102F8000F08770B5FDF7A3FCFDF7B0FE404C20685C
:102F90000078A52802D00120FFF773FE4FF00850FB
:102FA0000125C0F898532068464A90F8271101F08F
:102FB0000101116090F82701111DC0F34000086065
:102FC000FDF7B2FFFDF79AFCFEF774F9042801D172
:102FD000FFF73DFEFDF7D6FEFDF720FF37488021C5
:102FE00080F86010042181761121C176FFF73CFF43
:102FF000FFF721FF33480C38056070BD10B54FF066
:10300000005141F227404881FFF7BBFFFFF7C0FEA8
:103010002D493F2008602D49002008602D482C498B
:10302000016001F508602C4908602C4800F048FB5D
:10303000FDF72AF900F054F8FDF724F9FDF7A8F997
:10304000012010BD0000012000800120D8DD0120FA
:1030500058D6012056000120009E0120462E012056
:10306000822E0120702F0120AC2F0120E03401209E
:103070001C350120E22901201E2A01203A2E0120C0
:1030800080CE01208CCE0120D629012058251000A9
:1030900038021000F2FF0100B0021000AF02100071
:1030A00078251000B402100040A5AE02B80210004E
:1030B00000879303BC02100000366E010010002050
:1030C0002000002088040022C42E0120A00210004D
:1030D000A01210007002100074021000A023100053
:1030E0007FB5FDF72DF9204D002400BF05EB4410FE
:1030F00000F11002017F4CCACDE90261CDE9002345
:103100000FC8FDF701FB10B10220FFF7CCFD641CD6
:10311000072CEBDB144D002415F1E00504EB440013
:1031200005EB8001091D55F8200006C9FDF76CFA72
:1031300010B10220FFF7B7FD641C082CEEDB0B4D2D
:10314000002400BF05EBC400416855F83400FDF7CA
:1031500075F910B10220FFF7A6FD641C062CF1DB07
:103160007FBD4068FFF7AFBDC443010004450100C7
:103170002DE9F0479246012547F6F87256429946E6
:10318000AC460024089F16E030F8143031F8148063
:10319000A8EB03031BB29A4200DD1A469E4200DAF6
:1031A0001E46002B02DA4FF0000502E001DD4FF071
:1031B000000C04F10104BC42E6DB55EA0C0306D026
:1031C000012D01D02DB108E0BCF1010F05D1002285
:1031D00003E0BCF1010F00D1324600252C462B46FE
:1031E00011E000BF30F8136031F813C01644ACEBA7
:1031F000060636B24E4505DAC9F1000C664501DD1A
:103200003544641C5B1CBB42ECDB95FBF4F10A44C7
:10321000002105E030F8113013442AF81130491C20
:10322000B942F7DBBDE8F08770B5034600200246DF
:10323000F64C09E09D5C521C05F00F0604EB1515D9
:10324000A65D2D78304428448A42F3DB70BD884265
:1032500000D308467047884200D808467047884225
:1032600000D30846904200D310467047884200DBE6
:1032700008467047884200DC084670472DE9F04751
:10328000D0F810C00568046A85FB0C12A1FB04127B
:1032900042694368914683FB02628269E246A6FB6B
:1032A00002677618D0E9021781FB07C8C069ACFB3A
:1032B00000C81CEB060682FB0A2CA2FB011280FB55
:1032C0000902A0FB0502401884FB0712A1FB0312B0
:1032D0000818301A4FEAE071A4E72DE9F04389B0ED
:1032E0000446006800906068019020690290606860
:1032F000039020690490A069059020690690A06958
:103300000790E06908900D466846FFF7B7FF8046D2
:10331000A0680190E068049060690790894668465B
:10332000FFF7ACFF064660680190A0680290206934
:103330000490E0680590A0690790606908900F46C6
:103340006846FFF79BFFC5E90401C5E90267C5E9C7
:10335000008909B0BDE8F0832DE9FF4F4FF0000A66
:1033600089B09B465746D146D046564655465446A8
:103370002021684610F02DFF0B9810E00999824437
:1033800031F9102000FB00F102FB01668844414343
:1033900002FB009901FB004417440D44401C5845B2
:1033A000ECDD0B99ABEB0100401CCDE9000ACDE947
:1033B0000654CDE90486CDE9027968460A99FFF7FB
:1033C0008CFF0DB0BDE8F08F91480068017B427B17
:1033D00041EA0221827BC07B41EA024141EA00606E
:1033E000400070478A4800680179427941EA022129
:1033F0008279C07941EA024141EA0060704700B534
:10340000FFF7E2FF4008400000BDF8B50E46044655
:10341000FFF7F5FF0090FFF7D7FF05460421684648
:10342000FFF702FF04EB40070024009920462346E3
:103430004FF0010C0CFA03F20A4207D02A4204D0E2
:1034400037F8102026F81420641C401C5B1C1E2B2F
:10345000F0DBF8BDC6E7FCB50E460746FFF7CFFF29
:103460000190FFF7BFFF0090FFF7BCFF0546042166
:1034700001A8FFF7D9FE044604216846FFF7D4FEF1
:1034800000EB440007EB4007002000990446034688
:103490004FF0010C0CFA03F20A4207D02A4204D082
:1034A00037F8142026F81020401C641C5B1C202BCD
:1034B000F0DBFCBD70B556490020096801F5F574D4
:1034C00091F8E8518DB191F8E6214FF00103D20750
:1034D0000DD0002203FA02F6354203D0A65C03FAAF
:1034E00006F10843521C062AF4DB400070BD91F837
:1034F000E91103FA01F0F8E770B5454900200968C1
:1035000001F5F57491F8E851002D09D091F8E62104
:103510004FF00103D20704D091F8E91103FA01F04A
:1035200070BD03FA02F6354203D0A65C03FA06F139
:103530000843521C062AF4DB70BD70B50022344CDF
:10354000012303FA02F6256895F8E851354203D0C5
:1035500030F8125021F81250521C062AF1DB70BDCF
:1035600000B5FFF731FF40F0010000BD3AE7294AFE
:10357000520102EB810101F108510860704701EB33
:103580008010801001EB41014900182291FBF2F3F9
:1035900000EB400000F5F83002FB1311006820F04A
:1035A0007F40C84000F03F00704701EB8010801062
:1035B00010B501EB41014900182391FBF3F403FB23
:1035C000141300EB400000F5F8303F2401689C40E4
:1035D000A1439A400A430270110A4170110C817094
:1035E00010BD821002EB4202114400EB400040008B
:1035F000182290FBF2F301F5F83102FB1302086880
:1036000020F07F40D04000F03F007047344501007B
:1036100038021000C42E0120831003EB43031A4428
:1036200010B500EB40004000182390FBF3F403FBBF
:10363000140302F5F8323F2410689C40A0439940DF
:1036400001431170080A5070080C907010BD2DE9EC
:10365000F05F8346802110F0BCFDFFF781FF4FEA49
:10366000500AFFF7BFFE0127814600264FEA0704F4
:1036700004FA06F010EA0A0F1DD04FF00008C44605
:103680004FEA080504FA05F010EA090F0FD02946A1
:103690003046FFF774FF404506D05BF8272004FA58
:1036A0000CF10A434BF8272080460CF1010C6D1CED
:1036B000202DE7DB7F1C761C272ED9DBBDE8F09F91
:1036C0002DE9F14F7821009810F083FDFFF748FFB6
:1036D0004FEA5008FFF786FE4FF0000C8146664621
:1036E0004FF0010A0AFA06F111EA090F1DD0002471
:1036F000012725460AFA0CFB0AFA05F010EA080F22
:103700000ED031462846FFF73AFFA04206D0009976
:1037100051F8272042EA0B0241F8272004467F1C7B
:103720006D1C272DE8DB0CF1010C761C202ED9DB5B
:10373000FD48006890F82000400603D5BDE8F84F2A
:10374000FA4884E7BDE8F88F2DE9F04F8346F64844
:1037500000242246D0F800A001219AF81450A5F1C7
:10376000010622E003200123DFF8C4E303FA01F994
:103770009AF8157016E000BF5EF820C01CEA090F29
:103780000FD0A0F1010300FB051C03FB05183BF95A
:103790001CC03BF91830BCEB030300D55B421C4452
:1037A000521C401C8742E7DC491C8E42DADC02B91D
:1037B000012294FBF2F005E62DE9F043DA490026F8
:1037C00033460F68012297F815C020E03D7D0221A5
:1037D000A946A5F1010517E0D44C54F82280012434
:1037E00004FA01F418EA040F0DD002FB091430F9B1
:1037F000148000EB440434F9024CB8EB040400D507
:10380000644226445B1C491C8D42E5DC521C9445F5
:10381000DCDC03B9012396FBF3F09BE52DE9FF4FB8
:1038200082B00021DDF83CE001910C460091C149D5
:10383000BD4D012B0C602E6896F8771001F00F0437
:1038400000D10024317D96F87B30C4F1100A8B4200
:1038500000D21946022384E04FF00009CC4602252D
:103860009BF814602AE0B14F57F823800127AF403E
:1038700018EA070F03FB065730F9178000EB4707DC
:1038800037F9027CA8EB070706D0002F00DA7F4249
:10389000DDF80C80A7EB0807002F00DA7F42B9445F
:1038A000BEF1000F09D0DFF88C82D8F800804745C0
:1038B00003DDDFF88082C8F800706D1C8D42D2DB1A
:1038C0000D462AE0994F57F823800127AF4018EAA8
:1038D000070F03FB065730F9178000EB470737F94E
:1038E000027CA8EB070706D0002F00DA7F42DDF844
:1038F0000C80A7EB0807002F00DA7F42BC44BEF122
:10390000000F09D0DFF82C82D8F80080474503DD8E
:10391000DFF82082C8F800706D1CAE42D2DC019D39
:103920004D440195009D654400959BF87A509D4259
:1039300016D11568019F65430AFB0755EE1705EB85
:1039400016752D1115609568009F65430AFB075594
:10395000EE1705EB16752D11956000250195009564
:103960005B1C714DD5F800B09BF815506D1E9D4243
:103970003FF772AF5068019B60430AFB0300C11719
:1039800000EB117000115060D068009B60430AFB8F
:103990000300C11700EB11700011D06006B011E5F3
:1039A0002DE9FF4F83B0002101910C46009162493F
:1039B000012B0C605C490C6894F8775005F00F07F8
:1039C00000D10027667D94F87A30C7F1100EB3421B
:1039D00000D21E46012388E04FF00009C8460324A8
:1039E0002AE0534951F824C0012199401CEA010FF3
:1039F00004FB053130F911C0A4F1010101FB0531CF
:103A000030F91110ACEB010106D0002900DA49426F
:103A1000DDF810C0A1EB0C01002900DA49428A460A
:103A20001099D14439B1DFF810B1DBF800C0E2459C
:103A300001DDCBF800A0641CB442D2DB029C31460D
:103A400094F815B02CE03A4C54F821C001249C4065
:103A50001CEA040F01FB053430F914C0A1F1010484
:103A600004FB053430F91440ACEB040406D0002C00
:103A700000DA6442DDF810C0A4EB0C04002C00DA7C
:103A80006442A246109CD0444CB1DFF8ACC0DCF8D4
:103A900000C0E24503DDDFF8A0C0CCF800A0491C5F
:103AA0008B45D0DC01994944019100994144009132
:103AB000029991F87B10994216D11168019D7943C2
:103AC0000EFB0511CC1701EB1471091111609168FF
:103AD000009D79430EFB0511CC1701EB1471091100
:103AE00091600021019100915B1C0F4909680291CE
:103AF0000D7D691E99423FF76FAF50680199784379
:103B00000EFB0100C11700EB117000115060D0686E
:103B1000009B78430EFB0300C11700EB11700011EE
:103B2000D06007B04EE400003802100058241000A6
:103B3000A02310008C02100088021000F0B50024B1
:103B40005F1E26E02546661C08E000BF30F915C060
:103B500030F916E0F44500DB3546761C9E42F5DB75
:103B600030F8146030F815C020F814C020F8156043
:103B700031F8146031F815C021F814C021F815602F
:103B800032F8146032F815C022F814C022F815601B
:103B9000641CBC42D6DBF0BD2DE9F04F8BB08046F3
:103BA0000020FF4D0090019002900390049005903A
:103BB00006900790089028680126FA4FB0F93CA4B7
:103BC00025E002241DE0007D04FB006037F91010A1
:103BD000414515DD032304AA02A96846FFF7AEFF9D
:103BE0002868BDF90010007D04FB006037F9100063
:103BF000814205DAADF80000ADF80860ADF810407C
:103C0000641C2868417D491EA142DCDC761C2868C2
:103C1000007D401EB042D4DC0024BB46A9460027EC
:103C2000002604A830F91410DF48C0570D1802A868
:103C30006B1C30F91410DC48C01C805701EB000CE1
:103C4000D9F80000017D05FB01C203FB01C13BF86F
:103C500012203BF811006146101A0FFA80F8681E16
:103C6000FFF78DFC099061462846FFF788FC014666
:103C70000998411A01FB0A80002800DA404201B28B
:103C8000CA48016006A850F824200A4440F82420BD
:103C9000D9F80000B0F83E04884207DA4FF6FF7208
:103CA000A42007F05AFC00200BB084E5761CF6B285
:103CB000032EB6D37F1CFFB2032FB1D3641CE4B232
:103CC000032CACD30120EFE72DE9F04FB4490023DA
:103CD00018460C6894F84814257DC1F3C001B4F867
:103CE00065B4B4F867A4A5EB010924E00322DFF86A
:103CF000C0E2DFF8B082667D19E000BF5EF822C046
:103D0000012707FA01F71CEA070F0ED102FB05177E
:103D100038F917C0A2F1010707FB051738F917702A
:103D2000BCEB070700D57F423B44521CD2B29642FF
:103D3000E4D8491CC9B28945D8DC9E499B450B6033
:103D400002D2534500D2012035E503E011F8013BD2
:103D500000F8013B521EF9D270477CB50D4604466F
:103D6000FFF74DFB0090FFF73DFB01900098042109
:103D7000400800906846FFF757FA0646042101A85C
:103D8000FFF752FA3044820021462846FFF7DDFF54
:103D90007CBD0B46824909684A7D097D521C4A4315
:103DA000014652001846D0E72DE9F04104465C2157
:103DB00010F00FFA00257A4E25806580306890F863
:103DC000C50700F0010045EA40106080316891F8B5
:103DD0004517C90940EA011060806560FFF7C0FB24
:103DE000A060FFF7FFFA744FE0607888E0823068E7
:103DF00000F24670C27A817A02F03F0241EA022163
:103E000021834178E17490F87A1021740178A174CB
:103E100081782175017BA1766849407B097800F0A3
:103E2000F00001F00F010843E076FFF743FB20624A
:103E3000FFF762FB6062FFF7E2FAA062FFF7D2FAD7
:103E4000E062F88820866086306800F24E7090F854
:103E5000731084F8381090F8751084F8391090F8C1
:103E6000761084F83A1010F84C1C84F83B100121AD
:103E700084F83C1084F83D5090F8742084F83E207B
:103E8000027D84F83F20027F84F84020027AA277E6
:103E9000827F84F8452084F8355084F83450028CB1
:103EA000E28610F8562CA0F24E70D2070BD090F894
:103EB000F90600F00F0084F85800608840F4806034
:103EC0006080BDE8F08184F85810FAE710B5044628
:103ED000FCF7DAF9012C0BD13148006890F8100199
:103EE000800705D5FCF7FBFC38B1FCF7F4FC04E0D7
:103EF000FCF7F5FC08B9FCF7EAFCBDE81040FCF75C
:103F0000C1B90020E2E7264B10B51A68947E640719
:103F100004D5D28A0468A2EB040202601A68947E77
:103F2000A40703D5128B0C68121B0A600268002AD2
:103F300000DA002202601C68E48AA24200DD224608
:103F400002600A68002A00DA00220A601C68248BDA
:103F5000A24200DD22460A601B689B7EDB0702D07E
:103F600003680B60026010BDF0B50D4E00252C46B5
:103F700036680EE031F9147030F914C0A7EB0C0765
:103F8000974205DD777D6D1C7F1EA74200D16D1C19
:103F9000641C9C42EEDB012D12D90120F0BD000013
:103FA00038021000200B1000CF0210008402100015
:103FB000A02310008002100058251000F6FF010019
:103FC0000020EBE72DE9F04F9246DDE909B7012526
:103FD00047F6F87256429946AC46002417E000BFF7
:103FE00030F8143031F81480A8EB03031BB29A4266
:103FF00000DD1A469E4200DA1E46002B02DA4FF020
:10400000000502E001DD4FF0000C04F10104BC42A8
:10401000E6DB55EA0C0306D0012D01D02DB108E0F6
:10402000BCF1010F05D1002203E0BCF1010F00D16A
:10403000324600252C462B4611E000BF30F81360B5
:1040400031F813C01644ACEB060636B24E4505DA1D
:10405000CBF1000C664501DD3544641C5B1CBB42A2
:10406000ECDB95FBF4F10A44002105E030F8113057
:1040700013442AF81130491CB942F7DB64E6F0B565
:104080000646002004460546521C059F0AE000BF74
:1040900036F911C09C4504DDA44502DD64460D4699
:1040A0000120491C9142F3DB3D6077E730B502689F
:1040B000002513460AE000BF50F82540944201DD78
:1040C000224602E09C4200DA23466D1C8D42F3DB5F
:1040D000D01800EBD070401030BD70B59F4B1B68FE
:1040E0005C7D1B7D641C5C4308E000BF32F813500C
:1040F00030F81360AD1B21F813505B1CA342F5DBB5
:1041000070BD9749012008608102964810F03FB8C1
:104110002DE9F041064615460F46302801D1FFF73C
:10412000F0FF8F4C20682844401CB0F5806F01D20E
:10413000206801E0012020608A4908700E542DB1EA
:104140000844401C2A463946FFF7FFFD20682844F2
:10415000401C2060B5E684480021012201704270B5
:104160008170704780480078704730B57B4A12688C
:1041700092F80A27D3070BD0D5067C4A4FF00003EC
:104180004FF0010407D5151F2860012901D11360E4
:1041900030BD146030BD754D083D28600129F8D050
:1041A000F5E72DE9F84F6D4C00264FF000572068D9
:1041B00090F80A07450997F8510000D1012507201A
:1041C000FCF74DFAFCF703FBDFF89C81C8F80C0004
:1041D00020684FF0010490F80A07C00603D50620B6
:1041E00087F8510001E087F8514000210120FFF7D6
:1041F000BCFF4FF41670FCF74DF84FF0E02A4FF477
:1042000080594FF0000BCAF880924FF0405144465D
:10421000D8F80C00FCF761F9DFF85481012088F828
:104220000000E8B2FCF742FCCAF800916B4600229D
:104230004FF04051E068FCF771F94FF04051E068F1
:10424000FCF74BF90098C00000D501262078B04259
:1042500002D1607801280CD197F85100AEB140EA44
:104260000522DD20E16807F078F900BF84F801B08D
:10427000267000210846FFF778FF88F800B0072075
:10428000FCF708FA2078BDE8F88F40EA05210920FC
:1042900007F04BF9EAE710B5044636484FF4805171
:1042A0000160FCF710FC30482146C068BDE81040B2
:1042B000FCF7E4B870B52948006890F8D010CA0738
:1042C0002D491DD090F8D12002F00F02531C0A2B6B
:1042D00001D90A2200E0521C00F1D20400234D88CB
:1042E00005E000BF34F81360B5420CD05B1C93426C
:1042F000F8DBB0F84E274A80B0F8E8200A8002E0E8
:10430000B0F84E274A8090F88023D2071FD090F84B
:10431000812302F00F035A1C0A2A01D90A2300E064
:104320005B1C00F282350024CA8804E035F8146072
:10433000B2420BD0641C9C42F8DBB0F85C27CA8008
:10434000B0F864270A81B0F8AC03888070BDB0F87B
:104350005C27CA80B0F86407088170BD380210007D
:104360003C021000D6250120CC021000280A0022B1
:10437000AD02100080E100E05825100010B50146A4
:104380001822FB48FFF7E1FCBDE810404FF4006144
:104390000120FCF773B82DE9F04198B080460D4636
:1043A00014466846FFF700FDE0074FF0010701D013
:1043B000ADF80070A00705D5BDF8000040F008007A
:1043C000ADF80000600733D5EA4E306890F80A0770
:1043D000C0070DD0FFF7E5FE0621012805D0BDF886
:1043E000020040F00200ADF80200ADF8001005E058
:1043F000BDF8000040F00600ADF80000A00711D1A4
:10440000BDF8000040F00100ADF80000306800F297
:10441000211041788DF8131001788DF81A108078EA
:104420008DF81E00D4480088800501D58DF83D70B8
:10443000ADF83250ADF81680ADF83050AFF2C30091
:10444000CB4E03244FF4006501906846FDF7E4F974
:1044500017AB002229460120FCF760F8294601200D
:10446000FCF73BF83078002804D0FEF7F0FB641E20
:10447000002CEADC18B0BDE8F0812DE9F041BD4A1E
:10448000002421461268254610F4D17F04D092F80A
:10449000221004254FEA111110F0050F05D092F8F3
:1044A000213045F001054FEA1314C00604D592F8F7
:1044B000210045F0020504098C4200DA0C46641C18
:1044C000002DD8D00026AD4F05E0F98878882A461F
:1044D000FFF761FF761CA642F7DBCCE72DE9F35F1F
:1044E000DFF890828B46D8F80000457D017D90F87A
:1044F00021006D1C00F00F074D437F1C4FF48851C5
:104500009F480FF066FE00269D4CDFF87092DFF8A2
:1045100060A218E0B9F8061001220098FFF73BFFEF
:104520009849DAF8040006F028F89649002007E0D8
:1045300054F8202031F910301A4444F82020401C4F
:10454000A842F5DB761CBE42E4DBD8F8000090F808
:10455000210000F00F01491C002006E054F8202043
:1045600092FBF1F22BF81020401CA842F6DBBDE8CC
:10457000FC9F2DE9F34F7F4D87B08B4628681821AB
:1045800090F8210000F00F077F1C68460FF021FE15
:1045900000266C46DFF8E491DFF8D4A1DFF8E8816B
:1045A00019E000BFB9F8061002220798FFF7F3FEE2
:1045B0007549DAF80C00FEF7C0FF00204FEA080149
:1045C00054F8202031F910301A4444F82020401CBF
:1045D0000628F5DB761CBE42E4DB286890F8210053
:1045E00000F00F01491C002001222B6802FA00F69E
:1045F00093F8E831334205D054F8203093FBF1F3BF
:104600002BF81030401C0628EFDB09B0BDE8F08F16
:104610002DE9F74F574D84B09146286830F83B1F7D
:10462000039140880290FEF7EAFE0090FEF712FF29
:10463000019004216846FEF7F7FD8046042101A899
:10464000FEF7F2FD404446002868B10090F82200D1
:1046500000F00F04641C4A480FF0BBFD296891F874
:10466000F002C20706D0800704D491F8F102044496
:1046700005F02EFC0027DFF808B1AA462FE03F48DE
:10468000042205994088FFF786FEDAF800103848C2
:1046900091F8C5178568C90704D001692A462846DC
:1046A00005F0C2FCDAF8000090F8F002C10707D06C
:1046B000800705D43549284605F026FC70B1334DF6
:1046C0000020594608E000BF51F8202035F910308D
:1046D0001A4441F82020401CB042F5DB7F1CA74261
:1046E000CDDBDAF80010264C504691F8221001F08C
:1046F0000F0303F101034FF000011CE05BF82120E0
:10470000056892FBF3F295F8F0725FEAC77C08D077
:10471000BF0706D595F8F1727F1C5743B5F8F22212
:10472000BA1AB1EB480F01DA039D00E0029D2A445A
:1047300024F81120491CB142E0DB049810F0220F4C
:1047400009D02046D9F80010FEF75FFE2046D9F8C0
:104750000410FEF780FE07B058E72DE9F0479A46AF
:10476000044B894600210125094E1C682DE00000FC
:10477000AC4010003802100048021000582510000C
:10478000A0121000200B10003A2E0120D0A501200D
:10479000562B012032F8113030F81170DB1B1FB29C
:1047A00000230AE0C3EB031C06EB8C0C5B1C3CF8FB
:1047B00011801BB2B8442CF8118094F880C305EB2B
:1047C0009C1C9C45EEDC491C09B2637D8B42E1DCFC
:1047D0000020F74A19E000BF3AF8103039F81010FD
:1047E000591A0BB2002108E002EB8116491C36F879
:1047F000107009B21F4426F8107094F8806305EB1E
:1048000096168E42F0DC401C00B2217D8142E3DC32
:10481000BDE8F08770B5E74DE74E00242868C4EB8B
:10482000041100EB440006EBC111B0F8EF00FFF7F4
:1048300055FE641C042CF1DB70BD2DE9FE4F0025F4
:104840008246DC4C2F46DFF87483DFF86493012640
:1048500012E000BF00EB4500C5EB0512B0F8B21343
:1048600008EB8200009009EB8510CDE901076A464C
:104870005046FFF7CDFE6D1C206890F8801306EBC4
:104880009111A942E6DC90F85011C90710D090F8B8
:10489000911109060CD5407DC8494200C848FFF770
:1048A00054FA2068C249007D4200C648FFF74DFA1D
:1048B000BDE8FE8FFEB5BF4AC3490024126801233C
:1048C00000F4907592F88063C98803EB961306E0B4
:1048D00002EB4406B6F8B263B14202D0641CA342B4
:1048E000F6DCA34219DDC5B192F85001C00703D12F
:1048F00092F8B001C0070FD0B049C4EB041001EB2F
:1049000080013C22B148FFF720FAA948402200EB81
:104910008411AF48FFF719FAFEBD00220292AB4A9C
:104920000092AB4A01926A46FFF772FEFEBD2DE986
:10493000F84304460020FBF792FE0320FBF78FFEAE
:104940009C4D286890F82010490701D424F4006495
:1049500090F85011C90705D190F8B011C90701D1DD
:1049600024F0620490F88013490701D424F4B07451
:1049700090F8D010490701D424F0040490F8E8110D
:1049800009B924F0100490F8040308B924F4C074A1
:1049900060060AD53C228D498E48FFF7D6F98D482E
:1049A00040228B493C30FFF7D0F98B490020401C56
:1049B0008842FCD3200502D52046FFF75EFD600744
:1049C00001D5FFF727FF14F4907F02D02046FFF7B0
:1049D00034FFDFF8F491E0074AD0B9F802007F49CC
:1049E000FFF77CFD286890F82000000738D57B4849
:1049F000FEF7AAFE7A4E024600213060FB2006F048
:104A0000ACFD2868DFF8DC8190F82000400609D56D
:104A10007248FEF7D1FE0246C8F800000021FB20D4
:104A200006F09BFD0027009701236F4A6B48316811
:104A3000FEF7B6FF286890F82000400607D50097DB
:104A400001236A4A6548D8F80010FEF7E7FE286897
:104A500090F81107400603D5802165480FF097FBB9
:104A6000286890F84804C00702D0204602F087FC6E
:104A7000E00604D5B9F802005E49FFF77AFD14F0AC
:104A8000820F0AD02046FFF715FF286890F84804E7
:104A9000800702D5204602F019FD600606D54D4973
:104AA0004B4B4A4A3C314B48FFF757FE52490120D5
:104AB00008705249087006F0F1FB0020FBF7EAFD90
:104AC000BDE8F8430320FBF7E5BDF0B43949002207
:104AD000394C0B68B3F8EF10814214D2B3F8F510DB
:104AE000814201D803220EE05FF0010103EB410592
:104AF000B5F8EF50A84201D10A4602E00DD2A1F16B
:104B000001028A420DD1C2EB021004EBC011F0BCCD
:104B10004FF4F0623148FFF718B9491C0429E5DB6E
:104B2000F1E703EB41032D4D33F8ED2FC1EB0111FC
:104B30005B88801A00029A1A90FBF2F300204FF46F
:104B4000707604EBC11100BF01EB4002A2F5F062E8
:104B500031F91040B2F90020A41A5C4302EB242280
:104B600025F81020401CB042EEDBF0BC70472DE968
:104B7000F04110490025114A09680D4EB1F8B233D1
:104B8000834242D291F880339C0901EB4407B7F885
:104B9000B27387420AD9012404EB93133BE000BFB0
:104BA00001EB4407B7F8B273B84229D125462AE091
:104BB000822C012038021000D6070120562B01203C
:104BC000462C0120822D012058251000E2290120C9
:104BD0001E2A01203040100020A1070056000120AD
:104BE000780210007C021000182410002824100005
:104BF000F02E0120D62901204E0210009A0210004A
:104C000008D2A4F10105A5421CD191F85001C007BA
:104C100008D103E0641CA342C2DCF6E791F8B001BE
:104C2000C0074CD0C5EB051002EB80013C22844844
:104C3000FFF78BF806EB8511BDE8F0414022814873
:104C4000FFF783B801EB4405B5F8B033B5F8B253BC
:104C5000C01A0002EB1A90FBF3F391F85001C00761
:104C600003D191F8B001C00729D0754DC4EB0411F0
:104C7000002002EB810100BF01EB400231F910700E
:104C800032F93C2CBF1A5F4302EB272225F8102093
:104C9000401C1E28F0DB6B4D002006EB841100BF8A
:104CA00001EB400231F9104032F9402CA41A5C4368
:104CB00002EB242225F81020401C2028F0DB0CE415
:104CC0002DE9F04160480124604E047000253560F4
:104CD000192000F0A8F8192000F08DF85C4F05208D
:104CE00038724FF41670FBF7D5FA5848443805600F
:104CF000FF21397034600460E1E770B55248554CCB
:104D000001250570207F40F004002077524800689C
:104D100090F81101C00705D00A2000F084F80A209D
:104D200000F069F8002184F860105B22A27611205F
:104D3000E07684F860505723A376E076434B443BFB
:104D40001960434EFF213170042184F86010A2766F
:104D5000E0761D6070BD70B53C48002444380460A6
:104D60003B4D08352E79192000F051F8C6F1FB00B3
:104D70002978C0B2491CB0FBF1F0384908703248BC
:104D800004703548006890F81101C00702D0BDE8F2
:104D90007040B2E731495520891E087070BD10B5CA
:104DA0002C4C207F40F0040020772B48006890F8BE
:104DB0001101C00702D00A2000F029F824490A7B1B
:104DC000224B0020443B186084F860005B23A376EC
:104DD0001123E3760978891A89B24FF4FA42B2FBBB
:104DE000F1F11E4A0909521E11705521521E11700F
:104DF0001549087010BD00F01F02012191404009C3
:104E00004FF0E02202EB8000C0F80011704700F084
:104E10001F020121914040094FF0E02202EB800087
:104E2000C0F88011704700F01F0201219140400935
:104E30004FF0E02202EB8000C0F8801270470000C3
:104E4000E22901201E2A0120AC02100048050022A0
:104E50002E0000200010002038021000F4FF010096
:104E600010B501461822FE48FEF76FFF8021BDE80D
:104E700010400120FBF702BB30B599B004466846EC
:104E8000FEF792FF0021012C02D0022C02D008E094
:104E9000012000E008208DF81210ADF800008DF818
:104EA0001010BDF80200AFF2470140F4A670EC4DBF
:104EB0000191ADF8020003246846FCF7ADFC17AB86
:104EC000002280210120FBF729FB80210120FBF734
:104ED00004FB2878002804D0FDF7B9FE641E002CDE
:104EE000EADC19B030BD2DE9FC5F4FF0000BFEF796
:104EF000E1FA0446FEF700FBDA49074600200860A5
:104F000048608860D8494FEA540980460860486084
:104F100088604FF0010A0220FFF7AEFFD04800245E
:104F20002646C068CDF800000AFA06F010EA090F1C
:104F300038D000250AFA05F1394230D0CB490AFAB7
:104F400004F0096891F8E811014228D0294630465A
:104F5000FEF715FBC549C34A096832F91430B1F8A8
:104F60000AC2B3EB0C01009B33F91430A3EB0C0C19
:104F700000D54942BCF1000F01DACCF1000C6145CB
:104F800004DBB94922F8143021F814003F2805D277
:104F9000401CC2B229463046FEF707FB641C6D1C5C
:104FA000202DC7DB761C272EBEDBFDF748F908F164
:104FB0000108B8F1400FAEDB012000900220FFF79E
:104FC0005BFFD0460026DFF8A4A2354608FA05F0BC
:104FD00010EA090F1ED0002408FA04F1394216D055
:104FE000DAF8001008FA06F091F8E81101420ED044
:104FF0009D48214610F81600019002462846FEF70B
:10500000D4FA01983F2801D300200090761C641C3C
:10501000202CE1DB6D1C272DD8DB009810B9052072
:10502000FDF739FEFDF70BF90220FFF725FF8C484D
:105030008F49C068FEF781FADAF800408C4D0020F5
:1050400094F8E831424600BF02FA00F10B421CD04E
:1050500035F91010002902DC4BF0020005E040F6A3
:10506000FF76B14203DB4BF00100834610E0B4F859
:105070000A72B4F8BE6107EB060C8C4505DABF1B5B
:105080008F4202DD0EB14BF0040B401C0628DBDB27
:105090005846BDE8FC9F2DE9F05F74490A6892F814
:1050A000300105067348037803F00F0407D492F823
:1050B0003E1121F00F0121430170BDE8F09F002552
:1050C000DFF89CA1834604702E4601278946022002
:1050D000FFF7D2FE6649DAF80C00FEF72EFAD9F88F
:1050E0000020634B002092F8E81100BF07FA00FC93
:1050F00011EA0C0F05D033F910C0B2F80882C4458C
:10510000DBDB401C0628F1DB0F2D08D26D1CEDB255
:1051100044EA0510761C8BF80000102ED7DBBDE8A2
:10512000F05F0420FDF7B7BDF0B54D4900204D6894
:105130004E490A68537D117D5B1C01FB03F41CE0A2
:1051400035F91130002B02DC40F0200014E040F66D
:10515000FF76B34202DB40F010000DE0B2F834718C
:10516000B2F8BE6107EB060C9C4505DABF1B9F42F7
:1051700002DD0EB140F04000491C8C42E0DCF0BD85
:10518000024618215FF0010000FA01F3134201D139
:10519000491EF9D5491C8840104370472DE9FE4F40
:1051A000FEF7DEF90446FEF7E1F9304D07462868C0
:1051B00090F84507000603D52046FFF7E1FF0446B7
:1051C0004FEA540B4FF4F0612B480EF0E0FF2448F7
:1051D0004FF02709802118300EF0FBFF00200190CE
:1051E0000120FFF749FE1E48D0F804A01F480068C0
:1051F000057D0120002402906CE0012000FA04F1FA
:1052000011EA0B0F65D00026012000FA06F818EA13
:10521000070F54D01248183050F8240010EA080F35
:105220004CD131462046FEF7AAF900900F483AF9D2
:1052300015100068B0F83401814233DC0E4B33F9AD
:105240001520121AA1EB000000D55242002800DA06
:105250004042824218DC0098401EC0B202460DE077
:10526000C440100080CE01208CCE012038021000F6
:105270003A2E0120F6FF010058D601200090314659
:105280002046FEF792F901E023F8151089490098AD
:1052900021F81500884850F8241041EA080140F828
:1052A00024100BE000983146401CC2B22046FEF7A5
:1052B0007CF982483AF8151020F815106D1C761C00
:1052C000202EA1DB7C4850F82400B84201D00020F9
:1052D0000290641C4C4590DB029838B9FCF7AFFF94
:1052E0000198401C01904028FFF67AAF74484FF0B7
:1052F000010A00250068067D1DE0012202FA05F082
:1053000010EA0B0F16D000240120A04038420ED026
:105310006848214610F81600804602462846FEF7E7
:1053200044F9B8F13F0F01D34FF0000A761C641C1A
:10533000202CE9DB6D1C4D45DFDBBAF1000F02D1FB
:105340000320FDF7A8FCFCF77AFF0120FFF794FD8E
:10535000BDE8FE4FE8E62DE9F05F594A116891F883
:105360003001C4075748037803F0F00516D00570E4
:1053700000264B7D0C7DDFF840A15B1CB046AAF1F6
:10538000180A914604FB03F783460120FFF774FDDA
:105390002046DAF80420D9F800100EE091F83E110A
:1053A00001F00F012943017087E600BF32F9103088
:1053B000B1F832C16345F7DB401C8742F6DC0F2EA3
:1053C0000AD2761CF6B245EA060108F101088BF80C
:1053D0000010B8F1100FD8DBBDE8F05F0220FDF738
:1053E0005ABC70B501244FF404614FF4F8300EF04C
:1053F000F0FEFCF724FFFFF7AEFFFFF7CFFE304DC6
:1054000044EA0064286890F8E80128B1FFF743FEF9
:10541000FFF769FD44EA00442A482A68401D0178E4
:1054200092F8FB2701F0F00102F00F021143017026
:105430002548FEF745F92046BDE8704006F07DB9E5
:105440002DE9F047FEF736F88146FEF755F8074696
:1054500000264FF0010808FA06F0454610EA090F49
:105460000CD0002405FA04F0384204D00022214672
:105470003046FEF79AF8641C202CF3DB761C272EAE
:10548000E9DBBDE8F08710B5D124FFF7D9FFFCF7C1
:10549000D6FE0B48006890F8E80128B1FFF7FBFD45
:1054A000FFF721FD44EA00442046BDE8104006F025
:1054B00044B90000D8DD0120DC40100058D601209E
:1054C00038021000F6FF0100A02310002DE9F04F74
:1054D0000020FF4D04460246012140F6FF7BFD4BB4
:1054E000D5F814906E681B6801FA02F737421CD099
:1054F00039F914A0BAF1000F02DC40F0200013E0EB
:10550000DA4502DB40F010000EE0B3F836C1B3F824
:105510004171E6460CEB0708D04503DBAEEB070C08
:10552000D44501DD40F04000641C521C202ADBD32E
:105530000024AF69AE68224601FA02F535421AD05E
:1055400037F91450002D02DC40F0200012E05D45D8
:1055500002DB40F010000DE0B3F83A81B3F843915C
:1055600008EB090CAC4503DBA8EB090CAC4501DDED
:1055700040F04000641C521C202ADDD3BDE8F08FAF
:1055800010B501461822D448FEF7DFFB8021BDE8A4
:1055900010400120FAF772BF30B599B06846FEF7A7
:1055A00003FCCC48006890F80917890707D5B0F8C4
:1055B0005C17B0F86427ADF83010ADF8322090F8E1
:1055C0000A074FF00604C00709D0FEF7EAFD0128DC
:1055D00005D0BDF8020040F00200ADF80200002046
:1055E0008DF83A008DF83900B948ADF800404168AF
:1055F00049000A9180680B90BDF80200AFF27F016C
:1056000040F4A670B44D0191ADF802000324684641
:10561000FCF702F917AB002280210120FAF77EFF88
:1056200080210120FAF759FF2878002804D0FDF7DF
:105630000EFB641E002CEADC19B030BD2DE9F84FDA
:105640002121A6480EF0C5FDA448302121300EF0DE
:105650009EFDFCF7C2FEFCF760FE042003254FF020
:1056600000084FF001099A4CDFF868A2CDF800005D
:10567000FFF792FFE8072BD04FF0000B5F465E4626
:10568000616809FA06F008421AD040F6AC013046CB
:10569000FDF7A7FF616931F91720DAF80010B1F8BA
:1056A00045118A420BDA3F2809D200994FF0010BCD
:1056B0000844C1B240F6AC023046FDF7ADFF7F1C96
:1056C000761C202EDCD3BBF1000F01D125F00105A3
:1056D000A8072BD54FF0000B5F465E46A16809FA7C
:1056E00006F008421AD040F6CD013046FDF779FFAA
:1056F000A16931F91720DAF80010B1F847118A4290
:105700000BDA3F2809D200994FF0010B0844C1B2CF
:1057100040F6CD023046FDF77FFF7F1C761C202E21
:10572000DCD3BBF1000F01D125F0020545B1FCF738
:1057300054FEFCF7F2FD08F10108B8F1640F97DBA5
:1057400003254FF0000800BFFFF726FFE80729D028
:105750004FF0000B5F465E46616809FA06F00842AA
:1057600018D040F6AC013046FDF73BFF616931F9D6
:105770001720DAF80010B1F845118A4209DD40B16E
:10578000401EC1B24FF0010B40F6AC023046FDF7AF
:1057900043FF7F1C761C202EDED3BBF1000F01D10E
:1057A00025F00105A80729D54FF0000B5F465E469E
:1057B000A16809FA06F0084218D040F6CD0130463B
:1057C000FDF70FFFA16931F91720DAF80010B1F8E1
:1057D00047118A4209DD40B1401EC1B24FF0010BB2
:1057E00040F6CD023046FDF717FF7F1C761C202EB9
:1057F000DED3BBF1000F01D125F00205002D08D04A
:10580000FCF7EBFDFCF789FD08F10108B8F1640F26
:105810009ADBBDE8F88F2DE9F041314D00202121C0
:1058200028702E480EF0D5FC2C48302121300EF087
:10583000AEFCFCF772FDFCF7D0FD254E002700BF43
:10584000FFF7AAFED6E904320024204606E000BF96
:1058500032F91010A14200DD0C46401C9842F7DBE3
:105860000020F368B26905E032F91010A14200DDB2
:105870000C46401C9842F7DB002C09DC28780F28E6
:1058800003D8401C2870FCF7A8FD7F1C202FD7DB15
:1058900040F6FE70844206DD2878401E2870BDE880
:1058A000F041FCF79ABDBDE8F0812DE9F05F084EAC
:1058B00000240A4FD6F804306C3F254621460120CB
:1058C00000FA01F21A420ED07A5CA2420BD909E02A
:1058D000DC021000380210005C411000ACF801003E
:1058E000F5FF01001446491C2029E9D3FD4FD6F8E5
:1058F0000820002100FA01F3134203D07B5CAB4285
:1059000000D91D46491C2029F4D3DFF8DCA3F74F4A
:105910000AF1010B8AF800408BF80050386890F8C3
:105920000A07C10705D0800703D5FEF71BFC012835
:1059300011D0ED48EC49801E491E007809782044BA
:105940002944FF2288427AD2081A2044FF2877D8B7
:105950008AF8000099E0E548006800F25970027981
:10596000C17802F03F0201EB02268279417902F010
:105970003F0201EB0228027BC17A02F03F0201EBF9
:105980000227827B417B007802F03F0201EB022973
:1059900040060FD5D448801E017806EB080004EBC2
:1059A00040000844D049491E0A7807EB090105EB7D
:1059B000410110E006EB0800400000EB4401CA483A
:1059C000801E0078084407EB0901490001EB4502FD
:1059D000C549491E09781144FDF73DFCC3490968D2
:1059E00001F20B72B1F80B37834201D2A1F80B0719
:1059F00091F80A07400720D591F85907400620D5AD
:105A000070004342C8F1000091F80B1703EB40000F
:105A10000144B548801E0078091A8AF80010780001
:105A20004142C9F1000001EB400011780144AE4849
:105A3000401E0078081A8BF80000BDE8F09F27E0B0
:105A40001DE0A948B1F80B17801E037806EB08008B
:105A50001844404201EB4000C0F34701A2488AF8D5
:105A60000010401E017807EB0900084411884042ED
:105A700001EB4000C0F347018BF80010DDE78AF826
:105A80000020306840F0800030608BF80050D4E790
:105A900081420FD2401A2844FF2802D88BF8000018
:105AA00005E08BF80020306840F0800030608AF814
:105AB0000040C2E78AF80040E7E72DE9F041894C51
:105AC00000202C3C8A4B894A012105465F6801FA77
:105AD00000F63E4209D01768265C97F84A71BE422C
:105AE00002D9F61B265400E02554401C2028EDD393
:105AF0007C4C00209F6801FA00F63E4209D01768EE
:105B0000265C97F84A71BE4202D9F61B265400E083
:105B10002554401C2028EDD3FFF7C7FEBDE8F04117
:105B2000FCF736BC2DE9F84F6E486E4D2C38064612
:105B30002C210EF04EFB402128460EF04AFBFFF7C9
:105B4000B4FEFCF74AFCFCF723FC042003240027E6
:105B50004FF00109DFF898A1DFF890B1CDF800000F
:105B6000FFF71AFDE00728D04FF0000C62466046B0
:105B70004FEA0A0309FA00F1D3F8048011EA080F8A
:105B800013D0596931F91280DBF80010B1F83811DF
:105B9000884509DA315CDDF800804FF0010C4144A2
:105BA000FF2900DDFF213154521C401C2028E1D385
:105BB000BCF1000F01D124F00104A00727D54FF05C
:105BC000000C62466046534609FA00F1D3F808809B
:105BD00011EA080F13D0996931F91280DBF800102F
:105BE000B1F83C11884509DA295CDDF800804FF0F6
:105BF000010C4144FF2900DDFF212954521C401CA7
:105C00002028E1D3BCF1000F01D124F0020444B1FB
:105C1000FFF74BFEFCF7E1FBFCF7BAFB7F1C642FA0
:105C20009EDB03245FF00007FFF7B6FCE00724D0FB
:105C30004FF0000E714670465246DC46D2F80480A2
:105C400009FA00F313EA080F0FD05369DCF800805B
:105C500033F91130B8F83881434505DD335C1BB1A9
:105C60005B1E4FF0010E3354491C401C2028E5D325
:105C7000BEF1000F01D124F00104A00725D54FF09B
:105C8000000E7146704652464FEA0B0CD2F808805F
:105C900009FA00F313EA080F0FD09369DCF80080CB
:105CA00033F91130B8F83C81434505DD2B5C1BB15D
:105CB0005B1E4FF0010E2B54491C401C2028E5D3DD
:105CC000BEF1000F01D124F00204002C08D0FFF730
:105CD000ECFDFCF782FBFCF75BFB7F1C642FA3DB76
:105CE00097E500006CF80100F9FF01003802100090
:105CF000DC021000B34930B409680020034691F873
:105D0000302192070BD5B04A91F84941012015780E
:105D1000A54203D9A5EB0404147000E0137091F8B8
:105D2000302152070CD5A84A91F84911521C40F075
:105D3000020014788C4202D9611A117000E01370CD
:105D4000002801D030BCB0E530BC70472DE9F047E9
:105D50009C4900249C4D0868274690F83021920702
:105D600002D501242F7002E090F83F212A70894665
:105D700090F83011954E490703D544F0020437706E
:105D800002E090F840013070002C75D02C21904832
:105D90000EF01FFA8E4840212C300EF01AFA8A4875
:105DA0002121801E07708A486C300EF012FA884854
:105DB00030218D300EF0EBF98449FF20891C0870EA
:105DC000491E0870FCF7E4FAFCF7A7FAFCF705FB9C
:105DD000DFF800824FF0100A002700BFFFF7DCFB5E
:105DE000E00723D0D8E9043C0020014606E000BFCC
:105DF0003CF91120824200DD1046491C9942F7DB34
:105E0000D9F80010B1F83621824202DA2878401E13
:105E100008E0B1F84B11814206DB28785044FF2896
:105E200000DDFF20287001E024F00104A00726D542
:105E300000200146D8F80CC0D8F8183006E000BFA2
:105E400033F91120824200DD1046491C6145F7DB21
:105E5000D9F80010B1F83A21824202DA3078401EB7
:105E600008E0B1F84B11814207DB30785044FF283D
:105E700000DDFF20307002E00AE024F00204002C74
:105E800006D0FFF712FDFCF7A8FA7F1C202FA5DB38
:105E9000BDE8F08770B54F4C00202060FDF7AFFAE9
:105EA0006060FDF7D7FAA060606804214008606078
:105EB000201DFDF7B9F92061042104F10800FDF768
:105EC000B3F9E060FFF768FB434E2169B06800EB6F
:105ED00041026261E26802EB410100EB4100A06116
:105EE000FFF734FFFFF706FF364D286890F83001C2
:105EF000800603D5FFF716FEFFF7DFFD286890F850
:105F00003001000701D5FFF786FC286890F83001C2
:105F1000C00601D5FFF792FBFCF75FFAFFF73CFBE9
:105F2000B068216900EB41026261E26802EB410165
:105F300000EB4100A061FFF7C9FA21680143234843
:105F400021602A68C01C037892F8FB2763F30302E0
:105F50000270BDE8704041F0020005F0EEBB2DE993
:105F6000F041184C206890F80907800729D5FEF702
:105F700018F9012825D12068A04600F25C70048839
:105F80008178C07800F03F0001EB00250F48401CED
:105F90000778801E0678FCF7C5F8D8F80010B1F82D
:105FA000AC3791F80827B1F80B172344414391FB14
:105FB000F2F02B4433443B440849C01A2044C880C3
:105FC000088170E438021000F7FF0100F8FF0100BB
:105FD00040F80100DC0210005C4110005825100060
:105FE00010B501461822A848FDF7AFFE8021BDE894
:105FF00010400120FAF742BAF0B5A44D06460C460F
:1060000028684FF0FF3199B090F8B10000F00F0010
:10601000401C8140CF436846FDF7C6FE0120ADF825
:106020000000ADF80240286810F8F91F8DF8131031
:1060300044F00501ADF802100297ADF81660AFF21A
:106040005F01019141788DF8141080788E4D8DF8A4
:106050001A0003246846FBF7DFFB17AB0022802100
:106060000120FAF75BFA80210120FAF736FA287846
:10607000002804D0FCF7EBFD641E002CEADC19B00C
:10608000F0BD2DE9FC5FDFF804A24FF000094E4699
:10609000DAF8000000F57070017890F801808078DF
:1060A00001904FF00850D0F88C0100B90126002073
:1060B0008CB2009038E000BFDAF8000090F8CD0311
:1060C00000EB80004700002524E020460099FFF700
:1060D00093FF6D48406809F08AFF0146DAF8000036
:1060E00090F8F82012F00F0000D1012012094A4365
:1060F000B2FBF0F01FFA80FB012E09D1B9F5707FD9
:1061000006D2634A09F1010022F819B01FFA80F99A
:106110006D1CADB2BD42D8D95A462146302005F09B
:1061200057FB0198204484B24445C5DDBDE8FC9F7F
:106130002DE9FF5F4FF6FF764FF0000A93460F46BA
:10614000804634465546DFF844911BE038F8150088
:106150005146FFF751FF4C48406809F048FFD9F815
:10616000001091F8F82012F00F0100D1012112095E
:106170004243B2FBF1F080B2A04202D238F815607F
:1061800004466D1CBD42E1DBABF80060039804805F
:10619000BDE8FF9F2DE9F0413C4E0546884630683A
:1061A00088B090F8D12002F00F01C2F30214491C0C
:1061B000641C0A2900DD0A21022C00DD0224D230F1
:1061C00006AB05AAFFF7B4FF326892F8D00080074B
:1061D0001BD5BDF814600121E632ADF80060002047
:1061E0004FF4803C6F4607E013563344634502D2B8
:1061F00027F81130491C401CA042F5DB002904DDC2
:1062000006AB05AA3846FFF793FFBDF814002880B7
:10621000BDF81810A8F8001008B0BDE8F0817CB5F2
:106220000020FAF71CFA1B4C01A968466588FFF7A5
:10623000B1FF164E3068B0F8E810BDF80400814296
:1062400001D9218000E02080BDF80000608000209E
:10625000FAF720FABDF80000854207D0306890F8C0
:10626000D000400702D56088FEF72FFC0A490120C4
:1062700008700A4908700A490870BDF800202946CC
:10628000092005F080FA7CBD74411000380210002E
:10629000D8DD0120582510004E0210009A0210008F
:1062A000A60210002DE9F04706460078FE4D00B129
:1062B000287018223146FD48FDF747FDFC4C206848
:1062C00090F8C517CA07F94901D00A6900E08A6841
:1062D000417D6868F74B4143002019E097F8F0C210
:1062E0005FEACC780DD05FEA8C7C0AD597F8F17222
:1062F00032F810C07F1C0CFB07FC0F1823F817C0E6
:1063000005E001EB000C32F8107023F81C70401C03
:10631000276897F815C08445E0DC686800F1010043
:1063200068607F7D07FB00FC4FF000001EE000BFAF
:1063300091F8F082C1465FEAC8780FD05FEA8978A9
:106340000CD507EB000891F8F11232F81880491CBF
:1063500008FB01F80CEB000123F8118039180CEB55
:10636000000832F8111023F81810401C216891F829
:1063700015808045DCDC6B684FF0010803F10103F8
:106380006B6091F8B10008EB101291F8F002C707AA
:1063900005D0870703D491F8F1723A44D2B2934200
:1063A00027DA91F80A07C00719D0FDF7DBFE0128AC
:1063B00015D12168A88891F8BA1380B201F00F01B5
:1063C000B0FBF1F201FB1201B8485C3800294188AA
:1063D00002D041F0020101E021F002014180307859
:1063E00008B1FCF734FCBDE8F047B0485C38FBF777
:1063F00013BAC2072FD080072DD4B1F8F2A200251E
:1064000022E0417DAB48694300EB41018946002011
:1064100015E000BF93F8F132012231F910605B1CE6
:1064200006E000BF02FB070C521C31F91CC0664499
:106430009342F7DCA6EB0A0229F81020401C2368DF
:106440005F7D8742E6DC6D1C206890F8B11008EB98
:106450001111A942D5DCBDE8F04780210120FAF7EF
:106460000DB82DE9FF4FDFF844B24FF6FF74002658
:1064700081B08A46A046ABF15C0BB1466CE08B481C
:106480005C38FDF791FC8A4D286890F80A07C00730
:1064900008D0FDF786FE28B9BBF8021041F00201D2
:1064A000ABF80210296891F8C507C00701D0102287
:1064B00000E00222ABF80020019830F81620ABF87B
:1064C0003020BBF8022042F00402ABF80220AFF209
:1064D0002B2201F2C931CBF804200A788BF838203E
:1064E000CA788BF83A204A788BF83E206E4D89782E
:1064F0008BF83F100327C5F8049000BF6B4885F860
:1065000000905C38FBF788F96B460022802101205F
:10651000FAF704F880210120F9F7DFFF287820B18D
:10652000FCF795FB7F1E002FE8DC624802F0F5FEC9
:106530005F49096891F8C82312F00F0100D10121C9
:106540001209424390B2B0FBF1F0A04203D201998C
:10655000044631F81680761C564590DB0398A0F867
:1065600000800498048005B0BDE8F08F2DE9F0416B
:106570004F4D0646884628688CB000F2823C00F2F7
:10658000963790F8810300F00F01C0F30214491C04
:10659000641C0A2900DD0A21022C00DD02240AAB5A
:1065A00009AA6046FFF75DFF286890F8800380071E
:1065B0001AD5BDF824300121ADF8003000204FF489
:1065C000803C6D4607E03A561A44624502D225F8EF
:1065D0001120491C401CA042F5DB012904DD0AAB57
:1065E00009AA2846FFF73DFFBDF824003080BDF81A
:1065F0002810A8F800100CB0BDE8F0817CB5002090
:10660000FAF72DF82C4C01A96846E588FFF7AEFF94
:1066100027480168BDF80400B1F8AC23824201D9D3
:10662000A28000E0A080BDF80000E08020818542CB
:1066300005D091F88013490701D5FEF798FA1F4954
:10664000012008701E4908701E49002008601E497C
:106650000870FAF71FF8BDF8002029460A2005F057
:1066600092F87CBD2DE9F843DFF844800F4CD8F850
:1066700000005C3C00F2C3300588468807794FE093
:106680000A485C38FDF790FBD8F8000090F80A073C
:10669000C00706D0FDF785FD18B9608840F00200FC
:1066A0006080D8F8000011E0F8021000E841100006
:1066B00038021000C0A70120582510004E0210001B
:1066C0009A021000200410001304100090F8C5076F
:1066D000C00701D0102000E00220208025866088BD
:1066E00040F004006080AFF2434060600E4800213B
:1066F00041600E48FBF790F86B4600228021012094
:10670000F9F70CFF80210120F9F7E7FE084802F0B5
:1067100004FE02462946312005F05AF8E81985B2F0
:10672000B542ADDDBDE8F883F80210008C411000E1
:10673000C0A701202DE9F041174604460D4600266A
:1067400009E0E00703D03146384604F054FF761CD8
:106750006D084FEA340454EA0500F2D1BDE8F08137
:1067600030B5034600204FF0FF32012505FA00F452
:106770000C4202D0521C9A4203D0401C2028F5D370
:10678000002030BDF0B50E46F94C07460125D4E98E
:10679000151005FA06F20F2F65D2DFE807F0644303
:1067A0004B08106464192129323A54585C00304671
:1067B000FFF7D6FF8540A06A0543A56253E0014676
:1067C0003046FFF7CDFF8540206C054325644AE045
:1067D0003046FFF7C5FF8540E06A0543E56242E0C9
:1067E0003046FFF7BDFF8540206B054325633AE047
:1067F00001463046FFF7B4FF8540A06C0543A56411
:1068000031E03046FFF7ACFF8540606B05436563C0
:1068100029E001463046FFF7A3FF8540E06C0543C1
:10682000E56420E03046FFF79BFF8540606A054342
:10683000656218E001463046FFF792FF8540E06B45
:106840000543E5630FE0A06B0243A2630BE0206DFC
:106850000243226507E001463046FFF781FF85408D
:10686000606C054365642068401C2060F0BD10B575
:1068700001461822BF48FDF768FA8021BDE81040A4
:106880000120F9F7FBBD10B5FCF7ACFD0446FCF7A1
:1068900033FE204310BD10B5FCF796FD4408FCF70D
:1068A00009FE44EA5000400010BD2DE9F04789463A
:1068B00005464FF0FF34FFF7E6FFAD4F02460020DC
:1068C0007B6801464FF0010C0CFA01F6164200D02D
:1068D000641CAC4206D1B9F1010F09D022EA0600CE
:1068E0000B462021491C2029EED37B60BDE8F087B0
:1068F0003046F5E72DE9F047894605464FF0FF346D
:10690000FFF7C9FF9A4F02460020D7F8043001462E
:106910004FF0010C0CFA01F6164200D0641CAC4298
:1069200006D1B9F1010F08D022EA06000B461E215C
:10693000491C1E29EED97B60D8E73046F6E72DE9E1
:10694000F34F9DB004466846FDF72EFA17A8FBF7F3
:10695000E9FFFFF7A0FF864E40087065FFF793FF41
:10696000854D4FF00C084FF01F094FF0400A4FF0D3
:10697000950BB065012C0DD00627022C23D0032CDB
:1069800027D0042C2AD0052C31D0062C4FD0082C2F
:1069900065D073E0FCF7E4FD0290FCF7E7FD03909F
:1069A0000120ADF800008DF81AB03C20ADF81800B9
:1069B0000298ADF816808DF814908DF813A0400859
:1069C0007065039859E0FFF766FF0A90FFF75BFFD9
:1069D00014E0FFF758FF01210B9003E0FFF753FF8E
:1069E00000210B901E98FFF785FF0A9007E0FFF744
:1069F00052FF0A9001211E98FFF757FF0B90ADF848
:106A00000070286800F55A7081788DF83810C178C8
:106A10008DF83E1001788DF83F1041788DF84010C8
:106A20008188ADF830100089ADF8320026E0FFF71C
:106A300032FF0A90FFF727FF0B90ADF8007028682F
:106A400000F2613081788DF83810C1788DF83E10F1
:106A500001788DF83F1040788DF840000EE0082056
:106A6000ADF80000ADF816808DF814908DF813A0E5
:106A70008DF81AB0089870650998B0650020BDF8C7
:106A800002108DF83A008DF8390021F030018DF8B0
:106A9000100041F04A018DF81200ADF80210AFF27B
:106AA000312103260191012C13D0092C24D00A2C6A
:106AB00022D000BF8DF866008DF868008DF8670061
:106AC000022C10D0032C0ED0042C0CD0052C0AD094
:106AD00012E0296891F84D178DF8600041F003012C
:106AE0008DF85C10E6E72868B0F86E13ADF8621018
:106AF000B0F87203ADF8640017A8FBF734FF1D4C23
:106B00006846FAF789FE1BAB002280210120F9F7C5
:106B100005FD80210120F9F7E0FC2078002804D051
:106B2000FCF795F8761E002EEADC1FB0BDE8F08F6A
:106B30002DE9FC5F00210120FFF701FF0D484768A8
:106B4000FCF70EFD0190FCF711FD0090042101A857
:106B5000FCF76AFB064604216846FCF765FB8446A1
:106B600000200546DFF808B0DFF80CA0009059E0DF
:106B70000003100000421000380210004FF000081F
:106B8000C1465C462846DBF85810FFF7E9FD014690
:106B900001208840A16C084243D1012432E000BFAB
:106BA00004FB0C51DAF8000037F9112090F8670364
:106BB000B2EB001F25DA08F10108B9F1000F00D18E
:106BC000A146721E94421CD1B8F1010F19D1ACF14B
:106BD0000102954204D1611E0120FFF7D3FD0EE0B2
:106BE00007EB4101B1F90220B2EB001F05DB35B123
:106BF00031F9021CB1EB001F01DA002000E0022095
:106C00008046641CB442CBDBA6EB0901414508D8A1
:106C100029460220FFF7B6FD01200099A84008434D
:106C200000906D1C6545A9DB01253AE04FF0000896
:106C300044462CE0DBF84030DBF8482000201A43C3
:106C400011D0D9462046DBF85810FFF789FD0146E0
:106C500001208840D9F84810084203D1D9F84010E3
:106C6000084000D0012005FB0C4137F91120DAF86B
:106C7000001091F86713B2EB011F07DA30B9012059
:106C80000099A040084201D108F10108641C644544
:106C9000D0DBB8F1000F03D0691E0120FFF772FDB1
:106CA0006D1CB542C2DBBDE8FC9F2DE9F041FF4CF5
:106CB00000200546FE4FDFF8FC83A0611EE0294658
:106CC0000520FFF73CFE21690120BE6800EB410C66
:106CD00036F91C10D8F8000090F87703B1EB001FCC
:106CE00003D929460E20FFF74DFD36F91C00A16996
:106CF000884202DD36F91C00A0616D1C6069854286
:106D0000DDD32BE52DE9F047002637463146082034
:106D1000FFF715FEE648E74D0021D0F80CC02868C3
:106D2000012400F5F57990F8E82100BF04FA01F399
:106D30001A4208D03CF9113090F87D83B3EB081F5C
:106D400000DA761C7F1C491C0629EFDBBE420BD102
:106D500090F8E611C90790F8E91101D00D2000E084
:106D60000C20BDE8F0470DE5002E1CD00026286859
:106D700004FA06F290F8E811114211D03CF916100D
:106D800090F87D23B1EB021F0ADA90F8E60119F8BA
:106D90000610C00701D00C2000E00D20FFF7F2FC28
:106DA000761C062EE3DBA1E52DE9F041002106204B
:106DB000FFF7C5FDBE480025BE4EBC4C87680EE0FF
:106DC000E0683168284437F9100091F86513B0EB9A
:106DD000011F03DD29460A20FFF7D4FC6D1C206942
:106DE0008542EDDB00250EE0A0683168284437F9C4
:106DF000100091F86613B0EB011F03DD29460B204C
:106E0000FFF7C0FC6D1C60698542EDDBA6E42DE94F
:106E1000F041A64C00200646206237E031460420AF
:106E2000FFF78DFDA248002587682BE0FFF72BFDBB
:106E300001462846FFF794FC014601208840216C5A
:106E400008421ED19B49A0682844096807EB40000E
:106E500030F9040C91F87813B0EB011F07D93146D3
:106E60000820FFF78FFC29460920FFF78BFCA0685C
:106E7000216A284407EB400030F9040C884200DD09
:106E800020626D1C60698542D0D3761C20698642E1
:106E9000C4D363E42DE9F041844C00200546844FBF
:106EA000DFF81082E0611AE029460320FFF747FD72
:106EB000BE68B6F90210D8F8000090F87603B1EB7E
:106EC000001F03D929460720FFF75CFCB6F9020032
:106ED000E169884202DDB6F90200E0616D1C2069BB
:106EE0008542E1D33AE42DE9F04100210220FFF789
:106EF00026FD6F486F4D6D4C8768286890F86003D9
:106F0000000713D500260EE0E0682968304437F901
:106F1000100091F87413B0EB011F03D93146032020
:106F2000FFF730FC761C20698642EDDB286890F87C
:106F30006003C00613D500260EE0A068296830441F
:106F400037F9100091F87513B0EB011F03D93146E2
:106F50000420FFF717FC761C60698642EDDBD0E663
:106F60002DE9FC410020F9F77AFB4FF4F83040F6A8
:106F7000FD010DF00CF9FBF730FAFBF709FAFBF70E
:106F80005EF94A4C00202060FFF785FC0090FFF777
:106F90007AFC019004216846FCF746F90546042175
:106FA00001A8FCF741F9014600EB4500C4E90205E0
:106FB000C4E904513F4D286890F86003010701D4EB
:106FC000C00601D5FFF78FFF286890F860038006A0
:106FD00001D5FFF75FFF286890F86003000601D530
:106FE000FFF715FF286890F86003C00701D0FFF78E
:106FF000DBFE286890F86013490704D590F8E80193
:1070000008B1FFF77FFE286890F86003400601D5BD
:10701000FFF74BFE286890F86003800701D5FFF763
:1070200087FD2068002862D0D4E90A359D43E562D7
:10703000606AD4E90F179843A8436062666CB9434D
:10704000B143E163A26B216D9A43AA43256BB94317
:10705000AA43A263A26CB1439143AB43A3622165EF
:1070600001220021FFF766FB02220021E06BFFF7FF
:1070700061FB03220021A06AFFF75CFB04220021D0
:10708000206CFFF757FB07220021E06AFFF752FB55
:1070900008220021206BFFF74DFB09220021A06C84
:1070A000FFF748FB0A220021606B05E00003100097
:1070B0000042100038021000FFF73CFB0B220021B9
:1070C000E06CFFF737FB0C220021A06BFFF732FBCF
:1070D0000D220021206DFFF72DFB0E220021606C98
:1070E000FFF728FB0020F9F7D5FABDE8FC81002165
:1070F000084604F080FAF5E770B5FA4900220968FD
:107100004C7D0B7D651C5D43194603E030F9116031
:10711000491C3244A942F9DB5C4392FBF4F000B213
:1071200070BDF0B5EF490B68002193F86D2400B9EC
:107130000022002093F8E841EB4E012505FA00F704
:107140003C4206D036F91070B3F86BC4674500DDD9
:10715000491C401C0628F1DB0023E448002908DD17
:107160008168914202D2491C816003E08360012062
:10717000F0BD83600020F0BD2DE9FC5FD94B0146D6
:107180004FF0000B18685D465E4690F86A9490F8E0
:1071900069A4CDF800B0447D90F814C0B0F84B74E9
:1071A000B0F849240192D24A04FB0CF402EB4C0ED5
:1071B0005A4609B9D946CA46002126E03EF911309F
:1071C000B0F84684434503DC4FF00108CDF8008059
:1071D000BB420CDD91FBFCF80CFB18186D1CB8F1E0
:1071E000000F09D10BF101081FFA88FB04E0DDF85C
:1071F0000480434500DA761CA3F57068B8F1FF08F7
:1072000000D00BB9521C92B2491CA142D6DB90F8B7
:107210006434B449B54C4FF0000893420AD2627806
:10722000521CD2B262704A4506D984F8018084F8B3
:1072300000803EE084F8018090F8F1078946052837
:1072400010D1FCF741FDAB4805210180AA4909880E
:1072500041808580C680078101994181E1688181F3
:10726000491CE160B54244DD2078504503D200F16D
:10727000010020703FE084F8008084F80180D9F894
:1072800000004C464EF6EE6690F84804400613D5D2
:1072900032460021A22004F060F9009801280BD1A9
:1072A0005846AB4508D101464FF6FF72A22004F0C4
:1072B00054F90120BDE8FC9F206890F8480440077D
:1072C00008D532460021A32004F047F9FCF7FCFC66
:1072D0000128EFD0206890F8480480060BD532468C
:1072E0000021A42004F039F93846BDE8FC5FFCF722
:1072F00053BC84F800800020DCE770B50025012035
:10730000FFF73AFF04467748006890F8E81139B172
:1073100090F84804C00603D50120FFF702FF054698
:107320007648724E0078012802D0012C0CD008E07B
:10733000012C06D1EE2100244EF6EE62084604F040
:107340000CF9012D10D014E06D4840F605020168DB
:10735000114301600120B0706A48016841F4006186
:1073600001604FF4806101E04FF400510120F9F712
:1073700085F86548FFF7C0FEB080204670BD2DE956
:10738000F0415A4E0024B078012829D1DFF8548109
:107390005E4F00250020FFF7EFFEB0B10124FEF79D
:1073A00020F878885849FDF799F8D8F8000090F847
:1073B000E80118B178885649FDF7DBF86D1C032DFC
:1073C000E8DB0020FBF767FC08E0C12040EA04206E
:1073D00004F0B3F9012C01D10CF008FD0020B070CD
:1073E0004948FFF789FEB080BDE8F08170B5474E8F
:1073F000002447497088FDF7BCF800250020FFF7FE
:1074000090FE70B10124FEF73EF870884049FDF708
:10741000B0F86D1C032DF1DBBDE870400020FBF7D8
:107420003ABCC32040EA042004F087F9012C03D1C0
:10743000BDE870400CF0DABC70BDF0B52949002001
:10744000034609680246334F4D7D40F6FF7615E04E
:1074500037F91240B44200D00CB95B1C9BB2B1F8B2
:1074600051C4644503DBB1F84DC4644505DDB1F892
:107470004DC4644501DD01202A46521C9542E7D8DF
:107480000022254F0D7D15E037F91240B44200D09F
:107490000CB95B1C9BB2B1F853C4644503DBB1F873
:1074A0004FC4644505DDB1F84FC4644501DD0120DA
:1074B0002A46521C9542E7D891F85D14994201D2B0
:1074C0000120F0BD0128FCD00020F0BD2DE9F041E5
:1074D00080461248002637460088800584D500255E
:1074E00023E00000380210003A2E01205C03100057
:1074F000200B1000D8DD0120800210009602100041
:1075000040021000440210005600012058251000CF
:10751000D6290120C8A6012040A70120480210005A
:10752000012C02D14046FDF7C5F9FFF786FF04465E
:10753000012806D1FEF7AEFC01266D1C032DEFDB02
:1075400017B1012E0ED00FE00120FBF7A4FB78212C
:1075500008480CF01CFEBDE8F04106488021783058
:107560000CF015BE0CF042FCBDE8F041C22004F066
:10757000E4B839E740AF012008B5704D704F714E47
:107580000024287880B10128FBD16B46002247F205
:107590007D71F8F7C3FF0098C1071ED0012108468E
:1075A000F8F79BFF2C70ECE701210020FBF7DFFFD1
:1075B0006B46002202210120F8F7B0FF01210846A6
:1075C000FBF7D5FF00988007DBD547F27F710120DC
:1075D000F8F783FF01202870D3E701070CD50821B5
:1075E0000120F8F77AFF0020F9F739F80620F9F7BB
:1075F00036F8FDF7F6FE0DE041070FD50421012016
:10760000F8F76BFF0020F9F72AF80620F9F727F8BA
:10761000FEF740FC0620F9F73DF81BE0C1040DD54C
:107620004FF480510120F8F758FF0020F9F717F8C0
:107630000620F9F714F8FDF726FFEBE781040DD5D6
:107640004FF400510120F8F748FF0020F9F707F840
:10765000FFF7CCFE0020F9F71DF892E7C10606D52A
:1076600010210120F8F739FFFEF7D9FD89E78106DF
:1076700006D520210120F8F730FFFEF7BFFF80E795
:10768000C10507D54FF480710120F8F726FFFEF7FA
:10769000F8FC76E7810507D54FF400710120F8F773
:1076A0001CFFFEF7DFFF6CE7410606D540210120F5
:1076B000F8F713FFFFF754FC63E740058CD54FF450
:1076C00080610120F8F709FF1F48046030888005B9
:1076D0000AD50020F8F7C3FFFAF724FD6880FEF70B
:1076E0003EFC0020F8F7D6FF1848D0F80080046070
:1076F0004046FDF71CF95FEA887001D500F094FB65
:10770000A8F54071B73904D1052004F016F83C60A3
:1077100011E05FEAC87006D0386840F0150004F048
:107720000CF83C602DE718F0420F96D0306840F01E
:10773000060004F002F8346023E700006C03100038
:1077400044021000480210002C04100040021000F7
:1077500070B5FF4800240470FE480470FE480470B1
:10776000FE480470FE4804700120FE49FF4D087079
:10777000FD4908702C616C61AC802C70FF20EC61BD
:10778000E880FB480068B0F85211A981B0F85401B4
:1077900068813C21F7480CF0FAFC4021F6480CF0D7
:1077A000F6FC3C21F5480CF0F2FCF44840213C305A
:1077B0000CF0EDFCAC70EC70BDE8704001F016B858
:1077C00030B50024234605E030F913508D4200DD2A
:1077D000641C5B1C9342F7DBE548006890F861018C
:1077E000A04201D2012030BD002030BDF0B50646D8
:1077F00000200446059F0CE036F91450D3F800C071
:10780000AC4501DA1D603C7010B9954200DD0120E5
:10781000641C8C42F0DBF0BD30B585B0D44C01A8BF
:1078200000902068002503ABB0F95221017DD448B7
:10783000FFF7DCFF50B123689DF8040093F88A211C
:1078400002F00F01814219D81B7D14E002A80090BC
:10785000206804ABB0F95421417DCA48FFF7C6FF48
:1078600068B123689DF8080093F88A2102F00F019F
:10787000814203D85B7D591A814200DA150905B0AF
:10788000284630BDFEB5BA4801AB5022006890F8DA
:107890008911B0F9877101F00F060C09B0F9855113
:1078A00002A90091017DB648FFF7A0FF0198B842F8
:1078B00001DD3046FEBDA84201DA2046FEBD401B78
:1078C000311B4843791B90FBF1F02044FEBD30B5DD
:1078D000AD48A74D0478286890F85101800703D57A
:1078E000FFF7D0FFA4EB0004286890F8510140078F
:1078F00002D5FFF791FF0444002C01DA002402E0D6
:107900000F2C00DD0F24204630BD30B564290DD08A
:107910000023642408E000BF30F913504D4395FB69
:10792000F4F520F813505B1C9342F5DB30BD70B5C5
:10793000002364250AE0CC5C642C06D030F9136087
:10794000664396FBF5F420F813405B1C9342F2DB90
:1079500070BD2DE9F0470025894629462F462E4661
:10796000A8462B460DE000BF30F913C039F913408B
:107970000CFB0C660CFB047704FB04886544214473
:107980005B1C9342F0DB87FB020485FB013CC71ABA
:1079900086FB020385FB056564EB0C04B0EB060C6B
:1079A00063EB050688FB020381FB0121851A63EB6B
:1079B00001086421A7FB010304FB0131002207FB3E
:1079C0000211334662460CF071FB0246A2FB07032C
:1079D00001FB073102FB04112A4643460CF066FB0B
:1079E000002C00DA4042BDE8F08730B547F6F87366
:1079F000002405E030F91450AB4200DD2B46641C36
:107A00009442F7DB002405E030F81450ED1A21F819
:107A10001450641C9442F7DB30BD70B5034600205F
:107A2000024601EBD17408E003EB420633F9125031
:107A3000B6F90260AD1B2844521CB2EB640FF3DBB5
:107A4000621008E003EB420533F9124035F9025C9D
:107A5000641B2044521C8A42F4DB70BDF0B587B031
:107A60000746434C03A8009020689C468E46164665
:107A7000017D002504AB0FFA8CF27046FFF7B6FECD
:107A800001283BD102A80090206805AB32B2417DAD
:107A90003846FFF7ABFE012830D1DDE90410814202
:107AA0004FF0640203DD504390FBF1F102E05143DB
:107AB00091FBF0F1206890F892218A421EDD9DF83A
:107AC000081019B990F89121D20716D0427D521EA4
:107AD0008A4203D190F8911189070ED59DF80C10B8
:107AE00019B990F89121520707D5027D521E8A429A
:107AF00004D190F89101000700D4012507B0284671
:107B0000F0BD2DE9F04185B0804601200190029042
:107B1000174C04A8009020681E468C461746017D2D
:107B2000002501AB32B26046FFF760FE064603A8AF
:107B30000090206802AB3AB2417D4046FFF756FE06
:107B4000012E01D0012831D1DDE9011081421DE073
:107B50005D02100098021000990210005E021000F1
:107B60005F0210009A0210009C02100070031000C7
:107B70003802100054A5012090A50120A430012056
:107B80001C350120E03401209D0210004FF06402FA
:107B900003DD504390FBF1F002E0514391FBF0F024
:107BA000216891F89211814200DD012505B0284637
:107BB000BDE8F081F0B40446FE480B468021006821
:107BC0000D4690F8680110B10146C0F58075FA487D
:107BD0000089032805D22146F0BC52001846FCF764
:107BE000B4B800200FE000BF33F9106034F9107012
:107BF0004E4307FB0566F71706EB176646F30F269D
:107C000023F81060401C9042EEDBF0BC7047F0B5EA
:107C10000024E84D0FE030F8146031F81470012BA7
:107C20000CD0F61B2F6897F86D717F4206EBC706E4
:107C300020F81460641C9442EDDBF0BD3E442F68D4
:107C400097F86D71F2E72DE9FC47DB4D8046002681
:107C5000288990B93C22D949D948FCF776F84022C6
:107C6000D849D948FCF771F83C21D8480CF08FFA74
:107C7000D64840213C300CF08AFA28890127CD4CA7
:107C8000032802D2D248077013E012D92168B1F854
:107C90006B2182420DD94B7DC94ACC49C74801F0BE
:107CA000F2FF2068C949C84A037D3C31C54801F04C
:107CB000EAFF206890F85011427D090710D590F82E
:107CC0008D11CDE9001290F88B31C24ABB49404674
:107CD000FCF778F92068BD49427DB839BD4802E01B
:107CE000BA494046B839FFF765FF2068B34A90F8B3
:107CF0005011437D0907B84901D5B64800E0404618
:107D000001F0C1FF2068AD4AB349437DAF48B838A0
:107D100001F0B9FF206890F85011C90610D5427DD6
:107D200090F89612AC48FFF7F0FD216891F85001E9
:107D3000C00605D54A7D01F51C71A748FFF7F7FD80
:107D40002268B2F85411B2F86901B2F87F410144D7
:107D50000BB229898C4201D2184403B20020044698
:107D6000DFF878C2DFF87092527D1CE039F910809C
:107D7000984515DD761C022E13D96878401C40B258
:107D80006870002804DD96488CF800706C700770ED
:107D900047F6FF70814201D2491C2981BDE8FC876A
:107DA0000026401C00B28242E0DC6C708CF800407F
:107DB000EEE7034610B50020024603E033F9124017
:107DC000521C20448A42F9DB10BDF0B5794D0F46B4
:107DD00000262968497DFFF7ECFF04462868017DED
:107DE0003846FFF7E6FF002C00DA64422A680023D9
:107DF0007149D2F89C52AC4206D8002800DA4042C1
:107E0000A84201D80B620DE0086A401C086292F893
:107E10009B22824206DC73480126026842F400324B
:107E200002600B623046F0BD6248006890F8901125
:107E3000890606D5604901220A7090F89521120939
:107E4000CA6190F8F002C00701D002F041B8704753
:107E50001CB559490020098901B901201021554C50
:107E6000CDE9001020680F235F49427D5F4801F093
:107E70007AFE20685C49437DB0F9AE215B48FCF78F
:107E800073F8012800D000201CBD2DE9F34F00201D
:107E900085B08246054607460290554C401E039029
:107EA0002078DFF83CB14FF000084FF001090128BD
:107EB0001CD0404E306890F82010C9061DD590F8AF
:107EC00025104C480288914217D2A0F800804A48F9
:107ED000016841F0220101604FF480610120F8F750
:107EE000CDFA8BF8009007B0BDE8F08F8BF80090CA
:107EF00000F07CFC84F80080F5E70320F8F7AFFB86
:107F00003E482D4C007801287ED02089012813D9C5
:107F1000306801232D49427D2848FFF778FE3068FC
:107F20002A490123027D3C312648FFF770FE306864
:107F3000334990F8FD02087000202081FFF7C7FC4C
:107F4000DFF89CB0019021499BF800000090306858
:107F5000B046B839427D019B059801F0E1FD9BF8E0
:107F60000000009030681949019B027D7C39069819
:107F700001F0D6FD234E30780A287BD00F2802D29C
:107F800000F101003070D8F80000464690F850111A
:107F9000090745D5427D90F88D11CDE900120B4AB5
:107FA00090F88B31B83A05491046FCF70BF8306869
:107FB000027D2AE03802100070031000E22901203F
:107FC000DA2A01201E2A0120162B01202830012048
:107FD0000804100048421000E03401205F02100045
:107FE0009A02100048021000FE2D0120C22D01202F
:107FF0009C0210004C021000400210004F021000C2
:10800000A90310009B02100025E090F88E11CDE925
:108010000012FF4A90F88C31FE491046FBF7D2FF60
:108020003068FD4AFD49437DF9483C3801F02BFE9C
:108030003068F84AFA49037DF54801F024FE3068BB
:1080400090F89101000625D5F549F448FFF7BDFEEB
:1080500001281DD01EE0306890F85101C00605D5FA
:10806000FFF7F6FEEF490128087004D00598FFF7E6
:10807000EAFD04E007E084F801808BF8009003201B
:10808000F8F708FB2FE70D2003F057FB142079E7E2
:10809000012002900320F8F7FDFA3068DFF88883AA
:1080A000B34690F8901109074CD5D949427D5E46F8
:1080B0004031DA48FFF799FC3068D549427D4031BC
:1080C00000F57470FFF745FC60613068417DD04871
:1080D0004030FFF7A2FCA06163698646322B1CDDAD
:1080E000CB48DBF800204030B0F90060B2F8541102
:1080F0008E4207DD92F815C000EB4C0C3CF902CC27
:108100008C4509DC49428E4207DA527D00EB420081
:1081100030F9020C884200DA0125DBF8000090F803
:10812000941199420EDAB0F8AC2172450ADA90F84F
:108130009001400600D50127D8F8001041F4805185
:10814000C8F80010DBF800005E4690F85011C90630
:108150001AD5427D90F89612B048FFF7D6FB3068EA
:10816000027D90F8E012AE48FFF7CFFB3068427D09
:1081700090F89712AD48FFF7C8FB3068027D90F881
:10818000E112AB48FFF7C1FB306890F89011890706
:1081900010D5B0F85231B0F85421A1499F48FFF7EB
:1081A0005DFC012806D1D8F80010012741F40051E8
:1081B000C8F80010306890F8911189060AD5B0F817
:1081C0005231B0F8542196499448FFF79AFC01289F
:1081D00000D10127306890F89111490617D5B0F900
:1081E0005421417D8D4801F06BFD02280DD870B1FE
:1081F0003068417D894801F077FD02463068417D55
:10820000864801F05DFD022801D901273D4631680D
:1082100091F89001820705D4000703D491F89101E9
:1082200080060BD5012F09D1B4F9040000280ADB20
:10823000401E00B2A080002805DCBA4691F89501E6
:1082400000F00F00A08091F85001C0061AD54A7DB9
:1082500001F51C717148FFF76AFB316870480A7DAF
:1082600001F52871FFF763FB316870484A7D01F51D
:108270002171FFF75CFB31686D480A7D01F53071B3
:10828000FFF755FB306890F85011090611D5CDF86D
:108290000090437D4F46674A6749604801F0C9FC3A
:1082A00000973068634A6549037D5D4801F0C1FC71
:1082B0000CE0407D594942005F48FBF746FD3068BD
:1082C0005749007D42005D48FBF73FFD306890F85C
:1082D0009111C90627D503A90091427DB0F8AC31B0
:1082E000521E00214D48FBF7CAFE012815D1039903
:1082F000012904DB3068427D921E8A420EDAE08852
:108300000125401E00B2E08000280CDAD8F80010E9
:10831000AA4641F48051C8F80010306890F89501E1
:1083200000F00F00E080306890F85111C9070CD0C0
:10833000B0F95E21417D404801F0B3FC3068B0F9EE
:108340005E21017D3D4801F0ACFC306890F8501191
:10835000490713D5CDF80090364A437D4F460A3A77
:108360003749354801F065FC00973068314A354996
:10837000037D0A3A314801F05CFC0CE0407D2E4957
:1083800042002F48FBF7E1FC30682C49007D420099
:108390002C48FBF7DAFC306890F8911189060FD56C
:1083A000B0F85231B0F8542126492548FFF7A9FB0F
:1083B000012805D1D8F8001041F48041C8F8001018
:1083C000306890F8911149061BD5B0F95421417DD0
:1083D0001B4801F075FC02280DD890B13068417D32
:1083E000174801F081FC02463068417D144801F0D5
:1083F00067FC022805D9D8F8001041F40041C8F8FC
:108400000010114F0B23387800903068427D1DE03A
:10841000AC2F01201E2A0120E22901204842100031
:10842000844210005E0210004802100054A5012092
:1084300090A501209E031000C442100000431000CC
:10844000E03401201C3501209A021000D349D448A1
:1084500001F066FB387800903068D0490B23027D2C
:108460003C31D04801F05CFB32682378B2F85211FD
:10847000B2F85401012B04D0CB4B1B78012B09D04F
:1084800010E0B2F8983103B11946B2F89A314BB105
:10849000184607E092F85731C91A92F8563189B256
:1084A000C01A80B2C14B1B783BB192F8A33118447B
:1084B00092F8A43180B2194489B20FB20FFA80FC4D
:1084C0000097A781A4F80AC0B346527D6146B84818
:1084D000FFF776F90646DBF800003946027DB5481D
:1084E000FFF76EF90746B44861460670B348077057
:1084F000DBF80000427DA948FFF762F901281AD095
:10850000A07820B1401EA070AB4800260670DBF8B2
:1085100000000099027DA1483C30FFF751F9012885
:108520001BD0E07820B1401EE070A44800270770FF
:10853000012E25D026E0DBF8000000253C2290F833
:10854000951101F00F01A18090F86E01A070934980
:108550009748FBF7FAFB0126D9E7DBF80000002576
:10856000402290F8951101F00F01A18090F86F0161
:108570008A49E0703C318F48FBF7E7FB0127D7E7DA
:10858000012F0BD08E49002008708E490870206999
:1085900000281DDD401E20610DD019E0884880F8BC
:1085A000009081480078012812D1DBF8000090F893
:1085B000970120610CE0DBF8000090F89001C00604
:1085C00006D5D8F8001041F40061C8F8001002E0A8
:1085D000029801280CD17C48016841F02201016019
:1085E0004FF480610120F7F749FF784981F8009046
:1085F000BAF1010F0CD17448016841F042010160E9
:108600004FF480610120F7F739FF704981F800903D
:10861000DBF800005E4690F89011890624D5217899
:10862000012921D1E169002915DD427DB0F95411FC
:108630005F48FFF7C5F807463068027DB0F9521170
:108640005C48FFF7BDF807B100B94DB1306890F84C
:1086500095010009E0615A480078012807D017E029
:10866000E069401EE061F6D100202070F3E7306839
:10867000B4F9041090F8950100F00F00884207D17A
:10868000002D7FF439AC4B49494800F035FD2AE410
:1086900000F00FFB27E42DE9FC4188460746FFF771
:1086A00016F94A4E05464A4C3078009020682B4611
:1086B0004849427D384601F033FA3078009020680E
:1086C00044492B46027D3C31404601F029FA20689E
:1086D00090F85011090719D5427D90F88D11CDE918
:1086E00000123C4A90F88B313B491046FBF76AFC7C
:1086F0002068027D90F88E11CDE90012354A90F87D
:108700008C313C3235491046FBF75CFC2068324A1C
:108710003349437D2F4801F0B6FA20682F4A31498A
:10872000037D2C483C3001F0AEFA206890F85111DE
:10873000C9070CD0B0F95E21417D294801F0B1FA9A
:108740002068B0F95E21017D264801F0AAFA206870
:1087500090F85011490711D501250095437D224A13
:1087600013491F4801F065FA009520681E4A114917
:10877000037D1C4801F05DFABDE8FC81407D18498D
:1087800042000B48FBF7E1FA20681649007D02B071
:108790004200BDE8F0410748FBF7D7BAA4300120FA
:1087A00054A5012090A50120940210006902100038
:1087B000E03401201C3501209802100099021000BD
:1087C0005D0210005F021000400210009A021000CB
:1087D00038021000702F0120E22901201E2A0120FA
:1087E000C44210000043100094031000F949002017
:1087F000FA4A0870F849C86008618880C880087023
:108800001070F74A4870107088700881488170476E
:1088100030B5F44A00241268937EDD0792F8823165
:108820000BD0834217DC158BEB1A834213DB92F8D3
:10883000830188420FDCD28A0AE083420BDCD58AAE
:10884000EB1A834207DB92F88301884203DC128B28
:10885000101A884200DA0124204630BD2DE9FE437B
:1088600014460D460646072B09D0DB48092BB0F904
:10887000041006D03180C188298000781070BDE8CE
:10888000FE833288ADF802202A88ADF800202778D0
:10889000ADF806108146C088ADF8040001AA69460B
:1088A00002A80AF085F902A80AF07AF9DFF8348301
:1088B0000346D8F800C09CF87401BCF8762100F09B
:1088C0000F01BCF878C1000952430CFB0CFC934229
:1088D0000BDD634501DB084607E09B1A411A4B4359
:1088E000ACEB020193FBF1F1401ABDF90230C0F18B
:1088F0001001B9F904C04B4300FB0C3343F30F13D1
:108900003380BDF900304B43B9F9061000FB01304C
:1089100040F30F102880D8F80000102199F80020AB
:1089200090F87501A1EB10117943000900FB0210CA
:10893000C0F307102070A2E75FF0000200EB820393
:108940005B6840F82230521C052AF7DB4161704712
:108950002DE9F04F002793B080463E463D46FFF795
:10896000EBFF002158F821000744484300FB015564
:10897000491C06440629F5DB974C099714346068B6
:108980000A90A068CDE90B0620690D906069CDE9D9
:108990000E05E0691090206A119009A8FAF76EFCA4
:1089A000834603912068CDE90907A0680B90E06831
:1089B000CDE90C0660690E90A069CDE90F05206A2B
:1089C000119009A8FAF75AFC81462068099060685E
:1089D000CDE90A07E0680C902069CDE90D06A06991
:1089E0000F90E069CDE910058A4609A8FAF746FC20
:1089F0000326A9FB06570A460AFB06710926A0FBB7
:108A00000637002409FB041402FB0672002100FB58
:108A10000120EA184441039912EB0B0061414FF425
:108A2000756200230BF042FBC8F80C0013B0BDE8E0
:108A3000F08F30B56B4A01241268937EDD0792F8FF
:108A40007A310BD0834217DC158BEB1A834213DB90
:108A500092F87B0188420FDCD28A0AE083420BDC69
:108A6000D58AEB1A834207DB92F87B01884203DC4C
:108A7000128B101A884200DA0024204630BD2DE9FE
:108A8000F047DFF860910546534CD9F800008AB0F2
:108A90000E4690F870019A4617464FF00008C0073E
:108AA00028D0082D26D094F90200062819DB11469B
:108AB0003046FFF7BEFF00284B48314609D0FFF78C
:108AC00047FF06B2484839461830FFF741FF07B262
:108AD00010E0FFF731FF444839461830FFF72CFF0C
:108AE00008E0401C404940B2A07041F820601831B5
:108AF00041F82070ADF80060ADF804708DF814A056
:108B00002B4605AA01A96846FFF7A8FE072D2DD020
:108B1000092D2BD1D9F8001091F87001400725D507
:108B2000B4F90420BDF90000101A00D5404291F8B4
:108B30007C3198420EDAB4F90630BDF90400181AF7
:108B400000D5404291F87D61B04203DAADF80020D3
:108B5000ADF8043022789DF81400101A00D5404278
:108B600091F87E11884201DA8DF81420D9F80000BE
:108B70004E464FF0000790F8700100060FD5082D03
:108B80000DD0BDF90410BDF90000FFF741FE80468D
:108B9000012804D1306890F87111C9070DD0BDF9D2
:108BA0000010A180BDF90420E2809DF814C084F873
:108BB00000C0B8F1010F2FD066E0072D18D00B4987
:108BC000097831B390F8A601401CE06000200AB09B
:108BD000BDE8F08794021000A80310005D021000A9
:108BE0005F021000380210001842100069021000E5
:108BF000FE490F7090F89001C007E7D0FC4801686B
:108C000041F0220101604FF480610120F7F736FC4A
:108C1000DCE790F87301D7E7306890F87131DB0733
:108C200032D0837EDB0790F8823113D08B4201DD96
:108C3000ADF80030018BC91ABDF90030994201DA54
:108C4000ADF8001090F88311914201DDADF80410E9
:108C5000C08A12E08B4201DDADF80030C18AC91A2A
:108C6000BDF90030994201DAADF8001090F8831197
:108C7000914201DDADF80410008B401ABDF90410DB
:108C8000884201DAADF804000397BDF800000297AE
:108C9000ADF80E008DF80850BDF80400ADF80C00DA
:108CA0008DF80AC08DF80B7002A802F091FB01202C
:108CB0008DE7D04810B50178CF48006849B190F9E8
:108CC000A611CA480278CD48012A05D000210161C9
:108CD0000DE090F97311F4E7C268521CC2608A4239
:108CE00008D300231A4619460820FFF7C8FEBDE83E
:108CF00010407BE510BDF0B50746DDF814E037F90C
:108D000012404FF0FF30744501DA002400E01046B5
:108D1000012517E0561B07D437F916C0F44503DDCB
:108D2000A44501DD304664465619A1F1010C6645A3
:108D300007DC37F916C0F44503DDA44501DD3046F4
:108D400064466D1C9D42E5DDF0BDAB490A68B2F892
:108D5000641181420DDAB2F86621824201DCFF2003
:108D60007047401A521AC0EB002090FBF2F0002826
:108D7000F6DC01207047F0B500240125A1F10106C1
:108D80000BE0571B02D430F917703C445719B74217
:108D900002DC30F917703C446D1C9D42F1DD012A64
:108DA00002DB891E8A4200DD640030F91200204493
:108DB000F0BD2DE9F047904D14469A462E6830F9E3
:108DC0001420814602FB04F00123A1F1010196F871
:108DD00062C117E0E51A08D439F91570B6F85E815A
:108DE000474502DB07FB05003A44E5188D4208DCE5
:108DF00039F91570B6F85E81474502DB07FB0500BF
:108E00003A445B1CB3EB1C1FE4DD4A4380FB0A01C0
:108E1000D3170BF04BF900B2DAE62DE9F05F8B4681
:108E2000D0E900159146002280689A4613464FF417
:108E30008034814202DD02460B4602E001DA0A4636
:108E40000346A0EB01014FF4803CA1FB0C084FEA64
:108E5000E17707FB0C874FF000062B44C2F10002BC
:108E600001FB067103EB42024FEAE2730BF01EF9BD
:108E70004FF48036A9FB063C4FEAE97505FB06C5B1
:108E80001B18A3FB0A06002709FB07524A4102FBF5
:108E90000A614FEAEA7503FB051122463B460BF0D7
:108EA00005F95A464FEAEB730BF000F900B2BDE842
:108EB000F09F2DE9F04F93B00C4682461746994635
:108EC000002518210CA81C9E0BF083F900200290AD
:108ED000039004902EB94848006890F8620100F0B1
:108EE0000F06BA1B07EB060300D50022661EB3422D
:108EF00000DD631E0CA95046FAF72EFA4FB1B742B7
:108F00002FD13D48006890F85101800613D54D4699
:108F10006BE03948006890F85101800665D4BAF9D1
:108F200004000290BAF900000390BAF902004B461F
:108F3000012204900DE00AEB44007F1C30F9061D6D
:108F40000291B0F904100391B0F902004B463AB215
:108F50000490611E02A8FFF760FF99FBF6F1451A25
:108F600043E0DDE910B1B1F100084BDADDE90C2393
:108F700052EA030046D0DDE90E0105910890002970
:108F800040DB1D48056895F85001400611D558464C
:108F900041460BF08BF8002800DA404295F8631147
:108FA000884206DA4B463A4621465046FFF701FF13
:108FB0001AE01BEB0B01A1FB062448EB080000FBA9
:108FC0000640F31701FB0303089805994542A5FBEA
:108FD0000907002464EB010404FB09714FEAE976F8
:108FE00005FB06110BF062F8054609E0940210003B
:108FF000400210006902100038021000A80310009F
:1090000028B213E5B8F1000FCCDADDE90C01084312
:10901000C8D00F980028C5DBE7E738B5AA4D049CF7
:109020002D6895F85051AD0603D50094FFF741FF28
:1090300001E0FFF7BEFE00B238BD2DE9F047002485
:109040009A46CE1E81462346A44627462546022A36
:1090500003DBB24201DC1046BAE50020491E07E0FE
:1090600039F91080B8F1000F01DDC4447F1C401CA9
:109070008842F5DB9CFBF7F7022A12DA10460DE076
:1090800039F91060BE4203DA3CB90446002304E01B
:109090001CB19E4201DD33460546401C8842EFDB91
:1090A00014E0B24212DD10460EE000BF39F9101094
:1090B000B94203DA3CB90446002304E01CB19942EA
:1090C00001DD0B460546401E0228EFDC534500DA61
:1090D000154628467CE530B5044630F911300020AD
:1090E000491C06E034F911509D4201DD2B4608462B
:1090F000491C9142F6DB30BD2DE9F34F724C85B02F
:10910000226892F88451567D05F00F035F4206EB0A
:10911000470606F0FF0B167D2A09554200EB430077
:1091200006EB45050590EDB201EB420001952A469C
:1091300000210690FFF7CFFF05465A46002105980B
:10914000FFF7C9FF06462068604F90F8700180065F
:1091500007D5B7F900302A4601990698FFF76DFF49
:1091600005462068DFF868A190F87001C00607D5B1
:10917000BAF90030324659460598FFF75EFF0646B9
:10918000DFF85091DFF8508199F80000012828D1CC
:10919000206890F86001010723D0010921D0B7F9B8
:1091A0000010009100F00F03B8F90820019906980B
:1091B000FFF7A1FD0746BAF9000000902068B8F952
:1091C0000A20594690F8600103090598FFF793FDBE
:1091D000002F01DB002802DAFFF76BFD01E03D46BE
:1091E00006462FB232B2A8F80870A8F80A20002666
:1091F000009620685946B0F918300598FFF70DFF22
:109200000096039020683A460199B0F91630069806
:10921000FFF703FF0290206890F87001800704D5E3
:10922000032203A902A805F01FFB03A902A8FAF76D
:109230006AFE01232A4601990698FFF79CFDFFF775
:1092400084FDC3B2254800780028206810D090F92A
:10925000A51198F801204046521E52B288F801200C
:10926000002A08DB226892F8FC22114449B204E08B
:1092700090F97211EDE7FF22427099F800400569FC
:109280000CB96D1C05618D4219D340F2FF110161CB
:10929000C8F80C6044B1039802B2029801B20920E8
:1092A000FFF7EDFB48B10AE0012089F800000398C0
:1092B00002B2029801B20720F2E7FFF7FAFC07B00A
:1092C0000120BDE8F08F0000380210007C03100080
:1092D0007A03100094021000A80310006902100025
:1092E000E448E54A0068B0F8AC139180E34990F88F
:1092F000B10308817047E1490020DE4A8880C880B8
:10930000C86048801268DE4B92F85C2112091A701E
:1093100008610870DB49087070472DE9F043A1B07F
:10932000814602AF782138460AF053FFD148012325
:10933000016891F8B1204C7D91F8A01103EB121651
:10934000890715D50025804610E000BFD8F8001029
:1093500005FB04F009EB40004A7D91F88B31CDE923
:10936000003249460246FAF72DFE6D1CB542EDDB90
:10937000002010E000FB04F2002109E002EB010CE8
:1093800057F8215039F91C302B4447F82130491C3B
:10939000A142F3DB401CB042ECDB002007E000BF41
:1093A00057F8201091FBF6F147F82010401CA0421E
:1093B000F6DB00200121A4F1010517E04FF0000CBD
:1093C00063460BE003FB041839F9182057F8218095
:1093D000B2EB080200D5524294445B1CB342F1DB6D
:1093E0009CFBF6F2824200DD1046491CA942E5DBF7
:1093F000B0F5803F04DB4FF6FF7021B0BDE8F0838D
:1094000080B2FAE730B59B499D4B096891F850212D
:10941000920725D59B4A12784AB191F8A74104F0EA
:109420000F022509B1F8A841B1F8AA1107E001F52A
:10943000AC710C7904F00F0225090C884988A04210
:1094400001DC1A7030BD884201DB1D7030BD001B8D
:10945000AD1A6843091B90FBF1F01044187030BD41
:1094600091F85C0100F00F00F8E72DE9F041814D23
:10947000814A2E6896F88013B6F8AC33C9073DD000
:1094800096F8AF4304B90124918896F8AEC3CF1A79
:1094900007FB0CF797FBF4F4B6F8AA730F442744C4
:1094A000764CB8420ADD002620210120E660F6F75E
:1094B000E5FFE680286890F8B10306E0814202D912
:1094C000704D2D7825B196F8B1032081BDE8F0816B
:1094D0006D4D2D78002DF9D1B4F90850002D01DD26
:1094E0006D1E25812489002CF0D1891E814200DA6D
:1094F00001468B4200DD19469180E7E79380E5E75E
:109500005C4A10B514680021B4F8A121824204D24B
:1095100094F8B000800700D501215848594B0278D3
:10952000914211D1197891420AD0574C24782243A4
:1095300007D00169491E0161002901DC007818701B
:1095400010BD01700169F7E739B194F8B2200261EA
:109550000170002AF4DC197010BD94F8B320F6E70E
:10956000444910B5096891F8B010CA06434918D5A6
:10957000464A14780A46D388C3EB03125200012CE2
:1095800005D0C41A002C0CDC3F4C247824B102EB2B
:109590004000C0F34F1004E0C3EB83121044C0F34B
:1095A0008F10C88080B210BD10B5FFF7B6FEFFF770
:1095B000D7FF324CA080FFF7A3FFA088FFF722FF60
:1095C000A088BDE8104050E7F0B430490B782B4933
:1095D0004A88B3B1322A01D2521C4A80254A012559
:1095E000136893F8B1405B7D05EB1415CC6894FBD0
:1095F000F5F605FB1644264E634306EB43070023AE
:109600000BE0012AEAD9521E4A800022CA60E5E72F
:1096100030F813C027F813C05B1CD2F800C09CF8C8
:1096200015C09C45F4DCCB685B1CCB60136893F8D9
:10963000C577FF0707D05B7D641C5F00634306EBC3
:109640004304002307E0C8680CE0FE1830F81660F9
:1096500024F813605B1C1668767D9E42F5DCC868B2
:10966000401CC860A84202DBF0BC09489CE7F0BC83
:10967000704700003802100058251000E003100069
:109680009D021000690210005D0210004F021000E0
:1096900020310120F6490020C860086188604860D8
:1096A000F4490870704710B500230AE030F9134000
:1096B000002C00DA64428C4201DD012010BD5B1CED
:1096C0001BB29342F2DB002010BD70B5EA4CEB4AAE
:1096D000EB492068437DEB4800F0D5FA2068EA4A60
:1096E000EA49037DEA4800F0CEFA2068427DB0F9ED
:1096F0009812E348FFF7D7FF05462068027DB0F9CE
:109700009812E248FFF7CFFF0022D949012803D081
:10971000012D01D04A6070BD4868401C4860236834
:1097200093F89A328342F6DCDA48036843F48033D4
:109730000360D9484A60016841F022010160BDE838
:1097400070404FF480610120F6F798BE70B5054671
:10975000002003460CE000BF35F9134031F91360D7
:10976000A41B00D5644224B2A04200DA20465B1C50
:109770009342F1DB70BD2DE9FF4FDFF8FCB2864666
:10978000BEF1010FDBF800000BD0037D90F82362DF
:1097900090F82492C14DC24C90F8260200218246D6
:1097A00098E0437D90F8216290F82292BD4DBE4C26
:1097B00090F82502F2E700BF35F9118034F91170F5
:1097C000DFF8E8C2A8EB070002B29CF800C0002056
:1097D000BCF1010F08D0002A1FDAA54AD2F80CC04C
:1097E000BCF1000F02D005E0104624E00298C0F161
:1097F000000000B2DBF800C09CF811C75FEA0C7CE7
:1098000019D5B14217DD494515DA12699AB9A7EBA6
:10981000080292FBFAF040420AE0954FBF6857B940
:109820000198039F00B2BA4205DD0D98824201DD26
:1098300000B200E038B2DBF8002092F815C09C4579
:1098400004D192F8F1C7BCF1060F07D092F814C00A
:109850009C4506D192F8F127072A02D1944A22F8B2
:10986000110034F81120024424F81120DBF80070B4
:1098700097F8802352072CD5BEF1010F4FF000025C
:109880000CD01EE0DFF8FCC1C2EB02180CEB880C18
:10989000521C3CF8118080442CF8118097F880838A
:1098A0004FF0010C0CEB981C9445EBDC11E0DFF859
:1098B000E0C10CEB821C521C3CF8118080442CF857
:1098C000118097F880834FF0010C0CEB981C9445A5
:1098D000EDDC491C9942FFF66FAFBDE8FF8F2DE923
:1098E000F84F654D624C00262A684FF0010A92F845
:1098F0002300527D00F00F076E48017801293FD008
:10990000804600913B4667496B4800F009F998F89A
:1099100000000090286861493B46027D674800BF0F
:1099200000F0FEF866480078400778D56548007872
:10993000B8B3A660E660286890F82C10B0F82F90B5
:10994000B0F833700C0901F00F08427D56495E48AB
:10995000FFF7FCFE844628685149027D5B48FFF70B
:10996000F5FE2968434AB1F85431BCEB530F04DCCF
:10997000B1F85211B0EB510F5DDD82F800A05BE051
:109980002680D0463B4647494748CDF800A000F026
:10999000C7F8CDF8008028683B464049027D404822
:1099A000BEE7FFE7A168491CA160286890F82A205B
:1099B000B1EB121F00DDA660E16802F00F02491C46
:1099C000E1608A4216DAE66090F81117090711D5AE
:1099D0002169491C216190F820228A420ADA266115
:1099E00090F8F107062801D0072803D15E21AC20AA
:1099F00001F0B3FD286890F82420110910D090F8E8
:109A0000383021888B420BD9491C218090F82B10CB
:109A100012090C09544301F00F01514305E025E000
:109A200090F82B100C0901F00F018846B0F82D902A
:109A3000B0F8317089E716704B4642462146012046
:109A40000097FFF798FE4B464246214600200097BC
:109A5000FFF791FE286890F89111090606D590F855
:109A60008003400702D5BDE8F84F2EE6BDE8F88F29
:109A7000F4031000A502100038021000462C01204B
:109A800048421000562B0120822D012084421000F4
:109A9000822C012048021000400210009A2A012066
:109AA0001E2A01205E2A0120E2290120080410005C
:109AB000D8DD01209A021000462E0120822E0120BE
:109AC0000C0410004F021000702F0120AC2F012059
:109AD0000F4810B5006890F82000C10716D00D4956
:109AE0000978002912D10C49097809B180060DD5F1
:109AF0000A480078002809D10320F6F7B0FDFFF7E7
:109B0000EEFEBDE810400320F6F7C4BD10BD000016
:109B100038021000560210005D02100060021000B2
:109B2000F0B40C4601460498C3F11006012801D098
:109B3000002014E02046F0BC5200FAF706B900BF3E
:109B400034F9105031F910705D4307FB0655EF17DB
:109B500005EB177545F30F1524F81050401C904283
:109B6000EEDBF0BC7047F0B40C460146DDE9046062
:109B7000F51A012801D0002010E02046F0BC520068
:109B8000FAF7E3B834F9107031F910C05F430CFBF9
:109B9000057797FBF6F724F81070401C9042F1DB34
:109BA000DFE72DE9F0470026DDE908A9B446354690
:109BB000374634460FE000BF31F91480B8F1000F8A
:109BC00003DD464405F1010503E002DAC44407F170
:109BD000010704F101049442EEDB96FBF5F69CFBD1
:109BE000F7F7002421E06BB131F91450002D0FDD9F
:109BF00030F8145035442DB220F814504D4513DD83
:109C000035440FE030F8145031F814C0654409E0D1
:109C10000ADA30F814503D442DB220F8145055455E
:109C200002DA3D4420F81450641C9442DBDBBDE8AA
:109C3000F0872DE9F04391460022DDF81CC019E0C1
:109C400000252E464FEA050402EB0407BF1E08D488
:109C50009F4206DA30F9178039F9147008FB07556E
:109C60003E44641C052CEFDBBCF1010F06D021F84B
:109C70001250521C9A42E3DBBDE8F08395FBF6F4E8
:109C800021F81240F5E770B5002407E032F81450CF
:109C900030F81460AD1B21F81450641C9C42F5DBB5
:109CA00070BD30B500231C4607E000BF30F91350EB
:109CB000954201DA20F813405B1C8B42F6DB30BD85
:109CC00070B505460020044603460AE035F91360E6
:109CD000964204DD0CB9401CC0B2641C00E00024B4
:109CE0005B1C8B42F2DB70BD10B50022134603E013
:109CF00030F913405B1C22448B42F9DB09B192FB23
:109D0000F1F210B210BD00006148624A006851686B
:109D1000414004D05060480701D5FDF719BD704798
:109D2000704710B50446480709D55B492046F9F746
:109D30006CFB2046BDE810405849F9F78CBB10BDBC
:109D40002DE9F0415348564D0026067055492C68C0
:109D50000C423CD04068044053480078002836D17B
:109D60000620F6F77CFC21465048FFF7DAFF504802
:109D7000504F006890F8A011C90709D02878000654
:109D80000CD43878022809D04848FFF71DFC05E0BC
:109D900090F85C01484900F00F0008700620F6F7C3
:109DA00079FC600709D50420F6F759FC3B493A488D
:109DB000FEF76BF80420F6F76DFC3878022802D124
:109DC0002868002801DAFFF783FE3C480670BDE8EA
:109DD000F081304910B500204860FFF75BFCFDF7CB
:109DE000B7FCFFF788FABDE81040FFF779BA294CB5
:109DF00008B500256570FFF7ECFF4FF6FF76607839
:109E000058B30128FBD16B46002255210420F6F7F8
:109E100085FB0098C00706D031460420F6F75DFBAD
:109E2000FFF7D7FF65700098400705D50421084665
:109E3000F6F753FBFFF784FF0098400603D5402157
:109E40000420F6F74AFB0098C006D8D5102104205C
:109E5000F6F743FBFFF758FFD1E704210020F9F79D
:109E600086FB6B46002202210420F6F757FB0421F3
:109E70000120F9F77CFB00988007C0D5314604200B
:109E8000F6F72BFBFFF7A5FF01206070B7E7000096
:109E90000805100008041000462E0120822E012023
:109EA000900210001402008056021000D0A501207C
:109EB000380210009E0210009D0210009A0210004D
:109EC000F74800218171C1710172017141717047C0
:109ED000F34800210161C1707047F14900B50120CC
:109EE0008870FFF7F5FF5DF804EBE9E7EC48002127
:109EF000C160417001218170704700B5FFF7E8FF34
:109F0000E7490120887000BD2DE9FC4789460746D6
:109F1000F9F775FA0090F9F79DFA01900421684667
:109F2000F9F782F90446042101A8F9F77DF92044E4
:109F3000DB4C4600DB492069DB4D704301EB400000
:109F400029687200B1F8F2823946F9F7FEFE2868F6
:109F5000216990F8F102884202D10120E07002E00C
:109F6000E078012819D1CF4F002014E02A680121A0
:109F700037F9103092F8F122521C05E006FB010C73
:109F8000491C37F91CC063448A42F7DCA3EB080282
:109F900029F81020401CB042E8DB286890F8F11244
:109FA0002069814201D3401C00E000202061E0785C
:109FB000BDE8FC872DE9FC4115460E460746F9F73A
:109FC0001EFA0090F9F746FA019000980421400823
:109FD00000906846F9F728F90446042101A8F9F72A
:109FE00023F900EB440C07EB440207EB4C0301465A
:109FF00006EB440706EB4C06002006E032F810C0E2
:10A000000CFB05FC27F810C0401CA042F6DB00202A
:10A0100006E000BF33F810206A4326F81020401CE9
:10A020008842F7DBBDE8FC812DE9FC4715468946EF
:10A030000646F9F7E4F90090F9F70CFA01900421CB
:10A040006846F9F7F1F80446042101A8F9F7ECF89D
:10A050000146304606EB440305EB4407002207E0C7
:10A0600030F802CB33F8028B521CC44427F802CBE1
:10A07000A242F5DB01EB440206EB840006EB42034F
:10A0800005EB4206002207E030F8027B33F802CBF2
:10A09000521C674426F8027B8A42F5DB4846294673
:10A0A000002204E030F8023B21F8023B521CA2429D
:10A0B000F8DB09EB440005EB8402002105E000BF5A
:10A0C00030F8023B22F8023B491CA142F8DB6FE763
:10A0D000F0B5754B00241B685D7DAB1E09E000BF29
:10A0E00031F9136030F91370F61B964200DD641CE1
:10A0F0005B1C9D42F4DC0CB10120F0BD0020F0BDE2
:10A100002DE9FC41664C0126674D2078002758B99F
:10A11000A1788020CDE9000128687F236349427D32
:10A120006348FFF720FDA77028686049437DB0F9B8
:10A130004D215F48FFF7CCFF5E490978062902D020
:10A14000207030466EE70026012802D0E7602770B5
:10A15000F7E720780028F4D1E068401CE060296827
:10A1600091F81A11814202D201206070207000F033
:10A1700075FF01210220F6F781F9E2E7F0B40B4602
:10A180004949096891F8C517C90714D04A490968AF
:10A19000490010D400EB4204002108E030F8025BD3
:10A1A00034F8026B491C354423F8025B09B2914232
:10A1B000F4DBF0BC7047F0BC014652001846F9F7DA
:10A1C000C4BD70B53C4E0025308810F4CA7F44D021
:10A1D000354C37492068427D3848FFF7CFFFFFF7FD
:10A1E0008FFF0546012838D1206890F8C507C107C0
:10A1F000334809D03168490006D42A4A0169806889
:10A20000F83AFFF711FF04E026498068F839F9F7BA
:10A21000A4FD3078000608D52068224990F8C427AC
:10A22000F839521C0846FFF7C5FE2068254990F80A
:10A23000F002C0071B48A0F1F80002D0FFF764FE4F
:10A2400001E0F9F78AFD206890F8F002C00704D019
:10A250001348C078012800D00025284670BD124957
:10A2600010B50968002091F8E811002909D01249B9
:10A270000978890705D512481349C068F9F75DF9CF
:10A28000012010BD2DE9F04107460B48064D01267F
:10A2900000782968400719D5B1F8E62218E00000D7
:10A2A000100410003844100038021000FE2D012068
:10A2B000C22D01209E02100038041000C8A6012003
:10A2C00010491000D0A501203A2E0120B1F8E82253
:10A2D000FE48DFF8FCC3FF4C007806280FD0087D4D
:10A2E0004A7D00FB02F3B1F9E8220CEB400107EBD9
:10A2F0004000F9F739FE207001282AD02EE091F8AD
:10A3000010010026000729D5087D497D12B200FB07
:10A3100001F30CEB400107EB4000F9F725FE0128A3
:10A3200003D00020E060207018E02078B0B9E06829
:10A33000401CE060296891F81A1181420ED2012078
:10A340006070207000F08AFE01210220F6F796F876
:10A3500004E0E148016841F0010101603046BDE8D8
:10A36000F0812DE9F041DD4D0E4603462968144683
:10A37000DFF860C34F7D087D07F10107024607FB48
:10A3800004F700FB07F0D64F274417F8017C8CF840
:10A39000047091F86110090700D510444200194675
:10A3A0003046F9F7D2FC2868017D407D401C641ED0
:10A3B0006043414306EB4100D1E72DE9F84FDFF858
:10A3C0001CA380460646DAF80000DFF808930F4623
:10A3D000447D007D641C444399F80710484689F881
:10A3E000081000254FF0010B4AE0C279BD4B02FB7B
:10A3F00004F103EB410605FB04F108EB4101009178
:10A400000BFA02F10279114389F8041031460098E1
:10A41000F9F7BFFCDAF8000090F8611009071CD5C5
:10A42000791E8D4208D1007D4200009800EB440166
:10A4300006EB4400F9F789FC99F8070068B9DAF8E7
:10A440000000017D90F8F9064A000009A549604323
:10A4500001EB40003146F9F778FC99F807104846BF
:10A46000491CC9B289F80710DAF8002092F8F926D9
:10A47000B1EB121F03D30021C17189F806B06D1C26
:10A48000BD42B2D33046BDE8F88F2DE9F047DFF882
:10A490004C8206469146D8F800000D460224007D05
:10A4A000314642002846F9F750FCB9F1010F00D1BE
:10A4B000012401270CE0007D00FB07F1420060430E
:10A4C00006EB410105EB4000F9F73FFCA41C7F1CA3
:10A4D000D8F80000417D491CA142ECD8D8F8001002
:10A4E00091F86110090721D50123B9F1000F10D0AF
:10A4F000427D017D521C03EB52034B434A4305EB63
:10A50000420006EB43034A00BDE8F0471946F9F75D
:10A510001CBC417D027D03EB5103491C5343514355
:10A5200006EB430305EB41005200EDE7BDE8F08781
:10A530002DE9F0438946694909684C7D0B7D641C0F
:10A54000012116E04A1C01FB03F55A4300EB4506C6
:10A5500000EB420709EB4505002207E036F812C080
:10A5600037F81280C44425F812C0521C9A42F5DB19
:10A57000491CA142E6DBBDE8F08370B505465748AB
:10A580000C46006890F8451709060AD5007D294653
:10A5900042002046F9F7D9FB21462846FFF7C8FFBD
:10A5A00023E051480068810001D5002202E0C1008B
:10A5B00005D5012221462846FFF767FF15E04B49E4
:10A5C000C204097D03D52846FFF7F7FE06E08004A4
:10A5D00006D50A4643492846FFF7C3FE044604E071
:10A5E000012221462846FFF7BCFE204670BD3748B1
:10A5F00010B500780022042801D0FFF761FC3A482A
:10A600000078C00707D0394839494068FFF7B5FFDF
:10A61000FFF738FE0246104610BD70472F4930B490
:10A620000968344891F8C8100278CB0718D08B0716
:10A6300016D5314B1B78C1F38204012101FA04F4D1
:10A64000234209D00170C8B2824209D0012805D046
:10A65000CD2030BC01F071B80021F3E7CC20F8E741
:10A6600030BC70472DE9F0471B494FF00009C1F895
:10A670000090FFF7D3FF1D481B4D007820B1F8F77D
:10A68000E6FAC5F8009051E71448006890F8100108
:10A69000800701D5F8F796F90C4C20780128F0D006
:10A6A0000620F5F7DCFFFFF7A2FF0646FFF7D7FD10
:10A6B0000746FFF786FD82460620F5F7EBFF0F49B8
:10A6C0002868DFF810800860012E19E09E02100053
:10A6D0005600012010041000C002100038021000C3
:10A6E0004445010040B0012038041000104910001A
:10A6F000200B10006A0210004B0000209002100096
:10A7000001D0012F17D12078022801D0032809D1C8
:10A7100098F80000012805D100F0A0FC01210220DA
:10A72000F5F7ACFE2078072809D0062807D00421C9
:10A730000320F5F7A3FEBAF1010F03D009E04FF4AF
:10A740000071F5E72078072813D004210420F5F7DD
:10A7500095FE2078062894D12868002891DA98F888
:10A76000000000288DD10620F5F779FF3E4302D086
:10A7700007E04021EAE72878800702D0002001F0B6
:10A780006FFB0620F5F786FF7BE70020704700008F
:10A79000FD4AFE4BA2F120014878125C1A70401C61
:10A7A000C0B24870042801D100204870704710B52D
:10A7B00001461822F648F9F7C8FA0221BDE8104010
:10A7C0000846F5F75BBE70B5F24D0446286890F870
:10A7D0000A07C0072CD02078EF4E10F0060F15D0D6
:10A7E000A078800712D4F9F7DCFC012821D060881A
:10A7F00040F002006080286890F80A07000717D52B
:10A8000020210520F5F73AFE01203070286890F8E5
:10A810000A0700070CD53078012809D1F9F7C1FCE7
:10A82000012805D110210520F5F728FE0020307001
:10A8300070BD2088C0F341010329E7D140F0060034
:10A840002080E3E7D5490978022915D1D149096863
:10A8500091F8101189060FD5CB4920390A46CB79DA
:10A860005269012B09D00123CB7142F000524A6199
:10A87000816801F05531816070470023CB7142F04F
:10A8800080524A61C64A81681140F4E72DE9F041DF
:10A8900098B005466846F9F787FABB4CC148203C9A
:10A8A000C14A656101881180C049DFF8F0C2B94E24
:10A8B00049880180E8074FF0010857D0BDF8000033
:10A8C00040F00101ADF80010306890F8F826D2078A
:10A8D00008D0BDF8022022F48062ADF8022045F4D1
:10A8E0000052626190F86120120703D541F4807133
:10A8F000ADF8001090F82011C90737D09CF800106F
:10A90000042929D0002D27DB90F822118DF813108F
:10A9100090F821118DF81A1090F823118DF81E105F
:10A9200090F8F816C90705D08DF85880616921F4B0
:10A930000051616190F86100000705D5BDF8000085
:10A9400020F48070ADF80000606940F480606061C0
:10A950006846FFF777FF09E090F8F806800705D50D
:10A96000002D03DB606940F480506061A80705D5C5
:10A97000BDF8000040F00800ADF8000015F48A7F33
:10A980004FF0000721D0306890F8A011C90707D018
:10A9900090F8C517C90703D09CF80010032908D008
:10A9A0009CF8001002291ED007291CD006291AD0B5
:10A9B00005E0BDF8000040F01000ADF80000BDF863
:10A9C000000040F00600ADF800006846FFF7FBFE0F
:10A9D000E8055AD576480078012841D075480078B6
:10A9E00001283DD051E0002D01DA022910D090F865
:10A9F0000027D20703D090F803278DF83C20BDF83C
:10AA00000020062942F00202ADF8002007D020E025
:10AA1000BDF8000040F00600ADF8000019E090F825
:10AA20000F1709B18DF83810BDF8021040F202225C
:10AA3000114321F02001ADF80210616941F080411D
:10AA4000616190F80017C90703D090F802078DF8EC
:10AA50003C008DF83A70606940F080006061B4E7B6
:10AA6000306890F8B01109070FD58DF83A7090F85A
:10AA7000C507C00705D0BDF8000020F01000ADF8F4
:10AA80000000606940F080006061AFF2DD2001905D
:10AA900084F804806846F6F7BFFE18B0BDE8F08180
:10AAA0002DE9FC413B4C206890F8DA06C0076AD0DB
:10AAB0004148808980B2A0F5AA41AA3963D03F4EAF
:10AAC00030785A285FD0C5285DD0F9F76AFB012895
:10AAD00059D10020F5F7C3FDF7F724FB384D288046
:10AAE0000020F5F7D7FD2268B2F8DC1601EB510023
:10AAF00007B228884B08984201DBB84207DD02B054
:10AB00000202BDE8F04101218A2000F026BD92F842
:10AB1000DE360B4483420FD392F8DF26891A814236
:10AB20000ADC5A213170020202218A2000F015FD50
:10AB3000BDE8FC4109F05AB90020F5F790FD01A9E4
:10AB40006846F7F716FB20682A88B0F9DC1690F8FB
:10AB5000DB06891A91FBF0F09DF80010084404B25E
:10AB6000002C01DA002402E00F2C00DD0F2441EA62
:10AB7000042203218A2000F0F0FCE0B28DF80000EE
:10AB80009DF804101EE04EE0440410002000002058
:10AB90001049100038021000CE0210009E02100072
:10ABA000ABAAAAAAAA021000A802100058251000F9
:10ABB000580210005702100078251000ECFF010029
:10ABC0006E031000F7F7E7FAF7F7ACFA298841EAC5
:10ABD000004204218A2000F0C0FC0020F5F75AFD55
:10ABE000F9499DF800000870C5203070FAF7F9FBAC
:10ABF000FBF750F909F0FAF8F44840F6B73201686B
:10AC000011430160F248016841F400510160F148CC
:10AC1000016841F480210160BDE8FC414FF480618E
:10AC20000120F5F72BBCBDE8FC8180B2F5F797BF9A
:10AC3000E94810B50178E94AE9480229D378006863
:10AC400014D006291CD007291DD0012B1ED0022BA1
:10AC50001FD090F8134100BF90F810315B0627D544
:10AC60009379042B1BD0042916D018E090F81741D3
:10AC7000022BF1D190F81531A342EDDD1C46EBE734
:10AC800090F81841E8E790F81941E5E790F8144189
:10AC9000E2E790F81541DFE790F81B31537192F924
:10ACA0000530002B03DD5B1E537190F81341917149
:10ACB00004B91424F6F74BF8002800DD64002046A0
:10ACC00010BDF0B5C649054600200C6894F8207008
:10ACD000F9071BD0C0490B78C049022B17D0072BAE
:10ACE00015D0062B13D094F83920BE4E36781EB1FD
:10ACF00094F84844E40707D0BB4C24780CB1BC0658
:10AD000002D5BA4C247894B152428A60F0BDB84A58
:10AD10001278012A08D094F83A200E78032EE4D253
:10AD2000761C0E708A60E0E794F83F20F5E78C68A7
:10AD3000641C8C609442E9DD0020886003202EB9F9
:10AD4000072B03D0062B01D040F21710284040F00B
:10AD50000040F0BD10B5A14B014600209E4CDB68C1
:10AD60000246062902D007290DD00FE0A14801783C
:10AD7000012905D006202070580706D5042005E0DB
:10AD800002709D4802700720207001209B491840E6
:10AD90000A7097490A7010BD2DE9F04F0025DFF8C1
:10ADA0003C920346A846D9F80C4028462E462F462A
:10ADB000E1072A4613D09249DFF848C209780129F1
:10ADC0000AD08849097839B99CF80010012903D0C4
:10ADD0008D490978012902D18CF8002001264946C5
:10ADE0005FEA847C07D5DFF804C29CF800C0BCF1A0
:10ADF000010F00D101265FEA447C0ED5DFF8E8C1DF
:10AE00009CF800C0BCF1010F06D0DFF800C29CF82E
:10AE100000C0BCF1010F00D10127DFF8F4A1DFF879
:10AE2000D0B1DFF8B491012E08D06D4E042B3668F6
:10AE300007D0032B0FD0022B35D036E08A618A6011
:10AE40003FE0CA618869401C886196F85D6186426E
:10AE500037DA8A6130E06F4F3F78012F21D06E4F93
:10AE60003F78012F1DD09AF80070012F19D096F865
:10AE70001071FF0719D0D1F81CC00CF1010CC1F8FA
:10AE80001CC096F8126106EBC60707EB0616BCEB72
:10AE9000860F0AD3614DCA618BF80020012028700B
:10AEA00014E0CA6101E0012F04D0032B04D0022B6F
:10AEB0000CD016E08A61CA61032689F80060172069
:10AEC0000FE0042689F8006003200AE0022589F8D3
:10AED00000500125600703D516204FF0010800E05F
:10AEE000132099F800609E4201D08AF80020434B5D
:10AEF0002040002D1D708BF8008000D10A70BDE845
:10AF0000F08F10B5354C00202061334800780428BC
:10AF100008D0032806D0022804D0062805D0072828
:10AF200003D007E0FFF738FF01E0FFF713FF2169C7
:10AF300008432061E068FFF7C4FE216908432061EF
:10AF400010BD38B5264C206890F8E502C00701D046
:10AF5000FFF71EFCFFF7D5FF31490868002809DD1F
:10AF6000204A127832B9401E086003D10221052020
:10AF7000F5F784FAFFF75CFEFFF757FE174D40F236
:10AF80001731286908421DD0FFF78AFD0020F5F728
:10AF900066FB2869FFF77AFC02216B46002208460F
:10AFA000F5F7BCFA02210846F5F797FA206890F801
:10AFB000E502C00701D0FFF7EBFBFFF753FB0020D2
:10AFC000F5F768FB38BD0000EDFF010040021000FE
:10AFD00044021000480210009E02100024041000D9
:10AFE00038021000560210005D02100060021000CE
:10AFF00050021000110410006D0210004F021000EA
:10B00000590210005E021000100410005F021000D0
:10B01000A5021000980210009902100012041000FE
:10B020000405100010B501210220F5F756FABDE81D
:10B03000104086E710B540210220F5F74EFAAA48E5
:10B040000178012909D006210170FEF74FFFA749B9
:10B0500000208861C861A649087010BDF5F7A5BD3C
:10B06000A2490020A34A0861486110608861C86154
:10B0700088609F490870A0490870A049087070470F
:10B080002DE9F041002704210220F5F726FA9C481B
:10B09000964E0568F06890EA050420D02C404FF6E3
:10B0A000FF7807D030B9012741460220F5F715FA9D
:10B0B000FFF7D6FF600701D5FEF71FFF8A4CF5604A
:10B0C00075B10321012F15D02078022807D1002067
:10B0D000874AF061B0611070874A10702170DDE41A
:10B0E000F5F763FD012020704146BDE8F0410220E4
:10B0F000F5F7F3B9E80702D00420207000E02170D2
:10B10000BDE8F0411DE770B50446784D000705D550
:10B1100008210220F5F7E1F90020E870E00605D5E6
:10B1200010210220F5F7D9F90120E870E00406D5D6
:10B130004FF480510220F5F7D0F90220E87070BD7D
:10B1400010B5F5F732FD6849012008706749002005
:10B150008870BDE810404FF6FF710220F5F7BDB9C9
:10B1600008B541F25D116B4600220220F5F7D6F9D1
:10B170000098400804D0022269465520F8F7C8FF1D
:10B180000098C00501D5FFF7DBFF009841F21801D8
:10B19000084201D0FFF7B7FF0098400701D5FFF73D
:10B1A0006FFF0098400601D5FFF744FF0098C007E5
:10B1B00001D0FFF737FF08BD524800784B4910F027
:10B1C0001F0001F1200108D007280CD0421E0A7090
:10B1D0004870421C8A70C8707047002008700120B7
:10B1E00048700222F6E70520087006204870072202
:10B1F000F0E73D4810B501223C4902700020C860CC
:10B20000C87008614861404B8861C86118703F4B45
:10B21000404C18703E4B5B8823803F4C2380087164
:10B22000FF2048718A71FFF7C7FFBDE81040FEF7A5
:10B2300054BE08B502210020F8F799F96B460022A8
:10B240004FF400710220F5F769F902210120F8F7A7
:10B250008EF9022269465620F8F75AFF00988005B9
:10B2600009D5FFF7C6FF4FF6FF710220F5F735F954
:10B270001E490120887008BD1C4900208870704755
:10B280001A4C0020A07006E0A07820B10128FBD164
:10B29000FFF766FFF8E7FFF7CCFFF5E7134900205B
:10B2A0008861C8611249087013490870704710B569
:10B2B000F5F77BFC0121BDE810400220F5F7DEB870
:10B2C00010B50A4C2079012809D1F5F76EFC134816
:10B2D000006890F8160100B90120FFF7A6FC0020D5
:10B2E000207110BD704700009E0210002404100061
:10B2F0004F021000900210005002100010041000C5
:10B3000008051000200000209B021000A60210007B
:10B3100058251000A8021000AA02100038021000E0
:10B3200010B504460220F5F79AF92046F5F718FD06
:10B33000BDE810400220F5F7ADB9F5F711BD1CB519
:10B3400000210091019102789DF8001062F3030141
:10B350008DF80010427862F307118DF800104289D1
:10B36000BDF8011062F30B01ADF801100289BDF8C0
:10B37000021062F30F11ADF8021081798DF80410FC
:10B38000C1798DF805100179CA099DF8061062F39C
:10B39000C7118DF80610027962F306018DF80610C8
:10B3A00080788DF807006846FFF7BAFF1CBD1CB512
:10B3B00000200090019002208DF80000FE480068F7
:10B3C000C007400E8DF807006846FFF7A9FF1CBDB7
:10B3D0001CB500210091019101788DF80010417891
:10B3E0008DF80110C188C1F307118DF80210818812
:10B3F000C1F307118DF80310017901F00F018DF8E9
:10B400000410827941EA02118DF8041081788DF8D8
:10B410000510C07800F00F008DF80600E6480068BF
:10B42000C007400E8DF807006846FFF779FF1CBD86
:10B430001CB50021009101910E218DF800108DF8AE
:10B440000200DD480068C007400E8DF8070068461E
:10B45000FFF766FF1CBD1CB5002000900190D74887
:10B4600000684178827810208DF800004006437A09
:10B470008DF80130D24B1B788DF8023043891B0ABE
:10B480008DF8033040898DF80400CB488DF8051005
:10B490008DF806200068C007400E8DF8070068464A
:10B4A000FFF73EFF1CBD1CB500200090019011204D
:10B4B0008DF80000C0480068C007400E8DF80700F6
:10B4C0006846FFF72DFF1CBD2DE9FC410646002014
:10B4D00000900190122015460C468DF800004FF0A8
:10B4E00008571EE0200A8DF80100C4F30B008DF808
:10B4F0000240315C30448DF8031041788DF804101F
:10B5000081788DF80510C0788DF80600D7F8E00135
:10B51000C007400E8DF807006846FFF701FF241DA5
:10B520002D1F002DDEDCBDE8FC811CB50022009241
:10B5300001920F228DF800208DF80100080A8DF885
:10B5400005008DF8061040209B498DF8070001206A
:10B5500008606846F5F704FC1CBD1CB5974B1B68DA
:10B5600093F8F0379B0625D5E02823D0E12821D099
:10B57000BB281FD0ED281DD0002300930193DB23AF
:10B580008DF800308DF801008DF80210100E8DF846
:10B590000300100C8DF80400100A8DF80500864891
:10B5A0008DF806200068C007400E8DF80700684639
:10B5B000FFF7B6FE1CBD1CB5002300930193DB23EF
:10B5C0008DF800308DF801008DF80210100E8DF806
:10B5D0000300100C8DF80400100A8DF80500764861
:10B5E0008DF806200068C007400E8DF807006846F9
:10B5F000FFF796FE1CBD1CB50022009201920F229F
:10B600008DF8002005228DF801208DF802006A488F
:10B610008DF803100068C007400E8DF807006846DB
:10B62000FFF77EFE1CBD2DE9FC4104460025009578
:10B6300019208DF8000040070195417A8DF801101E
:10B640005F4909788DF802104189090A8DF80310C5
:10B6500040895A4F8DF80400574E386841788DF86C
:10B66000051080788DF806003068C007400E8DF810
:10B6700007006846FFF754FE00951A2001958DF8E3
:10B680000000386800F5FC6001788DF80110417801
:10B690008DF8021081788DF80310C0788DF80400C1
:10B6A0003068C007400E8DF807006846FFF738FE87
:10B6B00000951B2001958DF800006068000E8DF844
:10B6C00001006068000C8DF80200A088000A8DF867
:10B6D000030020798DF8040020788DF80500207B88
:10B6E0008DF806003068C007400E8DF807006846E8
:10B6F000FFF716FE00951C2001958DF80000A0684C
:10B70000000E8DF80100A068000C8DF80200208961
:10B71000000A8DF80300207A8DF80400207C8DF853
:10B720000500207D8DF806003068C007400E8DF8BA
:10B7300007006846FFF7F4FDF5E61CB51F490968E8
:10B7400091F82911490603D400F00F010C2919D1F1
:10B7500000210091019116218DF800108DF8010053
:10B76000010A8DF80210010C000E8DF80400124839
:10B770008DF803100068C007400E8DF8070068467A
:10B78000FFF7CEFD1CBD1CB50023009301931623CB
:10B790008DF800308DF80100080A8DF80200100ABB
:10B7A0008DF8040004488DF803108DF8052000681A
:10B7B000C007400E06E00000E00100223802100041
:10B7C000A40210008DF807006846FFF7A9FD1CBD14
:10B7D0001CB5002300938DF80000080A8DF80200C4
:10B7E0000193100A8DF8050006488DF803108DF8B6
:10B7F00006200068C007400E8DF807006846FFF776
:10B800008FFD1CBDE00100228648006890F82A01E7
:10B8100000F00700801C00EB8000C006000EF5F76A
:10B8200033B92DE9F041804D286820B30520F4F7A5
:10B8300016FF00245FF00107286807FA04F630427B
:10B8400013D004EB440005EB800898F806000528A7
:10B850000BD104217548F7F7E7FCC1B208F10600E7
:10B86000FFF76DFD2868B0432860641C0A2CE3D301
:10B870000520F4F70FFF6D48001F4068002802D034
:10B88000BDE8F041C0E7BDE8F081F5F70AB96649C7
:10B8900000EB400210B501EB820101248B79634972
:10B8A000091F032B4A6802D0042B04D006E0844011
:10B8B00014434C6002E08440A2434A6004215B4888
:10B8C000F7F7B2FCC0B210BD2DE9F047574E052086
:10B8D000361F7768F4F7C3FEDFF848A1DFF8489118
:10B8E00000244FF00108D9F8003008FA04F1484666
:10B8F0000B421AD004EB440200EB8205AA79032A1A
:10B9000009D0042A07D0052A0FD1DAF8002092F8CE
:10B910002921D20609D48B4360B2C9F80030FFF761
:10B92000B6FF0146A81DFFF70AFD641C0A2CDAD3F6
:10B930000520F4F7AFFEDAF8000090F82901C00600
:10B940000CD570682FB1002808D1BDE8F047F5F795
:10B95000A8B8002802D0BDE8F04755E7BDE8F08759
:10B9600032490020091F486080212F4808F031BC6F
:10B970002E4C08B5241F00252570F5F792F8207885
:10B9800050B30128FBD100226B4607211046F4F783
:10B99000C5FD0098400706D504210020F4F79DFD61
:10B9A000F5F77FF825700098800705D50221002063
:10B9B000F4F793FDFFF788FF0098C007DFD001215F
:10B9C0000020F4F78AFD1748006890F82901C006A6
:10B9D000D5D5FFF726FFD2E700210846F7F7C7FDC8
:10B9E00000226B4608211046F4F798FD0021012043
:10B9F000F7F7BDFD00980007C1D5FFF7B1FFF5F7D8
:10BA000050F80F210020F4F768FD01202070B6E700
:10BA100010B5F5F746F80121BDE810400020F4F715
:10BA20002DBD000038021000D82410004C04100076
:10BA30009C490020012208709B490A700871887097
:10BA4000C870C1F80500A1F809009849086048606D
:10BA50008860C8600861486170472DE9F043944AE6
:10BA6000054600201668934A894696F8E8411378FF
:10BA70000146012707FA01F2144219D0012B0FD118
:10BA800096F8E6C15FEA1C180AD039F911804FEA2E
:10BA90001C1C98FBFCFC35F91180C44506DB07E053
:10BAA00035F9118039F911C0E04501DD0243D0B20A
:10BAB000491C0629DEDB7C49844200D13BB14A782F
:10BAC000002A02D00020521E4A70BDE8F0830020F8
:10BAD0000A22F9E7F0B5764C734F0123226892F8F9
:10BAE000FC2102F00F053A78C5F11006012A4FF04B
:10BAF000000211D1256803FA02F695F8E8513542A3
:10BB000003D030F8125021F81250521C12B2062AFB
:10BB1000F0DB00203870F0BD276803FA02FC97F8CC
:10BB2000E87117EA0C0F0AD030F9127031F912C01F
:10BB300077430CFB057747F30F1721F81270521C5F
:10BB400012B2062AE8DBF0BDF0B50023584D0124FF
:10BB500004FA03F72E6896F8E8613E4206D032F800
:10BB6000136030F81370F61B21F813605B1C1BB2D6
:10BB7000062BEDDBF0BDF0B5DFF82CC1034600224B
:10BB80009CF803000CF1050583EA000648480124EF
:10BB9000D0F8007004FA02F030420BD0184297F847
:10BBA000E70102D004EB101002E000F00F00401C8F
:10BBB000A85411E015F802E0BEF1000F0CD0AEF170
:10BBC000010E1EF0FF0E05F802E005D1184202D06A
:10BBD0000843C1B200E08143521C062ADADB8CF82C
:10BBE00003300846F0BDF1B59DF80000002823D0D1
:10BBF00001216846F7F718FBC0B201281DD02A4A78
:10BC00009078002818D12A4C0021284D246801235F
:10BC1000084694F8E8610C3503FA00F4264205D092
:10BC200035F910408C4201DD21461071401C062878
:10BC3000F2DB10798340D8B2F8BD9DF80000F8BD62
:10BC400070B51A49FFF746FF0320F4F708FD1749BE
:10BC5000194A0C311548FFF777FF0320F4F71AFD56
:10BC6000134C124821680C3001F5F871FFF7F5FE0E
:10BC70000C4D48B101212970216891F8E61189071E
:10BC800004D5FFF7B0FF01E000212970064CA17830
:10BC9000FFF771FFA178884202D0A070FFF7C8FBC0
:10BCA000287870BD600210005004100080CE012082
:10BCB000380210005A021000D62901202DE9F84F51
:10BCC000794C7A4D21684E7D087D761C91F82320B1
:10BCD000464310234FEA121AA3EB121931E0744ABB
:10BCE000B1F9267032F9103035F9102017449F420F
:10BCF00026DBB1F92870D71B9F4221DC02FB0AF733
:10BD000003FB09734FEAE37703EB177343F30F1B4E
:10BD100091F8D0305B0711D5ABEB020217B2DFF818
:10BD200094810022C2EB021308EBC313521C33F8B8
:10BD300010C0042ABC4423F810C0F3DB25F810B06F
:10BD4000401CB042CBDB91F82000000719D55748C2
:10BD5000F7F7FAFC584900252B4608600146574A78
:10BD600052480095F7F71CFE206890F82000400626
:10BD700007D55448009500230168514A4B48F7F70E
:10BD80004DFD4A48FBF7B8F94F490880BDE8F88FE8
:10BD90002DE9F0434448454C454E01684B4B4A7DE4
:10BDA000087DA2F1010202FB00F210461BE000BF79
:10BDB00034F9105036F910C0B5EB0C0712D5A0EBD2
:10BDC0000209B1F8688033F8195045450AD93D4455
:10BDD000002D04DD23F8195024F810C002E00027DC
:10BDE00023F81970401C4D7D0F7D6D1C7D438542ED
:10BDF000DEDCBDE8F083F0B52B48016891F8E8017E
:10BE000000282CD091F82400314A00F00F040020C3
:10BE1000C4F11007012600BF91F8E83106FA00F5D9
:10BE20002B4219D02B4B32F91050B1F944C333F9DE
:10BE30001030AC449C450FDBB1F946C3A5EB0C0CAC
:10BE40009C4509DC654303FB0753DD1703EB1573C2
:10BE500043F30F1322F81030401C0628DCDBF0BD42
:10BE6000114910B5096891F82010C90711D00028B0
:10BE70000FD11948007804280BD00320F4F7EFFB0A
:10BE8000FFF71CFFFFF7B7FFBDE810400320F4F7F2
:10BE900001BC10BD0448006890F84804C00701D0F8
:10BEA000FBF72BBA70470000380210005600012043
:10BEB000200B1000D6070120780210001824100073
:10BEC000282410007C02100060031000F02E0120D6
:10BED000D62901203A2E01209E021000FE490020A2
:10BEE0000870704700E010460A5C8242FBD1704740
:10BEF00070B500250E4603462C4606E0194620463E
:10BF0000FFF7F0FF1855641CE4B2B442F6D30022E8
:10BF10000AE0985C904203D19D546D1CEDB201E0A3
:10BF2000185C9854521CD2B2B242F2D3284670BD6B
:10BF300038B1884202D20B4601461846884200D0EA
:10BF40001154084670472DE9FF4F0546E3484FF06E
:10BF5000000B89B000785C46012805D0E0480470E9
:10BF60000DB05846BDE8F08FDE4800210127026879
:10BF70008046137D527D63F3070462F30F2461F35F
:10BF8000174461F31F6429E0012621E007EB071045
:10BF900006EB4000285C002819DDC4F30721384671
:10BFA000F7F755F960F30F24E1B23046F7F74FF990
:10BFB00060F30704C4F307413046F7F74CF960F328
:10BFC0001744210E3846F7F746F960F31F64761CD4
:10BFD000D8F80000007DB042D8DA7F1CD8F80010F5
:10BFE000497DB942D0DAC4F3074604F0FF09A6EB55
:10BFF0000900270EC4F307240090381B0146019066
:10C000000098F7F728F98246DDE90001F7F71FF9F4
:10C010000246B34800210170D8F800104FF0010823
:10C0200091F814C0ACF1010CD44539D04B7D5B1EA6
:10C03000934235D091F83203504591DB91F83303A8
:10C0400090428DDB5A210A9808F0A1F82146424619
:10C050001BE0484601EB011314E000BF00EB430C6A
:10C0600015F80C80B8F1000F0BD005F80C20DDF8A6
:10C0700028C0DDF82880BCF802C00CF1010CA8F83B
:10C0800002C0401C8642E9DA491C8F42E1DA0C9872
:10C090004FF0010B80F8049086714471C7715FE71F
:10C0A00080F800805CE72DE9FF4F99B001200490F3
:10C0B0008C4819689A460068067D477D41B19AF818
:10C0C00002109AF800905046B14205D2491C04E093
:10C0D0004FF000094D4608E0314645789AF80300D4
:10C0E000CEB2B84200D2471CFFB2002007A90854C4
:10C0F000401C2D28FAD3199905EB051001EB400CD3
:10C10000681C67E01998E34608EB081100EB410C46
:10C1100009F101045AE000BF0CEB0400159000681F
:10C1200010B31CF8040000B31598002310F8010C9C
:10C1300000B103461BF8041021B107AA1846FFF707
:10C14000F7FE03461A9800280BEB04000ED015905A
:10C1500010F8011C21B107AA1846FFF7E9FE0346B3
:10C1600015984178D9B91FE0E41C2EE0189010F81A
:10C17000011C59B115981BF8042010F8010C10434C
:10C1800004D007AA1846FFF7D3FE03461898417853
:10C1900051B115981BF804204078104304D007AA29
:10C1A0001846FFF7C5FE034613B10CF804300CE047
:10C1B00004982D2806D20CF804000498401CC0B244
:10C1C000049002E0401E0CF80400641CB442A3D9A1
:10C1D00008F101008046B84294D907A80499FFF7F6
:10C1E00087FE804641001B9807F0D1FF00204FF6E4
:10C1F000FF7202E04AF82020401C4045FAD33BE0A1
:10C20000199905EB051001EB400022304C460590D2
:10C210002FE00598011901204058A0B3487838B3A1
:10C2200007AA105C48701B991B9A0AEB800B31F827
:10C230001010491C22F810109BF800102046F7F748
:10C2400006F88BF800009BF801102846F6F7FFFF70
:10C250008BF801009BF802102046F6F7FCFF8BF8E4
:10C2600002009BF803102846F6F7F5FF8BF8030051
:10C27000641CB442CDD36D1CBD42C1D3A8F10100F2
:10C28000C0B21DB06EE6FFE7E41CF1E72DE9F04314
:10C29000994655784FF0010C1CE000BF05EB0513E3
:10C2A00000EB430622360023147897780CE000BF99
:10C2B00006EB040898F90180884503D10CFA04F8CC
:10C2C00048EA0303641CE4B2A742F1D249F82530DE
:10C2D0006D1CEDB2D37807E05C0410005B02100027
:10C2E0005C02100038021000AB42D7D2BDE8F083E8
:10C2F000F0B5FF4B0026FF4D1C78A0B0012C11D1EA
:10C300001E700B78002B59D04B78002B56D02B6821
:10C310008F781C7D641EA74250D05B7DCC785B1E5D
:10C320009C424BD000236C4644F823605B1C202BBE
:10C33000FAD34B7891F803C01BE000BF50F823708C
:10C34000B7B17E0846EA47063E4354F823703743A8
:10C3500044F8237004EB8307D7F804E04EEA060E96
:10C36000C7F804E0D7F808E04EEA060EC7F808E080
:10C370005B1C9C45E2D2002304EB8306766840F800
:10C3800023605B1C1E2BF7D3012A17D1087808B154
:10C39000401E0870487808B1401E48702A688878A6
:10C3A000127D521E904201DA401C88702A68C878BB
:10C3B000527D521E904201DA401CC87020B0F0BD80
:10C3C0002DE9F74F4D78DFF83093DFF828B34FF0C1
:10C3D000030E72E000986C1C936A50F82560DBF83D
:10C3E0000000007D6043D9F8004003EB400304EBFC
:10C3F00040070C78641C012014E000BF00FA04FC24
:10C400001CEA060F0DD003EB440A33F914803AF905
:10C4100002CCE044BAF902C0E04498FBFEFC27F8E5
:10C4200014C0641C91F802C0A445E7DC91F800A098
:10C43000BAF1000F26D000FA0AF434420DD003EB13
:10C440004A0433F91AC034F9028CB4F90240C444E6
:10C45000A4449CFBFEF427F81A40DBF800C08C785B
:10C460009CF814C0A44500FA04F000EA060014D1B8
:10C4700010B303EB440033F9143030F9020C1844C4
:10C48000401017E016F0010FE7D0B3F90040B3F900
:10C4900002C0644464103C80DFE768B103EB4400F1
:10C4A00033F9143030F9026CB0F90200334403441C
:10C4B00093FBFEF027F814006D1CC878A84289DAB7
:10C4C000D9F800009062BDE8FE8FF0B50025059E0A
:10C4D0002C468F1E00EB410006D430F9045CCF1EC1
:10C4E00002D430F9067C3D448F1C974207DAB0F93C
:10C4F0000440C91C914202DAB0F906000444281B2A
:10C5000000D540424FF435714843C11700EB9150BC
:10C510008012A54203DD316808443060F0BD19681F
:10C5200008441860F0BD2DE9FF4FDFF8C8B1074699
:10C530000E46DBF80000002585B090F8A0002C46E0
:10C54000C1066E484FF4803900EB460A2AD5002117
:10C5500006E000BF37F8112000EB4103491C5A8068
:10C56000B142F7D34188018030F81620AAF80220A2
:10C5700000210DE04A1C00EB420330F8122033F892
:10C5800002CC5B88634403EB420227F81120491C6C
:10C59000B142EFD307A8002300903246194638462F
:10C5A000F7F76DFD07994FF0000800291CDCDBF858
:10C5B000000090F8A000C00604D55048B0F9000073
:10C5C000019001E0CDF80480701E37F911C003908E
:10C5D000814224DBDBF8000090F8A000C00608D5FB
:10C5E000BAF90200029006E007EB410030F9020CB4
:10C5F000E6E7CDF80880DBF8000090F8A00000071F
:10C6000006D502A8009001AB721E3846FFF75DFF09
:10C61000DDE90110814207DD05460C4607E007EB26
:10C620004100B0F90200DDE701DA0D460446A0EB57
:10C630000102A2FB09064FEAE27303FB096102FB58
:10C6400008110CEB0402C5F1000302EB43024FEAB0
:10C65000E27307F02BFD079CA4FB0936E51705FBE9
:10C66000096204FB08221B184A410899A3FB010533
:10C67000CC1702FB015103FB04114A46002307F0CB
:10C6800015FD039AD31707F011FD00B209B069E454
:10C690002DE9FF4F044681B00020DFF858900F9D30
:10C6A000064607460090D9F8000090F8A000000761
:10C6B00019D5207808B1401E2070607808B1401E5E
:10C6C0006070D9F80020A078127D521E904201DAE5
:10C6D000401CA070D9F80010E078497D491E8842BE
:10C6E00001DA401CE07005484421443808E00000AD
:10C6F0005C04100038021000740210006C49100035
:10C7000007F045FD002293469246607830E021789C
:10C710002AE000BFD9F80030D5F8288093F814C07B
:10C72000431CE64603FB0C1C08EB4C0CDDF80080B8
:10C73000BCF900C0C44502DD761CB6B2674494451E
:10C7400002DD62468B46824695F818C0BCF1010FA7
:10C7500009D10EFB03FCFE4B0B441CF8038048F090
:10C7600080080CF80380491CA3788B42D2DA401C65
:10C77000E1788142CBDA6078D9F800100EE000BF92
:10C7800091F814C000F1010808FB0CB2AB6A03EB8E
:10C7900042021388EF4A22F81030401CE2788242AD
:10C7A000EEDA497D5246EB48039BFFF7BCFE0E993B
:10C7B00008604421E74807F0EAFC2078DFF894831A
:10C7C0000AF10101D9F800200BE000BF92F814C073
:10C7D000AB6A01FB0C0C03EB4C031B8828F81030F0
:10C7E000401CA3788342F1DA117D5A46D948029B56
:10C7F000FFF799FE04990860EF602E8105B0BDE84F
:10C80000F08FF0B5D44C059F2668D6F8105296F8F4
:10C810001842BD4202D304F00F040FE0D6F81462B0
:10C82000BE4201D8240909E004F00F0CCCEB14142B
:10C830007F1B7C43751BB4FBF5F464441668C4F19C
:10C840001005604306FB050000091060186861438D
:10C8500000FB051000091860F0BD2DE9FF4FBE4830
:10C86000964684B00D7891F80190CA78006800244B
:10C8700089780290007D2346A0465FEA050B29D106
:10C88000CC4625E00CF101060196DEF828604FF059
:10C89000000A0125009609E0DDE9006707FB005763
:10C8A00006EB47066D1CB6F90070BA44A942F3DAEC
:10C8B000DDE90065454306EB4505B5F900506D43DC
:10C8C00095FBFAF505FB0C33641BA8440CF1010C35
:10C8D0006245D7DA451EA9422FD1CC462BE000BFD6
:10C8E0000CF1010601964E1E0396DEF828604FF00B
:10C8F000000A5D46009609E0DDE9006707FB005786
:10C9000006EB47066D1CB6F90070BA44039EAE42B2
:10C91000F2DA019D05FB0016009D05EB4605B5F911
:10C9200000506D4395FBFAF505FB0C3305FB004405
:10C93000A8440CF1010C6245D2DAB9F1000F25D1FF
:10C940005D4621E0DEF828704FF0000A01260097CE
:10C950000AE0771C07FB0057DDF800C0761C0CEBE3
:10C960004707B7F900C0E244B242F2DA009E471925
:10C9700006EB4706B6F90060764396FBFAF606FB2F
:10C9800005449B1BB0446D1CA942DBDA029D6D7D02
:10C9900001956D1EAA422BD15D4627E0DEF8287076
:10C9A0004FF0000A4E46A2F1010B00970AE0771CF7
:10C9B00007FB0057DDF800C0761C0CEB4707B7F902
:10C9C00000C0E244B345F2DA561C06FB0057009E55
:10C9D00006EB4706019FB6F90060764396FBFAF630
:10C9E00006FB054406FB0733B0446D1CA942D5DAAB
:10C9F00007980460079843600798C0F8088008B05B
:10CA0000FDE62DE9F04F89B04FF00009DFF848B19D
:10CA10008646CDF81090CDF81490CDF81890DBF83C
:10CA2000000014460F46B0F86820217E4D464E4661
:10CA3000C84609B9B0F8C82178783BE05EF820A074
:10CA40003878039030E00120884010EA0A0F29D09E
:10CA5000DBF80000D4F828C0029B007D01935B1C2A
:10CA6000009303FB00130CEB4303B3F90030934234
:10CA700008DDDDF804C001FB03660CFB03881D44E0
:10CA800009F10109237E012B68D0002B009B00FBDC
:10CA900003F02F4B0B4410F803C077D04CF0200C60
:10CAA00000F803C0491C0391B87803998842CADA98
:10CAB0000298401C0290F9788142BFDADBF800004E
:10CAC00090F8600000060BD504AB2246394670464C
:10CAD000FFF7C3FE04980599064406988844054468
:10CAE0001D4800230168087DCA8A401E00FB05FA24
:10CAF000A2FB060C03FB06C3F11702FB01314FEA50
:10CB0000EA7B52465B4607F0D1FA03901248414651
:10CB10004FEAE87600684FF0000C427D038B521E0E
:10CB2000A3FB01080CFB01816A4303FB06114FEADA
:10CB3000E27A534607F0BAFA02900398002800DA26
:10CB40000020054E03903168C98A814208DB06E067
:10CB500098CE0120284910003802100017E0014645
:10CB600002980391002800DA002002903168098BB6
:10CB7000814200DA08460290E560A4F80890207E21
:10CB8000022810D0012815D0F8B155E008E0009B2C
:10CB90005843FE4B0B4410F803C04CF0800C7FE769
:10CBA0004CF0400C7CE7306890F88000C00643D51C
:10CBB000002210E0306890F88010C90612D590F875
:10CBC000A0004007F4D4012205E0306890F880000E
:10CBD000800631D5022202A903A801F045FE207E7D
:10CBE000012829D1306890F8A010490724D508A958
:10CBF000CDE90014B0F91820B0F9161007AB38468B
:10CC0000FFF746FD306890F88000C00604D5012289
:10CC100008A907A801F028FEE0680090DDE90210ED
:10CC200008AB07AAFFF7EDFD08A907A8F7F76BF90E
:10CC30000798E0800898A08002A903A8F7F763F995
:10CC4000039801B26180029800B22080326892F8A5
:10CC5000A020520701D4E180A08017E52DE9F04F14
:10CC60009146CB4A8646002348784FF0010BCE7898
:10CC7000D2F800A01AE000BF5EF820700A78441CC9
:10CC80008D7810E00BFA02FC1CEA070F0AD09AF824
:10CC90001480D9F828C004FB08280CEB480CBCF918
:10CCA00000C06344521C9542ECDA401C8642E3DA31
:10CCB000C9F81030A3E570B50D46B64914460646CE
:10CCC0000A78B3490020012A096801D191F87F0050
:10CCD000227E042A01D0022A07D191F866106289C7
:10CCE0000844824201D9032020760422294604F117
:10CCF0001400F7F72AF8224629463046FFF7AEFF20
:10CD0000012229463046FFF7F3FA224629463046EB
:10CD1000FFF777FE2046BDE8704005F00ABA9E494D
:10CD200010B50978012927D19949096891F8112787
:10CD3000D20721D0994A047892F90030984A9C424F
:10CD400092F9002001DB944204DD84789C4213DBDD
:10CD5000944211DC437891F81327934203D391F85E
:10CD60001447A34206D9C078904205D391F814170E
:10CD7000884201D8012010BD002010BDF0B5074643
:10CD8000A1B01D460E4614461046FFF7C8FF012805
:10CD90000AD06B46224631463846FFF777FA2A46D4
:10CDA00021466846FFF787FF21B0F0BD2DE9FF4F10
:10CDB00086468B4600204FF6FF755378D67828E0DC
:10CDC00003EB03140EEB440101F1220970491478BE
:10CDD0009778D1F800A018E009EB040191F801C0A0
:10CDE000DC4510D10E999AF81480D1F82CC0591C4A
:10CDF00001FB08410CEB41010988884200D208463A
:10CE00008D4200D90D46641C24B2A742E4DA5B1CB3
:10CE10001BB29E42D4DA039908800D990D8004B0AC
:10CE2000EDE42DE9F04F9B4682465378DDF824E08F
:10CE30002CE000BF5B4D03EB03100AEB4004AD6830
:10CE4000223405EB400522351078514F4FF001098F
:10CE500017E0261876788E4211D13E68DEF82CC095
:10CE600096F814805E1C06FB08060CEB4606B6F925
:10CE700000605E4503DD05EB000C8CF80190401C62
:10CE800000B296788642E4DA5B1C1BB2D0789842F6
:10CE9000D0DAB4E42DE9F0473D4F8146C8B0386898
:10CEA0001D46884690F8706047A8CDE900051446F5
:10CEB00046AB4846FFF77AFF287E10B9386890F8ED
:10CEC000CE61BDF81811BDF81C016422091A714326
:10CED000B1FBF2F1334F0E184FF48861B86807F0D8
:10CEE00056F9B3B22246414648460095FFF799FFEE
:10CEF0002068029002AB2FAA0121B868FFF7D3F88F
:10CF0000064601281DD901240DF1BC0A0DF10809BE
:10CF1000B84611E03AF81400688109EB8407294605
:10CF2000384601F05FFD2B463A462146D8F8080006
:10CF3000FFF724FF641CE4B2B442EBD948B0BDE86B
:10CF4000F0872B46224641464846FFF717FFF5E794
:10CF50002DE9FC4F0F4DDDE90B89DFF834B02D785A
:10CF600014789678DBF80070012D29D097F871506D
:10CF7000DFF830C0AA4603EB031500EB4500DCF8F0
:10CF800008C022300CEB450522350DE098CE01207B
:10CF9000380210006A021000C5021000C60210001C
:10CFA000C70210005C041000D8F82CC03F7D5B1C49
:10CFB000D8465F430CEB47034FF0010B1CB10CE06C
:10CFC00097F8C950D4E744788C4205D1B3F9007082
:10CFD0004F4501DD85F801B00124D8F800C09778ED
:10CFE0009CF814C0ACF1010C674562D1461CBE5DD3
:10CFF0008E4207D133F917C0CC4503DD05F1010C92
:10D0000007F80CB09278521ED6B252E0021952784C
:10D010008A424CD133F914204A4548DD02EB0A0E0E
:10D02000002703EB4402CDE9002732F9022C964594
:10D0300005DADDF800C0BCF902C0E64537DB012C9B
:10D0400010D0D8F800703F7DBF1EA74217D1009FB7
:10D0500037F9047CBE4527DA009FB7F90270BE4558
:10D0600025DB21E0B3F9027007EB0A02B3F9007087
:10D07000BA4219DAB3F90670BA4218DB14E09645E1
:10D0800006DA009FB7F90470BE4501DA0122019269
:10D09000009F37F9047CBE4504DA009FB7F902709F
:10D0A000BE4504DB019A12B92F1987F801B0641C40
:10D0B000E4B2B442AAD9BDE8FC8F2DE9FF4F9AB083
:10D0C00092F8018092F803A00020ADF82C00ADF892
:10D0D0004C001590FC48FD4D1E4600781446012872
:10D0E00023D0FB48017828460129006820D0713000
:10D0F000077840780BAB814613A8CDE90006DDE93F
:10D100001A01FFF753FE2868F24990F87620642050
:10D1100082B1BDF82C30BDF84C505B1B5343B3FBC0
:10D12000F0F20B881A4415B206E001273846E1E711
:10D13000C930DDE7B1F90050E74A1278012A0FD172
:10D14000E64A1278032A0BD2328C46235A43B2FBAA
:10D15000F0F0B1F90010884200DD05B20127B946B0
:10D16000607848B9CDE90065DDE91A014FF00108A2
:10D1700000232246FFF7ECFED449E0780968497D98
:10D18000491E88420AD1CDE90065401E00F0FF0A21
:10D19000CBB2DDE91A012246FFF7DAFE4046F0E0A5
:10D1A0001A9A00EB001102EB410202F1220BCC4A69
:10D1B00000F1020C00F10308926802EB41012231F8
:10D1C0000991C249F36A421E0968097D4A4303EB8B
:10D1D0004202089201FB00F203EB42020392421C5E
:10D1E00096464A4301FB0CFC01FB08F103EB4101AD
:10D1F000049103EB420203EB4C0C2178BBE000BF2F
:10D200000BEB010393F801801B9B98457ED132F90B
:10D2100011300693AB4279DD00231493069BDDF8B1
:10D220000C803B44019338F91180CDF84880434588
:10D2300005DA3CF91180434501DA012314930029F2
:10D240007DD0A24B1B6819931B7D18935B1E8B42EC
:10D250007CD002EB4103DDF80480109333F9023CEB
:10D260001193984508DA4346DDF84080B8F902800A
:10D27000434501DA01231493069BDDF80C804B44EF
:10D2800008EB41080693CDF8308038F9028C43450D
:10D2900007DA0CEB4108B8F90280434501DA0123B3
:10D2A0001493DDF83080069BB8F90280434505DA17
:10D2B0000CEB410838F9028C43455ADB149B2BBB1D
:10D2C000199B5B7D9B1E83420CD0DDF84880019B3F
:10D2D000434507DA9846049B33F91130984501DA43
:10D2E0000123149301280DD0089BDDF8048033F945
:10D2F0001130984506DA43463CF91180434501DA7E
:10D3000001231493012924D0189B00E020E09B1EE8
:10D310008B420CD0DDF84480019B434507DADDF8F1
:10D320004080B8F90480434501DA01231493DDF805
:10D330004080019B38F9048C434507DA00E005E0A2
:10D34000DDF84080B8F90280434512DB149B53B1ED
:10D350000FE0B2F90230B2F900803B444345F5DA00
:10D36000B2F90680F0E7099B4FF001080B4483F8FF
:10D370000180491CC9B2A3788B42BFF441AF0EF0C3
:10D38000FF0050457FF60CAF15981EB092E42DE9D2
:10D39000FF4F534DC5B000274FF48861A86806F0D1
:10D3A000F6FE45AC0FCCFFF788FE4799096800915F
:10D3B000C8BB6B462DAA0021A868FEF774FE06467E
:10D3C000012830D904F03AFF0124DFF800810DF183
:10D3D000B409EA46A34619E0D8F8001039F8140059
:10D3E00091F87510884210D985F800B04899012746
:10D3F00048810AEB84004490489901F0F3FAE1B2C5
:10D40000489B449AA868FFF7B9FC641CB442E3DD6A
:10D41000D8F8000090F84004800702D4002004F0FF
:10D4200012FF002F03D145AC0FCCFFF7A7FC49B08A
:10D4300040E42DE9F04F8A46244900259946864666
:10D44000D1F8006028462B4609EB0301491E1FD482
:10D45000747D8C421CDD377D01F1010107FB01F178
:10D460000EEB410803EB430C4FF000010AEB4C0BB1
:10D4700002EB0104641E08D4A74206DD3BF911C08B
:10D4800038F91440604404FB0C55491C0329EFDBB8
:10D490005B1C032BD8DB00B9012095FBF0F009E4FD
:10D4A0002DE9FF4F82B00C464178DDF83CB001B168
:10D4B000491E064A01F0FF09C1781668737D5D1E9A
:10D4C000A9420FDA491C0EE05C021000380210007D
:10D4D0006A021000A2041000970210008852100087
:10D4E0005C0410002946CDB2017801B1491E01F05B
:10D4F000FF0A8178307D431E994201DA481C00E022
:10D50000401EC6B2B4F9120009F10101019064E0B5
:10D51000FD4B4A1C1868007D00FB02F74843059943
:10D520000BEB470E01EB400000900AF1010051E0C7
:10D53000F54909680B7D059902FB030701EB4701DB
:10D54000049FB1F90210B94240DD0099B4F900809E
:10D5500001EB40010027B1F900C00CFB0877B1F9DD
:10D5600002C0B4F902800CFB0877B1F904C0B4F929
:10D57000048001EB43010CFB0877B1F900C0B4F95A
:10D58000068001EB43030CFB0877B1F902C0B4F944
:10D5900008800CFB0877B1F904C0B4F90A80B3F92C
:10D5A00000100CFB0877B4F90CC001FB0C71B3F947
:10D5B0000270B4F90EC0B3F9043007FB0C11B4F9D2
:10D5C000107003FB0711019B91FBF3F12EF8101073
:10D5D000401C00B2B042ABDB11B2A94298DB4F460F
:10D5E00017E0017D781C41430BEB410800903B465E
:10D5F000524621460598FFF71CFF28F81A003B46C3
:10D60000324621460598FFF714FF28F816000098C7
:10D6100007B2BD48AF420068E3DD007D691C4143AD
:10D620000BEB4101009109F1010148430BEB40086C
:10D63000574612E04B463A4621460598FFF7F9FE59
:10D6400028F817002B463A4621460598FFF7F1FEC9
:10D65000009921F817007F1C3FB2B742EADD06B0FF
:10D6600017E4F8B5A9491046069A09781D4602291B
:10D6700014D2A74CA4492E7E236809687EB191F884
:10D680004060B6060AD5012A08D10093B1F95820A6
:10D69000A04BA149FFF704FF2068E862F8BD91F8AC
:10D6A000C061F706FAD5B60609D50093B1F9C421D1
:10D6B000984B9A49FFF7F4FE2068A862F8BD012A4A
:10D6C000FCD10093B1F9C421E2E7F0B48F4C267885
:10D6D0008D4C256816B1B5F8024101E0B5F800415E
:10D6E0001E7E64431EB195F86050EE0706D08C4C48
:10D6F0002478002C10D1F0BCFFF7CCBBAD0706D5C9
:10D70000884D2D68A54202DA874C247814B1F0BC0C
:10D71000FFF734BBF0BC3AE6F0BC70472DE9F047A8
:10D72000814679488A4600230168184601250E7D06
:10D730004F7D1DE000EB001409EB44042234194630
:10D7400012E000BF52F8208005FA01FC18EA0C0F25
:10D7500008D004EB010898F801C0BCF1000F01D11A
:10D7600088F801A0491CC9B2B142EBD3401CC0B239
:10D77000B842DFD3BDE8F087644A10B512780124BF
:10D780003AB9614A126892F86020120718D5012947
:10D7900016D181780278891A01D5C1F1000101F111
:10D7A0000101CAB2C1784078081A00D54042401C35
:10D7B000C1B21046F5F74BFDC0B2012800D10024DC
:10D7C000204610BD2DE9F04F8A464F4983469E46BC
:10D7D0004FF001095078D6780C6824E000EB001374
:10D7E0000BEB430322331178957818E05F1897F814
:10D7F00001C0D44511D194F81480471C07FB0817C9
:10D80000DEF828C00CEB4707B4F8D2C1B7F90070B6
:10D81000BC4502DA4FF0000903E0491C09B28D4211
:10D82000E4DA401C00B28642D8DA484637E62DE9F1
:10D83000F0439946344B01261C6894F808319D0743
:10D8400048D51578B5EB531F01D8002501E0A5EBAD
:10D850005315EFB2257D92F802C0A5EB531808F1DD
:10D860000108E04501DA6D1E01E00CEB531505F0EF
:10D87000FF0C5578B5EB531F01D8002501E0A5EB4F
:10D880005315647DD278A4EB531808F10108EDB26A
:10D89000904501DA641E01E002EB531404F0FF0826
:10D8A00011E000BF05EB051200EB420322333C46BA
:10D8B00006E01A19527812B18A4200D00026641C80
:10D8C0006445F6DD6D1C4545ECDD002E02D10221DC
:10D8D00089F81810BDE8F08330B50B4C134A246862
:10D8E000B2F90030124A34F9A85FB2F90020B4F955
:10D8F000024029B90F49B1F900300F49B1F90020B0
:10D90000A0421BDD104630BD380210006802100036
:10D9100074021000D8DD0120A645010092450100E7
:10D920005B021000A804100096021000A204100070
:10D93000A40410009C0410009E041000A84201DA08
:10D940001846E0E7201AD11A4843611B90FBF1F01A
:10D95000101A00B2D7E72DE9FF5F8B460746DDE9D5
:10D960000E544FF0FF36DDE90201B046C246F5F72E
:10D970006EFC0FFA80F9DDE90201F5F76CFC01B2EB
:10D980000BEB0900401088427CDAF848109A32B15B
:10D99000012A1AD0022A2BD0032A73D142E0A21EF8
:10D9A00006D40268137D621E02FB035237F912602F
:10D9B0000068A21C437D934252DD007D04F1030404
:10D9C00004FB005037F9100049E0AA1E08D4026891
:10D9D000137D621C02FB035207EB420232F9046C16
:10D9E0000068AA1C007D90423ADD04F1010430E099
:10D9F000AA1E0DD40268A31C92F815C09C4507DD31
:10DA0000137DE21C02FB035207EB420232F9046C65
:10DA10000068AA1C007D904222DDA21E20D4A4F141
:10DA2000010416E0AA1E0AD4A21E08D40268137DBF
:10DA3000621E02FB035207EB420232F9046C0268D9
:10DA4000AB1C107D98420BDD537DA21C934207DD79
:10DA5000E41C04FB005007EB4000B0F904008046D2
:10DA6000701C0FD018F101000CD0029A914500D023
:10DA700046460BEB0100401006EB0901C1EB4000EC
:10DA80000FFA80FA04B05046BDE8F09F2DE9FE4F32
:10DA9000DFF8D8A21E0002F10107DAF800C0DDF8B5
:10DAA00030B04FF0FF349CF81430254607FB0318C4
:10DAB00030F9189006D0012E16D0022E20D0032E59
:10DAC00052D133E0B2F1010803D402FB031530F95F
:10DAD00015509CF81580B84544DD02F1020404FBA2
:10DAE000031330F913403DE04F1E03D400EB48050B
:10DAF00035F9025C4F1CBB4234DD00EB48032FE0DC
:10DB0000B1F101080AD49CF81580B84506DD951CD2
:10DB100005FB031500EB450535F9025C4F1CBB42C4
:10DB200020DD571E1ED402FB031317E0B1F10108DC
:10DB300008D4B2F1010805D402FB031500EB45053A
:10DB400035F9025C01F1010843450BDD9CF81580B5
:10DB5000B84507DD02F1020404FB031300EB4303A5
:10DB6000B3F902406B1C01D1631C0FD09CF8A030AC
:10DB70009B0608D58DE846002B4622464946FFF70E
:10DB8000EAFEABF80000681C03D003E047F6FF7024
:10DB900007E02546601C00D12C466119C1EB490005
:10DBA00000B2DAF8001091F8F117022908D1704993
:10DBB00021F8365001EBC601A1F802908C80C88094
:10DBC000BDE8FE8F2DE9FF4F002085B0DFF89CC136
:10DBD000019002901178834605460446074603915A
:10DBE000DCF800001E4631B95178B9B1417DD378D7
:10DBF000491E8B4212D0017D93788E46491E8B427E
:10DC000004D192F80180B8F1000F07D08B420BD1FC
:10DC1000417D92F80380491E884505D1B0F8AA00DD
:10DC2000801CA6F82300DFE0517892F80390B06AD8
:10DC300029E000BF01F1010C0EFB0CF200EB4202E7
:10DC40000492059A01EB011C02EB4C0202F1220A3C
:10DC50000FFA81FC039ACDF800C011E00AEB020C28
:10DC60009CF80180DDF818C0E04508D1DDF810C04F
:10DC70003CF912C0DC4502DD009CE34615B2521CA3
:10DC80009342EBDA491C8945D4DA01A900910123BA
:10DC900022462946FFF7FAFE81460DF10600009064
:10DCA000002322462946B06AFFF7F0FE804602A80C
:10DCB0000090022322462946B06AFFF7E7FE039050
:10DCC0000DF10A000090032322462946B06AFFF7AF
:10DCD000DDFEDFF898A08346DAF8000090F8A01087
:10DCE00049063FD51DB1027D521EAA4201D14146CF
:10DCF00031E01CB1407D401EA04201D149462AE0DE
:10DD000041464846F5F7A3FA02B259460398F5F79B
:10DD1000A6FA01B2DAF8000090F8A00080061AD541
:10DD2000002001AA32F91030002B01DD7F1CFFB268
:10DD3000401C0428F6DB032F0DD3BDF90610BDF9F6
:10DD40000400F5F784FA02B2BDF90A10BDF9080023
:10DD5000F5F785FA01B20027601ED446641CDAF894
:10DD6000009025E008EB0900F4E7000038021000FD
:10DD7000D8DD012000281ADB99F81520824216DD33
:10DD800099F814A000F10108B36A0AFB08F203EB4A
:10DD9000420B6A1E6B1C08E0002A05DB924503DD7E
:10DDA0003BF8128047443FB2521C9A42F4DD401CBB
:10DDB000A042DFDDFA20414391FBF7F004B2A6F860
:10DDC000234001212046FFF787FDF9490C80DCF84C
:10DDD000001091F8F117022903D1F6490C844F8401
:10DDE0008884318C814202DD012009B01EE50020CB
:10DDF000FBE72DE9F04F8246DDE909B700209E469A
:10DE00003880894653782CE0EB4903EB03140AEB86
:10DE1000440609682236DBF82840097D5D1C694309
:10DE200004EB4104117817E006EB010C9CF801802B
:10DE3000C8450FD1B7F800C034F81180C444A7F822
:10DE400000C034F911C0844504DDAEF8021060460C
:10DE5000AEF80030491CC9B292F802C08C45E3D23A
:10DE6000EBB2D1789942CFD2E0E42DE9FF4F83B0F5
:10DE70001878109C92461E46A070987820705878AA
:10DE8000E070D87860704FF000085F784DE000BF18
:10DE9000039907EB071001EB400101F122090499F6
:10DEA00001EB400000F1220B1298826AC248006820
:10DEB000017D781C4143019002EB410000903578D0
:10DEC0002EE000BF09EB05004178514526D10098AE
:10DED00030F91510119881421CDD08F101001FFA7C
:10DEE00080F821782846F5F7B2F920706178384635
:10DEF000F5F7ADF96070A1782846F5F7ACF9A07098
:10DF0000E1783846F5F7A7F9E0700BEB050080F8EB
:10DF100001A003E00BEB0500002141706D1C2DB248
:10DF2000B078A842CEDA019807B2F078B842AFDAFA
:10DF30000FFA88F007B079E49F490278096822B1A6
:10DF40000A7D8378521E934208D1427822B1C2786A
:10DF5000487D401E824201D1012070470020704759
:10DF6000017869B19449837809680A7D521E934209
:10DF700006D0427822B1C278487D401E824201D14B
:10DF8000012070470020704730B50546A1B08A488F
:10DF900000238DF8803002680C46107D401E8DF8FD
:10DFA00082008DF88130507D6B46401E8DF88300D5
:10DFB00020AA2846FEF76AF9002220A96846FEF743
:10DFC00097F96A4621462846FFF7A8FB21B09AE454
:10DFD0002DE9F74F78480C46154601684FF00009C7
:10DFE000B1F9EDA2217809B1491E2170617809B11A
:10DFF000491E61700268A178127D521E914201DAB9
:10E00000491CA17083460068E178407D401E814232
:10E0100001DA491CE170A0782870E07868702078F7
:10E02000A8706078E87067782FE0267807F101081B
:10E0300026E00098816ADBF80000027D08FB0260A0
:10E0400001EB4000B0F90000504517DB09F1010079
:10E0500000F0FF0929783046F5F7F9F8287069785B
:10E060003846F5F7F4F86870A9783046F5F7F3F814
:10E07000A870E9783846F5F7EEF8E870761CF6B245
:10E08000A078B042D5D208F0FF07E078B842CCD2F1
:10E09000484695E52DE9FF4F0A780292521ED2B20A
:10E0A00003928A789246521C02F0FF094A78019244
:10E0B000CD7841490E6837E000210B460C460091AF
:10E0C000039927E096F8148002F1010C876A0CFB93
:10E0D000081CBE4607EB4C074FF00208B7F900B02A
:10E0E00008EB4C0C0EEB0C07B7F90070ABEB070715
:10E0F000002F02DA4FF0010302E001DD4FF00203CE
:10E100002CB19C4203D0009C641CE4B20094491CD6
:10E110001C46C9B24945D5D90099012902D9002028
:10E1200004B0A1E6521CD2B29542C5D20199029B1D
:10E13000491E6D1C01F0FF0E05F0FF0845E000BF11
:10E140004FF0000B5A465C46714624E04D1C96F891
:10E1500014C0A946876A891C05FB0C3501FB0C31EC
:10E1600007EB450507EB4101B5F90050B1F9001087
:10E17000691A002902DA4FF0010202E001DD4FF0D6
:10E1800002022CB1944203D00BF1010101F0FF0B0C
:10E19000144609F0FF014145D8D9084909780129F9
:10E1A0000ED0BBF1010F0ED9002180F83010B6E778
:10E1B00062251000D8DD012038021000680210002E
:10E1C000BBF1020FF0D85B1CDBB29A45B8D201203C
:10E1D000A6E72DE9F0410024FF23254663F3070558
:10E1E00064F3174563F30F25274664F31F65012386
:10E1F00025E000BF01EB8306C5F3072896F801C0B0
:10E20000C44501D26CF30F2596F803C04FEA156898
:10E21000C44501D96CF31F6596F800C005F0FF08EE
:10E22000C44501D26CF30705B678C5F3074C6645C3
:10E2300001D966F3174532F813605B1C37448342FB
:10E24000D8D94FEA1568C5F3072CA8EB0C06C5F31F
:10E250000743EAB2761C9D1A6D1CFC49096891F8C7
:10E26000F117042909D1FA4948838E83A1F81EC009
:10E27000A1F820804D848A84CB84DFF8D88398F875
:10E280000010012909D1072E01D80F2D05D202282F
:10E2900003D988F8004000F0F0FEEF48082E09D9B5
:10E2A0000C2D07D9282F05D988F8004001210170CD
:10E2B000BDE8F0810470FBE72DE9F14FE6B00026E0
:10E2C000E648E74CADF86C6100686060DF4D00F532
:10E2D0008860A0602968B346B146B1F90E125D911D
:10E2E000B2464FF4886105F052FF286890F860103C
:10E2F000CA0701D1890704D5DA49097809B94FF06D
:10E30000010B90F8C00110ABC0F3C0006290002078
:10E3100010903DAA01216068FDF7C5FE06463DAAA2
:10E3200010A9FFF756FF10AB03AA3DA96068FDF7DF
:10E330000AFE012800D10126CB48AE4606732F689D
:10E3400001203A7D13E0012100EB0014C74DDFF8F6
:10E3500010C308E0DCF8048001EB440318F8033034
:10E36000AB54521C491C3B7D8B42F3DA401C797D37
:10E3700075468142E7DA01245CE1B5480D900E90C4
:10E38000E1B23DA88DF82E1030F81400ADF816005B
:10E390005BAA03A8CDE9000210A8DFF8C48200EB55
:10E3A000840254925FABD8F80400FFF722FD0746C1
:10E3B000ADF82C000020ADF82F008DF83C0088F857
:10E3C0000000BDF97E1159B1BDF97C0140B12A6848
:10E3D000137D5B1E994203D0517D491E884201D1B5
:10E3E000012000E000206490A148007800282868FF
:10E3F00005D0B0F8F4129F4802781AB105E0B0F8E1
:10E40000EB12F8E79C4B002018708F421EDA286848
:10E4100090F8EA02C00719D0012E17D1B2B963AA49
:10E4200003A85499FFF7D4FD296891F8EF128142AF
:10E430000CD263A8FFF794FD40B98F490120087002
:10E4400063A903A8FFF726FE8DF83C008B480078EF
:10E4500080075AD528688A4A90F8A71012889142F6
:10E460008849097801D211B14FE002294DD2BDF996
:10E470006C215D998A4248DA01218DF8241090F8C8
:10E48000A41058917F490978012905D190F8BC2042
:10E490005899114489B25891649901297ED090F815
:10E4A000A5005990784803A9549BB0F9002056A8BC
:10E4B000CDE900020291D8E90101E2B2FFF7D5FCF3
:10E4C0006A4980B2ADF816000855589988421CD99F
:10E4D0005999884219D86C48B0F90000874214DD78
:10E4E000286890F8A010890768D56849B0F8FD0041
:10E4F00009684043884261DBE1B203AB56AAD8F811
:10E500000800FFF75FFB012858D06148B0F9001000
:10E510008F427DDD3DA830F814005A905D48B0F977
:10E520000000884213DA56AACDE9002103A8029020
:10E53000D8F80410E2B2549B0846FFF796FC3DA9B8
:10E5400021F814005499569A0A60ADF8160028680C
:10E5500090F865704B48007848B15498FFF7ECFC90
:10E560000128286841D090F8BD00384487B23DA802
:10E5700030F81400B8425CD903A800904FF00109AC
:10E58000CA46E3B24746549A0D98D8F8041000F0F2
:10E5900045FA3DA8296830F8140000E00BE091F836
:10E5A0006720904224D32C480078012820D00420F2
:10E5B0008DF8240037E090F8A60072E70220ADF84D
:10E5C0002600ADF8280000208DF825004FF0010945
:10E5D000E1B203AB4746549AD8F80400FFF727F995
:10E5E000E1B203AB56AAB86821E090F8C300BCE7DB
:10E5F0001D4B02208DF82400BDF82A209A82B1F824
:10E600006E1058468A4200D200205A99032900E031
:10E6100046E008D338B10090E1B203AB549A786871
:10E62000FFF71FF8CAE0E1B203AB549A7868FEF72F
:10E63000A5FB641CB4427FF6A0AE174981F8009098
:10E64000164981F800A067B00EE4000038021000FF
:10E65000D8DD012096021000970210007002100011
:10E660005C0410005B0210006225100098CE0120AF
:10E670006A021000560210006B021000AE02100079
:10E680006A04100068021000A4041000A80410001E
:10E69000A20410009A041000580210005902100041
:10E6A000286890F8C011C907C3D04A4909680029F1
:10E6B000BFD0494909780029BBD18DF8241090F8C2
:10E6C000C001400705D5E1B210AAD8F80400FFF751
:10E6D0005BFC47F6FF705990649801283F4800782A
:10E6E00009D0012828680FD090F8CB713C480078F9
:10E6F00001280CD010E00128286802D090F8CD71D4
:10E70000F4E790F8CC71F1E790F8CA71EEE7286869
:10E7100090F8D901384487B23248B0F90010324835
:10E72000B0F90000814213DA56AACDE9002003A90E
:10E730000291D8F80410E2B2549B0846FFF795FB0B
:10E740003DA921F814005499569A0A60ADF81600B4
:10E750003DA830F81400B8427FF66BAF5999884253
:10E760003FF667AF66990220E3B2087003A80090F5
:10E770004746549A0D98D8F8041000F04FF9629863
:10E780000090E1B203AB549A7868FEF76AFF2868FC
:10E7900090F8C00180070DD510480078012809D1F4
:10E7A000E1B203AB549A7868FFF70CF8012801D165
:10E7B0000E490870629800283FF4FCAEE1B203AB4A
:10E7C000549A7868FEF781FF33E709480021017306
:10E7D000018070479C010022510210005A02100073
:10E7E000680210009A041000A6041000980410009B
:10E7F00062251000F0B5B2F900400568AC4202DDB8
:10E80000B3F900102EE002EB410434F9026CAE4281
:10E8100004DA03EB410131F9021C23E00024491E14
:10E820000BE000BF32F91470AF4205DC02EB440686
:10E83000B6F90270AF4202DA641C8C42F2DB32F9A4
:10E84000146003EB440133F91430B1F9021002EB08
:10E850004402AD1BC91AB2F902206943921B91FB15
:10E86000F2F119440160F0BDF0B50E462549096882
:10E8700001F275432AB3012A2CD0022A33D0032A8D
:10E880003ED191F811C601F2126291F8104602EBE6
:10E890004C0303EB4C0707EB440500BF0CEB0401F2
:10E8A0003E292DDCBCF1010F02DD6146FFF7A2FF1E
:10E8B000012C25DD2B463A4621463046BDE8F04086
:10E8C00098E791F870C491F8714403EB4C0591F806
:10E8D000721410E091F870C491F8714403EB4C0588
:10E8E00091F8731407E091F870C491F8714491F8AD
:10E8F000741403EB4C0503EB410202EB4C07CDE72C
:10E90000F0BD0000380210004FF47A72504390FBC3
:10E91000F1F1744810B5814201DAC01110BD42F620
:10E92000A640814201DD5A2010BD6F4A002000BF81
:10E9300032F910308B4205DC02EB4003B3F90230B0
:10E940008B4202DA401C4528F2D332F9104000EB2A
:10E95000800302EB4000091BB0F90200553B001B8D
:10E9600001EB810191FBF0F0184410BD30B50D466C
:10E970000446FFF7C9FF00EBD0704010002D02D015
:10E980000DDD34B130BD002C03D005DD4FF02D007E
:10E9900030BD4FF0000030BD4FF05A0030BD002CAC
:10E9A00003D005DD00F15A0030BD6FF0590030BDD5
:10E9B000A0F15A0030BD10B58C1A00D56442002871
:10E9C00000DA404204EB400011440A18081A5210C1
:10E9D00040104FF47A71484390FBF2F0C0F57A7022
:10E9E000D88310BD30B5827803784D89D21AC378A8
:10E9F0004078521C1B1A5B1C05FB02F0D4185D43C7
:10EA000040006A00B0FBF4F0B2FBF4F2904202D98D
:10EA100048838A8330BD4A83888330BD2DE9FF4F08
:10EA20000027164682B03A463C46BC46BB46BA462C
:10EA3000707896F8039025E0039900EB001301EB42
:10EA40004301223101913178009196F8028016E05D
:10EA5000019B0B445D78059B9D420FD1A9EB000300
:10EA600003F1010E009B0EFB0EAACD1A6D1C05FBD7
:10EA700005BB05FB0ECC7F1C2A447444491C884509
:10EA8000E6DA401C8145D7DA4FF47A70504390FBA8
:10EA9000F7F101FB04F54FF47A734FF47A70604399
:10EAA00090FBF7F0514391FBF3F2604390FBF3F1DD
:10EAB00095FBF3F5ACEB0505ABEB0207AAEB010404
:10EAC0006800391BFFF752FF0F99224648763946F6
:10EAD00028460F9BFFF76FFF0F9906B03046BDE841
:10EAE000F04F7FE75AD3FFFF4C450100FE4900205D
:10EAF0000870FE490870FE490870704770B5FD48FF
:10EB00000022FD49027001200870FC490A70FC498E
:10EB10000A70FC490A70FC490A70FC490A70FC49F9
:10EB20000870FC480270FC4BFC48FE4C1A709A605E
:10EB3000DA600270FA48FC49FC4E02702068B0F8B6
:10EB400062500D80B0F8A1103180F94EB0F8C601C6
:10EB50003080F84E3580F84D2980F8490880F84813
:10EB60000280FFF7C3FFF7480270216891F81A0787
:10EB70001861F5480260426091F81A17816070BD13
:10EB80002DE9FF4FE74A9B4681B01268012592F8B4
:10EB900015C0137D0CF1010C69E000BF4FF0000AB5
:10EBA00047F6F8724FF001095442D6465646CDF862
:10EBB000009019E005FB036730F8178031F81770F3
:10EBC000A7EB08073FB2BA4200DD3A46BC4200DA82
:10EBD0003C46002F02DA4FF0000903E002DD4FF05F
:10EBE0000007009706F101069E42E3DB009E59EA0A
:10EBF000060709D0B9F1010F03D0B9F1000F05D014
:10EC000008E0009C012C05D1002203E0009E012EAB
:10EC100000D12246002412E005FB034630F81670AE
:10EC200031F816601744F61B36B25E4506DACBF1B2
:10EC30000007BE4202DDB2440EF1010E641C9C428C
:10EC4000EADBBEF1000F01DD9AFBFEFA0AEB0204DB
:10EC5000002209E005FB0326DDF80C8030F8167071
:10EC6000521C274428F816709A42F3DB6D1C654548
:10EC700094DB05B0BDE8F08FF0B4C2F1100422B10E
:10EC8000012B02D00023A74F0EE0F0BCF5F781B8AE
:10EC900031F9135030F91360554306FB045545F321
:10ECA0000F1521F813505B1C3E68757D367D6D1C79
:10ECB00075439D42ECDCF0BC70472DE9FC5F994D3B
:10ECC0000746934628680C469846007D0026420079
:10ECD00001EB80004FF001093946F5F736F8286856
:10ECE000417D007D491C4143420000EB400007EBA1
:10ECF000410104EB4000F5F728F802274FF0300AF5
:10ED000028683023007DCDE900A000FB07F104EB6B
:10ED1000410002462146F5F755F97F1C042FEFDB31
:10ED200000202CE000EB420334F9101034F91330CA
:10ED3000C91A01D5C1F1000100EB820224F81210BA
:10ED40002A6834F91010127D02EB4203034434F9AF
:10ED50001330C91A00D5494202EB8202024409B2BB
:10ED600024F812102A68127D00EB820234F9123066
:10ED7000434500DD761C414500DD761C401C2968BA
:10ED80000A7D8242CEDCD1B201EB410145F2AA50AC
:10ED900024F8210028685E45007D00EB400004EB6C
:10EDA000800046802968097D01EB410104EB810167
:10EDB000A1F8048001DD4FF000094846BDE8FC9F42
:10EDC0002DE9F04F824657488946002605683446AB
:10EDD000287D6B7DB5F8F6C2591C024641430EE012
:10EDE00039F912B03AF912700BEB0C08474505DD02
:10EDF000B7EB0B0700D57F423E44641C521C914286
:10EE0000EEDC95F836C000250127434AA4451FD9FA
:10EE10000026344658430EE039F910303AF9108094
:10EE200003F1C80CE04505DDB8EB030300D55B42F8
:10EE30001C44761C401C8142EEDC34B12EB1D068FB
:10EE400008B1012016E7D76000E0D560002011E787
:10EE5000002EFAD0A445F8D2F1E72DE9FF4FDFF8F4
:10EE6000C48001240025D8F8000081B000F1200002
:10EE70001F46C17D007801F00F0101EB8101914631
:10EE80004FEA410A0007A3462DD53148CDF800B01E
:10EE90005E4601682D4A0198F4F782FDD8F800001B
:10EEA00090F82000400607D52B4800963B460168A5
:10EEB000284A0198F4F7B2FC284924480A680368F4
:10EEC0004668D21A4B689B1B1A448B688668C968CF
:10EED000C0689B1B081A1A44861832460021F1208C
:10EEE000FCF73BFB3CE074E05A0210009804100071
:10EEF00051021000560210004E021000570210007E
:10EF0000580210005902100054021000550210005F
:10EF100095021000A702100068041000960210006D
:10EF200097021000380210009C0410009E0410008C
:10EF3000A0041000A2041000A4041000A6041000F5
:10EF40009A041000C5021000C82E012038241000B9
:10EF500078021000482410007C02100018241000D1
:10EF6000D8F8000090F82000400610D5FD48FE4972
:10EF700002680B684F68D21A4368DB1B1A44836827
:10EF80008F68C068C968DB1B1A44401A87183A4664
:10EF90000021F220FCF7E1FAD8F80000F34AF44B24
:10EFA00090F820105FEA416C14D509071CD5B0F821
:10EFB0002812B94203DBB0F87810B1421DDAB0F87C
:10EFC0002C121268914218DDB0F82A02196812E07A
:10EFD000002412E05FEA017C04D5B0F87810B14259
:10EFE000F2DB0AE0490608D5B0F82812B94204DA83
:10EFF000B0F82C0211688842EADCD8F800004646D6
:10F0000090F8200080070BD5DA48007840B9DA483C
:10F01000007828B9DDE90101FFF7D2FE00B1002434
:10F02000D6480021027892B189F800108268521CFB
:10F030008260336893F837301B0903EB8303B2EB2C
:10F04000430F02DD816001700125284611E624B1DD
:10F05000C0F8081089F80040F7E78268531C836005
:10F060005245F7DD80F800B08160326892F83720B1
:10F070001209EFD101700125ECE72DE9F05FC048DE
:10F080000168C048B1F9A120007801280DD0B1F97C
:10F09000620000BFBC4CB1F9C6312578B84C012DD7
:10F0A000246894F8C09103D012E091F83707F1E793
:10F0B000B64C246864B1B1F9AD20B1F96C005FEAD7
:10F0C000897405D5B24C2478012C01D1B1F96A00BC
:10F0D000A84C2478012C2ED0022C06D3B1F8BE20E7
:10F0E0000AB1B1F9BE0002461346DFF8A8B2AA4C35
:10F0F0000546ABF800202080A84CDFF8A8E2DFF836
:10F10000A8A2238091F864601C46801B06B291F887
:10F11000A300101A07B291F8C301181AA04B0FFAF6
:10F1200080FCA2481F80AEF80060AAF800C00078FA
:10F1300001280DD03AE091F8BA40224491F8BB4042
:10F1400012B2204491F8DA4100B223441BB2CCE75A
:10F1500091F8CC00642100FB05F8B8FBF1F84544B8
:10F16000DFF83482A8F8005000FB02F8B8FBF1F891
:10F1700000FB04F5B5FBF1F54244ABF80020874AEB
:10F180002C44148000FB06F400FB07F2B4FBF1F4FE
:10F19000B2FBF1F200FB0CF0B0FBF1F03444AEF83E
:10F1A00000403A441A806044AAF800008048007881
:10F1B000800706D478480188ABF80010BEF800003C
:10F1C00018805FEAC97002D07048006830B973488F
:10F1D000BBF8001001801988AAF80010BAF90020C5
:10F1E000BEF90010B3F90000F4F739F8714908804E
:10F1F000BDE8F09F624A10B51268537D127D5B1C1A
:10F20000534306E030F912408C4201DD012010BD6D
:10F21000521C9A42F6DB002010BD2DE9F74F82B058
:10F2200065484FF00009CDF800900C460068924602
:10F230004FF40861019004F0AAFF5148C846CAF88B
:10F2400000800268DFF874B1DFF874E192F811070A
:10F25000C00740D09BF80000E8BB9EF80000E8BB68
:10F260000027507D3D46811E167D0CE0002307E0FF
:10F2700001FB063C34F91CC0AC4500DD65465B1C57
:10F280009E42F5DC491C8842F0DA4E49454B91F824
:10F2900000C0BCF1000F05D0B3F900C0654501DC2A
:10F2A00081F80080011FB3F90050831E0DE000209B
:10F2B00008E000BF01FB060C34F91CC0AC4500DDC2
:10F2C0007F1C401C8642F5DC491C8B42EFDA032F81
:10F2D00001D9012000909BF8000000E001E0012826
:10F2E00007D0107D5FF001019EF80030012B07D0A0
:10F2F0000BE0507D137D411E01FB03F0C9B2F3E723
:10F30000517D107D491E4843C9B22A4FDFF870B0C5
:10F3100081E000BF019A01EB011502EB450E0122CD
:10F3200073E000BF34F91030DDF808C0401C6345BD
:10F330006ADDDFF890C09CF800C0BCF1010F57D126
:10F3400095F815C0ACF1020C8C4551DA95F81157BF
:10F35000ED074DD0009D25B1A0EB060C34F91C80C3
:10F3600032E045E028241000482410008C021000F0
:10F370008802100068021000580210006804100093
:10F3800038021000960210005A0210009C01002260
:10F39000980410009E0410009C041000A0041000AB
:10F3A000A4041000A2041000A60410006A021000B9
:10F3B000AE0210009A04100070021000B10210009A
:10F3C000B20210006C021000B7F90050A8451BDC17
:10F3D000012A05DD04EB4C0838F9028CA84513DC42
:10F3E000964205DD04EB4C06B6F90260AE420BDC3A
:10F3F00001250EF8025009F101051FFA85F9DAF826
:10F4000000501D44CAF80050521CDBF800502E7DFD
:10F41000964287DA491CDBF80020527D8A42BFF60B
:10F4200079AF484625E42DE9F34FFD498446002095
:10F430000C6881B00646B4F93927B4F93DB7022308
:10F44000DFF8E0E38BE0012184E000BFA3F10108D5
:10F4500005FB08F805FB03F70CEB480903F101086D
:10F4600005FB08F50CEB47070CEB450A37F9115083
:10F47000B4F83B87454501DC5D4502DA0020BDE874
:10F48000FE8FDDF80880454563DD94F8F157042DC3
:10F4900036D109EB4108CDF8008038F8028CAEF87F
:10F4A000008039F81180AEF80280DDF800807546E2
:10F4B000B8F80280AEF8048007EB4108CDF8008070
:10F4C00038F8028CAEF8068037F81180AEF8088064
:10F4D000DDF80080B8F80280AEF80A800AEB410837
:10F4E000CDF8008038F8028CA5F80C803AF811802D
:10F4F000A5F80E80DDF80080B8F80280AEF8108024
:10F5000009EB410535F9028C90451FDB39F9118073
:10F5100090451BDBB5F90250954217DB07EB41051F
:10F5200035F9027C974211DBB5F9025095420DDBAB
:10F530000AEB410535F9027C974207DB3AF9117075
:10F54000974203DBB5F90250954201DA401C80B2C4
:10F55000761C491C257D8D423FF778AF5B1C617D91
:10F5600099423FF770AF94F8F117042987D13723F8
:10F57000AEF81230AEF81400AEF81620AEF81860EF
:10F580007DE7F0B5A64E33685D7D1B7D6D1C5D4348
:10F590000024274609E000BF30F913C0944502DA81
:10F5A00021F8137000E0641C5B1CAB42F4DB306894
:10F5B000B0F89A00A04201DD0020F0BD0120F0BDAE
:10F5C000F0B50025964C26E000220123767D0EE062
:10F5D00003FB075C30F91CC0BCF1000F04DD0AB16D
:10F5E000944503DA624601E00022731C5B1C9E42D4
:10F5F000EEDA002A0EDD012308E0367D03FB065615
:10F6000030F81670BF1A21F816705B1C2668777DDB
:10F610009F42F2DA6D1C2668377DAF42D4DCF0BD24
:10F620002DE9F0437E4B81461868467D057D761CAA
:10F63000002028E01A6892F85C20642A05D9C2F1FB
:10F640006402424392FBF5F405E0643A02FB00F4E5
:10F6500094FBF5F4141B643401224FF064080FE0AE
:10F660001F683F7D02FB070739F917C0BCF1000F87
:10F6700005DD0CFB04FC9CFBF8FC21F817C0521CB8
:10F68000B242EDDB401CA842D4DBBDE8F0832DE99B
:10F69000F047634B81468A461868447D057D641CAB
:10F6A00001202EE01E6896F85D10642907D9C1F18B
:10F6B0006401421E5143727D91FBF2F206E064390F
:10F6C000421E777D4A4392FBF7F28A1A317D6432FB
:10F6D000414309EB41060AEB410700214FF0640862
:10F6E0000CE000BF36F911C0BCF1000F05DD0CFBCA
:10F6F00002FC9CFBF8FC27F811C0491CA942F1DB75
:10F70000401CA042CEDBBDE8F0872DE9F04F044657
:10F7100000208BB08246054609901C21684604F003
:10F7200058FD4FF0FF30DFF800E10790089000210E
:10F730009EF80000DFF8F4B00B460A9020B93C4A6E
:10F74000481E10708BF80000354A0020814616686C
:10F7500096F816777EE000BF96F8142796F814C046
:10F7600002FB0C0234F91220914200DA1146962A6B
:10F770003DDDDDF828C0BCF1000F21D0DFF8B4C0BA
:10F780009CF80080B8F1640F2ED208F101088CF8C3
:10F790000080DFF89C8098F900C0844506DDACEB62
:10F7A000000CBCF1020F01DA88F800009BF900C0E0
:10F7B000844519DAA0EB0C0CBCF1030F12DB13E04B
:10F7C000DFF86C8098F900C01CF1010C06D14FFAEB
:10F7D00080FC88F800C01CF1010C05D098F900C02D
:10F7E000604501DD8BF80000BAF1000F03D0BAF1DB
:10F7F000010F07D029E0DDF824C0944525DA4FF049
:10F80000010A24E0DDF824C0624515DD0DEB000897
:10F810004FF0010C08F8019C0DF800C017E0000043
:10F8200038021000D8DD0120C5021000C702100008
:10F83000C6021000C802100007DA0DEB00084FF0F6
:10F84000010C4FF0000A08F801CC0DF8009000F10F
:10F8500001000992FE4A8742BFF67EAFBAF1010F5E
:10F8600004D168444FF0010800F8018C0020EC46F8
:10F8700011E000BF1CF80080B8F1000F0AD06D1C29
:10F88000DDF81C80EDB218F101084FFA80F809D0BC
:10F89000CDF82080401C8742ECDA012D10D9022DD2
:10F8A00003D00BE0CDF81C80F4E7DDE90730C01A87
:10F8B000062803DD00238EF8009001E096F8193742
:10F8C000904696F81927E3489A420EDC9EF80020ED
:10F8D00022B90269002A01DD521E04E001228EF8DD
:10F8E000002096F81B2702610DE0DB4B83F80090A7
:10F8F0008EF8009096F81A270261D84A4FF0FF3030
:10F9000010708BF80000D54A92F90000401C03D01B
:10F910009BF90000401C06D196F81507107096F868
:10F9200016378BF800309EF80000012860D1CC48D3
:10F930000078E0B396F814074346401EC0B24FF07B
:10F940000A0A19E0002511E01E6891FBFAFC367DD9
:10F9500000FB065634F91670A7EB0C07002F02DDEA
:10F9600024F8167001E024F816906D1C92F90060DE
:10F97000B542E9DB401CC0B21D6895F814578542BA
:10F98000E0D2196892F9006091F81457097D05FBDF
:10F99000016124F81190D8F8001092F9005091F804
:10F9A0001437097D5B1E03FB015124F81190D8F830
:10F9B000000043464E4690F814075D46401EC0B214
:10F9C00010E000BF92F9001006E01F683F7D00FBC9
:10F9D0000717491C24F8176095F90070B942F4DD47
:10F9E000401CC0B2196891F81417491E8142E9DA27
:10F9F0000BB0BDE8F08F2DE9FE4F80469948944C3E
:10FA000000270578077020683E4690F80526100903
:10FA100000EBC00101EB001393490868B0EB830FC2
:10FA200003D2D20701D0401C08600320F0F717FE74
:10FA3000FFF723FB8D482B468D4902684046FFF7B0
:10FA40001BF92B4602AA8B498948FFF706FA05469F
:10FA50009DF80800DFF82082DFF82092F0B32068DC
:10FA600090F84000800710D58548B0F900208548FF
:10FA7000B0F900108448B0F90000F3F7F0FB7C4ABD
:10FA800003B27C491046FFF77BF8804D794A7848ED
:10FA90002968F4F722FB0320F0F7FCFD206890F8BA
:10FAA0004000400703D529680846FFF789FD206814
:10FAB00090F84000000703D529680846FFF7E7FDE6
:10FAC000206890F84000C00603D529680846FFF773
:10FAD000A7FD206890F81107800700E008E0DFF834
:10FAE000B0A1DFF8B0B129D56B480078B0B125E0FE
:10FAF0000320F0F7CFFD012D0FD1D8F80010012021
:10FB000041F00501C8F80010D9F8001041F4007167
:10FB1000C9F80010A902F0F7B1FC80E0BBF90010B1
:10FB20002868FFF780FC216891F83817884205D9CA
:10FB300001208AF80000FFF7A0FA01E08AF80060CF
:10FB4000206890F8601049071DD52968B0F9682031
:10FB50000846FFF716FD012815D1206890F86000CF
:10FB6000800610D5D8F80010012041F00501C8F832
:10FB70000010D9F8001041F48061C9F800104FF46A
:10FB80008061F0F77BFC4548454A007802282068F0
:10FB900020D0007D02EB40012A6802EB4000F4F720
:10FBA000F8F82068A14690F81107C00702D03C4839
:10FBB000FFF7ABFDD846BBF900103948FFF71AFB39
:10FBC000DFF8E0C0384D394C9CF80010D9B101285D
:10FBD00038D01AE090F840104906E2D58DF804605C
:10FBE0008DF80560017D491E8DF80610417D00925B
:10FBF000491E8DF80710B0F95A202D4901A82B682D
:10FC0000FDF74EFCCDE701280BD02A488CF80060A8
:10FC1000294906702E70087808B1401E08703846D1
:10FC20002DE41848B0F900101D48FFF7E3FA8CF8EE
:10FC300000002680D9F8000090F82901000701D5BE
:10FC4000FBF7B5FB0127034A2F70121D144935E05D
:10FC50003802100068041000C8021000C60210002C
:10FC6000530210004E0210006402100084041000C1
:10FC700058D6012056000120400210004402100016
:10FC8000A00410009C0410009E04100070021000DC
:10FC9000960210009A0410006A0210006802100018
:10FCA000D8DD012058021000570210004C0210004D
:10FCB000924501005902100051021000B8F90000ED
:10FCC000FFF7ABFA2649488021888142A7D22080DD
:10FCD000A5E770B505460320F0F7C1FC2248214C8A
:10FCE0002249026823782846FEF7C6FF204D0020EF
:10FCF0002070286890F84010890706D51B4AB0F993
:10FD000062301C491046FEF73BFF1B4C194A17484E
:10FD10002168F4F7E2F9286890F84000400703D51D
:10FD200021680846FFF74CFC286890F8400000075F
:10FD300003D521680846FFF7AAFC286890F8400020
:10FD4000C00603D521680846FFF76AFC0B49206806
:10FD5000F4F71FF8BDE870400320F0F79BBC0000EB
:10FD6000680410004E0210008404100058D60120D0
:10FD7000380210005600012070021000D8DD01206A
:10FD8000FD48FE4A006830F8E81F1180FC49807980
:10FD9000C8807047FA480021F74A41808180C160DD
:10FDA000126892F843201209826001610170F548DF
:10FDB000017070472DE9F041EF4DF04A2F6897F838
:10FDC000D0C0B7F8E8605FEACC714AD097F8ED3060
:10FDD00003B90123118897F8ECE0A1EB060404FBBA
:10FDE0000EF494FBF3F3B7F8EA405FEACC6C01EB56
:10FDF000040E734400D52346E14C984211DD0026E1
:10FE000010210120E660F0F739FB286890F86010B7
:10FE1000490602D5DC4A01211170A68090F8EE0057
:10FE200006E0814202D9D74B1B7823B197F8EE0048
:10FE3000E080BDE8F081D54B1B78002BF9D1B4F9F7
:10FE40000630002B01DD5B1EE380E388002BF0D140
:10FE5000891E814200DA01468E4200DD3146118062
:10FE6000E7E71680E5E7F0B5C349C54D096891F8A5
:10FE70004020D20753D0C34A1778C54A1278AFB191
:10FE8000012A09D091F84330B1F84A6003F00F021B
:10FE90001C09B1F8483015E091F84D30B1F85460C4
:10FEA00003F00F021C09B1F852300BE0012A1AD0FE
:10FEB00011F8423F03F00F024FEA13144B888E886B
:10FEC000A1F1420191F820C15FEACC7C16D0DFF8A5
:10FED000C4C2BCF800C05FEA4C5C0FD591F8251194
:10FEE00057B10A090AE011F84C3F03F00F021C0950
:10FEF0004B888E884C39E5E701F00F02984201DC0F
:10FF0000AA60F0BDB04201DBAC60F0BDC01AA11A1E
:10FF10004843F11A90FBF1F01044A860F0BD0020B6
:10FF2000FBE7954A10B512680021B2F8B830834259
:10FF300005D292F8B0301B0701D5032112E0B2F8C8
:10FF4000B630834205D292F8B0305B0701D502216A
:10FF500008E0B2F8B430834204D292F8B0008007CF
:10FF600000D501218648874C0378994211D1217828
:10FF700099420AD0854A1278134307D00169491E75
:10FF80000161002901DC0078207010BD0170016959
:10FF9000F7E759B1022901D1012B07D092F8B2201D
:10FFA00002610170002AF0DC217010BD92F8B320CC
:10FFB000F6E77149096891F8B010CA0670490DD585
:10FFC0008A88831A002B09DC704B1B784BB1C2EB7B
:10FFD0000212520002EB4000C0F34F10888080B242
:10FFE0007047C2EB82121044C0F38F10F6E72DE980
:10FFF000F043614E0546A3B03768802197F8B10001
:020000021000EC
:1000000000F00F04641C02A804F0E3F897F85F0402
:10001000C00714D0002710E03168087DB1F96234C0
:10002000CDE9003000FB07F2B1F9603405EB420086
:1000300002462946F3F7C6FF7F1CA742ECDB306877
:100040000023814602A9007D11E000BF00FB03F6FA
:10005000002209E006EB020C51F8227035F91CC0B1
:10006000674441F82270521C9042F3DC5B1CA342AF
:10007000ECDB002207E000BF51F8223093FBF4F3E1
:1000800041F82230521C9042F6DC002213462AE04E
:1000900000273E460DE000BF06FB003C51F82380E0
:1000A00035F91CC0BCEB080C01D5CCF1000C674441
:1000B000761CA642F0DB97FBF4F699F82071FF0757
:1000C0000DD0344F3F887F0509D599F824714FEA48
:1000D000171C0CFB06FC07F00F069CFBF6F696427D
:1000E00000DD32465B1C9842D2DCB2F5803F04DB77
:1000F0004FF6FF7023B0BDE8F08390B2FAE710B579
:10010000FFF775FFFFF755FF1D4C4FF00051020A36
:1001100060804A738873FFF704FF6088FFF7A3FECF
:100120006088BDE8104045E6F0B4134A116891F8C4
:10013000B130097D03F00F04114B641CDD6895FBA1
:10014000F4F604FB16556943134D05EB41050021F8
:1001500005E000BF30F8116025F81160491C1668F1
:10016000367D8E42F6DCD868401CD860A04215DB94
:10017000F0BC0948C3E70000380210005825100001
:100180007C04100068021000A70210005802100042
:100190005A0210009002100058D20120F0BC7047A3
:1001A00031B56846FEF788F8FE4C2078022805D164
:1001B0009DF80000012801D102F03DF89DF80000F3
:1001C000207038BD10B5FEF700FBBDE8104001F00F
:1001D0005DBF10B5FEF792FCFBF780FE01F03AFF21
:1001E000BDE81040FFF7D6BDEE4810B500214160D4
:1001F0008170FFF7EEFFEC48006890F8E8010028F6
:1002000003D0BDE81040FBF713BC10BD70B500254E
:10021000FFF7F1FB040008D0E4480078012801D181
:1002200001F084FF012C03D007E0FFF7CBFF13E0C0
:100230002046FFF7B5FF01F039FFDD4801250078C2
:1002400050B1DC4901200870D748006890F8F002EE
:10025000C00701D0F9F73CFE284670BDD24910B561
:100260000C6804F2223414F8013C2178A2886488D6
:10027000A04201D9184610BD904201D2084610BDD7
:10028000801A5B1A5843A21AB0FBF2F0084410BD62
:100290002DE9F047C44A81460020D2F800C0064646
:1002A00001469CF814401DE04FF0000A39F9113066
:1002B00001229CF815500EE002FB0417A3F101087F
:1002C00039F91770474505DB03F10108474501DCA3
:1002D0000AF1010A521C9542EEDA6D1E554500D80E
:1002E000761C491C8C42DFDC0321B4FBF1F1B142E6
:1002F00000D20120BDE8F0872DE9F34F8B46AA49D3
:10030000002583B008682C46467D027D761C564346
:100310001FFA86FCA84E13463678042E7DD18A46F5
:1003200090F86010C9064BD51946DFF890920BE0A3
:1003300039F91160B0F85E70BE4203DA002005B0F2
:10034000BDE8F08F491C89B26145F1D3194635E00B
:10035000039E39F8117036F81160BE1B90F85C707E
:1003600036B2642F0AD9C7F16408B1FBF3F703FB77
:10037000171707FB08F797FBF2F70AE0B1FBF3F852
:1003800003FB1818643F08FB07F898FBF2F8A7EB8B
:1003900008076437002E04DD7E43642796FBF7F6DA
:1003A00036B2B0F8FC76B74204DBB0F8FA767F429A
:1003B000B74201DD012503E0491C89B26145C7D37D
:1003C00090F86100DFF8F8815646000723D5D8F889
:1003D0000000FFF743FF0446BBF1010F10D1794F36
:1003E00020201F233978CDE9000130687649027D4D
:1003F0000398F9F7B8FB3878012801D1002038704C
:100400004DB930682346704990F820230398FEF7D1
:1004100054FC00B91025306800E00EE090F8F107B8
:1004200001280AD1694801210180D8F800100A1476
:10043000428081802114C180048128467FE72DE914
:10044000F04759480026624F02683146507D127DC0
:10045000401C00FB02F8387840B3DFF878A1002494
:100460004FF00109387809FA04F5054215D05A48C9
:100470000078A04200D10121584A04FB08F002EBA9
:100480004000FFF739FF98B1A04030439AF80010C0
:10049000C6B2A9438AF800100021641C042CE1D3E1
:1004A0009AF8000000B1002600203870304621E79D
:1004B0009AF800100D438AF80050EDE72DE9F05F3F
:1004C000394A06460125002710688B0403D590F8A9
:1004D000F93603F00F05C90409D590F8F9160D098E
:1004E0003F49097809B93F490D783B490F78447D68
:1004F000007D641C4443DFF8E4B09246012D43D9EB
:10050000344A4FF0000948464FF00108117808E0DE
:1005100008FA00F30B4203D009F1010303F0FF09CD
:10052000401CA842F4D3C80705D062002B493046CE
:10053000F3F70BFC03E06100304603F028FEDAF825
:1005400000004246DFF88CE0007D1BE0012110E056
:100550009EF800C002FA01F313EA0C0F08D001FB69
:10056000040836F810303BF818C0634426F8103001
:10057000491CA942ECD336F9103093FBF9F126F867
:100580001010401CA042E1D3DAF8000067430BEBE7
:100590004701007D42003046F3F7D7FB0120BDE85C
:1005A000F09F00009004100038021000C5021000F7
:1005B000560210009C0210009E02100056000120FE
:1005C0006C0410009502100058E50120D8DD0120D0
:1005D00014041000150410001804100040B001208D
:1005E00016041000170410002DE9F041A64E4FF03C
:1005F00000084546308810F4405F07D0FFF71FFF22
:100600000446A2483168FFF759FF04E001219F48E2
:10061000FFF772FE04469E4E4FF00007306890F8D8
:100620006100C00607D59948FFF732FE0146994898
:10063000012913D0077064B197490120054608705D
:100640009649087096482146B0F90020FD20FAF737
:1006500084FF9448017801290DD020E00178491CDD
:10066000C9B201705A29E6D9ED214EF6ED5208467D
:10067000FAF7A1FFDFE7316891F8601049060ED55F
:1006800089498A4A49881288914201D1077006E057
:1006900001254FF6FF722946FC20FAF75EFF30680D
:1006A00090F8B000C00702D07848FFF73DFD25B9AB
:1006B0007F497648FFF7AAFD80464046BDE8F081B5
:1006C0002DE9F041704F7B4800263C680442F5D08C
:1006D000794D686804400620EFF7C1FFA00703D5F5
:1006E0007648FBF7ADFA0646E00702D0FFF77CFF3D
:1006F00006433868002802DA3046FBF7B1FB644C49
:10070000206890F81107400601D5FBF741FB2068EF
:1007100090F85E14A878814203D8FBF7BBFB002059
:1007200000E0401CA870BDE8F0410620EFF7B2BF22
:10073000C4E710B56248604900684C6844400ED078
:100740004860A00701D5FBF773F9E00701D0FFF778
:1007500040FD600603D5BDE81040FEF7C7B910BDE7
:1007600070B54948002405785348007905400620B3
:10077000EFF775FFE8072ED0454D286890F8100177
:10078000000728D54F4E3078C00705D03F48FFF707
:10079000A0FA02F0C1FD04463078010711D5C00768
:1007A00002D13A48FFF795FA2868417D007D491E3D
:1007B0004143454800EB410002F08EFF012800D183
:1007C000012442480078072805D1012C03D140219B
:1007D0000220EFF753FEBDE870400620EFF75ABF46
:1007E000354C08B500256570FFF7CAFA607878B314
:1007F0000128FBD16B46002240F285210320EFF750
:100800008DFE0098C00706D001210320EFF765FE9A
:100810006570FFF7E9FC0098400705D50421032027
:10082000EFF75BFEFFF74CFF0098800506D54FF40D
:1008300000710320EFF751FEFFF792FF00980006CA
:10084000D4D580210320EFF748FEFFF772FFCDE7F4
:10085000FFE703210020F2F78AFE6B460022022107
:100860000320EFF75BFE03210120F2F780FE0098E2
:100870008007BBD5FFF7B8FC40F287210320EFF7D4
:100880002CFE01206070B1E790021000200B1000D8
:1008900038021000C40210004E021000A602100020
:1008A00060031000A702100058251000A8021000D5
:1008B000D0A5012003000080900410003A2E0120F2
:1008C00008051000AE021000D8DD01209E021000C5
:1008D000FC480021017041607047FB480178FB48EB
:1008E00019B9017821F001010170F949097800294D
:1008F00003D1017821F002010170704738B5044638
:10090000F448F5490068097890F82851012903D185
:10091000211D01D190F8C25194F8D100002816D1C0
:1009200004F14602111F684602F042F9BDF90200C7
:10093000002800DA4042A84206DCBDF90000002889
:1009400000DA4042A84202DD012084F8D10038BD1F
:1009500010B5827F90F82010531ADB1C042B06D9A7
:10096000C37F90F821401B1B9B1C022B10D9DB4B33
:100970001B787BB12AB1D74A1268127D521E914270
:1009800008D1C17F90F82100081A401C022801D824
:10099000012010BD002010BDCE4990F8210009684B
:1009A00091F81417884201D3012070470020704746
:1009B0002DE9F84FDFF81C9305464FF00008D9F8F1
:1009C000000090F80506010901EBC10202EB0111DC
:1009D000C34A1268B2EB810F01D3C0F342086B68BF
:1009E0004FF0000A1804000C13D000220A2610460B
:1009F0005FF0010707FA00F10B4217D0C0EBC0010E
:100A000005EB4111103191F82240012C06D00A2645
:100A10000FE0AE4981F800A0BDE8F88FCC680989E5
:100A200094FBF1F1914201DD0A460646401C0A287A
:100A3000E0DBDFF890B24FF0000C00BF686807FA07
:100A40000CF108420AD0CCEBCC0005EB401410347A
:100A500094F82200012802D0072874D0B2E00220C6
:100A600084F82200207960B19C48017899B3D9F8C4
:100A70000010664591F8C01039D100BF01F00F0198
:100A800036E098480078012809D097480078012876
:100A9000D9F8000022D090F8CF01E07040E08F48F4
:100AA000007840B1D9F80000664590F8D80113D11C
:100AB00000F00F00F1E7D9F80000664506D190F884
:100AC000D00100F00F0101EB0800E6E790F8D0112B
:100AD00008EB1110E1E704E00009DEE790F8D4012B
:100AE000DBE7D9F80010664591F88210C6D00909F5
:100AF000E17094F8D010012909D07C4909780129C6
:100B00000ED1D9F8001091F81117C90608D5007850
:100B100008B984F803A07648016841F00401016037
:100B20002046FFF715FF01280ED0607807FA00F283
:100B3000DBF804009043CBF804002046FFF72CFFBD
:100B4000012813D03EE017E0D9F80000E17890F8D2
:100B5000830000F00F000844E0706078DBF80420A8
:100B600007FA00F11143CBF80410E6E7D9F80000CA
:100B700090F81D07E07025E0082084F8220057480F
:100B800000780028D9F8000017D090F8C10000BF05
:100B900000F00F00E070D9F80000616A90F885005D
:100BA000B1EB101F04DDE17800F00F000844E070A5
:100BB00094F8D000012803D004E090F88400E7E71F
:100BC00084F803A00CF1010CBCF10A0FFFF636AF5C
:100BD0005FF00006686807FA06F108423ED0C6EBEF
:100BE000C60005EB40141034B8466178DC4607FABD
:100BF00001F0DBF80410084219D02046FFF7A8FEE8
:100C0000A8B9D9F80000E17890F8830000F00F004F
:100C1000081A002801DDE07001E084F803A0607884
:100C2000DCF8041008FA00F08143CCF80410D9F87D
:100C3000000090F82901C00702D02046FFF75EFEB1
:100C4000E078E8BB94F8220002280CD0012806D0F6
:100C500008285ED009287DD0207990B3B1E094F8BF
:100C6000D0000128F8D1032084F822002048016830
:100C700041F002010160207948B91A48007818B99A
:100C80004FF48670FAF759FD164880F800800E4838
:100C90000078012833D10D490320087020790228FB
:100CA0002DD1DFF8408098F80000012802D10C20F7
:100CB000FAF743FD0F480521017088F800A01BE0FA
:100CC0007CE05AE0AC0410005802100056021000FC
:100CD0005702100038021000530210006802100082
:100CE000640210005A021000520210009702100015
:100CF000C0021000510210004F4981F800A04F4877
:100D00000078012858D14E48017841F00201017065
:100D100052E0D9F8000090F82911C90727D094F8BB
:100D2000D110012923D1474990F828810978012958
:100D300003D1217909B990F8C28104F14602111F4B
:100D4000684601F035FFBDF90200002800DA404294
:100D5000404500E00BE006DCBDF90000002800DAA9
:100D60004042404503DD092084F8220024E00A20A7
:100D700084F82200FFF7B1FD1EE0D9F80000E17908
:100D800090F8CF0181421CD9022020712C49DFF854
:100D9000B88084F807A00320087098F800000128A4
:100DA00002D10C20FAF7C9FC284905200870224915
:100DB00088F800A081F800A0E07810B1C0B2401E11
:100DC000E070761C0A2EFFF605AF25E6F0B500218F
:100DD0001F4B0125426805FA01F422421FD0C1EBE6
:100DE000C10200EB4212103292F82240022C16D1BE
:100DF000154ED4783678012E15D0164E3678012E41
:100E00001E6816D096F8CF7196F8826006F00F062D
:100E1000BE1BA41B24B2002C00DC0024D470491C8F
:100E20000A29D7DBF0BD1E6896F8D07107F00F07CE
:100E3000EAE796F8D471E7E798041000570210002B
:100E400056021000530210005A0210005102100006
:100E50003802100052021000FA4900200860704762
:100E60002DE9F04F002789B03E463D463B46C3F191
:100E70000502002900EB820264D0B2F90020174479
:100E80005A4302FB03555B1C1644062BEFDBEE4C6A
:100E9000009760680190A068CDE90206206904907F
:100EA0006069CDE90505E0690790206A0890684609
:100EB000F2F7E4F982462068CDE90007A0680290C5
:100EC000E068CDE9030660690590A069CDE90605F3
:100ED000206A08908B466846F2F7D0F98046206871
:100EE00000906068CDE90107E06803902069CDE9D2
:100EF0000406A0690690E069CDE9070589466846C1
:100F0000F2F7BCF90326A8FB06470B4609FB06715E
:100F1000002508FB05110925A0FB056703FB0573E8
:100F2000002200FB0230A319414113EB0A0041EB00
:100F30000B014FF47562002303F0B8F809B000B25A
:100F4000BDE8F08FB2F9022099E770B5054600249C
:100F5000423021460646FFF783FF60F31F4401211C
:100F60003046FFF77DFF0146204661F30F00C5F8CC
:100F70004A0070BD88420CD9904201D3FF207047CF
:100F8000401AC0EB0020511AB0FBF1F010F0FF0046
:100F9000F5D10120704790F82220032A07D0D0F81D
:100FA0005A20C0F85E2000BFC0F85A107047C0F841
:100FB0005E10F9E730B5A549096891F81D2292073E
:100FC00025D58A7ED20702D00B8BCA8A01E0CB8A54
:100FD0000A8B91F819420514A54201DC64F31F4005
:100FE00091F81A5204145B1B9C4201DB63F31F400F
:100FF00091F81B3204B29C4201DC63F30F0091F8BC
:101000001C1203B2511A8B4201DB61F30F0030BD99
:10101000F8B500F15A020C460546111D684601F06C
:10102000C7FD684601F0BCFDBDF902008749F8B173
:10103000BDF900208AB34FF47A735A4392FBF0F261
:10104000B5F85C30184400B26080B5F85A30BDF88D
:101050000060334423800B684FF47A761F8B283F5F
:10106000B8422EDDB3F9183098422FDD18462DE036
:101070005A35688860802888BDF80020104400B286
:101080002080002800DA002020800968B1F91610BD
:10109000884200DD08462080F8BDFFE75A356A889F
:1010A000104400B260802A882280002800DA0020E4
:1010B00060800968B1F91810884200DD0846608038
:1010C000EAE728280DDA002800DA00206080B5F968
:1010D0005C30C01A504390FBF6F0B5F85A30184413
:1010E00020800968B4F90000CB8A283B984205DDCE
:1010F000B1F91610884206DD084604E02828CBDA4C
:10110000002800DA0020208035F95A1F401A4FF4D9
:101110007A71484390FBF2F069880844CFE74B4965
:1011200010B50A68031492F89F108B420ADB148BE7
:10113000641AA34206DC00B2884203DBD28A511A49
:10114000884201DD012010BD002010BD38B5B2F984
:101150000230B2F900205B4302FB02340A4601462A
:10116000684601F025FD684601F01AFDA04201D94C
:10117000002038BD012038BDF8B5344E0D46044678
:1011800090F822100127306803290ED0B4F93C10E2
:10119000002916DD10F8981FADF802104078ADF860
:1011A0000000A08F401EA08725E088304178A187ED
:1011B000007860872868C4F832002868C4F83600D0
:1011C000A2E090F88610ADF8021090F89720ADF8E4
:1011D0000020028B90F81C37D21A8A420BDC00F5F3
:1011E000E46190F820070009ADF80200087800F0EB
:1011F0000F00ADF800006A4604F1420104F132002C
:10120000FFF7A4FF014694F82200052808D004281F
:1012100006D0082873D00A2871D009286FD073E04F
:10122000B1B13068B4F93A1090F8882091424CDAA4
:1012300090F88000400756D52946204600F0B1FEC0
:1012400051E00000A8041000BC0410003802100097
:101250002868C4F83200B5F90200B4F938108842A1
:10126000316891F8871001F00F0101DD401A00E0AC
:1012700008442087B5F90000B4F936108842316877
:1012800091F8871002DDA0EB111001E000EB1110C6
:10129000E0863168B4F93A0091F8881088420FDD91
:1012A000B5F90200B4F9341008444FEA60006880D0
:1012B000B5F90000B4F9321008444FEA6000288004
:1012C0004FF000006087A0871EE003D12868C4F8B3
:1012D000320008E0D4F832002860306890F88000CE
:1012E000800700D40027B4F93A0040F6FF71884225
:1012F00001DA401C6087012F06D00DE0FFE70129CD
:1013000002D1D4F85A002860B5F902000002E06268
:10131000B5F900000002A06294F8DA00022805D1B5
:10132000306890F81007C00700D001273846B3E6B0
:10133000C2F11003504301FB030000097047F0B5F0
:10134000FE4B1D78FE4B1C684DB114F8C20F00F027
:101350000F0503096088A6884043C23C0CE080B1B9
:10136000012819D094F88A00B4F88E6000F00F05B7
:101370000309B4F88C004043764381420FDC1846E1
:1013800018E094F8D101B4F8086600F00F050309DD
:10139000B4F806064043EFE794F8AC00E4E7B14246
:1013A00001DB284606E0091A5F1B7943301A91FBDE
:1013B000F0F0181A824206D994F80A0600F00F00DD
:1013C000A2EB000007E005D294F80A0600F00F0037
:1013D000104400E01046A84201D22846F0BD9842D1
:1013E000FCD91846F0BDD54A10B51378D44A126816
:1013F00043B112F8C20F00F00F04538800095B4399
:1014000092880CE090B101281BD092F88A0000BFAE
:1014100032F88C3F00F00F04000952885B435243BE
:10142000994202DD91420FDB204610BD92F8D101B6
:10143000B2F8063600F00F0400095B43B2F8082644
:10144000EDE792F8AC00E3E7C91A041B6143D21A36
:1014500091FBF2F1401A10BD70B5044690F82200DD
:101460000E461346032828D0052835D004282ED050
:10147000B349096891F88020150601D508282BD0BA
:101480000A2801D0092817D1100615D4AB4AB1F8A3
:101490008C001278404312B1B1F8C400404383423B
:1014A0000AD8C23460687F3040F30F207080206813
:1014B0007F3040F30F20308070BDB6F90200C23497
:1014C00000026060B6F900000002206070BD207963
:1014D0001146FFF788FF05E020791946D4F8CC20A3
:1014E000FFF72DFFC4F8CC0005462178954829B9AF
:1014F000017965F3071101712169016121780129E1
:1015000003D1417965F303014171B6F90200C23498
:10151000010260682A46FFF70BFF60607F3040F3EE
:101520000F207080B6F900002A4601022068FFF7FC
:10153000FFFE2060BCE72DE9F04F814695B08A465A
:10154000D0F8B8001446D9F8BC1083460222002314
:10155000039102F0ABFDCDE90401794899F8C03060
:101560000068042B90F8CD10C1F3810134D002251E
:101570002BB999F82220032A30D0022A2ED099F8CC
:101580002220082A68D0042A66D0052A64D0092AB5
:1015900079D00A2A77D0012B23D0022B5ED0042BDE
:1015A0001AD100BF90F8CD10CA0702D00A0989F8F5
:1015B000C12090F8FF004043A0427DD2B9F942100B
:1015C000C9F82810B9F94400C9F82C00AAF802009B
:1015D000B9F84210AAF8001015B0B1E4012289F858
:1015E000C02090F8CD00C10702D0010989F8C110D0
:1015F00089F8C0504FF480310020C9E92E10BAF9A3
:101600000220A2FB0145D31703FB015302FB003369
:10161000C9E91A43BAF90020A2FB0145D31703FB1D
:10162000015302FB0032C9E92442BAF90220A2FBAD
:101630000145D31703FB015302FB0033C9E91C43E7
:10164000BAF90020A2FB0145D31703FB015102FBAD
:101650000011C9E92641BFE789F8C050374A13781D
:101660000022A3B140F6B3100021CDE900014100F2
:1016700000200A9034480C914114CDE90E0148F243
:10168000CC704BE0FFE7042289F8C0208AE7B0F86D
:10169000CE302E4D90F8CD005B43A5F12806A5F184
:1016A0007807A5F15008A3424FEAC0707EDC30B342
:1016B00099F8C100092800E030E107D221B10844BF
:1016C0000921F1F7C4FDFCE0401CFAE0092189F88A
:1016D000C11000BF99F8C10055F82010CA17CDE914
:1016E000001256F820100C91CA170A9257F82010D1
:1016F000CA17CDE90E1258F82000C1170FE04FF4B9
:10170000BB500021CDE9000142F6C1600C901048A9
:101710000A910114CDE90E0145F601100021CDE931
:101720000601D9E91A21DDE90E43A2FB04050B915C
:1017300001FB045102FB031112920BE0680210003E
:101740003802100062251000019FFEFF34460100A0
:101750008104FFFF5A46039B02F0A8FCB9F944300C
:10176000B9F94C201344DDE90024A3FB0267DD171F
:1017700005FB027203FB0424B9F948500C9AEF17D9
:10178000A5FB02C807FB02820A9B05FB032216EB9E
:101790000C0354411D1A64EB0104DDE90612D9E97A
:1017A0001C36A3FB010706FB017100E07AE003FB96
:1017B00002115A46039B02F079FC2A1A64EB0104D9
:1017C000CDE90824D9E92412DDE90E34A1FB030593
:1017D0000D9202FB0352109101FB04215A46039B18
:1017E00002F064FCB9F94230B9F94A201A44DDE943
:1017F0000034A2FB0367D51705FB037302FB043417
:10180000B9F946300C9DDF17A3FB05C807FB05851A
:101810000A9A03FB025216EB0C0354411D1A64EBA7
:101820000104DDE90621D9E92636A3FB020706FB00
:10183000027203FB01215A46039B02F037FC2F1A68
:1018400064EB01060B99129AC9E91C210D9A1099B3
:10185000C9E92612DDE90403DDE908211018594120
:101860005A46039B02F022FC0546C9F82C00DDE92C
:101870000403381846EB03015A46039B02F016FC9A
:10188000C9F82800DDE90824C9E92476F749C9E93F
:101890001A2409688A7ED207002A27D00A8B27D10A
:1018A000098B26E090B199F8C10000283FF412AFEF
:1018B00051B1A0EB010040B2002802DA89F8C12042
:1018C00008E789F8C10005E7401EFAE740F22270F8
:1018D0000021CDE90001410000200A90E4480C916C
:1018E0004114CDE90E0149F2406017E7CA8AD6E7F4
:1018F000C98A954201DD154602E0002D00DA002577
:10190000C9F82C50884204DC002801DA002100E0EC
:101910000146C9F82810AAF8025026E0DDE90402C1
:10192000D9E91A31181851415A46039B02F0BEFBFF
:101930000446DDE90402D9E92431181851415A4618
:10194000039B02F0B3FBB9F94410214401EBD171C0
:101950004910C9F82C10B9F94220104400EBD0709E
:101960004210C9F82820AAF80210B9F82800AAF8ED
:10197000000031E62DE9F843154600F146020F4616
:101980000446111F684601F013F9684601F008F992
:101990000646B8480168B14200DA3146DFF8CC8229
:1019A0000160D8F8000090F88000000604D53246A7
:1019B00039462046FFF7BFFDAF483968C44641604D
:1019C000D8F8000090F8801009071BD52179C9B913
:1019D000AA490978012915D1018B90F81C07091A29
:1019E000B7F90200814205DD324639462046FFF74D
:1019F00033FD07E00002C4F8C600B7F9000000029A
:101A0000C4F8C20094F8220003280BD005280BD09C
:101A1000042809D0092801D00A2801D1208E288065
:101A2000BDE8F88328880AE0DCF80000298890F8EF
:101A30008B0000F00F02208EFFF77AFC28802086B2
:101A4000EEE770B5002246681146012505FA01F35C
:101A50001E4211D0C1EBC10300EB4314103494F8C3
:101A60002230022B05D0032B03D0042B01D0052BF1
:101A700002D123891A4492B2491C0A29E6DB7B4829
:101A80000068B0F80411914201D87F2070BDB0F811
:101A90000601904209D2121AC2EBC212081AB2FB16
:101AA000F0F000F07F000228F0D2022070BD2DE996
:101AB000F04F704907468BB00020086070490870ED
:101AC0003846FFF7BEFFDFF8A4B1814600264FF08D
:101AD000010A79680AFA06F8544611EA080F7CD020
:101AE000C6EBC60007EB4015103595F82200032819
:101AF0000FD004280DD005280BD0DBF8001091F88A
:101B00008010090601D5082803D0092801D00A2829
:101B100063D1D5F842000190A88AADF82000DBF827
:101B2000000090F88000400603D52846FFF70DFA24
:101B300001905148019908AA016001A92846FFF7C0
:101B400019FFDBF8000090F88000C00706D008AA53
:101B500001A92846FFF710FB0028C0D0DBF80000E1
:101B600090F88100C00710D00198FFF7D8FA01283B
:101B70000BD195F82200082803D0092801D00A28A3
:101B800003D101A92846FFF743FA95F8220003285C
:101B900008D1DBF8001091F82911490702D5D5F8D2
:101BA0003E10019137490978012919D1BDF9061074
:101BB000B1F5B46F14DB344995F8202091F9001089
:101BC0008A420DDC3149AA7F91F900108A4207DB75
:101BD0000A2805D195F9000000E088E100F0ECFB4F
:101BE000DBF8002092F81007C00703D095F8DA0060
:101BF000032874D02648A246264C016841EA080111
:101C000001602B792478234306D195F822300A2BE2
